{
	"contracts/IterableMapping.sol": {
		"IterableMapping": {
			"abi": [
				{
					"inputs": [
						{
							"internalType": "address",
							"name": "",
							"type": "address"
						}
					],
					"name": "balances",
					"outputs": [
						{
							"internalType": "uint256",
							"name": "",
							"type": "uint256"
						}
					],
					"stateMutability": "view",
					"type": "function"
				},
				{
					"inputs": [
						{
							"internalType": "address",
							"name": "",
							"type": "address"
						}
					],
					"name": "exist",
					"outputs": [
						{
							"internalType": "bool",
							"name": "",
							"type": "bool"
						}
					],
					"stateMutability": "view",
					"type": "function"
				},
				{
					"inputs": [],
					"name": "getSize",
					"outputs": [
						{
							"internalType": "uint256",
							"name": "",
							"type": "uint256"
						}
					],
					"stateMutability": "nonpayable",
					"type": "function"
				},
				{
					"inputs": [
						{
							"internalType": "uint256",
							"name": "",
							"type": "uint256"
						}
					],
					"name": "keys",
					"outputs": [
						{
							"internalType": "address",
							"name": "",
							"type": "address"
						}
					],
					"stateMutability": "view",
					"type": "function"
				},
				{
					"inputs": [
						{
							"internalType": "address",
							"name": "_key",
							"type": "address"
						},
						{
							"internalType": "uint256",
							"name": "_val",
							"type": "uint256"
						}
					],
					"name": "set",
					"outputs": [],
					"stateMutability": "nonpayable",
					"type": "function"
				}
			],
			"devdoc": {
				"kind": "dev",
				"methods": {},
				"version": 1
			},
			"evm": {
				"assembly": "    /* \"contracts/IterableMapping.sol\":66:501  contract IterableMapping{\r... */\n  mstore(0x40, 0x80)\n  callvalue\n  dup1\n  iszero\n  tag_1\n  jumpi\n  0x00\n  dup1\n  revert\ntag_1:\n  pop\n  dataSize(sub_0)\n  dup1\n  dataOffset(sub_0)\n  0x00\n  codecopy\n  0x00\n  return\nstop\n\nsub_0: assembly {\n        /* \"contracts/IterableMapping.sol\":66:501  contract IterableMapping{\r... */\n      mstore(0x40, 0x80)\n      callvalue\n      dup1\n      iszero\n      tag_1\n      jumpi\n      0x00\n      dup1\n      revert\n    tag_1:\n      pop\n      jumpi(tag_2, lt(calldatasize, 0x04))\n      shr(0xe0, calldataload(0x00))\n      dup1\n      0x0cb6aaf1\n      eq\n      tag_3\n      jumpi\n      dup1\n      0x27e235e3\n      eq\n      tag_4\n      jumpi\n      dup1\n      0x3825d828\n      eq\n      tag_5\n      jumpi\n      dup1\n      0x4dfefc4b\n      eq\n      tag_6\n      jumpi\n      dup1\n      0xde8fa431\n      eq\n      tag_7\n      jumpi\n    tag_2:\n      0x00\n      dup1\n      revert\n        /* \"contracts/IterableMapping.sol\":192:213  address[] public keys */\n    tag_3:\n      tag_8\n      0x04\n      dup1\n      calldatasize\n      sub\n      dup2\n      add\n      swap1\n      tag_9\n      swap2\n      swap1\n      tag_10\n      jump\t// in\n    tag_9:\n      tag_11\n      jump\t// in\n    tag_8:\n      mload(0x40)\n      tag_12\n      swap2\n      swap1\n      tag_13\n      jump\t// in\n    tag_12:\n      mload(0x40)\n      dup1\n      swap2\n      sub\n      swap1\n      return\n        /* \"contracts/IterableMapping.sol\":99:139  mapping(address => uint) public balances */\n    tag_4:\n      tag_14\n      0x04\n      dup1\n      calldatasize\n      sub\n      dup2\n      add\n      swap1\n      tag_15\n      swap2\n      swap1\n      tag_16\n      jump\t// in\n    tag_15:\n      tag_17\n      jump\t// in\n    tag_14:\n      mload(0x40)\n      tag_18\n      swap2\n      swap1\n      tag_19\n      jump\t// in\n    tag_18:\n      mload(0x40)\n      dup1\n      swap2\n      sub\n      swap1\n      return\n        /* \"contracts/IterableMapping.sol\":222:412  function set(address _key, uint _val) public {\r... */\n    tag_5:\n      tag_20\n      0x04\n      dup1\n      calldatasize\n      sub\n      dup2\n      add\n      swap1\n      tag_21\n      swap2\n      swap1\n      tag_22\n      jump\t// in\n    tag_21:\n      tag_23\n      jump\t// in\n    tag_20:\n      stop\n        /* \"contracts/IterableMapping.sol\":148:185  mapping(address => bool) public exist */\n    tag_6:\n      tag_24\n      0x04\n      dup1\n      calldatasize\n      sub\n      dup2\n      add\n      swap1\n      tag_25\n      swap2\n      swap1\n      tag_16\n      jump\t// in\n    tag_25:\n      tag_26\n      jump\t// in\n    tag_24:\n      mload(0x40)\n      tag_27\n      swap2\n      swap1\n      tag_28\n      jump\t// in\n    tag_27:\n      mload(0x40)\n      dup1\n      swap2\n      sub\n      swap1\n      return\n        /* \"contracts/IterableMapping.sol\":420:498  function getSize() external returns(uint){\r... */\n    tag_7:\n      tag_29\n      tag_30\n      jump\t// in\n    tag_29:\n      mload(0x40)\n      tag_31\n      swap2\n      swap1\n      tag_19\n      jump\t// in\n    tag_31:\n      mload(0x40)\n      dup1\n      swap2\n      sub\n      swap1\n      return\n        /* \"contracts/IterableMapping.sol\":192:213  address[] public keys */\n    tag_11:\n      0x02\n      dup2\n      dup2\n      sload\n      dup2\n      lt\n      tag_32\n      jumpi\n      0x00\n      dup1\n      revert\n    tag_32:\n      swap1\n      0x00\n      mstore\n      keccak256(0x00, 0x20)\n      add\n      0x00\n      swap2\n      pop\n      sload\n      swap1\n      0x0100\n      exp\n      swap1\n      div\n      0xffffffffffffffffffffffffffffffffffffffff\n      and\n      dup2\n      jump\t// out\n        /* \"contracts/IterableMapping.sol\":99:139  mapping(address => uint) public balances */\n    tag_17:\n      mstore(0x20, 0x00)\n      dup1\n      0x00\n      mstore\n      keccak256(0x00, 0x40)\n      0x00\n      swap2\n      pop\n      swap1\n      pop\n      sload\n      dup2\n      jump\t// out\n        /* \"contracts/IterableMapping.sol\":222:412  function set(address _key, uint _val) public {\r... */\n    tag_23:\n        /* \"contracts/IterableMapping.sol\":283:288  exist */\n      0x01\n        /* \"contracts/IterableMapping.sol\":283:294  exist[_key] */\n      0x00\n        /* \"contracts/IterableMapping.sol\":289:293  _key */\n      dup4\n        /* \"contracts/IterableMapping.sol\":283:294  exist[_key] */\n      0xffffffffffffffffffffffffffffffffffffffff\n      and\n      0xffffffffffffffffffffffffffffffffffffffff\n      and\n      dup2\n      mstore\n      0x20\n      add\n      swap1\n      dup2\n      mstore\n      0x20\n      add\n      0x00\n      keccak256\n      0x00\n      swap1\n      sload\n      swap1\n      0x0100\n      exp\n      swap1\n      div\n      0xff\n      and\n        /* \"contracts/IterableMapping.sol\":278:370  if (!exist[_key]){\r... */\n      tag_35\n      jumpi\n        /* \"contracts/IterableMapping.sol\":324:328  true */\n      0x01\n        /* \"contracts/IterableMapping.sol\":310:315  exist */\n      dup1\n        /* \"contracts/IterableMapping.sol\":310:321  exist[_key] */\n      0x00\n        /* \"contracts/IterableMapping.sol\":316:320  _key */\n      dup5\n        /* \"contracts/IterableMapping.sol\":310:321  exist[_key] */\n      0xffffffffffffffffffffffffffffffffffffffff\n      and\n      0xffffffffffffffffffffffffffffffffffffffff\n      and\n      dup2\n      mstore\n      0x20\n      add\n      swap1\n      dup2\n      mstore\n      0x20\n      add\n      0x00\n      keccak256\n      0x00\n        /* \"contracts/IterableMapping.sol\":310:328  exist[_key] = true */\n      0x0100\n      exp\n      dup2\n      sload\n      dup2\n      0xff\n      mul\n      not\n      and\n      swap1\n      dup4\n      iszero\n      iszero\n      mul\n      or\n      swap1\n      sstore\n      pop\n        /* \"contracts/IterableMapping.sol\":343:347  keys */\n      0x02\n        /* \"contracts/IterableMapping.sol\":353:357  _key */\n      dup3\n        /* \"contracts/IterableMapping.sol\":343:358  keys.push(_key) */\n      swap1\n      dup1\n      0x01\n      dup2\n      sload\n      add\n      dup1\n      dup3\n      sstore\n      dup1\n      swap2\n      pop\n      pop\n      0x01\n      swap1\n      sub\n      swap1\n      0x00\n      mstore\n      keccak256(0x00, 0x20)\n      add\n      0x00\n      swap1\n      swap2\n      swap1\n      swap2\n      swap1\n      swap2\n      0x0100\n      exp\n      dup2\n      sload\n      dup2\n      0xffffffffffffffffffffffffffffffffffffffff\n      mul\n      not\n      and\n      swap1\n      dup4\n      0xffffffffffffffffffffffffffffffffffffffff\n      and\n      mul\n      or\n      swap1\n      sstore\n      pop\n        /* \"contracts/IterableMapping.sol\":278:370  if (!exist[_key]){\r... */\n    tag_35:\n        /* \"contracts/IterableMapping.sol\":400:404  _val */\n      dup1\n        /* \"contracts/IterableMapping.sol\":382:390  balances */\n      0x00\n        /* \"contracts/IterableMapping.sol\":382:396  balances[_key] */\n      dup1\n        /* \"contracts/IterableMapping.sol\":391:395  _key */\n      dup5\n        /* \"contracts/IterableMapping.sol\":382:396  balances[_key] */\n      0xffffffffffffffffffffffffffffffffffffffff\n      and\n      0xffffffffffffffffffffffffffffffffffffffff\n      and\n      dup2\n      mstore\n      0x20\n      add\n      swap1\n      dup2\n      mstore\n      0x20\n      add\n      0x00\n      keccak256\n      0x00\n        /* \"contracts/IterableMapping.sol\":382:404  balances[_key] += _val */\n      dup3\n      dup3\n      sload\n      tag_37\n      swap2\n      swap1\n      tag_38\n      jump\t// in\n    tag_37:\n      swap3\n      pop\n      pop\n      dup2\n      swap1\n      sstore\n      pop\n        /* \"contracts/IterableMapping.sol\":222:412  function set(address _key, uint _val) public {\r... */\n      pop\n      pop\n      jump\t// out\n        /* \"contracts/IterableMapping.sol\":148:185  mapping(address => bool) public exist */\n    tag_26:\n      mstore(0x20, 0x01)\n      dup1\n      0x00\n      mstore\n      keccak256(0x00, 0x40)\n      0x00\n      swap2\n      pop\n      sload\n      swap1\n      0x0100\n      exp\n      swap1\n      div\n      0xff\n      and\n      dup2\n      jump\t// out\n        /* \"contracts/IterableMapping.sol\":420:498  function getSize() external returns(uint){\r... */\n    tag_30:\n        /* \"contracts/IterableMapping.sol\":456:460  uint */\n      0x00\n        /* \"contracts/IterableMapping.sol\":479:483  keys */\n      0x02\n        /* \"contracts/IterableMapping.sol\":479:490  keys.length */\n      dup1\n      sload\n      swap1\n      pop\n        /* \"contracts/IterableMapping.sol\":472:490  return keys.length */\n      swap1\n      pop\n        /* \"contracts/IterableMapping.sol\":420:498  function getSize() external returns(uint){\r... */\n      swap1\n      jump\t// out\n        /* \"#utility.yul\":7:146   */\n    tag_41:\n        /* \"#utility.yul\":53:58   */\n      0x00\n        /* \"#utility.yul\":91:97   */\n      dup2\n        /* \"#utility.yul\":78:98   */\n      calldataload\n        /* \"#utility.yul\":69:98   */\n      swap1\n      pop\n        /* \"#utility.yul\":107:140   */\n      tag_43\n        /* \"#utility.yul\":134:139   */\n      dup2\n        /* \"#utility.yul\":107:140   */\n      tag_44\n      jump\t// in\n    tag_43:\n        /* \"#utility.yul\":7:146   */\n      swap3\n      swap2\n      pop\n      pop\n      jump\t// out\n        /* \"#utility.yul\":152:291   */\n    tag_45:\n        /* \"#utility.yul\":198:203   */\n      0x00\n        /* \"#utility.yul\":236:242   */\n      dup2\n        /* \"#utility.yul\":223:243   */\n      calldataload\n        /* \"#utility.yul\":214:243   */\n      swap1\n      pop\n        /* \"#utility.yul\":252:285   */\n      tag_47\n        /* \"#utility.yul\":279:284   */\n      dup2\n        /* \"#utility.yul\":252:285   */\n      tag_48\n      jump\t// in\n    tag_47:\n        /* \"#utility.yul\":152:291   */\n      swap3\n      swap2\n      pop\n      pop\n      jump\t// out\n        /* \"#utility.yul\":297:626   */\n    tag_16:\n        /* \"#utility.yul\":356:362   */\n      0x00\n        /* \"#utility.yul\":405:407   */\n      0x20\n        /* \"#utility.yul\":393:402   */\n      dup3\n        /* \"#utility.yul\":384:391   */\n      dup5\n        /* \"#utility.yul\":380:403   */\n      sub\n        /* \"#utility.yul\":376:408   */\n      slt\n        /* \"#utility.yul\":373:492   */\n      iszero\n      tag_50\n      jumpi\n        /* \"#utility.yul\":411:490   */\n      tag_51\n      tag_52\n      jump\t// in\n    tag_51:\n        /* \"#utility.yul\":373:492   */\n    tag_50:\n        /* \"#utility.yul\":531:532   */\n      0x00\n        /* \"#utility.yul\":556:609   */\n      tag_53\n        /* \"#utility.yul\":601:608   */\n      dup5\n        /* \"#utility.yul\":592:598   */\n      dup3\n        /* \"#utility.yul\":581:590   */\n      dup6\n        /* \"#utility.yul\":577:599   */\n      add\n        /* \"#utility.yul\":556:609   */\n      tag_41\n      jump\t// in\n    tag_53:\n        /* \"#utility.yul\":546:609   */\n      swap2\n      pop\n        /* \"#utility.yul\":502:619   */\n      pop\n        /* \"#utility.yul\":297:626   */\n      swap3\n      swap2\n      pop\n      pop\n      jump\t// out\n        /* \"#utility.yul\":632:1106   */\n    tag_22:\n        /* \"#utility.yul\":700:706   */\n      0x00\n        /* \"#utility.yul\":708:714   */\n      dup1\n        /* \"#utility.yul\":757:759   */\n      0x40\n        /* \"#utility.yul\":745:754   */\n      dup4\n        /* \"#utility.yul\":736:743   */\n      dup6\n        /* \"#utility.yul\":732:755   */\n      sub\n        /* \"#utility.yul\":728:760   */\n      slt\n        /* \"#utility.yul\":725:844   */\n      iszero\n      tag_55\n      jumpi\n        /* \"#utility.yul\":763:842   */\n      tag_56\n      tag_52\n      jump\t// in\n    tag_56:\n        /* \"#utility.yul\":725:844   */\n    tag_55:\n        /* \"#utility.yul\":883:884   */\n      0x00\n        /* \"#utility.yul\":908:961   */\n      tag_57\n        /* \"#utility.yul\":953:960   */\n      dup6\n        /* \"#utility.yul\":944:950   */\n      dup3\n        /* \"#utility.yul\":933:942   */\n      dup7\n        /* \"#utility.yul\":929:951   */\n      add\n        /* \"#utility.yul\":908:961   */\n      tag_41\n      jump\t// in\n    tag_57:\n        /* \"#utility.yul\":898:961   */\n      swap3\n      pop\n        /* \"#utility.yul\":854:971   */\n      pop\n        /* \"#utility.yul\":1010:1012   */\n      0x20\n        /* \"#utility.yul\":1036:1089   */\n      tag_58\n        /* \"#utility.yul\":1081:1088   */\n      dup6\n        /* \"#utility.yul\":1072:1078   */\n      dup3\n        /* \"#utility.yul\":1061:1070   */\n      dup7\n        /* \"#utility.yul\":1057:1079   */\n      add\n        /* \"#utility.yul\":1036:1089   */\n      tag_45\n      jump\t// in\n    tag_58:\n        /* \"#utility.yul\":1026:1089   */\n      swap2\n      pop\n        /* \"#utility.yul\":981:1099   */\n      pop\n        /* \"#utility.yul\":632:1106   */\n      swap3\n      pop\n      swap3\n      swap1\n      pop\n      jump\t// out\n        /* \"#utility.yul\":1112:1441   */\n    tag_10:\n        /* \"#utility.yul\":1171:1177   */\n      0x00\n        /* \"#utility.yul\":1220:1222   */\n      0x20\n        /* \"#utility.yul\":1208:1217   */\n      dup3\n        /* \"#utility.yul\":1199:1206   */\n      dup5\n        /* \"#utility.yul\":1195:1218   */\n      sub\n        /* \"#utility.yul\":1191:1223   */\n      slt\n        /* \"#utility.yul\":1188:1307   */\n      iszero\n      tag_60\n      jumpi\n        /* \"#utility.yul\":1226:1305   */\n      tag_61\n      tag_52\n      jump\t// in\n    tag_61:\n        /* \"#utility.yul\":1188:1307   */\n    tag_60:\n        /* \"#utility.yul\":1346:1347   */\n      0x00\n        /* \"#utility.yul\":1371:1424   */\n      tag_62\n        /* \"#utility.yul\":1416:1423   */\n      dup5\n        /* \"#utility.yul\":1407:1413   */\n      dup3\n        /* \"#utility.yul\":1396:1405   */\n      dup6\n        /* \"#utility.yul\":1392:1414   */\n      add\n        /* \"#utility.yul\":1371:1424   */\n      tag_45\n      jump\t// in\n    tag_62:\n        /* \"#utility.yul\":1361:1424   */\n      swap2\n      pop\n        /* \"#utility.yul\":1317:1434   */\n      pop\n        /* \"#utility.yul\":1112:1441   */\n      swap3\n      swap2\n      pop\n      pop\n      jump\t// out\n        /* \"#utility.yul\":1447:1565   */\n    tag_63:\n        /* \"#utility.yul\":1534:1558   */\n      tag_65\n        /* \"#utility.yul\":1552:1557   */\n      dup2\n        /* \"#utility.yul\":1534:1558   */\n      tag_66\n      jump\t// in\n    tag_65:\n        /* \"#utility.yul\":1529:1532   */\n      dup3\n        /* \"#utility.yul\":1522:1559   */\n      mstore\n        /* \"#utility.yul\":1447:1565   */\n      pop\n      pop\n      jump\t// out\n        /* \"#utility.yul\":1571:1680   */\n    tag_67:\n        /* \"#utility.yul\":1652:1673   */\n      tag_69\n        /* \"#utility.yul\":1667:1672   */\n      dup2\n        /* \"#utility.yul\":1652:1673   */\n      tag_70\n      jump\t// in\n    tag_69:\n        /* \"#utility.yul\":1647:1650   */\n      dup3\n        /* \"#utility.yul\":1640:1674   */\n      mstore\n        /* \"#utility.yul\":1571:1680   */\n      pop\n      pop\n      jump\t// out\n        /* \"#utility.yul\":1686:1804   */\n    tag_71:\n        /* \"#utility.yul\":1773:1797   */\n      tag_73\n        /* \"#utility.yul\":1791:1796   */\n      dup2\n        /* \"#utility.yul\":1773:1797   */\n      tag_74\n      jump\t// in\n    tag_73:\n        /* \"#utility.yul\":1768:1771   */\n      dup3\n        /* \"#utility.yul\":1761:1798   */\n      mstore\n        /* \"#utility.yul\":1686:1804   */\n      pop\n      pop\n      jump\t// out\n        /* \"#utility.yul\":1810:2032   */\n    tag_13:\n        /* \"#utility.yul\":1903:1907   */\n      0x00\n        /* \"#utility.yul\":1941:1943   */\n      0x20\n        /* \"#utility.yul\":1930:1939   */\n      dup3\n        /* \"#utility.yul\":1926:1944   */\n      add\n        /* \"#utility.yul\":1918:1944   */\n      swap1\n      pop\n        /* \"#utility.yul\":1954:2025   */\n      tag_76\n        /* \"#utility.yul\":2022:2023   */\n      0x00\n        /* \"#utility.yul\":2011:2020   */\n      dup4\n        /* \"#utility.yul\":2007:2024   */\n      add\n        /* \"#utility.yul\":1998:2004   */\n      dup5\n        /* \"#utility.yul\":1954:2025   */\n      tag_63\n      jump\t// in\n    tag_76:\n        /* \"#utility.yul\":1810:2032   */\n      swap3\n      swap2\n      pop\n      pop\n      jump\t// out\n        /* \"#utility.yul\":2038:2248   */\n    tag_28:\n        /* \"#utility.yul\":2125:2129   */\n      0x00\n        /* \"#utility.yul\":2163:2165   */\n      0x20\n        /* \"#utility.yul\":2152:2161   */\n      dup3\n        /* \"#utility.yul\":2148:2166   */\n      add\n        /* \"#utility.yul\":2140:2166   */\n      swap1\n      pop\n        /* \"#utility.yul\":2176:2241   */\n      tag_78\n        /* \"#utility.yul\":2238:2239   */\n      0x00\n        /* \"#utility.yul\":2227:2236   */\n      dup4\n        /* \"#utility.yul\":2223:2240   */\n      add\n        /* \"#utility.yul\":2214:2220   */\n      dup5\n        /* \"#utility.yul\":2176:2241   */\n      tag_67\n      jump\t// in\n    tag_78:\n        /* \"#utility.yul\":2038:2248   */\n      swap3\n      swap2\n      pop\n      pop\n      jump\t// out\n        /* \"#utility.yul\":2254:2476   */\n    tag_19:\n        /* \"#utility.yul\":2347:2351   */\n      0x00\n        /* \"#utility.yul\":2385:2387   */\n      0x20\n        /* \"#utility.yul\":2374:2383   */\n      dup3\n        /* \"#utility.yul\":2370:2388   */\n      add\n        /* \"#utility.yul\":2362:2388   */\n      swap1\n      pop\n        /* \"#utility.yul\":2398:2469   */\n      tag_80\n        /* \"#utility.yul\":2466:2467   */\n      0x00\n        /* \"#utility.yul\":2455:2464   */\n      dup4\n        /* \"#utility.yul\":2451:2468   */\n      add\n        /* \"#utility.yul\":2442:2448   */\n      dup5\n        /* \"#utility.yul\":2398:2469   */\n      tag_71\n      jump\t// in\n    tag_80:\n        /* \"#utility.yul\":2254:2476   */\n      swap3\n      swap2\n      pop\n      pop\n      jump\t// out\n        /* \"#utility.yul\":2563:2868   */\n    tag_38:\n        /* \"#utility.yul\":2603:2606   */\n      0x00\n        /* \"#utility.yul\":2622:2642   */\n      tag_84\n        /* \"#utility.yul\":2640:2641   */\n      dup3\n        /* \"#utility.yul\":2622:2642   */\n      tag_74\n      jump\t// in\n    tag_84:\n        /* \"#utility.yul\":2617:2642   */\n      swap2\n      pop\n        /* \"#utility.yul\":2656:2676   */\n      tag_85\n        /* \"#utility.yul\":2674:2675   */\n      dup4\n        /* \"#utility.yul\":2656:2676   */\n      tag_74\n      jump\t// in\n    tag_85:\n        /* \"#utility.yul\":2651:2676   */\n      swap3\n      pop\n        /* \"#utility.yul\":2810:2811   */\n      dup3\n        /* \"#utility.yul\":2742:2808   */\n      0xffffffffffffffffffffffffffffffffffffffffffffffffffffffffffffffff\n        /* \"#utility.yul\":2738:2812   */\n      sub\n        /* \"#utility.yul\":2735:2736   */\n      dup3\n        /* \"#utility.yul\":2732:2813   */\n      gt\n        /* \"#utility.yul\":2729:2836   */\n      iszero\n      tag_86\n      jumpi\n        /* \"#utility.yul\":2816:2834   */\n      tag_87\n      tag_88\n      jump\t// in\n    tag_87:\n        /* \"#utility.yul\":2729:2836   */\n    tag_86:\n        /* \"#utility.yul\":2860:2861   */\n      dup3\n        /* \"#utility.yul\":2857:2858   */\n      dup3\n        /* \"#utility.yul\":2853:2862   */\n      add\n        /* \"#utility.yul\":2846:2862   */\n      swap1\n      pop\n        /* \"#utility.yul\":2563:2868   */\n      swap3\n      swap2\n      pop\n      pop\n      jump\t// out\n        /* \"#utility.yul\":2874:2970   */\n    tag_66:\n        /* \"#utility.yul\":2911:2918   */\n      0x00\n        /* \"#utility.yul\":2940:2964   */\n      tag_90\n        /* \"#utility.yul\":2958:2963   */\n      dup3\n        /* \"#utility.yul\":2940:2964   */\n      tag_91\n      jump\t// in\n    tag_90:\n        /* \"#utility.yul\":2929:2964   */\n      swap1\n      pop\n        /* \"#utility.yul\":2874:2970   */\n      swap2\n      swap1\n      pop\n      jump\t// out\n        /* \"#utility.yul\":2976:3066   */\n    tag_70:\n        /* \"#utility.yul\":3010:3017   */\n      0x00\n        /* \"#utility.yul\":3053:3058   */\n      dup2\n        /* \"#utility.yul\":3046:3059   */\n      iszero\n        /* \"#utility.yul\":3039:3060   */\n      iszero\n        /* \"#utility.yul\":3028:3060   */\n      swap1\n      pop\n        /* \"#utility.yul\":2976:3066   */\n      swap2\n      swap1\n      pop\n      jump\t// out\n        /* \"#utility.yul\":3072:3198   */\n    tag_91:\n        /* \"#utility.yul\":3109:3116   */\n      0x00\n        /* \"#utility.yul\":3149:3191   */\n      0xffffffffffffffffffffffffffffffffffffffff\n        /* \"#utility.yul\":3142:3147   */\n      dup3\n        /* \"#utility.yul\":3138:3192   */\n      and\n        /* \"#utility.yul\":3127:3192   */\n      swap1\n      pop\n        /* \"#utility.yul\":3072:3198   */\n      swap2\n      swap1\n      pop\n      jump\t// out\n        /* \"#utility.yul\":3204:3281   */\n    tag_74:\n        /* \"#utility.yul\":3241:3248   */\n      0x00\n        /* \"#utility.yul\":3270:3275   */\n      dup2\n        /* \"#utility.yul\":3259:3275   */\n      swap1\n      pop\n        /* \"#utility.yul\":3204:3281   */\n      swap2\n      swap1\n      pop\n      jump\t// out\n        /* \"#utility.yul\":3287:3467   */\n    tag_88:\n        /* \"#utility.yul\":3335:3412   */\n      0x4e487b7100000000000000000000000000000000000000000000000000000000\n        /* \"#utility.yul\":3332:3333   */\n      0x00\n        /* \"#utility.yul\":3325:3413   */\n      mstore\n        /* \"#utility.yul\":3432:3436   */\n      0x11\n        /* \"#utility.yul\":3429:3430   */\n      0x04\n        /* \"#utility.yul\":3422:3437   */\n      mstore\n        /* \"#utility.yul\":3456:3460   */\n      0x24\n        /* \"#utility.yul\":3453:3454   */\n      0x00\n        /* \"#utility.yul\":3446:3461   */\n      revert\n        /* \"#utility.yul\":3596:3713   */\n    tag_52:\n        /* \"#utility.yul\":3705:3706   */\n      0x00\n        /* \"#utility.yul\":3702:3703   */\n      dup1\n        /* \"#utility.yul\":3695:3707   */\n      revert\n        /* \"#utility.yul\":3719:3841   */\n    tag_44:\n        /* \"#utility.yul\":3792:3816   */\n      tag_100\n        /* \"#utility.yul\":3810:3815   */\n      dup2\n        /* \"#utility.yul\":3792:3816   */\n      tag_66\n      jump\t// in\n    tag_100:\n        /* \"#utility.yul\":3785:3790   */\n      dup2\n        /* \"#utility.yul\":3782:3817   */\n      eq\n        /* \"#utility.yul\":3772:3835   */\n      tag_101\n      jumpi\n        /* \"#utility.yul\":3831:3832   */\n      0x00\n        /* \"#utility.yul\":3828:3829   */\n      dup1\n        /* \"#utility.yul\":3821:3833   */\n      revert\n        /* \"#utility.yul\":3772:3835   */\n    tag_101:\n        /* \"#utility.yul\":3719:3841   */\n      pop\n      jump\t// out\n        /* \"#utility.yul\":3847:3969   */\n    tag_48:\n        /* \"#utility.yul\":3920:3944   */\n      tag_103\n        /* \"#utility.yul\":3938:3943   */\n      dup2\n        /* \"#utility.yul\":3920:3944   */\n      tag_74\n      jump\t// in\n    tag_103:\n        /* \"#utility.yul\":3913:3918   */\n      dup2\n        /* \"#utility.yul\":3910:3945   */\n      eq\n        /* \"#utility.yul\":3900:3963   */\n      tag_104\n      jumpi\n        /* \"#utility.yul\":3959:3960   */\n      0x00\n        /* \"#utility.yul\":3956:3957   */\n      dup1\n        /* \"#utility.yul\":3949:3961   */\n      revert\n        /* \"#utility.yul\":3900:3963   */\n    tag_104:\n        /* \"#utility.yul\":3847:3969   */\n      pop\n      jump\t// out\n\n    auxdata: 0xa2646970667358221220bdbfa17cd6a377a14487b3025c5c6b7aee96984c352fc074aaf02d6406027ad964736f6c63430008070033\n}\n",
				"bytecode": {
					"linkReferences": {},
					"object": "608060405234801561001057600080fd5b50610587806100206000396000f3fe608060405234801561001057600080fd5b50600436106100575760003560e01c80630cb6aaf11461005c57806327e235e31461008c5780633825d828146100bc5780634dfefc4b146100d8578063de8fa43114610108575b600080fd5b610076600480360381019061007191906103a6565b610126565b6040516100839190610400565b60405180910390f35b6100a660048036038101906100a19190610339565b610165565b6040516100b39190610436565b60405180910390f35b6100d660048036038101906100d19190610366565b61017d565b005b6100f260048036038101906100ed9190610339565b6102e2565b6040516100ff919061041b565b60405180910390f35b610110610302565b60405161011d9190610436565b60405180910390f35b6002818154811061013657600080fd5b906000526020600020016000915054906101000a900473ffffffffffffffffffffffffffffffffffffffff1681565b60006020528060005260406000206000915090505481565b600160008373ffffffffffffffffffffffffffffffffffffffff1673ffffffffffffffffffffffffffffffffffffffff16815260200190815260200160002060009054906101000a900460ff166102895760018060008473ffffffffffffffffffffffffffffffffffffffff1673ffffffffffffffffffffffffffffffffffffffff16815260200190815260200160002060006101000a81548160ff0219169083151502179055506002829080600181540180825580915050600190039060005260206000200160009091909190916101000a81548173ffffffffffffffffffffffffffffffffffffffff021916908373ffffffffffffffffffffffffffffffffffffffff1602179055505b806000808473ffffffffffffffffffffffffffffffffffffffff1673ffffffffffffffffffffffffffffffffffffffff16815260200190815260200160002060008282546102d79190610451565b925050819055505050565b60016020528060005260406000206000915054906101000a900460ff1681565b6000600280549050905090565b60008135905061031e81610523565b92915050565b6000813590506103338161053a565b92915050565b60006020828403121561034f5761034e61051e565b5b600061035d8482850161030f565b91505092915050565b6000806040838503121561037d5761037c61051e565b5b600061038b8582860161030f565b925050602061039c85828601610324565b9150509250929050565b6000602082840312156103bc576103bb61051e565b5b60006103ca84828501610324565b91505092915050565b6103dc816104a7565b82525050565b6103eb816104b9565b82525050565b6103fa816104e5565b82525050565b600060208201905061041560008301846103d3565b92915050565b600060208201905061043060008301846103e2565b92915050565b600060208201905061044b60008301846103f1565b92915050565b600061045c826104e5565b9150610467836104e5565b9250827fffffffffffffffffffffffffffffffffffffffffffffffffffffffffffffffff0382111561049c5761049b6104ef565b5b828201905092915050565b60006104b2826104c5565b9050919050565b60008115159050919050565b600073ffffffffffffffffffffffffffffffffffffffff82169050919050565b6000819050919050565b7f4e487b7100000000000000000000000000000000000000000000000000000000600052601160045260246000fd5b600080fd5b61052c816104a7565b811461053757600080fd5b50565b610543816104e5565b811461054e57600080fd5b5056fea2646970667358221220bdbfa17cd6a377a14487b3025c5c6b7aee96984c352fc074aaf02d6406027ad964736f6c63430008070033",
					"opcodes": "PUSH1 0x80 PUSH1 0x40 MSTORE CALLVALUE DUP1 ISZERO PUSH2 0x10 JUMPI PUSH1 0x0 DUP1 REVERT JUMPDEST POP PUSH2 0x587 DUP1 PUSH2 0x20 PUSH1 0x0 CODECOPY PUSH1 0x0 RETURN INVALID PUSH1 0x80 PUSH1 0x40 MSTORE CALLVALUE DUP1 ISZERO PUSH2 0x10 JUMPI PUSH1 0x0 DUP1 REVERT JUMPDEST POP PUSH1 0x4 CALLDATASIZE LT PUSH2 0x57 JUMPI PUSH1 0x0 CALLDATALOAD PUSH1 0xE0 SHR DUP1 PUSH4 0xCB6AAF1 EQ PUSH2 0x5C JUMPI DUP1 PUSH4 0x27E235E3 EQ PUSH2 0x8C JUMPI DUP1 PUSH4 0x3825D828 EQ PUSH2 0xBC JUMPI DUP1 PUSH4 0x4DFEFC4B EQ PUSH2 0xD8 JUMPI DUP1 PUSH4 0xDE8FA431 EQ PUSH2 0x108 JUMPI JUMPDEST PUSH1 0x0 DUP1 REVERT JUMPDEST PUSH2 0x76 PUSH1 0x4 DUP1 CALLDATASIZE SUB DUP2 ADD SWAP1 PUSH2 0x71 SWAP2 SWAP1 PUSH2 0x3A6 JUMP JUMPDEST PUSH2 0x126 JUMP JUMPDEST PUSH1 0x40 MLOAD PUSH2 0x83 SWAP2 SWAP1 PUSH2 0x400 JUMP JUMPDEST PUSH1 0x40 MLOAD DUP1 SWAP2 SUB SWAP1 RETURN JUMPDEST PUSH2 0xA6 PUSH1 0x4 DUP1 CALLDATASIZE SUB DUP2 ADD SWAP1 PUSH2 0xA1 SWAP2 SWAP1 PUSH2 0x339 JUMP JUMPDEST PUSH2 0x165 JUMP JUMPDEST PUSH1 0x40 MLOAD PUSH2 0xB3 SWAP2 SWAP1 PUSH2 0x436 JUMP JUMPDEST PUSH1 0x40 MLOAD DUP1 SWAP2 SUB SWAP1 RETURN JUMPDEST PUSH2 0xD6 PUSH1 0x4 DUP1 CALLDATASIZE SUB DUP2 ADD SWAP1 PUSH2 0xD1 SWAP2 SWAP1 PUSH2 0x366 JUMP JUMPDEST PUSH2 0x17D JUMP JUMPDEST STOP JUMPDEST PUSH2 0xF2 PUSH1 0x4 DUP1 CALLDATASIZE SUB DUP2 ADD SWAP1 PUSH2 0xED SWAP2 SWAP1 PUSH2 0x339 JUMP JUMPDEST PUSH2 0x2E2 JUMP JUMPDEST PUSH1 0x40 MLOAD PUSH2 0xFF SWAP2 SWAP1 PUSH2 0x41B JUMP JUMPDEST PUSH1 0x40 MLOAD DUP1 SWAP2 SUB SWAP1 RETURN JUMPDEST PUSH2 0x110 PUSH2 0x302 JUMP JUMPDEST PUSH1 0x40 MLOAD PUSH2 0x11D SWAP2 SWAP1 PUSH2 0x436 JUMP JUMPDEST PUSH1 0x40 MLOAD DUP1 SWAP2 SUB SWAP1 RETURN JUMPDEST PUSH1 0x2 DUP2 DUP2 SLOAD DUP2 LT PUSH2 0x136 JUMPI PUSH1 0x0 DUP1 REVERT JUMPDEST SWAP1 PUSH1 0x0 MSTORE PUSH1 0x20 PUSH1 0x0 KECCAK256 ADD PUSH1 0x0 SWAP2 POP SLOAD SWAP1 PUSH2 0x100 EXP SWAP1 DIV PUSH20 0xFFFFFFFFFFFFFFFFFFFFFFFFFFFFFFFFFFFFFFFF AND DUP2 JUMP JUMPDEST PUSH1 0x0 PUSH1 0x20 MSTORE DUP1 PUSH1 0x0 MSTORE PUSH1 0x40 PUSH1 0x0 KECCAK256 PUSH1 0x0 SWAP2 POP SWAP1 POP SLOAD DUP2 JUMP JUMPDEST PUSH1 0x1 PUSH1 0x0 DUP4 PUSH20 0xFFFFFFFFFFFFFFFFFFFFFFFFFFFFFFFFFFFFFFFF AND PUSH20 0xFFFFFFFFFFFFFFFFFFFFFFFFFFFFFFFFFFFFFFFF AND DUP2 MSTORE PUSH1 0x20 ADD SWAP1 DUP2 MSTORE PUSH1 0x20 ADD PUSH1 0x0 KECCAK256 PUSH1 0x0 SWAP1 SLOAD SWAP1 PUSH2 0x100 EXP SWAP1 DIV PUSH1 0xFF AND PUSH2 0x289 JUMPI PUSH1 0x1 DUP1 PUSH1 0x0 DUP5 PUSH20 0xFFFFFFFFFFFFFFFFFFFFFFFFFFFFFFFFFFFFFFFF AND PUSH20 0xFFFFFFFFFFFFFFFFFFFFFFFFFFFFFFFFFFFFFFFF AND DUP2 MSTORE PUSH1 0x20 ADD SWAP1 DUP2 MSTORE PUSH1 0x20 ADD PUSH1 0x0 KECCAK256 PUSH1 0x0 PUSH2 0x100 EXP DUP2 SLOAD DUP2 PUSH1 0xFF MUL NOT AND SWAP1 DUP4 ISZERO ISZERO MUL OR SWAP1 SSTORE POP PUSH1 0x2 DUP3 SWAP1 DUP1 PUSH1 0x1 DUP2 SLOAD ADD DUP1 DUP3 SSTORE DUP1 SWAP2 POP POP PUSH1 0x1 SWAP1 SUB SWAP1 PUSH1 0x0 MSTORE PUSH1 0x20 PUSH1 0x0 KECCAK256 ADD PUSH1 0x0 SWAP1 SWAP2 SWAP1 SWAP2 SWAP1 SWAP2 PUSH2 0x100 EXP DUP2 SLOAD DUP2 PUSH20 0xFFFFFFFFFFFFFFFFFFFFFFFFFFFFFFFFFFFFFFFF MUL NOT AND SWAP1 DUP4 PUSH20 0xFFFFFFFFFFFFFFFFFFFFFFFFFFFFFFFFFFFFFFFF AND MUL OR SWAP1 SSTORE POP JUMPDEST DUP1 PUSH1 0x0 DUP1 DUP5 PUSH20 0xFFFFFFFFFFFFFFFFFFFFFFFFFFFFFFFFFFFFFFFF AND PUSH20 0xFFFFFFFFFFFFFFFFFFFFFFFFFFFFFFFFFFFFFFFF AND DUP2 MSTORE PUSH1 0x20 ADD SWAP1 DUP2 MSTORE PUSH1 0x20 ADD PUSH1 0x0 KECCAK256 PUSH1 0x0 DUP3 DUP3 SLOAD PUSH2 0x2D7 SWAP2 SWAP1 PUSH2 0x451 JUMP JUMPDEST SWAP3 POP POP DUP2 SWAP1 SSTORE POP POP POP JUMP JUMPDEST PUSH1 0x1 PUSH1 0x20 MSTORE DUP1 PUSH1 0x0 MSTORE PUSH1 0x40 PUSH1 0x0 KECCAK256 PUSH1 0x0 SWAP2 POP SLOAD SWAP1 PUSH2 0x100 EXP SWAP1 DIV PUSH1 0xFF AND DUP2 JUMP JUMPDEST PUSH1 0x0 PUSH1 0x2 DUP1 SLOAD SWAP1 POP SWAP1 POP SWAP1 JUMP JUMPDEST PUSH1 0x0 DUP2 CALLDATALOAD SWAP1 POP PUSH2 0x31E DUP2 PUSH2 0x523 JUMP JUMPDEST SWAP3 SWAP2 POP POP JUMP JUMPDEST PUSH1 0x0 DUP2 CALLDATALOAD SWAP1 POP PUSH2 0x333 DUP2 PUSH2 0x53A JUMP JUMPDEST SWAP3 SWAP2 POP POP JUMP JUMPDEST PUSH1 0x0 PUSH1 0x20 DUP3 DUP5 SUB SLT ISZERO PUSH2 0x34F JUMPI PUSH2 0x34E PUSH2 0x51E JUMP JUMPDEST JUMPDEST PUSH1 0x0 PUSH2 0x35D DUP5 DUP3 DUP6 ADD PUSH2 0x30F JUMP JUMPDEST SWAP2 POP POP SWAP3 SWAP2 POP POP JUMP JUMPDEST PUSH1 0x0 DUP1 PUSH1 0x40 DUP4 DUP6 SUB SLT ISZERO PUSH2 0x37D JUMPI PUSH2 0x37C PUSH2 0x51E JUMP JUMPDEST JUMPDEST PUSH1 0x0 PUSH2 0x38B DUP6 DUP3 DUP7 ADD PUSH2 0x30F JUMP JUMPDEST SWAP3 POP POP PUSH1 0x20 PUSH2 0x39C DUP6 DUP3 DUP7 ADD PUSH2 0x324 JUMP JUMPDEST SWAP2 POP POP SWAP3 POP SWAP3 SWAP1 POP JUMP JUMPDEST PUSH1 0x0 PUSH1 0x20 DUP3 DUP5 SUB SLT ISZERO PUSH2 0x3BC JUMPI PUSH2 0x3BB PUSH2 0x51E JUMP JUMPDEST JUMPDEST PUSH1 0x0 PUSH2 0x3CA DUP5 DUP3 DUP6 ADD PUSH2 0x324 JUMP JUMPDEST SWAP2 POP POP SWAP3 SWAP2 POP POP JUMP JUMPDEST PUSH2 0x3DC DUP2 PUSH2 0x4A7 JUMP JUMPDEST DUP3 MSTORE POP POP JUMP JUMPDEST PUSH2 0x3EB DUP2 PUSH2 0x4B9 JUMP JUMPDEST DUP3 MSTORE POP POP JUMP JUMPDEST PUSH2 0x3FA DUP2 PUSH2 0x4E5 JUMP JUMPDEST DUP3 MSTORE POP POP JUMP JUMPDEST PUSH1 0x0 PUSH1 0x20 DUP3 ADD SWAP1 POP PUSH2 0x415 PUSH1 0x0 DUP4 ADD DUP5 PUSH2 0x3D3 JUMP JUMPDEST SWAP3 SWAP2 POP POP JUMP JUMPDEST PUSH1 0x0 PUSH1 0x20 DUP3 ADD SWAP1 POP PUSH2 0x430 PUSH1 0x0 DUP4 ADD DUP5 PUSH2 0x3E2 JUMP JUMPDEST SWAP3 SWAP2 POP POP JUMP JUMPDEST PUSH1 0x0 PUSH1 0x20 DUP3 ADD SWAP1 POP PUSH2 0x44B PUSH1 0x0 DUP4 ADD DUP5 PUSH2 0x3F1 JUMP JUMPDEST SWAP3 SWAP2 POP POP JUMP JUMPDEST PUSH1 0x0 PUSH2 0x45C DUP3 PUSH2 0x4E5 JUMP JUMPDEST SWAP2 POP PUSH2 0x467 DUP4 PUSH2 0x4E5 JUMP JUMPDEST SWAP3 POP DUP3 PUSH32 0xFFFFFFFFFFFFFFFFFFFFFFFFFFFFFFFFFFFFFFFFFFFFFFFFFFFFFFFFFFFFFFFF SUB DUP3 GT ISZERO PUSH2 0x49C JUMPI PUSH2 0x49B PUSH2 0x4EF JUMP JUMPDEST JUMPDEST DUP3 DUP3 ADD SWAP1 POP SWAP3 SWAP2 POP POP JUMP JUMPDEST PUSH1 0x0 PUSH2 0x4B2 DUP3 PUSH2 0x4C5 JUMP JUMPDEST SWAP1 POP SWAP2 SWAP1 POP JUMP JUMPDEST PUSH1 0x0 DUP2 ISZERO ISZERO SWAP1 POP SWAP2 SWAP1 POP JUMP JUMPDEST PUSH1 0x0 PUSH20 0xFFFFFFFFFFFFFFFFFFFFFFFFFFFFFFFFFFFFFFFF DUP3 AND SWAP1 POP SWAP2 SWAP1 POP JUMP JUMPDEST PUSH1 0x0 DUP2 SWAP1 POP SWAP2 SWAP1 POP JUMP JUMPDEST PUSH32 0x4E487B7100000000000000000000000000000000000000000000000000000000 PUSH1 0x0 MSTORE PUSH1 0x11 PUSH1 0x4 MSTORE PUSH1 0x24 PUSH1 0x0 REVERT JUMPDEST PUSH1 0x0 DUP1 REVERT JUMPDEST PUSH2 0x52C DUP2 PUSH2 0x4A7 JUMP JUMPDEST DUP2 EQ PUSH2 0x537 JUMPI PUSH1 0x0 DUP1 REVERT JUMPDEST POP JUMP JUMPDEST PUSH2 0x543 DUP2 PUSH2 0x4E5 JUMP JUMPDEST DUP2 EQ PUSH2 0x54E JUMPI PUSH1 0x0 DUP1 REVERT JUMPDEST POP JUMP INVALID LOG2 PUSH5 0x6970667358 0x22 SLT KECCAK256 0xBD 0xBF LOG1 PUSH29 0xD6A377A14487B3025C5C6B7AEE96984C352FC074AAF02D6406027AD964 PUSH20 0x6F6C634300080700330000000000000000000000 "
				},
				"gasEstimates": {
					"creation": {
						"codeDepositCost": "283000",
						"executionCost": "324",
						"totalCost": "283324"
					},
					"external": {
						"balances(address)": "2814",
						"exist(address)": "2889",
						"getSize()": "2511",
						"keys(uint256)": "4934",
						"set(address,uint256)": "infinite"
					}
				},
				"methodIdentifiers": {
					"balances(address)": "27e235e3",
					"exist(address)": "4dfefc4b",
					"getSize()": "de8fa431",
					"keys(uint256)": "0cb6aaf1",
					"set(address,uint256)": "3825d828"
				}
			},
			"storageLayout": {
				"storage": [
					{
						"astId": 5,
						"contract": "contracts/IterableMapping.sol:IterableMapping",
						"label": "balances",
						"offset": 0,
						"slot": "0",
						"type": "t_mapping(t_address,t_uint256)"
					},
					{
						"astId": 9,
						"contract": "contracts/IterableMapping.sol:IterableMapping",
						"label": "exist",
						"offset": 0,
						"slot": "1",
						"type": "t_mapping(t_address,t_bool)"
					},
					{
						"astId": 12,
						"contract": "contracts/IterableMapping.sol:IterableMapping",
						"label": "keys",
						"offset": 0,
						"slot": "2",
						"type": "t_array(t_address)dyn_storage"
					}
				],
				"types": {
					"t_address": {
						"encoding": "inplace",
						"label": "address",
						"numberOfBytes": "20"
					},
					"t_array(t_address)dyn_storage": {
						"base": "t_address",
						"encoding": "dynamic_array",
						"label": "address[]",
						"numberOfBytes": "32"
					},
					"t_bool": {
						"encoding": "inplace",
						"label": "bool",
						"numberOfBytes": "1"
					},
					"t_mapping(t_address,t_bool)": {
						"encoding": "mapping",
						"key": "t_address",
						"label": "mapping(address => bool)",
						"numberOfBytes": "32",
						"value": "t_bool"
					},
					"t_mapping(t_address,t_uint256)": {
						"encoding": "mapping",
						"key": "t_address",
						"label": "mapping(address => uint256)",
						"numberOfBytes": "32",
						"value": "t_uint256"
					},
					"t_uint256": {
						"encoding": "inplace",
						"label": "uint256",
						"numberOfBytes": "32"
					}
				}
			},
			"userdoc": {
				"kind": "user",
				"methods": {},
				"version": 1
			}
		}
	}
}