{
	"contracts/AccessControl.sol": {
		"AccessControl": {
			"abi": [
				{
					"inputs": [],
					"name": "ADMIN",
					"outputs": [
						{
							"internalType": "bytes32",
							"name": "",
							"type": "bytes32"
						}
					],
					"stateMutability": "view",
					"type": "function"
				},
				{
					"inputs": [],
					"name": "USER",
					"outputs": [
						{
							"internalType": "bytes32",
							"name": "",
							"type": "bytes32"
						}
					],
					"stateMutability": "view",
					"type": "function"
				},
				{
					"inputs": [
						{
							"internalType": "bytes32",
							"name": "",
							"type": "bytes32"
						}
					],
					"name": "roles",
					"outputs": [
						{
							"internalType": "address",
							"name": "",
							"type": "address"
						}
					],
					"stateMutability": "view",
					"type": "function"
				}
			],
			"devdoc": {
				"kind": "dev",
				"methods": {},
				"version": 1
			},
			"evm": {
				"assembly": "    /* \"contracts/AccessControl.sol\":66:292  contract AccessControl {\r... */\n  mstore(0x40, 0x80)\n  callvalue\n  dup1\n  iszero\n  tag_1\n  jumpi\n  0x00\n  dup1\n  revert\ntag_1:\n  pop\n  dataSize(sub_0)\n  dup1\n  dataOffset(sub_0)\n  0x00\n  codecopy\n  0x00\n  return\nstop\n\nsub_0: assembly {\n        /* \"contracts/AccessControl.sol\":66:292  contract AccessControl {\r... */\n      mstore(0x40, 0x80)\n      callvalue\n      dup1\n      iszero\n      tag_1\n      jumpi\n      0x00\n      dup1\n      revert\n    tag_1:\n      pop\n      jumpi(tag_2, lt(calldatasize, 0x04))\n      shr(0xe0, calldataload(0x00))\n      dup1\n      0x2a0acc6a\n      eq\n      tag_3\n      jumpi\n      dup1\n      0x81e167cf\n      eq\n      tag_4\n      jumpi\n      dup1\n      0x95356651\n      eq\n      tag_5\n      jumpi\n    tag_2:\n      0x00\n      dup1\n      revert\n        /* \"contracts/AccessControl.sol\":147:215  bytes32 public constant ADMIN = keccak256(abi.encodePacked(\"ADMIN\")) */\n    tag_3:\n      tag_6\n      tag_7\n      jump\t// in\n    tag_6:\n      mload(0x40)\n      tag_8\n      swap2\n      swap1\n      tag_9\n      jump\t// in\n    tag_8:\n      mload(0x40)\n      dup1\n      swap2\n      sub\n      swap1\n      return\n        /* \"contracts/AccessControl.sol\":222:288  bytes32 public constant USER = keccak256(abi.encodePacked(\"USER\")) */\n    tag_4:\n      tag_10\n      tag_11\n      jump\t// in\n    tag_10:\n      mload(0x40)\n      tag_12\n      swap2\n      swap1\n      tag_9\n      jump\t// in\n    tag_12:\n      mload(0x40)\n      dup1\n      swap2\n      sub\n      swap1\n      return\n        /* \"contracts/AccessControl.sol\":98:138  mapping(bytes32 => address) public roles */\n    tag_5:\n      tag_13\n      0x04\n      dup1\n      calldatasize\n      sub\n      dup2\n      add\n      swap1\n      tag_14\n      swap2\n      swap1\n      tag_15\n      jump\t// in\n    tag_14:\n      tag_16\n      jump\t// in\n    tag_13:\n      mload(0x40)\n      tag_17\n      swap2\n      swap1\n      tag_18\n      jump\t// in\n    tag_17:\n      mload(0x40)\n      dup1\n      swap2\n      sub\n      swap1\n      return\n        /* \"contracts/AccessControl.sol\":147:215  bytes32 public constant ADMIN = keccak256(abi.encodePacked(\"ADMIN\")) */\n    tag_7:\n        /* \"contracts/AccessControl.sol\":189:214  abi.encodePacked(\"ADMIN\") */\n      add(0x20, mload(0x40))\n      tag_19\n      swap1\n      tag_20\n      jump\t// in\n    tag_19:\n      mload(0x40)\n      0x20\n      dup2\n      dup4\n      sub\n      sub\n      dup2\n      mstore\n      swap1\n      0x40\n      mstore\n        /* \"contracts/AccessControl.sol\":179:215  keccak256(abi.encodePacked(\"ADMIN\")) */\n      dup1\n      mload\n      swap1\n      0x20\n      add\n      keccak256\n        /* \"contracts/AccessControl.sol\":147:215  bytes32 public constant ADMIN = keccak256(abi.encodePacked(\"ADMIN\")) */\n      dup2\n      jump\t// out\n        /* \"contracts/AccessControl.sol\":222:288  bytes32 public constant USER = keccak256(abi.encodePacked(\"USER\")) */\n    tag_11:\n        /* \"contracts/AccessControl.sol\":263:287  abi.encodePacked(\"USER\") */\n      add(0x20, mload(0x40))\n      tag_21\n      swap1\n      tag_22\n      jump\t// in\n    tag_21:\n      mload(0x40)\n      0x20\n      dup2\n      dup4\n      sub\n      sub\n      dup2\n      mstore\n      swap1\n      0x40\n      mstore\n        /* \"contracts/AccessControl.sol\":253:288  keccak256(abi.encodePacked(\"USER\")) */\n      dup1\n      mload\n      swap1\n      0x20\n      add\n      keccak256\n        /* \"contracts/AccessControl.sol\":222:288  bytes32 public constant USER = keccak256(abi.encodePacked(\"USER\")) */\n      dup2\n      jump\t// out\n        /* \"contracts/AccessControl.sol\":98:138  mapping(bytes32 => address) public roles */\n    tag_16:\n      mstore(0x20, 0x00)\n      dup1\n      0x00\n      mstore\n      keccak256(0x00, 0x40)\n      0x00\n      swap2\n      pop\n      sload\n      swap1\n      0x0100\n      exp\n      swap1\n      div\n      0xffffffffffffffffffffffffffffffffffffffff\n      and\n      dup2\n      jump\t// out\n        /* \"#utility.yul\":7:146   */\n    tag_24:\n        /* \"#utility.yul\":53:58   */\n      0x00\n        /* \"#utility.yul\":91:97   */\n      dup2\n        /* \"#utility.yul\":78:98   */\n      calldataload\n        /* \"#utility.yul\":69:98   */\n      swap1\n      pop\n        /* \"#utility.yul\":107:140   */\n      tag_26\n        /* \"#utility.yul\":134:139   */\n      dup2\n        /* \"#utility.yul\":107:140   */\n      tag_27\n      jump\t// in\n    tag_26:\n        /* \"#utility.yul\":7:146   */\n      swap3\n      swap2\n      pop\n      pop\n      jump\t// out\n        /* \"#utility.yul\":152:481   */\n    tag_15:\n        /* \"#utility.yul\":211:217   */\n      0x00\n        /* \"#utility.yul\":260:262   */\n      0x20\n        /* \"#utility.yul\":248:257   */\n      dup3\n        /* \"#utility.yul\":239:246   */\n      dup5\n        /* \"#utility.yul\":235:258   */\n      sub\n        /* \"#utility.yul\":231:263   */\n      slt\n        /* \"#utility.yul\":228:347   */\n      iszero\n      tag_29\n      jumpi\n        /* \"#utility.yul\":266:345   */\n      tag_30\n      tag_31\n      jump\t// in\n    tag_30:\n        /* \"#utility.yul\":228:347   */\n    tag_29:\n        /* \"#utility.yul\":386:387   */\n      0x00\n        /* \"#utility.yul\":411:464   */\n      tag_32\n        /* \"#utility.yul\":456:463   */\n      dup5\n        /* \"#utility.yul\":447:453   */\n      dup3\n        /* \"#utility.yul\":436:445   */\n      dup6\n        /* \"#utility.yul\":432:454   */\n      add\n        /* \"#utility.yul\":411:464   */\n      tag_24\n      jump\t// in\n    tag_32:\n        /* \"#utility.yul\":401:464   */\n      swap2\n      pop\n        /* \"#utility.yul\":357:474   */\n      pop\n        /* \"#utility.yul\":152:481   */\n      swap3\n      swap2\n      pop\n      pop\n      jump\t// out\n        /* \"#utility.yul\":487:605   */\n    tag_33:\n        /* \"#utility.yul\":574:598   */\n      tag_35\n        /* \"#utility.yul\":592:597   */\n      dup2\n        /* \"#utility.yul\":574:598   */\n      tag_36\n      jump\t// in\n    tag_35:\n        /* \"#utility.yul\":569:572   */\n      dup3\n        /* \"#utility.yul\":562:599   */\n      mstore\n        /* \"#utility.yul\":487:605   */\n      pop\n      pop\n      jump\t// out\n        /* \"#utility.yul\":611:729   */\n    tag_37:\n        /* \"#utility.yul\":698:722   */\n      tag_39\n        /* \"#utility.yul\":716:721   */\n      dup2\n        /* \"#utility.yul\":698:722   */\n      tag_40\n      jump\t// in\n    tag_39:\n        /* \"#utility.yul\":693:696   */\n      dup3\n        /* \"#utility.yul\":686:723   */\n      mstore\n        /* \"#utility.yul\":611:729   */\n      pop\n      pop\n      jump\t// out\n        /* \"#utility.yul\":735:1135   */\n    tag_41:\n        /* \"#utility.yul\":895:898   */\n      0x00\n        /* \"#utility.yul\":916:1000   */\n      tag_43\n        /* \"#utility.yul\":998:999   */\n      0x04\n        /* \"#utility.yul\":993:996   */\n      dup4\n        /* \"#utility.yul\":916:1000   */\n      tag_44\n      jump\t// in\n    tag_43:\n        /* \"#utility.yul\":909:1000   */\n      swap2\n      pop\n        /* \"#utility.yul\":1009:1102   */\n      tag_45\n        /* \"#utility.yul\":1098:1101   */\n      dup3\n        /* \"#utility.yul\":1009:1102   */\n      tag_46\n      jump\t// in\n    tag_45:\n        /* \"#utility.yul\":1127:1128   */\n      0x04\n        /* \"#utility.yul\":1122:1125   */\n      dup3\n        /* \"#utility.yul\":1118:1129   */\n      add\n        /* \"#utility.yul\":1111:1129   */\n      swap1\n      pop\n        /* \"#utility.yul\":735:1135   */\n      swap2\n      swap1\n      pop\n      jump\t// out\n        /* \"#utility.yul\":1141:1541   */\n    tag_47:\n        /* \"#utility.yul\":1301:1304   */\n      0x00\n        /* \"#utility.yul\":1322:1406   */\n      tag_49\n        /* \"#utility.yul\":1404:1405   */\n      0x05\n        /* \"#utility.yul\":1399:1402   */\n      dup4\n        /* \"#utility.yul\":1322:1406   */\n      tag_44\n      jump\t// in\n    tag_49:\n        /* \"#utility.yul\":1315:1406   */\n      swap2\n      pop\n        /* \"#utility.yul\":1415:1508   */\n      tag_50\n        /* \"#utility.yul\":1504:1507   */\n      dup3\n        /* \"#utility.yul\":1415:1508   */\n      tag_51\n      jump\t// in\n    tag_50:\n        /* \"#utility.yul\":1533:1534   */\n      0x05\n        /* \"#utility.yul\":1528:1531   */\n      dup3\n        /* \"#utility.yul\":1524:1535   */\n      add\n        /* \"#utility.yul\":1517:1535   */\n      swap1\n      pop\n        /* \"#utility.yul\":1141:1541   */\n      swap2\n      swap1\n      pop\n      jump\t// out\n        /* \"#utility.yul\":1547:1928   */\n    tag_22:\n        /* \"#utility.yul\":1732:1735   */\n      0x00\n        /* \"#utility.yul\":1754:1902   */\n      tag_53\n        /* \"#utility.yul\":1898:1901   */\n      dup3\n        /* \"#utility.yul\":1754:1902   */\n      tag_41\n      jump\t// in\n    tag_53:\n        /* \"#utility.yul\":1747:1902   */\n      swap2\n      pop\n        /* \"#utility.yul\":1919:1922   */\n      dup2\n        /* \"#utility.yul\":1912:1922   */\n      swap1\n      pop\n        /* \"#utility.yul\":1547:1928   */\n      swap2\n      swap1\n      pop\n      jump\t// out\n        /* \"#utility.yul\":1934:2315   */\n    tag_20:\n        /* \"#utility.yul\":2119:2122   */\n      0x00\n        /* \"#utility.yul\":2141:2289   */\n      tag_55\n        /* \"#utility.yul\":2285:2288   */\n      dup3\n        /* \"#utility.yul\":2141:2289   */\n      tag_47\n      jump\t// in\n    tag_55:\n        /* \"#utility.yul\":2134:2289   */\n      swap2\n      pop\n        /* \"#utility.yul\":2306:2309   */\n      dup2\n        /* \"#utility.yul\":2299:2309   */\n      swap1\n      pop\n        /* \"#utility.yul\":1934:2315   */\n      swap2\n      swap1\n      pop\n      jump\t// out\n        /* \"#utility.yul\":2321:2543   */\n    tag_18:\n        /* \"#utility.yul\":2414:2418   */\n      0x00\n        /* \"#utility.yul\":2452:2454   */\n      0x20\n        /* \"#utility.yul\":2441:2450   */\n      dup3\n        /* \"#utility.yul\":2437:2455   */\n      add\n        /* \"#utility.yul\":2429:2455   */\n      swap1\n      pop\n        /* \"#utility.yul\":2465:2536   */\n      tag_57\n        /* \"#utility.yul\":2533:2534   */\n      0x00\n        /* \"#utility.yul\":2522:2531   */\n      dup4\n        /* \"#utility.yul\":2518:2535   */\n      add\n        /* \"#utility.yul\":2509:2515   */\n      dup5\n        /* \"#utility.yul\":2465:2536   */\n      tag_33\n      jump\t// in\n    tag_57:\n        /* \"#utility.yul\":2321:2543   */\n      swap3\n      swap2\n      pop\n      pop\n      jump\t// out\n        /* \"#utility.yul\":2549:2771   */\n    tag_9:\n        /* \"#utility.yul\":2642:2646   */\n      0x00\n        /* \"#utility.yul\":2680:2682   */\n      0x20\n        /* \"#utility.yul\":2669:2678   */\n      dup3\n        /* \"#utility.yul\":2665:2683   */\n      add\n        /* \"#utility.yul\":2657:2683   */\n      swap1\n      pop\n        /* \"#utility.yul\":2693:2764   */\n      tag_59\n        /* \"#utility.yul\":2761:2762   */\n      0x00\n        /* \"#utility.yul\":2750:2759   */\n      dup4\n        /* \"#utility.yul\":2746:2763   */\n      add\n        /* \"#utility.yul\":2737:2743   */\n      dup5\n        /* \"#utility.yul\":2693:2764   */\n      tag_37\n      jump\t// in\n    tag_59:\n        /* \"#utility.yul\":2549:2771   */\n      swap3\n      swap2\n      pop\n      pop\n      jump\t// out\n        /* \"#utility.yul\":2858:3006   */\n    tag_44:\n        /* \"#utility.yul\":2960:2971   */\n      0x00\n        /* \"#utility.yul\":2997:3000   */\n      dup2\n        /* \"#utility.yul\":2982:3000   */\n      swap1\n      pop\n        /* \"#utility.yul\":2858:3006   */\n      swap3\n      swap2\n      pop\n      pop\n      jump\t// out\n        /* \"#utility.yul\":3012:3108   */\n    tag_36:\n        /* \"#utility.yul\":3049:3056   */\n      0x00\n        /* \"#utility.yul\":3078:3102   */\n      tag_64\n        /* \"#utility.yul\":3096:3101   */\n      dup3\n        /* \"#utility.yul\":3078:3102   */\n      tag_65\n      jump\t// in\n    tag_64:\n        /* \"#utility.yul\":3067:3102   */\n      swap1\n      pop\n        /* \"#utility.yul\":3012:3108   */\n      swap2\n      swap1\n      pop\n      jump\t// out\n        /* \"#utility.yul\":3114:3191   */\n    tag_40:\n        /* \"#utility.yul\":3151:3158   */\n      0x00\n        /* \"#utility.yul\":3180:3185   */\n      dup2\n        /* \"#utility.yul\":3169:3185   */\n      swap1\n      pop\n        /* \"#utility.yul\":3114:3191   */\n      swap2\n      swap1\n      pop\n      jump\t// out\n        /* \"#utility.yul\":3197:3323   */\n    tag_65:\n        /* \"#utility.yul\":3234:3241   */\n      0x00\n        /* \"#utility.yul\":3274:3316   */\n      0xffffffffffffffffffffffffffffffffffffffff\n        /* \"#utility.yul\":3267:3272   */\n      dup3\n        /* \"#utility.yul\":3263:3317   */\n      and\n        /* \"#utility.yul\":3252:3317   */\n      swap1\n      pop\n        /* \"#utility.yul\":3197:3323   */\n      swap2\n      swap1\n      pop\n      jump\t// out\n        /* \"#utility.yul\":3452:3569   */\n    tag_31:\n        /* \"#utility.yul\":3561:3562   */\n      0x00\n        /* \"#utility.yul\":3558:3559   */\n      dup1\n        /* \"#utility.yul\":3551:3563   */\n      revert\n        /* \"#utility.yul\":3575:3729   */\n    tag_46:\n        /* \"#utility.yul\":3715:3721   */\n      0x5553455200000000000000000000000000000000000000000000000000000000\n        /* \"#utility.yul\":3711:3712   */\n      0x00\n        /* \"#utility.yul\":3703:3709   */\n      dup3\n        /* \"#utility.yul\":3699:3713   */\n      add\n        /* \"#utility.yul\":3692:3722   */\n      mstore\n        /* \"#utility.yul\":3575:3729   */\n      pop\n      jump\t// out\n        /* \"#utility.yul\":3735:3890   */\n    tag_51:\n        /* \"#utility.yul\":3875:3882   */\n      0x41444d494e000000000000000000000000000000000000000000000000000000\n        /* \"#utility.yul\":3871:3872   */\n      0x00\n        /* \"#utility.yul\":3863:3869   */\n      dup3\n        /* \"#utility.yul\":3859:3873   */\n      add\n        /* \"#utility.yul\":3852:3883   */\n      mstore\n        /* \"#utility.yul\":3735:3890   */\n      pop\n      jump\t// out\n        /* \"#utility.yul\":3896:4018   */\n    tag_27:\n        /* \"#utility.yul\":3969:3993   */\n      tag_74\n        /* \"#utility.yul\":3987:3992   */\n      dup2\n        /* \"#utility.yul\":3969:3993   */\n      tag_40\n      jump\t// in\n    tag_74:\n        /* \"#utility.yul\":3962:3967   */\n      dup2\n        /* \"#utility.yul\":3959:3994   */\n      eq\n        /* \"#utility.yul\":3949:4012   */\n      tag_75\n      jumpi\n        /* \"#utility.yul\":4008:4009   */\n      0x00\n        /* \"#utility.yul\":4005:4006   */\n      dup1\n        /* \"#utility.yul\":3998:4010   */\n      revert\n        /* \"#utility.yul\":3949:4012   */\n    tag_75:\n        /* \"#utility.yul\":3896:4018   */\n      pop\n      jump\t// out\n\n    auxdata: 0xa264697066735822122022d5e8baca887f2f15a4e660c3a53007eb0abdb1cce352d94101e8d14d43aeeb64736f6c63430008070033\n}\n",
				"bytecode": {
					"linkReferences": {},
					"object": "608060405234801561001057600080fd5b50610326806100206000396000f3fe608060405234801561001057600080fd5b50600436106100415760003560e01c80632a0acc6a1461004657806381e167cf146100645780639535665114610082575b600080fd5b61004e6100b2565b60405161005b9190610220565b60405180910390f35b61006c6100da565b6040516100799190610220565b60405180910390f35b61009c6004803603810190610097919061014a565b610102565b6040516100a99190610205565b60405180910390f35b6040516020016100c1906101f0565b6040516020818303038152906040528051906020012081565b6040516020016100e9906101db565b6040516020818303038152906040528051906020012081565b60006020528060005260406000206000915054906101000a900473ffffffffffffffffffffffffffffffffffffffff1681565b600081359050610144816102d9565b92915050565b6000602082840312156101605761015f610282565b5b600061016e84828501610135565b91505092915050565b61018081610246565b82525050565b61018f81610258565b82525050565b60006101a260048361023b565b91506101ad82610287565b600482019050919050565b60006101c560058361023b565b91506101d0826102b0565b600582019050919050565b60006101e682610195565b9150819050919050565b60006101fb826101b8565b9150819050919050565b600060208201905061021a6000830184610177565b92915050565b60006020820190506102356000830184610186565b92915050565b600081905092915050565b600061025182610262565b9050919050565b6000819050919050565b600073ffffffffffffffffffffffffffffffffffffffff82169050919050565b600080fd5b7f5553455200000000000000000000000000000000000000000000000000000000600082015250565b7f41444d494e000000000000000000000000000000000000000000000000000000600082015250565b6102e281610258565b81146102ed57600080fd5b5056fea264697066735822122022d5e8baca887f2f15a4e660c3a53007eb0abdb1cce352d94101e8d14d43aeeb64736f6c63430008070033",
					"opcodes": "PUSH1 0x80 PUSH1 0x40 MSTORE CALLVALUE DUP1 ISZERO PUSH2 0x10 JUMPI PUSH1 0x0 DUP1 REVERT JUMPDEST POP PUSH2 0x326 DUP1 PUSH2 0x20 PUSH1 0x0 CODECOPY PUSH1 0x0 RETURN INVALID PUSH1 0x80 PUSH1 0x40 MSTORE CALLVALUE DUP1 ISZERO PUSH2 0x10 JUMPI PUSH1 0x0 DUP1 REVERT JUMPDEST POP PUSH1 0x4 CALLDATASIZE LT PUSH2 0x41 JUMPI PUSH1 0x0 CALLDATALOAD PUSH1 0xE0 SHR DUP1 PUSH4 0x2A0ACC6A EQ PUSH2 0x46 JUMPI DUP1 PUSH4 0x81E167CF EQ PUSH2 0x64 JUMPI DUP1 PUSH4 0x95356651 EQ PUSH2 0x82 JUMPI JUMPDEST PUSH1 0x0 DUP1 REVERT JUMPDEST PUSH2 0x4E PUSH2 0xB2 JUMP JUMPDEST PUSH1 0x40 MLOAD PUSH2 0x5B SWAP2 SWAP1 PUSH2 0x220 JUMP JUMPDEST PUSH1 0x40 MLOAD DUP1 SWAP2 SUB SWAP1 RETURN JUMPDEST PUSH2 0x6C PUSH2 0xDA JUMP JUMPDEST PUSH1 0x40 MLOAD PUSH2 0x79 SWAP2 SWAP1 PUSH2 0x220 JUMP JUMPDEST PUSH1 0x40 MLOAD DUP1 SWAP2 SUB SWAP1 RETURN JUMPDEST PUSH2 0x9C PUSH1 0x4 DUP1 CALLDATASIZE SUB DUP2 ADD SWAP1 PUSH2 0x97 SWAP2 SWAP1 PUSH2 0x14A JUMP JUMPDEST PUSH2 0x102 JUMP JUMPDEST PUSH1 0x40 MLOAD PUSH2 0xA9 SWAP2 SWAP1 PUSH2 0x205 JUMP JUMPDEST PUSH1 0x40 MLOAD DUP1 SWAP2 SUB SWAP1 RETURN JUMPDEST PUSH1 0x40 MLOAD PUSH1 0x20 ADD PUSH2 0xC1 SWAP1 PUSH2 0x1F0 JUMP JUMPDEST PUSH1 0x40 MLOAD PUSH1 0x20 DUP2 DUP4 SUB SUB DUP2 MSTORE SWAP1 PUSH1 0x40 MSTORE DUP1 MLOAD SWAP1 PUSH1 0x20 ADD KECCAK256 DUP2 JUMP JUMPDEST PUSH1 0x40 MLOAD PUSH1 0x20 ADD PUSH2 0xE9 SWAP1 PUSH2 0x1DB JUMP JUMPDEST PUSH1 0x40 MLOAD PUSH1 0x20 DUP2 DUP4 SUB SUB DUP2 MSTORE SWAP1 PUSH1 0x40 MSTORE DUP1 MLOAD SWAP1 PUSH1 0x20 ADD KECCAK256 DUP2 JUMP JUMPDEST PUSH1 0x0 PUSH1 0x20 MSTORE DUP1 PUSH1 0x0 MSTORE PUSH1 0x40 PUSH1 0x0 KECCAK256 PUSH1 0x0 SWAP2 POP SLOAD SWAP1 PUSH2 0x100 EXP SWAP1 DIV PUSH20 0xFFFFFFFFFFFFFFFFFFFFFFFFFFFFFFFFFFFFFFFF AND DUP2 JUMP JUMPDEST PUSH1 0x0 DUP2 CALLDATALOAD SWAP1 POP PUSH2 0x144 DUP2 PUSH2 0x2D9 JUMP JUMPDEST SWAP3 SWAP2 POP POP JUMP JUMPDEST PUSH1 0x0 PUSH1 0x20 DUP3 DUP5 SUB SLT ISZERO PUSH2 0x160 JUMPI PUSH2 0x15F PUSH2 0x282 JUMP JUMPDEST JUMPDEST PUSH1 0x0 PUSH2 0x16E DUP5 DUP3 DUP6 ADD PUSH2 0x135 JUMP JUMPDEST SWAP2 POP POP SWAP3 SWAP2 POP POP JUMP JUMPDEST PUSH2 0x180 DUP2 PUSH2 0x246 JUMP JUMPDEST DUP3 MSTORE POP POP JUMP JUMPDEST PUSH2 0x18F DUP2 PUSH2 0x258 JUMP JUMPDEST DUP3 MSTORE POP POP JUMP JUMPDEST PUSH1 0x0 PUSH2 0x1A2 PUSH1 0x4 DUP4 PUSH2 0x23B JUMP JUMPDEST SWAP2 POP PUSH2 0x1AD DUP3 PUSH2 0x287 JUMP JUMPDEST PUSH1 0x4 DUP3 ADD SWAP1 POP SWAP2 SWAP1 POP JUMP JUMPDEST PUSH1 0x0 PUSH2 0x1C5 PUSH1 0x5 DUP4 PUSH2 0x23B JUMP JUMPDEST SWAP2 POP PUSH2 0x1D0 DUP3 PUSH2 0x2B0 JUMP JUMPDEST PUSH1 0x5 DUP3 ADD SWAP1 POP SWAP2 SWAP1 POP JUMP JUMPDEST PUSH1 0x0 PUSH2 0x1E6 DUP3 PUSH2 0x195 JUMP JUMPDEST SWAP2 POP DUP2 SWAP1 POP SWAP2 SWAP1 POP JUMP JUMPDEST PUSH1 0x0 PUSH2 0x1FB DUP3 PUSH2 0x1B8 JUMP JUMPDEST SWAP2 POP DUP2 SWAP1 POP SWAP2 SWAP1 POP JUMP JUMPDEST PUSH1 0x0 PUSH1 0x20 DUP3 ADD SWAP1 POP PUSH2 0x21A PUSH1 0x0 DUP4 ADD DUP5 PUSH2 0x177 JUMP JUMPDEST SWAP3 SWAP2 POP POP JUMP JUMPDEST PUSH1 0x0 PUSH1 0x20 DUP3 ADD SWAP1 POP PUSH2 0x235 PUSH1 0x0 DUP4 ADD DUP5 PUSH2 0x186 JUMP JUMPDEST SWAP3 SWAP2 POP POP JUMP JUMPDEST PUSH1 0x0 DUP2 SWAP1 POP SWAP3 SWAP2 POP POP JUMP JUMPDEST PUSH1 0x0 PUSH2 0x251 DUP3 PUSH2 0x262 JUMP JUMPDEST SWAP1 POP SWAP2 SWAP1 POP JUMP JUMPDEST PUSH1 0x0 DUP2 SWAP1 POP SWAP2 SWAP1 POP JUMP JUMPDEST PUSH1 0x0 PUSH20 0xFFFFFFFFFFFFFFFFFFFFFFFFFFFFFFFFFFFFFFFF DUP3 AND SWAP1 POP SWAP2 SWAP1 POP JUMP JUMPDEST PUSH1 0x0 DUP1 REVERT JUMPDEST PUSH32 0x5553455200000000000000000000000000000000000000000000000000000000 PUSH1 0x0 DUP3 ADD MSTORE POP JUMP JUMPDEST PUSH32 0x41444D494E000000000000000000000000000000000000000000000000000000 PUSH1 0x0 DUP3 ADD MSTORE POP JUMP JUMPDEST PUSH2 0x2E2 DUP2 PUSH2 0x258 JUMP JUMPDEST DUP2 EQ PUSH2 0x2ED JUMPI PUSH1 0x0 DUP1 REVERT JUMPDEST POP JUMP INVALID LOG2 PUSH5 0x6970667358 0x22 SLT KECCAK256 0x22 0xD5 0xE8 0xBA 0xCA DUP9 PUSH32 0x2F15A4E660C3A53007EB0ABDB1CCE352D94101E8D14D43AEEB64736F6C634300 ADDMOD SMOD STOP CALLER "
				},
				"gasEstimates": {
					"creation": {
						"codeDepositCost": "161200",
						"executionCost": "208",
						"totalCost": "161408"
					},
					"external": {
						"ADMIN()": "612",
						"USER()": "634",
						"roles(bytes32)": "2861"
					}
				},
				"methodIdentifiers": {
					"ADMIN()": "2a0acc6a",
					"USER()": "81e167cf",
					"roles(bytes32)": "95356651"
				}
			},
			"storageLayout": {
				"storage": [
					{
						"astId": 5,
						"contract": "contracts/AccessControl.sol:AccessControl",
						"label": "roles",
						"offset": 0,
						"slot": "0",
						"type": "t_mapping(t_bytes32,t_address)"
					}
				],
				"types": {
					"t_address": {
						"encoding": "inplace",
						"label": "address",
						"numberOfBytes": "20"
					},
					"t_bytes32": {
						"encoding": "inplace",
						"label": "bytes32",
						"numberOfBytes": "32"
					},
					"t_mapping(t_bytes32,t_address)": {
						"encoding": "mapping",
						"key": "t_bytes32",
						"label": "mapping(bytes32 => address)",
						"numberOfBytes": "32",
						"value": "t_address"
					}
				}
			},
			"userdoc": {
				"kind": "user",
				"methods": {},
				"version": 1
			}
		}
	}
}