{
	"contracts/EthersWallet.sol": {
		"EthersWallet": {
			"abi": [
				{
					"inputs": [],
					"stateMutability": "nonpayable",
					"type": "constructor"
				},
				{
					"anonymous": false,
					"inputs": [
						{
							"indexed": false,
							"internalType": "bool",
							"name": "",
							"type": "bool"
						},
						{
							"indexed": false,
							"internalType": "bytes",
							"name": "",
							"type": "bytes"
						}
					],
					"name": "Transfered",
					"type": "event"
				},
				{
					"anonymous": false,
					"inputs": [
						{
							"indexed": false,
							"internalType": "address",
							"name": "",
							"type": "address"
						},
						{
							"indexed": false,
							"internalType": "address",
							"name": "",
							"type": "address"
						},
						{
							"indexed": false,
							"internalType": "uint256",
							"name": "",
							"type": "uint256"
						}
					],
					"name": "Transferring",
					"type": "event"
				},
				{
					"inputs": [
						{
							"internalType": "address",
							"name": "_to",
							"type": "address"
						},
						{
							"internalType": "address",
							"name": "_from",
							"type": "address"
						},
						{
							"internalType": "uint256",
							"name": "_value",
							"type": "uint256"
						}
					],
					"name": "changeBalance",
					"outputs": [],
					"stateMutability": "payable",
					"type": "function"
				},
				{
					"inputs": [],
					"name": "userBalance",
					"outputs": [
						{
							"internalType": "uint256",
							"name": "",
							"type": "uint256"
						}
					],
					"stateMutability": "view",
					"type": "function"
				},
				{
					"inputs": [
						{
							"internalType": "address",
							"name": "_to",
							"type": "address"
						},
						{
							"internalType": "address",
							"name": "_from",
							"type": "address"
						},
						{
							"internalType": "uint256",
							"name": "_value",
							"type": "uint256"
						}
					],
					"name": "withdraw",
					"outputs": [],
					"stateMutability": "nonpayable",
					"type": "function"
				},
				{
					"stateMutability": "payable",
					"type": "receive"
				}
			],
			"devdoc": {
				"kind": "dev",
				"methods": {},
				"version": 1
			},
			"evm": {
				"assembly": "    /* \"contracts/EthersWallet.sol\":66:1285  contract EthersWallet {\r... */\n  mstore(0x40, 0x80)\n    /* \"contracts/EthersWallet.sol\":367:418  constructor() {\r... */\n  callvalue\n  dup1\n  iszero\n  tag_1\n  jumpi\n  0x00\n  dup1\n  revert\ntag_1:\n  pop\n    /* \"contracts/EthersWallet.sol\":400:410  msg.sender */\n  caller\n    /* \"contracts/EthersWallet.sol\":392:397  owner */\n  0x00\n  dup1\n    /* \"contracts/EthersWallet.sol\":392:410  owner = msg.sender */\n  0x0100\n  exp\n  dup2\n  sload\n  dup2\n  0xffffffffffffffffffffffffffffffffffffffff\n  mul\n  not\n  and\n  swap1\n  dup4\n  0xffffffffffffffffffffffffffffffffffffffff\n  and\n  mul\n  or\n  swap1\n  sstore\n  pop\n    /* \"contracts/EthersWallet.sol\":66:1285  contract EthersWallet {\r... */\n  dataSize(sub_0)\n  dup1\n  dataOffset(sub_0)\n  0x00\n  codecopy\n  0x00\n  return\nstop\n\nsub_0: assembly {\n        /* \"contracts/EthersWallet.sol\":66:1285  contract EthersWallet {\r... */\n      mstore(0x40, 0x80)\n      jumpi(tag_1, lt(calldatasize, 0x04))\n      shr(0xe0, calldataload(0x00))\n      dup1\n      0x16c0aefd\n      eq\n      tag_3\n      jumpi\n      dup1\n      0xbf152765\n      eq\n      tag_4\n      jumpi\n      dup1\n      0xd9caed12\n      eq\n      tag_5\n      jumpi\n      jump(tag_2)\n    tag_1:\n      jumpi(tag_2, calldatasize)\n        /* \"contracts/EthersWallet.sol\":585:594  msg.value */\n      callvalue\n        /* \"contracts/EthersWallet.sol\":561:569  balances */\n      0x01\n        /* \"contracts/EthersWallet.sol\":561:581  balances[msg.sender] */\n      0x00\n        /* \"contracts/EthersWallet.sol\":570:580  msg.sender */\n      caller\n        /* \"contracts/EthersWallet.sol\":561:581  balances[msg.sender] */\n      0xffffffffffffffffffffffffffffffffffffffff\n      and\n      0xffffffffffffffffffffffffffffffffffffffff\n      and\n      dup2\n      mstore\n      0x20\n      add\n      swap1\n      dup2\n      mstore\n      0x20\n      add\n      0x00\n      keccak256\n      0x00\n        /* \"contracts/EthersWallet.sol\":561:594  balances[msg.sender] += msg.value */\n      dup3\n      dup3\n      sload\n      tag_8\n      swap2\n      swap1\n      tag_9\n      jump\t// in\n    tag_8:\n      swap3\n      pop\n      pop\n      dup2\n      swap1\n      sstore\n      pop\n        /* \"contracts/EthersWallet.sol\":66:1285  contract EthersWallet {\r... */\n      stop\n    tag_2:\n      0x00\n      dup1\n      revert\n        /* \"contracts/EthersWallet.sol\":612:824  function changeBalance(address _to,address _from, uint256 _value) external payable{\r... */\n    tag_3:\n      tag_10\n      0x04\n      dup1\n      calldatasize\n      sub\n      dup2\n      add\n      swap1\n      tag_11\n      swap2\n      swap1\n      tag_12\n      jump\t// in\n    tag_11:\n      tag_13\n      jump\t// in\n    tag_10:\n      stop\n        /* \"contracts/EthersWallet.sol\":1186:1282  function userBalance() external view returns(uint){\r... */\n    tag_4:\n      callvalue\n      dup1\n      iszero\n      tag_14\n      jumpi\n      0x00\n      dup1\n      revert\n    tag_14:\n      pop\n      tag_15\n      tag_16\n      jump\t// in\n    tag_15:\n      mload(0x40)\n      tag_17\n      swap2\n      swap1\n      tag_18\n      jump\t// in\n    tag_17:\n      mload(0x40)\n      dup1\n      swap2\n      sub\n      swap1\n      return\n        /* \"contracts/EthersWallet.sol\":832:1178  function withdraw(address _to,address _from, uint _value) external isOwner {\r... */\n    tag_5:\n      callvalue\n      dup1\n      iszero\n      tag_19\n      jumpi\n      0x00\n      dup1\n      revert\n    tag_19:\n      pop\n      tag_20\n      0x04\n      dup1\n      calldatasize\n      sub\n      dup2\n      add\n      swap1\n      tag_21\n      swap2\n      swap1\n      tag_12\n      jump\t// in\n    tag_21:\n      tag_22\n      jump\t// in\n    tag_20:\n      stop\n        /* \"contracts/EthersWallet.sol\":612:824  function changeBalance(address _to,address _from, uint256 _value) external payable{\r... */\n    tag_13:\n        /* \"contracts/EthersWallet.sol\":724:730  _value */\n      dup1\n        /* \"contracts/EthersWallet.sol\":707:715  balances */\n      0x01\n        /* \"contracts/EthersWallet.sol\":707:720  balances[_to] */\n      0x00\n        /* \"contracts/EthersWallet.sol\":716:719  _to */\n      dup6\n        /* \"contracts/EthersWallet.sol\":707:720  balances[_to] */\n      0xffffffffffffffffffffffffffffffffffffffff\n      and\n      0xffffffffffffffffffffffffffffffffffffffff\n      and\n      dup2\n      mstore\n      0x20\n      add\n      swap1\n      dup2\n      mstore\n      0x20\n      add\n      0x00\n      keccak256\n      0x00\n        /* \"contracts/EthersWallet.sol\":707:730  balances[_to] += _value */\n      dup3\n      dup3\n      sload\n      tag_24\n      swap2\n      swap1\n      tag_9\n      jump\t// in\n    tag_24:\n      swap3\n      pop\n      pop\n      dup2\n      swap1\n      sstore\n      pop\n        /* \"contracts/EthersWallet.sol\":760:766  _value */\n      dup1\n        /* \"contracts/EthersWallet.sol\":741:749  balances */\n      0x01\n        /* \"contracts/EthersWallet.sol\":741:756  balances[_from] */\n      0x00\n        /* \"contracts/EthersWallet.sol\":750:755  _from */\n      dup5\n        /* \"contracts/EthersWallet.sol\":741:756  balances[_from] */\n      0xffffffffffffffffffffffffffffffffffffffff\n      and\n      0xffffffffffffffffffffffffffffffffffffffff\n      and\n      dup2\n      mstore\n      0x20\n      add\n      swap1\n      dup2\n      mstore\n      0x20\n      add\n      0x00\n      keccak256\n      0x00\n        /* \"contracts/EthersWallet.sol\":741:766  balances[_from] -= _value */\n      dup3\n      dup3\n      sload\n      tag_25\n      swap2\n      swap1\n      tag_26\n      jump\t// in\n    tag_25:\n      swap3\n      pop\n      pop\n      dup2\n      swap1\n      sstore\n      pop\n        /* \"contracts/EthersWallet.sol\":784:814  Transferring(_to,_from,_value) */\n      0xd53683c2ddbfbeaa0862bf4bb2ad12d32e889a7539dde25b42322b1139dd5c43\n        /* \"contracts/EthersWallet.sol\":797:800  _to */\n      dup4\n        /* \"contracts/EthersWallet.sol\":801:806  _from */\n      dup4\n        /* \"contracts/EthersWallet.sol\":807:813  _value */\n      dup4\n        /* \"contracts/EthersWallet.sol\":784:814  Transferring(_to,_from,_value) */\n      mload(0x40)\n      tag_27\n      swap4\n      swap3\n      swap2\n      swap1\n      tag_28\n      jump\t// in\n    tag_27:\n      mload(0x40)\n      dup1\n      swap2\n      sub\n      swap1\n      log1\n        /* \"contracts/EthersWallet.sol\":612:824  function changeBalance(address _to,address _from, uint256 _value) external payable{\r... */\n      pop\n      pop\n      pop\n      jump\t// out\n        /* \"contracts/EthersWallet.sol\":1186:1282  function userBalance() external view returns(uint){\r... */\n    tag_16:\n        /* \"contracts/EthersWallet.sol\":1231:1235  uint */\n      0x00\n        /* \"contracts/EthersWallet.sol\":1254:1262  balances */\n      0x01\n        /* \"contracts/EthersWallet.sol\":1254:1274  balances[msg.sender] */\n      0x00\n        /* \"contracts/EthersWallet.sol\":1263:1273  msg.sender */\n      caller\n        /* \"contracts/EthersWallet.sol\":1254:1274  balances[msg.sender] */\n      0xffffffffffffffffffffffffffffffffffffffff\n      and\n      0xffffffffffffffffffffffffffffffffffffffff\n      and\n      dup2\n      mstore\n      0x20\n      add\n      swap1\n      dup2\n      mstore\n      0x20\n      add\n      0x00\n      keccak256\n      sload\n        /* \"contracts/EthersWallet.sol\":1247:1274  return balances[msg.sender] */\n      swap1\n      pop\n        /* \"contracts/EthersWallet.sol\":1186:1282  function userBalance() external view returns(uint){\r... */\n      swap1\n      jump\t// out\n        /* \"contracts/EthersWallet.sol\":832:1178  function withdraw(address _to,address _from, uint _value) external isOwner {\r... */\n    tag_22:\n        /* \"contracts/EthersWallet.sol\":312:317  owner */\n      0x00\n      dup1\n      sload\n      swap1\n      0x0100\n      exp\n      swap1\n      div\n      0xffffffffffffffffffffffffffffffffffffffff\n      and\n        /* \"contracts/EthersWallet.sol\":298:317  msg.sender == owner */\n      0xffffffffffffffffffffffffffffffffffffffff\n      and\n        /* \"contracts/EthersWallet.sol\":298:308  msg.sender */\n      caller\n        /* \"contracts/EthersWallet.sol\":298:317  msg.sender == owner */\n      0xffffffffffffffffffffffffffffffffffffffff\n      and\n      eq\n        /* \"contracts/EthersWallet.sol\":290:335  require(msg.sender == owner, \"Not the Owner\") */\n      tag_31\n      jumpi\n      mload(0x40)\n      0x08c379a000000000000000000000000000000000000000000000000000000000\n      dup2\n      mstore\n      0x04\n      add\n      tag_32\n      swap1\n      tag_33\n      jump\t// in\n    tag_32:\n      mload(0x40)\n      dup1\n      swap2\n      sub\n      swap1\n      revert\n    tag_31:\n        /* \"contracts/EthersWallet.sol\":920:932  bool success */\n      0x00\n        /* \"contracts/EthersWallet.sol\":934:951  bytes memory data */\n      dup1\n        /* \"contracts/EthersWallet.sol\":955:958  _to */\n      dup5\n        /* \"contracts/EthersWallet.sol\":955:963  _to.call */\n      0xffffffffffffffffffffffffffffffffffffffff\n      and\n        /* \"contracts/EthersWallet.sol\":971:977  _value */\n      dup4\n        /* \"contracts/EthersWallet.sol\":1032:1035  _to */\n      dup7\n        /* \"contracts/EthersWallet.sol\":1037:1042  _from */\n      dup7\n        /* \"contracts/EthersWallet.sol\":1044:1050  _value */\n      dup7\n        /* \"contracts/EthersWallet.sol\":979:1051  abi.encode(\"changeBalance(address,address,uint256)\", _to, _from, _value) */\n      add(0x20, mload(0x40))\n      tag_35\n      swap4\n      swap3\n      swap2\n      swap1\n      tag_36\n      jump\t// in\n    tag_35:\n      mload(0x40)\n      0x20\n      dup2\n      dup4\n      sub\n      sub\n      dup2\n      mstore\n      swap1\n      0x40\n      mstore\n        /* \"contracts/EthersWallet.sol\":955:1052  _to.call{value: _value}(abi.encode(\"changeBalance(address,address,uint256)\", _to, _from, _value)) */\n      mload(0x40)\n      tag_37\n      swap2\n      swap1\n      tag_38\n      jump\t// in\n    tag_37:\n      0x00\n      mload(0x40)\n      dup1\n      dup4\n      sub\n      dup2\n      dup6\n      dup8\n      gas\n      call\n      swap3\n      pop\n      pop\n      pop\n      returndatasize\n      dup1\n      0x00\n      dup2\n      eq\n      tag_41\n      jumpi\n      mload(0x40)\n      swap2\n      pop\n      and(add(returndatasize, 0x3f), not(0x1f))\n      dup3\n      add\n      0x40\n      mstore\n      returndatasize\n      dup3\n      mstore\n      returndatasize\n      0x00\n      0x20\n      dup5\n      add\n      returndatacopy\n      jump(tag_40)\n    tag_41:\n      0x60\n      swap2\n      pop\n    tag_40:\n      pop\n        /* \"contracts/EthersWallet.sol\":919:1052  (bool success, bytes memory data) = _to.call{value: _value}(abi.encode(\"changeBalance(address,address,uint256)\", _to, _from, _value)) */\n      swap2\n      pop\n      swap2\n      pop\n        /* \"contracts/EthersWallet.sol\":1068:1092  Transfered(success,data) */\n      0x211793e58f00b3e734d024ba6cd956e5c3371570ce2f36886f32d842cc67e236\n        /* \"contracts/EthersWallet.sol\":1079:1086  success */\n      dup3\n        /* \"contracts/EthersWallet.sol\":1087:1091  data */\n      dup3\n        /* \"contracts/EthersWallet.sol\":1068:1092  Transfered(success,data) */\n      mload(0x40)\n      tag_42\n      swap3\n      swap2\n      swap1\n      tag_43\n      jump\t// in\n    tag_42:\n      mload(0x40)\n      dup1\n      swap2\n      sub\n      swap1\n      log1\n        /* \"contracts/EthersWallet.sol\":907:1178  {\r... */\n      pop\n      pop\n        /* \"contracts/EthersWallet.sol\":832:1178  function withdraw(address _to,address _from, uint _value) external isOwner {\r... */\n      pop\n      pop\n      pop\n      jump\t// out\n        /* \"#utility.yul\":7:146   */\n    tag_45:\n        /* \"#utility.yul\":53:58   */\n      0x00\n        /* \"#utility.yul\":91:97   */\n      dup2\n        /* \"#utility.yul\":78:98   */\n      calldataload\n        /* \"#utility.yul\":69:98   */\n      swap1\n      pop\n        /* \"#utility.yul\":107:140   */\n      tag_47\n        /* \"#utility.yul\":134:139   */\n      dup2\n        /* \"#utility.yul\":107:140   */\n      tag_48\n      jump\t// in\n    tag_47:\n        /* \"#utility.yul\":7:146   */\n      swap3\n      swap2\n      pop\n      pop\n      jump\t// out\n        /* \"#utility.yul\":152:291   */\n    tag_49:\n        /* \"#utility.yul\":198:203   */\n      0x00\n        /* \"#utility.yul\":236:242   */\n      dup2\n        /* \"#utility.yul\":223:243   */\n      calldataload\n        /* \"#utility.yul\":214:243   */\n      swap1\n      pop\n        /* \"#utility.yul\":252:285   */\n      tag_51\n        /* \"#utility.yul\":279:284   */\n      dup2\n        /* \"#utility.yul\":252:285   */\n      tag_52\n      jump\t// in\n    tag_51:\n        /* \"#utility.yul\":152:291   */\n      swap3\n      swap2\n      pop\n      pop\n      jump\t// out\n        /* \"#utility.yul\":297:916   */\n    tag_12:\n        /* \"#utility.yul\":374:380   */\n      0x00\n        /* \"#utility.yul\":382:388   */\n      dup1\n        /* \"#utility.yul\":390:396   */\n      0x00\n        /* \"#utility.yul\":439:441   */\n      0x60\n        /* \"#utility.yul\":427:436   */\n      dup5\n        /* \"#utility.yul\":418:425   */\n      dup7\n        /* \"#utility.yul\":414:437   */\n      sub\n        /* \"#utility.yul\":410:442   */\n      slt\n        /* \"#utility.yul\":407:526   */\n      iszero\n      tag_54\n      jumpi\n        /* \"#utility.yul\":445:524   */\n      tag_55\n      tag_56\n      jump\t// in\n    tag_55:\n        /* \"#utility.yul\":407:526   */\n    tag_54:\n        /* \"#utility.yul\":565:566   */\n      0x00\n        /* \"#utility.yul\":590:643   */\n      tag_57\n        /* \"#utility.yul\":635:642   */\n      dup7\n        /* \"#utility.yul\":626:632   */\n      dup3\n        /* \"#utility.yul\":615:624   */\n      dup8\n        /* \"#utility.yul\":611:633   */\n      add\n        /* \"#utility.yul\":590:643   */\n      tag_45\n      jump\t// in\n    tag_57:\n        /* \"#utility.yul\":580:643   */\n      swap4\n      pop\n        /* \"#utility.yul\":536:653   */\n      pop\n        /* \"#utility.yul\":692:694   */\n      0x20\n        /* \"#utility.yul\":718:771   */\n      tag_58\n        /* \"#utility.yul\":763:770   */\n      dup7\n        /* \"#utility.yul\":754:760   */\n      dup3\n        /* \"#utility.yul\":743:752   */\n      dup8\n        /* \"#utility.yul\":739:761   */\n      add\n        /* \"#utility.yul\":718:771   */\n      tag_45\n      jump\t// in\n    tag_58:\n        /* \"#utility.yul\":708:771   */\n      swap3\n      pop\n        /* \"#utility.yul\":663:781   */\n      pop\n        /* \"#utility.yul\":820:822   */\n      0x40\n        /* \"#utility.yul\":846:899   */\n      tag_59\n        /* \"#utility.yul\":891:898   */\n      dup7\n        /* \"#utility.yul\":882:888   */\n      dup3\n        /* \"#utility.yul\":871:880   */\n      dup8\n        /* \"#utility.yul\":867:889   */\n      add\n        /* \"#utility.yul\":846:899   */\n      tag_49\n      jump\t// in\n    tag_59:\n        /* \"#utility.yul\":836:899   */\n      swap2\n      pop\n        /* \"#utility.yul\":791:909   */\n      pop\n        /* \"#utility.yul\":297:916   */\n      swap3\n      pop\n      swap3\n      pop\n      swap3\n      jump\t// out\n        /* \"#utility.yul\":922:1040   */\n    tag_60:\n        /* \"#utility.yul\":1009:1033   */\n      tag_62\n        /* \"#utility.yul\":1027:1032   */\n      dup2\n        /* \"#utility.yul\":1009:1033   */\n      tag_63\n      jump\t// in\n    tag_62:\n        /* \"#utility.yul\":1004:1007   */\n      dup3\n        /* \"#utility.yul\":997:1034   */\n      mstore\n        /* \"#utility.yul\":922:1040   */\n      pop\n      pop\n      jump\t// out\n        /* \"#utility.yul\":1046:1155   */\n    tag_64:\n        /* \"#utility.yul\":1127:1148   */\n      tag_66\n        /* \"#utility.yul\":1142:1147   */\n      dup2\n        /* \"#utility.yul\":1127:1148   */\n      tag_67\n      jump\t// in\n    tag_66:\n        /* \"#utility.yul\":1122:1125   */\n      dup3\n        /* \"#utility.yul\":1115:1149   */\n      mstore\n        /* \"#utility.yul\":1046:1155   */\n      pop\n      pop\n      jump\t// out\n        /* \"#utility.yul\":1161:1521   */\n    tag_68:\n        /* \"#utility.yul\":1247:1250   */\n      0x00\n        /* \"#utility.yul\":1275:1313   */\n      tag_70\n        /* \"#utility.yul\":1307:1312   */\n      dup3\n        /* \"#utility.yul\":1275:1313   */\n      tag_71\n      jump\t// in\n    tag_70:\n        /* \"#utility.yul\":1329:1399   */\n      tag_72\n        /* \"#utility.yul\":1392:1398   */\n      dup2\n        /* \"#utility.yul\":1387:1390   */\n      dup6\n        /* \"#utility.yul\":1329:1399   */\n      tag_73\n      jump\t// in\n    tag_72:\n        /* \"#utility.yul\":1322:1399   */\n      swap4\n      pop\n        /* \"#utility.yul\":1408:1460   */\n      tag_74\n        /* \"#utility.yul\":1453:1459   */\n      dup2\n        /* \"#utility.yul\":1448:1451   */\n      dup6\n        /* \"#utility.yul\":1441:1445   */\n      0x20\n        /* \"#utility.yul\":1434:1439   */\n      dup7\n        /* \"#utility.yul\":1430:1446   */\n      add\n        /* \"#utility.yul\":1408:1460   */\n      tag_75\n      jump\t// in\n    tag_74:\n        /* \"#utility.yul\":1485:1514   */\n      tag_76\n        /* \"#utility.yul\":1507:1513   */\n      dup2\n        /* \"#utility.yul\":1485:1514   */\n      tag_77\n      jump\t// in\n    tag_76:\n        /* \"#utility.yul\":1480:1483   */\n      dup5\n        /* \"#utility.yul\":1476:1515   */\n      add\n        /* \"#utility.yul\":1469:1515   */\n      swap2\n      pop\n        /* \"#utility.yul\":1251:1521   */\n      pop\n        /* \"#utility.yul\":1161:1521   */\n      swap3\n      swap2\n      pop\n      pop\n      jump\t// out\n        /* \"#utility.yul\":1527:1900   */\n    tag_78:\n        /* \"#utility.yul\":1631:1634   */\n      0x00\n        /* \"#utility.yul\":1659:1697   */\n      tag_80\n        /* \"#utility.yul\":1691:1696   */\n      dup3\n        /* \"#utility.yul\":1659:1697   */\n      tag_71\n      jump\t// in\n    tag_80:\n        /* \"#utility.yul\":1713:1801   */\n      tag_81\n        /* \"#utility.yul\":1794:1800   */\n      dup2\n        /* \"#utility.yul\":1789:1792   */\n      dup6\n        /* \"#utility.yul\":1713:1801   */\n      tag_82\n      jump\t// in\n    tag_81:\n        /* \"#utility.yul\":1706:1801   */\n      swap4\n      pop\n        /* \"#utility.yul\":1810:1862   */\n      tag_83\n        /* \"#utility.yul\":1855:1861   */\n      dup2\n        /* \"#utility.yul\":1850:1853   */\n      dup6\n        /* \"#utility.yul\":1843:1847   */\n      0x20\n        /* \"#utility.yul\":1836:1841   */\n      dup7\n        /* \"#utility.yul\":1832:1848   */\n      add\n        /* \"#utility.yul\":1810:1862   */\n      tag_75\n      jump\t// in\n    tag_83:\n        /* \"#utility.yul\":1887:1893   */\n      dup1\n        /* \"#utility.yul\":1882:1885   */\n      dup5\n        /* \"#utility.yul\":1878:1894   */\n      add\n        /* \"#utility.yul\":1871:1894   */\n      swap2\n      pop\n        /* \"#utility.yul\":1635:1900   */\n      pop\n        /* \"#utility.yul\":1527:1900   */\n      swap3\n      swap2\n      pop\n      pop\n      jump\t// out\n        /* \"#utility.yul\":1906:2272   */\n    tag_84:\n        /* \"#utility.yul\":2048:2051   */\n      0x00\n        /* \"#utility.yul\":2069:2136   */\n      tag_86\n        /* \"#utility.yul\":2133:2135   */\n      0x26\n        /* \"#utility.yul\":2128:2131   */\n      dup4\n        /* \"#utility.yul\":2069:2136   */\n      tag_87\n      jump\t// in\n    tag_86:\n        /* \"#utility.yul\":2062:2136   */\n      swap2\n      pop\n        /* \"#utility.yul\":2145:2238   */\n      tag_88\n        /* \"#utility.yul\":2234:2237   */\n      dup3\n        /* \"#utility.yul\":2145:2238   */\n      tag_89\n      jump\t// in\n    tag_88:\n        /* \"#utility.yul\":2263:2265   */\n      0x40\n        /* \"#utility.yul\":2258:2261   */\n      dup3\n        /* \"#utility.yul\":2254:2266   */\n      add\n        /* \"#utility.yul\":2247:2266   */\n      swap1\n      pop\n        /* \"#utility.yul\":1906:2272   */\n      swap2\n      swap1\n      pop\n      jump\t// out\n        /* \"#utility.yul\":2278:2644   */\n    tag_90:\n        /* \"#utility.yul\":2420:2423   */\n      0x00\n        /* \"#utility.yul\":2441:2508   */\n      tag_92\n        /* \"#utility.yul\":2505:2507   */\n      0x0d\n        /* \"#utility.yul\":2500:2503   */\n      dup4\n        /* \"#utility.yul\":2441:2508   */\n      tag_87\n      jump\t// in\n    tag_92:\n        /* \"#utility.yul\":2434:2508   */\n      swap2\n      pop\n        /* \"#utility.yul\":2517:2610   */\n      tag_93\n        /* \"#utility.yul\":2606:2609   */\n      dup3\n        /* \"#utility.yul\":2517:2610   */\n      tag_94\n      jump\t// in\n    tag_93:\n        /* \"#utility.yul\":2635:2637   */\n      0x20\n        /* \"#utility.yul\":2630:2633   */\n      dup3\n        /* \"#utility.yul\":2626:2638   */\n      add\n        /* \"#utility.yul\":2619:2638   */\n      swap1\n      pop\n        /* \"#utility.yul\":2278:2644   */\n      swap2\n      swap1\n      pop\n      jump\t// out\n        /* \"#utility.yul\":2650:2768   */\n    tag_95:\n        /* \"#utility.yul\":2737:2761   */\n      tag_97\n        /* \"#utility.yul\":2755:2760   */\n      dup2\n        /* \"#utility.yul\":2737:2761   */\n      tag_98\n      jump\t// in\n    tag_97:\n        /* \"#utility.yul\":2732:2735   */\n      dup3\n        /* \"#utility.yul\":2725:2762   */\n      mstore\n        /* \"#utility.yul\":2650:2768   */\n      pop\n      pop\n      jump\t// out\n        /* \"#utility.yul\":2774:3045   */\n    tag_38:\n        /* \"#utility.yul\":2904:2907   */\n      0x00\n        /* \"#utility.yul\":2926:3019   */\n      tag_100\n        /* \"#utility.yul\":3015:3018   */\n      dup3\n        /* \"#utility.yul\":3006:3012   */\n      dup5\n        /* \"#utility.yul\":2926:3019   */\n      tag_78\n      jump\t// in\n    tag_100:\n        /* \"#utility.yul\":2919:3019   */\n      swap2\n      pop\n        /* \"#utility.yul\":3036:3039   */\n      dup2\n        /* \"#utility.yul\":3029:3039   */\n      swap1\n      pop\n        /* \"#utility.yul\":2774:3045   */\n      swap3\n      swap2\n      pop\n      pop\n      jump\t// out\n        /* \"#utility.yul\":3051:3493   */\n    tag_28:\n        /* \"#utility.yul\":3200:3204   */\n      0x00\n        /* \"#utility.yul\":3238:3240   */\n      0x60\n        /* \"#utility.yul\":3227:3236   */\n      dup3\n        /* \"#utility.yul\":3223:3241   */\n      add\n        /* \"#utility.yul\":3215:3241   */\n      swap1\n      pop\n        /* \"#utility.yul\":3251:3322   */\n      tag_102\n        /* \"#utility.yul\":3319:3320   */\n      0x00\n        /* \"#utility.yul\":3308:3317   */\n      dup4\n        /* \"#utility.yul\":3304:3321   */\n      add\n        /* \"#utility.yul\":3295:3301   */\n      dup7\n        /* \"#utility.yul\":3251:3322   */\n      tag_60\n      jump\t// in\n    tag_102:\n        /* \"#utility.yul\":3332:3404   */\n      tag_103\n        /* \"#utility.yul\":3400:3402   */\n      0x20\n        /* \"#utility.yul\":3389:3398   */\n      dup4\n        /* \"#utility.yul\":3385:3403   */\n      add\n        /* \"#utility.yul\":3376:3382   */\n      dup6\n        /* \"#utility.yul\":3332:3404   */\n      tag_60\n      jump\t// in\n    tag_103:\n        /* \"#utility.yul\":3414:3486   */\n      tag_104\n        /* \"#utility.yul\":3482:3484   */\n      0x40\n        /* \"#utility.yul\":3471:3480   */\n      dup4\n        /* \"#utility.yul\":3467:3485   */\n      add\n        /* \"#utility.yul\":3458:3464   */\n      dup5\n        /* \"#utility.yul\":3414:3486   */\n      tag_95\n      jump\t// in\n    tag_104:\n        /* \"#utility.yul\":3051:3493   */\n      swap5\n      swap4\n      pop\n      pop\n      pop\n      pop\n      jump\t// out\n        /* \"#utility.yul\":3499:3906   */\n    tag_43:\n        /* \"#utility.yul\":3632:3636   */\n      0x00\n        /* \"#utility.yul\":3670:3672   */\n      0x40\n        /* \"#utility.yul\":3659:3668   */\n      dup3\n        /* \"#utility.yul\":3655:3673   */\n      add\n        /* \"#utility.yul\":3647:3673   */\n      swap1\n      pop\n        /* \"#utility.yul\":3683:3748   */\n      tag_106\n        /* \"#utility.yul\":3745:3746   */\n      0x00\n        /* \"#utility.yul\":3734:3743   */\n      dup4\n        /* \"#utility.yul\":3730:3747   */\n      add\n        /* \"#utility.yul\":3721:3727   */\n      dup6\n        /* \"#utility.yul\":3683:3748   */\n      tag_64\n      jump\t// in\n    tag_106:\n        /* \"#utility.yul\":3795:3804   */\n      dup2\n        /* \"#utility.yul\":3789:3793   */\n      dup2\n        /* \"#utility.yul\":3785:3805   */\n      sub\n        /* \"#utility.yul\":3780:3782   */\n      0x20\n        /* \"#utility.yul\":3769:3778   */\n      dup4\n        /* \"#utility.yul\":3765:3783   */\n      add\n        /* \"#utility.yul\":3758:3806   */\n      mstore\n        /* \"#utility.yul\":3823:3899   */\n      tag_107\n        /* \"#utility.yul\":3894:3898   */\n      dup2\n        /* \"#utility.yul\":3885:3891   */\n      dup5\n        /* \"#utility.yul\":3823:3899   */\n      tag_68\n      jump\t// in\n    tag_107:\n        /* \"#utility.yul\":3815:3899   */\n      swap1\n      pop\n        /* \"#utility.yul\":3499:3906   */\n      swap4\n      swap3\n      pop\n      pop\n      pop\n      jump\t// out\n        /* \"#utility.yul\":3912:4662   */\n    tag_36:\n        /* \"#utility.yul\":4162:4166   */\n      0x00\n        /* \"#utility.yul\":4200:4203   */\n      0x80\n        /* \"#utility.yul\":4189:4198   */\n      dup3\n        /* \"#utility.yul\":4185:4204   */\n      add\n        /* \"#utility.yul\":4177:4204   */\n      swap1\n      pop\n        /* \"#utility.yul\":4250:4259   */\n      dup2\n        /* \"#utility.yul\":4244:4248   */\n      dup2\n        /* \"#utility.yul\":4240:4260   */\n      sub\n        /* \"#utility.yul\":4236:4237   */\n      0x00\n        /* \"#utility.yul\":4225:4234   */\n      dup4\n        /* \"#utility.yul\":4221:4238   */\n      add\n        /* \"#utility.yul\":4214:4261   */\n      mstore\n        /* \"#utility.yul\":4278:4409   */\n      tag_109\n        /* \"#utility.yul\":4404:4408   */\n      dup2\n        /* \"#utility.yul\":4278:4409   */\n      tag_84\n      jump\t// in\n    tag_109:\n        /* \"#utility.yul\":4270:4409   */\n      swap1\n      pop\n        /* \"#utility.yul\":4419:4491   */\n      tag_110\n        /* \"#utility.yul\":4487:4489   */\n      0x20\n        /* \"#utility.yul\":4476:4485   */\n      dup4\n        /* \"#utility.yul\":4472:4490   */\n      add\n        /* \"#utility.yul\":4463:4469   */\n      dup7\n        /* \"#utility.yul\":4419:4491   */\n      tag_60\n      jump\t// in\n    tag_110:\n        /* \"#utility.yul\":4501:4573   */\n      tag_111\n        /* \"#utility.yul\":4569:4571   */\n      0x40\n        /* \"#utility.yul\":4558:4567   */\n      dup4\n        /* \"#utility.yul\":4554:4572   */\n      add\n        /* \"#utility.yul\":4545:4551   */\n      dup6\n        /* \"#utility.yul\":4501:4573   */\n      tag_60\n      jump\t// in\n    tag_111:\n        /* \"#utility.yul\":4583:4655   */\n      tag_112\n        /* \"#utility.yul\":4651:4653   */\n      0x60\n        /* \"#utility.yul\":4640:4649   */\n      dup4\n        /* \"#utility.yul\":4636:4654   */\n      add\n        /* \"#utility.yul\":4627:4633   */\n      dup5\n        /* \"#utility.yul\":4583:4655   */\n      tag_95\n      jump\t// in\n    tag_112:\n        /* \"#utility.yul\":3912:4662   */\n      swap5\n      swap4\n      pop\n      pop\n      pop\n      pop\n      jump\t// out\n        /* \"#utility.yul\":4668:5087   */\n    tag_33:\n        /* \"#utility.yul\":4834:4838   */\n      0x00\n        /* \"#utility.yul\":4872:4874   */\n      0x20\n        /* \"#utility.yul\":4861:4870   */\n      dup3\n        /* \"#utility.yul\":4857:4875   */\n      add\n        /* \"#utility.yul\":4849:4875   */\n      swap1\n      pop\n        /* \"#utility.yul\":4921:4930   */\n      dup2\n        /* \"#utility.yul\":4915:4919   */\n      dup2\n        /* \"#utility.yul\":4911:4931   */\n      sub\n        /* \"#utility.yul\":4907:4908   */\n      0x00\n        /* \"#utility.yul\":4896:4905   */\n      dup4\n        /* \"#utility.yul\":4892:4909   */\n      add\n        /* \"#utility.yul\":4885:4932   */\n      mstore\n        /* \"#utility.yul\":4949:5080   */\n      tag_114\n        /* \"#utility.yul\":5075:5079   */\n      dup2\n        /* \"#utility.yul\":4949:5080   */\n      tag_90\n      jump\t// in\n    tag_114:\n        /* \"#utility.yul\":4941:5080   */\n      swap1\n      pop\n        /* \"#utility.yul\":4668:5087   */\n      swap2\n      swap1\n      pop\n      jump\t// out\n        /* \"#utility.yul\":5093:5315   */\n    tag_18:\n        /* \"#utility.yul\":5186:5190   */\n      0x00\n        /* \"#utility.yul\":5224:5226   */\n      0x20\n        /* \"#utility.yul\":5213:5222   */\n      dup3\n        /* \"#utility.yul\":5209:5227   */\n      add\n        /* \"#utility.yul\":5201:5227   */\n      swap1\n      pop\n        /* \"#utility.yul\":5237:5308   */\n      tag_116\n        /* \"#utility.yul\":5305:5306   */\n      0x00\n        /* \"#utility.yul\":5294:5303   */\n      dup4\n        /* \"#utility.yul\":5290:5307   */\n      add\n        /* \"#utility.yul\":5281:5287   */\n      dup5\n        /* \"#utility.yul\":5237:5308   */\n      tag_95\n      jump\t// in\n    tag_116:\n        /* \"#utility.yul\":5093:5315   */\n      swap3\n      swap2\n      pop\n      pop\n      jump\t// out\n        /* \"#utility.yul\":5402:5500   */\n    tag_71:\n        /* \"#utility.yul\":5453:5459   */\n      0x00\n        /* \"#utility.yul\":5487:5492   */\n      dup2\n        /* \"#utility.yul\":5481:5493   */\n      mload\n        /* \"#utility.yul\":5471:5493   */\n      swap1\n      pop\n        /* \"#utility.yul\":5402:5500   */\n      swap2\n      swap1\n      pop\n      jump\t// out\n        /* \"#utility.yul\":5506:5674   */\n    tag_73:\n        /* \"#utility.yul\":5589:5600   */\n      0x00\n        /* \"#utility.yul\":5623:5629   */\n      dup3\n        /* \"#utility.yul\":5618:5621   */\n      dup3\n        /* \"#utility.yul\":5611:5630   */\n      mstore\n        /* \"#utility.yul\":5663:5667   */\n      0x20\n        /* \"#utility.yul\":5658:5661   */\n      dup3\n        /* \"#utility.yul\":5654:5668   */\n      add\n        /* \"#utility.yul\":5639:5668   */\n      swap1\n      pop\n        /* \"#utility.yul\":5506:5674   */\n      swap3\n      swap2\n      pop\n      pop\n      jump\t// out\n        /* \"#utility.yul\":5680:5827   */\n    tag_82:\n        /* \"#utility.yul\":5781:5792   */\n      0x00\n        /* \"#utility.yul\":5818:5821   */\n      dup2\n        /* \"#utility.yul\":5803:5821   */\n      swap1\n      pop\n        /* \"#utility.yul\":5680:5827   */\n      swap3\n      swap2\n      pop\n      pop\n      jump\t// out\n        /* \"#utility.yul\":5833:6002   */\n    tag_87:\n        /* \"#utility.yul\":5917:5928   */\n      0x00\n        /* \"#utility.yul\":5951:5957   */\n      dup3\n        /* \"#utility.yul\":5946:5949   */\n      dup3\n        /* \"#utility.yul\":5939:5958   */\n      mstore\n        /* \"#utility.yul\":5991:5995   */\n      0x20\n        /* \"#utility.yul\":5986:5989   */\n      dup3\n        /* \"#utility.yul\":5982:5996   */\n      add\n        /* \"#utility.yul\":5967:5996   */\n      swap1\n      pop\n        /* \"#utility.yul\":5833:6002   */\n      swap3\n      swap2\n      pop\n      pop\n      jump\t// out\n        /* \"#utility.yul\":6008:6313   */\n    tag_9:\n        /* \"#utility.yul\":6048:6051   */\n      0x00\n        /* \"#utility.yul\":6067:6087   */\n      tag_124\n        /* \"#utility.yul\":6085:6086   */\n      dup3\n        /* \"#utility.yul\":6067:6087   */\n      tag_98\n      jump\t// in\n    tag_124:\n        /* \"#utility.yul\":6062:6087   */\n      swap2\n      pop\n        /* \"#utility.yul\":6101:6121   */\n      tag_125\n        /* \"#utility.yul\":6119:6120   */\n      dup4\n        /* \"#utility.yul\":6101:6121   */\n      tag_98\n      jump\t// in\n    tag_125:\n        /* \"#utility.yul\":6096:6121   */\n      swap3\n      pop\n        /* \"#utility.yul\":6255:6256   */\n      dup3\n        /* \"#utility.yul\":6187:6253   */\n      0xffffffffffffffffffffffffffffffffffffffffffffffffffffffffffffffff\n        /* \"#utility.yul\":6183:6257   */\n      sub\n        /* \"#utility.yul\":6180:6181   */\n      dup3\n        /* \"#utility.yul\":6177:6258   */\n      gt\n        /* \"#utility.yul\":6174:6281   */\n      iszero\n      tag_126\n      jumpi\n        /* \"#utility.yul\":6261:6279   */\n      tag_127\n      tag_128\n      jump\t// in\n    tag_127:\n        /* \"#utility.yul\":6174:6281   */\n    tag_126:\n        /* \"#utility.yul\":6305:6306   */\n      dup3\n        /* \"#utility.yul\":6302:6303   */\n      dup3\n        /* \"#utility.yul\":6298:6307   */\n      add\n        /* \"#utility.yul\":6291:6307   */\n      swap1\n      pop\n        /* \"#utility.yul\":6008:6313   */\n      swap3\n      swap2\n      pop\n      pop\n      jump\t// out\n        /* \"#utility.yul\":6319:6510   */\n    tag_26:\n        /* \"#utility.yul\":6359:6363   */\n      0x00\n        /* \"#utility.yul\":6379:6399   */\n      tag_130\n        /* \"#utility.yul\":6397:6398   */\n      dup3\n        /* \"#utility.yul\":6379:6399   */\n      tag_98\n      jump\t// in\n    tag_130:\n        /* \"#utility.yul\":6374:6399   */\n      swap2\n      pop\n        /* \"#utility.yul\":6413:6433   */\n      tag_131\n        /* \"#utility.yul\":6431:6432   */\n      dup4\n        /* \"#utility.yul\":6413:6433   */\n      tag_98\n      jump\t// in\n    tag_131:\n        /* \"#utility.yul\":6408:6433   */\n      swap3\n      pop\n        /* \"#utility.yul\":6452:6453   */\n      dup3\n        /* \"#utility.yul\":6449:6450   */\n      dup3\n        /* \"#utility.yul\":6446:6454   */\n      lt\n        /* \"#utility.yul\":6443:6477   */\n      iszero\n      tag_132\n      jumpi\n        /* \"#utility.yul\":6457:6475   */\n      tag_133\n      tag_128\n      jump\t// in\n    tag_133:\n        /* \"#utility.yul\":6443:6477   */\n    tag_132:\n        /* \"#utility.yul\":6502:6503   */\n      dup3\n        /* \"#utility.yul\":6499:6500   */\n      dup3\n        /* \"#utility.yul\":6495:6504   */\n      sub\n        /* \"#utility.yul\":6487:6504   */\n      swap1\n      pop\n        /* \"#utility.yul\":6319:6510   */\n      swap3\n      swap2\n      pop\n      pop\n      jump\t// out\n        /* \"#utility.yul\":6516:6612   */\n    tag_63:\n        /* \"#utility.yul\":6553:6560   */\n      0x00\n        /* \"#utility.yul\":6582:6606   */\n      tag_135\n        /* \"#utility.yul\":6600:6605   */\n      dup3\n        /* \"#utility.yul\":6582:6606   */\n      tag_136\n      jump\t// in\n    tag_135:\n        /* \"#utility.yul\":6571:6606   */\n      swap1\n      pop\n        /* \"#utility.yul\":6516:6612   */\n      swap2\n      swap1\n      pop\n      jump\t// out\n        /* \"#utility.yul\":6618:6708   */\n    tag_67:\n        /* \"#utility.yul\":6652:6659   */\n      0x00\n        /* \"#utility.yul\":6695:6700   */\n      dup2\n        /* \"#utility.yul\":6688:6701   */\n      iszero\n        /* \"#utility.yul\":6681:6702   */\n      iszero\n        /* \"#utility.yul\":6670:6702   */\n      swap1\n      pop\n        /* \"#utility.yul\":6618:6708   */\n      swap2\n      swap1\n      pop\n      jump\t// out\n        /* \"#utility.yul\":6714:6840   */\n    tag_136:\n        /* \"#utility.yul\":6751:6758   */\n      0x00\n        /* \"#utility.yul\":6791:6833   */\n      0xffffffffffffffffffffffffffffffffffffffff\n        /* \"#utility.yul\":6784:6789   */\n      dup3\n        /* \"#utility.yul\":6780:6834   */\n      and\n        /* \"#utility.yul\":6769:6834   */\n      swap1\n      pop\n        /* \"#utility.yul\":6714:6840   */\n      swap2\n      swap1\n      pop\n      jump\t// out\n        /* \"#utility.yul\":6846:6923   */\n    tag_98:\n        /* \"#utility.yul\":6883:6890   */\n      0x00\n        /* \"#utility.yul\":6912:6917   */\n      dup2\n        /* \"#utility.yul\":6901:6917   */\n      swap1\n      pop\n        /* \"#utility.yul\":6846:6923   */\n      swap2\n      swap1\n      pop\n      jump\t// out\n        /* \"#utility.yul\":6929:7236   */\n    tag_75:\n        /* \"#utility.yul\":6997:6998   */\n      0x00\n        /* \"#utility.yul\":7007:7120   */\n    tag_141:\n        /* \"#utility.yul\":7021:7027   */\n      dup4\n        /* \"#utility.yul\":7018:7019   */\n      dup2\n        /* \"#utility.yul\":7015:7028   */\n      lt\n        /* \"#utility.yul\":7007:7120   */\n      iszero\n      tag_143\n      jumpi\n        /* \"#utility.yul\":7106:7107   */\n      dup1\n        /* \"#utility.yul\":7101:7104   */\n      dup3\n        /* \"#utility.yul\":7097:7108   */\n      add\n        /* \"#utility.yul\":7091:7109   */\n      mload\n        /* \"#utility.yul\":7087:7088   */\n      dup2\n        /* \"#utility.yul\":7082:7085   */\n      dup5\n        /* \"#utility.yul\":7078:7089   */\n      add\n        /* \"#utility.yul\":7071:7110   */\n      mstore\n        /* \"#utility.yul\":7043:7045   */\n      0x20\n        /* \"#utility.yul\":7040:7041   */\n      dup2\n        /* \"#utility.yul\":7036:7046   */\n      add\n        /* \"#utility.yul\":7031:7046   */\n      swap1\n      pop\n        /* \"#utility.yul\":7007:7120   */\n      jump(tag_141)\n    tag_143:\n        /* \"#utility.yul\":7138:7144   */\n      dup4\n        /* \"#utility.yul\":7135:7136   */\n      dup2\n        /* \"#utility.yul\":7132:7145   */\n      gt\n        /* \"#utility.yul\":7129:7230   */\n      iszero\n      tag_144\n      jumpi\n        /* \"#utility.yul\":7218:7219   */\n      0x00\n        /* \"#utility.yul\":7209:7215   */\n      dup5\n        /* \"#utility.yul\":7204:7207   */\n      dup5\n        /* \"#utility.yul\":7200:7216   */\n      add\n        /* \"#utility.yul\":7193:7220   */\n      mstore\n        /* \"#utility.yul\":7129:7230   */\n    tag_144:\n        /* \"#utility.yul\":6978:7236   */\n      pop\n        /* \"#utility.yul\":6929:7236   */\n      pop\n      pop\n      pop\n      jump\t// out\n        /* \"#utility.yul\":7242:7422   */\n    tag_128:\n        /* \"#utility.yul\":7290:7367   */\n      0x4e487b7100000000000000000000000000000000000000000000000000000000\n        /* \"#utility.yul\":7287:7288   */\n      0x00\n        /* \"#utility.yul\":7280:7368   */\n      mstore\n        /* \"#utility.yul\":7387:7391   */\n      0x11\n        /* \"#utility.yul\":7384:7385   */\n      0x04\n        /* \"#utility.yul\":7377:7392   */\n      mstore\n        /* \"#utility.yul\":7411:7415   */\n      0x24\n        /* \"#utility.yul\":7408:7409   */\n      0x00\n        /* \"#utility.yul\":7401:7416   */\n      revert\n        /* \"#utility.yul\":7551:7668   */\n    tag_56:\n        /* \"#utility.yul\":7660:7661   */\n      0x00\n        /* \"#utility.yul\":7657:7658   */\n      dup1\n        /* \"#utility.yul\":7650:7662   */\n      revert\n        /* \"#utility.yul\":7674:7776   */\n    tag_77:\n        /* \"#utility.yul\":7715:7721   */\n      0x00\n        /* \"#utility.yul\":7766:7768   */\n      0x1f\n        /* \"#utility.yul\":7762:7769   */\n      not\n        /* \"#utility.yul\":7757:7759   */\n      0x1f\n        /* \"#utility.yul\":7750:7755   */\n      dup4\n        /* \"#utility.yul\":7746:7760   */\n      add\n        /* \"#utility.yul\":7742:7770   */\n      and\n        /* \"#utility.yul\":7732:7770   */\n      swap1\n      pop\n        /* \"#utility.yul\":7674:7776   */\n      swap2\n      swap1\n      pop\n      jump\t// out\n        /* \"#utility.yul\":7782:8007   */\n    tag_89:\n        /* \"#utility.yul\":7922:7956   */\n      0x6368616e676542616c616e636528616464726573732c616464726573732c7569\n        /* \"#utility.yul\":7918:7919   */\n      0x00\n        /* \"#utility.yul\":7910:7916   */\n      dup3\n        /* \"#utility.yul\":7906:7920   */\n      add\n        /* \"#utility.yul\":7899:7957   */\n      mstore\n        /* \"#utility.yul\":7991:7999   */\n      0x6e74323536290000000000000000000000000000000000000000000000000000\n        /* \"#utility.yul\":7986:7988   */\n      0x20\n        /* \"#utility.yul\":7978:7984   */\n      dup3\n        /* \"#utility.yul\":7974:7989   */\n      add\n        /* \"#utility.yul\":7967:8000   */\n      mstore\n        /* \"#utility.yul\":7782:8007   */\n      pop\n      jump\t// out\n        /* \"#utility.yul\":8013:8176   */\n    tag_94:\n        /* \"#utility.yul\":8153:8168   */\n      0x4e6f7420746865204f776e657200000000000000000000000000000000000000\n        /* \"#utility.yul\":8149:8150   */\n      0x00\n        /* \"#utility.yul\":8141:8147   */\n      dup3\n        /* \"#utility.yul\":8137:8151   */\n      add\n        /* \"#utility.yul\":8130:8169   */\n      mstore\n        /* \"#utility.yul\":8013:8176   */\n      pop\n      jump\t// out\n        /* \"#utility.yul\":8182:8304   */\n    tag_48:\n        /* \"#utility.yul\":8255:8279   */\n      tag_153\n        /* \"#utility.yul\":8273:8278   */\n      dup2\n        /* \"#utility.yul\":8255:8279   */\n      tag_63\n      jump\t// in\n    tag_153:\n        /* \"#utility.yul\":8248:8253   */\n      dup2\n        /* \"#utility.yul\":8245:8280   */\n      eq\n        /* \"#utility.yul\":8235:8298   */\n      tag_154\n      jumpi\n        /* \"#utility.yul\":8294:8295   */\n      0x00\n        /* \"#utility.yul\":8291:8292   */\n      dup1\n        /* \"#utility.yul\":8284:8296   */\n      revert\n        /* \"#utility.yul\":8235:8298   */\n    tag_154:\n        /* \"#utility.yul\":8182:8304   */\n      pop\n      jump\t// out\n        /* \"#utility.yul\":8310:8432   */\n    tag_52:\n        /* \"#utility.yul\":8383:8407   */\n      tag_156\n        /* \"#utility.yul\":8401:8406   */\n      dup2\n        /* \"#utility.yul\":8383:8407   */\n      tag_98\n      jump\t// in\n    tag_156:\n        /* \"#utility.yul\":8376:8381   */\n      dup2\n        /* \"#utility.yul\":8373:8408   */\n      eq\n        /* \"#utility.yul\":8363:8426   */\n      tag_157\n      jumpi\n        /* \"#utility.yul\":8422:8423   */\n      0x00\n        /* \"#utility.yul\":8419:8420   */\n      dup1\n        /* \"#utility.yul\":8412:8424   */\n      revert\n        /* \"#utility.yul\":8363:8426   */\n    tag_157:\n        /* \"#utility.yul\":8310:8432   */\n      pop\n      jump\t// out\n\n    auxdata: 0xa2646970667358221220cb38d076cdbb506b62bb1ce1d8f6f6acfa0a79fcd6bb855f7bffd45e9a5f7e5064736f6c63430008070033\n}\n",
				"bytecode": {
					"linkReferences": {},
					"object": "608060405234801561001057600080fd5b50336000806101000a81548173ffffffffffffffffffffffffffffffffffffffff021916908373ffffffffffffffffffffffffffffffffffffffff160217905550610859806100606000396000f3fe6080604052600436106100385760003560e01c806316c0aefd1461009a578063bf152765146100b6578063d9caed12146100e157610095565b366100955734600160003373ffffffffffffffffffffffffffffffffffffffff1673ffffffffffffffffffffffffffffffffffffffff168152602001908152602001600020600082825461008c9190610633565b92505081905550005b600080fd5b6100b460048036038101906100af91906103c8565b61010a565b005b3480156100c257600080fd5b506100cb6101f6565b6040516100d891906105e0565b60405180910390f35b3480156100ed57600080fd5b50610108600480360381019061010391906103c8565b61023d565b005b80600160008573ffffffffffffffffffffffffffffffffffffffff1673ffffffffffffffffffffffffffffffffffffffff16815260200190815260200160002060008282546101599190610633565b9250508190555080600160008473ffffffffffffffffffffffffffffffffffffffff1673ffffffffffffffffffffffffffffffffffffffff16815260200190815260200160002060008282546101af9190610689565b925050819055507fd53683c2ddbfbeaa0862bf4bb2ad12d32e889a7539dde25b42322b1139dd5c438383836040516101e99392919061050f565b60405180910390a1505050565b6000600160003373ffffffffffffffffffffffffffffffffffffffff1673ffffffffffffffffffffffffffffffffffffffff16815260200190815260200160002054905090565b60008054906101000a900473ffffffffffffffffffffffffffffffffffffffff1673ffffffffffffffffffffffffffffffffffffffff163373ffffffffffffffffffffffffffffffffffffffff16146102cb576040517f08c379a00000000000000000000000000000000000000000000000000000000081526004016102c2906105c0565b60405180910390fd5b6000808473ffffffffffffffffffffffffffffffffffffffff16838686866040516020016102fb93929190610576565b60405160208183030381529060405260405161031791906104f8565b60006040518083038185875af1925050503d8060008114610354576040519150601f19603f3d011682016040523d82523d6000602084013e610359565b606091505b50915091507f211793e58f00b3e734d024ba6cd956e5c3371570ce2f36886f32d842cc67e236828260405161038f929190610546565b60405180910390a15050505050565b6000813590506103ad816107f5565b92915050565b6000813590506103c28161080c565b92915050565b6000806000606084860312156103e1576103e0610767565b5b60006103ef8682870161039e565b93505060206104008682870161039e565b9250506040610411868287016103b3565b9150509250925092565b610424816106bd565b82525050565b610433816106cf565b82525050565b6000610444826105fb565b61044e8185610606565b935061045e818560208601610705565b6104678161076c565b840191505092915050565b600061047d826105fb565b6104878185610617565b9350610497818560208601610705565b80840191505092915050565b60006104b0602683610622565b91506104bb8261077d565b604082019050919050565b60006104d3600d83610622565b91506104de826107cc565b602082019050919050565b6104f2816106fb565b82525050565b60006105048284610472565b915081905092915050565b6000606082019050610524600083018661041b565b610531602083018561041b565b61053e60408301846104e9565b949350505050565b600060408201905061055b600083018561042a565b818103602083015261056d8184610439565b90509392505050565b6000608082019050818103600083015261058f816104a3565b905061059e602083018661041b565b6105ab604083018561041b565b6105b860608301846104e9565b949350505050565b600060208201905081810360008301526105d9816104c6565b9050919050565b60006020820190506105f560008301846104e9565b92915050565b600081519050919050565b600082825260208201905092915050565b600081905092915050565b600082825260208201905092915050565b600061063e826106fb565b9150610649836106fb565b9250827fffffffffffffffffffffffffffffffffffffffffffffffffffffffffffffffff0382111561067e5761067d610738565b5b828201905092915050565b6000610694826106fb565b915061069f836106fb565b9250828210156106b2576106b1610738565b5b828203905092915050565b60006106c8826106db565b9050919050565b60008115159050919050565b600073ffffffffffffffffffffffffffffffffffffffff82169050919050565b6000819050919050565b60005b83811015610723578082015181840152602081019050610708565b83811115610732576000848401525b50505050565b7f4e487b7100000000000000000000000000000000000000000000000000000000600052601160045260246000fd5b600080fd5b6000601f19601f8301169050919050565b7f6368616e676542616c616e636528616464726573732c616464726573732c756960008201527f6e74323536290000000000000000000000000000000000000000000000000000602082015250565b7f4e6f7420746865204f776e657200000000000000000000000000000000000000600082015250565b6107fe816106bd565b811461080957600080fd5b50565b610815816106fb565b811461082057600080fd5b5056fea2646970667358221220cb38d076cdbb506b62bb1ce1d8f6f6acfa0a79fcd6bb855f7bffd45e9a5f7e5064736f6c63430008070033",
					"opcodes": "PUSH1 0x80 PUSH1 0x40 MSTORE CALLVALUE DUP1 ISZERO PUSH2 0x10 JUMPI PUSH1 0x0 DUP1 REVERT JUMPDEST POP CALLER PUSH1 0x0 DUP1 PUSH2 0x100 EXP DUP2 SLOAD DUP2 PUSH20 0xFFFFFFFFFFFFFFFFFFFFFFFFFFFFFFFFFFFFFFFF MUL NOT AND SWAP1 DUP4 PUSH20 0xFFFFFFFFFFFFFFFFFFFFFFFFFFFFFFFFFFFFFFFF AND MUL OR SWAP1 SSTORE POP PUSH2 0x859 DUP1 PUSH2 0x60 PUSH1 0x0 CODECOPY PUSH1 0x0 RETURN INVALID PUSH1 0x80 PUSH1 0x40 MSTORE PUSH1 0x4 CALLDATASIZE LT PUSH2 0x38 JUMPI PUSH1 0x0 CALLDATALOAD PUSH1 0xE0 SHR DUP1 PUSH4 0x16C0AEFD EQ PUSH2 0x9A JUMPI DUP1 PUSH4 0xBF152765 EQ PUSH2 0xB6 JUMPI DUP1 PUSH4 0xD9CAED12 EQ PUSH2 0xE1 JUMPI PUSH2 0x95 JUMP JUMPDEST CALLDATASIZE PUSH2 0x95 JUMPI CALLVALUE PUSH1 0x1 PUSH1 0x0 CALLER PUSH20 0xFFFFFFFFFFFFFFFFFFFFFFFFFFFFFFFFFFFFFFFF AND PUSH20 0xFFFFFFFFFFFFFFFFFFFFFFFFFFFFFFFFFFFFFFFF AND DUP2 MSTORE PUSH1 0x20 ADD SWAP1 DUP2 MSTORE PUSH1 0x20 ADD PUSH1 0x0 KECCAK256 PUSH1 0x0 DUP3 DUP3 SLOAD PUSH2 0x8C SWAP2 SWAP1 PUSH2 0x633 JUMP JUMPDEST SWAP3 POP POP DUP2 SWAP1 SSTORE POP STOP JUMPDEST PUSH1 0x0 DUP1 REVERT JUMPDEST PUSH2 0xB4 PUSH1 0x4 DUP1 CALLDATASIZE SUB DUP2 ADD SWAP1 PUSH2 0xAF SWAP2 SWAP1 PUSH2 0x3C8 JUMP JUMPDEST PUSH2 0x10A JUMP JUMPDEST STOP JUMPDEST CALLVALUE DUP1 ISZERO PUSH2 0xC2 JUMPI PUSH1 0x0 DUP1 REVERT JUMPDEST POP PUSH2 0xCB PUSH2 0x1F6 JUMP JUMPDEST PUSH1 0x40 MLOAD PUSH2 0xD8 SWAP2 SWAP1 PUSH2 0x5E0 JUMP JUMPDEST PUSH1 0x40 MLOAD DUP1 SWAP2 SUB SWAP1 RETURN JUMPDEST CALLVALUE DUP1 ISZERO PUSH2 0xED JUMPI PUSH1 0x0 DUP1 REVERT JUMPDEST POP PUSH2 0x108 PUSH1 0x4 DUP1 CALLDATASIZE SUB DUP2 ADD SWAP1 PUSH2 0x103 SWAP2 SWAP1 PUSH2 0x3C8 JUMP JUMPDEST PUSH2 0x23D JUMP JUMPDEST STOP JUMPDEST DUP1 PUSH1 0x1 PUSH1 0x0 DUP6 PUSH20 0xFFFFFFFFFFFFFFFFFFFFFFFFFFFFFFFFFFFFFFFF AND PUSH20 0xFFFFFFFFFFFFFFFFFFFFFFFFFFFFFFFFFFFFFFFF AND DUP2 MSTORE PUSH1 0x20 ADD SWAP1 DUP2 MSTORE PUSH1 0x20 ADD PUSH1 0x0 KECCAK256 PUSH1 0x0 DUP3 DUP3 SLOAD PUSH2 0x159 SWAP2 SWAP1 PUSH2 0x633 JUMP JUMPDEST SWAP3 POP POP DUP2 SWAP1 SSTORE POP DUP1 PUSH1 0x1 PUSH1 0x0 DUP5 PUSH20 0xFFFFFFFFFFFFFFFFFFFFFFFFFFFFFFFFFFFFFFFF AND PUSH20 0xFFFFFFFFFFFFFFFFFFFFFFFFFFFFFFFFFFFFFFFF AND DUP2 MSTORE PUSH1 0x20 ADD SWAP1 DUP2 MSTORE PUSH1 0x20 ADD PUSH1 0x0 KECCAK256 PUSH1 0x0 DUP3 DUP3 SLOAD PUSH2 0x1AF SWAP2 SWAP1 PUSH2 0x689 JUMP JUMPDEST SWAP3 POP POP DUP2 SWAP1 SSTORE POP PUSH32 0xD53683C2DDBFBEAA0862BF4BB2AD12D32E889A7539DDE25B42322B1139DD5C43 DUP4 DUP4 DUP4 PUSH1 0x40 MLOAD PUSH2 0x1E9 SWAP4 SWAP3 SWAP2 SWAP1 PUSH2 0x50F JUMP JUMPDEST PUSH1 0x40 MLOAD DUP1 SWAP2 SUB SWAP1 LOG1 POP POP POP JUMP JUMPDEST PUSH1 0x0 PUSH1 0x1 PUSH1 0x0 CALLER PUSH20 0xFFFFFFFFFFFFFFFFFFFFFFFFFFFFFFFFFFFFFFFF AND PUSH20 0xFFFFFFFFFFFFFFFFFFFFFFFFFFFFFFFFFFFFFFFF AND DUP2 MSTORE PUSH1 0x20 ADD SWAP1 DUP2 MSTORE PUSH1 0x20 ADD PUSH1 0x0 KECCAK256 SLOAD SWAP1 POP SWAP1 JUMP JUMPDEST PUSH1 0x0 DUP1 SLOAD SWAP1 PUSH2 0x100 EXP SWAP1 DIV PUSH20 0xFFFFFFFFFFFFFFFFFFFFFFFFFFFFFFFFFFFFFFFF AND PUSH20 0xFFFFFFFFFFFFFFFFFFFFFFFFFFFFFFFFFFFFFFFF AND CALLER PUSH20 0xFFFFFFFFFFFFFFFFFFFFFFFFFFFFFFFFFFFFFFFF AND EQ PUSH2 0x2CB JUMPI PUSH1 0x40 MLOAD PUSH32 0x8C379A000000000000000000000000000000000000000000000000000000000 DUP2 MSTORE PUSH1 0x4 ADD PUSH2 0x2C2 SWAP1 PUSH2 0x5C0 JUMP JUMPDEST PUSH1 0x40 MLOAD DUP1 SWAP2 SUB SWAP1 REVERT JUMPDEST PUSH1 0x0 DUP1 DUP5 PUSH20 0xFFFFFFFFFFFFFFFFFFFFFFFFFFFFFFFFFFFFFFFF AND DUP4 DUP7 DUP7 DUP7 PUSH1 0x40 MLOAD PUSH1 0x20 ADD PUSH2 0x2FB SWAP4 SWAP3 SWAP2 SWAP1 PUSH2 0x576 JUMP JUMPDEST PUSH1 0x40 MLOAD PUSH1 0x20 DUP2 DUP4 SUB SUB DUP2 MSTORE SWAP1 PUSH1 0x40 MSTORE PUSH1 0x40 MLOAD PUSH2 0x317 SWAP2 SWAP1 PUSH2 0x4F8 JUMP JUMPDEST PUSH1 0x0 PUSH1 0x40 MLOAD DUP1 DUP4 SUB DUP2 DUP6 DUP8 GAS CALL SWAP3 POP POP POP RETURNDATASIZE DUP1 PUSH1 0x0 DUP2 EQ PUSH2 0x354 JUMPI PUSH1 0x40 MLOAD SWAP2 POP PUSH1 0x1F NOT PUSH1 0x3F RETURNDATASIZE ADD AND DUP3 ADD PUSH1 0x40 MSTORE RETURNDATASIZE DUP3 MSTORE RETURNDATASIZE PUSH1 0x0 PUSH1 0x20 DUP5 ADD RETURNDATACOPY PUSH2 0x359 JUMP JUMPDEST PUSH1 0x60 SWAP2 POP JUMPDEST POP SWAP2 POP SWAP2 POP PUSH32 0x211793E58F00B3E734D024BA6CD956E5C3371570CE2F36886F32D842CC67E236 DUP3 DUP3 PUSH1 0x40 MLOAD PUSH2 0x38F SWAP3 SWAP2 SWAP1 PUSH2 0x546 JUMP JUMPDEST PUSH1 0x40 MLOAD DUP1 SWAP2 SUB SWAP1 LOG1 POP POP POP POP POP JUMP JUMPDEST PUSH1 0x0 DUP2 CALLDATALOAD SWAP1 POP PUSH2 0x3AD DUP2 PUSH2 0x7F5 JUMP JUMPDEST SWAP3 SWAP2 POP POP JUMP JUMPDEST PUSH1 0x0 DUP2 CALLDATALOAD SWAP1 POP PUSH2 0x3C2 DUP2 PUSH2 0x80C JUMP JUMPDEST SWAP3 SWAP2 POP POP JUMP JUMPDEST PUSH1 0x0 DUP1 PUSH1 0x0 PUSH1 0x60 DUP5 DUP7 SUB SLT ISZERO PUSH2 0x3E1 JUMPI PUSH2 0x3E0 PUSH2 0x767 JUMP JUMPDEST JUMPDEST PUSH1 0x0 PUSH2 0x3EF DUP7 DUP3 DUP8 ADD PUSH2 0x39E JUMP JUMPDEST SWAP4 POP POP PUSH1 0x20 PUSH2 0x400 DUP7 DUP3 DUP8 ADD PUSH2 0x39E JUMP JUMPDEST SWAP3 POP POP PUSH1 0x40 PUSH2 0x411 DUP7 DUP3 DUP8 ADD PUSH2 0x3B3 JUMP JUMPDEST SWAP2 POP POP SWAP3 POP SWAP3 POP SWAP3 JUMP JUMPDEST PUSH2 0x424 DUP2 PUSH2 0x6BD JUMP JUMPDEST DUP3 MSTORE POP POP JUMP JUMPDEST PUSH2 0x433 DUP2 PUSH2 0x6CF JUMP JUMPDEST DUP3 MSTORE POP POP JUMP JUMPDEST PUSH1 0x0 PUSH2 0x444 DUP3 PUSH2 0x5FB JUMP JUMPDEST PUSH2 0x44E DUP2 DUP6 PUSH2 0x606 JUMP JUMPDEST SWAP4 POP PUSH2 0x45E DUP2 DUP6 PUSH1 0x20 DUP7 ADD PUSH2 0x705 JUMP JUMPDEST PUSH2 0x467 DUP2 PUSH2 0x76C JUMP JUMPDEST DUP5 ADD SWAP2 POP POP SWAP3 SWAP2 POP POP JUMP JUMPDEST PUSH1 0x0 PUSH2 0x47D DUP3 PUSH2 0x5FB JUMP JUMPDEST PUSH2 0x487 DUP2 DUP6 PUSH2 0x617 JUMP JUMPDEST SWAP4 POP PUSH2 0x497 DUP2 DUP6 PUSH1 0x20 DUP7 ADD PUSH2 0x705 JUMP JUMPDEST DUP1 DUP5 ADD SWAP2 POP POP SWAP3 SWAP2 POP POP JUMP JUMPDEST PUSH1 0x0 PUSH2 0x4B0 PUSH1 0x26 DUP4 PUSH2 0x622 JUMP JUMPDEST SWAP2 POP PUSH2 0x4BB DUP3 PUSH2 0x77D JUMP JUMPDEST PUSH1 0x40 DUP3 ADD SWAP1 POP SWAP2 SWAP1 POP JUMP JUMPDEST PUSH1 0x0 PUSH2 0x4D3 PUSH1 0xD DUP4 PUSH2 0x622 JUMP JUMPDEST SWAP2 POP PUSH2 0x4DE DUP3 PUSH2 0x7CC JUMP JUMPDEST PUSH1 0x20 DUP3 ADD SWAP1 POP SWAP2 SWAP1 POP JUMP JUMPDEST PUSH2 0x4F2 DUP2 PUSH2 0x6FB JUMP JUMPDEST DUP3 MSTORE POP POP JUMP JUMPDEST PUSH1 0x0 PUSH2 0x504 DUP3 DUP5 PUSH2 0x472 JUMP JUMPDEST SWAP2 POP DUP2 SWAP1 POP SWAP3 SWAP2 POP POP JUMP JUMPDEST PUSH1 0x0 PUSH1 0x60 DUP3 ADD SWAP1 POP PUSH2 0x524 PUSH1 0x0 DUP4 ADD DUP7 PUSH2 0x41B JUMP JUMPDEST PUSH2 0x531 PUSH1 0x20 DUP4 ADD DUP6 PUSH2 0x41B JUMP JUMPDEST PUSH2 0x53E PUSH1 0x40 DUP4 ADD DUP5 PUSH2 0x4E9 JUMP JUMPDEST SWAP5 SWAP4 POP POP POP POP JUMP JUMPDEST PUSH1 0x0 PUSH1 0x40 DUP3 ADD SWAP1 POP PUSH2 0x55B PUSH1 0x0 DUP4 ADD DUP6 PUSH2 0x42A JUMP JUMPDEST DUP2 DUP2 SUB PUSH1 0x20 DUP4 ADD MSTORE PUSH2 0x56D DUP2 DUP5 PUSH2 0x439 JUMP JUMPDEST SWAP1 POP SWAP4 SWAP3 POP POP POP JUMP JUMPDEST PUSH1 0x0 PUSH1 0x80 DUP3 ADD SWAP1 POP DUP2 DUP2 SUB PUSH1 0x0 DUP4 ADD MSTORE PUSH2 0x58F DUP2 PUSH2 0x4A3 JUMP JUMPDEST SWAP1 POP PUSH2 0x59E PUSH1 0x20 DUP4 ADD DUP7 PUSH2 0x41B JUMP JUMPDEST PUSH2 0x5AB PUSH1 0x40 DUP4 ADD DUP6 PUSH2 0x41B JUMP JUMPDEST PUSH2 0x5B8 PUSH1 0x60 DUP4 ADD DUP5 PUSH2 0x4E9 JUMP JUMPDEST SWAP5 SWAP4 POP POP POP POP JUMP JUMPDEST PUSH1 0x0 PUSH1 0x20 DUP3 ADD SWAP1 POP DUP2 DUP2 SUB PUSH1 0x0 DUP4 ADD MSTORE PUSH2 0x5D9 DUP2 PUSH2 0x4C6 JUMP JUMPDEST SWAP1 POP SWAP2 SWAP1 POP JUMP JUMPDEST PUSH1 0x0 PUSH1 0x20 DUP3 ADD SWAP1 POP PUSH2 0x5F5 PUSH1 0x0 DUP4 ADD DUP5 PUSH2 0x4E9 JUMP JUMPDEST SWAP3 SWAP2 POP POP JUMP JUMPDEST PUSH1 0x0 DUP2 MLOAD SWAP1 POP SWAP2 SWAP1 POP JUMP JUMPDEST PUSH1 0x0 DUP3 DUP3 MSTORE PUSH1 0x20 DUP3 ADD SWAP1 POP SWAP3 SWAP2 POP POP JUMP JUMPDEST PUSH1 0x0 DUP2 SWAP1 POP SWAP3 SWAP2 POP POP JUMP JUMPDEST PUSH1 0x0 DUP3 DUP3 MSTORE PUSH1 0x20 DUP3 ADD SWAP1 POP SWAP3 SWAP2 POP POP JUMP JUMPDEST PUSH1 0x0 PUSH2 0x63E DUP3 PUSH2 0x6FB JUMP JUMPDEST SWAP2 POP PUSH2 0x649 DUP4 PUSH2 0x6FB JUMP JUMPDEST SWAP3 POP DUP3 PUSH32 0xFFFFFFFFFFFFFFFFFFFFFFFFFFFFFFFFFFFFFFFFFFFFFFFFFFFFFFFFFFFFFFFF SUB DUP3 GT ISZERO PUSH2 0x67E JUMPI PUSH2 0x67D PUSH2 0x738 JUMP JUMPDEST JUMPDEST DUP3 DUP3 ADD SWAP1 POP SWAP3 SWAP2 POP POP JUMP JUMPDEST PUSH1 0x0 PUSH2 0x694 DUP3 PUSH2 0x6FB JUMP JUMPDEST SWAP2 POP PUSH2 0x69F DUP4 PUSH2 0x6FB JUMP JUMPDEST SWAP3 POP DUP3 DUP3 LT ISZERO PUSH2 0x6B2 JUMPI PUSH2 0x6B1 PUSH2 0x738 JUMP JUMPDEST JUMPDEST DUP3 DUP3 SUB SWAP1 POP SWAP3 SWAP2 POP POP JUMP JUMPDEST PUSH1 0x0 PUSH2 0x6C8 DUP3 PUSH2 0x6DB JUMP JUMPDEST SWAP1 POP SWAP2 SWAP1 POP JUMP JUMPDEST PUSH1 0x0 DUP2 ISZERO ISZERO SWAP1 POP SWAP2 SWAP1 POP JUMP JUMPDEST PUSH1 0x0 PUSH20 0xFFFFFFFFFFFFFFFFFFFFFFFFFFFFFFFFFFFFFFFF DUP3 AND SWAP1 POP SWAP2 SWAP1 POP JUMP JUMPDEST PUSH1 0x0 DUP2 SWAP1 POP SWAP2 SWAP1 POP JUMP JUMPDEST PUSH1 0x0 JUMPDEST DUP4 DUP2 LT ISZERO PUSH2 0x723 JUMPI DUP1 DUP3 ADD MLOAD DUP2 DUP5 ADD MSTORE PUSH1 0x20 DUP2 ADD SWAP1 POP PUSH2 0x708 JUMP JUMPDEST DUP4 DUP2 GT ISZERO PUSH2 0x732 JUMPI PUSH1 0x0 DUP5 DUP5 ADD MSTORE JUMPDEST POP POP POP POP JUMP JUMPDEST PUSH32 0x4E487B7100000000000000000000000000000000000000000000000000000000 PUSH1 0x0 MSTORE PUSH1 0x11 PUSH1 0x4 MSTORE PUSH1 0x24 PUSH1 0x0 REVERT JUMPDEST PUSH1 0x0 DUP1 REVERT JUMPDEST PUSH1 0x0 PUSH1 0x1F NOT PUSH1 0x1F DUP4 ADD AND SWAP1 POP SWAP2 SWAP1 POP JUMP JUMPDEST PUSH32 0x6368616E676542616C616E636528616464726573732C616464726573732C7569 PUSH1 0x0 DUP3 ADD MSTORE PUSH32 0x6E74323536290000000000000000000000000000000000000000000000000000 PUSH1 0x20 DUP3 ADD MSTORE POP JUMP JUMPDEST PUSH32 0x4E6F7420746865204F776E657200000000000000000000000000000000000000 PUSH1 0x0 DUP3 ADD MSTORE POP JUMP JUMPDEST PUSH2 0x7FE DUP2 PUSH2 0x6BD JUMP JUMPDEST DUP2 EQ PUSH2 0x809 JUMPI PUSH1 0x0 DUP1 REVERT JUMPDEST POP JUMP JUMPDEST PUSH2 0x815 DUP2 PUSH2 0x6FB JUMP JUMPDEST DUP2 EQ PUSH2 0x820 JUMPI PUSH1 0x0 DUP1 REVERT JUMPDEST POP JUMP INVALID LOG2 PUSH5 0x6970667358 0x22 SLT KECCAK256 0xCB CODESIZE 0xD0 PUSH23 0xCDBB506B62BB1CE1D8F6F6ACFA0A79FCD6BB855F7BFFD4 0x5E SWAP11 0x5F PUSH31 0x5064736F6C6343000807003300000000000000000000000000000000000000 "
				},
				"gasEstimates": {
					"creation": {
						"codeDepositCost": "427400",
						"executionCost": "24727",
						"totalCost": "452127"
					},
					"external": {
						"changeBalance(address,address,uint256)": "infinite",
						"userBalance()": "2526",
						"withdraw(address,address,uint256)": "infinite"
					}
				},
				"methodIdentifiers": {
					"changeBalance(address,address,uint256)": "16c0aefd",
					"userBalance()": "bf152765",
					"withdraw(address,address,uint256)": "d9caed12"
				}
			},
			"storageLayout": {
				"storage": [
					{
						"astId": 17,
						"contract": "contracts/EthersWallet.sol:EthersWallet",
						"label": "owner",
						"offset": 0,
						"slot": "0",
						"type": "t_address"
					},
					{
						"astId": 21,
						"contract": "contracts/EthersWallet.sol:EthersWallet",
						"label": "balances",
						"offset": 0,
						"slot": "1",
						"type": "t_mapping(t_address,t_uint256)"
					}
				],
				"types": {
					"t_address": {
						"encoding": "inplace",
						"label": "address",
						"numberOfBytes": "20"
					},
					"t_mapping(t_address,t_uint256)": {
						"encoding": "mapping",
						"key": "t_address",
						"label": "mapping(address => uint256)",
						"numberOfBytes": "32",
						"value": "t_uint256"
					},
					"t_uint256": {
						"encoding": "inplace",
						"label": "uint256",
						"numberOfBytes": "32"
					}
				}
			},
			"userdoc": {
				"kind": "user",
				"methods": {},
				"version": 1
			}
		}
	}
}