{
	"contracts/MultiSigWallet.sol": {
		"MultiSigWallet": {
			"abi": [
				{
					"inputs": [
						{
							"internalType": "address[]",
							"name": "_owners",
							"type": "address[]"
						},
						{
							"internalType": "uint256",
							"name": "_required",
							"type": "uint256"
						}
					],
					"stateMutability": "nonpayable",
					"type": "constructor"
				},
				{
					"anonymous": false,
					"inputs": [
						{
							"indexed": false,
							"internalType": "uint256",
							"name": "",
							"type": "uint256"
						},
						{
							"indexed": false,
							"internalType": "address",
							"name": "",
							"type": "address"
						}
					],
					"name": "Approve",
					"type": "event"
				},
				{
					"anonymous": false,
					"inputs": [
						{
							"indexed": false,
							"internalType": "address",
							"name": "",
							"type": "address"
						},
						{
							"indexed": false,
							"internalType": "uint256",
							"name": "",
							"type": "uint256"
						}
					],
					"name": "Deposit",
					"type": "event"
				},
				{
					"anonymous": false,
					"inputs": [
						{
							"indexed": false,
							"internalType": "uint256",
							"name": "",
							"type": "uint256"
						},
						{
							"indexed": false,
							"internalType": "address",
							"name": "",
							"type": "address"
						}
					],
					"name": "Revoke",
					"type": "event"
				},
				{
					"inputs": [
						{
							"internalType": "uint256",
							"name": "_txId",
							"type": "uint256"
						}
					],
					"name": "approveTransaction",
					"outputs": [],
					"stateMutability": "nonpayable",
					"type": "function"
				},
				{
					"inputs": [
						{
							"internalType": "uint256",
							"name": "_txId",
							"type": "uint256"
						}
					],
					"name": "canExec",
					"outputs": [
						{
							"internalType": "uint256",
							"name": "count",
							"type": "uint256"
						}
					],
					"stateMutability": "view",
					"type": "function"
				},
				{
					"inputs": [
						{
							"internalType": "uint256",
							"name": "_txId",
							"type": "uint256"
						}
					],
					"name": "executeTransaction",
					"outputs": [],
					"stateMutability": "nonpayable",
					"type": "function"
				},
				{
					"inputs": [
						{
							"internalType": "address",
							"name": "",
							"type": "address"
						}
					],
					"name": "isOwner",
					"outputs": [
						{
							"internalType": "bool",
							"name": "",
							"type": "bool"
						}
					],
					"stateMutability": "view",
					"type": "function"
				},
				{
					"inputs": [
						{
							"internalType": "address",
							"name": "_to",
							"type": "address"
						},
						{
							"internalType": "uint256",
							"name": "_value",
							"type": "uint256"
						}
					],
					"name": "makeTransaction",
					"outputs": [],
					"stateMutability": "nonpayable",
					"type": "function"
				},
				{
					"inputs": [
						{
							"internalType": "uint256",
							"name": "_txId",
							"type": "uint256"
						}
					],
					"name": "revokeApproval",
					"outputs": [],
					"stateMutability": "nonpayable",
					"type": "function"
				},
				{
					"stateMutability": "payable",
					"type": "receive"
				}
			],
			"devdoc": {
				"kind": "dev",
				"methods": {},
				"version": 1
			},
			"evm": {
				"assembly": "    /* \"contracts/MultiSigWallet.sol\":69:2891  contract MultiSigWallet{... */\n  mstore(0x40, 0x80)\n    /* \"contracts/MultiSigWallet.sol\":522:846  constructor(address[] memory _owners, uint _required) {... */\n  callvalue\n  dup1\n  iszero\n  tag_1\n  jumpi\n  0x00\n  dup1\n  revert\ntag_1:\n  pop\n  mload(0x40)\n  sub(codesize, bytecodeSize)\n  dup1\n  bytecodeSize\n  dup4\n  codecopy\n  dup2\n  dup2\n  add\n  0x40\n  mstore\n  dup2\n  add\n  swap1\n  tag_2\n  swap2\n  swap1\n  tag_3\n  jump\t// in\ntag_2:\n    /* \"contracts/MultiSigWallet.sol\":591:597  uint i */\n  0x00\n    /* \"contracts/MultiSigWallet.sol\":587:808  for(uint i=0; i < _owners.length; i++){... */\ntag_6:\n    /* \"contracts/MultiSigWallet.sol\":605:612  _owners */\n  dup3\n    /* \"contracts/MultiSigWallet.sol\":605:619  _owners.length */\n  mload\n    /* \"contracts/MultiSigWallet.sol\":601:602  i */\n  dup2\n    /* \"contracts/MultiSigWallet.sol\":601:619  i < _owners.length */\n  lt\n    /* \"contracts/MultiSigWallet.sol\":587:808  for(uint i=0; i < _owners.length; i++){... */\n  iszero\n  tag_7\n  jumpi\n    /* \"contracts/MultiSigWallet.sol\":640:653  address owner */\n  0x00\n    /* \"contracts/MultiSigWallet.sol\":656:663  _owners */\n  dup4\n    /* \"contracts/MultiSigWallet.sol\":664:665  i */\n  dup3\n    /* \"contracts/MultiSigWallet.sol\":656:666  _owners[i] */\n  dup2\n  mload\n  dup2\n  lt\n  tag_9\n  jumpi\n  tag_10\n  tag_11\n  jump\t// in\ntag_10:\ntag_9:\n  0x20\n  mul\n  0x20\n  add\n  add\n  mload\n    /* \"contracts/MultiSigWallet.sol\":640:666  address owner = _owners[i] */\n  swap1\n  pop\n    /* \"contracts/MultiSigWallet.sol\":692:699  isOwner */\n  0x01\n    /* \"contracts/MultiSigWallet.sol\":692:706  isOwner[owner] */\n  0x00\n    /* \"contracts/MultiSigWallet.sol\":700:705  owner */\n  dup3\n    /* \"contracts/MultiSigWallet.sol\":692:706  isOwner[owner] */\n  0xffffffffffffffffffffffffffffffffffffffff\n  and\n  0xffffffffffffffffffffffffffffffffffffffff\n  and\n  dup2\n  mstore\n  0x20\n  add\n  swap1\n  dup2\n  mstore\n  0x20\n  add\n  0x00\n  keccak256\n  0x00\n  swap1\n  sload\n  swap1\n  0x0100\n  exp\n  swap1\n  div\n  0xff\n  and\n    /* \"contracts/MultiSigWallet.sol\":691:706  !isOwner[owner] */\n  iszero\n    /* \"contracts/MultiSigWallet.sol\":683:727  require(!isOwner[owner],\"Already Exists...\") */\n  tag_12\n  jumpi\n  mload(0x40)\n  0x08c379a000000000000000000000000000000000000000000000000000000000\n  dup2\n  mstore\n  0x04\n  add\n  tag_13\n  swap1\n  tag_14\n  jump\t// in\ntag_13:\n  mload(0x40)\n  dup1\n  swap2\n  sub\n  swap1\n  revert\ntag_12:\n    /* \"contracts/MultiSigWallet.sol\":742:748  owners */\n  0x00\n    /* \"contracts/MultiSigWallet.sol\":754:759  owner */\n  dup2\n    /* \"contracts/MultiSigWallet.sol\":742:760  owners.push(owner) */\n  swap1\n  dup1\n  0x01\n  dup2\n  sload\n  add\n  dup1\n  dup3\n  sstore\n  dup1\n  swap2\n  pop\n  pop\n  0x01\n  swap1\n  sub\n  swap1\n  0x00\n  mstore\n  keccak256(0x00, 0x20)\n  add\n  0x00\n  swap1\n  swap2\n  swap1\n  swap2\n  swap1\n  swap2\n  0x0100\n  exp\n  dup2\n  sload\n  dup2\n  0xffffffffffffffffffffffffffffffffffffffff\n  mul\n  not\n  and\n  swap1\n  dup4\n  0xffffffffffffffffffffffffffffffffffffffff\n  and\n  mul\n  or\n  swap1\n  sstore\n  pop\n    /* \"contracts/MultiSigWallet.sol\":792:796  true */\n  0x01\n    /* \"contracts/MultiSigWallet.sol\":775:782  isOwner */\n  dup1\n    /* \"contracts/MultiSigWallet.sol\":775:789  isOwner[owner] */\n  0x00\n    /* \"contracts/MultiSigWallet.sol\":783:788  owner */\n  dup4\n    /* \"contracts/MultiSigWallet.sol\":775:789  isOwner[owner] */\n  0xffffffffffffffffffffffffffffffffffffffff\n  and\n  0xffffffffffffffffffffffffffffffffffffffff\n  and\n  dup2\n  mstore\n  0x20\n  add\n  swap1\n  dup2\n  mstore\n  0x20\n  add\n  0x00\n  keccak256\n  0x00\n    /* \"contracts/MultiSigWallet.sol\":775:796  isOwner[owner] = true */\n  0x0100\n  exp\n  dup2\n  sload\n  dup2\n  0xff\n  mul\n  not\n  and\n  swap1\n  dup4\n  iszero\n  iszero\n  mul\n  or\n  swap1\n  sstore\n  pop\n    /* \"contracts/MultiSigWallet.sol\":625:808  {... */\n  pop\n    /* \"contracts/MultiSigWallet.sol\":621:624  i++ */\n  dup1\n  dup1\n  tag_16\n  swap1\n  tag_17\n  jump\t// in\ntag_16:\n  swap2\n  pop\n  pop\n    /* \"contracts/MultiSigWallet.sol\":587:808  for(uint i=0; i < _owners.length; i++){... */\n  jump(tag_6)\ntag_7:\n  pop\n    /* \"contracts/MultiSigWallet.sol\":829:838  _required */\n  dup1\n    /* \"contracts/MultiSigWallet.sol\":818:826  required */\n  0x02\n    /* \"contracts/MultiSigWallet.sol\":818:838  required = _required */\n  dup2\n  swap1\n  sstore\n  pop\n    /* \"contracts/MultiSigWallet.sol\":522:846  constructor(address[] memory _owners, uint _required) {... */\n  pop\n  pop\n    /* \"contracts/MultiSigWallet.sol\":69:2891  contract MultiSigWallet{... */\n  jump(tag_18)\n    /* \"#utility.yul\":7:82   */\ntag_19:\n    /* \"#utility.yul\":40:46   */\n  0x00\n    /* \"#utility.yul\":73:75   */\n  0x40\n    /* \"#utility.yul\":67:76   */\n  mload\n    /* \"#utility.yul\":57:76   */\n  swap1\n  pop\n    /* \"#utility.yul\":7:82   */\n  swap1\n  jump\t// out\n    /* \"#utility.yul\":88:205   */\ntag_20:\n    /* \"#utility.yul\":197:198   */\n  0x00\n    /* \"#utility.yul\":194:195   */\n  dup1\n    /* \"#utility.yul\":187:199   */\n  revert\n    /* \"#utility.yul\":211:328   */\ntag_21:\n    /* \"#utility.yul\":320:321   */\n  0x00\n    /* \"#utility.yul\":317:318   */\n  dup1\n    /* \"#utility.yul\":310:322   */\n  revert\n    /* \"#utility.yul\":334:451   */\ntag_22:\n    /* \"#utility.yul\":443:444   */\n  0x00\n    /* \"#utility.yul\":440:441   */\n  dup1\n    /* \"#utility.yul\":433:445   */\n  revert\n    /* \"#utility.yul\":457:559   */\ntag_23:\n    /* \"#utility.yul\":498:504   */\n  0x00\n    /* \"#utility.yul\":549:551   */\n  0x1f\n    /* \"#utility.yul\":545:552   */\n  not\n    /* \"#utility.yul\":540:542   */\n  0x1f\n    /* \"#utility.yul\":533:538   */\n  dup4\n    /* \"#utility.yul\":529:543   */\n  add\n    /* \"#utility.yul\":525:553   */\n  and\n    /* \"#utility.yul\":515:553   */\n  swap1\n  pop\n    /* \"#utility.yul\":457:559   */\n  swap2\n  swap1\n  pop\n  jump\t// out\n    /* \"#utility.yul\":565:745   */\ntag_24:\n    /* \"#utility.yul\":613:690   */\n  0x4e487b7100000000000000000000000000000000000000000000000000000000\n    /* \"#utility.yul\":610:611   */\n  0x00\n    /* \"#utility.yul\":603:691   */\n  mstore\n    /* \"#utility.yul\":710:714   */\n  0x41\n    /* \"#utility.yul\":707:708   */\n  0x04\n    /* \"#utility.yul\":700:715   */\n  mstore\n    /* \"#utility.yul\":734:738   */\n  0x24\n    /* \"#utility.yul\":731:732   */\n  0x00\n    /* \"#utility.yul\":724:739   */\n  revert\n    /* \"#utility.yul\":751:1032   */\ntag_25:\n    /* \"#utility.yul\":834:861   */\n  tag_50\n    /* \"#utility.yul\":856:860   */\n  dup3\n    /* \"#utility.yul\":834:861   */\n  tag_23\n  jump\t// in\ntag_50:\n    /* \"#utility.yul\":826:832   */\n  dup2\n    /* \"#utility.yul\":822:862   */\n  add\n    /* \"#utility.yul\":964:970   */\n  dup2\n    /* \"#utility.yul\":952:962   */\n  dup2\n    /* \"#utility.yul\":949:971   */\n  lt\n    /* \"#utility.yul\":928:946   */\n  0xffffffffffffffff\n    /* \"#utility.yul\":916:926   */\n  dup3\n    /* \"#utility.yul\":913:947   */\n  gt\n    /* \"#utility.yul\":910:972   */\n  or\n    /* \"#utility.yul\":907:995   */\n  iszero\n  tag_51\n  jumpi\n    /* \"#utility.yul\":975:993   */\n  tag_52\n  tag_24\n  jump\t// in\ntag_52:\n    /* \"#utility.yul\":907:995   */\ntag_51:\n    /* \"#utility.yul\":1015:1025   */\n  dup1\n    /* \"#utility.yul\":1011:1013   */\n  0x40\n    /* \"#utility.yul\":1004:1026   */\n  mstore\n    /* \"#utility.yul\":794:1032   */\n  pop\n    /* \"#utility.yul\":751:1032   */\n  pop\n  pop\n  jump\t// out\n    /* \"#utility.yul\":1038:1167   */\ntag_26:\n    /* \"#utility.yul\":1072:1078   */\n  0x00\n    /* \"#utility.yul\":1099:1119   */\n  tag_54\n  tag_19\n  jump\t// in\ntag_54:\n    /* \"#utility.yul\":1089:1119   */\n  swap1\n  pop\n    /* \"#utility.yul\":1128:1161   */\n  tag_55\n    /* \"#utility.yul\":1156:1160   */\n  dup3\n    /* \"#utility.yul\":1148:1154   */\n  dup3\n    /* \"#utility.yul\":1128:1161   */\n  tag_25\n  jump\t// in\ntag_55:\n    /* \"#utility.yul\":1038:1167   */\n  swap2\n  swap1\n  pop\n  jump\t// out\n    /* \"#utility.yul\":1173:1484   */\ntag_27:\n    /* \"#utility.yul\":1250:1254   */\n  0x00\n    /* \"#utility.yul\":1340:1358   */\n  0xffffffffffffffff\n    /* \"#utility.yul\":1332:1338   */\n  dup3\n    /* \"#utility.yul\":1329:1359   */\n  gt\n    /* \"#utility.yul\":1326:1382   */\n  iszero\n  tag_57\n  jumpi\n    /* \"#utility.yul\":1362:1380   */\n  tag_58\n  tag_24\n  jump\t// in\ntag_58:\n    /* \"#utility.yul\":1326:1382   */\ntag_57:\n    /* \"#utility.yul\":1412:1416   */\n  0x20\n    /* \"#utility.yul\":1404:1410   */\n  dup3\n    /* \"#utility.yul\":1400:1417   */\n  mul\n    /* \"#utility.yul\":1392:1417   */\n  swap1\n  pop\n    /* \"#utility.yul\":1472:1476   */\n  0x20\n    /* \"#utility.yul\":1466:1470   */\n  dup2\n    /* \"#utility.yul\":1462:1477   */\n  add\n    /* \"#utility.yul\":1454:1477   */\n  swap1\n  pop\n    /* \"#utility.yul\":1173:1484   */\n  swap2\n  swap1\n  pop\n  jump\t// out\n    /* \"#utility.yul\":1490:1607   */\ntag_28:\n    /* \"#utility.yul\":1599:1600   */\n  0x00\n    /* \"#utility.yul\":1596:1597   */\n  dup1\n    /* \"#utility.yul\":1589:1601   */\n  revert\n    /* \"#utility.yul\":1613:1739   */\ntag_29:\n    /* \"#utility.yul\":1650:1657   */\n  0x00\n    /* \"#utility.yul\":1690:1732   */\n  0xffffffffffffffffffffffffffffffffffffffff\n    /* \"#utility.yul\":1683:1688   */\n  dup3\n    /* \"#utility.yul\":1679:1733   */\n  and\n    /* \"#utility.yul\":1668:1733   */\n  swap1\n  pop\n    /* \"#utility.yul\":1613:1739   */\n  swap2\n  swap1\n  pop\n  jump\t// out\n    /* \"#utility.yul\":1745:1841   */\ntag_30:\n    /* \"#utility.yul\":1782:1789   */\n  0x00\n    /* \"#utility.yul\":1811:1835   */\n  tag_62\n    /* \"#utility.yul\":1829:1834   */\n  dup3\n    /* \"#utility.yul\":1811:1835   */\n  tag_29\n  jump\t// in\ntag_62:\n    /* \"#utility.yul\":1800:1835   */\n  swap1\n  pop\n    /* \"#utility.yul\":1745:1841   */\n  swap2\n  swap1\n  pop\n  jump\t// out\n    /* \"#utility.yul\":1847:1969   */\ntag_31:\n    /* \"#utility.yul\":1920:1944   */\n  tag_64\n    /* \"#utility.yul\":1938:1943   */\n  dup2\n    /* \"#utility.yul\":1920:1944   */\n  tag_30\n  jump\t// in\ntag_64:\n    /* \"#utility.yul\":1913:1918   */\n  dup2\n    /* \"#utility.yul\":1910:1945   */\n  eq\n    /* \"#utility.yul\":1900:1963   */\n  tag_65\n  jumpi\n    /* \"#utility.yul\":1959:1960   */\n  0x00\n    /* \"#utility.yul\":1956:1957   */\n  dup1\n    /* \"#utility.yul\":1949:1961   */\n  revert\n    /* \"#utility.yul\":1900:1963   */\ntag_65:\n    /* \"#utility.yul\":1847:1969   */\n  pop\n  jump\t// out\n    /* \"#utility.yul\":1975:2118   */\ntag_32:\n    /* \"#utility.yul\":2032:2037   */\n  0x00\n    /* \"#utility.yul\":2063:2069   */\n  dup2\n    /* \"#utility.yul\":2057:2070   */\n  mload\n    /* \"#utility.yul\":2048:2070   */\n  swap1\n  pop\n    /* \"#utility.yul\":2079:2112   */\n  tag_67\n    /* \"#utility.yul\":2106:2111   */\n  dup2\n    /* \"#utility.yul\":2079:2112   */\n  tag_31\n  jump\t// in\ntag_67:\n    /* \"#utility.yul\":1975:2118   */\n  swap3\n  swap2\n  pop\n  pop\n  jump\t// out\n    /* \"#utility.yul\":2141:2873   */\ntag_33:\n    /* \"#utility.yul\":2248:2253   */\n  0x00\n    /* \"#utility.yul\":2273:2354   */\n  tag_69\n    /* \"#utility.yul\":2289:2353   */\n  tag_70\n    /* \"#utility.yul\":2346:2352   */\n  dup5\n    /* \"#utility.yul\":2289:2353   */\n  tag_27\n  jump\t// in\ntag_70:\n    /* \"#utility.yul\":2273:2354   */\n  tag_26\n  jump\t// in\ntag_69:\n    /* \"#utility.yul\":2264:2354   */\n  swap1\n  pop\n    /* \"#utility.yul\":2374:2379   */\n  dup1\n    /* \"#utility.yul\":2403:2409   */\n  dup4\n    /* \"#utility.yul\":2396:2401   */\n  dup3\n    /* \"#utility.yul\":2389:2410   */\n  mstore\n    /* \"#utility.yul\":2437:2441   */\n  0x20\n    /* \"#utility.yul\":2430:2435   */\n  dup3\n    /* \"#utility.yul\":2426:2442   */\n  add\n    /* \"#utility.yul\":2419:2442   */\n  swap1\n  pop\n    /* \"#utility.yul\":2490:2494   */\n  0x20\n    /* \"#utility.yul\":2482:2488   */\n  dup5\n    /* \"#utility.yul\":2478:2495   */\n  mul\n    /* \"#utility.yul\":2470:2476   */\n  dup4\n    /* \"#utility.yul\":2466:2496   */\n  add\n    /* \"#utility.yul\":2519:2522   */\n  dup6\n    /* \"#utility.yul\":2511:2517   */\n  dup2\n    /* \"#utility.yul\":2508:2523   */\n  gt\n    /* \"#utility.yul\":2505:2627   */\n  iszero\n  tag_71\n  jumpi\n    /* \"#utility.yul\":2538:2617   */\n  tag_72\n  tag_28\n  jump\t// in\ntag_72:\n    /* \"#utility.yul\":2505:2627   */\ntag_71:\n    /* \"#utility.yul\":2653:2659   */\n  dup4\n    /* \"#utility.yul\":2636:2867   */\ntag_73:\n    /* \"#utility.yul\":2670:2676   */\n  dup2\n    /* \"#utility.yul\":2665:2668   */\n  dup2\n    /* \"#utility.yul\":2662:2677   */\n  lt\n    /* \"#utility.yul\":2636:2867   */\n  iszero\n  tag_75\n  jumpi\n    /* \"#utility.yul\":2745:2748   */\n  dup1\n    /* \"#utility.yul\":2774:2822   */\n  tag_76\n    /* \"#utility.yul\":2818:2821   */\n  dup9\n    /* \"#utility.yul\":2806:2816   */\n  dup3\n    /* \"#utility.yul\":2774:2822   */\n  tag_32\n  jump\t// in\ntag_76:\n    /* \"#utility.yul\":2769:2772   */\n  dup5\n    /* \"#utility.yul\":2762:2823   */\n  mstore\n    /* \"#utility.yul\":2852:2856   */\n  0x20\n    /* \"#utility.yul\":2847:2850   */\n  dup5\n    /* \"#utility.yul\":2843:2857   */\n  add\n    /* \"#utility.yul\":2836:2857   */\n  swap4\n  pop\n    /* \"#utility.yul\":2712:2867   */\n  pop\n    /* \"#utility.yul\":2696:2700   */\n  0x20\n    /* \"#utility.yul\":2691:2694   */\n  dup2\n    /* \"#utility.yul\":2687:2701   */\n  add\n    /* \"#utility.yul\":2680:2701   */\n  swap1\n  pop\n    /* \"#utility.yul\":2636:2867   */\n  jump(tag_73)\ntag_75:\n    /* \"#utility.yul\":2640:2661   */\n  pop\n    /* \"#utility.yul\":2254:2873   */\n  pop\n  pop\n    /* \"#utility.yul\":2141:2873   */\n  swap4\n  swap3\n  pop\n  pop\n  pop\n  jump\t// out\n    /* \"#utility.yul\":2896:3281   */\ntag_34:\n    /* \"#utility.yul\":2978:2983   */\n  0x00\n    /* \"#utility.yul\":3027:3030   */\n  dup3\n    /* \"#utility.yul\":3020:3024   */\n  0x1f\n    /* \"#utility.yul\":3012:3018   */\n  dup4\n    /* \"#utility.yul\":3008:3025   */\n  add\n    /* \"#utility.yul\":3004:3031   */\n  slt\n    /* \"#utility.yul\":2994:3116   */\n  tag_78\n  jumpi\n    /* \"#utility.yul\":3035:3114   */\n  tag_79\n  tag_22\n  jump\t// in\ntag_79:\n    /* \"#utility.yul\":2994:3116   */\ntag_78:\n    /* \"#utility.yul\":3145:3151   */\n  dup2\n    /* \"#utility.yul\":3139:3152   */\n  mload\n    /* \"#utility.yul\":3170:3275   */\n  tag_80\n    /* \"#utility.yul\":3271:3274   */\n  dup5\n    /* \"#utility.yul\":3263:3269   */\n  dup3\n    /* \"#utility.yul\":3256:3260   */\n  0x20\n    /* \"#utility.yul\":3248:3254   */\n  dup7\n    /* \"#utility.yul\":3244:3261   */\n  add\n    /* \"#utility.yul\":3170:3275   */\n  tag_33\n  jump\t// in\ntag_80:\n    /* \"#utility.yul\":3161:3275   */\n  swap2\n  pop\n    /* \"#utility.yul\":2984:3281   */\n  pop\n    /* \"#utility.yul\":2896:3281   */\n  swap3\n  swap2\n  pop\n  pop\n  jump\t// out\n    /* \"#utility.yul\":3287:3364   */\ntag_35:\n    /* \"#utility.yul\":3324:3331   */\n  0x00\n    /* \"#utility.yul\":3353:3358   */\n  dup2\n    /* \"#utility.yul\":3342:3358   */\n  swap1\n  pop\n    /* \"#utility.yul\":3287:3364   */\n  swap2\n  swap1\n  pop\n  jump\t// out\n    /* \"#utility.yul\":3370:3492   */\ntag_36:\n    /* \"#utility.yul\":3443:3467   */\n  tag_83\n    /* \"#utility.yul\":3461:3466   */\n  dup2\n    /* \"#utility.yul\":3443:3467   */\n  tag_35\n  jump\t// in\ntag_83:\n    /* \"#utility.yul\":3436:3441   */\n  dup2\n    /* \"#utility.yul\":3433:3468   */\n  eq\n    /* \"#utility.yul\":3423:3486   */\n  tag_84\n  jumpi\n    /* \"#utility.yul\":3482:3483   */\n  0x00\n    /* \"#utility.yul\":3479:3480   */\n  dup1\n    /* \"#utility.yul\":3472:3484   */\n  revert\n    /* \"#utility.yul\":3423:3486   */\ntag_84:\n    /* \"#utility.yul\":3370:3492   */\n  pop\n  jump\t// out\n    /* \"#utility.yul\":3498:3641   */\ntag_37:\n    /* \"#utility.yul\":3555:3560   */\n  0x00\n    /* \"#utility.yul\":3586:3592   */\n  dup2\n    /* \"#utility.yul\":3580:3593   */\n  mload\n    /* \"#utility.yul\":3571:3593   */\n  swap1\n  pop\n    /* \"#utility.yul\":3602:3635   */\n  tag_86\n    /* \"#utility.yul\":3629:3634   */\n  dup2\n    /* \"#utility.yul\":3602:3635   */\n  tag_36\n  jump\t// in\ntag_86:\n    /* \"#utility.yul\":3498:3641   */\n  swap3\n  swap2\n  pop\n  pop\n  jump\t// out\n    /* \"#utility.yul\":3647:4357   */\ntag_3:\n    /* \"#utility.yul\":3751:3757   */\n  0x00\n    /* \"#utility.yul\":3759:3765   */\n  dup1\n    /* \"#utility.yul\":3808:3810   */\n  0x40\n    /* \"#utility.yul\":3796:3805   */\n  dup4\n    /* \"#utility.yul\":3787:3794   */\n  dup6\n    /* \"#utility.yul\":3783:3806   */\n  sub\n    /* \"#utility.yul\":3779:3811   */\n  slt\n    /* \"#utility.yul\":3776:3895   */\n  iszero\n  tag_88\n  jumpi\n    /* \"#utility.yul\":3814:3893   */\n  tag_89\n  tag_20\n  jump\t// in\ntag_89:\n    /* \"#utility.yul\":3776:3895   */\ntag_88:\n    /* \"#utility.yul\":3955:3956   */\n  0x00\n    /* \"#utility.yul\":3944:3953   */\n  dup4\n    /* \"#utility.yul\":3940:3957   */\n  add\n    /* \"#utility.yul\":3934:3958   */\n  mload\n    /* \"#utility.yul\":3985:4003   */\n  0xffffffffffffffff\n    /* \"#utility.yul\":3977:3983   */\n  dup2\n    /* \"#utility.yul\":3974:4004   */\n  gt\n    /* \"#utility.yul\":3971:4088   */\n  iszero\n  tag_90\n  jumpi\n    /* \"#utility.yul\":4007:4086   */\n  tag_91\n  tag_21\n  jump\t// in\ntag_91:\n    /* \"#utility.yul\":3971:4088   */\ntag_90:\n    /* \"#utility.yul\":4112:4201   */\n  tag_92\n    /* \"#utility.yul\":4193:4200   */\n  dup6\n    /* \"#utility.yul\":4184:4190   */\n  dup3\n    /* \"#utility.yul\":4173:4182   */\n  dup7\n    /* \"#utility.yul\":4169:4191   */\n  add\n    /* \"#utility.yul\":4112:4201   */\n  tag_34\n  jump\t// in\ntag_92:\n    /* \"#utility.yul\":4102:4201   */\n  swap3\n  pop\n    /* \"#utility.yul\":3905:4211   */\n  pop\n    /* \"#utility.yul\":4250:4252   */\n  0x20\n    /* \"#utility.yul\":4276:4340   */\n  tag_93\n    /* \"#utility.yul\":4332:4339   */\n  dup6\n    /* \"#utility.yul\":4323:4329   */\n  dup3\n    /* \"#utility.yul\":4312:4321   */\n  dup7\n    /* \"#utility.yul\":4308:4330   */\n  add\n    /* \"#utility.yul\":4276:4340   */\n  tag_37\n  jump\t// in\ntag_93:\n    /* \"#utility.yul\":4266:4340   */\n  swap2\n  pop\n    /* \"#utility.yul\":4221:4350   */\n  pop\n    /* \"#utility.yul\":3647:4357   */\n  swap3\n  pop\n  swap3\n  swap1\n  pop\n  jump\t// out\n    /* \"#utility.yul\":4363:4543   */\ntag_11:\n    /* \"#utility.yul\":4411:4488   */\n  0x4e487b7100000000000000000000000000000000000000000000000000000000\n    /* \"#utility.yul\":4408:4409   */\n  0x00\n    /* \"#utility.yul\":4401:4489   */\n  mstore\n    /* \"#utility.yul\":4508:4512   */\n  0x32\n    /* \"#utility.yul\":4505:4506   */\n  0x04\n    /* \"#utility.yul\":4498:4513   */\n  mstore\n    /* \"#utility.yul\":4532:4536   */\n  0x24\n    /* \"#utility.yul\":4529:4530   */\n  0x00\n    /* \"#utility.yul\":4522:4537   */\n  revert\n    /* \"#utility.yul\":4549:4718   */\ntag_38:\n    /* \"#utility.yul\":4633:4644   */\n  0x00\n    /* \"#utility.yul\":4667:4673   */\n  dup3\n    /* \"#utility.yul\":4662:4665   */\n  dup3\n    /* \"#utility.yul\":4655:4674   */\n  mstore\n    /* \"#utility.yul\":4707:4711   */\n  0x20\n    /* \"#utility.yul\":4702:4705   */\n  dup3\n    /* \"#utility.yul\":4698:4712   */\n  add\n    /* \"#utility.yul\":4683:4712   */\n  swap1\n  pop\n    /* \"#utility.yul\":4549:4718   */\n  swap3\n  swap2\n  pop\n  pop\n  jump\t// out\n    /* \"#utility.yul\":4724:4891   */\ntag_39:\n    /* \"#utility.yul\":4864:4883   */\n  0x416c7265616479204578697374732e2e2e000000000000000000000000000000\n    /* \"#utility.yul\":4860:4861   */\n  0x00\n    /* \"#utility.yul\":4852:4858   */\n  dup3\n    /* \"#utility.yul\":4848:4862   */\n  add\n    /* \"#utility.yul\":4841:4884   */\n  mstore\n    /* \"#utility.yul\":4724:4891   */\n  pop\n  jump\t// out\n    /* \"#utility.yul\":4897:5263   */\ntag_40:\n    /* \"#utility.yul\":5039:5042   */\n  0x00\n    /* \"#utility.yul\":5060:5127   */\n  tag_98\n    /* \"#utility.yul\":5124:5126   */\n  0x11\n    /* \"#utility.yul\":5119:5122   */\n  dup4\n    /* \"#utility.yul\":5060:5127   */\n  tag_38\n  jump\t// in\ntag_98:\n    /* \"#utility.yul\":5053:5127   */\n  swap2\n  pop\n    /* \"#utility.yul\":5136:5229   */\n  tag_99\n    /* \"#utility.yul\":5225:5228   */\n  dup3\n    /* \"#utility.yul\":5136:5229   */\n  tag_39\n  jump\t// in\ntag_99:\n    /* \"#utility.yul\":5254:5256   */\n  0x20\n    /* \"#utility.yul\":5249:5252   */\n  dup3\n    /* \"#utility.yul\":5245:5257   */\n  add\n    /* \"#utility.yul\":5238:5257   */\n  swap1\n  pop\n    /* \"#utility.yul\":4897:5263   */\n  swap2\n  swap1\n  pop\n  jump\t// out\n    /* \"#utility.yul\":5269:5688   */\ntag_14:\n    /* \"#utility.yul\":5435:5439   */\n  0x00\n    /* \"#utility.yul\":5473:5475   */\n  0x20\n    /* \"#utility.yul\":5462:5471   */\n  dup3\n    /* \"#utility.yul\":5458:5476   */\n  add\n    /* \"#utility.yul\":5450:5476   */\n  swap1\n  pop\n    /* \"#utility.yul\":5522:5531   */\n  dup2\n    /* \"#utility.yul\":5516:5520   */\n  dup2\n    /* \"#utility.yul\":5512:5532   */\n  sub\n    /* \"#utility.yul\":5508:5509   */\n  0x00\n    /* \"#utility.yul\":5497:5506   */\n  dup4\n    /* \"#utility.yul\":5493:5510   */\n  add\n    /* \"#utility.yul\":5486:5533   */\n  mstore\n    /* \"#utility.yul\":5550:5681   */\n  tag_101\n    /* \"#utility.yul\":5676:5680   */\n  dup2\n    /* \"#utility.yul\":5550:5681   */\n  tag_40\n  jump\t// in\ntag_101:\n    /* \"#utility.yul\":5542:5681   */\n  swap1\n  pop\n    /* \"#utility.yul\":5269:5688   */\n  swap2\n  swap1\n  pop\n  jump\t// out\n    /* \"#utility.yul\":5694:5874   */\ntag_41:\n    /* \"#utility.yul\":5742:5819   */\n  0x4e487b7100000000000000000000000000000000000000000000000000000000\n    /* \"#utility.yul\":5739:5740   */\n  0x00\n    /* \"#utility.yul\":5732:5820   */\n  mstore\n    /* \"#utility.yul\":5839:5843   */\n  0x11\n    /* \"#utility.yul\":5836:5837   */\n  0x04\n    /* \"#utility.yul\":5829:5844   */\n  mstore\n    /* \"#utility.yul\":5863:5867   */\n  0x24\n    /* \"#utility.yul\":5860:5861   */\n  0x00\n    /* \"#utility.yul\":5853:5868   */\n  revert\n    /* \"#utility.yul\":5880:6113   */\ntag_17:\n    /* \"#utility.yul\":5919:5922   */\n  0x00\n    /* \"#utility.yul\":5942:5966   */\n  tag_104\n    /* \"#utility.yul\":5960:5965   */\n  dup3\n    /* \"#utility.yul\":5942:5966   */\n  tag_35\n  jump\t// in\ntag_104:\n    /* \"#utility.yul\":5933:5966   */\n  swap2\n  pop\n    /* \"#utility.yul\":5988:6054   */\n  0xffffffffffffffffffffffffffffffffffffffffffffffffffffffffffffffff\n    /* \"#utility.yul\":5981:5986   */\n  dup3\n    /* \"#utility.yul\":5978:6055   */\n  sub\n    /* \"#utility.yul\":5975:6078   */\n  tag_105\n  jumpi\n    /* \"#utility.yul\":6058:6076   */\n  tag_106\n  tag_41\n  jump\t// in\ntag_106:\n    /* \"#utility.yul\":5975:6078   */\ntag_105:\n    /* \"#utility.yul\":6105:6106   */\n  0x01\n    /* \"#utility.yul\":6098:6103   */\n  dup3\n    /* \"#utility.yul\":6094:6107   */\n  add\n    /* \"#utility.yul\":6087:6107   */\n  swap1\n  pop\n    /* \"#utility.yul\":5880:6113   */\n  swap2\n  swap1\n  pop\n  jump\t// out\n    /* \"contracts/MultiSigWallet.sol\":69:2891  contract MultiSigWallet{... */\ntag_18:\n  dataSize(sub_0)\n  dup1\n  dataOffset(sub_0)\n  0x00\n  codecopy\n  0x00\n  return\nstop\n\nsub_0: assembly {\n        /* \"contracts/MultiSigWallet.sol\":69:2891  contract MultiSigWallet{... */\n      mstore(0x40, 0x80)\n      jumpi(tag_1, lt(calldatasize, 0x04))\n      shr(0xe0, calldataload(0x00))\n      dup1\n      0x242232d1\n      eq\n      tag_3\n      jumpi\n      dup1\n      0x2f54bf6e\n      eq\n      tag_4\n      jumpi\n      dup1\n      0xb1e130fc\n      eq\n      tag_5\n      jumpi\n      dup1\n      0xbf97afe0\n      eq\n      tag_6\n      jumpi\n      dup1\n      0xe6beded8\n      eq\n      tag_7\n      jumpi\n      dup1\n      0xee22610b\n      eq\n      tag_8\n      jumpi\n      jump(tag_2)\n    tag_1:\n      jumpi(tag_2, calldatasize)\n        /* \"contracts/MultiSigWallet.sol\":1843:1873  Deposit(msg.sender ,msg.value) */\n      0xe1fffcc4923d04b559f4d29a8bfc6cda04eb5b0d3c460751c2402c5c5cc9109c\n        /* \"contracts/MultiSigWallet.sol\":1851:1861  msg.sender */\n      caller\n        /* \"contracts/MultiSigWallet.sol\":1863:1872  msg.value */\n      callvalue\n        /* \"contracts/MultiSigWallet.sol\":1843:1873  Deposit(msg.sender ,msg.value) */\n      mload(0x40)\n      tag_11\n      swap3\n      swap2\n      swap1\n      tag_12\n      jump\t// in\n    tag_11:\n      mload(0x40)\n      dup1\n      swap2\n      sub\n      swap1\n      log1\n        /* \"contracts/MultiSigWallet.sol\":69:2891  contract MultiSigWallet{... */\n      stop\n    tag_2:\n      0x00\n      dup1\n      revert\n        /* \"contracts/MultiSigWallet.sol\":2035:2246  function approveTransaction(uint _txId) external notApproved(_txId) existTrans(_txId) onlyOwner isNotExec(_txId){... */\n    tag_3:\n      callvalue\n      dup1\n      iszero\n      tag_13\n      jumpi\n      0x00\n      dup1\n      revert\n    tag_13:\n      pop\n      tag_14\n      0x04\n      dup1\n      calldatasize\n      sub\n      dup2\n      add\n      swap1\n      tag_15\n      swap2\n      swap1\n      tag_16\n      jump\t// in\n    tag_15:\n      tag_17\n      jump\t// in\n    tag_14:\n      stop\n        /* \"contracts/MultiSigWallet.sol\":238:277  mapping(address => bool) public isOwner */\n    tag_4:\n      callvalue\n      dup1\n      iszero\n      tag_18\n      jumpi\n      0x00\n      dup1\n      revert\n    tag_18:\n      pop\n      tag_19\n      0x04\n      dup1\n      calldatasize\n      sub\n      dup2\n      add\n      swap1\n      tag_20\n      swap2\n      swap1\n      tag_21\n      jump\t// in\n    tag_20:\n      tag_22\n      jump\t// in\n    tag_19:\n      mload(0x40)\n      tag_23\n      swap2\n      swap1\n      tag_24\n      jump\t// in\n    tag_23:\n      mload(0x40)\n      dup1\n      swap2\n      sub\n      swap1\n      return\n        /* \"contracts/MultiSigWallet.sol\":2254:2458  function revokeApproval(uint _txId) external isApproved(_txId) existTrans(_txId) onlyOwner isNotExec(_txId){... */\n    tag_5:\n      callvalue\n      dup1\n      iszero\n      tag_25\n      jumpi\n      0x00\n      dup1\n      revert\n    tag_25:\n      pop\n      tag_26\n      0x04\n      dup1\n      calldatasize\n      sub\n      dup2\n      add\n      swap1\n      tag_27\n      swap2\n      swap1\n      tag_16\n      jump\t// in\n    tag_27:\n      tag_28\n      jump\t// in\n    tag_26:\n      stop\n        /* \"contracts/MultiSigWallet.sol\":1578:1793  function canExec(uint _txId) public view returns(uint count){... */\n    tag_6:\n      callvalue\n      dup1\n      iszero\n      tag_29\n      jumpi\n      0x00\n      dup1\n      revert\n    tag_29:\n      pop\n      tag_30\n      0x04\n      dup1\n      calldatasize\n      sub\n      dup2\n      add\n      swap1\n      tag_31\n      swap2\n      swap1\n      tag_16\n      jump\t// in\n    tag_31:\n      tag_32\n      jump\t// in\n    tag_30:\n      mload(0x40)\n      tag_33\n      swap2\n      swap1\n      tag_34\n      jump\t// in\n    tag_33:\n      mload(0x40)\n      dup1\n      swap2\n      sub\n      swap1\n      return\n        /* \"contracts/MultiSigWallet.sol\":1889:2027  function makeTransaction(address _to, uint _value) external onlyOwner{... */\n    tag_7:\n      callvalue\n      dup1\n      iszero\n      tag_35\n      jumpi\n      0x00\n      dup1\n      revert\n    tag_35:\n      pop\n      tag_36\n      0x04\n      dup1\n      calldatasize\n      sub\n      dup2\n      add\n      swap1\n      tag_37\n      swap2\n      swap1\n      tag_38\n      jump\t// in\n    tag_37:\n      tag_39\n      jump\t// in\n    tag_36:\n      stop\n        /* \"contracts/MultiSigWallet.sol\":2466:2888  function executeTransaction(uint _txId) external existTrans(_txId) onlyOwner isNotExec(_txId) {... */\n    tag_8:\n      callvalue\n      dup1\n      iszero\n      tag_40\n      jumpi\n      0x00\n      dup1\n      revert\n    tag_40:\n      pop\n      tag_41\n      0x04\n      dup1\n      calldatasize\n      sub\n      dup2\n      add\n      swap1\n      tag_42\n      swap2\n      swap1\n      tag_16\n      jump\t// in\n    tag_42:\n      tag_43\n      jump\t// in\n    tag_41:\n      stop\n        /* \"contracts/MultiSigWallet.sol\":2035:2246  function approveTransaction(uint _txId) external notApproved(_txId) existTrans(_txId) onlyOwner isNotExec(_txId){... */\n    tag_17:\n        /* \"contracts/MultiSigWallet.sol\":2096:2101  _txId */\n      dup1\n        /* \"contracts/MultiSigWallet.sol\":907:915  approval */\n      0x03\n        /* \"contracts/MultiSigWallet.sol\":907:922  approval[_txId] */\n      0x00\n        /* \"contracts/MultiSigWallet.sol\":916:921  _txId */\n      dup3\n        /* \"contracts/MultiSigWallet.sol\":907:922  approval[_txId] */\n      dup2\n      mstore\n      0x20\n      add\n      swap1\n      dup2\n      mstore\n      0x20\n      add\n      0x00\n      keccak256\n        /* \"contracts/MultiSigWallet.sol\":907:934  approval[_txId][msg.sender] */\n      0x00\n        /* \"contracts/MultiSigWallet.sol\":923:933  msg.sender */\n      caller\n        /* \"contracts/MultiSigWallet.sol\":907:934  approval[_txId][msg.sender] */\n      0xffffffffffffffffffffffffffffffffffffffff\n      and\n      0xffffffffffffffffffffffffffffffffffffffff\n      and\n      dup2\n      mstore\n      0x20\n      add\n      swap1\n      dup2\n      mstore\n      0x20\n      add\n      0x00\n      keccak256\n      0x00\n      swap1\n      sload\n      swap1\n      0x0100\n      exp\n      swap1\n      div\n      0xff\n      and\n        /* \"contracts/MultiSigWallet.sol\":906:934  !approval[_txId][msg.sender] */\n      iszero\n        /* \"contracts/MultiSigWallet.sol\":898:969  require(!approval[_txId][msg.sender],\"Transaction Already Approved...\") */\n      tag_45\n      jumpi\n      mload(0x40)\n      0x08c379a000000000000000000000000000000000000000000000000000000000\n      dup2\n      mstore\n      0x04\n      add\n      tag_46\n      swap1\n      tag_47\n      jump\t// in\n    tag_46:\n      mload(0x40)\n      dup1\n      swap2\n      sub\n      swap1\n      revert\n    tag_45:\n        /* \"contracts/MultiSigWallet.sol\":2114:2119  _txId */\n      dup2\n        /* \"contracts/MultiSigWallet.sol\":1079:1080  1 */\n      0x01\n        /* \"contracts/MultiSigWallet.sol\":1057:1069  transactions */\n      0x04\n        /* \"contracts/MultiSigWallet.sol\":1057:1076  transactions.length */\n      dup1\n      sload\n      swap1\n      pop\n        /* \"contracts/MultiSigWallet.sol\":1057:1080  transactions.length - 1 */\n      tag_49\n      swap2\n      swap1\n      tag_50\n      jump\t// in\n    tag_49:\n        /* \"contracts/MultiSigWallet.sol\":1048:1053  _txId */\n      dup2\n        /* \"contracts/MultiSigWallet.sol\":1048:1080  _txId <= transactions.length - 1 */\n      gt\n      iszero\n        /* \"contracts/MultiSigWallet.sol\":1040:1113  require(_txId <= transactions.length - 1,\"Transaction Does not Exist...\") */\n      tag_51\n      jumpi\n      mload(0x40)\n      0x08c379a000000000000000000000000000000000000000000000000000000000\n      dup2\n      mstore\n      0x04\n      add\n      tag_52\n      swap1\n      tag_53\n      jump\t// in\n    tag_52:\n      mload(0x40)\n      dup1\n      swap2\n      sub\n      swap1\n      revert\n    tag_51:\n        /* \"contracts/MultiSigWallet.sol\":1178:1185  isOwner */\n      0x01\n        /* \"contracts/MultiSigWallet.sol\":1178:1197  isOwner[msg.sender] */\n      0x00\n        /* \"contracts/MultiSigWallet.sol\":1186:1196  msg.sender */\n      caller\n        /* \"contracts/MultiSigWallet.sol\":1178:1197  isOwner[msg.sender] */\n      0xffffffffffffffffffffffffffffffffffffffff\n      and\n      0xffffffffffffffffffffffffffffffffffffffff\n      and\n      dup2\n      mstore\n      0x20\n      add\n      swap1\n      dup2\n      mstore\n      0x20\n      add\n      0x00\n      keccak256\n      0x00\n      swap1\n      sload\n      swap1\n      0x0100\n      exp\n      swap1\n      div\n      0xff\n      and\n        /* \"contracts/MultiSigWallet.sol\":1170:1219  require(isOwner[msg.sender] ,\"Not the Owner....\") */\n      tag_55\n      jumpi\n      mload(0x40)\n      0x08c379a000000000000000000000000000000000000000000000000000000000\n      dup2\n      mstore\n      0x04\n      add\n      tag_56\n      swap1\n      tag_57\n      jump\t// in\n    tag_56:\n      mload(0x40)\n      dup1\n      swap2\n      sub\n      swap1\n      revert\n    tag_55:\n        /* \"contracts/MultiSigWallet.sol\":2141:2146  _txId */\n      dup3\n        /* \"contracts/MultiSigWallet.sol\":1425:1455  Transaction memory transaction */\n      0x00\n        /* \"contracts/MultiSigWallet.sol\":1458:1470  transactions */\n      0x04\n        /* \"contracts/MultiSigWallet.sol\":1471:1476  _txId */\n      dup3\n        /* \"contracts/MultiSigWallet.sol\":1458:1477  transactions[_txId] */\n      dup2\n      sload\n      dup2\n      lt\n      tag_59\n      jumpi\n      tag_60\n      tag_61\n      jump\t// in\n    tag_60:\n    tag_59:\n      swap1\n      0x00\n      mstore\n      keccak256(0x00, 0x20)\n      swap1\n      0x03\n      mul\n      add\n        /* \"contracts/MultiSigWallet.sol\":1425:1477  Transaction memory transaction = transactions[_txId] */\n      mload(0x40)\n      dup1\n      0x60\n      add\n      0x40\n      mstore\n      swap1\n      dup2\n      0x00\n      dup3\n      add\n      0x00\n      swap1\n      sload\n      swap1\n      0x0100\n      exp\n      swap1\n      div\n      0xffffffffffffffffffffffffffffffffffffffff\n      and\n      0xffffffffffffffffffffffffffffffffffffffff\n      and\n      0xffffffffffffffffffffffffffffffffffffffff\n      and\n      dup2\n      mstore\n      0x20\n      add\n      0x01\n      dup3\n      add\n      sload\n      dup2\n      mstore\n      0x20\n      add\n      0x02\n      dup3\n      add\n      0x00\n      swap1\n      sload\n      swap1\n      0x0100\n      exp\n      swap1\n      div\n      0xff\n      and\n      iszero\n      iszero\n      iszero\n      iszero\n      dup2\n      mstore\n      pop\n      pop\n      swap1\n      pop\n        /* \"contracts/MultiSigWallet.sol\":1497:1508  transaction */\n      dup1\n        /* \"contracts/MultiSigWallet.sol\":1497:1517  transaction.executed */\n      0x40\n      add\n      mload\n        /* \"contracts/MultiSigWallet.sol\":1496:1517  !transaction.executed */\n      iszero\n        /* \"contracts/MultiSigWallet.sol\":1488:1550  require(!transaction.executed, \"Transaction Already Executed\") */\n      tag_63\n      jumpi\n      mload(0x40)\n      0x08c379a000000000000000000000000000000000000000000000000000000000\n      dup2\n      mstore\n      0x04\n      add\n      tag_64\n      swap1\n      tag_65\n      jump\t// in\n    tag_64:\n      mload(0x40)\n      dup1\n      swap2\n      sub\n      swap1\n      revert\n    tag_63:\n        /* \"contracts/MultiSigWallet.sol\":2190:2194  true */\n      0x01\n        /* \"contracts/MultiSigWallet.sol\":2160:2168  approval */\n      0x03\n        /* \"contracts/MultiSigWallet.sol\":2160:2175  approval[_txId] */\n      0x00\n        /* \"contracts/MultiSigWallet.sol\":2169:2174  _txId */\n      dup8\n        /* \"contracts/MultiSigWallet.sol\":2160:2175  approval[_txId] */\n      dup2\n      mstore\n      0x20\n      add\n      swap1\n      dup2\n      mstore\n      0x20\n      add\n      0x00\n      keccak256\n        /* \"contracts/MultiSigWallet.sol\":2160:2187  approval[_txId][msg.sender] */\n      0x00\n        /* \"contracts/MultiSigWallet.sol\":2176:2186  msg.sender */\n      caller\n        /* \"contracts/MultiSigWallet.sol\":2160:2187  approval[_txId][msg.sender] */\n      0xffffffffffffffffffffffffffffffffffffffff\n      and\n      0xffffffffffffffffffffffffffffffffffffffff\n      and\n      dup2\n      mstore\n      0x20\n      add\n      swap1\n      dup2\n      mstore\n      0x20\n      add\n      0x00\n      keccak256\n      0x00\n        /* \"contracts/MultiSigWallet.sol\":2160:2194  approval[_txId][msg.sender] = true */\n      0x0100\n      exp\n      dup2\n      sload\n      dup2\n      0xff\n      mul\n      not\n      and\n      swap1\n      dup4\n      iszero\n      iszero\n      mul\n      or\n      swap1\n      sstore\n      pop\n        /* \"contracts/MultiSigWallet.sol\":2210:2236  Approve(_txId, msg.sender) */\n      0x47ad3e4b0f4bdbe3ac08708bbc45053d2ff616911b39e65563fd9bd781909645\n        /* \"contracts/MultiSigWallet.sol\":2218:2223  _txId */\n      dup6\n        /* \"contracts/MultiSigWallet.sol\":2225:2235  msg.sender */\n      caller\n        /* \"contracts/MultiSigWallet.sol\":2210:2236  Approve(_txId, msg.sender) */\n      mload(0x40)\n      tag_67\n      swap3\n      swap2\n      swap1\n      tag_68\n      jump\t// in\n    tag_67:\n      mload(0x40)\n      dup1\n      swap2\n      sub\n      swap1\n      log1\n        /* \"contracts/MultiSigWallet.sol\":1414:1570  {... */\n      pop\n        /* \"contracts/MultiSigWallet.sol\":1230:1231  _ */\n      pop\n        /* \"contracts/MultiSigWallet.sol\":980:981  _ */\n      pop\n        /* \"contracts/MultiSigWallet.sol\":2035:2246  function approveTransaction(uint _txId) external notApproved(_txId) existTrans(_txId) onlyOwner isNotExec(_txId){... */\n      pop\n      pop\n      jump\t// out\n        /* \"contracts/MultiSigWallet.sol\":238:277  mapping(address => bool) public isOwner */\n    tag_22:\n      mstore(0x20, 0x01)\n      dup1\n      0x00\n      mstore\n      keccak256(0x00, 0x40)\n      0x00\n      swap2\n      pop\n      sload\n      swap1\n      0x0100\n      exp\n      swap1\n      div\n      0xff\n      and\n      dup2\n      jump\t// out\n        /* \"contracts/MultiSigWallet.sol\":2254:2458  function revokeApproval(uint _txId) external isApproved(_txId) existTrans(_txId) onlyOwner isNotExec(_txId){... */\n    tag_28:\n        /* \"contracts/MultiSigWallet.sol\":2310:2315  _txId */\n      dup1\n        /* \"contracts/MultiSigWallet.sol\":1297:1305  approval */\n      0x03\n        /* \"contracts/MultiSigWallet.sol\":1297:1312  approval[_txId] */\n      0x00\n        /* \"contracts/MultiSigWallet.sol\":1306:1311  _txId */\n      dup3\n        /* \"contracts/MultiSigWallet.sol\":1297:1312  approval[_txId] */\n      dup2\n      mstore\n      0x20\n      add\n      swap1\n      dup2\n      mstore\n      0x20\n      add\n      0x00\n      keccak256\n        /* \"contracts/MultiSigWallet.sol\":1297:1324  approval[_txId][msg.sender] */\n      0x00\n        /* \"contracts/MultiSigWallet.sol\":1313:1323  msg.sender */\n      caller\n        /* \"contracts/MultiSigWallet.sol\":1297:1324  approval[_txId][msg.sender] */\n      0xffffffffffffffffffffffffffffffffffffffff\n      and\n      0xffffffffffffffffffffffffffffffffffffffff\n      and\n      dup2\n      mstore\n      0x20\n      add\n      swap1\n      dup2\n      mstore\n      0x20\n      add\n      0x00\n      keccak256\n      0x00\n      swap1\n      sload\n      swap1\n      0x0100\n      exp\n      swap1\n      div\n      0xff\n      and\n        /* \"contracts/MultiSigWallet.sol\":1289:1356  require(approval[_txId][msg.sender], \"Transaction Not Approved...\") */\n      tag_70\n      jumpi\n      mload(0x40)\n      0x08c379a000000000000000000000000000000000000000000000000000000000\n      dup2\n      mstore\n      0x04\n      add\n      tag_71\n      swap1\n      tag_72\n      jump\t// in\n    tag_71:\n      mload(0x40)\n      dup1\n      swap2\n      sub\n      swap1\n      revert\n    tag_70:\n        /* \"contracts/MultiSigWallet.sol\":2328:2333  _txId */\n      dup2\n        /* \"contracts/MultiSigWallet.sol\":1079:1080  1 */\n      0x01\n        /* \"contracts/MultiSigWallet.sol\":1057:1069  transactions */\n      0x04\n        /* \"contracts/MultiSigWallet.sol\":1057:1076  transactions.length */\n      dup1\n      sload\n      swap1\n      pop\n        /* \"contracts/MultiSigWallet.sol\":1057:1080  transactions.length - 1 */\n      tag_74\n      swap2\n      swap1\n      tag_50\n      jump\t// in\n    tag_74:\n        /* \"contracts/MultiSigWallet.sol\":1048:1053  _txId */\n      dup2\n        /* \"contracts/MultiSigWallet.sol\":1048:1080  _txId <= transactions.length - 1 */\n      gt\n      iszero\n        /* \"contracts/MultiSigWallet.sol\":1040:1113  require(_txId <= transactions.length - 1,\"Transaction Does not Exist...\") */\n      tag_75\n      jumpi\n      mload(0x40)\n      0x08c379a000000000000000000000000000000000000000000000000000000000\n      dup2\n      mstore\n      0x04\n      add\n      tag_76\n      swap1\n      tag_53\n      jump\t// in\n    tag_76:\n      mload(0x40)\n      dup1\n      swap2\n      sub\n      swap1\n      revert\n    tag_75:\n        /* \"contracts/MultiSigWallet.sol\":1178:1185  isOwner */\n      0x01\n        /* \"contracts/MultiSigWallet.sol\":1178:1197  isOwner[msg.sender] */\n      0x00\n        /* \"contracts/MultiSigWallet.sol\":1186:1196  msg.sender */\n      caller\n        /* \"contracts/MultiSigWallet.sol\":1178:1197  isOwner[msg.sender] */\n      0xffffffffffffffffffffffffffffffffffffffff\n      and\n      0xffffffffffffffffffffffffffffffffffffffff\n      and\n      dup2\n      mstore\n      0x20\n      add\n      swap1\n      dup2\n      mstore\n      0x20\n      add\n      0x00\n      keccak256\n      0x00\n      swap1\n      sload\n      swap1\n      0x0100\n      exp\n      swap1\n      div\n      0xff\n      and\n        /* \"contracts/MultiSigWallet.sol\":1170:1219  require(isOwner[msg.sender] ,\"Not the Owner....\") */\n      tag_78\n      jumpi\n      mload(0x40)\n      0x08c379a000000000000000000000000000000000000000000000000000000000\n      dup2\n      mstore\n      0x04\n      add\n      tag_79\n      swap1\n      tag_57\n      jump\t// in\n    tag_79:\n      mload(0x40)\n      dup1\n      swap2\n      sub\n      swap1\n      revert\n    tag_78:\n        /* \"contracts/MultiSigWallet.sol\":2355:2360  _txId */\n      dup3\n        /* \"contracts/MultiSigWallet.sol\":1425:1455  Transaction memory transaction */\n      0x00\n        /* \"contracts/MultiSigWallet.sol\":1458:1470  transactions */\n      0x04\n        /* \"contracts/MultiSigWallet.sol\":1471:1476  _txId */\n      dup3\n        /* \"contracts/MultiSigWallet.sol\":1458:1477  transactions[_txId] */\n      dup2\n      sload\n      dup2\n      lt\n      tag_81\n      jumpi\n      tag_82\n      tag_61\n      jump\t// in\n    tag_82:\n    tag_81:\n      swap1\n      0x00\n      mstore\n      keccak256(0x00, 0x20)\n      swap1\n      0x03\n      mul\n      add\n        /* \"contracts/MultiSigWallet.sol\":1425:1477  Transaction memory transaction = transactions[_txId] */\n      mload(0x40)\n      dup1\n      0x60\n      add\n      0x40\n      mstore\n      swap1\n      dup2\n      0x00\n      dup3\n      add\n      0x00\n      swap1\n      sload\n      swap1\n      0x0100\n      exp\n      swap1\n      div\n      0xffffffffffffffffffffffffffffffffffffffff\n      and\n      0xffffffffffffffffffffffffffffffffffffffff\n      and\n      0xffffffffffffffffffffffffffffffffffffffff\n      and\n      dup2\n      mstore\n      0x20\n      add\n      0x01\n      dup3\n      add\n      sload\n      dup2\n      mstore\n      0x20\n      add\n      0x02\n      dup3\n      add\n      0x00\n      swap1\n      sload\n      swap1\n      0x0100\n      exp\n      swap1\n      div\n      0xff\n      and\n      iszero\n      iszero\n      iszero\n      iszero\n      dup2\n      mstore\n      pop\n      pop\n      swap1\n      pop\n        /* \"contracts/MultiSigWallet.sol\":1497:1508  transaction */\n      dup1\n        /* \"contracts/MultiSigWallet.sol\":1497:1517  transaction.executed */\n      0x40\n      add\n      mload\n        /* \"contracts/MultiSigWallet.sol\":1496:1517  !transaction.executed */\n      iszero\n        /* \"contracts/MultiSigWallet.sol\":1488:1550  require(!transaction.executed, \"Transaction Already Executed\") */\n      tag_84\n      jumpi\n      mload(0x40)\n      0x08c379a000000000000000000000000000000000000000000000000000000000\n      dup2\n      mstore\n      0x04\n      add\n      tag_85\n      swap1\n      tag_65\n      jump\t// in\n    tag_85:\n      mload(0x40)\n      dup1\n      swap2\n      sub\n      swap1\n      revert\n    tag_84:\n        /* \"contracts/MultiSigWallet.sol\":2404:2409  false */\n      0x00\n        /* \"contracts/MultiSigWallet.sol\":2374:2382  approval */\n      0x03\n        /* \"contracts/MultiSigWallet.sol\":2374:2389  approval[_txId] */\n      0x00\n        /* \"contracts/MultiSigWallet.sol\":2383:2388  _txId */\n      dup8\n        /* \"contracts/MultiSigWallet.sol\":2374:2389  approval[_txId] */\n      dup2\n      mstore\n      0x20\n      add\n      swap1\n      dup2\n      mstore\n      0x20\n      add\n      0x00\n      keccak256\n        /* \"contracts/MultiSigWallet.sol\":2374:2401  approval[_txId][msg.sender] */\n      0x00\n        /* \"contracts/MultiSigWallet.sol\":2390:2400  msg.sender */\n      caller\n        /* \"contracts/MultiSigWallet.sol\":2374:2401  approval[_txId][msg.sender] */\n      0xffffffffffffffffffffffffffffffffffffffff\n      and\n      0xffffffffffffffffffffffffffffffffffffffff\n      and\n      dup2\n      mstore\n      0x20\n      add\n      swap1\n      dup2\n      mstore\n      0x20\n      add\n      0x00\n      keccak256\n      0x00\n        /* \"contracts/MultiSigWallet.sol\":2374:2409  approval[_txId][msg.sender] = false */\n      0x0100\n      exp\n      dup2\n      sload\n      dup2\n      0xff\n      mul\n      not\n      and\n      swap1\n      dup4\n      iszero\n      iszero\n      mul\n      or\n      swap1\n      sstore\n      pop\n        /* \"contracts/MultiSigWallet.sol\":2425:2450  Revoke(_txId, msg.sender) */\n      0xd5d64031e0f55cf42bc3b7d0462f8404a4d63f7ccf84be9510cd6a5300552e42\n        /* \"contracts/MultiSigWallet.sol\":2432:2437  _txId */\n      dup6\n        /* \"contracts/MultiSigWallet.sol\":2439:2449  msg.sender */\n      caller\n        /* \"contracts/MultiSigWallet.sol\":2425:2450  Revoke(_txId, msg.sender) */\n      mload(0x40)\n      tag_87\n      swap3\n      swap2\n      swap1\n      tag_68\n      jump\t// in\n    tag_87:\n      mload(0x40)\n      dup1\n      swap2\n      sub\n      swap1\n      log1\n        /* \"contracts/MultiSigWallet.sol\":1414:1570  {... */\n      pop\n        /* \"contracts/MultiSigWallet.sol\":1230:1231  _ */\n      pop\n        /* \"contracts/MultiSigWallet.sol\":1367:1368  _ */\n      pop\n        /* \"contracts/MultiSigWallet.sol\":2254:2458  function revokeApproval(uint _txId) external isApproved(_txId) existTrans(_txId) onlyOwner isNotExec(_txId){... */\n      pop\n      pop\n      jump\t// out\n        /* \"contracts/MultiSigWallet.sol\":1578:1793  function canExec(uint _txId) public view returns(uint count){... */\n    tag_32:\n        /* \"contracts/MultiSigWallet.sol\":1627:1637  uint count */\n      0x00\n        /* \"contracts/MultiSigWallet.sol\":1653:1659  uint i */\n      dup1\n        /* \"contracts/MultiSigWallet.sol\":1649:1786  for(uint i; i < owners.length ; i++){... */\n    tag_89:\n        /* \"contracts/MultiSigWallet.sol\":1665:1671  owners */\n      0x00\n        /* \"contracts/MultiSigWallet.sol\":1665:1678  owners.length */\n      dup1\n      sload\n      swap1\n      pop\n        /* \"contracts/MultiSigWallet.sol\":1661:1662  i */\n      dup2\n        /* \"contracts/MultiSigWallet.sol\":1661:1678  i < owners.length */\n      lt\n        /* \"contracts/MultiSigWallet.sol\":1649:1786  for(uint i; i < owners.length ; i++){... */\n      iszero\n      tag_90\n      jumpi\n        /* \"contracts/MultiSigWallet.sol\":1703:1711  approval */\n      0x03\n        /* \"contracts/MultiSigWallet.sol\":1703:1718  approval[_txId] */\n      0x00\n        /* \"contracts/MultiSigWallet.sol\":1712:1717  _txId */\n      dup5\n        /* \"contracts/MultiSigWallet.sol\":1703:1718  approval[_txId] */\n      dup2\n      mstore\n      0x20\n      add\n      swap1\n      dup2\n      mstore\n      0x20\n      add\n      0x00\n      keccak256\n        /* \"contracts/MultiSigWallet.sol\":1703:1729  approval[_txId][owners[i]] */\n      0x00\n        /* \"contracts/MultiSigWallet.sol\":1719:1725  owners */\n      dup1\n        /* \"contracts/MultiSigWallet.sol\":1726:1727  i */\n      dup4\n        /* \"contracts/MultiSigWallet.sol\":1719:1728  owners[i] */\n      dup2\n      sload\n      dup2\n      lt\n      tag_92\n      jumpi\n      tag_93\n      tag_61\n      jump\t// in\n    tag_93:\n    tag_92:\n      swap1\n      0x00\n      mstore\n      keccak256(0x00, 0x20)\n      add\n      0x00\n      swap1\n      sload\n      swap1\n      0x0100\n      exp\n      swap1\n      div\n      0xffffffffffffffffffffffffffffffffffffffff\n      and\n        /* \"contracts/MultiSigWallet.sol\":1703:1729  approval[_txId][owners[i]] */\n      0xffffffffffffffffffffffffffffffffffffffff\n      and\n      0xffffffffffffffffffffffffffffffffffffffff\n      and\n      dup2\n      mstore\n      0x20\n      add\n      swap1\n      dup2\n      mstore\n      0x20\n      add\n      0x00\n      keccak256\n      0x00\n      swap1\n      sload\n      swap1\n      0x0100\n      exp\n      swap1\n      div\n      0xff\n      and\n        /* \"contracts/MultiSigWallet.sol\":1700:1775  if(approval[_txId][owners[i]]){... */\n      iszero\n      tag_95\n      jumpi\n        /* \"contracts/MultiSigWallet.sol\":1758:1759  1 */\n      0x01\n        /* \"contracts/MultiSigWallet.sol\":1749:1759  count += 1 */\n      dup3\n      tag_96\n      swap2\n      swap1\n      tag_97\n      jump\t// in\n    tag_96:\n      swap2\n      pop\n        /* \"contracts/MultiSigWallet.sol\":1700:1775  if(approval[_txId][owners[i]]){... */\n    tag_95:\n        /* \"contracts/MultiSigWallet.sol\":1681:1684  i++ */\n      dup1\n      dup1\n      tag_98\n      swap1\n      tag_99\n      jump\t// in\n    tag_98:\n      swap2\n      pop\n      pop\n        /* \"contracts/MultiSigWallet.sol\":1649:1786  for(uint i; i < owners.length ; i++){... */\n      jump(tag_89)\n    tag_90:\n      pop\n        /* \"contracts/MultiSigWallet.sol\":1578:1793  function canExec(uint _txId) public view returns(uint count){... */\n      swap2\n      swap1\n      pop\n      jump\t// out\n        /* \"contracts/MultiSigWallet.sol\":1889:2027  function makeTransaction(address _to, uint _value) external onlyOwner{... */\n    tag_39:\n        /* \"contracts/MultiSigWallet.sol\":1178:1185  isOwner */\n      0x01\n        /* \"contracts/MultiSigWallet.sol\":1178:1197  isOwner[msg.sender] */\n      0x00\n        /* \"contracts/MultiSigWallet.sol\":1186:1196  msg.sender */\n      caller\n        /* \"contracts/MultiSigWallet.sol\":1178:1197  isOwner[msg.sender] */\n      0xffffffffffffffffffffffffffffffffffffffff\n      and\n      0xffffffffffffffffffffffffffffffffffffffff\n      and\n      dup2\n      mstore\n      0x20\n      add\n      swap1\n      dup2\n      mstore\n      0x20\n      add\n      0x00\n      keccak256\n      0x00\n      swap1\n      sload\n      swap1\n      0x0100\n      exp\n      swap1\n      div\n      0xff\n      and\n        /* \"contracts/MultiSigWallet.sol\":1170:1219  require(isOwner[msg.sender] ,\"Not the Owner....\") */\n      tag_101\n      jumpi\n      mload(0x40)\n      0x08c379a000000000000000000000000000000000000000000000000000000000\n      dup2\n      mstore\n      0x04\n      add\n      tag_102\n      swap1\n      tag_57\n      jump\t// in\n    tag_102:\n      mload(0x40)\n      dup1\n      swap2\n      sub\n      swap1\n      revert\n    tag_101:\n        /* \"contracts/MultiSigWallet.sol\":1969:1981  transactions */\n      0x04\n        /* \"contracts/MultiSigWallet.sol\":1987:2016  Transaction(_to,_value,false) */\n      mload(0x40)\n      dup1\n      0x60\n      add\n      0x40\n      mstore\n      dup1\n        /* \"contracts/MultiSigWallet.sol\":1999:2002  _to */\n      dup5\n        /* \"contracts/MultiSigWallet.sol\":1987:2016  Transaction(_to,_value,false) */\n      0xffffffffffffffffffffffffffffffffffffffff\n      and\n      dup2\n      mstore\n      0x20\n      add\n        /* \"contracts/MultiSigWallet.sol\":2003:2009  _value */\n      dup4\n        /* \"contracts/MultiSigWallet.sol\":1987:2016  Transaction(_to,_value,false) */\n      dup2\n      mstore\n      0x20\n      add\n        /* \"contracts/MultiSigWallet.sol\":2010:2015  false */\n      0x00\n        /* \"contracts/MultiSigWallet.sol\":1987:2016  Transaction(_to,_value,false) */\n      iszero\n      iszero\n      dup2\n      mstore\n      pop\n        /* \"contracts/MultiSigWallet.sol\":1969:2017  transactions.push(Transaction(_to,_value,false)) */\n      swap1\n      dup1\n      0x01\n      dup2\n      sload\n      add\n      dup1\n      dup3\n      sstore\n      dup1\n      swap2\n      pop\n      pop\n      0x01\n      swap1\n      sub\n      swap1\n      0x00\n      mstore\n      keccak256(0x00, 0x20)\n      swap1\n      0x03\n      mul\n      add\n      0x00\n      swap1\n      swap2\n      swap1\n      swap2\n      swap1\n      swap2\n      pop\n      0x00\n      dup3\n      add\n      mload\n      dup2\n      0x00\n      add\n      exp(0x0100, 0x00)\n      dup2\n      sload\n      dup2\n      0xffffffffffffffffffffffffffffffffffffffff\n      mul\n      not\n      and\n      swap1\n      dup4\n      0xffffffffffffffffffffffffffffffffffffffff\n      and\n      mul\n      or\n      swap1\n      sstore\n      pop\n      0x20\n      dup3\n      add\n      mload\n      dup2\n      0x01\n      add\n      sstore\n      0x40\n      dup3\n      add\n      mload\n      dup2\n      0x02\n      add\n      exp(0x0100, 0x00)\n      dup2\n      sload\n      dup2\n      0xff\n      mul\n      not\n      and\n      swap1\n      dup4\n      iszero\n      iszero\n      mul\n      or\n      swap1\n      sstore\n      pop\n      pop\n      pop\n        /* \"contracts/MultiSigWallet.sol\":1889:2027  function makeTransaction(address _to, uint _value) external onlyOwner{... */\n      pop\n      pop\n      jump\t// out\n        /* \"contracts/MultiSigWallet.sol\":2466:2888  function executeTransaction(uint _txId) external existTrans(_txId) onlyOwner isNotExec(_txId) {... */\n    tag_43:\n        /* \"contracts/MultiSigWallet.sol\":2526:2531  _txId */\n      dup1\n        /* \"contracts/MultiSigWallet.sol\":1079:1080  1 */\n      0x01\n        /* \"contracts/MultiSigWallet.sol\":1057:1069  transactions */\n      0x04\n        /* \"contracts/MultiSigWallet.sol\":1057:1076  transactions.length */\n      dup1\n      sload\n      swap1\n      pop\n        /* \"contracts/MultiSigWallet.sol\":1057:1080  transactions.length - 1 */\n      tag_106\n      swap2\n      swap1\n      tag_50\n      jump\t// in\n    tag_106:\n        /* \"contracts/MultiSigWallet.sol\":1048:1053  _txId */\n      dup2\n        /* \"contracts/MultiSigWallet.sol\":1048:1080  _txId <= transactions.length - 1 */\n      gt\n      iszero\n        /* \"contracts/MultiSigWallet.sol\":1040:1113  require(_txId <= transactions.length - 1,\"Transaction Does not Exist...\") */\n      tag_107\n      jumpi\n      mload(0x40)\n      0x08c379a000000000000000000000000000000000000000000000000000000000\n      dup2\n      mstore\n      0x04\n      add\n      tag_108\n      swap1\n      tag_53\n      jump\t// in\n    tag_108:\n      mload(0x40)\n      dup1\n      swap2\n      sub\n      swap1\n      revert\n    tag_107:\n        /* \"contracts/MultiSigWallet.sol\":1178:1185  isOwner */\n      0x01\n        /* \"contracts/MultiSigWallet.sol\":1178:1197  isOwner[msg.sender] */\n      0x00\n        /* \"contracts/MultiSigWallet.sol\":1186:1196  msg.sender */\n      caller\n        /* \"contracts/MultiSigWallet.sol\":1178:1197  isOwner[msg.sender] */\n      0xffffffffffffffffffffffffffffffffffffffff\n      and\n      0xffffffffffffffffffffffffffffffffffffffff\n      and\n      dup2\n      mstore\n      0x20\n      add\n      swap1\n      dup2\n      mstore\n      0x20\n      add\n      0x00\n      keccak256\n      0x00\n      swap1\n      sload\n      swap1\n      0x0100\n      exp\n      swap1\n      div\n      0xff\n      and\n        /* \"contracts/MultiSigWallet.sol\":1170:1219  require(isOwner[msg.sender] ,\"Not the Owner....\") */\n      tag_110\n      jumpi\n      mload(0x40)\n      0x08c379a000000000000000000000000000000000000000000000000000000000\n      dup2\n      mstore\n      0x04\n      add\n      tag_111\n      swap1\n      tag_57\n      jump\t// in\n    tag_111:\n      mload(0x40)\n      dup1\n      swap2\n      sub\n      swap1\n      revert\n    tag_110:\n        /* \"contracts/MultiSigWallet.sol\":2553:2558  _txId */\n      dup2\n        /* \"contracts/MultiSigWallet.sol\":1425:1455  Transaction memory transaction */\n      0x00\n        /* \"contracts/MultiSigWallet.sol\":1458:1470  transactions */\n      0x04\n        /* \"contracts/MultiSigWallet.sol\":1471:1476  _txId */\n      dup3\n        /* \"contracts/MultiSigWallet.sol\":1458:1477  transactions[_txId] */\n      dup2\n      sload\n      dup2\n      lt\n      tag_113\n      jumpi\n      tag_114\n      tag_61\n      jump\t// in\n    tag_114:\n    tag_113:\n      swap1\n      0x00\n      mstore\n      keccak256(0x00, 0x20)\n      swap1\n      0x03\n      mul\n      add\n        /* \"contracts/MultiSigWallet.sol\":1425:1477  Transaction memory transaction = transactions[_txId] */\n      mload(0x40)\n      dup1\n      0x60\n      add\n      0x40\n      mstore\n      swap1\n      dup2\n      0x00\n      dup3\n      add\n      0x00\n      swap1\n      sload\n      swap1\n      0x0100\n      exp\n      swap1\n      div\n      0xffffffffffffffffffffffffffffffffffffffff\n      and\n      0xffffffffffffffffffffffffffffffffffffffff\n      and\n      0xffffffffffffffffffffffffffffffffffffffff\n      and\n      dup2\n      mstore\n      0x20\n      add\n      0x01\n      dup3\n      add\n      sload\n      dup2\n      mstore\n      0x20\n      add\n      0x02\n      dup3\n      add\n      0x00\n      swap1\n      sload\n      swap1\n      0x0100\n      exp\n      swap1\n      div\n      0xff\n      and\n      iszero\n      iszero\n      iszero\n      iszero\n      dup2\n      mstore\n      pop\n      pop\n      swap1\n      pop\n        /* \"contracts/MultiSigWallet.sol\":1497:1508  transaction */\n      dup1\n        /* \"contracts/MultiSigWallet.sol\":1497:1517  transaction.executed */\n      0x40\n      add\n      mload\n        /* \"contracts/MultiSigWallet.sol\":1496:1517  !transaction.executed */\n      iszero\n        /* \"contracts/MultiSigWallet.sol\":1488:1550  require(!transaction.executed, \"Transaction Already Executed\") */\n      tag_116\n      jumpi\n      mload(0x40)\n      0x08c379a000000000000000000000000000000000000000000000000000000000\n      dup2\n      mstore\n      0x04\n      add\n      tag_117\n      swap1\n      tag_65\n      jump\t// in\n    tag_117:\n      mload(0x40)\n      dup1\n      swap2\n      sub\n      swap1\n      revert\n    tag_116:\n        /* \"contracts/MultiSigWallet.sol\":2597:2605  required */\n      sload(0x02)\n        /* \"contracts/MultiSigWallet.sol\":2579:2593  canExec(_txId) */\n      tag_119\n        /* \"contracts/MultiSigWallet.sol\":2587:2592  _txId */\n      dup6\n        /* \"contracts/MultiSigWallet.sol\":2579:2586  canExec */\n      tag_32\n        /* \"contracts/MultiSigWallet.sol\":2579:2593  canExec(_txId) */\n      jump\t// in\n    tag_119:\n        /* \"contracts/MultiSigWallet.sol\":2579:2605  canExec(_txId) >= required */\n      lt\n      iszero\n        /* \"contracts/MultiSigWallet.sol\":2571:2633  require(canExec(_txId) >= required, \"Not Enough Approvals...\") */\n      tag_120\n      jumpi\n      mload(0x40)\n      0x08c379a000000000000000000000000000000000000000000000000000000000\n      dup2\n      mstore\n      0x04\n      add\n      tag_121\n      swap1\n      tag_122\n      jump\t// in\n    tag_121:\n      mload(0x40)\n      dup1\n      swap2\n      sub\n      swap1\n      revert\n    tag_120:\n        /* \"contracts/MultiSigWallet.sol\":2644:2675  Transaction storage transaction */\n      0x00\n        /* \"contracts/MultiSigWallet.sol\":2678:2690  transactions */\n      0x04\n        /* \"contracts/MultiSigWallet.sol\":2691:2696  _txId */\n      dup6\n        /* \"contracts/MultiSigWallet.sol\":2678:2697  transactions[_txId] */\n      dup2\n      sload\n      dup2\n      lt\n      tag_123\n      jumpi\n      tag_124\n      tag_61\n      jump\t// in\n    tag_124:\n    tag_123:\n      swap1\n      0x00\n      mstore\n      keccak256(0x00, 0x20)\n      swap1\n      0x03\n      mul\n      add\n        /* \"contracts/MultiSigWallet.sol\":2644:2697  Transaction storage transaction = transactions[_txId] */\n      swap1\n      pop\n        /* \"contracts/MultiSigWallet.sol\":2710:2722  bool success */\n      0x00\n        /* \"contracts/MultiSigWallet.sol\":2728:2739  transaction */\n      dup2\n        /* \"contracts/MultiSigWallet.sol\":2728:2742  transaction.to */\n      0x00\n      add\n      0x00\n      swap1\n      sload\n      swap1\n      0x0100\n      exp\n      swap1\n      div\n      0xffffffffffffffffffffffffffffffffffffffff\n      and\n        /* \"contracts/MultiSigWallet.sol\":2728:2747  transaction.to.call */\n      0xffffffffffffffffffffffffffffffffffffffff\n      and\n        /* \"contracts/MultiSigWallet.sol\":2755:2766  transaction */\n      dup3\n        /* \"contracts/MultiSigWallet.sol\":2755:2772  transaction.value */\n      0x01\n      add\n      sload\n        /* \"contracts/MultiSigWallet.sol\":2728:2777  transaction.to.call{value: transaction.value}(\"\") */\n      mload(0x40)\n      tag_126\n      swap1\n      tag_127\n      jump\t// in\n    tag_126:\n      0x00\n      mload(0x40)\n      dup1\n      dup4\n      sub\n      dup2\n      dup6\n      dup8\n      gas\n      call\n      swap3\n      pop\n      pop\n      pop\n      returndatasize\n      dup1\n      0x00\n      dup2\n      eq\n      tag_130\n      jumpi\n      mload(0x40)\n      swap2\n      pop\n      and(add(returndatasize, 0x3f), not(0x1f))\n      dup3\n      add\n      0x40\n      mstore\n      returndatasize\n      dup3\n      mstore\n      returndatasize\n      0x00\n      0x20\n      dup5\n      add\n      returndatacopy\n      jump(tag_129)\n    tag_130:\n      0x60\n      swap2\n      pop\n    tag_129:\n      pop\n        /* \"contracts/MultiSigWallet.sol\":2709:2777  (bool success, ) = transaction.to.call{value: transaction.value}(\"\") */\n      pop\n      swap1\n      pop\n        /* \"contracts/MultiSigWallet.sol\":2798:2805  success */\n      dup1\n        /* \"contracts/MultiSigWallet.sol\":2790:2832  require(success, \"Transaction Incomplete\") */\n      tag_131\n      jumpi\n      mload(0x40)\n      0x08c379a000000000000000000000000000000000000000000000000000000000\n      dup2\n      mstore\n      0x04\n      add\n      tag_132\n      swap1\n      tag_133\n      jump\t// in\n    tag_132:\n      mload(0x40)\n      dup1\n      swap2\n      sub\n      swap1\n      revert\n    tag_131:\n        /* \"contracts/MultiSigWallet.sol\":2866:2870  true */\n      0x01\n        /* \"contracts/MultiSigWallet.sol\":2843:2854  transaction */\n      dup3\n        /* \"contracts/MultiSigWallet.sol\":2843:2863  transaction.executed */\n      0x02\n      add\n      0x00\n        /* \"contracts/MultiSigWallet.sol\":2843:2870  transaction.executed = true */\n      0x0100\n      exp\n      dup2\n      sload\n      dup2\n      0xff\n      mul\n      not\n      and\n      swap1\n      dup4\n      iszero\n      iszero\n      mul\n      or\n      swap1\n      sstore\n      pop\n        /* \"contracts/MultiSigWallet.sol\":2560:2888  {... */\n      pop\n      pop\n        /* \"contracts/MultiSigWallet.sol\":1414:1570  {... */\n      pop\n        /* \"contracts/MultiSigWallet.sol\":1230:1231  _ */\n      pop\n        /* \"contracts/MultiSigWallet.sol\":2466:2888  function executeTransaction(uint _txId) external existTrans(_txId) onlyOwner isNotExec(_txId) {... */\n      pop\n      pop\n      jump\t// out\n        /* \"#utility.yul\":7:133   */\n    tag_134:\n        /* \"#utility.yul\":44:51   */\n      0x00\n        /* \"#utility.yul\":84:126   */\n      0xffffffffffffffffffffffffffffffffffffffff\n        /* \"#utility.yul\":77:82   */\n      dup3\n        /* \"#utility.yul\":73:127   */\n      and\n        /* \"#utility.yul\":62:127   */\n      swap1\n      pop\n        /* \"#utility.yul\":7:133   */\n      swap2\n      swap1\n      pop\n      jump\t// out\n        /* \"#utility.yul\":139:235   */\n    tag_135:\n        /* \"#utility.yul\":176:183   */\n      0x00\n        /* \"#utility.yul\":205:229   */\n      tag_170\n        /* \"#utility.yul\":223:228   */\n      dup3\n        /* \"#utility.yul\":205:229   */\n      tag_134\n      jump\t// in\n    tag_170:\n        /* \"#utility.yul\":194:229   */\n      swap1\n      pop\n        /* \"#utility.yul\":139:235   */\n      swap2\n      swap1\n      pop\n      jump\t// out\n        /* \"#utility.yul\":241:359   */\n    tag_136:\n        /* \"#utility.yul\":328:352   */\n      tag_172\n        /* \"#utility.yul\":346:351   */\n      dup2\n        /* \"#utility.yul\":328:352   */\n      tag_135\n      jump\t// in\n    tag_172:\n        /* \"#utility.yul\":323:326   */\n      dup3\n        /* \"#utility.yul\":316:353   */\n      mstore\n        /* \"#utility.yul\":241:359   */\n      pop\n      pop\n      jump\t// out\n        /* \"#utility.yul\":365:442   */\n    tag_137:\n        /* \"#utility.yul\":402:409   */\n      0x00\n        /* \"#utility.yul\":431:436   */\n      dup2\n        /* \"#utility.yul\":420:436   */\n      swap1\n      pop\n        /* \"#utility.yul\":365:442   */\n      swap2\n      swap1\n      pop\n      jump\t// out\n        /* \"#utility.yul\":448:566   */\n    tag_138:\n        /* \"#utility.yul\":535:559   */\n      tag_175\n        /* \"#utility.yul\":553:558   */\n      dup2\n        /* \"#utility.yul\":535:559   */\n      tag_137\n      jump\t// in\n    tag_175:\n        /* \"#utility.yul\":530:533   */\n      dup3\n        /* \"#utility.yul\":523:560   */\n      mstore\n        /* \"#utility.yul\":448:566   */\n      pop\n      pop\n      jump\t// out\n        /* \"#utility.yul\":572:904   */\n    tag_12:\n        /* \"#utility.yul\":693:697   */\n      0x00\n        /* \"#utility.yul\":731:733   */\n      0x40\n        /* \"#utility.yul\":720:729   */\n      dup3\n        /* \"#utility.yul\":716:734   */\n      add\n        /* \"#utility.yul\":708:734   */\n      swap1\n      pop\n        /* \"#utility.yul\":744:815   */\n      tag_177\n        /* \"#utility.yul\":812:813   */\n      0x00\n        /* \"#utility.yul\":801:810   */\n      dup4\n        /* \"#utility.yul\":797:814   */\n      add\n        /* \"#utility.yul\":788:794   */\n      dup6\n        /* \"#utility.yul\":744:815   */\n      tag_136\n      jump\t// in\n    tag_177:\n        /* \"#utility.yul\":825:897   */\n      tag_178\n        /* \"#utility.yul\":893:895   */\n      0x20\n        /* \"#utility.yul\":882:891   */\n      dup4\n        /* \"#utility.yul\":878:896   */\n      add\n        /* \"#utility.yul\":869:875   */\n      dup5\n        /* \"#utility.yul\":825:897   */\n      tag_138\n      jump\t// in\n    tag_178:\n        /* \"#utility.yul\":572:904   */\n      swap4\n      swap3\n      pop\n      pop\n      pop\n      jump\t// out\n        /* \"#utility.yul\":991:1108   */\n    tag_140:\n        /* \"#utility.yul\":1100:1101   */\n      0x00\n        /* \"#utility.yul\":1097:1098   */\n      dup1\n        /* \"#utility.yul\":1090:1102   */\n      revert\n        /* \"#utility.yul\":1237:1359   */\n    tag_142:\n        /* \"#utility.yul\":1310:1334   */\n      tag_183\n        /* \"#utility.yul\":1328:1333   */\n      dup2\n        /* \"#utility.yul\":1310:1334   */\n      tag_137\n      jump\t// in\n    tag_183:\n        /* \"#utility.yul\":1303:1308   */\n      dup2\n        /* \"#utility.yul\":1300:1335   */\n      eq\n        /* \"#utility.yul\":1290:1353   */\n      tag_184\n      jumpi\n        /* \"#utility.yul\":1349:1350   */\n      0x00\n        /* \"#utility.yul\":1346:1347   */\n      dup1\n        /* \"#utility.yul\":1339:1351   */\n      revert\n        /* \"#utility.yul\":1290:1353   */\n    tag_184:\n        /* \"#utility.yul\":1237:1359   */\n      pop\n      jump\t// out\n        /* \"#utility.yul\":1365:1504   */\n    tag_143:\n        /* \"#utility.yul\":1411:1416   */\n      0x00\n        /* \"#utility.yul\":1449:1455   */\n      dup2\n        /* \"#utility.yul\":1436:1456   */\n      calldataload\n        /* \"#utility.yul\":1427:1456   */\n      swap1\n      pop\n        /* \"#utility.yul\":1465:1498   */\n      tag_186\n        /* \"#utility.yul\":1492:1497   */\n      dup2\n        /* \"#utility.yul\":1465:1498   */\n      tag_142\n      jump\t// in\n    tag_186:\n        /* \"#utility.yul\":1365:1504   */\n      swap3\n      swap2\n      pop\n      pop\n      jump\t// out\n        /* \"#utility.yul\":1510:1839   */\n    tag_16:\n        /* \"#utility.yul\":1569:1575   */\n      0x00\n        /* \"#utility.yul\":1618:1620   */\n      0x20\n        /* \"#utility.yul\":1606:1615   */\n      dup3\n        /* \"#utility.yul\":1597:1604   */\n      dup5\n        /* \"#utility.yul\":1593:1616   */\n      sub\n        /* \"#utility.yul\":1589:1621   */\n      slt\n        /* \"#utility.yul\":1586:1705   */\n      iszero\n      tag_188\n      jumpi\n        /* \"#utility.yul\":1624:1703   */\n      tag_189\n      tag_140\n      jump\t// in\n    tag_189:\n        /* \"#utility.yul\":1586:1705   */\n    tag_188:\n        /* \"#utility.yul\":1744:1745   */\n      0x00\n        /* \"#utility.yul\":1769:1822   */\n      tag_190\n        /* \"#utility.yul\":1814:1821   */\n      dup5\n        /* \"#utility.yul\":1805:1811   */\n      dup3\n        /* \"#utility.yul\":1794:1803   */\n      dup6\n        /* \"#utility.yul\":1790:1812   */\n      add\n        /* \"#utility.yul\":1769:1822   */\n      tag_143\n      jump\t// in\n    tag_190:\n        /* \"#utility.yul\":1759:1822   */\n      swap2\n      pop\n        /* \"#utility.yul\":1715:1832   */\n      pop\n        /* \"#utility.yul\":1510:1839   */\n      swap3\n      swap2\n      pop\n      pop\n      jump\t// out\n        /* \"#utility.yul\":1845:1967   */\n    tag_144:\n        /* \"#utility.yul\":1918:1942   */\n      tag_192\n        /* \"#utility.yul\":1936:1941   */\n      dup2\n        /* \"#utility.yul\":1918:1942   */\n      tag_135\n      jump\t// in\n    tag_192:\n        /* \"#utility.yul\":1911:1916   */\n      dup2\n        /* \"#utility.yul\":1908:1943   */\n      eq\n        /* \"#utility.yul\":1898:1961   */\n      tag_193\n      jumpi\n        /* \"#utility.yul\":1957:1958   */\n      0x00\n        /* \"#utility.yul\":1954:1955   */\n      dup1\n        /* \"#utility.yul\":1947:1959   */\n      revert\n        /* \"#utility.yul\":1898:1961   */\n    tag_193:\n        /* \"#utility.yul\":1845:1967   */\n      pop\n      jump\t// out\n        /* \"#utility.yul\":1973:2112   */\n    tag_145:\n        /* \"#utility.yul\":2019:2024   */\n      0x00\n        /* \"#utility.yul\":2057:2063   */\n      dup2\n        /* \"#utility.yul\":2044:2064   */\n      calldataload\n        /* \"#utility.yul\":2035:2064   */\n      swap1\n      pop\n        /* \"#utility.yul\":2073:2106   */\n      tag_195\n        /* \"#utility.yul\":2100:2105   */\n      dup2\n        /* \"#utility.yul\":2073:2106   */\n      tag_144\n      jump\t// in\n    tag_195:\n        /* \"#utility.yul\":1973:2112   */\n      swap3\n      swap2\n      pop\n      pop\n      jump\t// out\n        /* \"#utility.yul\":2118:2447   */\n    tag_21:\n        /* \"#utility.yul\":2177:2183   */\n      0x00\n        /* \"#utility.yul\":2226:2228   */\n      0x20\n        /* \"#utility.yul\":2214:2223   */\n      dup3\n        /* \"#utility.yul\":2205:2212   */\n      dup5\n        /* \"#utility.yul\":2201:2224   */\n      sub\n        /* \"#utility.yul\":2197:2229   */\n      slt\n        /* \"#utility.yul\":2194:2313   */\n      iszero\n      tag_197\n      jumpi\n        /* \"#utility.yul\":2232:2311   */\n      tag_198\n      tag_140\n      jump\t// in\n    tag_198:\n        /* \"#utility.yul\":2194:2313   */\n    tag_197:\n        /* \"#utility.yul\":2352:2353   */\n      0x00\n        /* \"#utility.yul\":2377:2430   */\n      tag_199\n        /* \"#utility.yul\":2422:2429   */\n      dup5\n        /* \"#utility.yul\":2413:2419   */\n      dup3\n        /* \"#utility.yul\":2402:2411   */\n      dup6\n        /* \"#utility.yul\":2398:2420   */\n      add\n        /* \"#utility.yul\":2377:2430   */\n      tag_145\n      jump\t// in\n    tag_199:\n        /* \"#utility.yul\":2367:2430   */\n      swap2\n      pop\n        /* \"#utility.yul\":2323:2440   */\n      pop\n        /* \"#utility.yul\":2118:2447   */\n      swap3\n      swap2\n      pop\n      pop\n      jump\t// out\n        /* \"#utility.yul\":2453:2543   */\n    tag_146:\n        /* \"#utility.yul\":2487:2494   */\n      0x00\n        /* \"#utility.yul\":2530:2535   */\n      dup2\n        /* \"#utility.yul\":2523:2536   */\n      iszero\n        /* \"#utility.yul\":2516:2537   */\n      iszero\n        /* \"#utility.yul\":2505:2537   */\n      swap1\n      pop\n        /* \"#utility.yul\":2453:2543   */\n      swap2\n      swap1\n      pop\n      jump\t// out\n        /* \"#utility.yul\":2549:2658   */\n    tag_147:\n        /* \"#utility.yul\":2630:2651   */\n      tag_202\n        /* \"#utility.yul\":2645:2650   */\n      dup2\n        /* \"#utility.yul\":2630:2651   */\n      tag_146\n      jump\t// in\n    tag_202:\n        /* \"#utility.yul\":2625:2628   */\n      dup3\n        /* \"#utility.yul\":2618:2652   */\n      mstore\n        /* \"#utility.yul\":2549:2658   */\n      pop\n      pop\n      jump\t// out\n        /* \"#utility.yul\":2664:2874   */\n    tag_24:\n        /* \"#utility.yul\":2751:2755   */\n      0x00\n        /* \"#utility.yul\":2789:2791   */\n      0x20\n        /* \"#utility.yul\":2778:2787   */\n      dup3\n        /* \"#utility.yul\":2774:2792   */\n      add\n        /* \"#utility.yul\":2766:2792   */\n      swap1\n      pop\n        /* \"#utility.yul\":2802:2867   */\n      tag_204\n        /* \"#utility.yul\":2864:2865   */\n      0x00\n        /* \"#utility.yul\":2853:2862   */\n      dup4\n        /* \"#utility.yul\":2849:2866   */\n      add\n        /* \"#utility.yul\":2840:2846   */\n      dup5\n        /* \"#utility.yul\":2802:2867   */\n      tag_147\n      jump\t// in\n    tag_204:\n        /* \"#utility.yul\":2664:2874   */\n      swap3\n      swap2\n      pop\n      pop\n      jump\t// out\n        /* \"#utility.yul\":2880:3102   */\n    tag_34:\n        /* \"#utility.yul\":2973:2977   */\n      0x00\n        /* \"#utility.yul\":3011:3013   */\n      0x20\n        /* \"#utility.yul\":3000:3009   */\n      dup3\n        /* \"#utility.yul\":2996:3014   */\n      add\n        /* \"#utility.yul\":2988:3014   */\n      swap1\n      pop\n        /* \"#utility.yul\":3024:3095   */\n      tag_206\n        /* \"#utility.yul\":3092:3093   */\n      0x00\n        /* \"#utility.yul\":3081:3090   */\n      dup4\n        /* \"#utility.yul\":3077:3094   */\n      add\n        /* \"#utility.yul\":3068:3074   */\n      dup5\n        /* \"#utility.yul\":3024:3095   */\n      tag_138\n      jump\t// in\n    tag_206:\n        /* \"#utility.yul\":2880:3102   */\n      swap3\n      swap2\n      pop\n      pop\n      jump\t// out\n        /* \"#utility.yul\":3108:3582   */\n    tag_38:\n        /* \"#utility.yul\":3176:3182   */\n      0x00\n        /* \"#utility.yul\":3184:3190   */\n      dup1\n        /* \"#utility.yul\":3233:3235   */\n      0x40\n        /* \"#utility.yul\":3221:3230   */\n      dup4\n        /* \"#utility.yul\":3212:3219   */\n      dup6\n        /* \"#utility.yul\":3208:3231   */\n      sub\n        /* \"#utility.yul\":3204:3236   */\n      slt\n        /* \"#utility.yul\":3201:3320   */\n      iszero\n      tag_208\n      jumpi\n        /* \"#utility.yul\":3239:3318   */\n      tag_209\n      tag_140\n      jump\t// in\n    tag_209:\n        /* \"#utility.yul\":3201:3320   */\n    tag_208:\n        /* \"#utility.yul\":3359:3360   */\n      0x00\n        /* \"#utility.yul\":3384:3437   */\n      tag_210\n        /* \"#utility.yul\":3429:3436   */\n      dup6\n        /* \"#utility.yul\":3420:3426   */\n      dup3\n        /* \"#utility.yul\":3409:3418   */\n      dup7\n        /* \"#utility.yul\":3405:3427   */\n      add\n        /* \"#utility.yul\":3384:3437   */\n      tag_145\n      jump\t// in\n    tag_210:\n        /* \"#utility.yul\":3374:3437   */\n      swap3\n      pop\n        /* \"#utility.yul\":3330:3447   */\n      pop\n        /* \"#utility.yul\":3486:3488   */\n      0x20\n        /* \"#utility.yul\":3512:3565   */\n      tag_211\n        /* \"#utility.yul\":3557:3564   */\n      dup6\n        /* \"#utility.yul\":3548:3554   */\n      dup3\n        /* \"#utility.yul\":3537:3546   */\n      dup7\n        /* \"#utility.yul\":3533:3555   */\n      add\n        /* \"#utility.yul\":3512:3565   */\n      tag_143\n      jump\t// in\n    tag_211:\n        /* \"#utility.yul\":3502:3565   */\n      swap2\n      pop\n        /* \"#utility.yul\":3457:3575   */\n      pop\n        /* \"#utility.yul\":3108:3582   */\n      swap3\n      pop\n      swap3\n      swap1\n      pop\n      jump\t// out\n        /* \"#utility.yul\":3588:3757   */\n    tag_148:\n        /* \"#utility.yul\":3672:3683   */\n      0x00\n        /* \"#utility.yul\":3706:3712   */\n      dup3\n        /* \"#utility.yul\":3701:3704   */\n      dup3\n        /* \"#utility.yul\":3694:3713   */\n      mstore\n        /* \"#utility.yul\":3746:3750   */\n      0x20\n        /* \"#utility.yul\":3741:3744   */\n      dup3\n        /* \"#utility.yul\":3737:3751   */\n      add\n        /* \"#utility.yul\":3722:3751   */\n      swap1\n      pop\n        /* \"#utility.yul\":3588:3757   */\n      swap3\n      swap2\n      pop\n      pop\n      jump\t// out\n        /* \"#utility.yul\":3763:3944   */\n    tag_149:\n        /* \"#utility.yul\":3903:3936   */\n      0x5472616e73616374696f6e20416c726561647920417070726f7665642e2e2e00\n        /* \"#utility.yul\":3899:3900   */\n      0x00\n        /* \"#utility.yul\":3891:3897   */\n      dup3\n        /* \"#utility.yul\":3887:3901   */\n      add\n        /* \"#utility.yul\":3880:3937   */\n      mstore\n        /* \"#utility.yul\":3763:3944   */\n      pop\n      jump\t// out\n        /* \"#utility.yul\":3950:4316   */\n    tag_150:\n        /* \"#utility.yul\":4092:4095   */\n      0x00\n        /* \"#utility.yul\":4113:4180   */\n      tag_215\n        /* \"#utility.yul\":4177:4179   */\n      0x1f\n        /* \"#utility.yul\":4172:4175   */\n      dup4\n        /* \"#utility.yul\":4113:4180   */\n      tag_148\n      jump\t// in\n    tag_215:\n        /* \"#utility.yul\":4106:4180   */\n      swap2\n      pop\n        /* \"#utility.yul\":4189:4282   */\n      tag_216\n        /* \"#utility.yul\":4278:4281   */\n      dup3\n        /* \"#utility.yul\":4189:4282   */\n      tag_149\n      jump\t// in\n    tag_216:\n        /* \"#utility.yul\":4307:4309   */\n      0x20\n        /* \"#utility.yul\":4302:4305   */\n      dup3\n        /* \"#utility.yul\":4298:4310   */\n      add\n        /* \"#utility.yul\":4291:4310   */\n      swap1\n      pop\n        /* \"#utility.yul\":3950:4316   */\n      swap2\n      swap1\n      pop\n      jump\t// out\n        /* \"#utility.yul\":4322:4741   */\n    tag_47:\n        /* \"#utility.yul\":4488:4492   */\n      0x00\n        /* \"#utility.yul\":4526:4528   */\n      0x20\n        /* \"#utility.yul\":4515:4524   */\n      dup3\n        /* \"#utility.yul\":4511:4529   */\n      add\n        /* \"#utility.yul\":4503:4529   */\n      swap1\n      pop\n        /* \"#utility.yul\":4575:4584   */\n      dup2\n        /* \"#utility.yul\":4569:4573   */\n      dup2\n        /* \"#utility.yul\":4565:4585   */\n      sub\n        /* \"#utility.yul\":4561:4562   */\n      0x00\n        /* \"#utility.yul\":4550:4559   */\n      dup4\n        /* \"#utility.yul\":4546:4563   */\n      add\n        /* \"#utility.yul\":4539:4586   */\n      mstore\n        /* \"#utility.yul\":4603:4734   */\n      tag_218\n        /* \"#utility.yul\":4729:4733   */\n      dup2\n        /* \"#utility.yul\":4603:4734   */\n      tag_150\n      jump\t// in\n    tag_218:\n        /* \"#utility.yul\":4595:4734   */\n      swap1\n      pop\n        /* \"#utility.yul\":4322:4741   */\n      swap2\n      swap1\n      pop\n      jump\t// out\n        /* \"#utility.yul\":4747:4927   */\n    tag_151:\n        /* \"#utility.yul\":4795:4872   */\n      0x4e487b7100000000000000000000000000000000000000000000000000000000\n        /* \"#utility.yul\":4792:4793   */\n      0x00\n        /* \"#utility.yul\":4785:4873   */\n      mstore\n        /* \"#utility.yul\":4892:4896   */\n      0x11\n        /* \"#utility.yul\":4889:4890   */\n      0x04\n        /* \"#utility.yul\":4882:4897   */\n      mstore\n        /* \"#utility.yul\":4916:4920   */\n      0x24\n        /* \"#utility.yul\":4913:4914   */\n      0x00\n        /* \"#utility.yul\":4906:4921   */\n      revert\n        /* \"#utility.yul\":4933:5127   */\n    tag_50:\n        /* \"#utility.yul\":4973:4977   */\n      0x00\n        /* \"#utility.yul\":4993:5013   */\n      tag_221\n        /* \"#utility.yul\":5011:5012   */\n      dup3\n        /* \"#utility.yul\":4993:5013   */\n      tag_137\n      jump\t// in\n    tag_221:\n        /* \"#utility.yul\":4988:5013   */\n      swap2\n      pop\n        /* \"#utility.yul\":5027:5047   */\n      tag_222\n        /* \"#utility.yul\":5045:5046   */\n      dup4\n        /* \"#utility.yul\":5027:5047   */\n      tag_137\n      jump\t// in\n    tag_222:\n        /* \"#utility.yul\":5022:5047   */\n      swap3\n      pop\n        /* \"#utility.yul\":5071:5072   */\n      dup3\n        /* \"#utility.yul\":5068:5069   */\n      dup3\n        /* \"#utility.yul\":5064:5073   */\n      sub\n        /* \"#utility.yul\":5056:5073   */\n      swap1\n      pop\n        /* \"#utility.yul\":5095:5096   */\n      dup2\n        /* \"#utility.yul\":5089:5093   */\n      dup2\n        /* \"#utility.yul\":5086:5097   */\n      gt\n        /* \"#utility.yul\":5083:5120   */\n      iszero\n      tag_223\n      jumpi\n        /* \"#utility.yul\":5100:5118   */\n      tag_224\n      tag_151\n      jump\t// in\n    tag_224:\n        /* \"#utility.yul\":5083:5120   */\n    tag_223:\n        /* \"#utility.yul\":4933:5127   */\n      swap3\n      swap2\n      pop\n      pop\n      jump\t// out\n        /* \"#utility.yul\":5133:5312   */\n    tag_152:\n        /* \"#utility.yul\":5273:5304   */\n      0x5472616e73616374696f6e20446f6573206e6f742045786973742e2e2e000000\n        /* \"#utility.yul\":5269:5270   */\n      0x00\n        /* \"#utility.yul\":5261:5267   */\n      dup3\n        /* \"#utility.yul\":5257:5271   */\n      add\n        /* \"#utility.yul\":5250:5305   */\n      mstore\n        /* \"#utility.yul\":5133:5312   */\n      pop\n      jump\t// out\n        /* \"#utility.yul\":5318:5684   */\n    tag_153:\n        /* \"#utility.yul\":5460:5463   */\n      0x00\n        /* \"#utility.yul\":5481:5548   */\n      tag_227\n        /* \"#utility.yul\":5545:5547   */\n      0x1d\n        /* \"#utility.yul\":5540:5543   */\n      dup4\n        /* \"#utility.yul\":5481:5548   */\n      tag_148\n      jump\t// in\n    tag_227:\n        /* \"#utility.yul\":5474:5548   */\n      swap2\n      pop\n        /* \"#utility.yul\":5557:5650   */\n      tag_228\n        /* \"#utility.yul\":5646:5649   */\n      dup3\n        /* \"#utility.yul\":5557:5650   */\n      tag_152\n      jump\t// in\n    tag_228:\n        /* \"#utility.yul\":5675:5677   */\n      0x20\n        /* \"#utility.yul\":5670:5673   */\n      dup3\n        /* \"#utility.yul\":5666:5678   */\n      add\n        /* \"#utility.yul\":5659:5678   */\n      swap1\n      pop\n        /* \"#utility.yul\":5318:5684   */\n      swap2\n      swap1\n      pop\n      jump\t// out\n        /* \"#utility.yul\":5690:6109   */\n    tag_53:\n        /* \"#utility.yul\":5856:5860   */\n      0x00\n        /* \"#utility.yul\":5894:5896   */\n      0x20\n        /* \"#utility.yul\":5883:5892   */\n      dup3\n        /* \"#utility.yul\":5879:5897   */\n      add\n        /* \"#utility.yul\":5871:5897   */\n      swap1\n      pop\n        /* \"#utility.yul\":5943:5952   */\n      dup2\n        /* \"#utility.yul\":5937:5941   */\n      dup2\n        /* \"#utility.yul\":5933:5953   */\n      sub\n        /* \"#utility.yul\":5929:5930   */\n      0x00\n        /* \"#utility.yul\":5918:5927   */\n      dup4\n        /* \"#utility.yul\":5914:5931   */\n      add\n        /* \"#utility.yul\":5907:5954   */\n      mstore\n        /* \"#utility.yul\":5971:6102   */\n      tag_230\n        /* \"#utility.yul\":6097:6101   */\n      dup2\n        /* \"#utility.yul\":5971:6102   */\n      tag_153\n      jump\t// in\n    tag_230:\n        /* \"#utility.yul\":5963:6102   */\n      swap1\n      pop\n        /* \"#utility.yul\":5690:6109   */\n      swap2\n      swap1\n      pop\n      jump\t// out\n        /* \"#utility.yul\":6115:6282   */\n    tag_154:\n        /* \"#utility.yul\":6255:6274   */\n      0x4e6f7420746865204f776e65722e2e2e2e000000000000000000000000000000\n        /* \"#utility.yul\":6251:6252   */\n      0x00\n        /* \"#utility.yul\":6243:6249   */\n      dup3\n        /* \"#utility.yul\":6239:6253   */\n      add\n        /* \"#utility.yul\":6232:6275   */\n      mstore\n        /* \"#utility.yul\":6115:6282   */\n      pop\n      jump\t// out\n        /* \"#utility.yul\":6288:6654   */\n    tag_155:\n        /* \"#utility.yul\":6430:6433   */\n      0x00\n        /* \"#utility.yul\":6451:6518   */\n      tag_233\n        /* \"#utility.yul\":6515:6517   */\n      0x11\n        /* \"#utility.yul\":6510:6513   */\n      dup4\n        /* \"#utility.yul\":6451:6518   */\n      tag_148\n      jump\t// in\n    tag_233:\n        /* \"#utility.yul\":6444:6518   */\n      swap2\n      pop\n        /* \"#utility.yul\":6527:6620   */\n      tag_234\n        /* \"#utility.yul\":6616:6619   */\n      dup3\n        /* \"#utility.yul\":6527:6620   */\n      tag_154\n      jump\t// in\n    tag_234:\n        /* \"#utility.yul\":6645:6647   */\n      0x20\n        /* \"#utility.yul\":6640:6643   */\n      dup3\n        /* \"#utility.yul\":6636:6648   */\n      add\n        /* \"#utility.yul\":6629:6648   */\n      swap1\n      pop\n        /* \"#utility.yul\":6288:6654   */\n      swap2\n      swap1\n      pop\n      jump\t// out\n        /* \"#utility.yul\":6660:7079   */\n    tag_57:\n        /* \"#utility.yul\":6826:6830   */\n      0x00\n        /* \"#utility.yul\":6864:6866   */\n      0x20\n        /* \"#utility.yul\":6853:6862   */\n      dup3\n        /* \"#utility.yul\":6849:6867   */\n      add\n        /* \"#utility.yul\":6841:6867   */\n      swap1\n      pop\n        /* \"#utility.yul\":6913:6922   */\n      dup2\n        /* \"#utility.yul\":6907:6911   */\n      dup2\n        /* \"#utility.yul\":6903:6923   */\n      sub\n        /* \"#utility.yul\":6899:6900   */\n      0x00\n        /* \"#utility.yul\":6888:6897   */\n      dup4\n        /* \"#utility.yul\":6884:6901   */\n      add\n        /* \"#utility.yul\":6877:6924   */\n      mstore\n        /* \"#utility.yul\":6941:7072   */\n      tag_236\n        /* \"#utility.yul\":7067:7071   */\n      dup2\n        /* \"#utility.yul\":6941:7072   */\n      tag_155\n      jump\t// in\n    tag_236:\n        /* \"#utility.yul\":6933:7072   */\n      swap1\n      pop\n        /* \"#utility.yul\":6660:7079   */\n      swap2\n      swap1\n      pop\n      jump\t// out\n        /* \"#utility.yul\":7085:7265   */\n    tag_61:\n        /* \"#utility.yul\":7133:7210   */\n      0x4e487b7100000000000000000000000000000000000000000000000000000000\n        /* \"#utility.yul\":7130:7131   */\n      0x00\n        /* \"#utility.yul\":7123:7211   */\n      mstore\n        /* \"#utility.yul\":7230:7234   */\n      0x32\n        /* \"#utility.yul\":7227:7228   */\n      0x04\n        /* \"#utility.yul\":7220:7235   */\n      mstore\n        /* \"#utility.yul\":7254:7258   */\n      0x24\n        /* \"#utility.yul\":7251:7252   */\n      0x00\n        /* \"#utility.yul\":7244:7259   */\n      revert\n        /* \"#utility.yul\":7271:7449   */\n    tag_156:\n        /* \"#utility.yul\":7411:7441   */\n      0x5472616e73616374696f6e20416c726561647920457865637574656400000000\n        /* \"#utility.yul\":7407:7408   */\n      0x00\n        /* \"#utility.yul\":7399:7405   */\n      dup3\n        /* \"#utility.yul\":7395:7409   */\n      add\n        /* \"#utility.yul\":7388:7442   */\n      mstore\n        /* \"#utility.yul\":7271:7449   */\n      pop\n      jump\t// out\n        /* \"#utility.yul\":7455:7821   */\n    tag_157:\n        /* \"#utility.yul\":7597:7600   */\n      0x00\n        /* \"#utility.yul\":7618:7685   */\n      tag_240\n        /* \"#utility.yul\":7682:7684   */\n      0x1c\n        /* \"#utility.yul\":7677:7680   */\n      dup4\n        /* \"#utility.yul\":7618:7685   */\n      tag_148\n      jump\t// in\n    tag_240:\n        /* \"#utility.yul\":7611:7685   */\n      swap2\n      pop\n        /* \"#utility.yul\":7694:7787   */\n      tag_241\n        /* \"#utility.yul\":7783:7786   */\n      dup3\n        /* \"#utility.yul\":7694:7787   */\n      tag_156\n      jump\t// in\n    tag_241:\n        /* \"#utility.yul\":7812:7814   */\n      0x20\n        /* \"#utility.yul\":7807:7810   */\n      dup3\n        /* \"#utility.yul\":7803:7815   */\n      add\n        /* \"#utility.yul\":7796:7815   */\n      swap1\n      pop\n        /* \"#utility.yul\":7455:7821   */\n      swap2\n      swap1\n      pop\n      jump\t// out\n        /* \"#utility.yul\":7827:8246   */\n    tag_65:\n        /* \"#utility.yul\":7993:7997   */\n      0x00\n        /* \"#utility.yul\":8031:8033   */\n      0x20\n        /* \"#utility.yul\":8020:8029   */\n      dup3\n        /* \"#utility.yul\":8016:8034   */\n      add\n        /* \"#utility.yul\":8008:8034   */\n      swap1\n      pop\n        /* \"#utility.yul\":8080:8089   */\n      dup2\n        /* \"#utility.yul\":8074:8078   */\n      dup2\n        /* \"#utility.yul\":8070:8090   */\n      sub\n        /* \"#utility.yul\":8066:8067   */\n      0x00\n        /* \"#utility.yul\":8055:8064   */\n      dup4\n        /* \"#utility.yul\":8051:8068   */\n      add\n        /* \"#utility.yul\":8044:8091   */\n      mstore\n        /* \"#utility.yul\":8108:8239   */\n      tag_243\n        /* \"#utility.yul\":8234:8238   */\n      dup2\n        /* \"#utility.yul\":8108:8239   */\n      tag_157\n      jump\t// in\n    tag_243:\n        /* \"#utility.yul\":8100:8239   */\n      swap1\n      pop\n        /* \"#utility.yul\":7827:8246   */\n      swap2\n      swap1\n      pop\n      jump\t// out\n        /* \"#utility.yul\":8252:8584   */\n    tag_68:\n        /* \"#utility.yul\":8373:8377   */\n      0x00\n        /* \"#utility.yul\":8411:8413   */\n      0x40\n        /* \"#utility.yul\":8400:8409   */\n      dup3\n        /* \"#utility.yul\":8396:8414   */\n      add\n        /* \"#utility.yul\":8388:8414   */\n      swap1\n      pop\n        /* \"#utility.yul\":8424:8495   */\n      tag_245\n        /* \"#utility.yul\":8492:8493   */\n      0x00\n        /* \"#utility.yul\":8481:8490   */\n      dup4\n        /* \"#utility.yul\":8477:8494   */\n      add\n        /* \"#utility.yul\":8468:8474   */\n      dup6\n        /* \"#utility.yul\":8424:8495   */\n      tag_138\n      jump\t// in\n    tag_245:\n        /* \"#utility.yul\":8505:8577   */\n      tag_246\n        /* \"#utility.yul\":8573:8575   */\n      0x20\n        /* \"#utility.yul\":8562:8571   */\n      dup4\n        /* \"#utility.yul\":8558:8576   */\n      add\n        /* \"#utility.yul\":8549:8555   */\n      dup5\n        /* \"#utility.yul\":8505:8577   */\n      tag_136\n      jump\t// in\n    tag_246:\n        /* \"#utility.yul\":8252:8584   */\n      swap4\n      swap3\n      pop\n      pop\n      pop\n      jump\t// out\n        /* \"#utility.yul\":8590:8767   */\n    tag_158:\n        /* \"#utility.yul\":8730:8759   */\n      0x5472616e73616374696f6e204e6f7420417070726f7665642e2e2e0000000000\n        /* \"#utility.yul\":8726:8727   */\n      0x00\n        /* \"#utility.yul\":8718:8724   */\n      dup3\n        /* \"#utility.yul\":8714:8728   */\n      add\n        /* \"#utility.yul\":8707:8760   */\n      mstore\n        /* \"#utility.yul\":8590:8767   */\n      pop\n      jump\t// out\n        /* \"#utility.yul\":8773:9139   */\n    tag_159:\n        /* \"#utility.yul\":8915:8918   */\n      0x00\n        /* \"#utility.yul\":8936:9003   */\n      tag_249\n        /* \"#utility.yul\":9000:9002   */\n      0x1b\n        /* \"#utility.yul\":8995:8998   */\n      dup4\n        /* \"#utility.yul\":8936:9003   */\n      tag_148\n      jump\t// in\n    tag_249:\n        /* \"#utility.yul\":8929:9003   */\n      swap2\n      pop\n        /* \"#utility.yul\":9012:9105   */\n      tag_250\n        /* \"#utility.yul\":9101:9104   */\n      dup3\n        /* \"#utility.yul\":9012:9105   */\n      tag_158\n      jump\t// in\n    tag_250:\n        /* \"#utility.yul\":9130:9132   */\n      0x20\n        /* \"#utility.yul\":9125:9128   */\n      dup3\n        /* \"#utility.yul\":9121:9133   */\n      add\n        /* \"#utility.yul\":9114:9133   */\n      swap1\n      pop\n        /* \"#utility.yul\":8773:9139   */\n      swap2\n      swap1\n      pop\n      jump\t// out\n        /* \"#utility.yul\":9145:9564   */\n    tag_72:\n        /* \"#utility.yul\":9311:9315   */\n      0x00\n        /* \"#utility.yul\":9349:9351   */\n      0x20\n        /* \"#utility.yul\":9338:9347   */\n      dup3\n        /* \"#utility.yul\":9334:9352   */\n      add\n        /* \"#utility.yul\":9326:9352   */\n      swap1\n      pop\n        /* \"#utility.yul\":9398:9407   */\n      dup2\n        /* \"#utility.yul\":9392:9396   */\n      dup2\n        /* \"#utility.yul\":9388:9408   */\n      sub\n        /* \"#utility.yul\":9384:9385   */\n      0x00\n        /* \"#utility.yul\":9373:9382   */\n      dup4\n        /* \"#utility.yul\":9369:9386   */\n      add\n        /* \"#utility.yul\":9362:9409   */\n      mstore\n        /* \"#utility.yul\":9426:9557   */\n      tag_252\n        /* \"#utility.yul\":9552:9556   */\n      dup2\n        /* \"#utility.yul\":9426:9557   */\n      tag_159\n      jump\t// in\n    tag_252:\n        /* \"#utility.yul\":9418:9557   */\n      swap1\n      pop\n        /* \"#utility.yul\":9145:9564   */\n      swap2\n      swap1\n      pop\n      jump\t// out\n        /* \"#utility.yul\":9570:9761   */\n    tag_97:\n        /* \"#utility.yul\":9610:9613   */\n      0x00\n        /* \"#utility.yul\":9629:9649   */\n      tag_254\n        /* \"#utility.yul\":9647:9648   */\n      dup3\n        /* \"#utility.yul\":9629:9649   */\n      tag_137\n      jump\t// in\n    tag_254:\n        /* \"#utility.yul\":9624:9649   */\n      swap2\n      pop\n        /* \"#utility.yul\":9663:9683   */\n      tag_255\n        /* \"#utility.yul\":9681:9682   */\n      dup4\n        /* \"#utility.yul\":9663:9683   */\n      tag_137\n      jump\t// in\n    tag_255:\n        /* \"#utility.yul\":9658:9683   */\n      swap3\n      pop\n        /* \"#utility.yul\":9706:9707   */\n      dup3\n        /* \"#utility.yul\":9703:9704   */\n      dup3\n        /* \"#utility.yul\":9699:9708   */\n      add\n        /* \"#utility.yul\":9692:9708   */\n      swap1\n      pop\n        /* \"#utility.yul\":9727:9730   */\n      dup1\n        /* \"#utility.yul\":9724:9725   */\n      dup3\n        /* \"#utility.yul\":9721:9731   */\n      gt\n        /* \"#utility.yul\":9718:9754   */\n      iszero\n      tag_256\n      jumpi\n        /* \"#utility.yul\":9734:9752   */\n      tag_257\n      tag_151\n      jump\t// in\n    tag_257:\n        /* \"#utility.yul\":9718:9754   */\n    tag_256:\n        /* \"#utility.yul\":9570:9761   */\n      swap3\n      swap2\n      pop\n      pop\n      jump\t// out\n        /* \"#utility.yul\":9767:10000   */\n    tag_99:\n        /* \"#utility.yul\":9806:9809   */\n      0x00\n        /* \"#utility.yul\":9829:9853   */\n      tag_259\n        /* \"#utility.yul\":9847:9852   */\n      dup3\n        /* \"#utility.yul\":9829:9853   */\n      tag_137\n      jump\t// in\n    tag_259:\n        /* \"#utility.yul\":9820:9853   */\n      swap2\n      pop\n        /* \"#utility.yul\":9875:9941   */\n      0xffffffffffffffffffffffffffffffffffffffffffffffffffffffffffffffff\n        /* \"#utility.yul\":9868:9873   */\n      dup3\n        /* \"#utility.yul\":9865:9942   */\n      sub\n        /* \"#utility.yul\":9862:9965   */\n      tag_260\n      jumpi\n        /* \"#utility.yul\":9945:9963   */\n      tag_261\n      tag_151\n      jump\t// in\n    tag_261:\n        /* \"#utility.yul\":9862:9965   */\n    tag_260:\n        /* \"#utility.yul\":9992:9993   */\n      0x01\n        /* \"#utility.yul\":9985:9990   */\n      dup3\n        /* \"#utility.yul\":9981:9994   */\n      add\n        /* \"#utility.yul\":9974:9994   */\n      swap1\n      pop\n        /* \"#utility.yul\":9767:10000   */\n      swap2\n      swap1\n      pop\n      jump\t// out\n        /* \"#utility.yul\":10006:10179   */\n    tag_160:\n        /* \"#utility.yul\":10146:10171   */\n      0x4e6f7420456e6f75676820417070726f76616c732e2e2e000000000000000000\n        /* \"#utility.yul\":10142:10143   */\n      0x00\n        /* \"#utility.yul\":10134:10140   */\n      dup3\n        /* \"#utility.yul\":10130:10144   */\n      add\n        /* \"#utility.yul\":10123:10172   */\n      mstore\n        /* \"#utility.yul\":10006:10179   */\n      pop\n      jump\t// out\n        /* \"#utility.yul\":10185:10551   */\n    tag_161:\n        /* \"#utility.yul\":10327:10330   */\n      0x00\n        /* \"#utility.yul\":10348:10415   */\n      tag_264\n        /* \"#utility.yul\":10412:10414   */\n      0x17\n        /* \"#utility.yul\":10407:10410   */\n      dup4\n        /* \"#utility.yul\":10348:10415   */\n      tag_148\n      jump\t// in\n    tag_264:\n        /* \"#utility.yul\":10341:10415   */\n      swap2\n      pop\n        /* \"#utility.yul\":10424:10517   */\n      tag_265\n        /* \"#utility.yul\":10513:10516   */\n      dup3\n        /* \"#utility.yul\":10424:10517   */\n      tag_160\n      jump\t// in\n    tag_265:\n        /* \"#utility.yul\":10542:10544   */\n      0x20\n        /* \"#utility.yul\":10537:10540   */\n      dup3\n        /* \"#utility.yul\":10533:10545   */\n      add\n        /* \"#utility.yul\":10526:10545   */\n      swap1\n      pop\n        /* \"#utility.yul\":10185:10551   */\n      swap2\n      swap1\n      pop\n      jump\t// out\n        /* \"#utility.yul\":10557:10976   */\n    tag_122:\n        /* \"#utility.yul\":10723:10727   */\n      0x00\n        /* \"#utility.yul\":10761:10763   */\n      0x20\n        /* \"#utility.yul\":10750:10759   */\n      dup3\n        /* \"#utility.yul\":10746:10764   */\n      add\n        /* \"#utility.yul\":10738:10764   */\n      swap1\n      pop\n        /* \"#utility.yul\":10810:10819   */\n      dup2\n        /* \"#utility.yul\":10804:10808   */\n      dup2\n        /* \"#utility.yul\":10800:10820   */\n      sub\n        /* \"#utility.yul\":10796:10797   */\n      0x00\n        /* \"#utility.yul\":10785:10794   */\n      dup4\n        /* \"#utility.yul\":10781:10798   */\n      add\n        /* \"#utility.yul\":10774:10821   */\n      mstore\n        /* \"#utility.yul\":10838:10969   */\n      tag_267\n        /* \"#utility.yul\":10964:10968   */\n      dup2\n        /* \"#utility.yul\":10838:10969   */\n      tag_161\n      jump\t// in\n    tag_267:\n        /* \"#utility.yul\":10830:10969   */\n      swap1\n      pop\n        /* \"#utility.yul\":10557:10976   */\n      swap2\n      swap1\n      pop\n      jump\t// out\n        /* \"#utility.yul\":10982:11129   */\n    tag_162:\n        /* \"#utility.yul\":11083:11094   */\n      0x00\n        /* \"#utility.yul\":11120:11123   */\n      dup2\n        /* \"#utility.yul\":11105:11123   */\n      swap1\n      pop\n        /* \"#utility.yul\":10982:11129   */\n      swap3\n      swap2\n      pop\n      pop\n      jump\t// out\n        /* \"#utility.yul\":11135:11249   */\n    tag_163:\n      pop\n      jump\t// out\n        /* \"#utility.yul\":11255:11653   */\n    tag_164:\n        /* \"#utility.yul\":11414:11417   */\n      0x00\n        /* \"#utility.yul\":11435:11518   */\n      tag_271\n        /* \"#utility.yul\":11516:11517   */\n      0x00\n        /* \"#utility.yul\":11511:11514   */\n      dup4\n        /* \"#utility.yul\":11435:11518   */\n      tag_162\n      jump\t// in\n    tag_271:\n        /* \"#utility.yul\":11428:11518   */\n      swap2\n      pop\n        /* \"#utility.yul\":11527:11620   */\n      tag_272\n        /* \"#utility.yul\":11616:11619   */\n      dup3\n        /* \"#utility.yul\":11527:11620   */\n      tag_163\n      jump\t// in\n    tag_272:\n        /* \"#utility.yul\":11645:11646   */\n      0x00\n        /* \"#utility.yul\":11640:11643   */\n      dup3\n        /* \"#utility.yul\":11636:11647   */\n      add\n        /* \"#utility.yul\":11629:11647   */\n      swap1\n      pop\n        /* \"#utility.yul\":11255:11653   */\n      swap2\n      swap1\n      pop\n      jump\t// out\n        /* \"#utility.yul\":11659:12038   */\n    tag_127:\n        /* \"#utility.yul\":11843:11846   */\n      0x00\n        /* \"#utility.yul\":11865:12012   */\n      tag_274\n        /* \"#utility.yul\":12008:12011   */\n      dup3\n        /* \"#utility.yul\":11865:12012   */\n      tag_164\n      jump\t// in\n    tag_274:\n        /* \"#utility.yul\":11858:12012   */\n      swap2\n      pop\n        /* \"#utility.yul\":12029:12032   */\n      dup2\n        /* \"#utility.yul\":12022:12032   */\n      swap1\n      pop\n        /* \"#utility.yul\":11659:12038   */\n      swap2\n      swap1\n      pop\n      jump\t// out\n        /* \"#utility.yul\":12044:12216   */\n    tag_165:\n        /* \"#utility.yul\":12184:12208   */\n      0x5472616e73616374696f6e20496e636f6d706c65746500000000000000000000\n        /* \"#utility.yul\":12180:12181   */\n      0x00\n        /* \"#utility.yul\":12172:12178   */\n      dup3\n        /* \"#utility.yul\":12168:12182   */\n      add\n        /* \"#utility.yul\":12161:12209   */\n      mstore\n        /* \"#utility.yul\":12044:12216   */\n      pop\n      jump\t// out\n        /* \"#utility.yul\":12222:12588   */\n    tag_166:\n        /* \"#utility.yul\":12364:12367   */\n      0x00\n        /* \"#utility.yul\":12385:12452   */\n      tag_277\n        /* \"#utility.yul\":12449:12451   */\n      0x16\n        /* \"#utility.yul\":12444:12447   */\n      dup4\n        /* \"#utility.yul\":12385:12452   */\n      tag_148\n      jump\t// in\n    tag_277:\n        /* \"#utility.yul\":12378:12452   */\n      swap2\n      pop\n        /* \"#utility.yul\":12461:12554   */\n      tag_278\n        /* \"#utility.yul\":12550:12553   */\n      dup3\n        /* \"#utility.yul\":12461:12554   */\n      tag_165\n      jump\t// in\n    tag_278:\n        /* \"#utility.yul\":12579:12581   */\n      0x20\n        /* \"#utility.yul\":12574:12577   */\n      dup3\n        /* \"#utility.yul\":12570:12582   */\n      add\n        /* \"#utility.yul\":12563:12582   */\n      swap1\n      pop\n        /* \"#utility.yul\":12222:12588   */\n      swap2\n      swap1\n      pop\n      jump\t// out\n        /* \"#utility.yul\":12594:13013   */\n    tag_133:\n        /* \"#utility.yul\":12760:12764   */\n      0x00\n        /* \"#utility.yul\":12798:12800   */\n      0x20\n        /* \"#utility.yul\":12787:12796   */\n      dup3\n        /* \"#utility.yul\":12783:12801   */\n      add\n        /* \"#utility.yul\":12775:12801   */\n      swap1\n      pop\n        /* \"#utility.yul\":12847:12856   */\n      dup2\n        /* \"#utility.yul\":12841:12845   */\n      dup2\n        /* \"#utility.yul\":12837:12857   */\n      sub\n        /* \"#utility.yul\":12833:12834   */\n      0x00\n        /* \"#utility.yul\":12822:12831   */\n      dup4\n        /* \"#utility.yul\":12818:12835   */\n      add\n        /* \"#utility.yul\":12811:12858   */\n      mstore\n        /* \"#utility.yul\":12875:13006   */\n      tag_280\n        /* \"#utility.yul\":13001:13005   */\n      dup2\n        /* \"#utility.yul\":12875:13006   */\n      tag_166\n      jump\t// in\n    tag_280:\n        /* \"#utility.yul\":12867:13006   */\n      swap1\n      pop\n        /* \"#utility.yul\":12594:13013   */\n      swap2\n      swap1\n      pop\n      jump\t// out\n\n    auxdata: 0xa2646970667358221220b5e695b6f2eb29148c9809f90ac2b967a1bc2b5a082dfb290847ffaa44da099c64736f6c63430008100033\n}\n",
				"bytecode": {
					"linkReferences": {},
					"object": "60806040523480156200001157600080fd5b50604051620019b3380380620019b3833981810160405281019062000037919062000400565b60005b8251811015620001c75760008382815181106200005c576200005b62000466565b5b60200260200101519050600160008273ffffffffffffffffffffffffffffffffffffffff1673ffffffffffffffffffffffffffffffffffffffff16815260200190815260200160002060009054906101000a900460ff1615620000f6576040517f08c379a0000000000000000000000000000000000000000000000000000000008152600401620000ed90620004f6565b60405180910390fd5b6000819080600181540180825580915050600190039060005260206000200160009091909190916101000a81548173ffffffffffffffffffffffffffffffffffffffff021916908373ffffffffffffffffffffffffffffffffffffffff16021790555060018060008373ffffffffffffffffffffffffffffffffffffffff1673ffffffffffffffffffffffffffffffffffffffff16815260200190815260200160002060006101000a81548160ff021916908315150217905550508080620001be9062000547565b9150506200003a565b5080600281905550505062000594565b6000604051905090565b600080fd5b600080fd5b600080fd5b6000601f19601f8301169050919050565b7f4e487b7100000000000000000000000000000000000000000000000000000000600052604160045260246000fd5b6200023b82620001f0565b810181811067ffffffffffffffff821117156200025d576200025c62000201565b5b80604052505050565b600062000272620001d7565b905062000280828262000230565b919050565b600067ffffffffffffffff821115620002a357620002a262000201565b5b602082029050602081019050919050565b600080fd5b600073ffffffffffffffffffffffffffffffffffffffff82169050919050565b6000620002e682620002b9565b9050919050565b620002f881620002d9565b81146200030457600080fd5b50565b6000815190506200031881620002ed565b92915050565b6000620003356200032f8462000285565b62000266565b905080838252602082019050602084028301858111156200035b576200035a620002b4565b5b835b8181101562000388578062000373888262000307565b8452602084019350506020810190506200035d565b5050509392505050565b600082601f830112620003aa57620003a9620001eb565b5b8151620003bc8482602086016200031e565b91505092915050565b6000819050919050565b620003da81620003c5565b8114620003e657600080fd5b50565b600081519050620003fa81620003cf565b92915050565b600080604083850312156200041a5762000419620001e1565b5b600083015167ffffffffffffffff8111156200043b576200043a620001e6565b5b620004498582860162000392565b92505060206200045c85828601620003e9565b9150509250929050565b7f4e487b7100000000000000000000000000000000000000000000000000000000600052603260045260246000fd5b600082825260208201905092915050565b7f416c7265616479204578697374732e2e2e000000000000000000000000000000600082015250565b6000620004de60118362000495565b9150620004eb82620004a6565b602082019050919050565b600060208201905081810360008301526200051181620004cf565b9050919050565b7f4e487b7100000000000000000000000000000000000000000000000000000000600052601160045260246000fd5b60006200055482620003c5565b91507fffffffffffffffffffffffffffffffffffffffffffffffffffffffffffffffff820362000589576200058862000518565b5b600182019050919050565b61140f80620005a46000396000f3fe6080604052600436106100595760003560e01c8063242232d11461009e5780632f54bf6e146100c7578063b1e130fc14610104578063bf97afe01461012d578063e6beded81461016a578063ee22610b1461019357610099565b36610099577fe1fffcc4923d04b559f4d29a8bfc6cda04eb5b0d3c460751c2402c5c5cc9109c333460405161008f929190610de6565b60405180910390a1005b600080fd5b3480156100aa57600080fd5b506100c560048036038101906100c09190610e40565b6101bc565b005b3480156100d357600080fd5b506100ee60048036038101906100e99190610e99565b6104d7565b6040516100fb9190610ee1565b60405180910390f35b34801561011057600080fd5b5061012b60048036038101906101269190610e40565b6104f7565b005b34801561013957600080fd5b50610154600480360381019061014f9190610e40565b610811565b6040516101619190610efc565b60405180910390f35b34801561017657600080fd5b50610191600480360381019061018c9190610f17565b6108eb565b005b34801561019f57600080fd5b506101ba60048036038101906101b59190610e40565b610a4d565b005b806003600082815260200190815260200160002060003373ffffffffffffffffffffffffffffffffffffffff1673ffffffffffffffffffffffffffffffffffffffff16815260200190815260200160002060009054906101000a900460ff161561025b576040517f08c379a000000000000000000000000000000000000000000000000000000000815260040161025290610fb4565b60405180910390fd5b81600160048054905061026e9190611003565b8111156102b0576040517f08c379a00000000000000000000000000000000000000000000000000000000081526004016102a790611083565b60405180910390fd5b600160003373ffffffffffffffffffffffffffffffffffffffff1673ffffffffffffffffffffffffffffffffffffffff16815260200190815260200160002060009054906101000a900460ff1661033c576040517f08c379a0000000000000000000000000000000000000000000000000000000008152600401610333906110ef565b60405180910390fd5b826000600482815481106103535761035261110f565b5b90600052602060002090600302016040518060600160405290816000820160009054906101000a900473ffffffffffffffffffffffffffffffffffffffff1673ffffffffffffffffffffffffffffffffffffffff1673ffffffffffffffffffffffffffffffffffffffff168152602001600182015481526020016002820160009054906101000a900460ff161515151581525050905080604001511561042e576040517f08c379a00000000000000000000000000000000000000000000000000000000081526004016104259061118a565b60405180910390fd5b60016003600087815260200190815260200160002060003373ffffffffffffffffffffffffffffffffffffffff1673ffffffffffffffffffffffffffffffffffffffff16815260200190815260200160002060006101000a81548160ff0219169083151502179055507f47ad3e4b0f4bdbe3ac08708bbc45053d2ff616911b39e65563fd9bd78190964585336040516104c89291906111aa565b60405180910390a15050505050565b60016020528060005260406000206000915054906101000a900460ff1681565b806003600082815260200190815260200160002060003373ffffffffffffffffffffffffffffffffffffffff1673ffffffffffffffffffffffffffffffffffffffff16815260200190815260200160002060009054906101000a900460ff16610595576040517f08c379a000000000000000000000000000000000000000000000000000000000815260040161058c9061121f565b60405180910390fd5b8160016004805490506105a89190611003565b8111156105ea576040517f08c379a00000000000000000000000000000000000000000000000000000000081526004016105e190611083565b60405180910390fd5b600160003373ffffffffffffffffffffffffffffffffffffffff1673ffffffffffffffffffffffffffffffffffffffff16815260200190815260200160002060009054906101000a900460ff16610676576040517f08c379a000000000000000000000000000000000000000000000000000000000815260040161066d906110ef565b60405180910390fd5b8260006004828154811061068d5761068c61110f565b5b90600052602060002090600302016040518060600160405290816000820160009054906101000a900473ffffffffffffffffffffffffffffffffffffffff1673ffffffffffffffffffffffffffffffffffffffff1673ffffffffffffffffffffffffffffffffffffffff168152602001600182015481526020016002820160009054906101000a900460ff1615151515815250509050806040015115610768576040517f08c379a000000000000000000000000000000000000000000000000000000000815260040161075f9061118a565b60405180910390fd5b60006003600087815260200190815260200160002060003373ffffffffffffffffffffffffffffffffffffffff1673ffffffffffffffffffffffffffffffffffffffff16815260200190815260200160002060006101000a81548160ff0219169083151502179055507fd5d64031e0f55cf42bc3b7d0462f8404a4d63f7ccf84be9510cd6a5300552e4285336040516108029291906111aa565b60405180910390a15050505050565b6000805b6000805490508110156108e55760036000848152602001908152602001600020600080838154811061084a5761084961110f565b5b9060005260206000200160009054906101000a900473ffffffffffffffffffffffffffffffffffffffff1673ffffffffffffffffffffffffffffffffffffffff1673ffffffffffffffffffffffffffffffffffffffff16815260200190815260200160002060009054906101000a900460ff16156108d2576001826108cf919061123f565b91505b80806108dd90611273565b915050610815565b50919050565b600160003373ffffffffffffffffffffffffffffffffffffffff1673ffffffffffffffffffffffffffffffffffffffff16815260200190815260200160002060009054906101000a900460ff16610977576040517f08c379a000000000000000000000000000000000000000000000000000000000815260040161096e906110ef565b60405180910390fd5b600460405180606001604052808473ffffffffffffffffffffffffffffffffffffffff16815260200183815260200160001515815250908060018154018082558091505060019003906000526020600020906003020160009091909190915060008201518160000160006101000a81548173ffffffffffffffffffffffffffffffffffffffff021916908373ffffffffffffffffffffffffffffffffffffffff1602179055506020820151816001015560408201518160020160006101000a81548160ff02191690831515021790555050505050565b806001600480549050610a609190611003565b811115610aa2576040517f08c379a0000000000000000000000000000000000000000000000000000000008152600401610a9990611083565b60405180910390fd5b600160003373ffffffffffffffffffffffffffffffffffffffff1673ffffffffffffffffffffffffffffffffffffffff16815260200190815260200160002060009054906101000a900460ff16610b2e576040517f08c379a0000000000000000000000000000000000000000000000000000000008152600401610b25906110ef565b60405180910390fd5b81600060048281548110610b4557610b4461110f565b5b90600052602060002090600302016040518060600160405290816000820160009054906101000a900473ffffffffffffffffffffffffffffffffffffffff1673ffffffffffffffffffffffffffffffffffffffff1673ffffffffffffffffffffffffffffffffffffffff168152602001600182015481526020016002820160009054906101000a900460ff1615151515815250509050806040015115610c20576040517f08c379a0000000000000000000000000000000000000000000000000000000008152600401610c179061118a565b60405180910390fd5b600254610c2c85610811565b1015610c6d576040517f08c379a0000000000000000000000000000000000000000000000000000000008152600401610c6490611307565b60405180910390fd5b600060048581548110610c8357610c8261110f565b5b9060005260206000209060030201905060008160000160009054906101000a900473ffffffffffffffffffffffffffffffffffffffff1673ffffffffffffffffffffffffffffffffffffffff168260010154604051610ce190611358565b60006040518083038185875af1925050503d8060008114610d1e576040519150601f19603f3d011682016040523d82523d6000602084013e610d23565b606091505b5050905080610d67576040517f08c379a0000000000000000000000000000000000000000000000000000000008152600401610d5e906113b9565b60405180910390fd5b60018260020160006101000a81548160ff021916908315150217905550505050505050565b600073ffffffffffffffffffffffffffffffffffffffff82169050919050565b6000610db782610d8c565b9050919050565b610dc781610dac565b82525050565b6000819050919050565b610de081610dcd565b82525050565b6000604082019050610dfb6000830185610dbe565b610e086020830184610dd7565b9392505050565b600080fd5b610e1d81610dcd565b8114610e2857600080fd5b50565b600081359050610e3a81610e14565b92915050565b600060208284031215610e5657610e55610e0f565b5b6000610e6484828501610e2b565b91505092915050565b610e7681610dac565b8114610e8157600080fd5b50565b600081359050610e9381610e6d565b92915050565b600060208284031215610eaf57610eae610e0f565b5b6000610ebd84828501610e84565b91505092915050565b60008115159050919050565b610edb81610ec6565b82525050565b6000602082019050610ef66000830184610ed2565b92915050565b6000602082019050610f116000830184610dd7565b92915050565b60008060408385031215610f2e57610f2d610e0f565b5b6000610f3c85828601610e84565b9250506020610f4d85828601610e2b565b9150509250929050565b600082825260208201905092915050565b7f5472616e73616374696f6e20416c726561647920417070726f7665642e2e2e00600082015250565b6000610f9e601f83610f57565b9150610fa982610f68565b602082019050919050565b60006020820190508181036000830152610fcd81610f91565b9050919050565b7f4e487b7100000000000000000000000000000000000000000000000000000000600052601160045260246000fd5b600061100e82610dcd565b915061101983610dcd565b925082820390508181111561103157611030610fd4565b5b92915050565b7f5472616e73616374696f6e20446f6573206e6f742045786973742e2e2e000000600082015250565b600061106d601d83610f57565b915061107882611037565b602082019050919050565b6000602082019050818103600083015261109c81611060565b9050919050565b7f4e6f7420746865204f776e65722e2e2e2e000000000000000000000000000000600082015250565b60006110d9601183610f57565b91506110e4826110a3565b602082019050919050565b60006020820190508181036000830152611108816110cc565b9050919050565b7f4e487b7100000000000000000000000000000000000000000000000000000000600052603260045260246000fd5b7f5472616e73616374696f6e20416c726561647920457865637574656400000000600082015250565b6000611174601c83610f57565b915061117f8261113e565b602082019050919050565b600060208201905081810360008301526111a381611167565b9050919050565b60006040820190506111bf6000830185610dd7565b6111cc6020830184610dbe565b9392505050565b7f5472616e73616374696f6e204e6f7420417070726f7665642e2e2e0000000000600082015250565b6000611209601b83610f57565b9150611214826111d3565b602082019050919050565b60006020820190508181036000830152611238816111fc565b9050919050565b600061124a82610dcd565b915061125583610dcd565b925082820190508082111561126d5761126c610fd4565b5b92915050565b600061127e82610dcd565b91507fffffffffffffffffffffffffffffffffffffffffffffffffffffffffffffffff82036112b0576112af610fd4565b5b600182019050919050565b7f4e6f7420456e6f75676820417070726f76616c732e2e2e000000000000000000600082015250565b60006112f1601783610f57565b91506112fc826112bb565b602082019050919050565b60006020820190508181036000830152611320816112e4565b9050919050565b600081905092915050565b50565b6000611342600083611327565b915061134d82611332565b600082019050919050565b600061136382611335565b9150819050919050565b7f5472616e73616374696f6e20496e636f6d706c65746500000000000000000000600082015250565b60006113a3601683610f57565b91506113ae8261136d565b602082019050919050565b600060208201905081810360008301526113d281611396565b905091905056fea2646970667358221220b5e695b6f2eb29148c9809f90ac2b967a1bc2b5a082dfb290847ffaa44da099c64736f6c63430008100033",
					"opcodes": "PUSH1 0x80 PUSH1 0x40 MSTORE CALLVALUE DUP1 ISZERO PUSH3 0x11 JUMPI PUSH1 0x0 DUP1 REVERT JUMPDEST POP PUSH1 0x40 MLOAD PUSH3 0x19B3 CODESIZE SUB DUP1 PUSH3 0x19B3 DUP4 CODECOPY DUP2 DUP2 ADD PUSH1 0x40 MSTORE DUP2 ADD SWAP1 PUSH3 0x37 SWAP2 SWAP1 PUSH3 0x400 JUMP JUMPDEST PUSH1 0x0 JUMPDEST DUP3 MLOAD DUP2 LT ISZERO PUSH3 0x1C7 JUMPI PUSH1 0x0 DUP4 DUP3 DUP2 MLOAD DUP2 LT PUSH3 0x5C JUMPI PUSH3 0x5B PUSH3 0x466 JUMP JUMPDEST JUMPDEST PUSH1 0x20 MUL PUSH1 0x20 ADD ADD MLOAD SWAP1 POP PUSH1 0x1 PUSH1 0x0 DUP3 PUSH20 0xFFFFFFFFFFFFFFFFFFFFFFFFFFFFFFFFFFFFFFFF AND PUSH20 0xFFFFFFFFFFFFFFFFFFFFFFFFFFFFFFFFFFFFFFFF AND DUP2 MSTORE PUSH1 0x20 ADD SWAP1 DUP2 MSTORE PUSH1 0x20 ADD PUSH1 0x0 KECCAK256 PUSH1 0x0 SWAP1 SLOAD SWAP1 PUSH2 0x100 EXP SWAP1 DIV PUSH1 0xFF AND ISZERO PUSH3 0xF6 JUMPI PUSH1 0x40 MLOAD PUSH32 0x8C379A000000000000000000000000000000000000000000000000000000000 DUP2 MSTORE PUSH1 0x4 ADD PUSH3 0xED SWAP1 PUSH3 0x4F6 JUMP JUMPDEST PUSH1 0x40 MLOAD DUP1 SWAP2 SUB SWAP1 REVERT JUMPDEST PUSH1 0x0 DUP2 SWAP1 DUP1 PUSH1 0x1 DUP2 SLOAD ADD DUP1 DUP3 SSTORE DUP1 SWAP2 POP POP PUSH1 0x1 SWAP1 SUB SWAP1 PUSH1 0x0 MSTORE PUSH1 0x20 PUSH1 0x0 KECCAK256 ADD PUSH1 0x0 SWAP1 SWAP2 SWAP1 SWAP2 SWAP1 SWAP2 PUSH2 0x100 EXP DUP2 SLOAD DUP2 PUSH20 0xFFFFFFFFFFFFFFFFFFFFFFFFFFFFFFFFFFFFFFFF MUL NOT AND SWAP1 DUP4 PUSH20 0xFFFFFFFFFFFFFFFFFFFFFFFFFFFFFFFFFFFFFFFF AND MUL OR SWAP1 SSTORE POP PUSH1 0x1 DUP1 PUSH1 0x0 DUP4 PUSH20 0xFFFFFFFFFFFFFFFFFFFFFFFFFFFFFFFFFFFFFFFF AND PUSH20 0xFFFFFFFFFFFFFFFFFFFFFFFFFFFFFFFFFFFFFFFF AND DUP2 MSTORE PUSH1 0x20 ADD SWAP1 DUP2 MSTORE PUSH1 0x20 ADD PUSH1 0x0 KECCAK256 PUSH1 0x0 PUSH2 0x100 EXP DUP2 SLOAD DUP2 PUSH1 0xFF MUL NOT AND SWAP1 DUP4 ISZERO ISZERO MUL OR SWAP1 SSTORE POP POP DUP1 DUP1 PUSH3 0x1BE SWAP1 PUSH3 0x547 JUMP JUMPDEST SWAP2 POP POP PUSH3 0x3A JUMP JUMPDEST POP DUP1 PUSH1 0x2 DUP2 SWAP1 SSTORE POP POP POP PUSH3 0x594 JUMP JUMPDEST PUSH1 0x0 PUSH1 0x40 MLOAD SWAP1 POP SWAP1 JUMP JUMPDEST PUSH1 0x0 DUP1 REVERT JUMPDEST PUSH1 0x0 DUP1 REVERT JUMPDEST PUSH1 0x0 DUP1 REVERT JUMPDEST PUSH1 0x0 PUSH1 0x1F NOT PUSH1 0x1F DUP4 ADD AND SWAP1 POP SWAP2 SWAP1 POP JUMP JUMPDEST PUSH32 0x4E487B7100000000000000000000000000000000000000000000000000000000 PUSH1 0x0 MSTORE PUSH1 0x41 PUSH1 0x4 MSTORE PUSH1 0x24 PUSH1 0x0 REVERT JUMPDEST PUSH3 0x23B DUP3 PUSH3 0x1F0 JUMP JUMPDEST DUP2 ADD DUP2 DUP2 LT PUSH8 0xFFFFFFFFFFFFFFFF DUP3 GT OR ISZERO PUSH3 0x25D JUMPI PUSH3 0x25C PUSH3 0x201 JUMP JUMPDEST JUMPDEST DUP1 PUSH1 0x40 MSTORE POP POP POP JUMP JUMPDEST PUSH1 0x0 PUSH3 0x272 PUSH3 0x1D7 JUMP JUMPDEST SWAP1 POP PUSH3 0x280 DUP3 DUP3 PUSH3 0x230 JUMP JUMPDEST SWAP2 SWAP1 POP JUMP JUMPDEST PUSH1 0x0 PUSH8 0xFFFFFFFFFFFFFFFF DUP3 GT ISZERO PUSH3 0x2A3 JUMPI PUSH3 0x2A2 PUSH3 0x201 JUMP JUMPDEST JUMPDEST PUSH1 0x20 DUP3 MUL SWAP1 POP PUSH1 0x20 DUP2 ADD SWAP1 POP SWAP2 SWAP1 POP JUMP JUMPDEST PUSH1 0x0 DUP1 REVERT JUMPDEST PUSH1 0x0 PUSH20 0xFFFFFFFFFFFFFFFFFFFFFFFFFFFFFFFFFFFFFFFF DUP3 AND SWAP1 POP SWAP2 SWAP1 POP JUMP JUMPDEST PUSH1 0x0 PUSH3 0x2E6 DUP3 PUSH3 0x2B9 JUMP JUMPDEST SWAP1 POP SWAP2 SWAP1 POP JUMP JUMPDEST PUSH3 0x2F8 DUP2 PUSH3 0x2D9 JUMP JUMPDEST DUP2 EQ PUSH3 0x304 JUMPI PUSH1 0x0 DUP1 REVERT JUMPDEST POP JUMP JUMPDEST PUSH1 0x0 DUP2 MLOAD SWAP1 POP PUSH3 0x318 DUP2 PUSH3 0x2ED JUMP JUMPDEST SWAP3 SWAP2 POP POP JUMP JUMPDEST PUSH1 0x0 PUSH3 0x335 PUSH3 0x32F DUP5 PUSH3 0x285 JUMP JUMPDEST PUSH3 0x266 JUMP JUMPDEST SWAP1 POP DUP1 DUP4 DUP3 MSTORE PUSH1 0x20 DUP3 ADD SWAP1 POP PUSH1 0x20 DUP5 MUL DUP4 ADD DUP6 DUP2 GT ISZERO PUSH3 0x35B JUMPI PUSH3 0x35A PUSH3 0x2B4 JUMP JUMPDEST JUMPDEST DUP4 JUMPDEST DUP2 DUP2 LT ISZERO PUSH3 0x388 JUMPI DUP1 PUSH3 0x373 DUP9 DUP3 PUSH3 0x307 JUMP JUMPDEST DUP5 MSTORE PUSH1 0x20 DUP5 ADD SWAP4 POP POP PUSH1 0x20 DUP2 ADD SWAP1 POP PUSH3 0x35D JUMP JUMPDEST POP POP POP SWAP4 SWAP3 POP POP POP JUMP JUMPDEST PUSH1 0x0 DUP3 PUSH1 0x1F DUP4 ADD SLT PUSH3 0x3AA JUMPI PUSH3 0x3A9 PUSH3 0x1EB JUMP JUMPDEST JUMPDEST DUP2 MLOAD PUSH3 0x3BC DUP5 DUP3 PUSH1 0x20 DUP7 ADD PUSH3 0x31E JUMP JUMPDEST SWAP2 POP POP SWAP3 SWAP2 POP POP JUMP JUMPDEST PUSH1 0x0 DUP2 SWAP1 POP SWAP2 SWAP1 POP JUMP JUMPDEST PUSH3 0x3DA DUP2 PUSH3 0x3C5 JUMP JUMPDEST DUP2 EQ PUSH3 0x3E6 JUMPI PUSH1 0x0 DUP1 REVERT JUMPDEST POP JUMP JUMPDEST PUSH1 0x0 DUP2 MLOAD SWAP1 POP PUSH3 0x3FA DUP2 PUSH3 0x3CF JUMP JUMPDEST SWAP3 SWAP2 POP POP JUMP JUMPDEST PUSH1 0x0 DUP1 PUSH1 0x40 DUP4 DUP6 SUB SLT ISZERO PUSH3 0x41A JUMPI PUSH3 0x419 PUSH3 0x1E1 JUMP JUMPDEST JUMPDEST PUSH1 0x0 DUP4 ADD MLOAD PUSH8 0xFFFFFFFFFFFFFFFF DUP2 GT ISZERO PUSH3 0x43B JUMPI PUSH3 0x43A PUSH3 0x1E6 JUMP JUMPDEST JUMPDEST PUSH3 0x449 DUP6 DUP3 DUP7 ADD PUSH3 0x392 JUMP JUMPDEST SWAP3 POP POP PUSH1 0x20 PUSH3 0x45C DUP6 DUP3 DUP7 ADD PUSH3 0x3E9 JUMP JUMPDEST SWAP2 POP POP SWAP3 POP SWAP3 SWAP1 POP JUMP JUMPDEST PUSH32 0x4E487B7100000000000000000000000000000000000000000000000000000000 PUSH1 0x0 MSTORE PUSH1 0x32 PUSH1 0x4 MSTORE PUSH1 0x24 PUSH1 0x0 REVERT JUMPDEST PUSH1 0x0 DUP3 DUP3 MSTORE PUSH1 0x20 DUP3 ADD SWAP1 POP SWAP3 SWAP2 POP POP JUMP JUMPDEST PUSH32 0x416C7265616479204578697374732E2E2E000000000000000000000000000000 PUSH1 0x0 DUP3 ADD MSTORE POP JUMP JUMPDEST PUSH1 0x0 PUSH3 0x4DE PUSH1 0x11 DUP4 PUSH3 0x495 JUMP JUMPDEST SWAP2 POP PUSH3 0x4EB DUP3 PUSH3 0x4A6 JUMP JUMPDEST PUSH1 0x20 DUP3 ADD SWAP1 POP SWAP2 SWAP1 POP JUMP JUMPDEST PUSH1 0x0 PUSH1 0x20 DUP3 ADD SWAP1 POP DUP2 DUP2 SUB PUSH1 0x0 DUP4 ADD MSTORE PUSH3 0x511 DUP2 PUSH3 0x4CF JUMP JUMPDEST SWAP1 POP SWAP2 SWAP1 POP JUMP JUMPDEST PUSH32 0x4E487B7100000000000000000000000000000000000000000000000000000000 PUSH1 0x0 MSTORE PUSH1 0x11 PUSH1 0x4 MSTORE PUSH1 0x24 PUSH1 0x0 REVERT JUMPDEST PUSH1 0x0 PUSH3 0x554 DUP3 PUSH3 0x3C5 JUMP JUMPDEST SWAP2 POP PUSH32 0xFFFFFFFFFFFFFFFFFFFFFFFFFFFFFFFFFFFFFFFFFFFFFFFFFFFFFFFFFFFFFFFF DUP3 SUB PUSH3 0x589 JUMPI PUSH3 0x588 PUSH3 0x518 JUMP JUMPDEST JUMPDEST PUSH1 0x1 DUP3 ADD SWAP1 POP SWAP2 SWAP1 POP JUMP JUMPDEST PUSH2 0x140F DUP1 PUSH3 0x5A4 PUSH1 0x0 CODECOPY PUSH1 0x0 RETURN INVALID PUSH1 0x80 PUSH1 0x40 MSTORE PUSH1 0x4 CALLDATASIZE LT PUSH2 0x59 JUMPI PUSH1 0x0 CALLDATALOAD PUSH1 0xE0 SHR DUP1 PUSH4 0x242232D1 EQ PUSH2 0x9E JUMPI DUP1 PUSH4 0x2F54BF6E EQ PUSH2 0xC7 JUMPI DUP1 PUSH4 0xB1E130FC EQ PUSH2 0x104 JUMPI DUP1 PUSH4 0xBF97AFE0 EQ PUSH2 0x12D JUMPI DUP1 PUSH4 0xE6BEDED8 EQ PUSH2 0x16A JUMPI DUP1 PUSH4 0xEE22610B EQ PUSH2 0x193 JUMPI PUSH2 0x99 JUMP JUMPDEST CALLDATASIZE PUSH2 0x99 JUMPI PUSH32 0xE1FFFCC4923D04B559F4D29A8BFC6CDA04EB5B0D3C460751C2402C5C5CC9109C CALLER CALLVALUE PUSH1 0x40 MLOAD PUSH2 0x8F SWAP3 SWAP2 SWAP1 PUSH2 0xDE6 JUMP JUMPDEST PUSH1 0x40 MLOAD DUP1 SWAP2 SUB SWAP1 LOG1 STOP JUMPDEST PUSH1 0x0 DUP1 REVERT JUMPDEST CALLVALUE DUP1 ISZERO PUSH2 0xAA JUMPI PUSH1 0x0 DUP1 REVERT JUMPDEST POP PUSH2 0xC5 PUSH1 0x4 DUP1 CALLDATASIZE SUB DUP2 ADD SWAP1 PUSH2 0xC0 SWAP2 SWAP1 PUSH2 0xE40 JUMP JUMPDEST PUSH2 0x1BC JUMP JUMPDEST STOP JUMPDEST CALLVALUE DUP1 ISZERO PUSH2 0xD3 JUMPI PUSH1 0x0 DUP1 REVERT JUMPDEST POP PUSH2 0xEE PUSH1 0x4 DUP1 CALLDATASIZE SUB DUP2 ADD SWAP1 PUSH2 0xE9 SWAP2 SWAP1 PUSH2 0xE99 JUMP JUMPDEST PUSH2 0x4D7 JUMP JUMPDEST PUSH1 0x40 MLOAD PUSH2 0xFB SWAP2 SWAP1 PUSH2 0xEE1 JUMP JUMPDEST PUSH1 0x40 MLOAD DUP1 SWAP2 SUB SWAP1 RETURN JUMPDEST CALLVALUE DUP1 ISZERO PUSH2 0x110 JUMPI PUSH1 0x0 DUP1 REVERT JUMPDEST POP PUSH2 0x12B PUSH1 0x4 DUP1 CALLDATASIZE SUB DUP2 ADD SWAP1 PUSH2 0x126 SWAP2 SWAP1 PUSH2 0xE40 JUMP JUMPDEST PUSH2 0x4F7 JUMP JUMPDEST STOP JUMPDEST CALLVALUE DUP1 ISZERO PUSH2 0x139 JUMPI PUSH1 0x0 DUP1 REVERT JUMPDEST POP PUSH2 0x154 PUSH1 0x4 DUP1 CALLDATASIZE SUB DUP2 ADD SWAP1 PUSH2 0x14F SWAP2 SWAP1 PUSH2 0xE40 JUMP JUMPDEST PUSH2 0x811 JUMP JUMPDEST PUSH1 0x40 MLOAD PUSH2 0x161 SWAP2 SWAP1 PUSH2 0xEFC JUMP JUMPDEST PUSH1 0x40 MLOAD DUP1 SWAP2 SUB SWAP1 RETURN JUMPDEST CALLVALUE DUP1 ISZERO PUSH2 0x176 JUMPI PUSH1 0x0 DUP1 REVERT JUMPDEST POP PUSH2 0x191 PUSH1 0x4 DUP1 CALLDATASIZE SUB DUP2 ADD SWAP1 PUSH2 0x18C SWAP2 SWAP1 PUSH2 0xF17 JUMP JUMPDEST PUSH2 0x8EB JUMP JUMPDEST STOP JUMPDEST CALLVALUE DUP1 ISZERO PUSH2 0x19F JUMPI PUSH1 0x0 DUP1 REVERT JUMPDEST POP PUSH2 0x1BA PUSH1 0x4 DUP1 CALLDATASIZE SUB DUP2 ADD SWAP1 PUSH2 0x1B5 SWAP2 SWAP1 PUSH2 0xE40 JUMP JUMPDEST PUSH2 0xA4D JUMP JUMPDEST STOP JUMPDEST DUP1 PUSH1 0x3 PUSH1 0x0 DUP3 DUP2 MSTORE PUSH1 0x20 ADD SWAP1 DUP2 MSTORE PUSH1 0x20 ADD PUSH1 0x0 KECCAK256 PUSH1 0x0 CALLER PUSH20 0xFFFFFFFFFFFFFFFFFFFFFFFFFFFFFFFFFFFFFFFF AND PUSH20 0xFFFFFFFFFFFFFFFFFFFFFFFFFFFFFFFFFFFFFFFF AND DUP2 MSTORE PUSH1 0x20 ADD SWAP1 DUP2 MSTORE PUSH1 0x20 ADD PUSH1 0x0 KECCAK256 PUSH1 0x0 SWAP1 SLOAD SWAP1 PUSH2 0x100 EXP SWAP1 DIV PUSH1 0xFF AND ISZERO PUSH2 0x25B JUMPI PUSH1 0x40 MLOAD PUSH32 0x8C379A000000000000000000000000000000000000000000000000000000000 DUP2 MSTORE PUSH1 0x4 ADD PUSH2 0x252 SWAP1 PUSH2 0xFB4 JUMP JUMPDEST PUSH1 0x40 MLOAD DUP1 SWAP2 SUB SWAP1 REVERT JUMPDEST DUP2 PUSH1 0x1 PUSH1 0x4 DUP1 SLOAD SWAP1 POP PUSH2 0x26E SWAP2 SWAP1 PUSH2 0x1003 JUMP JUMPDEST DUP2 GT ISZERO PUSH2 0x2B0 JUMPI PUSH1 0x40 MLOAD PUSH32 0x8C379A000000000000000000000000000000000000000000000000000000000 DUP2 MSTORE PUSH1 0x4 ADD PUSH2 0x2A7 SWAP1 PUSH2 0x1083 JUMP JUMPDEST PUSH1 0x40 MLOAD DUP1 SWAP2 SUB SWAP1 REVERT JUMPDEST PUSH1 0x1 PUSH1 0x0 CALLER PUSH20 0xFFFFFFFFFFFFFFFFFFFFFFFFFFFFFFFFFFFFFFFF AND PUSH20 0xFFFFFFFFFFFFFFFFFFFFFFFFFFFFFFFFFFFFFFFF AND DUP2 MSTORE PUSH1 0x20 ADD SWAP1 DUP2 MSTORE PUSH1 0x20 ADD PUSH1 0x0 KECCAK256 PUSH1 0x0 SWAP1 SLOAD SWAP1 PUSH2 0x100 EXP SWAP1 DIV PUSH1 0xFF AND PUSH2 0x33C JUMPI PUSH1 0x40 MLOAD PUSH32 0x8C379A000000000000000000000000000000000000000000000000000000000 DUP2 MSTORE PUSH1 0x4 ADD PUSH2 0x333 SWAP1 PUSH2 0x10EF JUMP JUMPDEST PUSH1 0x40 MLOAD DUP1 SWAP2 SUB SWAP1 REVERT JUMPDEST DUP3 PUSH1 0x0 PUSH1 0x4 DUP3 DUP2 SLOAD DUP2 LT PUSH2 0x353 JUMPI PUSH2 0x352 PUSH2 0x110F JUMP JUMPDEST JUMPDEST SWAP1 PUSH1 0x0 MSTORE PUSH1 0x20 PUSH1 0x0 KECCAK256 SWAP1 PUSH1 0x3 MUL ADD PUSH1 0x40 MLOAD DUP1 PUSH1 0x60 ADD PUSH1 0x40 MSTORE SWAP1 DUP2 PUSH1 0x0 DUP3 ADD PUSH1 0x0 SWAP1 SLOAD SWAP1 PUSH2 0x100 EXP SWAP1 DIV PUSH20 0xFFFFFFFFFFFFFFFFFFFFFFFFFFFFFFFFFFFFFFFF AND PUSH20 0xFFFFFFFFFFFFFFFFFFFFFFFFFFFFFFFFFFFFFFFF AND PUSH20 0xFFFFFFFFFFFFFFFFFFFFFFFFFFFFFFFFFFFFFFFF AND DUP2 MSTORE PUSH1 0x20 ADD PUSH1 0x1 DUP3 ADD SLOAD DUP2 MSTORE PUSH1 0x20 ADD PUSH1 0x2 DUP3 ADD PUSH1 0x0 SWAP1 SLOAD SWAP1 PUSH2 0x100 EXP SWAP1 DIV PUSH1 0xFF AND ISZERO ISZERO ISZERO ISZERO DUP2 MSTORE POP POP SWAP1 POP DUP1 PUSH1 0x40 ADD MLOAD ISZERO PUSH2 0x42E JUMPI PUSH1 0x40 MLOAD PUSH32 0x8C379A000000000000000000000000000000000000000000000000000000000 DUP2 MSTORE PUSH1 0x4 ADD PUSH2 0x425 SWAP1 PUSH2 0x118A JUMP JUMPDEST PUSH1 0x40 MLOAD DUP1 SWAP2 SUB SWAP1 REVERT JUMPDEST PUSH1 0x1 PUSH1 0x3 PUSH1 0x0 DUP8 DUP2 MSTORE PUSH1 0x20 ADD SWAP1 DUP2 MSTORE PUSH1 0x20 ADD PUSH1 0x0 KECCAK256 PUSH1 0x0 CALLER PUSH20 0xFFFFFFFFFFFFFFFFFFFFFFFFFFFFFFFFFFFFFFFF AND PUSH20 0xFFFFFFFFFFFFFFFFFFFFFFFFFFFFFFFFFFFFFFFF AND DUP2 MSTORE PUSH1 0x20 ADD SWAP1 DUP2 MSTORE PUSH1 0x20 ADD PUSH1 0x0 KECCAK256 PUSH1 0x0 PUSH2 0x100 EXP DUP2 SLOAD DUP2 PUSH1 0xFF MUL NOT AND SWAP1 DUP4 ISZERO ISZERO MUL OR SWAP1 SSTORE POP PUSH32 0x47AD3E4B0F4BDBE3AC08708BBC45053D2FF616911B39E65563FD9BD781909645 DUP6 CALLER PUSH1 0x40 MLOAD PUSH2 0x4C8 SWAP3 SWAP2 SWAP1 PUSH2 0x11AA JUMP JUMPDEST PUSH1 0x40 MLOAD DUP1 SWAP2 SUB SWAP1 LOG1 POP POP POP POP POP JUMP JUMPDEST PUSH1 0x1 PUSH1 0x20 MSTORE DUP1 PUSH1 0x0 MSTORE PUSH1 0x40 PUSH1 0x0 KECCAK256 PUSH1 0x0 SWAP2 POP SLOAD SWAP1 PUSH2 0x100 EXP SWAP1 DIV PUSH1 0xFF AND DUP2 JUMP JUMPDEST DUP1 PUSH1 0x3 PUSH1 0x0 DUP3 DUP2 MSTORE PUSH1 0x20 ADD SWAP1 DUP2 MSTORE PUSH1 0x20 ADD PUSH1 0x0 KECCAK256 PUSH1 0x0 CALLER PUSH20 0xFFFFFFFFFFFFFFFFFFFFFFFFFFFFFFFFFFFFFFFF AND PUSH20 0xFFFFFFFFFFFFFFFFFFFFFFFFFFFFFFFFFFFFFFFF AND DUP2 MSTORE PUSH1 0x20 ADD SWAP1 DUP2 MSTORE PUSH1 0x20 ADD PUSH1 0x0 KECCAK256 PUSH1 0x0 SWAP1 SLOAD SWAP1 PUSH2 0x100 EXP SWAP1 DIV PUSH1 0xFF AND PUSH2 0x595 JUMPI PUSH1 0x40 MLOAD PUSH32 0x8C379A000000000000000000000000000000000000000000000000000000000 DUP2 MSTORE PUSH1 0x4 ADD PUSH2 0x58C SWAP1 PUSH2 0x121F JUMP JUMPDEST PUSH1 0x40 MLOAD DUP1 SWAP2 SUB SWAP1 REVERT JUMPDEST DUP2 PUSH1 0x1 PUSH1 0x4 DUP1 SLOAD SWAP1 POP PUSH2 0x5A8 SWAP2 SWAP1 PUSH2 0x1003 JUMP JUMPDEST DUP2 GT ISZERO PUSH2 0x5EA JUMPI PUSH1 0x40 MLOAD PUSH32 0x8C379A000000000000000000000000000000000000000000000000000000000 DUP2 MSTORE PUSH1 0x4 ADD PUSH2 0x5E1 SWAP1 PUSH2 0x1083 JUMP JUMPDEST PUSH1 0x40 MLOAD DUP1 SWAP2 SUB SWAP1 REVERT JUMPDEST PUSH1 0x1 PUSH1 0x0 CALLER PUSH20 0xFFFFFFFFFFFFFFFFFFFFFFFFFFFFFFFFFFFFFFFF AND PUSH20 0xFFFFFFFFFFFFFFFFFFFFFFFFFFFFFFFFFFFFFFFF AND DUP2 MSTORE PUSH1 0x20 ADD SWAP1 DUP2 MSTORE PUSH1 0x20 ADD PUSH1 0x0 KECCAK256 PUSH1 0x0 SWAP1 SLOAD SWAP1 PUSH2 0x100 EXP SWAP1 DIV PUSH1 0xFF AND PUSH2 0x676 JUMPI PUSH1 0x40 MLOAD PUSH32 0x8C379A000000000000000000000000000000000000000000000000000000000 DUP2 MSTORE PUSH1 0x4 ADD PUSH2 0x66D SWAP1 PUSH2 0x10EF JUMP JUMPDEST PUSH1 0x40 MLOAD DUP1 SWAP2 SUB SWAP1 REVERT JUMPDEST DUP3 PUSH1 0x0 PUSH1 0x4 DUP3 DUP2 SLOAD DUP2 LT PUSH2 0x68D JUMPI PUSH2 0x68C PUSH2 0x110F JUMP JUMPDEST JUMPDEST SWAP1 PUSH1 0x0 MSTORE PUSH1 0x20 PUSH1 0x0 KECCAK256 SWAP1 PUSH1 0x3 MUL ADD PUSH1 0x40 MLOAD DUP1 PUSH1 0x60 ADD PUSH1 0x40 MSTORE SWAP1 DUP2 PUSH1 0x0 DUP3 ADD PUSH1 0x0 SWAP1 SLOAD SWAP1 PUSH2 0x100 EXP SWAP1 DIV PUSH20 0xFFFFFFFFFFFFFFFFFFFFFFFFFFFFFFFFFFFFFFFF AND PUSH20 0xFFFFFFFFFFFFFFFFFFFFFFFFFFFFFFFFFFFFFFFF AND PUSH20 0xFFFFFFFFFFFFFFFFFFFFFFFFFFFFFFFFFFFFFFFF AND DUP2 MSTORE PUSH1 0x20 ADD PUSH1 0x1 DUP3 ADD SLOAD DUP2 MSTORE PUSH1 0x20 ADD PUSH1 0x2 DUP3 ADD PUSH1 0x0 SWAP1 SLOAD SWAP1 PUSH2 0x100 EXP SWAP1 DIV PUSH1 0xFF AND ISZERO ISZERO ISZERO ISZERO DUP2 MSTORE POP POP SWAP1 POP DUP1 PUSH1 0x40 ADD MLOAD ISZERO PUSH2 0x768 JUMPI PUSH1 0x40 MLOAD PUSH32 0x8C379A000000000000000000000000000000000000000000000000000000000 DUP2 MSTORE PUSH1 0x4 ADD PUSH2 0x75F SWAP1 PUSH2 0x118A JUMP JUMPDEST PUSH1 0x40 MLOAD DUP1 SWAP2 SUB SWAP1 REVERT JUMPDEST PUSH1 0x0 PUSH1 0x3 PUSH1 0x0 DUP8 DUP2 MSTORE PUSH1 0x20 ADD SWAP1 DUP2 MSTORE PUSH1 0x20 ADD PUSH1 0x0 KECCAK256 PUSH1 0x0 CALLER PUSH20 0xFFFFFFFFFFFFFFFFFFFFFFFFFFFFFFFFFFFFFFFF AND PUSH20 0xFFFFFFFFFFFFFFFFFFFFFFFFFFFFFFFFFFFFFFFF AND DUP2 MSTORE PUSH1 0x20 ADD SWAP1 DUP2 MSTORE PUSH1 0x20 ADD PUSH1 0x0 KECCAK256 PUSH1 0x0 PUSH2 0x100 EXP DUP2 SLOAD DUP2 PUSH1 0xFF MUL NOT AND SWAP1 DUP4 ISZERO ISZERO MUL OR SWAP1 SSTORE POP PUSH32 0xD5D64031E0F55CF42BC3B7D0462F8404A4D63F7CCF84BE9510CD6A5300552E42 DUP6 CALLER PUSH1 0x40 MLOAD PUSH2 0x802 SWAP3 SWAP2 SWAP1 PUSH2 0x11AA JUMP JUMPDEST PUSH1 0x40 MLOAD DUP1 SWAP2 SUB SWAP1 LOG1 POP POP POP POP POP JUMP JUMPDEST PUSH1 0x0 DUP1 JUMPDEST PUSH1 0x0 DUP1 SLOAD SWAP1 POP DUP2 LT ISZERO PUSH2 0x8E5 JUMPI PUSH1 0x3 PUSH1 0x0 DUP5 DUP2 MSTORE PUSH1 0x20 ADD SWAP1 DUP2 MSTORE PUSH1 0x20 ADD PUSH1 0x0 KECCAK256 PUSH1 0x0 DUP1 DUP4 DUP2 SLOAD DUP2 LT PUSH2 0x84A JUMPI PUSH2 0x849 PUSH2 0x110F JUMP JUMPDEST JUMPDEST SWAP1 PUSH1 0x0 MSTORE PUSH1 0x20 PUSH1 0x0 KECCAK256 ADD PUSH1 0x0 SWAP1 SLOAD SWAP1 PUSH2 0x100 EXP SWAP1 DIV PUSH20 0xFFFFFFFFFFFFFFFFFFFFFFFFFFFFFFFFFFFFFFFF AND PUSH20 0xFFFFFFFFFFFFFFFFFFFFFFFFFFFFFFFFFFFFFFFF AND PUSH20 0xFFFFFFFFFFFFFFFFFFFFFFFFFFFFFFFFFFFFFFFF AND DUP2 MSTORE PUSH1 0x20 ADD SWAP1 DUP2 MSTORE PUSH1 0x20 ADD PUSH1 0x0 KECCAK256 PUSH1 0x0 SWAP1 SLOAD SWAP1 PUSH2 0x100 EXP SWAP1 DIV PUSH1 0xFF AND ISZERO PUSH2 0x8D2 JUMPI PUSH1 0x1 DUP3 PUSH2 0x8CF SWAP2 SWAP1 PUSH2 0x123F JUMP JUMPDEST SWAP2 POP JUMPDEST DUP1 DUP1 PUSH2 0x8DD SWAP1 PUSH2 0x1273 JUMP JUMPDEST SWAP2 POP POP PUSH2 0x815 JUMP JUMPDEST POP SWAP2 SWAP1 POP JUMP JUMPDEST PUSH1 0x1 PUSH1 0x0 CALLER PUSH20 0xFFFFFFFFFFFFFFFFFFFFFFFFFFFFFFFFFFFFFFFF AND PUSH20 0xFFFFFFFFFFFFFFFFFFFFFFFFFFFFFFFFFFFFFFFF AND DUP2 MSTORE PUSH1 0x20 ADD SWAP1 DUP2 MSTORE PUSH1 0x20 ADD PUSH1 0x0 KECCAK256 PUSH1 0x0 SWAP1 SLOAD SWAP1 PUSH2 0x100 EXP SWAP1 DIV PUSH1 0xFF AND PUSH2 0x977 JUMPI PUSH1 0x40 MLOAD PUSH32 0x8C379A000000000000000000000000000000000000000000000000000000000 DUP2 MSTORE PUSH1 0x4 ADD PUSH2 0x96E SWAP1 PUSH2 0x10EF JUMP JUMPDEST PUSH1 0x40 MLOAD DUP1 SWAP2 SUB SWAP1 REVERT JUMPDEST PUSH1 0x4 PUSH1 0x40 MLOAD DUP1 PUSH1 0x60 ADD PUSH1 0x40 MSTORE DUP1 DUP5 PUSH20 0xFFFFFFFFFFFFFFFFFFFFFFFFFFFFFFFFFFFFFFFF AND DUP2 MSTORE PUSH1 0x20 ADD DUP4 DUP2 MSTORE PUSH1 0x20 ADD PUSH1 0x0 ISZERO ISZERO DUP2 MSTORE POP SWAP1 DUP1 PUSH1 0x1 DUP2 SLOAD ADD DUP1 DUP3 SSTORE DUP1 SWAP2 POP POP PUSH1 0x1 SWAP1 SUB SWAP1 PUSH1 0x0 MSTORE PUSH1 0x20 PUSH1 0x0 KECCAK256 SWAP1 PUSH1 0x3 MUL ADD PUSH1 0x0 SWAP1 SWAP2 SWAP1 SWAP2 SWAP1 SWAP2 POP PUSH1 0x0 DUP3 ADD MLOAD DUP2 PUSH1 0x0 ADD PUSH1 0x0 PUSH2 0x100 EXP DUP2 SLOAD DUP2 PUSH20 0xFFFFFFFFFFFFFFFFFFFFFFFFFFFFFFFFFFFFFFFF MUL NOT AND SWAP1 DUP4 PUSH20 0xFFFFFFFFFFFFFFFFFFFFFFFFFFFFFFFFFFFFFFFF AND MUL OR SWAP1 SSTORE POP PUSH1 0x20 DUP3 ADD MLOAD DUP2 PUSH1 0x1 ADD SSTORE PUSH1 0x40 DUP3 ADD MLOAD DUP2 PUSH1 0x2 ADD PUSH1 0x0 PUSH2 0x100 EXP DUP2 SLOAD DUP2 PUSH1 0xFF MUL NOT AND SWAP1 DUP4 ISZERO ISZERO MUL OR SWAP1 SSTORE POP POP POP POP POP JUMP JUMPDEST DUP1 PUSH1 0x1 PUSH1 0x4 DUP1 SLOAD SWAP1 POP PUSH2 0xA60 SWAP2 SWAP1 PUSH2 0x1003 JUMP JUMPDEST DUP2 GT ISZERO PUSH2 0xAA2 JUMPI PUSH1 0x40 MLOAD PUSH32 0x8C379A000000000000000000000000000000000000000000000000000000000 DUP2 MSTORE PUSH1 0x4 ADD PUSH2 0xA99 SWAP1 PUSH2 0x1083 JUMP JUMPDEST PUSH1 0x40 MLOAD DUP1 SWAP2 SUB SWAP1 REVERT JUMPDEST PUSH1 0x1 PUSH1 0x0 CALLER PUSH20 0xFFFFFFFFFFFFFFFFFFFFFFFFFFFFFFFFFFFFFFFF AND PUSH20 0xFFFFFFFFFFFFFFFFFFFFFFFFFFFFFFFFFFFFFFFF AND DUP2 MSTORE PUSH1 0x20 ADD SWAP1 DUP2 MSTORE PUSH1 0x20 ADD PUSH1 0x0 KECCAK256 PUSH1 0x0 SWAP1 SLOAD SWAP1 PUSH2 0x100 EXP SWAP1 DIV PUSH1 0xFF AND PUSH2 0xB2E JUMPI PUSH1 0x40 MLOAD PUSH32 0x8C379A000000000000000000000000000000000000000000000000000000000 DUP2 MSTORE PUSH1 0x4 ADD PUSH2 0xB25 SWAP1 PUSH2 0x10EF JUMP JUMPDEST PUSH1 0x40 MLOAD DUP1 SWAP2 SUB SWAP1 REVERT JUMPDEST DUP2 PUSH1 0x0 PUSH1 0x4 DUP3 DUP2 SLOAD DUP2 LT PUSH2 0xB45 JUMPI PUSH2 0xB44 PUSH2 0x110F JUMP JUMPDEST JUMPDEST SWAP1 PUSH1 0x0 MSTORE PUSH1 0x20 PUSH1 0x0 KECCAK256 SWAP1 PUSH1 0x3 MUL ADD PUSH1 0x40 MLOAD DUP1 PUSH1 0x60 ADD PUSH1 0x40 MSTORE SWAP1 DUP2 PUSH1 0x0 DUP3 ADD PUSH1 0x0 SWAP1 SLOAD SWAP1 PUSH2 0x100 EXP SWAP1 DIV PUSH20 0xFFFFFFFFFFFFFFFFFFFFFFFFFFFFFFFFFFFFFFFF AND PUSH20 0xFFFFFFFFFFFFFFFFFFFFFFFFFFFFFFFFFFFFFFFF AND PUSH20 0xFFFFFFFFFFFFFFFFFFFFFFFFFFFFFFFFFFFFFFFF AND DUP2 MSTORE PUSH1 0x20 ADD PUSH1 0x1 DUP3 ADD SLOAD DUP2 MSTORE PUSH1 0x20 ADD PUSH1 0x2 DUP3 ADD PUSH1 0x0 SWAP1 SLOAD SWAP1 PUSH2 0x100 EXP SWAP1 DIV PUSH1 0xFF AND ISZERO ISZERO ISZERO ISZERO DUP2 MSTORE POP POP SWAP1 POP DUP1 PUSH1 0x40 ADD MLOAD ISZERO PUSH2 0xC20 JUMPI PUSH1 0x40 MLOAD PUSH32 0x8C379A000000000000000000000000000000000000000000000000000000000 DUP2 MSTORE PUSH1 0x4 ADD PUSH2 0xC17 SWAP1 PUSH2 0x118A JUMP JUMPDEST PUSH1 0x40 MLOAD DUP1 SWAP2 SUB SWAP1 REVERT JUMPDEST PUSH1 0x2 SLOAD PUSH2 0xC2C DUP6 PUSH2 0x811 JUMP JUMPDEST LT ISZERO PUSH2 0xC6D JUMPI PUSH1 0x40 MLOAD PUSH32 0x8C379A000000000000000000000000000000000000000000000000000000000 DUP2 MSTORE PUSH1 0x4 ADD PUSH2 0xC64 SWAP1 PUSH2 0x1307 JUMP JUMPDEST PUSH1 0x40 MLOAD DUP1 SWAP2 SUB SWAP1 REVERT JUMPDEST PUSH1 0x0 PUSH1 0x4 DUP6 DUP2 SLOAD DUP2 LT PUSH2 0xC83 JUMPI PUSH2 0xC82 PUSH2 0x110F JUMP JUMPDEST JUMPDEST SWAP1 PUSH1 0x0 MSTORE PUSH1 0x20 PUSH1 0x0 KECCAK256 SWAP1 PUSH1 0x3 MUL ADD SWAP1 POP PUSH1 0x0 DUP2 PUSH1 0x0 ADD PUSH1 0x0 SWAP1 SLOAD SWAP1 PUSH2 0x100 EXP SWAP1 DIV PUSH20 0xFFFFFFFFFFFFFFFFFFFFFFFFFFFFFFFFFFFFFFFF AND PUSH20 0xFFFFFFFFFFFFFFFFFFFFFFFFFFFFFFFFFFFFFFFF AND DUP3 PUSH1 0x1 ADD SLOAD PUSH1 0x40 MLOAD PUSH2 0xCE1 SWAP1 PUSH2 0x1358 JUMP JUMPDEST PUSH1 0x0 PUSH1 0x40 MLOAD DUP1 DUP4 SUB DUP2 DUP6 DUP8 GAS CALL SWAP3 POP POP POP RETURNDATASIZE DUP1 PUSH1 0x0 DUP2 EQ PUSH2 0xD1E JUMPI PUSH1 0x40 MLOAD SWAP2 POP PUSH1 0x1F NOT PUSH1 0x3F RETURNDATASIZE ADD AND DUP3 ADD PUSH1 0x40 MSTORE RETURNDATASIZE DUP3 MSTORE RETURNDATASIZE PUSH1 0x0 PUSH1 0x20 DUP5 ADD RETURNDATACOPY PUSH2 0xD23 JUMP JUMPDEST PUSH1 0x60 SWAP2 POP JUMPDEST POP POP SWAP1 POP DUP1 PUSH2 0xD67 JUMPI PUSH1 0x40 MLOAD PUSH32 0x8C379A000000000000000000000000000000000000000000000000000000000 DUP2 MSTORE PUSH1 0x4 ADD PUSH2 0xD5E SWAP1 PUSH2 0x13B9 JUMP JUMPDEST PUSH1 0x40 MLOAD DUP1 SWAP2 SUB SWAP1 REVERT JUMPDEST PUSH1 0x1 DUP3 PUSH1 0x2 ADD PUSH1 0x0 PUSH2 0x100 EXP DUP2 SLOAD DUP2 PUSH1 0xFF MUL NOT AND SWAP1 DUP4 ISZERO ISZERO MUL OR SWAP1 SSTORE POP POP POP POP POP POP POP JUMP JUMPDEST PUSH1 0x0 PUSH20 0xFFFFFFFFFFFFFFFFFFFFFFFFFFFFFFFFFFFFFFFF DUP3 AND SWAP1 POP SWAP2 SWAP1 POP JUMP JUMPDEST PUSH1 0x0 PUSH2 0xDB7 DUP3 PUSH2 0xD8C JUMP JUMPDEST SWAP1 POP SWAP2 SWAP1 POP JUMP JUMPDEST PUSH2 0xDC7 DUP2 PUSH2 0xDAC JUMP JUMPDEST DUP3 MSTORE POP POP JUMP JUMPDEST PUSH1 0x0 DUP2 SWAP1 POP SWAP2 SWAP1 POP JUMP JUMPDEST PUSH2 0xDE0 DUP2 PUSH2 0xDCD JUMP JUMPDEST DUP3 MSTORE POP POP JUMP JUMPDEST PUSH1 0x0 PUSH1 0x40 DUP3 ADD SWAP1 POP PUSH2 0xDFB PUSH1 0x0 DUP4 ADD DUP6 PUSH2 0xDBE JUMP JUMPDEST PUSH2 0xE08 PUSH1 0x20 DUP4 ADD DUP5 PUSH2 0xDD7 JUMP JUMPDEST SWAP4 SWAP3 POP POP POP JUMP JUMPDEST PUSH1 0x0 DUP1 REVERT JUMPDEST PUSH2 0xE1D DUP2 PUSH2 0xDCD JUMP JUMPDEST DUP2 EQ PUSH2 0xE28 JUMPI PUSH1 0x0 DUP1 REVERT JUMPDEST POP JUMP JUMPDEST PUSH1 0x0 DUP2 CALLDATALOAD SWAP1 POP PUSH2 0xE3A DUP2 PUSH2 0xE14 JUMP JUMPDEST SWAP3 SWAP2 POP POP JUMP JUMPDEST PUSH1 0x0 PUSH1 0x20 DUP3 DUP5 SUB SLT ISZERO PUSH2 0xE56 JUMPI PUSH2 0xE55 PUSH2 0xE0F JUMP JUMPDEST JUMPDEST PUSH1 0x0 PUSH2 0xE64 DUP5 DUP3 DUP6 ADD PUSH2 0xE2B JUMP JUMPDEST SWAP2 POP POP SWAP3 SWAP2 POP POP JUMP JUMPDEST PUSH2 0xE76 DUP2 PUSH2 0xDAC JUMP JUMPDEST DUP2 EQ PUSH2 0xE81 JUMPI PUSH1 0x0 DUP1 REVERT JUMPDEST POP JUMP JUMPDEST PUSH1 0x0 DUP2 CALLDATALOAD SWAP1 POP PUSH2 0xE93 DUP2 PUSH2 0xE6D JUMP JUMPDEST SWAP3 SWAP2 POP POP JUMP JUMPDEST PUSH1 0x0 PUSH1 0x20 DUP3 DUP5 SUB SLT ISZERO PUSH2 0xEAF JUMPI PUSH2 0xEAE PUSH2 0xE0F JUMP JUMPDEST JUMPDEST PUSH1 0x0 PUSH2 0xEBD DUP5 DUP3 DUP6 ADD PUSH2 0xE84 JUMP JUMPDEST SWAP2 POP POP SWAP3 SWAP2 POP POP JUMP JUMPDEST PUSH1 0x0 DUP2 ISZERO ISZERO SWAP1 POP SWAP2 SWAP1 POP JUMP JUMPDEST PUSH2 0xEDB DUP2 PUSH2 0xEC6 JUMP JUMPDEST DUP3 MSTORE POP POP JUMP JUMPDEST PUSH1 0x0 PUSH1 0x20 DUP3 ADD SWAP1 POP PUSH2 0xEF6 PUSH1 0x0 DUP4 ADD DUP5 PUSH2 0xED2 JUMP JUMPDEST SWAP3 SWAP2 POP POP JUMP JUMPDEST PUSH1 0x0 PUSH1 0x20 DUP3 ADD SWAP1 POP PUSH2 0xF11 PUSH1 0x0 DUP4 ADD DUP5 PUSH2 0xDD7 JUMP JUMPDEST SWAP3 SWAP2 POP POP JUMP JUMPDEST PUSH1 0x0 DUP1 PUSH1 0x40 DUP4 DUP6 SUB SLT ISZERO PUSH2 0xF2E JUMPI PUSH2 0xF2D PUSH2 0xE0F JUMP JUMPDEST JUMPDEST PUSH1 0x0 PUSH2 0xF3C DUP6 DUP3 DUP7 ADD PUSH2 0xE84 JUMP JUMPDEST SWAP3 POP POP PUSH1 0x20 PUSH2 0xF4D DUP6 DUP3 DUP7 ADD PUSH2 0xE2B JUMP JUMPDEST SWAP2 POP POP SWAP3 POP SWAP3 SWAP1 POP JUMP JUMPDEST PUSH1 0x0 DUP3 DUP3 MSTORE PUSH1 0x20 DUP3 ADD SWAP1 POP SWAP3 SWAP2 POP POP JUMP JUMPDEST PUSH32 0x5472616E73616374696F6E20416C726561647920417070726F7665642E2E2E00 PUSH1 0x0 DUP3 ADD MSTORE POP JUMP JUMPDEST PUSH1 0x0 PUSH2 0xF9E PUSH1 0x1F DUP4 PUSH2 0xF57 JUMP JUMPDEST SWAP2 POP PUSH2 0xFA9 DUP3 PUSH2 0xF68 JUMP JUMPDEST PUSH1 0x20 DUP3 ADD SWAP1 POP SWAP2 SWAP1 POP JUMP JUMPDEST PUSH1 0x0 PUSH1 0x20 DUP3 ADD SWAP1 POP DUP2 DUP2 SUB PUSH1 0x0 DUP4 ADD MSTORE PUSH2 0xFCD DUP2 PUSH2 0xF91 JUMP JUMPDEST SWAP1 POP SWAP2 SWAP1 POP JUMP JUMPDEST PUSH32 0x4E487B7100000000000000000000000000000000000000000000000000000000 PUSH1 0x0 MSTORE PUSH1 0x11 PUSH1 0x4 MSTORE PUSH1 0x24 PUSH1 0x0 REVERT JUMPDEST PUSH1 0x0 PUSH2 0x100E DUP3 PUSH2 0xDCD JUMP JUMPDEST SWAP2 POP PUSH2 0x1019 DUP4 PUSH2 0xDCD JUMP JUMPDEST SWAP3 POP DUP3 DUP3 SUB SWAP1 POP DUP2 DUP2 GT ISZERO PUSH2 0x1031 JUMPI PUSH2 0x1030 PUSH2 0xFD4 JUMP JUMPDEST JUMPDEST SWAP3 SWAP2 POP POP JUMP JUMPDEST PUSH32 0x5472616E73616374696F6E20446F6573206E6F742045786973742E2E2E000000 PUSH1 0x0 DUP3 ADD MSTORE POP JUMP JUMPDEST PUSH1 0x0 PUSH2 0x106D PUSH1 0x1D DUP4 PUSH2 0xF57 JUMP JUMPDEST SWAP2 POP PUSH2 0x1078 DUP3 PUSH2 0x1037 JUMP JUMPDEST PUSH1 0x20 DUP3 ADD SWAP1 POP SWAP2 SWAP1 POP JUMP JUMPDEST PUSH1 0x0 PUSH1 0x20 DUP3 ADD SWAP1 POP DUP2 DUP2 SUB PUSH1 0x0 DUP4 ADD MSTORE PUSH2 0x109C DUP2 PUSH2 0x1060 JUMP JUMPDEST SWAP1 POP SWAP2 SWAP1 POP JUMP JUMPDEST PUSH32 0x4E6F7420746865204F776E65722E2E2E2E000000000000000000000000000000 PUSH1 0x0 DUP3 ADD MSTORE POP JUMP JUMPDEST PUSH1 0x0 PUSH2 0x10D9 PUSH1 0x11 DUP4 PUSH2 0xF57 JUMP JUMPDEST SWAP2 POP PUSH2 0x10E4 DUP3 PUSH2 0x10A3 JUMP JUMPDEST PUSH1 0x20 DUP3 ADD SWAP1 POP SWAP2 SWAP1 POP JUMP JUMPDEST PUSH1 0x0 PUSH1 0x20 DUP3 ADD SWAP1 POP DUP2 DUP2 SUB PUSH1 0x0 DUP4 ADD MSTORE PUSH2 0x1108 DUP2 PUSH2 0x10CC JUMP JUMPDEST SWAP1 POP SWAP2 SWAP1 POP JUMP JUMPDEST PUSH32 0x4E487B7100000000000000000000000000000000000000000000000000000000 PUSH1 0x0 MSTORE PUSH1 0x32 PUSH1 0x4 MSTORE PUSH1 0x24 PUSH1 0x0 REVERT JUMPDEST PUSH32 0x5472616E73616374696F6E20416C726561647920457865637574656400000000 PUSH1 0x0 DUP3 ADD MSTORE POP JUMP JUMPDEST PUSH1 0x0 PUSH2 0x1174 PUSH1 0x1C DUP4 PUSH2 0xF57 JUMP JUMPDEST SWAP2 POP PUSH2 0x117F DUP3 PUSH2 0x113E JUMP JUMPDEST PUSH1 0x20 DUP3 ADD SWAP1 POP SWAP2 SWAP1 POP JUMP JUMPDEST PUSH1 0x0 PUSH1 0x20 DUP3 ADD SWAP1 POP DUP2 DUP2 SUB PUSH1 0x0 DUP4 ADD MSTORE PUSH2 0x11A3 DUP2 PUSH2 0x1167 JUMP JUMPDEST SWAP1 POP SWAP2 SWAP1 POP JUMP JUMPDEST PUSH1 0x0 PUSH1 0x40 DUP3 ADD SWAP1 POP PUSH2 0x11BF PUSH1 0x0 DUP4 ADD DUP6 PUSH2 0xDD7 JUMP JUMPDEST PUSH2 0x11CC PUSH1 0x20 DUP4 ADD DUP5 PUSH2 0xDBE JUMP JUMPDEST SWAP4 SWAP3 POP POP POP JUMP JUMPDEST PUSH32 0x5472616E73616374696F6E204E6F7420417070726F7665642E2E2E0000000000 PUSH1 0x0 DUP3 ADD MSTORE POP JUMP JUMPDEST PUSH1 0x0 PUSH2 0x1209 PUSH1 0x1B DUP4 PUSH2 0xF57 JUMP JUMPDEST SWAP2 POP PUSH2 0x1214 DUP3 PUSH2 0x11D3 JUMP JUMPDEST PUSH1 0x20 DUP3 ADD SWAP1 POP SWAP2 SWAP1 POP JUMP JUMPDEST PUSH1 0x0 PUSH1 0x20 DUP3 ADD SWAP1 POP DUP2 DUP2 SUB PUSH1 0x0 DUP4 ADD MSTORE PUSH2 0x1238 DUP2 PUSH2 0x11FC JUMP JUMPDEST SWAP1 POP SWAP2 SWAP1 POP JUMP JUMPDEST PUSH1 0x0 PUSH2 0x124A DUP3 PUSH2 0xDCD JUMP JUMPDEST SWAP2 POP PUSH2 0x1255 DUP4 PUSH2 0xDCD JUMP JUMPDEST SWAP3 POP DUP3 DUP3 ADD SWAP1 POP DUP1 DUP3 GT ISZERO PUSH2 0x126D JUMPI PUSH2 0x126C PUSH2 0xFD4 JUMP JUMPDEST JUMPDEST SWAP3 SWAP2 POP POP JUMP JUMPDEST PUSH1 0x0 PUSH2 0x127E DUP3 PUSH2 0xDCD JUMP JUMPDEST SWAP2 POP PUSH32 0xFFFFFFFFFFFFFFFFFFFFFFFFFFFFFFFFFFFFFFFFFFFFFFFFFFFFFFFFFFFFFFFF DUP3 SUB PUSH2 0x12B0 JUMPI PUSH2 0x12AF PUSH2 0xFD4 JUMP JUMPDEST JUMPDEST PUSH1 0x1 DUP3 ADD SWAP1 POP SWAP2 SWAP1 POP JUMP JUMPDEST PUSH32 0x4E6F7420456E6F75676820417070726F76616C732E2E2E000000000000000000 PUSH1 0x0 DUP3 ADD MSTORE POP JUMP JUMPDEST PUSH1 0x0 PUSH2 0x12F1 PUSH1 0x17 DUP4 PUSH2 0xF57 JUMP JUMPDEST SWAP2 POP PUSH2 0x12FC DUP3 PUSH2 0x12BB JUMP JUMPDEST PUSH1 0x20 DUP3 ADD SWAP1 POP SWAP2 SWAP1 POP JUMP JUMPDEST PUSH1 0x0 PUSH1 0x20 DUP3 ADD SWAP1 POP DUP2 DUP2 SUB PUSH1 0x0 DUP4 ADD MSTORE PUSH2 0x1320 DUP2 PUSH2 0x12E4 JUMP JUMPDEST SWAP1 POP SWAP2 SWAP1 POP JUMP JUMPDEST PUSH1 0x0 DUP2 SWAP1 POP SWAP3 SWAP2 POP POP JUMP JUMPDEST POP JUMP JUMPDEST PUSH1 0x0 PUSH2 0x1342 PUSH1 0x0 DUP4 PUSH2 0x1327 JUMP JUMPDEST SWAP2 POP PUSH2 0x134D DUP3 PUSH2 0x1332 JUMP JUMPDEST PUSH1 0x0 DUP3 ADD SWAP1 POP SWAP2 SWAP1 POP JUMP JUMPDEST PUSH1 0x0 PUSH2 0x1363 DUP3 PUSH2 0x1335 JUMP JUMPDEST SWAP2 POP DUP2 SWAP1 POP SWAP2 SWAP1 POP JUMP JUMPDEST PUSH32 0x5472616E73616374696F6E20496E636F6D706C65746500000000000000000000 PUSH1 0x0 DUP3 ADD MSTORE POP JUMP JUMPDEST PUSH1 0x0 PUSH2 0x13A3 PUSH1 0x16 DUP4 PUSH2 0xF57 JUMP JUMPDEST SWAP2 POP PUSH2 0x13AE DUP3 PUSH2 0x136D JUMP JUMPDEST PUSH1 0x20 DUP3 ADD SWAP1 POP SWAP2 SWAP1 POP JUMP JUMPDEST PUSH1 0x0 PUSH1 0x20 DUP3 ADD SWAP1 POP DUP2 DUP2 SUB PUSH1 0x0 DUP4 ADD MSTORE PUSH2 0x13D2 DUP2 PUSH2 0x1396 JUMP JUMPDEST SWAP1 POP SWAP2 SWAP1 POP JUMP INVALID LOG2 PUSH5 0x6970667358 0x22 SLT KECCAK256 0xB5 0xE6 SWAP6 0xB6 CALLCODE 0xEB 0x29 EQ DUP13 SWAP9 MULMOD 0xF9 EXP 0xC2 0xB9 PUSH8 0xA1BC2B5A082DFB29 ADDMOD SELFBALANCE SELFDESTRUCT 0xAA DIFFICULTY 0xDA MULMOD SWAP13 PUSH5 0x736F6C6343 STOP ADDMOD LT STOP CALLER "
				},
				"gasEstimates": {
					"creation": {
						"codeDepositCost": "1027000",
						"executionCost": "infinite",
						"totalCost": "infinite"
					},
					"external": {
						"approveTransaction(uint256)": "infinite",
						"canExec(uint256)": "infinite",
						"executeTransaction(uint256)": "infinite",
						"isOwner(address)": "2845",
						"makeTransaction(address,uint256)": "98045",
						"revokeApproval(uint256)": "infinite"
					}
				},
				"methodIdentifiers": {
					"approveTransaction(uint256)": "242232d1",
					"canExec(uint256)": "bf97afe0",
					"executeTransaction(uint256)": "ee22610b",
					"isOwner(address)": "2f54bf6e",
					"makeTransaction(address,uint256)": "e6beded8",
					"revokeApproval(uint256)": "b1e130fc"
				}
			},
			"storageLayout": {
				"storage": [
					{
						"astId": 22,
						"contract": "contracts/MultiSigWallet.sol:MultiSigWallet",
						"label": "owners",
						"offset": 0,
						"slot": "0",
						"type": "t_array(t_address)dyn_storage"
					},
					{
						"astId": 26,
						"contract": "contracts/MultiSigWallet.sol:MultiSigWallet",
						"label": "isOwner",
						"offset": 0,
						"slot": "1",
						"type": "t_mapping(t_address,t_bool)"
					},
					{
						"astId": 28,
						"contract": "contracts/MultiSigWallet.sol:MultiSigWallet",
						"label": "required",
						"offset": 0,
						"slot": "2",
						"type": "t_uint256"
					},
					{
						"astId": 34,
						"contract": "contracts/MultiSigWallet.sol:MultiSigWallet",
						"label": "approval",
						"offset": 0,
						"slot": "3",
						"type": "t_mapping(t_uint256,t_mapping(t_address,t_bool))"
					},
					{
						"astId": 45,
						"contract": "contracts/MultiSigWallet.sol:MultiSigWallet",
						"label": "transactions",
						"offset": 0,
						"slot": "4",
						"type": "t_array(t_struct(Transaction)41_storage)dyn_storage"
					}
				],
				"types": {
					"t_address": {
						"encoding": "inplace",
						"label": "address",
						"numberOfBytes": "20"
					},
					"t_array(t_address)dyn_storage": {
						"base": "t_address",
						"encoding": "dynamic_array",
						"label": "address[]",
						"numberOfBytes": "32"
					},
					"t_array(t_struct(Transaction)41_storage)dyn_storage": {
						"base": "t_struct(Transaction)41_storage",
						"encoding": "dynamic_array",
						"label": "struct MultiSigWallet.Transaction[]",
						"numberOfBytes": "32"
					},
					"t_bool": {
						"encoding": "inplace",
						"label": "bool",
						"numberOfBytes": "1"
					},
					"t_mapping(t_address,t_bool)": {
						"encoding": "mapping",
						"key": "t_address",
						"label": "mapping(address => bool)",
						"numberOfBytes": "32",
						"value": "t_bool"
					},
					"t_mapping(t_uint256,t_mapping(t_address,t_bool))": {
						"encoding": "mapping",
						"key": "t_uint256",
						"label": "mapping(uint256 => mapping(address => bool))",
						"numberOfBytes": "32",
						"value": "t_mapping(t_address,t_bool)"
					},
					"t_struct(Transaction)41_storage": {
						"encoding": "inplace",
						"label": "struct MultiSigWallet.Transaction",
						"members": [
							{
								"astId": 36,
								"contract": "contracts/MultiSigWallet.sol:MultiSigWallet",
								"label": "to",
								"offset": 0,
								"slot": "0",
								"type": "t_address"
							},
							{
								"astId": 38,
								"contract": "contracts/MultiSigWallet.sol:MultiSigWallet",
								"label": "value",
								"offset": 0,
								"slot": "1",
								"type": "t_uint256"
							},
							{
								"astId": 40,
								"contract": "contracts/MultiSigWallet.sol:MultiSigWallet",
								"label": "executed",
								"offset": 0,
								"slot": "2",
								"type": "t_bool"
							}
						],
						"numberOfBytes": "96"
					},
					"t_uint256": {
						"encoding": "inplace",
						"label": "uint256",
						"numberOfBytes": "32"
					}
				}
			},
			"userdoc": {
				"kind": "user",
				"methods": {},
				"version": 1
			}
		}
	}
}