{
	"contracts/EthersWallet.sol": {
		"EthersWallet": {
			"abi": [
				{
					"inputs": [],
					"stateMutability": "nonpayable",
					"type": "constructor"
				},
				{
					"stateMutability": "payable",
					"type": "fallback"
				},
				{
					"inputs": [],
					"name": "userBalance",
					"outputs": [
						{
							"internalType": "uint256",
							"name": "",
							"type": "uint256"
						}
					],
					"stateMutability": "view",
					"type": "function"
				},
				{
					"inputs": [
						{
							"internalType": "address",
							"name": "_to",
							"type": "address"
						},
						{
							"internalType": "address",
							"name": "_from",
							"type": "address"
						},
						{
							"internalType": "uint256",
							"name": "_value",
							"type": "uint256"
						}
					],
					"name": "withdraw",
					"outputs": [],
					"stateMutability": "nonpayable",
					"type": "function"
				}
			],
			"devdoc": {
				"kind": "dev",
				"methods": {},
				"version": 1
			},
			"evm": {
				"assembly": "    /* \"contracts/EthersWallet.sol\":66:896  contract EthersWallet {\r... */\n  mstore(0x40, 0x80)\n    /* \"contracts/EthersWallet.sol\":282:333  constructor() {\r... */\n  callvalue\n  dup1\n  iszero\n  tag_1\n  jumpi\n  0x00\n  dup1\n  revert\ntag_1:\n  pop\n    /* \"contracts/EthersWallet.sol\":315:325  msg.sender */\n  caller\n    /* \"contracts/EthersWallet.sol\":307:312  owner */\n  0x00\n  dup1\n    /* \"contracts/EthersWallet.sol\":307:325  owner = msg.sender */\n  0x0100\n  exp\n  dup2\n  sload\n  dup2\n  0xffffffffffffffffffffffffffffffffffffffff\n  mul\n  not\n  and\n  swap1\n  dup4\n  0xffffffffffffffffffffffffffffffffffffffff\n  and\n  mul\n  or\n  swap1\n  sstore\n  pop\n    /* \"contracts/EthersWallet.sol\":66:896  contract EthersWallet {\r... */\n  dataSize(sub_0)\n  dup1\n  dataOffset(sub_0)\n  0x00\n  codecopy\n  0x00\n  return\nstop\n\nsub_0: assembly {\n        /* \"contracts/EthersWallet.sol\":66:896  contract EthersWallet {\r... */\n      mstore(0x40, 0x80)\n      jumpi(tag_1, lt(calldatasize, 0x04))\n      shr(0xe0, calldataload(0x00))\n      dup1\n      0xbf152765\n      eq\n      tag_3\n      jumpi\n      dup1\n      0xd9caed12\n      eq\n      tag_4\n      jumpi\n      jump(tag_2)\n    tag_1:\n    tag_2:\n        /* \"contracts/EthersWallet.sol\":403:412  msg.value */\n      callvalue\n        /* \"contracts/EthersWallet.sol\":379:387  balances */\n      0x01\n        /* \"contracts/EthersWallet.sol\":379:399  balances[msg.sender] */\n      0x00\n        /* \"contracts/EthersWallet.sol\":388:398  msg.sender */\n      caller\n        /* \"contracts/EthersWallet.sol\":379:399  balances[msg.sender] */\n      0xffffffffffffffffffffffffffffffffffffffff\n      and\n      0xffffffffffffffffffffffffffffffffffffffff\n      and\n      dup2\n      mstore\n      0x20\n      add\n      swap1\n      dup2\n      mstore\n      0x20\n      add\n      0x00\n      keccak256\n      0x00\n        /* \"contracts/EthersWallet.sol\":379:412  balances[msg.sender] += msg.value */\n      dup3\n      dup3\n      sload\n      tag_7\n      swap2\n      swap1\n      tag_8\n      jump\t// in\n    tag_7:\n      swap3\n      pop\n      pop\n      dup2\n      swap1\n      sstore\n      pop\n        /* \"contracts/EthersWallet.sol\":66:896  contract EthersWallet {\r... */\n      stop\n        /* \"contracts/EthersWallet.sol\":797:893  function userBalance() external view returns(uint){\r... */\n    tag_3:\n      callvalue\n      dup1\n      iszero\n      tag_9\n      jumpi\n      0x00\n      dup1\n      revert\n    tag_9:\n      pop\n      tag_10\n      tag_11\n      jump\t// in\n    tag_10:\n      mload(0x40)\n      tag_12\n      swap2\n      swap1\n      tag_13\n      jump\t// in\n    tag_12:\n      mload(0x40)\n      dup1\n      swap2\n      sub\n      swap1\n      return\n        /* \"contracts/EthersWallet.sol\":587:789  function withdraw(address _to,address _from, uint _value) external isOwner {\r... */\n    tag_4:\n      callvalue\n      dup1\n      iszero\n      tag_14\n      jumpi\n      0x00\n      dup1\n      revert\n    tag_14:\n      pop\n      tag_15\n      0x04\n      dup1\n      calldatasize\n      sub\n      dup2\n      add\n      swap1\n      tag_16\n      swap2\n      swap1\n      tag_17\n      jump\t// in\n    tag_16:\n      tag_18\n      jump\t// in\n    tag_15:\n      stop\n        /* \"contracts/EthersWallet.sol\":797:893  function userBalance() external view returns(uint){\r... */\n    tag_11:\n        /* \"contracts/EthersWallet.sol\":842:846  uint */\n      0x00\n        /* \"contracts/EthersWallet.sol\":865:873  balances */\n      0x01\n        /* \"contracts/EthersWallet.sol\":865:885  balances[msg.sender] */\n      0x00\n        /* \"contracts/EthersWallet.sol\":874:884  msg.sender */\n      caller\n        /* \"contracts/EthersWallet.sol\":865:885  balances[msg.sender] */\n      0xffffffffffffffffffffffffffffffffffffffff\n      and\n      0xffffffffffffffffffffffffffffffffffffffff\n      and\n      dup2\n      mstore\n      0x20\n      add\n      swap1\n      dup2\n      mstore\n      0x20\n      add\n      0x00\n      keccak256\n      sload\n        /* \"contracts/EthersWallet.sol\":858:885  return balances[msg.sender] */\n      swap1\n      pop\n        /* \"contracts/EthersWallet.sol\":797:893  function userBalance() external view returns(uint){\r... */\n      swap1\n      jump\t// out\n        /* \"contracts/EthersWallet.sol\":587:789  function withdraw(address _to,address _from, uint _value) external isOwner {\r... */\n    tag_18:\n        /* \"contracts/EthersWallet.sol\":227:232  owner */\n      0x00\n      dup1\n      sload\n      swap1\n      0x0100\n      exp\n      swap1\n      div\n      0xffffffffffffffffffffffffffffffffffffffff\n      and\n        /* \"contracts/EthersWallet.sol\":213:232  msg.sender == owner */\n      0xffffffffffffffffffffffffffffffffffffffff\n      and\n        /* \"contracts/EthersWallet.sol\":213:223  msg.sender */\n      caller\n        /* \"contracts/EthersWallet.sol\":213:232  msg.sender == owner */\n      0xffffffffffffffffffffffffffffffffffffffff\n      and\n      eq\n        /* \"contracts/EthersWallet.sol\":205:250  require(msg.sender == owner, \"Not the Owner\") */\n      tag_21\n      jumpi\n      mload(0x40)\n      0x08c379a000000000000000000000000000000000000000000000000000000000\n      dup2\n      mstore\n      0x04\n      add\n      tag_22\n      swap1\n      tag_23\n      jump\t// in\n    tag_22:\n      mload(0x40)\n      dup1\n      swap2\n      sub\n      swap1\n      revert\n    tag_21:\n        /* \"contracts/EthersWallet.sol\":675:678  _to */\n      dup3\n        /* \"contracts/EthersWallet.sol\":675:683  _to.call */\n      0xffffffffffffffffffffffffffffffffffffffff\n      and\n        /* \"contracts/EthersWallet.sol\":691:697  _value */\n      dup2\n        /* \"contracts/EthersWallet.sol\":761:764  _to */\n      dup5\n        /* \"contracts/EthersWallet.sol\":765:770  _from */\n      dup5\n        /* \"contracts/EthersWallet.sol\":771:777  _value */\n      dup5\n        /* \"contracts/EthersWallet.sol\":699:778  abi.encodeWithSignature(\"changeBalance(address,address,uint)\",_to,_from,_value) */\n      add(0x24, mload(0x40))\n      tag_25\n      swap4\n      swap3\n      swap2\n      swap1\n      tag_26\n      jump\t// in\n    tag_25:\n      mload(0x40)\n      0x20\n      dup2\n      dup4\n      sub\n      sub\n      dup2\n      mstore\n      swap1\n      0x40\n      mstore\n      and(not(0xffffffffffffffffffffffffffffffffffffffffffffffffffffffff), 0x01c4dd8000000000000000000000000000000000000000000000000000000000)\n      0x20\n      dup3\n      add\n      dup1\n      mload\n      0xffffffffffffffffffffffffffffffffffffffffffffffffffffffff\n      dup4\n      dup2\n      dup4\n      and\n      or\n      dup4\n      mstore\n      pop\n      pop\n      pop\n      pop\n        /* \"contracts/EthersWallet.sol\":675:779  _to.call{value: _value}(abi.encodeWithSignature(\"changeBalance(address,address,uint)\",_to,_from,_value)) */\n      mload(0x40)\n      tag_27\n      swap2\n      swap1\n      tag_28\n      jump\t// in\n    tag_27:\n      0x00\n      mload(0x40)\n      dup1\n      dup4\n      sub\n      dup2\n      dup6\n      dup8\n      gas\n      call\n      swap3\n      pop\n      pop\n      pop\n      returndatasize\n      dup1\n      0x00\n      dup2\n      eq\n      tag_31\n      jumpi\n      mload(0x40)\n      swap2\n      pop\n      and(add(returndatasize, 0x3f), not(0x1f))\n      dup3\n      add\n      0x40\n      mstore\n      returndatasize\n      dup3\n      mstore\n      returndatasize\n      0x00\n      0x20\n      dup5\n      add\n      returndatacopy\n      jump(tag_30)\n    tag_31:\n      0x60\n      swap2\n      pop\n    tag_30:\n      pop\n      pop\n      pop\n        /* \"contracts/EthersWallet.sol\":587:789  function withdraw(address _to,address _from, uint _value) external isOwner {\r... */\n      pop\n      pop\n      pop\n      jump\t// out\n        /* \"#utility.yul\":7:146   */\n    tag_33:\n        /* \"#utility.yul\":53:58   */\n      0x00\n        /* \"#utility.yul\":91:97   */\n      dup2\n        /* \"#utility.yul\":78:98   */\n      calldataload\n        /* \"#utility.yul\":69:98   */\n      swap1\n      pop\n        /* \"#utility.yul\":107:140   */\n      tag_35\n        /* \"#utility.yul\":134:139   */\n      dup2\n        /* \"#utility.yul\":107:140   */\n      tag_36\n      jump\t// in\n    tag_35:\n        /* \"#utility.yul\":7:146   */\n      swap3\n      swap2\n      pop\n      pop\n      jump\t// out\n        /* \"#utility.yul\":152:291   */\n    tag_37:\n        /* \"#utility.yul\":198:203   */\n      0x00\n        /* \"#utility.yul\":236:242   */\n      dup2\n        /* \"#utility.yul\":223:243   */\n      calldataload\n        /* \"#utility.yul\":214:243   */\n      swap1\n      pop\n        /* \"#utility.yul\":252:285   */\n      tag_39\n        /* \"#utility.yul\":279:284   */\n      dup2\n        /* \"#utility.yul\":252:285   */\n      tag_40\n      jump\t// in\n    tag_39:\n        /* \"#utility.yul\":152:291   */\n      swap3\n      swap2\n      pop\n      pop\n      jump\t// out\n        /* \"#utility.yul\":297:916   */\n    tag_17:\n        /* \"#utility.yul\":374:380   */\n      0x00\n        /* \"#utility.yul\":382:388   */\n      dup1\n        /* \"#utility.yul\":390:396   */\n      0x00\n        /* \"#utility.yul\":439:441   */\n      0x60\n        /* \"#utility.yul\":427:436   */\n      dup5\n        /* \"#utility.yul\":418:425   */\n      dup7\n        /* \"#utility.yul\":414:437   */\n      sub\n        /* \"#utility.yul\":410:442   */\n      slt\n        /* \"#utility.yul\":407:526   */\n      iszero\n      tag_42\n      jumpi\n        /* \"#utility.yul\":445:524   */\n      tag_43\n      tag_44\n      jump\t// in\n    tag_43:\n        /* \"#utility.yul\":407:526   */\n    tag_42:\n        /* \"#utility.yul\":565:566   */\n      0x00\n        /* \"#utility.yul\":590:643   */\n      tag_45\n        /* \"#utility.yul\":635:642   */\n      dup7\n        /* \"#utility.yul\":626:632   */\n      dup3\n        /* \"#utility.yul\":615:624   */\n      dup8\n        /* \"#utility.yul\":611:633   */\n      add\n        /* \"#utility.yul\":590:643   */\n      tag_33\n      jump\t// in\n    tag_45:\n        /* \"#utility.yul\":580:643   */\n      swap4\n      pop\n        /* \"#utility.yul\":536:653   */\n      pop\n        /* \"#utility.yul\":692:694   */\n      0x20\n        /* \"#utility.yul\":718:771   */\n      tag_46\n        /* \"#utility.yul\":763:770   */\n      dup7\n        /* \"#utility.yul\":754:760   */\n      dup3\n        /* \"#utility.yul\":743:752   */\n      dup8\n        /* \"#utility.yul\":739:761   */\n      add\n        /* \"#utility.yul\":718:771   */\n      tag_33\n      jump\t// in\n    tag_46:\n        /* \"#utility.yul\":708:771   */\n      swap3\n      pop\n        /* \"#utility.yul\":663:781   */\n      pop\n        /* \"#utility.yul\":820:822   */\n      0x40\n        /* \"#utility.yul\":846:899   */\n      tag_47\n        /* \"#utility.yul\":891:898   */\n      dup7\n        /* \"#utility.yul\":882:888   */\n      dup3\n        /* \"#utility.yul\":871:880   */\n      dup8\n        /* \"#utility.yul\":867:889   */\n      add\n        /* \"#utility.yul\":846:899   */\n      tag_37\n      jump\t// in\n    tag_47:\n        /* \"#utility.yul\":836:899   */\n      swap2\n      pop\n        /* \"#utility.yul\":791:909   */\n      pop\n        /* \"#utility.yul\":297:916   */\n      swap3\n      pop\n      swap3\n      pop\n      swap3\n      jump\t// out\n        /* \"#utility.yul\":922:1040   */\n    tag_48:\n        /* \"#utility.yul\":1009:1033   */\n      tag_50\n        /* \"#utility.yul\":1027:1032   */\n      dup2\n        /* \"#utility.yul\":1009:1033   */\n      tag_51\n      jump\t// in\n    tag_50:\n        /* \"#utility.yul\":1004:1007   */\n      dup3\n        /* \"#utility.yul\":997:1034   */\n      mstore\n        /* \"#utility.yul\":922:1040   */\n      pop\n      pop\n      jump\t// out\n        /* \"#utility.yul\":1046:1419   */\n    tag_52:\n        /* \"#utility.yul\":1150:1153   */\n      0x00\n        /* \"#utility.yul\":1178:1216   */\n      tag_54\n        /* \"#utility.yul\":1210:1215   */\n      dup3\n        /* \"#utility.yul\":1178:1216   */\n      tag_55\n      jump\t// in\n    tag_54:\n        /* \"#utility.yul\":1232:1320   */\n      tag_56\n        /* \"#utility.yul\":1313:1319   */\n      dup2\n        /* \"#utility.yul\":1308:1311   */\n      dup6\n        /* \"#utility.yul\":1232:1320   */\n      tag_57\n      jump\t// in\n    tag_56:\n        /* \"#utility.yul\":1225:1320   */\n      swap4\n      pop\n        /* \"#utility.yul\":1329:1381   */\n      tag_58\n        /* \"#utility.yul\":1374:1380   */\n      dup2\n        /* \"#utility.yul\":1369:1372   */\n      dup6\n        /* \"#utility.yul\":1362:1366   */\n      0x20\n        /* \"#utility.yul\":1355:1360   */\n      dup7\n        /* \"#utility.yul\":1351:1367   */\n      add\n        /* \"#utility.yul\":1329:1381   */\n      tag_59\n      jump\t// in\n    tag_58:\n        /* \"#utility.yul\":1406:1412   */\n      dup1\n        /* \"#utility.yul\":1401:1404   */\n      dup5\n        /* \"#utility.yul\":1397:1413   */\n      add\n        /* \"#utility.yul\":1390:1413   */\n      swap2\n      pop\n        /* \"#utility.yul\":1154:1419   */\n      pop\n        /* \"#utility.yul\":1046:1419   */\n      swap3\n      swap2\n      pop\n      pop\n      jump\t// out\n        /* \"#utility.yul\":1425:1791   */\n    tag_60:\n        /* \"#utility.yul\":1567:1570   */\n      0x00\n        /* \"#utility.yul\":1588:1655   */\n      tag_62\n        /* \"#utility.yul\":1652:1654   */\n      0x0d\n        /* \"#utility.yul\":1647:1650   */\n      dup4\n        /* \"#utility.yul\":1588:1655   */\n      tag_63\n      jump\t// in\n    tag_62:\n        /* \"#utility.yul\":1581:1655   */\n      swap2\n      pop\n        /* \"#utility.yul\":1664:1757   */\n      tag_64\n        /* \"#utility.yul\":1753:1756   */\n      dup3\n        /* \"#utility.yul\":1664:1757   */\n      tag_65\n      jump\t// in\n    tag_64:\n        /* \"#utility.yul\":1782:1784   */\n      0x20\n        /* \"#utility.yul\":1777:1780   */\n      dup3\n        /* \"#utility.yul\":1773:1785   */\n      add\n        /* \"#utility.yul\":1766:1785   */\n      swap1\n      pop\n        /* \"#utility.yul\":1425:1791   */\n      swap2\n      swap1\n      pop\n      jump\t// out\n        /* \"#utility.yul\":1797:1915   */\n    tag_66:\n        /* \"#utility.yul\":1884:1908   */\n      tag_68\n        /* \"#utility.yul\":1902:1907   */\n      dup2\n        /* \"#utility.yul\":1884:1908   */\n      tag_69\n      jump\t// in\n    tag_68:\n        /* \"#utility.yul\":1879:1882   */\n      dup3\n        /* \"#utility.yul\":1872:1909   */\n      mstore\n        /* \"#utility.yul\":1797:1915   */\n      pop\n      pop\n      jump\t// out\n        /* \"#utility.yul\":1921:2192   */\n    tag_28:\n        /* \"#utility.yul\":2051:2054   */\n      0x00\n        /* \"#utility.yul\":2073:2166   */\n      tag_71\n        /* \"#utility.yul\":2162:2165   */\n      dup3\n        /* \"#utility.yul\":2153:2159   */\n      dup5\n        /* \"#utility.yul\":2073:2166   */\n      tag_52\n      jump\t// in\n    tag_71:\n        /* \"#utility.yul\":2066:2166   */\n      swap2\n      pop\n        /* \"#utility.yul\":2183:2186   */\n      dup2\n        /* \"#utility.yul\":2176:2186   */\n      swap1\n      pop\n        /* \"#utility.yul\":1921:2192   */\n      swap3\n      swap2\n      pop\n      pop\n      jump\t// out\n        /* \"#utility.yul\":2198:2640   */\n    tag_26:\n        /* \"#utility.yul\":2347:2351   */\n      0x00\n        /* \"#utility.yul\":2385:2387   */\n      0x60\n        /* \"#utility.yul\":2374:2383   */\n      dup3\n        /* \"#utility.yul\":2370:2388   */\n      add\n        /* \"#utility.yul\":2362:2388   */\n      swap1\n      pop\n        /* \"#utility.yul\":2398:2469   */\n      tag_73\n        /* \"#utility.yul\":2466:2467   */\n      0x00\n        /* \"#utility.yul\":2455:2464   */\n      dup4\n        /* \"#utility.yul\":2451:2468   */\n      add\n        /* \"#utility.yul\":2442:2448   */\n      dup7\n        /* \"#utility.yul\":2398:2469   */\n      tag_48\n      jump\t// in\n    tag_73:\n        /* \"#utility.yul\":2479:2551   */\n      tag_74\n        /* \"#utility.yul\":2547:2549   */\n      0x20\n        /* \"#utility.yul\":2536:2545   */\n      dup4\n        /* \"#utility.yul\":2532:2550   */\n      add\n        /* \"#utility.yul\":2523:2529   */\n      dup6\n        /* \"#utility.yul\":2479:2551   */\n      tag_48\n      jump\t// in\n    tag_74:\n        /* \"#utility.yul\":2561:2633   */\n      tag_75\n        /* \"#utility.yul\":2629:2631   */\n      0x40\n        /* \"#utility.yul\":2618:2627   */\n      dup4\n        /* \"#utility.yul\":2614:2632   */\n      add\n        /* \"#utility.yul\":2605:2611   */\n      dup5\n        /* \"#utility.yul\":2561:2633   */\n      tag_66\n      jump\t// in\n    tag_75:\n        /* \"#utility.yul\":2198:2640   */\n      swap5\n      swap4\n      pop\n      pop\n      pop\n      pop\n      jump\t// out\n        /* \"#utility.yul\":2646:3065   */\n    tag_23:\n        /* \"#utility.yul\":2812:2816   */\n      0x00\n        /* \"#utility.yul\":2850:2852   */\n      0x20\n        /* \"#utility.yul\":2839:2848   */\n      dup3\n        /* \"#utility.yul\":2835:2853   */\n      add\n        /* \"#utility.yul\":2827:2853   */\n      swap1\n      pop\n        /* \"#utility.yul\":2899:2908   */\n      dup2\n        /* \"#utility.yul\":2893:2897   */\n      dup2\n        /* \"#utility.yul\":2889:2909   */\n      sub\n        /* \"#utility.yul\":2885:2886   */\n      0x00\n        /* \"#utility.yul\":2874:2883   */\n      dup4\n        /* \"#utility.yul\":2870:2887   */\n      add\n        /* \"#utility.yul\":2863:2910   */\n      mstore\n        /* \"#utility.yul\":2927:3058   */\n      tag_77\n        /* \"#utility.yul\":3053:3057   */\n      dup2\n        /* \"#utility.yul\":2927:3058   */\n      tag_60\n      jump\t// in\n    tag_77:\n        /* \"#utility.yul\":2919:3058   */\n      swap1\n      pop\n        /* \"#utility.yul\":2646:3065   */\n      swap2\n      swap1\n      pop\n      jump\t// out\n        /* \"#utility.yul\":3071:3293   */\n    tag_13:\n        /* \"#utility.yul\":3164:3168   */\n      0x00\n        /* \"#utility.yul\":3202:3204   */\n      0x20\n        /* \"#utility.yul\":3191:3200   */\n      dup3\n        /* \"#utility.yul\":3187:3205   */\n      add\n        /* \"#utility.yul\":3179:3205   */\n      swap1\n      pop\n        /* \"#utility.yul\":3215:3286   */\n      tag_79\n        /* \"#utility.yul\":3283:3284   */\n      0x00\n        /* \"#utility.yul\":3272:3281   */\n      dup4\n        /* \"#utility.yul\":3268:3285   */\n      add\n        /* \"#utility.yul\":3259:3265   */\n      dup5\n        /* \"#utility.yul\":3215:3286   */\n      tag_66\n      jump\t// in\n    tag_79:\n        /* \"#utility.yul\":3071:3293   */\n      swap3\n      swap2\n      pop\n      pop\n      jump\t// out\n        /* \"#utility.yul\":3380:3478   */\n    tag_55:\n        /* \"#utility.yul\":3431:3437   */\n      0x00\n        /* \"#utility.yul\":3465:3470   */\n      dup2\n        /* \"#utility.yul\":3459:3471   */\n      mload\n        /* \"#utility.yul\":3449:3471   */\n      swap1\n      pop\n        /* \"#utility.yul\":3380:3478   */\n      swap2\n      swap1\n      pop\n      jump\t// out\n        /* \"#utility.yul\":3484:3631   */\n    tag_57:\n        /* \"#utility.yul\":3585:3596   */\n      0x00\n        /* \"#utility.yul\":3622:3625   */\n      dup2\n        /* \"#utility.yul\":3607:3625   */\n      swap1\n      pop\n        /* \"#utility.yul\":3484:3631   */\n      swap3\n      swap2\n      pop\n      pop\n      jump\t// out\n        /* \"#utility.yul\":3637:3806   */\n    tag_63:\n        /* \"#utility.yul\":3721:3732   */\n      0x00\n        /* \"#utility.yul\":3755:3761   */\n      dup3\n        /* \"#utility.yul\":3750:3753   */\n      dup3\n        /* \"#utility.yul\":3743:3762   */\n      mstore\n        /* \"#utility.yul\":3795:3799   */\n      0x20\n        /* \"#utility.yul\":3790:3793   */\n      dup3\n        /* \"#utility.yul\":3786:3800   */\n      add\n        /* \"#utility.yul\":3771:3800   */\n      swap1\n      pop\n        /* \"#utility.yul\":3637:3806   */\n      swap3\n      swap2\n      pop\n      pop\n      jump\t// out\n        /* \"#utility.yul\":3812:4117   */\n    tag_8:\n        /* \"#utility.yul\":3852:3855   */\n      0x00\n        /* \"#utility.yul\":3871:3891   */\n      tag_86\n        /* \"#utility.yul\":3889:3890   */\n      dup3\n        /* \"#utility.yul\":3871:3891   */\n      tag_69\n      jump\t// in\n    tag_86:\n        /* \"#utility.yul\":3866:3891   */\n      swap2\n      pop\n        /* \"#utility.yul\":3905:3925   */\n      tag_87\n        /* \"#utility.yul\":3923:3924   */\n      dup4\n        /* \"#utility.yul\":3905:3925   */\n      tag_69\n      jump\t// in\n    tag_87:\n        /* \"#utility.yul\":3900:3925   */\n      swap3\n      pop\n        /* \"#utility.yul\":4059:4060   */\n      dup3\n        /* \"#utility.yul\":3991:4057   */\n      0xffffffffffffffffffffffffffffffffffffffffffffffffffffffffffffffff\n        /* \"#utility.yul\":3987:4061   */\n      sub\n        /* \"#utility.yul\":3984:3985   */\n      dup3\n        /* \"#utility.yul\":3981:4062   */\n      gt\n        /* \"#utility.yul\":3978:4085   */\n      iszero\n      tag_88\n      jumpi\n        /* \"#utility.yul\":4065:4083   */\n      tag_89\n      tag_90\n      jump\t// in\n    tag_89:\n        /* \"#utility.yul\":3978:4085   */\n    tag_88:\n        /* \"#utility.yul\":4109:4110   */\n      dup3\n        /* \"#utility.yul\":4106:4107   */\n      dup3\n        /* \"#utility.yul\":4102:4111   */\n      add\n        /* \"#utility.yul\":4095:4111   */\n      swap1\n      pop\n        /* \"#utility.yul\":3812:4117   */\n      swap3\n      swap2\n      pop\n      pop\n      jump\t// out\n        /* \"#utility.yul\":4123:4219   */\n    tag_51:\n        /* \"#utility.yul\":4160:4167   */\n      0x00\n        /* \"#utility.yul\":4189:4213   */\n      tag_92\n        /* \"#utility.yul\":4207:4212   */\n      dup3\n        /* \"#utility.yul\":4189:4213   */\n      tag_93\n      jump\t// in\n    tag_92:\n        /* \"#utility.yul\":4178:4213   */\n      swap1\n      pop\n        /* \"#utility.yul\":4123:4219   */\n      swap2\n      swap1\n      pop\n      jump\t// out\n        /* \"#utility.yul\":4225:4351   */\n    tag_93:\n        /* \"#utility.yul\":4262:4269   */\n      0x00\n        /* \"#utility.yul\":4302:4344   */\n      0xffffffffffffffffffffffffffffffffffffffff\n        /* \"#utility.yul\":4295:4300   */\n      dup3\n        /* \"#utility.yul\":4291:4345   */\n      and\n        /* \"#utility.yul\":4280:4345   */\n      swap1\n      pop\n        /* \"#utility.yul\":4225:4351   */\n      swap2\n      swap1\n      pop\n      jump\t// out\n        /* \"#utility.yul\":4357:4434   */\n    tag_69:\n        /* \"#utility.yul\":4394:4401   */\n      0x00\n        /* \"#utility.yul\":4423:4428   */\n      dup2\n        /* \"#utility.yul\":4412:4428   */\n      swap1\n      pop\n        /* \"#utility.yul\":4357:4434   */\n      swap2\n      swap1\n      pop\n      jump\t// out\n        /* \"#utility.yul\":4440:4747   */\n    tag_59:\n        /* \"#utility.yul\":4508:4509   */\n      0x00\n        /* \"#utility.yul\":4518:4631   */\n    tag_97:\n        /* \"#utility.yul\":4532:4538   */\n      dup4\n        /* \"#utility.yul\":4529:4530   */\n      dup2\n        /* \"#utility.yul\":4526:4539   */\n      lt\n        /* \"#utility.yul\":4518:4631   */\n      iszero\n      tag_99\n      jumpi\n        /* \"#utility.yul\":4617:4618   */\n      dup1\n        /* \"#utility.yul\":4612:4615   */\n      dup3\n        /* \"#utility.yul\":4608:4619   */\n      add\n        /* \"#utility.yul\":4602:4620   */\n      mload\n        /* \"#utility.yul\":4598:4599   */\n      dup2\n        /* \"#utility.yul\":4593:4596   */\n      dup5\n        /* \"#utility.yul\":4589:4600   */\n      add\n        /* \"#utility.yul\":4582:4621   */\n      mstore\n        /* \"#utility.yul\":4554:4556   */\n      0x20\n        /* \"#utility.yul\":4551:4552   */\n      dup2\n        /* \"#utility.yul\":4547:4557   */\n      add\n        /* \"#utility.yul\":4542:4557   */\n      swap1\n      pop\n        /* \"#utility.yul\":4518:4631   */\n      jump(tag_97)\n    tag_99:\n        /* \"#utility.yul\":4649:4655   */\n      dup4\n        /* \"#utility.yul\":4646:4647   */\n      dup2\n        /* \"#utility.yul\":4643:4656   */\n      gt\n        /* \"#utility.yul\":4640:4741   */\n      iszero\n      tag_100\n      jumpi\n        /* \"#utility.yul\":4729:4730   */\n      0x00\n        /* \"#utility.yul\":4720:4726   */\n      dup5\n        /* \"#utility.yul\":4715:4718   */\n      dup5\n        /* \"#utility.yul\":4711:4727   */\n      add\n        /* \"#utility.yul\":4704:4731   */\n      mstore\n        /* \"#utility.yul\":4640:4741   */\n    tag_100:\n        /* \"#utility.yul\":4489:4747   */\n      pop\n        /* \"#utility.yul\":4440:4747   */\n      pop\n      pop\n      pop\n      jump\t// out\n        /* \"#utility.yul\":4753:4933   */\n    tag_90:\n        /* \"#utility.yul\":4801:4878   */\n      0x4e487b7100000000000000000000000000000000000000000000000000000000\n        /* \"#utility.yul\":4798:4799   */\n      0x00\n        /* \"#utility.yul\":4791:4879   */\n      mstore\n        /* \"#utility.yul\":4898:4902   */\n      0x11\n        /* \"#utility.yul\":4895:4896   */\n      0x04\n        /* \"#utility.yul\":4888:4903   */\n      mstore\n        /* \"#utility.yul\":4922:4926   */\n      0x24\n        /* \"#utility.yul\":4919:4920   */\n      0x00\n        /* \"#utility.yul\":4912:4927   */\n      revert\n        /* \"#utility.yul\":5062:5179   */\n    tag_44:\n        /* \"#utility.yul\":5171:5172   */\n      0x00\n        /* \"#utility.yul\":5168:5169   */\n      dup1\n        /* \"#utility.yul\":5161:5173   */\n      revert\n        /* \"#utility.yul\":5185:5348   */\n    tag_65:\n        /* \"#utility.yul\":5325:5340   */\n      0x4e6f7420746865204f776e657200000000000000000000000000000000000000\n        /* \"#utility.yul\":5321:5322   */\n      0x00\n        /* \"#utility.yul\":5313:5319   */\n      dup3\n        /* \"#utility.yul\":5309:5323   */\n      add\n        /* \"#utility.yul\":5302:5341   */\n      mstore\n        /* \"#utility.yul\":5185:5348   */\n      pop\n      jump\t// out\n        /* \"#utility.yul\":5354:5476   */\n    tag_36:\n        /* \"#utility.yul\":5427:5451   */\n      tag_107\n        /* \"#utility.yul\":5445:5450   */\n      dup2\n        /* \"#utility.yul\":5427:5451   */\n      tag_51\n      jump\t// in\n    tag_107:\n        /* \"#utility.yul\":5420:5425   */\n      dup2\n        /* \"#utility.yul\":5417:5452   */\n      eq\n        /* \"#utility.yul\":5407:5470   */\n      tag_108\n      jumpi\n        /* \"#utility.yul\":5466:5467   */\n      0x00\n        /* \"#utility.yul\":5463:5464   */\n      dup1\n        /* \"#utility.yul\":5456:5468   */\n      revert\n        /* \"#utility.yul\":5407:5470   */\n    tag_108:\n        /* \"#utility.yul\":5354:5476   */\n      pop\n      jump\t// out\n        /* \"#utility.yul\":5482:5604   */\n    tag_40:\n        /* \"#utility.yul\":5555:5579   */\n      tag_110\n        /* \"#utility.yul\":5573:5578   */\n      dup2\n        /* \"#utility.yul\":5555:5579   */\n      tag_69\n      jump\t// in\n    tag_110:\n        /* \"#utility.yul\":5548:5553   */\n      dup2\n        /* \"#utility.yul\":5545:5580   */\n      eq\n        /* \"#utility.yul\":5535:5598   */\n      tag_111\n      jumpi\n        /* \"#utility.yul\":5594:5595   */\n      0x00\n        /* \"#utility.yul\":5591:5592   */\n      dup1\n        /* \"#utility.yul\":5584:5596   */\n      revert\n        /* \"#utility.yul\":5535:5598   */\n    tag_111:\n        /* \"#utility.yul\":5482:5604   */\n      pop\n      jump\t// out\n\n    auxdata: 0xa2646970667358221220d81ee2e0509e0535998b860bd08608626454387d4a4ab484f285f79e545dea7564736f6c63430008070033\n}\n",
				"bytecode": {
					"linkReferences": {},
					"object": "608060405234801561001057600080fd5b50336000806101000a81548173ffffffffffffffffffffffffffffffffffffffff021916908373ffffffffffffffffffffffffffffffffffffffff1602179055506105d5806100606000396000f3fe60806040526004361061002d5760003560e01c8063bf15276514610086578063d9caed12146100b15761002e565b5b34600160003373ffffffffffffffffffffffffffffffffffffffff1673ffffffffffffffffffffffffffffffffffffffff168152602001908152602001600020600082825461007d919061044f565b92505081905550005b34801561009257600080fd5b5061009b6100da565b6040516100a8919061040d565b60405180910390f35b3480156100bd57600080fd5b506100d860048036038101906100d391906102da565b610121565b005b6000600160003373ffffffffffffffffffffffffffffffffffffffff1673ffffffffffffffffffffffffffffffffffffffff16815260200190815260200160002054905090565b60008054906101000a900473ffffffffffffffffffffffffffffffffffffffff1673ffffffffffffffffffffffffffffffffffffffff163373ffffffffffffffffffffffffffffffffffffffff16146101af576040517f08c379a00000000000000000000000000000000000000000000000000000000081526004016101a6906103ed565b60405180910390fd5b8273ffffffffffffffffffffffffffffffffffffffff16818484846040516024016101dc939291906103b6565b6040516020818303038152906040527f01c4dd80000000000000000000000000000000000000000000000000000000007bffffffffffffffffffffffffffffffffffffffffffffffffffffffff19166020820180517bffffffffffffffffffffffffffffffffffffffffffffffffffffffff8381831617835250505050604051610266919061039f565b60006040518083038185875af1925050503d80600081146102a3576040519150601f19603f3d011682016040523d82523d6000602084013e6102a8565b606091505b505050505050565b6000813590506102bf81610571565b92915050565b6000813590506102d481610588565b92915050565b6000806000606084860312156102f3576102f2610543565b5b6000610301868287016102b0565b9350506020610312868287016102b0565b9250506040610323868287016102c5565b9150509250925092565b610336816104a5565b82525050565b600061034782610428565b6103518185610433565b93506103618185602086016104e1565b80840191505092915050565b600061037a600d8361043e565b915061038582610548565b602082019050919050565b610399816104d7565b82525050565b60006103ab828461033c565b915081905092915050565b60006060820190506103cb600083018661032d565b6103d8602083018561032d565b6103e56040830184610390565b949350505050565b600060208201905081810360008301526104068161036d565b9050919050565b60006020820190506104226000830184610390565b92915050565b600081519050919050565b600081905092915050565b600082825260208201905092915050565b600061045a826104d7565b9150610465836104d7565b9250827fffffffffffffffffffffffffffffffffffffffffffffffffffffffffffffffff0382111561049a57610499610514565b5b828201905092915050565b60006104b0826104b7565b9050919050565b600073ffffffffffffffffffffffffffffffffffffffff82169050919050565b6000819050919050565b60005b838110156104ff5780820151818401526020810190506104e4565b8381111561050e576000848401525b50505050565b7f4e487b7100000000000000000000000000000000000000000000000000000000600052601160045260246000fd5b600080fd5b7f4e6f7420746865204f776e657200000000000000000000000000000000000000600082015250565b61057a816104a5565b811461058557600080fd5b50565b610591816104d7565b811461059c57600080fd5b5056fea2646970667358221220d81ee2e0509e0535998b860bd08608626454387d4a4ab484f285f79e545dea7564736f6c63430008070033",
					"opcodes": "PUSH1 0x80 PUSH1 0x40 MSTORE CALLVALUE DUP1 ISZERO PUSH2 0x10 JUMPI PUSH1 0x0 DUP1 REVERT JUMPDEST POP CALLER PUSH1 0x0 DUP1 PUSH2 0x100 EXP DUP2 SLOAD DUP2 PUSH20 0xFFFFFFFFFFFFFFFFFFFFFFFFFFFFFFFFFFFFFFFF MUL NOT AND SWAP1 DUP4 PUSH20 0xFFFFFFFFFFFFFFFFFFFFFFFFFFFFFFFFFFFFFFFF AND MUL OR SWAP1 SSTORE POP PUSH2 0x5D5 DUP1 PUSH2 0x60 PUSH1 0x0 CODECOPY PUSH1 0x0 RETURN INVALID PUSH1 0x80 PUSH1 0x40 MSTORE PUSH1 0x4 CALLDATASIZE LT PUSH2 0x2D JUMPI PUSH1 0x0 CALLDATALOAD PUSH1 0xE0 SHR DUP1 PUSH4 0xBF152765 EQ PUSH2 0x86 JUMPI DUP1 PUSH4 0xD9CAED12 EQ PUSH2 0xB1 JUMPI PUSH2 0x2E JUMP JUMPDEST JUMPDEST CALLVALUE PUSH1 0x1 PUSH1 0x0 CALLER PUSH20 0xFFFFFFFFFFFFFFFFFFFFFFFFFFFFFFFFFFFFFFFF AND PUSH20 0xFFFFFFFFFFFFFFFFFFFFFFFFFFFFFFFFFFFFFFFF AND DUP2 MSTORE PUSH1 0x20 ADD SWAP1 DUP2 MSTORE PUSH1 0x20 ADD PUSH1 0x0 KECCAK256 PUSH1 0x0 DUP3 DUP3 SLOAD PUSH2 0x7D SWAP2 SWAP1 PUSH2 0x44F JUMP JUMPDEST SWAP3 POP POP DUP2 SWAP1 SSTORE POP STOP JUMPDEST CALLVALUE DUP1 ISZERO PUSH2 0x92 JUMPI PUSH1 0x0 DUP1 REVERT JUMPDEST POP PUSH2 0x9B PUSH2 0xDA JUMP JUMPDEST PUSH1 0x40 MLOAD PUSH2 0xA8 SWAP2 SWAP1 PUSH2 0x40D JUMP JUMPDEST PUSH1 0x40 MLOAD DUP1 SWAP2 SUB SWAP1 RETURN JUMPDEST CALLVALUE DUP1 ISZERO PUSH2 0xBD JUMPI PUSH1 0x0 DUP1 REVERT JUMPDEST POP PUSH2 0xD8 PUSH1 0x4 DUP1 CALLDATASIZE SUB DUP2 ADD SWAP1 PUSH2 0xD3 SWAP2 SWAP1 PUSH2 0x2DA JUMP JUMPDEST PUSH2 0x121 JUMP JUMPDEST STOP JUMPDEST PUSH1 0x0 PUSH1 0x1 PUSH1 0x0 CALLER PUSH20 0xFFFFFFFFFFFFFFFFFFFFFFFFFFFFFFFFFFFFFFFF AND PUSH20 0xFFFFFFFFFFFFFFFFFFFFFFFFFFFFFFFFFFFFFFFF AND DUP2 MSTORE PUSH1 0x20 ADD SWAP1 DUP2 MSTORE PUSH1 0x20 ADD PUSH1 0x0 KECCAK256 SLOAD SWAP1 POP SWAP1 JUMP JUMPDEST PUSH1 0x0 DUP1 SLOAD SWAP1 PUSH2 0x100 EXP SWAP1 DIV PUSH20 0xFFFFFFFFFFFFFFFFFFFFFFFFFFFFFFFFFFFFFFFF AND PUSH20 0xFFFFFFFFFFFFFFFFFFFFFFFFFFFFFFFFFFFFFFFF AND CALLER PUSH20 0xFFFFFFFFFFFFFFFFFFFFFFFFFFFFFFFFFFFFFFFF AND EQ PUSH2 0x1AF JUMPI PUSH1 0x40 MLOAD PUSH32 0x8C379A000000000000000000000000000000000000000000000000000000000 DUP2 MSTORE PUSH1 0x4 ADD PUSH2 0x1A6 SWAP1 PUSH2 0x3ED JUMP JUMPDEST PUSH1 0x40 MLOAD DUP1 SWAP2 SUB SWAP1 REVERT JUMPDEST DUP3 PUSH20 0xFFFFFFFFFFFFFFFFFFFFFFFFFFFFFFFFFFFFFFFF AND DUP2 DUP5 DUP5 DUP5 PUSH1 0x40 MLOAD PUSH1 0x24 ADD PUSH2 0x1DC SWAP4 SWAP3 SWAP2 SWAP1 PUSH2 0x3B6 JUMP JUMPDEST PUSH1 0x40 MLOAD PUSH1 0x20 DUP2 DUP4 SUB SUB DUP2 MSTORE SWAP1 PUSH1 0x40 MSTORE PUSH32 0x1C4DD8000000000000000000000000000000000000000000000000000000000 PUSH28 0xFFFFFFFFFFFFFFFFFFFFFFFFFFFFFFFFFFFFFFFFFFFFFFFFFFFFFFFF NOT AND PUSH1 0x20 DUP3 ADD DUP1 MLOAD PUSH28 0xFFFFFFFFFFFFFFFFFFFFFFFFFFFFFFFFFFFFFFFFFFFFFFFFFFFFFFFF DUP4 DUP2 DUP4 AND OR DUP4 MSTORE POP POP POP POP PUSH1 0x40 MLOAD PUSH2 0x266 SWAP2 SWAP1 PUSH2 0x39F JUMP JUMPDEST PUSH1 0x0 PUSH1 0x40 MLOAD DUP1 DUP4 SUB DUP2 DUP6 DUP8 GAS CALL SWAP3 POP POP POP RETURNDATASIZE DUP1 PUSH1 0x0 DUP2 EQ PUSH2 0x2A3 JUMPI PUSH1 0x40 MLOAD SWAP2 POP PUSH1 0x1F NOT PUSH1 0x3F RETURNDATASIZE ADD AND DUP3 ADD PUSH1 0x40 MSTORE RETURNDATASIZE DUP3 MSTORE RETURNDATASIZE PUSH1 0x0 PUSH1 0x20 DUP5 ADD RETURNDATACOPY PUSH2 0x2A8 JUMP JUMPDEST PUSH1 0x60 SWAP2 POP JUMPDEST POP POP POP POP POP POP JUMP JUMPDEST PUSH1 0x0 DUP2 CALLDATALOAD SWAP1 POP PUSH2 0x2BF DUP2 PUSH2 0x571 JUMP JUMPDEST SWAP3 SWAP2 POP POP JUMP JUMPDEST PUSH1 0x0 DUP2 CALLDATALOAD SWAP1 POP PUSH2 0x2D4 DUP2 PUSH2 0x588 JUMP JUMPDEST SWAP3 SWAP2 POP POP JUMP JUMPDEST PUSH1 0x0 DUP1 PUSH1 0x0 PUSH1 0x60 DUP5 DUP7 SUB SLT ISZERO PUSH2 0x2F3 JUMPI PUSH2 0x2F2 PUSH2 0x543 JUMP JUMPDEST JUMPDEST PUSH1 0x0 PUSH2 0x301 DUP7 DUP3 DUP8 ADD PUSH2 0x2B0 JUMP JUMPDEST SWAP4 POP POP PUSH1 0x20 PUSH2 0x312 DUP7 DUP3 DUP8 ADD PUSH2 0x2B0 JUMP JUMPDEST SWAP3 POP POP PUSH1 0x40 PUSH2 0x323 DUP7 DUP3 DUP8 ADD PUSH2 0x2C5 JUMP JUMPDEST SWAP2 POP POP SWAP3 POP SWAP3 POP SWAP3 JUMP JUMPDEST PUSH2 0x336 DUP2 PUSH2 0x4A5 JUMP JUMPDEST DUP3 MSTORE POP POP JUMP JUMPDEST PUSH1 0x0 PUSH2 0x347 DUP3 PUSH2 0x428 JUMP JUMPDEST PUSH2 0x351 DUP2 DUP6 PUSH2 0x433 JUMP JUMPDEST SWAP4 POP PUSH2 0x361 DUP2 DUP6 PUSH1 0x20 DUP7 ADD PUSH2 0x4E1 JUMP JUMPDEST DUP1 DUP5 ADD SWAP2 POP POP SWAP3 SWAP2 POP POP JUMP JUMPDEST PUSH1 0x0 PUSH2 0x37A PUSH1 0xD DUP4 PUSH2 0x43E JUMP JUMPDEST SWAP2 POP PUSH2 0x385 DUP3 PUSH2 0x548 JUMP JUMPDEST PUSH1 0x20 DUP3 ADD SWAP1 POP SWAP2 SWAP1 POP JUMP JUMPDEST PUSH2 0x399 DUP2 PUSH2 0x4D7 JUMP JUMPDEST DUP3 MSTORE POP POP JUMP JUMPDEST PUSH1 0x0 PUSH2 0x3AB DUP3 DUP5 PUSH2 0x33C JUMP JUMPDEST SWAP2 POP DUP2 SWAP1 POP SWAP3 SWAP2 POP POP JUMP JUMPDEST PUSH1 0x0 PUSH1 0x60 DUP3 ADD SWAP1 POP PUSH2 0x3CB PUSH1 0x0 DUP4 ADD DUP7 PUSH2 0x32D JUMP JUMPDEST PUSH2 0x3D8 PUSH1 0x20 DUP4 ADD DUP6 PUSH2 0x32D JUMP JUMPDEST PUSH2 0x3E5 PUSH1 0x40 DUP4 ADD DUP5 PUSH2 0x390 JUMP JUMPDEST SWAP5 SWAP4 POP POP POP POP JUMP JUMPDEST PUSH1 0x0 PUSH1 0x20 DUP3 ADD SWAP1 POP DUP2 DUP2 SUB PUSH1 0x0 DUP4 ADD MSTORE PUSH2 0x406 DUP2 PUSH2 0x36D JUMP JUMPDEST SWAP1 POP SWAP2 SWAP1 POP JUMP JUMPDEST PUSH1 0x0 PUSH1 0x20 DUP3 ADD SWAP1 POP PUSH2 0x422 PUSH1 0x0 DUP4 ADD DUP5 PUSH2 0x390 JUMP JUMPDEST SWAP3 SWAP2 POP POP JUMP JUMPDEST PUSH1 0x0 DUP2 MLOAD SWAP1 POP SWAP2 SWAP1 POP JUMP JUMPDEST PUSH1 0x0 DUP2 SWAP1 POP SWAP3 SWAP2 POP POP JUMP JUMPDEST PUSH1 0x0 DUP3 DUP3 MSTORE PUSH1 0x20 DUP3 ADD SWAP1 POP SWAP3 SWAP2 POP POP JUMP JUMPDEST PUSH1 0x0 PUSH2 0x45A DUP3 PUSH2 0x4D7 JUMP JUMPDEST SWAP2 POP PUSH2 0x465 DUP4 PUSH2 0x4D7 JUMP JUMPDEST SWAP3 POP DUP3 PUSH32 0xFFFFFFFFFFFFFFFFFFFFFFFFFFFFFFFFFFFFFFFFFFFFFFFFFFFFFFFFFFFFFFFF SUB DUP3 GT ISZERO PUSH2 0x49A JUMPI PUSH2 0x499 PUSH2 0x514 JUMP JUMPDEST JUMPDEST DUP3 DUP3 ADD SWAP1 POP SWAP3 SWAP2 POP POP JUMP JUMPDEST PUSH1 0x0 PUSH2 0x4B0 DUP3 PUSH2 0x4B7 JUMP JUMPDEST SWAP1 POP SWAP2 SWAP1 POP JUMP JUMPDEST PUSH1 0x0 PUSH20 0xFFFFFFFFFFFFFFFFFFFFFFFFFFFFFFFFFFFFFFFF DUP3 AND SWAP1 POP SWAP2 SWAP1 POP JUMP JUMPDEST PUSH1 0x0 DUP2 SWAP1 POP SWAP2 SWAP1 POP JUMP JUMPDEST PUSH1 0x0 JUMPDEST DUP4 DUP2 LT ISZERO PUSH2 0x4FF JUMPI DUP1 DUP3 ADD MLOAD DUP2 DUP5 ADD MSTORE PUSH1 0x20 DUP2 ADD SWAP1 POP PUSH2 0x4E4 JUMP JUMPDEST DUP4 DUP2 GT ISZERO PUSH2 0x50E JUMPI PUSH1 0x0 DUP5 DUP5 ADD MSTORE JUMPDEST POP POP POP POP JUMP JUMPDEST PUSH32 0x4E487B7100000000000000000000000000000000000000000000000000000000 PUSH1 0x0 MSTORE PUSH1 0x11 PUSH1 0x4 MSTORE PUSH1 0x24 PUSH1 0x0 REVERT JUMPDEST PUSH1 0x0 DUP1 REVERT JUMPDEST PUSH32 0x4E6F7420746865204F776E657200000000000000000000000000000000000000 PUSH1 0x0 DUP3 ADD MSTORE POP JUMP JUMPDEST PUSH2 0x57A DUP2 PUSH2 0x4A5 JUMP JUMPDEST DUP2 EQ PUSH2 0x585 JUMPI PUSH1 0x0 DUP1 REVERT JUMPDEST POP JUMP JUMPDEST PUSH2 0x591 DUP2 PUSH2 0x4D7 JUMP JUMPDEST DUP2 EQ PUSH2 0x59C JUMPI PUSH1 0x0 DUP1 REVERT JUMPDEST POP JUMP INVALID LOG2 PUSH5 0x6970667358 0x22 SLT KECCAK256 0xD8 0x1E 0xE2 0xE0 POP SWAP15 SDIV CALLDATALOAD SWAP10 DUP12 DUP7 SIGNEXTEND 0xD0 DUP7 ADDMOD PUSH3 0x645438 PUSH30 0x4A4AB484F285F79E545DEA7564736F6C6343000807003300000000000000 "
				},
				"gasEstimates": {
					"creation": {
						"codeDepositCost": "298600",
						"executionCost": "24603",
						"totalCost": "323203"
					},
					"external": {
						"": "infinite",
						"userBalance()": "2504",
						"withdraw(address,address,uint256)": "infinite"
					},
					"internal": {
						"changeBalance(address,address,uint256)": "infinite"
					}
				},
				"methodIdentifiers": {
					"userBalance()": "bf152765",
					"withdraw(address,address,uint256)": "d9caed12"
				}
			},
			"storageLayout": {
				"storage": [
					{
						"astId": 3,
						"contract": "contracts/EthersWallet.sol:EthersWallet",
						"label": "owner",
						"offset": 0,
						"slot": "0",
						"type": "t_address"
					},
					{
						"astId": 7,
						"contract": "contracts/EthersWallet.sol:EthersWallet",
						"label": "balances",
						"offset": 0,
						"slot": "1",
						"type": "t_mapping(t_address,t_uint256)"
					}
				],
				"types": {
					"t_address": {
						"encoding": "inplace",
						"label": "address",
						"numberOfBytes": "20"
					},
					"t_mapping(t_address,t_uint256)": {
						"encoding": "mapping",
						"key": "t_address",
						"label": "mapping(address => uint256)",
						"numberOfBytes": "32",
						"value": "t_uint256"
					},
					"t_uint256": {
						"encoding": "inplace",
						"label": "uint256",
						"numberOfBytes": "32"
					}
				}
			},
			"userdoc": {
				"kind": "user",
				"methods": {},
				"version": 1
			}
		}
	}
}