{
	"contracts/3_Ballot.sol": {
		"SendEther": {
			"abi": [
				{
					"inputs": [],
					"stateMutability": "payable",
					"type": "constructor"
				},
				{
					"inputs": [],
					"name": "getBal",
					"outputs": [
						{
							"internalType": "uint256",
							"name": "",
							"type": "uint256"
						}
					],
					"stateMutability": "view",
					"type": "function"
				},
				{
					"inputs": [
						{
							"internalType": "address payable",
							"name": "_to",
							"type": "address"
						}
					],
					"name": "sendViaCall",
					"outputs": [],
					"stateMutability": "payable",
					"type": "function"
				},
				{
					"inputs": [
						{
							"internalType": "address payable",
							"name": "_to",
							"type": "address"
						}
					],
					"name": "sendViaSend",
					"outputs": [],
					"stateMutability": "payable",
					"type": "function"
				},
				{
					"inputs": [
						{
							"internalType": "address payable",
							"name": "_to",
							"type": "address"
						}
					],
					"name": "sendViaTransfer",
					"outputs": [],
					"stateMutability": "payable",
					"type": "function"
				},
				{
					"stateMutability": "payable",
					"type": "receive"
				}
			],
			"devdoc": {
				"kind": "dev",
				"methods": {},
				"version": 1
			},
			"evm": {
				"assembly": "    /* \"contracts/3_Ballot.sol\":75:586  contract SendEther{... */\n  mstore(0x40, 0x80)\n  dataSize(sub_0)\n  dup1\n  dataOffset(sub_0)\n  0x00\n  codecopy\n  0x00\n  return\nstop\n\nsub_0: assembly {\n        /* \"contracts/3_Ballot.sol\":75:586  contract SendEther{... */\n      mstore(0x40, 0x80)\n      jumpi(tag_1, lt(calldatasize, 0x04))\n      shr(0xe0, calldataload(0x00))\n      dup1\n      0x25caa262\n      eq\n      tag_3\n      jumpi\n      dup1\n      0x636e082b\n      eq\n      tag_4\n      jumpi\n      dup1\n      0x74be4806\n      eq\n      tag_5\n      jumpi\n      dup1\n      0x830c29ae\n      eq\n      tag_6\n      jumpi\n      jump(tag_2)\n    tag_1:\n      jumpi(tag_2, calldatasize)\n      stop\n    tag_2:\n      0x00\n      dup1\n      revert\n        /* \"contracts/3_Ballot.sol\":138:231  function getBal () external view returns(uint){... */\n    tag_3:\n      callvalue\n      dup1\n      iszero\n      tag_9\n      jumpi\n      0x00\n      dup1\n      revert\n    tag_9:\n      pop\n      tag_10\n      tag_11\n      jump\t// in\n    tag_10:\n      mload(0x40)\n      tag_12\n      swap2\n      swap1\n      tag_13\n      jump\t// in\n    tag_12:\n      mload(0x40)\n      dup1\n      swap2\n      sub\n      swap1\n      return\n        /* \"contracts/3_Ballot.sol\":274:372  function sendViaTransfer(address payable _to) external payable{... */\n    tag_4:\n      tag_14\n      0x04\n      dup1\n      calldatasize\n      sub\n      dup2\n      add\n      swap1\n      tag_15\n      swap2\n      swap1\n      tag_16\n      jump\t// in\n    tag_15:\n      tag_17\n      jump\t// in\n    tag_14:\n      stop\n        /* \"contracts/3_Ballot.sol\":379:469  function sendViaSend(address payable _to) external payable{... */\n    tag_5:\n      tag_18\n      0x04\n      dup1\n      calldatasize\n      sub\n      dup2\n      add\n      swap1\n      tag_19\n      swap2\n      swap1\n      tag_16\n      jump\t// in\n    tag_19:\n      tag_20\n      jump\t// in\n    tag_18:\n      stop\n        /* \"contracts/3_Ballot.sol\":482:580  function sendViaCall(address payable _to) external payable{... */\n    tag_6:\n      tag_21\n      0x04\n      dup1\n      calldatasize\n      sub\n      dup2\n      add\n      swap1\n      tag_22\n      swap2\n      swap1\n      tag_16\n      jump\t// in\n    tag_22:\n      tag_23\n      jump\t// in\n    tag_21:\n      stop\n        /* \"contracts/3_Ballot.sol\":138:231  function getBal () external view returns(uint){... */\n    tag_11:\n        /* \"contracts/3_Ballot.sol\":179:183  uint */\n      0x00\n        /* \"contracts/3_Ballot.sol\":202:223  address(this).balance */\n      selfbalance\n        /* \"contracts/3_Ballot.sol\":195:223  return address(this).balance */\n      swap1\n      pop\n        /* \"contracts/3_Ballot.sol\":138:231  function getBal () external view returns(uint){... */\n      swap1\n      jump\t// out\n        /* \"contracts/3_Ballot.sol\":274:372  function sendViaTransfer(address payable _to) external payable{... */\n    tag_17:\n        /* \"contracts/3_Ballot.sol\":347:350  _to */\n      dup1\n        /* \"contracts/3_Ballot.sol\":347:359  _to.transfer */\n      0xffffffffffffffffffffffffffffffffffffffff\n      and\n        /* \"contracts/3_Ballot.sol\":347:364  _to.transfer(123) */\n      0x08fc\n        /* \"contracts/3_Ballot.sol\":360:363  123 */\n      0x7b\n        /* \"contracts/3_Ballot.sol\":347:364  _to.transfer(123) */\n      swap1\n      dup2\n      iszero\n      mul\n      swap1\n      mload(0x40)\n      0x00\n      mload(0x40)\n      dup1\n      dup4\n      sub\n      dup2\n      dup6\n      dup9\n      dup9\n      call\n      swap4\n      pop\n      pop\n      pop\n      pop\n      iszero\n      dup1\n      iszero\n      tag_27\n      jumpi\n      returndatasize\n      0x00\n      dup1\n      returndatacopy\n      revert(0x00, returndatasize)\n    tag_27:\n      pop\n        /* \"contracts/3_Ballot.sol\":274:372  function sendViaTransfer(address payable _to) external payable{... */\n      pop\n      jump\t// out\n        /* \"contracts/3_Ballot.sol\":379:469  function sendViaSend(address payable _to) external payable{... */\n    tag_20:\n        /* \"contracts/3_Ballot.sol\":448:451  _to */\n      dup1\n        /* \"contracts/3_Ballot.sol\":448:456  _to.send */\n      0xffffffffffffffffffffffffffffffffffffffff\n      and\n        /* \"contracts/3_Ballot.sol\":448:461  _to.send(123) */\n      0x08fc\n        /* \"contracts/3_Ballot.sol\":457:460  123 */\n      0x7b\n        /* \"contracts/3_Ballot.sol\":448:461  _to.send(123) */\n      swap1\n      dup2\n      iszero\n      mul\n      swap1\n      mload(0x40)\n      0x00\n      mload(0x40)\n      dup1\n      dup4\n      sub\n      dup2\n      dup6\n      dup9\n      dup9\n      call\n      swap4\n      pop\n      pop\n      pop\n      pop\n      pop\n        /* \"contracts/3_Ballot.sol\":379:469  function sendViaSend(address payable _to) external payable{... */\n      pop\n      jump\t// out\n        /* \"contracts/3_Ballot.sol\":482:580  function sendViaCall(address payable _to) external payable{... */\n    tag_23:\n        /* \"contracts/3_Ballot.sol\":550:553  _to */\n      dup1\n        /* \"contracts/3_Ballot.sol\":550:558  _to.call */\n      0xffffffffffffffffffffffffffffffffffffffff\n      and\n        /* \"contracts/3_Ballot.sol\":565:568  123 */\n      0x7b\n        /* \"contracts/3_Ballot.sol\":550:573  _to.call{value:123}(\"\") */\n      mload(0x40)\n      tag_31\n      swap1\n      tag_32\n      jump\t// in\n    tag_31:\n      0x00\n      mload(0x40)\n      dup1\n      dup4\n      sub\n      dup2\n      dup6\n      dup8\n      gas\n      call\n      swap3\n      pop\n      pop\n      pop\n      returndatasize\n      dup1\n      0x00\n      dup2\n      eq\n      tag_35\n      jumpi\n      mload(0x40)\n      swap2\n      pop\n      and(add(returndatasize, 0x3f), not(0x1f))\n      dup3\n      add\n      0x40\n      mstore\n      returndatasize\n      dup3\n      mstore\n      returndatasize\n      0x00\n      0x20\n      dup5\n      add\n      returndatacopy\n      jump(tag_34)\n    tag_35:\n      0x60\n      swap2\n      pop\n    tag_34:\n      pop\n      pop\n      pop\n        /* \"contracts/3_Ballot.sol\":482:580  function sendViaCall(address payable _to) external payable{... */\n      pop\n      jump\t// out\n        /* \"#utility.yul\":7:162   */\n    tag_37:\n      0x00\n        /* \"#utility.yul\":99:105   */\n      dup2\n        /* \"#utility.yul\":86:106   */\n      calldataload\n        /* \"#utility.yul\":77:106   */\n      swap1\n      pop\n        /* \"#utility.yul\":115:156   */\n      tag_39\n        /* \"#utility.yul\":150:155   */\n      dup2\n        /* \"#utility.yul\":115:156   */\n      tag_40\n      jump\t// in\n    tag_39:\n        /* \"#utility.yul\":67:162   */\n      swap3\n      swap2\n      pop\n      pop\n      jump\t// out\n        /* \"#utility.yul\":168:446   */\n    tag_16:\n      0x00\n        /* \"#utility.yul\":284:286   */\n      0x20\n        /* \"#utility.yul\":272:281   */\n      dup3\n        /* \"#utility.yul\":263:270   */\n      dup5\n        /* \"#utility.yul\":259:282   */\n      sub\n        /* \"#utility.yul\":255:287   */\n      slt\n        /* \"#utility.yul\":252:254   */\n      iszero\n      tag_42\n      jumpi\n        /* \"#utility.yul\":300:301   */\n      0x00\n        /* \"#utility.yul\":297:298   */\n      dup1\n        /* \"#utility.yul\":290:302   */\n      revert\n        /* \"#utility.yul\":252:254   */\n    tag_42:\n        /* \"#utility.yul\":343:344   */\n      0x00\n        /* \"#utility.yul\":368:429   */\n      tag_43\n        /* \"#utility.yul\":421:428   */\n      dup5\n        /* \"#utility.yul\":412:418   */\n      dup3\n        /* \"#utility.yul\":401:410   */\n      dup6\n        /* \"#utility.yul\":397:419   */\n      add\n        /* \"#utility.yul\":368:429   */\n      tag_37\n      jump\t// in\n    tag_43:\n        /* \"#utility.yul\":358:429   */\n      swap2\n      pop\n        /* \"#utility.yul\":314:439   */\n      pop\n        /* \"#utility.yul\":242:446   */\n      swap3\n      swap2\n      pop\n      pop\n      jump\t// out\n        /* \"#utility.yul\":452:749   */\n    tag_44:\n      0x00\n        /* \"#utility.yul\":632:715   */\n      tag_46\n        /* \"#utility.yul\":713:714   */\n      0x00\n        /* \"#utility.yul\":708:711   */\n      dup4\n        /* \"#utility.yul\":632:715   */\n      tag_47\n      jump\t// in\n    tag_46:\n        /* \"#utility.yul\":625:715   */\n      swap2\n      pop\n        /* \"#utility.yul\":741:742   */\n      0x00\n        /* \"#utility.yul\":736:739   */\n      dup3\n        /* \"#utility.yul\":732:743   */\n      add\n        /* \"#utility.yul\":725:743   */\n      swap1\n      pop\n        /* \"#utility.yul\":615:749   */\n      swap2\n      swap1\n      pop\n      jump\t// out\n        /* \"#utility.yul\":755:873   */\n    tag_48:\n        /* \"#utility.yul\":842:866   */\n      tag_50\n        /* \"#utility.yul\":860:865   */\n      dup2\n        /* \"#utility.yul\":842:866   */\n      tag_51\n      jump\t// in\n    tag_50:\n        /* \"#utility.yul\":837:840   */\n      dup3\n        /* \"#utility.yul\":830:867   */\n      mstore\n        /* \"#utility.yul\":820:873   */\n      pop\n      pop\n      jump\t// out\n        /* \"#utility.yul\":879:1258   */\n    tag_32:\n      0x00\n        /* \"#utility.yul\":1085:1232   */\n      tag_53\n        /* \"#utility.yul\":1228:1231   */\n      dup3\n        /* \"#utility.yul\":1085:1232   */\n      tag_44\n      jump\t// in\n    tag_53:\n        /* \"#utility.yul\":1078:1232   */\n      swap2\n      pop\n        /* \"#utility.yul\":1249:1252   */\n      dup2\n        /* \"#utility.yul\":1242:1252   */\n      swap1\n      pop\n        /* \"#utility.yul\":1067:1258   */\n      swap2\n      swap1\n      pop\n      jump\t// out\n        /* \"#utility.yul\":1264:1486   */\n    tag_13:\n      0x00\n        /* \"#utility.yul\":1395:1397   */\n      0x20\n        /* \"#utility.yul\":1384:1393   */\n      dup3\n        /* \"#utility.yul\":1380:1398   */\n      add\n        /* \"#utility.yul\":1372:1398   */\n      swap1\n      pop\n        /* \"#utility.yul\":1408:1479   */\n      tag_55\n        /* \"#utility.yul\":1476:1477   */\n      0x00\n        /* \"#utility.yul\":1465:1474   */\n      dup4\n        /* \"#utility.yul\":1461:1478   */\n      add\n        /* \"#utility.yul\":1452:1458   */\n      dup5\n        /* \"#utility.yul\":1408:1479   */\n      tag_48\n      jump\t// in\n    tag_55:\n        /* \"#utility.yul\":1362:1486   */\n      swap3\n      swap2\n      pop\n      pop\n      jump\t// out\n        /* \"#utility.yul\":1492:1639   */\n    tag_47:\n      0x00\n        /* \"#utility.yul\":1630:1633   */\n      dup2\n        /* \"#utility.yul\":1615:1633   */\n      swap1\n      pop\n        /* \"#utility.yul\":1605:1639   */\n      swap3\n      swap2\n      pop\n      pop\n      jump\t// out\n        /* \"#utility.yul\":1645:1749   */\n    tag_57:\n      0x00\n        /* \"#utility.yul\":1719:1743   */\n      tag_59\n        /* \"#utility.yul\":1737:1742   */\n      dup3\n        /* \"#utility.yul\":1719:1743   */\n      tag_60\n      jump\t// in\n    tag_59:\n        /* \"#utility.yul\":1708:1743   */\n      swap1\n      pop\n        /* \"#utility.yul\":1698:1749   */\n      swap2\n      swap1\n      pop\n      jump\t// out\n        /* \"#utility.yul\":1755:1881   */\n    tag_60:\n      0x00\n        /* \"#utility.yul\":1832:1874   */\n      0xffffffffffffffffffffffffffffffffffffffff\n        /* \"#utility.yul\":1825:1830   */\n      dup3\n        /* \"#utility.yul\":1821:1875   */\n      and\n        /* \"#utility.yul\":1810:1875   */\n      swap1\n      pop\n        /* \"#utility.yul\":1800:1881   */\n      swap2\n      swap1\n      pop\n      jump\t// out\n        /* \"#utility.yul\":1887:1964   */\n    tag_51:\n      0x00\n        /* \"#utility.yul\":1953:1958   */\n      dup2\n        /* \"#utility.yul\":1942:1958   */\n      swap1\n      pop\n        /* \"#utility.yul\":1932:1964   */\n      swap2\n      swap1\n      pop\n      jump\t// out\n        /* \"#utility.yul\":1970:2108   */\n    tag_40:\n        /* \"#utility.yul\":2051:2083   */\n      tag_64\n        /* \"#utility.yul\":2077:2082   */\n      dup2\n        /* \"#utility.yul\":2051:2083   */\n      tag_57\n      jump\t// in\n    tag_64:\n        /* \"#utility.yul\":2044:2049   */\n      dup2\n        /* \"#utility.yul\":2041:2084   */\n      eq\n        /* \"#utility.yul\":2031:2033   */\n      tag_65\n      jumpi\n        /* \"#utility.yul\":2098:2099   */\n      0x00\n        /* \"#utility.yul\":2095:2096   */\n      dup1\n        /* \"#utility.yul\":2088:2100   */\n      revert\n        /* \"#utility.yul\":2031:2033   */\n    tag_65:\n        /* \"#utility.yul\":2021:2108   */\n      pop\n      jump\t// out\n\n    auxdata: 0xa26469706673582212202345ed1a35bab6974224ff16e720d6d68073429c84863a05b816109993ce0a4d64736f6c63430008000033\n}\n",
				"bytecode": {
					"linkReferences": {},
					"object": "60806040526102f3806100136000396000f3fe6080604052600436106100435760003560e01c806325caa2621461004f578063636e082b1461007a57806374be480614610096578063830c29ae146100b25761004a565b3661004a57005b600080fd5b34801561005b57600080fd5b506100646100ce565b6040516100719190610244565b60405180910390f35b610094600480360381019061008f91906101dd565b6100d6565b005b6100b060048036038101906100ab91906101dd565b610121565b005b6100cc60048036038101906100c791906101dd565b61015b565b005b600047905090565b8073ffffffffffffffffffffffffffffffffffffffff166108fc607b9081150290604051600060405180830381858888f1935050505015801561011d573d6000803e3d6000fd5b5050565b8073ffffffffffffffffffffffffffffffffffffffff166108fc607b9081150290604051600060405180830381858888f193505050505050565b8073ffffffffffffffffffffffffffffffffffffffff16607b6040516101809061022f565b60006040518083038185875af1925050503d80600081146101bd576040519150601f19603f3d011682016040523d82523d6000602084013e6101c2565b606091505b50505050565b6000813590506101d7816102a6565b92915050565b6000602082840312156101ef57600080fd5b60006101fd848285016101c8565b91505092915050565b600061021360008361025f565b9150600082019050919050565b6102298161029c565b82525050565b600061023a82610206565b9150819050919050565b60006020820190506102596000830184610220565b92915050565b600081905092915050565b60006102758261027c565b9050919050565b600073ffffffffffffffffffffffffffffffffffffffff82169050919050565b6000819050919050565b6102af8161026a565b81146102ba57600080fd5b5056fea26469706673582212202345ed1a35bab6974224ff16e720d6d68073429c84863a05b816109993ce0a4d64736f6c63430008000033",
					"opcodes": "PUSH1 0x80 PUSH1 0x40 MSTORE PUSH2 0x2F3 DUP1 PUSH2 0x13 PUSH1 0x0 CODECOPY PUSH1 0x0 RETURN INVALID PUSH1 0x80 PUSH1 0x40 MSTORE PUSH1 0x4 CALLDATASIZE LT PUSH2 0x43 JUMPI PUSH1 0x0 CALLDATALOAD PUSH1 0xE0 SHR DUP1 PUSH4 0x25CAA262 EQ PUSH2 0x4F JUMPI DUP1 PUSH4 0x636E082B EQ PUSH2 0x7A JUMPI DUP1 PUSH4 0x74BE4806 EQ PUSH2 0x96 JUMPI DUP1 PUSH4 0x830C29AE EQ PUSH2 0xB2 JUMPI PUSH2 0x4A JUMP JUMPDEST CALLDATASIZE PUSH2 0x4A JUMPI STOP JUMPDEST PUSH1 0x0 DUP1 REVERT JUMPDEST CALLVALUE DUP1 ISZERO PUSH2 0x5B JUMPI PUSH1 0x0 DUP1 REVERT JUMPDEST POP PUSH2 0x64 PUSH2 0xCE JUMP JUMPDEST PUSH1 0x40 MLOAD PUSH2 0x71 SWAP2 SWAP1 PUSH2 0x244 JUMP JUMPDEST PUSH1 0x40 MLOAD DUP1 SWAP2 SUB SWAP1 RETURN JUMPDEST PUSH2 0x94 PUSH1 0x4 DUP1 CALLDATASIZE SUB DUP2 ADD SWAP1 PUSH2 0x8F SWAP2 SWAP1 PUSH2 0x1DD JUMP JUMPDEST PUSH2 0xD6 JUMP JUMPDEST STOP JUMPDEST PUSH2 0xB0 PUSH1 0x4 DUP1 CALLDATASIZE SUB DUP2 ADD SWAP1 PUSH2 0xAB SWAP2 SWAP1 PUSH2 0x1DD JUMP JUMPDEST PUSH2 0x121 JUMP JUMPDEST STOP JUMPDEST PUSH2 0xCC PUSH1 0x4 DUP1 CALLDATASIZE SUB DUP2 ADD SWAP1 PUSH2 0xC7 SWAP2 SWAP1 PUSH2 0x1DD JUMP JUMPDEST PUSH2 0x15B JUMP JUMPDEST STOP JUMPDEST PUSH1 0x0 SELFBALANCE SWAP1 POP SWAP1 JUMP JUMPDEST DUP1 PUSH20 0xFFFFFFFFFFFFFFFFFFFFFFFFFFFFFFFFFFFFFFFF AND PUSH2 0x8FC PUSH1 0x7B SWAP1 DUP2 ISZERO MUL SWAP1 PUSH1 0x40 MLOAD PUSH1 0x0 PUSH1 0x40 MLOAD DUP1 DUP4 SUB DUP2 DUP6 DUP9 DUP9 CALL SWAP4 POP POP POP POP ISZERO DUP1 ISZERO PUSH2 0x11D JUMPI RETURNDATASIZE PUSH1 0x0 DUP1 RETURNDATACOPY RETURNDATASIZE PUSH1 0x0 REVERT JUMPDEST POP POP JUMP JUMPDEST DUP1 PUSH20 0xFFFFFFFFFFFFFFFFFFFFFFFFFFFFFFFFFFFFFFFF AND PUSH2 0x8FC PUSH1 0x7B SWAP1 DUP2 ISZERO MUL SWAP1 PUSH1 0x40 MLOAD PUSH1 0x0 PUSH1 0x40 MLOAD DUP1 DUP4 SUB DUP2 DUP6 DUP9 DUP9 CALL SWAP4 POP POP POP POP POP POP JUMP JUMPDEST DUP1 PUSH20 0xFFFFFFFFFFFFFFFFFFFFFFFFFFFFFFFFFFFFFFFF AND PUSH1 0x7B PUSH1 0x40 MLOAD PUSH2 0x180 SWAP1 PUSH2 0x22F JUMP JUMPDEST PUSH1 0x0 PUSH1 0x40 MLOAD DUP1 DUP4 SUB DUP2 DUP6 DUP8 GAS CALL SWAP3 POP POP POP RETURNDATASIZE DUP1 PUSH1 0x0 DUP2 EQ PUSH2 0x1BD JUMPI PUSH1 0x40 MLOAD SWAP2 POP PUSH1 0x1F NOT PUSH1 0x3F RETURNDATASIZE ADD AND DUP3 ADD PUSH1 0x40 MSTORE RETURNDATASIZE DUP3 MSTORE RETURNDATASIZE PUSH1 0x0 PUSH1 0x20 DUP5 ADD RETURNDATACOPY PUSH2 0x1C2 JUMP JUMPDEST PUSH1 0x60 SWAP2 POP JUMPDEST POP POP POP POP JUMP JUMPDEST PUSH1 0x0 DUP2 CALLDATALOAD SWAP1 POP PUSH2 0x1D7 DUP2 PUSH2 0x2A6 JUMP JUMPDEST SWAP3 SWAP2 POP POP JUMP JUMPDEST PUSH1 0x0 PUSH1 0x20 DUP3 DUP5 SUB SLT ISZERO PUSH2 0x1EF JUMPI PUSH1 0x0 DUP1 REVERT JUMPDEST PUSH1 0x0 PUSH2 0x1FD DUP5 DUP3 DUP6 ADD PUSH2 0x1C8 JUMP JUMPDEST SWAP2 POP POP SWAP3 SWAP2 POP POP JUMP JUMPDEST PUSH1 0x0 PUSH2 0x213 PUSH1 0x0 DUP4 PUSH2 0x25F JUMP JUMPDEST SWAP2 POP PUSH1 0x0 DUP3 ADD SWAP1 POP SWAP2 SWAP1 POP JUMP JUMPDEST PUSH2 0x229 DUP2 PUSH2 0x29C JUMP JUMPDEST DUP3 MSTORE POP POP JUMP JUMPDEST PUSH1 0x0 PUSH2 0x23A DUP3 PUSH2 0x206 JUMP JUMPDEST SWAP2 POP DUP2 SWAP1 POP SWAP2 SWAP1 POP JUMP JUMPDEST PUSH1 0x0 PUSH1 0x20 DUP3 ADD SWAP1 POP PUSH2 0x259 PUSH1 0x0 DUP4 ADD DUP5 PUSH2 0x220 JUMP JUMPDEST SWAP3 SWAP2 POP POP JUMP JUMPDEST PUSH1 0x0 DUP2 SWAP1 POP SWAP3 SWAP2 POP POP JUMP JUMPDEST PUSH1 0x0 PUSH2 0x275 DUP3 PUSH2 0x27C JUMP JUMPDEST SWAP1 POP SWAP2 SWAP1 POP JUMP JUMPDEST PUSH1 0x0 PUSH20 0xFFFFFFFFFFFFFFFFFFFFFFFFFFFFFFFFFFFFFFFF DUP3 AND SWAP1 POP SWAP2 SWAP1 POP JUMP JUMPDEST PUSH1 0x0 DUP2 SWAP1 POP SWAP2 SWAP1 POP JUMP JUMPDEST PUSH2 0x2AF DUP2 PUSH2 0x26A JUMP JUMPDEST DUP2 EQ PUSH2 0x2BA JUMPI PUSH1 0x0 DUP1 REVERT JUMPDEST POP JUMP INVALID LOG2 PUSH5 0x6970667358 0x22 SLT KECCAK256 0x23 GASLIMIT 0xED BYTE CALLDATALOAD 0xBA 0xB6 SWAP8 TIMESTAMP 0x24 SELFDESTRUCT AND 0xE7 KECCAK256 0xD6 0xD6 DUP1 PUSH20 0x429C84863A05B816109993CE0A4D64736F6C6343 STOP ADDMOD STOP STOP CALLER "
				},
				"gasEstimates": {
					"creation": {
						"codeDepositCost": "151000",
						"executionCost": "172",
						"totalCost": "151172"
					},
					"external": {
						"getBal()": "317",
						"sendViaCall(address)": "infinite",
						"sendViaSend(address)": "infinite",
						"sendViaTransfer(address)": "infinite"
					}
				},
				"methodIdentifiers": {
					"getBal()": "25caa262",
					"sendViaCall(address)": "830c29ae",
					"sendViaSend(address)": "74be4806",
					"sendViaTransfer(address)": "636e082b"
				}
			},
			"storageLayout": {
				"storage": [],
				"types": null
			},
			"userdoc": {
				"kind": "user",
				"methods": {},
				"version": 1
			}
		}
	}
}