{
	"contracts/MultiSigWallet.sol": {
		"MultiSigWallet": {
			"abi": [
				{
					"inputs": [
						{
							"internalType": "address[]",
							"name": "_owners",
							"type": "address[]"
						},
						{
							"internalType": "uint256",
							"name": "_required",
							"type": "uint256"
						}
					],
					"stateMutability": "nonpayable",
					"type": "constructor"
				},
				{
					"anonymous": false,
					"inputs": [
						{
							"indexed": false,
							"internalType": "uint256",
							"name": "",
							"type": "uint256"
						},
						{
							"indexed": false,
							"internalType": "address",
							"name": "",
							"type": "address"
						}
					],
					"name": "Approve",
					"type": "event"
				},
				{
					"anonymous": false,
					"inputs": [
						{
							"indexed": false,
							"internalType": "address",
							"name": "",
							"type": "address"
						},
						{
							"indexed": false,
							"internalType": "uint256",
							"name": "",
							"type": "uint256"
						}
					],
					"name": "Deposit",
					"type": "event"
				},
				{
					"anonymous": false,
					"inputs": [
						{
							"indexed": false,
							"internalType": "uint256",
							"name": "",
							"type": "uint256"
						},
						{
							"indexed": false,
							"internalType": "address",
							"name": "",
							"type": "address"
						}
					],
					"name": "Revoke",
					"type": "event"
				},
				{
					"inputs": [
						{
							"internalType": "uint256",
							"name": "_txId",
							"type": "uint256"
						}
					],
					"name": "approveTransaction",
					"outputs": [],
					"stateMutability": "nonpayable",
					"type": "function"
				},
				{
					"inputs": [
						{
							"internalType": "uint256",
							"name": "_txId",
							"type": "uint256"
						}
					],
					"name": "executeTransaction",
					"outputs": [],
					"stateMutability": "nonpayable",
					"type": "function"
				},
				{
					"inputs": [
						{
							"internalType": "address",
							"name": "",
							"type": "address"
						}
					],
					"name": "isOwner",
					"outputs": [
						{
							"internalType": "bool",
							"name": "",
							"type": "bool"
						}
					],
					"stateMutability": "view",
					"type": "function"
				},
				{
					"inputs": [
						{
							"internalType": "address",
							"name": "_to",
							"type": "address"
						},
						{
							"internalType": "uint256",
							"name": "_value",
							"type": "uint256"
						},
						{
							"internalType": "bytes",
							"name": "_data",
							"type": "bytes"
						}
					],
					"name": "makeTransaction",
					"outputs": [],
					"stateMutability": "nonpayable",
					"type": "function"
				},
				{
					"inputs": [
						{
							"internalType": "uint256",
							"name": "",
							"type": "uint256"
						}
					],
					"name": "owners",
					"outputs": [
						{
							"internalType": "address",
							"name": "",
							"type": "address"
						}
					],
					"stateMutability": "view",
					"type": "function"
				},
				{
					"inputs": [
						{
							"internalType": "uint256",
							"name": "_txId",
							"type": "uint256"
						}
					],
					"name": "revokeApproval",
					"outputs": [],
					"stateMutability": "nonpayable",
					"type": "function"
				},
				{
					"inputs": [
						{
							"internalType": "uint256",
							"name": "",
							"type": "uint256"
						}
					],
					"name": "transactions",
					"outputs": [
						{
							"internalType": "address",
							"name": "to",
							"type": "address"
						},
						{
							"internalType": "uint256",
							"name": "value",
							"type": "uint256"
						},
						{
							"internalType": "bool",
							"name": "executed",
							"type": "bool"
						},
						{
							"internalType": "bytes",
							"name": "data",
							"type": "bytes"
						}
					],
					"stateMutability": "view",
					"type": "function"
				},
				{
					"stateMutability": "payable",
					"type": "receive"
				}
			],
			"devdoc": {
				"kind": "dev",
				"methods": {},
				"version": 1
			},
			"evm": {
				"assembly": "    /* \"contracts/MultiSigWallet.sol\":69:2952  contract MultiSigWallet{... */\n  mstore(0x40, 0x80)\n    /* \"contracts/MultiSigWallet.sol\":541:865  constructor(address[] memory _owners, uint _required) {... */\n  callvalue\n  dup1\n  iszero\n  tag_1\n  jumpi\n  0x00\n  dup1\n  revert\ntag_1:\n  pop\n  mload(0x40)\n  sub(codesize, bytecodeSize)\n  dup1\n  bytecodeSize\n  dup4\n  codecopy\n  dup2\n  dup2\n  add\n  0x40\n  mstore\n  dup2\n  add\n  swap1\n  tag_2\n  swap2\n  swap1\n  tag_3\n  jump\t// in\ntag_2:\n    /* \"contracts/MultiSigWallet.sol\":610:616  uint i */\n  0x00\n    /* \"contracts/MultiSigWallet.sol\":606:827  for(uint i=0; i < _owners.length; i++){... */\ntag_6:\n    /* \"contracts/MultiSigWallet.sol\":624:631  _owners */\n  dup3\n    /* \"contracts/MultiSigWallet.sol\":624:638  _owners.length */\n  mload\n    /* \"contracts/MultiSigWallet.sol\":620:621  i */\n  dup2\n    /* \"contracts/MultiSigWallet.sol\":620:638  i < _owners.length */\n  lt\n    /* \"contracts/MultiSigWallet.sol\":606:827  for(uint i=0; i < _owners.length; i++){... */\n  iszero\n  tag_7\n  jumpi\n    /* \"contracts/MultiSigWallet.sol\":659:672  address owner */\n  0x00\n    /* \"contracts/MultiSigWallet.sol\":675:682  _owners */\n  dup4\n    /* \"contracts/MultiSigWallet.sol\":683:684  i */\n  dup3\n    /* \"contracts/MultiSigWallet.sol\":675:685  _owners[i] */\n  dup2\n  mload\n  dup2\n  lt\n  tag_9\n  jumpi\n  tag_10\n  tag_11\n  jump\t// in\ntag_10:\ntag_9:\n  0x20\n  mul\n  0x20\n  add\n  add\n  mload\n    /* \"contracts/MultiSigWallet.sol\":659:685  address owner = _owners[i] */\n  swap1\n  pop\n    /* \"contracts/MultiSigWallet.sol\":711:718  isOwner */\n  0x01\n    /* \"contracts/MultiSigWallet.sol\":711:725  isOwner[owner] */\n  0x00\n    /* \"contracts/MultiSigWallet.sol\":719:724  owner */\n  dup3\n    /* \"contracts/MultiSigWallet.sol\":711:725  isOwner[owner] */\n  0xffffffffffffffffffffffffffffffffffffffff\n  and\n  0xffffffffffffffffffffffffffffffffffffffff\n  and\n  dup2\n  mstore\n  0x20\n  add\n  swap1\n  dup2\n  mstore\n  0x20\n  add\n  0x00\n  keccak256\n  0x00\n  swap1\n  sload\n  swap1\n  0x0100\n  exp\n  swap1\n  div\n  0xff\n  and\n    /* \"contracts/MultiSigWallet.sol\":710:725  !isOwner[owner] */\n  iszero\n    /* \"contracts/MultiSigWallet.sol\":702:746  require(!isOwner[owner],\"Already Exists...\") */\n  tag_12\n  jumpi\n  mload(0x40)\n  0x08c379a000000000000000000000000000000000000000000000000000000000\n  dup2\n  mstore\n  0x04\n  add\n  tag_13\n  swap1\n  tag_14\n  jump\t// in\ntag_13:\n  mload(0x40)\n  dup1\n  swap2\n  sub\n  swap1\n  revert\ntag_12:\n    /* \"contracts/MultiSigWallet.sol\":761:767  owners */\n  0x00\n    /* \"contracts/MultiSigWallet.sol\":773:778  owner */\n  dup2\n    /* \"contracts/MultiSigWallet.sol\":761:779  owners.push(owner) */\n  swap1\n  dup1\n  0x01\n  dup2\n  sload\n  add\n  dup1\n  dup3\n  sstore\n  dup1\n  swap2\n  pop\n  pop\n  0x01\n  swap1\n  sub\n  swap1\n  0x00\n  mstore\n  keccak256(0x00, 0x20)\n  add\n  0x00\n  swap1\n  swap2\n  swap1\n  swap2\n  swap1\n  swap2\n  0x0100\n  exp\n  dup2\n  sload\n  dup2\n  0xffffffffffffffffffffffffffffffffffffffff\n  mul\n  not\n  and\n  swap1\n  dup4\n  0xffffffffffffffffffffffffffffffffffffffff\n  and\n  mul\n  or\n  swap1\n  sstore\n  pop\n    /* \"contracts/MultiSigWallet.sol\":811:815  true */\n  0x01\n    /* \"contracts/MultiSigWallet.sol\":794:801  isOwner */\n  dup1\n    /* \"contracts/MultiSigWallet.sol\":794:808  isOwner[owner] */\n  0x00\n    /* \"contracts/MultiSigWallet.sol\":802:807  owner */\n  dup4\n    /* \"contracts/MultiSigWallet.sol\":794:808  isOwner[owner] */\n  0xffffffffffffffffffffffffffffffffffffffff\n  and\n  0xffffffffffffffffffffffffffffffffffffffff\n  and\n  dup2\n  mstore\n  0x20\n  add\n  swap1\n  dup2\n  mstore\n  0x20\n  add\n  0x00\n  keccak256\n  0x00\n    /* \"contracts/MultiSigWallet.sol\":794:815  isOwner[owner] = true */\n  0x0100\n  exp\n  dup2\n  sload\n  dup2\n  0xff\n  mul\n  not\n  and\n  swap1\n  dup4\n  iszero\n  iszero\n  mul\n  or\n  swap1\n  sstore\n  pop\n    /* \"contracts/MultiSigWallet.sol\":644:827  {... */\n  pop\n    /* \"contracts/MultiSigWallet.sol\":640:643  i++ */\n  dup1\n  dup1\n  tag_16\n  swap1\n  tag_17\n  jump\t// in\ntag_16:\n  swap2\n  pop\n  pop\n    /* \"contracts/MultiSigWallet.sol\":606:827  for(uint i=0; i < _owners.length; i++){... */\n  jump(tag_6)\ntag_7:\n  pop\n    /* \"contracts/MultiSigWallet.sol\":848:857  _required */\n  dup1\n    /* \"contracts/MultiSigWallet.sol\":837:845  required */\n  0x02\n    /* \"contracts/MultiSigWallet.sol\":837:857  required = _required */\n  dup2\n  swap1\n  sstore\n  pop\n    /* \"contracts/MultiSigWallet.sol\":541:865  constructor(address[] memory _owners, uint _required) {... */\n  pop\n  pop\n    /* \"contracts/MultiSigWallet.sol\":69:2952  contract MultiSigWallet{... */\n  jump(tag_18)\n    /* \"#utility.yul\":7:82   */\ntag_19:\n    /* \"#utility.yul\":40:46   */\n  0x00\n    /* \"#utility.yul\":73:75   */\n  0x40\n    /* \"#utility.yul\":67:76   */\n  mload\n    /* \"#utility.yul\":57:76   */\n  swap1\n  pop\n    /* \"#utility.yul\":7:82   */\n  swap1\n  jump\t// out\n    /* \"#utility.yul\":88:205   */\ntag_20:\n    /* \"#utility.yul\":197:198   */\n  0x00\n    /* \"#utility.yul\":194:195   */\n  dup1\n    /* \"#utility.yul\":187:199   */\n  revert\n    /* \"#utility.yul\":211:328   */\ntag_21:\n    /* \"#utility.yul\":320:321   */\n  0x00\n    /* \"#utility.yul\":317:318   */\n  dup1\n    /* \"#utility.yul\":310:322   */\n  revert\n    /* \"#utility.yul\":334:451   */\ntag_22:\n    /* \"#utility.yul\":443:444   */\n  0x00\n    /* \"#utility.yul\":440:441   */\n  dup1\n    /* \"#utility.yul\":433:445   */\n  revert\n    /* \"#utility.yul\":457:559   */\ntag_23:\n    /* \"#utility.yul\":498:504   */\n  0x00\n    /* \"#utility.yul\":549:551   */\n  0x1f\n    /* \"#utility.yul\":545:552   */\n  not\n    /* \"#utility.yul\":540:542   */\n  0x1f\n    /* \"#utility.yul\":533:538   */\n  dup4\n    /* \"#utility.yul\":529:543   */\n  add\n    /* \"#utility.yul\":525:553   */\n  and\n    /* \"#utility.yul\":515:553   */\n  swap1\n  pop\n    /* \"#utility.yul\":457:559   */\n  swap2\n  swap1\n  pop\n  jump\t// out\n    /* \"#utility.yul\":565:745   */\ntag_24:\n    /* \"#utility.yul\":613:690   */\n  0x4e487b7100000000000000000000000000000000000000000000000000000000\n    /* \"#utility.yul\":610:611   */\n  0x00\n    /* \"#utility.yul\":603:691   */\n  mstore\n    /* \"#utility.yul\":710:714   */\n  0x41\n    /* \"#utility.yul\":707:708   */\n  0x04\n    /* \"#utility.yul\":700:715   */\n  mstore\n    /* \"#utility.yul\":734:738   */\n  0x24\n    /* \"#utility.yul\":731:732   */\n  0x00\n    /* \"#utility.yul\":724:739   */\n  revert\n    /* \"#utility.yul\":751:1032   */\ntag_25:\n    /* \"#utility.yul\":834:861   */\n  tag_50\n    /* \"#utility.yul\":856:860   */\n  dup3\n    /* \"#utility.yul\":834:861   */\n  tag_23\n  jump\t// in\ntag_50:\n    /* \"#utility.yul\":826:832   */\n  dup2\n    /* \"#utility.yul\":822:862   */\n  add\n    /* \"#utility.yul\":964:970   */\n  dup2\n    /* \"#utility.yul\":952:962   */\n  dup2\n    /* \"#utility.yul\":949:971   */\n  lt\n    /* \"#utility.yul\":928:946   */\n  0xffffffffffffffff\n    /* \"#utility.yul\":916:926   */\n  dup3\n    /* \"#utility.yul\":913:947   */\n  gt\n    /* \"#utility.yul\":910:972   */\n  or\n    /* \"#utility.yul\":907:995   */\n  iszero\n  tag_51\n  jumpi\n    /* \"#utility.yul\":975:993   */\n  tag_52\n  tag_24\n  jump\t// in\ntag_52:\n    /* \"#utility.yul\":907:995   */\ntag_51:\n    /* \"#utility.yul\":1015:1025   */\n  dup1\n    /* \"#utility.yul\":1011:1013   */\n  0x40\n    /* \"#utility.yul\":1004:1026   */\n  mstore\n    /* \"#utility.yul\":794:1032   */\n  pop\n    /* \"#utility.yul\":751:1032   */\n  pop\n  pop\n  jump\t// out\n    /* \"#utility.yul\":1038:1167   */\ntag_26:\n    /* \"#utility.yul\":1072:1078   */\n  0x00\n    /* \"#utility.yul\":1099:1119   */\n  tag_54\n  tag_19\n  jump\t// in\ntag_54:\n    /* \"#utility.yul\":1089:1119   */\n  swap1\n  pop\n    /* \"#utility.yul\":1128:1161   */\n  tag_55\n    /* \"#utility.yul\":1156:1160   */\n  dup3\n    /* \"#utility.yul\":1148:1154   */\n  dup3\n    /* \"#utility.yul\":1128:1161   */\n  tag_25\n  jump\t// in\ntag_55:\n    /* \"#utility.yul\":1038:1167   */\n  swap2\n  swap1\n  pop\n  jump\t// out\n    /* \"#utility.yul\":1173:1484   */\ntag_27:\n    /* \"#utility.yul\":1250:1254   */\n  0x00\n    /* \"#utility.yul\":1340:1358   */\n  0xffffffffffffffff\n    /* \"#utility.yul\":1332:1338   */\n  dup3\n    /* \"#utility.yul\":1329:1359   */\n  gt\n    /* \"#utility.yul\":1326:1382   */\n  iszero\n  tag_57\n  jumpi\n    /* \"#utility.yul\":1362:1380   */\n  tag_58\n  tag_24\n  jump\t// in\ntag_58:\n    /* \"#utility.yul\":1326:1382   */\ntag_57:\n    /* \"#utility.yul\":1412:1416   */\n  0x20\n    /* \"#utility.yul\":1404:1410   */\n  dup3\n    /* \"#utility.yul\":1400:1417   */\n  mul\n    /* \"#utility.yul\":1392:1417   */\n  swap1\n  pop\n    /* \"#utility.yul\":1472:1476   */\n  0x20\n    /* \"#utility.yul\":1466:1470   */\n  dup2\n    /* \"#utility.yul\":1462:1477   */\n  add\n    /* \"#utility.yul\":1454:1477   */\n  swap1\n  pop\n    /* \"#utility.yul\":1173:1484   */\n  swap2\n  swap1\n  pop\n  jump\t// out\n    /* \"#utility.yul\":1490:1607   */\ntag_28:\n    /* \"#utility.yul\":1599:1600   */\n  0x00\n    /* \"#utility.yul\":1596:1597   */\n  dup1\n    /* \"#utility.yul\":1589:1601   */\n  revert\n    /* \"#utility.yul\":1613:1739   */\ntag_29:\n    /* \"#utility.yul\":1650:1657   */\n  0x00\n    /* \"#utility.yul\":1690:1732   */\n  0xffffffffffffffffffffffffffffffffffffffff\n    /* \"#utility.yul\":1683:1688   */\n  dup3\n    /* \"#utility.yul\":1679:1733   */\n  and\n    /* \"#utility.yul\":1668:1733   */\n  swap1\n  pop\n    /* \"#utility.yul\":1613:1739   */\n  swap2\n  swap1\n  pop\n  jump\t// out\n    /* \"#utility.yul\":1745:1841   */\ntag_30:\n    /* \"#utility.yul\":1782:1789   */\n  0x00\n    /* \"#utility.yul\":1811:1835   */\n  tag_62\n    /* \"#utility.yul\":1829:1834   */\n  dup3\n    /* \"#utility.yul\":1811:1835   */\n  tag_29\n  jump\t// in\ntag_62:\n    /* \"#utility.yul\":1800:1835   */\n  swap1\n  pop\n    /* \"#utility.yul\":1745:1841   */\n  swap2\n  swap1\n  pop\n  jump\t// out\n    /* \"#utility.yul\":1847:1969   */\ntag_31:\n    /* \"#utility.yul\":1920:1944   */\n  tag_64\n    /* \"#utility.yul\":1938:1943   */\n  dup2\n    /* \"#utility.yul\":1920:1944   */\n  tag_30\n  jump\t// in\ntag_64:\n    /* \"#utility.yul\":1913:1918   */\n  dup2\n    /* \"#utility.yul\":1910:1945   */\n  eq\n    /* \"#utility.yul\":1900:1963   */\n  tag_65\n  jumpi\n    /* \"#utility.yul\":1959:1960   */\n  0x00\n    /* \"#utility.yul\":1956:1957   */\n  dup1\n    /* \"#utility.yul\":1949:1961   */\n  revert\n    /* \"#utility.yul\":1900:1963   */\ntag_65:\n    /* \"#utility.yul\":1847:1969   */\n  pop\n  jump\t// out\n    /* \"#utility.yul\":1975:2118   */\ntag_32:\n    /* \"#utility.yul\":2032:2037   */\n  0x00\n    /* \"#utility.yul\":2063:2069   */\n  dup2\n    /* \"#utility.yul\":2057:2070   */\n  mload\n    /* \"#utility.yul\":2048:2070   */\n  swap1\n  pop\n    /* \"#utility.yul\":2079:2112   */\n  tag_67\n    /* \"#utility.yul\":2106:2111   */\n  dup2\n    /* \"#utility.yul\":2079:2112   */\n  tag_31\n  jump\t// in\ntag_67:\n    /* \"#utility.yul\":1975:2118   */\n  swap3\n  swap2\n  pop\n  pop\n  jump\t// out\n    /* \"#utility.yul\":2141:2873   */\ntag_33:\n    /* \"#utility.yul\":2248:2253   */\n  0x00\n    /* \"#utility.yul\":2273:2354   */\n  tag_69\n    /* \"#utility.yul\":2289:2353   */\n  tag_70\n    /* \"#utility.yul\":2346:2352   */\n  dup5\n    /* \"#utility.yul\":2289:2353   */\n  tag_27\n  jump\t// in\ntag_70:\n    /* \"#utility.yul\":2273:2354   */\n  tag_26\n  jump\t// in\ntag_69:\n    /* \"#utility.yul\":2264:2354   */\n  swap1\n  pop\n    /* \"#utility.yul\":2374:2379   */\n  dup1\n    /* \"#utility.yul\":2403:2409   */\n  dup4\n    /* \"#utility.yul\":2396:2401   */\n  dup3\n    /* \"#utility.yul\":2389:2410   */\n  mstore\n    /* \"#utility.yul\":2437:2441   */\n  0x20\n    /* \"#utility.yul\":2430:2435   */\n  dup3\n    /* \"#utility.yul\":2426:2442   */\n  add\n    /* \"#utility.yul\":2419:2442   */\n  swap1\n  pop\n    /* \"#utility.yul\":2490:2494   */\n  0x20\n    /* \"#utility.yul\":2482:2488   */\n  dup5\n    /* \"#utility.yul\":2478:2495   */\n  mul\n    /* \"#utility.yul\":2470:2476   */\n  dup4\n    /* \"#utility.yul\":2466:2496   */\n  add\n    /* \"#utility.yul\":2519:2522   */\n  dup6\n    /* \"#utility.yul\":2511:2517   */\n  dup2\n    /* \"#utility.yul\":2508:2523   */\n  gt\n    /* \"#utility.yul\":2505:2627   */\n  iszero\n  tag_71\n  jumpi\n    /* \"#utility.yul\":2538:2617   */\n  tag_72\n  tag_28\n  jump\t// in\ntag_72:\n    /* \"#utility.yul\":2505:2627   */\ntag_71:\n    /* \"#utility.yul\":2653:2659   */\n  dup4\n    /* \"#utility.yul\":2636:2867   */\ntag_73:\n    /* \"#utility.yul\":2670:2676   */\n  dup2\n    /* \"#utility.yul\":2665:2668   */\n  dup2\n    /* \"#utility.yul\":2662:2677   */\n  lt\n    /* \"#utility.yul\":2636:2867   */\n  iszero\n  tag_75\n  jumpi\n    /* \"#utility.yul\":2745:2748   */\n  dup1\n    /* \"#utility.yul\":2774:2822   */\n  tag_76\n    /* \"#utility.yul\":2818:2821   */\n  dup9\n    /* \"#utility.yul\":2806:2816   */\n  dup3\n    /* \"#utility.yul\":2774:2822   */\n  tag_32\n  jump\t// in\ntag_76:\n    /* \"#utility.yul\":2769:2772   */\n  dup5\n    /* \"#utility.yul\":2762:2823   */\n  mstore\n    /* \"#utility.yul\":2852:2856   */\n  0x20\n    /* \"#utility.yul\":2847:2850   */\n  dup5\n    /* \"#utility.yul\":2843:2857   */\n  add\n    /* \"#utility.yul\":2836:2857   */\n  swap4\n  pop\n    /* \"#utility.yul\":2712:2867   */\n  pop\n    /* \"#utility.yul\":2696:2700   */\n  0x20\n    /* \"#utility.yul\":2691:2694   */\n  dup2\n    /* \"#utility.yul\":2687:2701   */\n  add\n    /* \"#utility.yul\":2680:2701   */\n  swap1\n  pop\n    /* \"#utility.yul\":2636:2867   */\n  jump(tag_73)\ntag_75:\n    /* \"#utility.yul\":2640:2661   */\n  pop\n    /* \"#utility.yul\":2254:2873   */\n  pop\n  pop\n    /* \"#utility.yul\":2141:2873   */\n  swap4\n  swap3\n  pop\n  pop\n  pop\n  jump\t// out\n    /* \"#utility.yul\":2896:3281   */\ntag_34:\n    /* \"#utility.yul\":2978:2983   */\n  0x00\n    /* \"#utility.yul\":3027:3030   */\n  dup3\n    /* \"#utility.yul\":3020:3024   */\n  0x1f\n    /* \"#utility.yul\":3012:3018   */\n  dup4\n    /* \"#utility.yul\":3008:3025   */\n  add\n    /* \"#utility.yul\":3004:3031   */\n  slt\n    /* \"#utility.yul\":2994:3116   */\n  tag_78\n  jumpi\n    /* \"#utility.yul\":3035:3114   */\n  tag_79\n  tag_22\n  jump\t// in\ntag_79:\n    /* \"#utility.yul\":2994:3116   */\ntag_78:\n    /* \"#utility.yul\":3145:3151   */\n  dup2\n    /* \"#utility.yul\":3139:3152   */\n  mload\n    /* \"#utility.yul\":3170:3275   */\n  tag_80\n    /* \"#utility.yul\":3271:3274   */\n  dup5\n    /* \"#utility.yul\":3263:3269   */\n  dup3\n    /* \"#utility.yul\":3256:3260   */\n  0x20\n    /* \"#utility.yul\":3248:3254   */\n  dup7\n    /* \"#utility.yul\":3244:3261   */\n  add\n    /* \"#utility.yul\":3170:3275   */\n  tag_33\n  jump\t// in\ntag_80:\n    /* \"#utility.yul\":3161:3275   */\n  swap2\n  pop\n    /* \"#utility.yul\":2984:3281   */\n  pop\n    /* \"#utility.yul\":2896:3281   */\n  swap3\n  swap2\n  pop\n  pop\n  jump\t// out\n    /* \"#utility.yul\":3287:3364   */\ntag_35:\n    /* \"#utility.yul\":3324:3331   */\n  0x00\n    /* \"#utility.yul\":3353:3358   */\n  dup2\n    /* \"#utility.yul\":3342:3358   */\n  swap1\n  pop\n    /* \"#utility.yul\":3287:3364   */\n  swap2\n  swap1\n  pop\n  jump\t// out\n    /* \"#utility.yul\":3370:3492   */\ntag_36:\n    /* \"#utility.yul\":3443:3467   */\n  tag_83\n    /* \"#utility.yul\":3461:3466   */\n  dup2\n    /* \"#utility.yul\":3443:3467   */\n  tag_35\n  jump\t// in\ntag_83:\n    /* \"#utility.yul\":3436:3441   */\n  dup2\n    /* \"#utility.yul\":3433:3468   */\n  eq\n    /* \"#utility.yul\":3423:3486   */\n  tag_84\n  jumpi\n    /* \"#utility.yul\":3482:3483   */\n  0x00\n    /* \"#utility.yul\":3479:3480   */\n  dup1\n    /* \"#utility.yul\":3472:3484   */\n  revert\n    /* \"#utility.yul\":3423:3486   */\ntag_84:\n    /* \"#utility.yul\":3370:3492   */\n  pop\n  jump\t// out\n    /* \"#utility.yul\":3498:3641   */\ntag_37:\n    /* \"#utility.yul\":3555:3560   */\n  0x00\n    /* \"#utility.yul\":3586:3592   */\n  dup2\n    /* \"#utility.yul\":3580:3593   */\n  mload\n    /* \"#utility.yul\":3571:3593   */\n  swap1\n  pop\n    /* \"#utility.yul\":3602:3635   */\n  tag_86\n    /* \"#utility.yul\":3629:3634   */\n  dup2\n    /* \"#utility.yul\":3602:3635   */\n  tag_36\n  jump\t// in\ntag_86:\n    /* \"#utility.yul\":3498:3641   */\n  swap3\n  swap2\n  pop\n  pop\n  jump\t// out\n    /* \"#utility.yul\":3647:4357   */\ntag_3:\n    /* \"#utility.yul\":3751:3757   */\n  0x00\n    /* \"#utility.yul\":3759:3765   */\n  dup1\n    /* \"#utility.yul\":3808:3810   */\n  0x40\n    /* \"#utility.yul\":3796:3805   */\n  dup4\n    /* \"#utility.yul\":3787:3794   */\n  dup6\n    /* \"#utility.yul\":3783:3806   */\n  sub\n    /* \"#utility.yul\":3779:3811   */\n  slt\n    /* \"#utility.yul\":3776:3895   */\n  iszero\n  tag_88\n  jumpi\n    /* \"#utility.yul\":3814:3893   */\n  tag_89\n  tag_20\n  jump\t// in\ntag_89:\n    /* \"#utility.yul\":3776:3895   */\ntag_88:\n    /* \"#utility.yul\":3955:3956   */\n  0x00\n    /* \"#utility.yul\":3944:3953   */\n  dup4\n    /* \"#utility.yul\":3940:3957   */\n  add\n    /* \"#utility.yul\":3934:3958   */\n  mload\n    /* \"#utility.yul\":3985:4003   */\n  0xffffffffffffffff\n    /* \"#utility.yul\":3977:3983   */\n  dup2\n    /* \"#utility.yul\":3974:4004   */\n  gt\n    /* \"#utility.yul\":3971:4088   */\n  iszero\n  tag_90\n  jumpi\n    /* \"#utility.yul\":4007:4086   */\n  tag_91\n  tag_21\n  jump\t// in\ntag_91:\n    /* \"#utility.yul\":3971:4088   */\ntag_90:\n    /* \"#utility.yul\":4112:4201   */\n  tag_92\n    /* \"#utility.yul\":4193:4200   */\n  dup6\n    /* \"#utility.yul\":4184:4190   */\n  dup3\n    /* \"#utility.yul\":4173:4182   */\n  dup7\n    /* \"#utility.yul\":4169:4191   */\n  add\n    /* \"#utility.yul\":4112:4201   */\n  tag_34\n  jump\t// in\ntag_92:\n    /* \"#utility.yul\":4102:4201   */\n  swap3\n  pop\n    /* \"#utility.yul\":3905:4211   */\n  pop\n    /* \"#utility.yul\":4250:4252   */\n  0x20\n    /* \"#utility.yul\":4276:4340   */\n  tag_93\n    /* \"#utility.yul\":4332:4339   */\n  dup6\n    /* \"#utility.yul\":4323:4329   */\n  dup3\n    /* \"#utility.yul\":4312:4321   */\n  dup7\n    /* \"#utility.yul\":4308:4330   */\n  add\n    /* \"#utility.yul\":4276:4340   */\n  tag_37\n  jump\t// in\ntag_93:\n    /* \"#utility.yul\":4266:4340   */\n  swap2\n  pop\n    /* \"#utility.yul\":4221:4350   */\n  pop\n    /* \"#utility.yul\":3647:4357   */\n  swap3\n  pop\n  swap3\n  swap1\n  pop\n  jump\t// out\n    /* \"#utility.yul\":4363:4543   */\ntag_11:\n    /* \"#utility.yul\":4411:4488   */\n  0x4e487b7100000000000000000000000000000000000000000000000000000000\n    /* \"#utility.yul\":4408:4409   */\n  0x00\n    /* \"#utility.yul\":4401:4489   */\n  mstore\n    /* \"#utility.yul\":4508:4512   */\n  0x32\n    /* \"#utility.yul\":4505:4506   */\n  0x04\n    /* \"#utility.yul\":4498:4513   */\n  mstore\n    /* \"#utility.yul\":4532:4536   */\n  0x24\n    /* \"#utility.yul\":4529:4530   */\n  0x00\n    /* \"#utility.yul\":4522:4537   */\n  revert\n    /* \"#utility.yul\":4549:4718   */\ntag_38:\n    /* \"#utility.yul\":4633:4644   */\n  0x00\n    /* \"#utility.yul\":4667:4673   */\n  dup3\n    /* \"#utility.yul\":4662:4665   */\n  dup3\n    /* \"#utility.yul\":4655:4674   */\n  mstore\n    /* \"#utility.yul\":4707:4711   */\n  0x20\n    /* \"#utility.yul\":4702:4705   */\n  dup3\n    /* \"#utility.yul\":4698:4712   */\n  add\n    /* \"#utility.yul\":4683:4712   */\n  swap1\n  pop\n    /* \"#utility.yul\":4549:4718   */\n  swap3\n  swap2\n  pop\n  pop\n  jump\t// out\n    /* \"#utility.yul\":4724:4891   */\ntag_39:\n    /* \"#utility.yul\":4864:4883   */\n  0x416c7265616479204578697374732e2e2e000000000000000000000000000000\n    /* \"#utility.yul\":4860:4861   */\n  0x00\n    /* \"#utility.yul\":4852:4858   */\n  dup3\n    /* \"#utility.yul\":4848:4862   */\n  add\n    /* \"#utility.yul\":4841:4884   */\n  mstore\n    /* \"#utility.yul\":4724:4891   */\n  pop\n  jump\t// out\n    /* \"#utility.yul\":4897:5263   */\ntag_40:\n    /* \"#utility.yul\":5039:5042   */\n  0x00\n    /* \"#utility.yul\":5060:5127   */\n  tag_98\n    /* \"#utility.yul\":5124:5126   */\n  0x11\n    /* \"#utility.yul\":5119:5122   */\n  dup4\n    /* \"#utility.yul\":5060:5127   */\n  tag_38\n  jump\t// in\ntag_98:\n    /* \"#utility.yul\":5053:5127   */\n  swap2\n  pop\n    /* \"#utility.yul\":5136:5229   */\n  tag_99\n    /* \"#utility.yul\":5225:5228   */\n  dup3\n    /* \"#utility.yul\":5136:5229   */\n  tag_39\n  jump\t// in\ntag_99:\n    /* \"#utility.yul\":5254:5256   */\n  0x20\n    /* \"#utility.yul\":5249:5252   */\n  dup3\n    /* \"#utility.yul\":5245:5257   */\n  add\n    /* \"#utility.yul\":5238:5257   */\n  swap1\n  pop\n    /* \"#utility.yul\":4897:5263   */\n  swap2\n  swap1\n  pop\n  jump\t// out\n    /* \"#utility.yul\":5269:5688   */\ntag_14:\n    /* \"#utility.yul\":5435:5439   */\n  0x00\n    /* \"#utility.yul\":5473:5475   */\n  0x20\n    /* \"#utility.yul\":5462:5471   */\n  dup3\n    /* \"#utility.yul\":5458:5476   */\n  add\n    /* \"#utility.yul\":5450:5476   */\n  swap1\n  pop\n    /* \"#utility.yul\":5522:5531   */\n  dup2\n    /* \"#utility.yul\":5516:5520   */\n  dup2\n    /* \"#utility.yul\":5512:5532   */\n  sub\n    /* \"#utility.yul\":5508:5509   */\n  0x00\n    /* \"#utility.yul\":5497:5506   */\n  dup4\n    /* \"#utility.yul\":5493:5510   */\n  add\n    /* \"#utility.yul\":5486:5533   */\n  mstore\n    /* \"#utility.yul\":5550:5681   */\n  tag_101\n    /* \"#utility.yul\":5676:5680   */\n  dup2\n    /* \"#utility.yul\":5550:5681   */\n  tag_40\n  jump\t// in\ntag_101:\n    /* \"#utility.yul\":5542:5681   */\n  swap1\n  pop\n    /* \"#utility.yul\":5269:5688   */\n  swap2\n  swap1\n  pop\n  jump\t// out\n    /* \"#utility.yul\":5694:5874   */\ntag_41:\n    /* \"#utility.yul\":5742:5819   */\n  0x4e487b7100000000000000000000000000000000000000000000000000000000\n    /* \"#utility.yul\":5739:5740   */\n  0x00\n    /* \"#utility.yul\":5732:5820   */\n  mstore\n    /* \"#utility.yul\":5839:5843   */\n  0x11\n    /* \"#utility.yul\":5836:5837   */\n  0x04\n    /* \"#utility.yul\":5829:5844   */\n  mstore\n    /* \"#utility.yul\":5863:5867   */\n  0x24\n    /* \"#utility.yul\":5860:5861   */\n  0x00\n    /* \"#utility.yul\":5853:5868   */\n  revert\n    /* \"#utility.yul\":5880:6113   */\ntag_17:\n    /* \"#utility.yul\":5919:5922   */\n  0x00\n    /* \"#utility.yul\":5942:5966   */\n  tag_104\n    /* \"#utility.yul\":5960:5965   */\n  dup3\n    /* \"#utility.yul\":5942:5966   */\n  tag_35\n  jump\t// in\ntag_104:\n    /* \"#utility.yul\":5933:5966   */\n  swap2\n  pop\n    /* \"#utility.yul\":5988:6054   */\n  0xffffffffffffffffffffffffffffffffffffffffffffffffffffffffffffffff\n    /* \"#utility.yul\":5981:5986   */\n  dup3\n    /* \"#utility.yul\":5978:6055   */\n  sub\n    /* \"#utility.yul\":5975:6078   */\n  tag_105\n  jumpi\n    /* \"#utility.yul\":6058:6076   */\n  tag_106\n  tag_41\n  jump\t// in\ntag_106:\n    /* \"#utility.yul\":5975:6078   */\ntag_105:\n    /* \"#utility.yul\":6105:6106   */\n  0x01\n    /* \"#utility.yul\":6098:6103   */\n  dup3\n    /* \"#utility.yul\":6094:6107   */\n  add\n    /* \"#utility.yul\":6087:6107   */\n  swap1\n  pop\n    /* \"#utility.yul\":5880:6113   */\n  swap2\n  swap1\n  pop\n  jump\t// out\n    /* \"contracts/MultiSigWallet.sol\":69:2952  contract MultiSigWallet{... */\ntag_18:\n  dataSize(sub_0)\n  dup1\n  dataOffset(sub_0)\n  0x00\n  codecopy\n  0x00\n  return\nstop\n\nsub_0: assembly {\n        /* \"contracts/MultiSigWallet.sol\":69:2952  contract MultiSigWallet{... */\n      mstore(0x40, 0x80)\n      jumpi(tag_1, lt(calldatasize, 0x04))\n      shr(0xe0, calldataload(0x00))\n      dup1\n      0x9ace38c2\n      gt\n      tag_10\n      jumpi\n      dup1\n      0x9ace38c2\n      eq\n      tag_6\n      jumpi\n      dup1\n      0xb1e130fc\n      eq\n      tag_7\n      jumpi\n      dup1\n      0xc0c64a49\n      eq\n      tag_8\n      jumpi\n      dup1\n      0xee22610b\n      eq\n      tag_9\n      jumpi\n      jump(tag_2)\n    tag_10:\n      dup1\n      0x025e7c27\n      eq\n      tag_3\n      jumpi\n      dup1\n      0x242232d1\n      eq\n      tag_4\n      jumpi\n      dup1\n      0x2f54bf6e\n      eq\n      tag_5\n      jumpi\n      jump(tag_2)\n    tag_1:\n      jumpi(tag_2, calldatasize)\n        /* \"contracts/MultiSigWallet.sol\":1863:1893  Deposit(msg.sender ,msg.value) */\n      0xe1fffcc4923d04b559f4d29a8bfc6cda04eb5b0d3c460751c2402c5c5cc9109c\n        /* \"contracts/MultiSigWallet.sol\":1871:1881  msg.sender */\n      caller\n        /* \"contracts/MultiSigWallet.sol\":1883:1892  msg.value */\n      callvalue\n        /* \"contracts/MultiSigWallet.sol\":1863:1893  Deposit(msg.sender ,msg.value) */\n      mload(0x40)\n      tag_13\n      swap3\n      swap2\n      swap1\n      tag_14\n      jump\t// in\n    tag_13:\n      mload(0x40)\n      dup1\n      swap2\n      sub\n      swap1\n      log1\n        /* \"contracts/MultiSigWallet.sol\":69:2952  contract MultiSigWallet{... */\n      stop\n    tag_2:\n      0x00\n      dup1\n      revert\n        /* \"contracts/MultiSigWallet.sol\":207:230  address[] public owners */\n    tag_3:\n      callvalue\n      dup1\n      iszero\n      tag_15\n      jumpi\n      0x00\n      dup1\n      revert\n    tag_15:\n      pop\n      tag_16\n      0x04\n      dup1\n      calldatasize\n      sub\n      dup2\n      add\n      swap1\n      tag_17\n      swap2\n      swap1\n      tag_18\n      jump\t// in\n    tag_17:\n      tag_19\n      jump\t// in\n    tag_16:\n      mload(0x40)\n      tag_20\n      swap2\n      swap1\n      tag_21\n      jump\t// in\n    tag_20:\n      mload(0x40)\n      dup1\n      swap2\n      sub\n      swap1\n      return\n        /* \"contracts/MultiSigWallet.sol\":2082:2293  function approveTransaction(uint _txId) external notApproved(_txId) existTrans(_txId) onlyOwner isNotExec(_txId){... */\n    tag_4:\n      callvalue\n      dup1\n      iszero\n      tag_22\n      jumpi\n      0x00\n      dup1\n      revert\n    tag_22:\n      pop\n      tag_23\n      0x04\n      dup1\n      calldatasize\n      sub\n      dup2\n      add\n      swap1\n      tag_24\n      swap2\n      swap1\n      tag_18\n      jump\t// in\n    tag_24:\n      tag_25\n      jump\t// in\n    tag_23:\n      stop\n        /* \"contracts/MultiSigWallet.sol\":237:276  mapping(address => bool) public isOwner */\n    tag_5:\n      callvalue\n      dup1\n      iszero\n      tag_26\n      jumpi\n      0x00\n      dup1\n      revert\n    tag_26:\n      pop\n      tag_27\n      0x04\n      dup1\n      calldatasize\n      sub\n      dup2\n      add\n      swap1\n      tag_28\n      swap2\n      swap1\n      tag_29\n      jump\t// in\n    tag_28:\n      tag_30\n      jump\t// in\n    tag_27:\n      mload(0x40)\n      tag_31\n      swap2\n      swap1\n      tag_32\n      jump\t// in\n    tag_31:\n      mload(0x40)\n      dup1\n      swap2\n      sub\n      swap1\n      return\n        /* \"contracts/MultiSigWallet.sol\":499:532  Transaction[] public transactions */\n    tag_6:\n      callvalue\n      dup1\n      iszero\n      tag_33\n      jumpi\n      0x00\n      dup1\n      revert\n    tag_33:\n      pop\n      tag_34\n      0x04\n      dup1\n      calldatasize\n      sub\n      dup2\n      add\n      swap1\n      tag_35\n      swap2\n      swap1\n      tag_18\n      jump\t// in\n    tag_35:\n      tag_36\n      jump\t// in\n    tag_34:\n      mload(0x40)\n      tag_37\n      swap5\n      swap4\n      swap3\n      swap2\n      swap1\n      tag_38\n      jump\t// in\n    tag_37:\n      mload(0x40)\n      dup1\n      swap2\n      sub\n      swap1\n      return\n        /* \"contracts/MultiSigWallet.sol\":2301:2505  function revokeApproval(uint _txId) external isApproved(_txId) existTrans(_txId) onlyOwner isNotExec(_txId){... */\n    tag_7:\n      callvalue\n      dup1\n      iszero\n      tag_39\n      jumpi\n      0x00\n      dup1\n      revert\n    tag_39:\n      pop\n      tag_40\n      0x04\n      dup1\n      calldatasize\n      sub\n      dup2\n      add\n      swap1\n      tag_41\n      swap2\n      swap1\n      tag_18\n      jump\t// in\n    tag_41:\n      tag_42\n      jump\t// in\n    tag_40:\n      stop\n        /* \"contracts/MultiSigWallet.sol\":1909:2074  function makeTransaction(address _to, uint _value,bytes calldata _data) external onlyOwner{... */\n    tag_8:\n      callvalue\n      dup1\n      iszero\n      tag_43\n      jumpi\n      0x00\n      dup1\n      revert\n    tag_43:\n      pop\n      tag_44\n      0x04\n      dup1\n      calldatasize\n      sub\n      dup2\n      add\n      swap1\n      tag_45\n      swap2\n      swap1\n      tag_46\n      jump\t// in\n    tag_45:\n      tag_47\n      jump\t// in\n    tag_44:\n      stop\n        /* \"contracts/MultiSigWallet.sol\":2513:2949  function executeTransaction(uint _txId) external existTrans(_txId) onlyOwner isNotExec(_txId) {... */\n    tag_9:\n      callvalue\n      dup1\n      iszero\n      tag_48\n      jumpi\n      0x00\n      dup1\n      revert\n    tag_48:\n      pop\n      tag_49\n      0x04\n      dup1\n      calldatasize\n      sub\n      dup2\n      add\n      swap1\n      tag_50\n      swap2\n      swap1\n      tag_18\n      jump\t// in\n    tag_50:\n      tag_51\n      jump\t// in\n    tag_49:\n      stop\n        /* \"contracts/MultiSigWallet.sol\":207:230  address[] public owners */\n    tag_19:\n      0x00\n      dup2\n      dup2\n      sload\n      dup2\n      lt\n      tag_52\n      jumpi\n      0x00\n      dup1\n      revert\n    tag_52:\n      swap1\n      0x00\n      mstore\n      keccak256(0x00, 0x20)\n      add\n      0x00\n      swap2\n      pop\n      sload\n      swap1\n      0x0100\n      exp\n      swap1\n      div\n      0xffffffffffffffffffffffffffffffffffffffff\n      and\n      dup2\n      jump\t// out\n        /* \"contracts/MultiSigWallet.sol\":2082:2293  function approveTransaction(uint _txId) external notApproved(_txId) existTrans(_txId) onlyOwner isNotExec(_txId){... */\n    tag_25:\n        /* \"contracts/MultiSigWallet.sol\":2143:2148  _txId */\n      dup1\n        /* \"contracts/MultiSigWallet.sol\":926:934  approval */\n      0x03\n        /* \"contracts/MultiSigWallet.sol\":926:941  approval[_txId] */\n      0x00\n        /* \"contracts/MultiSigWallet.sol\":935:940  _txId */\n      dup3\n        /* \"contracts/MultiSigWallet.sol\":926:941  approval[_txId] */\n      dup2\n      mstore\n      0x20\n      add\n      swap1\n      dup2\n      mstore\n      0x20\n      add\n      0x00\n      keccak256\n        /* \"contracts/MultiSigWallet.sol\":926:953  approval[_txId][msg.sender] */\n      0x00\n        /* \"contracts/MultiSigWallet.sol\":942:952  msg.sender */\n      caller\n        /* \"contracts/MultiSigWallet.sol\":926:953  approval[_txId][msg.sender] */\n      0xffffffffffffffffffffffffffffffffffffffff\n      and\n      0xffffffffffffffffffffffffffffffffffffffff\n      and\n      dup2\n      mstore\n      0x20\n      add\n      swap1\n      dup2\n      mstore\n      0x20\n      add\n      0x00\n      keccak256\n      0x00\n      swap1\n      sload\n      swap1\n      0x0100\n      exp\n      swap1\n      div\n      0xff\n      and\n        /* \"contracts/MultiSigWallet.sol\":925:953  !approval[_txId][msg.sender] */\n      iszero\n        /* \"contracts/MultiSigWallet.sol\":917:988  require(!approval[_txId][msg.sender],\"Transaction Already Approved...\") */\n      tag_55\n      jumpi\n      mload(0x40)\n      0x08c379a000000000000000000000000000000000000000000000000000000000\n      dup2\n      mstore\n      0x04\n      add\n      tag_56\n      swap1\n      tag_57\n      jump\t// in\n    tag_56:\n      mload(0x40)\n      dup1\n      swap2\n      sub\n      swap1\n      revert\n    tag_55:\n        /* \"contracts/MultiSigWallet.sol\":2161:2166  _txId */\n      dup2\n        /* \"contracts/MultiSigWallet.sol\":1098:1099  1 */\n      0x01\n        /* \"contracts/MultiSigWallet.sol\":1076:1088  transactions */\n      0x04\n        /* \"contracts/MultiSigWallet.sol\":1076:1095  transactions.length */\n      dup1\n      sload\n      swap1\n      pop\n        /* \"contracts/MultiSigWallet.sol\":1076:1099  transactions.length - 1 */\n      tag_59\n      swap2\n      swap1\n      tag_60\n      jump\t// in\n    tag_59:\n        /* \"contracts/MultiSigWallet.sol\":1067:1072  _txId */\n      dup2\n        /* \"contracts/MultiSigWallet.sol\":1067:1099  _txId <= transactions.length - 1 */\n      gt\n      iszero\n        /* \"contracts/MultiSigWallet.sol\":1059:1132  require(_txId <= transactions.length - 1,\"Transaction Does not Exist...\") */\n      tag_61\n      jumpi\n      mload(0x40)\n      0x08c379a000000000000000000000000000000000000000000000000000000000\n      dup2\n      mstore\n      0x04\n      add\n      tag_62\n      swap1\n      tag_63\n      jump\t// in\n    tag_62:\n      mload(0x40)\n      dup1\n      swap2\n      sub\n      swap1\n      revert\n    tag_61:\n        /* \"contracts/MultiSigWallet.sol\":1197:1204  isOwner */\n      0x01\n        /* \"contracts/MultiSigWallet.sol\":1197:1216  isOwner[msg.sender] */\n      0x00\n        /* \"contracts/MultiSigWallet.sol\":1205:1215  msg.sender */\n      caller\n        /* \"contracts/MultiSigWallet.sol\":1197:1216  isOwner[msg.sender] */\n      0xffffffffffffffffffffffffffffffffffffffff\n      and\n      0xffffffffffffffffffffffffffffffffffffffff\n      and\n      dup2\n      mstore\n      0x20\n      add\n      swap1\n      dup2\n      mstore\n      0x20\n      add\n      0x00\n      keccak256\n      0x00\n      swap1\n      sload\n      swap1\n      0x0100\n      exp\n      swap1\n      div\n      0xff\n      and\n        /* \"contracts/MultiSigWallet.sol\":1189:1238  require(isOwner[msg.sender] ,\"Not the Owner....\") */\n      tag_65\n      jumpi\n      mload(0x40)\n      0x08c379a000000000000000000000000000000000000000000000000000000000\n      dup2\n      mstore\n      0x04\n      add\n      tag_66\n      swap1\n      tag_67\n      jump\t// in\n    tag_66:\n      mload(0x40)\n      dup1\n      swap2\n      sub\n      swap1\n      revert\n    tag_65:\n        /* \"contracts/MultiSigWallet.sol\":2188:2193  _txId */\n      dup3\n        /* \"contracts/MultiSigWallet.sol\":1444:1474  Transaction memory transaction */\n      0x00\n        /* \"contracts/MultiSigWallet.sol\":1477:1489  transactions */\n      0x04\n        /* \"contracts/MultiSigWallet.sol\":1490:1495  _txId */\n      dup3\n        /* \"contracts/MultiSigWallet.sol\":1477:1496  transactions[_txId] */\n      dup2\n      sload\n      dup2\n      lt\n      tag_69\n      jumpi\n      tag_70\n      tag_71\n      jump\t// in\n    tag_70:\n    tag_69:\n      swap1\n      0x00\n      mstore\n      keccak256(0x00, 0x20)\n      swap1\n      0x04\n      mul\n      add\n        /* \"contracts/MultiSigWallet.sol\":1444:1496  Transaction memory transaction = transactions[_txId] */\n      mload(0x40)\n      dup1\n      0x80\n      add\n      0x40\n      mstore\n      swap1\n      dup2\n      0x00\n      dup3\n      add\n      0x00\n      swap1\n      sload\n      swap1\n      0x0100\n      exp\n      swap1\n      div\n      0xffffffffffffffffffffffffffffffffffffffff\n      and\n      0xffffffffffffffffffffffffffffffffffffffff\n      and\n      0xffffffffffffffffffffffffffffffffffffffff\n      and\n      dup2\n      mstore\n      0x20\n      add\n      0x01\n      dup3\n      add\n      sload\n      dup2\n      mstore\n      0x20\n      add\n      0x02\n      dup3\n      add\n      0x00\n      swap1\n      sload\n      swap1\n      0x0100\n      exp\n      swap1\n      div\n      0xff\n      and\n      iszero\n      iszero\n      iszero\n      iszero\n      dup2\n      mstore\n      0x20\n      add\n      0x03\n      dup3\n      add\n      dup1\n      sload\n      tag_73\n      swap1\n      tag_74\n      jump\t// in\n    tag_73:\n      dup1\n      0x1f\n      add\n      0x20\n      dup1\n      swap2\n      div\n      mul\n      0x20\n      add\n      mload(0x40)\n      swap1\n      dup2\n      add\n      0x40\n      mstore\n      dup1\n      swap3\n      swap2\n      swap1\n      dup2\n      dup2\n      mstore\n      0x20\n      add\n      dup3\n      dup1\n      sload\n      tag_75\n      swap1\n      tag_74\n      jump\t// in\n    tag_75:\n      dup1\n      iszero\n      tag_76\n      jumpi\n      dup1\n      0x1f\n      lt\n      tag_77\n      jumpi\n      0x0100\n      dup1\n      dup4\n      sload\n      div\n      mul\n      dup4\n      mstore\n      swap2\n      0x20\n      add\n      swap2\n      jump(tag_76)\n    tag_77:\n      dup3\n      add\n      swap2\n      swap1\n      0x00\n      mstore\n      keccak256(0x00, 0x20)\n      swap1\n    tag_78:\n      dup2\n      sload\n      dup2\n      mstore\n      swap1\n      0x01\n      add\n      swap1\n      0x20\n      add\n      dup1\n      dup4\n      gt\n      tag_78\n      jumpi\n      dup3\n      swap1\n      sub\n      0x1f\n      and\n      dup3\n      add\n      swap2\n    tag_76:\n      pop\n      pop\n      pop\n      pop\n      pop\n      dup2\n      mstore\n      pop\n      pop\n      swap1\n      pop\n        /* \"contracts/MultiSigWallet.sol\":1516:1527  transaction */\n      dup1\n        /* \"contracts/MultiSigWallet.sol\":1516:1536  transaction.executed */\n      0x40\n      add\n      mload\n        /* \"contracts/MultiSigWallet.sol\":1515:1536  !transaction.executed */\n      iszero\n        /* \"contracts/MultiSigWallet.sol\":1507:1569  require(!transaction.executed, \"Transaction Already Executed\") */\n      tag_79\n      jumpi\n      mload(0x40)\n      0x08c379a000000000000000000000000000000000000000000000000000000000\n      dup2\n      mstore\n      0x04\n      add\n      tag_80\n      swap1\n      tag_81\n      jump\t// in\n    tag_80:\n      mload(0x40)\n      dup1\n      swap2\n      sub\n      swap1\n      revert\n    tag_79:\n        /* \"contracts/MultiSigWallet.sol\":2237:2241  true */\n      0x01\n        /* \"contracts/MultiSigWallet.sol\":2207:2215  approval */\n      0x03\n        /* \"contracts/MultiSigWallet.sol\":2207:2222  approval[_txId] */\n      0x00\n        /* \"contracts/MultiSigWallet.sol\":2216:2221  _txId */\n      dup8\n        /* \"contracts/MultiSigWallet.sol\":2207:2222  approval[_txId] */\n      dup2\n      mstore\n      0x20\n      add\n      swap1\n      dup2\n      mstore\n      0x20\n      add\n      0x00\n      keccak256\n        /* \"contracts/MultiSigWallet.sol\":2207:2234  approval[_txId][msg.sender] */\n      0x00\n        /* \"contracts/MultiSigWallet.sol\":2223:2233  msg.sender */\n      caller\n        /* \"contracts/MultiSigWallet.sol\":2207:2234  approval[_txId][msg.sender] */\n      0xffffffffffffffffffffffffffffffffffffffff\n      and\n      0xffffffffffffffffffffffffffffffffffffffff\n      and\n      dup2\n      mstore\n      0x20\n      add\n      swap1\n      dup2\n      mstore\n      0x20\n      add\n      0x00\n      keccak256\n      0x00\n        /* \"contracts/MultiSigWallet.sol\":2207:2241  approval[_txId][msg.sender] = true */\n      0x0100\n      exp\n      dup2\n      sload\n      dup2\n      0xff\n      mul\n      not\n      and\n      swap1\n      dup4\n      iszero\n      iszero\n      mul\n      or\n      swap1\n      sstore\n      pop\n        /* \"contracts/MultiSigWallet.sol\":2257:2283  Approve(_txId, msg.sender) */\n      0x47ad3e4b0f4bdbe3ac08708bbc45053d2ff616911b39e65563fd9bd781909645\n        /* \"contracts/MultiSigWallet.sol\":2265:2270  _txId */\n      dup6\n        /* \"contracts/MultiSigWallet.sol\":2272:2282  msg.sender */\n      caller\n        /* \"contracts/MultiSigWallet.sol\":2257:2283  Approve(_txId, msg.sender) */\n      mload(0x40)\n      tag_83\n      swap3\n      swap2\n      swap1\n      tag_84\n      jump\t// in\n    tag_83:\n      mload(0x40)\n      dup1\n      swap2\n      sub\n      swap1\n      log1\n        /* \"contracts/MultiSigWallet.sol\":1433:1589  {... */\n      pop\n        /* \"contracts/MultiSigWallet.sol\":1249:1250  _ */\n      pop\n        /* \"contracts/MultiSigWallet.sol\":999:1000  _ */\n      pop\n        /* \"contracts/MultiSigWallet.sol\":2082:2293  function approveTransaction(uint _txId) external notApproved(_txId) existTrans(_txId) onlyOwner isNotExec(_txId){... */\n      pop\n      pop\n      jump\t// out\n        /* \"contracts/MultiSigWallet.sol\":237:276  mapping(address => bool) public isOwner */\n    tag_30:\n      mstore(0x20, 0x01)\n      dup1\n      0x00\n      mstore\n      keccak256(0x00, 0x40)\n      0x00\n      swap2\n      pop\n      sload\n      swap1\n      0x0100\n      exp\n      swap1\n      div\n      0xff\n      and\n      dup2\n      jump\t// out\n        /* \"contracts/MultiSigWallet.sol\":499:532  Transaction[] public transactions */\n    tag_36:\n      0x04\n      dup2\n      dup2\n      sload\n      dup2\n      lt\n      tag_85\n      jumpi\n      0x00\n      dup1\n      revert\n    tag_85:\n      swap1\n      0x00\n      mstore\n      keccak256(0x00, 0x20)\n      swap1\n      0x04\n      mul\n      add\n      0x00\n      swap2\n      pop\n      swap1\n      pop\n      dup1\n      0x00\n      add\n      0x00\n      swap1\n      sload\n      swap1\n      0x0100\n      exp\n      swap1\n      div\n      0xffffffffffffffffffffffffffffffffffffffff\n      and\n      swap1\n      dup1\n      0x01\n      add\n      sload\n      swap1\n      dup1\n      0x02\n      add\n      0x00\n      swap1\n      sload\n      swap1\n      0x0100\n      exp\n      swap1\n      div\n      0xff\n      and\n      swap1\n      dup1\n      0x03\n      add\n      dup1\n      sload\n      tag_87\n      swap1\n      tag_74\n      jump\t// in\n    tag_87:\n      dup1\n      0x1f\n      add\n      0x20\n      dup1\n      swap2\n      div\n      mul\n      0x20\n      add\n      mload(0x40)\n      swap1\n      dup2\n      add\n      0x40\n      mstore\n      dup1\n      swap3\n      swap2\n      swap1\n      dup2\n      dup2\n      mstore\n      0x20\n      add\n      dup3\n      dup1\n      sload\n      tag_88\n      swap1\n      tag_74\n      jump\t// in\n    tag_88:\n      dup1\n      iszero\n      tag_89\n      jumpi\n      dup1\n      0x1f\n      lt\n      tag_90\n      jumpi\n      0x0100\n      dup1\n      dup4\n      sload\n      div\n      mul\n      dup4\n      mstore\n      swap2\n      0x20\n      add\n      swap2\n      jump(tag_89)\n    tag_90:\n      dup3\n      add\n      swap2\n      swap1\n      0x00\n      mstore\n      keccak256(0x00, 0x20)\n      swap1\n    tag_91:\n      dup2\n      sload\n      dup2\n      mstore\n      swap1\n      0x01\n      add\n      swap1\n      0x20\n      add\n      dup1\n      dup4\n      gt\n      tag_91\n      jumpi\n      dup3\n      swap1\n      sub\n      0x1f\n      and\n      dup3\n      add\n      swap2\n    tag_89:\n      pop\n      pop\n      pop\n      pop\n      pop\n      swap1\n      pop\n      dup5\n      jump\t// out\n        /* \"contracts/MultiSigWallet.sol\":2301:2505  function revokeApproval(uint _txId) external isApproved(_txId) existTrans(_txId) onlyOwner isNotExec(_txId){... */\n    tag_42:\n        /* \"contracts/MultiSigWallet.sol\":2357:2362  _txId */\n      dup1\n        /* \"contracts/MultiSigWallet.sol\":1316:1324  approval */\n      0x03\n        /* \"contracts/MultiSigWallet.sol\":1316:1331  approval[_txId] */\n      0x00\n        /* \"contracts/MultiSigWallet.sol\":1325:1330  _txId */\n      dup3\n        /* \"contracts/MultiSigWallet.sol\":1316:1331  approval[_txId] */\n      dup2\n      mstore\n      0x20\n      add\n      swap1\n      dup2\n      mstore\n      0x20\n      add\n      0x00\n      keccak256\n        /* \"contracts/MultiSigWallet.sol\":1316:1343  approval[_txId][msg.sender] */\n      0x00\n        /* \"contracts/MultiSigWallet.sol\":1332:1342  msg.sender */\n      caller\n        /* \"contracts/MultiSigWallet.sol\":1316:1343  approval[_txId][msg.sender] */\n      0xffffffffffffffffffffffffffffffffffffffff\n      and\n      0xffffffffffffffffffffffffffffffffffffffff\n      and\n      dup2\n      mstore\n      0x20\n      add\n      swap1\n      dup2\n      mstore\n      0x20\n      add\n      0x00\n      keccak256\n      0x00\n      swap1\n      sload\n      swap1\n      0x0100\n      exp\n      swap1\n      div\n      0xff\n      and\n        /* \"contracts/MultiSigWallet.sol\":1308:1375  require(approval[_txId][msg.sender], \"Transaction Not Approved...\") */\n      tag_93\n      jumpi\n      mload(0x40)\n      0x08c379a000000000000000000000000000000000000000000000000000000000\n      dup2\n      mstore\n      0x04\n      add\n      tag_94\n      swap1\n      tag_95\n      jump\t// in\n    tag_94:\n      mload(0x40)\n      dup1\n      swap2\n      sub\n      swap1\n      revert\n    tag_93:\n        /* \"contracts/MultiSigWallet.sol\":2375:2380  _txId */\n      dup2\n        /* \"contracts/MultiSigWallet.sol\":1098:1099  1 */\n      0x01\n        /* \"contracts/MultiSigWallet.sol\":1076:1088  transactions */\n      0x04\n        /* \"contracts/MultiSigWallet.sol\":1076:1095  transactions.length */\n      dup1\n      sload\n      swap1\n      pop\n        /* \"contracts/MultiSigWallet.sol\":1076:1099  transactions.length - 1 */\n      tag_97\n      swap2\n      swap1\n      tag_60\n      jump\t// in\n    tag_97:\n        /* \"contracts/MultiSigWallet.sol\":1067:1072  _txId */\n      dup2\n        /* \"contracts/MultiSigWallet.sol\":1067:1099  _txId <= transactions.length - 1 */\n      gt\n      iszero\n        /* \"contracts/MultiSigWallet.sol\":1059:1132  require(_txId <= transactions.length - 1,\"Transaction Does not Exist...\") */\n      tag_98\n      jumpi\n      mload(0x40)\n      0x08c379a000000000000000000000000000000000000000000000000000000000\n      dup2\n      mstore\n      0x04\n      add\n      tag_99\n      swap1\n      tag_63\n      jump\t// in\n    tag_99:\n      mload(0x40)\n      dup1\n      swap2\n      sub\n      swap1\n      revert\n    tag_98:\n        /* \"contracts/MultiSigWallet.sol\":1197:1204  isOwner */\n      0x01\n        /* \"contracts/MultiSigWallet.sol\":1197:1216  isOwner[msg.sender] */\n      0x00\n        /* \"contracts/MultiSigWallet.sol\":1205:1215  msg.sender */\n      caller\n        /* \"contracts/MultiSigWallet.sol\":1197:1216  isOwner[msg.sender] */\n      0xffffffffffffffffffffffffffffffffffffffff\n      and\n      0xffffffffffffffffffffffffffffffffffffffff\n      and\n      dup2\n      mstore\n      0x20\n      add\n      swap1\n      dup2\n      mstore\n      0x20\n      add\n      0x00\n      keccak256\n      0x00\n      swap1\n      sload\n      swap1\n      0x0100\n      exp\n      swap1\n      div\n      0xff\n      and\n        /* \"contracts/MultiSigWallet.sol\":1189:1238  require(isOwner[msg.sender] ,\"Not the Owner....\") */\n      tag_101\n      jumpi\n      mload(0x40)\n      0x08c379a000000000000000000000000000000000000000000000000000000000\n      dup2\n      mstore\n      0x04\n      add\n      tag_102\n      swap1\n      tag_67\n      jump\t// in\n    tag_102:\n      mload(0x40)\n      dup1\n      swap2\n      sub\n      swap1\n      revert\n    tag_101:\n        /* \"contracts/MultiSigWallet.sol\":2402:2407  _txId */\n      dup3\n        /* \"contracts/MultiSigWallet.sol\":1444:1474  Transaction memory transaction */\n      0x00\n        /* \"contracts/MultiSigWallet.sol\":1477:1489  transactions */\n      0x04\n        /* \"contracts/MultiSigWallet.sol\":1490:1495  _txId */\n      dup3\n        /* \"contracts/MultiSigWallet.sol\":1477:1496  transactions[_txId] */\n      dup2\n      sload\n      dup2\n      lt\n      tag_104\n      jumpi\n      tag_105\n      tag_71\n      jump\t// in\n    tag_105:\n    tag_104:\n      swap1\n      0x00\n      mstore\n      keccak256(0x00, 0x20)\n      swap1\n      0x04\n      mul\n      add\n        /* \"contracts/MultiSigWallet.sol\":1444:1496  Transaction memory transaction = transactions[_txId] */\n      mload(0x40)\n      dup1\n      0x80\n      add\n      0x40\n      mstore\n      swap1\n      dup2\n      0x00\n      dup3\n      add\n      0x00\n      swap1\n      sload\n      swap1\n      0x0100\n      exp\n      swap1\n      div\n      0xffffffffffffffffffffffffffffffffffffffff\n      and\n      0xffffffffffffffffffffffffffffffffffffffff\n      and\n      0xffffffffffffffffffffffffffffffffffffffff\n      and\n      dup2\n      mstore\n      0x20\n      add\n      0x01\n      dup3\n      add\n      sload\n      dup2\n      mstore\n      0x20\n      add\n      0x02\n      dup3\n      add\n      0x00\n      swap1\n      sload\n      swap1\n      0x0100\n      exp\n      swap1\n      div\n      0xff\n      and\n      iszero\n      iszero\n      iszero\n      iszero\n      dup2\n      mstore\n      0x20\n      add\n      0x03\n      dup3\n      add\n      dup1\n      sload\n      tag_107\n      swap1\n      tag_74\n      jump\t// in\n    tag_107:\n      dup1\n      0x1f\n      add\n      0x20\n      dup1\n      swap2\n      div\n      mul\n      0x20\n      add\n      mload(0x40)\n      swap1\n      dup2\n      add\n      0x40\n      mstore\n      dup1\n      swap3\n      swap2\n      swap1\n      dup2\n      dup2\n      mstore\n      0x20\n      add\n      dup3\n      dup1\n      sload\n      tag_108\n      swap1\n      tag_74\n      jump\t// in\n    tag_108:\n      dup1\n      iszero\n      tag_109\n      jumpi\n      dup1\n      0x1f\n      lt\n      tag_110\n      jumpi\n      0x0100\n      dup1\n      dup4\n      sload\n      div\n      mul\n      dup4\n      mstore\n      swap2\n      0x20\n      add\n      swap2\n      jump(tag_109)\n    tag_110:\n      dup3\n      add\n      swap2\n      swap1\n      0x00\n      mstore\n      keccak256(0x00, 0x20)\n      swap1\n    tag_111:\n      dup2\n      sload\n      dup2\n      mstore\n      swap1\n      0x01\n      add\n      swap1\n      0x20\n      add\n      dup1\n      dup4\n      gt\n      tag_111\n      jumpi\n      dup3\n      swap1\n      sub\n      0x1f\n      and\n      dup3\n      add\n      swap2\n    tag_109:\n      pop\n      pop\n      pop\n      pop\n      pop\n      dup2\n      mstore\n      pop\n      pop\n      swap1\n      pop\n        /* \"contracts/MultiSigWallet.sol\":1516:1527  transaction */\n      dup1\n        /* \"contracts/MultiSigWallet.sol\":1516:1536  transaction.executed */\n      0x40\n      add\n      mload\n        /* \"contracts/MultiSigWallet.sol\":1515:1536  !transaction.executed */\n      iszero\n        /* \"contracts/MultiSigWallet.sol\":1507:1569  require(!transaction.executed, \"Transaction Already Executed\") */\n      tag_112\n      jumpi\n      mload(0x40)\n      0x08c379a000000000000000000000000000000000000000000000000000000000\n      dup2\n      mstore\n      0x04\n      add\n      tag_113\n      swap1\n      tag_81\n      jump\t// in\n    tag_113:\n      mload(0x40)\n      dup1\n      swap2\n      sub\n      swap1\n      revert\n    tag_112:\n        /* \"contracts/MultiSigWallet.sol\":2451:2456  false */\n      0x00\n        /* \"contracts/MultiSigWallet.sol\":2421:2429  approval */\n      0x03\n        /* \"contracts/MultiSigWallet.sol\":2421:2436  approval[_txId] */\n      0x00\n        /* \"contracts/MultiSigWallet.sol\":2430:2435  _txId */\n      dup8\n        /* \"contracts/MultiSigWallet.sol\":2421:2436  approval[_txId] */\n      dup2\n      mstore\n      0x20\n      add\n      swap1\n      dup2\n      mstore\n      0x20\n      add\n      0x00\n      keccak256\n        /* \"contracts/MultiSigWallet.sol\":2421:2448  approval[_txId][msg.sender] */\n      0x00\n        /* \"contracts/MultiSigWallet.sol\":2437:2447  msg.sender */\n      caller\n        /* \"contracts/MultiSigWallet.sol\":2421:2448  approval[_txId][msg.sender] */\n      0xffffffffffffffffffffffffffffffffffffffff\n      and\n      0xffffffffffffffffffffffffffffffffffffffff\n      and\n      dup2\n      mstore\n      0x20\n      add\n      swap1\n      dup2\n      mstore\n      0x20\n      add\n      0x00\n      keccak256\n      0x00\n        /* \"contracts/MultiSigWallet.sol\":2421:2456  approval[_txId][msg.sender] = false */\n      0x0100\n      exp\n      dup2\n      sload\n      dup2\n      0xff\n      mul\n      not\n      and\n      swap1\n      dup4\n      iszero\n      iszero\n      mul\n      or\n      swap1\n      sstore\n      pop\n        /* \"contracts/MultiSigWallet.sol\":2472:2497  Revoke(_txId, msg.sender) */\n      0xd5d64031e0f55cf42bc3b7d0462f8404a4d63f7ccf84be9510cd6a5300552e42\n        /* \"contracts/MultiSigWallet.sol\":2479:2484  _txId */\n      dup6\n        /* \"contracts/MultiSigWallet.sol\":2486:2496  msg.sender */\n      caller\n        /* \"contracts/MultiSigWallet.sol\":2472:2497  Revoke(_txId, msg.sender) */\n      mload(0x40)\n      tag_115\n      swap3\n      swap2\n      swap1\n      tag_84\n      jump\t// in\n    tag_115:\n      mload(0x40)\n      dup1\n      swap2\n      sub\n      swap1\n      log1\n        /* \"contracts/MultiSigWallet.sol\":1433:1589  {... */\n      pop\n        /* \"contracts/MultiSigWallet.sol\":1249:1250  _ */\n      pop\n        /* \"contracts/MultiSigWallet.sol\":1386:1387  _ */\n      pop\n        /* \"contracts/MultiSigWallet.sol\":2301:2505  function revokeApproval(uint _txId) external isApproved(_txId) existTrans(_txId) onlyOwner isNotExec(_txId){... */\n      pop\n      pop\n      jump\t// out\n        /* \"contracts/MultiSigWallet.sol\":1909:2074  function makeTransaction(address _to, uint _value,bytes calldata _data) external onlyOwner{... */\n    tag_47:\n        /* \"contracts/MultiSigWallet.sol\":1197:1204  isOwner */\n      0x01\n        /* \"contracts/MultiSigWallet.sol\":1197:1216  isOwner[msg.sender] */\n      0x00\n        /* \"contracts/MultiSigWallet.sol\":1205:1215  msg.sender */\n      caller\n        /* \"contracts/MultiSigWallet.sol\":1197:1216  isOwner[msg.sender] */\n      0xffffffffffffffffffffffffffffffffffffffff\n      and\n      0xffffffffffffffffffffffffffffffffffffffff\n      and\n      dup2\n      mstore\n      0x20\n      add\n      swap1\n      dup2\n      mstore\n      0x20\n      add\n      0x00\n      keccak256\n      0x00\n      swap1\n      sload\n      swap1\n      0x0100\n      exp\n      swap1\n      div\n      0xff\n      and\n        /* \"contracts/MultiSigWallet.sol\":1189:1238  require(isOwner[msg.sender] ,\"Not the Owner....\") */\n      tag_117\n      jumpi\n      mload(0x40)\n      0x08c379a000000000000000000000000000000000000000000000000000000000\n      dup2\n      mstore\n      0x04\n      add\n      tag_118\n      swap1\n      tag_67\n      jump\t// in\n    tag_118:\n      mload(0x40)\n      dup1\n      swap2\n      sub\n      swap1\n      revert\n    tag_117:\n        /* \"contracts/MultiSigWallet.sol\":2010:2022  transactions */\n      0x04\n        /* \"contracts/MultiSigWallet.sol\":2028:2063  Transaction(_to,_value,false,_data) */\n      mload(0x40)\n      dup1\n      0x80\n      add\n      0x40\n      mstore\n      dup1\n        /* \"contracts/MultiSigWallet.sol\":2040:2043  _to */\n      dup7\n        /* \"contracts/MultiSigWallet.sol\":2028:2063  Transaction(_to,_value,false,_data) */\n      0xffffffffffffffffffffffffffffffffffffffff\n      and\n      dup2\n      mstore\n      0x20\n      add\n        /* \"contracts/MultiSigWallet.sol\":2044:2050  _value */\n      dup6\n        /* \"contracts/MultiSigWallet.sol\":2028:2063  Transaction(_to,_value,false,_data) */\n      dup2\n      mstore\n      0x20\n      add\n        /* \"contracts/MultiSigWallet.sol\":2051:2056  false */\n      0x00\n        /* \"contracts/MultiSigWallet.sol\":2028:2063  Transaction(_to,_value,false,_data) */\n      iszero\n      iszero\n      dup2\n      mstore\n      0x20\n      add\n        /* \"contracts/MultiSigWallet.sol\":2057:2062  _data */\n      dup5\n      dup5\n        /* \"contracts/MultiSigWallet.sol\":2028:2063  Transaction(_to,_value,false,_data) */\n      dup1\n      dup1\n      0x1f\n      add\n      0x20\n      dup1\n      swap2\n      div\n      mul\n      0x20\n      add\n      mload(0x40)\n      swap1\n      dup2\n      add\n      0x40\n      mstore\n      dup1\n      swap4\n      swap3\n      swap2\n      swap1\n      dup2\n      dup2\n      mstore\n      0x20\n      add\n      dup4\n      dup4\n      dup1\n      dup3\n      dup5\n      calldatacopy\n      0x00\n      dup2\n      dup5\n      add\n      mstore\n      not(0x1f)\n      0x1f\n      dup3\n      add\n      and\n      swap1\n      pop\n      dup1\n      dup4\n      add\n      swap3\n      pop\n      pop\n      pop\n      pop\n      pop\n      pop\n      pop\n      dup2\n      mstore\n      pop\n        /* \"contracts/MultiSigWallet.sol\":2010:2064  transactions.push(Transaction(_to,_value,false,_data)) */\n      swap1\n      dup1\n      0x01\n      dup2\n      sload\n      add\n      dup1\n      dup3\n      sstore\n      dup1\n      swap2\n      pop\n      pop\n      0x01\n      swap1\n      sub\n      swap1\n      0x00\n      mstore\n      keccak256(0x00, 0x20)\n      swap1\n      0x04\n      mul\n      add\n      0x00\n      swap1\n      swap2\n      swap1\n      swap2\n      swap1\n      swap2\n      pop\n      0x00\n      dup3\n      add\n      mload\n      dup2\n      0x00\n      add\n      exp(0x0100, 0x00)\n      dup2\n      sload\n      dup2\n      0xffffffffffffffffffffffffffffffffffffffff\n      mul\n      not\n      and\n      swap1\n      dup4\n      0xffffffffffffffffffffffffffffffffffffffff\n      and\n      mul\n      or\n      swap1\n      sstore\n      pop\n      0x20\n      dup3\n      add\n      mload\n      dup2\n      0x01\n      add\n      sstore\n      0x40\n      dup3\n      add\n      mload\n      dup2\n      0x02\n      add\n      exp(0x0100, 0x00)\n      dup2\n      sload\n      dup2\n      0xff\n      mul\n      not\n      and\n      swap1\n      dup4\n      iszero\n      iszero\n      mul\n      or\n      swap1\n      sstore\n      pop\n      0x60\n      dup3\n      add\n      mload\n      dup2\n      0x03\n      add\n      swap1\n      dup2\n      tag_121\n      swap2\n      swap1\n      tag_122\n      jump\t// in\n    tag_121:\n      pop\n      pop\n      pop\n        /* \"contracts/MultiSigWallet.sol\":1909:2074  function makeTransaction(address _to, uint _value,bytes calldata _data) external onlyOwner{... */\n      pop\n      pop\n      pop\n      pop\n      jump\t// out\n        /* \"contracts/MultiSigWallet.sol\":2513:2949  function executeTransaction(uint _txId) external existTrans(_txId) onlyOwner isNotExec(_txId) {... */\n    tag_51:\n        /* \"contracts/MultiSigWallet.sol\":2573:2578  _txId */\n      dup1\n        /* \"contracts/MultiSigWallet.sol\":1098:1099  1 */\n      0x01\n        /* \"contracts/MultiSigWallet.sol\":1076:1088  transactions */\n      0x04\n        /* \"contracts/MultiSigWallet.sol\":1076:1095  transactions.length */\n      dup1\n      sload\n      swap1\n      pop\n        /* \"contracts/MultiSigWallet.sol\":1076:1099  transactions.length - 1 */\n      tag_124\n      swap2\n      swap1\n      tag_60\n      jump\t// in\n    tag_124:\n        /* \"contracts/MultiSigWallet.sol\":1067:1072  _txId */\n      dup2\n        /* \"contracts/MultiSigWallet.sol\":1067:1099  _txId <= transactions.length - 1 */\n      gt\n      iszero\n        /* \"contracts/MultiSigWallet.sol\":1059:1132  require(_txId <= transactions.length - 1,\"Transaction Does not Exist...\") */\n      tag_125\n      jumpi\n      mload(0x40)\n      0x08c379a000000000000000000000000000000000000000000000000000000000\n      dup2\n      mstore\n      0x04\n      add\n      tag_126\n      swap1\n      tag_63\n      jump\t// in\n    tag_126:\n      mload(0x40)\n      dup1\n      swap2\n      sub\n      swap1\n      revert\n    tag_125:\n        /* \"contracts/MultiSigWallet.sol\":1197:1204  isOwner */\n      0x01\n        /* \"contracts/MultiSigWallet.sol\":1197:1216  isOwner[msg.sender] */\n      0x00\n        /* \"contracts/MultiSigWallet.sol\":1205:1215  msg.sender */\n      caller\n        /* \"contracts/MultiSigWallet.sol\":1197:1216  isOwner[msg.sender] */\n      0xffffffffffffffffffffffffffffffffffffffff\n      and\n      0xffffffffffffffffffffffffffffffffffffffff\n      and\n      dup2\n      mstore\n      0x20\n      add\n      swap1\n      dup2\n      mstore\n      0x20\n      add\n      0x00\n      keccak256\n      0x00\n      swap1\n      sload\n      swap1\n      0x0100\n      exp\n      swap1\n      div\n      0xff\n      and\n        /* \"contracts/MultiSigWallet.sol\":1189:1238  require(isOwner[msg.sender] ,\"Not the Owner....\") */\n      tag_128\n      jumpi\n      mload(0x40)\n      0x08c379a000000000000000000000000000000000000000000000000000000000\n      dup2\n      mstore\n      0x04\n      add\n      tag_129\n      swap1\n      tag_67\n      jump\t// in\n    tag_129:\n      mload(0x40)\n      dup1\n      swap2\n      sub\n      swap1\n      revert\n    tag_128:\n        /* \"contracts/MultiSigWallet.sol\":2600:2605  _txId */\n      dup2\n        /* \"contracts/MultiSigWallet.sol\":1444:1474  Transaction memory transaction */\n      0x00\n        /* \"contracts/MultiSigWallet.sol\":1477:1489  transactions */\n      0x04\n        /* \"contracts/MultiSigWallet.sol\":1490:1495  _txId */\n      dup3\n        /* \"contracts/MultiSigWallet.sol\":1477:1496  transactions[_txId] */\n      dup2\n      sload\n      dup2\n      lt\n      tag_131\n      jumpi\n      tag_132\n      tag_71\n      jump\t// in\n    tag_132:\n    tag_131:\n      swap1\n      0x00\n      mstore\n      keccak256(0x00, 0x20)\n      swap1\n      0x04\n      mul\n      add\n        /* \"contracts/MultiSigWallet.sol\":1444:1496  Transaction memory transaction = transactions[_txId] */\n      mload(0x40)\n      dup1\n      0x80\n      add\n      0x40\n      mstore\n      swap1\n      dup2\n      0x00\n      dup3\n      add\n      0x00\n      swap1\n      sload\n      swap1\n      0x0100\n      exp\n      swap1\n      div\n      0xffffffffffffffffffffffffffffffffffffffff\n      and\n      0xffffffffffffffffffffffffffffffffffffffff\n      and\n      0xffffffffffffffffffffffffffffffffffffffff\n      and\n      dup2\n      mstore\n      0x20\n      add\n      0x01\n      dup3\n      add\n      sload\n      dup2\n      mstore\n      0x20\n      add\n      0x02\n      dup3\n      add\n      0x00\n      swap1\n      sload\n      swap1\n      0x0100\n      exp\n      swap1\n      div\n      0xff\n      and\n      iszero\n      iszero\n      iszero\n      iszero\n      dup2\n      mstore\n      0x20\n      add\n      0x03\n      dup3\n      add\n      dup1\n      sload\n      tag_134\n      swap1\n      tag_74\n      jump\t// in\n    tag_134:\n      dup1\n      0x1f\n      add\n      0x20\n      dup1\n      swap2\n      div\n      mul\n      0x20\n      add\n      mload(0x40)\n      swap1\n      dup2\n      add\n      0x40\n      mstore\n      dup1\n      swap3\n      swap2\n      swap1\n      dup2\n      dup2\n      mstore\n      0x20\n      add\n      dup3\n      dup1\n      sload\n      tag_135\n      swap1\n      tag_74\n      jump\t// in\n    tag_135:\n      dup1\n      iszero\n      tag_136\n      jumpi\n      dup1\n      0x1f\n      lt\n      tag_137\n      jumpi\n      0x0100\n      dup1\n      dup4\n      sload\n      div\n      mul\n      dup4\n      mstore\n      swap2\n      0x20\n      add\n      swap2\n      jump(tag_136)\n    tag_137:\n      dup3\n      add\n      swap2\n      swap1\n      0x00\n      mstore\n      keccak256(0x00, 0x20)\n      swap1\n    tag_138:\n      dup2\n      sload\n      dup2\n      mstore\n      swap1\n      0x01\n      add\n      swap1\n      0x20\n      add\n      dup1\n      dup4\n      gt\n      tag_138\n      jumpi\n      dup3\n      swap1\n      sub\n      0x1f\n      and\n      dup3\n      add\n      swap2\n    tag_136:\n      pop\n      pop\n      pop\n      pop\n      pop\n      dup2\n      mstore\n      pop\n      pop\n      swap1\n      pop\n        /* \"contracts/MultiSigWallet.sol\":1516:1527  transaction */\n      dup1\n        /* \"contracts/MultiSigWallet.sol\":1516:1536  transaction.executed */\n      0x40\n      add\n      mload\n        /* \"contracts/MultiSigWallet.sol\":1515:1536  !transaction.executed */\n      iszero\n        /* \"contracts/MultiSigWallet.sol\":1507:1569  require(!transaction.executed, \"Transaction Already Executed\") */\n      tag_139\n      jumpi\n      mload(0x40)\n      0x08c379a000000000000000000000000000000000000000000000000000000000\n      dup2\n      mstore\n      0x04\n      add\n      tag_140\n      swap1\n      tag_81\n      jump\t// in\n    tag_140:\n      mload(0x40)\n      dup1\n      swap2\n      sub\n      swap1\n      revert\n    tag_139:\n        /* \"contracts/MultiSigWallet.sol\":2644:2652  required */\n      sload(0x02)\n        /* \"contracts/MultiSigWallet.sol\":2626:2640  canExec(_txId) */\n      tag_142\n        /* \"contracts/MultiSigWallet.sol\":2634:2639  _txId */\n      dup6\n        /* \"contracts/MultiSigWallet.sol\":2626:2633  canExec */\n      tag_143\n        /* \"contracts/MultiSigWallet.sol\":2626:2640  canExec(_txId) */\n      jump\t// in\n    tag_142:\n        /* \"contracts/MultiSigWallet.sol\":2626:2652  canExec(_txId) >= required */\n      lt\n      iszero\n        /* \"contracts/MultiSigWallet.sol\":2618:2680  require(canExec(_txId) >= required, \"Not Enough Approvals...\") */\n      tag_144\n      jumpi\n      mload(0x40)\n      0x08c379a000000000000000000000000000000000000000000000000000000000\n      dup2\n      mstore\n      0x04\n      add\n      tag_145\n      swap1\n      tag_146\n      jump\t// in\n    tag_145:\n      mload(0x40)\n      dup1\n      swap2\n      sub\n      swap1\n      revert\n    tag_144:\n        /* \"contracts/MultiSigWallet.sol\":2691:2722  Transaction storage transaction */\n      0x00\n        /* \"contracts/MultiSigWallet.sol\":2725:2737  transactions */\n      0x04\n        /* \"contracts/MultiSigWallet.sol\":2738:2743  _txId */\n      dup6\n        /* \"contracts/MultiSigWallet.sol\":2725:2744  transactions[_txId] */\n      dup2\n      sload\n      dup2\n      lt\n      tag_147\n      jumpi\n      tag_148\n      tag_71\n      jump\t// in\n    tag_148:\n    tag_147:\n      swap1\n      0x00\n      mstore\n      keccak256(0x00, 0x20)\n      swap1\n      0x04\n      mul\n      add\n        /* \"contracts/MultiSigWallet.sol\":2691:2744  Transaction storage transaction = transactions[_txId] */\n      swap1\n      pop\n        /* \"contracts/MultiSigWallet.sol\":2757:2769  bool success */\n      0x00\n        /* \"contracts/MultiSigWallet.sol\":2775:2786  transaction */\n      dup2\n        /* \"contracts/MultiSigWallet.sol\":2775:2789  transaction.to */\n      0x00\n      add\n      0x00\n      swap1\n      sload\n      swap1\n      0x0100\n      exp\n      swap1\n      div\n      0xffffffffffffffffffffffffffffffffffffffff\n      and\n        /* \"contracts/MultiSigWallet.sol\":2775:2794  transaction.to.call */\n      0xffffffffffffffffffffffffffffffffffffffff\n      and\n        /* \"contracts/MultiSigWallet.sol\":2802:2813  transaction */\n      dup3\n        /* \"contracts/MultiSigWallet.sol\":2802:2819  transaction.value */\n      0x01\n      add\n      sload\n        /* \"contracts/MultiSigWallet.sol\":2821:2832  transaction */\n      dup4\n        /* \"contracts/MultiSigWallet.sol\":2821:2837  transaction.data */\n      0x03\n      add\n        /* \"contracts/MultiSigWallet.sol\":2775:2838  transaction.to.call{value: transaction.value}(transaction.data) */\n      mload(0x40)\n      tag_150\n      swap2\n      swap1\n      tag_151\n      jump\t// in\n    tag_150:\n      0x00\n      mload(0x40)\n      dup1\n      dup4\n      sub\n      dup2\n      dup6\n      dup8\n      gas\n      call\n      swap3\n      pop\n      pop\n      pop\n      returndatasize\n      dup1\n      0x00\n      dup2\n      eq\n      tag_154\n      jumpi\n      mload(0x40)\n      swap2\n      pop\n      and(add(returndatasize, 0x3f), not(0x1f))\n      dup3\n      add\n      0x40\n      mstore\n      returndatasize\n      dup3\n      mstore\n      returndatasize\n      0x00\n      0x20\n      dup5\n      add\n      returndatacopy\n      jump(tag_153)\n    tag_154:\n      0x60\n      swap2\n      pop\n    tag_153:\n      pop\n        /* \"contracts/MultiSigWallet.sol\":2756:2838  (bool success, ) = transaction.to.call{value: transaction.value}(transaction.data) */\n      pop\n      swap1\n      pop\n        /* \"contracts/MultiSigWallet.sol\":2859:2866  success */\n      dup1\n        /* \"contracts/MultiSigWallet.sol\":2851:2893  require(success, \"Transaction Incomplete\") */\n      tag_155\n      jumpi\n      mload(0x40)\n      0x08c379a000000000000000000000000000000000000000000000000000000000\n      dup2\n      mstore\n      0x04\n      add\n      tag_156\n      swap1\n      tag_157\n      jump\t// in\n    tag_156:\n      mload(0x40)\n      dup1\n      swap2\n      sub\n      swap1\n      revert\n    tag_155:\n        /* \"contracts/MultiSigWallet.sol\":2927:2931  true */\n      0x01\n        /* \"contracts/MultiSigWallet.sol\":2904:2915  transaction */\n      dup3\n        /* \"contracts/MultiSigWallet.sol\":2904:2924  transaction.executed */\n      0x02\n      add\n      0x00\n        /* \"contracts/MultiSigWallet.sol\":2904:2931  transaction.executed = true */\n      0x0100\n      exp\n      dup2\n      sload\n      dup2\n      0xff\n      mul\n      not\n      and\n      swap1\n      dup4\n      iszero\n      iszero\n      mul\n      or\n      swap1\n      sstore\n      pop\n        /* \"contracts/MultiSigWallet.sol\":2607:2949  {... */\n      pop\n      pop\n        /* \"contracts/MultiSigWallet.sol\":1433:1589  {... */\n      pop\n        /* \"contracts/MultiSigWallet.sol\":1249:1250  _ */\n      pop\n        /* \"contracts/MultiSigWallet.sol\":2513:2949  function executeTransaction(uint _txId) external existTrans(_txId) onlyOwner isNotExec(_txId) {... */\n      pop\n      pop\n      jump\t// out\n        /* \"contracts/MultiSigWallet.sol\":1597:1813  function canExec(uint _txId) private view returns(uint count){... */\n    tag_143:\n        /* \"contracts/MultiSigWallet.sol\":1647:1657  uint count */\n      0x00\n        /* \"contracts/MultiSigWallet.sol\":1673:1679  uint i */\n      dup1\n        /* \"contracts/MultiSigWallet.sol\":1669:1806  for(uint i; i < owners.length ; i++){... */\n    tag_159:\n        /* \"contracts/MultiSigWallet.sol\":1685:1691  owners */\n      0x00\n        /* \"contracts/MultiSigWallet.sol\":1685:1698  owners.length */\n      dup1\n      sload\n      swap1\n      pop\n        /* \"contracts/MultiSigWallet.sol\":1681:1682  i */\n      dup2\n        /* \"contracts/MultiSigWallet.sol\":1681:1698  i < owners.length */\n      lt\n        /* \"contracts/MultiSigWallet.sol\":1669:1806  for(uint i; i < owners.length ; i++){... */\n      iszero\n      tag_160\n      jumpi\n        /* \"contracts/MultiSigWallet.sol\":1723:1731  approval */\n      0x03\n        /* \"contracts/MultiSigWallet.sol\":1723:1738  approval[_txId] */\n      0x00\n        /* \"contracts/MultiSigWallet.sol\":1732:1737  _txId */\n      dup5\n        /* \"contracts/MultiSigWallet.sol\":1723:1738  approval[_txId] */\n      dup2\n      mstore\n      0x20\n      add\n      swap1\n      dup2\n      mstore\n      0x20\n      add\n      0x00\n      keccak256\n        /* \"contracts/MultiSigWallet.sol\":1723:1749  approval[_txId][owners[i]] */\n      0x00\n        /* \"contracts/MultiSigWallet.sol\":1739:1745  owners */\n      dup1\n        /* \"contracts/MultiSigWallet.sol\":1746:1747  i */\n      dup4\n        /* \"contracts/MultiSigWallet.sol\":1739:1748  owners[i] */\n      dup2\n      sload\n      dup2\n      lt\n      tag_162\n      jumpi\n      tag_163\n      tag_71\n      jump\t// in\n    tag_163:\n    tag_162:\n      swap1\n      0x00\n      mstore\n      keccak256(0x00, 0x20)\n      add\n      0x00\n      swap1\n      sload\n      swap1\n      0x0100\n      exp\n      swap1\n      div\n      0xffffffffffffffffffffffffffffffffffffffff\n      and\n        /* \"contracts/MultiSigWallet.sol\":1723:1749  approval[_txId][owners[i]] */\n      0xffffffffffffffffffffffffffffffffffffffff\n      and\n      0xffffffffffffffffffffffffffffffffffffffff\n      and\n      dup2\n      mstore\n      0x20\n      add\n      swap1\n      dup2\n      mstore\n      0x20\n      add\n      0x00\n      keccak256\n      0x00\n      swap1\n      sload\n      swap1\n      0x0100\n      exp\n      swap1\n      div\n      0xff\n      and\n        /* \"contracts/MultiSigWallet.sol\":1720:1795  if(approval[_txId][owners[i]]){... */\n      iszero\n      tag_165\n      jumpi\n        /* \"contracts/MultiSigWallet.sol\":1778:1779  1 */\n      0x01\n        /* \"contracts/MultiSigWallet.sol\":1769:1779  count += 1 */\n      dup3\n      tag_166\n      swap2\n      swap1\n      tag_167\n      jump\t// in\n    tag_166:\n      swap2\n      pop\n        /* \"contracts/MultiSigWallet.sol\":1720:1795  if(approval[_txId][owners[i]]){... */\n    tag_165:\n        /* \"contracts/MultiSigWallet.sol\":1701:1704  i++ */\n      dup1\n      dup1\n      tag_168\n      swap1\n      tag_169\n      jump\t// in\n    tag_168:\n      swap2\n      pop\n      pop\n        /* \"contracts/MultiSigWallet.sol\":1669:1806  for(uint i; i < owners.length ; i++){... */\n      jump(tag_159)\n    tag_160:\n      pop\n        /* \"contracts/MultiSigWallet.sol\":1597:1813  function canExec(uint _txId) private view returns(uint count){... */\n      swap2\n      swap1\n      pop\n      jump\t// out\n        /* \"#utility.yul\":7:133   */\n    tag_170:\n        /* \"#utility.yul\":44:51   */\n      0x00\n        /* \"#utility.yul\":84:126   */\n      0xffffffffffffffffffffffffffffffffffffffff\n        /* \"#utility.yul\":77:82   */\n      dup3\n        /* \"#utility.yul\":73:127   */\n      and\n        /* \"#utility.yul\":62:127   */\n      swap1\n      pop\n        /* \"#utility.yul\":7:133   */\n      swap2\n      swap1\n      pop\n      jump\t// out\n        /* \"#utility.yul\":139:235   */\n    tag_171:\n        /* \"#utility.yul\":176:183   */\n      0x00\n        /* \"#utility.yul\":205:229   */\n      tag_231\n        /* \"#utility.yul\":223:228   */\n      dup3\n        /* \"#utility.yul\":205:229   */\n      tag_170\n      jump\t// in\n    tag_231:\n        /* \"#utility.yul\":194:229   */\n      swap1\n      pop\n        /* \"#utility.yul\":139:235   */\n      swap2\n      swap1\n      pop\n      jump\t// out\n        /* \"#utility.yul\":241:359   */\n    tag_172:\n        /* \"#utility.yul\":328:352   */\n      tag_233\n        /* \"#utility.yul\":346:351   */\n      dup2\n        /* \"#utility.yul\":328:352   */\n      tag_171\n      jump\t// in\n    tag_233:\n        /* \"#utility.yul\":323:326   */\n      dup3\n        /* \"#utility.yul\":316:353   */\n      mstore\n        /* \"#utility.yul\":241:359   */\n      pop\n      pop\n      jump\t// out\n        /* \"#utility.yul\":365:442   */\n    tag_173:\n        /* \"#utility.yul\":402:409   */\n      0x00\n        /* \"#utility.yul\":431:436   */\n      dup2\n        /* \"#utility.yul\":420:436   */\n      swap1\n      pop\n        /* \"#utility.yul\":365:442   */\n      swap2\n      swap1\n      pop\n      jump\t// out\n        /* \"#utility.yul\":448:566   */\n    tag_174:\n        /* \"#utility.yul\":535:559   */\n      tag_236\n        /* \"#utility.yul\":553:558   */\n      dup2\n        /* \"#utility.yul\":535:559   */\n      tag_173\n      jump\t// in\n    tag_236:\n        /* \"#utility.yul\":530:533   */\n      dup3\n        /* \"#utility.yul\":523:560   */\n      mstore\n        /* \"#utility.yul\":448:566   */\n      pop\n      pop\n      jump\t// out\n        /* \"#utility.yul\":572:904   */\n    tag_14:\n        /* \"#utility.yul\":693:697   */\n      0x00\n        /* \"#utility.yul\":731:733   */\n      0x40\n        /* \"#utility.yul\":720:729   */\n      dup3\n        /* \"#utility.yul\":716:734   */\n      add\n        /* \"#utility.yul\":708:734   */\n      swap1\n      pop\n        /* \"#utility.yul\":744:815   */\n      tag_238\n        /* \"#utility.yul\":812:813   */\n      0x00\n        /* \"#utility.yul\":801:810   */\n      dup4\n        /* \"#utility.yul\":797:814   */\n      add\n        /* \"#utility.yul\":788:794   */\n      dup6\n        /* \"#utility.yul\":744:815   */\n      tag_172\n      jump\t// in\n    tag_238:\n        /* \"#utility.yul\":825:897   */\n      tag_239\n        /* \"#utility.yul\":893:895   */\n      0x20\n        /* \"#utility.yul\":882:891   */\n      dup4\n        /* \"#utility.yul\":878:896   */\n      add\n        /* \"#utility.yul\":869:875   */\n      dup5\n        /* \"#utility.yul\":825:897   */\n      tag_174\n      jump\t// in\n    tag_239:\n        /* \"#utility.yul\":572:904   */\n      swap4\n      swap3\n      pop\n      pop\n      pop\n      jump\t// out\n        /* \"#utility.yul\":991:1108   */\n    tag_176:\n        /* \"#utility.yul\":1100:1101   */\n      0x00\n        /* \"#utility.yul\":1097:1098   */\n      dup1\n        /* \"#utility.yul\":1090:1102   */\n      revert\n        /* \"#utility.yul\":1114:1231   */\n    tag_177:\n        /* \"#utility.yul\":1223:1224   */\n      0x00\n        /* \"#utility.yul\":1220:1221   */\n      dup1\n        /* \"#utility.yul\":1213:1225   */\n      revert\n        /* \"#utility.yul\":1237:1359   */\n    tag_178:\n        /* \"#utility.yul\":1310:1334   */\n      tag_244\n        /* \"#utility.yul\":1328:1333   */\n      dup2\n        /* \"#utility.yul\":1310:1334   */\n      tag_173\n      jump\t// in\n    tag_244:\n        /* \"#utility.yul\":1303:1308   */\n      dup2\n        /* \"#utility.yul\":1300:1335   */\n      eq\n        /* \"#utility.yul\":1290:1353   */\n      tag_245\n      jumpi\n        /* \"#utility.yul\":1349:1350   */\n      0x00\n        /* \"#utility.yul\":1346:1347   */\n      dup1\n        /* \"#utility.yul\":1339:1351   */\n      revert\n        /* \"#utility.yul\":1290:1353   */\n    tag_245:\n        /* \"#utility.yul\":1237:1359   */\n      pop\n      jump\t// out\n        /* \"#utility.yul\":1365:1504   */\n    tag_179:\n        /* \"#utility.yul\":1411:1416   */\n      0x00\n        /* \"#utility.yul\":1449:1455   */\n      dup2\n        /* \"#utility.yul\":1436:1456   */\n      calldataload\n        /* \"#utility.yul\":1427:1456   */\n      swap1\n      pop\n        /* \"#utility.yul\":1465:1498   */\n      tag_247\n        /* \"#utility.yul\":1492:1497   */\n      dup2\n        /* \"#utility.yul\":1465:1498   */\n      tag_178\n      jump\t// in\n    tag_247:\n        /* \"#utility.yul\":1365:1504   */\n      swap3\n      swap2\n      pop\n      pop\n      jump\t// out\n        /* \"#utility.yul\":1510:1839   */\n    tag_18:\n        /* \"#utility.yul\":1569:1575   */\n      0x00\n        /* \"#utility.yul\":1618:1620   */\n      0x20\n        /* \"#utility.yul\":1606:1615   */\n      dup3\n        /* \"#utility.yul\":1597:1604   */\n      dup5\n        /* \"#utility.yul\":1593:1616   */\n      sub\n        /* \"#utility.yul\":1589:1621   */\n      slt\n        /* \"#utility.yul\":1586:1705   */\n      iszero\n      tag_249\n      jumpi\n        /* \"#utility.yul\":1624:1703   */\n      tag_250\n      tag_176\n      jump\t// in\n    tag_250:\n        /* \"#utility.yul\":1586:1705   */\n    tag_249:\n        /* \"#utility.yul\":1744:1745   */\n      0x00\n        /* \"#utility.yul\":1769:1822   */\n      tag_251\n        /* \"#utility.yul\":1814:1821   */\n      dup5\n        /* \"#utility.yul\":1805:1811   */\n      dup3\n        /* \"#utility.yul\":1794:1803   */\n      dup6\n        /* \"#utility.yul\":1790:1812   */\n      add\n        /* \"#utility.yul\":1769:1822   */\n      tag_179\n      jump\t// in\n    tag_251:\n        /* \"#utility.yul\":1759:1822   */\n      swap2\n      pop\n        /* \"#utility.yul\":1715:1832   */\n      pop\n        /* \"#utility.yul\":1510:1839   */\n      swap3\n      swap2\n      pop\n      pop\n      jump\t// out\n        /* \"#utility.yul\":1845:2067   */\n    tag_21:\n        /* \"#utility.yul\":1938:1942   */\n      0x00\n        /* \"#utility.yul\":1976:1978   */\n      0x20\n        /* \"#utility.yul\":1965:1974   */\n      dup3\n        /* \"#utility.yul\":1961:1979   */\n      add\n        /* \"#utility.yul\":1953:1979   */\n      swap1\n      pop\n        /* \"#utility.yul\":1989:2060   */\n      tag_253\n        /* \"#utility.yul\":2057:2058   */\n      0x00\n        /* \"#utility.yul\":2046:2055   */\n      dup4\n        /* \"#utility.yul\":2042:2059   */\n      add\n        /* \"#utility.yul\":2033:2039   */\n      dup5\n        /* \"#utility.yul\":1989:2060   */\n      tag_172\n      jump\t// in\n    tag_253:\n        /* \"#utility.yul\":1845:2067   */\n      swap3\n      swap2\n      pop\n      pop\n      jump\t// out\n        /* \"#utility.yul\":2073:2195   */\n    tag_180:\n        /* \"#utility.yul\":2146:2170   */\n      tag_255\n        /* \"#utility.yul\":2164:2169   */\n      dup2\n        /* \"#utility.yul\":2146:2170   */\n      tag_171\n      jump\t// in\n    tag_255:\n        /* \"#utility.yul\":2139:2144   */\n      dup2\n        /* \"#utility.yul\":2136:2171   */\n      eq\n        /* \"#utility.yul\":2126:2189   */\n      tag_256\n      jumpi\n        /* \"#utility.yul\":2185:2186   */\n      0x00\n        /* \"#utility.yul\":2182:2183   */\n      dup1\n        /* \"#utility.yul\":2175:2187   */\n      revert\n        /* \"#utility.yul\":2126:2189   */\n    tag_256:\n        /* \"#utility.yul\":2073:2195   */\n      pop\n      jump\t// out\n        /* \"#utility.yul\":2201:2340   */\n    tag_181:\n        /* \"#utility.yul\":2247:2252   */\n      0x00\n        /* \"#utility.yul\":2285:2291   */\n      dup2\n        /* \"#utility.yul\":2272:2292   */\n      calldataload\n        /* \"#utility.yul\":2263:2292   */\n      swap1\n      pop\n        /* \"#utility.yul\":2301:2334   */\n      tag_258\n        /* \"#utility.yul\":2328:2333   */\n      dup2\n        /* \"#utility.yul\":2301:2334   */\n      tag_180\n      jump\t// in\n    tag_258:\n        /* \"#utility.yul\":2201:2340   */\n      swap3\n      swap2\n      pop\n      pop\n      jump\t// out\n        /* \"#utility.yul\":2346:2675   */\n    tag_29:\n        /* \"#utility.yul\":2405:2411   */\n      0x00\n        /* \"#utility.yul\":2454:2456   */\n      0x20\n        /* \"#utility.yul\":2442:2451   */\n      dup3\n        /* \"#utility.yul\":2433:2440   */\n      dup5\n        /* \"#utility.yul\":2429:2452   */\n      sub\n        /* \"#utility.yul\":2425:2457   */\n      slt\n        /* \"#utility.yul\":2422:2541   */\n      iszero\n      tag_260\n      jumpi\n        /* \"#utility.yul\":2460:2539   */\n      tag_261\n      tag_176\n      jump\t// in\n    tag_261:\n        /* \"#utility.yul\":2422:2541   */\n    tag_260:\n        /* \"#utility.yul\":2580:2581   */\n      0x00\n        /* \"#utility.yul\":2605:2658   */\n      tag_262\n        /* \"#utility.yul\":2650:2657   */\n      dup5\n        /* \"#utility.yul\":2641:2647   */\n      dup3\n        /* \"#utility.yul\":2630:2639   */\n      dup6\n        /* \"#utility.yul\":2626:2648   */\n      add\n        /* \"#utility.yul\":2605:2658   */\n      tag_181\n      jump\t// in\n    tag_262:\n        /* \"#utility.yul\":2595:2658   */\n      swap2\n      pop\n        /* \"#utility.yul\":2551:2668   */\n      pop\n        /* \"#utility.yul\":2346:2675   */\n      swap3\n      swap2\n      pop\n      pop\n      jump\t// out\n        /* \"#utility.yul\":2681:2771   */\n    tag_182:\n        /* \"#utility.yul\":2715:2722   */\n      0x00\n        /* \"#utility.yul\":2758:2763   */\n      dup2\n        /* \"#utility.yul\":2751:2764   */\n      iszero\n        /* \"#utility.yul\":2744:2765   */\n      iszero\n        /* \"#utility.yul\":2733:2765   */\n      swap1\n      pop\n        /* \"#utility.yul\":2681:2771   */\n      swap2\n      swap1\n      pop\n      jump\t// out\n        /* \"#utility.yul\":2777:2886   */\n    tag_183:\n        /* \"#utility.yul\":2858:2879   */\n      tag_265\n        /* \"#utility.yul\":2873:2878   */\n      dup2\n        /* \"#utility.yul\":2858:2879   */\n      tag_182\n      jump\t// in\n    tag_265:\n        /* \"#utility.yul\":2853:2856   */\n      dup3\n        /* \"#utility.yul\":2846:2880   */\n      mstore\n        /* \"#utility.yul\":2777:2886   */\n      pop\n      pop\n      jump\t// out\n        /* \"#utility.yul\":2892:3102   */\n    tag_32:\n        /* \"#utility.yul\":2979:2983   */\n      0x00\n        /* \"#utility.yul\":3017:3019   */\n      0x20\n        /* \"#utility.yul\":3006:3015   */\n      dup3\n        /* \"#utility.yul\":3002:3020   */\n      add\n        /* \"#utility.yul\":2994:3020   */\n      swap1\n      pop\n        /* \"#utility.yul\":3030:3095   */\n      tag_267\n        /* \"#utility.yul\":3092:3093   */\n      0x00\n        /* \"#utility.yul\":3081:3090   */\n      dup4\n        /* \"#utility.yul\":3077:3094   */\n      add\n        /* \"#utility.yul\":3068:3074   */\n      dup5\n        /* \"#utility.yul\":3030:3095   */\n      tag_183\n      jump\t// in\n    tag_267:\n        /* \"#utility.yul\":2892:3102   */\n      swap3\n      swap2\n      pop\n      pop\n      jump\t// out\n        /* \"#utility.yul\":3108:3206   */\n    tag_184:\n        /* \"#utility.yul\":3159:3165   */\n      0x00\n        /* \"#utility.yul\":3193:3198   */\n      dup2\n        /* \"#utility.yul\":3187:3199   */\n      mload\n        /* \"#utility.yul\":3177:3199   */\n      swap1\n      pop\n        /* \"#utility.yul\":3108:3206   */\n      swap2\n      swap1\n      pop\n      jump\t// out\n        /* \"#utility.yul\":3212:3380   */\n    tag_185:\n        /* \"#utility.yul\":3295:3306   */\n      0x00\n        /* \"#utility.yul\":3329:3335   */\n      dup3\n        /* \"#utility.yul\":3324:3327   */\n      dup3\n        /* \"#utility.yul\":3317:3336   */\n      mstore\n        /* \"#utility.yul\":3369:3373   */\n      0x20\n        /* \"#utility.yul\":3364:3367   */\n      dup3\n        /* \"#utility.yul\":3360:3374   */\n      add\n        /* \"#utility.yul\":3345:3374   */\n      swap1\n      pop\n        /* \"#utility.yul\":3212:3380   */\n      swap3\n      swap2\n      pop\n      pop\n      jump\t// out\n        /* \"#utility.yul\":3386:3632   */\n    tag_186:\n        /* \"#utility.yul\":3467:3468   */\n      0x00\n        /* \"#utility.yul\":3477:3590   */\n    tag_271:\n        /* \"#utility.yul\":3491:3497   */\n      dup4\n        /* \"#utility.yul\":3488:3489   */\n      dup2\n        /* \"#utility.yul\":3485:3498   */\n      lt\n        /* \"#utility.yul\":3477:3590   */\n      iszero\n      tag_273\n      jumpi\n        /* \"#utility.yul\":3576:3577   */\n      dup1\n        /* \"#utility.yul\":3571:3574   */\n      dup3\n        /* \"#utility.yul\":3567:3578   */\n      add\n        /* \"#utility.yul\":3561:3579   */\n      mload\n        /* \"#utility.yul\":3557:3558   */\n      dup2\n        /* \"#utility.yul\":3552:3555   */\n      dup5\n        /* \"#utility.yul\":3548:3559   */\n      add\n        /* \"#utility.yul\":3541:3580   */\n      mstore\n        /* \"#utility.yul\":3513:3515   */\n      0x20\n        /* \"#utility.yul\":3510:3511   */\n      dup2\n        /* \"#utility.yul\":3506:3516   */\n      add\n        /* \"#utility.yul\":3501:3516   */\n      swap1\n      pop\n        /* \"#utility.yul\":3477:3590   */\n      jump(tag_271)\n    tag_273:\n        /* \"#utility.yul\":3624:3625   */\n      0x00\n        /* \"#utility.yul\":3615:3621   */\n      dup5\n        /* \"#utility.yul\":3610:3613   */\n      dup5\n        /* \"#utility.yul\":3606:3622   */\n      add\n        /* \"#utility.yul\":3599:3626   */\n      mstore\n        /* \"#utility.yul\":3448:3632   */\n      pop\n        /* \"#utility.yul\":3386:3632   */\n      pop\n      pop\n      pop\n      jump\t// out\n        /* \"#utility.yul\":3638:3740   */\n    tag_187:\n        /* \"#utility.yul\":3679:3685   */\n      0x00\n        /* \"#utility.yul\":3730:3732   */\n      0x1f\n        /* \"#utility.yul\":3726:3733   */\n      not\n        /* \"#utility.yul\":3721:3723   */\n      0x1f\n        /* \"#utility.yul\":3714:3719   */\n      dup4\n        /* \"#utility.yul\":3710:3724   */\n      add\n        /* \"#utility.yul\":3706:3734   */\n      and\n        /* \"#utility.yul\":3696:3734   */\n      swap1\n      pop\n        /* \"#utility.yul\":3638:3740   */\n      swap2\n      swap1\n      pop\n      jump\t// out\n        /* \"#utility.yul\":3746:4119   */\n    tag_188:\n        /* \"#utility.yul\":3832:3835   */\n      0x00\n        /* \"#utility.yul\":3860:3898   */\n      tag_276\n        /* \"#utility.yul\":3892:3897   */\n      dup3\n        /* \"#utility.yul\":3860:3898   */\n      tag_184\n      jump\t// in\n    tag_276:\n        /* \"#utility.yul\":3914:3984   */\n      tag_277\n        /* \"#utility.yul\":3977:3983   */\n      dup2\n        /* \"#utility.yul\":3972:3975   */\n      dup6\n        /* \"#utility.yul\":3914:3984   */\n      tag_185\n      jump\t// in\n    tag_277:\n        /* \"#utility.yul\":3907:3984   */\n      swap4\n      pop\n        /* \"#utility.yul\":3993:4058   */\n      tag_278\n        /* \"#utility.yul\":4051:4057   */\n      dup2\n        /* \"#utility.yul\":4046:4049   */\n      dup6\n        /* \"#utility.yul\":4039:4043   */\n      0x20\n        /* \"#utility.yul\":4032:4037   */\n      dup7\n        /* \"#utility.yul\":4028:4044   */\n      add\n        /* \"#utility.yul\":3993:4058   */\n      tag_186\n      jump\t// in\n    tag_278:\n        /* \"#utility.yul\":4083:4112   */\n      tag_279\n        /* \"#utility.yul\":4105:4111   */\n      dup2\n        /* \"#utility.yul\":4083:4112   */\n      tag_187\n      jump\t// in\n    tag_279:\n        /* \"#utility.yul\":4078:4081   */\n      dup5\n        /* \"#utility.yul\":4074:4113   */\n      add\n        /* \"#utility.yul\":4067:4113   */\n      swap2\n      pop\n        /* \"#utility.yul\":3836:4119   */\n      pop\n        /* \"#utility.yul\":3746:4119   */\n      swap3\n      swap2\n      pop\n      pop\n      jump\t// out\n        /* \"#utility.yul\":4125:4753   */\n    tag_38:\n        /* \"#utility.yul\":4314:4318   */\n      0x00\n        /* \"#utility.yul\":4352:4355   */\n      0x80\n        /* \"#utility.yul\":4341:4350   */\n      dup3\n        /* \"#utility.yul\":4337:4356   */\n      add\n        /* \"#utility.yul\":4329:4356   */\n      swap1\n      pop\n        /* \"#utility.yul\":4366:4437   */\n      tag_281\n        /* \"#utility.yul\":4434:4435   */\n      0x00\n        /* \"#utility.yul\":4423:4432   */\n      dup4\n        /* \"#utility.yul\":4419:4436   */\n      add\n        /* \"#utility.yul\":4410:4416   */\n      dup8\n        /* \"#utility.yul\":4366:4437   */\n      tag_172\n      jump\t// in\n    tag_281:\n        /* \"#utility.yul\":4447:4519   */\n      tag_282\n        /* \"#utility.yul\":4515:4517   */\n      0x20\n        /* \"#utility.yul\":4504:4513   */\n      dup4\n        /* \"#utility.yul\":4500:4518   */\n      add\n        /* \"#utility.yul\":4491:4497   */\n      dup7\n        /* \"#utility.yul\":4447:4519   */\n      tag_174\n      jump\t// in\n    tag_282:\n        /* \"#utility.yul\":4529:4595   */\n      tag_283\n        /* \"#utility.yul\":4591:4593   */\n      0x40\n        /* \"#utility.yul\":4580:4589   */\n      dup4\n        /* \"#utility.yul\":4576:4594   */\n      add\n        /* \"#utility.yul\":4567:4573   */\n      dup6\n        /* \"#utility.yul\":4529:4595   */\n      tag_183\n      jump\t// in\n    tag_283:\n        /* \"#utility.yul\":4642:4651   */\n      dup2\n        /* \"#utility.yul\":4636:4640   */\n      dup2\n        /* \"#utility.yul\":4632:4652   */\n      sub\n        /* \"#utility.yul\":4627:4629   */\n      0x60\n        /* \"#utility.yul\":4616:4625   */\n      dup4\n        /* \"#utility.yul\":4612:4630   */\n      add\n        /* \"#utility.yul\":4605:4653   */\n      mstore\n        /* \"#utility.yul\":4670:4746   */\n      tag_284\n        /* \"#utility.yul\":4741:4745   */\n      dup2\n        /* \"#utility.yul\":4732:4738   */\n      dup5\n        /* \"#utility.yul\":4670:4746   */\n      tag_188\n      jump\t// in\n    tag_284:\n        /* \"#utility.yul\":4662:4746   */\n      swap1\n      pop\n        /* \"#utility.yul\":4125:4753   */\n      swap6\n      swap5\n      pop\n      pop\n      pop\n      pop\n      pop\n      jump\t// out\n        /* \"#utility.yul\":4759:4876   */\n    tag_189:\n        /* \"#utility.yul\":4868:4869   */\n      0x00\n        /* \"#utility.yul\":4865:4866   */\n      dup1\n        /* \"#utility.yul\":4858:4870   */\n      revert\n        /* \"#utility.yul\":4882:4999   */\n    tag_190:\n        /* \"#utility.yul\":4991:4992   */\n      0x00\n        /* \"#utility.yul\":4988:4989   */\n      dup1\n        /* \"#utility.yul\":4981:4993   */\n      revert\n        /* \"#utility.yul\":5005:5122   */\n    tag_191:\n        /* \"#utility.yul\":5114:5115   */\n      0x00\n        /* \"#utility.yul\":5111:5112   */\n      dup1\n        /* \"#utility.yul\":5104:5116   */\n      revert\n        /* \"#utility.yul\":5141:5693   */\n    tag_192:\n        /* \"#utility.yul\":5198:5206   */\n      0x00\n        /* \"#utility.yul\":5208:5214   */\n      dup1\n        /* \"#utility.yul\":5258:5261   */\n      dup4\n        /* \"#utility.yul\":5251:5255   */\n      0x1f\n        /* \"#utility.yul\":5243:5249   */\n      dup5\n        /* \"#utility.yul\":5239:5256   */\n      add\n        /* \"#utility.yul\":5235:5262   */\n      slt\n        /* \"#utility.yul\":5225:5347   */\n      tag_289\n      jumpi\n        /* \"#utility.yul\":5266:5345   */\n      tag_290\n      tag_189\n      jump\t// in\n    tag_290:\n        /* \"#utility.yul\":5225:5347   */\n    tag_289:\n        /* \"#utility.yul\":5379:5385   */\n      dup3\n        /* \"#utility.yul\":5366:5386   */\n      calldataload\n        /* \"#utility.yul\":5356:5386   */\n      swap1\n      pop\n        /* \"#utility.yul\":5409:5427   */\n      0xffffffffffffffff\n        /* \"#utility.yul\":5401:5407   */\n      dup2\n        /* \"#utility.yul\":5398:5428   */\n      gt\n        /* \"#utility.yul\":5395:5512   */\n      iszero\n      tag_291\n      jumpi\n        /* \"#utility.yul\":5431:5510   */\n      tag_292\n      tag_190\n      jump\t// in\n    tag_292:\n        /* \"#utility.yul\":5395:5512   */\n    tag_291:\n        /* \"#utility.yul\":5545:5549   */\n      0x20\n        /* \"#utility.yul\":5537:5543   */\n      dup4\n        /* \"#utility.yul\":5533:5550   */\n      add\n        /* \"#utility.yul\":5521:5550   */\n      swap2\n      pop\n        /* \"#utility.yul\":5599:5602   */\n      dup4\n        /* \"#utility.yul\":5591:5595   */\n      0x01\n        /* \"#utility.yul\":5583:5589   */\n      dup3\n        /* \"#utility.yul\":5579:5596   */\n      mul\n        /* \"#utility.yul\":5569:5577   */\n      dup4\n        /* \"#utility.yul\":5565:5597   */\n      add\n        /* \"#utility.yul\":5562:5603   */\n      gt\n        /* \"#utility.yul\":5559:5687   */\n      iszero\n      tag_293\n      jumpi\n        /* \"#utility.yul\":5606:5685   */\n      tag_294\n      tag_191\n      jump\t// in\n    tag_294:\n        /* \"#utility.yul\":5559:5687   */\n    tag_293:\n        /* \"#utility.yul\":5141:5693   */\n      swap3\n      pop\n      swap3\n      swap1\n      pop\n      jump\t// out\n        /* \"#utility.yul\":5699:6516   */\n    tag_46:\n        /* \"#utility.yul\":5787:5793   */\n      0x00\n        /* \"#utility.yul\":5795:5801   */\n      dup1\n        /* \"#utility.yul\":5803:5809   */\n      0x00\n        /* \"#utility.yul\":5811:5817   */\n      dup1\n        /* \"#utility.yul\":5860:5862   */\n      0x60\n        /* \"#utility.yul\":5848:5857   */\n      dup6\n        /* \"#utility.yul\":5839:5846   */\n      dup8\n        /* \"#utility.yul\":5835:5858   */\n      sub\n        /* \"#utility.yul\":5831:5863   */\n      slt\n        /* \"#utility.yul\":5828:5947   */\n      iszero\n      tag_296\n      jumpi\n        /* \"#utility.yul\":5866:5945   */\n      tag_297\n      tag_176\n      jump\t// in\n    tag_297:\n        /* \"#utility.yul\":5828:5947   */\n    tag_296:\n        /* \"#utility.yul\":5986:5987   */\n      0x00\n        /* \"#utility.yul\":6011:6064   */\n      tag_298\n        /* \"#utility.yul\":6056:6063   */\n      dup8\n        /* \"#utility.yul\":6047:6053   */\n      dup3\n        /* \"#utility.yul\":6036:6045   */\n      dup9\n        /* \"#utility.yul\":6032:6054   */\n      add\n        /* \"#utility.yul\":6011:6064   */\n      tag_181\n      jump\t// in\n    tag_298:\n        /* \"#utility.yul\":6001:6064   */\n      swap5\n      pop\n        /* \"#utility.yul\":5957:6074   */\n      pop\n        /* \"#utility.yul\":6113:6115   */\n      0x20\n        /* \"#utility.yul\":6139:6192   */\n      tag_299\n        /* \"#utility.yul\":6184:6191   */\n      dup8\n        /* \"#utility.yul\":6175:6181   */\n      dup3\n        /* \"#utility.yul\":6164:6173   */\n      dup9\n        /* \"#utility.yul\":6160:6182   */\n      add\n        /* \"#utility.yul\":6139:6192   */\n      tag_179\n      jump\t// in\n    tag_299:\n        /* \"#utility.yul\":6129:6192   */\n      swap4\n      pop\n        /* \"#utility.yul\":6084:6202   */\n      pop\n        /* \"#utility.yul\":6269:6271   */\n      0x40\n        /* \"#utility.yul\":6258:6267   */\n      dup6\n        /* \"#utility.yul\":6254:6272   */\n      add\n        /* \"#utility.yul\":6241:6273   */\n      calldataload\n        /* \"#utility.yul\":6300:6318   */\n      0xffffffffffffffff\n        /* \"#utility.yul\":6292:6298   */\n      dup2\n        /* \"#utility.yul\":6289:6319   */\n      gt\n        /* \"#utility.yul\":6286:6403   */\n      iszero\n      tag_300\n      jumpi\n        /* \"#utility.yul\":6322:6401   */\n      tag_301\n      tag_177\n      jump\t// in\n    tag_301:\n        /* \"#utility.yul\":6286:6403   */\n    tag_300:\n        /* \"#utility.yul\":6435:6499   */\n      tag_302\n        /* \"#utility.yul\":6491:6498   */\n      dup8\n        /* \"#utility.yul\":6482:6488   */\n      dup3\n        /* \"#utility.yul\":6471:6480   */\n      dup9\n        /* \"#utility.yul\":6467:6489   */\n      add\n        /* \"#utility.yul\":6435:6499   */\n      tag_192\n      jump\t// in\n    tag_302:\n        /* \"#utility.yul\":6417:6499   */\n      swap3\n      pop\n      swap3\n      pop\n        /* \"#utility.yul\":6212:6509   */\n      pop\n        /* \"#utility.yul\":5699:6516   */\n      swap3\n      swap6\n      swap2\n      swap5\n      pop\n      swap3\n      pop\n      jump\t// out\n        /* \"#utility.yul\":6522:6691   */\n    tag_193:\n        /* \"#utility.yul\":6606:6617   */\n      0x00\n        /* \"#utility.yul\":6640:6646   */\n      dup3\n        /* \"#utility.yul\":6635:6638   */\n      dup3\n        /* \"#utility.yul\":6628:6647   */\n      mstore\n        /* \"#utility.yul\":6680:6684   */\n      0x20\n        /* \"#utility.yul\":6675:6678   */\n      dup3\n        /* \"#utility.yul\":6671:6685   */\n      add\n        /* \"#utility.yul\":6656:6685   */\n      swap1\n      pop\n        /* \"#utility.yul\":6522:6691   */\n      swap3\n      swap2\n      pop\n      pop\n      jump\t// out\n        /* \"#utility.yul\":6697:6878   */\n    tag_194:\n        /* \"#utility.yul\":6837:6870   */\n      0x5472616e73616374696f6e20416c726561647920417070726f7665642e2e2e00\n        /* \"#utility.yul\":6833:6834   */\n      0x00\n        /* \"#utility.yul\":6825:6831   */\n      dup3\n        /* \"#utility.yul\":6821:6835   */\n      add\n        /* \"#utility.yul\":6814:6871   */\n      mstore\n        /* \"#utility.yul\":6697:6878   */\n      pop\n      jump\t// out\n        /* \"#utility.yul\":6884:7250   */\n    tag_195:\n        /* \"#utility.yul\":7026:7029   */\n      0x00\n        /* \"#utility.yul\":7047:7114   */\n      tag_306\n        /* \"#utility.yul\":7111:7113   */\n      0x1f\n        /* \"#utility.yul\":7106:7109   */\n      dup4\n        /* \"#utility.yul\":7047:7114   */\n      tag_193\n      jump\t// in\n    tag_306:\n        /* \"#utility.yul\":7040:7114   */\n      swap2\n      pop\n        /* \"#utility.yul\":7123:7216   */\n      tag_307\n        /* \"#utility.yul\":7212:7215   */\n      dup3\n        /* \"#utility.yul\":7123:7216   */\n      tag_194\n      jump\t// in\n    tag_307:\n        /* \"#utility.yul\":7241:7243   */\n      0x20\n        /* \"#utility.yul\":7236:7239   */\n      dup3\n        /* \"#utility.yul\":7232:7244   */\n      add\n        /* \"#utility.yul\":7225:7244   */\n      swap1\n      pop\n        /* \"#utility.yul\":6884:7250   */\n      swap2\n      swap1\n      pop\n      jump\t// out\n        /* \"#utility.yul\":7256:7675   */\n    tag_57:\n        /* \"#utility.yul\":7422:7426   */\n      0x00\n        /* \"#utility.yul\":7460:7462   */\n      0x20\n        /* \"#utility.yul\":7449:7458   */\n      dup3\n        /* \"#utility.yul\":7445:7463   */\n      add\n        /* \"#utility.yul\":7437:7463   */\n      swap1\n      pop\n        /* \"#utility.yul\":7509:7518   */\n      dup2\n        /* \"#utility.yul\":7503:7507   */\n      dup2\n        /* \"#utility.yul\":7499:7519   */\n      sub\n        /* \"#utility.yul\":7495:7496   */\n      0x00\n        /* \"#utility.yul\":7484:7493   */\n      dup4\n        /* \"#utility.yul\":7480:7497   */\n      add\n        /* \"#utility.yul\":7473:7520   */\n      mstore\n        /* \"#utility.yul\":7537:7668   */\n      tag_309\n        /* \"#utility.yul\":7663:7667   */\n      dup2\n        /* \"#utility.yul\":7537:7668   */\n      tag_195\n      jump\t// in\n    tag_309:\n        /* \"#utility.yul\":7529:7668   */\n      swap1\n      pop\n        /* \"#utility.yul\":7256:7675   */\n      swap2\n      swap1\n      pop\n      jump\t// out\n        /* \"#utility.yul\":7681:7861   */\n    tag_196:\n        /* \"#utility.yul\":7729:7806   */\n      0x4e487b7100000000000000000000000000000000000000000000000000000000\n        /* \"#utility.yul\":7726:7727   */\n      0x00\n        /* \"#utility.yul\":7719:7807   */\n      mstore\n        /* \"#utility.yul\":7826:7830   */\n      0x11\n        /* \"#utility.yul\":7823:7824   */\n      0x04\n        /* \"#utility.yul\":7816:7831   */\n      mstore\n        /* \"#utility.yul\":7850:7854   */\n      0x24\n        /* \"#utility.yul\":7847:7848   */\n      0x00\n        /* \"#utility.yul\":7840:7855   */\n      revert\n        /* \"#utility.yul\":7867:8061   */\n    tag_60:\n        /* \"#utility.yul\":7907:7911   */\n      0x00\n        /* \"#utility.yul\":7927:7947   */\n      tag_312\n        /* \"#utility.yul\":7945:7946   */\n      dup3\n        /* \"#utility.yul\":7927:7947   */\n      tag_173\n      jump\t// in\n    tag_312:\n        /* \"#utility.yul\":7922:7947   */\n      swap2\n      pop\n        /* \"#utility.yul\":7961:7981   */\n      tag_313\n        /* \"#utility.yul\":7979:7980   */\n      dup4\n        /* \"#utility.yul\":7961:7981   */\n      tag_173\n      jump\t// in\n    tag_313:\n        /* \"#utility.yul\":7956:7981   */\n      swap3\n      pop\n        /* \"#utility.yul\":8005:8006   */\n      dup3\n        /* \"#utility.yul\":8002:8003   */\n      dup3\n        /* \"#utility.yul\":7998:8007   */\n      sub\n        /* \"#utility.yul\":7990:8007   */\n      swap1\n      pop\n        /* \"#utility.yul\":8029:8030   */\n      dup2\n        /* \"#utility.yul\":8023:8027   */\n      dup2\n        /* \"#utility.yul\":8020:8031   */\n      gt\n        /* \"#utility.yul\":8017:8054   */\n      iszero\n      tag_314\n      jumpi\n        /* \"#utility.yul\":8034:8052   */\n      tag_315\n      tag_196\n      jump\t// in\n    tag_315:\n        /* \"#utility.yul\":8017:8054   */\n    tag_314:\n        /* \"#utility.yul\":7867:8061   */\n      swap3\n      swap2\n      pop\n      pop\n      jump\t// out\n        /* \"#utility.yul\":8067:8246   */\n    tag_197:\n        /* \"#utility.yul\":8207:8238   */\n      0x5472616e73616374696f6e20446f6573206e6f742045786973742e2e2e000000\n        /* \"#utility.yul\":8203:8204   */\n      0x00\n        /* \"#utility.yul\":8195:8201   */\n      dup3\n        /* \"#utility.yul\":8191:8205   */\n      add\n        /* \"#utility.yul\":8184:8239   */\n      mstore\n        /* \"#utility.yul\":8067:8246   */\n      pop\n      jump\t// out\n        /* \"#utility.yul\":8252:8618   */\n    tag_198:\n        /* \"#utility.yul\":8394:8397   */\n      0x00\n        /* \"#utility.yul\":8415:8482   */\n      tag_318\n        /* \"#utility.yul\":8479:8481   */\n      0x1d\n        /* \"#utility.yul\":8474:8477   */\n      dup4\n        /* \"#utility.yul\":8415:8482   */\n      tag_193\n      jump\t// in\n    tag_318:\n        /* \"#utility.yul\":8408:8482   */\n      swap2\n      pop\n        /* \"#utility.yul\":8491:8584   */\n      tag_319\n        /* \"#utility.yul\":8580:8583   */\n      dup3\n        /* \"#utility.yul\":8491:8584   */\n      tag_197\n      jump\t// in\n    tag_319:\n        /* \"#utility.yul\":8609:8611   */\n      0x20\n        /* \"#utility.yul\":8604:8607   */\n      dup3\n        /* \"#utility.yul\":8600:8612   */\n      add\n        /* \"#utility.yul\":8593:8612   */\n      swap1\n      pop\n        /* \"#utility.yul\":8252:8618   */\n      swap2\n      swap1\n      pop\n      jump\t// out\n        /* \"#utility.yul\":8624:9043   */\n    tag_63:\n        /* \"#utility.yul\":8790:8794   */\n      0x00\n        /* \"#utility.yul\":8828:8830   */\n      0x20\n        /* \"#utility.yul\":8817:8826   */\n      dup3\n        /* \"#utility.yul\":8813:8831   */\n      add\n        /* \"#utility.yul\":8805:8831   */\n      swap1\n      pop\n        /* \"#utility.yul\":8877:8886   */\n      dup2\n        /* \"#utility.yul\":8871:8875   */\n      dup2\n        /* \"#utility.yul\":8867:8887   */\n      sub\n        /* \"#utility.yul\":8863:8864   */\n      0x00\n        /* \"#utility.yul\":8852:8861   */\n      dup4\n        /* \"#utility.yul\":8848:8865   */\n      add\n        /* \"#utility.yul\":8841:8888   */\n      mstore\n        /* \"#utility.yul\":8905:9036   */\n      tag_321\n        /* \"#utility.yul\":9031:9035   */\n      dup2\n        /* \"#utility.yul\":8905:9036   */\n      tag_198\n      jump\t// in\n    tag_321:\n        /* \"#utility.yul\":8897:9036   */\n      swap1\n      pop\n        /* \"#utility.yul\":8624:9043   */\n      swap2\n      swap1\n      pop\n      jump\t// out\n        /* \"#utility.yul\":9049:9216   */\n    tag_199:\n        /* \"#utility.yul\":9189:9208   */\n      0x4e6f7420746865204f776e65722e2e2e2e000000000000000000000000000000\n        /* \"#utility.yul\":9185:9186   */\n      0x00\n        /* \"#utility.yul\":9177:9183   */\n      dup3\n        /* \"#utility.yul\":9173:9187   */\n      add\n        /* \"#utility.yul\":9166:9209   */\n      mstore\n        /* \"#utility.yul\":9049:9216   */\n      pop\n      jump\t// out\n        /* \"#utility.yul\":9222:9588   */\n    tag_200:\n        /* \"#utility.yul\":9364:9367   */\n      0x00\n        /* \"#utility.yul\":9385:9452   */\n      tag_324\n        /* \"#utility.yul\":9449:9451   */\n      0x11\n        /* \"#utility.yul\":9444:9447   */\n      dup4\n        /* \"#utility.yul\":9385:9452   */\n      tag_193\n      jump\t// in\n    tag_324:\n        /* \"#utility.yul\":9378:9452   */\n      swap2\n      pop\n        /* \"#utility.yul\":9461:9554   */\n      tag_325\n        /* \"#utility.yul\":9550:9553   */\n      dup3\n        /* \"#utility.yul\":9461:9554   */\n      tag_199\n      jump\t// in\n    tag_325:\n        /* \"#utility.yul\":9579:9581   */\n      0x20\n        /* \"#utility.yul\":9574:9577   */\n      dup3\n        /* \"#utility.yul\":9570:9582   */\n      add\n        /* \"#utility.yul\":9563:9582   */\n      swap1\n      pop\n        /* \"#utility.yul\":9222:9588   */\n      swap2\n      swap1\n      pop\n      jump\t// out\n        /* \"#utility.yul\":9594:10013   */\n    tag_67:\n        /* \"#utility.yul\":9760:9764   */\n      0x00\n        /* \"#utility.yul\":9798:9800   */\n      0x20\n        /* \"#utility.yul\":9787:9796   */\n      dup3\n        /* \"#utility.yul\":9783:9801   */\n      add\n        /* \"#utility.yul\":9775:9801   */\n      swap1\n      pop\n        /* \"#utility.yul\":9847:9856   */\n      dup2\n        /* \"#utility.yul\":9841:9845   */\n      dup2\n        /* \"#utility.yul\":9837:9857   */\n      sub\n        /* \"#utility.yul\":9833:9834   */\n      0x00\n        /* \"#utility.yul\":9822:9831   */\n      dup4\n        /* \"#utility.yul\":9818:9835   */\n      add\n        /* \"#utility.yul\":9811:9858   */\n      mstore\n        /* \"#utility.yul\":9875:10006   */\n      tag_327\n        /* \"#utility.yul\":10001:10005   */\n      dup2\n        /* \"#utility.yul\":9875:10006   */\n      tag_200\n      jump\t// in\n    tag_327:\n        /* \"#utility.yul\":9867:10006   */\n      swap1\n      pop\n        /* \"#utility.yul\":9594:10013   */\n      swap2\n      swap1\n      pop\n      jump\t// out\n        /* \"#utility.yul\":10019:10199   */\n    tag_71:\n        /* \"#utility.yul\":10067:10144   */\n      0x4e487b7100000000000000000000000000000000000000000000000000000000\n        /* \"#utility.yul\":10064:10065   */\n      0x00\n        /* \"#utility.yul\":10057:10145   */\n      mstore\n        /* \"#utility.yul\":10164:10168   */\n      0x32\n        /* \"#utility.yul\":10161:10162   */\n      0x04\n        /* \"#utility.yul\":10154:10169   */\n      mstore\n        /* \"#utility.yul\":10188:10192   */\n      0x24\n        /* \"#utility.yul\":10185:10186   */\n      0x00\n        /* \"#utility.yul\":10178:10193   */\n      revert\n        /* \"#utility.yul\":10205:10385   */\n    tag_201:\n        /* \"#utility.yul\":10253:10330   */\n      0x4e487b7100000000000000000000000000000000000000000000000000000000\n        /* \"#utility.yul\":10250:10251   */\n      0x00\n        /* \"#utility.yul\":10243:10331   */\n      mstore\n        /* \"#utility.yul\":10350:10354   */\n      0x22\n        /* \"#utility.yul\":10347:10348   */\n      0x04\n        /* \"#utility.yul\":10340:10355   */\n      mstore\n        /* \"#utility.yul\":10374:10378   */\n      0x24\n        /* \"#utility.yul\":10371:10372   */\n      0x00\n        /* \"#utility.yul\":10364:10379   */\n      revert\n        /* \"#utility.yul\":10391:10711   */\n    tag_74:\n        /* \"#utility.yul\":10435:10441   */\n      0x00\n        /* \"#utility.yul\":10472:10473   */\n      0x02\n        /* \"#utility.yul\":10466:10470   */\n      dup3\n        /* \"#utility.yul\":10462:10474   */\n      div\n        /* \"#utility.yul\":10452:10474   */\n      swap1\n      pop\n        /* \"#utility.yul\":10519:10520   */\n      0x01\n        /* \"#utility.yul\":10513:10517   */\n      dup3\n        /* \"#utility.yul\":10509:10521   */\n      and\n        /* \"#utility.yul\":10540:10558   */\n      dup1\n        /* \"#utility.yul\":10530:10611   */\n      tag_331\n      jumpi\n        /* \"#utility.yul\":10596:10600   */\n      0x7f\n        /* \"#utility.yul\":10588:10594   */\n      dup3\n        /* \"#utility.yul\":10584:10601   */\n      and\n        /* \"#utility.yul\":10574:10601   */\n      swap2\n      pop\n        /* \"#utility.yul\":10530:10611   */\n    tag_331:\n        /* \"#utility.yul\":10658:10660   */\n      0x20\n        /* \"#utility.yul\":10650:10656   */\n      dup3\n        /* \"#utility.yul\":10647:10661   */\n      lt\n        /* \"#utility.yul\":10627:10645   */\n      dup2\n        /* \"#utility.yul\":10624:10662   */\n      sub\n        /* \"#utility.yul\":10621:10705   */\n      tag_332\n      jumpi\n        /* \"#utility.yul\":10677:10695   */\n      tag_333\n      tag_201\n      jump\t// in\n    tag_333:\n        /* \"#utility.yul\":10621:10705   */\n    tag_332:\n        /* \"#utility.yul\":10442:10711   */\n      pop\n        /* \"#utility.yul\":10391:10711   */\n      swap2\n      swap1\n      pop\n      jump\t// out\n        /* \"#utility.yul\":10717:10895   */\n    tag_202:\n        /* \"#utility.yul\":10857:10887   */\n      0x5472616e73616374696f6e20416c726561647920457865637574656400000000\n        /* \"#utility.yul\":10853:10854   */\n      0x00\n        /* \"#utility.yul\":10845:10851   */\n      dup3\n        /* \"#utility.yul\":10841:10855   */\n      add\n        /* \"#utility.yul\":10834:10888   */\n      mstore\n        /* \"#utility.yul\":10717:10895   */\n      pop\n      jump\t// out\n        /* \"#utility.yul\":10901:11267   */\n    tag_203:\n        /* \"#utility.yul\":11043:11046   */\n      0x00\n        /* \"#utility.yul\":11064:11131   */\n      tag_336\n        /* \"#utility.yul\":11128:11130   */\n      0x1c\n        /* \"#utility.yul\":11123:11126   */\n      dup4\n        /* \"#utility.yul\":11064:11131   */\n      tag_193\n      jump\t// in\n    tag_336:\n        /* \"#utility.yul\":11057:11131   */\n      swap2\n      pop\n        /* \"#utility.yul\":11140:11233   */\n      tag_337\n        /* \"#utility.yul\":11229:11232   */\n      dup3\n        /* \"#utility.yul\":11140:11233   */\n      tag_202\n      jump\t// in\n    tag_337:\n        /* \"#utility.yul\":11258:11260   */\n      0x20\n        /* \"#utility.yul\":11253:11256   */\n      dup3\n        /* \"#utility.yul\":11249:11261   */\n      add\n        /* \"#utility.yul\":11242:11261   */\n      swap1\n      pop\n        /* \"#utility.yul\":10901:11267   */\n      swap2\n      swap1\n      pop\n      jump\t// out\n        /* \"#utility.yul\":11273:11692   */\n    tag_81:\n        /* \"#utility.yul\":11439:11443   */\n      0x00\n        /* \"#utility.yul\":11477:11479   */\n      0x20\n        /* \"#utility.yul\":11466:11475   */\n      dup3\n        /* \"#utility.yul\":11462:11480   */\n      add\n        /* \"#utility.yul\":11454:11480   */\n      swap1\n      pop\n        /* \"#utility.yul\":11526:11535   */\n      dup2\n        /* \"#utility.yul\":11520:11524   */\n      dup2\n        /* \"#utility.yul\":11516:11536   */\n      sub\n        /* \"#utility.yul\":11512:11513   */\n      0x00\n        /* \"#utility.yul\":11501:11510   */\n      dup4\n        /* \"#utility.yul\":11497:11514   */\n      add\n        /* \"#utility.yul\":11490:11537   */\n      mstore\n        /* \"#utility.yul\":11554:11685   */\n      tag_339\n        /* \"#utility.yul\":11680:11684   */\n      dup2\n        /* \"#utility.yul\":11554:11685   */\n      tag_203\n      jump\t// in\n    tag_339:\n        /* \"#utility.yul\":11546:11685   */\n      swap1\n      pop\n        /* \"#utility.yul\":11273:11692   */\n      swap2\n      swap1\n      pop\n      jump\t// out\n        /* \"#utility.yul\":11698:12030   */\n    tag_84:\n        /* \"#utility.yul\":11819:11823   */\n      0x00\n        /* \"#utility.yul\":11857:11859   */\n      0x40\n        /* \"#utility.yul\":11846:11855   */\n      dup3\n        /* \"#utility.yul\":11842:11860   */\n      add\n        /* \"#utility.yul\":11834:11860   */\n      swap1\n      pop\n        /* \"#utility.yul\":11870:11941   */\n      tag_341\n        /* \"#utility.yul\":11938:11939   */\n      0x00\n        /* \"#utility.yul\":11927:11936   */\n      dup4\n        /* \"#utility.yul\":11923:11940   */\n      add\n        /* \"#utility.yul\":11914:11920   */\n      dup6\n        /* \"#utility.yul\":11870:11941   */\n      tag_174\n      jump\t// in\n    tag_341:\n        /* \"#utility.yul\":11951:12023   */\n      tag_342\n        /* \"#utility.yul\":12019:12021   */\n      0x20\n        /* \"#utility.yul\":12008:12017   */\n      dup4\n        /* \"#utility.yul\":12004:12022   */\n      add\n        /* \"#utility.yul\":11995:12001   */\n      dup5\n        /* \"#utility.yul\":11951:12023   */\n      tag_172\n      jump\t// in\n    tag_342:\n        /* \"#utility.yul\":11698:12030   */\n      swap4\n      swap3\n      pop\n      pop\n      pop\n      jump\t// out\n        /* \"#utility.yul\":12036:12213   */\n    tag_204:\n        /* \"#utility.yul\":12176:12205   */\n      0x5472616e73616374696f6e204e6f7420417070726f7665642e2e2e0000000000\n        /* \"#utility.yul\":12172:12173   */\n      0x00\n        /* \"#utility.yul\":12164:12170   */\n      dup3\n        /* \"#utility.yul\":12160:12174   */\n      add\n        /* \"#utility.yul\":12153:12206   */\n      mstore\n        /* \"#utility.yul\":12036:12213   */\n      pop\n      jump\t// out\n        /* \"#utility.yul\":12219:12585   */\n    tag_205:\n        /* \"#utility.yul\":12361:12364   */\n      0x00\n        /* \"#utility.yul\":12382:12449   */\n      tag_345\n        /* \"#utility.yul\":12446:12448   */\n      0x1b\n        /* \"#utility.yul\":12441:12444   */\n      dup4\n        /* \"#utility.yul\":12382:12449   */\n      tag_193\n      jump\t// in\n    tag_345:\n        /* \"#utility.yul\":12375:12449   */\n      swap2\n      pop\n        /* \"#utility.yul\":12458:12551   */\n      tag_346\n        /* \"#utility.yul\":12547:12550   */\n      dup3\n        /* \"#utility.yul\":12458:12551   */\n      tag_204\n      jump\t// in\n    tag_346:\n        /* \"#utility.yul\":12576:12578   */\n      0x20\n        /* \"#utility.yul\":12571:12574   */\n      dup3\n        /* \"#utility.yul\":12567:12579   */\n      add\n        /* \"#utility.yul\":12560:12579   */\n      swap1\n      pop\n        /* \"#utility.yul\":12219:12585   */\n      swap2\n      swap1\n      pop\n      jump\t// out\n        /* \"#utility.yul\":12591:13010   */\n    tag_95:\n        /* \"#utility.yul\":12757:12761   */\n      0x00\n        /* \"#utility.yul\":12795:12797   */\n      0x20\n        /* \"#utility.yul\":12784:12793   */\n      dup3\n        /* \"#utility.yul\":12780:12798   */\n      add\n        /* \"#utility.yul\":12772:12798   */\n      swap1\n      pop\n        /* \"#utility.yul\":12844:12853   */\n      dup2\n        /* \"#utility.yul\":12838:12842   */\n      dup2\n        /* \"#utility.yul\":12834:12854   */\n      sub\n        /* \"#utility.yul\":12830:12831   */\n      0x00\n        /* \"#utility.yul\":12819:12828   */\n      dup4\n        /* \"#utility.yul\":12815:12832   */\n      add\n        /* \"#utility.yul\":12808:12855   */\n      mstore\n        /* \"#utility.yul\":12872:13003   */\n      tag_348\n        /* \"#utility.yul\":12998:13002   */\n      dup2\n        /* \"#utility.yul\":12872:13003   */\n      tag_205\n      jump\t// in\n    tag_348:\n        /* \"#utility.yul\":12864:13003   */\n      swap1\n      pop\n        /* \"#utility.yul\":12591:13010   */\n      swap2\n      swap1\n      pop\n      jump\t// out\n        /* \"#utility.yul\":13016:13196   */\n    tag_206:\n        /* \"#utility.yul\":13064:13141   */\n      0x4e487b7100000000000000000000000000000000000000000000000000000000\n        /* \"#utility.yul\":13061:13062   */\n      0x00\n        /* \"#utility.yul\":13054:13142   */\n      mstore\n        /* \"#utility.yul\":13161:13165   */\n      0x41\n        /* \"#utility.yul\":13158:13159   */\n      0x04\n        /* \"#utility.yul\":13151:13166   */\n      mstore\n        /* \"#utility.yul\":13185:13189   */\n      0x24\n        /* \"#utility.yul\":13182:13183   */\n      0x00\n        /* \"#utility.yul\":13175:13190   */\n      revert\n        /* \"#utility.yul\":13202:13342   */\n    tag_207:\n        /* \"#utility.yul\":13250:13254   */\n      0x00\n        /* \"#utility.yul\":13273:13276   */\n      dup2\n        /* \"#utility.yul\":13265:13276   */\n      swap1\n      pop\n        /* \"#utility.yul\":13296:13299   */\n      dup2\n        /* \"#utility.yul\":13293:13294   */\n      0x00\n        /* \"#utility.yul\":13286:13300   */\n      mstore\n        /* \"#utility.yul\":13330:13334   */\n      0x20\n        /* \"#utility.yul\":13327:13328   */\n      0x00\n        /* \"#utility.yul\":13317:13335   */\n      keccak256\n        /* \"#utility.yul\":13309:13335   */\n      swap1\n      pop\n        /* \"#utility.yul\":13202:13342   */\n      swap2\n      swap1\n      pop\n      jump\t// out\n        /* \"#utility.yul\":13348:13441   */\n    tag_208:\n        /* \"#utility.yul\":13385:13391   */\n      0x00\n        /* \"#utility.yul\":13432:13434   */\n      0x20\n        /* \"#utility.yul\":13427:13429   */\n      0x1f\n        /* \"#utility.yul\":13420:13425   */\n      dup4\n        /* \"#utility.yul\":13416:13430   */\n      add\n        /* \"#utility.yul\":13412:13435   */\n      div\n        /* \"#utility.yul\":13402:13435   */\n      swap1\n      pop\n        /* \"#utility.yul\":13348:13441   */\n      swap2\n      swap1\n      pop\n      jump\t// out\n        /* \"#utility.yul\":13447:13554   */\n    tag_209:\n        /* \"#utility.yul\":13491:13499   */\n      0x00\n        /* \"#utility.yul\":13541:13546   */\n      dup3\n        /* \"#utility.yul\":13535:13539   */\n      dup3\n        /* \"#utility.yul\":13531:13547   */\n      shl\n        /* \"#utility.yul\":13510:13547   */\n      swap1\n      pop\n        /* \"#utility.yul\":13447:13554   */\n      swap3\n      swap2\n      pop\n      pop\n      jump\t// out\n        /* \"#utility.yul\":13560:13953   */\n    tag_210:\n        /* \"#utility.yul\":13629:13635   */\n      0x00\n        /* \"#utility.yul\":13679:13680   */\n      0x08\n        /* \"#utility.yul\":13667:13677   */\n      dup4\n        /* \"#utility.yul\":13663:13681   */\n      mul\n        /* \"#utility.yul\":13702:13799   */\n      tag_354\n        /* \"#utility.yul\":13732:13798   */\n      0xffffffffffffffffffffffffffffffffffffffffffffffffffffffffffffffff\n        /* \"#utility.yul\":13721:13730   */\n      dup3\n        /* \"#utility.yul\":13702:13799   */\n      tag_209\n      jump\t// in\n    tag_354:\n        /* \"#utility.yul\":13820:13859   */\n      tag_355\n        /* \"#utility.yul\":13850:13858   */\n      dup7\n        /* \"#utility.yul\":13839:13848   */\n      dup4\n        /* \"#utility.yul\":13820:13859   */\n      tag_209\n      jump\t// in\n    tag_355:\n        /* \"#utility.yul\":13808:13859   */\n      swap6\n      pop\n        /* \"#utility.yul\":13892:13896   */\n      dup1\n        /* \"#utility.yul\":13888:13897   */\n      not\n        /* \"#utility.yul\":13881:13886   */\n      dup5\n        /* \"#utility.yul\":13877:13898   */\n      and\n        /* \"#utility.yul\":13868:13898   */\n      swap4\n      pop\n        /* \"#utility.yul\":13941:13945   */\n      dup1\n        /* \"#utility.yul\":13931:13939   */\n      dup7\n        /* \"#utility.yul\":13927:13946   */\n      and\n        /* \"#utility.yul\":13920:13925   */\n      dup5\n        /* \"#utility.yul\":13917:13947   */\n      or\n        /* \"#utility.yul\":13907:13947   */\n      swap3\n      pop\n        /* \"#utility.yul\":13636:13953   */\n      pop\n      pop\n        /* \"#utility.yul\":13560:13953   */\n      swap4\n      swap3\n      pop\n      pop\n      pop\n      jump\t// out\n        /* \"#utility.yul\":13959:14019   */\n    tag_211:\n        /* \"#utility.yul\":13987:13990   */\n      0x00\n        /* \"#utility.yul\":14008:14013   */\n      dup2\n        /* \"#utility.yul\":14001:14013   */\n      swap1\n      pop\n        /* \"#utility.yul\":13959:14019   */\n      swap2\n      swap1\n      pop\n      jump\t// out\n        /* \"#utility.yul\":14025:14167   */\n    tag_212:\n        /* \"#utility.yul\":14075:14084   */\n      0x00\n        /* \"#utility.yul\":14108:14161   */\n      tag_358\n        /* \"#utility.yul\":14126:14160   */\n      tag_359\n        /* \"#utility.yul\":14135:14159   */\n      tag_360\n        /* \"#utility.yul\":14153:14158   */\n      dup5\n        /* \"#utility.yul\":14135:14159   */\n      tag_173\n      jump\t// in\n    tag_360:\n        /* \"#utility.yul\":14126:14160   */\n      tag_211\n      jump\t// in\n    tag_359:\n        /* \"#utility.yul\":14108:14161   */\n      tag_173\n      jump\t// in\n    tag_358:\n        /* \"#utility.yul\":14095:14161   */\n      swap1\n      pop\n        /* \"#utility.yul\":14025:14167   */\n      swap2\n      swap1\n      pop\n      jump\t// out\n        /* \"#utility.yul\":14173:14248   */\n    tag_213:\n        /* \"#utility.yul\":14216:14219   */\n      0x00\n        /* \"#utility.yul\":14237:14242   */\n      dup2\n        /* \"#utility.yul\":14230:14242   */\n      swap1\n      pop\n        /* \"#utility.yul\":14173:14248   */\n      swap2\n      swap1\n      pop\n      jump\t// out\n        /* \"#utility.yul\":14254:14523   */\n    tag_214:\n        /* \"#utility.yul\":14364:14403   */\n      tag_363\n        /* \"#utility.yul\":14395:14402   */\n      dup4\n        /* \"#utility.yul\":14364:14403   */\n      tag_212\n      jump\t// in\n    tag_363:\n        /* \"#utility.yul\":14425:14516   */\n      tag_364\n        /* \"#utility.yul\":14474:14515   */\n      tag_365\n        /* \"#utility.yul\":14498:14514   */\n      dup3\n        /* \"#utility.yul\":14474:14515   */\n      tag_213\n      jump\t// in\n    tag_365:\n        /* \"#utility.yul\":14466:14472   */\n      dup5\n        /* \"#utility.yul\":14459:14463   */\n      dup5\n        /* \"#utility.yul\":14453:14464   */\n      sload\n        /* \"#utility.yul\":14425:14516   */\n      tag_210\n      jump\t// in\n    tag_364:\n        /* \"#utility.yul\":14419:14423   */\n      dup3\n        /* \"#utility.yul\":14412:14517   */\n      sstore\n        /* \"#utility.yul\":14330:14523   */\n      pop\n        /* \"#utility.yul\":14254:14523   */\n      pop\n      pop\n      pop\n      jump\t// out\n        /* \"#utility.yul\":14529:14602   */\n    tag_215:\n        /* \"#utility.yul\":14574:14577   */\n      0x00\n        /* \"#utility.yul\":14529:14602   */\n      swap1\n      jump\t// out\n        /* \"#utility.yul\":14608:14797   */\n    tag_216:\n        /* \"#utility.yul\":14685:14717   */\n      tag_368\n      tag_215\n      jump\t// in\n    tag_368:\n        /* \"#utility.yul\":14726:14791   */\n      tag_369\n        /* \"#utility.yul\":14784:14790   */\n      dup2\n        /* \"#utility.yul\":14776:14782   */\n      dup5\n        /* \"#utility.yul\":14770:14774   */\n      dup5\n        /* \"#utility.yul\":14726:14791   */\n      tag_214\n      jump\t// in\n    tag_369:\n        /* \"#utility.yul\":14661:14797   */\n      pop\n        /* \"#utility.yul\":14608:14797   */\n      pop\n      pop\n      jump\t// out\n        /* \"#utility.yul\":14803:14989   */\n    tag_217:\n        /* \"#utility.yul\":14863:14983   */\n    tag_371:\n        /* \"#utility.yul\":14880:14883   */\n      dup2\n        /* \"#utility.yul\":14873:14878   */\n      dup2\n        /* \"#utility.yul\":14870:14884   */\n      lt\n        /* \"#utility.yul\":14863:14983   */\n      iszero\n      tag_373\n      jumpi\n        /* \"#utility.yul\":14934:14973   */\n      tag_374\n        /* \"#utility.yul\":14971:14972   */\n      0x00\n        /* \"#utility.yul\":14964:14969   */\n      dup3\n        /* \"#utility.yul\":14934:14973   */\n      tag_216\n      jump\t// in\n    tag_374:\n        /* \"#utility.yul\":14907:14908   */\n      0x01\n        /* \"#utility.yul\":14900:14905   */\n      dup2\n        /* \"#utility.yul\":14896:14909   */\n      add\n        /* \"#utility.yul\":14887:14909   */\n      swap1\n      pop\n        /* \"#utility.yul\":14863:14983   */\n      jump(tag_371)\n    tag_373:\n        /* \"#utility.yul\":14803:14989   */\n      pop\n      pop\n      jump\t// out\n        /* \"#utility.yul\":14995:15536   */\n    tag_218:\n        /* \"#utility.yul\":15095:15097   */\n      0x1f\n        /* \"#utility.yul\":15090:15093   */\n      dup3\n        /* \"#utility.yul\":15087:15098   */\n      gt\n        /* \"#utility.yul\":15084:15529   */\n      iszero\n      tag_376\n      jumpi\n        /* \"#utility.yul\":15129:15166   */\n      tag_377\n        /* \"#utility.yul\":15160:15165   */\n      dup2\n        /* \"#utility.yul\":15129:15166   */\n      tag_207\n      jump\t// in\n    tag_377:\n        /* \"#utility.yul\":15212:15241   */\n      tag_378\n        /* \"#utility.yul\":15230:15240   */\n      dup5\n        /* \"#utility.yul\":15212:15241   */\n      tag_208\n      jump\t// in\n    tag_378:\n        /* \"#utility.yul\":15202:15210   */\n      dup2\n        /* \"#utility.yul\":15198:15242   */\n      add\n        /* \"#utility.yul\":15395:15397   */\n      0x20\n        /* \"#utility.yul\":15383:15393   */\n      dup6\n        /* \"#utility.yul\":15380:15398   */\n      lt\n        /* \"#utility.yul\":15377:15426   */\n      iszero\n      tag_379\n      jumpi\n        /* \"#utility.yul\":15416:15424   */\n      dup2\n        /* \"#utility.yul\":15401:15424   */\n      swap1\n      pop\n        /* \"#utility.yul\":15377:15426   */\n    tag_379:\n        /* \"#utility.yul\":15439:15519   */\n      tag_380\n        /* \"#utility.yul\":15495:15517   */\n      tag_381\n        /* \"#utility.yul\":15513:15516   */\n      dup6\n        /* \"#utility.yul\":15495:15517   */\n      tag_208\n      jump\t// in\n    tag_381:\n        /* \"#utility.yul\":15485:15493   */\n      dup4\n        /* \"#utility.yul\":15481:15518   */\n      add\n        /* \"#utility.yul\":15468:15479   */\n      dup3\n        /* \"#utility.yul\":15439:15519   */\n      tag_217\n      jump\t// in\n    tag_380:\n        /* \"#utility.yul\":15099:15529   */\n      pop\n      pop\n        /* \"#utility.yul\":15084:15529   */\n    tag_376:\n        /* \"#utility.yul\":14995:15536   */\n      pop\n      pop\n      pop\n      jump\t// out\n        /* \"#utility.yul\":15542:15659   */\n    tag_219:\n        /* \"#utility.yul\":15596:15604   */\n      0x00\n        /* \"#utility.yul\":15646:15651   */\n      dup3\n        /* \"#utility.yul\":15640:15644   */\n      dup3\n        /* \"#utility.yul\":15636:15652   */\n      shr\n        /* \"#utility.yul\":15615:15652   */\n      swap1\n      pop\n        /* \"#utility.yul\":15542:15659   */\n      swap3\n      swap2\n      pop\n      pop\n      jump\t// out\n        /* \"#utility.yul\":15665:15834   */\n    tag_220:\n        /* \"#utility.yul\":15709:15715   */\n      0x00\n        /* \"#utility.yul\":15742:15793   */\n      tag_384\n        /* \"#utility.yul\":15790:15791   */\n      0x00\n        /* \"#utility.yul\":15786:15792   */\n      not\n        /* \"#utility.yul\":15778:15783   */\n      dup5\n        /* \"#utility.yul\":15775:15776   */\n      0x08\n        /* \"#utility.yul\":15771:15784   */\n      mul\n        /* \"#utility.yul\":15742:15793   */\n      tag_219\n      jump\t// in\n    tag_384:\n        /* \"#utility.yul\":15738:15794   */\n      not\n        /* \"#utility.yul\":15823:15827   */\n      dup1\n        /* \"#utility.yul\":15817:15821   */\n      dup4\n        /* \"#utility.yul\":15813:15828   */\n      and\n        /* \"#utility.yul\":15803:15828   */\n      swap2\n      pop\n        /* \"#utility.yul\":15716:15834   */\n      pop\n        /* \"#utility.yul\":15665:15834   */\n      swap3\n      swap2\n      pop\n      pop\n      jump\t// out\n        /* \"#utility.yul\":15839:16134   */\n    tag_221:\n        /* \"#utility.yul\":15915:15919   */\n      0x00\n        /* \"#utility.yul\":16061:16090   */\n      tag_386\n        /* \"#utility.yul\":16086:16089   */\n      dup4\n        /* \"#utility.yul\":16080:16084   */\n      dup4\n        /* \"#utility.yul\":16061:16090   */\n      tag_220\n      jump\t// in\n    tag_386:\n        /* \"#utility.yul\":16053:16090   */\n      swap2\n      pop\n        /* \"#utility.yul\":16123:16126   */\n      dup3\n        /* \"#utility.yul\":16120:16121   */\n      0x02\n        /* \"#utility.yul\":16116:16127   */\n      mul\n        /* \"#utility.yul\":16110:16114   */\n      dup3\n        /* \"#utility.yul\":16107:16128   */\n      or\n        /* \"#utility.yul\":16099:16128   */\n      swap1\n      pop\n        /* \"#utility.yul\":15839:16134   */\n      swap3\n      swap2\n      pop\n      pop\n      jump\t// out\n        /* \"#utility.yul\":16139:17529   */\n    tag_122:\n        /* \"#utility.yul\":16254:16290   */\n      tag_388\n        /* \"#utility.yul\":16286:16289   */\n      dup3\n        /* \"#utility.yul\":16254:16290   */\n      tag_184\n      jump\t// in\n    tag_388:\n        /* \"#utility.yul\":16355:16373   */\n      0xffffffffffffffff\n        /* \"#utility.yul\":16347:16353   */\n      dup2\n        /* \"#utility.yul\":16344:16374   */\n      gt\n        /* \"#utility.yul\":16341:16397   */\n      iszero\n      tag_389\n      jumpi\n        /* \"#utility.yul\":16377:16395   */\n      tag_390\n      tag_206\n      jump\t// in\n    tag_390:\n        /* \"#utility.yul\":16341:16397   */\n    tag_389:\n        /* \"#utility.yul\":16421:16459   */\n      tag_391\n        /* \"#utility.yul\":16453:16457   */\n      dup3\n        /* \"#utility.yul\":16447:16458   */\n      sload\n        /* \"#utility.yul\":16421:16459   */\n      tag_74\n      jump\t// in\n    tag_391:\n        /* \"#utility.yul\":16506:16572   */\n      tag_392\n        /* \"#utility.yul\":16565:16571   */\n      dup3\n        /* \"#utility.yul\":16557:16563   */\n      dup3\n        /* \"#utility.yul\":16551:16555   */\n      dup6\n        /* \"#utility.yul\":16506:16572   */\n      tag_218\n      jump\t// in\n    tag_392:\n        /* \"#utility.yul\":16599:16600   */\n      0x00\n        /* \"#utility.yul\":16623:16627   */\n      0x20\n        /* \"#utility.yul\":16610:16627   */\n      swap1\n      pop\n        /* \"#utility.yul\":16655:16657   */\n      0x1f\n        /* \"#utility.yul\":16647:16653   */\n      dup4\n        /* \"#utility.yul\":16644:16658   */\n      gt\n        /* \"#utility.yul\":16672:16673   */\n      0x01\n        /* \"#utility.yul\":16667:17284   */\n      dup2\n      eq\n      tag_394\n      jumpi\n        /* \"#utility.yul\":17328:17329   */\n      0x00\n        /* \"#utility.yul\":17345:17351   */\n      dup5\n        /* \"#utility.yul\":17342:17419   */\n      iszero\n      tag_395\n      jumpi\n        /* \"#utility.yul\":17394:17403   */\n      dup3\n        /* \"#utility.yul\":17389:17392   */\n      dup8\n        /* \"#utility.yul\":17385:17404   */\n      add\n        /* \"#utility.yul\":17379:17405   */\n      mload\n        /* \"#utility.yul\":17370:17405   */\n      swap1\n      pop\n        /* \"#utility.yul\":17342:17419   */\n    tag_395:\n        /* \"#utility.yul\":17445:17512   */\n      tag_396\n        /* \"#utility.yul\":17505:17511   */\n      dup6\n        /* \"#utility.yul\":17498:17503   */\n      dup3\n        /* \"#utility.yul\":17445:17512   */\n      tag_221\n      jump\t// in\n    tag_396:\n        /* \"#utility.yul\":17439:17443   */\n      dup7\n        /* \"#utility.yul\":17432:17513   */\n      sstore\n        /* \"#utility.yul\":17301:17523   */\n      pop\n        /* \"#utility.yul\":16637:17523   */\n      jump(tag_393)\n        /* \"#utility.yul\":16667:17284   */\n    tag_394:\n        /* \"#utility.yul\":16719:16723   */\n      0x1f\n        /* \"#utility.yul\":16715:16724   */\n      not\n        /* \"#utility.yul\":16707:16713   */\n      dup5\n        /* \"#utility.yul\":16703:16725   */\n      and\n        /* \"#utility.yul\":16753:16789   */\n      tag_397\n        /* \"#utility.yul\":16784:16788   */\n      dup7\n        /* \"#utility.yul\":16753:16789   */\n      tag_207\n      jump\t// in\n    tag_397:\n        /* \"#utility.yul\":16811:16812   */\n      0x00\n        /* \"#utility.yul\":16825:17033   */\n    tag_398:\n        /* \"#utility.yul\":16839:16846   */\n      dup3\n        /* \"#utility.yul\":16836:16837   */\n      dup2\n        /* \"#utility.yul\":16833:16847   */\n      lt\n        /* \"#utility.yul\":16825:17033   */\n      iszero\n      tag_400\n      jumpi\n        /* \"#utility.yul\":16918:16927   */\n      dup5\n        /* \"#utility.yul\":16913:16916   */\n      dup10\n        /* \"#utility.yul\":16909:16928   */\n      add\n        /* \"#utility.yul\":16903:16929   */\n      mload\n        /* \"#utility.yul\":16895:16901   */\n      dup3\n        /* \"#utility.yul\":16888:16930   */\n      sstore\n        /* \"#utility.yul\":16969:16970   */\n      0x01\n        /* \"#utility.yul\":16961:16967   */\n      dup3\n        /* \"#utility.yul\":16957:16971   */\n      add\n        /* \"#utility.yul\":16947:16971   */\n      swap2\n      pop\n        /* \"#utility.yul\":17016:17018   */\n      0x20\n        /* \"#utility.yul\":17005:17014   */\n      dup6\n        /* \"#utility.yul\":17001:17019   */\n      add\n        /* \"#utility.yul\":16988:17019   */\n      swap5\n      pop\n        /* \"#utility.yul\":16862:16866   */\n      0x20\n        /* \"#utility.yul\":16859:16860   */\n      dup2\n        /* \"#utility.yul\":16855:16867   */\n      add\n        /* \"#utility.yul\":16850:16867   */\n      swap1\n      pop\n        /* \"#utility.yul\":16825:17033   */\n      jump(tag_398)\n    tag_400:\n        /* \"#utility.yul\":17061:17067   */\n      dup7\n        /* \"#utility.yul\":17052:17059   */\n      dup4\n        /* \"#utility.yul\":17049:17068   */\n      lt\n        /* \"#utility.yul\":17046:17225   */\n      iszero\n      tag_401\n      jumpi\n        /* \"#utility.yul\":17119:17128   */\n      dup5\n        /* \"#utility.yul\":17114:17117   */\n      dup10\n        /* \"#utility.yul\":17110:17129   */\n      add\n        /* \"#utility.yul\":17104:17130   */\n      mload\n        /* \"#utility.yul\":17162:17210   */\n      tag_402\n        /* \"#utility.yul\":17204:17208   */\n      0x1f\n        /* \"#utility.yul\":17196:17202   */\n      dup10\n        /* \"#utility.yul\":17192:17209   */\n      and\n        /* \"#utility.yul\":17181:17190   */\n      dup3\n        /* \"#utility.yul\":17162:17210   */\n      tag_220\n      jump\t// in\n    tag_402:\n        /* \"#utility.yul\":17154:17160   */\n      dup4\n        /* \"#utility.yul\":17147:17211   */\n      sstore\n        /* \"#utility.yul\":17069:17225   */\n      pop\n        /* \"#utility.yul\":17046:17225   */\n    tag_401:\n        /* \"#utility.yul\":17271:17272   */\n      0x01\n        /* \"#utility.yul\":17267:17268   */\n      0x02\n        /* \"#utility.yul\":17259:17265   */\n      dup9\n        /* \"#utility.yul\":17255:17269   */\n      mul\n        /* \"#utility.yul\":17251:17273   */\n      add\n        /* \"#utility.yul\":17245:17249   */\n      dup9\n        /* \"#utility.yul\":17238:17274   */\n      sstore\n        /* \"#utility.yul\":16674:17284   */\n      pop\n      pop\n      pop\n        /* \"#utility.yul\":16637:17523   */\n    tag_393:\n      pop\n        /* \"#utility.yul\":16229:17529   */\n      pop\n      pop\n      pop\n        /* \"#utility.yul\":16139:17529   */\n      pop\n      pop\n      jump\t// out\n        /* \"#utility.yul\":17535:17708   */\n    tag_222:\n        /* \"#utility.yul\":17675:17700   */\n      0x4e6f7420456e6f75676820417070726f76616c732e2e2e000000000000000000\n        /* \"#utility.yul\":17671:17672   */\n      0x00\n        /* \"#utility.yul\":17663:17669   */\n      dup3\n        /* \"#utility.yul\":17659:17673   */\n      add\n        /* \"#utility.yul\":17652:17701   */\n      mstore\n        /* \"#utility.yul\":17535:17708   */\n      pop\n      jump\t// out\n        /* \"#utility.yul\":17714:18080   */\n    tag_223:\n        /* \"#utility.yul\":17856:17859   */\n      0x00\n        /* \"#utility.yul\":17877:17944   */\n      tag_405\n        /* \"#utility.yul\":17941:17943   */\n      0x17\n        /* \"#utility.yul\":17936:17939   */\n      dup4\n        /* \"#utility.yul\":17877:17944   */\n      tag_193\n      jump\t// in\n    tag_405:\n        /* \"#utility.yul\":17870:17944   */\n      swap2\n      pop\n        /* \"#utility.yul\":17953:18046   */\n      tag_406\n        /* \"#utility.yul\":18042:18045   */\n      dup3\n        /* \"#utility.yul\":17953:18046   */\n      tag_222\n      jump\t// in\n    tag_406:\n        /* \"#utility.yul\":18071:18073   */\n      0x20\n        /* \"#utility.yul\":18066:18069   */\n      dup3\n        /* \"#utility.yul\":18062:18074   */\n      add\n        /* \"#utility.yul\":18055:18074   */\n      swap1\n      pop\n        /* \"#utility.yul\":17714:18080   */\n      swap2\n      swap1\n      pop\n      jump\t// out\n        /* \"#utility.yul\":18086:18505   */\n    tag_146:\n        /* \"#utility.yul\":18252:18256   */\n      0x00\n        /* \"#utility.yul\":18290:18292   */\n      0x20\n        /* \"#utility.yul\":18279:18288   */\n      dup3\n        /* \"#utility.yul\":18275:18293   */\n      add\n        /* \"#utility.yul\":18267:18293   */\n      swap1\n      pop\n        /* \"#utility.yul\":18339:18348   */\n      dup2\n        /* \"#utility.yul\":18333:18337   */\n      dup2\n        /* \"#utility.yul\":18329:18349   */\n      sub\n        /* \"#utility.yul\":18325:18326   */\n      0x00\n        /* \"#utility.yul\":18314:18323   */\n      dup4\n        /* \"#utility.yul\":18310:18327   */\n      add\n        /* \"#utility.yul\":18303:18350   */\n      mstore\n        /* \"#utility.yul\":18367:18498   */\n      tag_408\n        /* \"#utility.yul\":18493:18497   */\n      dup2\n        /* \"#utility.yul\":18367:18498   */\n      tag_223\n      jump\t// in\n    tag_408:\n        /* \"#utility.yul\":18359:18498   */\n      swap1\n      pop\n        /* \"#utility.yul\":18086:18505   */\n      swap2\n      swap1\n      pop\n      jump\t// out\n        /* \"#utility.yul\":18511:18658   */\n    tag_224:\n        /* \"#utility.yul\":18612:18623   */\n      0x00\n        /* \"#utility.yul\":18649:18652   */\n      dup2\n        /* \"#utility.yul\":18634:18652   */\n      swap1\n      pop\n        /* \"#utility.yul\":18511:18658   */\n      swap3\n      swap2\n      pop\n      pop\n      jump\t// out\n        /* \"#utility.yul\":18686:19556   */\n    tag_225:\n        /* \"#utility.yul\":18787:18790   */\n      0x00\n        /* \"#utility.yul\":18824:18829   */\n      dup2\n        /* \"#utility.yul\":18818:18830   */\n      sload\n        /* \"#utility.yul\":18853:18889   */\n      tag_411\n        /* \"#utility.yul\":18879:18888   */\n      dup2\n        /* \"#utility.yul\":18853:18889   */\n      tag_74\n      jump\t// in\n    tag_411:\n        /* \"#utility.yul\":18905:18993   */\n      tag_412\n        /* \"#utility.yul\":18986:18992   */\n      dup2\n        /* \"#utility.yul\":18981:18984   */\n      dup7\n        /* \"#utility.yul\":18905:18993   */\n      tag_224\n      jump\t// in\n    tag_412:\n        /* \"#utility.yul\":18898:18993   */\n      swap5\n      pop\n        /* \"#utility.yul\":19024:19025   */\n      0x01\n        /* \"#utility.yul\":19013:19022   */\n      dup3\n        /* \"#utility.yul\":19009:19026   */\n      and\n        /* \"#utility.yul\":19040:19041   */\n      0x00\n        /* \"#utility.yul\":19035:19201   */\n      dup2\n      eq\n      tag_414\n      jumpi\n        /* \"#utility.yul\":19215:19216   */\n      0x01\n        /* \"#utility.yul\":19210:19550   */\n      dup2\n      eq\n      tag_415\n      jumpi\n        /* \"#utility.yul\":19002:19550   */\n      jump(tag_413)\n        /* \"#utility.yul\":19035:19201   */\n    tag_414:\n        /* \"#utility.yul\":19119:19123   */\n      0xff\n        /* \"#utility.yul\":19115:19124   */\n      not\n        /* \"#utility.yul\":19104:19113   */\n      dup4\n        /* \"#utility.yul\":19100:19125   */\n      and\n        /* \"#utility.yul\":19095:19098   */\n      dup7\n        /* \"#utility.yul\":19088:19126   */\n      mstore\n        /* \"#utility.yul\":19181:19187   */\n      dup2\n        /* \"#utility.yul\":19174:19188   */\n      iszero\n        /* \"#utility.yul\":19167:19189   */\n      iszero\n        /* \"#utility.yul\":19159:19165   */\n      dup3\n        /* \"#utility.yul\":19155:19190   */\n      mul\n        /* \"#utility.yul\":19150:19153   */\n      dup7\n        /* \"#utility.yul\":19146:19191   */\n      add\n        /* \"#utility.yul\":19139:19191   */\n      swap4\n      pop\n        /* \"#utility.yul\":19035:19201   */\n      jump(tag_413)\n        /* \"#utility.yul\":19210:19550   */\n    tag_415:\n        /* \"#utility.yul\":19277:19314   */\n      tag_416\n        /* \"#utility.yul\":19308:19313   */\n      dup6\n        /* \"#utility.yul\":19277:19314   */\n      tag_207\n      jump\t// in\n    tag_416:\n        /* \"#utility.yul\":19336:19337   */\n      0x00\n        /* \"#utility.yul\":19350:19504   */\n    tag_417:\n        /* \"#utility.yul\":19364:19370   */\n      dup4\n        /* \"#utility.yul\":19361:19362   */\n      dup2\n        /* \"#utility.yul\":19358:19371   */\n      lt\n        /* \"#utility.yul\":19350:19504   */\n      iszero\n      tag_419\n      jumpi\n        /* \"#utility.yul\":19438:19445   */\n      dup2\n        /* \"#utility.yul\":19432:19446   */\n      sload\n        /* \"#utility.yul\":19428:19429   */\n      dup2\n        /* \"#utility.yul\":19423:19426   */\n      dup10\n        /* \"#utility.yul\":19419:19430   */\n      add\n        /* \"#utility.yul\":19412:19447   */\n      mstore\n        /* \"#utility.yul\":19488:19489   */\n      0x01\n        /* \"#utility.yul\":19479:19486   */\n      dup3\n        /* \"#utility.yul\":19475:19490   */\n      add\n        /* \"#utility.yul\":19464:19490   */\n      swap2\n      pop\n        /* \"#utility.yul\":19386:19390   */\n      0x20\n        /* \"#utility.yul\":19383:19384   */\n      dup2\n        /* \"#utility.yul\":19379:19391   */\n      add\n        /* \"#utility.yul\":19374:19391   */\n      swap1\n      pop\n        /* \"#utility.yul\":19350:19504   */\n      jump(tag_417)\n    tag_419:\n        /* \"#utility.yul\":19533:19539   */\n      dup4\n        /* \"#utility.yul\":19528:19531   */\n      dup9\n        /* \"#utility.yul\":19524:19540   */\n      add\n        /* \"#utility.yul\":19517:19540   */\n      swap6\n      pop\n        /* \"#utility.yul\":19217:19550   */\n      pop\n      pop\n        /* \"#utility.yul\":19002:19550   */\n    tag_413:\n      pop\n        /* \"#utility.yul\":18791:19556   */\n      pop\n      pop\n        /* \"#utility.yul\":18686:19556   */\n      swap3\n      swap2\n      pop\n      pop\n      jump\t// out\n        /* \"#utility.yul\":19562:19827   */\n    tag_151:\n        /* \"#utility.yul\":19689:19692   */\n      0x00\n        /* \"#utility.yul\":19711:19801   */\n      tag_421\n        /* \"#utility.yul\":19797:19800   */\n      dup3\n        /* \"#utility.yul\":19788:19794   */\n      dup5\n        /* \"#utility.yul\":19711:19801   */\n      tag_225\n      jump\t// in\n    tag_421:\n        /* \"#utility.yul\":19704:19801   */\n      swap2\n      pop\n        /* \"#utility.yul\":19818:19821   */\n      dup2\n        /* \"#utility.yul\":19811:19821   */\n      swap1\n      pop\n        /* \"#utility.yul\":19562:19827   */\n      swap3\n      swap2\n      pop\n      pop\n      jump\t// out\n        /* \"#utility.yul\":19833:20005   */\n    tag_226:\n        /* \"#utility.yul\":19973:19997   */\n      0x5472616e73616374696f6e20496e636f6d706c65746500000000000000000000\n        /* \"#utility.yul\":19969:19970   */\n      0x00\n        /* \"#utility.yul\":19961:19967   */\n      dup3\n        /* \"#utility.yul\":19957:19971   */\n      add\n        /* \"#utility.yul\":19950:19998   */\n      mstore\n        /* \"#utility.yul\":19833:20005   */\n      pop\n      jump\t// out\n        /* \"#utility.yul\":20011:20377   */\n    tag_227:\n        /* \"#utility.yul\":20153:20156   */\n      0x00\n        /* \"#utility.yul\":20174:20241   */\n      tag_424\n        /* \"#utility.yul\":20238:20240   */\n      0x16\n        /* \"#utility.yul\":20233:20236   */\n      dup4\n        /* \"#utility.yul\":20174:20241   */\n      tag_193\n      jump\t// in\n    tag_424:\n        /* \"#utility.yul\":20167:20241   */\n      swap2\n      pop\n        /* \"#utility.yul\":20250:20343   */\n      tag_425\n        /* \"#utility.yul\":20339:20342   */\n      dup3\n        /* \"#utility.yul\":20250:20343   */\n      tag_226\n      jump\t// in\n    tag_425:\n        /* \"#utility.yul\":20368:20370   */\n      0x20\n        /* \"#utility.yul\":20363:20366   */\n      dup3\n        /* \"#utility.yul\":20359:20371   */\n      add\n        /* \"#utility.yul\":20352:20371   */\n      swap1\n      pop\n        /* \"#utility.yul\":20011:20377   */\n      swap2\n      swap1\n      pop\n      jump\t// out\n        /* \"#utility.yul\":20383:20802   */\n    tag_157:\n        /* \"#utility.yul\":20549:20553   */\n      0x00\n        /* \"#utility.yul\":20587:20589   */\n      0x20\n        /* \"#utility.yul\":20576:20585   */\n      dup3\n        /* \"#utility.yul\":20572:20590   */\n      add\n        /* \"#utility.yul\":20564:20590   */\n      swap1\n      pop\n        /* \"#utility.yul\":20636:20645   */\n      dup2\n        /* \"#utility.yul\":20630:20634   */\n      dup2\n        /* \"#utility.yul\":20626:20646   */\n      sub\n        /* \"#utility.yul\":20622:20623   */\n      0x00\n        /* \"#utility.yul\":20611:20620   */\n      dup4\n        /* \"#utility.yul\":20607:20624   */\n      add\n        /* \"#utility.yul\":20600:20647   */\n      mstore\n        /* \"#utility.yul\":20664:20795   */\n      tag_427\n        /* \"#utility.yul\":20790:20794   */\n      dup2\n        /* \"#utility.yul\":20664:20795   */\n      tag_227\n      jump\t// in\n    tag_427:\n        /* \"#utility.yul\":20656:20795   */\n      swap1\n      pop\n        /* \"#utility.yul\":20383:20802   */\n      swap2\n      swap1\n      pop\n      jump\t// out\n        /* \"#utility.yul\":20808:20999   */\n    tag_167:\n        /* \"#utility.yul\":20848:20851   */\n      0x00\n        /* \"#utility.yul\":20867:20887   */\n      tag_429\n        /* \"#utility.yul\":20885:20886   */\n      dup3\n        /* \"#utility.yul\":20867:20887   */\n      tag_173\n      jump\t// in\n    tag_429:\n        /* \"#utility.yul\":20862:20887   */\n      swap2\n      pop\n        /* \"#utility.yul\":20901:20921   */\n      tag_430\n        /* \"#utility.yul\":20919:20920   */\n      dup4\n        /* \"#utility.yul\":20901:20921   */\n      tag_173\n      jump\t// in\n    tag_430:\n        /* \"#utility.yul\":20896:20921   */\n      swap3\n      pop\n        /* \"#utility.yul\":20944:20945   */\n      dup3\n        /* \"#utility.yul\":20941:20942   */\n      dup3\n        /* \"#utility.yul\":20937:20946   */\n      add\n        /* \"#utility.yul\":20930:20946   */\n      swap1\n      pop\n        /* \"#utility.yul\":20965:20968   */\n      dup1\n        /* \"#utility.yul\":20962:20963   */\n      dup3\n        /* \"#utility.yul\":20959:20969   */\n      gt\n        /* \"#utility.yul\":20956:20992   */\n      iszero\n      tag_431\n      jumpi\n        /* \"#utility.yul\":20972:20990   */\n      tag_432\n      tag_196\n      jump\t// in\n    tag_432:\n        /* \"#utility.yul\":20956:20992   */\n    tag_431:\n        /* \"#utility.yul\":20808:20999   */\n      swap3\n      swap2\n      pop\n      pop\n      jump\t// out\n        /* \"#utility.yul\":21005:21238   */\n    tag_169:\n        /* \"#utility.yul\":21044:21047   */\n      0x00\n        /* \"#utility.yul\":21067:21091   */\n      tag_434\n        /* \"#utility.yul\":21085:21090   */\n      dup3\n        /* \"#utility.yul\":21067:21091   */\n      tag_173\n      jump\t// in\n    tag_434:\n        /* \"#utility.yul\":21058:21091   */\n      swap2\n      pop\n        /* \"#utility.yul\":21113:21179   */\n      0xffffffffffffffffffffffffffffffffffffffffffffffffffffffffffffffff\n        /* \"#utility.yul\":21106:21111   */\n      dup3\n        /* \"#utility.yul\":21103:21180   */\n      sub\n        /* \"#utility.yul\":21100:21203   */\n      tag_435\n      jumpi\n        /* \"#utility.yul\":21183:21201   */\n      tag_436\n      tag_196\n      jump\t// in\n    tag_436:\n        /* \"#utility.yul\":21100:21203   */\n    tag_435:\n        /* \"#utility.yul\":21230:21231   */\n      0x01\n        /* \"#utility.yul\":21223:21228   */\n      dup3\n        /* \"#utility.yul\":21219:21232   */\n      add\n        /* \"#utility.yul\":21212:21232   */\n      swap1\n      pop\n        /* \"#utility.yul\":21005:21238   */\n      swap2\n      swap1\n      pop\n      jump\t// out\n\n    auxdata: 0xa26469706673582212200fbe1be4a45200831529873806712c5c125ab271153a65d5c80c8d9841c8ace364736f6c63430008100033\n}\n",
				"bytecode": {
					"linkReferences": {},
					"object": "60806040523480156200001157600080fd5b506040516200224538038062002245833981810160405281019062000037919062000400565b60005b8251811015620001c75760008382815181106200005c576200005b62000466565b5b60200260200101519050600160008273ffffffffffffffffffffffffffffffffffffffff1673ffffffffffffffffffffffffffffffffffffffff16815260200190815260200160002060009054906101000a900460ff1615620000f6576040517f08c379a0000000000000000000000000000000000000000000000000000000008152600401620000ed90620004f6565b60405180910390fd5b6000819080600181540180825580915050600190039060005260206000200160009091909190916101000a81548173ffffffffffffffffffffffffffffffffffffffff021916908373ffffffffffffffffffffffffffffffffffffffff16021790555060018060008373ffffffffffffffffffffffffffffffffffffffff1673ffffffffffffffffffffffffffffffffffffffff16815260200190815260200160002060006101000a81548160ff021916908315150217905550508080620001be9062000547565b9150506200003a565b5080600281905550505062000594565b6000604051905090565b600080fd5b600080fd5b600080fd5b6000601f19601f8301169050919050565b7f4e487b7100000000000000000000000000000000000000000000000000000000600052604160045260246000fd5b6200023b82620001f0565b810181811067ffffffffffffffff821117156200025d576200025c62000201565b5b80604052505050565b600062000272620001d7565b905062000280828262000230565b919050565b600067ffffffffffffffff821115620002a357620002a262000201565b5b602082029050602081019050919050565b600080fd5b600073ffffffffffffffffffffffffffffffffffffffff82169050919050565b6000620002e682620002b9565b9050919050565b620002f881620002d9565b81146200030457600080fd5b50565b6000815190506200031881620002ed565b92915050565b6000620003356200032f8462000285565b62000266565b905080838252602082019050602084028301858111156200035b576200035a620002b4565b5b835b8181101562000388578062000373888262000307565b8452602084019350506020810190506200035d565b5050509392505050565b600082601f830112620003aa57620003a9620001eb565b5b8151620003bc8482602086016200031e565b91505092915050565b6000819050919050565b620003da81620003c5565b8114620003e657600080fd5b50565b600081519050620003fa81620003cf565b92915050565b600080604083850312156200041a5762000419620001e1565b5b600083015167ffffffffffffffff8111156200043b576200043a620001e6565b5b620004498582860162000392565b92505060206200045c85828601620003e9565b9150509250929050565b7f4e487b7100000000000000000000000000000000000000000000000000000000600052603260045260246000fd5b600082825260208201905092915050565b7f416c7265616479204578697374732e2e2e000000000000000000000000000000600082015250565b6000620004de60118362000495565b9150620004eb82620004a6565b602082019050919050565b600060208201905081810360008301526200051181620004cf565b9050919050565b7f4e487b7100000000000000000000000000000000000000000000000000000000600052601160045260246000fd5b60006200055482620003c5565b91507fffffffffffffffffffffffffffffffffffffffffffffffffffffffffffffffff820362000589576200058862000518565b5b600182019050919050565b611ca180620005a46000396000f3fe6080604052600436106100745760003560e01c80639ace38c21161004e5780639ace38c21461015c578063b1e130fc1461019c578063c0c64a49146101c5578063ee22610b146101ee576100b4565b8063025e7c27146100b9578063242232d1146100f65780632f54bf6e1461011f576100b4565b366100b4577fe1fffcc4923d04b559f4d29a8bfc6cda04eb5b0d3c460751c2402c5c5cc9109c33346040516100aa929190611192565b60405180910390a1005b600080fd5b3480156100c557600080fd5b506100e060048036038101906100db91906111f1565b610217565b6040516100ed919061121e565b60405180910390f35b34801561010257600080fd5b5061011d600480360381019061011891906111f1565b610256565b005b34801561012b57600080fd5b5061014660048036038101906101419190611265565b610603565b60405161015391906112ad565b60405180910390f35b34801561016857600080fd5b50610183600480360381019061017e91906111f1565b610623565b6040516101939493929190611358565b60405180910390f35b3480156101a857600080fd5b506101c360048036038101906101be91906111f1565b610718565b005b3480156101d157600080fd5b506101ec60048036038101906101e79190611409565b610ac4565b005b3480156101fa57600080fd5b50610215600480360381019061021091906111f1565b610c88565b005b6000818154811061022757600080fd5b906000526020600020016000915054906101000a900473ffffffffffffffffffffffffffffffffffffffff1681565b806003600082815260200190815260200160002060003373ffffffffffffffffffffffffffffffffffffffff1673ffffffffffffffffffffffffffffffffffffffff16815260200190815260200160002060009054906101000a900460ff16156102f5576040517f08c379a00000000000000000000000000000000000000000000000000000000081526004016102ec906114da565b60405180910390fd5b8160016004805490506103089190611529565b81111561034a576040517f08c379a0000000000000000000000000000000000000000000000000000000008152600401610341906115a9565b60405180910390fd5b600160003373ffffffffffffffffffffffffffffffffffffffff1673ffffffffffffffffffffffffffffffffffffffff16815260200190815260200160002060009054906101000a900460ff166103d6576040517f08c379a00000000000000000000000000000000000000000000000000000000081526004016103cd90611615565b60405180910390fd5b826000600482815481106103ed576103ec611635565b5b90600052602060002090600402016040518060800160405290816000820160009054906101000a900473ffffffffffffffffffffffffffffffffffffffff1673ffffffffffffffffffffffffffffffffffffffff1673ffffffffffffffffffffffffffffffffffffffff168152602001600182015481526020016002820160009054906101000a900460ff1615151515815260200160038201805461049190611693565b80601f01602080910402602001604051908101604052809291908181526020018280546104bd90611693565b801561050a5780601f106104df5761010080835404028352916020019161050a565b820191906000526020600020905b8154815290600101906020018083116104ed57829003601f168201915b505050505081525050905080604001511561055a576040517f08c379a000000000000000000000000000000000000000000000000000000000815260040161055190611710565b60405180910390fd5b60016003600087815260200190815260200160002060003373ffffffffffffffffffffffffffffffffffffffff1673ffffffffffffffffffffffffffffffffffffffff16815260200190815260200160002060006101000a81548160ff0219169083151502179055507f47ad3e4b0f4bdbe3ac08708bbc45053d2ff616911b39e65563fd9bd78190964585336040516105f4929190611730565b60405180910390a15050505050565b60016020528060005260406000206000915054906101000a900460ff1681565b6004818154811061063357600080fd5b90600052602060002090600402016000915090508060000160009054906101000a900473ffffffffffffffffffffffffffffffffffffffff16908060010154908060020160009054906101000a900460ff169080600301805461069590611693565b80601f01602080910402602001604051908101604052809291908181526020018280546106c190611693565b801561070e5780601f106106e35761010080835404028352916020019161070e565b820191906000526020600020905b8154815290600101906020018083116106f157829003601f168201915b5050505050905084565b806003600082815260200190815260200160002060003373ffffffffffffffffffffffffffffffffffffffff1673ffffffffffffffffffffffffffffffffffffffff16815260200190815260200160002060009054906101000a900460ff166107b6576040517f08c379a00000000000000000000000000000000000000000000000000000000081526004016107ad906117a5565b60405180910390fd5b8160016004805490506107c99190611529565b81111561080b576040517f08c379a0000000000000000000000000000000000000000000000000000000008152600401610802906115a9565b60405180910390fd5b600160003373ffffffffffffffffffffffffffffffffffffffff1673ffffffffffffffffffffffffffffffffffffffff16815260200190815260200160002060009054906101000a900460ff16610897576040517f08c379a000000000000000000000000000000000000000000000000000000000815260040161088e90611615565b60405180910390fd5b826000600482815481106108ae576108ad611635565b5b90600052602060002090600402016040518060800160405290816000820160009054906101000a900473ffffffffffffffffffffffffffffffffffffffff1673ffffffffffffffffffffffffffffffffffffffff1673ffffffffffffffffffffffffffffffffffffffff168152602001600182015481526020016002820160009054906101000a900460ff1615151515815260200160038201805461095290611693565b80601f016020809104026020016040519081016040528092919081815260200182805461097e90611693565b80156109cb5780601f106109a0576101008083540402835291602001916109cb565b820191906000526020600020905b8154815290600101906020018083116109ae57829003601f168201915b5050505050815250509050806040015115610a1b576040517f08c379a0000000000000000000000000000000000000000000000000000000008152600401610a1290611710565b60405180910390fd5b60006003600087815260200190815260200160002060003373ffffffffffffffffffffffffffffffffffffffff1673ffffffffffffffffffffffffffffffffffffffff16815260200190815260200160002060006101000a81548160ff0219169083151502179055507fd5d64031e0f55cf42bc3b7d0462f8404a4d63f7ccf84be9510cd6a5300552e428533604051610ab5929190611730565b60405180910390a15050505050565b600160003373ffffffffffffffffffffffffffffffffffffffff1673ffffffffffffffffffffffffffffffffffffffff16815260200190815260200160002060009054906101000a900460ff16610b50576040517f08c379a0000000000000000000000000000000000000000000000000000000008152600401610b4790611615565b60405180910390fd5b600460405180608001604052808673ffffffffffffffffffffffffffffffffffffffff16815260200185815260200160001515815260200184848080601f016020809104026020016040519081016040528093929190818152602001838380828437600081840152601f19601f82011690508083019250505050505050815250908060018154018082558091505060019003906000526020600020906004020160009091909190915060008201518160000160006101000a81548173ffffffffffffffffffffffffffffffffffffffff021916908373ffffffffffffffffffffffffffffffffffffffff1602179055506020820151816001015560408201518160020160006101000a81548160ff0219169083151502179055506060820151816003019081610c7f91906119a0565b50505050505050565b806001600480549050610c9b9190611529565b811115610cdd576040517f08c379a0000000000000000000000000000000000000000000000000000000008152600401610cd4906115a9565b60405180910390fd5b600160003373ffffffffffffffffffffffffffffffffffffffff1673ffffffffffffffffffffffffffffffffffffffff16815260200190815260200160002060009054906101000a900460ff16610d69576040517f08c379a0000000000000000000000000000000000000000000000000000000008152600401610d6090611615565b60405180910390fd5b81600060048281548110610d8057610d7f611635565b5b90600052602060002090600402016040518060800160405290816000820160009054906101000a900473ffffffffffffffffffffffffffffffffffffffff1673ffffffffffffffffffffffffffffffffffffffff1673ffffffffffffffffffffffffffffffffffffffff168152602001600182015481526020016002820160009054906101000a900460ff16151515158152602001600382018054610e2490611693565b80601f0160208091040260200160405190810160405280929190818152602001828054610e5090611693565b8015610e9d5780601f10610e7257610100808354040283529160200191610e9d565b820191906000526020600020905b815481529060010190602001808311610e8057829003601f168201915b5050505050815250509050806040015115610eed576040517f08c379a0000000000000000000000000000000000000000000000000000000008152600401610ee490611710565b60405180910390fd5b600254610ef98561105e565b1015610f3a576040517f08c379a0000000000000000000000000000000000000000000000000000000008152600401610f3190611abe565b60405180910390fd5b600060048581548110610f5057610f4f611635565b5b9060005260206000209060040201905060008160000160009054906101000a900473ffffffffffffffffffffffffffffffffffffffff1673ffffffffffffffffffffffffffffffffffffffff16826001015483600301604051610fb39190611b6c565b60006040518083038185875af1925050503d8060008114610ff0576040519150601f19603f3d011682016040523d82523d6000602084013e610ff5565b606091505b5050905080611039576040517f08c379a000000000000000000000000000000000000000000000000000000000815260040161103090611bcf565b60405180910390fd5b60018260020160006101000a81548160ff021916908315150217905550505050505050565b6000805b6000805490508110156111325760036000848152602001908152602001600020600080838154811061109757611096611635565b5b9060005260206000200160009054906101000a900473ffffffffffffffffffffffffffffffffffffffff1673ffffffffffffffffffffffffffffffffffffffff1673ffffffffffffffffffffffffffffffffffffffff16815260200190815260200160002060009054906101000a900460ff161561111f5760018261111c9190611bef565b91505b808061112a90611c23565b915050611062565b50919050565b600073ffffffffffffffffffffffffffffffffffffffff82169050919050565b600061116382611138565b9050919050565b61117381611158565b82525050565b6000819050919050565b61118c81611179565b82525050565b60006040820190506111a7600083018561116a565b6111b46020830184611183565b9392505050565b600080fd5b600080fd5b6111ce81611179565b81146111d957600080fd5b50565b6000813590506111eb816111c5565b92915050565b600060208284031215611207576112066111bb565b5b6000611215848285016111dc565b91505092915050565b6000602082019050611233600083018461116a565b92915050565b61124281611158565b811461124d57600080fd5b50565b60008135905061125f81611239565b92915050565b60006020828403121561127b5761127a6111bb565b5b600061128984828501611250565b91505092915050565b60008115159050919050565b6112a781611292565b82525050565b60006020820190506112c2600083018461129e565b92915050565b600081519050919050565b600082825260208201905092915050565b60005b838110156113025780820151818401526020810190506112e7565b60008484015250505050565b6000601f19601f8301169050919050565b600061132a826112c8565b61133481856112d3565b93506113448185602086016112e4565b61134d8161130e565b840191505092915050565b600060808201905061136d600083018761116a565b61137a6020830186611183565b611387604083018561129e565b8181036060830152611399818461131f565b905095945050505050565b600080fd5b600080fd5b600080fd5b60008083601f8401126113c9576113c86113a4565b5b8235905067ffffffffffffffff8111156113e6576113e56113a9565b5b602083019150836001820283011115611402576114016113ae565b5b9250929050565b60008060008060608587031215611423576114226111bb565b5b600061143187828801611250565b9450506020611442878288016111dc565b935050604085013567ffffffffffffffff811115611463576114626111c0565b5b61146f878288016113b3565b925092505092959194509250565b600082825260208201905092915050565b7f5472616e73616374696f6e20416c726561647920417070726f7665642e2e2e00600082015250565b60006114c4601f8361147d565b91506114cf8261148e565b602082019050919050565b600060208201905081810360008301526114f3816114b7565b9050919050565b7f4e487b7100000000000000000000000000000000000000000000000000000000600052601160045260246000fd5b600061153482611179565b915061153f83611179565b9250828203905081811115611557576115566114fa565b5b92915050565b7f5472616e73616374696f6e20446f6573206e6f742045786973742e2e2e000000600082015250565b6000611593601d8361147d565b915061159e8261155d565b602082019050919050565b600060208201905081810360008301526115c281611586565b9050919050565b7f4e6f7420746865204f776e65722e2e2e2e000000000000000000000000000000600082015250565b60006115ff60118361147d565b915061160a826115c9565b602082019050919050565b6000602082019050818103600083015261162e816115f2565b9050919050565b7f4e487b7100000000000000000000000000000000000000000000000000000000600052603260045260246000fd5b7f4e487b7100000000000000000000000000000000000000000000000000000000600052602260045260246000fd5b600060028204905060018216806116ab57607f821691505b6020821081036116be576116bd611664565b5b50919050565b7f5472616e73616374696f6e20416c726561647920457865637574656400000000600082015250565b60006116fa601c8361147d565b9150611705826116c4565b602082019050919050565b60006020820190508181036000830152611729816116ed565b9050919050565b60006040820190506117456000830185611183565b611752602083018461116a565b9392505050565b7f5472616e73616374696f6e204e6f7420417070726f7665642e2e2e0000000000600082015250565b600061178f601b8361147d565b915061179a82611759565b602082019050919050565b600060208201905081810360008301526117be81611782565b9050919050565b7f4e487b7100000000000000000000000000000000000000000000000000000000600052604160045260246000fd5b60008190508160005260206000209050919050565b60006020601f8301049050919050565b600082821b905092915050565b6000600883026118567fffffffffffffffffffffffffffffffffffffffffffffffffffffffffffffffff82611819565b6118608683611819565b95508019841693508086168417925050509392505050565b6000819050919050565b600061189d61189861189384611179565b611878565b611179565b9050919050565b6000819050919050565b6118b783611882565b6118cb6118c3826118a4565b848454611826565b825550505050565b600090565b6118e06118d3565b6118eb8184846118ae565b505050565b5b8181101561190f576119046000826118d8565b6001810190506118f1565b5050565b601f82111561195457611925816117f4565b61192e84611809565b8101602085101561193d578190505b61195161194985611809565b8301826118f0565b50505b505050565b600082821c905092915050565b600061197760001984600802611959565b1980831691505092915050565b60006119908383611966565b9150826002028217905092915050565b6119a9826112c8565b67ffffffffffffffff8111156119c2576119c16117c5565b5b6119cc8254611693565b6119d7828285611913565b600060209050601f831160018114611a0a57600084156119f8578287015190505b611a028582611984565b865550611a6a565b601f198416611a18866117f4565b60005b82811015611a4057848901518255600182019150602085019450602081019050611a1b565b86831015611a5d5784890151611a59601f891682611966565b8355505b6001600288020188555050505b505050505050565b7f4e6f7420456e6f75676820417070726f76616c732e2e2e000000000000000000600082015250565b6000611aa860178361147d565b9150611ab382611a72565b602082019050919050565b60006020820190508181036000830152611ad781611a9b565b9050919050565b600081905092915050565b60008154611af681611693565b611b008186611ade565b94506001821660008114611b1b5760018114611b3057611b63565b60ff1983168652811515820286019350611b63565b611b39856117f4565b60005b83811015611b5b57815481890152600182019150602081019050611b3c565b838801955050505b50505092915050565b6000611b788284611ae9565b915081905092915050565b7f5472616e73616374696f6e20496e636f6d706c65746500000000000000000000600082015250565b6000611bb960168361147d565b9150611bc482611b83565b602082019050919050565b60006020820190508181036000830152611be881611bac565b9050919050565b6000611bfa82611179565b9150611c0583611179565b9250828201905080821115611c1d57611c1c6114fa565b5b92915050565b6000611c2e82611179565b91507fffffffffffffffffffffffffffffffffffffffffffffffffffffffffffffffff8203611c6057611c5f6114fa565b5b60018201905091905056fea26469706673582212200fbe1be4a45200831529873806712c5c125ab271153a65d5c80c8d9841c8ace364736f6c63430008100033",
					"opcodes": "PUSH1 0x80 PUSH1 0x40 MSTORE CALLVALUE DUP1 ISZERO PUSH3 0x11 JUMPI PUSH1 0x0 DUP1 REVERT JUMPDEST POP PUSH1 0x40 MLOAD PUSH3 0x2245 CODESIZE SUB DUP1 PUSH3 0x2245 DUP4 CODECOPY DUP2 DUP2 ADD PUSH1 0x40 MSTORE DUP2 ADD SWAP1 PUSH3 0x37 SWAP2 SWAP1 PUSH3 0x400 JUMP JUMPDEST PUSH1 0x0 JUMPDEST DUP3 MLOAD DUP2 LT ISZERO PUSH3 0x1C7 JUMPI PUSH1 0x0 DUP4 DUP3 DUP2 MLOAD DUP2 LT PUSH3 0x5C JUMPI PUSH3 0x5B PUSH3 0x466 JUMP JUMPDEST JUMPDEST PUSH1 0x20 MUL PUSH1 0x20 ADD ADD MLOAD SWAP1 POP PUSH1 0x1 PUSH1 0x0 DUP3 PUSH20 0xFFFFFFFFFFFFFFFFFFFFFFFFFFFFFFFFFFFFFFFF AND PUSH20 0xFFFFFFFFFFFFFFFFFFFFFFFFFFFFFFFFFFFFFFFF AND DUP2 MSTORE PUSH1 0x20 ADD SWAP1 DUP2 MSTORE PUSH1 0x20 ADD PUSH1 0x0 KECCAK256 PUSH1 0x0 SWAP1 SLOAD SWAP1 PUSH2 0x100 EXP SWAP1 DIV PUSH1 0xFF AND ISZERO PUSH3 0xF6 JUMPI PUSH1 0x40 MLOAD PUSH32 0x8C379A000000000000000000000000000000000000000000000000000000000 DUP2 MSTORE PUSH1 0x4 ADD PUSH3 0xED SWAP1 PUSH3 0x4F6 JUMP JUMPDEST PUSH1 0x40 MLOAD DUP1 SWAP2 SUB SWAP1 REVERT JUMPDEST PUSH1 0x0 DUP2 SWAP1 DUP1 PUSH1 0x1 DUP2 SLOAD ADD DUP1 DUP3 SSTORE DUP1 SWAP2 POP POP PUSH1 0x1 SWAP1 SUB SWAP1 PUSH1 0x0 MSTORE PUSH1 0x20 PUSH1 0x0 KECCAK256 ADD PUSH1 0x0 SWAP1 SWAP2 SWAP1 SWAP2 SWAP1 SWAP2 PUSH2 0x100 EXP DUP2 SLOAD DUP2 PUSH20 0xFFFFFFFFFFFFFFFFFFFFFFFFFFFFFFFFFFFFFFFF MUL NOT AND SWAP1 DUP4 PUSH20 0xFFFFFFFFFFFFFFFFFFFFFFFFFFFFFFFFFFFFFFFF AND MUL OR SWAP1 SSTORE POP PUSH1 0x1 DUP1 PUSH1 0x0 DUP4 PUSH20 0xFFFFFFFFFFFFFFFFFFFFFFFFFFFFFFFFFFFFFFFF AND PUSH20 0xFFFFFFFFFFFFFFFFFFFFFFFFFFFFFFFFFFFFFFFF AND DUP2 MSTORE PUSH1 0x20 ADD SWAP1 DUP2 MSTORE PUSH1 0x20 ADD PUSH1 0x0 KECCAK256 PUSH1 0x0 PUSH2 0x100 EXP DUP2 SLOAD DUP2 PUSH1 0xFF MUL NOT AND SWAP1 DUP4 ISZERO ISZERO MUL OR SWAP1 SSTORE POP POP DUP1 DUP1 PUSH3 0x1BE SWAP1 PUSH3 0x547 JUMP JUMPDEST SWAP2 POP POP PUSH3 0x3A JUMP JUMPDEST POP DUP1 PUSH1 0x2 DUP2 SWAP1 SSTORE POP POP POP PUSH3 0x594 JUMP JUMPDEST PUSH1 0x0 PUSH1 0x40 MLOAD SWAP1 POP SWAP1 JUMP JUMPDEST PUSH1 0x0 DUP1 REVERT JUMPDEST PUSH1 0x0 DUP1 REVERT JUMPDEST PUSH1 0x0 DUP1 REVERT JUMPDEST PUSH1 0x0 PUSH1 0x1F NOT PUSH1 0x1F DUP4 ADD AND SWAP1 POP SWAP2 SWAP1 POP JUMP JUMPDEST PUSH32 0x4E487B7100000000000000000000000000000000000000000000000000000000 PUSH1 0x0 MSTORE PUSH1 0x41 PUSH1 0x4 MSTORE PUSH1 0x24 PUSH1 0x0 REVERT JUMPDEST PUSH3 0x23B DUP3 PUSH3 0x1F0 JUMP JUMPDEST DUP2 ADD DUP2 DUP2 LT PUSH8 0xFFFFFFFFFFFFFFFF DUP3 GT OR ISZERO PUSH3 0x25D JUMPI PUSH3 0x25C PUSH3 0x201 JUMP JUMPDEST JUMPDEST DUP1 PUSH1 0x40 MSTORE POP POP POP JUMP JUMPDEST PUSH1 0x0 PUSH3 0x272 PUSH3 0x1D7 JUMP JUMPDEST SWAP1 POP PUSH3 0x280 DUP3 DUP3 PUSH3 0x230 JUMP JUMPDEST SWAP2 SWAP1 POP JUMP JUMPDEST PUSH1 0x0 PUSH8 0xFFFFFFFFFFFFFFFF DUP3 GT ISZERO PUSH3 0x2A3 JUMPI PUSH3 0x2A2 PUSH3 0x201 JUMP JUMPDEST JUMPDEST PUSH1 0x20 DUP3 MUL SWAP1 POP PUSH1 0x20 DUP2 ADD SWAP1 POP SWAP2 SWAP1 POP JUMP JUMPDEST PUSH1 0x0 DUP1 REVERT JUMPDEST PUSH1 0x0 PUSH20 0xFFFFFFFFFFFFFFFFFFFFFFFFFFFFFFFFFFFFFFFF DUP3 AND SWAP1 POP SWAP2 SWAP1 POP JUMP JUMPDEST PUSH1 0x0 PUSH3 0x2E6 DUP3 PUSH3 0x2B9 JUMP JUMPDEST SWAP1 POP SWAP2 SWAP1 POP JUMP JUMPDEST PUSH3 0x2F8 DUP2 PUSH3 0x2D9 JUMP JUMPDEST DUP2 EQ PUSH3 0x304 JUMPI PUSH1 0x0 DUP1 REVERT JUMPDEST POP JUMP JUMPDEST PUSH1 0x0 DUP2 MLOAD SWAP1 POP PUSH3 0x318 DUP2 PUSH3 0x2ED JUMP JUMPDEST SWAP3 SWAP2 POP POP JUMP JUMPDEST PUSH1 0x0 PUSH3 0x335 PUSH3 0x32F DUP5 PUSH3 0x285 JUMP JUMPDEST PUSH3 0x266 JUMP JUMPDEST SWAP1 POP DUP1 DUP4 DUP3 MSTORE PUSH1 0x20 DUP3 ADD SWAP1 POP PUSH1 0x20 DUP5 MUL DUP4 ADD DUP6 DUP2 GT ISZERO PUSH3 0x35B JUMPI PUSH3 0x35A PUSH3 0x2B4 JUMP JUMPDEST JUMPDEST DUP4 JUMPDEST DUP2 DUP2 LT ISZERO PUSH3 0x388 JUMPI DUP1 PUSH3 0x373 DUP9 DUP3 PUSH3 0x307 JUMP JUMPDEST DUP5 MSTORE PUSH1 0x20 DUP5 ADD SWAP4 POP POP PUSH1 0x20 DUP2 ADD SWAP1 POP PUSH3 0x35D JUMP JUMPDEST POP POP POP SWAP4 SWAP3 POP POP POP JUMP JUMPDEST PUSH1 0x0 DUP3 PUSH1 0x1F DUP4 ADD SLT PUSH3 0x3AA JUMPI PUSH3 0x3A9 PUSH3 0x1EB JUMP JUMPDEST JUMPDEST DUP2 MLOAD PUSH3 0x3BC DUP5 DUP3 PUSH1 0x20 DUP7 ADD PUSH3 0x31E JUMP JUMPDEST SWAP2 POP POP SWAP3 SWAP2 POP POP JUMP JUMPDEST PUSH1 0x0 DUP2 SWAP1 POP SWAP2 SWAP1 POP JUMP JUMPDEST PUSH3 0x3DA DUP2 PUSH3 0x3C5 JUMP JUMPDEST DUP2 EQ PUSH3 0x3E6 JUMPI PUSH1 0x0 DUP1 REVERT JUMPDEST POP JUMP JUMPDEST PUSH1 0x0 DUP2 MLOAD SWAP1 POP PUSH3 0x3FA DUP2 PUSH3 0x3CF JUMP JUMPDEST SWAP3 SWAP2 POP POP JUMP JUMPDEST PUSH1 0x0 DUP1 PUSH1 0x40 DUP4 DUP6 SUB SLT ISZERO PUSH3 0x41A JUMPI PUSH3 0x419 PUSH3 0x1E1 JUMP JUMPDEST JUMPDEST PUSH1 0x0 DUP4 ADD MLOAD PUSH8 0xFFFFFFFFFFFFFFFF DUP2 GT ISZERO PUSH3 0x43B JUMPI PUSH3 0x43A PUSH3 0x1E6 JUMP JUMPDEST JUMPDEST PUSH3 0x449 DUP6 DUP3 DUP7 ADD PUSH3 0x392 JUMP JUMPDEST SWAP3 POP POP PUSH1 0x20 PUSH3 0x45C DUP6 DUP3 DUP7 ADD PUSH3 0x3E9 JUMP JUMPDEST SWAP2 POP POP SWAP3 POP SWAP3 SWAP1 POP JUMP JUMPDEST PUSH32 0x4E487B7100000000000000000000000000000000000000000000000000000000 PUSH1 0x0 MSTORE PUSH1 0x32 PUSH1 0x4 MSTORE PUSH1 0x24 PUSH1 0x0 REVERT JUMPDEST PUSH1 0x0 DUP3 DUP3 MSTORE PUSH1 0x20 DUP3 ADD SWAP1 POP SWAP3 SWAP2 POP POP JUMP JUMPDEST PUSH32 0x416C7265616479204578697374732E2E2E000000000000000000000000000000 PUSH1 0x0 DUP3 ADD MSTORE POP JUMP JUMPDEST PUSH1 0x0 PUSH3 0x4DE PUSH1 0x11 DUP4 PUSH3 0x495 JUMP JUMPDEST SWAP2 POP PUSH3 0x4EB DUP3 PUSH3 0x4A6 JUMP JUMPDEST PUSH1 0x20 DUP3 ADD SWAP1 POP SWAP2 SWAP1 POP JUMP JUMPDEST PUSH1 0x0 PUSH1 0x20 DUP3 ADD SWAP1 POP DUP2 DUP2 SUB PUSH1 0x0 DUP4 ADD MSTORE PUSH3 0x511 DUP2 PUSH3 0x4CF JUMP JUMPDEST SWAP1 POP SWAP2 SWAP1 POP JUMP JUMPDEST PUSH32 0x4E487B7100000000000000000000000000000000000000000000000000000000 PUSH1 0x0 MSTORE PUSH1 0x11 PUSH1 0x4 MSTORE PUSH1 0x24 PUSH1 0x0 REVERT JUMPDEST PUSH1 0x0 PUSH3 0x554 DUP3 PUSH3 0x3C5 JUMP JUMPDEST SWAP2 POP PUSH32 0xFFFFFFFFFFFFFFFFFFFFFFFFFFFFFFFFFFFFFFFFFFFFFFFFFFFFFFFFFFFFFFFF DUP3 SUB PUSH3 0x589 JUMPI PUSH3 0x588 PUSH3 0x518 JUMP JUMPDEST JUMPDEST PUSH1 0x1 DUP3 ADD SWAP1 POP SWAP2 SWAP1 POP JUMP JUMPDEST PUSH2 0x1CA1 DUP1 PUSH3 0x5A4 PUSH1 0x0 CODECOPY PUSH1 0x0 RETURN INVALID PUSH1 0x80 PUSH1 0x40 MSTORE PUSH1 0x4 CALLDATASIZE LT PUSH2 0x74 JUMPI PUSH1 0x0 CALLDATALOAD PUSH1 0xE0 SHR DUP1 PUSH4 0x9ACE38C2 GT PUSH2 0x4E JUMPI DUP1 PUSH4 0x9ACE38C2 EQ PUSH2 0x15C JUMPI DUP1 PUSH4 0xB1E130FC EQ PUSH2 0x19C JUMPI DUP1 PUSH4 0xC0C64A49 EQ PUSH2 0x1C5 JUMPI DUP1 PUSH4 0xEE22610B EQ PUSH2 0x1EE JUMPI PUSH2 0xB4 JUMP JUMPDEST DUP1 PUSH4 0x25E7C27 EQ PUSH2 0xB9 JUMPI DUP1 PUSH4 0x242232D1 EQ PUSH2 0xF6 JUMPI DUP1 PUSH4 0x2F54BF6E EQ PUSH2 0x11F JUMPI PUSH2 0xB4 JUMP JUMPDEST CALLDATASIZE PUSH2 0xB4 JUMPI PUSH32 0xE1FFFCC4923D04B559F4D29A8BFC6CDA04EB5B0D3C460751C2402C5C5CC9109C CALLER CALLVALUE PUSH1 0x40 MLOAD PUSH2 0xAA SWAP3 SWAP2 SWAP1 PUSH2 0x1192 JUMP JUMPDEST PUSH1 0x40 MLOAD DUP1 SWAP2 SUB SWAP1 LOG1 STOP JUMPDEST PUSH1 0x0 DUP1 REVERT JUMPDEST CALLVALUE DUP1 ISZERO PUSH2 0xC5 JUMPI PUSH1 0x0 DUP1 REVERT JUMPDEST POP PUSH2 0xE0 PUSH1 0x4 DUP1 CALLDATASIZE SUB DUP2 ADD SWAP1 PUSH2 0xDB SWAP2 SWAP1 PUSH2 0x11F1 JUMP JUMPDEST PUSH2 0x217 JUMP JUMPDEST PUSH1 0x40 MLOAD PUSH2 0xED SWAP2 SWAP1 PUSH2 0x121E JUMP JUMPDEST PUSH1 0x40 MLOAD DUP1 SWAP2 SUB SWAP1 RETURN JUMPDEST CALLVALUE DUP1 ISZERO PUSH2 0x102 JUMPI PUSH1 0x0 DUP1 REVERT JUMPDEST POP PUSH2 0x11D PUSH1 0x4 DUP1 CALLDATASIZE SUB DUP2 ADD SWAP1 PUSH2 0x118 SWAP2 SWAP1 PUSH2 0x11F1 JUMP JUMPDEST PUSH2 0x256 JUMP JUMPDEST STOP JUMPDEST CALLVALUE DUP1 ISZERO PUSH2 0x12B JUMPI PUSH1 0x0 DUP1 REVERT JUMPDEST POP PUSH2 0x146 PUSH1 0x4 DUP1 CALLDATASIZE SUB DUP2 ADD SWAP1 PUSH2 0x141 SWAP2 SWAP1 PUSH2 0x1265 JUMP JUMPDEST PUSH2 0x603 JUMP JUMPDEST PUSH1 0x40 MLOAD PUSH2 0x153 SWAP2 SWAP1 PUSH2 0x12AD JUMP JUMPDEST PUSH1 0x40 MLOAD DUP1 SWAP2 SUB SWAP1 RETURN JUMPDEST CALLVALUE DUP1 ISZERO PUSH2 0x168 JUMPI PUSH1 0x0 DUP1 REVERT JUMPDEST POP PUSH2 0x183 PUSH1 0x4 DUP1 CALLDATASIZE SUB DUP2 ADD SWAP1 PUSH2 0x17E SWAP2 SWAP1 PUSH2 0x11F1 JUMP JUMPDEST PUSH2 0x623 JUMP JUMPDEST PUSH1 0x40 MLOAD PUSH2 0x193 SWAP5 SWAP4 SWAP3 SWAP2 SWAP1 PUSH2 0x1358 JUMP JUMPDEST PUSH1 0x40 MLOAD DUP1 SWAP2 SUB SWAP1 RETURN JUMPDEST CALLVALUE DUP1 ISZERO PUSH2 0x1A8 JUMPI PUSH1 0x0 DUP1 REVERT JUMPDEST POP PUSH2 0x1C3 PUSH1 0x4 DUP1 CALLDATASIZE SUB DUP2 ADD SWAP1 PUSH2 0x1BE SWAP2 SWAP1 PUSH2 0x11F1 JUMP JUMPDEST PUSH2 0x718 JUMP JUMPDEST STOP JUMPDEST CALLVALUE DUP1 ISZERO PUSH2 0x1D1 JUMPI PUSH1 0x0 DUP1 REVERT JUMPDEST POP PUSH2 0x1EC PUSH1 0x4 DUP1 CALLDATASIZE SUB DUP2 ADD SWAP1 PUSH2 0x1E7 SWAP2 SWAP1 PUSH2 0x1409 JUMP JUMPDEST PUSH2 0xAC4 JUMP JUMPDEST STOP JUMPDEST CALLVALUE DUP1 ISZERO PUSH2 0x1FA JUMPI PUSH1 0x0 DUP1 REVERT JUMPDEST POP PUSH2 0x215 PUSH1 0x4 DUP1 CALLDATASIZE SUB DUP2 ADD SWAP1 PUSH2 0x210 SWAP2 SWAP1 PUSH2 0x11F1 JUMP JUMPDEST PUSH2 0xC88 JUMP JUMPDEST STOP JUMPDEST PUSH1 0x0 DUP2 DUP2 SLOAD DUP2 LT PUSH2 0x227 JUMPI PUSH1 0x0 DUP1 REVERT JUMPDEST SWAP1 PUSH1 0x0 MSTORE PUSH1 0x20 PUSH1 0x0 KECCAK256 ADD PUSH1 0x0 SWAP2 POP SLOAD SWAP1 PUSH2 0x100 EXP SWAP1 DIV PUSH20 0xFFFFFFFFFFFFFFFFFFFFFFFFFFFFFFFFFFFFFFFF AND DUP2 JUMP JUMPDEST DUP1 PUSH1 0x3 PUSH1 0x0 DUP3 DUP2 MSTORE PUSH1 0x20 ADD SWAP1 DUP2 MSTORE PUSH1 0x20 ADD PUSH1 0x0 KECCAK256 PUSH1 0x0 CALLER PUSH20 0xFFFFFFFFFFFFFFFFFFFFFFFFFFFFFFFFFFFFFFFF AND PUSH20 0xFFFFFFFFFFFFFFFFFFFFFFFFFFFFFFFFFFFFFFFF AND DUP2 MSTORE PUSH1 0x20 ADD SWAP1 DUP2 MSTORE PUSH1 0x20 ADD PUSH1 0x0 KECCAK256 PUSH1 0x0 SWAP1 SLOAD SWAP1 PUSH2 0x100 EXP SWAP1 DIV PUSH1 0xFF AND ISZERO PUSH2 0x2F5 JUMPI PUSH1 0x40 MLOAD PUSH32 0x8C379A000000000000000000000000000000000000000000000000000000000 DUP2 MSTORE PUSH1 0x4 ADD PUSH2 0x2EC SWAP1 PUSH2 0x14DA JUMP JUMPDEST PUSH1 0x40 MLOAD DUP1 SWAP2 SUB SWAP1 REVERT JUMPDEST DUP2 PUSH1 0x1 PUSH1 0x4 DUP1 SLOAD SWAP1 POP PUSH2 0x308 SWAP2 SWAP1 PUSH2 0x1529 JUMP JUMPDEST DUP2 GT ISZERO PUSH2 0x34A JUMPI PUSH1 0x40 MLOAD PUSH32 0x8C379A000000000000000000000000000000000000000000000000000000000 DUP2 MSTORE PUSH1 0x4 ADD PUSH2 0x341 SWAP1 PUSH2 0x15A9 JUMP JUMPDEST PUSH1 0x40 MLOAD DUP1 SWAP2 SUB SWAP1 REVERT JUMPDEST PUSH1 0x1 PUSH1 0x0 CALLER PUSH20 0xFFFFFFFFFFFFFFFFFFFFFFFFFFFFFFFFFFFFFFFF AND PUSH20 0xFFFFFFFFFFFFFFFFFFFFFFFFFFFFFFFFFFFFFFFF AND DUP2 MSTORE PUSH1 0x20 ADD SWAP1 DUP2 MSTORE PUSH1 0x20 ADD PUSH1 0x0 KECCAK256 PUSH1 0x0 SWAP1 SLOAD SWAP1 PUSH2 0x100 EXP SWAP1 DIV PUSH1 0xFF AND PUSH2 0x3D6 JUMPI PUSH1 0x40 MLOAD PUSH32 0x8C379A000000000000000000000000000000000000000000000000000000000 DUP2 MSTORE PUSH1 0x4 ADD PUSH2 0x3CD SWAP1 PUSH2 0x1615 JUMP JUMPDEST PUSH1 0x40 MLOAD DUP1 SWAP2 SUB SWAP1 REVERT JUMPDEST DUP3 PUSH1 0x0 PUSH1 0x4 DUP3 DUP2 SLOAD DUP2 LT PUSH2 0x3ED JUMPI PUSH2 0x3EC PUSH2 0x1635 JUMP JUMPDEST JUMPDEST SWAP1 PUSH1 0x0 MSTORE PUSH1 0x20 PUSH1 0x0 KECCAK256 SWAP1 PUSH1 0x4 MUL ADD PUSH1 0x40 MLOAD DUP1 PUSH1 0x80 ADD PUSH1 0x40 MSTORE SWAP1 DUP2 PUSH1 0x0 DUP3 ADD PUSH1 0x0 SWAP1 SLOAD SWAP1 PUSH2 0x100 EXP SWAP1 DIV PUSH20 0xFFFFFFFFFFFFFFFFFFFFFFFFFFFFFFFFFFFFFFFF AND PUSH20 0xFFFFFFFFFFFFFFFFFFFFFFFFFFFFFFFFFFFFFFFF AND PUSH20 0xFFFFFFFFFFFFFFFFFFFFFFFFFFFFFFFFFFFFFFFF AND DUP2 MSTORE PUSH1 0x20 ADD PUSH1 0x1 DUP3 ADD SLOAD DUP2 MSTORE PUSH1 0x20 ADD PUSH1 0x2 DUP3 ADD PUSH1 0x0 SWAP1 SLOAD SWAP1 PUSH2 0x100 EXP SWAP1 DIV PUSH1 0xFF AND ISZERO ISZERO ISZERO ISZERO DUP2 MSTORE PUSH1 0x20 ADD PUSH1 0x3 DUP3 ADD DUP1 SLOAD PUSH2 0x491 SWAP1 PUSH2 0x1693 JUMP JUMPDEST DUP1 PUSH1 0x1F ADD PUSH1 0x20 DUP1 SWAP2 DIV MUL PUSH1 0x20 ADD PUSH1 0x40 MLOAD SWAP1 DUP2 ADD PUSH1 0x40 MSTORE DUP1 SWAP3 SWAP2 SWAP1 DUP2 DUP2 MSTORE PUSH1 0x20 ADD DUP3 DUP1 SLOAD PUSH2 0x4BD SWAP1 PUSH2 0x1693 JUMP JUMPDEST DUP1 ISZERO PUSH2 0x50A JUMPI DUP1 PUSH1 0x1F LT PUSH2 0x4DF JUMPI PUSH2 0x100 DUP1 DUP4 SLOAD DIV MUL DUP4 MSTORE SWAP2 PUSH1 0x20 ADD SWAP2 PUSH2 0x50A JUMP JUMPDEST DUP3 ADD SWAP2 SWAP1 PUSH1 0x0 MSTORE PUSH1 0x20 PUSH1 0x0 KECCAK256 SWAP1 JUMPDEST DUP2 SLOAD DUP2 MSTORE SWAP1 PUSH1 0x1 ADD SWAP1 PUSH1 0x20 ADD DUP1 DUP4 GT PUSH2 0x4ED JUMPI DUP3 SWAP1 SUB PUSH1 0x1F AND DUP3 ADD SWAP2 JUMPDEST POP POP POP POP POP DUP2 MSTORE POP POP SWAP1 POP DUP1 PUSH1 0x40 ADD MLOAD ISZERO PUSH2 0x55A JUMPI PUSH1 0x40 MLOAD PUSH32 0x8C379A000000000000000000000000000000000000000000000000000000000 DUP2 MSTORE PUSH1 0x4 ADD PUSH2 0x551 SWAP1 PUSH2 0x1710 JUMP JUMPDEST PUSH1 0x40 MLOAD DUP1 SWAP2 SUB SWAP1 REVERT JUMPDEST PUSH1 0x1 PUSH1 0x3 PUSH1 0x0 DUP8 DUP2 MSTORE PUSH1 0x20 ADD SWAP1 DUP2 MSTORE PUSH1 0x20 ADD PUSH1 0x0 KECCAK256 PUSH1 0x0 CALLER PUSH20 0xFFFFFFFFFFFFFFFFFFFFFFFFFFFFFFFFFFFFFFFF AND PUSH20 0xFFFFFFFFFFFFFFFFFFFFFFFFFFFFFFFFFFFFFFFF AND DUP2 MSTORE PUSH1 0x20 ADD SWAP1 DUP2 MSTORE PUSH1 0x20 ADD PUSH1 0x0 KECCAK256 PUSH1 0x0 PUSH2 0x100 EXP DUP2 SLOAD DUP2 PUSH1 0xFF MUL NOT AND SWAP1 DUP4 ISZERO ISZERO MUL OR SWAP1 SSTORE POP PUSH32 0x47AD3E4B0F4BDBE3AC08708BBC45053D2FF616911B39E65563FD9BD781909645 DUP6 CALLER PUSH1 0x40 MLOAD PUSH2 0x5F4 SWAP3 SWAP2 SWAP1 PUSH2 0x1730 JUMP JUMPDEST PUSH1 0x40 MLOAD DUP1 SWAP2 SUB SWAP1 LOG1 POP POP POP POP POP JUMP JUMPDEST PUSH1 0x1 PUSH1 0x20 MSTORE DUP1 PUSH1 0x0 MSTORE PUSH1 0x40 PUSH1 0x0 KECCAK256 PUSH1 0x0 SWAP2 POP SLOAD SWAP1 PUSH2 0x100 EXP SWAP1 DIV PUSH1 0xFF AND DUP2 JUMP JUMPDEST PUSH1 0x4 DUP2 DUP2 SLOAD DUP2 LT PUSH2 0x633 JUMPI PUSH1 0x0 DUP1 REVERT JUMPDEST SWAP1 PUSH1 0x0 MSTORE PUSH1 0x20 PUSH1 0x0 KECCAK256 SWAP1 PUSH1 0x4 MUL ADD PUSH1 0x0 SWAP2 POP SWAP1 POP DUP1 PUSH1 0x0 ADD PUSH1 0x0 SWAP1 SLOAD SWAP1 PUSH2 0x100 EXP SWAP1 DIV PUSH20 0xFFFFFFFFFFFFFFFFFFFFFFFFFFFFFFFFFFFFFFFF AND SWAP1 DUP1 PUSH1 0x1 ADD SLOAD SWAP1 DUP1 PUSH1 0x2 ADD PUSH1 0x0 SWAP1 SLOAD SWAP1 PUSH2 0x100 EXP SWAP1 DIV PUSH1 0xFF AND SWAP1 DUP1 PUSH1 0x3 ADD DUP1 SLOAD PUSH2 0x695 SWAP1 PUSH2 0x1693 JUMP JUMPDEST DUP1 PUSH1 0x1F ADD PUSH1 0x20 DUP1 SWAP2 DIV MUL PUSH1 0x20 ADD PUSH1 0x40 MLOAD SWAP1 DUP2 ADD PUSH1 0x40 MSTORE DUP1 SWAP3 SWAP2 SWAP1 DUP2 DUP2 MSTORE PUSH1 0x20 ADD DUP3 DUP1 SLOAD PUSH2 0x6C1 SWAP1 PUSH2 0x1693 JUMP JUMPDEST DUP1 ISZERO PUSH2 0x70E JUMPI DUP1 PUSH1 0x1F LT PUSH2 0x6E3 JUMPI PUSH2 0x100 DUP1 DUP4 SLOAD DIV MUL DUP4 MSTORE SWAP2 PUSH1 0x20 ADD SWAP2 PUSH2 0x70E JUMP JUMPDEST DUP3 ADD SWAP2 SWAP1 PUSH1 0x0 MSTORE PUSH1 0x20 PUSH1 0x0 KECCAK256 SWAP1 JUMPDEST DUP2 SLOAD DUP2 MSTORE SWAP1 PUSH1 0x1 ADD SWAP1 PUSH1 0x20 ADD DUP1 DUP4 GT PUSH2 0x6F1 JUMPI DUP3 SWAP1 SUB PUSH1 0x1F AND DUP3 ADD SWAP2 JUMPDEST POP POP POP POP POP SWAP1 POP DUP5 JUMP JUMPDEST DUP1 PUSH1 0x3 PUSH1 0x0 DUP3 DUP2 MSTORE PUSH1 0x20 ADD SWAP1 DUP2 MSTORE PUSH1 0x20 ADD PUSH1 0x0 KECCAK256 PUSH1 0x0 CALLER PUSH20 0xFFFFFFFFFFFFFFFFFFFFFFFFFFFFFFFFFFFFFFFF AND PUSH20 0xFFFFFFFFFFFFFFFFFFFFFFFFFFFFFFFFFFFFFFFF AND DUP2 MSTORE PUSH1 0x20 ADD SWAP1 DUP2 MSTORE PUSH1 0x20 ADD PUSH1 0x0 KECCAK256 PUSH1 0x0 SWAP1 SLOAD SWAP1 PUSH2 0x100 EXP SWAP1 DIV PUSH1 0xFF AND PUSH2 0x7B6 JUMPI PUSH1 0x40 MLOAD PUSH32 0x8C379A000000000000000000000000000000000000000000000000000000000 DUP2 MSTORE PUSH1 0x4 ADD PUSH2 0x7AD SWAP1 PUSH2 0x17A5 JUMP JUMPDEST PUSH1 0x40 MLOAD DUP1 SWAP2 SUB SWAP1 REVERT JUMPDEST DUP2 PUSH1 0x1 PUSH1 0x4 DUP1 SLOAD SWAP1 POP PUSH2 0x7C9 SWAP2 SWAP1 PUSH2 0x1529 JUMP JUMPDEST DUP2 GT ISZERO PUSH2 0x80B JUMPI PUSH1 0x40 MLOAD PUSH32 0x8C379A000000000000000000000000000000000000000000000000000000000 DUP2 MSTORE PUSH1 0x4 ADD PUSH2 0x802 SWAP1 PUSH2 0x15A9 JUMP JUMPDEST PUSH1 0x40 MLOAD DUP1 SWAP2 SUB SWAP1 REVERT JUMPDEST PUSH1 0x1 PUSH1 0x0 CALLER PUSH20 0xFFFFFFFFFFFFFFFFFFFFFFFFFFFFFFFFFFFFFFFF AND PUSH20 0xFFFFFFFFFFFFFFFFFFFFFFFFFFFFFFFFFFFFFFFF AND DUP2 MSTORE PUSH1 0x20 ADD SWAP1 DUP2 MSTORE PUSH1 0x20 ADD PUSH1 0x0 KECCAK256 PUSH1 0x0 SWAP1 SLOAD SWAP1 PUSH2 0x100 EXP SWAP1 DIV PUSH1 0xFF AND PUSH2 0x897 JUMPI PUSH1 0x40 MLOAD PUSH32 0x8C379A000000000000000000000000000000000000000000000000000000000 DUP2 MSTORE PUSH1 0x4 ADD PUSH2 0x88E SWAP1 PUSH2 0x1615 JUMP JUMPDEST PUSH1 0x40 MLOAD DUP1 SWAP2 SUB SWAP1 REVERT JUMPDEST DUP3 PUSH1 0x0 PUSH1 0x4 DUP3 DUP2 SLOAD DUP2 LT PUSH2 0x8AE JUMPI PUSH2 0x8AD PUSH2 0x1635 JUMP JUMPDEST JUMPDEST SWAP1 PUSH1 0x0 MSTORE PUSH1 0x20 PUSH1 0x0 KECCAK256 SWAP1 PUSH1 0x4 MUL ADD PUSH1 0x40 MLOAD DUP1 PUSH1 0x80 ADD PUSH1 0x40 MSTORE SWAP1 DUP2 PUSH1 0x0 DUP3 ADD PUSH1 0x0 SWAP1 SLOAD SWAP1 PUSH2 0x100 EXP SWAP1 DIV PUSH20 0xFFFFFFFFFFFFFFFFFFFFFFFFFFFFFFFFFFFFFFFF AND PUSH20 0xFFFFFFFFFFFFFFFFFFFFFFFFFFFFFFFFFFFFFFFF AND PUSH20 0xFFFFFFFFFFFFFFFFFFFFFFFFFFFFFFFFFFFFFFFF AND DUP2 MSTORE PUSH1 0x20 ADD PUSH1 0x1 DUP3 ADD SLOAD DUP2 MSTORE PUSH1 0x20 ADD PUSH1 0x2 DUP3 ADD PUSH1 0x0 SWAP1 SLOAD SWAP1 PUSH2 0x100 EXP SWAP1 DIV PUSH1 0xFF AND ISZERO ISZERO ISZERO ISZERO DUP2 MSTORE PUSH1 0x20 ADD PUSH1 0x3 DUP3 ADD DUP1 SLOAD PUSH2 0x952 SWAP1 PUSH2 0x1693 JUMP JUMPDEST DUP1 PUSH1 0x1F ADD PUSH1 0x20 DUP1 SWAP2 DIV MUL PUSH1 0x20 ADD PUSH1 0x40 MLOAD SWAP1 DUP2 ADD PUSH1 0x40 MSTORE DUP1 SWAP3 SWAP2 SWAP1 DUP2 DUP2 MSTORE PUSH1 0x20 ADD DUP3 DUP1 SLOAD PUSH2 0x97E SWAP1 PUSH2 0x1693 JUMP JUMPDEST DUP1 ISZERO PUSH2 0x9CB JUMPI DUP1 PUSH1 0x1F LT PUSH2 0x9A0 JUMPI PUSH2 0x100 DUP1 DUP4 SLOAD DIV MUL DUP4 MSTORE SWAP2 PUSH1 0x20 ADD SWAP2 PUSH2 0x9CB JUMP JUMPDEST DUP3 ADD SWAP2 SWAP1 PUSH1 0x0 MSTORE PUSH1 0x20 PUSH1 0x0 KECCAK256 SWAP1 JUMPDEST DUP2 SLOAD DUP2 MSTORE SWAP1 PUSH1 0x1 ADD SWAP1 PUSH1 0x20 ADD DUP1 DUP4 GT PUSH2 0x9AE JUMPI DUP3 SWAP1 SUB PUSH1 0x1F AND DUP3 ADD SWAP2 JUMPDEST POP POP POP POP POP DUP2 MSTORE POP POP SWAP1 POP DUP1 PUSH1 0x40 ADD MLOAD ISZERO PUSH2 0xA1B JUMPI PUSH1 0x40 MLOAD PUSH32 0x8C379A000000000000000000000000000000000000000000000000000000000 DUP2 MSTORE PUSH1 0x4 ADD PUSH2 0xA12 SWAP1 PUSH2 0x1710 JUMP JUMPDEST PUSH1 0x40 MLOAD DUP1 SWAP2 SUB SWAP1 REVERT JUMPDEST PUSH1 0x0 PUSH1 0x3 PUSH1 0x0 DUP8 DUP2 MSTORE PUSH1 0x20 ADD SWAP1 DUP2 MSTORE PUSH1 0x20 ADD PUSH1 0x0 KECCAK256 PUSH1 0x0 CALLER PUSH20 0xFFFFFFFFFFFFFFFFFFFFFFFFFFFFFFFFFFFFFFFF AND PUSH20 0xFFFFFFFFFFFFFFFFFFFFFFFFFFFFFFFFFFFFFFFF AND DUP2 MSTORE PUSH1 0x20 ADD SWAP1 DUP2 MSTORE PUSH1 0x20 ADD PUSH1 0x0 KECCAK256 PUSH1 0x0 PUSH2 0x100 EXP DUP2 SLOAD DUP2 PUSH1 0xFF MUL NOT AND SWAP1 DUP4 ISZERO ISZERO MUL OR SWAP1 SSTORE POP PUSH32 0xD5D64031E0F55CF42BC3B7D0462F8404A4D63F7CCF84BE9510CD6A5300552E42 DUP6 CALLER PUSH1 0x40 MLOAD PUSH2 0xAB5 SWAP3 SWAP2 SWAP1 PUSH2 0x1730 JUMP JUMPDEST PUSH1 0x40 MLOAD DUP1 SWAP2 SUB SWAP1 LOG1 POP POP POP POP POP JUMP JUMPDEST PUSH1 0x1 PUSH1 0x0 CALLER PUSH20 0xFFFFFFFFFFFFFFFFFFFFFFFFFFFFFFFFFFFFFFFF AND PUSH20 0xFFFFFFFFFFFFFFFFFFFFFFFFFFFFFFFFFFFFFFFF AND DUP2 MSTORE PUSH1 0x20 ADD SWAP1 DUP2 MSTORE PUSH1 0x20 ADD PUSH1 0x0 KECCAK256 PUSH1 0x0 SWAP1 SLOAD SWAP1 PUSH2 0x100 EXP SWAP1 DIV PUSH1 0xFF AND PUSH2 0xB50 JUMPI PUSH1 0x40 MLOAD PUSH32 0x8C379A000000000000000000000000000000000000000000000000000000000 DUP2 MSTORE PUSH1 0x4 ADD PUSH2 0xB47 SWAP1 PUSH2 0x1615 JUMP JUMPDEST PUSH1 0x40 MLOAD DUP1 SWAP2 SUB SWAP1 REVERT JUMPDEST PUSH1 0x4 PUSH1 0x40 MLOAD DUP1 PUSH1 0x80 ADD PUSH1 0x40 MSTORE DUP1 DUP7 PUSH20 0xFFFFFFFFFFFFFFFFFFFFFFFFFFFFFFFFFFFFFFFF AND DUP2 MSTORE PUSH1 0x20 ADD DUP6 DUP2 MSTORE PUSH1 0x20 ADD PUSH1 0x0 ISZERO ISZERO DUP2 MSTORE PUSH1 0x20 ADD DUP5 DUP5 DUP1 DUP1 PUSH1 0x1F ADD PUSH1 0x20 DUP1 SWAP2 DIV MUL PUSH1 0x20 ADD PUSH1 0x40 MLOAD SWAP1 DUP2 ADD PUSH1 0x40 MSTORE DUP1 SWAP4 SWAP3 SWAP2 SWAP1 DUP2 DUP2 MSTORE PUSH1 0x20 ADD DUP4 DUP4 DUP1 DUP3 DUP5 CALLDATACOPY PUSH1 0x0 DUP2 DUP5 ADD MSTORE PUSH1 0x1F NOT PUSH1 0x1F DUP3 ADD AND SWAP1 POP DUP1 DUP4 ADD SWAP3 POP POP POP POP POP POP POP DUP2 MSTORE POP SWAP1 DUP1 PUSH1 0x1 DUP2 SLOAD ADD DUP1 DUP3 SSTORE DUP1 SWAP2 POP POP PUSH1 0x1 SWAP1 SUB SWAP1 PUSH1 0x0 MSTORE PUSH1 0x20 PUSH1 0x0 KECCAK256 SWAP1 PUSH1 0x4 MUL ADD PUSH1 0x0 SWAP1 SWAP2 SWAP1 SWAP2 SWAP1 SWAP2 POP PUSH1 0x0 DUP3 ADD MLOAD DUP2 PUSH1 0x0 ADD PUSH1 0x0 PUSH2 0x100 EXP DUP2 SLOAD DUP2 PUSH20 0xFFFFFFFFFFFFFFFFFFFFFFFFFFFFFFFFFFFFFFFF MUL NOT AND SWAP1 DUP4 PUSH20 0xFFFFFFFFFFFFFFFFFFFFFFFFFFFFFFFFFFFFFFFF AND MUL OR SWAP1 SSTORE POP PUSH1 0x20 DUP3 ADD MLOAD DUP2 PUSH1 0x1 ADD SSTORE PUSH1 0x40 DUP3 ADD MLOAD DUP2 PUSH1 0x2 ADD PUSH1 0x0 PUSH2 0x100 EXP DUP2 SLOAD DUP2 PUSH1 0xFF MUL NOT AND SWAP1 DUP4 ISZERO ISZERO MUL OR SWAP1 SSTORE POP PUSH1 0x60 DUP3 ADD MLOAD DUP2 PUSH1 0x3 ADD SWAP1 DUP2 PUSH2 0xC7F SWAP2 SWAP1 PUSH2 0x19A0 JUMP JUMPDEST POP POP POP POP POP POP POP JUMP JUMPDEST DUP1 PUSH1 0x1 PUSH1 0x4 DUP1 SLOAD SWAP1 POP PUSH2 0xC9B SWAP2 SWAP1 PUSH2 0x1529 JUMP JUMPDEST DUP2 GT ISZERO PUSH2 0xCDD JUMPI PUSH1 0x40 MLOAD PUSH32 0x8C379A000000000000000000000000000000000000000000000000000000000 DUP2 MSTORE PUSH1 0x4 ADD PUSH2 0xCD4 SWAP1 PUSH2 0x15A9 JUMP JUMPDEST PUSH1 0x40 MLOAD DUP1 SWAP2 SUB SWAP1 REVERT JUMPDEST PUSH1 0x1 PUSH1 0x0 CALLER PUSH20 0xFFFFFFFFFFFFFFFFFFFFFFFFFFFFFFFFFFFFFFFF AND PUSH20 0xFFFFFFFFFFFFFFFFFFFFFFFFFFFFFFFFFFFFFFFF AND DUP2 MSTORE PUSH1 0x20 ADD SWAP1 DUP2 MSTORE PUSH1 0x20 ADD PUSH1 0x0 KECCAK256 PUSH1 0x0 SWAP1 SLOAD SWAP1 PUSH2 0x100 EXP SWAP1 DIV PUSH1 0xFF AND PUSH2 0xD69 JUMPI PUSH1 0x40 MLOAD PUSH32 0x8C379A000000000000000000000000000000000000000000000000000000000 DUP2 MSTORE PUSH1 0x4 ADD PUSH2 0xD60 SWAP1 PUSH2 0x1615 JUMP JUMPDEST PUSH1 0x40 MLOAD DUP1 SWAP2 SUB SWAP1 REVERT JUMPDEST DUP2 PUSH1 0x0 PUSH1 0x4 DUP3 DUP2 SLOAD DUP2 LT PUSH2 0xD80 JUMPI PUSH2 0xD7F PUSH2 0x1635 JUMP JUMPDEST JUMPDEST SWAP1 PUSH1 0x0 MSTORE PUSH1 0x20 PUSH1 0x0 KECCAK256 SWAP1 PUSH1 0x4 MUL ADD PUSH1 0x40 MLOAD DUP1 PUSH1 0x80 ADD PUSH1 0x40 MSTORE SWAP1 DUP2 PUSH1 0x0 DUP3 ADD PUSH1 0x0 SWAP1 SLOAD SWAP1 PUSH2 0x100 EXP SWAP1 DIV PUSH20 0xFFFFFFFFFFFFFFFFFFFFFFFFFFFFFFFFFFFFFFFF AND PUSH20 0xFFFFFFFFFFFFFFFFFFFFFFFFFFFFFFFFFFFFFFFF AND PUSH20 0xFFFFFFFFFFFFFFFFFFFFFFFFFFFFFFFFFFFFFFFF AND DUP2 MSTORE PUSH1 0x20 ADD PUSH1 0x1 DUP3 ADD SLOAD DUP2 MSTORE PUSH1 0x20 ADD PUSH1 0x2 DUP3 ADD PUSH1 0x0 SWAP1 SLOAD SWAP1 PUSH2 0x100 EXP SWAP1 DIV PUSH1 0xFF AND ISZERO ISZERO ISZERO ISZERO DUP2 MSTORE PUSH1 0x20 ADD PUSH1 0x3 DUP3 ADD DUP1 SLOAD PUSH2 0xE24 SWAP1 PUSH2 0x1693 JUMP JUMPDEST DUP1 PUSH1 0x1F ADD PUSH1 0x20 DUP1 SWAP2 DIV MUL PUSH1 0x20 ADD PUSH1 0x40 MLOAD SWAP1 DUP2 ADD PUSH1 0x40 MSTORE DUP1 SWAP3 SWAP2 SWAP1 DUP2 DUP2 MSTORE PUSH1 0x20 ADD DUP3 DUP1 SLOAD PUSH2 0xE50 SWAP1 PUSH2 0x1693 JUMP JUMPDEST DUP1 ISZERO PUSH2 0xE9D JUMPI DUP1 PUSH1 0x1F LT PUSH2 0xE72 JUMPI PUSH2 0x100 DUP1 DUP4 SLOAD DIV MUL DUP4 MSTORE SWAP2 PUSH1 0x20 ADD SWAP2 PUSH2 0xE9D JUMP JUMPDEST DUP3 ADD SWAP2 SWAP1 PUSH1 0x0 MSTORE PUSH1 0x20 PUSH1 0x0 KECCAK256 SWAP1 JUMPDEST DUP2 SLOAD DUP2 MSTORE SWAP1 PUSH1 0x1 ADD SWAP1 PUSH1 0x20 ADD DUP1 DUP4 GT PUSH2 0xE80 JUMPI DUP3 SWAP1 SUB PUSH1 0x1F AND DUP3 ADD SWAP2 JUMPDEST POP POP POP POP POP DUP2 MSTORE POP POP SWAP1 POP DUP1 PUSH1 0x40 ADD MLOAD ISZERO PUSH2 0xEED JUMPI PUSH1 0x40 MLOAD PUSH32 0x8C379A000000000000000000000000000000000000000000000000000000000 DUP2 MSTORE PUSH1 0x4 ADD PUSH2 0xEE4 SWAP1 PUSH2 0x1710 JUMP JUMPDEST PUSH1 0x40 MLOAD DUP1 SWAP2 SUB SWAP1 REVERT JUMPDEST PUSH1 0x2 SLOAD PUSH2 0xEF9 DUP6 PUSH2 0x105E JUMP JUMPDEST LT ISZERO PUSH2 0xF3A JUMPI PUSH1 0x40 MLOAD PUSH32 0x8C379A000000000000000000000000000000000000000000000000000000000 DUP2 MSTORE PUSH1 0x4 ADD PUSH2 0xF31 SWAP1 PUSH2 0x1ABE JUMP JUMPDEST PUSH1 0x40 MLOAD DUP1 SWAP2 SUB SWAP1 REVERT JUMPDEST PUSH1 0x0 PUSH1 0x4 DUP6 DUP2 SLOAD DUP2 LT PUSH2 0xF50 JUMPI PUSH2 0xF4F PUSH2 0x1635 JUMP JUMPDEST JUMPDEST SWAP1 PUSH1 0x0 MSTORE PUSH1 0x20 PUSH1 0x0 KECCAK256 SWAP1 PUSH1 0x4 MUL ADD SWAP1 POP PUSH1 0x0 DUP2 PUSH1 0x0 ADD PUSH1 0x0 SWAP1 SLOAD SWAP1 PUSH2 0x100 EXP SWAP1 DIV PUSH20 0xFFFFFFFFFFFFFFFFFFFFFFFFFFFFFFFFFFFFFFFF AND PUSH20 0xFFFFFFFFFFFFFFFFFFFFFFFFFFFFFFFFFFFFFFFF AND DUP3 PUSH1 0x1 ADD SLOAD DUP4 PUSH1 0x3 ADD PUSH1 0x40 MLOAD PUSH2 0xFB3 SWAP2 SWAP1 PUSH2 0x1B6C JUMP JUMPDEST PUSH1 0x0 PUSH1 0x40 MLOAD DUP1 DUP4 SUB DUP2 DUP6 DUP8 GAS CALL SWAP3 POP POP POP RETURNDATASIZE DUP1 PUSH1 0x0 DUP2 EQ PUSH2 0xFF0 JUMPI PUSH1 0x40 MLOAD SWAP2 POP PUSH1 0x1F NOT PUSH1 0x3F RETURNDATASIZE ADD AND DUP3 ADD PUSH1 0x40 MSTORE RETURNDATASIZE DUP3 MSTORE RETURNDATASIZE PUSH1 0x0 PUSH1 0x20 DUP5 ADD RETURNDATACOPY PUSH2 0xFF5 JUMP JUMPDEST PUSH1 0x60 SWAP2 POP JUMPDEST POP POP SWAP1 POP DUP1 PUSH2 0x1039 JUMPI PUSH1 0x40 MLOAD PUSH32 0x8C379A000000000000000000000000000000000000000000000000000000000 DUP2 MSTORE PUSH1 0x4 ADD PUSH2 0x1030 SWAP1 PUSH2 0x1BCF JUMP JUMPDEST PUSH1 0x40 MLOAD DUP1 SWAP2 SUB SWAP1 REVERT JUMPDEST PUSH1 0x1 DUP3 PUSH1 0x2 ADD PUSH1 0x0 PUSH2 0x100 EXP DUP2 SLOAD DUP2 PUSH1 0xFF MUL NOT AND SWAP1 DUP4 ISZERO ISZERO MUL OR SWAP1 SSTORE POP POP POP POP POP POP POP JUMP JUMPDEST PUSH1 0x0 DUP1 JUMPDEST PUSH1 0x0 DUP1 SLOAD SWAP1 POP DUP2 LT ISZERO PUSH2 0x1132 JUMPI PUSH1 0x3 PUSH1 0x0 DUP5 DUP2 MSTORE PUSH1 0x20 ADD SWAP1 DUP2 MSTORE PUSH1 0x20 ADD PUSH1 0x0 KECCAK256 PUSH1 0x0 DUP1 DUP4 DUP2 SLOAD DUP2 LT PUSH2 0x1097 JUMPI PUSH2 0x1096 PUSH2 0x1635 JUMP JUMPDEST JUMPDEST SWAP1 PUSH1 0x0 MSTORE PUSH1 0x20 PUSH1 0x0 KECCAK256 ADD PUSH1 0x0 SWAP1 SLOAD SWAP1 PUSH2 0x100 EXP SWAP1 DIV PUSH20 0xFFFFFFFFFFFFFFFFFFFFFFFFFFFFFFFFFFFFFFFF AND PUSH20 0xFFFFFFFFFFFFFFFFFFFFFFFFFFFFFFFFFFFFFFFF AND PUSH20 0xFFFFFFFFFFFFFFFFFFFFFFFFFFFFFFFFFFFFFFFF AND DUP2 MSTORE PUSH1 0x20 ADD SWAP1 DUP2 MSTORE PUSH1 0x20 ADD PUSH1 0x0 KECCAK256 PUSH1 0x0 SWAP1 SLOAD SWAP1 PUSH2 0x100 EXP SWAP1 DIV PUSH1 0xFF AND ISZERO PUSH2 0x111F JUMPI PUSH1 0x1 DUP3 PUSH2 0x111C SWAP2 SWAP1 PUSH2 0x1BEF JUMP JUMPDEST SWAP2 POP JUMPDEST DUP1 DUP1 PUSH2 0x112A SWAP1 PUSH2 0x1C23 JUMP JUMPDEST SWAP2 POP POP PUSH2 0x1062 JUMP JUMPDEST POP SWAP2 SWAP1 POP JUMP JUMPDEST PUSH1 0x0 PUSH20 0xFFFFFFFFFFFFFFFFFFFFFFFFFFFFFFFFFFFFFFFF DUP3 AND SWAP1 POP SWAP2 SWAP1 POP JUMP JUMPDEST PUSH1 0x0 PUSH2 0x1163 DUP3 PUSH2 0x1138 JUMP JUMPDEST SWAP1 POP SWAP2 SWAP1 POP JUMP JUMPDEST PUSH2 0x1173 DUP2 PUSH2 0x1158 JUMP JUMPDEST DUP3 MSTORE POP POP JUMP JUMPDEST PUSH1 0x0 DUP2 SWAP1 POP SWAP2 SWAP1 POP JUMP JUMPDEST PUSH2 0x118C DUP2 PUSH2 0x1179 JUMP JUMPDEST DUP3 MSTORE POP POP JUMP JUMPDEST PUSH1 0x0 PUSH1 0x40 DUP3 ADD SWAP1 POP PUSH2 0x11A7 PUSH1 0x0 DUP4 ADD DUP6 PUSH2 0x116A JUMP JUMPDEST PUSH2 0x11B4 PUSH1 0x20 DUP4 ADD DUP5 PUSH2 0x1183 JUMP JUMPDEST SWAP4 SWAP3 POP POP POP JUMP JUMPDEST PUSH1 0x0 DUP1 REVERT JUMPDEST PUSH1 0x0 DUP1 REVERT JUMPDEST PUSH2 0x11CE DUP2 PUSH2 0x1179 JUMP JUMPDEST DUP2 EQ PUSH2 0x11D9 JUMPI PUSH1 0x0 DUP1 REVERT JUMPDEST POP JUMP JUMPDEST PUSH1 0x0 DUP2 CALLDATALOAD SWAP1 POP PUSH2 0x11EB DUP2 PUSH2 0x11C5 JUMP JUMPDEST SWAP3 SWAP2 POP POP JUMP JUMPDEST PUSH1 0x0 PUSH1 0x20 DUP3 DUP5 SUB SLT ISZERO PUSH2 0x1207 JUMPI PUSH2 0x1206 PUSH2 0x11BB JUMP JUMPDEST JUMPDEST PUSH1 0x0 PUSH2 0x1215 DUP5 DUP3 DUP6 ADD PUSH2 0x11DC JUMP JUMPDEST SWAP2 POP POP SWAP3 SWAP2 POP POP JUMP JUMPDEST PUSH1 0x0 PUSH1 0x20 DUP3 ADD SWAP1 POP PUSH2 0x1233 PUSH1 0x0 DUP4 ADD DUP5 PUSH2 0x116A JUMP JUMPDEST SWAP3 SWAP2 POP POP JUMP JUMPDEST PUSH2 0x1242 DUP2 PUSH2 0x1158 JUMP JUMPDEST DUP2 EQ PUSH2 0x124D JUMPI PUSH1 0x0 DUP1 REVERT JUMPDEST POP JUMP JUMPDEST PUSH1 0x0 DUP2 CALLDATALOAD SWAP1 POP PUSH2 0x125F DUP2 PUSH2 0x1239 JUMP JUMPDEST SWAP3 SWAP2 POP POP JUMP JUMPDEST PUSH1 0x0 PUSH1 0x20 DUP3 DUP5 SUB SLT ISZERO PUSH2 0x127B JUMPI PUSH2 0x127A PUSH2 0x11BB JUMP JUMPDEST JUMPDEST PUSH1 0x0 PUSH2 0x1289 DUP5 DUP3 DUP6 ADD PUSH2 0x1250 JUMP JUMPDEST SWAP2 POP POP SWAP3 SWAP2 POP POP JUMP JUMPDEST PUSH1 0x0 DUP2 ISZERO ISZERO SWAP1 POP SWAP2 SWAP1 POP JUMP JUMPDEST PUSH2 0x12A7 DUP2 PUSH2 0x1292 JUMP JUMPDEST DUP3 MSTORE POP POP JUMP JUMPDEST PUSH1 0x0 PUSH1 0x20 DUP3 ADD SWAP1 POP PUSH2 0x12C2 PUSH1 0x0 DUP4 ADD DUP5 PUSH2 0x129E JUMP JUMPDEST SWAP3 SWAP2 POP POP JUMP JUMPDEST PUSH1 0x0 DUP2 MLOAD SWAP1 POP SWAP2 SWAP1 POP JUMP JUMPDEST PUSH1 0x0 DUP3 DUP3 MSTORE PUSH1 0x20 DUP3 ADD SWAP1 POP SWAP3 SWAP2 POP POP JUMP JUMPDEST PUSH1 0x0 JUMPDEST DUP4 DUP2 LT ISZERO PUSH2 0x1302 JUMPI DUP1 DUP3 ADD MLOAD DUP2 DUP5 ADD MSTORE PUSH1 0x20 DUP2 ADD SWAP1 POP PUSH2 0x12E7 JUMP JUMPDEST PUSH1 0x0 DUP5 DUP5 ADD MSTORE POP POP POP POP JUMP JUMPDEST PUSH1 0x0 PUSH1 0x1F NOT PUSH1 0x1F DUP4 ADD AND SWAP1 POP SWAP2 SWAP1 POP JUMP JUMPDEST PUSH1 0x0 PUSH2 0x132A DUP3 PUSH2 0x12C8 JUMP JUMPDEST PUSH2 0x1334 DUP2 DUP6 PUSH2 0x12D3 JUMP JUMPDEST SWAP4 POP PUSH2 0x1344 DUP2 DUP6 PUSH1 0x20 DUP7 ADD PUSH2 0x12E4 JUMP JUMPDEST PUSH2 0x134D DUP2 PUSH2 0x130E JUMP JUMPDEST DUP5 ADD SWAP2 POP POP SWAP3 SWAP2 POP POP JUMP JUMPDEST PUSH1 0x0 PUSH1 0x80 DUP3 ADD SWAP1 POP PUSH2 0x136D PUSH1 0x0 DUP4 ADD DUP8 PUSH2 0x116A JUMP JUMPDEST PUSH2 0x137A PUSH1 0x20 DUP4 ADD DUP7 PUSH2 0x1183 JUMP JUMPDEST PUSH2 0x1387 PUSH1 0x40 DUP4 ADD DUP6 PUSH2 0x129E JUMP JUMPDEST DUP2 DUP2 SUB PUSH1 0x60 DUP4 ADD MSTORE PUSH2 0x1399 DUP2 DUP5 PUSH2 0x131F JUMP JUMPDEST SWAP1 POP SWAP6 SWAP5 POP POP POP POP POP JUMP JUMPDEST PUSH1 0x0 DUP1 REVERT JUMPDEST PUSH1 0x0 DUP1 REVERT JUMPDEST PUSH1 0x0 DUP1 REVERT JUMPDEST PUSH1 0x0 DUP1 DUP4 PUSH1 0x1F DUP5 ADD SLT PUSH2 0x13C9 JUMPI PUSH2 0x13C8 PUSH2 0x13A4 JUMP JUMPDEST JUMPDEST DUP3 CALLDATALOAD SWAP1 POP PUSH8 0xFFFFFFFFFFFFFFFF DUP2 GT ISZERO PUSH2 0x13E6 JUMPI PUSH2 0x13E5 PUSH2 0x13A9 JUMP JUMPDEST JUMPDEST PUSH1 0x20 DUP4 ADD SWAP2 POP DUP4 PUSH1 0x1 DUP3 MUL DUP4 ADD GT ISZERO PUSH2 0x1402 JUMPI PUSH2 0x1401 PUSH2 0x13AE JUMP JUMPDEST JUMPDEST SWAP3 POP SWAP3 SWAP1 POP JUMP JUMPDEST PUSH1 0x0 DUP1 PUSH1 0x0 DUP1 PUSH1 0x60 DUP6 DUP8 SUB SLT ISZERO PUSH2 0x1423 JUMPI PUSH2 0x1422 PUSH2 0x11BB JUMP JUMPDEST JUMPDEST PUSH1 0x0 PUSH2 0x1431 DUP8 DUP3 DUP9 ADD PUSH2 0x1250 JUMP JUMPDEST SWAP5 POP POP PUSH1 0x20 PUSH2 0x1442 DUP8 DUP3 DUP9 ADD PUSH2 0x11DC JUMP JUMPDEST SWAP4 POP POP PUSH1 0x40 DUP6 ADD CALLDATALOAD PUSH8 0xFFFFFFFFFFFFFFFF DUP2 GT ISZERO PUSH2 0x1463 JUMPI PUSH2 0x1462 PUSH2 0x11C0 JUMP JUMPDEST JUMPDEST PUSH2 0x146F DUP8 DUP3 DUP9 ADD PUSH2 0x13B3 JUMP JUMPDEST SWAP3 POP SWAP3 POP POP SWAP3 SWAP6 SWAP2 SWAP5 POP SWAP3 POP JUMP JUMPDEST PUSH1 0x0 DUP3 DUP3 MSTORE PUSH1 0x20 DUP3 ADD SWAP1 POP SWAP3 SWAP2 POP POP JUMP JUMPDEST PUSH32 0x5472616E73616374696F6E20416C726561647920417070726F7665642E2E2E00 PUSH1 0x0 DUP3 ADD MSTORE POP JUMP JUMPDEST PUSH1 0x0 PUSH2 0x14C4 PUSH1 0x1F DUP4 PUSH2 0x147D JUMP JUMPDEST SWAP2 POP PUSH2 0x14CF DUP3 PUSH2 0x148E JUMP JUMPDEST PUSH1 0x20 DUP3 ADD SWAP1 POP SWAP2 SWAP1 POP JUMP JUMPDEST PUSH1 0x0 PUSH1 0x20 DUP3 ADD SWAP1 POP DUP2 DUP2 SUB PUSH1 0x0 DUP4 ADD MSTORE PUSH2 0x14F3 DUP2 PUSH2 0x14B7 JUMP JUMPDEST SWAP1 POP SWAP2 SWAP1 POP JUMP JUMPDEST PUSH32 0x4E487B7100000000000000000000000000000000000000000000000000000000 PUSH1 0x0 MSTORE PUSH1 0x11 PUSH1 0x4 MSTORE PUSH1 0x24 PUSH1 0x0 REVERT JUMPDEST PUSH1 0x0 PUSH2 0x1534 DUP3 PUSH2 0x1179 JUMP JUMPDEST SWAP2 POP PUSH2 0x153F DUP4 PUSH2 0x1179 JUMP JUMPDEST SWAP3 POP DUP3 DUP3 SUB SWAP1 POP DUP2 DUP2 GT ISZERO PUSH2 0x1557 JUMPI PUSH2 0x1556 PUSH2 0x14FA JUMP JUMPDEST JUMPDEST SWAP3 SWAP2 POP POP JUMP JUMPDEST PUSH32 0x5472616E73616374696F6E20446F6573206E6F742045786973742E2E2E000000 PUSH1 0x0 DUP3 ADD MSTORE POP JUMP JUMPDEST PUSH1 0x0 PUSH2 0x1593 PUSH1 0x1D DUP4 PUSH2 0x147D JUMP JUMPDEST SWAP2 POP PUSH2 0x159E DUP3 PUSH2 0x155D JUMP JUMPDEST PUSH1 0x20 DUP3 ADD SWAP1 POP SWAP2 SWAP1 POP JUMP JUMPDEST PUSH1 0x0 PUSH1 0x20 DUP3 ADD SWAP1 POP DUP2 DUP2 SUB PUSH1 0x0 DUP4 ADD MSTORE PUSH2 0x15C2 DUP2 PUSH2 0x1586 JUMP JUMPDEST SWAP1 POP SWAP2 SWAP1 POP JUMP JUMPDEST PUSH32 0x4E6F7420746865204F776E65722E2E2E2E000000000000000000000000000000 PUSH1 0x0 DUP3 ADD MSTORE POP JUMP JUMPDEST PUSH1 0x0 PUSH2 0x15FF PUSH1 0x11 DUP4 PUSH2 0x147D JUMP JUMPDEST SWAP2 POP PUSH2 0x160A DUP3 PUSH2 0x15C9 JUMP JUMPDEST PUSH1 0x20 DUP3 ADD SWAP1 POP SWAP2 SWAP1 POP JUMP JUMPDEST PUSH1 0x0 PUSH1 0x20 DUP3 ADD SWAP1 POP DUP2 DUP2 SUB PUSH1 0x0 DUP4 ADD MSTORE PUSH2 0x162E DUP2 PUSH2 0x15F2 JUMP JUMPDEST SWAP1 POP SWAP2 SWAP1 POP JUMP JUMPDEST PUSH32 0x4E487B7100000000000000000000000000000000000000000000000000000000 PUSH1 0x0 MSTORE PUSH1 0x32 PUSH1 0x4 MSTORE PUSH1 0x24 PUSH1 0x0 REVERT JUMPDEST PUSH32 0x4E487B7100000000000000000000000000000000000000000000000000000000 PUSH1 0x0 MSTORE PUSH1 0x22 PUSH1 0x4 MSTORE PUSH1 0x24 PUSH1 0x0 REVERT JUMPDEST PUSH1 0x0 PUSH1 0x2 DUP3 DIV SWAP1 POP PUSH1 0x1 DUP3 AND DUP1 PUSH2 0x16AB JUMPI PUSH1 0x7F DUP3 AND SWAP2 POP JUMPDEST PUSH1 0x20 DUP3 LT DUP2 SUB PUSH2 0x16BE JUMPI PUSH2 0x16BD PUSH2 0x1664 JUMP JUMPDEST JUMPDEST POP SWAP2 SWAP1 POP JUMP JUMPDEST PUSH32 0x5472616E73616374696F6E20416C726561647920457865637574656400000000 PUSH1 0x0 DUP3 ADD MSTORE POP JUMP JUMPDEST PUSH1 0x0 PUSH2 0x16FA PUSH1 0x1C DUP4 PUSH2 0x147D JUMP JUMPDEST SWAP2 POP PUSH2 0x1705 DUP3 PUSH2 0x16C4 JUMP JUMPDEST PUSH1 0x20 DUP3 ADD SWAP1 POP SWAP2 SWAP1 POP JUMP JUMPDEST PUSH1 0x0 PUSH1 0x20 DUP3 ADD SWAP1 POP DUP2 DUP2 SUB PUSH1 0x0 DUP4 ADD MSTORE PUSH2 0x1729 DUP2 PUSH2 0x16ED JUMP JUMPDEST SWAP1 POP SWAP2 SWAP1 POP JUMP JUMPDEST PUSH1 0x0 PUSH1 0x40 DUP3 ADD SWAP1 POP PUSH2 0x1745 PUSH1 0x0 DUP4 ADD DUP6 PUSH2 0x1183 JUMP JUMPDEST PUSH2 0x1752 PUSH1 0x20 DUP4 ADD DUP5 PUSH2 0x116A JUMP JUMPDEST SWAP4 SWAP3 POP POP POP JUMP JUMPDEST PUSH32 0x5472616E73616374696F6E204E6F7420417070726F7665642E2E2E0000000000 PUSH1 0x0 DUP3 ADD MSTORE POP JUMP JUMPDEST PUSH1 0x0 PUSH2 0x178F PUSH1 0x1B DUP4 PUSH2 0x147D JUMP JUMPDEST SWAP2 POP PUSH2 0x179A DUP3 PUSH2 0x1759 JUMP JUMPDEST PUSH1 0x20 DUP3 ADD SWAP1 POP SWAP2 SWAP1 POP JUMP JUMPDEST PUSH1 0x0 PUSH1 0x20 DUP3 ADD SWAP1 POP DUP2 DUP2 SUB PUSH1 0x0 DUP4 ADD MSTORE PUSH2 0x17BE DUP2 PUSH2 0x1782 JUMP JUMPDEST SWAP1 POP SWAP2 SWAP1 POP JUMP JUMPDEST PUSH32 0x4E487B7100000000000000000000000000000000000000000000000000000000 PUSH1 0x0 MSTORE PUSH1 0x41 PUSH1 0x4 MSTORE PUSH1 0x24 PUSH1 0x0 REVERT JUMPDEST PUSH1 0x0 DUP2 SWAP1 POP DUP2 PUSH1 0x0 MSTORE PUSH1 0x20 PUSH1 0x0 KECCAK256 SWAP1 POP SWAP2 SWAP1 POP JUMP JUMPDEST PUSH1 0x0 PUSH1 0x20 PUSH1 0x1F DUP4 ADD DIV SWAP1 POP SWAP2 SWAP1 POP JUMP JUMPDEST PUSH1 0x0 DUP3 DUP3 SHL SWAP1 POP SWAP3 SWAP2 POP POP JUMP JUMPDEST PUSH1 0x0 PUSH1 0x8 DUP4 MUL PUSH2 0x1856 PUSH32 0xFFFFFFFFFFFFFFFFFFFFFFFFFFFFFFFFFFFFFFFFFFFFFFFFFFFFFFFFFFFFFFFF DUP3 PUSH2 0x1819 JUMP JUMPDEST PUSH2 0x1860 DUP7 DUP4 PUSH2 0x1819 JUMP JUMPDEST SWAP6 POP DUP1 NOT DUP5 AND SWAP4 POP DUP1 DUP7 AND DUP5 OR SWAP3 POP POP POP SWAP4 SWAP3 POP POP POP JUMP JUMPDEST PUSH1 0x0 DUP2 SWAP1 POP SWAP2 SWAP1 POP JUMP JUMPDEST PUSH1 0x0 PUSH2 0x189D PUSH2 0x1898 PUSH2 0x1893 DUP5 PUSH2 0x1179 JUMP JUMPDEST PUSH2 0x1878 JUMP JUMPDEST PUSH2 0x1179 JUMP JUMPDEST SWAP1 POP SWAP2 SWAP1 POP JUMP JUMPDEST PUSH1 0x0 DUP2 SWAP1 POP SWAP2 SWAP1 POP JUMP JUMPDEST PUSH2 0x18B7 DUP4 PUSH2 0x1882 JUMP JUMPDEST PUSH2 0x18CB PUSH2 0x18C3 DUP3 PUSH2 0x18A4 JUMP JUMPDEST DUP5 DUP5 SLOAD PUSH2 0x1826 JUMP JUMPDEST DUP3 SSTORE POP POP POP POP JUMP JUMPDEST PUSH1 0x0 SWAP1 JUMP JUMPDEST PUSH2 0x18E0 PUSH2 0x18D3 JUMP JUMPDEST PUSH2 0x18EB DUP2 DUP5 DUP5 PUSH2 0x18AE JUMP JUMPDEST POP POP POP JUMP JUMPDEST JUMPDEST DUP2 DUP2 LT ISZERO PUSH2 0x190F JUMPI PUSH2 0x1904 PUSH1 0x0 DUP3 PUSH2 0x18D8 JUMP JUMPDEST PUSH1 0x1 DUP2 ADD SWAP1 POP PUSH2 0x18F1 JUMP JUMPDEST POP POP JUMP JUMPDEST PUSH1 0x1F DUP3 GT ISZERO PUSH2 0x1954 JUMPI PUSH2 0x1925 DUP2 PUSH2 0x17F4 JUMP JUMPDEST PUSH2 0x192E DUP5 PUSH2 0x1809 JUMP JUMPDEST DUP2 ADD PUSH1 0x20 DUP6 LT ISZERO PUSH2 0x193D JUMPI DUP2 SWAP1 POP JUMPDEST PUSH2 0x1951 PUSH2 0x1949 DUP6 PUSH2 0x1809 JUMP JUMPDEST DUP4 ADD DUP3 PUSH2 0x18F0 JUMP JUMPDEST POP POP JUMPDEST POP POP POP JUMP JUMPDEST PUSH1 0x0 DUP3 DUP3 SHR SWAP1 POP SWAP3 SWAP2 POP POP JUMP JUMPDEST PUSH1 0x0 PUSH2 0x1977 PUSH1 0x0 NOT DUP5 PUSH1 0x8 MUL PUSH2 0x1959 JUMP JUMPDEST NOT DUP1 DUP4 AND SWAP2 POP POP SWAP3 SWAP2 POP POP JUMP JUMPDEST PUSH1 0x0 PUSH2 0x1990 DUP4 DUP4 PUSH2 0x1966 JUMP JUMPDEST SWAP2 POP DUP3 PUSH1 0x2 MUL DUP3 OR SWAP1 POP SWAP3 SWAP2 POP POP JUMP JUMPDEST PUSH2 0x19A9 DUP3 PUSH2 0x12C8 JUMP JUMPDEST PUSH8 0xFFFFFFFFFFFFFFFF DUP2 GT ISZERO PUSH2 0x19C2 JUMPI PUSH2 0x19C1 PUSH2 0x17C5 JUMP JUMPDEST JUMPDEST PUSH2 0x19CC DUP3 SLOAD PUSH2 0x1693 JUMP JUMPDEST PUSH2 0x19D7 DUP3 DUP3 DUP6 PUSH2 0x1913 JUMP JUMPDEST PUSH1 0x0 PUSH1 0x20 SWAP1 POP PUSH1 0x1F DUP4 GT PUSH1 0x1 DUP2 EQ PUSH2 0x1A0A JUMPI PUSH1 0x0 DUP5 ISZERO PUSH2 0x19F8 JUMPI DUP3 DUP8 ADD MLOAD SWAP1 POP JUMPDEST PUSH2 0x1A02 DUP6 DUP3 PUSH2 0x1984 JUMP JUMPDEST DUP7 SSTORE POP PUSH2 0x1A6A JUMP JUMPDEST PUSH1 0x1F NOT DUP5 AND PUSH2 0x1A18 DUP7 PUSH2 0x17F4 JUMP JUMPDEST PUSH1 0x0 JUMPDEST DUP3 DUP2 LT ISZERO PUSH2 0x1A40 JUMPI DUP5 DUP10 ADD MLOAD DUP3 SSTORE PUSH1 0x1 DUP3 ADD SWAP2 POP PUSH1 0x20 DUP6 ADD SWAP5 POP PUSH1 0x20 DUP2 ADD SWAP1 POP PUSH2 0x1A1B JUMP JUMPDEST DUP7 DUP4 LT ISZERO PUSH2 0x1A5D JUMPI DUP5 DUP10 ADD MLOAD PUSH2 0x1A59 PUSH1 0x1F DUP10 AND DUP3 PUSH2 0x1966 JUMP JUMPDEST DUP4 SSTORE POP JUMPDEST PUSH1 0x1 PUSH1 0x2 DUP9 MUL ADD DUP9 SSTORE POP POP POP JUMPDEST POP POP POP POP POP POP JUMP JUMPDEST PUSH32 0x4E6F7420456E6F75676820417070726F76616C732E2E2E000000000000000000 PUSH1 0x0 DUP3 ADD MSTORE POP JUMP JUMPDEST PUSH1 0x0 PUSH2 0x1AA8 PUSH1 0x17 DUP4 PUSH2 0x147D JUMP JUMPDEST SWAP2 POP PUSH2 0x1AB3 DUP3 PUSH2 0x1A72 JUMP JUMPDEST PUSH1 0x20 DUP3 ADD SWAP1 POP SWAP2 SWAP1 POP JUMP JUMPDEST PUSH1 0x0 PUSH1 0x20 DUP3 ADD SWAP1 POP DUP2 DUP2 SUB PUSH1 0x0 DUP4 ADD MSTORE PUSH2 0x1AD7 DUP2 PUSH2 0x1A9B JUMP JUMPDEST SWAP1 POP SWAP2 SWAP1 POP JUMP JUMPDEST PUSH1 0x0 DUP2 SWAP1 POP SWAP3 SWAP2 POP POP JUMP JUMPDEST PUSH1 0x0 DUP2 SLOAD PUSH2 0x1AF6 DUP2 PUSH2 0x1693 JUMP JUMPDEST PUSH2 0x1B00 DUP2 DUP7 PUSH2 0x1ADE JUMP JUMPDEST SWAP5 POP PUSH1 0x1 DUP3 AND PUSH1 0x0 DUP2 EQ PUSH2 0x1B1B JUMPI PUSH1 0x1 DUP2 EQ PUSH2 0x1B30 JUMPI PUSH2 0x1B63 JUMP JUMPDEST PUSH1 0xFF NOT DUP4 AND DUP7 MSTORE DUP2 ISZERO ISZERO DUP3 MUL DUP7 ADD SWAP4 POP PUSH2 0x1B63 JUMP JUMPDEST PUSH2 0x1B39 DUP6 PUSH2 0x17F4 JUMP JUMPDEST PUSH1 0x0 JUMPDEST DUP4 DUP2 LT ISZERO PUSH2 0x1B5B JUMPI DUP2 SLOAD DUP2 DUP10 ADD MSTORE PUSH1 0x1 DUP3 ADD SWAP2 POP PUSH1 0x20 DUP2 ADD SWAP1 POP PUSH2 0x1B3C JUMP JUMPDEST DUP4 DUP9 ADD SWAP6 POP POP POP JUMPDEST POP POP POP SWAP3 SWAP2 POP POP JUMP JUMPDEST PUSH1 0x0 PUSH2 0x1B78 DUP3 DUP5 PUSH2 0x1AE9 JUMP JUMPDEST SWAP2 POP DUP2 SWAP1 POP SWAP3 SWAP2 POP POP JUMP JUMPDEST PUSH32 0x5472616E73616374696F6E20496E636F6D706C65746500000000000000000000 PUSH1 0x0 DUP3 ADD MSTORE POP JUMP JUMPDEST PUSH1 0x0 PUSH2 0x1BB9 PUSH1 0x16 DUP4 PUSH2 0x147D JUMP JUMPDEST SWAP2 POP PUSH2 0x1BC4 DUP3 PUSH2 0x1B83 JUMP JUMPDEST PUSH1 0x20 DUP3 ADD SWAP1 POP SWAP2 SWAP1 POP JUMP JUMPDEST PUSH1 0x0 PUSH1 0x20 DUP3 ADD SWAP1 POP DUP2 DUP2 SUB PUSH1 0x0 DUP4 ADD MSTORE PUSH2 0x1BE8 DUP2 PUSH2 0x1BAC JUMP JUMPDEST SWAP1 POP SWAP2 SWAP1 POP JUMP JUMPDEST PUSH1 0x0 PUSH2 0x1BFA DUP3 PUSH2 0x1179 JUMP JUMPDEST SWAP2 POP PUSH2 0x1C05 DUP4 PUSH2 0x1179 JUMP JUMPDEST SWAP3 POP DUP3 DUP3 ADD SWAP1 POP DUP1 DUP3 GT ISZERO PUSH2 0x1C1D JUMPI PUSH2 0x1C1C PUSH2 0x14FA JUMP JUMPDEST JUMPDEST SWAP3 SWAP2 POP POP JUMP JUMPDEST PUSH1 0x0 PUSH2 0x1C2E DUP3 PUSH2 0x1179 JUMP JUMPDEST SWAP2 POP PUSH32 0xFFFFFFFFFFFFFFFFFFFFFFFFFFFFFFFFFFFFFFFFFFFFFFFFFFFFFFFFFFFFFFFF DUP3 SUB PUSH2 0x1C60 JUMPI PUSH2 0x1C5F PUSH2 0x14FA JUMP JUMPDEST JUMPDEST PUSH1 0x1 DUP3 ADD SWAP1 POP SWAP2 SWAP1 POP JUMP INVALID LOG2 PUSH5 0x6970667358 0x22 SLT KECCAK256 0xF 0xBE SHL 0xE4 LOG4 MSTORE STOP DUP4 ISZERO 0x29 DUP8 CODESIZE MOD PUSH18 0x2C5C125AB271153A65D5C80C8D9841C8ACE3 PUSH5 0x736F6C6343 STOP ADDMOD LT STOP CALLER "
				},
				"gasEstimates": {
					"creation": {
						"codeDepositCost": "1465800",
						"executionCost": "infinite",
						"totalCost": "infinite"
					},
					"external": {
						"approveTransaction(uint256)": "infinite",
						"executeTransaction(uint256)": "infinite",
						"isOwner(address)": "2890",
						"makeTransaction(address,uint256,bytes)": "infinite",
						"owners(uint256)": "4957",
						"revokeApproval(uint256)": "infinite",
						"transactions(uint256)": "infinite"
					},
					"internal": {
						"canExec(uint256)": "infinite"
					}
				},
				"methodIdentifiers": {
					"approveTransaction(uint256)": "242232d1",
					"executeTransaction(uint256)": "ee22610b",
					"isOwner(address)": "2f54bf6e",
					"makeTransaction(address,uint256,bytes)": "c0c64a49",
					"owners(uint256)": "025e7c27",
					"revokeApproval(uint256)": "b1e130fc",
					"transactions(uint256)": "9ace38c2"
				}
			},
			"storageLayout": {
				"storage": [
					{
						"astId": 22,
						"contract": "contracts/MultiSigWallet.sol:MultiSigWallet",
						"label": "owners",
						"offset": 0,
						"slot": "0",
						"type": "t_array(t_address)dyn_storage"
					},
					{
						"astId": 26,
						"contract": "contracts/MultiSigWallet.sol:MultiSigWallet",
						"label": "isOwner",
						"offset": 0,
						"slot": "1",
						"type": "t_mapping(t_address,t_bool)"
					},
					{
						"astId": 28,
						"contract": "contracts/MultiSigWallet.sol:MultiSigWallet",
						"label": "required",
						"offset": 0,
						"slot": "2",
						"type": "t_uint256"
					},
					{
						"astId": 34,
						"contract": "contracts/MultiSigWallet.sol:MultiSigWallet",
						"label": "approval",
						"offset": 0,
						"slot": "3",
						"type": "t_mapping(t_uint256,t_mapping(t_address,t_bool))"
					},
					{
						"astId": 47,
						"contract": "contracts/MultiSigWallet.sol:MultiSigWallet",
						"label": "transactions",
						"offset": 0,
						"slot": "4",
						"type": "t_array(t_struct(Transaction)43_storage)dyn_storage"
					}
				],
				"types": {
					"t_address": {
						"encoding": "inplace",
						"label": "address",
						"numberOfBytes": "20"
					},
					"t_array(t_address)dyn_storage": {
						"base": "t_address",
						"encoding": "dynamic_array",
						"label": "address[]",
						"numberOfBytes": "32"
					},
					"t_array(t_struct(Transaction)43_storage)dyn_storage": {
						"base": "t_struct(Transaction)43_storage",
						"encoding": "dynamic_array",
						"label": "struct MultiSigWallet.Transaction[]",
						"numberOfBytes": "32"
					},
					"t_bool": {
						"encoding": "inplace",
						"label": "bool",
						"numberOfBytes": "1"
					},
					"t_bytes_storage": {
						"encoding": "bytes",
						"label": "bytes",
						"numberOfBytes": "32"
					},
					"t_mapping(t_address,t_bool)": {
						"encoding": "mapping",
						"key": "t_address",
						"label": "mapping(address => bool)",
						"numberOfBytes": "32",
						"value": "t_bool"
					},
					"t_mapping(t_uint256,t_mapping(t_address,t_bool))": {
						"encoding": "mapping",
						"key": "t_uint256",
						"label": "mapping(uint256 => mapping(address => bool))",
						"numberOfBytes": "32",
						"value": "t_mapping(t_address,t_bool)"
					},
					"t_struct(Transaction)43_storage": {
						"encoding": "inplace",
						"label": "struct MultiSigWallet.Transaction",
						"members": [
							{
								"astId": 36,
								"contract": "contracts/MultiSigWallet.sol:MultiSigWallet",
								"label": "to",
								"offset": 0,
								"slot": "0",
								"type": "t_address"
							},
							{
								"astId": 38,
								"contract": "contracts/MultiSigWallet.sol:MultiSigWallet",
								"label": "value",
								"offset": 0,
								"slot": "1",
								"type": "t_uint256"
							},
							{
								"astId": 40,
								"contract": "contracts/MultiSigWallet.sol:MultiSigWallet",
								"label": "executed",
								"offset": 0,
								"slot": "2",
								"type": "t_bool"
							},
							{
								"astId": 42,
								"contract": "contracts/MultiSigWallet.sol:MultiSigWallet",
								"label": "data",
								"offset": 0,
								"slot": "3",
								"type": "t_bytes_storage"
							}
						],
						"numberOfBytes": "128"
					},
					"t_uint256": {
						"encoding": "inplace",
						"label": "uint256",
						"numberOfBytes": "32"
					}
				}
			},
			"userdoc": {
				"kind": "user",
				"methods": {},
				"version": 1
			}
		}
	}
}