{
	"contracts/MultiSigWallet.sol": {
		"MultiSigWallet": {
			"abi": [
				{
					"inputs": [
						{
							"internalType": "address[]",
							"name": "_owners",
							"type": "address[]"
						},
						{
							"internalType": "uint256",
							"name": "_required",
							"type": "uint256"
						}
					],
					"stateMutability": "nonpayable",
					"type": "constructor"
				},
				{
					"anonymous": false,
					"inputs": [
						{
							"indexed": false,
							"internalType": "address",
							"name": "",
							"type": "address"
						},
						{
							"indexed": false,
							"internalType": "uint256",
							"name": "",
							"type": "uint256"
						}
					],
					"name": "Deposit",
					"type": "event"
				},
				{
					"anonymous": false,
					"inputs": [],
					"name": "Submit",
					"type": "event"
				},
				{
					"inputs": [
						{
							"internalType": "uint256",
							"name": "",
							"type": "uint256"
						},
						{
							"internalType": "address",
							"name": "",
							"type": "address"
						}
					],
					"name": "approval",
					"outputs": [
						{
							"internalType": "bool",
							"name": "",
							"type": "bool"
						}
					],
					"stateMutability": "view",
					"type": "function"
				},
				{
					"inputs": [
						{
							"internalType": "uint256",
							"name": "_txId",
							"type": "uint256"
						}
					],
					"name": "approveTransaction",
					"outputs": [],
					"stateMutability": "nonpayable",
					"type": "function"
				},
				{
					"inputs": [
						{
							"internalType": "address",
							"name": "_to",
							"type": "address"
						},
						{
							"internalType": "uint256",
							"name": "_value",
							"type": "uint256"
						}
					],
					"name": "makeTransaction",
					"outputs": [],
					"stateMutability": "nonpayable",
					"type": "function"
				},
				{
					"inputs": [
						{
							"internalType": "uint256",
							"name": "",
							"type": "uint256"
						}
					],
					"name": "owners",
					"outputs": [
						{
							"internalType": "address",
							"name": "",
							"type": "address"
						}
					],
					"stateMutability": "view",
					"type": "function"
				},
				{
					"inputs": [
						{
							"internalType": "uint256",
							"name": "",
							"type": "uint256"
						}
					],
					"name": "transactions",
					"outputs": [
						{
							"internalType": "address",
							"name": "to",
							"type": "address"
						},
						{
							"internalType": "uint256",
							"name": "value",
							"type": "uint256"
						},
						{
							"internalType": "bool",
							"name": "executed",
							"type": "bool"
						}
					],
					"stateMutability": "view",
					"type": "function"
				},
				{
					"stateMutability": "payable",
					"type": "receive"
				}
			],
			"devdoc": {
				"kind": "dev",
				"methods": {},
				"version": 1
			},
			"evm": {
				"assembly": "    /* \"contracts/MultiSigWallet.sol\":69:1202  contract MultiSigWallet{... */\n  mstore(0x40, 0x80)\n    /* \"contracts/MultiSigWallet.sol\":424:577  constructor(address[] memory _owners, uint _required) {... */\n  callvalue\n  dup1\n  iszero\n  tag_1\n  jumpi\n  0x00\n  dup1\n  revert\ntag_1:\n  pop\n  mload(0x40)\n  sub(codesize, bytecodeSize)\n  dup1\n  bytecodeSize\n  dup4\n  codecopy\n  dup2\n  dup2\n  add\n  0x40\n  mstore\n  dup2\n  add\n  swap1\n  tag_2\n  swap2\n  swap1\n  tag_3\n  jump\t// in\ntag_2:\n    /* \"contracts/MultiSigWallet.sol\":493:499  uint i */\n  0x00\n    /* \"contracts/MultiSigWallet.sol\":489:539  for(uint i; i < _owners.length; i++){... */\ntag_6:\n    /* \"contracts/MultiSigWallet.sol\":505:512  _owners */\n  dup3\n    /* \"contracts/MultiSigWallet.sol\":505:519  _owners.length */\n  mload\n    /* \"contracts/MultiSigWallet.sol\":501:502  i */\n  dup2\n    /* \"contracts/MultiSigWallet.sol\":501:519  i < _owners.length */\n  lt\n    /* \"contracts/MultiSigWallet.sol\":489:539  for(uint i; i < _owners.length; i++){... */\n  iszero\n  tag_7\n  jumpi\n    /* \"contracts/MultiSigWallet.sol\":521:524  i++ */\n  dup1\n  dup1\n  tag_9\n  swap1\n  tag_10\n  jump\t// in\ntag_9:\n  swap2\n  pop\n  pop\n    /* \"contracts/MultiSigWallet.sol\":489:539  for(uint i; i < _owners.length; i++){... */\n  jump(tag_6)\ntag_7:\n  pop\n    /* \"contracts/MultiSigWallet.sol\":560:569  _required */\n  dup1\n    /* \"contracts/MultiSigWallet.sol\":549:557  required */\n  0x01\n    /* \"contracts/MultiSigWallet.sol\":549:569  required = _required */\n  dup2\n  swap1\n  sstore\n  pop\n    /* \"contracts/MultiSigWallet.sol\":424:577  constructor(address[] memory _owners, uint _required) {... */\n  pop\n  pop\n    /* \"contracts/MultiSigWallet.sol\":69:1202  contract MultiSigWallet{... */\n  jump(tag_11)\n    /* \"#utility.yul\":7:82   */\ntag_12:\n    /* \"#utility.yul\":40:46   */\n  0x00\n    /* \"#utility.yul\":73:75   */\n  0x40\n    /* \"#utility.yul\":67:76   */\n  mload\n    /* \"#utility.yul\":57:76   */\n  swap1\n  pop\n    /* \"#utility.yul\":7:82   */\n  swap1\n  jump\t// out\n    /* \"#utility.yul\":88:205   */\ntag_13:\n    /* \"#utility.yul\":197:198   */\n  0x00\n    /* \"#utility.yul\":194:195   */\n  dup1\n    /* \"#utility.yul\":187:199   */\n  revert\n    /* \"#utility.yul\":211:328   */\ntag_14:\n    /* \"#utility.yul\":320:321   */\n  0x00\n    /* \"#utility.yul\":317:318   */\n  dup1\n    /* \"#utility.yul\":310:322   */\n  revert\n    /* \"#utility.yul\":334:451   */\ntag_15:\n    /* \"#utility.yul\":443:444   */\n  0x00\n    /* \"#utility.yul\":440:441   */\n  dup1\n    /* \"#utility.yul\":433:445   */\n  revert\n    /* \"#utility.yul\":457:559   */\ntag_16:\n    /* \"#utility.yul\":498:504   */\n  0x00\n    /* \"#utility.yul\":549:551   */\n  0x1f\n    /* \"#utility.yul\":545:552   */\n  not\n    /* \"#utility.yul\":540:542   */\n  0x1f\n    /* \"#utility.yul\":533:538   */\n  dup4\n    /* \"#utility.yul\":529:543   */\n  add\n    /* \"#utility.yul\":525:553   */\n  and\n    /* \"#utility.yul\":515:553   */\n  swap1\n  pop\n    /* \"#utility.yul\":457:559   */\n  swap2\n  swap1\n  pop\n  jump\t// out\n    /* \"#utility.yul\":565:745   */\ntag_17:\n    /* \"#utility.yul\":613:690   */\n  0x4e487b7100000000000000000000000000000000000000000000000000000000\n    /* \"#utility.yul\":610:611   */\n  0x00\n    /* \"#utility.yul\":603:691   */\n  mstore\n    /* \"#utility.yul\":710:714   */\n  0x41\n    /* \"#utility.yul\":707:708   */\n  0x04\n    /* \"#utility.yul\":700:715   */\n  mstore\n    /* \"#utility.yul\":734:738   */\n  0x24\n    /* \"#utility.yul\":731:732   */\n  0x00\n    /* \"#utility.yul\":724:739   */\n  revert\n    /* \"#utility.yul\":751:1032   */\ntag_18:\n    /* \"#utility.yul\":834:861   */\n  tag_40\n    /* \"#utility.yul\":856:860   */\n  dup3\n    /* \"#utility.yul\":834:861   */\n  tag_16\n  jump\t// in\ntag_40:\n    /* \"#utility.yul\":826:832   */\n  dup2\n    /* \"#utility.yul\":822:862   */\n  add\n    /* \"#utility.yul\":964:970   */\n  dup2\n    /* \"#utility.yul\":952:962   */\n  dup2\n    /* \"#utility.yul\":949:971   */\n  lt\n    /* \"#utility.yul\":928:946   */\n  0xffffffffffffffff\n    /* \"#utility.yul\":916:926   */\n  dup3\n    /* \"#utility.yul\":913:947   */\n  gt\n    /* \"#utility.yul\":910:972   */\n  or\n    /* \"#utility.yul\":907:995   */\n  iszero\n  tag_41\n  jumpi\n    /* \"#utility.yul\":975:993   */\n  tag_42\n  tag_17\n  jump\t// in\ntag_42:\n    /* \"#utility.yul\":907:995   */\ntag_41:\n    /* \"#utility.yul\":1015:1025   */\n  dup1\n    /* \"#utility.yul\":1011:1013   */\n  0x40\n    /* \"#utility.yul\":1004:1026   */\n  mstore\n    /* \"#utility.yul\":794:1032   */\n  pop\n    /* \"#utility.yul\":751:1032   */\n  pop\n  pop\n  jump\t// out\n    /* \"#utility.yul\":1038:1167   */\ntag_19:\n    /* \"#utility.yul\":1072:1078   */\n  0x00\n    /* \"#utility.yul\":1099:1119   */\n  tag_44\n  tag_12\n  jump\t// in\ntag_44:\n    /* \"#utility.yul\":1089:1119   */\n  swap1\n  pop\n    /* \"#utility.yul\":1128:1161   */\n  tag_45\n    /* \"#utility.yul\":1156:1160   */\n  dup3\n    /* \"#utility.yul\":1148:1154   */\n  dup3\n    /* \"#utility.yul\":1128:1161   */\n  tag_18\n  jump\t// in\ntag_45:\n    /* \"#utility.yul\":1038:1167   */\n  swap2\n  swap1\n  pop\n  jump\t// out\n    /* \"#utility.yul\":1173:1484   */\ntag_20:\n    /* \"#utility.yul\":1250:1254   */\n  0x00\n    /* \"#utility.yul\":1340:1358   */\n  0xffffffffffffffff\n    /* \"#utility.yul\":1332:1338   */\n  dup3\n    /* \"#utility.yul\":1329:1359   */\n  gt\n    /* \"#utility.yul\":1326:1382   */\n  iszero\n  tag_47\n  jumpi\n    /* \"#utility.yul\":1362:1380   */\n  tag_48\n  tag_17\n  jump\t// in\ntag_48:\n    /* \"#utility.yul\":1326:1382   */\ntag_47:\n    /* \"#utility.yul\":1412:1416   */\n  0x20\n    /* \"#utility.yul\":1404:1410   */\n  dup3\n    /* \"#utility.yul\":1400:1417   */\n  mul\n    /* \"#utility.yul\":1392:1417   */\n  swap1\n  pop\n    /* \"#utility.yul\":1472:1476   */\n  0x20\n    /* \"#utility.yul\":1466:1470   */\n  dup2\n    /* \"#utility.yul\":1462:1477   */\n  add\n    /* \"#utility.yul\":1454:1477   */\n  swap1\n  pop\n    /* \"#utility.yul\":1173:1484   */\n  swap2\n  swap1\n  pop\n  jump\t// out\n    /* \"#utility.yul\":1490:1607   */\ntag_21:\n    /* \"#utility.yul\":1599:1600   */\n  0x00\n    /* \"#utility.yul\":1596:1597   */\n  dup1\n    /* \"#utility.yul\":1589:1601   */\n  revert\n    /* \"#utility.yul\":1613:1739   */\ntag_22:\n    /* \"#utility.yul\":1650:1657   */\n  0x00\n    /* \"#utility.yul\":1690:1732   */\n  0xffffffffffffffffffffffffffffffffffffffff\n    /* \"#utility.yul\":1683:1688   */\n  dup3\n    /* \"#utility.yul\":1679:1733   */\n  and\n    /* \"#utility.yul\":1668:1733   */\n  swap1\n  pop\n    /* \"#utility.yul\":1613:1739   */\n  swap2\n  swap1\n  pop\n  jump\t// out\n    /* \"#utility.yul\":1745:1841   */\ntag_23:\n    /* \"#utility.yul\":1782:1789   */\n  0x00\n    /* \"#utility.yul\":1811:1835   */\n  tag_52\n    /* \"#utility.yul\":1829:1834   */\n  dup3\n    /* \"#utility.yul\":1811:1835   */\n  tag_22\n  jump\t// in\ntag_52:\n    /* \"#utility.yul\":1800:1835   */\n  swap1\n  pop\n    /* \"#utility.yul\":1745:1841   */\n  swap2\n  swap1\n  pop\n  jump\t// out\n    /* \"#utility.yul\":1847:1969   */\ntag_24:\n    /* \"#utility.yul\":1920:1944   */\n  tag_54\n    /* \"#utility.yul\":1938:1943   */\n  dup2\n    /* \"#utility.yul\":1920:1944   */\n  tag_23\n  jump\t// in\ntag_54:\n    /* \"#utility.yul\":1913:1918   */\n  dup2\n    /* \"#utility.yul\":1910:1945   */\n  eq\n    /* \"#utility.yul\":1900:1963   */\n  tag_55\n  jumpi\n    /* \"#utility.yul\":1959:1960   */\n  0x00\n    /* \"#utility.yul\":1956:1957   */\n  dup1\n    /* \"#utility.yul\":1949:1961   */\n  revert\n    /* \"#utility.yul\":1900:1963   */\ntag_55:\n    /* \"#utility.yul\":1847:1969   */\n  pop\n  jump\t// out\n    /* \"#utility.yul\":1975:2118   */\ntag_25:\n    /* \"#utility.yul\":2032:2037   */\n  0x00\n    /* \"#utility.yul\":2063:2069   */\n  dup2\n    /* \"#utility.yul\":2057:2070   */\n  mload\n    /* \"#utility.yul\":2048:2070   */\n  swap1\n  pop\n    /* \"#utility.yul\":2079:2112   */\n  tag_57\n    /* \"#utility.yul\":2106:2111   */\n  dup2\n    /* \"#utility.yul\":2079:2112   */\n  tag_24\n  jump\t// in\ntag_57:\n    /* \"#utility.yul\":1975:2118   */\n  swap3\n  swap2\n  pop\n  pop\n  jump\t// out\n    /* \"#utility.yul\":2141:2873   */\ntag_26:\n    /* \"#utility.yul\":2248:2253   */\n  0x00\n    /* \"#utility.yul\":2273:2354   */\n  tag_59\n    /* \"#utility.yul\":2289:2353   */\n  tag_60\n    /* \"#utility.yul\":2346:2352   */\n  dup5\n    /* \"#utility.yul\":2289:2353   */\n  tag_20\n  jump\t// in\ntag_60:\n    /* \"#utility.yul\":2273:2354   */\n  tag_19\n  jump\t// in\ntag_59:\n    /* \"#utility.yul\":2264:2354   */\n  swap1\n  pop\n    /* \"#utility.yul\":2374:2379   */\n  dup1\n    /* \"#utility.yul\":2403:2409   */\n  dup4\n    /* \"#utility.yul\":2396:2401   */\n  dup3\n    /* \"#utility.yul\":2389:2410   */\n  mstore\n    /* \"#utility.yul\":2437:2441   */\n  0x20\n    /* \"#utility.yul\":2430:2435   */\n  dup3\n    /* \"#utility.yul\":2426:2442   */\n  add\n    /* \"#utility.yul\":2419:2442   */\n  swap1\n  pop\n    /* \"#utility.yul\":2490:2494   */\n  0x20\n    /* \"#utility.yul\":2482:2488   */\n  dup5\n    /* \"#utility.yul\":2478:2495   */\n  mul\n    /* \"#utility.yul\":2470:2476   */\n  dup4\n    /* \"#utility.yul\":2466:2496   */\n  add\n    /* \"#utility.yul\":2519:2522   */\n  dup6\n    /* \"#utility.yul\":2511:2517   */\n  dup2\n    /* \"#utility.yul\":2508:2523   */\n  gt\n    /* \"#utility.yul\":2505:2627   */\n  iszero\n  tag_61\n  jumpi\n    /* \"#utility.yul\":2538:2617   */\n  tag_62\n  tag_21\n  jump\t// in\ntag_62:\n    /* \"#utility.yul\":2505:2627   */\ntag_61:\n    /* \"#utility.yul\":2653:2659   */\n  dup4\n    /* \"#utility.yul\":2636:2867   */\ntag_63:\n    /* \"#utility.yul\":2670:2676   */\n  dup2\n    /* \"#utility.yul\":2665:2668   */\n  dup2\n    /* \"#utility.yul\":2662:2677   */\n  lt\n    /* \"#utility.yul\":2636:2867   */\n  iszero\n  tag_65\n  jumpi\n    /* \"#utility.yul\":2745:2748   */\n  dup1\n    /* \"#utility.yul\":2774:2822   */\n  tag_66\n    /* \"#utility.yul\":2818:2821   */\n  dup9\n    /* \"#utility.yul\":2806:2816   */\n  dup3\n    /* \"#utility.yul\":2774:2822   */\n  tag_25\n  jump\t// in\ntag_66:\n    /* \"#utility.yul\":2769:2772   */\n  dup5\n    /* \"#utility.yul\":2762:2823   */\n  mstore\n    /* \"#utility.yul\":2852:2856   */\n  0x20\n    /* \"#utility.yul\":2847:2850   */\n  dup5\n    /* \"#utility.yul\":2843:2857   */\n  add\n    /* \"#utility.yul\":2836:2857   */\n  swap4\n  pop\n    /* \"#utility.yul\":2712:2867   */\n  pop\n    /* \"#utility.yul\":2696:2700   */\n  0x20\n    /* \"#utility.yul\":2691:2694   */\n  dup2\n    /* \"#utility.yul\":2687:2701   */\n  add\n    /* \"#utility.yul\":2680:2701   */\n  swap1\n  pop\n    /* \"#utility.yul\":2636:2867   */\n  jump(tag_63)\ntag_65:\n    /* \"#utility.yul\":2640:2661   */\n  pop\n    /* \"#utility.yul\":2254:2873   */\n  pop\n  pop\n    /* \"#utility.yul\":2141:2873   */\n  swap4\n  swap3\n  pop\n  pop\n  pop\n  jump\t// out\n    /* \"#utility.yul\":2896:3281   */\ntag_27:\n    /* \"#utility.yul\":2978:2983   */\n  0x00\n    /* \"#utility.yul\":3027:3030   */\n  dup3\n    /* \"#utility.yul\":3020:3024   */\n  0x1f\n    /* \"#utility.yul\":3012:3018   */\n  dup4\n    /* \"#utility.yul\":3008:3025   */\n  add\n    /* \"#utility.yul\":3004:3031   */\n  slt\n    /* \"#utility.yul\":2994:3116   */\n  tag_68\n  jumpi\n    /* \"#utility.yul\":3035:3114   */\n  tag_69\n  tag_15\n  jump\t// in\ntag_69:\n    /* \"#utility.yul\":2994:3116   */\ntag_68:\n    /* \"#utility.yul\":3145:3151   */\n  dup2\n    /* \"#utility.yul\":3139:3152   */\n  mload\n    /* \"#utility.yul\":3170:3275   */\n  tag_70\n    /* \"#utility.yul\":3271:3274   */\n  dup5\n    /* \"#utility.yul\":3263:3269   */\n  dup3\n    /* \"#utility.yul\":3256:3260   */\n  0x20\n    /* \"#utility.yul\":3248:3254   */\n  dup7\n    /* \"#utility.yul\":3244:3261   */\n  add\n    /* \"#utility.yul\":3170:3275   */\n  tag_26\n  jump\t// in\ntag_70:\n    /* \"#utility.yul\":3161:3275   */\n  swap2\n  pop\n    /* \"#utility.yul\":2984:3281   */\n  pop\n    /* \"#utility.yul\":2896:3281   */\n  swap3\n  swap2\n  pop\n  pop\n  jump\t// out\n    /* \"#utility.yul\":3287:3364   */\ntag_28:\n    /* \"#utility.yul\":3324:3331   */\n  0x00\n    /* \"#utility.yul\":3353:3358   */\n  dup2\n    /* \"#utility.yul\":3342:3358   */\n  swap1\n  pop\n    /* \"#utility.yul\":3287:3364   */\n  swap2\n  swap1\n  pop\n  jump\t// out\n    /* \"#utility.yul\":3370:3492   */\ntag_29:\n    /* \"#utility.yul\":3443:3467   */\n  tag_73\n    /* \"#utility.yul\":3461:3466   */\n  dup2\n    /* \"#utility.yul\":3443:3467   */\n  tag_28\n  jump\t// in\ntag_73:\n    /* \"#utility.yul\":3436:3441   */\n  dup2\n    /* \"#utility.yul\":3433:3468   */\n  eq\n    /* \"#utility.yul\":3423:3486   */\n  tag_74\n  jumpi\n    /* \"#utility.yul\":3482:3483   */\n  0x00\n    /* \"#utility.yul\":3479:3480   */\n  dup1\n    /* \"#utility.yul\":3472:3484   */\n  revert\n    /* \"#utility.yul\":3423:3486   */\ntag_74:\n    /* \"#utility.yul\":3370:3492   */\n  pop\n  jump\t// out\n    /* \"#utility.yul\":3498:3641   */\ntag_30:\n    /* \"#utility.yul\":3555:3560   */\n  0x00\n    /* \"#utility.yul\":3586:3592   */\n  dup2\n    /* \"#utility.yul\":3580:3593   */\n  mload\n    /* \"#utility.yul\":3571:3593   */\n  swap1\n  pop\n    /* \"#utility.yul\":3602:3635   */\n  tag_76\n    /* \"#utility.yul\":3629:3634   */\n  dup2\n    /* \"#utility.yul\":3602:3635   */\n  tag_29\n  jump\t// in\ntag_76:\n    /* \"#utility.yul\":3498:3641   */\n  swap3\n  swap2\n  pop\n  pop\n  jump\t// out\n    /* \"#utility.yul\":3647:4357   */\ntag_3:\n    /* \"#utility.yul\":3751:3757   */\n  0x00\n    /* \"#utility.yul\":3759:3765   */\n  dup1\n    /* \"#utility.yul\":3808:3810   */\n  0x40\n    /* \"#utility.yul\":3796:3805   */\n  dup4\n    /* \"#utility.yul\":3787:3794   */\n  dup6\n    /* \"#utility.yul\":3783:3806   */\n  sub\n    /* \"#utility.yul\":3779:3811   */\n  slt\n    /* \"#utility.yul\":3776:3895   */\n  iszero\n  tag_78\n  jumpi\n    /* \"#utility.yul\":3814:3893   */\n  tag_79\n  tag_13\n  jump\t// in\ntag_79:\n    /* \"#utility.yul\":3776:3895   */\ntag_78:\n    /* \"#utility.yul\":3955:3956   */\n  0x00\n    /* \"#utility.yul\":3944:3953   */\n  dup4\n    /* \"#utility.yul\":3940:3957   */\n  add\n    /* \"#utility.yul\":3934:3958   */\n  mload\n    /* \"#utility.yul\":3985:4003   */\n  0xffffffffffffffff\n    /* \"#utility.yul\":3977:3983   */\n  dup2\n    /* \"#utility.yul\":3974:4004   */\n  gt\n    /* \"#utility.yul\":3971:4088   */\n  iszero\n  tag_80\n  jumpi\n    /* \"#utility.yul\":4007:4086   */\n  tag_81\n  tag_14\n  jump\t// in\ntag_81:\n    /* \"#utility.yul\":3971:4088   */\ntag_80:\n    /* \"#utility.yul\":4112:4201   */\n  tag_82\n    /* \"#utility.yul\":4193:4200   */\n  dup6\n    /* \"#utility.yul\":4184:4190   */\n  dup3\n    /* \"#utility.yul\":4173:4182   */\n  dup7\n    /* \"#utility.yul\":4169:4191   */\n  add\n    /* \"#utility.yul\":4112:4201   */\n  tag_27\n  jump\t// in\ntag_82:\n    /* \"#utility.yul\":4102:4201   */\n  swap3\n  pop\n    /* \"#utility.yul\":3905:4211   */\n  pop\n    /* \"#utility.yul\":4250:4252   */\n  0x20\n    /* \"#utility.yul\":4276:4340   */\n  tag_83\n    /* \"#utility.yul\":4332:4339   */\n  dup6\n    /* \"#utility.yul\":4323:4329   */\n  dup3\n    /* \"#utility.yul\":4312:4321   */\n  dup7\n    /* \"#utility.yul\":4308:4330   */\n  add\n    /* \"#utility.yul\":4276:4340   */\n  tag_30\n  jump\t// in\ntag_83:\n    /* \"#utility.yul\":4266:4340   */\n  swap2\n  pop\n    /* \"#utility.yul\":4221:4350   */\n  pop\n    /* \"#utility.yul\":3647:4357   */\n  swap3\n  pop\n  swap3\n  swap1\n  pop\n  jump\t// out\n    /* \"#utility.yul\":4363:4543   */\ntag_31:\n    /* \"#utility.yul\":4411:4488   */\n  0x4e487b7100000000000000000000000000000000000000000000000000000000\n    /* \"#utility.yul\":4408:4409   */\n  0x00\n    /* \"#utility.yul\":4401:4489   */\n  mstore\n    /* \"#utility.yul\":4508:4512   */\n  0x11\n    /* \"#utility.yul\":4505:4506   */\n  0x04\n    /* \"#utility.yul\":4498:4513   */\n  mstore\n    /* \"#utility.yul\":4532:4536   */\n  0x24\n    /* \"#utility.yul\":4529:4530   */\n  0x00\n    /* \"#utility.yul\":4522:4537   */\n  revert\n    /* \"#utility.yul\":4549:4782   */\ntag_10:\n    /* \"#utility.yul\":4588:4591   */\n  0x00\n    /* \"#utility.yul\":4611:4635   */\n  tag_86\n    /* \"#utility.yul\":4629:4634   */\n  dup3\n    /* \"#utility.yul\":4611:4635   */\n  tag_28\n  jump\t// in\ntag_86:\n    /* \"#utility.yul\":4602:4635   */\n  swap2\n  pop\n    /* \"#utility.yul\":4657:4723   */\n  0xffffffffffffffffffffffffffffffffffffffffffffffffffffffffffffffff\n    /* \"#utility.yul\":4650:4655   */\n  dup3\n    /* \"#utility.yul\":4647:4724   */\n  sub\n    /* \"#utility.yul\":4644:4747   */\n  tag_87\n  jumpi\n    /* \"#utility.yul\":4727:4745   */\n  tag_88\n  tag_31\n  jump\t// in\ntag_88:\n    /* \"#utility.yul\":4644:4747   */\ntag_87:\n    /* \"#utility.yul\":4774:4775   */\n  0x01\n    /* \"#utility.yul\":4767:4772   */\n  dup3\n    /* \"#utility.yul\":4763:4776   */\n  add\n    /* \"#utility.yul\":4756:4776   */\n  swap1\n  pop\n    /* \"#utility.yul\":4549:4782   */\n  swap2\n  swap1\n  pop\n  jump\t// out\n    /* \"contracts/MultiSigWallet.sol\":69:1202  contract MultiSigWallet{... */\ntag_11:\n  dataSize(sub_0)\n  dup1\n  dataOffset(sub_0)\n  0x00\n  codecopy\n  0x00\n  return\nstop\n\nsub_0: assembly {\n        /* \"contracts/MultiSigWallet.sol\":69:1202  contract MultiSigWallet{... */\n      mstore(0x40, 0x80)\n      jumpi(tag_1, lt(calldatasize, 0x04))\n      shr(0xe0, calldataload(0x00))\n      dup1\n      0x025e7c27\n      eq\n      tag_3\n      jumpi\n      dup1\n      0x242232d1\n      eq\n      tag_4\n      jumpi\n      dup1\n      0x9ace38c2\n      eq\n      tag_5\n      jumpi\n      dup1\n      0xb848de35\n      eq\n      tag_6\n      jumpi\n      dup1\n      0xe6beded8\n      eq\n      tag_7\n      jumpi\n      jump(tag_2)\n    tag_1:\n      jumpi(tag_2, calldatasize)\n        /* \"contracts/MultiSigWallet.sol\":910:940  Deposit(msg.sender ,msg.value) */\n      0xe1fffcc4923d04b559f4d29a8bfc6cda04eb5b0d3c460751c2402c5c5cc9109c\n        /* \"contracts/MultiSigWallet.sol\":918:928  msg.sender */\n      caller\n        /* \"contracts/MultiSigWallet.sol\":930:939  msg.value */\n      callvalue\n        /* \"contracts/MultiSigWallet.sol\":910:940  Deposit(msg.sender ,msg.value) */\n      mload(0x40)\n      tag_10\n      swap3\n      swap2\n      swap1\n      tag_11\n      jump\t// in\n    tag_10:\n      mload(0x40)\n      dup1\n      swap2\n      sub\n      swap1\n      log1\n        /* \"contracts/MultiSigWallet.sol\":69:1202  contract MultiSigWallet{... */\n      stop\n    tag_2:\n      0x00\n      dup1\n      revert\n        /* \"contracts/MultiSigWallet.sol\":158:181  address[] public owners */\n    tag_3:\n      callvalue\n      dup1\n      iszero\n      tag_12\n      jumpi\n      0x00\n      dup1\n      revert\n    tag_12:\n      pop\n      tag_13\n      0x04\n      dup1\n      calldatasize\n      sub\n      dup2\n      add\n      swap1\n      tag_14\n      swap2\n      swap1\n      tag_15\n      jump\t// in\n    tag_14:\n      tag_16\n      jump\t// in\n    tag_13:\n      mload(0x40)\n      tag_17\n      swap2\n      swap1\n      tag_18\n      jump\t// in\n    tag_17:\n      mload(0x40)\n      dup1\n      swap2\n      sub\n      swap1\n      return\n        /* \"contracts/MultiSigWallet.sol\":1093:1199  function approveTransaction(uint _txId) external notApproved(_txId) existTrans(_txId) {... */\n    tag_4:\n      callvalue\n      dup1\n      iszero\n      tag_19\n      jumpi\n      0x00\n      dup1\n      revert\n    tag_19:\n      pop\n      tag_20\n      0x04\n      dup1\n      calldatasize\n      sub\n      dup2\n      add\n      swap1\n      tag_21\n      swap2\n      swap1\n      tag_15\n      jump\t// in\n    tag_21:\n      tag_22\n      jump\t// in\n    tag_20:\n      stop\n        /* \"contracts/MultiSigWallet.sol\":382:415  Transaction[] public transactions */\n    tag_5:\n      callvalue\n      dup1\n      iszero\n      tag_23\n      jumpi\n      0x00\n      dup1\n      revert\n    tag_23:\n      pop\n      tag_24\n      0x04\n      dup1\n      calldatasize\n      sub\n      dup2\n      add\n      swap1\n      tag_25\n      swap2\n      swap1\n      tag_15\n      jump\t// in\n    tag_25:\n      tag_26\n      jump\t// in\n    tag_24:\n      mload(0x40)\n      tag_27\n      swap4\n      swap3\n      swap2\n      swap1\n      tag_28\n      jump\t// in\n    tag_27:\n      mload(0x40)\n      dup1\n      swap2\n      sub\n      swap1\n      return\n        /* \"contracts/MultiSigWallet.sol\":216:273  mapping(uint => mapping(address => bool)) public approval */\n    tag_6:\n      callvalue\n      dup1\n      iszero\n      tag_29\n      jumpi\n      0x00\n      dup1\n      revert\n    tag_29:\n      pop\n      tag_30\n      0x04\n      dup1\n      calldatasize\n      sub\n      dup2\n      add\n      swap1\n      tag_31\n      swap2\n      swap1\n      tag_32\n      jump\t// in\n    tag_31:\n      tag_33\n      jump\t// in\n    tag_30:\n      mload(0x40)\n      tag_34\n      swap2\n      swap1\n      tag_35\n      jump\t// in\n    tag_34:\n      mload(0x40)\n      dup1\n      swap2\n      sub\n      swap1\n      return\n        /* \"contracts/MultiSigWallet.sol\":956:1085  function makeTransaction(address _to, uint _value) external {... */\n    tag_7:\n      callvalue\n      dup1\n      iszero\n      tag_36\n      jumpi\n      0x00\n      dup1\n      revert\n    tag_36:\n      pop\n      tag_37\n      0x04\n      dup1\n      calldatasize\n      sub\n      dup2\n      add\n      swap1\n      tag_38\n      swap2\n      swap1\n      tag_39\n      jump\t// in\n    tag_38:\n      tag_40\n      jump\t// in\n    tag_37:\n      stop\n        /* \"contracts/MultiSigWallet.sol\":158:181  address[] public owners */\n    tag_16:\n      0x00\n      dup2\n      dup2\n      sload\n      dup2\n      lt\n      tag_41\n      jumpi\n      0x00\n      dup1\n      revert\n    tag_41:\n      swap1\n      0x00\n      mstore\n      keccak256(0x00, 0x20)\n      add\n      0x00\n      swap2\n      pop\n      sload\n      swap1\n      0x0100\n      exp\n      swap1\n      div\n      0xffffffffffffffffffffffffffffffffffffffff\n      and\n      dup2\n      jump\t// out\n        /* \"contracts/MultiSigWallet.sol\":1093:1199  function approveTransaction(uint _txId) external notApproved(_txId) existTrans(_txId) {... */\n    tag_22:\n        /* \"contracts/MultiSigWallet.sol\":1154:1159  _txId */\n      dup1\n        /* \"contracts/MultiSigWallet.sol\":638:646  approval */\n      0x02\n        /* \"contracts/MultiSigWallet.sol\":638:653  approval[_txId] */\n      0x00\n        /* \"contracts/MultiSigWallet.sol\":647:652  _txId */\n      dup3\n        /* \"contracts/MultiSigWallet.sol\":638:653  approval[_txId] */\n      dup2\n      mstore\n      0x20\n      add\n      swap1\n      dup2\n      mstore\n      0x20\n      add\n      0x00\n      keccak256\n        /* \"contracts/MultiSigWallet.sol\":638:665  approval[_txId][msg.sender] */\n      0x00\n        /* \"contracts/MultiSigWallet.sol\":654:664  msg.sender */\n      caller\n        /* \"contracts/MultiSigWallet.sol\":638:665  approval[_txId][msg.sender] */\n      0xffffffffffffffffffffffffffffffffffffffff\n      and\n      0xffffffffffffffffffffffffffffffffffffffff\n      and\n      dup2\n      mstore\n      0x20\n      add\n      swap1\n      dup2\n      mstore\n      0x20\n      add\n      0x00\n      keccak256\n      0x00\n      swap1\n      sload\n      swap1\n      0x0100\n      exp\n      swap1\n      div\n      0xff\n      and\n        /* \"contracts/MultiSigWallet.sol\":637:665  !approval[_txId][msg.sender] */\n      iszero\n        /* \"contracts/MultiSigWallet.sol\":629:700  require(!approval[_txId][msg.sender],\"Transaction Already Approved...\") */\n      tag_44\n      jumpi\n      mload(0x40)\n      0x08c379a000000000000000000000000000000000000000000000000000000000\n      dup2\n      mstore\n      0x04\n      add\n      tag_45\n      swap1\n      tag_46\n      jump\t// in\n    tag_45:\n      mload(0x40)\n      dup1\n      swap2\n      sub\n      swap1\n      revert\n    tag_44:\n        /* \"contracts/MultiSigWallet.sol\":1172:1177  _txId */\n      dup2\n        /* \"contracts/MultiSigWallet.sol\":804:805  1 */\n      0x01\n        /* \"contracts/MultiSigWallet.sol\":788:794  owners */\n      0x00\n        /* \"contracts/MultiSigWallet.sol\":788:801  owners.length */\n      dup1\n      sload\n      swap1\n      pop\n        /* \"contracts/MultiSigWallet.sol\":788:805  owners.length - 1 */\n      tag_48\n      swap2\n      swap1\n      tag_49\n      jump\t// in\n    tag_48:\n        /* \"contracts/MultiSigWallet.sol\":779:784  _txId */\n      dup2\n        /* \"contracts/MultiSigWallet.sol\":779:805  _txId <= owners.length - 1 */\n      gt\n      iszero\n        /* \"contracts/MultiSigWallet.sol\":771:838  require(_txId <= owners.length - 1,\"Transaction Does not Exist...\") */\n      tag_50\n      jumpi\n      mload(0x40)\n      0x08c379a000000000000000000000000000000000000000000000000000000000\n      dup2\n      mstore\n      0x04\n      add\n      tag_51\n      swap1\n      tag_52\n      jump\t// in\n    tag_51:\n      mload(0x40)\n      dup1\n      swap2\n      sub\n      swap1\n      revert\n    tag_50:\n        /* \"contracts/MultiSigWallet.sol\":711:712  _ */\n      pop\n        /* \"contracts/MultiSigWallet.sol\":1093:1199  function approveTransaction(uint _txId) external notApproved(_txId) existTrans(_txId) {... */\n      pop\n      pop\n      jump\t// out\n        /* \"contracts/MultiSigWallet.sol\":382:415  Transaction[] public transactions */\n    tag_26:\n      0x03\n      dup2\n      dup2\n      sload\n      dup2\n      lt\n      tag_54\n      jumpi\n      0x00\n      dup1\n      revert\n    tag_54:\n      swap1\n      0x00\n      mstore\n      keccak256(0x00, 0x20)\n      swap1\n      0x03\n      mul\n      add\n      0x00\n      swap2\n      pop\n      swap1\n      pop\n      dup1\n      0x00\n      add\n      0x00\n      swap1\n      sload\n      swap1\n      0x0100\n      exp\n      swap1\n      div\n      0xffffffffffffffffffffffffffffffffffffffff\n      and\n      swap1\n      dup1\n      0x01\n      add\n      sload\n      swap1\n      dup1\n      0x02\n      add\n      0x00\n      swap1\n      sload\n      swap1\n      0x0100\n      exp\n      swap1\n      div\n      0xff\n      and\n      swap1\n      pop\n      dup4\n      jump\t// out\n        /* \"contracts/MultiSigWallet.sol\":216:273  mapping(uint => mapping(address => bool)) public approval */\n    tag_33:\n      mstore(0x20, 0x02)\n      dup2\n      0x00\n      mstore\n      mstore(0x20, keccak256(0x00, 0x40))\n      dup1\n      0x00\n      mstore\n      keccak256(0x00, 0x40)\n      0x00\n      swap2\n      pop\n      swap2\n      pop\n      swap1\n      sload\n      swap1\n      0x0100\n      exp\n      swap1\n      div\n      0xff\n      and\n      dup2\n      jump\t// out\n        /* \"contracts/MultiSigWallet.sol\":956:1085  function makeTransaction(address _to, uint _value) external {... */\n    tag_40:\n        /* \"contracts/MultiSigWallet.sol\":1027:1039  transactions */\n      0x03\n        /* \"contracts/MultiSigWallet.sol\":1045:1074  Transaction(_to,_value,false) */\n      mload(0x40)\n      dup1\n      0x60\n      add\n      0x40\n      mstore\n      dup1\n        /* \"contracts/MultiSigWallet.sol\":1057:1060  _to */\n      dup5\n        /* \"contracts/MultiSigWallet.sol\":1045:1074  Transaction(_to,_value,false) */\n      0xffffffffffffffffffffffffffffffffffffffff\n      and\n      dup2\n      mstore\n      0x20\n      add\n        /* \"contracts/MultiSigWallet.sol\":1061:1067  _value */\n      dup4\n        /* \"contracts/MultiSigWallet.sol\":1045:1074  Transaction(_to,_value,false) */\n      dup2\n      mstore\n      0x20\n      add\n        /* \"contracts/MultiSigWallet.sol\":1068:1073  false */\n      0x00\n        /* \"contracts/MultiSigWallet.sol\":1045:1074  Transaction(_to,_value,false) */\n      iszero\n      iszero\n      dup2\n      mstore\n      pop\n        /* \"contracts/MultiSigWallet.sol\":1027:1075  transactions.push(Transaction(_to,_value,false)) */\n      swap1\n      dup1\n      0x01\n      dup2\n      sload\n      add\n      dup1\n      dup3\n      sstore\n      dup1\n      swap2\n      pop\n      pop\n      0x01\n      swap1\n      sub\n      swap1\n      0x00\n      mstore\n      keccak256(0x00, 0x20)\n      swap1\n      0x03\n      mul\n      add\n      0x00\n      swap1\n      swap2\n      swap1\n      swap2\n      swap1\n      swap2\n      pop\n      0x00\n      dup3\n      add\n      mload\n      dup2\n      0x00\n      add\n      exp(0x0100, 0x00)\n      dup2\n      sload\n      dup2\n      0xffffffffffffffffffffffffffffffffffffffff\n      mul\n      not\n      and\n      swap1\n      dup4\n      0xffffffffffffffffffffffffffffffffffffffff\n      and\n      mul\n      or\n      swap1\n      sstore\n      pop\n      0x20\n      dup3\n      add\n      mload\n      dup2\n      0x01\n      add\n      sstore\n      0x40\n      dup3\n      add\n      mload\n      dup2\n      0x02\n      add\n      exp(0x0100, 0x00)\n      dup2\n      sload\n      dup2\n      0xff\n      mul\n      not\n      and\n      swap1\n      dup4\n      iszero\n      iszero\n      mul\n      or\n      swap1\n      sstore\n      pop\n      pop\n      pop\n        /* \"contracts/MultiSigWallet.sol\":956:1085  function makeTransaction(address _to, uint _value) external {... */\n      pop\n      pop\n      jump\t// out\n        /* \"#utility.yul\":7:133   */\n    tag_58:\n        /* \"#utility.yul\":44:51   */\n      0x00\n        /* \"#utility.yul\":84:126   */\n      0xffffffffffffffffffffffffffffffffffffffff\n        /* \"#utility.yul\":77:82   */\n      dup3\n        /* \"#utility.yul\":73:127   */\n      and\n        /* \"#utility.yul\":62:127   */\n      swap1\n      pop\n        /* \"#utility.yul\":7:133   */\n      swap2\n      swap1\n      pop\n      jump\t// out\n        /* \"#utility.yul\":139:235   */\n    tag_59:\n        /* \"#utility.yul\":176:183   */\n      0x00\n        /* \"#utility.yul\":205:229   */\n      tag_81\n        /* \"#utility.yul\":223:228   */\n      dup3\n        /* \"#utility.yul\":205:229   */\n      tag_58\n      jump\t// in\n    tag_81:\n        /* \"#utility.yul\":194:229   */\n      swap1\n      pop\n        /* \"#utility.yul\":139:235   */\n      swap2\n      swap1\n      pop\n      jump\t// out\n        /* \"#utility.yul\":241:359   */\n    tag_60:\n        /* \"#utility.yul\":328:352   */\n      tag_83\n        /* \"#utility.yul\":346:351   */\n      dup2\n        /* \"#utility.yul\":328:352   */\n      tag_59\n      jump\t// in\n    tag_83:\n        /* \"#utility.yul\":323:326   */\n      dup3\n        /* \"#utility.yul\":316:353   */\n      mstore\n        /* \"#utility.yul\":241:359   */\n      pop\n      pop\n      jump\t// out\n        /* \"#utility.yul\":365:442   */\n    tag_61:\n        /* \"#utility.yul\":402:409   */\n      0x00\n        /* \"#utility.yul\":431:436   */\n      dup2\n        /* \"#utility.yul\":420:436   */\n      swap1\n      pop\n        /* \"#utility.yul\":365:442   */\n      swap2\n      swap1\n      pop\n      jump\t// out\n        /* \"#utility.yul\":448:566   */\n    tag_62:\n        /* \"#utility.yul\":535:559   */\n      tag_86\n        /* \"#utility.yul\":553:558   */\n      dup2\n        /* \"#utility.yul\":535:559   */\n      tag_61\n      jump\t// in\n    tag_86:\n        /* \"#utility.yul\":530:533   */\n      dup3\n        /* \"#utility.yul\":523:560   */\n      mstore\n        /* \"#utility.yul\":448:566   */\n      pop\n      pop\n      jump\t// out\n        /* \"#utility.yul\":572:904   */\n    tag_11:\n        /* \"#utility.yul\":693:697   */\n      0x00\n        /* \"#utility.yul\":731:733   */\n      0x40\n        /* \"#utility.yul\":720:729   */\n      dup3\n        /* \"#utility.yul\":716:734   */\n      add\n        /* \"#utility.yul\":708:734   */\n      swap1\n      pop\n        /* \"#utility.yul\":744:815   */\n      tag_88\n        /* \"#utility.yul\":812:813   */\n      0x00\n        /* \"#utility.yul\":801:810   */\n      dup4\n        /* \"#utility.yul\":797:814   */\n      add\n        /* \"#utility.yul\":788:794   */\n      dup6\n        /* \"#utility.yul\":744:815   */\n      tag_60\n      jump\t// in\n    tag_88:\n        /* \"#utility.yul\":825:897   */\n      tag_89\n        /* \"#utility.yul\":893:895   */\n      0x20\n        /* \"#utility.yul\":882:891   */\n      dup4\n        /* \"#utility.yul\":878:896   */\n      add\n        /* \"#utility.yul\":869:875   */\n      dup5\n        /* \"#utility.yul\":825:897   */\n      tag_62\n      jump\t// in\n    tag_89:\n        /* \"#utility.yul\":572:904   */\n      swap4\n      swap3\n      pop\n      pop\n      pop\n      jump\t// out\n        /* \"#utility.yul\":991:1108   */\n    tag_64:\n        /* \"#utility.yul\":1100:1101   */\n      0x00\n        /* \"#utility.yul\":1097:1098   */\n      dup1\n        /* \"#utility.yul\":1090:1102   */\n      revert\n        /* \"#utility.yul\":1237:1359   */\n    tag_66:\n        /* \"#utility.yul\":1310:1334   */\n      tag_94\n        /* \"#utility.yul\":1328:1333   */\n      dup2\n        /* \"#utility.yul\":1310:1334   */\n      tag_61\n      jump\t// in\n    tag_94:\n        /* \"#utility.yul\":1303:1308   */\n      dup2\n        /* \"#utility.yul\":1300:1335   */\n      eq\n        /* \"#utility.yul\":1290:1353   */\n      tag_95\n      jumpi\n        /* \"#utility.yul\":1349:1350   */\n      0x00\n        /* \"#utility.yul\":1346:1347   */\n      dup1\n        /* \"#utility.yul\":1339:1351   */\n      revert\n        /* \"#utility.yul\":1290:1353   */\n    tag_95:\n        /* \"#utility.yul\":1237:1359   */\n      pop\n      jump\t// out\n        /* \"#utility.yul\":1365:1504   */\n    tag_67:\n        /* \"#utility.yul\":1411:1416   */\n      0x00\n        /* \"#utility.yul\":1449:1455   */\n      dup2\n        /* \"#utility.yul\":1436:1456   */\n      calldataload\n        /* \"#utility.yul\":1427:1456   */\n      swap1\n      pop\n        /* \"#utility.yul\":1465:1498   */\n      tag_97\n        /* \"#utility.yul\":1492:1497   */\n      dup2\n        /* \"#utility.yul\":1465:1498   */\n      tag_66\n      jump\t// in\n    tag_97:\n        /* \"#utility.yul\":1365:1504   */\n      swap3\n      swap2\n      pop\n      pop\n      jump\t// out\n        /* \"#utility.yul\":1510:1839   */\n    tag_15:\n        /* \"#utility.yul\":1569:1575   */\n      0x00\n        /* \"#utility.yul\":1618:1620   */\n      0x20\n        /* \"#utility.yul\":1606:1615   */\n      dup3\n        /* \"#utility.yul\":1597:1604   */\n      dup5\n        /* \"#utility.yul\":1593:1616   */\n      sub\n        /* \"#utility.yul\":1589:1621   */\n      slt\n        /* \"#utility.yul\":1586:1705   */\n      iszero\n      tag_99\n      jumpi\n        /* \"#utility.yul\":1624:1703   */\n      tag_100\n      tag_64\n      jump\t// in\n    tag_100:\n        /* \"#utility.yul\":1586:1705   */\n    tag_99:\n        /* \"#utility.yul\":1744:1745   */\n      0x00\n        /* \"#utility.yul\":1769:1822   */\n      tag_101\n        /* \"#utility.yul\":1814:1821   */\n      dup5\n        /* \"#utility.yul\":1805:1811   */\n      dup3\n        /* \"#utility.yul\":1794:1803   */\n      dup6\n        /* \"#utility.yul\":1790:1812   */\n      add\n        /* \"#utility.yul\":1769:1822   */\n      tag_67\n      jump\t// in\n    tag_101:\n        /* \"#utility.yul\":1759:1822   */\n      swap2\n      pop\n        /* \"#utility.yul\":1715:1832   */\n      pop\n        /* \"#utility.yul\":1510:1839   */\n      swap3\n      swap2\n      pop\n      pop\n      jump\t// out\n        /* \"#utility.yul\":1845:2067   */\n    tag_18:\n        /* \"#utility.yul\":1938:1942   */\n      0x00\n        /* \"#utility.yul\":1976:1978   */\n      0x20\n        /* \"#utility.yul\":1965:1974   */\n      dup3\n        /* \"#utility.yul\":1961:1979   */\n      add\n        /* \"#utility.yul\":1953:1979   */\n      swap1\n      pop\n        /* \"#utility.yul\":1989:2060   */\n      tag_103\n        /* \"#utility.yul\":2057:2058   */\n      0x00\n        /* \"#utility.yul\":2046:2055   */\n      dup4\n        /* \"#utility.yul\":2042:2059   */\n      add\n        /* \"#utility.yul\":2033:2039   */\n      dup5\n        /* \"#utility.yul\":1989:2060   */\n      tag_60\n      jump\t// in\n    tag_103:\n        /* \"#utility.yul\":1845:2067   */\n      swap3\n      swap2\n      pop\n      pop\n      jump\t// out\n        /* \"#utility.yul\":2073:2163   */\n    tag_68:\n        /* \"#utility.yul\":2107:2114   */\n      0x00\n        /* \"#utility.yul\":2150:2155   */\n      dup2\n        /* \"#utility.yul\":2143:2156   */\n      iszero\n        /* \"#utility.yul\":2136:2157   */\n      iszero\n        /* \"#utility.yul\":2125:2157   */\n      swap1\n      pop\n        /* \"#utility.yul\":2073:2163   */\n      swap2\n      swap1\n      pop\n      jump\t// out\n        /* \"#utility.yul\":2169:2278   */\n    tag_69:\n        /* \"#utility.yul\":2250:2271   */\n      tag_106\n        /* \"#utility.yul\":2265:2270   */\n      dup2\n        /* \"#utility.yul\":2250:2271   */\n      tag_68\n      jump\t// in\n    tag_106:\n        /* \"#utility.yul\":2245:2248   */\n      dup3\n        /* \"#utility.yul\":2238:2272   */\n      mstore\n        /* \"#utility.yul\":2169:2278   */\n      pop\n      pop\n      jump\t// out\n        /* \"#utility.yul\":2284:2714   */\n    tag_28:\n        /* \"#utility.yul\":2427:2431   */\n      0x00\n        /* \"#utility.yul\":2465:2467   */\n      0x60\n        /* \"#utility.yul\":2454:2463   */\n      dup3\n        /* \"#utility.yul\":2450:2468   */\n      add\n        /* \"#utility.yul\":2442:2468   */\n      swap1\n      pop\n        /* \"#utility.yul\":2478:2549   */\n      tag_108\n        /* \"#utility.yul\":2546:2547   */\n      0x00\n        /* \"#utility.yul\":2535:2544   */\n      dup4\n        /* \"#utility.yul\":2531:2548   */\n      add\n        /* \"#utility.yul\":2522:2528   */\n      dup7\n        /* \"#utility.yul\":2478:2549   */\n      tag_60\n      jump\t// in\n    tag_108:\n        /* \"#utility.yul\":2559:2631   */\n      tag_109\n        /* \"#utility.yul\":2627:2629   */\n      0x20\n        /* \"#utility.yul\":2616:2625   */\n      dup4\n        /* \"#utility.yul\":2612:2630   */\n      add\n        /* \"#utility.yul\":2603:2609   */\n      dup6\n        /* \"#utility.yul\":2559:2631   */\n      tag_62\n      jump\t// in\n    tag_109:\n        /* \"#utility.yul\":2641:2707   */\n      tag_110\n        /* \"#utility.yul\":2703:2705   */\n      0x40\n        /* \"#utility.yul\":2692:2701   */\n      dup4\n        /* \"#utility.yul\":2688:2706   */\n      add\n        /* \"#utility.yul\":2679:2685   */\n      dup5\n        /* \"#utility.yul\":2641:2707   */\n      tag_69\n      jump\t// in\n    tag_110:\n        /* \"#utility.yul\":2284:2714   */\n      swap5\n      swap4\n      pop\n      pop\n      pop\n      pop\n      jump\t// out\n        /* \"#utility.yul\":2720:2842   */\n    tag_70:\n        /* \"#utility.yul\":2793:2817   */\n      tag_112\n        /* \"#utility.yul\":2811:2816   */\n      dup2\n        /* \"#utility.yul\":2793:2817   */\n      tag_59\n      jump\t// in\n    tag_112:\n        /* \"#utility.yul\":2786:2791   */\n      dup2\n        /* \"#utility.yul\":2783:2818   */\n      eq\n        /* \"#utility.yul\":2773:2836   */\n      tag_113\n      jumpi\n        /* \"#utility.yul\":2832:2833   */\n      0x00\n        /* \"#utility.yul\":2829:2830   */\n      dup1\n        /* \"#utility.yul\":2822:2834   */\n      revert\n        /* \"#utility.yul\":2773:2836   */\n    tag_113:\n        /* \"#utility.yul\":2720:2842   */\n      pop\n      jump\t// out\n        /* \"#utility.yul\":2848:2987   */\n    tag_71:\n        /* \"#utility.yul\":2894:2899   */\n      0x00\n        /* \"#utility.yul\":2932:2938   */\n      dup2\n        /* \"#utility.yul\":2919:2939   */\n      calldataload\n        /* \"#utility.yul\":2910:2939   */\n      swap1\n      pop\n        /* \"#utility.yul\":2948:2981   */\n      tag_115\n        /* \"#utility.yul\":2975:2980   */\n      dup2\n        /* \"#utility.yul\":2948:2981   */\n      tag_70\n      jump\t// in\n    tag_115:\n        /* \"#utility.yul\":2848:2987   */\n      swap3\n      swap2\n      pop\n      pop\n      jump\t// out\n        /* \"#utility.yul\":2993:3467   */\n    tag_32:\n        /* \"#utility.yul\":3061:3067   */\n      0x00\n        /* \"#utility.yul\":3069:3075   */\n      dup1\n        /* \"#utility.yul\":3118:3120   */\n      0x40\n        /* \"#utility.yul\":3106:3115   */\n      dup4\n        /* \"#utility.yul\":3097:3104   */\n      dup6\n        /* \"#utility.yul\":3093:3116   */\n      sub\n        /* \"#utility.yul\":3089:3121   */\n      slt\n        /* \"#utility.yul\":3086:3205   */\n      iszero\n      tag_117\n      jumpi\n        /* \"#utility.yul\":3124:3203   */\n      tag_118\n      tag_64\n      jump\t// in\n    tag_118:\n        /* \"#utility.yul\":3086:3205   */\n    tag_117:\n        /* \"#utility.yul\":3244:3245   */\n      0x00\n        /* \"#utility.yul\":3269:3322   */\n      tag_119\n        /* \"#utility.yul\":3314:3321   */\n      dup6\n        /* \"#utility.yul\":3305:3311   */\n      dup3\n        /* \"#utility.yul\":3294:3303   */\n      dup7\n        /* \"#utility.yul\":3290:3312   */\n      add\n        /* \"#utility.yul\":3269:3322   */\n      tag_67\n      jump\t// in\n    tag_119:\n        /* \"#utility.yul\":3259:3322   */\n      swap3\n      pop\n        /* \"#utility.yul\":3215:3332   */\n      pop\n        /* \"#utility.yul\":3371:3373   */\n      0x20\n        /* \"#utility.yul\":3397:3450   */\n      tag_120\n        /* \"#utility.yul\":3442:3449   */\n      dup6\n        /* \"#utility.yul\":3433:3439   */\n      dup3\n        /* \"#utility.yul\":3422:3431   */\n      dup7\n        /* \"#utility.yul\":3418:3440   */\n      add\n        /* \"#utility.yul\":3397:3450   */\n      tag_71\n      jump\t// in\n    tag_120:\n        /* \"#utility.yul\":3387:3450   */\n      swap2\n      pop\n        /* \"#utility.yul\":3342:3460   */\n      pop\n        /* \"#utility.yul\":2993:3467   */\n      swap3\n      pop\n      swap3\n      swap1\n      pop\n      jump\t// out\n        /* \"#utility.yul\":3473:3683   */\n    tag_35:\n        /* \"#utility.yul\":3560:3564   */\n      0x00\n        /* \"#utility.yul\":3598:3600   */\n      0x20\n        /* \"#utility.yul\":3587:3596   */\n      dup3\n        /* \"#utility.yul\":3583:3601   */\n      add\n        /* \"#utility.yul\":3575:3601   */\n      swap1\n      pop\n        /* \"#utility.yul\":3611:3676   */\n      tag_122\n        /* \"#utility.yul\":3673:3674   */\n      0x00\n        /* \"#utility.yul\":3662:3671   */\n      dup4\n        /* \"#utility.yul\":3658:3675   */\n      add\n        /* \"#utility.yul\":3649:3655   */\n      dup5\n        /* \"#utility.yul\":3611:3676   */\n      tag_69\n      jump\t// in\n    tag_122:\n        /* \"#utility.yul\":3473:3683   */\n      swap3\n      swap2\n      pop\n      pop\n      jump\t// out\n        /* \"#utility.yul\":3689:4163   */\n    tag_39:\n        /* \"#utility.yul\":3757:3763   */\n      0x00\n        /* \"#utility.yul\":3765:3771   */\n      dup1\n        /* \"#utility.yul\":3814:3816   */\n      0x40\n        /* \"#utility.yul\":3802:3811   */\n      dup4\n        /* \"#utility.yul\":3793:3800   */\n      dup6\n        /* \"#utility.yul\":3789:3812   */\n      sub\n        /* \"#utility.yul\":3785:3817   */\n      slt\n        /* \"#utility.yul\":3782:3901   */\n      iszero\n      tag_124\n      jumpi\n        /* \"#utility.yul\":3820:3899   */\n      tag_125\n      tag_64\n      jump\t// in\n    tag_125:\n        /* \"#utility.yul\":3782:3901   */\n    tag_124:\n        /* \"#utility.yul\":3940:3941   */\n      0x00\n        /* \"#utility.yul\":3965:4018   */\n      tag_126\n        /* \"#utility.yul\":4010:4017   */\n      dup6\n        /* \"#utility.yul\":4001:4007   */\n      dup3\n        /* \"#utility.yul\":3990:3999   */\n      dup7\n        /* \"#utility.yul\":3986:4008   */\n      add\n        /* \"#utility.yul\":3965:4018   */\n      tag_71\n      jump\t// in\n    tag_126:\n        /* \"#utility.yul\":3955:4018   */\n      swap3\n      pop\n        /* \"#utility.yul\":3911:4028   */\n      pop\n        /* \"#utility.yul\":4067:4069   */\n      0x20\n        /* \"#utility.yul\":4093:4146   */\n      tag_127\n        /* \"#utility.yul\":4138:4145   */\n      dup6\n        /* \"#utility.yul\":4129:4135   */\n      dup3\n        /* \"#utility.yul\":4118:4127   */\n      dup7\n        /* \"#utility.yul\":4114:4136   */\n      add\n        /* \"#utility.yul\":4093:4146   */\n      tag_67\n      jump\t// in\n    tag_127:\n        /* \"#utility.yul\":4083:4146   */\n      swap2\n      pop\n        /* \"#utility.yul\":4038:4156   */\n      pop\n        /* \"#utility.yul\":3689:4163   */\n      swap3\n      pop\n      swap3\n      swap1\n      pop\n      jump\t// out\n        /* \"#utility.yul\":4169:4338   */\n    tag_72:\n        /* \"#utility.yul\":4253:4264   */\n      0x00\n        /* \"#utility.yul\":4287:4293   */\n      dup3\n        /* \"#utility.yul\":4282:4285   */\n      dup3\n        /* \"#utility.yul\":4275:4294   */\n      mstore\n        /* \"#utility.yul\":4327:4331   */\n      0x20\n        /* \"#utility.yul\":4322:4325   */\n      dup3\n        /* \"#utility.yul\":4318:4332   */\n      add\n        /* \"#utility.yul\":4303:4332   */\n      swap1\n      pop\n        /* \"#utility.yul\":4169:4338   */\n      swap3\n      swap2\n      pop\n      pop\n      jump\t// out\n        /* \"#utility.yul\":4344:4525   */\n    tag_73:\n        /* \"#utility.yul\":4484:4517   */\n      0x5472616e73616374696f6e20416c726561647920417070726f7665642e2e2e00\n        /* \"#utility.yul\":4480:4481   */\n      0x00\n        /* \"#utility.yul\":4472:4478   */\n      dup3\n        /* \"#utility.yul\":4468:4482   */\n      add\n        /* \"#utility.yul\":4461:4518   */\n      mstore\n        /* \"#utility.yul\":4344:4525   */\n      pop\n      jump\t// out\n        /* \"#utility.yul\":4531:4897   */\n    tag_74:\n        /* \"#utility.yul\":4673:4676   */\n      0x00\n        /* \"#utility.yul\":4694:4761   */\n      tag_131\n        /* \"#utility.yul\":4758:4760   */\n      0x1f\n        /* \"#utility.yul\":4753:4756   */\n      dup4\n        /* \"#utility.yul\":4694:4761   */\n      tag_72\n      jump\t// in\n    tag_131:\n        /* \"#utility.yul\":4687:4761   */\n      swap2\n      pop\n        /* \"#utility.yul\":4770:4863   */\n      tag_132\n        /* \"#utility.yul\":4859:4862   */\n      dup3\n        /* \"#utility.yul\":4770:4863   */\n      tag_73\n      jump\t// in\n    tag_132:\n        /* \"#utility.yul\":4888:4890   */\n      0x20\n        /* \"#utility.yul\":4883:4886   */\n      dup3\n        /* \"#utility.yul\":4879:4891   */\n      add\n        /* \"#utility.yul\":4872:4891   */\n      swap1\n      pop\n        /* \"#utility.yul\":4531:4897   */\n      swap2\n      swap1\n      pop\n      jump\t// out\n        /* \"#utility.yul\":4903:5322   */\n    tag_46:\n        /* \"#utility.yul\":5069:5073   */\n      0x00\n        /* \"#utility.yul\":5107:5109   */\n      0x20\n        /* \"#utility.yul\":5096:5105   */\n      dup3\n        /* \"#utility.yul\":5092:5110   */\n      add\n        /* \"#utility.yul\":5084:5110   */\n      swap1\n      pop\n        /* \"#utility.yul\":5156:5165   */\n      dup2\n        /* \"#utility.yul\":5150:5154   */\n      dup2\n        /* \"#utility.yul\":5146:5166   */\n      sub\n        /* \"#utility.yul\":5142:5143   */\n      0x00\n        /* \"#utility.yul\":5131:5140   */\n      dup4\n        /* \"#utility.yul\":5127:5144   */\n      add\n        /* \"#utility.yul\":5120:5167   */\n      mstore\n        /* \"#utility.yul\":5184:5315   */\n      tag_134\n        /* \"#utility.yul\":5310:5314   */\n      dup2\n        /* \"#utility.yul\":5184:5315   */\n      tag_74\n      jump\t// in\n    tag_134:\n        /* \"#utility.yul\":5176:5315   */\n      swap1\n      pop\n        /* \"#utility.yul\":4903:5322   */\n      swap2\n      swap1\n      pop\n      jump\t// out\n        /* \"#utility.yul\":5328:5508   */\n    tag_75:\n        /* \"#utility.yul\":5376:5453   */\n      0x4e487b7100000000000000000000000000000000000000000000000000000000\n        /* \"#utility.yul\":5373:5374   */\n      0x00\n        /* \"#utility.yul\":5366:5454   */\n      mstore\n        /* \"#utility.yul\":5473:5477   */\n      0x11\n        /* \"#utility.yul\":5470:5471   */\n      0x04\n        /* \"#utility.yul\":5463:5478   */\n      mstore\n        /* \"#utility.yul\":5497:5501   */\n      0x24\n        /* \"#utility.yul\":5494:5495   */\n      0x00\n        /* \"#utility.yul\":5487:5502   */\n      revert\n        /* \"#utility.yul\":5514:5708   */\n    tag_49:\n        /* \"#utility.yul\":5554:5558   */\n      0x00\n        /* \"#utility.yul\":5574:5594   */\n      tag_137\n        /* \"#utility.yul\":5592:5593   */\n      dup3\n        /* \"#utility.yul\":5574:5594   */\n      tag_61\n      jump\t// in\n    tag_137:\n        /* \"#utility.yul\":5569:5594   */\n      swap2\n      pop\n        /* \"#utility.yul\":5608:5628   */\n      tag_138\n        /* \"#utility.yul\":5626:5627   */\n      dup4\n        /* \"#utility.yul\":5608:5628   */\n      tag_61\n      jump\t// in\n    tag_138:\n        /* \"#utility.yul\":5603:5628   */\n      swap3\n      pop\n        /* \"#utility.yul\":5652:5653   */\n      dup3\n        /* \"#utility.yul\":5649:5650   */\n      dup3\n        /* \"#utility.yul\":5645:5654   */\n      sub\n        /* \"#utility.yul\":5637:5654   */\n      swap1\n      pop\n        /* \"#utility.yul\":5676:5677   */\n      dup2\n        /* \"#utility.yul\":5670:5674   */\n      dup2\n        /* \"#utility.yul\":5667:5678   */\n      gt\n        /* \"#utility.yul\":5664:5701   */\n      iszero\n      tag_139\n      jumpi\n        /* \"#utility.yul\":5681:5699   */\n      tag_140\n      tag_75\n      jump\t// in\n    tag_140:\n        /* \"#utility.yul\":5664:5701   */\n    tag_139:\n        /* \"#utility.yul\":5514:5708   */\n      swap3\n      swap2\n      pop\n      pop\n      jump\t// out\n        /* \"#utility.yul\":5714:5893   */\n    tag_76:\n        /* \"#utility.yul\":5854:5885   */\n      0x5472616e73616374696f6e20446f6573206e6f742045786973742e2e2e000000\n        /* \"#utility.yul\":5850:5851   */\n      0x00\n        /* \"#utility.yul\":5842:5848   */\n      dup3\n        /* \"#utility.yul\":5838:5852   */\n      add\n        /* \"#utility.yul\":5831:5886   */\n      mstore\n        /* \"#utility.yul\":5714:5893   */\n      pop\n      jump\t// out\n        /* \"#utility.yul\":5899:6265   */\n    tag_77:\n        /* \"#utility.yul\":6041:6044   */\n      0x00\n        /* \"#utility.yul\":6062:6129   */\n      tag_143\n        /* \"#utility.yul\":6126:6128   */\n      0x1d\n        /* \"#utility.yul\":6121:6124   */\n      dup4\n        /* \"#utility.yul\":6062:6129   */\n      tag_72\n      jump\t// in\n    tag_143:\n        /* \"#utility.yul\":6055:6129   */\n      swap2\n      pop\n        /* \"#utility.yul\":6138:6231   */\n      tag_144\n        /* \"#utility.yul\":6227:6230   */\n      dup3\n        /* \"#utility.yul\":6138:6231   */\n      tag_76\n      jump\t// in\n    tag_144:\n        /* \"#utility.yul\":6256:6258   */\n      0x20\n        /* \"#utility.yul\":6251:6254   */\n      dup3\n        /* \"#utility.yul\":6247:6259   */\n      add\n        /* \"#utility.yul\":6240:6259   */\n      swap1\n      pop\n        /* \"#utility.yul\":5899:6265   */\n      swap2\n      swap1\n      pop\n      jump\t// out\n        /* \"#utility.yul\":6271:6690   */\n    tag_52:\n        /* \"#utility.yul\":6437:6441   */\n      0x00\n        /* \"#utility.yul\":6475:6477   */\n      0x20\n        /* \"#utility.yul\":6464:6473   */\n      dup3\n        /* \"#utility.yul\":6460:6478   */\n      add\n        /* \"#utility.yul\":6452:6478   */\n      swap1\n      pop\n        /* \"#utility.yul\":6524:6533   */\n      dup2\n        /* \"#utility.yul\":6518:6522   */\n      dup2\n        /* \"#utility.yul\":6514:6534   */\n      sub\n        /* \"#utility.yul\":6510:6511   */\n      0x00\n        /* \"#utility.yul\":6499:6508   */\n      dup4\n        /* \"#utility.yul\":6495:6512   */\n      add\n        /* \"#utility.yul\":6488:6535   */\n      mstore\n        /* \"#utility.yul\":6552:6683   */\n      tag_146\n        /* \"#utility.yul\":6678:6682   */\n      dup2\n        /* \"#utility.yul\":6552:6683   */\n      tag_77\n      jump\t// in\n    tag_146:\n        /* \"#utility.yul\":6544:6683   */\n      swap1\n      pop\n        /* \"#utility.yul\":6271:6690   */\n      swap2\n      swap1\n      pop\n      jump\t// out\n\n    auxdata: 0xa2646970667358221220ea31fa5239f62c8b2db33008a00312dfe9a2d3a5c7f932e9f62cfa6c36c1114964736f6c63430008100033\n}\n",
				"bytecode": {
					"linkReferences": {},
					"object": "60806040523480156200001157600080fd5b5060405162000b5e38038062000b5e833981810160405281019062000037919062000293565b60005b82518110156200005a578080620000519062000328565b9150506200003a565b5080600181905550505062000375565b6000604051905090565b600080fd5b600080fd5b600080fd5b6000601f19601f8301169050919050565b7f4e487b7100000000000000000000000000000000000000000000000000000000600052604160045260246000fd5b620000ce8262000083565b810181811067ffffffffffffffff82111715620000f057620000ef62000094565b5b80604052505050565b6000620001056200006a565b9050620001138282620000c3565b919050565b600067ffffffffffffffff82111562000136576200013562000094565b5b602082029050602081019050919050565b600080fd5b600073ffffffffffffffffffffffffffffffffffffffff82169050919050565b600062000179826200014c565b9050919050565b6200018b816200016c565b81146200019757600080fd5b50565b600081519050620001ab8162000180565b92915050565b6000620001c8620001c28462000118565b620000f9565b90508083825260208201905060208402830185811115620001ee57620001ed62000147565b5b835b818110156200021b57806200020688826200019a565b845260208401935050602081019050620001f0565b5050509392505050565b600082601f8301126200023d576200023c6200007e565b5b81516200024f848260208601620001b1565b91505092915050565b6000819050919050565b6200026d8162000258565b81146200027957600080fd5b50565b6000815190506200028d8162000262565b92915050565b60008060408385031215620002ad57620002ac62000074565b5b600083015167ffffffffffffffff811115620002ce57620002cd62000079565b5b620002dc8582860162000225565b9250506020620002ef858286016200027c565b9150509250929050565b7f4e487b7100000000000000000000000000000000000000000000000000000000600052601160045260246000fd5b6000620003358262000258565b91507fffffffffffffffffffffffffffffffffffffffffffffffffffffffffffffffff82036200036a5762000369620002f9565b5b600182019050919050565b6107d980620003856000396000f3fe60806040526004361061004e5760003560e01c8063025e7c2714610093578063242232d1146100d05780639ace38c2146100f9578063b848de3514610138578063e6beded8146101755761008e565b3661008e577fe1fffcc4923d04b559f4d29a8bfc6cda04eb5b0d3c460751c2402c5c5cc9109c333460405161008492919061049c565b60405180910390a1005b600080fd5b34801561009f57600080fd5b506100ba60048036038101906100b591906104f6565b61019e565b6040516100c79190610523565b60405180910390f35b3480156100dc57600080fd5b506100f760048036038101906100f291906104f6565b6101dd565b005b34801561010557600080fd5b50610120600480360381019061011b91906104f6565b6102d6565b60405161012f93929190610559565b60405180910390f35b34801561014457600080fd5b5061015f600480360381019061015a91906105bc565b61033d565b60405161016c91906105fc565b60405180910390f35b34801561018157600080fd5b5061019c60048036038101906101979190610617565b61036c565b005b600081815481106101ae57600080fd5b906000526020600020016000915054906101000a900473ffffffffffffffffffffffffffffffffffffffff1681565b806002600082815260200190815260200160002060003373ffffffffffffffffffffffffffffffffffffffff1673ffffffffffffffffffffffffffffffffffffffff16815260200190815260200160002060009054906101000a900460ff161561027c576040517f08c379a0000000000000000000000000000000000000000000000000000000008152600401610273906106b4565b60405180910390fd5b81600160008054905061028f9190610703565b8111156102d1576040517f08c379a00000000000000000000000000000000000000000000000000000000081526004016102c890610783565b60405180910390fd5b505050565b600381815481106102e657600080fd5b90600052602060002090600302016000915090508060000160009054906101000a900473ffffffffffffffffffffffffffffffffffffffff16908060010154908060020160009054906101000a900460ff16905083565b60026020528160005260406000206020528060005260406000206000915091509054906101000a900460ff1681565b600360405180606001604052808473ffffffffffffffffffffffffffffffffffffffff16815260200183815260200160001515815250908060018154018082558091505060019003906000526020600020906003020160009091909190915060008201518160000160006101000a81548173ffffffffffffffffffffffffffffffffffffffff021916908373ffffffffffffffffffffffffffffffffffffffff1602179055506020820151816001015560408201518160020160006101000a81548160ff02191690831515021790555050505050565b600073ffffffffffffffffffffffffffffffffffffffff82169050919050565b600061046d82610442565b9050919050565b61047d81610462565b82525050565b6000819050919050565b61049681610483565b82525050565b60006040820190506104b16000830185610474565b6104be602083018461048d565b9392505050565b600080fd5b6104d381610483565b81146104de57600080fd5b50565b6000813590506104f0816104ca565b92915050565b60006020828403121561050c5761050b6104c5565b5b600061051a848285016104e1565b91505092915050565b60006020820190506105386000830184610474565b92915050565b60008115159050919050565b6105538161053e565b82525050565b600060608201905061056e6000830186610474565b61057b602083018561048d565b610588604083018461054a565b949350505050565b61059981610462565b81146105a457600080fd5b50565b6000813590506105b681610590565b92915050565b600080604083850312156105d3576105d26104c5565b5b60006105e1858286016104e1565b92505060206105f2858286016105a7565b9150509250929050565b6000602082019050610611600083018461054a565b92915050565b6000806040838503121561062e5761062d6104c5565b5b600061063c858286016105a7565b925050602061064d858286016104e1565b9150509250929050565b600082825260208201905092915050565b7f5472616e73616374696f6e20416c726561647920417070726f7665642e2e2e00600082015250565b600061069e601f83610657565b91506106a982610668565b602082019050919050565b600060208201905081810360008301526106cd81610691565b9050919050565b7f4e487b7100000000000000000000000000000000000000000000000000000000600052601160045260246000fd5b600061070e82610483565b915061071983610483565b9250828203905081811115610731576107306106d4565b5b92915050565b7f5472616e73616374696f6e20446f6573206e6f742045786973742e2e2e000000600082015250565b600061076d601d83610657565b915061077882610737565b602082019050919050565b6000602082019050818103600083015261079c81610760565b905091905056fea2646970667358221220ea31fa5239f62c8b2db33008a00312dfe9a2d3a5c7f932e9f62cfa6c36c1114964736f6c63430008100033",
					"opcodes": "PUSH1 0x80 PUSH1 0x40 MSTORE CALLVALUE DUP1 ISZERO PUSH3 0x11 JUMPI PUSH1 0x0 DUP1 REVERT JUMPDEST POP PUSH1 0x40 MLOAD PUSH3 0xB5E CODESIZE SUB DUP1 PUSH3 0xB5E DUP4 CODECOPY DUP2 DUP2 ADD PUSH1 0x40 MSTORE DUP2 ADD SWAP1 PUSH3 0x37 SWAP2 SWAP1 PUSH3 0x293 JUMP JUMPDEST PUSH1 0x0 JUMPDEST DUP3 MLOAD DUP2 LT ISZERO PUSH3 0x5A JUMPI DUP1 DUP1 PUSH3 0x51 SWAP1 PUSH3 0x328 JUMP JUMPDEST SWAP2 POP POP PUSH3 0x3A JUMP JUMPDEST POP DUP1 PUSH1 0x1 DUP2 SWAP1 SSTORE POP POP POP PUSH3 0x375 JUMP JUMPDEST PUSH1 0x0 PUSH1 0x40 MLOAD SWAP1 POP SWAP1 JUMP JUMPDEST PUSH1 0x0 DUP1 REVERT JUMPDEST PUSH1 0x0 DUP1 REVERT JUMPDEST PUSH1 0x0 DUP1 REVERT JUMPDEST PUSH1 0x0 PUSH1 0x1F NOT PUSH1 0x1F DUP4 ADD AND SWAP1 POP SWAP2 SWAP1 POP JUMP JUMPDEST PUSH32 0x4E487B7100000000000000000000000000000000000000000000000000000000 PUSH1 0x0 MSTORE PUSH1 0x41 PUSH1 0x4 MSTORE PUSH1 0x24 PUSH1 0x0 REVERT JUMPDEST PUSH3 0xCE DUP3 PUSH3 0x83 JUMP JUMPDEST DUP2 ADD DUP2 DUP2 LT PUSH8 0xFFFFFFFFFFFFFFFF DUP3 GT OR ISZERO PUSH3 0xF0 JUMPI PUSH3 0xEF PUSH3 0x94 JUMP JUMPDEST JUMPDEST DUP1 PUSH1 0x40 MSTORE POP POP POP JUMP JUMPDEST PUSH1 0x0 PUSH3 0x105 PUSH3 0x6A JUMP JUMPDEST SWAP1 POP PUSH3 0x113 DUP3 DUP3 PUSH3 0xC3 JUMP JUMPDEST SWAP2 SWAP1 POP JUMP JUMPDEST PUSH1 0x0 PUSH8 0xFFFFFFFFFFFFFFFF DUP3 GT ISZERO PUSH3 0x136 JUMPI PUSH3 0x135 PUSH3 0x94 JUMP JUMPDEST JUMPDEST PUSH1 0x20 DUP3 MUL SWAP1 POP PUSH1 0x20 DUP2 ADD SWAP1 POP SWAP2 SWAP1 POP JUMP JUMPDEST PUSH1 0x0 DUP1 REVERT JUMPDEST PUSH1 0x0 PUSH20 0xFFFFFFFFFFFFFFFFFFFFFFFFFFFFFFFFFFFFFFFF DUP3 AND SWAP1 POP SWAP2 SWAP1 POP JUMP JUMPDEST PUSH1 0x0 PUSH3 0x179 DUP3 PUSH3 0x14C JUMP JUMPDEST SWAP1 POP SWAP2 SWAP1 POP JUMP JUMPDEST PUSH3 0x18B DUP2 PUSH3 0x16C JUMP JUMPDEST DUP2 EQ PUSH3 0x197 JUMPI PUSH1 0x0 DUP1 REVERT JUMPDEST POP JUMP JUMPDEST PUSH1 0x0 DUP2 MLOAD SWAP1 POP PUSH3 0x1AB DUP2 PUSH3 0x180 JUMP JUMPDEST SWAP3 SWAP2 POP POP JUMP JUMPDEST PUSH1 0x0 PUSH3 0x1C8 PUSH3 0x1C2 DUP5 PUSH3 0x118 JUMP JUMPDEST PUSH3 0xF9 JUMP JUMPDEST SWAP1 POP DUP1 DUP4 DUP3 MSTORE PUSH1 0x20 DUP3 ADD SWAP1 POP PUSH1 0x20 DUP5 MUL DUP4 ADD DUP6 DUP2 GT ISZERO PUSH3 0x1EE JUMPI PUSH3 0x1ED PUSH3 0x147 JUMP JUMPDEST JUMPDEST DUP4 JUMPDEST DUP2 DUP2 LT ISZERO PUSH3 0x21B JUMPI DUP1 PUSH3 0x206 DUP9 DUP3 PUSH3 0x19A JUMP JUMPDEST DUP5 MSTORE PUSH1 0x20 DUP5 ADD SWAP4 POP POP PUSH1 0x20 DUP2 ADD SWAP1 POP PUSH3 0x1F0 JUMP JUMPDEST POP POP POP SWAP4 SWAP3 POP POP POP JUMP JUMPDEST PUSH1 0x0 DUP3 PUSH1 0x1F DUP4 ADD SLT PUSH3 0x23D JUMPI PUSH3 0x23C PUSH3 0x7E JUMP JUMPDEST JUMPDEST DUP2 MLOAD PUSH3 0x24F DUP5 DUP3 PUSH1 0x20 DUP7 ADD PUSH3 0x1B1 JUMP JUMPDEST SWAP2 POP POP SWAP3 SWAP2 POP POP JUMP JUMPDEST PUSH1 0x0 DUP2 SWAP1 POP SWAP2 SWAP1 POP JUMP JUMPDEST PUSH3 0x26D DUP2 PUSH3 0x258 JUMP JUMPDEST DUP2 EQ PUSH3 0x279 JUMPI PUSH1 0x0 DUP1 REVERT JUMPDEST POP JUMP JUMPDEST PUSH1 0x0 DUP2 MLOAD SWAP1 POP PUSH3 0x28D DUP2 PUSH3 0x262 JUMP JUMPDEST SWAP3 SWAP2 POP POP JUMP JUMPDEST PUSH1 0x0 DUP1 PUSH1 0x40 DUP4 DUP6 SUB SLT ISZERO PUSH3 0x2AD JUMPI PUSH3 0x2AC PUSH3 0x74 JUMP JUMPDEST JUMPDEST PUSH1 0x0 DUP4 ADD MLOAD PUSH8 0xFFFFFFFFFFFFFFFF DUP2 GT ISZERO PUSH3 0x2CE JUMPI PUSH3 0x2CD PUSH3 0x79 JUMP JUMPDEST JUMPDEST PUSH3 0x2DC DUP6 DUP3 DUP7 ADD PUSH3 0x225 JUMP JUMPDEST SWAP3 POP POP PUSH1 0x20 PUSH3 0x2EF DUP6 DUP3 DUP7 ADD PUSH3 0x27C JUMP JUMPDEST SWAP2 POP POP SWAP3 POP SWAP3 SWAP1 POP JUMP JUMPDEST PUSH32 0x4E487B7100000000000000000000000000000000000000000000000000000000 PUSH1 0x0 MSTORE PUSH1 0x11 PUSH1 0x4 MSTORE PUSH1 0x24 PUSH1 0x0 REVERT JUMPDEST PUSH1 0x0 PUSH3 0x335 DUP3 PUSH3 0x258 JUMP JUMPDEST SWAP2 POP PUSH32 0xFFFFFFFFFFFFFFFFFFFFFFFFFFFFFFFFFFFFFFFFFFFFFFFFFFFFFFFFFFFFFFFF DUP3 SUB PUSH3 0x36A JUMPI PUSH3 0x369 PUSH3 0x2F9 JUMP JUMPDEST JUMPDEST PUSH1 0x1 DUP3 ADD SWAP1 POP SWAP2 SWAP1 POP JUMP JUMPDEST PUSH2 0x7D9 DUP1 PUSH3 0x385 PUSH1 0x0 CODECOPY PUSH1 0x0 RETURN INVALID PUSH1 0x80 PUSH1 0x40 MSTORE PUSH1 0x4 CALLDATASIZE LT PUSH2 0x4E JUMPI PUSH1 0x0 CALLDATALOAD PUSH1 0xE0 SHR DUP1 PUSH4 0x25E7C27 EQ PUSH2 0x93 JUMPI DUP1 PUSH4 0x242232D1 EQ PUSH2 0xD0 JUMPI DUP1 PUSH4 0x9ACE38C2 EQ PUSH2 0xF9 JUMPI DUP1 PUSH4 0xB848DE35 EQ PUSH2 0x138 JUMPI DUP1 PUSH4 0xE6BEDED8 EQ PUSH2 0x175 JUMPI PUSH2 0x8E JUMP JUMPDEST CALLDATASIZE PUSH2 0x8E JUMPI PUSH32 0xE1FFFCC4923D04B559F4D29A8BFC6CDA04EB5B0D3C460751C2402C5C5CC9109C CALLER CALLVALUE PUSH1 0x40 MLOAD PUSH2 0x84 SWAP3 SWAP2 SWAP1 PUSH2 0x49C JUMP JUMPDEST PUSH1 0x40 MLOAD DUP1 SWAP2 SUB SWAP1 LOG1 STOP JUMPDEST PUSH1 0x0 DUP1 REVERT JUMPDEST CALLVALUE DUP1 ISZERO PUSH2 0x9F JUMPI PUSH1 0x0 DUP1 REVERT JUMPDEST POP PUSH2 0xBA PUSH1 0x4 DUP1 CALLDATASIZE SUB DUP2 ADD SWAP1 PUSH2 0xB5 SWAP2 SWAP1 PUSH2 0x4F6 JUMP JUMPDEST PUSH2 0x19E JUMP JUMPDEST PUSH1 0x40 MLOAD PUSH2 0xC7 SWAP2 SWAP1 PUSH2 0x523 JUMP JUMPDEST PUSH1 0x40 MLOAD DUP1 SWAP2 SUB SWAP1 RETURN JUMPDEST CALLVALUE DUP1 ISZERO PUSH2 0xDC JUMPI PUSH1 0x0 DUP1 REVERT JUMPDEST POP PUSH2 0xF7 PUSH1 0x4 DUP1 CALLDATASIZE SUB DUP2 ADD SWAP1 PUSH2 0xF2 SWAP2 SWAP1 PUSH2 0x4F6 JUMP JUMPDEST PUSH2 0x1DD JUMP JUMPDEST STOP JUMPDEST CALLVALUE DUP1 ISZERO PUSH2 0x105 JUMPI PUSH1 0x0 DUP1 REVERT JUMPDEST POP PUSH2 0x120 PUSH1 0x4 DUP1 CALLDATASIZE SUB DUP2 ADD SWAP1 PUSH2 0x11B SWAP2 SWAP1 PUSH2 0x4F6 JUMP JUMPDEST PUSH2 0x2D6 JUMP JUMPDEST PUSH1 0x40 MLOAD PUSH2 0x12F SWAP4 SWAP3 SWAP2 SWAP1 PUSH2 0x559 JUMP JUMPDEST PUSH1 0x40 MLOAD DUP1 SWAP2 SUB SWAP1 RETURN JUMPDEST CALLVALUE DUP1 ISZERO PUSH2 0x144 JUMPI PUSH1 0x0 DUP1 REVERT JUMPDEST POP PUSH2 0x15F PUSH1 0x4 DUP1 CALLDATASIZE SUB DUP2 ADD SWAP1 PUSH2 0x15A SWAP2 SWAP1 PUSH2 0x5BC JUMP JUMPDEST PUSH2 0x33D JUMP JUMPDEST PUSH1 0x40 MLOAD PUSH2 0x16C SWAP2 SWAP1 PUSH2 0x5FC JUMP JUMPDEST PUSH1 0x40 MLOAD DUP1 SWAP2 SUB SWAP1 RETURN JUMPDEST CALLVALUE DUP1 ISZERO PUSH2 0x181 JUMPI PUSH1 0x0 DUP1 REVERT JUMPDEST POP PUSH2 0x19C PUSH1 0x4 DUP1 CALLDATASIZE SUB DUP2 ADD SWAP1 PUSH2 0x197 SWAP2 SWAP1 PUSH2 0x617 JUMP JUMPDEST PUSH2 0x36C JUMP JUMPDEST STOP JUMPDEST PUSH1 0x0 DUP2 DUP2 SLOAD DUP2 LT PUSH2 0x1AE JUMPI PUSH1 0x0 DUP1 REVERT JUMPDEST SWAP1 PUSH1 0x0 MSTORE PUSH1 0x20 PUSH1 0x0 KECCAK256 ADD PUSH1 0x0 SWAP2 POP SLOAD SWAP1 PUSH2 0x100 EXP SWAP1 DIV PUSH20 0xFFFFFFFFFFFFFFFFFFFFFFFFFFFFFFFFFFFFFFFF AND DUP2 JUMP JUMPDEST DUP1 PUSH1 0x2 PUSH1 0x0 DUP3 DUP2 MSTORE PUSH1 0x20 ADD SWAP1 DUP2 MSTORE PUSH1 0x20 ADD PUSH1 0x0 KECCAK256 PUSH1 0x0 CALLER PUSH20 0xFFFFFFFFFFFFFFFFFFFFFFFFFFFFFFFFFFFFFFFF AND PUSH20 0xFFFFFFFFFFFFFFFFFFFFFFFFFFFFFFFFFFFFFFFF AND DUP2 MSTORE PUSH1 0x20 ADD SWAP1 DUP2 MSTORE PUSH1 0x20 ADD PUSH1 0x0 KECCAK256 PUSH1 0x0 SWAP1 SLOAD SWAP1 PUSH2 0x100 EXP SWAP1 DIV PUSH1 0xFF AND ISZERO PUSH2 0x27C JUMPI PUSH1 0x40 MLOAD PUSH32 0x8C379A000000000000000000000000000000000000000000000000000000000 DUP2 MSTORE PUSH1 0x4 ADD PUSH2 0x273 SWAP1 PUSH2 0x6B4 JUMP JUMPDEST PUSH1 0x40 MLOAD DUP1 SWAP2 SUB SWAP1 REVERT JUMPDEST DUP2 PUSH1 0x1 PUSH1 0x0 DUP1 SLOAD SWAP1 POP PUSH2 0x28F SWAP2 SWAP1 PUSH2 0x703 JUMP JUMPDEST DUP2 GT ISZERO PUSH2 0x2D1 JUMPI PUSH1 0x40 MLOAD PUSH32 0x8C379A000000000000000000000000000000000000000000000000000000000 DUP2 MSTORE PUSH1 0x4 ADD PUSH2 0x2C8 SWAP1 PUSH2 0x783 JUMP JUMPDEST PUSH1 0x40 MLOAD DUP1 SWAP2 SUB SWAP1 REVERT JUMPDEST POP POP POP JUMP JUMPDEST PUSH1 0x3 DUP2 DUP2 SLOAD DUP2 LT PUSH2 0x2E6 JUMPI PUSH1 0x0 DUP1 REVERT JUMPDEST SWAP1 PUSH1 0x0 MSTORE PUSH1 0x20 PUSH1 0x0 KECCAK256 SWAP1 PUSH1 0x3 MUL ADD PUSH1 0x0 SWAP2 POP SWAP1 POP DUP1 PUSH1 0x0 ADD PUSH1 0x0 SWAP1 SLOAD SWAP1 PUSH2 0x100 EXP SWAP1 DIV PUSH20 0xFFFFFFFFFFFFFFFFFFFFFFFFFFFFFFFFFFFFFFFF AND SWAP1 DUP1 PUSH1 0x1 ADD SLOAD SWAP1 DUP1 PUSH1 0x2 ADD PUSH1 0x0 SWAP1 SLOAD SWAP1 PUSH2 0x100 EXP SWAP1 DIV PUSH1 0xFF AND SWAP1 POP DUP4 JUMP JUMPDEST PUSH1 0x2 PUSH1 0x20 MSTORE DUP2 PUSH1 0x0 MSTORE PUSH1 0x40 PUSH1 0x0 KECCAK256 PUSH1 0x20 MSTORE DUP1 PUSH1 0x0 MSTORE PUSH1 0x40 PUSH1 0x0 KECCAK256 PUSH1 0x0 SWAP2 POP SWAP2 POP SWAP1 SLOAD SWAP1 PUSH2 0x100 EXP SWAP1 DIV PUSH1 0xFF AND DUP2 JUMP JUMPDEST PUSH1 0x3 PUSH1 0x40 MLOAD DUP1 PUSH1 0x60 ADD PUSH1 0x40 MSTORE DUP1 DUP5 PUSH20 0xFFFFFFFFFFFFFFFFFFFFFFFFFFFFFFFFFFFFFFFF AND DUP2 MSTORE PUSH1 0x20 ADD DUP4 DUP2 MSTORE PUSH1 0x20 ADD PUSH1 0x0 ISZERO ISZERO DUP2 MSTORE POP SWAP1 DUP1 PUSH1 0x1 DUP2 SLOAD ADD DUP1 DUP3 SSTORE DUP1 SWAP2 POP POP PUSH1 0x1 SWAP1 SUB SWAP1 PUSH1 0x0 MSTORE PUSH1 0x20 PUSH1 0x0 KECCAK256 SWAP1 PUSH1 0x3 MUL ADD PUSH1 0x0 SWAP1 SWAP2 SWAP1 SWAP2 SWAP1 SWAP2 POP PUSH1 0x0 DUP3 ADD MLOAD DUP2 PUSH1 0x0 ADD PUSH1 0x0 PUSH2 0x100 EXP DUP2 SLOAD DUP2 PUSH20 0xFFFFFFFFFFFFFFFFFFFFFFFFFFFFFFFFFFFFFFFF MUL NOT AND SWAP1 DUP4 PUSH20 0xFFFFFFFFFFFFFFFFFFFFFFFFFFFFFFFFFFFFFFFF AND MUL OR SWAP1 SSTORE POP PUSH1 0x20 DUP3 ADD MLOAD DUP2 PUSH1 0x1 ADD SSTORE PUSH1 0x40 DUP3 ADD MLOAD DUP2 PUSH1 0x2 ADD PUSH1 0x0 PUSH2 0x100 EXP DUP2 SLOAD DUP2 PUSH1 0xFF MUL NOT AND SWAP1 DUP4 ISZERO ISZERO MUL OR SWAP1 SSTORE POP POP POP POP POP JUMP JUMPDEST PUSH1 0x0 PUSH20 0xFFFFFFFFFFFFFFFFFFFFFFFFFFFFFFFFFFFFFFFF DUP3 AND SWAP1 POP SWAP2 SWAP1 POP JUMP JUMPDEST PUSH1 0x0 PUSH2 0x46D DUP3 PUSH2 0x442 JUMP JUMPDEST SWAP1 POP SWAP2 SWAP1 POP JUMP JUMPDEST PUSH2 0x47D DUP2 PUSH2 0x462 JUMP JUMPDEST DUP3 MSTORE POP POP JUMP JUMPDEST PUSH1 0x0 DUP2 SWAP1 POP SWAP2 SWAP1 POP JUMP JUMPDEST PUSH2 0x496 DUP2 PUSH2 0x483 JUMP JUMPDEST DUP3 MSTORE POP POP JUMP JUMPDEST PUSH1 0x0 PUSH1 0x40 DUP3 ADD SWAP1 POP PUSH2 0x4B1 PUSH1 0x0 DUP4 ADD DUP6 PUSH2 0x474 JUMP JUMPDEST PUSH2 0x4BE PUSH1 0x20 DUP4 ADD DUP5 PUSH2 0x48D JUMP JUMPDEST SWAP4 SWAP3 POP POP POP JUMP JUMPDEST PUSH1 0x0 DUP1 REVERT JUMPDEST PUSH2 0x4D3 DUP2 PUSH2 0x483 JUMP JUMPDEST DUP2 EQ PUSH2 0x4DE JUMPI PUSH1 0x0 DUP1 REVERT JUMPDEST POP JUMP JUMPDEST PUSH1 0x0 DUP2 CALLDATALOAD SWAP1 POP PUSH2 0x4F0 DUP2 PUSH2 0x4CA JUMP JUMPDEST SWAP3 SWAP2 POP POP JUMP JUMPDEST PUSH1 0x0 PUSH1 0x20 DUP3 DUP5 SUB SLT ISZERO PUSH2 0x50C JUMPI PUSH2 0x50B PUSH2 0x4C5 JUMP JUMPDEST JUMPDEST PUSH1 0x0 PUSH2 0x51A DUP5 DUP3 DUP6 ADD PUSH2 0x4E1 JUMP JUMPDEST SWAP2 POP POP SWAP3 SWAP2 POP POP JUMP JUMPDEST PUSH1 0x0 PUSH1 0x20 DUP3 ADD SWAP1 POP PUSH2 0x538 PUSH1 0x0 DUP4 ADD DUP5 PUSH2 0x474 JUMP JUMPDEST SWAP3 SWAP2 POP POP JUMP JUMPDEST PUSH1 0x0 DUP2 ISZERO ISZERO SWAP1 POP SWAP2 SWAP1 POP JUMP JUMPDEST PUSH2 0x553 DUP2 PUSH2 0x53E JUMP JUMPDEST DUP3 MSTORE POP POP JUMP JUMPDEST PUSH1 0x0 PUSH1 0x60 DUP3 ADD SWAP1 POP PUSH2 0x56E PUSH1 0x0 DUP4 ADD DUP7 PUSH2 0x474 JUMP JUMPDEST PUSH2 0x57B PUSH1 0x20 DUP4 ADD DUP6 PUSH2 0x48D JUMP JUMPDEST PUSH2 0x588 PUSH1 0x40 DUP4 ADD DUP5 PUSH2 0x54A JUMP JUMPDEST SWAP5 SWAP4 POP POP POP POP JUMP JUMPDEST PUSH2 0x599 DUP2 PUSH2 0x462 JUMP JUMPDEST DUP2 EQ PUSH2 0x5A4 JUMPI PUSH1 0x0 DUP1 REVERT JUMPDEST POP JUMP JUMPDEST PUSH1 0x0 DUP2 CALLDATALOAD SWAP1 POP PUSH2 0x5B6 DUP2 PUSH2 0x590 JUMP JUMPDEST SWAP3 SWAP2 POP POP JUMP JUMPDEST PUSH1 0x0 DUP1 PUSH1 0x40 DUP4 DUP6 SUB SLT ISZERO PUSH2 0x5D3 JUMPI PUSH2 0x5D2 PUSH2 0x4C5 JUMP JUMPDEST JUMPDEST PUSH1 0x0 PUSH2 0x5E1 DUP6 DUP3 DUP7 ADD PUSH2 0x4E1 JUMP JUMPDEST SWAP3 POP POP PUSH1 0x20 PUSH2 0x5F2 DUP6 DUP3 DUP7 ADD PUSH2 0x5A7 JUMP JUMPDEST SWAP2 POP POP SWAP3 POP SWAP3 SWAP1 POP JUMP JUMPDEST PUSH1 0x0 PUSH1 0x20 DUP3 ADD SWAP1 POP PUSH2 0x611 PUSH1 0x0 DUP4 ADD DUP5 PUSH2 0x54A JUMP JUMPDEST SWAP3 SWAP2 POP POP JUMP JUMPDEST PUSH1 0x0 DUP1 PUSH1 0x40 DUP4 DUP6 SUB SLT ISZERO PUSH2 0x62E JUMPI PUSH2 0x62D PUSH2 0x4C5 JUMP JUMPDEST JUMPDEST PUSH1 0x0 PUSH2 0x63C DUP6 DUP3 DUP7 ADD PUSH2 0x5A7 JUMP JUMPDEST SWAP3 POP POP PUSH1 0x20 PUSH2 0x64D DUP6 DUP3 DUP7 ADD PUSH2 0x4E1 JUMP JUMPDEST SWAP2 POP POP SWAP3 POP SWAP3 SWAP1 POP JUMP JUMPDEST PUSH1 0x0 DUP3 DUP3 MSTORE PUSH1 0x20 DUP3 ADD SWAP1 POP SWAP3 SWAP2 POP POP JUMP JUMPDEST PUSH32 0x5472616E73616374696F6E20416C726561647920417070726F7665642E2E2E00 PUSH1 0x0 DUP3 ADD MSTORE POP JUMP JUMPDEST PUSH1 0x0 PUSH2 0x69E PUSH1 0x1F DUP4 PUSH2 0x657 JUMP JUMPDEST SWAP2 POP PUSH2 0x6A9 DUP3 PUSH2 0x668 JUMP JUMPDEST PUSH1 0x20 DUP3 ADD SWAP1 POP SWAP2 SWAP1 POP JUMP JUMPDEST PUSH1 0x0 PUSH1 0x20 DUP3 ADD SWAP1 POP DUP2 DUP2 SUB PUSH1 0x0 DUP4 ADD MSTORE PUSH2 0x6CD DUP2 PUSH2 0x691 JUMP JUMPDEST SWAP1 POP SWAP2 SWAP1 POP JUMP JUMPDEST PUSH32 0x4E487B7100000000000000000000000000000000000000000000000000000000 PUSH1 0x0 MSTORE PUSH1 0x11 PUSH1 0x4 MSTORE PUSH1 0x24 PUSH1 0x0 REVERT JUMPDEST PUSH1 0x0 PUSH2 0x70E DUP3 PUSH2 0x483 JUMP JUMPDEST SWAP2 POP PUSH2 0x719 DUP4 PUSH2 0x483 JUMP JUMPDEST SWAP3 POP DUP3 DUP3 SUB SWAP1 POP DUP2 DUP2 GT ISZERO PUSH2 0x731 JUMPI PUSH2 0x730 PUSH2 0x6D4 JUMP JUMPDEST JUMPDEST SWAP3 SWAP2 POP POP JUMP JUMPDEST PUSH32 0x5472616E73616374696F6E20446F6573206E6F742045786973742E2E2E000000 PUSH1 0x0 DUP3 ADD MSTORE POP JUMP JUMPDEST PUSH1 0x0 PUSH2 0x76D PUSH1 0x1D DUP4 PUSH2 0x657 JUMP JUMPDEST SWAP2 POP PUSH2 0x778 DUP3 PUSH2 0x737 JUMP JUMPDEST PUSH1 0x20 DUP3 ADD SWAP1 POP SWAP2 SWAP1 POP JUMP JUMPDEST PUSH1 0x0 PUSH1 0x20 DUP3 ADD SWAP1 POP DUP2 DUP2 SUB PUSH1 0x0 DUP4 ADD MSTORE PUSH2 0x79C DUP2 PUSH2 0x760 JUMP JUMPDEST SWAP1 POP SWAP2 SWAP1 POP JUMP INVALID LOG2 PUSH5 0x6970667358 0x22 SLT KECCAK256 0xEA BALANCE STATICCALL MSTORE CODECOPY 0xF6 0x2C DUP12 0x2D 0xB3 ADDRESS ADDMOD LOG0 SUB SLT 0xDF 0xE9 LOG2 0xD3 0xA5 0xC7 0xF9 ORIGIN 0xE9 0xF6 0x2C STATICCALL PUSH13 0x36C1114964736F6C6343000810 STOP CALLER "
				},
				"gasEstimates": {
					"creation": {
						"codeDepositCost": "401800",
						"executionCost": "infinite",
						"totalCost": "infinite"
					},
					"external": {
						"approval(uint256,address)": "3131",
						"approveTransaction(uint256)": "infinite",
						"makeTransaction(address,uint256)": "95803",
						"owners(uint256)": "4934",
						"transactions(uint256)": "infinite"
					}
				},
				"methodIdentifiers": {
					"approval(uint256,address)": "b848de35",
					"approveTransaction(uint256)": "242232d1",
					"makeTransaction(address,uint256)": "e6beded8",
					"owners(uint256)": "025e7c27",
					"transactions(uint256)": "9ace38c2"
				}
			},
			"storageLayout": {
				"storage": [
					{
						"astId": 12,
						"contract": "contracts/MultiSigWallet.sol:MultiSigWallet",
						"label": "owners",
						"offset": 0,
						"slot": "0",
						"type": "t_array(t_address)dyn_storage"
					},
					{
						"astId": 14,
						"contract": "contracts/MultiSigWallet.sol:MultiSigWallet",
						"label": "required",
						"offset": 0,
						"slot": "1",
						"type": "t_uint256"
					},
					{
						"astId": 20,
						"contract": "contracts/MultiSigWallet.sol:MultiSigWallet",
						"label": "approval",
						"offset": 0,
						"slot": "2",
						"type": "t_mapping(t_uint256,t_mapping(t_address,t_bool))"
					},
					{
						"astId": 31,
						"contract": "contracts/MultiSigWallet.sol:MultiSigWallet",
						"label": "transactions",
						"offset": 0,
						"slot": "3",
						"type": "t_array(t_struct(Transaction)27_storage)dyn_storage"
					}
				],
				"types": {
					"t_address": {
						"encoding": "inplace",
						"label": "address",
						"numberOfBytes": "20"
					},
					"t_array(t_address)dyn_storage": {
						"base": "t_address",
						"encoding": "dynamic_array",
						"label": "address[]",
						"numberOfBytes": "32"
					},
					"t_array(t_struct(Transaction)27_storage)dyn_storage": {
						"base": "t_struct(Transaction)27_storage",
						"encoding": "dynamic_array",
						"label": "struct MultiSigWallet.Transaction[]",
						"numberOfBytes": "32"
					},
					"t_bool": {
						"encoding": "inplace",
						"label": "bool",
						"numberOfBytes": "1"
					},
					"t_mapping(t_address,t_bool)": {
						"encoding": "mapping",
						"key": "t_address",
						"label": "mapping(address => bool)",
						"numberOfBytes": "32",
						"value": "t_bool"
					},
					"t_mapping(t_uint256,t_mapping(t_address,t_bool))": {
						"encoding": "mapping",
						"key": "t_uint256",
						"label": "mapping(uint256 => mapping(address => bool))",
						"numberOfBytes": "32",
						"value": "t_mapping(t_address,t_bool)"
					},
					"t_struct(Transaction)27_storage": {
						"encoding": "inplace",
						"label": "struct MultiSigWallet.Transaction",
						"members": [
							{
								"astId": 22,
								"contract": "contracts/MultiSigWallet.sol:MultiSigWallet",
								"label": "to",
								"offset": 0,
								"slot": "0",
								"type": "t_address"
							},
							{
								"astId": 24,
								"contract": "contracts/MultiSigWallet.sol:MultiSigWallet",
								"label": "value",
								"offset": 0,
								"slot": "1",
								"type": "t_uint256"
							},
							{
								"astId": 26,
								"contract": "contracts/MultiSigWallet.sol:MultiSigWallet",
								"label": "executed",
								"offset": 0,
								"slot": "2",
								"type": "t_bool"
							}
						],
						"numberOfBytes": "96"
					},
					"t_uint256": {
						"encoding": "inplace",
						"label": "uint256",
						"numberOfBytes": "32"
					}
				}
			},
			"userdoc": {
				"kind": "user",
				"methods": {},
				"version": 1
			}
		}
	}
}