{
	"contracts/ToDo.sol": {
		"TodoList": {
			"abi": [
				{
					"inputs": [
						{
							"internalType": "string",
							"name": "_text",
							"type": "string"
						}
					],
					"name": "create",
					"outputs": [],
					"stateMutability": "nonpayable",
					"type": "function"
				},
				{
					"inputs": [
						{
							"internalType": "string",
							"name": "_text",
							"type": "string"
						},
						{
							"internalType": "bool",
							"name": "",
							"type": "bool"
						}
					],
					"name": "update",
					"outputs": [],
					"stateMutability": "nonpayable",
					"type": "function"
				}
			],
			"devdoc": {
				"kind": "dev",
				"methods": {},
				"version": 1
			},
			"evm": {
				"assembly": "    /* \"contracts/ToDo.sol\":68:410  contract TodoList {\r... */\n  mstore(0x40, 0x80)\n  callvalue\n  dup1\n  iszero\n  tag_1\n  jumpi\n  0x00\n  dup1\n  revert\ntag_1:\n  pop\n  dataSize(sub_0)\n  dup1\n  dataOffset(sub_0)\n  0x00\n  codecopy\n  0x00\n  return\nstop\n\nsub_0: assembly {\n        /* \"contracts/ToDo.sol\":68:410  contract TodoList {\r... */\n      mstore(0x40, 0x80)\n      callvalue\n      dup1\n      iszero\n      tag_1\n      jumpi\n      0x00\n      dup1\n      revert\n    tag_1:\n      pop\n      jumpi(tag_2, lt(calldatasize, 0x04))\n      shr(0xe0, calldataload(0x00))\n      dup1\n      0x75cee1c6\n      eq\n      tag_3\n      jumpi\n      dup1\n      0xb6a46b3b\n      eq\n      tag_4\n      jumpi\n    tag_2:\n      0x00\n      dup1\n      revert\n        /* \"contracts/ToDo.sol\":333:403  function update(string calldata _text, bool ) external{\r... */\n    tag_3:\n      tag_5\n      0x04\n      dup1\n      calldatasize\n      sub\n      dup2\n      add\n      swap1\n      tag_6\n      swap2\n      swap1\n      tag_7\n      jump\t// in\n    tag_6:\n      tag_8\n      jump\t// in\n    tag_5:\n      stop\n        /* \"contracts/ToDo.sol\":195:326  function create(string calldata _text) external {\r... */\n    tag_4:\n      tag_9\n      0x04\n      dup1\n      calldatasize\n      sub\n      dup2\n      add\n      swap1\n      tag_10\n      swap2\n      swap1\n      tag_11\n      jump\t// in\n    tag_10:\n      tag_12\n      jump\t// in\n    tag_9:\n      stop\n        /* \"contracts/ToDo.sol\":333:403  function update(string calldata _text, bool ) external{\r... */\n    tag_8:\n      pop\n      pop\n      pop\n      jump\t// out\n        /* \"contracts/ToDo.sol\":195:326  function create(string calldata _text) external {\r... */\n    tag_12:\n        /* \"contracts/ToDo.sol\":255:271  ToDo memory todo */\n      0x00\n        /* \"contracts/ToDo.sol\":274:291  ToDo(_text,false) */\n      mload(0x40)\n      dup1\n      0x40\n      add\n      0x40\n      mstore\n      dup1\n        /* \"contracts/ToDo.sol\":279:284  _text */\n      dup5\n      dup5\n        /* \"contracts/ToDo.sol\":274:291  ToDo(_text,false) */\n      dup1\n      dup1\n      0x1f\n      add\n      0x20\n      dup1\n      swap2\n      div\n      mul\n      0x20\n      add\n      mload(0x40)\n      swap1\n      dup2\n      add\n      0x40\n      mstore\n      dup1\n      swap4\n      swap3\n      swap2\n      swap1\n      dup2\n      dup2\n      mstore\n      0x20\n      add\n      dup4\n      dup4\n      dup1\n      dup3\n      dup5\n      calldatacopy\n      0x00\n      dup2\n      dup5\n      add\n      mstore\n      not(0x1f)\n      0x1f\n      dup3\n      add\n      and\n      swap1\n      pop\n      dup1\n      dup4\n      add\n      swap3\n      pop\n      pop\n      pop\n      pop\n      pop\n      pop\n      pop\n      dup2\n      mstore\n      0x20\n      add\n        /* \"contracts/ToDo.sol\":285:290  false */\n      0x00\n        /* \"contracts/ToDo.sol\":274:291  ToDo(_text,false) */\n      iszero\n      iszero\n      dup2\n      mstore\n      pop\n        /* \"contracts/ToDo.sol\":255:291  ToDo memory todo = ToDo(_text,false) */\n      swap1\n      pop\n        /* \"contracts/ToDo.sol\":301:306  todos */\n      0x00\n        /* \"contracts/ToDo.sol\":312:316  todo */\n      dup2\n        /* \"contracts/ToDo.sol\":301:317  todos.push(todo) */\n      swap1\n      dup1\n      0x01\n      dup2\n      sload\n      add\n      dup1\n      dup3\n      sstore\n      dup1\n      swap2\n      pop\n      pop\n      0x01\n      swap1\n      sub\n      swap1\n      0x00\n      mstore\n      keccak256(0x00, 0x20)\n      swap1\n      0x02\n      mul\n      add\n      0x00\n      swap1\n      swap2\n      swap1\n      swap2\n      swap1\n      swap2\n      pop\n      0x00\n      dup3\n      add\n      mload\n      dup2\n      0x00\n      add\n      swap1\n      dup1\n      mload\n      swap1\n      0x20\n      add\n      swap1\n      tag_16\n      swap3\n      swap2\n      swap1\n      tag_17\n      jump\t// in\n    tag_16:\n      pop\n      0x20\n      dup3\n      add\n      mload\n      dup2\n      0x01\n      add\n      exp(0x0100, 0x00)\n      dup2\n      sload\n      dup2\n      0xff\n      mul\n      not\n      and\n      swap1\n      dup4\n      iszero\n      iszero\n      mul\n      or\n      swap1\n      sstore\n      pop\n      pop\n      pop\n        /* \"contracts/ToDo.sol\":243:326  {\r... */\n      pop\n        /* \"contracts/ToDo.sol\":195:326  function create(string calldata _text) external {\r... */\n      pop\n      pop\n      jump\t// out\n    tag_17:\n      dup3\n      dup1\n      sload\n      tag_18\n      swap1\n      tag_19\n      jump\t// in\n    tag_18:\n      swap1\n      0x00\n      mstore\n      keccak256(0x00, 0x20)\n      swap1\n      0x1f\n      add\n      0x20\n      swap1\n      div\n      dup2\n      add\n      swap3\n      dup3\n      tag_21\n      jumpi\n      0x00\n      dup6\n      sstore\n      jump(tag_20)\n    tag_21:\n      dup3\n      0x1f\n      lt\n      tag_22\n      jumpi\n      dup1\n      mload\n      not(0xff)\n      and\n      dup4\n      dup1\n      add\n      or\n      dup6\n      sstore\n      jump(tag_20)\n    tag_22:\n      dup3\n      dup1\n      add\n      0x01\n      add\n      dup6\n      sstore\n      dup3\n      iszero\n      tag_20\n      jumpi\n      swap2\n      dup3\n      add\n    tag_23:\n      dup3\n      dup2\n      gt\n      iszero\n      tag_24\n      jumpi\n      dup3\n      mload\n      dup3\n      sstore\n      swap2\n      0x20\n      add\n      swap2\n      swap1\n      0x01\n      add\n      swap1\n      jump(tag_23)\n    tag_24:\n    tag_20:\n      pop\n      swap1\n      pop\n      tag_25\n      swap2\n      swap1\n      tag_26\n      jump\t// in\n    tag_25:\n      pop\n      swap1\n      jump\t// out\n    tag_26:\n    tag_27:\n      dup1\n      dup3\n      gt\n      iszero\n      tag_28\n      jumpi\n      0x00\n      dup2\n      0x00\n      swap1\n      sstore\n      pop\n      0x01\n      add\n      jump(tag_27)\n    tag_28:\n      pop\n      swap1\n      jump\t// out\n        /* \"#utility.yul\":7:140   */\n    tag_30:\n        /* \"#utility.yul\":50:55   */\n      0x00\n        /* \"#utility.yul\":88:94   */\n      dup2\n        /* \"#utility.yul\":75:95   */\n      calldataload\n        /* \"#utility.yul\":66:95   */\n      swap1\n      pop\n        /* \"#utility.yul\":104:134   */\n      tag_32\n        /* \"#utility.yul\":128:133   */\n      dup2\n        /* \"#utility.yul\":104:134   */\n      tag_33\n      jump\t// in\n    tag_32:\n        /* \"#utility.yul\":7:140   */\n      swap3\n      swap2\n      pop\n      pop\n      jump\t// out\n        /* \"#utility.yul\":160:713   */\n    tag_34:\n        /* \"#utility.yul\":218:226   */\n      0x00\n        /* \"#utility.yul\":228:234   */\n      dup1\n        /* \"#utility.yul\":278:281   */\n      dup4\n        /* \"#utility.yul\":271:275   */\n      0x1f\n        /* \"#utility.yul\":263:269   */\n      dup5\n        /* \"#utility.yul\":259:276   */\n      add\n        /* \"#utility.yul\":255:282   */\n      slt\n        /* \"#utility.yul\":245:367   */\n      tag_36\n      jumpi\n        /* \"#utility.yul\":286:365   */\n      tag_37\n      tag_38\n      jump\t// in\n    tag_37:\n        /* \"#utility.yul\":245:367   */\n    tag_36:\n        /* \"#utility.yul\":399:405   */\n      dup3\n        /* \"#utility.yul\":386:406   */\n      calldataload\n        /* \"#utility.yul\":376:406   */\n      swap1\n      pop\n        /* \"#utility.yul\":429:447   */\n      0xffffffffffffffff\n        /* \"#utility.yul\":421:427   */\n      dup2\n        /* \"#utility.yul\":418:448   */\n      gt\n        /* \"#utility.yul\":415:532   */\n      iszero\n      tag_39\n      jumpi\n        /* \"#utility.yul\":451:530   */\n      tag_40\n      tag_41\n      jump\t// in\n    tag_40:\n        /* \"#utility.yul\":415:532   */\n    tag_39:\n        /* \"#utility.yul\":565:569   */\n      0x20\n        /* \"#utility.yul\":557:563   */\n      dup4\n        /* \"#utility.yul\":553:570   */\n      add\n        /* \"#utility.yul\":541:570   */\n      swap2\n      pop\n        /* \"#utility.yul\":619:622   */\n      dup4\n        /* \"#utility.yul\":611:615   */\n      0x01\n        /* \"#utility.yul\":603:609   */\n      dup3\n        /* \"#utility.yul\":599:616   */\n      mul\n        /* \"#utility.yul\":589:597   */\n      dup4\n        /* \"#utility.yul\":585:617   */\n      add\n        /* \"#utility.yul\":582:623   */\n      gt\n        /* \"#utility.yul\":579:707   */\n      iszero\n      tag_42\n      jumpi\n        /* \"#utility.yul\":626:705   */\n      tag_43\n      tag_44\n      jump\t// in\n    tag_43:\n        /* \"#utility.yul\":579:707   */\n    tag_42:\n        /* \"#utility.yul\":160:713   */\n      swap3\n      pop\n      swap3\n      swap1\n      pop\n      jump\t// out\n        /* \"#utility.yul\":719:1248   */\n    tag_11:\n        /* \"#utility.yul\":790:796   */\n      0x00\n        /* \"#utility.yul\":798:804   */\n      dup1\n        /* \"#utility.yul\":847:849   */\n      0x20\n        /* \"#utility.yul\":835:844   */\n      dup4\n        /* \"#utility.yul\":826:833   */\n      dup6\n        /* \"#utility.yul\":822:845   */\n      sub\n        /* \"#utility.yul\":818:850   */\n      slt\n        /* \"#utility.yul\":815:934   */\n      iszero\n      tag_46\n      jumpi\n        /* \"#utility.yul\":853:932   */\n      tag_47\n      tag_48\n      jump\t// in\n    tag_47:\n        /* \"#utility.yul\":815:934   */\n    tag_46:\n        /* \"#utility.yul\":1001:1002   */\n      0x00\n        /* \"#utility.yul\":990:999   */\n      dup4\n        /* \"#utility.yul\":986:1003   */\n      add\n        /* \"#utility.yul\":973:1004   */\n      calldataload\n        /* \"#utility.yul\":1031:1049   */\n      0xffffffffffffffff\n        /* \"#utility.yul\":1023:1029   */\n      dup2\n        /* \"#utility.yul\":1020:1050   */\n      gt\n        /* \"#utility.yul\":1017:1134   */\n      iszero\n      tag_49\n      jumpi\n        /* \"#utility.yul\":1053:1132   */\n      tag_50\n      tag_51\n      jump\t// in\n    tag_50:\n        /* \"#utility.yul\":1017:1134   */\n    tag_49:\n        /* \"#utility.yul\":1166:1231   */\n      tag_52\n        /* \"#utility.yul\":1223:1230   */\n      dup6\n        /* \"#utility.yul\":1214:1220   */\n      dup3\n        /* \"#utility.yul\":1203:1212   */\n      dup7\n        /* \"#utility.yul\":1199:1221   */\n      add\n        /* \"#utility.yul\":1166:1231   */\n      tag_34\n      jump\t// in\n    tag_52:\n        /* \"#utility.yul\":1148:1231   */\n      swap3\n      pop\n      swap3\n      pop\n        /* \"#utility.yul\":944:1241   */\n      pop\n        /* \"#utility.yul\":719:1248   */\n      swap3\n      pop\n      swap3\n      swap1\n      pop\n      jump\t// out\n        /* \"#utility.yul\":1254:1922   */\n    tag_7:\n        /* \"#utility.yul\":1331:1337   */\n      0x00\n        /* \"#utility.yul\":1339:1345   */\n      dup1\n        /* \"#utility.yul\":1347:1353   */\n      0x00\n        /* \"#utility.yul\":1396:1398   */\n      0x40\n        /* \"#utility.yul\":1384:1393   */\n      dup5\n        /* \"#utility.yul\":1375:1382   */\n      dup7\n        /* \"#utility.yul\":1371:1394   */\n      sub\n        /* \"#utility.yul\":1367:1399   */\n      slt\n        /* \"#utility.yul\":1364:1483   */\n      iszero\n      tag_54\n      jumpi\n        /* \"#utility.yul\":1402:1481   */\n      tag_55\n      tag_48\n      jump\t// in\n    tag_55:\n        /* \"#utility.yul\":1364:1483   */\n    tag_54:\n        /* \"#utility.yul\":1550:1551   */\n      0x00\n        /* \"#utility.yul\":1539:1548   */\n      dup5\n        /* \"#utility.yul\":1535:1552   */\n      add\n        /* \"#utility.yul\":1522:1553   */\n      calldataload\n        /* \"#utility.yul\":1580:1598   */\n      0xffffffffffffffff\n        /* \"#utility.yul\":1572:1578   */\n      dup2\n        /* \"#utility.yul\":1569:1599   */\n      gt\n        /* \"#utility.yul\":1566:1683   */\n      iszero\n      tag_56\n      jumpi\n        /* \"#utility.yul\":1602:1681   */\n      tag_57\n      tag_51\n      jump\t// in\n    tag_57:\n        /* \"#utility.yul\":1566:1683   */\n    tag_56:\n        /* \"#utility.yul\":1715:1780   */\n      tag_58\n        /* \"#utility.yul\":1772:1779   */\n      dup7\n        /* \"#utility.yul\":1763:1769   */\n      dup3\n        /* \"#utility.yul\":1752:1761   */\n      dup8\n        /* \"#utility.yul\":1748:1770   */\n      add\n        /* \"#utility.yul\":1715:1780   */\n      tag_34\n      jump\t// in\n    tag_58:\n        /* \"#utility.yul\":1697:1780   */\n      swap4\n      pop\n      swap4\n      pop\n        /* \"#utility.yul\":1493:1790   */\n      pop\n        /* \"#utility.yul\":1829:1831   */\n      0x20\n        /* \"#utility.yul\":1855:1905   */\n      tag_59\n        /* \"#utility.yul\":1897:1904   */\n      dup7\n        /* \"#utility.yul\":1888:1894   */\n      dup3\n        /* \"#utility.yul\":1877:1886   */\n      dup8\n        /* \"#utility.yul\":1873:1895   */\n      add\n        /* \"#utility.yul\":1855:1905   */\n      tag_30\n      jump\t// in\n    tag_59:\n        /* \"#utility.yul\":1845:1905   */\n      swap2\n      pop\n        /* \"#utility.yul\":1800:1915   */\n      pop\n        /* \"#utility.yul\":1254:1922   */\n      swap3\n      pop\n      swap3\n      pop\n      swap3\n      jump\t// out\n        /* \"#utility.yul\":2009:2099   */\n    tag_62:\n        /* \"#utility.yul\":2043:2050   */\n      0x00\n        /* \"#utility.yul\":2086:2091   */\n      dup2\n        /* \"#utility.yul\":2079:2092   */\n      iszero\n        /* \"#utility.yul\":2072:2093   */\n      iszero\n        /* \"#utility.yul\":2061:2093   */\n      swap1\n      pop\n        /* \"#utility.yul\":2009:2099   */\n      swap2\n      swap1\n      pop\n      jump\t// out\n        /* \"#utility.yul\":2105:2425   */\n    tag_19:\n        /* \"#utility.yul\":2149:2155   */\n      0x00\n        /* \"#utility.yul\":2186:2187   */\n      0x02\n        /* \"#utility.yul\":2180:2184   */\n      dup3\n        /* \"#utility.yul\":2176:2188   */\n      div\n        /* \"#utility.yul\":2166:2188   */\n      swap1\n      pop\n        /* \"#utility.yul\":2233:2234   */\n      0x01\n        /* \"#utility.yul\":2227:2231   */\n      dup3\n        /* \"#utility.yul\":2223:2235   */\n      and\n        /* \"#utility.yul\":2254:2272   */\n      dup1\n        /* \"#utility.yul\":2244:2325   */\n      tag_65\n      jumpi\n        /* \"#utility.yul\":2310:2314   */\n      0x7f\n        /* \"#utility.yul\":2302:2308   */\n      dup3\n        /* \"#utility.yul\":2298:2315   */\n      and\n        /* \"#utility.yul\":2288:2315   */\n      swap2\n      pop\n        /* \"#utility.yul\":2244:2325   */\n    tag_65:\n        /* \"#utility.yul\":2372:2374   */\n      0x20\n        /* \"#utility.yul\":2364:2370   */\n      dup3\n        /* \"#utility.yul\":2361:2375   */\n      lt\n        /* \"#utility.yul\":2341:2359   */\n      dup2\n        /* \"#utility.yul\":2338:2376   */\n      eq\n        /* \"#utility.yul\":2335:2419   */\n      iszero\n      tag_66\n      jumpi\n        /* \"#utility.yul\":2391:2409   */\n      tag_67\n      tag_68\n      jump\t// in\n    tag_67:\n        /* \"#utility.yul\":2335:2419   */\n    tag_66:\n        /* \"#utility.yul\":2156:2425   */\n      pop\n        /* \"#utility.yul\":2105:2425   */\n      swap2\n      swap1\n      pop\n      jump\t// out\n        /* \"#utility.yul\":2431:2611   */\n    tag_68:\n        /* \"#utility.yul\":2479:2556   */\n      0x4e487b7100000000000000000000000000000000000000000000000000000000\n        /* \"#utility.yul\":2476:2477   */\n      0x00\n        /* \"#utility.yul\":2469:2557   */\n      mstore\n        /* \"#utility.yul\":2576:2580   */\n      0x22\n        /* \"#utility.yul\":2573:2574   */\n      0x04\n        /* \"#utility.yul\":2566:2581   */\n      mstore\n        /* \"#utility.yul\":2600:2604   */\n      0x24\n        /* \"#utility.yul\":2597:2598   */\n      0x00\n        /* \"#utility.yul\":2590:2605   */\n      revert\n        /* \"#utility.yul\":2617:2734   */\n    tag_41:\n        /* \"#utility.yul\":2726:2727   */\n      0x00\n        /* \"#utility.yul\":2723:2724   */\n      dup1\n        /* \"#utility.yul\":2716:2728   */\n      revert\n        /* \"#utility.yul\":2740:2857   */\n    tag_38:\n        /* \"#utility.yul\":2849:2850   */\n      0x00\n        /* \"#utility.yul\":2846:2847   */\n      dup1\n        /* \"#utility.yul\":2839:2851   */\n      revert\n        /* \"#utility.yul\":2863:2980   */\n    tag_44:\n        /* \"#utility.yul\":2972:2973   */\n      0x00\n        /* \"#utility.yul\":2969:2970   */\n      dup1\n        /* \"#utility.yul\":2962:2974   */\n      revert\n        /* \"#utility.yul\":2986:3103   */\n    tag_51:\n        /* \"#utility.yul\":3095:3096   */\n      0x00\n        /* \"#utility.yul\":3092:3093   */\n      dup1\n        /* \"#utility.yul\":3085:3097   */\n      revert\n        /* \"#utility.yul\":3109:3226   */\n    tag_48:\n        /* \"#utility.yul\":3218:3219   */\n      0x00\n        /* \"#utility.yul\":3215:3216   */\n      dup1\n        /* \"#utility.yul\":3208:3220   */\n      revert\n        /* \"#utility.yul\":3232:3348   */\n    tag_33:\n        /* \"#utility.yul\":3302:3323   */\n      tag_76\n        /* \"#utility.yul\":3317:3322   */\n      dup2\n        /* \"#utility.yul\":3302:3323   */\n      tag_62\n      jump\t// in\n    tag_76:\n        /* \"#utility.yul\":3295:3300   */\n      dup2\n        /* \"#utility.yul\":3292:3324   */\n      eq\n        /* \"#utility.yul\":3282:3342   */\n      tag_77\n      jumpi\n        /* \"#utility.yul\":3338:3339   */\n      0x00\n        /* \"#utility.yul\":3335:3336   */\n      dup1\n        /* \"#utility.yul\":3328:3340   */\n      revert\n        /* \"#utility.yul\":3282:3342   */\n    tag_77:\n        /* \"#utility.yul\":3232:3348   */\n      pop\n      jump\t// out\n\n    auxdata: 0xa26469706673582212207804fa75cbdc9ed3a8ce957d321200de493c787c3e229900aaaea42d424cf1d064736f6c63430008070033\n}\n",
				"bytecode": {
					"linkReferences": {},
					"object": "608060405234801561001057600080fd5b506103d6806100206000396000f3fe608060405234801561001057600080fd5b50600436106100365760003560e01c806375cee1c61461003b578063b6a46b3b14610057575b600080fd5b610055600480360381019061005091906102a3565b610073565b005b610071600480360381019061006c9190610256565b610078565b005b505050565b6000604051806040016040528084848080601f016020809104026020016040519081016040528093929190818152602001838380828437600081840152601f19601f82011690508083019250505050505050815260200160001515815250905060008190806001815401808255809150506001900390600052602060002090600202016000909190919091506000820151816000019080519060200190610120929190610148565b5060208201518160010160006101000a81548160ff0219169083151502179055505050505050565b8280546101549061030f565b90600052602060002090601f01602090048101928261017657600085556101bd565b82601f1061018f57805160ff19168380011785556101bd565b828001600101855582156101bd579182015b828111156101bc5782518255916020019190600101906101a1565b5b5090506101ca91906101ce565b5090565b5b808211156101e75760008160009055506001016101cf565b5090565b6000813590506101fa81610389565b92915050565b60008083601f84011261021657610215610375565b5b8235905067ffffffffffffffff81111561023357610232610370565b5b60208301915083600182028301111561024f5761024e61037a565b5b9250929050565b6000806020838503121561026d5761026c610384565b5b600083013567ffffffffffffffff81111561028b5761028a61037f565b5b61029785828601610200565b92509250509250929050565b6000806000604084860312156102bc576102bb610384565b5b600084013567ffffffffffffffff8111156102da576102d961037f565b5b6102e686828701610200565b935093505060206102f9868287016101eb565b9150509250925092565b60008115159050919050565b6000600282049050600182168061032757607f821691505b6020821081141561033b5761033a610341565b5b50919050565b7f4e487b7100000000000000000000000000000000000000000000000000000000600052602260045260246000fd5b600080fd5b600080fd5b600080fd5b600080fd5b600080fd5b61039281610303565b811461039d57600080fd5b5056fea26469706673582212207804fa75cbdc9ed3a8ce957d321200de493c787c3e229900aaaea42d424cf1d064736f6c63430008070033",
					"opcodes": "PUSH1 0x80 PUSH1 0x40 MSTORE CALLVALUE DUP1 ISZERO PUSH2 0x10 JUMPI PUSH1 0x0 DUP1 REVERT JUMPDEST POP PUSH2 0x3D6 DUP1 PUSH2 0x20 PUSH1 0x0 CODECOPY PUSH1 0x0 RETURN INVALID PUSH1 0x80 PUSH1 0x40 MSTORE CALLVALUE DUP1 ISZERO PUSH2 0x10 JUMPI PUSH1 0x0 DUP1 REVERT JUMPDEST POP PUSH1 0x4 CALLDATASIZE LT PUSH2 0x36 JUMPI PUSH1 0x0 CALLDATALOAD PUSH1 0xE0 SHR DUP1 PUSH4 0x75CEE1C6 EQ PUSH2 0x3B JUMPI DUP1 PUSH4 0xB6A46B3B EQ PUSH2 0x57 JUMPI JUMPDEST PUSH1 0x0 DUP1 REVERT JUMPDEST PUSH2 0x55 PUSH1 0x4 DUP1 CALLDATASIZE SUB DUP2 ADD SWAP1 PUSH2 0x50 SWAP2 SWAP1 PUSH2 0x2A3 JUMP JUMPDEST PUSH2 0x73 JUMP JUMPDEST STOP JUMPDEST PUSH2 0x71 PUSH1 0x4 DUP1 CALLDATASIZE SUB DUP2 ADD SWAP1 PUSH2 0x6C SWAP2 SWAP1 PUSH2 0x256 JUMP JUMPDEST PUSH2 0x78 JUMP JUMPDEST STOP JUMPDEST POP POP POP JUMP JUMPDEST PUSH1 0x0 PUSH1 0x40 MLOAD DUP1 PUSH1 0x40 ADD PUSH1 0x40 MSTORE DUP1 DUP5 DUP5 DUP1 DUP1 PUSH1 0x1F ADD PUSH1 0x20 DUP1 SWAP2 DIV MUL PUSH1 0x20 ADD PUSH1 0x40 MLOAD SWAP1 DUP2 ADD PUSH1 0x40 MSTORE DUP1 SWAP4 SWAP3 SWAP2 SWAP1 DUP2 DUP2 MSTORE PUSH1 0x20 ADD DUP4 DUP4 DUP1 DUP3 DUP5 CALLDATACOPY PUSH1 0x0 DUP2 DUP5 ADD MSTORE PUSH1 0x1F NOT PUSH1 0x1F DUP3 ADD AND SWAP1 POP DUP1 DUP4 ADD SWAP3 POP POP POP POP POP POP POP DUP2 MSTORE PUSH1 0x20 ADD PUSH1 0x0 ISZERO ISZERO DUP2 MSTORE POP SWAP1 POP PUSH1 0x0 DUP2 SWAP1 DUP1 PUSH1 0x1 DUP2 SLOAD ADD DUP1 DUP3 SSTORE DUP1 SWAP2 POP POP PUSH1 0x1 SWAP1 SUB SWAP1 PUSH1 0x0 MSTORE PUSH1 0x20 PUSH1 0x0 KECCAK256 SWAP1 PUSH1 0x2 MUL ADD PUSH1 0x0 SWAP1 SWAP2 SWAP1 SWAP2 SWAP1 SWAP2 POP PUSH1 0x0 DUP3 ADD MLOAD DUP2 PUSH1 0x0 ADD SWAP1 DUP1 MLOAD SWAP1 PUSH1 0x20 ADD SWAP1 PUSH2 0x120 SWAP3 SWAP2 SWAP1 PUSH2 0x148 JUMP JUMPDEST POP PUSH1 0x20 DUP3 ADD MLOAD DUP2 PUSH1 0x1 ADD PUSH1 0x0 PUSH2 0x100 EXP DUP2 SLOAD DUP2 PUSH1 0xFF MUL NOT AND SWAP1 DUP4 ISZERO ISZERO MUL OR SWAP1 SSTORE POP POP POP POP POP POP JUMP JUMPDEST DUP3 DUP1 SLOAD PUSH2 0x154 SWAP1 PUSH2 0x30F JUMP JUMPDEST SWAP1 PUSH1 0x0 MSTORE PUSH1 0x20 PUSH1 0x0 KECCAK256 SWAP1 PUSH1 0x1F ADD PUSH1 0x20 SWAP1 DIV DUP2 ADD SWAP3 DUP3 PUSH2 0x176 JUMPI PUSH1 0x0 DUP6 SSTORE PUSH2 0x1BD JUMP JUMPDEST DUP3 PUSH1 0x1F LT PUSH2 0x18F JUMPI DUP1 MLOAD PUSH1 0xFF NOT AND DUP4 DUP1 ADD OR DUP6 SSTORE PUSH2 0x1BD JUMP JUMPDEST DUP3 DUP1 ADD PUSH1 0x1 ADD DUP6 SSTORE DUP3 ISZERO PUSH2 0x1BD JUMPI SWAP2 DUP3 ADD JUMPDEST DUP3 DUP2 GT ISZERO PUSH2 0x1BC JUMPI DUP3 MLOAD DUP3 SSTORE SWAP2 PUSH1 0x20 ADD SWAP2 SWAP1 PUSH1 0x1 ADD SWAP1 PUSH2 0x1A1 JUMP JUMPDEST JUMPDEST POP SWAP1 POP PUSH2 0x1CA SWAP2 SWAP1 PUSH2 0x1CE JUMP JUMPDEST POP SWAP1 JUMP JUMPDEST JUMPDEST DUP1 DUP3 GT ISZERO PUSH2 0x1E7 JUMPI PUSH1 0x0 DUP2 PUSH1 0x0 SWAP1 SSTORE POP PUSH1 0x1 ADD PUSH2 0x1CF JUMP JUMPDEST POP SWAP1 JUMP JUMPDEST PUSH1 0x0 DUP2 CALLDATALOAD SWAP1 POP PUSH2 0x1FA DUP2 PUSH2 0x389 JUMP JUMPDEST SWAP3 SWAP2 POP POP JUMP JUMPDEST PUSH1 0x0 DUP1 DUP4 PUSH1 0x1F DUP5 ADD SLT PUSH2 0x216 JUMPI PUSH2 0x215 PUSH2 0x375 JUMP JUMPDEST JUMPDEST DUP3 CALLDATALOAD SWAP1 POP PUSH8 0xFFFFFFFFFFFFFFFF DUP2 GT ISZERO PUSH2 0x233 JUMPI PUSH2 0x232 PUSH2 0x370 JUMP JUMPDEST JUMPDEST PUSH1 0x20 DUP4 ADD SWAP2 POP DUP4 PUSH1 0x1 DUP3 MUL DUP4 ADD GT ISZERO PUSH2 0x24F JUMPI PUSH2 0x24E PUSH2 0x37A JUMP JUMPDEST JUMPDEST SWAP3 POP SWAP3 SWAP1 POP JUMP JUMPDEST PUSH1 0x0 DUP1 PUSH1 0x20 DUP4 DUP6 SUB SLT ISZERO PUSH2 0x26D JUMPI PUSH2 0x26C PUSH2 0x384 JUMP JUMPDEST JUMPDEST PUSH1 0x0 DUP4 ADD CALLDATALOAD PUSH8 0xFFFFFFFFFFFFFFFF DUP2 GT ISZERO PUSH2 0x28B JUMPI PUSH2 0x28A PUSH2 0x37F JUMP JUMPDEST JUMPDEST PUSH2 0x297 DUP6 DUP3 DUP7 ADD PUSH2 0x200 JUMP JUMPDEST SWAP3 POP SWAP3 POP POP SWAP3 POP SWAP3 SWAP1 POP JUMP JUMPDEST PUSH1 0x0 DUP1 PUSH1 0x0 PUSH1 0x40 DUP5 DUP7 SUB SLT ISZERO PUSH2 0x2BC JUMPI PUSH2 0x2BB PUSH2 0x384 JUMP JUMPDEST JUMPDEST PUSH1 0x0 DUP5 ADD CALLDATALOAD PUSH8 0xFFFFFFFFFFFFFFFF DUP2 GT ISZERO PUSH2 0x2DA JUMPI PUSH2 0x2D9 PUSH2 0x37F JUMP JUMPDEST JUMPDEST PUSH2 0x2E6 DUP7 DUP3 DUP8 ADD PUSH2 0x200 JUMP JUMPDEST SWAP4 POP SWAP4 POP POP PUSH1 0x20 PUSH2 0x2F9 DUP7 DUP3 DUP8 ADD PUSH2 0x1EB JUMP JUMPDEST SWAP2 POP POP SWAP3 POP SWAP3 POP SWAP3 JUMP JUMPDEST PUSH1 0x0 DUP2 ISZERO ISZERO SWAP1 POP SWAP2 SWAP1 POP JUMP JUMPDEST PUSH1 0x0 PUSH1 0x2 DUP3 DIV SWAP1 POP PUSH1 0x1 DUP3 AND DUP1 PUSH2 0x327 JUMPI PUSH1 0x7F DUP3 AND SWAP2 POP JUMPDEST PUSH1 0x20 DUP3 LT DUP2 EQ ISZERO PUSH2 0x33B JUMPI PUSH2 0x33A PUSH2 0x341 JUMP JUMPDEST JUMPDEST POP SWAP2 SWAP1 POP JUMP JUMPDEST PUSH32 0x4E487B7100000000000000000000000000000000000000000000000000000000 PUSH1 0x0 MSTORE PUSH1 0x22 PUSH1 0x4 MSTORE PUSH1 0x24 PUSH1 0x0 REVERT JUMPDEST PUSH1 0x0 DUP1 REVERT JUMPDEST PUSH1 0x0 DUP1 REVERT JUMPDEST PUSH1 0x0 DUP1 REVERT JUMPDEST PUSH1 0x0 DUP1 REVERT JUMPDEST PUSH1 0x0 DUP1 REVERT JUMPDEST PUSH2 0x392 DUP2 PUSH2 0x303 JUMP JUMPDEST DUP2 EQ PUSH2 0x39D JUMPI PUSH1 0x0 DUP1 REVERT JUMPDEST POP JUMP INVALID LOG2 PUSH5 0x6970667358 0x22 SLT KECCAK256 PUSH25 0x4FA75CBDC9ED3A8CE957D321200DE493C787C3E229900AAAE LOG4 0x2D TIMESTAMP 0x4C CALL 0xD0 PUSH5 0x736F6C6343 STOP ADDMOD SMOD STOP CALLER "
				},
				"gasEstimates": {
					"creation": {
						"codeDepositCost": "196400",
						"executionCost": "238",
						"totalCost": "196638"
					},
					"external": {
						"create(string)": "infinite",
						"update(string,bool)": "628"
					}
				},
				"methodIdentifiers": {
					"create(string)": "b6a46b3b",
					"update(string,bool)": "75cee1c6"
				}
			},
			"storageLayout": {
				"storage": [
					{
						"astId": 10,
						"contract": "contracts/ToDo.sol:TodoList",
						"label": "todos",
						"offset": 0,
						"slot": "0",
						"type": "t_array(t_struct(ToDo)6_storage)dyn_storage"
					}
				],
				"types": {
					"t_array(t_struct(ToDo)6_storage)dyn_storage": {
						"base": "t_struct(ToDo)6_storage",
						"encoding": "dynamic_array",
						"label": "struct TodoList.ToDo[]",
						"numberOfBytes": "32"
					},
					"t_bool": {
						"encoding": "inplace",
						"label": "bool",
						"numberOfBytes": "1"
					},
					"t_string_storage": {
						"encoding": "bytes",
						"label": "string",
						"numberOfBytes": "32"
					},
					"t_struct(ToDo)6_storage": {
						"encoding": "inplace",
						"label": "struct TodoList.ToDo",
						"members": [
							{
								"astId": 3,
								"contract": "contracts/ToDo.sol:TodoList",
								"label": "text",
								"offset": 0,
								"slot": "0",
								"type": "t_string_storage"
							},
							{
								"astId": 5,
								"contract": "contracts/ToDo.sol:TodoList",
								"label": "completed",
								"offset": 0,
								"slot": "1",
								"type": "t_bool"
							}
						],
						"numberOfBytes": "64"
					}
				}
			},
			"userdoc": {
				"kind": "user",
				"methods": {},
				"version": 1
			}
		}
	}
}