{
	"contracts/MultiSigWallet.sol": {
		"MultiSigWallet": {
			"abi": [
				{
					"inputs": [
						{
							"internalType": "address[]",
							"name": "_owners",
							"type": "address[]"
						},
						{
							"internalType": "uint256",
							"name": "_required",
							"type": "uint256"
						}
					],
					"stateMutability": "nonpayable",
					"type": "constructor"
				},
				{
					"anonymous": false,
					"inputs": [
						{
							"indexed": false,
							"internalType": "uint256",
							"name": "",
							"type": "uint256"
						},
						{
							"indexed": false,
							"internalType": "address",
							"name": "",
							"type": "address"
						}
					],
					"name": "Approve",
					"type": "event"
				},
				{
					"anonymous": false,
					"inputs": [
						{
							"indexed": false,
							"internalType": "address",
							"name": "",
							"type": "address"
						},
						{
							"indexed": false,
							"internalType": "uint256",
							"name": "",
							"type": "uint256"
						}
					],
					"name": "Deposit",
					"type": "event"
				},
				{
					"anonymous": false,
					"inputs": [
						{
							"indexed": false,
							"internalType": "uint256",
							"name": "",
							"type": "uint256"
						},
						{
							"indexed": false,
							"internalType": "address",
							"name": "",
							"type": "address"
						}
					],
					"name": "Revoke",
					"type": "event"
				},
				{
					"inputs": [
						{
							"internalType": "uint256",
							"name": "_txId",
							"type": "uint256"
						}
					],
					"name": "approveTransaction",
					"outputs": [],
					"stateMutability": "nonpayable",
					"type": "function"
				},
				{
					"inputs": [
						{
							"internalType": "uint256",
							"name": "_txId",
							"type": "uint256"
						}
					],
					"name": "executeTransaction",
					"outputs": [],
					"stateMutability": "nonpayable",
					"type": "function"
				},
				{
					"inputs": [
						{
							"internalType": "address",
							"name": "",
							"type": "address"
						}
					],
					"name": "isOwner",
					"outputs": [
						{
							"internalType": "bool",
							"name": "",
							"type": "bool"
						}
					],
					"stateMutability": "view",
					"type": "function"
				},
				{
					"inputs": [
						{
							"internalType": "address",
							"name": "_to",
							"type": "address"
						},
						{
							"internalType": "uint256",
							"name": "_value",
							"type": "uint256"
						},
						{
							"internalType": "bytes",
							"name": "_data",
							"type": "bytes"
						}
					],
					"name": "makeTransaction",
					"outputs": [],
					"stateMutability": "nonpayable",
					"type": "function"
				},
				{
					"inputs": [
						{
							"internalType": "uint256",
							"name": "_txId",
							"type": "uint256"
						}
					],
					"name": "revokeApproval",
					"outputs": [],
					"stateMutability": "nonpayable",
					"type": "function"
				},
				{
					"stateMutability": "payable",
					"type": "receive"
				}
			],
			"devdoc": {
				"kind": "dev",
				"methods": {},
				"version": 1
			},
			"evm": {
				"assembly": "    /* \"contracts/MultiSigWallet.sol\":69:2954  contract MultiSigWallet{... */\n  mstore(0x40, 0x80)\n    /* \"contracts/MultiSigWallet.sol\":543:867  constructor(address[] memory _owners, uint _required) {... */\n  callvalue\n  dup1\n  iszero\n  tag_1\n  jumpi\n  0x00\n  dup1\n  revert\ntag_1:\n  pop\n  mload(0x40)\n  sub(codesize, bytecodeSize)\n  dup1\n  bytecodeSize\n  dup4\n  codecopy\n  dup2\n  dup2\n  add\n  0x40\n  mstore\n  dup2\n  add\n  swap1\n  tag_2\n  swap2\n  swap1\n  tag_3\n  jump\t// in\ntag_2:\n    /* \"contracts/MultiSigWallet.sol\":612:618  uint i */\n  0x00\n    /* \"contracts/MultiSigWallet.sol\":608:829  for(uint i=0; i < _owners.length; i++){... */\ntag_6:\n    /* \"contracts/MultiSigWallet.sol\":626:633  _owners */\n  dup3\n    /* \"contracts/MultiSigWallet.sol\":626:640  _owners.length */\n  mload\n    /* \"contracts/MultiSigWallet.sol\":622:623  i */\n  dup2\n    /* \"contracts/MultiSigWallet.sol\":622:640  i < _owners.length */\n  lt\n    /* \"contracts/MultiSigWallet.sol\":608:829  for(uint i=0; i < _owners.length; i++){... */\n  iszero\n  tag_7\n  jumpi\n    /* \"contracts/MultiSigWallet.sol\":661:674  address owner */\n  0x00\n    /* \"contracts/MultiSigWallet.sol\":677:684  _owners */\n  dup4\n    /* \"contracts/MultiSigWallet.sol\":685:686  i */\n  dup3\n    /* \"contracts/MultiSigWallet.sol\":677:687  _owners[i] */\n  dup2\n  mload\n  dup2\n  lt\n  tag_9\n  jumpi\n  tag_10\n  tag_11\n  jump\t// in\ntag_10:\ntag_9:\n  0x20\n  mul\n  0x20\n  add\n  add\n  mload\n    /* \"contracts/MultiSigWallet.sol\":661:687  address owner = _owners[i] */\n  swap1\n  pop\n    /* \"contracts/MultiSigWallet.sol\":713:720  isOwner */\n  0x01\n    /* \"contracts/MultiSigWallet.sol\":713:727  isOwner[owner] */\n  0x00\n    /* \"contracts/MultiSigWallet.sol\":721:726  owner */\n  dup3\n    /* \"contracts/MultiSigWallet.sol\":713:727  isOwner[owner] */\n  0xffffffffffffffffffffffffffffffffffffffff\n  and\n  0xffffffffffffffffffffffffffffffffffffffff\n  and\n  dup2\n  mstore\n  0x20\n  add\n  swap1\n  dup2\n  mstore\n  0x20\n  add\n  0x00\n  keccak256\n  0x00\n  swap1\n  sload\n  swap1\n  0x0100\n  exp\n  swap1\n  div\n  0xff\n  and\n    /* \"contracts/MultiSigWallet.sol\":712:727  !isOwner[owner] */\n  iszero\n    /* \"contracts/MultiSigWallet.sol\":704:748  require(!isOwner[owner],\"Already Exists...\") */\n  tag_12\n  jumpi\n  mload(0x40)\n  0x08c379a000000000000000000000000000000000000000000000000000000000\n  dup2\n  mstore\n  0x04\n  add\n  tag_13\n  swap1\n  tag_14\n  jump\t// in\ntag_13:\n  mload(0x40)\n  dup1\n  swap2\n  sub\n  swap1\n  revert\ntag_12:\n    /* \"contracts/MultiSigWallet.sol\":763:769  owners */\n  0x00\n    /* \"contracts/MultiSigWallet.sol\":775:780  owner */\n  dup2\n    /* \"contracts/MultiSigWallet.sol\":763:781  owners.push(owner) */\n  swap1\n  dup1\n  0x01\n  dup2\n  sload\n  add\n  dup1\n  dup3\n  sstore\n  dup1\n  swap2\n  pop\n  pop\n  0x01\n  swap1\n  sub\n  swap1\n  0x00\n  mstore\n  keccak256(0x00, 0x20)\n  add\n  0x00\n  swap1\n  swap2\n  swap1\n  swap2\n  swap1\n  swap2\n  0x0100\n  exp\n  dup2\n  sload\n  dup2\n  0xffffffffffffffffffffffffffffffffffffffff\n  mul\n  not\n  and\n  swap1\n  dup4\n  0xffffffffffffffffffffffffffffffffffffffff\n  and\n  mul\n  or\n  swap1\n  sstore\n  pop\n    /* \"contracts/MultiSigWallet.sol\":813:817  true */\n  0x01\n    /* \"contracts/MultiSigWallet.sol\":796:803  isOwner */\n  dup1\n    /* \"contracts/MultiSigWallet.sol\":796:810  isOwner[owner] */\n  0x00\n    /* \"contracts/MultiSigWallet.sol\":804:809  owner */\n  dup4\n    /* \"contracts/MultiSigWallet.sol\":796:810  isOwner[owner] */\n  0xffffffffffffffffffffffffffffffffffffffff\n  and\n  0xffffffffffffffffffffffffffffffffffffffff\n  and\n  dup2\n  mstore\n  0x20\n  add\n  swap1\n  dup2\n  mstore\n  0x20\n  add\n  0x00\n  keccak256\n  0x00\n    /* \"contracts/MultiSigWallet.sol\":796:817  isOwner[owner] = true */\n  0x0100\n  exp\n  dup2\n  sload\n  dup2\n  0xff\n  mul\n  not\n  and\n  swap1\n  dup4\n  iszero\n  iszero\n  mul\n  or\n  swap1\n  sstore\n  pop\n    /* \"contracts/MultiSigWallet.sol\":646:829  {... */\n  pop\n    /* \"contracts/MultiSigWallet.sol\":642:645  i++ */\n  dup1\n  dup1\n  tag_16\n  swap1\n  tag_17\n  jump\t// in\ntag_16:\n  swap2\n  pop\n  pop\n    /* \"contracts/MultiSigWallet.sol\":608:829  for(uint i=0; i < _owners.length; i++){... */\n  jump(tag_6)\ntag_7:\n  pop\n    /* \"contracts/MultiSigWallet.sol\":850:859  _required */\n  dup1\n    /* \"contracts/MultiSigWallet.sol\":839:847  required */\n  0x02\n    /* \"contracts/MultiSigWallet.sol\":839:859  required = _required */\n  dup2\n  swap1\n  sstore\n  pop\n    /* \"contracts/MultiSigWallet.sol\":543:867  constructor(address[] memory _owners, uint _required) {... */\n  pop\n  pop\n    /* \"contracts/MultiSigWallet.sol\":69:2954  contract MultiSigWallet{... */\n  jump(tag_18)\n    /* \"#utility.yul\":7:82   */\ntag_19:\n    /* \"#utility.yul\":40:46   */\n  0x00\n    /* \"#utility.yul\":73:75   */\n  0x40\n    /* \"#utility.yul\":67:76   */\n  mload\n    /* \"#utility.yul\":57:76   */\n  swap1\n  pop\n    /* \"#utility.yul\":7:82   */\n  swap1\n  jump\t// out\n    /* \"#utility.yul\":88:205   */\ntag_20:\n    /* \"#utility.yul\":197:198   */\n  0x00\n    /* \"#utility.yul\":194:195   */\n  dup1\n    /* \"#utility.yul\":187:199   */\n  revert\n    /* \"#utility.yul\":211:328   */\ntag_21:\n    /* \"#utility.yul\":320:321   */\n  0x00\n    /* \"#utility.yul\":317:318   */\n  dup1\n    /* \"#utility.yul\":310:322   */\n  revert\n    /* \"#utility.yul\":334:451   */\ntag_22:\n    /* \"#utility.yul\":443:444   */\n  0x00\n    /* \"#utility.yul\":440:441   */\n  dup1\n    /* \"#utility.yul\":433:445   */\n  revert\n    /* \"#utility.yul\":457:559   */\ntag_23:\n    /* \"#utility.yul\":498:504   */\n  0x00\n    /* \"#utility.yul\":549:551   */\n  0x1f\n    /* \"#utility.yul\":545:552   */\n  not\n    /* \"#utility.yul\":540:542   */\n  0x1f\n    /* \"#utility.yul\":533:538   */\n  dup4\n    /* \"#utility.yul\":529:543   */\n  add\n    /* \"#utility.yul\":525:553   */\n  and\n    /* \"#utility.yul\":515:553   */\n  swap1\n  pop\n    /* \"#utility.yul\":457:559   */\n  swap2\n  swap1\n  pop\n  jump\t// out\n    /* \"#utility.yul\":565:745   */\ntag_24:\n    /* \"#utility.yul\":613:690   */\n  0x4e487b7100000000000000000000000000000000000000000000000000000000\n    /* \"#utility.yul\":610:611   */\n  0x00\n    /* \"#utility.yul\":603:691   */\n  mstore\n    /* \"#utility.yul\":710:714   */\n  0x41\n    /* \"#utility.yul\":707:708   */\n  0x04\n    /* \"#utility.yul\":700:715   */\n  mstore\n    /* \"#utility.yul\":734:738   */\n  0x24\n    /* \"#utility.yul\":731:732   */\n  0x00\n    /* \"#utility.yul\":724:739   */\n  revert\n    /* \"#utility.yul\":751:1032   */\ntag_25:\n    /* \"#utility.yul\":834:861   */\n  tag_50\n    /* \"#utility.yul\":856:860   */\n  dup3\n    /* \"#utility.yul\":834:861   */\n  tag_23\n  jump\t// in\ntag_50:\n    /* \"#utility.yul\":826:832   */\n  dup2\n    /* \"#utility.yul\":822:862   */\n  add\n    /* \"#utility.yul\":964:970   */\n  dup2\n    /* \"#utility.yul\":952:962   */\n  dup2\n    /* \"#utility.yul\":949:971   */\n  lt\n    /* \"#utility.yul\":928:946   */\n  0xffffffffffffffff\n    /* \"#utility.yul\":916:926   */\n  dup3\n    /* \"#utility.yul\":913:947   */\n  gt\n    /* \"#utility.yul\":910:972   */\n  or\n    /* \"#utility.yul\":907:995   */\n  iszero\n  tag_51\n  jumpi\n    /* \"#utility.yul\":975:993   */\n  tag_52\n  tag_24\n  jump\t// in\ntag_52:\n    /* \"#utility.yul\":907:995   */\ntag_51:\n    /* \"#utility.yul\":1015:1025   */\n  dup1\n    /* \"#utility.yul\":1011:1013   */\n  0x40\n    /* \"#utility.yul\":1004:1026   */\n  mstore\n    /* \"#utility.yul\":794:1032   */\n  pop\n    /* \"#utility.yul\":751:1032   */\n  pop\n  pop\n  jump\t// out\n    /* \"#utility.yul\":1038:1167   */\ntag_26:\n    /* \"#utility.yul\":1072:1078   */\n  0x00\n    /* \"#utility.yul\":1099:1119   */\n  tag_54\n  tag_19\n  jump\t// in\ntag_54:\n    /* \"#utility.yul\":1089:1119   */\n  swap1\n  pop\n    /* \"#utility.yul\":1128:1161   */\n  tag_55\n    /* \"#utility.yul\":1156:1160   */\n  dup3\n    /* \"#utility.yul\":1148:1154   */\n  dup3\n    /* \"#utility.yul\":1128:1161   */\n  tag_25\n  jump\t// in\ntag_55:\n    /* \"#utility.yul\":1038:1167   */\n  swap2\n  swap1\n  pop\n  jump\t// out\n    /* \"#utility.yul\":1173:1484   */\ntag_27:\n    /* \"#utility.yul\":1250:1254   */\n  0x00\n    /* \"#utility.yul\":1340:1358   */\n  0xffffffffffffffff\n    /* \"#utility.yul\":1332:1338   */\n  dup3\n    /* \"#utility.yul\":1329:1359   */\n  gt\n    /* \"#utility.yul\":1326:1382   */\n  iszero\n  tag_57\n  jumpi\n    /* \"#utility.yul\":1362:1380   */\n  tag_58\n  tag_24\n  jump\t// in\ntag_58:\n    /* \"#utility.yul\":1326:1382   */\ntag_57:\n    /* \"#utility.yul\":1412:1416   */\n  0x20\n    /* \"#utility.yul\":1404:1410   */\n  dup3\n    /* \"#utility.yul\":1400:1417   */\n  mul\n    /* \"#utility.yul\":1392:1417   */\n  swap1\n  pop\n    /* \"#utility.yul\":1472:1476   */\n  0x20\n    /* \"#utility.yul\":1466:1470   */\n  dup2\n    /* \"#utility.yul\":1462:1477   */\n  add\n    /* \"#utility.yul\":1454:1477   */\n  swap1\n  pop\n    /* \"#utility.yul\":1173:1484   */\n  swap2\n  swap1\n  pop\n  jump\t// out\n    /* \"#utility.yul\":1490:1607   */\ntag_28:\n    /* \"#utility.yul\":1599:1600   */\n  0x00\n    /* \"#utility.yul\":1596:1597   */\n  dup1\n    /* \"#utility.yul\":1589:1601   */\n  revert\n    /* \"#utility.yul\":1613:1739   */\ntag_29:\n    /* \"#utility.yul\":1650:1657   */\n  0x00\n    /* \"#utility.yul\":1690:1732   */\n  0xffffffffffffffffffffffffffffffffffffffff\n    /* \"#utility.yul\":1683:1688   */\n  dup3\n    /* \"#utility.yul\":1679:1733   */\n  and\n    /* \"#utility.yul\":1668:1733   */\n  swap1\n  pop\n    /* \"#utility.yul\":1613:1739   */\n  swap2\n  swap1\n  pop\n  jump\t// out\n    /* \"#utility.yul\":1745:1841   */\ntag_30:\n    /* \"#utility.yul\":1782:1789   */\n  0x00\n    /* \"#utility.yul\":1811:1835   */\n  tag_62\n    /* \"#utility.yul\":1829:1834   */\n  dup3\n    /* \"#utility.yul\":1811:1835   */\n  tag_29\n  jump\t// in\ntag_62:\n    /* \"#utility.yul\":1800:1835   */\n  swap1\n  pop\n    /* \"#utility.yul\":1745:1841   */\n  swap2\n  swap1\n  pop\n  jump\t// out\n    /* \"#utility.yul\":1847:1969   */\ntag_31:\n    /* \"#utility.yul\":1920:1944   */\n  tag_64\n    /* \"#utility.yul\":1938:1943   */\n  dup2\n    /* \"#utility.yul\":1920:1944   */\n  tag_30\n  jump\t// in\ntag_64:\n    /* \"#utility.yul\":1913:1918   */\n  dup2\n    /* \"#utility.yul\":1910:1945   */\n  eq\n    /* \"#utility.yul\":1900:1963   */\n  tag_65\n  jumpi\n    /* \"#utility.yul\":1959:1960   */\n  0x00\n    /* \"#utility.yul\":1956:1957   */\n  dup1\n    /* \"#utility.yul\":1949:1961   */\n  revert\n    /* \"#utility.yul\":1900:1963   */\ntag_65:\n    /* \"#utility.yul\":1847:1969   */\n  pop\n  jump\t// out\n    /* \"#utility.yul\":1975:2118   */\ntag_32:\n    /* \"#utility.yul\":2032:2037   */\n  0x00\n    /* \"#utility.yul\":2063:2069   */\n  dup2\n    /* \"#utility.yul\":2057:2070   */\n  mload\n    /* \"#utility.yul\":2048:2070   */\n  swap1\n  pop\n    /* \"#utility.yul\":2079:2112   */\n  tag_67\n    /* \"#utility.yul\":2106:2111   */\n  dup2\n    /* \"#utility.yul\":2079:2112   */\n  tag_31\n  jump\t// in\ntag_67:\n    /* \"#utility.yul\":1975:2118   */\n  swap3\n  swap2\n  pop\n  pop\n  jump\t// out\n    /* \"#utility.yul\":2141:2873   */\ntag_33:\n    /* \"#utility.yul\":2248:2253   */\n  0x00\n    /* \"#utility.yul\":2273:2354   */\n  tag_69\n    /* \"#utility.yul\":2289:2353   */\n  tag_70\n    /* \"#utility.yul\":2346:2352   */\n  dup5\n    /* \"#utility.yul\":2289:2353   */\n  tag_27\n  jump\t// in\ntag_70:\n    /* \"#utility.yul\":2273:2354   */\n  tag_26\n  jump\t// in\ntag_69:\n    /* \"#utility.yul\":2264:2354   */\n  swap1\n  pop\n    /* \"#utility.yul\":2374:2379   */\n  dup1\n    /* \"#utility.yul\":2403:2409   */\n  dup4\n    /* \"#utility.yul\":2396:2401   */\n  dup3\n    /* \"#utility.yul\":2389:2410   */\n  mstore\n    /* \"#utility.yul\":2437:2441   */\n  0x20\n    /* \"#utility.yul\":2430:2435   */\n  dup3\n    /* \"#utility.yul\":2426:2442   */\n  add\n    /* \"#utility.yul\":2419:2442   */\n  swap1\n  pop\n    /* \"#utility.yul\":2490:2494   */\n  0x20\n    /* \"#utility.yul\":2482:2488   */\n  dup5\n    /* \"#utility.yul\":2478:2495   */\n  mul\n    /* \"#utility.yul\":2470:2476   */\n  dup4\n    /* \"#utility.yul\":2466:2496   */\n  add\n    /* \"#utility.yul\":2519:2522   */\n  dup6\n    /* \"#utility.yul\":2511:2517   */\n  dup2\n    /* \"#utility.yul\":2508:2523   */\n  gt\n    /* \"#utility.yul\":2505:2627   */\n  iszero\n  tag_71\n  jumpi\n    /* \"#utility.yul\":2538:2617   */\n  tag_72\n  tag_28\n  jump\t// in\ntag_72:\n    /* \"#utility.yul\":2505:2627   */\ntag_71:\n    /* \"#utility.yul\":2653:2659   */\n  dup4\n    /* \"#utility.yul\":2636:2867   */\ntag_73:\n    /* \"#utility.yul\":2670:2676   */\n  dup2\n    /* \"#utility.yul\":2665:2668   */\n  dup2\n    /* \"#utility.yul\":2662:2677   */\n  lt\n    /* \"#utility.yul\":2636:2867   */\n  iszero\n  tag_75\n  jumpi\n    /* \"#utility.yul\":2745:2748   */\n  dup1\n    /* \"#utility.yul\":2774:2822   */\n  tag_76\n    /* \"#utility.yul\":2818:2821   */\n  dup9\n    /* \"#utility.yul\":2806:2816   */\n  dup3\n    /* \"#utility.yul\":2774:2822   */\n  tag_32\n  jump\t// in\ntag_76:\n    /* \"#utility.yul\":2769:2772   */\n  dup5\n    /* \"#utility.yul\":2762:2823   */\n  mstore\n    /* \"#utility.yul\":2852:2856   */\n  0x20\n    /* \"#utility.yul\":2847:2850   */\n  dup5\n    /* \"#utility.yul\":2843:2857   */\n  add\n    /* \"#utility.yul\":2836:2857   */\n  swap4\n  pop\n    /* \"#utility.yul\":2712:2867   */\n  pop\n    /* \"#utility.yul\":2696:2700   */\n  0x20\n    /* \"#utility.yul\":2691:2694   */\n  dup2\n    /* \"#utility.yul\":2687:2701   */\n  add\n    /* \"#utility.yul\":2680:2701   */\n  swap1\n  pop\n    /* \"#utility.yul\":2636:2867   */\n  jump(tag_73)\ntag_75:\n    /* \"#utility.yul\":2640:2661   */\n  pop\n    /* \"#utility.yul\":2254:2873   */\n  pop\n  pop\n    /* \"#utility.yul\":2141:2873   */\n  swap4\n  swap3\n  pop\n  pop\n  pop\n  jump\t// out\n    /* \"#utility.yul\":2896:3281   */\ntag_34:\n    /* \"#utility.yul\":2978:2983   */\n  0x00\n    /* \"#utility.yul\":3027:3030   */\n  dup3\n    /* \"#utility.yul\":3020:3024   */\n  0x1f\n    /* \"#utility.yul\":3012:3018   */\n  dup4\n    /* \"#utility.yul\":3008:3025   */\n  add\n    /* \"#utility.yul\":3004:3031   */\n  slt\n    /* \"#utility.yul\":2994:3116   */\n  tag_78\n  jumpi\n    /* \"#utility.yul\":3035:3114   */\n  tag_79\n  tag_22\n  jump\t// in\ntag_79:\n    /* \"#utility.yul\":2994:3116   */\ntag_78:\n    /* \"#utility.yul\":3145:3151   */\n  dup2\n    /* \"#utility.yul\":3139:3152   */\n  mload\n    /* \"#utility.yul\":3170:3275   */\n  tag_80\n    /* \"#utility.yul\":3271:3274   */\n  dup5\n    /* \"#utility.yul\":3263:3269   */\n  dup3\n    /* \"#utility.yul\":3256:3260   */\n  0x20\n    /* \"#utility.yul\":3248:3254   */\n  dup7\n    /* \"#utility.yul\":3244:3261   */\n  add\n    /* \"#utility.yul\":3170:3275   */\n  tag_33\n  jump\t// in\ntag_80:\n    /* \"#utility.yul\":3161:3275   */\n  swap2\n  pop\n    /* \"#utility.yul\":2984:3281   */\n  pop\n    /* \"#utility.yul\":2896:3281   */\n  swap3\n  swap2\n  pop\n  pop\n  jump\t// out\n    /* \"#utility.yul\":3287:3364   */\ntag_35:\n    /* \"#utility.yul\":3324:3331   */\n  0x00\n    /* \"#utility.yul\":3353:3358   */\n  dup2\n    /* \"#utility.yul\":3342:3358   */\n  swap1\n  pop\n    /* \"#utility.yul\":3287:3364   */\n  swap2\n  swap1\n  pop\n  jump\t// out\n    /* \"#utility.yul\":3370:3492   */\ntag_36:\n    /* \"#utility.yul\":3443:3467   */\n  tag_83\n    /* \"#utility.yul\":3461:3466   */\n  dup2\n    /* \"#utility.yul\":3443:3467   */\n  tag_35\n  jump\t// in\ntag_83:\n    /* \"#utility.yul\":3436:3441   */\n  dup2\n    /* \"#utility.yul\":3433:3468   */\n  eq\n    /* \"#utility.yul\":3423:3486   */\n  tag_84\n  jumpi\n    /* \"#utility.yul\":3482:3483   */\n  0x00\n    /* \"#utility.yul\":3479:3480   */\n  dup1\n    /* \"#utility.yul\":3472:3484   */\n  revert\n    /* \"#utility.yul\":3423:3486   */\ntag_84:\n    /* \"#utility.yul\":3370:3492   */\n  pop\n  jump\t// out\n    /* \"#utility.yul\":3498:3641   */\ntag_37:\n    /* \"#utility.yul\":3555:3560   */\n  0x00\n    /* \"#utility.yul\":3586:3592   */\n  dup2\n    /* \"#utility.yul\":3580:3593   */\n  mload\n    /* \"#utility.yul\":3571:3593   */\n  swap1\n  pop\n    /* \"#utility.yul\":3602:3635   */\n  tag_86\n    /* \"#utility.yul\":3629:3634   */\n  dup2\n    /* \"#utility.yul\":3602:3635   */\n  tag_36\n  jump\t// in\ntag_86:\n    /* \"#utility.yul\":3498:3641   */\n  swap3\n  swap2\n  pop\n  pop\n  jump\t// out\n    /* \"#utility.yul\":3647:4357   */\ntag_3:\n    /* \"#utility.yul\":3751:3757   */\n  0x00\n    /* \"#utility.yul\":3759:3765   */\n  dup1\n    /* \"#utility.yul\":3808:3810   */\n  0x40\n    /* \"#utility.yul\":3796:3805   */\n  dup4\n    /* \"#utility.yul\":3787:3794   */\n  dup6\n    /* \"#utility.yul\":3783:3806   */\n  sub\n    /* \"#utility.yul\":3779:3811   */\n  slt\n    /* \"#utility.yul\":3776:3895   */\n  iszero\n  tag_88\n  jumpi\n    /* \"#utility.yul\":3814:3893   */\n  tag_89\n  tag_20\n  jump\t// in\ntag_89:\n    /* \"#utility.yul\":3776:3895   */\ntag_88:\n    /* \"#utility.yul\":3955:3956   */\n  0x00\n    /* \"#utility.yul\":3944:3953   */\n  dup4\n    /* \"#utility.yul\":3940:3957   */\n  add\n    /* \"#utility.yul\":3934:3958   */\n  mload\n    /* \"#utility.yul\":3985:4003   */\n  0xffffffffffffffff\n    /* \"#utility.yul\":3977:3983   */\n  dup2\n    /* \"#utility.yul\":3974:4004   */\n  gt\n    /* \"#utility.yul\":3971:4088   */\n  iszero\n  tag_90\n  jumpi\n    /* \"#utility.yul\":4007:4086   */\n  tag_91\n  tag_21\n  jump\t// in\ntag_91:\n    /* \"#utility.yul\":3971:4088   */\ntag_90:\n    /* \"#utility.yul\":4112:4201   */\n  tag_92\n    /* \"#utility.yul\":4193:4200   */\n  dup6\n    /* \"#utility.yul\":4184:4190   */\n  dup3\n    /* \"#utility.yul\":4173:4182   */\n  dup7\n    /* \"#utility.yul\":4169:4191   */\n  add\n    /* \"#utility.yul\":4112:4201   */\n  tag_34\n  jump\t// in\ntag_92:\n    /* \"#utility.yul\":4102:4201   */\n  swap3\n  pop\n    /* \"#utility.yul\":3905:4211   */\n  pop\n    /* \"#utility.yul\":4250:4252   */\n  0x20\n    /* \"#utility.yul\":4276:4340   */\n  tag_93\n    /* \"#utility.yul\":4332:4339   */\n  dup6\n    /* \"#utility.yul\":4323:4329   */\n  dup3\n    /* \"#utility.yul\":4312:4321   */\n  dup7\n    /* \"#utility.yul\":4308:4330   */\n  add\n    /* \"#utility.yul\":4276:4340   */\n  tag_37\n  jump\t// in\ntag_93:\n    /* \"#utility.yul\":4266:4340   */\n  swap2\n  pop\n    /* \"#utility.yul\":4221:4350   */\n  pop\n    /* \"#utility.yul\":3647:4357   */\n  swap3\n  pop\n  swap3\n  swap1\n  pop\n  jump\t// out\n    /* \"#utility.yul\":4363:4543   */\ntag_11:\n    /* \"#utility.yul\":4411:4488   */\n  0x4e487b7100000000000000000000000000000000000000000000000000000000\n    /* \"#utility.yul\":4408:4409   */\n  0x00\n    /* \"#utility.yul\":4401:4489   */\n  mstore\n    /* \"#utility.yul\":4508:4512   */\n  0x32\n    /* \"#utility.yul\":4505:4506   */\n  0x04\n    /* \"#utility.yul\":4498:4513   */\n  mstore\n    /* \"#utility.yul\":4532:4536   */\n  0x24\n    /* \"#utility.yul\":4529:4530   */\n  0x00\n    /* \"#utility.yul\":4522:4537   */\n  revert\n    /* \"#utility.yul\":4549:4718   */\ntag_38:\n    /* \"#utility.yul\":4633:4644   */\n  0x00\n    /* \"#utility.yul\":4667:4673   */\n  dup3\n    /* \"#utility.yul\":4662:4665   */\n  dup3\n    /* \"#utility.yul\":4655:4674   */\n  mstore\n    /* \"#utility.yul\":4707:4711   */\n  0x20\n    /* \"#utility.yul\":4702:4705   */\n  dup3\n    /* \"#utility.yul\":4698:4712   */\n  add\n    /* \"#utility.yul\":4683:4712   */\n  swap1\n  pop\n    /* \"#utility.yul\":4549:4718   */\n  swap3\n  swap2\n  pop\n  pop\n  jump\t// out\n    /* \"#utility.yul\":4724:4891   */\ntag_39:\n    /* \"#utility.yul\":4864:4883   */\n  0x416c7265616479204578697374732e2e2e000000000000000000000000000000\n    /* \"#utility.yul\":4860:4861   */\n  0x00\n    /* \"#utility.yul\":4852:4858   */\n  dup3\n    /* \"#utility.yul\":4848:4862   */\n  add\n    /* \"#utility.yul\":4841:4884   */\n  mstore\n    /* \"#utility.yul\":4724:4891   */\n  pop\n  jump\t// out\n    /* \"#utility.yul\":4897:5263   */\ntag_40:\n    /* \"#utility.yul\":5039:5042   */\n  0x00\n    /* \"#utility.yul\":5060:5127   */\n  tag_98\n    /* \"#utility.yul\":5124:5126   */\n  0x11\n    /* \"#utility.yul\":5119:5122   */\n  dup4\n    /* \"#utility.yul\":5060:5127   */\n  tag_38\n  jump\t// in\ntag_98:\n    /* \"#utility.yul\":5053:5127   */\n  swap2\n  pop\n    /* \"#utility.yul\":5136:5229   */\n  tag_99\n    /* \"#utility.yul\":5225:5228   */\n  dup3\n    /* \"#utility.yul\":5136:5229   */\n  tag_39\n  jump\t// in\ntag_99:\n    /* \"#utility.yul\":5254:5256   */\n  0x20\n    /* \"#utility.yul\":5249:5252   */\n  dup3\n    /* \"#utility.yul\":5245:5257   */\n  add\n    /* \"#utility.yul\":5238:5257   */\n  swap1\n  pop\n    /* \"#utility.yul\":4897:5263   */\n  swap2\n  swap1\n  pop\n  jump\t// out\n    /* \"#utility.yul\":5269:5688   */\ntag_14:\n    /* \"#utility.yul\":5435:5439   */\n  0x00\n    /* \"#utility.yul\":5473:5475   */\n  0x20\n    /* \"#utility.yul\":5462:5471   */\n  dup3\n    /* \"#utility.yul\":5458:5476   */\n  add\n    /* \"#utility.yul\":5450:5476   */\n  swap1\n  pop\n    /* \"#utility.yul\":5522:5531   */\n  dup2\n    /* \"#utility.yul\":5516:5520   */\n  dup2\n    /* \"#utility.yul\":5512:5532   */\n  sub\n    /* \"#utility.yul\":5508:5509   */\n  0x00\n    /* \"#utility.yul\":5497:5506   */\n  dup4\n    /* \"#utility.yul\":5493:5510   */\n  add\n    /* \"#utility.yul\":5486:5533   */\n  mstore\n    /* \"#utility.yul\":5550:5681   */\n  tag_101\n    /* \"#utility.yul\":5676:5680   */\n  dup2\n    /* \"#utility.yul\":5550:5681   */\n  tag_40\n  jump\t// in\ntag_101:\n    /* \"#utility.yul\":5542:5681   */\n  swap1\n  pop\n    /* \"#utility.yul\":5269:5688   */\n  swap2\n  swap1\n  pop\n  jump\t// out\n    /* \"#utility.yul\":5694:5874   */\ntag_41:\n    /* \"#utility.yul\":5742:5819   */\n  0x4e487b7100000000000000000000000000000000000000000000000000000000\n    /* \"#utility.yul\":5739:5740   */\n  0x00\n    /* \"#utility.yul\":5732:5820   */\n  mstore\n    /* \"#utility.yul\":5839:5843   */\n  0x11\n    /* \"#utility.yul\":5836:5837   */\n  0x04\n    /* \"#utility.yul\":5829:5844   */\n  mstore\n    /* \"#utility.yul\":5863:5867   */\n  0x24\n    /* \"#utility.yul\":5860:5861   */\n  0x00\n    /* \"#utility.yul\":5853:5868   */\n  revert\n    /* \"#utility.yul\":5880:6113   */\ntag_17:\n    /* \"#utility.yul\":5919:5922   */\n  0x00\n    /* \"#utility.yul\":5942:5966   */\n  tag_104\n    /* \"#utility.yul\":5960:5965   */\n  dup3\n    /* \"#utility.yul\":5942:5966   */\n  tag_35\n  jump\t// in\ntag_104:\n    /* \"#utility.yul\":5933:5966   */\n  swap2\n  pop\n    /* \"#utility.yul\":5988:6054   */\n  0xffffffffffffffffffffffffffffffffffffffffffffffffffffffffffffffff\n    /* \"#utility.yul\":5981:5986   */\n  dup3\n    /* \"#utility.yul\":5978:6055   */\n  sub\n    /* \"#utility.yul\":5975:6078   */\n  tag_105\n  jumpi\n    /* \"#utility.yul\":6058:6076   */\n  tag_106\n  tag_41\n  jump\t// in\ntag_106:\n    /* \"#utility.yul\":5975:6078   */\ntag_105:\n    /* \"#utility.yul\":6105:6106   */\n  0x01\n    /* \"#utility.yul\":6098:6103   */\n  dup3\n    /* \"#utility.yul\":6094:6107   */\n  add\n    /* \"#utility.yul\":6087:6107   */\n  swap1\n  pop\n    /* \"#utility.yul\":5880:6113   */\n  swap2\n  swap1\n  pop\n  jump\t// out\n    /* \"contracts/MultiSigWallet.sol\":69:2954  contract MultiSigWallet{... */\ntag_18:\n  dataSize(sub_0)\n  dup1\n  dataOffset(sub_0)\n  0x00\n  codecopy\n  0x00\n  return\nstop\n\nsub_0: assembly {\n        /* \"contracts/MultiSigWallet.sol\":69:2954  contract MultiSigWallet{... */\n      mstore(0x40, 0x80)\n      jumpi(tag_1, lt(calldatasize, 0x04))\n      shr(0xe0, calldataload(0x00))\n      dup1\n      0x242232d1\n      eq\n      tag_3\n      jumpi\n      dup1\n      0x2f54bf6e\n      eq\n      tag_4\n      jumpi\n      dup1\n      0xb1e130fc\n      eq\n      tag_5\n      jumpi\n      dup1\n      0xc0c64a49\n      eq\n      tag_6\n      jumpi\n      dup1\n      0xee22610b\n      eq\n      tag_7\n      jumpi\n      jump(tag_2)\n    tag_1:\n      jumpi(tag_2, calldatasize)\n        /* \"contracts/MultiSigWallet.sol\":1865:1895  Deposit(msg.sender ,msg.value) */\n      0xe1fffcc4923d04b559f4d29a8bfc6cda04eb5b0d3c460751c2402c5c5cc9109c\n        /* \"contracts/MultiSigWallet.sol\":1873:1883  msg.sender */\n      caller\n        /* \"contracts/MultiSigWallet.sol\":1885:1894  msg.value */\n      callvalue\n        /* \"contracts/MultiSigWallet.sol\":1865:1895  Deposit(msg.sender ,msg.value) */\n      mload(0x40)\n      tag_10\n      swap3\n      swap2\n      swap1\n      tag_11\n      jump\t// in\n    tag_10:\n      mload(0x40)\n      dup1\n      swap2\n      sub\n      swap1\n      log1\n        /* \"contracts/MultiSigWallet.sol\":69:2954  contract MultiSigWallet{... */\n      stop\n    tag_2:\n      0x00\n      dup1\n      revert\n        /* \"contracts/MultiSigWallet.sol\":2084:2295  function approveTransaction(uint _txId) external notApproved(_txId) existTrans(_txId) onlyOwner isNotExec(_txId){... */\n    tag_3:\n      callvalue\n      dup1\n      iszero\n      tag_12\n      jumpi\n      0x00\n      dup1\n      revert\n    tag_12:\n      pop\n      tag_13\n      0x04\n      dup1\n      calldatasize\n      sub\n      dup2\n      add\n      swap1\n      tag_14\n      swap2\n      swap1\n      tag_15\n      jump\t// in\n    tag_14:\n      tag_16\n      jump\t// in\n    tag_13:\n      stop\n        /* \"contracts/MultiSigWallet.sol\":238:277  mapping(address => bool) public isOwner */\n    tag_4:\n      callvalue\n      dup1\n      iszero\n      tag_17\n      jumpi\n      0x00\n      dup1\n      revert\n    tag_17:\n      pop\n      tag_18\n      0x04\n      dup1\n      calldatasize\n      sub\n      dup2\n      add\n      swap1\n      tag_19\n      swap2\n      swap1\n      tag_20\n      jump\t// in\n    tag_19:\n      tag_21\n      jump\t// in\n    tag_18:\n      mload(0x40)\n      tag_22\n      swap2\n      swap1\n      tag_23\n      jump\t// in\n    tag_22:\n      mload(0x40)\n      dup1\n      swap2\n      sub\n      swap1\n      return\n        /* \"contracts/MultiSigWallet.sol\":2303:2507  function revokeApproval(uint _txId) external isApproved(_txId) existTrans(_txId) onlyOwner isNotExec(_txId){... */\n    tag_5:\n      callvalue\n      dup1\n      iszero\n      tag_24\n      jumpi\n      0x00\n      dup1\n      revert\n    tag_24:\n      pop\n      tag_25\n      0x04\n      dup1\n      calldatasize\n      sub\n      dup2\n      add\n      swap1\n      tag_26\n      swap2\n      swap1\n      tag_15\n      jump\t// in\n    tag_26:\n      tag_27\n      jump\t// in\n    tag_25:\n      stop\n        /* \"contracts/MultiSigWallet.sol\":1911:2076  function makeTransaction(address _to, uint _value,bytes calldata _data) external onlyOwner{... */\n    tag_6:\n      callvalue\n      dup1\n      iszero\n      tag_28\n      jumpi\n      0x00\n      dup1\n      revert\n    tag_28:\n      pop\n      tag_29\n      0x04\n      dup1\n      calldatasize\n      sub\n      dup2\n      add\n      swap1\n      tag_30\n      swap2\n      swap1\n      tag_31\n      jump\t// in\n    tag_30:\n      tag_32\n      jump\t// in\n    tag_29:\n      stop\n        /* \"contracts/MultiSigWallet.sol\":2515:2951  function executeTransaction(uint _txId) external existTrans(_txId) onlyOwner isNotExec(_txId) {... */\n    tag_7:\n      callvalue\n      dup1\n      iszero\n      tag_33\n      jumpi\n      0x00\n      dup1\n      revert\n    tag_33:\n      pop\n      tag_34\n      0x04\n      dup1\n      calldatasize\n      sub\n      dup2\n      add\n      swap1\n      tag_35\n      swap2\n      swap1\n      tag_15\n      jump\t// in\n    tag_35:\n      tag_36\n      jump\t// in\n    tag_34:\n      stop\n        /* \"contracts/MultiSigWallet.sol\":2084:2295  function approveTransaction(uint _txId) external notApproved(_txId) existTrans(_txId) onlyOwner isNotExec(_txId){... */\n    tag_16:\n        /* \"contracts/MultiSigWallet.sol\":2145:2150  _txId */\n      dup1\n        /* \"contracts/MultiSigWallet.sol\":928:936  approval */\n      0x03\n        /* \"contracts/MultiSigWallet.sol\":928:943  approval[_txId] */\n      0x00\n        /* \"contracts/MultiSigWallet.sol\":937:942  _txId */\n      dup3\n        /* \"contracts/MultiSigWallet.sol\":928:943  approval[_txId] */\n      dup2\n      mstore\n      0x20\n      add\n      swap1\n      dup2\n      mstore\n      0x20\n      add\n      0x00\n      keccak256\n        /* \"contracts/MultiSigWallet.sol\":928:955  approval[_txId][msg.sender] */\n      0x00\n        /* \"contracts/MultiSigWallet.sol\":944:954  msg.sender */\n      caller\n        /* \"contracts/MultiSigWallet.sol\":928:955  approval[_txId][msg.sender] */\n      0xffffffffffffffffffffffffffffffffffffffff\n      and\n      0xffffffffffffffffffffffffffffffffffffffff\n      and\n      dup2\n      mstore\n      0x20\n      add\n      swap1\n      dup2\n      mstore\n      0x20\n      add\n      0x00\n      keccak256\n      0x00\n      swap1\n      sload\n      swap1\n      0x0100\n      exp\n      swap1\n      div\n      0xff\n      and\n        /* \"contracts/MultiSigWallet.sol\":927:955  !approval[_txId][msg.sender] */\n      iszero\n        /* \"contracts/MultiSigWallet.sol\":919:990  require(!approval[_txId][msg.sender],\"Transaction Already Approved...\") */\n      tag_38\n      jumpi\n      mload(0x40)\n      0x08c379a000000000000000000000000000000000000000000000000000000000\n      dup2\n      mstore\n      0x04\n      add\n      tag_39\n      swap1\n      tag_40\n      jump\t// in\n    tag_39:\n      mload(0x40)\n      dup1\n      swap2\n      sub\n      swap1\n      revert\n    tag_38:\n        /* \"contracts/MultiSigWallet.sol\":2163:2168  _txId */\n      dup2\n        /* \"contracts/MultiSigWallet.sol\":1100:1101  1 */\n      0x01\n        /* \"contracts/MultiSigWallet.sol\":1078:1090  transactions */\n      0x04\n        /* \"contracts/MultiSigWallet.sol\":1078:1097  transactions.length */\n      dup1\n      sload\n      swap1\n      pop\n        /* \"contracts/MultiSigWallet.sol\":1078:1101  transactions.length - 1 */\n      tag_42\n      swap2\n      swap1\n      tag_43\n      jump\t// in\n    tag_42:\n        /* \"contracts/MultiSigWallet.sol\":1069:1074  _txId */\n      dup2\n        /* \"contracts/MultiSigWallet.sol\":1069:1101  _txId <= transactions.length - 1 */\n      gt\n      iszero\n        /* \"contracts/MultiSigWallet.sol\":1061:1134  require(_txId <= transactions.length - 1,\"Transaction Does not Exist...\") */\n      tag_44\n      jumpi\n      mload(0x40)\n      0x08c379a000000000000000000000000000000000000000000000000000000000\n      dup2\n      mstore\n      0x04\n      add\n      tag_45\n      swap1\n      tag_46\n      jump\t// in\n    tag_45:\n      mload(0x40)\n      dup1\n      swap2\n      sub\n      swap1\n      revert\n    tag_44:\n        /* \"contracts/MultiSigWallet.sol\":1199:1206  isOwner */\n      0x01\n        /* \"contracts/MultiSigWallet.sol\":1199:1218  isOwner[msg.sender] */\n      0x00\n        /* \"contracts/MultiSigWallet.sol\":1207:1217  msg.sender */\n      caller\n        /* \"contracts/MultiSigWallet.sol\":1199:1218  isOwner[msg.sender] */\n      0xffffffffffffffffffffffffffffffffffffffff\n      and\n      0xffffffffffffffffffffffffffffffffffffffff\n      and\n      dup2\n      mstore\n      0x20\n      add\n      swap1\n      dup2\n      mstore\n      0x20\n      add\n      0x00\n      keccak256\n      0x00\n      swap1\n      sload\n      swap1\n      0x0100\n      exp\n      swap1\n      div\n      0xff\n      and\n        /* \"contracts/MultiSigWallet.sol\":1191:1240  require(isOwner[msg.sender] ,\"Not the Owner....\") */\n      tag_48\n      jumpi\n      mload(0x40)\n      0x08c379a000000000000000000000000000000000000000000000000000000000\n      dup2\n      mstore\n      0x04\n      add\n      tag_49\n      swap1\n      tag_50\n      jump\t// in\n    tag_49:\n      mload(0x40)\n      dup1\n      swap2\n      sub\n      swap1\n      revert\n    tag_48:\n        /* \"contracts/MultiSigWallet.sol\":2190:2195  _txId */\n      dup3\n        /* \"contracts/MultiSigWallet.sol\":1446:1476  Transaction memory transaction */\n      0x00\n        /* \"contracts/MultiSigWallet.sol\":1479:1491  transactions */\n      0x04\n        /* \"contracts/MultiSigWallet.sol\":1492:1497  _txId */\n      dup3\n        /* \"contracts/MultiSigWallet.sol\":1479:1498  transactions[_txId] */\n      dup2\n      sload\n      dup2\n      lt\n      tag_52\n      jumpi\n      tag_53\n      tag_54\n      jump\t// in\n    tag_53:\n    tag_52:\n      swap1\n      0x00\n      mstore\n      keccak256(0x00, 0x20)\n      swap1\n      0x04\n      mul\n      add\n        /* \"contracts/MultiSigWallet.sol\":1446:1498  Transaction memory transaction = transactions[_txId] */\n      mload(0x40)\n      dup1\n      0x80\n      add\n      0x40\n      mstore\n      swap1\n      dup2\n      0x00\n      dup3\n      add\n      0x00\n      swap1\n      sload\n      swap1\n      0x0100\n      exp\n      swap1\n      div\n      0xffffffffffffffffffffffffffffffffffffffff\n      and\n      0xffffffffffffffffffffffffffffffffffffffff\n      and\n      0xffffffffffffffffffffffffffffffffffffffff\n      and\n      dup2\n      mstore\n      0x20\n      add\n      0x01\n      dup3\n      add\n      sload\n      dup2\n      mstore\n      0x20\n      add\n      0x02\n      dup3\n      add\n      0x00\n      swap1\n      sload\n      swap1\n      0x0100\n      exp\n      swap1\n      div\n      0xff\n      and\n      iszero\n      iszero\n      iszero\n      iszero\n      dup2\n      mstore\n      0x20\n      add\n      0x03\n      dup3\n      add\n      dup1\n      sload\n      tag_56\n      swap1\n      tag_57\n      jump\t// in\n    tag_56:\n      dup1\n      0x1f\n      add\n      0x20\n      dup1\n      swap2\n      div\n      mul\n      0x20\n      add\n      mload(0x40)\n      swap1\n      dup2\n      add\n      0x40\n      mstore\n      dup1\n      swap3\n      swap2\n      swap1\n      dup2\n      dup2\n      mstore\n      0x20\n      add\n      dup3\n      dup1\n      sload\n      tag_58\n      swap1\n      tag_57\n      jump\t// in\n    tag_58:\n      dup1\n      iszero\n      tag_59\n      jumpi\n      dup1\n      0x1f\n      lt\n      tag_60\n      jumpi\n      0x0100\n      dup1\n      dup4\n      sload\n      div\n      mul\n      dup4\n      mstore\n      swap2\n      0x20\n      add\n      swap2\n      jump(tag_59)\n    tag_60:\n      dup3\n      add\n      swap2\n      swap1\n      0x00\n      mstore\n      keccak256(0x00, 0x20)\n      swap1\n    tag_61:\n      dup2\n      sload\n      dup2\n      mstore\n      swap1\n      0x01\n      add\n      swap1\n      0x20\n      add\n      dup1\n      dup4\n      gt\n      tag_61\n      jumpi\n      dup3\n      swap1\n      sub\n      0x1f\n      and\n      dup3\n      add\n      swap2\n    tag_59:\n      pop\n      pop\n      pop\n      pop\n      pop\n      dup2\n      mstore\n      pop\n      pop\n      swap1\n      pop\n        /* \"contracts/MultiSigWallet.sol\":1518:1529  transaction */\n      dup1\n        /* \"contracts/MultiSigWallet.sol\":1518:1538  transaction.executed */\n      0x40\n      add\n      mload\n        /* \"contracts/MultiSigWallet.sol\":1517:1538  !transaction.executed */\n      iszero\n        /* \"contracts/MultiSigWallet.sol\":1509:1571  require(!transaction.executed, \"Transaction Already Executed\") */\n      tag_62\n      jumpi\n      mload(0x40)\n      0x08c379a000000000000000000000000000000000000000000000000000000000\n      dup2\n      mstore\n      0x04\n      add\n      tag_63\n      swap1\n      tag_64\n      jump\t// in\n    tag_63:\n      mload(0x40)\n      dup1\n      swap2\n      sub\n      swap1\n      revert\n    tag_62:\n        /* \"contracts/MultiSigWallet.sol\":2239:2243  true */\n      0x01\n        /* \"contracts/MultiSigWallet.sol\":2209:2217  approval */\n      0x03\n        /* \"contracts/MultiSigWallet.sol\":2209:2224  approval[_txId] */\n      0x00\n        /* \"contracts/MultiSigWallet.sol\":2218:2223  _txId */\n      dup8\n        /* \"contracts/MultiSigWallet.sol\":2209:2224  approval[_txId] */\n      dup2\n      mstore\n      0x20\n      add\n      swap1\n      dup2\n      mstore\n      0x20\n      add\n      0x00\n      keccak256\n        /* \"contracts/MultiSigWallet.sol\":2209:2236  approval[_txId][msg.sender] */\n      0x00\n        /* \"contracts/MultiSigWallet.sol\":2225:2235  msg.sender */\n      caller\n        /* \"contracts/MultiSigWallet.sol\":2209:2236  approval[_txId][msg.sender] */\n      0xffffffffffffffffffffffffffffffffffffffff\n      and\n      0xffffffffffffffffffffffffffffffffffffffff\n      and\n      dup2\n      mstore\n      0x20\n      add\n      swap1\n      dup2\n      mstore\n      0x20\n      add\n      0x00\n      keccak256\n      0x00\n        /* \"contracts/MultiSigWallet.sol\":2209:2243  approval[_txId][msg.sender] = true */\n      0x0100\n      exp\n      dup2\n      sload\n      dup2\n      0xff\n      mul\n      not\n      and\n      swap1\n      dup4\n      iszero\n      iszero\n      mul\n      or\n      swap1\n      sstore\n      pop\n        /* \"contracts/MultiSigWallet.sol\":2259:2285  Approve(_txId, msg.sender) */\n      0x47ad3e4b0f4bdbe3ac08708bbc45053d2ff616911b39e65563fd9bd781909645\n        /* \"contracts/MultiSigWallet.sol\":2267:2272  _txId */\n      dup6\n        /* \"contracts/MultiSigWallet.sol\":2274:2284  msg.sender */\n      caller\n        /* \"contracts/MultiSigWallet.sol\":2259:2285  Approve(_txId, msg.sender) */\n      mload(0x40)\n      tag_66\n      swap3\n      swap2\n      swap1\n      tag_67\n      jump\t// in\n    tag_66:\n      mload(0x40)\n      dup1\n      swap2\n      sub\n      swap1\n      log1\n        /* \"contracts/MultiSigWallet.sol\":1435:1591  {... */\n      pop\n        /* \"contracts/MultiSigWallet.sol\":1251:1252  _ */\n      pop\n        /* \"contracts/MultiSigWallet.sol\":1001:1002  _ */\n      pop\n        /* \"contracts/MultiSigWallet.sol\":2084:2295  function approveTransaction(uint _txId) external notApproved(_txId) existTrans(_txId) onlyOwner isNotExec(_txId){... */\n      pop\n      pop\n      jump\t// out\n        /* \"contracts/MultiSigWallet.sol\":238:277  mapping(address => bool) public isOwner */\n    tag_21:\n      mstore(0x20, 0x01)\n      dup1\n      0x00\n      mstore\n      keccak256(0x00, 0x40)\n      0x00\n      swap2\n      pop\n      sload\n      swap1\n      0x0100\n      exp\n      swap1\n      div\n      0xff\n      and\n      dup2\n      jump\t// out\n        /* \"contracts/MultiSigWallet.sol\":2303:2507  function revokeApproval(uint _txId) external isApproved(_txId) existTrans(_txId) onlyOwner isNotExec(_txId){... */\n    tag_27:\n        /* \"contracts/MultiSigWallet.sol\":2359:2364  _txId */\n      dup1\n        /* \"contracts/MultiSigWallet.sol\":1318:1326  approval */\n      0x03\n        /* \"contracts/MultiSigWallet.sol\":1318:1333  approval[_txId] */\n      0x00\n        /* \"contracts/MultiSigWallet.sol\":1327:1332  _txId */\n      dup3\n        /* \"contracts/MultiSigWallet.sol\":1318:1333  approval[_txId] */\n      dup2\n      mstore\n      0x20\n      add\n      swap1\n      dup2\n      mstore\n      0x20\n      add\n      0x00\n      keccak256\n        /* \"contracts/MultiSigWallet.sol\":1318:1345  approval[_txId][msg.sender] */\n      0x00\n        /* \"contracts/MultiSigWallet.sol\":1334:1344  msg.sender */\n      caller\n        /* \"contracts/MultiSigWallet.sol\":1318:1345  approval[_txId][msg.sender] */\n      0xffffffffffffffffffffffffffffffffffffffff\n      and\n      0xffffffffffffffffffffffffffffffffffffffff\n      and\n      dup2\n      mstore\n      0x20\n      add\n      swap1\n      dup2\n      mstore\n      0x20\n      add\n      0x00\n      keccak256\n      0x00\n      swap1\n      sload\n      swap1\n      0x0100\n      exp\n      swap1\n      div\n      0xff\n      and\n        /* \"contracts/MultiSigWallet.sol\":1310:1377  require(approval[_txId][msg.sender], \"Transaction Not Approved...\") */\n      tag_69\n      jumpi\n      mload(0x40)\n      0x08c379a000000000000000000000000000000000000000000000000000000000\n      dup2\n      mstore\n      0x04\n      add\n      tag_70\n      swap1\n      tag_71\n      jump\t// in\n    tag_70:\n      mload(0x40)\n      dup1\n      swap2\n      sub\n      swap1\n      revert\n    tag_69:\n        /* \"contracts/MultiSigWallet.sol\":2377:2382  _txId */\n      dup2\n        /* \"contracts/MultiSigWallet.sol\":1100:1101  1 */\n      0x01\n        /* \"contracts/MultiSigWallet.sol\":1078:1090  transactions */\n      0x04\n        /* \"contracts/MultiSigWallet.sol\":1078:1097  transactions.length */\n      dup1\n      sload\n      swap1\n      pop\n        /* \"contracts/MultiSigWallet.sol\":1078:1101  transactions.length - 1 */\n      tag_73\n      swap2\n      swap1\n      tag_43\n      jump\t// in\n    tag_73:\n        /* \"contracts/MultiSigWallet.sol\":1069:1074  _txId */\n      dup2\n        /* \"contracts/MultiSigWallet.sol\":1069:1101  _txId <= transactions.length - 1 */\n      gt\n      iszero\n        /* \"contracts/MultiSigWallet.sol\":1061:1134  require(_txId <= transactions.length - 1,\"Transaction Does not Exist...\") */\n      tag_74\n      jumpi\n      mload(0x40)\n      0x08c379a000000000000000000000000000000000000000000000000000000000\n      dup2\n      mstore\n      0x04\n      add\n      tag_75\n      swap1\n      tag_46\n      jump\t// in\n    tag_75:\n      mload(0x40)\n      dup1\n      swap2\n      sub\n      swap1\n      revert\n    tag_74:\n        /* \"contracts/MultiSigWallet.sol\":1199:1206  isOwner */\n      0x01\n        /* \"contracts/MultiSigWallet.sol\":1199:1218  isOwner[msg.sender] */\n      0x00\n        /* \"contracts/MultiSigWallet.sol\":1207:1217  msg.sender */\n      caller\n        /* \"contracts/MultiSigWallet.sol\":1199:1218  isOwner[msg.sender] */\n      0xffffffffffffffffffffffffffffffffffffffff\n      and\n      0xffffffffffffffffffffffffffffffffffffffff\n      and\n      dup2\n      mstore\n      0x20\n      add\n      swap1\n      dup2\n      mstore\n      0x20\n      add\n      0x00\n      keccak256\n      0x00\n      swap1\n      sload\n      swap1\n      0x0100\n      exp\n      swap1\n      div\n      0xff\n      and\n        /* \"contracts/MultiSigWallet.sol\":1191:1240  require(isOwner[msg.sender] ,\"Not the Owner....\") */\n      tag_77\n      jumpi\n      mload(0x40)\n      0x08c379a000000000000000000000000000000000000000000000000000000000\n      dup2\n      mstore\n      0x04\n      add\n      tag_78\n      swap1\n      tag_50\n      jump\t// in\n    tag_78:\n      mload(0x40)\n      dup1\n      swap2\n      sub\n      swap1\n      revert\n    tag_77:\n        /* \"contracts/MultiSigWallet.sol\":2404:2409  _txId */\n      dup3\n        /* \"contracts/MultiSigWallet.sol\":1446:1476  Transaction memory transaction */\n      0x00\n        /* \"contracts/MultiSigWallet.sol\":1479:1491  transactions */\n      0x04\n        /* \"contracts/MultiSigWallet.sol\":1492:1497  _txId */\n      dup3\n        /* \"contracts/MultiSigWallet.sol\":1479:1498  transactions[_txId] */\n      dup2\n      sload\n      dup2\n      lt\n      tag_80\n      jumpi\n      tag_81\n      tag_54\n      jump\t// in\n    tag_81:\n    tag_80:\n      swap1\n      0x00\n      mstore\n      keccak256(0x00, 0x20)\n      swap1\n      0x04\n      mul\n      add\n        /* \"contracts/MultiSigWallet.sol\":1446:1498  Transaction memory transaction = transactions[_txId] */\n      mload(0x40)\n      dup1\n      0x80\n      add\n      0x40\n      mstore\n      swap1\n      dup2\n      0x00\n      dup3\n      add\n      0x00\n      swap1\n      sload\n      swap1\n      0x0100\n      exp\n      swap1\n      div\n      0xffffffffffffffffffffffffffffffffffffffff\n      and\n      0xffffffffffffffffffffffffffffffffffffffff\n      and\n      0xffffffffffffffffffffffffffffffffffffffff\n      and\n      dup2\n      mstore\n      0x20\n      add\n      0x01\n      dup3\n      add\n      sload\n      dup2\n      mstore\n      0x20\n      add\n      0x02\n      dup3\n      add\n      0x00\n      swap1\n      sload\n      swap1\n      0x0100\n      exp\n      swap1\n      div\n      0xff\n      and\n      iszero\n      iszero\n      iszero\n      iszero\n      dup2\n      mstore\n      0x20\n      add\n      0x03\n      dup3\n      add\n      dup1\n      sload\n      tag_83\n      swap1\n      tag_57\n      jump\t// in\n    tag_83:\n      dup1\n      0x1f\n      add\n      0x20\n      dup1\n      swap2\n      div\n      mul\n      0x20\n      add\n      mload(0x40)\n      swap1\n      dup2\n      add\n      0x40\n      mstore\n      dup1\n      swap3\n      swap2\n      swap1\n      dup2\n      dup2\n      mstore\n      0x20\n      add\n      dup3\n      dup1\n      sload\n      tag_84\n      swap1\n      tag_57\n      jump\t// in\n    tag_84:\n      dup1\n      iszero\n      tag_85\n      jumpi\n      dup1\n      0x1f\n      lt\n      tag_86\n      jumpi\n      0x0100\n      dup1\n      dup4\n      sload\n      div\n      mul\n      dup4\n      mstore\n      swap2\n      0x20\n      add\n      swap2\n      jump(tag_85)\n    tag_86:\n      dup3\n      add\n      swap2\n      swap1\n      0x00\n      mstore\n      keccak256(0x00, 0x20)\n      swap1\n    tag_87:\n      dup2\n      sload\n      dup2\n      mstore\n      swap1\n      0x01\n      add\n      swap1\n      0x20\n      add\n      dup1\n      dup4\n      gt\n      tag_87\n      jumpi\n      dup3\n      swap1\n      sub\n      0x1f\n      and\n      dup3\n      add\n      swap2\n    tag_85:\n      pop\n      pop\n      pop\n      pop\n      pop\n      dup2\n      mstore\n      pop\n      pop\n      swap1\n      pop\n        /* \"contracts/MultiSigWallet.sol\":1518:1529  transaction */\n      dup1\n        /* \"contracts/MultiSigWallet.sol\":1518:1538  transaction.executed */\n      0x40\n      add\n      mload\n        /* \"contracts/MultiSigWallet.sol\":1517:1538  !transaction.executed */\n      iszero\n        /* \"contracts/MultiSigWallet.sol\":1509:1571  require(!transaction.executed, \"Transaction Already Executed\") */\n      tag_88\n      jumpi\n      mload(0x40)\n      0x08c379a000000000000000000000000000000000000000000000000000000000\n      dup2\n      mstore\n      0x04\n      add\n      tag_89\n      swap1\n      tag_64\n      jump\t// in\n    tag_89:\n      mload(0x40)\n      dup1\n      swap2\n      sub\n      swap1\n      revert\n    tag_88:\n        /* \"contracts/MultiSigWallet.sol\":2453:2458  false */\n      0x00\n        /* \"contracts/MultiSigWallet.sol\":2423:2431  approval */\n      0x03\n        /* \"contracts/MultiSigWallet.sol\":2423:2438  approval[_txId] */\n      0x00\n        /* \"contracts/MultiSigWallet.sol\":2432:2437  _txId */\n      dup8\n        /* \"contracts/MultiSigWallet.sol\":2423:2438  approval[_txId] */\n      dup2\n      mstore\n      0x20\n      add\n      swap1\n      dup2\n      mstore\n      0x20\n      add\n      0x00\n      keccak256\n        /* \"contracts/MultiSigWallet.sol\":2423:2450  approval[_txId][msg.sender] */\n      0x00\n        /* \"contracts/MultiSigWallet.sol\":2439:2449  msg.sender */\n      caller\n        /* \"contracts/MultiSigWallet.sol\":2423:2450  approval[_txId][msg.sender] */\n      0xffffffffffffffffffffffffffffffffffffffff\n      and\n      0xffffffffffffffffffffffffffffffffffffffff\n      and\n      dup2\n      mstore\n      0x20\n      add\n      swap1\n      dup2\n      mstore\n      0x20\n      add\n      0x00\n      keccak256\n      0x00\n        /* \"contracts/MultiSigWallet.sol\":2423:2458  approval[_txId][msg.sender] = false */\n      0x0100\n      exp\n      dup2\n      sload\n      dup2\n      0xff\n      mul\n      not\n      and\n      swap1\n      dup4\n      iszero\n      iszero\n      mul\n      or\n      swap1\n      sstore\n      pop\n        /* \"contracts/MultiSigWallet.sol\":2474:2499  Revoke(_txId, msg.sender) */\n      0xd5d64031e0f55cf42bc3b7d0462f8404a4d63f7ccf84be9510cd6a5300552e42\n        /* \"contracts/MultiSigWallet.sol\":2481:2486  _txId */\n      dup6\n        /* \"contracts/MultiSigWallet.sol\":2488:2498  msg.sender */\n      caller\n        /* \"contracts/MultiSigWallet.sol\":2474:2499  Revoke(_txId, msg.sender) */\n      mload(0x40)\n      tag_91\n      swap3\n      swap2\n      swap1\n      tag_67\n      jump\t// in\n    tag_91:\n      mload(0x40)\n      dup1\n      swap2\n      sub\n      swap1\n      log1\n        /* \"contracts/MultiSigWallet.sol\":1435:1591  {... */\n      pop\n        /* \"contracts/MultiSigWallet.sol\":1251:1252  _ */\n      pop\n        /* \"contracts/MultiSigWallet.sol\":1388:1389  _ */\n      pop\n        /* \"contracts/MultiSigWallet.sol\":2303:2507  function revokeApproval(uint _txId) external isApproved(_txId) existTrans(_txId) onlyOwner isNotExec(_txId){... */\n      pop\n      pop\n      jump\t// out\n        /* \"contracts/MultiSigWallet.sol\":1911:2076  function makeTransaction(address _to, uint _value,bytes calldata _data) external onlyOwner{... */\n    tag_32:\n        /* \"contracts/MultiSigWallet.sol\":1199:1206  isOwner */\n      0x01\n        /* \"contracts/MultiSigWallet.sol\":1199:1218  isOwner[msg.sender] */\n      0x00\n        /* \"contracts/MultiSigWallet.sol\":1207:1217  msg.sender */\n      caller\n        /* \"contracts/MultiSigWallet.sol\":1199:1218  isOwner[msg.sender] */\n      0xffffffffffffffffffffffffffffffffffffffff\n      and\n      0xffffffffffffffffffffffffffffffffffffffff\n      and\n      dup2\n      mstore\n      0x20\n      add\n      swap1\n      dup2\n      mstore\n      0x20\n      add\n      0x00\n      keccak256\n      0x00\n      swap1\n      sload\n      swap1\n      0x0100\n      exp\n      swap1\n      div\n      0xff\n      and\n        /* \"contracts/MultiSigWallet.sol\":1191:1240  require(isOwner[msg.sender] ,\"Not the Owner....\") */\n      tag_93\n      jumpi\n      mload(0x40)\n      0x08c379a000000000000000000000000000000000000000000000000000000000\n      dup2\n      mstore\n      0x04\n      add\n      tag_94\n      swap1\n      tag_50\n      jump\t// in\n    tag_94:\n      mload(0x40)\n      dup1\n      swap2\n      sub\n      swap1\n      revert\n    tag_93:\n        /* \"contracts/MultiSigWallet.sol\":2012:2024  transactions */\n      0x04\n        /* \"contracts/MultiSigWallet.sol\":2030:2065  Transaction(_to,_value,false,_data) */\n      mload(0x40)\n      dup1\n      0x80\n      add\n      0x40\n      mstore\n      dup1\n        /* \"contracts/MultiSigWallet.sol\":2042:2045  _to */\n      dup7\n        /* \"contracts/MultiSigWallet.sol\":2030:2065  Transaction(_to,_value,false,_data) */\n      0xffffffffffffffffffffffffffffffffffffffff\n      and\n      dup2\n      mstore\n      0x20\n      add\n        /* \"contracts/MultiSigWallet.sol\":2046:2052  _value */\n      dup6\n        /* \"contracts/MultiSigWallet.sol\":2030:2065  Transaction(_to,_value,false,_data) */\n      dup2\n      mstore\n      0x20\n      add\n        /* \"contracts/MultiSigWallet.sol\":2053:2058  false */\n      0x00\n        /* \"contracts/MultiSigWallet.sol\":2030:2065  Transaction(_to,_value,false,_data) */\n      iszero\n      iszero\n      dup2\n      mstore\n      0x20\n      add\n        /* \"contracts/MultiSigWallet.sol\":2059:2064  _data */\n      dup5\n      dup5\n        /* \"contracts/MultiSigWallet.sol\":2030:2065  Transaction(_to,_value,false,_data) */\n      dup1\n      dup1\n      0x1f\n      add\n      0x20\n      dup1\n      swap2\n      div\n      mul\n      0x20\n      add\n      mload(0x40)\n      swap1\n      dup2\n      add\n      0x40\n      mstore\n      dup1\n      swap4\n      swap3\n      swap2\n      swap1\n      dup2\n      dup2\n      mstore\n      0x20\n      add\n      dup4\n      dup4\n      dup1\n      dup3\n      dup5\n      calldatacopy\n      0x00\n      dup2\n      dup5\n      add\n      mstore\n      not(0x1f)\n      0x1f\n      dup3\n      add\n      and\n      swap1\n      pop\n      dup1\n      dup4\n      add\n      swap3\n      pop\n      pop\n      pop\n      pop\n      pop\n      pop\n      pop\n      dup2\n      mstore\n      pop\n        /* \"contracts/MultiSigWallet.sol\":2012:2066  transactions.push(Transaction(_to,_value,false,_data)) */\n      swap1\n      dup1\n      0x01\n      dup2\n      sload\n      add\n      dup1\n      dup3\n      sstore\n      dup1\n      swap2\n      pop\n      pop\n      0x01\n      swap1\n      sub\n      swap1\n      0x00\n      mstore\n      keccak256(0x00, 0x20)\n      swap1\n      0x04\n      mul\n      add\n      0x00\n      swap1\n      swap2\n      swap1\n      swap2\n      swap1\n      swap2\n      pop\n      0x00\n      dup3\n      add\n      mload\n      dup2\n      0x00\n      add\n      exp(0x0100, 0x00)\n      dup2\n      sload\n      dup2\n      0xffffffffffffffffffffffffffffffffffffffff\n      mul\n      not\n      and\n      swap1\n      dup4\n      0xffffffffffffffffffffffffffffffffffffffff\n      and\n      mul\n      or\n      swap1\n      sstore\n      pop\n      0x20\n      dup3\n      add\n      mload\n      dup2\n      0x01\n      add\n      sstore\n      0x40\n      dup3\n      add\n      mload\n      dup2\n      0x02\n      add\n      exp(0x0100, 0x00)\n      dup2\n      sload\n      dup2\n      0xff\n      mul\n      not\n      and\n      swap1\n      dup4\n      iszero\n      iszero\n      mul\n      or\n      swap1\n      sstore\n      pop\n      0x60\n      dup3\n      add\n      mload\n      dup2\n      0x03\n      add\n      swap1\n      dup2\n      tag_97\n      swap2\n      swap1\n      tag_98\n      jump\t// in\n    tag_97:\n      pop\n      pop\n      pop\n        /* \"contracts/MultiSigWallet.sol\":1911:2076  function makeTransaction(address _to, uint _value,bytes calldata _data) external onlyOwner{... */\n      pop\n      pop\n      pop\n      pop\n      jump\t// out\n        /* \"contracts/MultiSigWallet.sol\":2515:2951  function executeTransaction(uint _txId) external existTrans(_txId) onlyOwner isNotExec(_txId) {... */\n    tag_36:\n        /* \"contracts/MultiSigWallet.sol\":2575:2580  _txId */\n      dup1\n        /* \"contracts/MultiSigWallet.sol\":1100:1101  1 */\n      0x01\n        /* \"contracts/MultiSigWallet.sol\":1078:1090  transactions */\n      0x04\n        /* \"contracts/MultiSigWallet.sol\":1078:1097  transactions.length */\n      dup1\n      sload\n      swap1\n      pop\n        /* \"contracts/MultiSigWallet.sol\":1078:1101  transactions.length - 1 */\n      tag_100\n      swap2\n      swap1\n      tag_43\n      jump\t// in\n    tag_100:\n        /* \"contracts/MultiSigWallet.sol\":1069:1074  _txId */\n      dup2\n        /* \"contracts/MultiSigWallet.sol\":1069:1101  _txId <= transactions.length - 1 */\n      gt\n      iszero\n        /* \"contracts/MultiSigWallet.sol\":1061:1134  require(_txId <= transactions.length - 1,\"Transaction Does not Exist...\") */\n      tag_101\n      jumpi\n      mload(0x40)\n      0x08c379a000000000000000000000000000000000000000000000000000000000\n      dup2\n      mstore\n      0x04\n      add\n      tag_102\n      swap1\n      tag_46\n      jump\t// in\n    tag_102:\n      mload(0x40)\n      dup1\n      swap2\n      sub\n      swap1\n      revert\n    tag_101:\n        /* \"contracts/MultiSigWallet.sol\":1199:1206  isOwner */\n      0x01\n        /* \"contracts/MultiSigWallet.sol\":1199:1218  isOwner[msg.sender] */\n      0x00\n        /* \"contracts/MultiSigWallet.sol\":1207:1217  msg.sender */\n      caller\n        /* \"contracts/MultiSigWallet.sol\":1199:1218  isOwner[msg.sender] */\n      0xffffffffffffffffffffffffffffffffffffffff\n      and\n      0xffffffffffffffffffffffffffffffffffffffff\n      and\n      dup2\n      mstore\n      0x20\n      add\n      swap1\n      dup2\n      mstore\n      0x20\n      add\n      0x00\n      keccak256\n      0x00\n      swap1\n      sload\n      swap1\n      0x0100\n      exp\n      swap1\n      div\n      0xff\n      and\n        /* \"contracts/MultiSigWallet.sol\":1191:1240  require(isOwner[msg.sender] ,\"Not the Owner....\") */\n      tag_104\n      jumpi\n      mload(0x40)\n      0x08c379a000000000000000000000000000000000000000000000000000000000\n      dup2\n      mstore\n      0x04\n      add\n      tag_105\n      swap1\n      tag_50\n      jump\t// in\n    tag_105:\n      mload(0x40)\n      dup1\n      swap2\n      sub\n      swap1\n      revert\n    tag_104:\n        /* \"contracts/MultiSigWallet.sol\":2602:2607  _txId */\n      dup2\n        /* \"contracts/MultiSigWallet.sol\":1446:1476  Transaction memory transaction */\n      0x00\n        /* \"contracts/MultiSigWallet.sol\":1479:1491  transactions */\n      0x04\n        /* \"contracts/MultiSigWallet.sol\":1492:1497  _txId */\n      dup3\n        /* \"contracts/MultiSigWallet.sol\":1479:1498  transactions[_txId] */\n      dup2\n      sload\n      dup2\n      lt\n      tag_107\n      jumpi\n      tag_108\n      tag_54\n      jump\t// in\n    tag_108:\n    tag_107:\n      swap1\n      0x00\n      mstore\n      keccak256(0x00, 0x20)\n      swap1\n      0x04\n      mul\n      add\n        /* \"contracts/MultiSigWallet.sol\":1446:1498  Transaction memory transaction = transactions[_txId] */\n      mload(0x40)\n      dup1\n      0x80\n      add\n      0x40\n      mstore\n      swap1\n      dup2\n      0x00\n      dup3\n      add\n      0x00\n      swap1\n      sload\n      swap1\n      0x0100\n      exp\n      swap1\n      div\n      0xffffffffffffffffffffffffffffffffffffffff\n      and\n      0xffffffffffffffffffffffffffffffffffffffff\n      and\n      0xffffffffffffffffffffffffffffffffffffffff\n      and\n      dup2\n      mstore\n      0x20\n      add\n      0x01\n      dup3\n      add\n      sload\n      dup2\n      mstore\n      0x20\n      add\n      0x02\n      dup3\n      add\n      0x00\n      swap1\n      sload\n      swap1\n      0x0100\n      exp\n      swap1\n      div\n      0xff\n      and\n      iszero\n      iszero\n      iszero\n      iszero\n      dup2\n      mstore\n      0x20\n      add\n      0x03\n      dup3\n      add\n      dup1\n      sload\n      tag_110\n      swap1\n      tag_57\n      jump\t// in\n    tag_110:\n      dup1\n      0x1f\n      add\n      0x20\n      dup1\n      swap2\n      div\n      mul\n      0x20\n      add\n      mload(0x40)\n      swap1\n      dup2\n      add\n      0x40\n      mstore\n      dup1\n      swap3\n      swap2\n      swap1\n      dup2\n      dup2\n      mstore\n      0x20\n      add\n      dup3\n      dup1\n      sload\n      tag_111\n      swap1\n      tag_57\n      jump\t// in\n    tag_111:\n      dup1\n      iszero\n      tag_112\n      jumpi\n      dup1\n      0x1f\n      lt\n      tag_113\n      jumpi\n      0x0100\n      dup1\n      dup4\n      sload\n      div\n      mul\n      dup4\n      mstore\n      swap2\n      0x20\n      add\n      swap2\n      jump(tag_112)\n    tag_113:\n      dup3\n      add\n      swap2\n      swap1\n      0x00\n      mstore\n      keccak256(0x00, 0x20)\n      swap1\n    tag_114:\n      dup2\n      sload\n      dup2\n      mstore\n      swap1\n      0x01\n      add\n      swap1\n      0x20\n      add\n      dup1\n      dup4\n      gt\n      tag_114\n      jumpi\n      dup3\n      swap1\n      sub\n      0x1f\n      and\n      dup3\n      add\n      swap2\n    tag_112:\n      pop\n      pop\n      pop\n      pop\n      pop\n      dup2\n      mstore\n      pop\n      pop\n      swap1\n      pop\n        /* \"contracts/MultiSigWallet.sol\":1518:1529  transaction */\n      dup1\n        /* \"contracts/MultiSigWallet.sol\":1518:1538  transaction.executed */\n      0x40\n      add\n      mload\n        /* \"contracts/MultiSigWallet.sol\":1517:1538  !transaction.executed */\n      iszero\n        /* \"contracts/MultiSigWallet.sol\":1509:1571  require(!transaction.executed, \"Transaction Already Executed\") */\n      tag_115\n      jumpi\n      mload(0x40)\n      0x08c379a000000000000000000000000000000000000000000000000000000000\n      dup2\n      mstore\n      0x04\n      add\n      tag_116\n      swap1\n      tag_64\n      jump\t// in\n    tag_116:\n      mload(0x40)\n      dup1\n      swap2\n      sub\n      swap1\n      revert\n    tag_115:\n        /* \"contracts/MultiSigWallet.sol\":2646:2654  required */\n      sload(0x02)\n        /* \"contracts/MultiSigWallet.sol\":2628:2642  canExec(_txId) */\n      tag_118\n        /* \"contracts/MultiSigWallet.sol\":2636:2641  _txId */\n      dup6\n        /* \"contracts/MultiSigWallet.sol\":2628:2635  canExec */\n      tag_119\n        /* \"contracts/MultiSigWallet.sol\":2628:2642  canExec(_txId) */\n      jump\t// in\n    tag_118:\n        /* \"contracts/MultiSigWallet.sol\":2628:2654  canExec(_txId) >= required */\n      lt\n      iszero\n        /* \"contracts/MultiSigWallet.sol\":2620:2682  require(canExec(_txId) >= required, \"Not Enough Approvals...\") */\n      tag_120\n      jumpi\n      mload(0x40)\n      0x08c379a000000000000000000000000000000000000000000000000000000000\n      dup2\n      mstore\n      0x04\n      add\n      tag_121\n      swap1\n      tag_122\n      jump\t// in\n    tag_121:\n      mload(0x40)\n      dup1\n      swap2\n      sub\n      swap1\n      revert\n    tag_120:\n        /* \"contracts/MultiSigWallet.sol\":2693:2724  Transaction storage transaction */\n      0x00\n        /* \"contracts/MultiSigWallet.sol\":2727:2739  transactions */\n      0x04\n        /* \"contracts/MultiSigWallet.sol\":2740:2745  _txId */\n      dup6\n        /* \"contracts/MultiSigWallet.sol\":2727:2746  transactions[_txId] */\n      dup2\n      sload\n      dup2\n      lt\n      tag_123\n      jumpi\n      tag_124\n      tag_54\n      jump\t// in\n    tag_124:\n    tag_123:\n      swap1\n      0x00\n      mstore\n      keccak256(0x00, 0x20)\n      swap1\n      0x04\n      mul\n      add\n        /* \"contracts/MultiSigWallet.sol\":2693:2746  Transaction storage transaction = transactions[_txId] */\n      swap1\n      pop\n        /* \"contracts/MultiSigWallet.sol\":2759:2771  bool success */\n      0x00\n        /* \"contracts/MultiSigWallet.sol\":2777:2788  transaction */\n      dup2\n        /* \"contracts/MultiSigWallet.sol\":2777:2791  transaction.to */\n      0x00\n      add\n      0x00\n      swap1\n      sload\n      swap1\n      0x0100\n      exp\n      swap1\n      div\n      0xffffffffffffffffffffffffffffffffffffffff\n      and\n        /* \"contracts/MultiSigWallet.sol\":2777:2796  transaction.to.call */\n      0xffffffffffffffffffffffffffffffffffffffff\n      and\n        /* \"contracts/MultiSigWallet.sol\":2804:2815  transaction */\n      dup3\n        /* \"contracts/MultiSigWallet.sol\":2804:2821  transaction.value */\n      0x01\n      add\n      sload\n        /* \"contracts/MultiSigWallet.sol\":2823:2834  transaction */\n      dup4\n        /* \"contracts/MultiSigWallet.sol\":2823:2839  transaction.data */\n      0x03\n      add\n        /* \"contracts/MultiSigWallet.sol\":2777:2840  transaction.to.call{value: transaction.value}(transaction.data) */\n      mload(0x40)\n      tag_126\n      swap2\n      swap1\n      tag_127\n      jump\t// in\n    tag_126:\n      0x00\n      mload(0x40)\n      dup1\n      dup4\n      sub\n      dup2\n      dup6\n      dup8\n      gas\n      call\n      swap3\n      pop\n      pop\n      pop\n      returndatasize\n      dup1\n      0x00\n      dup2\n      eq\n      tag_130\n      jumpi\n      mload(0x40)\n      swap2\n      pop\n      and(add(returndatasize, 0x3f), not(0x1f))\n      dup3\n      add\n      0x40\n      mstore\n      returndatasize\n      dup3\n      mstore\n      returndatasize\n      0x00\n      0x20\n      dup5\n      add\n      returndatacopy\n      jump(tag_129)\n    tag_130:\n      0x60\n      swap2\n      pop\n    tag_129:\n      pop\n        /* \"contracts/MultiSigWallet.sol\":2758:2840  (bool success, ) = transaction.to.call{value: transaction.value}(transaction.data) */\n      pop\n      swap1\n      pop\n        /* \"contracts/MultiSigWallet.sol\":2861:2868  success */\n      dup1\n        /* \"contracts/MultiSigWallet.sol\":2853:2895  require(success, \"Transaction Incomplete\") */\n      tag_131\n      jumpi\n      mload(0x40)\n      0x08c379a000000000000000000000000000000000000000000000000000000000\n      dup2\n      mstore\n      0x04\n      add\n      tag_132\n      swap1\n      tag_133\n      jump\t// in\n    tag_132:\n      mload(0x40)\n      dup1\n      swap2\n      sub\n      swap1\n      revert\n    tag_131:\n        /* \"contracts/MultiSigWallet.sol\":2929:2933  true */\n      0x01\n        /* \"contracts/MultiSigWallet.sol\":2906:2917  transaction */\n      dup3\n        /* \"contracts/MultiSigWallet.sol\":2906:2926  transaction.executed */\n      0x02\n      add\n      0x00\n        /* \"contracts/MultiSigWallet.sol\":2906:2933  transaction.executed = true */\n      0x0100\n      exp\n      dup2\n      sload\n      dup2\n      0xff\n      mul\n      not\n      and\n      swap1\n      dup4\n      iszero\n      iszero\n      mul\n      or\n      swap1\n      sstore\n      pop\n        /* \"contracts/MultiSigWallet.sol\":2609:2951  {... */\n      pop\n      pop\n        /* \"contracts/MultiSigWallet.sol\":1435:1591  {... */\n      pop\n        /* \"contracts/MultiSigWallet.sol\":1251:1252  _ */\n      pop\n        /* \"contracts/MultiSigWallet.sol\":2515:2951  function executeTransaction(uint _txId) external existTrans(_txId) onlyOwner isNotExec(_txId) {... */\n      pop\n      pop\n      jump\t// out\n        /* \"contracts/MultiSigWallet.sol\":1599:1815  function canExec(uint _txId) private view returns(uint count){... */\n    tag_119:\n        /* \"contracts/MultiSigWallet.sol\":1649:1659  uint count */\n      0x00\n        /* \"contracts/MultiSigWallet.sol\":1675:1681  uint i */\n      dup1\n        /* \"contracts/MultiSigWallet.sol\":1671:1808  for(uint i; i < owners.length ; i++){... */\n    tag_135:\n        /* \"contracts/MultiSigWallet.sol\":1687:1693  owners */\n      0x00\n        /* \"contracts/MultiSigWallet.sol\":1687:1700  owners.length */\n      dup1\n      sload\n      swap1\n      pop\n        /* \"contracts/MultiSigWallet.sol\":1683:1684  i */\n      dup2\n        /* \"contracts/MultiSigWallet.sol\":1683:1700  i < owners.length */\n      lt\n        /* \"contracts/MultiSigWallet.sol\":1671:1808  for(uint i; i < owners.length ; i++){... */\n      iszero\n      tag_136\n      jumpi\n        /* \"contracts/MultiSigWallet.sol\":1725:1733  approval */\n      0x03\n        /* \"contracts/MultiSigWallet.sol\":1725:1740  approval[_txId] */\n      0x00\n        /* \"contracts/MultiSigWallet.sol\":1734:1739  _txId */\n      dup5\n        /* \"contracts/MultiSigWallet.sol\":1725:1740  approval[_txId] */\n      dup2\n      mstore\n      0x20\n      add\n      swap1\n      dup2\n      mstore\n      0x20\n      add\n      0x00\n      keccak256\n        /* \"contracts/MultiSigWallet.sol\":1725:1751  approval[_txId][owners[i]] */\n      0x00\n        /* \"contracts/MultiSigWallet.sol\":1741:1747  owners */\n      dup1\n        /* \"contracts/MultiSigWallet.sol\":1748:1749  i */\n      dup4\n        /* \"contracts/MultiSigWallet.sol\":1741:1750  owners[i] */\n      dup2\n      sload\n      dup2\n      lt\n      tag_138\n      jumpi\n      tag_139\n      tag_54\n      jump\t// in\n    tag_139:\n    tag_138:\n      swap1\n      0x00\n      mstore\n      keccak256(0x00, 0x20)\n      add\n      0x00\n      swap1\n      sload\n      swap1\n      0x0100\n      exp\n      swap1\n      div\n      0xffffffffffffffffffffffffffffffffffffffff\n      and\n        /* \"contracts/MultiSigWallet.sol\":1725:1751  approval[_txId][owners[i]] */\n      0xffffffffffffffffffffffffffffffffffffffff\n      and\n      0xffffffffffffffffffffffffffffffffffffffff\n      and\n      dup2\n      mstore\n      0x20\n      add\n      swap1\n      dup2\n      mstore\n      0x20\n      add\n      0x00\n      keccak256\n      0x00\n      swap1\n      sload\n      swap1\n      0x0100\n      exp\n      swap1\n      div\n      0xff\n      and\n        /* \"contracts/MultiSigWallet.sol\":1722:1797  if(approval[_txId][owners[i]]){... */\n      iszero\n      tag_141\n      jumpi\n        /* \"contracts/MultiSigWallet.sol\":1780:1781  1 */\n      0x01\n        /* \"contracts/MultiSigWallet.sol\":1771:1781  count += 1 */\n      dup3\n      tag_142\n      swap2\n      swap1\n      tag_143\n      jump\t// in\n    tag_142:\n      swap2\n      pop\n        /* \"contracts/MultiSigWallet.sol\":1722:1797  if(approval[_txId][owners[i]]){... */\n    tag_141:\n        /* \"contracts/MultiSigWallet.sol\":1703:1706  i++ */\n      dup1\n      dup1\n      tag_144\n      swap1\n      tag_145\n      jump\t// in\n    tag_144:\n      swap2\n      pop\n      pop\n        /* \"contracts/MultiSigWallet.sol\":1671:1808  for(uint i; i < owners.length ; i++){... */\n      jump(tag_135)\n    tag_136:\n      pop\n        /* \"contracts/MultiSigWallet.sol\":1599:1815  function canExec(uint _txId) private view returns(uint count){... */\n      swap2\n      swap1\n      pop\n      jump\t// out\n        /* \"#utility.yul\":7:133   */\n    tag_146:\n        /* \"#utility.yul\":44:51   */\n      0x00\n        /* \"#utility.yul\":84:126   */\n      0xffffffffffffffffffffffffffffffffffffffff\n        /* \"#utility.yul\":77:82   */\n      dup3\n        /* \"#utility.yul\":73:127   */\n      and\n        /* \"#utility.yul\":62:127   */\n      swap1\n      pop\n        /* \"#utility.yul\":7:133   */\n      swap2\n      swap1\n      pop\n      jump\t// out\n        /* \"#utility.yul\":139:235   */\n    tag_147:\n        /* \"#utility.yul\":176:183   */\n      0x00\n        /* \"#utility.yul\":205:229   */\n      tag_203\n        /* \"#utility.yul\":223:228   */\n      dup3\n        /* \"#utility.yul\":205:229   */\n      tag_146\n      jump\t// in\n    tag_203:\n        /* \"#utility.yul\":194:229   */\n      swap1\n      pop\n        /* \"#utility.yul\":139:235   */\n      swap2\n      swap1\n      pop\n      jump\t// out\n        /* \"#utility.yul\":241:359   */\n    tag_148:\n        /* \"#utility.yul\":328:352   */\n      tag_205\n        /* \"#utility.yul\":346:351   */\n      dup2\n        /* \"#utility.yul\":328:352   */\n      tag_147\n      jump\t// in\n    tag_205:\n        /* \"#utility.yul\":323:326   */\n      dup3\n        /* \"#utility.yul\":316:353   */\n      mstore\n        /* \"#utility.yul\":241:359   */\n      pop\n      pop\n      jump\t// out\n        /* \"#utility.yul\":365:442   */\n    tag_149:\n        /* \"#utility.yul\":402:409   */\n      0x00\n        /* \"#utility.yul\":431:436   */\n      dup2\n        /* \"#utility.yul\":420:436   */\n      swap1\n      pop\n        /* \"#utility.yul\":365:442   */\n      swap2\n      swap1\n      pop\n      jump\t// out\n        /* \"#utility.yul\":448:566   */\n    tag_150:\n        /* \"#utility.yul\":535:559   */\n      tag_208\n        /* \"#utility.yul\":553:558   */\n      dup2\n        /* \"#utility.yul\":535:559   */\n      tag_149\n      jump\t// in\n    tag_208:\n        /* \"#utility.yul\":530:533   */\n      dup3\n        /* \"#utility.yul\":523:560   */\n      mstore\n        /* \"#utility.yul\":448:566   */\n      pop\n      pop\n      jump\t// out\n        /* \"#utility.yul\":572:904   */\n    tag_11:\n        /* \"#utility.yul\":693:697   */\n      0x00\n        /* \"#utility.yul\":731:733   */\n      0x40\n        /* \"#utility.yul\":720:729   */\n      dup3\n        /* \"#utility.yul\":716:734   */\n      add\n        /* \"#utility.yul\":708:734   */\n      swap1\n      pop\n        /* \"#utility.yul\":744:815   */\n      tag_210\n        /* \"#utility.yul\":812:813   */\n      0x00\n        /* \"#utility.yul\":801:810   */\n      dup4\n        /* \"#utility.yul\":797:814   */\n      add\n        /* \"#utility.yul\":788:794   */\n      dup6\n        /* \"#utility.yul\":744:815   */\n      tag_148\n      jump\t// in\n    tag_210:\n        /* \"#utility.yul\":825:897   */\n      tag_211\n        /* \"#utility.yul\":893:895   */\n      0x20\n        /* \"#utility.yul\":882:891   */\n      dup4\n        /* \"#utility.yul\":878:896   */\n      add\n        /* \"#utility.yul\":869:875   */\n      dup5\n        /* \"#utility.yul\":825:897   */\n      tag_150\n      jump\t// in\n    tag_211:\n        /* \"#utility.yul\":572:904   */\n      swap4\n      swap3\n      pop\n      pop\n      pop\n      jump\t// out\n        /* \"#utility.yul\":991:1108   */\n    tag_152:\n        /* \"#utility.yul\":1100:1101   */\n      0x00\n        /* \"#utility.yul\":1097:1098   */\n      dup1\n        /* \"#utility.yul\":1090:1102   */\n      revert\n        /* \"#utility.yul\":1114:1231   */\n    tag_153:\n        /* \"#utility.yul\":1223:1224   */\n      0x00\n        /* \"#utility.yul\":1220:1221   */\n      dup1\n        /* \"#utility.yul\":1213:1225   */\n      revert\n        /* \"#utility.yul\":1237:1359   */\n    tag_154:\n        /* \"#utility.yul\":1310:1334   */\n      tag_216\n        /* \"#utility.yul\":1328:1333   */\n      dup2\n        /* \"#utility.yul\":1310:1334   */\n      tag_149\n      jump\t// in\n    tag_216:\n        /* \"#utility.yul\":1303:1308   */\n      dup2\n        /* \"#utility.yul\":1300:1335   */\n      eq\n        /* \"#utility.yul\":1290:1353   */\n      tag_217\n      jumpi\n        /* \"#utility.yul\":1349:1350   */\n      0x00\n        /* \"#utility.yul\":1346:1347   */\n      dup1\n        /* \"#utility.yul\":1339:1351   */\n      revert\n        /* \"#utility.yul\":1290:1353   */\n    tag_217:\n        /* \"#utility.yul\":1237:1359   */\n      pop\n      jump\t// out\n        /* \"#utility.yul\":1365:1504   */\n    tag_155:\n        /* \"#utility.yul\":1411:1416   */\n      0x00\n        /* \"#utility.yul\":1449:1455   */\n      dup2\n        /* \"#utility.yul\":1436:1456   */\n      calldataload\n        /* \"#utility.yul\":1427:1456   */\n      swap1\n      pop\n        /* \"#utility.yul\":1465:1498   */\n      tag_219\n        /* \"#utility.yul\":1492:1497   */\n      dup2\n        /* \"#utility.yul\":1465:1498   */\n      tag_154\n      jump\t// in\n    tag_219:\n        /* \"#utility.yul\":1365:1504   */\n      swap3\n      swap2\n      pop\n      pop\n      jump\t// out\n        /* \"#utility.yul\":1510:1839   */\n    tag_15:\n        /* \"#utility.yul\":1569:1575   */\n      0x00\n        /* \"#utility.yul\":1618:1620   */\n      0x20\n        /* \"#utility.yul\":1606:1615   */\n      dup3\n        /* \"#utility.yul\":1597:1604   */\n      dup5\n        /* \"#utility.yul\":1593:1616   */\n      sub\n        /* \"#utility.yul\":1589:1621   */\n      slt\n        /* \"#utility.yul\":1586:1705   */\n      iszero\n      tag_221\n      jumpi\n        /* \"#utility.yul\":1624:1703   */\n      tag_222\n      tag_152\n      jump\t// in\n    tag_222:\n        /* \"#utility.yul\":1586:1705   */\n    tag_221:\n        /* \"#utility.yul\":1744:1745   */\n      0x00\n        /* \"#utility.yul\":1769:1822   */\n      tag_223\n        /* \"#utility.yul\":1814:1821   */\n      dup5\n        /* \"#utility.yul\":1805:1811   */\n      dup3\n        /* \"#utility.yul\":1794:1803   */\n      dup6\n        /* \"#utility.yul\":1790:1812   */\n      add\n        /* \"#utility.yul\":1769:1822   */\n      tag_155\n      jump\t// in\n    tag_223:\n        /* \"#utility.yul\":1759:1822   */\n      swap2\n      pop\n        /* \"#utility.yul\":1715:1832   */\n      pop\n        /* \"#utility.yul\":1510:1839   */\n      swap3\n      swap2\n      pop\n      pop\n      jump\t// out\n        /* \"#utility.yul\":1845:1967   */\n    tag_156:\n        /* \"#utility.yul\":1918:1942   */\n      tag_225\n        /* \"#utility.yul\":1936:1941   */\n      dup2\n        /* \"#utility.yul\":1918:1942   */\n      tag_147\n      jump\t// in\n    tag_225:\n        /* \"#utility.yul\":1911:1916   */\n      dup2\n        /* \"#utility.yul\":1908:1943   */\n      eq\n        /* \"#utility.yul\":1898:1961   */\n      tag_226\n      jumpi\n        /* \"#utility.yul\":1957:1958   */\n      0x00\n        /* \"#utility.yul\":1954:1955   */\n      dup1\n        /* \"#utility.yul\":1947:1959   */\n      revert\n        /* \"#utility.yul\":1898:1961   */\n    tag_226:\n        /* \"#utility.yul\":1845:1967   */\n      pop\n      jump\t// out\n        /* \"#utility.yul\":1973:2112   */\n    tag_157:\n        /* \"#utility.yul\":2019:2024   */\n      0x00\n        /* \"#utility.yul\":2057:2063   */\n      dup2\n        /* \"#utility.yul\":2044:2064   */\n      calldataload\n        /* \"#utility.yul\":2035:2064   */\n      swap1\n      pop\n        /* \"#utility.yul\":2073:2106   */\n      tag_228\n        /* \"#utility.yul\":2100:2105   */\n      dup2\n        /* \"#utility.yul\":2073:2106   */\n      tag_156\n      jump\t// in\n    tag_228:\n        /* \"#utility.yul\":1973:2112   */\n      swap3\n      swap2\n      pop\n      pop\n      jump\t// out\n        /* \"#utility.yul\":2118:2447   */\n    tag_20:\n        /* \"#utility.yul\":2177:2183   */\n      0x00\n        /* \"#utility.yul\":2226:2228   */\n      0x20\n        /* \"#utility.yul\":2214:2223   */\n      dup3\n        /* \"#utility.yul\":2205:2212   */\n      dup5\n        /* \"#utility.yul\":2201:2224   */\n      sub\n        /* \"#utility.yul\":2197:2229   */\n      slt\n        /* \"#utility.yul\":2194:2313   */\n      iszero\n      tag_230\n      jumpi\n        /* \"#utility.yul\":2232:2311   */\n      tag_231\n      tag_152\n      jump\t// in\n    tag_231:\n        /* \"#utility.yul\":2194:2313   */\n    tag_230:\n        /* \"#utility.yul\":2352:2353   */\n      0x00\n        /* \"#utility.yul\":2377:2430   */\n      tag_232\n        /* \"#utility.yul\":2422:2429   */\n      dup5\n        /* \"#utility.yul\":2413:2419   */\n      dup3\n        /* \"#utility.yul\":2402:2411   */\n      dup6\n        /* \"#utility.yul\":2398:2420   */\n      add\n        /* \"#utility.yul\":2377:2430   */\n      tag_157\n      jump\t// in\n    tag_232:\n        /* \"#utility.yul\":2367:2430   */\n      swap2\n      pop\n        /* \"#utility.yul\":2323:2440   */\n      pop\n        /* \"#utility.yul\":2118:2447   */\n      swap3\n      swap2\n      pop\n      pop\n      jump\t// out\n        /* \"#utility.yul\":2453:2543   */\n    tag_158:\n        /* \"#utility.yul\":2487:2494   */\n      0x00\n        /* \"#utility.yul\":2530:2535   */\n      dup2\n        /* \"#utility.yul\":2523:2536   */\n      iszero\n        /* \"#utility.yul\":2516:2537   */\n      iszero\n        /* \"#utility.yul\":2505:2537   */\n      swap1\n      pop\n        /* \"#utility.yul\":2453:2543   */\n      swap2\n      swap1\n      pop\n      jump\t// out\n        /* \"#utility.yul\":2549:2658   */\n    tag_159:\n        /* \"#utility.yul\":2630:2651   */\n      tag_235\n        /* \"#utility.yul\":2645:2650   */\n      dup2\n        /* \"#utility.yul\":2630:2651   */\n      tag_158\n      jump\t// in\n    tag_235:\n        /* \"#utility.yul\":2625:2628   */\n      dup3\n        /* \"#utility.yul\":2618:2652   */\n      mstore\n        /* \"#utility.yul\":2549:2658   */\n      pop\n      pop\n      jump\t// out\n        /* \"#utility.yul\":2664:2874   */\n    tag_23:\n        /* \"#utility.yul\":2751:2755   */\n      0x00\n        /* \"#utility.yul\":2789:2791   */\n      0x20\n        /* \"#utility.yul\":2778:2787   */\n      dup3\n        /* \"#utility.yul\":2774:2792   */\n      add\n        /* \"#utility.yul\":2766:2792   */\n      swap1\n      pop\n        /* \"#utility.yul\":2802:2867   */\n      tag_237\n        /* \"#utility.yul\":2864:2865   */\n      0x00\n        /* \"#utility.yul\":2853:2862   */\n      dup4\n        /* \"#utility.yul\":2849:2866   */\n      add\n        /* \"#utility.yul\":2840:2846   */\n      dup5\n        /* \"#utility.yul\":2802:2867   */\n      tag_159\n      jump\t// in\n    tag_237:\n        /* \"#utility.yul\":2664:2874   */\n      swap3\n      swap2\n      pop\n      pop\n      jump\t// out\n        /* \"#utility.yul\":2880:2997   */\n    tag_160:\n        /* \"#utility.yul\":2989:2990   */\n      0x00\n        /* \"#utility.yul\":2986:2987   */\n      dup1\n        /* \"#utility.yul\":2979:2991   */\n      revert\n        /* \"#utility.yul\":3003:3120   */\n    tag_161:\n        /* \"#utility.yul\":3112:3113   */\n      0x00\n        /* \"#utility.yul\":3109:3110   */\n      dup1\n        /* \"#utility.yul\":3102:3114   */\n      revert\n        /* \"#utility.yul\":3126:3243   */\n    tag_162:\n        /* \"#utility.yul\":3235:3236   */\n      0x00\n        /* \"#utility.yul\":3232:3233   */\n      dup1\n        /* \"#utility.yul\":3225:3237   */\n      revert\n        /* \"#utility.yul\":3262:3814   */\n    tag_163:\n        /* \"#utility.yul\":3319:3327   */\n      0x00\n        /* \"#utility.yul\":3329:3335   */\n      dup1\n        /* \"#utility.yul\":3379:3382   */\n      dup4\n        /* \"#utility.yul\":3372:3376   */\n      0x1f\n        /* \"#utility.yul\":3364:3370   */\n      dup5\n        /* \"#utility.yul\":3360:3377   */\n      add\n        /* \"#utility.yul\":3356:3383   */\n      slt\n        /* \"#utility.yul\":3346:3468   */\n      tag_242\n      jumpi\n        /* \"#utility.yul\":3387:3466   */\n      tag_243\n      tag_160\n      jump\t// in\n    tag_243:\n        /* \"#utility.yul\":3346:3468   */\n    tag_242:\n        /* \"#utility.yul\":3500:3506   */\n      dup3\n        /* \"#utility.yul\":3487:3507   */\n      calldataload\n        /* \"#utility.yul\":3477:3507   */\n      swap1\n      pop\n        /* \"#utility.yul\":3530:3548   */\n      0xffffffffffffffff\n        /* \"#utility.yul\":3522:3528   */\n      dup2\n        /* \"#utility.yul\":3519:3549   */\n      gt\n        /* \"#utility.yul\":3516:3633   */\n      iszero\n      tag_244\n      jumpi\n        /* \"#utility.yul\":3552:3631   */\n      tag_245\n      tag_161\n      jump\t// in\n    tag_245:\n        /* \"#utility.yul\":3516:3633   */\n    tag_244:\n        /* \"#utility.yul\":3666:3670   */\n      0x20\n        /* \"#utility.yul\":3658:3664   */\n      dup4\n        /* \"#utility.yul\":3654:3671   */\n      add\n        /* \"#utility.yul\":3642:3671   */\n      swap2\n      pop\n        /* \"#utility.yul\":3720:3723   */\n      dup4\n        /* \"#utility.yul\":3712:3716   */\n      0x01\n        /* \"#utility.yul\":3704:3710   */\n      dup3\n        /* \"#utility.yul\":3700:3717   */\n      mul\n        /* \"#utility.yul\":3690:3698   */\n      dup4\n        /* \"#utility.yul\":3686:3718   */\n      add\n        /* \"#utility.yul\":3683:3724   */\n      gt\n        /* \"#utility.yul\":3680:3808   */\n      iszero\n      tag_246\n      jumpi\n        /* \"#utility.yul\":3727:3806   */\n      tag_247\n      tag_162\n      jump\t// in\n    tag_247:\n        /* \"#utility.yul\":3680:3808   */\n    tag_246:\n        /* \"#utility.yul\":3262:3814   */\n      swap3\n      pop\n      swap3\n      swap1\n      pop\n      jump\t// out\n        /* \"#utility.yul\":3820:4637   */\n    tag_31:\n        /* \"#utility.yul\":3908:3914   */\n      0x00\n        /* \"#utility.yul\":3916:3922   */\n      dup1\n        /* \"#utility.yul\":3924:3930   */\n      0x00\n        /* \"#utility.yul\":3932:3938   */\n      dup1\n        /* \"#utility.yul\":3981:3983   */\n      0x60\n        /* \"#utility.yul\":3969:3978   */\n      dup6\n        /* \"#utility.yul\":3960:3967   */\n      dup8\n        /* \"#utility.yul\":3956:3979   */\n      sub\n        /* \"#utility.yul\":3952:3984   */\n      slt\n        /* \"#utility.yul\":3949:4068   */\n      iszero\n      tag_249\n      jumpi\n        /* \"#utility.yul\":3987:4066   */\n      tag_250\n      tag_152\n      jump\t// in\n    tag_250:\n        /* \"#utility.yul\":3949:4068   */\n    tag_249:\n        /* \"#utility.yul\":4107:4108   */\n      0x00\n        /* \"#utility.yul\":4132:4185   */\n      tag_251\n        /* \"#utility.yul\":4177:4184   */\n      dup8\n        /* \"#utility.yul\":4168:4174   */\n      dup3\n        /* \"#utility.yul\":4157:4166   */\n      dup9\n        /* \"#utility.yul\":4153:4175   */\n      add\n        /* \"#utility.yul\":4132:4185   */\n      tag_157\n      jump\t// in\n    tag_251:\n        /* \"#utility.yul\":4122:4185   */\n      swap5\n      pop\n        /* \"#utility.yul\":4078:4195   */\n      pop\n        /* \"#utility.yul\":4234:4236   */\n      0x20\n        /* \"#utility.yul\":4260:4313   */\n      tag_252\n        /* \"#utility.yul\":4305:4312   */\n      dup8\n        /* \"#utility.yul\":4296:4302   */\n      dup3\n        /* \"#utility.yul\":4285:4294   */\n      dup9\n        /* \"#utility.yul\":4281:4303   */\n      add\n        /* \"#utility.yul\":4260:4313   */\n      tag_155\n      jump\t// in\n    tag_252:\n        /* \"#utility.yul\":4250:4313   */\n      swap4\n      pop\n        /* \"#utility.yul\":4205:4323   */\n      pop\n        /* \"#utility.yul\":4390:4392   */\n      0x40\n        /* \"#utility.yul\":4379:4388   */\n      dup6\n        /* \"#utility.yul\":4375:4393   */\n      add\n        /* \"#utility.yul\":4362:4394   */\n      calldataload\n        /* \"#utility.yul\":4421:4439   */\n      0xffffffffffffffff\n        /* \"#utility.yul\":4413:4419   */\n      dup2\n        /* \"#utility.yul\":4410:4440   */\n      gt\n        /* \"#utility.yul\":4407:4524   */\n      iszero\n      tag_253\n      jumpi\n        /* \"#utility.yul\":4443:4522   */\n      tag_254\n      tag_153\n      jump\t// in\n    tag_254:\n        /* \"#utility.yul\":4407:4524   */\n    tag_253:\n        /* \"#utility.yul\":4556:4620   */\n      tag_255\n        /* \"#utility.yul\":4612:4619   */\n      dup8\n        /* \"#utility.yul\":4603:4609   */\n      dup3\n        /* \"#utility.yul\":4592:4601   */\n      dup9\n        /* \"#utility.yul\":4588:4610   */\n      add\n        /* \"#utility.yul\":4556:4620   */\n      tag_163\n      jump\t// in\n    tag_255:\n        /* \"#utility.yul\":4538:4620   */\n      swap3\n      pop\n      swap3\n      pop\n        /* \"#utility.yul\":4333:4630   */\n      pop\n        /* \"#utility.yul\":3820:4637   */\n      swap3\n      swap6\n      swap2\n      swap5\n      pop\n      swap3\n      pop\n      jump\t// out\n        /* \"#utility.yul\":4643:4812   */\n    tag_164:\n        /* \"#utility.yul\":4727:4738   */\n      0x00\n        /* \"#utility.yul\":4761:4767   */\n      dup3\n        /* \"#utility.yul\":4756:4759   */\n      dup3\n        /* \"#utility.yul\":4749:4768   */\n      mstore\n        /* \"#utility.yul\":4801:4805   */\n      0x20\n        /* \"#utility.yul\":4796:4799   */\n      dup3\n        /* \"#utility.yul\":4792:4806   */\n      add\n        /* \"#utility.yul\":4777:4806   */\n      swap1\n      pop\n        /* \"#utility.yul\":4643:4812   */\n      swap3\n      swap2\n      pop\n      pop\n      jump\t// out\n        /* \"#utility.yul\":4818:4999   */\n    tag_165:\n        /* \"#utility.yul\":4958:4991   */\n      0x5472616e73616374696f6e20416c726561647920417070726f7665642e2e2e00\n        /* \"#utility.yul\":4954:4955   */\n      0x00\n        /* \"#utility.yul\":4946:4952   */\n      dup3\n        /* \"#utility.yul\":4942:4956   */\n      add\n        /* \"#utility.yul\":4935:4992   */\n      mstore\n        /* \"#utility.yul\":4818:4999   */\n      pop\n      jump\t// out\n        /* \"#utility.yul\":5005:5371   */\n    tag_166:\n        /* \"#utility.yul\":5147:5150   */\n      0x00\n        /* \"#utility.yul\":5168:5235   */\n      tag_259\n        /* \"#utility.yul\":5232:5234   */\n      0x1f\n        /* \"#utility.yul\":5227:5230   */\n      dup4\n        /* \"#utility.yul\":5168:5235   */\n      tag_164\n      jump\t// in\n    tag_259:\n        /* \"#utility.yul\":5161:5235   */\n      swap2\n      pop\n        /* \"#utility.yul\":5244:5337   */\n      tag_260\n        /* \"#utility.yul\":5333:5336   */\n      dup3\n        /* \"#utility.yul\":5244:5337   */\n      tag_165\n      jump\t// in\n    tag_260:\n        /* \"#utility.yul\":5362:5364   */\n      0x20\n        /* \"#utility.yul\":5357:5360   */\n      dup3\n        /* \"#utility.yul\":5353:5365   */\n      add\n        /* \"#utility.yul\":5346:5365   */\n      swap1\n      pop\n        /* \"#utility.yul\":5005:5371   */\n      swap2\n      swap1\n      pop\n      jump\t// out\n        /* \"#utility.yul\":5377:5796   */\n    tag_40:\n        /* \"#utility.yul\":5543:5547   */\n      0x00\n        /* \"#utility.yul\":5581:5583   */\n      0x20\n        /* \"#utility.yul\":5570:5579   */\n      dup3\n        /* \"#utility.yul\":5566:5584   */\n      add\n        /* \"#utility.yul\":5558:5584   */\n      swap1\n      pop\n        /* \"#utility.yul\":5630:5639   */\n      dup2\n        /* \"#utility.yul\":5624:5628   */\n      dup2\n        /* \"#utility.yul\":5620:5640   */\n      sub\n        /* \"#utility.yul\":5616:5617   */\n      0x00\n        /* \"#utility.yul\":5605:5614   */\n      dup4\n        /* \"#utility.yul\":5601:5618   */\n      add\n        /* \"#utility.yul\":5594:5641   */\n      mstore\n        /* \"#utility.yul\":5658:5789   */\n      tag_262\n        /* \"#utility.yul\":5784:5788   */\n      dup2\n        /* \"#utility.yul\":5658:5789   */\n      tag_166\n      jump\t// in\n    tag_262:\n        /* \"#utility.yul\":5650:5789   */\n      swap1\n      pop\n        /* \"#utility.yul\":5377:5796   */\n      swap2\n      swap1\n      pop\n      jump\t// out\n        /* \"#utility.yul\":5802:5982   */\n    tag_167:\n        /* \"#utility.yul\":5850:5927   */\n      0x4e487b7100000000000000000000000000000000000000000000000000000000\n        /* \"#utility.yul\":5847:5848   */\n      0x00\n        /* \"#utility.yul\":5840:5928   */\n      mstore\n        /* \"#utility.yul\":5947:5951   */\n      0x11\n        /* \"#utility.yul\":5944:5945   */\n      0x04\n        /* \"#utility.yul\":5937:5952   */\n      mstore\n        /* \"#utility.yul\":5971:5975   */\n      0x24\n        /* \"#utility.yul\":5968:5969   */\n      0x00\n        /* \"#utility.yul\":5961:5976   */\n      revert\n        /* \"#utility.yul\":5988:6182   */\n    tag_43:\n        /* \"#utility.yul\":6028:6032   */\n      0x00\n        /* \"#utility.yul\":6048:6068   */\n      tag_265\n        /* \"#utility.yul\":6066:6067   */\n      dup3\n        /* \"#utility.yul\":6048:6068   */\n      tag_149\n      jump\t// in\n    tag_265:\n        /* \"#utility.yul\":6043:6068   */\n      swap2\n      pop\n        /* \"#utility.yul\":6082:6102   */\n      tag_266\n        /* \"#utility.yul\":6100:6101   */\n      dup4\n        /* \"#utility.yul\":6082:6102   */\n      tag_149\n      jump\t// in\n    tag_266:\n        /* \"#utility.yul\":6077:6102   */\n      swap3\n      pop\n        /* \"#utility.yul\":6126:6127   */\n      dup3\n        /* \"#utility.yul\":6123:6124   */\n      dup3\n        /* \"#utility.yul\":6119:6128   */\n      sub\n        /* \"#utility.yul\":6111:6128   */\n      swap1\n      pop\n        /* \"#utility.yul\":6150:6151   */\n      dup2\n        /* \"#utility.yul\":6144:6148   */\n      dup2\n        /* \"#utility.yul\":6141:6152   */\n      gt\n        /* \"#utility.yul\":6138:6175   */\n      iszero\n      tag_267\n      jumpi\n        /* \"#utility.yul\":6155:6173   */\n      tag_268\n      tag_167\n      jump\t// in\n    tag_268:\n        /* \"#utility.yul\":6138:6175   */\n    tag_267:\n        /* \"#utility.yul\":5988:6182   */\n      swap3\n      swap2\n      pop\n      pop\n      jump\t// out\n        /* \"#utility.yul\":6188:6367   */\n    tag_168:\n        /* \"#utility.yul\":6328:6359   */\n      0x5472616e73616374696f6e20446f6573206e6f742045786973742e2e2e000000\n        /* \"#utility.yul\":6324:6325   */\n      0x00\n        /* \"#utility.yul\":6316:6322   */\n      dup3\n        /* \"#utility.yul\":6312:6326   */\n      add\n        /* \"#utility.yul\":6305:6360   */\n      mstore\n        /* \"#utility.yul\":6188:6367   */\n      pop\n      jump\t// out\n        /* \"#utility.yul\":6373:6739   */\n    tag_169:\n        /* \"#utility.yul\":6515:6518   */\n      0x00\n        /* \"#utility.yul\":6536:6603   */\n      tag_271\n        /* \"#utility.yul\":6600:6602   */\n      0x1d\n        /* \"#utility.yul\":6595:6598   */\n      dup4\n        /* \"#utility.yul\":6536:6603   */\n      tag_164\n      jump\t// in\n    tag_271:\n        /* \"#utility.yul\":6529:6603   */\n      swap2\n      pop\n        /* \"#utility.yul\":6612:6705   */\n      tag_272\n        /* \"#utility.yul\":6701:6704   */\n      dup3\n        /* \"#utility.yul\":6612:6705   */\n      tag_168\n      jump\t// in\n    tag_272:\n        /* \"#utility.yul\":6730:6732   */\n      0x20\n        /* \"#utility.yul\":6725:6728   */\n      dup3\n        /* \"#utility.yul\":6721:6733   */\n      add\n        /* \"#utility.yul\":6714:6733   */\n      swap1\n      pop\n        /* \"#utility.yul\":6373:6739   */\n      swap2\n      swap1\n      pop\n      jump\t// out\n        /* \"#utility.yul\":6745:7164   */\n    tag_46:\n        /* \"#utility.yul\":6911:6915   */\n      0x00\n        /* \"#utility.yul\":6949:6951   */\n      0x20\n        /* \"#utility.yul\":6938:6947   */\n      dup3\n        /* \"#utility.yul\":6934:6952   */\n      add\n        /* \"#utility.yul\":6926:6952   */\n      swap1\n      pop\n        /* \"#utility.yul\":6998:7007   */\n      dup2\n        /* \"#utility.yul\":6992:6996   */\n      dup2\n        /* \"#utility.yul\":6988:7008   */\n      sub\n        /* \"#utility.yul\":6984:6985   */\n      0x00\n        /* \"#utility.yul\":6973:6982   */\n      dup4\n        /* \"#utility.yul\":6969:6986   */\n      add\n        /* \"#utility.yul\":6962:7009   */\n      mstore\n        /* \"#utility.yul\":7026:7157   */\n      tag_274\n        /* \"#utility.yul\":7152:7156   */\n      dup2\n        /* \"#utility.yul\":7026:7157   */\n      tag_169\n      jump\t// in\n    tag_274:\n        /* \"#utility.yul\":7018:7157   */\n      swap1\n      pop\n        /* \"#utility.yul\":6745:7164   */\n      swap2\n      swap1\n      pop\n      jump\t// out\n        /* \"#utility.yul\":7170:7337   */\n    tag_170:\n        /* \"#utility.yul\":7310:7329   */\n      0x4e6f7420746865204f776e65722e2e2e2e000000000000000000000000000000\n        /* \"#utility.yul\":7306:7307   */\n      0x00\n        /* \"#utility.yul\":7298:7304   */\n      dup3\n        /* \"#utility.yul\":7294:7308   */\n      add\n        /* \"#utility.yul\":7287:7330   */\n      mstore\n        /* \"#utility.yul\":7170:7337   */\n      pop\n      jump\t// out\n        /* \"#utility.yul\":7343:7709   */\n    tag_171:\n        /* \"#utility.yul\":7485:7488   */\n      0x00\n        /* \"#utility.yul\":7506:7573   */\n      tag_277\n        /* \"#utility.yul\":7570:7572   */\n      0x11\n        /* \"#utility.yul\":7565:7568   */\n      dup4\n        /* \"#utility.yul\":7506:7573   */\n      tag_164\n      jump\t// in\n    tag_277:\n        /* \"#utility.yul\":7499:7573   */\n      swap2\n      pop\n        /* \"#utility.yul\":7582:7675   */\n      tag_278\n        /* \"#utility.yul\":7671:7674   */\n      dup3\n        /* \"#utility.yul\":7582:7675   */\n      tag_170\n      jump\t// in\n    tag_278:\n        /* \"#utility.yul\":7700:7702   */\n      0x20\n        /* \"#utility.yul\":7695:7698   */\n      dup3\n        /* \"#utility.yul\":7691:7703   */\n      add\n        /* \"#utility.yul\":7684:7703   */\n      swap1\n      pop\n        /* \"#utility.yul\":7343:7709   */\n      swap2\n      swap1\n      pop\n      jump\t// out\n        /* \"#utility.yul\":7715:8134   */\n    tag_50:\n        /* \"#utility.yul\":7881:7885   */\n      0x00\n        /* \"#utility.yul\":7919:7921   */\n      0x20\n        /* \"#utility.yul\":7908:7917   */\n      dup3\n        /* \"#utility.yul\":7904:7922   */\n      add\n        /* \"#utility.yul\":7896:7922   */\n      swap1\n      pop\n        /* \"#utility.yul\":7968:7977   */\n      dup2\n        /* \"#utility.yul\":7962:7966   */\n      dup2\n        /* \"#utility.yul\":7958:7978   */\n      sub\n        /* \"#utility.yul\":7954:7955   */\n      0x00\n        /* \"#utility.yul\":7943:7952   */\n      dup4\n        /* \"#utility.yul\":7939:7956   */\n      add\n        /* \"#utility.yul\":7932:7979   */\n      mstore\n        /* \"#utility.yul\":7996:8127   */\n      tag_280\n        /* \"#utility.yul\":8122:8126   */\n      dup2\n        /* \"#utility.yul\":7996:8127   */\n      tag_171\n      jump\t// in\n    tag_280:\n        /* \"#utility.yul\":7988:8127   */\n      swap1\n      pop\n        /* \"#utility.yul\":7715:8134   */\n      swap2\n      swap1\n      pop\n      jump\t// out\n        /* \"#utility.yul\":8140:8320   */\n    tag_54:\n        /* \"#utility.yul\":8188:8265   */\n      0x4e487b7100000000000000000000000000000000000000000000000000000000\n        /* \"#utility.yul\":8185:8186   */\n      0x00\n        /* \"#utility.yul\":8178:8266   */\n      mstore\n        /* \"#utility.yul\":8285:8289   */\n      0x32\n        /* \"#utility.yul\":8282:8283   */\n      0x04\n        /* \"#utility.yul\":8275:8290   */\n      mstore\n        /* \"#utility.yul\":8309:8313   */\n      0x24\n        /* \"#utility.yul\":8306:8307   */\n      0x00\n        /* \"#utility.yul\":8299:8314   */\n      revert\n        /* \"#utility.yul\":8326:8506   */\n    tag_172:\n        /* \"#utility.yul\":8374:8451   */\n      0x4e487b7100000000000000000000000000000000000000000000000000000000\n        /* \"#utility.yul\":8371:8372   */\n      0x00\n        /* \"#utility.yul\":8364:8452   */\n      mstore\n        /* \"#utility.yul\":8471:8475   */\n      0x22\n        /* \"#utility.yul\":8468:8469   */\n      0x04\n        /* \"#utility.yul\":8461:8476   */\n      mstore\n        /* \"#utility.yul\":8495:8499   */\n      0x24\n        /* \"#utility.yul\":8492:8493   */\n      0x00\n        /* \"#utility.yul\":8485:8500   */\n      revert\n        /* \"#utility.yul\":8512:8832   */\n    tag_57:\n        /* \"#utility.yul\":8556:8562   */\n      0x00\n        /* \"#utility.yul\":8593:8594   */\n      0x02\n        /* \"#utility.yul\":8587:8591   */\n      dup3\n        /* \"#utility.yul\":8583:8595   */\n      div\n        /* \"#utility.yul\":8573:8595   */\n      swap1\n      pop\n        /* \"#utility.yul\":8640:8641   */\n      0x01\n        /* \"#utility.yul\":8634:8638   */\n      dup3\n        /* \"#utility.yul\":8630:8642   */\n      and\n        /* \"#utility.yul\":8661:8679   */\n      dup1\n        /* \"#utility.yul\":8651:8732   */\n      tag_284\n      jumpi\n        /* \"#utility.yul\":8717:8721   */\n      0x7f\n        /* \"#utility.yul\":8709:8715   */\n      dup3\n        /* \"#utility.yul\":8705:8722   */\n      and\n        /* \"#utility.yul\":8695:8722   */\n      swap2\n      pop\n        /* \"#utility.yul\":8651:8732   */\n    tag_284:\n        /* \"#utility.yul\":8779:8781   */\n      0x20\n        /* \"#utility.yul\":8771:8777   */\n      dup3\n        /* \"#utility.yul\":8768:8782   */\n      lt\n        /* \"#utility.yul\":8748:8766   */\n      dup2\n        /* \"#utility.yul\":8745:8783   */\n      sub\n        /* \"#utility.yul\":8742:8826   */\n      tag_285\n      jumpi\n        /* \"#utility.yul\":8798:8816   */\n      tag_286\n      tag_172\n      jump\t// in\n    tag_286:\n        /* \"#utility.yul\":8742:8826   */\n    tag_285:\n        /* \"#utility.yul\":8563:8832   */\n      pop\n        /* \"#utility.yul\":8512:8832   */\n      swap2\n      swap1\n      pop\n      jump\t// out\n        /* \"#utility.yul\":8838:9016   */\n    tag_173:\n        /* \"#utility.yul\":8978:9008   */\n      0x5472616e73616374696f6e20416c726561647920457865637574656400000000\n        /* \"#utility.yul\":8974:8975   */\n      0x00\n        /* \"#utility.yul\":8966:8972   */\n      dup3\n        /* \"#utility.yul\":8962:8976   */\n      add\n        /* \"#utility.yul\":8955:9009   */\n      mstore\n        /* \"#utility.yul\":8838:9016   */\n      pop\n      jump\t// out\n        /* \"#utility.yul\":9022:9388   */\n    tag_174:\n        /* \"#utility.yul\":9164:9167   */\n      0x00\n        /* \"#utility.yul\":9185:9252   */\n      tag_289\n        /* \"#utility.yul\":9249:9251   */\n      0x1c\n        /* \"#utility.yul\":9244:9247   */\n      dup4\n        /* \"#utility.yul\":9185:9252   */\n      tag_164\n      jump\t// in\n    tag_289:\n        /* \"#utility.yul\":9178:9252   */\n      swap2\n      pop\n        /* \"#utility.yul\":9261:9354   */\n      tag_290\n        /* \"#utility.yul\":9350:9353   */\n      dup3\n        /* \"#utility.yul\":9261:9354   */\n      tag_173\n      jump\t// in\n    tag_290:\n        /* \"#utility.yul\":9379:9381   */\n      0x20\n        /* \"#utility.yul\":9374:9377   */\n      dup3\n        /* \"#utility.yul\":9370:9382   */\n      add\n        /* \"#utility.yul\":9363:9382   */\n      swap1\n      pop\n        /* \"#utility.yul\":9022:9388   */\n      swap2\n      swap1\n      pop\n      jump\t// out\n        /* \"#utility.yul\":9394:9813   */\n    tag_64:\n        /* \"#utility.yul\":9560:9564   */\n      0x00\n        /* \"#utility.yul\":9598:9600   */\n      0x20\n        /* \"#utility.yul\":9587:9596   */\n      dup3\n        /* \"#utility.yul\":9583:9601   */\n      add\n        /* \"#utility.yul\":9575:9601   */\n      swap1\n      pop\n        /* \"#utility.yul\":9647:9656   */\n      dup2\n        /* \"#utility.yul\":9641:9645   */\n      dup2\n        /* \"#utility.yul\":9637:9657   */\n      sub\n        /* \"#utility.yul\":9633:9634   */\n      0x00\n        /* \"#utility.yul\":9622:9631   */\n      dup4\n        /* \"#utility.yul\":9618:9635   */\n      add\n        /* \"#utility.yul\":9611:9658   */\n      mstore\n        /* \"#utility.yul\":9675:9806   */\n      tag_292\n        /* \"#utility.yul\":9801:9805   */\n      dup2\n        /* \"#utility.yul\":9675:9806   */\n      tag_174\n      jump\t// in\n    tag_292:\n        /* \"#utility.yul\":9667:9806   */\n      swap1\n      pop\n        /* \"#utility.yul\":9394:9813   */\n      swap2\n      swap1\n      pop\n      jump\t// out\n        /* \"#utility.yul\":9819:10151   */\n    tag_67:\n        /* \"#utility.yul\":9940:9944   */\n      0x00\n        /* \"#utility.yul\":9978:9980   */\n      0x40\n        /* \"#utility.yul\":9967:9976   */\n      dup3\n        /* \"#utility.yul\":9963:9981   */\n      add\n        /* \"#utility.yul\":9955:9981   */\n      swap1\n      pop\n        /* \"#utility.yul\":9991:10062   */\n      tag_294\n        /* \"#utility.yul\":10059:10060   */\n      0x00\n        /* \"#utility.yul\":10048:10057   */\n      dup4\n        /* \"#utility.yul\":10044:10061   */\n      add\n        /* \"#utility.yul\":10035:10041   */\n      dup6\n        /* \"#utility.yul\":9991:10062   */\n      tag_150\n      jump\t// in\n    tag_294:\n        /* \"#utility.yul\":10072:10144   */\n      tag_295\n        /* \"#utility.yul\":10140:10142   */\n      0x20\n        /* \"#utility.yul\":10129:10138   */\n      dup4\n        /* \"#utility.yul\":10125:10143   */\n      add\n        /* \"#utility.yul\":10116:10122   */\n      dup5\n        /* \"#utility.yul\":10072:10144   */\n      tag_148\n      jump\t// in\n    tag_295:\n        /* \"#utility.yul\":9819:10151   */\n      swap4\n      swap3\n      pop\n      pop\n      pop\n      jump\t// out\n        /* \"#utility.yul\":10157:10334   */\n    tag_175:\n        /* \"#utility.yul\":10297:10326   */\n      0x5472616e73616374696f6e204e6f7420417070726f7665642e2e2e0000000000\n        /* \"#utility.yul\":10293:10294   */\n      0x00\n        /* \"#utility.yul\":10285:10291   */\n      dup3\n        /* \"#utility.yul\":10281:10295   */\n      add\n        /* \"#utility.yul\":10274:10327   */\n      mstore\n        /* \"#utility.yul\":10157:10334   */\n      pop\n      jump\t// out\n        /* \"#utility.yul\":10340:10706   */\n    tag_176:\n        /* \"#utility.yul\":10482:10485   */\n      0x00\n        /* \"#utility.yul\":10503:10570   */\n      tag_298\n        /* \"#utility.yul\":10567:10569   */\n      0x1b\n        /* \"#utility.yul\":10562:10565   */\n      dup4\n        /* \"#utility.yul\":10503:10570   */\n      tag_164\n      jump\t// in\n    tag_298:\n        /* \"#utility.yul\":10496:10570   */\n      swap2\n      pop\n        /* \"#utility.yul\":10579:10672   */\n      tag_299\n        /* \"#utility.yul\":10668:10671   */\n      dup3\n        /* \"#utility.yul\":10579:10672   */\n      tag_175\n      jump\t// in\n    tag_299:\n        /* \"#utility.yul\":10697:10699   */\n      0x20\n        /* \"#utility.yul\":10692:10695   */\n      dup3\n        /* \"#utility.yul\":10688:10700   */\n      add\n        /* \"#utility.yul\":10681:10700   */\n      swap1\n      pop\n        /* \"#utility.yul\":10340:10706   */\n      swap2\n      swap1\n      pop\n      jump\t// out\n        /* \"#utility.yul\":10712:11131   */\n    tag_71:\n        /* \"#utility.yul\":10878:10882   */\n      0x00\n        /* \"#utility.yul\":10916:10918   */\n      0x20\n        /* \"#utility.yul\":10905:10914   */\n      dup3\n        /* \"#utility.yul\":10901:10919   */\n      add\n        /* \"#utility.yul\":10893:10919   */\n      swap1\n      pop\n        /* \"#utility.yul\":10965:10974   */\n      dup2\n        /* \"#utility.yul\":10959:10963   */\n      dup2\n        /* \"#utility.yul\":10955:10975   */\n      sub\n        /* \"#utility.yul\":10951:10952   */\n      0x00\n        /* \"#utility.yul\":10940:10949   */\n      dup4\n        /* \"#utility.yul\":10936:10953   */\n      add\n        /* \"#utility.yul\":10929:10976   */\n      mstore\n        /* \"#utility.yul\":10993:11124   */\n      tag_301\n        /* \"#utility.yul\":11119:11123   */\n      dup2\n        /* \"#utility.yul\":10993:11124   */\n      tag_176\n      jump\t// in\n    tag_301:\n        /* \"#utility.yul\":10985:11124   */\n      swap1\n      pop\n        /* \"#utility.yul\":10712:11131   */\n      swap2\n      swap1\n      pop\n      jump\t// out\n        /* \"#utility.yul\":11137:11235   */\n    tag_177:\n        /* \"#utility.yul\":11188:11194   */\n      0x00\n        /* \"#utility.yul\":11222:11227   */\n      dup2\n        /* \"#utility.yul\":11216:11228   */\n      mload\n        /* \"#utility.yul\":11206:11228   */\n      swap1\n      pop\n        /* \"#utility.yul\":11137:11235   */\n      swap2\n      swap1\n      pop\n      jump\t// out\n        /* \"#utility.yul\":11241:11421   */\n    tag_178:\n        /* \"#utility.yul\":11289:11366   */\n      0x4e487b7100000000000000000000000000000000000000000000000000000000\n        /* \"#utility.yul\":11286:11287   */\n      0x00\n        /* \"#utility.yul\":11279:11367   */\n      mstore\n        /* \"#utility.yul\":11386:11390   */\n      0x41\n        /* \"#utility.yul\":11383:11384   */\n      0x04\n        /* \"#utility.yul\":11376:11391   */\n      mstore\n        /* \"#utility.yul\":11410:11414   */\n      0x24\n        /* \"#utility.yul\":11407:11408   */\n      0x00\n        /* \"#utility.yul\":11400:11415   */\n      revert\n        /* \"#utility.yul\":11427:11567   */\n    tag_179:\n        /* \"#utility.yul\":11475:11479   */\n      0x00\n        /* \"#utility.yul\":11498:11501   */\n      dup2\n        /* \"#utility.yul\":11490:11501   */\n      swap1\n      pop\n        /* \"#utility.yul\":11521:11524   */\n      dup2\n        /* \"#utility.yul\":11518:11519   */\n      0x00\n        /* \"#utility.yul\":11511:11525   */\n      mstore\n        /* \"#utility.yul\":11555:11559   */\n      0x20\n        /* \"#utility.yul\":11552:11553   */\n      0x00\n        /* \"#utility.yul\":11542:11560   */\n      keccak256\n        /* \"#utility.yul\":11534:11560   */\n      swap1\n      pop\n        /* \"#utility.yul\":11427:11567   */\n      swap2\n      swap1\n      pop\n      jump\t// out\n        /* \"#utility.yul\":11573:11666   */\n    tag_180:\n        /* \"#utility.yul\":11610:11616   */\n      0x00\n        /* \"#utility.yul\":11657:11659   */\n      0x20\n        /* \"#utility.yul\":11652:11654   */\n      0x1f\n        /* \"#utility.yul\":11645:11650   */\n      dup4\n        /* \"#utility.yul\":11641:11655   */\n      add\n        /* \"#utility.yul\":11637:11660   */\n      div\n        /* \"#utility.yul\":11627:11660   */\n      swap1\n      pop\n        /* \"#utility.yul\":11573:11666   */\n      swap2\n      swap1\n      pop\n      jump\t// out\n        /* \"#utility.yul\":11672:11779   */\n    tag_181:\n        /* \"#utility.yul\":11716:11724   */\n      0x00\n        /* \"#utility.yul\":11766:11771   */\n      dup3\n        /* \"#utility.yul\":11760:11764   */\n      dup3\n        /* \"#utility.yul\":11756:11772   */\n      shl\n        /* \"#utility.yul\":11735:11772   */\n      swap1\n      pop\n        /* \"#utility.yul\":11672:11779   */\n      swap3\n      swap2\n      pop\n      pop\n      jump\t// out\n        /* \"#utility.yul\":11785:12178   */\n    tag_182:\n        /* \"#utility.yul\":11854:11860   */\n      0x00\n        /* \"#utility.yul\":11904:11905   */\n      0x08\n        /* \"#utility.yul\":11892:11902   */\n      dup4\n        /* \"#utility.yul\":11888:11906   */\n      mul\n        /* \"#utility.yul\":11927:12024   */\n      tag_308\n        /* \"#utility.yul\":11957:12023   */\n      0xffffffffffffffffffffffffffffffffffffffffffffffffffffffffffffffff\n        /* \"#utility.yul\":11946:11955   */\n      dup3\n        /* \"#utility.yul\":11927:12024   */\n      tag_181\n      jump\t// in\n    tag_308:\n        /* \"#utility.yul\":12045:12084   */\n      tag_309\n        /* \"#utility.yul\":12075:12083   */\n      dup7\n        /* \"#utility.yul\":12064:12073   */\n      dup4\n        /* \"#utility.yul\":12045:12084   */\n      tag_181\n      jump\t// in\n    tag_309:\n        /* \"#utility.yul\":12033:12084   */\n      swap6\n      pop\n        /* \"#utility.yul\":12117:12121   */\n      dup1\n        /* \"#utility.yul\":12113:12122   */\n      not\n        /* \"#utility.yul\":12106:12111   */\n      dup5\n        /* \"#utility.yul\":12102:12123   */\n      and\n        /* \"#utility.yul\":12093:12123   */\n      swap4\n      pop\n        /* \"#utility.yul\":12166:12170   */\n      dup1\n        /* \"#utility.yul\":12156:12164   */\n      dup7\n        /* \"#utility.yul\":12152:12171   */\n      and\n        /* \"#utility.yul\":12145:12150   */\n      dup5\n        /* \"#utility.yul\":12142:12172   */\n      or\n        /* \"#utility.yul\":12132:12172   */\n      swap3\n      pop\n        /* \"#utility.yul\":11861:12178   */\n      pop\n      pop\n        /* \"#utility.yul\":11785:12178   */\n      swap4\n      swap3\n      pop\n      pop\n      pop\n      jump\t// out\n        /* \"#utility.yul\":12184:12244   */\n    tag_183:\n        /* \"#utility.yul\":12212:12215   */\n      0x00\n        /* \"#utility.yul\":12233:12238   */\n      dup2\n        /* \"#utility.yul\":12226:12238   */\n      swap1\n      pop\n        /* \"#utility.yul\":12184:12244   */\n      swap2\n      swap1\n      pop\n      jump\t// out\n        /* \"#utility.yul\":12250:12392   */\n    tag_184:\n        /* \"#utility.yul\":12300:12309   */\n      0x00\n        /* \"#utility.yul\":12333:12386   */\n      tag_312\n        /* \"#utility.yul\":12351:12385   */\n      tag_313\n        /* \"#utility.yul\":12360:12384   */\n      tag_314\n        /* \"#utility.yul\":12378:12383   */\n      dup5\n        /* \"#utility.yul\":12360:12384   */\n      tag_149\n      jump\t// in\n    tag_314:\n        /* \"#utility.yul\":12351:12385   */\n      tag_183\n      jump\t// in\n    tag_313:\n        /* \"#utility.yul\":12333:12386   */\n      tag_149\n      jump\t// in\n    tag_312:\n        /* \"#utility.yul\":12320:12386   */\n      swap1\n      pop\n        /* \"#utility.yul\":12250:12392   */\n      swap2\n      swap1\n      pop\n      jump\t// out\n        /* \"#utility.yul\":12398:12473   */\n    tag_185:\n        /* \"#utility.yul\":12441:12444   */\n      0x00\n        /* \"#utility.yul\":12462:12467   */\n      dup2\n        /* \"#utility.yul\":12455:12467   */\n      swap1\n      pop\n        /* \"#utility.yul\":12398:12473   */\n      swap2\n      swap1\n      pop\n      jump\t// out\n        /* \"#utility.yul\":12479:12748   */\n    tag_186:\n        /* \"#utility.yul\":12589:12628   */\n      tag_317\n        /* \"#utility.yul\":12620:12627   */\n      dup4\n        /* \"#utility.yul\":12589:12628   */\n      tag_184\n      jump\t// in\n    tag_317:\n        /* \"#utility.yul\":12650:12741   */\n      tag_318\n        /* \"#utility.yul\":12699:12740   */\n      tag_319\n        /* \"#utility.yul\":12723:12739   */\n      dup3\n        /* \"#utility.yul\":12699:12740   */\n      tag_185\n      jump\t// in\n    tag_319:\n        /* \"#utility.yul\":12691:12697   */\n      dup5\n        /* \"#utility.yul\":12684:12688   */\n      dup5\n        /* \"#utility.yul\":12678:12689   */\n      sload\n        /* \"#utility.yul\":12650:12741   */\n      tag_182\n      jump\t// in\n    tag_318:\n        /* \"#utility.yul\":12644:12648   */\n      dup3\n        /* \"#utility.yul\":12637:12742   */\n      sstore\n        /* \"#utility.yul\":12555:12748   */\n      pop\n        /* \"#utility.yul\":12479:12748   */\n      pop\n      pop\n      pop\n      jump\t// out\n        /* \"#utility.yul\":12754:12827   */\n    tag_187:\n        /* \"#utility.yul\":12799:12802   */\n      0x00\n        /* \"#utility.yul\":12754:12827   */\n      swap1\n      jump\t// out\n        /* \"#utility.yul\":12833:13022   */\n    tag_188:\n        /* \"#utility.yul\":12910:12942   */\n      tag_322\n      tag_187\n      jump\t// in\n    tag_322:\n        /* \"#utility.yul\":12951:13016   */\n      tag_323\n        /* \"#utility.yul\":13009:13015   */\n      dup2\n        /* \"#utility.yul\":13001:13007   */\n      dup5\n        /* \"#utility.yul\":12995:12999   */\n      dup5\n        /* \"#utility.yul\":12951:13016   */\n      tag_186\n      jump\t// in\n    tag_323:\n        /* \"#utility.yul\":12886:13022   */\n      pop\n        /* \"#utility.yul\":12833:13022   */\n      pop\n      pop\n      jump\t// out\n        /* \"#utility.yul\":13028:13214   */\n    tag_189:\n        /* \"#utility.yul\":13088:13208   */\n    tag_325:\n        /* \"#utility.yul\":13105:13108   */\n      dup2\n        /* \"#utility.yul\":13098:13103   */\n      dup2\n        /* \"#utility.yul\":13095:13109   */\n      lt\n        /* \"#utility.yul\":13088:13208   */\n      iszero\n      tag_327\n      jumpi\n        /* \"#utility.yul\":13159:13198   */\n      tag_328\n        /* \"#utility.yul\":13196:13197   */\n      0x00\n        /* \"#utility.yul\":13189:13194   */\n      dup3\n        /* \"#utility.yul\":13159:13198   */\n      tag_188\n      jump\t// in\n    tag_328:\n        /* \"#utility.yul\":13132:13133   */\n      0x01\n        /* \"#utility.yul\":13125:13130   */\n      dup2\n        /* \"#utility.yul\":13121:13134   */\n      add\n        /* \"#utility.yul\":13112:13134   */\n      swap1\n      pop\n        /* \"#utility.yul\":13088:13208   */\n      jump(tag_325)\n    tag_327:\n        /* \"#utility.yul\":13028:13214   */\n      pop\n      pop\n      jump\t// out\n        /* \"#utility.yul\":13220:13761   */\n    tag_190:\n        /* \"#utility.yul\":13320:13322   */\n      0x1f\n        /* \"#utility.yul\":13315:13318   */\n      dup3\n        /* \"#utility.yul\":13312:13323   */\n      gt\n        /* \"#utility.yul\":13309:13754   */\n      iszero\n      tag_330\n      jumpi\n        /* \"#utility.yul\":13354:13391   */\n      tag_331\n        /* \"#utility.yul\":13385:13390   */\n      dup2\n        /* \"#utility.yul\":13354:13391   */\n      tag_179\n      jump\t// in\n    tag_331:\n        /* \"#utility.yul\":13437:13466   */\n      tag_332\n        /* \"#utility.yul\":13455:13465   */\n      dup5\n        /* \"#utility.yul\":13437:13466   */\n      tag_180\n      jump\t// in\n    tag_332:\n        /* \"#utility.yul\":13427:13435   */\n      dup2\n        /* \"#utility.yul\":13423:13467   */\n      add\n        /* \"#utility.yul\":13620:13622   */\n      0x20\n        /* \"#utility.yul\":13608:13618   */\n      dup6\n        /* \"#utility.yul\":13605:13623   */\n      lt\n        /* \"#utility.yul\":13602:13651   */\n      iszero\n      tag_333\n      jumpi\n        /* \"#utility.yul\":13641:13649   */\n      dup2\n        /* \"#utility.yul\":13626:13649   */\n      swap1\n      pop\n        /* \"#utility.yul\":13602:13651   */\n    tag_333:\n        /* \"#utility.yul\":13664:13744   */\n      tag_334\n        /* \"#utility.yul\":13720:13742   */\n      tag_335\n        /* \"#utility.yul\":13738:13741   */\n      dup6\n        /* \"#utility.yul\":13720:13742   */\n      tag_180\n      jump\t// in\n    tag_335:\n        /* \"#utility.yul\":13710:13718   */\n      dup4\n        /* \"#utility.yul\":13706:13743   */\n      add\n        /* \"#utility.yul\":13693:13704   */\n      dup3\n        /* \"#utility.yul\":13664:13744   */\n      tag_189\n      jump\t// in\n    tag_334:\n        /* \"#utility.yul\":13324:13754   */\n      pop\n      pop\n        /* \"#utility.yul\":13309:13754   */\n    tag_330:\n        /* \"#utility.yul\":13220:13761   */\n      pop\n      pop\n      pop\n      jump\t// out\n        /* \"#utility.yul\":13767:13884   */\n    tag_191:\n        /* \"#utility.yul\":13821:13829   */\n      0x00\n        /* \"#utility.yul\":13871:13876   */\n      dup3\n        /* \"#utility.yul\":13865:13869   */\n      dup3\n        /* \"#utility.yul\":13861:13877   */\n      shr\n        /* \"#utility.yul\":13840:13877   */\n      swap1\n      pop\n        /* \"#utility.yul\":13767:13884   */\n      swap3\n      swap2\n      pop\n      pop\n      jump\t// out\n        /* \"#utility.yul\":13890:14059   */\n    tag_192:\n        /* \"#utility.yul\":13934:13940   */\n      0x00\n        /* \"#utility.yul\":13967:14018   */\n      tag_338\n        /* \"#utility.yul\":14015:14016   */\n      0x00\n        /* \"#utility.yul\":14011:14017   */\n      not\n        /* \"#utility.yul\":14003:14008   */\n      dup5\n        /* \"#utility.yul\":14000:14001   */\n      0x08\n        /* \"#utility.yul\":13996:14009   */\n      mul\n        /* \"#utility.yul\":13967:14018   */\n      tag_191\n      jump\t// in\n    tag_338:\n        /* \"#utility.yul\":13963:14019   */\n      not\n        /* \"#utility.yul\":14048:14052   */\n      dup1\n        /* \"#utility.yul\":14042:14046   */\n      dup4\n        /* \"#utility.yul\":14038:14053   */\n      and\n        /* \"#utility.yul\":14028:14053   */\n      swap2\n      pop\n        /* \"#utility.yul\":13941:14059   */\n      pop\n        /* \"#utility.yul\":13890:14059   */\n      swap3\n      swap2\n      pop\n      pop\n      jump\t// out\n        /* \"#utility.yul\":14064:14359   */\n    tag_193:\n        /* \"#utility.yul\":14140:14144   */\n      0x00\n        /* \"#utility.yul\":14286:14315   */\n      tag_340\n        /* \"#utility.yul\":14311:14314   */\n      dup4\n        /* \"#utility.yul\":14305:14309   */\n      dup4\n        /* \"#utility.yul\":14286:14315   */\n      tag_192\n      jump\t// in\n    tag_340:\n        /* \"#utility.yul\":14278:14315   */\n      swap2\n      pop\n        /* \"#utility.yul\":14348:14351   */\n      dup3\n        /* \"#utility.yul\":14345:14346   */\n      0x02\n        /* \"#utility.yul\":14341:14352   */\n      mul\n        /* \"#utility.yul\":14335:14339   */\n      dup3\n        /* \"#utility.yul\":14332:14353   */\n      or\n        /* \"#utility.yul\":14324:14353   */\n      swap1\n      pop\n        /* \"#utility.yul\":14064:14359   */\n      swap3\n      swap2\n      pop\n      pop\n      jump\t// out\n        /* \"#utility.yul\":14364:15754   */\n    tag_98:\n        /* \"#utility.yul\":14479:14515   */\n      tag_342\n        /* \"#utility.yul\":14511:14514   */\n      dup3\n        /* \"#utility.yul\":14479:14515   */\n      tag_177\n      jump\t// in\n    tag_342:\n        /* \"#utility.yul\":14580:14598   */\n      0xffffffffffffffff\n        /* \"#utility.yul\":14572:14578   */\n      dup2\n        /* \"#utility.yul\":14569:14599   */\n      gt\n        /* \"#utility.yul\":14566:14622   */\n      iszero\n      tag_343\n      jumpi\n        /* \"#utility.yul\":14602:14620   */\n      tag_344\n      tag_178\n      jump\t// in\n    tag_344:\n        /* \"#utility.yul\":14566:14622   */\n    tag_343:\n        /* \"#utility.yul\":14646:14684   */\n      tag_345\n        /* \"#utility.yul\":14678:14682   */\n      dup3\n        /* \"#utility.yul\":14672:14683   */\n      sload\n        /* \"#utility.yul\":14646:14684   */\n      tag_57\n      jump\t// in\n    tag_345:\n        /* \"#utility.yul\":14731:14797   */\n      tag_346\n        /* \"#utility.yul\":14790:14796   */\n      dup3\n        /* \"#utility.yul\":14782:14788   */\n      dup3\n        /* \"#utility.yul\":14776:14780   */\n      dup6\n        /* \"#utility.yul\":14731:14797   */\n      tag_190\n      jump\t// in\n    tag_346:\n        /* \"#utility.yul\":14824:14825   */\n      0x00\n        /* \"#utility.yul\":14848:14852   */\n      0x20\n        /* \"#utility.yul\":14835:14852   */\n      swap1\n      pop\n        /* \"#utility.yul\":14880:14882   */\n      0x1f\n        /* \"#utility.yul\":14872:14878   */\n      dup4\n        /* \"#utility.yul\":14869:14883   */\n      gt\n        /* \"#utility.yul\":14897:14898   */\n      0x01\n        /* \"#utility.yul\":14892:15509   */\n      dup2\n      eq\n      tag_348\n      jumpi\n        /* \"#utility.yul\":15553:15554   */\n      0x00\n        /* \"#utility.yul\":15570:15576   */\n      dup5\n        /* \"#utility.yul\":15567:15644   */\n      iszero\n      tag_349\n      jumpi\n        /* \"#utility.yul\":15619:15628   */\n      dup3\n        /* \"#utility.yul\":15614:15617   */\n      dup8\n        /* \"#utility.yul\":15610:15629   */\n      add\n        /* \"#utility.yul\":15604:15630   */\n      mload\n        /* \"#utility.yul\":15595:15630   */\n      swap1\n      pop\n        /* \"#utility.yul\":15567:15644   */\n    tag_349:\n        /* \"#utility.yul\":15670:15737   */\n      tag_350\n        /* \"#utility.yul\":15730:15736   */\n      dup6\n        /* \"#utility.yul\":15723:15728   */\n      dup3\n        /* \"#utility.yul\":15670:15737   */\n      tag_193\n      jump\t// in\n    tag_350:\n        /* \"#utility.yul\":15664:15668   */\n      dup7\n        /* \"#utility.yul\":15657:15738   */\n      sstore\n        /* \"#utility.yul\":15526:15748   */\n      pop\n        /* \"#utility.yul\":14862:15748   */\n      jump(tag_347)\n        /* \"#utility.yul\":14892:15509   */\n    tag_348:\n        /* \"#utility.yul\":14944:14948   */\n      0x1f\n        /* \"#utility.yul\":14940:14949   */\n      not\n        /* \"#utility.yul\":14932:14938   */\n      dup5\n        /* \"#utility.yul\":14928:14950   */\n      and\n        /* \"#utility.yul\":14978:15014   */\n      tag_351\n        /* \"#utility.yul\":15009:15013   */\n      dup7\n        /* \"#utility.yul\":14978:15014   */\n      tag_179\n      jump\t// in\n    tag_351:\n        /* \"#utility.yul\":15036:15037   */\n      0x00\n        /* \"#utility.yul\":15050:15258   */\n    tag_352:\n        /* \"#utility.yul\":15064:15071   */\n      dup3\n        /* \"#utility.yul\":15061:15062   */\n      dup2\n        /* \"#utility.yul\":15058:15072   */\n      lt\n        /* \"#utility.yul\":15050:15258   */\n      iszero\n      tag_354\n      jumpi\n        /* \"#utility.yul\":15143:15152   */\n      dup5\n        /* \"#utility.yul\":15138:15141   */\n      dup10\n        /* \"#utility.yul\":15134:15153   */\n      add\n        /* \"#utility.yul\":15128:15154   */\n      mload\n        /* \"#utility.yul\":15120:15126   */\n      dup3\n        /* \"#utility.yul\":15113:15155   */\n      sstore\n        /* \"#utility.yul\":15194:15195   */\n      0x01\n        /* \"#utility.yul\":15186:15192   */\n      dup3\n        /* \"#utility.yul\":15182:15196   */\n      add\n        /* \"#utility.yul\":15172:15196   */\n      swap2\n      pop\n        /* \"#utility.yul\":15241:15243   */\n      0x20\n        /* \"#utility.yul\":15230:15239   */\n      dup6\n        /* \"#utility.yul\":15226:15244   */\n      add\n        /* \"#utility.yul\":15213:15244   */\n      swap5\n      pop\n        /* \"#utility.yul\":15087:15091   */\n      0x20\n        /* \"#utility.yul\":15084:15085   */\n      dup2\n        /* \"#utility.yul\":15080:15092   */\n      add\n        /* \"#utility.yul\":15075:15092   */\n      swap1\n      pop\n        /* \"#utility.yul\":15050:15258   */\n      jump(tag_352)\n    tag_354:\n        /* \"#utility.yul\":15286:15292   */\n      dup7\n        /* \"#utility.yul\":15277:15284   */\n      dup4\n        /* \"#utility.yul\":15274:15293   */\n      lt\n        /* \"#utility.yul\":15271:15450   */\n      iszero\n      tag_355\n      jumpi\n        /* \"#utility.yul\":15344:15353   */\n      dup5\n        /* \"#utility.yul\":15339:15342   */\n      dup10\n        /* \"#utility.yul\":15335:15354   */\n      add\n        /* \"#utility.yul\":15329:15355   */\n      mload\n        /* \"#utility.yul\":15387:15435   */\n      tag_356\n        /* \"#utility.yul\":15429:15433   */\n      0x1f\n        /* \"#utility.yul\":15421:15427   */\n      dup10\n        /* \"#utility.yul\":15417:15434   */\n      and\n        /* \"#utility.yul\":15406:15415   */\n      dup3\n        /* \"#utility.yul\":15387:15435   */\n      tag_192\n      jump\t// in\n    tag_356:\n        /* \"#utility.yul\":15379:15385   */\n      dup4\n        /* \"#utility.yul\":15372:15436   */\n      sstore\n        /* \"#utility.yul\":15294:15450   */\n      pop\n        /* \"#utility.yul\":15271:15450   */\n    tag_355:\n        /* \"#utility.yul\":15496:15497   */\n      0x01\n        /* \"#utility.yul\":15492:15493   */\n      0x02\n        /* \"#utility.yul\":15484:15490   */\n      dup9\n        /* \"#utility.yul\":15480:15494   */\n      mul\n        /* \"#utility.yul\":15476:15498   */\n      add\n        /* \"#utility.yul\":15470:15474   */\n      dup9\n        /* \"#utility.yul\":15463:15499   */\n      sstore\n        /* \"#utility.yul\":14899:15509   */\n      pop\n      pop\n      pop\n        /* \"#utility.yul\":14862:15748   */\n    tag_347:\n      pop\n        /* \"#utility.yul\":14454:15754   */\n      pop\n      pop\n      pop\n        /* \"#utility.yul\":14364:15754   */\n      pop\n      pop\n      jump\t// out\n        /* \"#utility.yul\":15760:15933   */\n    tag_194:\n        /* \"#utility.yul\":15900:15925   */\n      0x4e6f7420456e6f75676820417070726f76616c732e2e2e000000000000000000\n        /* \"#utility.yul\":15896:15897   */\n      0x00\n        /* \"#utility.yul\":15888:15894   */\n      dup3\n        /* \"#utility.yul\":15884:15898   */\n      add\n        /* \"#utility.yul\":15877:15926   */\n      mstore\n        /* \"#utility.yul\":15760:15933   */\n      pop\n      jump\t// out\n        /* \"#utility.yul\":15939:16305   */\n    tag_195:\n        /* \"#utility.yul\":16081:16084   */\n      0x00\n        /* \"#utility.yul\":16102:16169   */\n      tag_359\n        /* \"#utility.yul\":16166:16168   */\n      0x17\n        /* \"#utility.yul\":16161:16164   */\n      dup4\n        /* \"#utility.yul\":16102:16169   */\n      tag_164\n      jump\t// in\n    tag_359:\n        /* \"#utility.yul\":16095:16169   */\n      swap2\n      pop\n        /* \"#utility.yul\":16178:16271   */\n      tag_360\n        /* \"#utility.yul\":16267:16270   */\n      dup3\n        /* \"#utility.yul\":16178:16271   */\n      tag_194\n      jump\t// in\n    tag_360:\n        /* \"#utility.yul\":16296:16298   */\n      0x20\n        /* \"#utility.yul\":16291:16294   */\n      dup3\n        /* \"#utility.yul\":16287:16299   */\n      add\n        /* \"#utility.yul\":16280:16299   */\n      swap1\n      pop\n        /* \"#utility.yul\":15939:16305   */\n      swap2\n      swap1\n      pop\n      jump\t// out\n        /* \"#utility.yul\":16311:16730   */\n    tag_122:\n        /* \"#utility.yul\":16477:16481   */\n      0x00\n        /* \"#utility.yul\":16515:16517   */\n      0x20\n        /* \"#utility.yul\":16504:16513   */\n      dup3\n        /* \"#utility.yul\":16500:16518   */\n      add\n        /* \"#utility.yul\":16492:16518   */\n      swap1\n      pop\n        /* \"#utility.yul\":16564:16573   */\n      dup2\n        /* \"#utility.yul\":16558:16562   */\n      dup2\n        /* \"#utility.yul\":16554:16574   */\n      sub\n        /* \"#utility.yul\":16550:16551   */\n      0x00\n        /* \"#utility.yul\":16539:16548   */\n      dup4\n        /* \"#utility.yul\":16535:16552   */\n      add\n        /* \"#utility.yul\":16528:16575   */\n      mstore\n        /* \"#utility.yul\":16592:16723   */\n      tag_362\n        /* \"#utility.yul\":16718:16722   */\n      dup2\n        /* \"#utility.yul\":16592:16723   */\n      tag_195\n      jump\t// in\n    tag_362:\n        /* \"#utility.yul\":16584:16723   */\n      swap1\n      pop\n        /* \"#utility.yul\":16311:16730   */\n      swap2\n      swap1\n      pop\n      jump\t// out\n        /* \"#utility.yul\":16736:16883   */\n    tag_196:\n        /* \"#utility.yul\":16837:16848   */\n      0x00\n        /* \"#utility.yul\":16874:16877   */\n      dup2\n        /* \"#utility.yul\":16859:16877   */\n      swap1\n      pop\n        /* \"#utility.yul\":16736:16883   */\n      swap3\n      swap2\n      pop\n      pop\n      jump\t// out\n        /* \"#utility.yul\":16911:17781   */\n    tag_197:\n        /* \"#utility.yul\":17012:17015   */\n      0x00\n        /* \"#utility.yul\":17049:17054   */\n      dup2\n        /* \"#utility.yul\":17043:17055   */\n      sload\n        /* \"#utility.yul\":17078:17114   */\n      tag_365\n        /* \"#utility.yul\":17104:17113   */\n      dup2\n        /* \"#utility.yul\":17078:17114   */\n      tag_57\n      jump\t// in\n    tag_365:\n        /* \"#utility.yul\":17130:17218   */\n      tag_366\n        /* \"#utility.yul\":17211:17217   */\n      dup2\n        /* \"#utility.yul\":17206:17209   */\n      dup7\n        /* \"#utility.yul\":17130:17218   */\n      tag_196\n      jump\t// in\n    tag_366:\n        /* \"#utility.yul\":17123:17218   */\n      swap5\n      pop\n        /* \"#utility.yul\":17249:17250   */\n      0x01\n        /* \"#utility.yul\":17238:17247   */\n      dup3\n        /* \"#utility.yul\":17234:17251   */\n      and\n        /* \"#utility.yul\":17265:17266   */\n      0x00\n        /* \"#utility.yul\":17260:17426   */\n      dup2\n      eq\n      tag_368\n      jumpi\n        /* \"#utility.yul\":17440:17441   */\n      0x01\n        /* \"#utility.yul\":17435:17775   */\n      dup2\n      eq\n      tag_369\n      jumpi\n        /* \"#utility.yul\":17227:17775   */\n      jump(tag_367)\n        /* \"#utility.yul\":17260:17426   */\n    tag_368:\n        /* \"#utility.yul\":17344:17348   */\n      0xff\n        /* \"#utility.yul\":17340:17349   */\n      not\n        /* \"#utility.yul\":17329:17338   */\n      dup4\n        /* \"#utility.yul\":17325:17350   */\n      and\n        /* \"#utility.yul\":17320:17323   */\n      dup7\n        /* \"#utility.yul\":17313:17351   */\n      mstore\n        /* \"#utility.yul\":17406:17412   */\n      dup2\n        /* \"#utility.yul\":17399:17413   */\n      iszero\n        /* \"#utility.yul\":17392:17414   */\n      iszero\n        /* \"#utility.yul\":17384:17390   */\n      dup3\n        /* \"#utility.yul\":17380:17415   */\n      mul\n        /* \"#utility.yul\":17375:17378   */\n      dup7\n        /* \"#utility.yul\":17371:17416   */\n      add\n        /* \"#utility.yul\":17364:17416   */\n      swap4\n      pop\n        /* \"#utility.yul\":17260:17426   */\n      jump(tag_367)\n        /* \"#utility.yul\":17435:17775   */\n    tag_369:\n        /* \"#utility.yul\":17502:17539   */\n      tag_370\n        /* \"#utility.yul\":17533:17538   */\n      dup6\n        /* \"#utility.yul\":17502:17539   */\n      tag_179\n      jump\t// in\n    tag_370:\n        /* \"#utility.yul\":17561:17562   */\n      0x00\n        /* \"#utility.yul\":17575:17729   */\n    tag_371:\n        /* \"#utility.yul\":17589:17595   */\n      dup4\n        /* \"#utility.yul\":17586:17587   */\n      dup2\n        /* \"#utility.yul\":17583:17596   */\n      lt\n        /* \"#utility.yul\":17575:17729   */\n      iszero\n      tag_373\n      jumpi\n        /* \"#utility.yul\":17663:17670   */\n      dup2\n        /* \"#utility.yul\":17657:17671   */\n      sload\n        /* \"#utility.yul\":17653:17654   */\n      dup2\n        /* \"#utility.yul\":17648:17651   */\n      dup10\n        /* \"#utility.yul\":17644:17655   */\n      add\n        /* \"#utility.yul\":17637:17672   */\n      mstore\n        /* \"#utility.yul\":17713:17714   */\n      0x01\n        /* \"#utility.yul\":17704:17711   */\n      dup3\n        /* \"#utility.yul\":17700:17715   */\n      add\n        /* \"#utility.yul\":17689:17715   */\n      swap2\n      pop\n        /* \"#utility.yul\":17611:17615   */\n      0x20\n        /* \"#utility.yul\":17608:17609   */\n      dup2\n        /* \"#utility.yul\":17604:17616   */\n      add\n        /* \"#utility.yul\":17599:17616   */\n      swap1\n      pop\n        /* \"#utility.yul\":17575:17729   */\n      jump(tag_371)\n    tag_373:\n        /* \"#utility.yul\":17758:17764   */\n      dup4\n        /* \"#utility.yul\":17753:17756   */\n      dup9\n        /* \"#utility.yul\":17749:17765   */\n      add\n        /* \"#utility.yul\":17742:17765   */\n      swap6\n      pop\n        /* \"#utility.yul\":17442:17775   */\n      pop\n      pop\n        /* \"#utility.yul\":17227:17775   */\n    tag_367:\n      pop\n        /* \"#utility.yul\":17016:17781   */\n      pop\n      pop\n        /* \"#utility.yul\":16911:17781   */\n      swap3\n      swap2\n      pop\n      pop\n      jump\t// out\n        /* \"#utility.yul\":17787:18052   */\n    tag_127:\n        /* \"#utility.yul\":17914:17917   */\n      0x00\n        /* \"#utility.yul\":17936:18026   */\n      tag_375\n        /* \"#utility.yul\":18022:18025   */\n      dup3\n        /* \"#utility.yul\":18013:18019   */\n      dup5\n        /* \"#utility.yul\":17936:18026   */\n      tag_197\n      jump\t// in\n    tag_375:\n        /* \"#utility.yul\":17929:18026   */\n      swap2\n      pop\n        /* \"#utility.yul\":18043:18046   */\n      dup2\n        /* \"#utility.yul\":18036:18046   */\n      swap1\n      pop\n        /* \"#utility.yul\":17787:18052   */\n      swap3\n      swap2\n      pop\n      pop\n      jump\t// out\n        /* \"#utility.yul\":18058:18230   */\n    tag_198:\n        /* \"#utility.yul\":18198:18222   */\n      0x5472616e73616374696f6e20496e636f6d706c65746500000000000000000000\n        /* \"#utility.yul\":18194:18195   */\n      0x00\n        /* \"#utility.yul\":18186:18192   */\n      dup3\n        /* \"#utility.yul\":18182:18196   */\n      add\n        /* \"#utility.yul\":18175:18223   */\n      mstore\n        /* \"#utility.yul\":18058:18230   */\n      pop\n      jump\t// out\n        /* \"#utility.yul\":18236:18602   */\n    tag_199:\n        /* \"#utility.yul\":18378:18381   */\n      0x00\n        /* \"#utility.yul\":18399:18466   */\n      tag_378\n        /* \"#utility.yul\":18463:18465   */\n      0x16\n        /* \"#utility.yul\":18458:18461   */\n      dup4\n        /* \"#utility.yul\":18399:18466   */\n      tag_164\n      jump\t// in\n    tag_378:\n        /* \"#utility.yul\":18392:18466   */\n      swap2\n      pop\n        /* \"#utility.yul\":18475:18568   */\n      tag_379\n        /* \"#utility.yul\":18564:18567   */\n      dup3\n        /* \"#utility.yul\":18475:18568   */\n      tag_198\n      jump\t// in\n    tag_379:\n        /* \"#utility.yul\":18593:18595   */\n      0x20\n        /* \"#utility.yul\":18588:18591   */\n      dup3\n        /* \"#utility.yul\":18584:18596   */\n      add\n        /* \"#utility.yul\":18577:18596   */\n      swap1\n      pop\n        /* \"#utility.yul\":18236:18602   */\n      swap2\n      swap1\n      pop\n      jump\t// out\n        /* \"#utility.yul\":18608:19027   */\n    tag_133:\n        /* \"#utility.yul\":18774:18778   */\n      0x00\n        /* \"#utility.yul\":18812:18814   */\n      0x20\n        /* \"#utility.yul\":18801:18810   */\n      dup3\n        /* \"#utility.yul\":18797:18815   */\n      add\n        /* \"#utility.yul\":18789:18815   */\n      swap1\n      pop\n        /* \"#utility.yul\":18861:18870   */\n      dup2\n        /* \"#utility.yul\":18855:18859   */\n      dup2\n        /* \"#utility.yul\":18851:18871   */\n      sub\n        /* \"#utility.yul\":18847:18848   */\n      0x00\n        /* \"#utility.yul\":18836:18845   */\n      dup4\n        /* \"#utility.yul\":18832:18849   */\n      add\n        /* \"#utility.yul\":18825:18872   */\n      mstore\n        /* \"#utility.yul\":18889:19020   */\n      tag_381\n        /* \"#utility.yul\":19015:19019   */\n      dup2\n        /* \"#utility.yul\":18889:19020   */\n      tag_199\n      jump\t// in\n    tag_381:\n        /* \"#utility.yul\":18881:19020   */\n      swap1\n      pop\n        /* \"#utility.yul\":18608:19027   */\n      swap2\n      swap1\n      pop\n      jump\t// out\n        /* \"#utility.yul\":19033:19224   */\n    tag_143:\n        /* \"#utility.yul\":19073:19076   */\n      0x00\n        /* \"#utility.yul\":19092:19112   */\n      tag_383\n        /* \"#utility.yul\":19110:19111   */\n      dup3\n        /* \"#utility.yul\":19092:19112   */\n      tag_149\n      jump\t// in\n    tag_383:\n        /* \"#utility.yul\":19087:19112   */\n      swap2\n      pop\n        /* \"#utility.yul\":19126:19146   */\n      tag_384\n        /* \"#utility.yul\":19144:19145   */\n      dup4\n        /* \"#utility.yul\":19126:19146   */\n      tag_149\n      jump\t// in\n    tag_384:\n        /* \"#utility.yul\":19121:19146   */\n      swap3\n      pop\n        /* \"#utility.yul\":19169:19170   */\n      dup3\n        /* \"#utility.yul\":19166:19167   */\n      dup3\n        /* \"#utility.yul\":19162:19171   */\n      add\n        /* \"#utility.yul\":19155:19171   */\n      swap1\n      pop\n        /* \"#utility.yul\":19190:19193   */\n      dup1\n        /* \"#utility.yul\":19187:19188   */\n      dup3\n        /* \"#utility.yul\":19184:19194   */\n      gt\n        /* \"#utility.yul\":19181:19217   */\n      iszero\n      tag_385\n      jumpi\n        /* \"#utility.yul\":19197:19215   */\n      tag_386\n      tag_167\n      jump\t// in\n    tag_386:\n        /* \"#utility.yul\":19181:19217   */\n    tag_385:\n        /* \"#utility.yul\":19033:19224   */\n      swap3\n      swap2\n      pop\n      pop\n      jump\t// out\n        /* \"#utility.yul\":19230:19463   */\n    tag_145:\n        /* \"#utility.yul\":19269:19272   */\n      0x00\n        /* \"#utility.yul\":19292:19316   */\n      tag_388\n        /* \"#utility.yul\":19310:19315   */\n      dup3\n        /* \"#utility.yul\":19292:19316   */\n      tag_149\n      jump\t// in\n    tag_388:\n        /* \"#utility.yul\":19283:19316   */\n      swap2\n      pop\n        /* \"#utility.yul\":19338:19404   */\n      0xffffffffffffffffffffffffffffffffffffffffffffffffffffffffffffffff\n        /* \"#utility.yul\":19331:19336   */\n      dup3\n        /* \"#utility.yul\":19328:19405   */\n      sub\n        /* \"#utility.yul\":19325:19428   */\n      tag_389\n      jumpi\n        /* \"#utility.yul\":19408:19426   */\n      tag_390\n      tag_167\n      jump\t// in\n    tag_390:\n        /* \"#utility.yul\":19325:19428   */\n    tag_389:\n        /* \"#utility.yul\":19455:19456   */\n      0x01\n        /* \"#utility.yul\":19448:19453   */\n      dup3\n        /* \"#utility.yul\":19444:19457   */\n      add\n        /* \"#utility.yul\":19437:19457   */\n      swap1\n      pop\n        /* \"#utility.yul\":19230:19463   */\n      swap2\n      swap1\n      pop\n      jump\t// out\n\n    auxdata: 0xa2646970667358221220e84f36dfe8e90dd7dfb303a0849eb5da769be582a2bcb79ecb9bf463ba0158bc64736f6c63430008100033\n}\n",
				"bytecode": {
					"linkReferences": {},
					"object": "60806040523480156200001157600080fd5b5060405162001f8238038062001f82833981810160405281019062000037919062000400565b60005b8251811015620001c75760008382815181106200005c576200005b62000466565b5b60200260200101519050600160008273ffffffffffffffffffffffffffffffffffffffff1673ffffffffffffffffffffffffffffffffffffffff16815260200190815260200160002060009054906101000a900460ff1615620000f6576040517f08c379a0000000000000000000000000000000000000000000000000000000008152600401620000ed90620004f6565b60405180910390fd5b6000819080600181540180825580915050600190039060005260206000200160009091909190916101000a81548173ffffffffffffffffffffffffffffffffffffffff021916908373ffffffffffffffffffffffffffffffffffffffff16021790555060018060008373ffffffffffffffffffffffffffffffffffffffff1673ffffffffffffffffffffffffffffffffffffffff16815260200190815260200160002060006101000a81548160ff021916908315150217905550508080620001be9062000547565b9150506200003a565b5080600281905550505062000594565b6000604051905090565b600080fd5b600080fd5b600080fd5b6000601f19601f8301169050919050565b7f4e487b7100000000000000000000000000000000000000000000000000000000600052604160045260246000fd5b6200023b82620001f0565b810181811067ffffffffffffffff821117156200025d576200025c62000201565b5b80604052505050565b600062000272620001d7565b905062000280828262000230565b919050565b600067ffffffffffffffff821115620002a357620002a262000201565b5b602082029050602081019050919050565b600080fd5b600073ffffffffffffffffffffffffffffffffffffffff82169050919050565b6000620002e682620002b9565b9050919050565b620002f881620002d9565b81146200030457600080fd5b50565b6000815190506200031881620002ed565b92915050565b6000620003356200032f8462000285565b62000266565b905080838252602082019050602084028301858111156200035b576200035a620002b4565b5b835b8181101562000388578062000373888262000307565b8452602084019350506020810190506200035d565b5050509392505050565b600082601f830112620003aa57620003a9620001eb565b5b8151620003bc8482602086016200031e565b91505092915050565b6000819050919050565b620003da81620003c5565b8114620003e657600080fd5b50565b600081519050620003fa81620003cf565b92915050565b600080604083850312156200041a5762000419620001e1565b5b600083015167ffffffffffffffff8111156200043b576200043a620001e6565b5b620004498582860162000392565b92505060206200045c85828601620003e9565b9150509250929050565b7f4e487b7100000000000000000000000000000000000000000000000000000000600052603260045260246000fd5b600082825260208201905092915050565b7f416c7265616479204578697374732e2e2e000000000000000000000000000000600082015250565b6000620004de60118362000495565b9150620004eb82620004a6565b602082019050919050565b600060208201905081810360008301526200051181620004cf565b9050919050565b7f4e487b7100000000000000000000000000000000000000000000000000000000600052601160045260246000fd5b60006200055482620003c5565b91507fffffffffffffffffffffffffffffffffffffffffffffffffffffffffffffffff820362000589576200058862000518565b5b600182019050919050565b6119de80620005a46000396000f3fe60806040526004361061004e5760003560e01c8063242232d1146100935780632f54bf6e146100bc578063b1e130fc146100f9578063c0c64a4914610122578063ee22610b1461014b5761008e565b3661008e577fe1fffcc4923d04b559f4d29a8bfc6cda04eb5b0d3c460751c2402c5c5cc9109c3334604051610084929190610fbb565b60405180910390a1005b600080fd5b34801561009f57600080fd5b506100ba60048036038101906100b5919061101a565b610174565b005b3480156100c857600080fd5b506100e360048036038101906100de9190611073565b610521565b6040516100f091906110bb565b60405180910390f35b34801561010557600080fd5b50610120600480360381019061011b919061101a565b610541565b005b34801561012e57600080fd5b506101496004803603810190610144919061113b565b6108ed565b005b34801561015757600080fd5b50610172600480360381019061016d919061101a565b610ab1565b005b806003600082815260200190815260200160002060003373ffffffffffffffffffffffffffffffffffffffff1673ffffffffffffffffffffffffffffffffffffffff16815260200190815260200160002060009054906101000a900460ff1615610213576040517f08c379a000000000000000000000000000000000000000000000000000000000815260040161020a9061120c565b60405180910390fd5b816001600480549050610226919061125b565b811115610268576040517f08c379a000000000000000000000000000000000000000000000000000000000815260040161025f906112db565b60405180910390fd5b600160003373ffffffffffffffffffffffffffffffffffffffff1673ffffffffffffffffffffffffffffffffffffffff16815260200190815260200160002060009054906101000a900460ff166102f4576040517f08c379a00000000000000000000000000000000000000000000000000000000081526004016102eb90611347565b60405180910390fd5b8260006004828154811061030b5761030a611367565b5b90600052602060002090600402016040518060800160405290816000820160009054906101000a900473ffffffffffffffffffffffffffffffffffffffff1673ffffffffffffffffffffffffffffffffffffffff1673ffffffffffffffffffffffffffffffffffffffff168152602001600182015481526020016002820160009054906101000a900460ff161515151581526020016003820180546103af906113c5565b80601f01602080910402602001604051908101604052809291908181526020018280546103db906113c5565b80156104285780601f106103fd57610100808354040283529160200191610428565b820191906000526020600020905b81548152906001019060200180831161040b57829003601f168201915b5050505050815250509050806040015115610478576040517f08c379a000000000000000000000000000000000000000000000000000000000815260040161046f90611442565b60405180910390fd5b60016003600087815260200190815260200160002060003373ffffffffffffffffffffffffffffffffffffffff1673ffffffffffffffffffffffffffffffffffffffff16815260200190815260200160002060006101000a81548160ff0219169083151502179055507f47ad3e4b0f4bdbe3ac08708bbc45053d2ff616911b39e65563fd9bd7819096458533604051610512929190611462565b60405180910390a15050505050565b60016020528060005260406000206000915054906101000a900460ff1681565b806003600082815260200190815260200160002060003373ffffffffffffffffffffffffffffffffffffffff1673ffffffffffffffffffffffffffffffffffffffff16815260200190815260200160002060009054906101000a900460ff166105df576040517f08c379a00000000000000000000000000000000000000000000000000000000081526004016105d6906114d7565b60405180910390fd5b8160016004805490506105f2919061125b565b811115610634576040517f08c379a000000000000000000000000000000000000000000000000000000000815260040161062b906112db565b60405180910390fd5b600160003373ffffffffffffffffffffffffffffffffffffffff1673ffffffffffffffffffffffffffffffffffffffff16815260200190815260200160002060009054906101000a900460ff166106c0576040517f08c379a00000000000000000000000000000000000000000000000000000000081526004016106b790611347565b60405180910390fd5b826000600482815481106106d7576106d6611367565b5b90600052602060002090600402016040518060800160405290816000820160009054906101000a900473ffffffffffffffffffffffffffffffffffffffff1673ffffffffffffffffffffffffffffffffffffffff1673ffffffffffffffffffffffffffffffffffffffff168152602001600182015481526020016002820160009054906101000a900460ff1615151515815260200160038201805461077b906113c5565b80601f01602080910402602001604051908101604052809291908181526020018280546107a7906113c5565b80156107f45780601f106107c9576101008083540402835291602001916107f4565b820191906000526020600020905b8154815290600101906020018083116107d757829003601f168201915b5050505050815250509050806040015115610844576040517f08c379a000000000000000000000000000000000000000000000000000000000815260040161083b90611442565b60405180910390fd5b60006003600087815260200190815260200160002060003373ffffffffffffffffffffffffffffffffffffffff1673ffffffffffffffffffffffffffffffffffffffff16815260200190815260200160002060006101000a81548160ff0219169083151502179055507fd5d64031e0f55cf42bc3b7d0462f8404a4d63f7ccf84be9510cd6a5300552e4285336040516108de929190611462565b60405180910390a15050505050565b600160003373ffffffffffffffffffffffffffffffffffffffff1673ffffffffffffffffffffffffffffffffffffffff16815260200190815260200160002060009054906101000a900460ff16610979576040517f08c379a000000000000000000000000000000000000000000000000000000000815260040161097090611347565b60405180910390fd5b600460405180608001604052808673ffffffffffffffffffffffffffffffffffffffff16815260200185815260200160001515815260200184848080601f016020809104026020016040519081016040528093929190818152602001838380828437600081840152601f19601f82011690508083019250505050505050815250908060018154018082558091505060019003906000526020600020906004020160009091909190915060008201518160000160006101000a81548173ffffffffffffffffffffffffffffffffffffffff021916908373ffffffffffffffffffffffffffffffffffffffff1602179055506020820151816001015560408201518160020160006101000a81548160ff0219169083151502179055506060820151816003019081610aa891906116dd565b50505050505050565b806001600480549050610ac4919061125b565b811115610b06576040517f08c379a0000000000000000000000000000000000000000000000000000000008152600401610afd906112db565b60405180910390fd5b600160003373ffffffffffffffffffffffffffffffffffffffff1673ffffffffffffffffffffffffffffffffffffffff16815260200190815260200160002060009054906101000a900460ff16610b92576040517f08c379a0000000000000000000000000000000000000000000000000000000008152600401610b8990611347565b60405180910390fd5b81600060048281548110610ba957610ba8611367565b5b90600052602060002090600402016040518060800160405290816000820160009054906101000a900473ffffffffffffffffffffffffffffffffffffffff1673ffffffffffffffffffffffffffffffffffffffff1673ffffffffffffffffffffffffffffffffffffffff168152602001600182015481526020016002820160009054906101000a900460ff16151515158152602001600382018054610c4d906113c5565b80601f0160208091040260200160405190810160405280929190818152602001828054610c79906113c5565b8015610cc65780601f10610c9b57610100808354040283529160200191610cc6565b820191906000526020600020905b815481529060010190602001808311610ca957829003601f168201915b5050505050815250509050806040015115610d16576040517f08c379a0000000000000000000000000000000000000000000000000000000008152600401610d0d90611442565b60405180910390fd5b600254610d2285610e87565b1015610d63576040517f08c379a0000000000000000000000000000000000000000000000000000000008152600401610d5a906117fb565b60405180910390fd5b600060048581548110610d7957610d78611367565b5b9060005260206000209060040201905060008160000160009054906101000a900473ffffffffffffffffffffffffffffffffffffffff1673ffffffffffffffffffffffffffffffffffffffff16826001015483600301604051610ddc91906118a9565b60006040518083038185875af1925050503d8060008114610e19576040519150601f19603f3d011682016040523d82523d6000602084013e610e1e565b606091505b5050905080610e62576040517f08c379a0000000000000000000000000000000000000000000000000000000008152600401610e599061190c565b60405180910390fd5b60018260020160006101000a81548160ff021916908315150217905550505050505050565b6000805b600080549050811015610f5b57600360008481526020019081526020016000206000808381548110610ec057610ebf611367565b5b9060005260206000200160009054906101000a900473ffffffffffffffffffffffffffffffffffffffff1673ffffffffffffffffffffffffffffffffffffffff1673ffffffffffffffffffffffffffffffffffffffff16815260200190815260200160002060009054906101000a900460ff1615610f4857600182610f45919061192c565b91505b8080610f5390611960565b915050610e8b565b50919050565b600073ffffffffffffffffffffffffffffffffffffffff82169050919050565b6000610f8c82610f61565b9050919050565b610f9c81610f81565b82525050565b6000819050919050565b610fb581610fa2565b82525050565b6000604082019050610fd06000830185610f93565b610fdd6020830184610fac565b9392505050565b600080fd5b600080fd5b610ff781610fa2565b811461100257600080fd5b50565b60008135905061101481610fee565b92915050565b6000602082840312156110305761102f610fe4565b5b600061103e84828501611005565b91505092915050565b61105081610f81565b811461105b57600080fd5b50565b60008135905061106d81611047565b92915050565b60006020828403121561108957611088610fe4565b5b60006110978482850161105e565b91505092915050565b60008115159050919050565b6110b5816110a0565b82525050565b60006020820190506110d060008301846110ac565b92915050565b600080fd5b600080fd5b600080fd5b60008083601f8401126110fb576110fa6110d6565b5b8235905067ffffffffffffffff811115611118576111176110db565b5b602083019150836001820283011115611134576111336110e0565b5b9250929050565b6000806000806060858703121561115557611154610fe4565b5b60006111638782880161105e565b945050602061117487828801611005565b935050604085013567ffffffffffffffff81111561119557611194610fe9565b5b6111a1878288016110e5565b925092505092959194509250565b600082825260208201905092915050565b7f5472616e73616374696f6e20416c726561647920417070726f7665642e2e2e00600082015250565b60006111f6601f836111af565b9150611201826111c0565b602082019050919050565b60006020820190508181036000830152611225816111e9565b9050919050565b7f4e487b7100000000000000000000000000000000000000000000000000000000600052601160045260246000fd5b600061126682610fa2565b915061127183610fa2565b92508282039050818111156112895761128861122c565b5b92915050565b7f5472616e73616374696f6e20446f6573206e6f742045786973742e2e2e000000600082015250565b60006112c5601d836111af565b91506112d08261128f565b602082019050919050565b600060208201905081810360008301526112f4816112b8565b9050919050565b7f4e6f7420746865204f776e65722e2e2e2e000000000000000000000000000000600082015250565b60006113316011836111af565b915061133c826112fb565b602082019050919050565b6000602082019050818103600083015261136081611324565b9050919050565b7f4e487b7100000000000000000000000000000000000000000000000000000000600052603260045260246000fd5b7f4e487b7100000000000000000000000000000000000000000000000000000000600052602260045260246000fd5b600060028204905060018216806113dd57607f821691505b6020821081036113f0576113ef611396565b5b50919050565b7f5472616e73616374696f6e20416c726561647920457865637574656400000000600082015250565b600061142c601c836111af565b9150611437826113f6565b602082019050919050565b6000602082019050818103600083015261145b8161141f565b9050919050565b60006040820190506114776000830185610fac565b6114846020830184610f93565b9392505050565b7f5472616e73616374696f6e204e6f7420417070726f7665642e2e2e0000000000600082015250565b60006114c1601b836111af565b91506114cc8261148b565b602082019050919050565b600060208201905081810360008301526114f0816114b4565b9050919050565b600081519050919050565b7f4e487b7100000000000000000000000000000000000000000000000000000000600052604160045260246000fd5b60008190508160005260206000209050919050565b60006020601f8301049050919050565b600082821b905092915050565b6000600883026115937fffffffffffffffffffffffffffffffffffffffffffffffffffffffffffffffff82611556565b61159d8683611556565b95508019841693508086168417925050509392505050565b6000819050919050565b60006115da6115d56115d084610fa2565b6115b5565b610fa2565b9050919050565b6000819050919050565b6115f4836115bf565b611608611600826115e1565b848454611563565b825550505050565b600090565b61161d611610565b6116288184846115eb565b505050565b5b8181101561164c57611641600082611615565b60018101905061162e565b5050565b601f8211156116915761166281611531565b61166b84611546565b8101602085101561167a578190505b61168e61168685611546565b83018261162d565b50505b505050565b600082821c905092915050565b60006116b460001984600802611696565b1980831691505092915050565b60006116cd83836116a3565b9150826002028217905092915050565b6116e6826114f7565b67ffffffffffffffff8111156116ff576116fe611502565b5b61170982546113c5565b611714828285611650565b600060209050601f8311600181146117475760008415611735578287015190505b61173f85826116c1565b8655506117a7565b601f19841661175586611531565b60005b8281101561177d57848901518255600182019150602085019450602081019050611758565b8683101561179a5784890151611796601f8916826116a3565b8355505b6001600288020188555050505b505050505050565b7f4e6f7420456e6f75676820417070726f76616c732e2e2e000000000000000000600082015250565b60006117e56017836111af565b91506117f0826117af565b602082019050919050565b60006020820190508181036000830152611814816117d8565b9050919050565b600081905092915050565b60008154611833816113c5565b61183d818661181b565b94506001821660008114611858576001811461186d576118a0565b60ff19831686528115158202860193506118a0565b61187685611531565b60005b8381101561189857815481890152600182019150602081019050611879565b838801955050505b50505092915050565b60006118b58284611826565b915081905092915050565b7f5472616e73616374696f6e20496e636f6d706c65746500000000000000000000600082015250565b60006118f66016836111af565b9150611901826118c0565b602082019050919050565b60006020820190508181036000830152611925816118e9565b9050919050565b600061193782610fa2565b915061194283610fa2565b925082820190508082111561195a5761195961122c565b5b92915050565b600061196b82610fa2565b91507fffffffffffffffffffffffffffffffffffffffffffffffffffffffffffffffff820361199d5761199c61122c565b5b60018201905091905056fea2646970667358221220e84f36dfe8e90dd7dfb303a0849eb5da769be582a2bcb79ecb9bf463ba0158bc64736f6c63430008100033",
					"opcodes": "PUSH1 0x80 PUSH1 0x40 MSTORE CALLVALUE DUP1 ISZERO PUSH3 0x11 JUMPI PUSH1 0x0 DUP1 REVERT JUMPDEST POP PUSH1 0x40 MLOAD PUSH3 0x1F82 CODESIZE SUB DUP1 PUSH3 0x1F82 DUP4 CODECOPY DUP2 DUP2 ADD PUSH1 0x40 MSTORE DUP2 ADD SWAP1 PUSH3 0x37 SWAP2 SWAP1 PUSH3 0x400 JUMP JUMPDEST PUSH1 0x0 JUMPDEST DUP3 MLOAD DUP2 LT ISZERO PUSH3 0x1C7 JUMPI PUSH1 0x0 DUP4 DUP3 DUP2 MLOAD DUP2 LT PUSH3 0x5C JUMPI PUSH3 0x5B PUSH3 0x466 JUMP JUMPDEST JUMPDEST PUSH1 0x20 MUL PUSH1 0x20 ADD ADD MLOAD SWAP1 POP PUSH1 0x1 PUSH1 0x0 DUP3 PUSH20 0xFFFFFFFFFFFFFFFFFFFFFFFFFFFFFFFFFFFFFFFF AND PUSH20 0xFFFFFFFFFFFFFFFFFFFFFFFFFFFFFFFFFFFFFFFF AND DUP2 MSTORE PUSH1 0x20 ADD SWAP1 DUP2 MSTORE PUSH1 0x20 ADD PUSH1 0x0 KECCAK256 PUSH1 0x0 SWAP1 SLOAD SWAP1 PUSH2 0x100 EXP SWAP1 DIV PUSH1 0xFF AND ISZERO PUSH3 0xF6 JUMPI PUSH1 0x40 MLOAD PUSH32 0x8C379A000000000000000000000000000000000000000000000000000000000 DUP2 MSTORE PUSH1 0x4 ADD PUSH3 0xED SWAP1 PUSH3 0x4F6 JUMP JUMPDEST PUSH1 0x40 MLOAD DUP1 SWAP2 SUB SWAP1 REVERT JUMPDEST PUSH1 0x0 DUP2 SWAP1 DUP1 PUSH1 0x1 DUP2 SLOAD ADD DUP1 DUP3 SSTORE DUP1 SWAP2 POP POP PUSH1 0x1 SWAP1 SUB SWAP1 PUSH1 0x0 MSTORE PUSH1 0x20 PUSH1 0x0 KECCAK256 ADD PUSH1 0x0 SWAP1 SWAP2 SWAP1 SWAP2 SWAP1 SWAP2 PUSH2 0x100 EXP DUP2 SLOAD DUP2 PUSH20 0xFFFFFFFFFFFFFFFFFFFFFFFFFFFFFFFFFFFFFFFF MUL NOT AND SWAP1 DUP4 PUSH20 0xFFFFFFFFFFFFFFFFFFFFFFFFFFFFFFFFFFFFFFFF AND MUL OR SWAP1 SSTORE POP PUSH1 0x1 DUP1 PUSH1 0x0 DUP4 PUSH20 0xFFFFFFFFFFFFFFFFFFFFFFFFFFFFFFFFFFFFFFFF AND PUSH20 0xFFFFFFFFFFFFFFFFFFFFFFFFFFFFFFFFFFFFFFFF AND DUP2 MSTORE PUSH1 0x20 ADD SWAP1 DUP2 MSTORE PUSH1 0x20 ADD PUSH1 0x0 KECCAK256 PUSH1 0x0 PUSH2 0x100 EXP DUP2 SLOAD DUP2 PUSH1 0xFF MUL NOT AND SWAP1 DUP4 ISZERO ISZERO MUL OR SWAP1 SSTORE POP POP DUP1 DUP1 PUSH3 0x1BE SWAP1 PUSH3 0x547 JUMP JUMPDEST SWAP2 POP POP PUSH3 0x3A JUMP JUMPDEST POP DUP1 PUSH1 0x2 DUP2 SWAP1 SSTORE POP POP POP PUSH3 0x594 JUMP JUMPDEST PUSH1 0x0 PUSH1 0x40 MLOAD SWAP1 POP SWAP1 JUMP JUMPDEST PUSH1 0x0 DUP1 REVERT JUMPDEST PUSH1 0x0 DUP1 REVERT JUMPDEST PUSH1 0x0 DUP1 REVERT JUMPDEST PUSH1 0x0 PUSH1 0x1F NOT PUSH1 0x1F DUP4 ADD AND SWAP1 POP SWAP2 SWAP1 POP JUMP JUMPDEST PUSH32 0x4E487B7100000000000000000000000000000000000000000000000000000000 PUSH1 0x0 MSTORE PUSH1 0x41 PUSH1 0x4 MSTORE PUSH1 0x24 PUSH1 0x0 REVERT JUMPDEST PUSH3 0x23B DUP3 PUSH3 0x1F0 JUMP JUMPDEST DUP2 ADD DUP2 DUP2 LT PUSH8 0xFFFFFFFFFFFFFFFF DUP3 GT OR ISZERO PUSH3 0x25D JUMPI PUSH3 0x25C PUSH3 0x201 JUMP JUMPDEST JUMPDEST DUP1 PUSH1 0x40 MSTORE POP POP POP JUMP JUMPDEST PUSH1 0x0 PUSH3 0x272 PUSH3 0x1D7 JUMP JUMPDEST SWAP1 POP PUSH3 0x280 DUP3 DUP3 PUSH3 0x230 JUMP JUMPDEST SWAP2 SWAP1 POP JUMP JUMPDEST PUSH1 0x0 PUSH8 0xFFFFFFFFFFFFFFFF DUP3 GT ISZERO PUSH3 0x2A3 JUMPI PUSH3 0x2A2 PUSH3 0x201 JUMP JUMPDEST JUMPDEST PUSH1 0x20 DUP3 MUL SWAP1 POP PUSH1 0x20 DUP2 ADD SWAP1 POP SWAP2 SWAP1 POP JUMP JUMPDEST PUSH1 0x0 DUP1 REVERT JUMPDEST PUSH1 0x0 PUSH20 0xFFFFFFFFFFFFFFFFFFFFFFFFFFFFFFFFFFFFFFFF DUP3 AND SWAP1 POP SWAP2 SWAP1 POP JUMP JUMPDEST PUSH1 0x0 PUSH3 0x2E6 DUP3 PUSH3 0x2B9 JUMP JUMPDEST SWAP1 POP SWAP2 SWAP1 POP JUMP JUMPDEST PUSH3 0x2F8 DUP2 PUSH3 0x2D9 JUMP JUMPDEST DUP2 EQ PUSH3 0x304 JUMPI PUSH1 0x0 DUP1 REVERT JUMPDEST POP JUMP JUMPDEST PUSH1 0x0 DUP2 MLOAD SWAP1 POP PUSH3 0x318 DUP2 PUSH3 0x2ED JUMP JUMPDEST SWAP3 SWAP2 POP POP JUMP JUMPDEST PUSH1 0x0 PUSH3 0x335 PUSH3 0x32F DUP5 PUSH3 0x285 JUMP JUMPDEST PUSH3 0x266 JUMP JUMPDEST SWAP1 POP DUP1 DUP4 DUP3 MSTORE PUSH1 0x20 DUP3 ADD SWAP1 POP PUSH1 0x20 DUP5 MUL DUP4 ADD DUP6 DUP2 GT ISZERO PUSH3 0x35B JUMPI PUSH3 0x35A PUSH3 0x2B4 JUMP JUMPDEST JUMPDEST DUP4 JUMPDEST DUP2 DUP2 LT ISZERO PUSH3 0x388 JUMPI DUP1 PUSH3 0x373 DUP9 DUP3 PUSH3 0x307 JUMP JUMPDEST DUP5 MSTORE PUSH1 0x20 DUP5 ADD SWAP4 POP POP PUSH1 0x20 DUP2 ADD SWAP1 POP PUSH3 0x35D JUMP JUMPDEST POP POP POP SWAP4 SWAP3 POP POP POP JUMP JUMPDEST PUSH1 0x0 DUP3 PUSH1 0x1F DUP4 ADD SLT PUSH3 0x3AA JUMPI PUSH3 0x3A9 PUSH3 0x1EB JUMP JUMPDEST JUMPDEST DUP2 MLOAD PUSH3 0x3BC DUP5 DUP3 PUSH1 0x20 DUP7 ADD PUSH3 0x31E JUMP JUMPDEST SWAP2 POP POP SWAP3 SWAP2 POP POP JUMP JUMPDEST PUSH1 0x0 DUP2 SWAP1 POP SWAP2 SWAP1 POP JUMP JUMPDEST PUSH3 0x3DA DUP2 PUSH3 0x3C5 JUMP JUMPDEST DUP2 EQ PUSH3 0x3E6 JUMPI PUSH1 0x0 DUP1 REVERT JUMPDEST POP JUMP JUMPDEST PUSH1 0x0 DUP2 MLOAD SWAP1 POP PUSH3 0x3FA DUP2 PUSH3 0x3CF JUMP JUMPDEST SWAP3 SWAP2 POP POP JUMP JUMPDEST PUSH1 0x0 DUP1 PUSH1 0x40 DUP4 DUP6 SUB SLT ISZERO PUSH3 0x41A JUMPI PUSH3 0x419 PUSH3 0x1E1 JUMP JUMPDEST JUMPDEST PUSH1 0x0 DUP4 ADD MLOAD PUSH8 0xFFFFFFFFFFFFFFFF DUP2 GT ISZERO PUSH3 0x43B JUMPI PUSH3 0x43A PUSH3 0x1E6 JUMP JUMPDEST JUMPDEST PUSH3 0x449 DUP6 DUP3 DUP7 ADD PUSH3 0x392 JUMP JUMPDEST SWAP3 POP POP PUSH1 0x20 PUSH3 0x45C DUP6 DUP3 DUP7 ADD PUSH3 0x3E9 JUMP JUMPDEST SWAP2 POP POP SWAP3 POP SWAP3 SWAP1 POP JUMP JUMPDEST PUSH32 0x4E487B7100000000000000000000000000000000000000000000000000000000 PUSH1 0x0 MSTORE PUSH1 0x32 PUSH1 0x4 MSTORE PUSH1 0x24 PUSH1 0x0 REVERT JUMPDEST PUSH1 0x0 DUP3 DUP3 MSTORE PUSH1 0x20 DUP3 ADD SWAP1 POP SWAP3 SWAP2 POP POP JUMP JUMPDEST PUSH32 0x416C7265616479204578697374732E2E2E000000000000000000000000000000 PUSH1 0x0 DUP3 ADD MSTORE POP JUMP JUMPDEST PUSH1 0x0 PUSH3 0x4DE PUSH1 0x11 DUP4 PUSH3 0x495 JUMP JUMPDEST SWAP2 POP PUSH3 0x4EB DUP3 PUSH3 0x4A6 JUMP JUMPDEST PUSH1 0x20 DUP3 ADD SWAP1 POP SWAP2 SWAP1 POP JUMP JUMPDEST PUSH1 0x0 PUSH1 0x20 DUP3 ADD SWAP1 POP DUP2 DUP2 SUB PUSH1 0x0 DUP4 ADD MSTORE PUSH3 0x511 DUP2 PUSH3 0x4CF JUMP JUMPDEST SWAP1 POP SWAP2 SWAP1 POP JUMP JUMPDEST PUSH32 0x4E487B7100000000000000000000000000000000000000000000000000000000 PUSH1 0x0 MSTORE PUSH1 0x11 PUSH1 0x4 MSTORE PUSH1 0x24 PUSH1 0x0 REVERT JUMPDEST PUSH1 0x0 PUSH3 0x554 DUP3 PUSH3 0x3C5 JUMP JUMPDEST SWAP2 POP PUSH32 0xFFFFFFFFFFFFFFFFFFFFFFFFFFFFFFFFFFFFFFFFFFFFFFFFFFFFFFFFFFFFFFFF DUP3 SUB PUSH3 0x589 JUMPI PUSH3 0x588 PUSH3 0x518 JUMP JUMPDEST JUMPDEST PUSH1 0x1 DUP3 ADD SWAP1 POP SWAP2 SWAP1 POP JUMP JUMPDEST PUSH2 0x19DE DUP1 PUSH3 0x5A4 PUSH1 0x0 CODECOPY PUSH1 0x0 RETURN INVALID PUSH1 0x80 PUSH1 0x40 MSTORE PUSH1 0x4 CALLDATASIZE LT PUSH2 0x4E JUMPI PUSH1 0x0 CALLDATALOAD PUSH1 0xE0 SHR DUP1 PUSH4 0x242232D1 EQ PUSH2 0x93 JUMPI DUP1 PUSH4 0x2F54BF6E EQ PUSH2 0xBC JUMPI DUP1 PUSH4 0xB1E130FC EQ PUSH2 0xF9 JUMPI DUP1 PUSH4 0xC0C64A49 EQ PUSH2 0x122 JUMPI DUP1 PUSH4 0xEE22610B EQ PUSH2 0x14B JUMPI PUSH2 0x8E JUMP JUMPDEST CALLDATASIZE PUSH2 0x8E JUMPI PUSH32 0xE1FFFCC4923D04B559F4D29A8BFC6CDA04EB5B0D3C460751C2402C5C5CC9109C CALLER CALLVALUE PUSH1 0x40 MLOAD PUSH2 0x84 SWAP3 SWAP2 SWAP1 PUSH2 0xFBB JUMP JUMPDEST PUSH1 0x40 MLOAD DUP1 SWAP2 SUB SWAP1 LOG1 STOP JUMPDEST PUSH1 0x0 DUP1 REVERT JUMPDEST CALLVALUE DUP1 ISZERO PUSH2 0x9F JUMPI PUSH1 0x0 DUP1 REVERT JUMPDEST POP PUSH2 0xBA PUSH1 0x4 DUP1 CALLDATASIZE SUB DUP2 ADD SWAP1 PUSH2 0xB5 SWAP2 SWAP1 PUSH2 0x101A JUMP JUMPDEST PUSH2 0x174 JUMP JUMPDEST STOP JUMPDEST CALLVALUE DUP1 ISZERO PUSH2 0xC8 JUMPI PUSH1 0x0 DUP1 REVERT JUMPDEST POP PUSH2 0xE3 PUSH1 0x4 DUP1 CALLDATASIZE SUB DUP2 ADD SWAP1 PUSH2 0xDE SWAP2 SWAP1 PUSH2 0x1073 JUMP JUMPDEST PUSH2 0x521 JUMP JUMPDEST PUSH1 0x40 MLOAD PUSH2 0xF0 SWAP2 SWAP1 PUSH2 0x10BB JUMP JUMPDEST PUSH1 0x40 MLOAD DUP1 SWAP2 SUB SWAP1 RETURN JUMPDEST CALLVALUE DUP1 ISZERO PUSH2 0x105 JUMPI PUSH1 0x0 DUP1 REVERT JUMPDEST POP PUSH2 0x120 PUSH1 0x4 DUP1 CALLDATASIZE SUB DUP2 ADD SWAP1 PUSH2 0x11B SWAP2 SWAP1 PUSH2 0x101A JUMP JUMPDEST PUSH2 0x541 JUMP JUMPDEST STOP JUMPDEST CALLVALUE DUP1 ISZERO PUSH2 0x12E JUMPI PUSH1 0x0 DUP1 REVERT JUMPDEST POP PUSH2 0x149 PUSH1 0x4 DUP1 CALLDATASIZE SUB DUP2 ADD SWAP1 PUSH2 0x144 SWAP2 SWAP1 PUSH2 0x113B JUMP JUMPDEST PUSH2 0x8ED JUMP JUMPDEST STOP JUMPDEST CALLVALUE DUP1 ISZERO PUSH2 0x157 JUMPI PUSH1 0x0 DUP1 REVERT JUMPDEST POP PUSH2 0x172 PUSH1 0x4 DUP1 CALLDATASIZE SUB DUP2 ADD SWAP1 PUSH2 0x16D SWAP2 SWAP1 PUSH2 0x101A JUMP JUMPDEST PUSH2 0xAB1 JUMP JUMPDEST STOP JUMPDEST DUP1 PUSH1 0x3 PUSH1 0x0 DUP3 DUP2 MSTORE PUSH1 0x20 ADD SWAP1 DUP2 MSTORE PUSH1 0x20 ADD PUSH1 0x0 KECCAK256 PUSH1 0x0 CALLER PUSH20 0xFFFFFFFFFFFFFFFFFFFFFFFFFFFFFFFFFFFFFFFF AND PUSH20 0xFFFFFFFFFFFFFFFFFFFFFFFFFFFFFFFFFFFFFFFF AND DUP2 MSTORE PUSH1 0x20 ADD SWAP1 DUP2 MSTORE PUSH1 0x20 ADD PUSH1 0x0 KECCAK256 PUSH1 0x0 SWAP1 SLOAD SWAP1 PUSH2 0x100 EXP SWAP1 DIV PUSH1 0xFF AND ISZERO PUSH2 0x213 JUMPI PUSH1 0x40 MLOAD PUSH32 0x8C379A000000000000000000000000000000000000000000000000000000000 DUP2 MSTORE PUSH1 0x4 ADD PUSH2 0x20A SWAP1 PUSH2 0x120C JUMP JUMPDEST PUSH1 0x40 MLOAD DUP1 SWAP2 SUB SWAP1 REVERT JUMPDEST DUP2 PUSH1 0x1 PUSH1 0x4 DUP1 SLOAD SWAP1 POP PUSH2 0x226 SWAP2 SWAP1 PUSH2 0x125B JUMP JUMPDEST DUP2 GT ISZERO PUSH2 0x268 JUMPI PUSH1 0x40 MLOAD PUSH32 0x8C379A000000000000000000000000000000000000000000000000000000000 DUP2 MSTORE PUSH1 0x4 ADD PUSH2 0x25F SWAP1 PUSH2 0x12DB JUMP JUMPDEST PUSH1 0x40 MLOAD DUP1 SWAP2 SUB SWAP1 REVERT JUMPDEST PUSH1 0x1 PUSH1 0x0 CALLER PUSH20 0xFFFFFFFFFFFFFFFFFFFFFFFFFFFFFFFFFFFFFFFF AND PUSH20 0xFFFFFFFFFFFFFFFFFFFFFFFFFFFFFFFFFFFFFFFF AND DUP2 MSTORE PUSH1 0x20 ADD SWAP1 DUP2 MSTORE PUSH1 0x20 ADD PUSH1 0x0 KECCAK256 PUSH1 0x0 SWAP1 SLOAD SWAP1 PUSH2 0x100 EXP SWAP1 DIV PUSH1 0xFF AND PUSH2 0x2F4 JUMPI PUSH1 0x40 MLOAD PUSH32 0x8C379A000000000000000000000000000000000000000000000000000000000 DUP2 MSTORE PUSH1 0x4 ADD PUSH2 0x2EB SWAP1 PUSH2 0x1347 JUMP JUMPDEST PUSH1 0x40 MLOAD DUP1 SWAP2 SUB SWAP1 REVERT JUMPDEST DUP3 PUSH1 0x0 PUSH1 0x4 DUP3 DUP2 SLOAD DUP2 LT PUSH2 0x30B JUMPI PUSH2 0x30A PUSH2 0x1367 JUMP JUMPDEST JUMPDEST SWAP1 PUSH1 0x0 MSTORE PUSH1 0x20 PUSH1 0x0 KECCAK256 SWAP1 PUSH1 0x4 MUL ADD PUSH1 0x40 MLOAD DUP1 PUSH1 0x80 ADD PUSH1 0x40 MSTORE SWAP1 DUP2 PUSH1 0x0 DUP3 ADD PUSH1 0x0 SWAP1 SLOAD SWAP1 PUSH2 0x100 EXP SWAP1 DIV PUSH20 0xFFFFFFFFFFFFFFFFFFFFFFFFFFFFFFFFFFFFFFFF AND PUSH20 0xFFFFFFFFFFFFFFFFFFFFFFFFFFFFFFFFFFFFFFFF AND PUSH20 0xFFFFFFFFFFFFFFFFFFFFFFFFFFFFFFFFFFFFFFFF AND DUP2 MSTORE PUSH1 0x20 ADD PUSH1 0x1 DUP3 ADD SLOAD DUP2 MSTORE PUSH1 0x20 ADD PUSH1 0x2 DUP3 ADD PUSH1 0x0 SWAP1 SLOAD SWAP1 PUSH2 0x100 EXP SWAP1 DIV PUSH1 0xFF AND ISZERO ISZERO ISZERO ISZERO DUP2 MSTORE PUSH1 0x20 ADD PUSH1 0x3 DUP3 ADD DUP1 SLOAD PUSH2 0x3AF SWAP1 PUSH2 0x13C5 JUMP JUMPDEST DUP1 PUSH1 0x1F ADD PUSH1 0x20 DUP1 SWAP2 DIV MUL PUSH1 0x20 ADD PUSH1 0x40 MLOAD SWAP1 DUP2 ADD PUSH1 0x40 MSTORE DUP1 SWAP3 SWAP2 SWAP1 DUP2 DUP2 MSTORE PUSH1 0x20 ADD DUP3 DUP1 SLOAD PUSH2 0x3DB SWAP1 PUSH2 0x13C5 JUMP JUMPDEST DUP1 ISZERO PUSH2 0x428 JUMPI DUP1 PUSH1 0x1F LT PUSH2 0x3FD JUMPI PUSH2 0x100 DUP1 DUP4 SLOAD DIV MUL DUP4 MSTORE SWAP2 PUSH1 0x20 ADD SWAP2 PUSH2 0x428 JUMP JUMPDEST DUP3 ADD SWAP2 SWAP1 PUSH1 0x0 MSTORE PUSH1 0x20 PUSH1 0x0 KECCAK256 SWAP1 JUMPDEST DUP2 SLOAD DUP2 MSTORE SWAP1 PUSH1 0x1 ADD SWAP1 PUSH1 0x20 ADD DUP1 DUP4 GT PUSH2 0x40B JUMPI DUP3 SWAP1 SUB PUSH1 0x1F AND DUP3 ADD SWAP2 JUMPDEST POP POP POP POP POP DUP2 MSTORE POP POP SWAP1 POP DUP1 PUSH1 0x40 ADD MLOAD ISZERO PUSH2 0x478 JUMPI PUSH1 0x40 MLOAD PUSH32 0x8C379A000000000000000000000000000000000000000000000000000000000 DUP2 MSTORE PUSH1 0x4 ADD PUSH2 0x46F SWAP1 PUSH2 0x1442 JUMP JUMPDEST PUSH1 0x40 MLOAD DUP1 SWAP2 SUB SWAP1 REVERT JUMPDEST PUSH1 0x1 PUSH1 0x3 PUSH1 0x0 DUP8 DUP2 MSTORE PUSH1 0x20 ADD SWAP1 DUP2 MSTORE PUSH1 0x20 ADD PUSH1 0x0 KECCAK256 PUSH1 0x0 CALLER PUSH20 0xFFFFFFFFFFFFFFFFFFFFFFFFFFFFFFFFFFFFFFFF AND PUSH20 0xFFFFFFFFFFFFFFFFFFFFFFFFFFFFFFFFFFFFFFFF AND DUP2 MSTORE PUSH1 0x20 ADD SWAP1 DUP2 MSTORE PUSH1 0x20 ADD PUSH1 0x0 KECCAK256 PUSH1 0x0 PUSH2 0x100 EXP DUP2 SLOAD DUP2 PUSH1 0xFF MUL NOT AND SWAP1 DUP4 ISZERO ISZERO MUL OR SWAP1 SSTORE POP PUSH32 0x47AD3E4B0F4BDBE3AC08708BBC45053D2FF616911B39E65563FD9BD781909645 DUP6 CALLER PUSH1 0x40 MLOAD PUSH2 0x512 SWAP3 SWAP2 SWAP1 PUSH2 0x1462 JUMP JUMPDEST PUSH1 0x40 MLOAD DUP1 SWAP2 SUB SWAP1 LOG1 POP POP POP POP POP JUMP JUMPDEST PUSH1 0x1 PUSH1 0x20 MSTORE DUP1 PUSH1 0x0 MSTORE PUSH1 0x40 PUSH1 0x0 KECCAK256 PUSH1 0x0 SWAP2 POP SLOAD SWAP1 PUSH2 0x100 EXP SWAP1 DIV PUSH1 0xFF AND DUP2 JUMP JUMPDEST DUP1 PUSH1 0x3 PUSH1 0x0 DUP3 DUP2 MSTORE PUSH1 0x20 ADD SWAP1 DUP2 MSTORE PUSH1 0x20 ADD PUSH1 0x0 KECCAK256 PUSH1 0x0 CALLER PUSH20 0xFFFFFFFFFFFFFFFFFFFFFFFFFFFFFFFFFFFFFFFF AND PUSH20 0xFFFFFFFFFFFFFFFFFFFFFFFFFFFFFFFFFFFFFFFF AND DUP2 MSTORE PUSH1 0x20 ADD SWAP1 DUP2 MSTORE PUSH1 0x20 ADD PUSH1 0x0 KECCAK256 PUSH1 0x0 SWAP1 SLOAD SWAP1 PUSH2 0x100 EXP SWAP1 DIV PUSH1 0xFF AND PUSH2 0x5DF JUMPI PUSH1 0x40 MLOAD PUSH32 0x8C379A000000000000000000000000000000000000000000000000000000000 DUP2 MSTORE PUSH1 0x4 ADD PUSH2 0x5D6 SWAP1 PUSH2 0x14D7 JUMP JUMPDEST PUSH1 0x40 MLOAD DUP1 SWAP2 SUB SWAP1 REVERT JUMPDEST DUP2 PUSH1 0x1 PUSH1 0x4 DUP1 SLOAD SWAP1 POP PUSH2 0x5F2 SWAP2 SWAP1 PUSH2 0x125B JUMP JUMPDEST DUP2 GT ISZERO PUSH2 0x634 JUMPI PUSH1 0x40 MLOAD PUSH32 0x8C379A000000000000000000000000000000000000000000000000000000000 DUP2 MSTORE PUSH1 0x4 ADD PUSH2 0x62B SWAP1 PUSH2 0x12DB JUMP JUMPDEST PUSH1 0x40 MLOAD DUP1 SWAP2 SUB SWAP1 REVERT JUMPDEST PUSH1 0x1 PUSH1 0x0 CALLER PUSH20 0xFFFFFFFFFFFFFFFFFFFFFFFFFFFFFFFFFFFFFFFF AND PUSH20 0xFFFFFFFFFFFFFFFFFFFFFFFFFFFFFFFFFFFFFFFF AND DUP2 MSTORE PUSH1 0x20 ADD SWAP1 DUP2 MSTORE PUSH1 0x20 ADD PUSH1 0x0 KECCAK256 PUSH1 0x0 SWAP1 SLOAD SWAP1 PUSH2 0x100 EXP SWAP1 DIV PUSH1 0xFF AND PUSH2 0x6C0 JUMPI PUSH1 0x40 MLOAD PUSH32 0x8C379A000000000000000000000000000000000000000000000000000000000 DUP2 MSTORE PUSH1 0x4 ADD PUSH2 0x6B7 SWAP1 PUSH2 0x1347 JUMP JUMPDEST PUSH1 0x40 MLOAD DUP1 SWAP2 SUB SWAP1 REVERT JUMPDEST DUP3 PUSH1 0x0 PUSH1 0x4 DUP3 DUP2 SLOAD DUP2 LT PUSH2 0x6D7 JUMPI PUSH2 0x6D6 PUSH2 0x1367 JUMP JUMPDEST JUMPDEST SWAP1 PUSH1 0x0 MSTORE PUSH1 0x20 PUSH1 0x0 KECCAK256 SWAP1 PUSH1 0x4 MUL ADD PUSH1 0x40 MLOAD DUP1 PUSH1 0x80 ADD PUSH1 0x40 MSTORE SWAP1 DUP2 PUSH1 0x0 DUP3 ADD PUSH1 0x0 SWAP1 SLOAD SWAP1 PUSH2 0x100 EXP SWAP1 DIV PUSH20 0xFFFFFFFFFFFFFFFFFFFFFFFFFFFFFFFFFFFFFFFF AND PUSH20 0xFFFFFFFFFFFFFFFFFFFFFFFFFFFFFFFFFFFFFFFF AND PUSH20 0xFFFFFFFFFFFFFFFFFFFFFFFFFFFFFFFFFFFFFFFF AND DUP2 MSTORE PUSH1 0x20 ADD PUSH1 0x1 DUP3 ADD SLOAD DUP2 MSTORE PUSH1 0x20 ADD PUSH1 0x2 DUP3 ADD PUSH1 0x0 SWAP1 SLOAD SWAP1 PUSH2 0x100 EXP SWAP1 DIV PUSH1 0xFF AND ISZERO ISZERO ISZERO ISZERO DUP2 MSTORE PUSH1 0x20 ADD PUSH1 0x3 DUP3 ADD DUP1 SLOAD PUSH2 0x77B SWAP1 PUSH2 0x13C5 JUMP JUMPDEST DUP1 PUSH1 0x1F ADD PUSH1 0x20 DUP1 SWAP2 DIV MUL PUSH1 0x20 ADD PUSH1 0x40 MLOAD SWAP1 DUP2 ADD PUSH1 0x40 MSTORE DUP1 SWAP3 SWAP2 SWAP1 DUP2 DUP2 MSTORE PUSH1 0x20 ADD DUP3 DUP1 SLOAD PUSH2 0x7A7 SWAP1 PUSH2 0x13C5 JUMP JUMPDEST DUP1 ISZERO PUSH2 0x7F4 JUMPI DUP1 PUSH1 0x1F LT PUSH2 0x7C9 JUMPI PUSH2 0x100 DUP1 DUP4 SLOAD DIV MUL DUP4 MSTORE SWAP2 PUSH1 0x20 ADD SWAP2 PUSH2 0x7F4 JUMP JUMPDEST DUP3 ADD SWAP2 SWAP1 PUSH1 0x0 MSTORE PUSH1 0x20 PUSH1 0x0 KECCAK256 SWAP1 JUMPDEST DUP2 SLOAD DUP2 MSTORE SWAP1 PUSH1 0x1 ADD SWAP1 PUSH1 0x20 ADD DUP1 DUP4 GT PUSH2 0x7D7 JUMPI DUP3 SWAP1 SUB PUSH1 0x1F AND DUP3 ADD SWAP2 JUMPDEST POP POP POP POP POP DUP2 MSTORE POP POP SWAP1 POP DUP1 PUSH1 0x40 ADD MLOAD ISZERO PUSH2 0x844 JUMPI PUSH1 0x40 MLOAD PUSH32 0x8C379A000000000000000000000000000000000000000000000000000000000 DUP2 MSTORE PUSH1 0x4 ADD PUSH2 0x83B SWAP1 PUSH2 0x1442 JUMP JUMPDEST PUSH1 0x40 MLOAD DUP1 SWAP2 SUB SWAP1 REVERT JUMPDEST PUSH1 0x0 PUSH1 0x3 PUSH1 0x0 DUP8 DUP2 MSTORE PUSH1 0x20 ADD SWAP1 DUP2 MSTORE PUSH1 0x20 ADD PUSH1 0x0 KECCAK256 PUSH1 0x0 CALLER PUSH20 0xFFFFFFFFFFFFFFFFFFFFFFFFFFFFFFFFFFFFFFFF AND PUSH20 0xFFFFFFFFFFFFFFFFFFFFFFFFFFFFFFFFFFFFFFFF AND DUP2 MSTORE PUSH1 0x20 ADD SWAP1 DUP2 MSTORE PUSH1 0x20 ADD PUSH1 0x0 KECCAK256 PUSH1 0x0 PUSH2 0x100 EXP DUP2 SLOAD DUP2 PUSH1 0xFF MUL NOT AND SWAP1 DUP4 ISZERO ISZERO MUL OR SWAP1 SSTORE POP PUSH32 0xD5D64031E0F55CF42BC3B7D0462F8404A4D63F7CCF84BE9510CD6A5300552E42 DUP6 CALLER PUSH1 0x40 MLOAD PUSH2 0x8DE SWAP3 SWAP2 SWAP1 PUSH2 0x1462 JUMP JUMPDEST PUSH1 0x40 MLOAD DUP1 SWAP2 SUB SWAP1 LOG1 POP POP POP POP POP JUMP JUMPDEST PUSH1 0x1 PUSH1 0x0 CALLER PUSH20 0xFFFFFFFFFFFFFFFFFFFFFFFFFFFFFFFFFFFFFFFF AND PUSH20 0xFFFFFFFFFFFFFFFFFFFFFFFFFFFFFFFFFFFFFFFF AND DUP2 MSTORE PUSH1 0x20 ADD SWAP1 DUP2 MSTORE PUSH1 0x20 ADD PUSH1 0x0 KECCAK256 PUSH1 0x0 SWAP1 SLOAD SWAP1 PUSH2 0x100 EXP SWAP1 DIV PUSH1 0xFF AND PUSH2 0x979 JUMPI PUSH1 0x40 MLOAD PUSH32 0x8C379A000000000000000000000000000000000000000000000000000000000 DUP2 MSTORE PUSH1 0x4 ADD PUSH2 0x970 SWAP1 PUSH2 0x1347 JUMP JUMPDEST PUSH1 0x40 MLOAD DUP1 SWAP2 SUB SWAP1 REVERT JUMPDEST PUSH1 0x4 PUSH1 0x40 MLOAD DUP1 PUSH1 0x80 ADD PUSH1 0x40 MSTORE DUP1 DUP7 PUSH20 0xFFFFFFFFFFFFFFFFFFFFFFFFFFFFFFFFFFFFFFFF AND DUP2 MSTORE PUSH1 0x20 ADD DUP6 DUP2 MSTORE PUSH1 0x20 ADD PUSH1 0x0 ISZERO ISZERO DUP2 MSTORE PUSH1 0x20 ADD DUP5 DUP5 DUP1 DUP1 PUSH1 0x1F ADD PUSH1 0x20 DUP1 SWAP2 DIV MUL PUSH1 0x20 ADD PUSH1 0x40 MLOAD SWAP1 DUP2 ADD PUSH1 0x40 MSTORE DUP1 SWAP4 SWAP3 SWAP2 SWAP1 DUP2 DUP2 MSTORE PUSH1 0x20 ADD DUP4 DUP4 DUP1 DUP3 DUP5 CALLDATACOPY PUSH1 0x0 DUP2 DUP5 ADD MSTORE PUSH1 0x1F NOT PUSH1 0x1F DUP3 ADD AND SWAP1 POP DUP1 DUP4 ADD SWAP3 POP POP POP POP POP POP POP DUP2 MSTORE POP SWAP1 DUP1 PUSH1 0x1 DUP2 SLOAD ADD DUP1 DUP3 SSTORE DUP1 SWAP2 POP POP PUSH1 0x1 SWAP1 SUB SWAP1 PUSH1 0x0 MSTORE PUSH1 0x20 PUSH1 0x0 KECCAK256 SWAP1 PUSH1 0x4 MUL ADD PUSH1 0x0 SWAP1 SWAP2 SWAP1 SWAP2 SWAP1 SWAP2 POP PUSH1 0x0 DUP3 ADD MLOAD DUP2 PUSH1 0x0 ADD PUSH1 0x0 PUSH2 0x100 EXP DUP2 SLOAD DUP2 PUSH20 0xFFFFFFFFFFFFFFFFFFFFFFFFFFFFFFFFFFFFFFFF MUL NOT AND SWAP1 DUP4 PUSH20 0xFFFFFFFFFFFFFFFFFFFFFFFFFFFFFFFFFFFFFFFF AND MUL OR SWAP1 SSTORE POP PUSH1 0x20 DUP3 ADD MLOAD DUP2 PUSH1 0x1 ADD SSTORE PUSH1 0x40 DUP3 ADD MLOAD DUP2 PUSH1 0x2 ADD PUSH1 0x0 PUSH2 0x100 EXP DUP2 SLOAD DUP2 PUSH1 0xFF MUL NOT AND SWAP1 DUP4 ISZERO ISZERO MUL OR SWAP1 SSTORE POP PUSH1 0x60 DUP3 ADD MLOAD DUP2 PUSH1 0x3 ADD SWAP1 DUP2 PUSH2 0xAA8 SWAP2 SWAP1 PUSH2 0x16DD JUMP JUMPDEST POP POP POP POP POP POP POP JUMP JUMPDEST DUP1 PUSH1 0x1 PUSH1 0x4 DUP1 SLOAD SWAP1 POP PUSH2 0xAC4 SWAP2 SWAP1 PUSH2 0x125B JUMP JUMPDEST DUP2 GT ISZERO PUSH2 0xB06 JUMPI PUSH1 0x40 MLOAD PUSH32 0x8C379A000000000000000000000000000000000000000000000000000000000 DUP2 MSTORE PUSH1 0x4 ADD PUSH2 0xAFD SWAP1 PUSH2 0x12DB JUMP JUMPDEST PUSH1 0x40 MLOAD DUP1 SWAP2 SUB SWAP1 REVERT JUMPDEST PUSH1 0x1 PUSH1 0x0 CALLER PUSH20 0xFFFFFFFFFFFFFFFFFFFFFFFFFFFFFFFFFFFFFFFF AND PUSH20 0xFFFFFFFFFFFFFFFFFFFFFFFFFFFFFFFFFFFFFFFF AND DUP2 MSTORE PUSH1 0x20 ADD SWAP1 DUP2 MSTORE PUSH1 0x20 ADD PUSH1 0x0 KECCAK256 PUSH1 0x0 SWAP1 SLOAD SWAP1 PUSH2 0x100 EXP SWAP1 DIV PUSH1 0xFF AND PUSH2 0xB92 JUMPI PUSH1 0x40 MLOAD PUSH32 0x8C379A000000000000000000000000000000000000000000000000000000000 DUP2 MSTORE PUSH1 0x4 ADD PUSH2 0xB89 SWAP1 PUSH2 0x1347 JUMP JUMPDEST PUSH1 0x40 MLOAD DUP1 SWAP2 SUB SWAP1 REVERT JUMPDEST DUP2 PUSH1 0x0 PUSH1 0x4 DUP3 DUP2 SLOAD DUP2 LT PUSH2 0xBA9 JUMPI PUSH2 0xBA8 PUSH2 0x1367 JUMP JUMPDEST JUMPDEST SWAP1 PUSH1 0x0 MSTORE PUSH1 0x20 PUSH1 0x0 KECCAK256 SWAP1 PUSH1 0x4 MUL ADD PUSH1 0x40 MLOAD DUP1 PUSH1 0x80 ADD PUSH1 0x40 MSTORE SWAP1 DUP2 PUSH1 0x0 DUP3 ADD PUSH1 0x0 SWAP1 SLOAD SWAP1 PUSH2 0x100 EXP SWAP1 DIV PUSH20 0xFFFFFFFFFFFFFFFFFFFFFFFFFFFFFFFFFFFFFFFF AND PUSH20 0xFFFFFFFFFFFFFFFFFFFFFFFFFFFFFFFFFFFFFFFF AND PUSH20 0xFFFFFFFFFFFFFFFFFFFFFFFFFFFFFFFFFFFFFFFF AND DUP2 MSTORE PUSH1 0x20 ADD PUSH1 0x1 DUP3 ADD SLOAD DUP2 MSTORE PUSH1 0x20 ADD PUSH1 0x2 DUP3 ADD PUSH1 0x0 SWAP1 SLOAD SWAP1 PUSH2 0x100 EXP SWAP1 DIV PUSH1 0xFF AND ISZERO ISZERO ISZERO ISZERO DUP2 MSTORE PUSH1 0x20 ADD PUSH1 0x3 DUP3 ADD DUP1 SLOAD PUSH2 0xC4D SWAP1 PUSH2 0x13C5 JUMP JUMPDEST DUP1 PUSH1 0x1F ADD PUSH1 0x20 DUP1 SWAP2 DIV MUL PUSH1 0x20 ADD PUSH1 0x40 MLOAD SWAP1 DUP2 ADD PUSH1 0x40 MSTORE DUP1 SWAP3 SWAP2 SWAP1 DUP2 DUP2 MSTORE PUSH1 0x20 ADD DUP3 DUP1 SLOAD PUSH2 0xC79 SWAP1 PUSH2 0x13C5 JUMP JUMPDEST DUP1 ISZERO PUSH2 0xCC6 JUMPI DUP1 PUSH1 0x1F LT PUSH2 0xC9B JUMPI PUSH2 0x100 DUP1 DUP4 SLOAD DIV MUL DUP4 MSTORE SWAP2 PUSH1 0x20 ADD SWAP2 PUSH2 0xCC6 JUMP JUMPDEST DUP3 ADD SWAP2 SWAP1 PUSH1 0x0 MSTORE PUSH1 0x20 PUSH1 0x0 KECCAK256 SWAP1 JUMPDEST DUP2 SLOAD DUP2 MSTORE SWAP1 PUSH1 0x1 ADD SWAP1 PUSH1 0x20 ADD DUP1 DUP4 GT PUSH2 0xCA9 JUMPI DUP3 SWAP1 SUB PUSH1 0x1F AND DUP3 ADD SWAP2 JUMPDEST POP POP POP POP POP DUP2 MSTORE POP POP SWAP1 POP DUP1 PUSH1 0x40 ADD MLOAD ISZERO PUSH2 0xD16 JUMPI PUSH1 0x40 MLOAD PUSH32 0x8C379A000000000000000000000000000000000000000000000000000000000 DUP2 MSTORE PUSH1 0x4 ADD PUSH2 0xD0D SWAP1 PUSH2 0x1442 JUMP JUMPDEST PUSH1 0x40 MLOAD DUP1 SWAP2 SUB SWAP1 REVERT JUMPDEST PUSH1 0x2 SLOAD PUSH2 0xD22 DUP6 PUSH2 0xE87 JUMP JUMPDEST LT ISZERO PUSH2 0xD63 JUMPI PUSH1 0x40 MLOAD PUSH32 0x8C379A000000000000000000000000000000000000000000000000000000000 DUP2 MSTORE PUSH1 0x4 ADD PUSH2 0xD5A SWAP1 PUSH2 0x17FB JUMP JUMPDEST PUSH1 0x40 MLOAD DUP1 SWAP2 SUB SWAP1 REVERT JUMPDEST PUSH1 0x0 PUSH1 0x4 DUP6 DUP2 SLOAD DUP2 LT PUSH2 0xD79 JUMPI PUSH2 0xD78 PUSH2 0x1367 JUMP JUMPDEST JUMPDEST SWAP1 PUSH1 0x0 MSTORE PUSH1 0x20 PUSH1 0x0 KECCAK256 SWAP1 PUSH1 0x4 MUL ADD SWAP1 POP PUSH1 0x0 DUP2 PUSH1 0x0 ADD PUSH1 0x0 SWAP1 SLOAD SWAP1 PUSH2 0x100 EXP SWAP1 DIV PUSH20 0xFFFFFFFFFFFFFFFFFFFFFFFFFFFFFFFFFFFFFFFF AND PUSH20 0xFFFFFFFFFFFFFFFFFFFFFFFFFFFFFFFFFFFFFFFF AND DUP3 PUSH1 0x1 ADD SLOAD DUP4 PUSH1 0x3 ADD PUSH1 0x40 MLOAD PUSH2 0xDDC SWAP2 SWAP1 PUSH2 0x18A9 JUMP JUMPDEST PUSH1 0x0 PUSH1 0x40 MLOAD DUP1 DUP4 SUB DUP2 DUP6 DUP8 GAS CALL SWAP3 POP POP POP RETURNDATASIZE DUP1 PUSH1 0x0 DUP2 EQ PUSH2 0xE19 JUMPI PUSH1 0x40 MLOAD SWAP2 POP PUSH1 0x1F NOT PUSH1 0x3F RETURNDATASIZE ADD AND DUP3 ADD PUSH1 0x40 MSTORE RETURNDATASIZE DUP3 MSTORE RETURNDATASIZE PUSH1 0x0 PUSH1 0x20 DUP5 ADD RETURNDATACOPY PUSH2 0xE1E JUMP JUMPDEST PUSH1 0x60 SWAP2 POP JUMPDEST POP POP SWAP1 POP DUP1 PUSH2 0xE62 JUMPI PUSH1 0x40 MLOAD PUSH32 0x8C379A000000000000000000000000000000000000000000000000000000000 DUP2 MSTORE PUSH1 0x4 ADD PUSH2 0xE59 SWAP1 PUSH2 0x190C JUMP JUMPDEST PUSH1 0x40 MLOAD DUP1 SWAP2 SUB SWAP1 REVERT JUMPDEST PUSH1 0x1 DUP3 PUSH1 0x2 ADD PUSH1 0x0 PUSH2 0x100 EXP DUP2 SLOAD DUP2 PUSH1 0xFF MUL NOT AND SWAP1 DUP4 ISZERO ISZERO MUL OR SWAP1 SSTORE POP POP POP POP POP POP POP JUMP JUMPDEST PUSH1 0x0 DUP1 JUMPDEST PUSH1 0x0 DUP1 SLOAD SWAP1 POP DUP2 LT ISZERO PUSH2 0xF5B JUMPI PUSH1 0x3 PUSH1 0x0 DUP5 DUP2 MSTORE PUSH1 0x20 ADD SWAP1 DUP2 MSTORE PUSH1 0x20 ADD PUSH1 0x0 KECCAK256 PUSH1 0x0 DUP1 DUP4 DUP2 SLOAD DUP2 LT PUSH2 0xEC0 JUMPI PUSH2 0xEBF PUSH2 0x1367 JUMP JUMPDEST JUMPDEST SWAP1 PUSH1 0x0 MSTORE PUSH1 0x20 PUSH1 0x0 KECCAK256 ADD PUSH1 0x0 SWAP1 SLOAD SWAP1 PUSH2 0x100 EXP SWAP1 DIV PUSH20 0xFFFFFFFFFFFFFFFFFFFFFFFFFFFFFFFFFFFFFFFF AND PUSH20 0xFFFFFFFFFFFFFFFFFFFFFFFFFFFFFFFFFFFFFFFF AND PUSH20 0xFFFFFFFFFFFFFFFFFFFFFFFFFFFFFFFFFFFFFFFF AND DUP2 MSTORE PUSH1 0x20 ADD SWAP1 DUP2 MSTORE PUSH1 0x20 ADD PUSH1 0x0 KECCAK256 PUSH1 0x0 SWAP1 SLOAD SWAP1 PUSH2 0x100 EXP SWAP1 DIV PUSH1 0xFF AND ISZERO PUSH2 0xF48 JUMPI PUSH1 0x1 DUP3 PUSH2 0xF45 SWAP2 SWAP1 PUSH2 0x192C JUMP JUMPDEST SWAP2 POP JUMPDEST DUP1 DUP1 PUSH2 0xF53 SWAP1 PUSH2 0x1960 JUMP JUMPDEST SWAP2 POP POP PUSH2 0xE8B JUMP JUMPDEST POP SWAP2 SWAP1 POP JUMP JUMPDEST PUSH1 0x0 PUSH20 0xFFFFFFFFFFFFFFFFFFFFFFFFFFFFFFFFFFFFFFFF DUP3 AND SWAP1 POP SWAP2 SWAP1 POP JUMP JUMPDEST PUSH1 0x0 PUSH2 0xF8C DUP3 PUSH2 0xF61 JUMP JUMPDEST SWAP1 POP SWAP2 SWAP1 POP JUMP JUMPDEST PUSH2 0xF9C DUP2 PUSH2 0xF81 JUMP JUMPDEST DUP3 MSTORE POP POP JUMP JUMPDEST PUSH1 0x0 DUP2 SWAP1 POP SWAP2 SWAP1 POP JUMP JUMPDEST PUSH2 0xFB5 DUP2 PUSH2 0xFA2 JUMP JUMPDEST DUP3 MSTORE POP POP JUMP JUMPDEST PUSH1 0x0 PUSH1 0x40 DUP3 ADD SWAP1 POP PUSH2 0xFD0 PUSH1 0x0 DUP4 ADD DUP6 PUSH2 0xF93 JUMP JUMPDEST PUSH2 0xFDD PUSH1 0x20 DUP4 ADD DUP5 PUSH2 0xFAC JUMP JUMPDEST SWAP4 SWAP3 POP POP POP JUMP JUMPDEST PUSH1 0x0 DUP1 REVERT JUMPDEST PUSH1 0x0 DUP1 REVERT JUMPDEST PUSH2 0xFF7 DUP2 PUSH2 0xFA2 JUMP JUMPDEST DUP2 EQ PUSH2 0x1002 JUMPI PUSH1 0x0 DUP1 REVERT JUMPDEST POP JUMP JUMPDEST PUSH1 0x0 DUP2 CALLDATALOAD SWAP1 POP PUSH2 0x1014 DUP2 PUSH2 0xFEE JUMP JUMPDEST SWAP3 SWAP2 POP POP JUMP JUMPDEST PUSH1 0x0 PUSH1 0x20 DUP3 DUP5 SUB SLT ISZERO PUSH2 0x1030 JUMPI PUSH2 0x102F PUSH2 0xFE4 JUMP JUMPDEST JUMPDEST PUSH1 0x0 PUSH2 0x103E DUP5 DUP3 DUP6 ADD PUSH2 0x1005 JUMP JUMPDEST SWAP2 POP POP SWAP3 SWAP2 POP POP JUMP JUMPDEST PUSH2 0x1050 DUP2 PUSH2 0xF81 JUMP JUMPDEST DUP2 EQ PUSH2 0x105B JUMPI PUSH1 0x0 DUP1 REVERT JUMPDEST POP JUMP JUMPDEST PUSH1 0x0 DUP2 CALLDATALOAD SWAP1 POP PUSH2 0x106D DUP2 PUSH2 0x1047 JUMP JUMPDEST SWAP3 SWAP2 POP POP JUMP JUMPDEST PUSH1 0x0 PUSH1 0x20 DUP3 DUP5 SUB SLT ISZERO PUSH2 0x1089 JUMPI PUSH2 0x1088 PUSH2 0xFE4 JUMP JUMPDEST JUMPDEST PUSH1 0x0 PUSH2 0x1097 DUP5 DUP3 DUP6 ADD PUSH2 0x105E JUMP JUMPDEST SWAP2 POP POP SWAP3 SWAP2 POP POP JUMP JUMPDEST PUSH1 0x0 DUP2 ISZERO ISZERO SWAP1 POP SWAP2 SWAP1 POP JUMP JUMPDEST PUSH2 0x10B5 DUP2 PUSH2 0x10A0 JUMP JUMPDEST DUP3 MSTORE POP POP JUMP JUMPDEST PUSH1 0x0 PUSH1 0x20 DUP3 ADD SWAP1 POP PUSH2 0x10D0 PUSH1 0x0 DUP4 ADD DUP5 PUSH2 0x10AC JUMP JUMPDEST SWAP3 SWAP2 POP POP JUMP JUMPDEST PUSH1 0x0 DUP1 REVERT JUMPDEST PUSH1 0x0 DUP1 REVERT JUMPDEST PUSH1 0x0 DUP1 REVERT JUMPDEST PUSH1 0x0 DUP1 DUP4 PUSH1 0x1F DUP5 ADD SLT PUSH2 0x10FB JUMPI PUSH2 0x10FA PUSH2 0x10D6 JUMP JUMPDEST JUMPDEST DUP3 CALLDATALOAD SWAP1 POP PUSH8 0xFFFFFFFFFFFFFFFF DUP2 GT ISZERO PUSH2 0x1118 JUMPI PUSH2 0x1117 PUSH2 0x10DB JUMP JUMPDEST JUMPDEST PUSH1 0x20 DUP4 ADD SWAP2 POP DUP4 PUSH1 0x1 DUP3 MUL DUP4 ADD GT ISZERO PUSH2 0x1134 JUMPI PUSH2 0x1133 PUSH2 0x10E0 JUMP JUMPDEST JUMPDEST SWAP3 POP SWAP3 SWAP1 POP JUMP JUMPDEST PUSH1 0x0 DUP1 PUSH1 0x0 DUP1 PUSH1 0x60 DUP6 DUP8 SUB SLT ISZERO PUSH2 0x1155 JUMPI PUSH2 0x1154 PUSH2 0xFE4 JUMP JUMPDEST JUMPDEST PUSH1 0x0 PUSH2 0x1163 DUP8 DUP3 DUP9 ADD PUSH2 0x105E JUMP JUMPDEST SWAP5 POP POP PUSH1 0x20 PUSH2 0x1174 DUP8 DUP3 DUP9 ADD PUSH2 0x1005 JUMP JUMPDEST SWAP4 POP POP PUSH1 0x40 DUP6 ADD CALLDATALOAD PUSH8 0xFFFFFFFFFFFFFFFF DUP2 GT ISZERO PUSH2 0x1195 JUMPI PUSH2 0x1194 PUSH2 0xFE9 JUMP JUMPDEST JUMPDEST PUSH2 0x11A1 DUP8 DUP3 DUP9 ADD PUSH2 0x10E5 JUMP JUMPDEST SWAP3 POP SWAP3 POP POP SWAP3 SWAP6 SWAP2 SWAP5 POP SWAP3 POP JUMP JUMPDEST PUSH1 0x0 DUP3 DUP3 MSTORE PUSH1 0x20 DUP3 ADD SWAP1 POP SWAP3 SWAP2 POP POP JUMP JUMPDEST PUSH32 0x5472616E73616374696F6E20416C726561647920417070726F7665642E2E2E00 PUSH1 0x0 DUP3 ADD MSTORE POP JUMP JUMPDEST PUSH1 0x0 PUSH2 0x11F6 PUSH1 0x1F DUP4 PUSH2 0x11AF JUMP JUMPDEST SWAP2 POP PUSH2 0x1201 DUP3 PUSH2 0x11C0 JUMP JUMPDEST PUSH1 0x20 DUP3 ADD SWAP1 POP SWAP2 SWAP1 POP JUMP JUMPDEST PUSH1 0x0 PUSH1 0x20 DUP3 ADD SWAP1 POP DUP2 DUP2 SUB PUSH1 0x0 DUP4 ADD MSTORE PUSH2 0x1225 DUP2 PUSH2 0x11E9 JUMP JUMPDEST SWAP1 POP SWAP2 SWAP1 POP JUMP JUMPDEST PUSH32 0x4E487B7100000000000000000000000000000000000000000000000000000000 PUSH1 0x0 MSTORE PUSH1 0x11 PUSH1 0x4 MSTORE PUSH1 0x24 PUSH1 0x0 REVERT JUMPDEST PUSH1 0x0 PUSH2 0x1266 DUP3 PUSH2 0xFA2 JUMP JUMPDEST SWAP2 POP PUSH2 0x1271 DUP4 PUSH2 0xFA2 JUMP JUMPDEST SWAP3 POP DUP3 DUP3 SUB SWAP1 POP DUP2 DUP2 GT ISZERO PUSH2 0x1289 JUMPI PUSH2 0x1288 PUSH2 0x122C JUMP JUMPDEST JUMPDEST SWAP3 SWAP2 POP POP JUMP JUMPDEST PUSH32 0x5472616E73616374696F6E20446F6573206E6F742045786973742E2E2E000000 PUSH1 0x0 DUP3 ADD MSTORE POP JUMP JUMPDEST PUSH1 0x0 PUSH2 0x12C5 PUSH1 0x1D DUP4 PUSH2 0x11AF JUMP JUMPDEST SWAP2 POP PUSH2 0x12D0 DUP3 PUSH2 0x128F JUMP JUMPDEST PUSH1 0x20 DUP3 ADD SWAP1 POP SWAP2 SWAP1 POP JUMP JUMPDEST PUSH1 0x0 PUSH1 0x20 DUP3 ADD SWAP1 POP DUP2 DUP2 SUB PUSH1 0x0 DUP4 ADD MSTORE PUSH2 0x12F4 DUP2 PUSH2 0x12B8 JUMP JUMPDEST SWAP1 POP SWAP2 SWAP1 POP JUMP JUMPDEST PUSH32 0x4E6F7420746865204F776E65722E2E2E2E000000000000000000000000000000 PUSH1 0x0 DUP3 ADD MSTORE POP JUMP JUMPDEST PUSH1 0x0 PUSH2 0x1331 PUSH1 0x11 DUP4 PUSH2 0x11AF JUMP JUMPDEST SWAP2 POP PUSH2 0x133C DUP3 PUSH2 0x12FB JUMP JUMPDEST PUSH1 0x20 DUP3 ADD SWAP1 POP SWAP2 SWAP1 POP JUMP JUMPDEST PUSH1 0x0 PUSH1 0x20 DUP3 ADD SWAP1 POP DUP2 DUP2 SUB PUSH1 0x0 DUP4 ADD MSTORE PUSH2 0x1360 DUP2 PUSH2 0x1324 JUMP JUMPDEST SWAP1 POP SWAP2 SWAP1 POP JUMP JUMPDEST PUSH32 0x4E487B7100000000000000000000000000000000000000000000000000000000 PUSH1 0x0 MSTORE PUSH1 0x32 PUSH1 0x4 MSTORE PUSH1 0x24 PUSH1 0x0 REVERT JUMPDEST PUSH32 0x4E487B7100000000000000000000000000000000000000000000000000000000 PUSH1 0x0 MSTORE PUSH1 0x22 PUSH1 0x4 MSTORE PUSH1 0x24 PUSH1 0x0 REVERT JUMPDEST PUSH1 0x0 PUSH1 0x2 DUP3 DIV SWAP1 POP PUSH1 0x1 DUP3 AND DUP1 PUSH2 0x13DD JUMPI PUSH1 0x7F DUP3 AND SWAP2 POP JUMPDEST PUSH1 0x20 DUP3 LT DUP2 SUB PUSH2 0x13F0 JUMPI PUSH2 0x13EF PUSH2 0x1396 JUMP JUMPDEST JUMPDEST POP SWAP2 SWAP1 POP JUMP JUMPDEST PUSH32 0x5472616E73616374696F6E20416C726561647920457865637574656400000000 PUSH1 0x0 DUP3 ADD MSTORE POP JUMP JUMPDEST PUSH1 0x0 PUSH2 0x142C PUSH1 0x1C DUP4 PUSH2 0x11AF JUMP JUMPDEST SWAP2 POP PUSH2 0x1437 DUP3 PUSH2 0x13F6 JUMP JUMPDEST PUSH1 0x20 DUP3 ADD SWAP1 POP SWAP2 SWAP1 POP JUMP JUMPDEST PUSH1 0x0 PUSH1 0x20 DUP3 ADD SWAP1 POP DUP2 DUP2 SUB PUSH1 0x0 DUP4 ADD MSTORE PUSH2 0x145B DUP2 PUSH2 0x141F JUMP JUMPDEST SWAP1 POP SWAP2 SWAP1 POP JUMP JUMPDEST PUSH1 0x0 PUSH1 0x40 DUP3 ADD SWAP1 POP PUSH2 0x1477 PUSH1 0x0 DUP4 ADD DUP6 PUSH2 0xFAC JUMP JUMPDEST PUSH2 0x1484 PUSH1 0x20 DUP4 ADD DUP5 PUSH2 0xF93 JUMP JUMPDEST SWAP4 SWAP3 POP POP POP JUMP JUMPDEST PUSH32 0x5472616E73616374696F6E204E6F7420417070726F7665642E2E2E0000000000 PUSH1 0x0 DUP3 ADD MSTORE POP JUMP JUMPDEST PUSH1 0x0 PUSH2 0x14C1 PUSH1 0x1B DUP4 PUSH2 0x11AF JUMP JUMPDEST SWAP2 POP PUSH2 0x14CC DUP3 PUSH2 0x148B JUMP JUMPDEST PUSH1 0x20 DUP3 ADD SWAP1 POP SWAP2 SWAP1 POP JUMP JUMPDEST PUSH1 0x0 PUSH1 0x20 DUP3 ADD SWAP1 POP DUP2 DUP2 SUB PUSH1 0x0 DUP4 ADD MSTORE PUSH2 0x14F0 DUP2 PUSH2 0x14B4 JUMP JUMPDEST SWAP1 POP SWAP2 SWAP1 POP JUMP JUMPDEST PUSH1 0x0 DUP2 MLOAD SWAP1 POP SWAP2 SWAP1 POP JUMP JUMPDEST PUSH32 0x4E487B7100000000000000000000000000000000000000000000000000000000 PUSH1 0x0 MSTORE PUSH1 0x41 PUSH1 0x4 MSTORE PUSH1 0x24 PUSH1 0x0 REVERT JUMPDEST PUSH1 0x0 DUP2 SWAP1 POP DUP2 PUSH1 0x0 MSTORE PUSH1 0x20 PUSH1 0x0 KECCAK256 SWAP1 POP SWAP2 SWAP1 POP JUMP JUMPDEST PUSH1 0x0 PUSH1 0x20 PUSH1 0x1F DUP4 ADD DIV SWAP1 POP SWAP2 SWAP1 POP JUMP JUMPDEST PUSH1 0x0 DUP3 DUP3 SHL SWAP1 POP SWAP3 SWAP2 POP POP JUMP JUMPDEST PUSH1 0x0 PUSH1 0x8 DUP4 MUL PUSH2 0x1593 PUSH32 0xFFFFFFFFFFFFFFFFFFFFFFFFFFFFFFFFFFFFFFFFFFFFFFFFFFFFFFFFFFFFFFFF DUP3 PUSH2 0x1556 JUMP JUMPDEST PUSH2 0x159D DUP7 DUP4 PUSH2 0x1556 JUMP JUMPDEST SWAP6 POP DUP1 NOT DUP5 AND SWAP4 POP DUP1 DUP7 AND DUP5 OR SWAP3 POP POP POP SWAP4 SWAP3 POP POP POP JUMP JUMPDEST PUSH1 0x0 DUP2 SWAP1 POP SWAP2 SWAP1 POP JUMP JUMPDEST PUSH1 0x0 PUSH2 0x15DA PUSH2 0x15D5 PUSH2 0x15D0 DUP5 PUSH2 0xFA2 JUMP JUMPDEST PUSH2 0x15B5 JUMP JUMPDEST PUSH2 0xFA2 JUMP JUMPDEST SWAP1 POP SWAP2 SWAP1 POP JUMP JUMPDEST PUSH1 0x0 DUP2 SWAP1 POP SWAP2 SWAP1 POP JUMP JUMPDEST PUSH2 0x15F4 DUP4 PUSH2 0x15BF JUMP JUMPDEST PUSH2 0x1608 PUSH2 0x1600 DUP3 PUSH2 0x15E1 JUMP JUMPDEST DUP5 DUP5 SLOAD PUSH2 0x1563 JUMP JUMPDEST DUP3 SSTORE POP POP POP POP JUMP JUMPDEST PUSH1 0x0 SWAP1 JUMP JUMPDEST PUSH2 0x161D PUSH2 0x1610 JUMP JUMPDEST PUSH2 0x1628 DUP2 DUP5 DUP5 PUSH2 0x15EB JUMP JUMPDEST POP POP POP JUMP JUMPDEST JUMPDEST DUP2 DUP2 LT ISZERO PUSH2 0x164C JUMPI PUSH2 0x1641 PUSH1 0x0 DUP3 PUSH2 0x1615 JUMP JUMPDEST PUSH1 0x1 DUP2 ADD SWAP1 POP PUSH2 0x162E JUMP JUMPDEST POP POP JUMP JUMPDEST PUSH1 0x1F DUP3 GT ISZERO PUSH2 0x1691 JUMPI PUSH2 0x1662 DUP2 PUSH2 0x1531 JUMP JUMPDEST PUSH2 0x166B DUP5 PUSH2 0x1546 JUMP JUMPDEST DUP2 ADD PUSH1 0x20 DUP6 LT ISZERO PUSH2 0x167A JUMPI DUP2 SWAP1 POP JUMPDEST PUSH2 0x168E PUSH2 0x1686 DUP6 PUSH2 0x1546 JUMP JUMPDEST DUP4 ADD DUP3 PUSH2 0x162D JUMP JUMPDEST POP POP JUMPDEST POP POP POP JUMP JUMPDEST PUSH1 0x0 DUP3 DUP3 SHR SWAP1 POP SWAP3 SWAP2 POP POP JUMP JUMPDEST PUSH1 0x0 PUSH2 0x16B4 PUSH1 0x0 NOT DUP5 PUSH1 0x8 MUL PUSH2 0x1696 JUMP JUMPDEST NOT DUP1 DUP4 AND SWAP2 POP POP SWAP3 SWAP2 POP POP JUMP JUMPDEST PUSH1 0x0 PUSH2 0x16CD DUP4 DUP4 PUSH2 0x16A3 JUMP JUMPDEST SWAP2 POP DUP3 PUSH1 0x2 MUL DUP3 OR SWAP1 POP SWAP3 SWAP2 POP POP JUMP JUMPDEST PUSH2 0x16E6 DUP3 PUSH2 0x14F7 JUMP JUMPDEST PUSH8 0xFFFFFFFFFFFFFFFF DUP2 GT ISZERO PUSH2 0x16FF JUMPI PUSH2 0x16FE PUSH2 0x1502 JUMP JUMPDEST JUMPDEST PUSH2 0x1709 DUP3 SLOAD PUSH2 0x13C5 JUMP JUMPDEST PUSH2 0x1714 DUP3 DUP3 DUP6 PUSH2 0x1650 JUMP JUMPDEST PUSH1 0x0 PUSH1 0x20 SWAP1 POP PUSH1 0x1F DUP4 GT PUSH1 0x1 DUP2 EQ PUSH2 0x1747 JUMPI PUSH1 0x0 DUP5 ISZERO PUSH2 0x1735 JUMPI DUP3 DUP8 ADD MLOAD SWAP1 POP JUMPDEST PUSH2 0x173F DUP6 DUP3 PUSH2 0x16C1 JUMP JUMPDEST DUP7 SSTORE POP PUSH2 0x17A7 JUMP JUMPDEST PUSH1 0x1F NOT DUP5 AND PUSH2 0x1755 DUP7 PUSH2 0x1531 JUMP JUMPDEST PUSH1 0x0 JUMPDEST DUP3 DUP2 LT ISZERO PUSH2 0x177D JUMPI DUP5 DUP10 ADD MLOAD DUP3 SSTORE PUSH1 0x1 DUP3 ADD SWAP2 POP PUSH1 0x20 DUP6 ADD SWAP5 POP PUSH1 0x20 DUP2 ADD SWAP1 POP PUSH2 0x1758 JUMP JUMPDEST DUP7 DUP4 LT ISZERO PUSH2 0x179A JUMPI DUP5 DUP10 ADD MLOAD PUSH2 0x1796 PUSH1 0x1F DUP10 AND DUP3 PUSH2 0x16A3 JUMP JUMPDEST DUP4 SSTORE POP JUMPDEST PUSH1 0x1 PUSH1 0x2 DUP9 MUL ADD DUP9 SSTORE POP POP POP JUMPDEST POP POP POP POP POP POP JUMP JUMPDEST PUSH32 0x4E6F7420456E6F75676820417070726F76616C732E2E2E000000000000000000 PUSH1 0x0 DUP3 ADD MSTORE POP JUMP JUMPDEST PUSH1 0x0 PUSH2 0x17E5 PUSH1 0x17 DUP4 PUSH2 0x11AF JUMP JUMPDEST SWAP2 POP PUSH2 0x17F0 DUP3 PUSH2 0x17AF JUMP JUMPDEST PUSH1 0x20 DUP3 ADD SWAP1 POP SWAP2 SWAP1 POP JUMP JUMPDEST PUSH1 0x0 PUSH1 0x20 DUP3 ADD SWAP1 POP DUP2 DUP2 SUB PUSH1 0x0 DUP4 ADD MSTORE PUSH2 0x1814 DUP2 PUSH2 0x17D8 JUMP JUMPDEST SWAP1 POP SWAP2 SWAP1 POP JUMP JUMPDEST PUSH1 0x0 DUP2 SWAP1 POP SWAP3 SWAP2 POP POP JUMP JUMPDEST PUSH1 0x0 DUP2 SLOAD PUSH2 0x1833 DUP2 PUSH2 0x13C5 JUMP JUMPDEST PUSH2 0x183D DUP2 DUP7 PUSH2 0x181B JUMP JUMPDEST SWAP5 POP PUSH1 0x1 DUP3 AND PUSH1 0x0 DUP2 EQ PUSH2 0x1858 JUMPI PUSH1 0x1 DUP2 EQ PUSH2 0x186D JUMPI PUSH2 0x18A0 JUMP JUMPDEST PUSH1 0xFF NOT DUP4 AND DUP7 MSTORE DUP2 ISZERO ISZERO DUP3 MUL DUP7 ADD SWAP4 POP PUSH2 0x18A0 JUMP JUMPDEST PUSH2 0x1876 DUP6 PUSH2 0x1531 JUMP JUMPDEST PUSH1 0x0 JUMPDEST DUP4 DUP2 LT ISZERO PUSH2 0x1898 JUMPI DUP2 SLOAD DUP2 DUP10 ADD MSTORE PUSH1 0x1 DUP3 ADD SWAP2 POP PUSH1 0x20 DUP2 ADD SWAP1 POP PUSH2 0x1879 JUMP JUMPDEST DUP4 DUP9 ADD SWAP6 POP POP POP JUMPDEST POP POP POP SWAP3 SWAP2 POP POP JUMP JUMPDEST PUSH1 0x0 PUSH2 0x18B5 DUP3 DUP5 PUSH2 0x1826 JUMP JUMPDEST SWAP2 POP DUP2 SWAP1 POP SWAP3 SWAP2 POP POP JUMP JUMPDEST PUSH32 0x5472616E73616374696F6E20496E636F6D706C65746500000000000000000000 PUSH1 0x0 DUP3 ADD MSTORE POP JUMP JUMPDEST PUSH1 0x0 PUSH2 0x18F6 PUSH1 0x16 DUP4 PUSH2 0x11AF JUMP JUMPDEST SWAP2 POP PUSH2 0x1901 DUP3 PUSH2 0x18C0 JUMP JUMPDEST PUSH1 0x20 DUP3 ADD SWAP1 POP SWAP2 SWAP1 POP JUMP JUMPDEST PUSH1 0x0 PUSH1 0x20 DUP3 ADD SWAP1 POP DUP2 DUP2 SUB PUSH1 0x0 DUP4 ADD MSTORE PUSH2 0x1925 DUP2 PUSH2 0x18E9 JUMP JUMPDEST SWAP1 POP SWAP2 SWAP1 POP JUMP JUMPDEST PUSH1 0x0 PUSH2 0x1937 DUP3 PUSH2 0xFA2 JUMP JUMPDEST SWAP2 POP PUSH2 0x1942 DUP4 PUSH2 0xFA2 JUMP JUMPDEST SWAP3 POP DUP3 DUP3 ADD SWAP1 POP DUP1 DUP3 GT ISZERO PUSH2 0x195A JUMPI PUSH2 0x1959 PUSH2 0x122C JUMP JUMPDEST JUMPDEST SWAP3 SWAP2 POP POP JUMP JUMPDEST PUSH1 0x0 PUSH2 0x196B DUP3 PUSH2 0xFA2 JUMP JUMPDEST SWAP2 POP PUSH32 0xFFFFFFFFFFFFFFFFFFFFFFFFFFFFFFFFFFFFFFFFFFFFFFFFFFFFFFFFFFFFFFFF DUP3 SUB PUSH2 0x199D JUMPI PUSH2 0x199C PUSH2 0x122C JUMP JUMPDEST JUMPDEST PUSH1 0x1 DUP3 ADD SWAP1 POP SWAP2 SWAP1 POP JUMP INVALID LOG2 PUSH5 0x6970667358 0x22 SLT KECCAK256 0xE8 0x4F CALLDATASIZE 0xDF 0xE8 0xE9 0xD 0xD7 0xDF 0xB3 SUB LOG0 DUP5 SWAP15 0xB5 0xDA PUSH23 0x9BE582A2BCB79ECB9BF463BA0158BC64736F6C63430008 LT STOP CALLER "
				},
				"gasEstimates": {
					"creation": {
						"codeDepositCost": "1324400",
						"executionCost": "infinite",
						"totalCost": "infinite"
					},
					"external": {
						"approveTransaction(uint256)": "infinite",
						"executeTransaction(uint256)": "infinite",
						"isOwner(address)": "2845",
						"makeTransaction(address,uint256,bytes)": "infinite",
						"revokeApproval(uint256)": "infinite"
					},
					"internal": {
						"canExec(uint256)": "infinite"
					}
				},
				"methodIdentifiers": {
					"approveTransaction(uint256)": "242232d1",
					"executeTransaction(uint256)": "ee22610b",
					"isOwner(address)": "2f54bf6e",
					"makeTransaction(address,uint256,bytes)": "c0c64a49",
					"revokeApproval(uint256)": "b1e130fc"
				}
			},
			"storageLayout": {
				"storage": [
					{
						"astId": 22,
						"contract": "contracts/MultiSigWallet.sol:MultiSigWallet",
						"label": "owners",
						"offset": 0,
						"slot": "0",
						"type": "t_array(t_address)dyn_storage"
					},
					{
						"astId": 26,
						"contract": "contracts/MultiSigWallet.sol:MultiSigWallet",
						"label": "isOwner",
						"offset": 0,
						"slot": "1",
						"type": "t_mapping(t_address,t_bool)"
					},
					{
						"astId": 28,
						"contract": "contracts/MultiSigWallet.sol:MultiSigWallet",
						"label": "required",
						"offset": 0,
						"slot": "2",
						"type": "t_uint256"
					},
					{
						"astId": 34,
						"contract": "contracts/MultiSigWallet.sol:MultiSigWallet",
						"label": "approval",
						"offset": 0,
						"slot": "3",
						"type": "t_mapping(t_uint256,t_mapping(t_address,t_bool))"
					},
					{
						"astId": 47,
						"contract": "contracts/MultiSigWallet.sol:MultiSigWallet",
						"label": "transactions",
						"offset": 0,
						"slot": "4",
						"type": "t_array(t_struct(Transaction)43_storage)dyn_storage"
					}
				],
				"types": {
					"t_address": {
						"encoding": "inplace",
						"label": "address",
						"numberOfBytes": "20"
					},
					"t_array(t_address)dyn_storage": {
						"base": "t_address",
						"encoding": "dynamic_array",
						"label": "address[]",
						"numberOfBytes": "32"
					},
					"t_array(t_struct(Transaction)43_storage)dyn_storage": {
						"base": "t_struct(Transaction)43_storage",
						"encoding": "dynamic_array",
						"label": "struct MultiSigWallet.Transaction[]",
						"numberOfBytes": "32"
					},
					"t_bool": {
						"encoding": "inplace",
						"label": "bool",
						"numberOfBytes": "1"
					},
					"t_bytes_storage": {
						"encoding": "bytes",
						"label": "bytes",
						"numberOfBytes": "32"
					},
					"t_mapping(t_address,t_bool)": {
						"encoding": "mapping",
						"key": "t_address",
						"label": "mapping(address => bool)",
						"numberOfBytes": "32",
						"value": "t_bool"
					},
					"t_mapping(t_uint256,t_mapping(t_address,t_bool))": {
						"encoding": "mapping",
						"key": "t_uint256",
						"label": "mapping(uint256 => mapping(address => bool))",
						"numberOfBytes": "32",
						"value": "t_mapping(t_address,t_bool)"
					},
					"t_struct(Transaction)43_storage": {
						"encoding": "inplace",
						"label": "struct MultiSigWallet.Transaction",
						"members": [
							{
								"astId": 36,
								"contract": "contracts/MultiSigWallet.sol:MultiSigWallet",
								"label": "to",
								"offset": 0,
								"slot": "0",
								"type": "t_address"
							},
							{
								"astId": 38,
								"contract": "contracts/MultiSigWallet.sol:MultiSigWallet",
								"label": "value",
								"offset": 0,
								"slot": "1",
								"type": "t_uint256"
							},
							{
								"astId": 40,
								"contract": "contracts/MultiSigWallet.sol:MultiSigWallet",
								"label": "executed",
								"offset": 0,
								"slot": "2",
								"type": "t_bool"
							},
							{
								"astId": 42,
								"contract": "contracts/MultiSigWallet.sol:MultiSigWallet",
								"label": "data",
								"offset": 0,
								"slot": "3",
								"type": "t_bytes_storage"
							}
						],
						"numberOfBytes": "128"
					},
					"t_uint256": {
						"encoding": "inplace",
						"label": "uint256",
						"numberOfBytes": "32"
					}
				}
			},
			"userdoc": {
				"kind": "user",
				"methods": {},
				"version": 1
			}
		}
	}
}