{
	"contracts/MultiSigWallet.sol": {
		"MultiSigWallet": {
			"abi": [
				{
					"inputs": [
						{
							"internalType": "address[]",
							"name": "_owners",
							"type": "address[]"
						},
						{
							"internalType": "uint256",
							"name": "_required",
							"type": "uint256"
						}
					],
					"stateMutability": "nonpayable",
					"type": "constructor"
				},
				{
					"anonymous": false,
					"inputs": [
						{
							"indexed": false,
							"internalType": "uint256",
							"name": "",
							"type": "uint256"
						},
						{
							"indexed": false,
							"internalType": "address",
							"name": "",
							"type": "address"
						}
					],
					"name": "Approve",
					"type": "event"
				},
				{
					"anonymous": false,
					"inputs": [
						{
							"indexed": false,
							"internalType": "address",
							"name": "",
							"type": "address"
						},
						{
							"indexed": false,
							"internalType": "uint256",
							"name": "",
							"type": "uint256"
						}
					],
					"name": "Deposit",
					"type": "event"
				},
				{
					"anonymous": false,
					"inputs": [
						{
							"indexed": false,
							"internalType": "uint256",
							"name": "",
							"type": "uint256"
						},
						{
							"indexed": false,
							"internalType": "address",
							"name": "",
							"type": "address"
						}
					],
					"name": "Revoke",
					"type": "event"
				},
				{
					"inputs": [
						{
							"internalType": "uint256",
							"name": "_txId",
							"type": "uint256"
						}
					],
					"name": "approveTransaction",
					"outputs": [],
					"stateMutability": "nonpayable",
					"type": "function"
				},
				{
					"inputs": [
						{
							"internalType": "uint256",
							"name": "_txId",
							"type": "uint256"
						}
					],
					"name": "executeTransaction",
					"outputs": [],
					"stateMutability": "nonpayable",
					"type": "function"
				},
				{
					"inputs": [
						{
							"internalType": "address",
							"name": "",
							"type": "address"
						}
					],
					"name": "isOwner",
					"outputs": [
						{
							"internalType": "bool",
							"name": "",
							"type": "bool"
						}
					],
					"stateMutability": "view",
					"type": "function"
				},
				{
					"inputs": [
						{
							"internalType": "address",
							"name": "_to",
							"type": "address"
						},
						{
							"internalType": "uint256",
							"name": "_value",
							"type": "uint256"
						},
						{
							"internalType": "bytes",
							"name": "_data",
							"type": "bytes"
						}
					],
					"name": "makeTransaction",
					"outputs": [],
					"stateMutability": "nonpayable",
					"type": "function"
				},
				{
					"inputs": [
						{
							"internalType": "uint256",
							"name": "_txId",
							"type": "uint256"
						}
					],
					"name": "revokeApproval",
					"outputs": [],
					"stateMutability": "nonpayable",
					"type": "function"
				},
				{
					"inputs": [
						{
							"internalType": "uint256",
							"name": "",
							"type": "uint256"
						}
					],
					"name": "transactions",
					"outputs": [
						{
							"internalType": "address",
							"name": "to",
							"type": "address"
						},
						{
							"internalType": "uint256",
							"name": "value",
							"type": "uint256"
						},
						{
							"internalType": "bool",
							"name": "executed",
							"type": "bool"
						},
						{
							"internalType": "bytes",
							"name": "data",
							"type": "bytes"
						}
					],
					"stateMutability": "view",
					"type": "function"
				},
				{
					"stateMutability": "payable",
					"type": "receive"
				}
			],
			"devdoc": {
				"kind": "dev",
				"methods": {},
				"version": 1
			},
			"evm": {
				"assembly": "    /* \"contracts/MultiSigWallet.sol\":69:2953  contract MultiSigWallet{... */\n  mstore(0x40, 0x80)\n    /* \"contracts/MultiSigWallet.sol\":542:866  constructor(address[] memory _owners, uint _required) {... */\n  callvalue\n  dup1\n  iszero\n  tag_1\n  jumpi\n  0x00\n  dup1\n  revert\ntag_1:\n  pop\n  mload(0x40)\n  sub(codesize, bytecodeSize)\n  dup1\n  bytecodeSize\n  dup4\n  codecopy\n  dup2\n  dup2\n  add\n  0x40\n  mstore\n  dup2\n  add\n  swap1\n  tag_2\n  swap2\n  swap1\n  tag_3\n  jump\t// in\ntag_2:\n    /* \"contracts/MultiSigWallet.sol\":611:617  uint i */\n  0x00\n    /* \"contracts/MultiSigWallet.sol\":607:828  for(uint i=0; i < _owners.length; i++){... */\ntag_6:\n    /* \"contracts/MultiSigWallet.sol\":625:632  _owners */\n  dup3\n    /* \"contracts/MultiSigWallet.sol\":625:639  _owners.length */\n  mload\n    /* \"contracts/MultiSigWallet.sol\":621:622  i */\n  dup2\n    /* \"contracts/MultiSigWallet.sol\":621:639  i < _owners.length */\n  lt\n    /* \"contracts/MultiSigWallet.sol\":607:828  for(uint i=0; i < _owners.length; i++){... */\n  iszero\n  tag_7\n  jumpi\n    /* \"contracts/MultiSigWallet.sol\":660:673  address owner */\n  0x00\n    /* \"contracts/MultiSigWallet.sol\":676:683  _owners */\n  dup4\n    /* \"contracts/MultiSigWallet.sol\":684:685  i */\n  dup3\n    /* \"contracts/MultiSigWallet.sol\":676:686  _owners[i] */\n  dup2\n  mload\n  dup2\n  lt\n  tag_9\n  jumpi\n  tag_10\n  tag_11\n  jump\t// in\ntag_10:\ntag_9:\n  0x20\n  mul\n  0x20\n  add\n  add\n  mload\n    /* \"contracts/MultiSigWallet.sol\":660:686  address owner = _owners[i] */\n  swap1\n  pop\n    /* \"contracts/MultiSigWallet.sol\":712:719  isOwner */\n  0x01\n    /* \"contracts/MultiSigWallet.sol\":712:726  isOwner[owner] */\n  0x00\n    /* \"contracts/MultiSigWallet.sol\":720:725  owner */\n  dup3\n    /* \"contracts/MultiSigWallet.sol\":712:726  isOwner[owner] */\n  0xffffffffffffffffffffffffffffffffffffffff\n  and\n  0xffffffffffffffffffffffffffffffffffffffff\n  and\n  dup2\n  mstore\n  0x20\n  add\n  swap1\n  dup2\n  mstore\n  0x20\n  add\n  0x00\n  keccak256\n  0x00\n  swap1\n  sload\n  swap1\n  0x0100\n  exp\n  swap1\n  div\n  0xff\n  and\n    /* \"contracts/MultiSigWallet.sol\":711:726  !isOwner[owner] */\n  iszero\n    /* \"contracts/MultiSigWallet.sol\":703:747  require(!isOwner[owner],\"Already Exists...\") */\n  tag_12\n  jumpi\n  mload(0x40)\n  0x08c379a000000000000000000000000000000000000000000000000000000000\n  dup2\n  mstore\n  0x04\n  add\n  tag_13\n  swap1\n  tag_14\n  jump\t// in\ntag_13:\n  mload(0x40)\n  dup1\n  swap2\n  sub\n  swap1\n  revert\ntag_12:\n    /* \"contracts/MultiSigWallet.sol\":762:768  owners */\n  0x00\n    /* \"contracts/MultiSigWallet.sol\":774:779  owner */\n  dup2\n    /* \"contracts/MultiSigWallet.sol\":762:780  owners.push(owner) */\n  swap1\n  dup1\n  0x01\n  dup2\n  sload\n  add\n  dup1\n  dup3\n  sstore\n  dup1\n  swap2\n  pop\n  pop\n  0x01\n  swap1\n  sub\n  swap1\n  0x00\n  mstore\n  keccak256(0x00, 0x20)\n  add\n  0x00\n  swap1\n  swap2\n  swap1\n  swap2\n  swap1\n  swap2\n  0x0100\n  exp\n  dup2\n  sload\n  dup2\n  0xffffffffffffffffffffffffffffffffffffffff\n  mul\n  not\n  and\n  swap1\n  dup4\n  0xffffffffffffffffffffffffffffffffffffffff\n  and\n  mul\n  or\n  swap1\n  sstore\n  pop\n    /* \"contracts/MultiSigWallet.sol\":812:816  true */\n  0x01\n    /* \"contracts/MultiSigWallet.sol\":795:802  isOwner */\n  dup1\n    /* \"contracts/MultiSigWallet.sol\":795:809  isOwner[owner] */\n  0x00\n    /* \"contracts/MultiSigWallet.sol\":803:808  owner */\n  dup4\n    /* \"contracts/MultiSigWallet.sol\":795:809  isOwner[owner] */\n  0xffffffffffffffffffffffffffffffffffffffff\n  and\n  0xffffffffffffffffffffffffffffffffffffffff\n  and\n  dup2\n  mstore\n  0x20\n  add\n  swap1\n  dup2\n  mstore\n  0x20\n  add\n  0x00\n  keccak256\n  0x00\n    /* \"contracts/MultiSigWallet.sol\":795:816  isOwner[owner] = true */\n  0x0100\n  exp\n  dup2\n  sload\n  dup2\n  0xff\n  mul\n  not\n  and\n  swap1\n  dup4\n  iszero\n  iszero\n  mul\n  or\n  swap1\n  sstore\n  pop\n    /* \"contracts/MultiSigWallet.sol\":645:828  {... */\n  pop\n    /* \"contracts/MultiSigWallet.sol\":641:644  i++ */\n  dup1\n  dup1\n  tag_16\n  swap1\n  tag_17\n  jump\t// in\ntag_16:\n  swap2\n  pop\n  pop\n    /* \"contracts/MultiSigWallet.sol\":607:828  for(uint i=0; i < _owners.length; i++){... */\n  jump(tag_6)\ntag_7:\n  pop\n    /* \"contracts/MultiSigWallet.sol\":849:858  _required */\n  dup1\n    /* \"contracts/MultiSigWallet.sol\":838:846  required */\n  0x02\n    /* \"contracts/MultiSigWallet.sol\":838:858  required = _required */\n  dup2\n  swap1\n  sstore\n  pop\n    /* \"contracts/MultiSigWallet.sol\":542:866  constructor(address[] memory _owners, uint _required) {... */\n  pop\n  pop\n    /* \"contracts/MultiSigWallet.sol\":69:2953  contract MultiSigWallet{... */\n  jump(tag_18)\n    /* \"#utility.yul\":7:82   */\ntag_19:\n    /* \"#utility.yul\":40:46   */\n  0x00\n    /* \"#utility.yul\":73:75   */\n  0x40\n    /* \"#utility.yul\":67:76   */\n  mload\n    /* \"#utility.yul\":57:76   */\n  swap1\n  pop\n    /* \"#utility.yul\":7:82   */\n  swap1\n  jump\t// out\n    /* \"#utility.yul\":88:205   */\ntag_20:\n    /* \"#utility.yul\":197:198   */\n  0x00\n    /* \"#utility.yul\":194:195   */\n  dup1\n    /* \"#utility.yul\":187:199   */\n  revert\n    /* \"#utility.yul\":211:328   */\ntag_21:\n    /* \"#utility.yul\":320:321   */\n  0x00\n    /* \"#utility.yul\":317:318   */\n  dup1\n    /* \"#utility.yul\":310:322   */\n  revert\n    /* \"#utility.yul\":334:451   */\ntag_22:\n    /* \"#utility.yul\":443:444   */\n  0x00\n    /* \"#utility.yul\":440:441   */\n  dup1\n    /* \"#utility.yul\":433:445   */\n  revert\n    /* \"#utility.yul\":457:559   */\ntag_23:\n    /* \"#utility.yul\":498:504   */\n  0x00\n    /* \"#utility.yul\":549:551   */\n  0x1f\n    /* \"#utility.yul\":545:552   */\n  not\n    /* \"#utility.yul\":540:542   */\n  0x1f\n    /* \"#utility.yul\":533:538   */\n  dup4\n    /* \"#utility.yul\":529:543   */\n  add\n    /* \"#utility.yul\":525:553   */\n  and\n    /* \"#utility.yul\":515:553   */\n  swap1\n  pop\n    /* \"#utility.yul\":457:559   */\n  swap2\n  swap1\n  pop\n  jump\t// out\n    /* \"#utility.yul\":565:745   */\ntag_24:\n    /* \"#utility.yul\":613:690   */\n  0x4e487b7100000000000000000000000000000000000000000000000000000000\n    /* \"#utility.yul\":610:611   */\n  0x00\n    /* \"#utility.yul\":603:691   */\n  mstore\n    /* \"#utility.yul\":710:714   */\n  0x41\n    /* \"#utility.yul\":707:708   */\n  0x04\n    /* \"#utility.yul\":700:715   */\n  mstore\n    /* \"#utility.yul\":734:738   */\n  0x24\n    /* \"#utility.yul\":731:732   */\n  0x00\n    /* \"#utility.yul\":724:739   */\n  revert\n    /* \"#utility.yul\":751:1032   */\ntag_25:\n    /* \"#utility.yul\":834:861   */\n  tag_50\n    /* \"#utility.yul\":856:860   */\n  dup3\n    /* \"#utility.yul\":834:861   */\n  tag_23\n  jump\t// in\ntag_50:\n    /* \"#utility.yul\":826:832   */\n  dup2\n    /* \"#utility.yul\":822:862   */\n  add\n    /* \"#utility.yul\":964:970   */\n  dup2\n    /* \"#utility.yul\":952:962   */\n  dup2\n    /* \"#utility.yul\":949:971   */\n  lt\n    /* \"#utility.yul\":928:946   */\n  0xffffffffffffffff\n    /* \"#utility.yul\":916:926   */\n  dup3\n    /* \"#utility.yul\":913:947   */\n  gt\n    /* \"#utility.yul\":910:972   */\n  or\n    /* \"#utility.yul\":907:995   */\n  iszero\n  tag_51\n  jumpi\n    /* \"#utility.yul\":975:993   */\n  tag_52\n  tag_24\n  jump\t// in\ntag_52:\n    /* \"#utility.yul\":907:995   */\ntag_51:\n    /* \"#utility.yul\":1015:1025   */\n  dup1\n    /* \"#utility.yul\":1011:1013   */\n  0x40\n    /* \"#utility.yul\":1004:1026   */\n  mstore\n    /* \"#utility.yul\":794:1032   */\n  pop\n    /* \"#utility.yul\":751:1032   */\n  pop\n  pop\n  jump\t// out\n    /* \"#utility.yul\":1038:1167   */\ntag_26:\n    /* \"#utility.yul\":1072:1078   */\n  0x00\n    /* \"#utility.yul\":1099:1119   */\n  tag_54\n  tag_19\n  jump\t// in\ntag_54:\n    /* \"#utility.yul\":1089:1119   */\n  swap1\n  pop\n    /* \"#utility.yul\":1128:1161   */\n  tag_55\n    /* \"#utility.yul\":1156:1160   */\n  dup3\n    /* \"#utility.yul\":1148:1154   */\n  dup3\n    /* \"#utility.yul\":1128:1161   */\n  tag_25\n  jump\t// in\ntag_55:\n    /* \"#utility.yul\":1038:1167   */\n  swap2\n  swap1\n  pop\n  jump\t// out\n    /* \"#utility.yul\":1173:1484   */\ntag_27:\n    /* \"#utility.yul\":1250:1254   */\n  0x00\n    /* \"#utility.yul\":1340:1358   */\n  0xffffffffffffffff\n    /* \"#utility.yul\":1332:1338   */\n  dup3\n    /* \"#utility.yul\":1329:1359   */\n  gt\n    /* \"#utility.yul\":1326:1382   */\n  iszero\n  tag_57\n  jumpi\n    /* \"#utility.yul\":1362:1380   */\n  tag_58\n  tag_24\n  jump\t// in\ntag_58:\n    /* \"#utility.yul\":1326:1382   */\ntag_57:\n    /* \"#utility.yul\":1412:1416   */\n  0x20\n    /* \"#utility.yul\":1404:1410   */\n  dup3\n    /* \"#utility.yul\":1400:1417   */\n  mul\n    /* \"#utility.yul\":1392:1417   */\n  swap1\n  pop\n    /* \"#utility.yul\":1472:1476   */\n  0x20\n    /* \"#utility.yul\":1466:1470   */\n  dup2\n    /* \"#utility.yul\":1462:1477   */\n  add\n    /* \"#utility.yul\":1454:1477   */\n  swap1\n  pop\n    /* \"#utility.yul\":1173:1484   */\n  swap2\n  swap1\n  pop\n  jump\t// out\n    /* \"#utility.yul\":1490:1607   */\ntag_28:\n    /* \"#utility.yul\":1599:1600   */\n  0x00\n    /* \"#utility.yul\":1596:1597   */\n  dup1\n    /* \"#utility.yul\":1589:1601   */\n  revert\n    /* \"#utility.yul\":1613:1739   */\ntag_29:\n    /* \"#utility.yul\":1650:1657   */\n  0x00\n    /* \"#utility.yul\":1690:1732   */\n  0xffffffffffffffffffffffffffffffffffffffff\n    /* \"#utility.yul\":1683:1688   */\n  dup3\n    /* \"#utility.yul\":1679:1733   */\n  and\n    /* \"#utility.yul\":1668:1733   */\n  swap1\n  pop\n    /* \"#utility.yul\":1613:1739   */\n  swap2\n  swap1\n  pop\n  jump\t// out\n    /* \"#utility.yul\":1745:1841   */\ntag_30:\n    /* \"#utility.yul\":1782:1789   */\n  0x00\n    /* \"#utility.yul\":1811:1835   */\n  tag_62\n    /* \"#utility.yul\":1829:1834   */\n  dup3\n    /* \"#utility.yul\":1811:1835   */\n  tag_29\n  jump\t// in\ntag_62:\n    /* \"#utility.yul\":1800:1835   */\n  swap1\n  pop\n    /* \"#utility.yul\":1745:1841   */\n  swap2\n  swap1\n  pop\n  jump\t// out\n    /* \"#utility.yul\":1847:1969   */\ntag_31:\n    /* \"#utility.yul\":1920:1944   */\n  tag_64\n    /* \"#utility.yul\":1938:1943   */\n  dup2\n    /* \"#utility.yul\":1920:1944   */\n  tag_30\n  jump\t// in\ntag_64:\n    /* \"#utility.yul\":1913:1918   */\n  dup2\n    /* \"#utility.yul\":1910:1945   */\n  eq\n    /* \"#utility.yul\":1900:1963   */\n  tag_65\n  jumpi\n    /* \"#utility.yul\":1959:1960   */\n  0x00\n    /* \"#utility.yul\":1956:1957   */\n  dup1\n    /* \"#utility.yul\":1949:1961   */\n  revert\n    /* \"#utility.yul\":1900:1963   */\ntag_65:\n    /* \"#utility.yul\":1847:1969   */\n  pop\n  jump\t// out\n    /* \"#utility.yul\":1975:2118   */\ntag_32:\n    /* \"#utility.yul\":2032:2037   */\n  0x00\n    /* \"#utility.yul\":2063:2069   */\n  dup2\n    /* \"#utility.yul\":2057:2070   */\n  mload\n    /* \"#utility.yul\":2048:2070   */\n  swap1\n  pop\n    /* \"#utility.yul\":2079:2112   */\n  tag_67\n    /* \"#utility.yul\":2106:2111   */\n  dup2\n    /* \"#utility.yul\":2079:2112   */\n  tag_31\n  jump\t// in\ntag_67:\n    /* \"#utility.yul\":1975:2118   */\n  swap3\n  swap2\n  pop\n  pop\n  jump\t// out\n    /* \"#utility.yul\":2141:2873   */\ntag_33:\n    /* \"#utility.yul\":2248:2253   */\n  0x00\n    /* \"#utility.yul\":2273:2354   */\n  tag_69\n    /* \"#utility.yul\":2289:2353   */\n  tag_70\n    /* \"#utility.yul\":2346:2352   */\n  dup5\n    /* \"#utility.yul\":2289:2353   */\n  tag_27\n  jump\t// in\ntag_70:\n    /* \"#utility.yul\":2273:2354   */\n  tag_26\n  jump\t// in\ntag_69:\n    /* \"#utility.yul\":2264:2354   */\n  swap1\n  pop\n    /* \"#utility.yul\":2374:2379   */\n  dup1\n    /* \"#utility.yul\":2403:2409   */\n  dup4\n    /* \"#utility.yul\":2396:2401   */\n  dup3\n    /* \"#utility.yul\":2389:2410   */\n  mstore\n    /* \"#utility.yul\":2437:2441   */\n  0x20\n    /* \"#utility.yul\":2430:2435   */\n  dup3\n    /* \"#utility.yul\":2426:2442   */\n  add\n    /* \"#utility.yul\":2419:2442   */\n  swap1\n  pop\n    /* \"#utility.yul\":2490:2494   */\n  0x20\n    /* \"#utility.yul\":2482:2488   */\n  dup5\n    /* \"#utility.yul\":2478:2495   */\n  mul\n    /* \"#utility.yul\":2470:2476   */\n  dup4\n    /* \"#utility.yul\":2466:2496   */\n  add\n    /* \"#utility.yul\":2519:2522   */\n  dup6\n    /* \"#utility.yul\":2511:2517   */\n  dup2\n    /* \"#utility.yul\":2508:2523   */\n  gt\n    /* \"#utility.yul\":2505:2627   */\n  iszero\n  tag_71\n  jumpi\n    /* \"#utility.yul\":2538:2617   */\n  tag_72\n  tag_28\n  jump\t// in\ntag_72:\n    /* \"#utility.yul\":2505:2627   */\ntag_71:\n    /* \"#utility.yul\":2653:2659   */\n  dup4\n    /* \"#utility.yul\":2636:2867   */\ntag_73:\n    /* \"#utility.yul\":2670:2676   */\n  dup2\n    /* \"#utility.yul\":2665:2668   */\n  dup2\n    /* \"#utility.yul\":2662:2677   */\n  lt\n    /* \"#utility.yul\":2636:2867   */\n  iszero\n  tag_75\n  jumpi\n    /* \"#utility.yul\":2745:2748   */\n  dup1\n    /* \"#utility.yul\":2774:2822   */\n  tag_76\n    /* \"#utility.yul\":2818:2821   */\n  dup9\n    /* \"#utility.yul\":2806:2816   */\n  dup3\n    /* \"#utility.yul\":2774:2822   */\n  tag_32\n  jump\t// in\ntag_76:\n    /* \"#utility.yul\":2769:2772   */\n  dup5\n    /* \"#utility.yul\":2762:2823   */\n  mstore\n    /* \"#utility.yul\":2852:2856   */\n  0x20\n    /* \"#utility.yul\":2847:2850   */\n  dup5\n    /* \"#utility.yul\":2843:2857   */\n  add\n    /* \"#utility.yul\":2836:2857   */\n  swap4\n  pop\n    /* \"#utility.yul\":2712:2867   */\n  pop\n    /* \"#utility.yul\":2696:2700   */\n  0x20\n    /* \"#utility.yul\":2691:2694   */\n  dup2\n    /* \"#utility.yul\":2687:2701   */\n  add\n    /* \"#utility.yul\":2680:2701   */\n  swap1\n  pop\n    /* \"#utility.yul\":2636:2867   */\n  jump(tag_73)\ntag_75:\n    /* \"#utility.yul\":2640:2661   */\n  pop\n    /* \"#utility.yul\":2254:2873   */\n  pop\n  pop\n    /* \"#utility.yul\":2141:2873   */\n  swap4\n  swap3\n  pop\n  pop\n  pop\n  jump\t// out\n    /* \"#utility.yul\":2896:3281   */\ntag_34:\n    /* \"#utility.yul\":2978:2983   */\n  0x00\n    /* \"#utility.yul\":3027:3030   */\n  dup3\n    /* \"#utility.yul\":3020:3024   */\n  0x1f\n    /* \"#utility.yul\":3012:3018   */\n  dup4\n    /* \"#utility.yul\":3008:3025   */\n  add\n    /* \"#utility.yul\":3004:3031   */\n  slt\n    /* \"#utility.yul\":2994:3116   */\n  tag_78\n  jumpi\n    /* \"#utility.yul\":3035:3114   */\n  tag_79\n  tag_22\n  jump\t// in\ntag_79:\n    /* \"#utility.yul\":2994:3116   */\ntag_78:\n    /* \"#utility.yul\":3145:3151   */\n  dup2\n    /* \"#utility.yul\":3139:3152   */\n  mload\n    /* \"#utility.yul\":3170:3275   */\n  tag_80\n    /* \"#utility.yul\":3271:3274   */\n  dup5\n    /* \"#utility.yul\":3263:3269   */\n  dup3\n    /* \"#utility.yul\":3256:3260   */\n  0x20\n    /* \"#utility.yul\":3248:3254   */\n  dup7\n    /* \"#utility.yul\":3244:3261   */\n  add\n    /* \"#utility.yul\":3170:3275   */\n  tag_33\n  jump\t// in\ntag_80:\n    /* \"#utility.yul\":3161:3275   */\n  swap2\n  pop\n    /* \"#utility.yul\":2984:3281   */\n  pop\n    /* \"#utility.yul\":2896:3281   */\n  swap3\n  swap2\n  pop\n  pop\n  jump\t// out\n    /* \"#utility.yul\":3287:3364   */\ntag_35:\n    /* \"#utility.yul\":3324:3331   */\n  0x00\n    /* \"#utility.yul\":3353:3358   */\n  dup2\n    /* \"#utility.yul\":3342:3358   */\n  swap1\n  pop\n    /* \"#utility.yul\":3287:3364   */\n  swap2\n  swap1\n  pop\n  jump\t// out\n    /* \"#utility.yul\":3370:3492   */\ntag_36:\n    /* \"#utility.yul\":3443:3467   */\n  tag_83\n    /* \"#utility.yul\":3461:3466   */\n  dup2\n    /* \"#utility.yul\":3443:3467   */\n  tag_35\n  jump\t// in\ntag_83:\n    /* \"#utility.yul\":3436:3441   */\n  dup2\n    /* \"#utility.yul\":3433:3468   */\n  eq\n    /* \"#utility.yul\":3423:3486   */\n  tag_84\n  jumpi\n    /* \"#utility.yul\":3482:3483   */\n  0x00\n    /* \"#utility.yul\":3479:3480   */\n  dup1\n    /* \"#utility.yul\":3472:3484   */\n  revert\n    /* \"#utility.yul\":3423:3486   */\ntag_84:\n    /* \"#utility.yul\":3370:3492   */\n  pop\n  jump\t// out\n    /* \"#utility.yul\":3498:3641   */\ntag_37:\n    /* \"#utility.yul\":3555:3560   */\n  0x00\n    /* \"#utility.yul\":3586:3592   */\n  dup2\n    /* \"#utility.yul\":3580:3593   */\n  mload\n    /* \"#utility.yul\":3571:3593   */\n  swap1\n  pop\n    /* \"#utility.yul\":3602:3635   */\n  tag_86\n    /* \"#utility.yul\":3629:3634   */\n  dup2\n    /* \"#utility.yul\":3602:3635   */\n  tag_36\n  jump\t// in\ntag_86:\n    /* \"#utility.yul\":3498:3641   */\n  swap3\n  swap2\n  pop\n  pop\n  jump\t// out\n    /* \"#utility.yul\":3647:4357   */\ntag_3:\n    /* \"#utility.yul\":3751:3757   */\n  0x00\n    /* \"#utility.yul\":3759:3765   */\n  dup1\n    /* \"#utility.yul\":3808:3810   */\n  0x40\n    /* \"#utility.yul\":3796:3805   */\n  dup4\n    /* \"#utility.yul\":3787:3794   */\n  dup6\n    /* \"#utility.yul\":3783:3806   */\n  sub\n    /* \"#utility.yul\":3779:3811   */\n  slt\n    /* \"#utility.yul\":3776:3895   */\n  iszero\n  tag_88\n  jumpi\n    /* \"#utility.yul\":3814:3893   */\n  tag_89\n  tag_20\n  jump\t// in\ntag_89:\n    /* \"#utility.yul\":3776:3895   */\ntag_88:\n    /* \"#utility.yul\":3955:3956   */\n  0x00\n    /* \"#utility.yul\":3944:3953   */\n  dup4\n    /* \"#utility.yul\":3940:3957   */\n  add\n    /* \"#utility.yul\":3934:3958   */\n  mload\n    /* \"#utility.yul\":3985:4003   */\n  0xffffffffffffffff\n    /* \"#utility.yul\":3977:3983   */\n  dup2\n    /* \"#utility.yul\":3974:4004   */\n  gt\n    /* \"#utility.yul\":3971:4088   */\n  iszero\n  tag_90\n  jumpi\n    /* \"#utility.yul\":4007:4086   */\n  tag_91\n  tag_21\n  jump\t// in\ntag_91:\n    /* \"#utility.yul\":3971:4088   */\ntag_90:\n    /* \"#utility.yul\":4112:4201   */\n  tag_92\n    /* \"#utility.yul\":4193:4200   */\n  dup6\n    /* \"#utility.yul\":4184:4190   */\n  dup3\n    /* \"#utility.yul\":4173:4182   */\n  dup7\n    /* \"#utility.yul\":4169:4191   */\n  add\n    /* \"#utility.yul\":4112:4201   */\n  tag_34\n  jump\t// in\ntag_92:\n    /* \"#utility.yul\":4102:4201   */\n  swap3\n  pop\n    /* \"#utility.yul\":3905:4211   */\n  pop\n    /* \"#utility.yul\":4250:4252   */\n  0x20\n    /* \"#utility.yul\":4276:4340   */\n  tag_93\n    /* \"#utility.yul\":4332:4339   */\n  dup6\n    /* \"#utility.yul\":4323:4329   */\n  dup3\n    /* \"#utility.yul\":4312:4321   */\n  dup7\n    /* \"#utility.yul\":4308:4330   */\n  add\n    /* \"#utility.yul\":4276:4340   */\n  tag_37\n  jump\t// in\ntag_93:\n    /* \"#utility.yul\":4266:4340   */\n  swap2\n  pop\n    /* \"#utility.yul\":4221:4350   */\n  pop\n    /* \"#utility.yul\":3647:4357   */\n  swap3\n  pop\n  swap3\n  swap1\n  pop\n  jump\t// out\n    /* \"#utility.yul\":4363:4543   */\ntag_11:\n    /* \"#utility.yul\":4411:4488   */\n  0x4e487b7100000000000000000000000000000000000000000000000000000000\n    /* \"#utility.yul\":4408:4409   */\n  0x00\n    /* \"#utility.yul\":4401:4489   */\n  mstore\n    /* \"#utility.yul\":4508:4512   */\n  0x32\n    /* \"#utility.yul\":4505:4506   */\n  0x04\n    /* \"#utility.yul\":4498:4513   */\n  mstore\n    /* \"#utility.yul\":4532:4536   */\n  0x24\n    /* \"#utility.yul\":4529:4530   */\n  0x00\n    /* \"#utility.yul\":4522:4537   */\n  revert\n    /* \"#utility.yul\":4549:4718   */\ntag_38:\n    /* \"#utility.yul\":4633:4644   */\n  0x00\n    /* \"#utility.yul\":4667:4673   */\n  dup3\n    /* \"#utility.yul\":4662:4665   */\n  dup3\n    /* \"#utility.yul\":4655:4674   */\n  mstore\n    /* \"#utility.yul\":4707:4711   */\n  0x20\n    /* \"#utility.yul\":4702:4705   */\n  dup3\n    /* \"#utility.yul\":4698:4712   */\n  add\n    /* \"#utility.yul\":4683:4712   */\n  swap1\n  pop\n    /* \"#utility.yul\":4549:4718   */\n  swap3\n  swap2\n  pop\n  pop\n  jump\t// out\n    /* \"#utility.yul\":4724:4891   */\ntag_39:\n    /* \"#utility.yul\":4864:4883   */\n  0x416c7265616479204578697374732e2e2e000000000000000000000000000000\n    /* \"#utility.yul\":4860:4861   */\n  0x00\n    /* \"#utility.yul\":4852:4858   */\n  dup3\n    /* \"#utility.yul\":4848:4862   */\n  add\n    /* \"#utility.yul\":4841:4884   */\n  mstore\n    /* \"#utility.yul\":4724:4891   */\n  pop\n  jump\t// out\n    /* \"#utility.yul\":4897:5263   */\ntag_40:\n    /* \"#utility.yul\":5039:5042   */\n  0x00\n    /* \"#utility.yul\":5060:5127   */\n  tag_98\n    /* \"#utility.yul\":5124:5126   */\n  0x11\n    /* \"#utility.yul\":5119:5122   */\n  dup4\n    /* \"#utility.yul\":5060:5127   */\n  tag_38\n  jump\t// in\ntag_98:\n    /* \"#utility.yul\":5053:5127   */\n  swap2\n  pop\n    /* \"#utility.yul\":5136:5229   */\n  tag_99\n    /* \"#utility.yul\":5225:5228   */\n  dup3\n    /* \"#utility.yul\":5136:5229   */\n  tag_39\n  jump\t// in\ntag_99:\n    /* \"#utility.yul\":5254:5256   */\n  0x20\n    /* \"#utility.yul\":5249:5252   */\n  dup3\n    /* \"#utility.yul\":5245:5257   */\n  add\n    /* \"#utility.yul\":5238:5257   */\n  swap1\n  pop\n    /* \"#utility.yul\":4897:5263   */\n  swap2\n  swap1\n  pop\n  jump\t// out\n    /* \"#utility.yul\":5269:5688   */\ntag_14:\n    /* \"#utility.yul\":5435:5439   */\n  0x00\n    /* \"#utility.yul\":5473:5475   */\n  0x20\n    /* \"#utility.yul\":5462:5471   */\n  dup3\n    /* \"#utility.yul\":5458:5476   */\n  add\n    /* \"#utility.yul\":5450:5476   */\n  swap1\n  pop\n    /* \"#utility.yul\":5522:5531   */\n  dup2\n    /* \"#utility.yul\":5516:5520   */\n  dup2\n    /* \"#utility.yul\":5512:5532   */\n  sub\n    /* \"#utility.yul\":5508:5509   */\n  0x00\n    /* \"#utility.yul\":5497:5506   */\n  dup4\n    /* \"#utility.yul\":5493:5510   */\n  add\n    /* \"#utility.yul\":5486:5533   */\n  mstore\n    /* \"#utility.yul\":5550:5681   */\n  tag_101\n    /* \"#utility.yul\":5676:5680   */\n  dup2\n    /* \"#utility.yul\":5550:5681   */\n  tag_40\n  jump\t// in\ntag_101:\n    /* \"#utility.yul\":5542:5681   */\n  swap1\n  pop\n    /* \"#utility.yul\":5269:5688   */\n  swap2\n  swap1\n  pop\n  jump\t// out\n    /* \"#utility.yul\":5694:5874   */\ntag_41:\n    /* \"#utility.yul\":5742:5819   */\n  0x4e487b7100000000000000000000000000000000000000000000000000000000\n    /* \"#utility.yul\":5739:5740   */\n  0x00\n    /* \"#utility.yul\":5732:5820   */\n  mstore\n    /* \"#utility.yul\":5839:5843   */\n  0x11\n    /* \"#utility.yul\":5836:5837   */\n  0x04\n    /* \"#utility.yul\":5829:5844   */\n  mstore\n    /* \"#utility.yul\":5863:5867   */\n  0x24\n    /* \"#utility.yul\":5860:5861   */\n  0x00\n    /* \"#utility.yul\":5853:5868   */\n  revert\n    /* \"#utility.yul\":5880:6113   */\ntag_17:\n    /* \"#utility.yul\":5919:5922   */\n  0x00\n    /* \"#utility.yul\":5942:5966   */\n  tag_104\n    /* \"#utility.yul\":5960:5965   */\n  dup3\n    /* \"#utility.yul\":5942:5966   */\n  tag_35\n  jump\t// in\ntag_104:\n    /* \"#utility.yul\":5933:5966   */\n  swap2\n  pop\n    /* \"#utility.yul\":5988:6054   */\n  0xffffffffffffffffffffffffffffffffffffffffffffffffffffffffffffffff\n    /* \"#utility.yul\":5981:5986   */\n  dup3\n    /* \"#utility.yul\":5978:6055   */\n  sub\n    /* \"#utility.yul\":5975:6078   */\n  tag_105\n  jumpi\n    /* \"#utility.yul\":6058:6076   */\n  tag_106\n  tag_41\n  jump\t// in\ntag_106:\n    /* \"#utility.yul\":5975:6078   */\ntag_105:\n    /* \"#utility.yul\":6105:6106   */\n  0x01\n    /* \"#utility.yul\":6098:6103   */\n  dup3\n    /* \"#utility.yul\":6094:6107   */\n  add\n    /* \"#utility.yul\":6087:6107   */\n  swap1\n  pop\n    /* \"#utility.yul\":5880:6113   */\n  swap2\n  swap1\n  pop\n  jump\t// out\n    /* \"contracts/MultiSigWallet.sol\":69:2953  contract MultiSigWallet{... */\ntag_18:\n  dataSize(sub_0)\n  dup1\n  dataOffset(sub_0)\n  0x00\n  codecopy\n  0x00\n  return\nstop\n\nsub_0: assembly {\n        /* \"contracts/MultiSigWallet.sol\":69:2953  contract MultiSigWallet{... */\n      mstore(0x40, 0x80)\n      jumpi(tag_1, lt(calldatasize, 0x04))\n      shr(0xe0, calldataload(0x00))\n      dup1\n      0x242232d1\n      eq\n      tag_3\n      jumpi\n      dup1\n      0x2f54bf6e\n      eq\n      tag_4\n      jumpi\n      dup1\n      0x9ace38c2\n      eq\n      tag_5\n      jumpi\n      dup1\n      0xb1e130fc\n      eq\n      tag_6\n      jumpi\n      dup1\n      0xc0c64a49\n      eq\n      tag_7\n      jumpi\n      dup1\n      0xee22610b\n      eq\n      tag_8\n      jumpi\n      jump(tag_2)\n    tag_1:\n      jumpi(tag_2, calldatasize)\n        /* \"contracts/MultiSigWallet.sol\":1864:1894  Deposit(msg.sender ,msg.value) */\n      0xe1fffcc4923d04b559f4d29a8bfc6cda04eb5b0d3c460751c2402c5c5cc9109c\n        /* \"contracts/MultiSigWallet.sol\":1872:1882  msg.sender */\n      caller\n        /* \"contracts/MultiSigWallet.sol\":1884:1893  msg.value */\n      callvalue\n        /* \"contracts/MultiSigWallet.sol\":1864:1894  Deposit(msg.sender ,msg.value) */\n      mload(0x40)\n      tag_11\n      swap3\n      swap2\n      swap1\n      tag_12\n      jump\t// in\n    tag_11:\n      mload(0x40)\n      dup1\n      swap2\n      sub\n      swap1\n      log1\n        /* \"contracts/MultiSigWallet.sol\":69:2953  contract MultiSigWallet{... */\n      stop\n    tag_2:\n      0x00\n      dup1\n      revert\n        /* \"contracts/MultiSigWallet.sol\":2083:2294  function approveTransaction(uint _txId) external notApproved(_txId) existTrans(_txId) onlyOwner isNotExec(_txId){... */\n    tag_3:\n      callvalue\n      dup1\n      iszero\n      tag_13\n      jumpi\n      0x00\n      dup1\n      revert\n    tag_13:\n      pop\n      tag_14\n      0x04\n      dup1\n      calldatasize\n      sub\n      dup2\n      add\n      swap1\n      tag_15\n      swap2\n      swap1\n      tag_16\n      jump\t// in\n    tag_15:\n      tag_17\n      jump\t// in\n    tag_14:\n      stop\n        /* \"contracts/MultiSigWallet.sol\":238:277  mapping(address => bool) public isOwner */\n    tag_4:\n      callvalue\n      dup1\n      iszero\n      tag_18\n      jumpi\n      0x00\n      dup1\n      revert\n    tag_18:\n      pop\n      tag_19\n      0x04\n      dup1\n      calldatasize\n      sub\n      dup2\n      add\n      swap1\n      tag_20\n      swap2\n      swap1\n      tag_21\n      jump\t// in\n    tag_20:\n      tag_22\n      jump\t// in\n    tag_19:\n      mload(0x40)\n      tag_23\n      swap2\n      swap1\n      tag_24\n      jump\t// in\n    tag_23:\n      mload(0x40)\n      dup1\n      swap2\n      sub\n      swap1\n      return\n        /* \"contracts/MultiSigWallet.sol\":500:533  Transaction[] public transactions */\n    tag_5:\n      callvalue\n      dup1\n      iszero\n      tag_25\n      jumpi\n      0x00\n      dup1\n      revert\n    tag_25:\n      pop\n      tag_26\n      0x04\n      dup1\n      calldatasize\n      sub\n      dup2\n      add\n      swap1\n      tag_27\n      swap2\n      swap1\n      tag_16\n      jump\t// in\n    tag_27:\n      tag_28\n      jump\t// in\n    tag_26:\n      mload(0x40)\n      tag_29\n      swap5\n      swap4\n      swap3\n      swap2\n      swap1\n      tag_30\n      jump\t// in\n    tag_29:\n      mload(0x40)\n      dup1\n      swap2\n      sub\n      swap1\n      return\n        /* \"contracts/MultiSigWallet.sol\":2302:2506  function revokeApproval(uint _txId) external isApproved(_txId) existTrans(_txId) onlyOwner isNotExec(_txId){... */\n    tag_6:\n      callvalue\n      dup1\n      iszero\n      tag_31\n      jumpi\n      0x00\n      dup1\n      revert\n    tag_31:\n      pop\n      tag_32\n      0x04\n      dup1\n      calldatasize\n      sub\n      dup2\n      add\n      swap1\n      tag_33\n      swap2\n      swap1\n      tag_16\n      jump\t// in\n    tag_33:\n      tag_34\n      jump\t// in\n    tag_32:\n      stop\n        /* \"contracts/MultiSigWallet.sol\":1910:2075  function makeTransaction(address _to, uint _value,bytes calldata _data) external onlyOwner{... */\n    tag_7:\n      callvalue\n      dup1\n      iszero\n      tag_35\n      jumpi\n      0x00\n      dup1\n      revert\n    tag_35:\n      pop\n      tag_36\n      0x04\n      dup1\n      calldatasize\n      sub\n      dup2\n      add\n      swap1\n      tag_37\n      swap2\n      swap1\n      tag_38\n      jump\t// in\n    tag_37:\n      tag_39\n      jump\t// in\n    tag_36:\n      stop\n        /* \"contracts/MultiSigWallet.sol\":2514:2950  function executeTransaction(uint _txId) external existTrans(_txId) onlyOwner isNotExec(_txId) {... */\n    tag_8:\n      callvalue\n      dup1\n      iszero\n      tag_40\n      jumpi\n      0x00\n      dup1\n      revert\n    tag_40:\n      pop\n      tag_41\n      0x04\n      dup1\n      calldatasize\n      sub\n      dup2\n      add\n      swap1\n      tag_42\n      swap2\n      swap1\n      tag_16\n      jump\t// in\n    tag_42:\n      tag_43\n      jump\t// in\n    tag_41:\n      stop\n        /* \"contracts/MultiSigWallet.sol\":2083:2294  function approveTransaction(uint _txId) external notApproved(_txId) existTrans(_txId) onlyOwner isNotExec(_txId){... */\n    tag_17:\n        /* \"contracts/MultiSigWallet.sol\":2144:2149  _txId */\n      dup1\n        /* \"contracts/MultiSigWallet.sol\":927:935  approval */\n      0x03\n        /* \"contracts/MultiSigWallet.sol\":927:942  approval[_txId] */\n      0x00\n        /* \"contracts/MultiSigWallet.sol\":936:941  _txId */\n      dup3\n        /* \"contracts/MultiSigWallet.sol\":927:942  approval[_txId] */\n      dup2\n      mstore\n      0x20\n      add\n      swap1\n      dup2\n      mstore\n      0x20\n      add\n      0x00\n      keccak256\n        /* \"contracts/MultiSigWallet.sol\":927:954  approval[_txId][msg.sender] */\n      0x00\n        /* \"contracts/MultiSigWallet.sol\":943:953  msg.sender */\n      caller\n        /* \"contracts/MultiSigWallet.sol\":927:954  approval[_txId][msg.sender] */\n      0xffffffffffffffffffffffffffffffffffffffff\n      and\n      0xffffffffffffffffffffffffffffffffffffffff\n      and\n      dup2\n      mstore\n      0x20\n      add\n      swap1\n      dup2\n      mstore\n      0x20\n      add\n      0x00\n      keccak256\n      0x00\n      swap1\n      sload\n      swap1\n      0x0100\n      exp\n      swap1\n      div\n      0xff\n      and\n        /* \"contracts/MultiSigWallet.sol\":926:954  !approval[_txId][msg.sender] */\n      iszero\n        /* \"contracts/MultiSigWallet.sol\":918:989  require(!approval[_txId][msg.sender],\"Transaction Already Approved...\") */\n      tag_45\n      jumpi\n      mload(0x40)\n      0x08c379a000000000000000000000000000000000000000000000000000000000\n      dup2\n      mstore\n      0x04\n      add\n      tag_46\n      swap1\n      tag_47\n      jump\t// in\n    tag_46:\n      mload(0x40)\n      dup1\n      swap2\n      sub\n      swap1\n      revert\n    tag_45:\n        /* \"contracts/MultiSigWallet.sol\":2162:2167  _txId */\n      dup2\n        /* \"contracts/MultiSigWallet.sol\":1099:1100  1 */\n      0x01\n        /* \"contracts/MultiSigWallet.sol\":1077:1089  transactions */\n      0x04\n        /* \"contracts/MultiSigWallet.sol\":1077:1096  transactions.length */\n      dup1\n      sload\n      swap1\n      pop\n        /* \"contracts/MultiSigWallet.sol\":1077:1100  transactions.length - 1 */\n      tag_49\n      swap2\n      swap1\n      tag_50\n      jump\t// in\n    tag_49:\n        /* \"contracts/MultiSigWallet.sol\":1068:1073  _txId */\n      dup2\n        /* \"contracts/MultiSigWallet.sol\":1068:1100  _txId <= transactions.length - 1 */\n      gt\n      iszero\n        /* \"contracts/MultiSigWallet.sol\":1060:1133  require(_txId <= transactions.length - 1,\"Transaction Does not Exist...\") */\n      tag_51\n      jumpi\n      mload(0x40)\n      0x08c379a000000000000000000000000000000000000000000000000000000000\n      dup2\n      mstore\n      0x04\n      add\n      tag_52\n      swap1\n      tag_53\n      jump\t// in\n    tag_52:\n      mload(0x40)\n      dup1\n      swap2\n      sub\n      swap1\n      revert\n    tag_51:\n        /* \"contracts/MultiSigWallet.sol\":1198:1205  isOwner */\n      0x01\n        /* \"contracts/MultiSigWallet.sol\":1198:1217  isOwner[msg.sender] */\n      0x00\n        /* \"contracts/MultiSigWallet.sol\":1206:1216  msg.sender */\n      caller\n        /* \"contracts/MultiSigWallet.sol\":1198:1217  isOwner[msg.sender] */\n      0xffffffffffffffffffffffffffffffffffffffff\n      and\n      0xffffffffffffffffffffffffffffffffffffffff\n      and\n      dup2\n      mstore\n      0x20\n      add\n      swap1\n      dup2\n      mstore\n      0x20\n      add\n      0x00\n      keccak256\n      0x00\n      swap1\n      sload\n      swap1\n      0x0100\n      exp\n      swap1\n      div\n      0xff\n      and\n        /* \"contracts/MultiSigWallet.sol\":1190:1239  require(isOwner[msg.sender] ,\"Not the Owner....\") */\n      tag_55\n      jumpi\n      mload(0x40)\n      0x08c379a000000000000000000000000000000000000000000000000000000000\n      dup2\n      mstore\n      0x04\n      add\n      tag_56\n      swap1\n      tag_57\n      jump\t// in\n    tag_56:\n      mload(0x40)\n      dup1\n      swap2\n      sub\n      swap1\n      revert\n    tag_55:\n        /* \"contracts/MultiSigWallet.sol\":2189:2194  _txId */\n      dup3\n        /* \"contracts/MultiSigWallet.sol\":1445:1475  Transaction memory transaction */\n      0x00\n        /* \"contracts/MultiSigWallet.sol\":1478:1490  transactions */\n      0x04\n        /* \"contracts/MultiSigWallet.sol\":1491:1496  _txId */\n      dup3\n        /* \"contracts/MultiSigWallet.sol\":1478:1497  transactions[_txId] */\n      dup2\n      sload\n      dup2\n      lt\n      tag_59\n      jumpi\n      tag_60\n      tag_61\n      jump\t// in\n    tag_60:\n    tag_59:\n      swap1\n      0x00\n      mstore\n      keccak256(0x00, 0x20)\n      swap1\n      0x04\n      mul\n      add\n        /* \"contracts/MultiSigWallet.sol\":1445:1497  Transaction memory transaction = transactions[_txId] */\n      mload(0x40)\n      dup1\n      0x80\n      add\n      0x40\n      mstore\n      swap1\n      dup2\n      0x00\n      dup3\n      add\n      0x00\n      swap1\n      sload\n      swap1\n      0x0100\n      exp\n      swap1\n      div\n      0xffffffffffffffffffffffffffffffffffffffff\n      and\n      0xffffffffffffffffffffffffffffffffffffffff\n      and\n      0xffffffffffffffffffffffffffffffffffffffff\n      and\n      dup2\n      mstore\n      0x20\n      add\n      0x01\n      dup3\n      add\n      sload\n      dup2\n      mstore\n      0x20\n      add\n      0x02\n      dup3\n      add\n      0x00\n      swap1\n      sload\n      swap1\n      0x0100\n      exp\n      swap1\n      div\n      0xff\n      and\n      iszero\n      iszero\n      iszero\n      iszero\n      dup2\n      mstore\n      0x20\n      add\n      0x03\n      dup3\n      add\n      dup1\n      sload\n      tag_63\n      swap1\n      tag_64\n      jump\t// in\n    tag_63:\n      dup1\n      0x1f\n      add\n      0x20\n      dup1\n      swap2\n      div\n      mul\n      0x20\n      add\n      mload(0x40)\n      swap1\n      dup2\n      add\n      0x40\n      mstore\n      dup1\n      swap3\n      swap2\n      swap1\n      dup2\n      dup2\n      mstore\n      0x20\n      add\n      dup3\n      dup1\n      sload\n      tag_65\n      swap1\n      tag_64\n      jump\t// in\n    tag_65:\n      dup1\n      iszero\n      tag_66\n      jumpi\n      dup1\n      0x1f\n      lt\n      tag_67\n      jumpi\n      0x0100\n      dup1\n      dup4\n      sload\n      div\n      mul\n      dup4\n      mstore\n      swap2\n      0x20\n      add\n      swap2\n      jump(tag_66)\n    tag_67:\n      dup3\n      add\n      swap2\n      swap1\n      0x00\n      mstore\n      keccak256(0x00, 0x20)\n      swap1\n    tag_68:\n      dup2\n      sload\n      dup2\n      mstore\n      swap1\n      0x01\n      add\n      swap1\n      0x20\n      add\n      dup1\n      dup4\n      gt\n      tag_68\n      jumpi\n      dup3\n      swap1\n      sub\n      0x1f\n      and\n      dup3\n      add\n      swap2\n    tag_66:\n      pop\n      pop\n      pop\n      pop\n      pop\n      dup2\n      mstore\n      pop\n      pop\n      swap1\n      pop\n        /* \"contracts/MultiSigWallet.sol\":1517:1528  transaction */\n      dup1\n        /* \"contracts/MultiSigWallet.sol\":1517:1537  transaction.executed */\n      0x40\n      add\n      mload\n        /* \"contracts/MultiSigWallet.sol\":1516:1537  !transaction.executed */\n      iszero\n        /* \"contracts/MultiSigWallet.sol\":1508:1570  require(!transaction.executed, \"Transaction Already Executed\") */\n      tag_69\n      jumpi\n      mload(0x40)\n      0x08c379a000000000000000000000000000000000000000000000000000000000\n      dup2\n      mstore\n      0x04\n      add\n      tag_70\n      swap1\n      tag_71\n      jump\t// in\n    tag_70:\n      mload(0x40)\n      dup1\n      swap2\n      sub\n      swap1\n      revert\n    tag_69:\n        /* \"contracts/MultiSigWallet.sol\":2238:2242  true */\n      0x01\n        /* \"contracts/MultiSigWallet.sol\":2208:2216  approval */\n      0x03\n        /* \"contracts/MultiSigWallet.sol\":2208:2223  approval[_txId] */\n      0x00\n        /* \"contracts/MultiSigWallet.sol\":2217:2222  _txId */\n      dup8\n        /* \"contracts/MultiSigWallet.sol\":2208:2223  approval[_txId] */\n      dup2\n      mstore\n      0x20\n      add\n      swap1\n      dup2\n      mstore\n      0x20\n      add\n      0x00\n      keccak256\n        /* \"contracts/MultiSigWallet.sol\":2208:2235  approval[_txId][msg.sender] */\n      0x00\n        /* \"contracts/MultiSigWallet.sol\":2224:2234  msg.sender */\n      caller\n        /* \"contracts/MultiSigWallet.sol\":2208:2235  approval[_txId][msg.sender] */\n      0xffffffffffffffffffffffffffffffffffffffff\n      and\n      0xffffffffffffffffffffffffffffffffffffffff\n      and\n      dup2\n      mstore\n      0x20\n      add\n      swap1\n      dup2\n      mstore\n      0x20\n      add\n      0x00\n      keccak256\n      0x00\n        /* \"contracts/MultiSigWallet.sol\":2208:2242  approval[_txId][msg.sender] = true */\n      0x0100\n      exp\n      dup2\n      sload\n      dup2\n      0xff\n      mul\n      not\n      and\n      swap1\n      dup4\n      iszero\n      iszero\n      mul\n      or\n      swap1\n      sstore\n      pop\n        /* \"contracts/MultiSigWallet.sol\":2258:2284  Approve(_txId, msg.sender) */\n      0x47ad3e4b0f4bdbe3ac08708bbc45053d2ff616911b39e65563fd9bd781909645\n        /* \"contracts/MultiSigWallet.sol\":2266:2271  _txId */\n      dup6\n        /* \"contracts/MultiSigWallet.sol\":2273:2283  msg.sender */\n      caller\n        /* \"contracts/MultiSigWallet.sol\":2258:2284  Approve(_txId, msg.sender) */\n      mload(0x40)\n      tag_73\n      swap3\n      swap2\n      swap1\n      tag_74\n      jump\t// in\n    tag_73:\n      mload(0x40)\n      dup1\n      swap2\n      sub\n      swap1\n      log1\n        /* \"contracts/MultiSigWallet.sol\":1434:1590  {... */\n      pop\n        /* \"contracts/MultiSigWallet.sol\":1250:1251  _ */\n      pop\n        /* \"contracts/MultiSigWallet.sol\":1000:1001  _ */\n      pop\n        /* \"contracts/MultiSigWallet.sol\":2083:2294  function approveTransaction(uint _txId) external notApproved(_txId) existTrans(_txId) onlyOwner isNotExec(_txId){... */\n      pop\n      pop\n      jump\t// out\n        /* \"contracts/MultiSigWallet.sol\":238:277  mapping(address => bool) public isOwner */\n    tag_22:\n      mstore(0x20, 0x01)\n      dup1\n      0x00\n      mstore\n      keccak256(0x00, 0x40)\n      0x00\n      swap2\n      pop\n      sload\n      swap1\n      0x0100\n      exp\n      swap1\n      div\n      0xff\n      and\n      dup2\n      jump\t// out\n        /* \"contracts/MultiSigWallet.sol\":500:533  Transaction[] public transactions */\n    tag_28:\n      0x04\n      dup2\n      dup2\n      sload\n      dup2\n      lt\n      tag_75\n      jumpi\n      0x00\n      dup1\n      revert\n    tag_75:\n      swap1\n      0x00\n      mstore\n      keccak256(0x00, 0x20)\n      swap1\n      0x04\n      mul\n      add\n      0x00\n      swap2\n      pop\n      swap1\n      pop\n      dup1\n      0x00\n      add\n      0x00\n      swap1\n      sload\n      swap1\n      0x0100\n      exp\n      swap1\n      div\n      0xffffffffffffffffffffffffffffffffffffffff\n      and\n      swap1\n      dup1\n      0x01\n      add\n      sload\n      swap1\n      dup1\n      0x02\n      add\n      0x00\n      swap1\n      sload\n      swap1\n      0x0100\n      exp\n      swap1\n      div\n      0xff\n      and\n      swap1\n      dup1\n      0x03\n      add\n      dup1\n      sload\n      tag_77\n      swap1\n      tag_64\n      jump\t// in\n    tag_77:\n      dup1\n      0x1f\n      add\n      0x20\n      dup1\n      swap2\n      div\n      mul\n      0x20\n      add\n      mload(0x40)\n      swap1\n      dup2\n      add\n      0x40\n      mstore\n      dup1\n      swap3\n      swap2\n      swap1\n      dup2\n      dup2\n      mstore\n      0x20\n      add\n      dup3\n      dup1\n      sload\n      tag_78\n      swap1\n      tag_64\n      jump\t// in\n    tag_78:\n      dup1\n      iszero\n      tag_79\n      jumpi\n      dup1\n      0x1f\n      lt\n      tag_80\n      jumpi\n      0x0100\n      dup1\n      dup4\n      sload\n      div\n      mul\n      dup4\n      mstore\n      swap2\n      0x20\n      add\n      swap2\n      jump(tag_79)\n    tag_80:\n      dup3\n      add\n      swap2\n      swap1\n      0x00\n      mstore\n      keccak256(0x00, 0x20)\n      swap1\n    tag_81:\n      dup2\n      sload\n      dup2\n      mstore\n      swap1\n      0x01\n      add\n      swap1\n      0x20\n      add\n      dup1\n      dup4\n      gt\n      tag_81\n      jumpi\n      dup3\n      swap1\n      sub\n      0x1f\n      and\n      dup3\n      add\n      swap2\n    tag_79:\n      pop\n      pop\n      pop\n      pop\n      pop\n      swap1\n      pop\n      dup5\n      jump\t// out\n        /* \"contracts/MultiSigWallet.sol\":2302:2506  function revokeApproval(uint _txId) external isApproved(_txId) existTrans(_txId) onlyOwner isNotExec(_txId){... */\n    tag_34:\n        /* \"contracts/MultiSigWallet.sol\":2358:2363  _txId */\n      dup1\n        /* \"contracts/MultiSigWallet.sol\":1317:1325  approval */\n      0x03\n        /* \"contracts/MultiSigWallet.sol\":1317:1332  approval[_txId] */\n      0x00\n        /* \"contracts/MultiSigWallet.sol\":1326:1331  _txId */\n      dup3\n        /* \"contracts/MultiSigWallet.sol\":1317:1332  approval[_txId] */\n      dup2\n      mstore\n      0x20\n      add\n      swap1\n      dup2\n      mstore\n      0x20\n      add\n      0x00\n      keccak256\n        /* \"contracts/MultiSigWallet.sol\":1317:1344  approval[_txId][msg.sender] */\n      0x00\n        /* \"contracts/MultiSigWallet.sol\":1333:1343  msg.sender */\n      caller\n        /* \"contracts/MultiSigWallet.sol\":1317:1344  approval[_txId][msg.sender] */\n      0xffffffffffffffffffffffffffffffffffffffff\n      and\n      0xffffffffffffffffffffffffffffffffffffffff\n      and\n      dup2\n      mstore\n      0x20\n      add\n      swap1\n      dup2\n      mstore\n      0x20\n      add\n      0x00\n      keccak256\n      0x00\n      swap1\n      sload\n      swap1\n      0x0100\n      exp\n      swap1\n      div\n      0xff\n      and\n        /* \"contracts/MultiSigWallet.sol\":1309:1376  require(approval[_txId][msg.sender], \"Transaction Not Approved...\") */\n      tag_83\n      jumpi\n      mload(0x40)\n      0x08c379a000000000000000000000000000000000000000000000000000000000\n      dup2\n      mstore\n      0x04\n      add\n      tag_84\n      swap1\n      tag_85\n      jump\t// in\n    tag_84:\n      mload(0x40)\n      dup1\n      swap2\n      sub\n      swap1\n      revert\n    tag_83:\n        /* \"contracts/MultiSigWallet.sol\":2376:2381  _txId */\n      dup2\n        /* \"contracts/MultiSigWallet.sol\":1099:1100  1 */\n      0x01\n        /* \"contracts/MultiSigWallet.sol\":1077:1089  transactions */\n      0x04\n        /* \"contracts/MultiSigWallet.sol\":1077:1096  transactions.length */\n      dup1\n      sload\n      swap1\n      pop\n        /* \"contracts/MultiSigWallet.sol\":1077:1100  transactions.length - 1 */\n      tag_87\n      swap2\n      swap1\n      tag_50\n      jump\t// in\n    tag_87:\n        /* \"contracts/MultiSigWallet.sol\":1068:1073  _txId */\n      dup2\n        /* \"contracts/MultiSigWallet.sol\":1068:1100  _txId <= transactions.length - 1 */\n      gt\n      iszero\n        /* \"contracts/MultiSigWallet.sol\":1060:1133  require(_txId <= transactions.length - 1,\"Transaction Does not Exist...\") */\n      tag_88\n      jumpi\n      mload(0x40)\n      0x08c379a000000000000000000000000000000000000000000000000000000000\n      dup2\n      mstore\n      0x04\n      add\n      tag_89\n      swap1\n      tag_53\n      jump\t// in\n    tag_89:\n      mload(0x40)\n      dup1\n      swap2\n      sub\n      swap1\n      revert\n    tag_88:\n        /* \"contracts/MultiSigWallet.sol\":1198:1205  isOwner */\n      0x01\n        /* \"contracts/MultiSigWallet.sol\":1198:1217  isOwner[msg.sender] */\n      0x00\n        /* \"contracts/MultiSigWallet.sol\":1206:1216  msg.sender */\n      caller\n        /* \"contracts/MultiSigWallet.sol\":1198:1217  isOwner[msg.sender] */\n      0xffffffffffffffffffffffffffffffffffffffff\n      and\n      0xffffffffffffffffffffffffffffffffffffffff\n      and\n      dup2\n      mstore\n      0x20\n      add\n      swap1\n      dup2\n      mstore\n      0x20\n      add\n      0x00\n      keccak256\n      0x00\n      swap1\n      sload\n      swap1\n      0x0100\n      exp\n      swap1\n      div\n      0xff\n      and\n        /* \"contracts/MultiSigWallet.sol\":1190:1239  require(isOwner[msg.sender] ,\"Not the Owner....\") */\n      tag_91\n      jumpi\n      mload(0x40)\n      0x08c379a000000000000000000000000000000000000000000000000000000000\n      dup2\n      mstore\n      0x04\n      add\n      tag_92\n      swap1\n      tag_57\n      jump\t// in\n    tag_92:\n      mload(0x40)\n      dup1\n      swap2\n      sub\n      swap1\n      revert\n    tag_91:\n        /* \"contracts/MultiSigWallet.sol\":2403:2408  _txId */\n      dup3\n        /* \"contracts/MultiSigWallet.sol\":1445:1475  Transaction memory transaction */\n      0x00\n        /* \"contracts/MultiSigWallet.sol\":1478:1490  transactions */\n      0x04\n        /* \"contracts/MultiSigWallet.sol\":1491:1496  _txId */\n      dup3\n        /* \"contracts/MultiSigWallet.sol\":1478:1497  transactions[_txId] */\n      dup2\n      sload\n      dup2\n      lt\n      tag_94\n      jumpi\n      tag_95\n      tag_61\n      jump\t// in\n    tag_95:\n    tag_94:\n      swap1\n      0x00\n      mstore\n      keccak256(0x00, 0x20)\n      swap1\n      0x04\n      mul\n      add\n        /* \"contracts/MultiSigWallet.sol\":1445:1497  Transaction memory transaction = transactions[_txId] */\n      mload(0x40)\n      dup1\n      0x80\n      add\n      0x40\n      mstore\n      swap1\n      dup2\n      0x00\n      dup3\n      add\n      0x00\n      swap1\n      sload\n      swap1\n      0x0100\n      exp\n      swap1\n      div\n      0xffffffffffffffffffffffffffffffffffffffff\n      and\n      0xffffffffffffffffffffffffffffffffffffffff\n      and\n      0xffffffffffffffffffffffffffffffffffffffff\n      and\n      dup2\n      mstore\n      0x20\n      add\n      0x01\n      dup3\n      add\n      sload\n      dup2\n      mstore\n      0x20\n      add\n      0x02\n      dup3\n      add\n      0x00\n      swap1\n      sload\n      swap1\n      0x0100\n      exp\n      swap1\n      div\n      0xff\n      and\n      iszero\n      iszero\n      iszero\n      iszero\n      dup2\n      mstore\n      0x20\n      add\n      0x03\n      dup3\n      add\n      dup1\n      sload\n      tag_97\n      swap1\n      tag_64\n      jump\t// in\n    tag_97:\n      dup1\n      0x1f\n      add\n      0x20\n      dup1\n      swap2\n      div\n      mul\n      0x20\n      add\n      mload(0x40)\n      swap1\n      dup2\n      add\n      0x40\n      mstore\n      dup1\n      swap3\n      swap2\n      swap1\n      dup2\n      dup2\n      mstore\n      0x20\n      add\n      dup3\n      dup1\n      sload\n      tag_98\n      swap1\n      tag_64\n      jump\t// in\n    tag_98:\n      dup1\n      iszero\n      tag_99\n      jumpi\n      dup1\n      0x1f\n      lt\n      tag_100\n      jumpi\n      0x0100\n      dup1\n      dup4\n      sload\n      div\n      mul\n      dup4\n      mstore\n      swap2\n      0x20\n      add\n      swap2\n      jump(tag_99)\n    tag_100:\n      dup3\n      add\n      swap2\n      swap1\n      0x00\n      mstore\n      keccak256(0x00, 0x20)\n      swap1\n    tag_101:\n      dup2\n      sload\n      dup2\n      mstore\n      swap1\n      0x01\n      add\n      swap1\n      0x20\n      add\n      dup1\n      dup4\n      gt\n      tag_101\n      jumpi\n      dup3\n      swap1\n      sub\n      0x1f\n      and\n      dup3\n      add\n      swap2\n    tag_99:\n      pop\n      pop\n      pop\n      pop\n      pop\n      dup2\n      mstore\n      pop\n      pop\n      swap1\n      pop\n        /* \"contracts/MultiSigWallet.sol\":1517:1528  transaction */\n      dup1\n        /* \"contracts/MultiSigWallet.sol\":1517:1537  transaction.executed */\n      0x40\n      add\n      mload\n        /* \"contracts/MultiSigWallet.sol\":1516:1537  !transaction.executed */\n      iszero\n        /* \"contracts/MultiSigWallet.sol\":1508:1570  require(!transaction.executed, \"Transaction Already Executed\") */\n      tag_102\n      jumpi\n      mload(0x40)\n      0x08c379a000000000000000000000000000000000000000000000000000000000\n      dup2\n      mstore\n      0x04\n      add\n      tag_103\n      swap1\n      tag_71\n      jump\t// in\n    tag_103:\n      mload(0x40)\n      dup1\n      swap2\n      sub\n      swap1\n      revert\n    tag_102:\n        /* \"contracts/MultiSigWallet.sol\":2452:2457  false */\n      0x00\n        /* \"contracts/MultiSigWallet.sol\":2422:2430  approval */\n      0x03\n        /* \"contracts/MultiSigWallet.sol\":2422:2437  approval[_txId] */\n      0x00\n        /* \"contracts/MultiSigWallet.sol\":2431:2436  _txId */\n      dup8\n        /* \"contracts/MultiSigWallet.sol\":2422:2437  approval[_txId] */\n      dup2\n      mstore\n      0x20\n      add\n      swap1\n      dup2\n      mstore\n      0x20\n      add\n      0x00\n      keccak256\n        /* \"contracts/MultiSigWallet.sol\":2422:2449  approval[_txId][msg.sender] */\n      0x00\n        /* \"contracts/MultiSigWallet.sol\":2438:2448  msg.sender */\n      caller\n        /* \"contracts/MultiSigWallet.sol\":2422:2449  approval[_txId][msg.sender] */\n      0xffffffffffffffffffffffffffffffffffffffff\n      and\n      0xffffffffffffffffffffffffffffffffffffffff\n      and\n      dup2\n      mstore\n      0x20\n      add\n      swap1\n      dup2\n      mstore\n      0x20\n      add\n      0x00\n      keccak256\n      0x00\n        /* \"contracts/MultiSigWallet.sol\":2422:2457  approval[_txId][msg.sender] = false */\n      0x0100\n      exp\n      dup2\n      sload\n      dup2\n      0xff\n      mul\n      not\n      and\n      swap1\n      dup4\n      iszero\n      iszero\n      mul\n      or\n      swap1\n      sstore\n      pop\n        /* \"contracts/MultiSigWallet.sol\":2473:2498  Revoke(_txId, msg.sender) */\n      0xd5d64031e0f55cf42bc3b7d0462f8404a4d63f7ccf84be9510cd6a5300552e42\n        /* \"contracts/MultiSigWallet.sol\":2480:2485  _txId */\n      dup6\n        /* \"contracts/MultiSigWallet.sol\":2487:2497  msg.sender */\n      caller\n        /* \"contracts/MultiSigWallet.sol\":2473:2498  Revoke(_txId, msg.sender) */\n      mload(0x40)\n      tag_105\n      swap3\n      swap2\n      swap1\n      tag_74\n      jump\t// in\n    tag_105:\n      mload(0x40)\n      dup1\n      swap2\n      sub\n      swap1\n      log1\n        /* \"contracts/MultiSigWallet.sol\":1434:1590  {... */\n      pop\n        /* \"contracts/MultiSigWallet.sol\":1250:1251  _ */\n      pop\n        /* \"contracts/MultiSigWallet.sol\":1387:1388  _ */\n      pop\n        /* \"contracts/MultiSigWallet.sol\":2302:2506  function revokeApproval(uint _txId) external isApproved(_txId) existTrans(_txId) onlyOwner isNotExec(_txId){... */\n      pop\n      pop\n      jump\t// out\n        /* \"contracts/MultiSigWallet.sol\":1910:2075  function makeTransaction(address _to, uint _value,bytes calldata _data) external onlyOwner{... */\n    tag_39:\n        /* \"contracts/MultiSigWallet.sol\":1198:1205  isOwner */\n      0x01\n        /* \"contracts/MultiSigWallet.sol\":1198:1217  isOwner[msg.sender] */\n      0x00\n        /* \"contracts/MultiSigWallet.sol\":1206:1216  msg.sender */\n      caller\n        /* \"contracts/MultiSigWallet.sol\":1198:1217  isOwner[msg.sender] */\n      0xffffffffffffffffffffffffffffffffffffffff\n      and\n      0xffffffffffffffffffffffffffffffffffffffff\n      and\n      dup2\n      mstore\n      0x20\n      add\n      swap1\n      dup2\n      mstore\n      0x20\n      add\n      0x00\n      keccak256\n      0x00\n      swap1\n      sload\n      swap1\n      0x0100\n      exp\n      swap1\n      div\n      0xff\n      and\n        /* \"contracts/MultiSigWallet.sol\":1190:1239  require(isOwner[msg.sender] ,\"Not the Owner....\") */\n      tag_107\n      jumpi\n      mload(0x40)\n      0x08c379a000000000000000000000000000000000000000000000000000000000\n      dup2\n      mstore\n      0x04\n      add\n      tag_108\n      swap1\n      tag_57\n      jump\t// in\n    tag_108:\n      mload(0x40)\n      dup1\n      swap2\n      sub\n      swap1\n      revert\n    tag_107:\n        /* \"contracts/MultiSigWallet.sol\":2011:2023  transactions */\n      0x04\n        /* \"contracts/MultiSigWallet.sol\":2029:2064  Transaction(_to,_value,false,_data) */\n      mload(0x40)\n      dup1\n      0x80\n      add\n      0x40\n      mstore\n      dup1\n        /* \"contracts/MultiSigWallet.sol\":2041:2044  _to */\n      dup7\n        /* \"contracts/MultiSigWallet.sol\":2029:2064  Transaction(_to,_value,false,_data) */\n      0xffffffffffffffffffffffffffffffffffffffff\n      and\n      dup2\n      mstore\n      0x20\n      add\n        /* \"contracts/MultiSigWallet.sol\":2045:2051  _value */\n      dup6\n        /* \"contracts/MultiSigWallet.sol\":2029:2064  Transaction(_to,_value,false,_data) */\n      dup2\n      mstore\n      0x20\n      add\n        /* \"contracts/MultiSigWallet.sol\":2052:2057  false */\n      0x00\n        /* \"contracts/MultiSigWallet.sol\":2029:2064  Transaction(_to,_value,false,_data) */\n      iszero\n      iszero\n      dup2\n      mstore\n      0x20\n      add\n        /* \"contracts/MultiSigWallet.sol\":2058:2063  _data */\n      dup5\n      dup5\n        /* \"contracts/MultiSigWallet.sol\":2029:2064  Transaction(_to,_value,false,_data) */\n      dup1\n      dup1\n      0x1f\n      add\n      0x20\n      dup1\n      swap2\n      div\n      mul\n      0x20\n      add\n      mload(0x40)\n      swap1\n      dup2\n      add\n      0x40\n      mstore\n      dup1\n      swap4\n      swap3\n      swap2\n      swap1\n      dup2\n      dup2\n      mstore\n      0x20\n      add\n      dup4\n      dup4\n      dup1\n      dup3\n      dup5\n      calldatacopy\n      0x00\n      dup2\n      dup5\n      add\n      mstore\n      not(0x1f)\n      0x1f\n      dup3\n      add\n      and\n      swap1\n      pop\n      dup1\n      dup4\n      add\n      swap3\n      pop\n      pop\n      pop\n      pop\n      pop\n      pop\n      pop\n      dup2\n      mstore\n      pop\n        /* \"contracts/MultiSigWallet.sol\":2011:2065  transactions.push(Transaction(_to,_value,false,_data)) */\n      swap1\n      dup1\n      0x01\n      dup2\n      sload\n      add\n      dup1\n      dup3\n      sstore\n      dup1\n      swap2\n      pop\n      pop\n      0x01\n      swap1\n      sub\n      swap1\n      0x00\n      mstore\n      keccak256(0x00, 0x20)\n      swap1\n      0x04\n      mul\n      add\n      0x00\n      swap1\n      swap2\n      swap1\n      swap2\n      swap1\n      swap2\n      pop\n      0x00\n      dup3\n      add\n      mload\n      dup2\n      0x00\n      add\n      exp(0x0100, 0x00)\n      dup2\n      sload\n      dup2\n      0xffffffffffffffffffffffffffffffffffffffff\n      mul\n      not\n      and\n      swap1\n      dup4\n      0xffffffffffffffffffffffffffffffffffffffff\n      and\n      mul\n      or\n      swap1\n      sstore\n      pop\n      0x20\n      dup3\n      add\n      mload\n      dup2\n      0x01\n      add\n      sstore\n      0x40\n      dup3\n      add\n      mload\n      dup2\n      0x02\n      add\n      exp(0x0100, 0x00)\n      dup2\n      sload\n      dup2\n      0xff\n      mul\n      not\n      and\n      swap1\n      dup4\n      iszero\n      iszero\n      mul\n      or\n      swap1\n      sstore\n      pop\n      0x60\n      dup3\n      add\n      mload\n      dup2\n      0x03\n      add\n      swap1\n      dup2\n      tag_111\n      swap2\n      swap1\n      tag_112\n      jump\t// in\n    tag_111:\n      pop\n      pop\n      pop\n        /* \"contracts/MultiSigWallet.sol\":1910:2075  function makeTransaction(address _to, uint _value,bytes calldata _data) external onlyOwner{... */\n      pop\n      pop\n      pop\n      pop\n      jump\t// out\n        /* \"contracts/MultiSigWallet.sol\":2514:2950  function executeTransaction(uint _txId) external existTrans(_txId) onlyOwner isNotExec(_txId) {... */\n    tag_43:\n        /* \"contracts/MultiSigWallet.sol\":2574:2579  _txId */\n      dup1\n        /* \"contracts/MultiSigWallet.sol\":1099:1100  1 */\n      0x01\n        /* \"contracts/MultiSigWallet.sol\":1077:1089  transactions */\n      0x04\n        /* \"contracts/MultiSigWallet.sol\":1077:1096  transactions.length */\n      dup1\n      sload\n      swap1\n      pop\n        /* \"contracts/MultiSigWallet.sol\":1077:1100  transactions.length - 1 */\n      tag_114\n      swap2\n      swap1\n      tag_50\n      jump\t// in\n    tag_114:\n        /* \"contracts/MultiSigWallet.sol\":1068:1073  _txId */\n      dup2\n        /* \"contracts/MultiSigWallet.sol\":1068:1100  _txId <= transactions.length - 1 */\n      gt\n      iszero\n        /* \"contracts/MultiSigWallet.sol\":1060:1133  require(_txId <= transactions.length - 1,\"Transaction Does not Exist...\") */\n      tag_115\n      jumpi\n      mload(0x40)\n      0x08c379a000000000000000000000000000000000000000000000000000000000\n      dup2\n      mstore\n      0x04\n      add\n      tag_116\n      swap1\n      tag_53\n      jump\t// in\n    tag_116:\n      mload(0x40)\n      dup1\n      swap2\n      sub\n      swap1\n      revert\n    tag_115:\n        /* \"contracts/MultiSigWallet.sol\":1198:1205  isOwner */\n      0x01\n        /* \"contracts/MultiSigWallet.sol\":1198:1217  isOwner[msg.sender] */\n      0x00\n        /* \"contracts/MultiSigWallet.sol\":1206:1216  msg.sender */\n      caller\n        /* \"contracts/MultiSigWallet.sol\":1198:1217  isOwner[msg.sender] */\n      0xffffffffffffffffffffffffffffffffffffffff\n      and\n      0xffffffffffffffffffffffffffffffffffffffff\n      and\n      dup2\n      mstore\n      0x20\n      add\n      swap1\n      dup2\n      mstore\n      0x20\n      add\n      0x00\n      keccak256\n      0x00\n      swap1\n      sload\n      swap1\n      0x0100\n      exp\n      swap1\n      div\n      0xff\n      and\n        /* \"contracts/MultiSigWallet.sol\":1190:1239  require(isOwner[msg.sender] ,\"Not the Owner....\") */\n      tag_118\n      jumpi\n      mload(0x40)\n      0x08c379a000000000000000000000000000000000000000000000000000000000\n      dup2\n      mstore\n      0x04\n      add\n      tag_119\n      swap1\n      tag_57\n      jump\t// in\n    tag_119:\n      mload(0x40)\n      dup1\n      swap2\n      sub\n      swap1\n      revert\n    tag_118:\n        /* \"contracts/MultiSigWallet.sol\":2601:2606  _txId */\n      dup2\n        /* \"contracts/MultiSigWallet.sol\":1445:1475  Transaction memory transaction */\n      0x00\n        /* \"contracts/MultiSigWallet.sol\":1478:1490  transactions */\n      0x04\n        /* \"contracts/MultiSigWallet.sol\":1491:1496  _txId */\n      dup3\n        /* \"contracts/MultiSigWallet.sol\":1478:1497  transactions[_txId] */\n      dup2\n      sload\n      dup2\n      lt\n      tag_121\n      jumpi\n      tag_122\n      tag_61\n      jump\t// in\n    tag_122:\n    tag_121:\n      swap1\n      0x00\n      mstore\n      keccak256(0x00, 0x20)\n      swap1\n      0x04\n      mul\n      add\n        /* \"contracts/MultiSigWallet.sol\":1445:1497  Transaction memory transaction = transactions[_txId] */\n      mload(0x40)\n      dup1\n      0x80\n      add\n      0x40\n      mstore\n      swap1\n      dup2\n      0x00\n      dup3\n      add\n      0x00\n      swap1\n      sload\n      swap1\n      0x0100\n      exp\n      swap1\n      div\n      0xffffffffffffffffffffffffffffffffffffffff\n      and\n      0xffffffffffffffffffffffffffffffffffffffff\n      and\n      0xffffffffffffffffffffffffffffffffffffffff\n      and\n      dup2\n      mstore\n      0x20\n      add\n      0x01\n      dup3\n      add\n      sload\n      dup2\n      mstore\n      0x20\n      add\n      0x02\n      dup3\n      add\n      0x00\n      swap1\n      sload\n      swap1\n      0x0100\n      exp\n      swap1\n      div\n      0xff\n      and\n      iszero\n      iszero\n      iszero\n      iszero\n      dup2\n      mstore\n      0x20\n      add\n      0x03\n      dup3\n      add\n      dup1\n      sload\n      tag_124\n      swap1\n      tag_64\n      jump\t// in\n    tag_124:\n      dup1\n      0x1f\n      add\n      0x20\n      dup1\n      swap2\n      div\n      mul\n      0x20\n      add\n      mload(0x40)\n      swap1\n      dup2\n      add\n      0x40\n      mstore\n      dup1\n      swap3\n      swap2\n      swap1\n      dup2\n      dup2\n      mstore\n      0x20\n      add\n      dup3\n      dup1\n      sload\n      tag_125\n      swap1\n      tag_64\n      jump\t// in\n    tag_125:\n      dup1\n      iszero\n      tag_126\n      jumpi\n      dup1\n      0x1f\n      lt\n      tag_127\n      jumpi\n      0x0100\n      dup1\n      dup4\n      sload\n      div\n      mul\n      dup4\n      mstore\n      swap2\n      0x20\n      add\n      swap2\n      jump(tag_126)\n    tag_127:\n      dup3\n      add\n      swap2\n      swap1\n      0x00\n      mstore\n      keccak256(0x00, 0x20)\n      swap1\n    tag_128:\n      dup2\n      sload\n      dup2\n      mstore\n      swap1\n      0x01\n      add\n      swap1\n      0x20\n      add\n      dup1\n      dup4\n      gt\n      tag_128\n      jumpi\n      dup3\n      swap1\n      sub\n      0x1f\n      and\n      dup3\n      add\n      swap2\n    tag_126:\n      pop\n      pop\n      pop\n      pop\n      pop\n      dup2\n      mstore\n      pop\n      pop\n      swap1\n      pop\n        /* \"contracts/MultiSigWallet.sol\":1517:1528  transaction */\n      dup1\n        /* \"contracts/MultiSigWallet.sol\":1517:1537  transaction.executed */\n      0x40\n      add\n      mload\n        /* \"contracts/MultiSigWallet.sol\":1516:1537  !transaction.executed */\n      iszero\n        /* \"contracts/MultiSigWallet.sol\":1508:1570  require(!transaction.executed, \"Transaction Already Executed\") */\n      tag_129\n      jumpi\n      mload(0x40)\n      0x08c379a000000000000000000000000000000000000000000000000000000000\n      dup2\n      mstore\n      0x04\n      add\n      tag_130\n      swap1\n      tag_71\n      jump\t// in\n    tag_130:\n      mload(0x40)\n      dup1\n      swap2\n      sub\n      swap1\n      revert\n    tag_129:\n        /* \"contracts/MultiSigWallet.sol\":2645:2653  required */\n      sload(0x02)\n        /* \"contracts/MultiSigWallet.sol\":2627:2641  canExec(_txId) */\n      tag_132\n        /* \"contracts/MultiSigWallet.sol\":2635:2640  _txId */\n      dup6\n        /* \"contracts/MultiSigWallet.sol\":2627:2634  canExec */\n      tag_133\n        /* \"contracts/MultiSigWallet.sol\":2627:2641  canExec(_txId) */\n      jump\t// in\n    tag_132:\n        /* \"contracts/MultiSigWallet.sol\":2627:2653  canExec(_txId) >= required */\n      lt\n      iszero\n        /* \"contracts/MultiSigWallet.sol\":2619:2681  require(canExec(_txId) >= required, \"Not Enough Approvals...\") */\n      tag_134\n      jumpi\n      mload(0x40)\n      0x08c379a000000000000000000000000000000000000000000000000000000000\n      dup2\n      mstore\n      0x04\n      add\n      tag_135\n      swap1\n      tag_136\n      jump\t// in\n    tag_135:\n      mload(0x40)\n      dup1\n      swap2\n      sub\n      swap1\n      revert\n    tag_134:\n        /* \"contracts/MultiSigWallet.sol\":2692:2723  Transaction storage transaction */\n      0x00\n        /* \"contracts/MultiSigWallet.sol\":2726:2738  transactions */\n      0x04\n        /* \"contracts/MultiSigWallet.sol\":2739:2744  _txId */\n      dup6\n        /* \"contracts/MultiSigWallet.sol\":2726:2745  transactions[_txId] */\n      dup2\n      sload\n      dup2\n      lt\n      tag_137\n      jumpi\n      tag_138\n      tag_61\n      jump\t// in\n    tag_138:\n    tag_137:\n      swap1\n      0x00\n      mstore\n      keccak256(0x00, 0x20)\n      swap1\n      0x04\n      mul\n      add\n        /* \"contracts/MultiSigWallet.sol\":2692:2745  Transaction storage transaction = transactions[_txId] */\n      swap1\n      pop\n        /* \"contracts/MultiSigWallet.sol\":2758:2770  bool success */\n      0x00\n        /* \"contracts/MultiSigWallet.sol\":2776:2787  transaction */\n      dup2\n        /* \"contracts/MultiSigWallet.sol\":2776:2790  transaction.to */\n      0x00\n      add\n      0x00\n      swap1\n      sload\n      swap1\n      0x0100\n      exp\n      swap1\n      div\n      0xffffffffffffffffffffffffffffffffffffffff\n      and\n        /* \"contracts/MultiSigWallet.sol\":2776:2795  transaction.to.call */\n      0xffffffffffffffffffffffffffffffffffffffff\n      and\n        /* \"contracts/MultiSigWallet.sol\":2803:2814  transaction */\n      dup3\n        /* \"contracts/MultiSigWallet.sol\":2803:2820  transaction.value */\n      0x01\n      add\n      sload\n        /* \"contracts/MultiSigWallet.sol\":2822:2833  transaction */\n      dup4\n        /* \"contracts/MultiSigWallet.sol\":2822:2838  transaction.data */\n      0x03\n      add\n        /* \"contracts/MultiSigWallet.sol\":2776:2839  transaction.to.call{value: transaction.value}(transaction.data) */\n      mload(0x40)\n      tag_140\n      swap2\n      swap1\n      tag_141\n      jump\t// in\n    tag_140:\n      0x00\n      mload(0x40)\n      dup1\n      dup4\n      sub\n      dup2\n      dup6\n      dup8\n      gas\n      call\n      swap3\n      pop\n      pop\n      pop\n      returndatasize\n      dup1\n      0x00\n      dup2\n      eq\n      tag_144\n      jumpi\n      mload(0x40)\n      swap2\n      pop\n      and(add(returndatasize, 0x3f), not(0x1f))\n      dup3\n      add\n      0x40\n      mstore\n      returndatasize\n      dup3\n      mstore\n      returndatasize\n      0x00\n      0x20\n      dup5\n      add\n      returndatacopy\n      jump(tag_143)\n    tag_144:\n      0x60\n      swap2\n      pop\n    tag_143:\n      pop\n        /* \"contracts/MultiSigWallet.sol\":2757:2839  (bool success, ) = transaction.to.call{value: transaction.value}(transaction.data) */\n      pop\n      swap1\n      pop\n        /* \"contracts/MultiSigWallet.sol\":2860:2867  success */\n      dup1\n        /* \"contracts/MultiSigWallet.sol\":2852:2894  require(success, \"Transaction Incomplete\") */\n      tag_145\n      jumpi\n      mload(0x40)\n      0x08c379a000000000000000000000000000000000000000000000000000000000\n      dup2\n      mstore\n      0x04\n      add\n      tag_146\n      swap1\n      tag_147\n      jump\t// in\n    tag_146:\n      mload(0x40)\n      dup1\n      swap2\n      sub\n      swap1\n      revert\n    tag_145:\n        /* \"contracts/MultiSigWallet.sol\":2928:2932  true */\n      0x01\n        /* \"contracts/MultiSigWallet.sol\":2905:2916  transaction */\n      dup3\n        /* \"contracts/MultiSigWallet.sol\":2905:2925  transaction.executed */\n      0x02\n      add\n      0x00\n        /* \"contracts/MultiSigWallet.sol\":2905:2932  transaction.executed = true */\n      0x0100\n      exp\n      dup2\n      sload\n      dup2\n      0xff\n      mul\n      not\n      and\n      swap1\n      dup4\n      iszero\n      iszero\n      mul\n      or\n      swap1\n      sstore\n      pop\n        /* \"contracts/MultiSigWallet.sol\":2608:2950  {... */\n      pop\n      pop\n        /* \"contracts/MultiSigWallet.sol\":1434:1590  {... */\n      pop\n        /* \"contracts/MultiSigWallet.sol\":1250:1251  _ */\n      pop\n        /* \"contracts/MultiSigWallet.sol\":2514:2950  function executeTransaction(uint _txId) external existTrans(_txId) onlyOwner isNotExec(_txId) {... */\n      pop\n      pop\n      jump\t// out\n        /* \"contracts/MultiSigWallet.sol\":1598:1814  function canExec(uint _txId) private view returns(uint count){... */\n    tag_133:\n        /* \"contracts/MultiSigWallet.sol\":1648:1658  uint count */\n      0x00\n        /* \"contracts/MultiSigWallet.sol\":1674:1680  uint i */\n      dup1\n        /* \"contracts/MultiSigWallet.sol\":1670:1807  for(uint i; i < owners.length ; i++){... */\n    tag_149:\n        /* \"contracts/MultiSigWallet.sol\":1686:1692  owners */\n      0x00\n        /* \"contracts/MultiSigWallet.sol\":1686:1699  owners.length */\n      dup1\n      sload\n      swap1\n      pop\n        /* \"contracts/MultiSigWallet.sol\":1682:1683  i */\n      dup2\n        /* \"contracts/MultiSigWallet.sol\":1682:1699  i < owners.length */\n      lt\n        /* \"contracts/MultiSigWallet.sol\":1670:1807  for(uint i; i < owners.length ; i++){... */\n      iszero\n      tag_150\n      jumpi\n        /* \"contracts/MultiSigWallet.sol\":1724:1732  approval */\n      0x03\n        /* \"contracts/MultiSigWallet.sol\":1724:1739  approval[_txId] */\n      0x00\n        /* \"contracts/MultiSigWallet.sol\":1733:1738  _txId */\n      dup5\n        /* \"contracts/MultiSigWallet.sol\":1724:1739  approval[_txId] */\n      dup2\n      mstore\n      0x20\n      add\n      swap1\n      dup2\n      mstore\n      0x20\n      add\n      0x00\n      keccak256\n        /* \"contracts/MultiSigWallet.sol\":1724:1750  approval[_txId][owners[i]] */\n      0x00\n        /* \"contracts/MultiSigWallet.sol\":1740:1746  owners */\n      dup1\n        /* \"contracts/MultiSigWallet.sol\":1747:1748  i */\n      dup4\n        /* \"contracts/MultiSigWallet.sol\":1740:1749  owners[i] */\n      dup2\n      sload\n      dup2\n      lt\n      tag_152\n      jumpi\n      tag_153\n      tag_61\n      jump\t// in\n    tag_153:\n    tag_152:\n      swap1\n      0x00\n      mstore\n      keccak256(0x00, 0x20)\n      add\n      0x00\n      swap1\n      sload\n      swap1\n      0x0100\n      exp\n      swap1\n      div\n      0xffffffffffffffffffffffffffffffffffffffff\n      and\n        /* \"contracts/MultiSigWallet.sol\":1724:1750  approval[_txId][owners[i]] */\n      0xffffffffffffffffffffffffffffffffffffffff\n      and\n      0xffffffffffffffffffffffffffffffffffffffff\n      and\n      dup2\n      mstore\n      0x20\n      add\n      swap1\n      dup2\n      mstore\n      0x20\n      add\n      0x00\n      keccak256\n      0x00\n      swap1\n      sload\n      swap1\n      0x0100\n      exp\n      swap1\n      div\n      0xff\n      and\n        /* \"contracts/MultiSigWallet.sol\":1721:1796  if(approval[_txId][owners[i]]){... */\n      iszero\n      tag_155\n      jumpi\n        /* \"contracts/MultiSigWallet.sol\":1779:1780  1 */\n      0x01\n        /* \"contracts/MultiSigWallet.sol\":1770:1780  count += 1 */\n      dup3\n      tag_156\n      swap2\n      swap1\n      tag_157\n      jump\t// in\n    tag_156:\n      swap2\n      pop\n        /* \"contracts/MultiSigWallet.sol\":1721:1796  if(approval[_txId][owners[i]]){... */\n    tag_155:\n        /* \"contracts/MultiSigWallet.sol\":1702:1705  i++ */\n      dup1\n      dup1\n      tag_158\n      swap1\n      tag_159\n      jump\t// in\n    tag_158:\n      swap2\n      pop\n      pop\n        /* \"contracts/MultiSigWallet.sol\":1670:1807  for(uint i; i < owners.length ; i++){... */\n      jump(tag_149)\n    tag_150:\n      pop\n        /* \"contracts/MultiSigWallet.sol\":1598:1814  function canExec(uint _txId) private view returns(uint count){... */\n      swap2\n      swap1\n      pop\n      jump\t// out\n        /* \"#utility.yul\":7:133   */\n    tag_160:\n        /* \"#utility.yul\":44:51   */\n      0x00\n        /* \"#utility.yul\":84:126   */\n      0xffffffffffffffffffffffffffffffffffffffff\n        /* \"#utility.yul\":77:82   */\n      dup3\n        /* \"#utility.yul\":73:127   */\n      and\n        /* \"#utility.yul\":62:127   */\n      swap1\n      pop\n        /* \"#utility.yul\":7:133   */\n      swap2\n      swap1\n      pop\n      jump\t// out\n        /* \"#utility.yul\":139:235   */\n    tag_161:\n        /* \"#utility.yul\":176:183   */\n      0x00\n        /* \"#utility.yul\":205:229   */\n      tag_221\n        /* \"#utility.yul\":223:228   */\n      dup3\n        /* \"#utility.yul\":205:229   */\n      tag_160\n      jump\t// in\n    tag_221:\n        /* \"#utility.yul\":194:229   */\n      swap1\n      pop\n        /* \"#utility.yul\":139:235   */\n      swap2\n      swap1\n      pop\n      jump\t// out\n        /* \"#utility.yul\":241:359   */\n    tag_162:\n        /* \"#utility.yul\":328:352   */\n      tag_223\n        /* \"#utility.yul\":346:351   */\n      dup2\n        /* \"#utility.yul\":328:352   */\n      tag_161\n      jump\t// in\n    tag_223:\n        /* \"#utility.yul\":323:326   */\n      dup3\n        /* \"#utility.yul\":316:353   */\n      mstore\n        /* \"#utility.yul\":241:359   */\n      pop\n      pop\n      jump\t// out\n        /* \"#utility.yul\":365:442   */\n    tag_163:\n        /* \"#utility.yul\":402:409   */\n      0x00\n        /* \"#utility.yul\":431:436   */\n      dup2\n        /* \"#utility.yul\":420:436   */\n      swap1\n      pop\n        /* \"#utility.yul\":365:442   */\n      swap2\n      swap1\n      pop\n      jump\t// out\n        /* \"#utility.yul\":448:566   */\n    tag_164:\n        /* \"#utility.yul\":535:559   */\n      tag_226\n        /* \"#utility.yul\":553:558   */\n      dup2\n        /* \"#utility.yul\":535:559   */\n      tag_163\n      jump\t// in\n    tag_226:\n        /* \"#utility.yul\":530:533   */\n      dup3\n        /* \"#utility.yul\":523:560   */\n      mstore\n        /* \"#utility.yul\":448:566   */\n      pop\n      pop\n      jump\t// out\n        /* \"#utility.yul\":572:904   */\n    tag_12:\n        /* \"#utility.yul\":693:697   */\n      0x00\n        /* \"#utility.yul\":731:733   */\n      0x40\n        /* \"#utility.yul\":720:729   */\n      dup3\n        /* \"#utility.yul\":716:734   */\n      add\n        /* \"#utility.yul\":708:734   */\n      swap1\n      pop\n        /* \"#utility.yul\":744:815   */\n      tag_228\n        /* \"#utility.yul\":812:813   */\n      0x00\n        /* \"#utility.yul\":801:810   */\n      dup4\n        /* \"#utility.yul\":797:814   */\n      add\n        /* \"#utility.yul\":788:794   */\n      dup6\n        /* \"#utility.yul\":744:815   */\n      tag_162\n      jump\t// in\n    tag_228:\n        /* \"#utility.yul\":825:897   */\n      tag_229\n        /* \"#utility.yul\":893:895   */\n      0x20\n        /* \"#utility.yul\":882:891   */\n      dup4\n        /* \"#utility.yul\":878:896   */\n      add\n        /* \"#utility.yul\":869:875   */\n      dup5\n        /* \"#utility.yul\":825:897   */\n      tag_164\n      jump\t// in\n    tag_229:\n        /* \"#utility.yul\":572:904   */\n      swap4\n      swap3\n      pop\n      pop\n      pop\n      jump\t// out\n        /* \"#utility.yul\":991:1108   */\n    tag_166:\n        /* \"#utility.yul\":1100:1101   */\n      0x00\n        /* \"#utility.yul\":1097:1098   */\n      dup1\n        /* \"#utility.yul\":1090:1102   */\n      revert\n        /* \"#utility.yul\":1114:1231   */\n    tag_167:\n        /* \"#utility.yul\":1223:1224   */\n      0x00\n        /* \"#utility.yul\":1220:1221   */\n      dup1\n        /* \"#utility.yul\":1213:1225   */\n      revert\n        /* \"#utility.yul\":1237:1359   */\n    tag_168:\n        /* \"#utility.yul\":1310:1334   */\n      tag_234\n        /* \"#utility.yul\":1328:1333   */\n      dup2\n        /* \"#utility.yul\":1310:1334   */\n      tag_163\n      jump\t// in\n    tag_234:\n        /* \"#utility.yul\":1303:1308   */\n      dup2\n        /* \"#utility.yul\":1300:1335   */\n      eq\n        /* \"#utility.yul\":1290:1353   */\n      tag_235\n      jumpi\n        /* \"#utility.yul\":1349:1350   */\n      0x00\n        /* \"#utility.yul\":1346:1347   */\n      dup1\n        /* \"#utility.yul\":1339:1351   */\n      revert\n        /* \"#utility.yul\":1290:1353   */\n    tag_235:\n        /* \"#utility.yul\":1237:1359   */\n      pop\n      jump\t// out\n        /* \"#utility.yul\":1365:1504   */\n    tag_169:\n        /* \"#utility.yul\":1411:1416   */\n      0x00\n        /* \"#utility.yul\":1449:1455   */\n      dup2\n        /* \"#utility.yul\":1436:1456   */\n      calldataload\n        /* \"#utility.yul\":1427:1456   */\n      swap1\n      pop\n        /* \"#utility.yul\":1465:1498   */\n      tag_237\n        /* \"#utility.yul\":1492:1497   */\n      dup2\n        /* \"#utility.yul\":1465:1498   */\n      tag_168\n      jump\t// in\n    tag_237:\n        /* \"#utility.yul\":1365:1504   */\n      swap3\n      swap2\n      pop\n      pop\n      jump\t// out\n        /* \"#utility.yul\":1510:1839   */\n    tag_16:\n        /* \"#utility.yul\":1569:1575   */\n      0x00\n        /* \"#utility.yul\":1618:1620   */\n      0x20\n        /* \"#utility.yul\":1606:1615   */\n      dup3\n        /* \"#utility.yul\":1597:1604   */\n      dup5\n        /* \"#utility.yul\":1593:1616   */\n      sub\n        /* \"#utility.yul\":1589:1621   */\n      slt\n        /* \"#utility.yul\":1586:1705   */\n      iszero\n      tag_239\n      jumpi\n        /* \"#utility.yul\":1624:1703   */\n      tag_240\n      tag_166\n      jump\t// in\n    tag_240:\n        /* \"#utility.yul\":1586:1705   */\n    tag_239:\n        /* \"#utility.yul\":1744:1745   */\n      0x00\n        /* \"#utility.yul\":1769:1822   */\n      tag_241\n        /* \"#utility.yul\":1814:1821   */\n      dup5\n        /* \"#utility.yul\":1805:1811   */\n      dup3\n        /* \"#utility.yul\":1794:1803   */\n      dup6\n        /* \"#utility.yul\":1790:1812   */\n      add\n        /* \"#utility.yul\":1769:1822   */\n      tag_169\n      jump\t// in\n    tag_241:\n        /* \"#utility.yul\":1759:1822   */\n      swap2\n      pop\n        /* \"#utility.yul\":1715:1832   */\n      pop\n        /* \"#utility.yul\":1510:1839   */\n      swap3\n      swap2\n      pop\n      pop\n      jump\t// out\n        /* \"#utility.yul\":1845:1967   */\n    tag_170:\n        /* \"#utility.yul\":1918:1942   */\n      tag_243\n        /* \"#utility.yul\":1936:1941   */\n      dup2\n        /* \"#utility.yul\":1918:1942   */\n      tag_161\n      jump\t// in\n    tag_243:\n        /* \"#utility.yul\":1911:1916   */\n      dup2\n        /* \"#utility.yul\":1908:1943   */\n      eq\n        /* \"#utility.yul\":1898:1961   */\n      tag_244\n      jumpi\n        /* \"#utility.yul\":1957:1958   */\n      0x00\n        /* \"#utility.yul\":1954:1955   */\n      dup1\n        /* \"#utility.yul\":1947:1959   */\n      revert\n        /* \"#utility.yul\":1898:1961   */\n    tag_244:\n        /* \"#utility.yul\":1845:1967   */\n      pop\n      jump\t// out\n        /* \"#utility.yul\":1973:2112   */\n    tag_171:\n        /* \"#utility.yul\":2019:2024   */\n      0x00\n        /* \"#utility.yul\":2057:2063   */\n      dup2\n        /* \"#utility.yul\":2044:2064   */\n      calldataload\n        /* \"#utility.yul\":2035:2064   */\n      swap1\n      pop\n        /* \"#utility.yul\":2073:2106   */\n      tag_246\n        /* \"#utility.yul\":2100:2105   */\n      dup2\n        /* \"#utility.yul\":2073:2106   */\n      tag_170\n      jump\t// in\n    tag_246:\n        /* \"#utility.yul\":1973:2112   */\n      swap3\n      swap2\n      pop\n      pop\n      jump\t// out\n        /* \"#utility.yul\":2118:2447   */\n    tag_21:\n        /* \"#utility.yul\":2177:2183   */\n      0x00\n        /* \"#utility.yul\":2226:2228   */\n      0x20\n        /* \"#utility.yul\":2214:2223   */\n      dup3\n        /* \"#utility.yul\":2205:2212   */\n      dup5\n        /* \"#utility.yul\":2201:2224   */\n      sub\n        /* \"#utility.yul\":2197:2229   */\n      slt\n        /* \"#utility.yul\":2194:2313   */\n      iszero\n      tag_248\n      jumpi\n        /* \"#utility.yul\":2232:2311   */\n      tag_249\n      tag_166\n      jump\t// in\n    tag_249:\n        /* \"#utility.yul\":2194:2313   */\n    tag_248:\n        /* \"#utility.yul\":2352:2353   */\n      0x00\n        /* \"#utility.yul\":2377:2430   */\n      tag_250\n        /* \"#utility.yul\":2422:2429   */\n      dup5\n        /* \"#utility.yul\":2413:2419   */\n      dup3\n        /* \"#utility.yul\":2402:2411   */\n      dup6\n        /* \"#utility.yul\":2398:2420   */\n      add\n        /* \"#utility.yul\":2377:2430   */\n      tag_171\n      jump\t// in\n    tag_250:\n        /* \"#utility.yul\":2367:2430   */\n      swap2\n      pop\n        /* \"#utility.yul\":2323:2440   */\n      pop\n        /* \"#utility.yul\":2118:2447   */\n      swap3\n      swap2\n      pop\n      pop\n      jump\t// out\n        /* \"#utility.yul\":2453:2543   */\n    tag_172:\n        /* \"#utility.yul\":2487:2494   */\n      0x00\n        /* \"#utility.yul\":2530:2535   */\n      dup2\n        /* \"#utility.yul\":2523:2536   */\n      iszero\n        /* \"#utility.yul\":2516:2537   */\n      iszero\n        /* \"#utility.yul\":2505:2537   */\n      swap1\n      pop\n        /* \"#utility.yul\":2453:2543   */\n      swap2\n      swap1\n      pop\n      jump\t// out\n        /* \"#utility.yul\":2549:2658   */\n    tag_173:\n        /* \"#utility.yul\":2630:2651   */\n      tag_253\n        /* \"#utility.yul\":2645:2650   */\n      dup2\n        /* \"#utility.yul\":2630:2651   */\n      tag_172\n      jump\t// in\n    tag_253:\n        /* \"#utility.yul\":2625:2628   */\n      dup3\n        /* \"#utility.yul\":2618:2652   */\n      mstore\n        /* \"#utility.yul\":2549:2658   */\n      pop\n      pop\n      jump\t// out\n        /* \"#utility.yul\":2664:2874   */\n    tag_24:\n        /* \"#utility.yul\":2751:2755   */\n      0x00\n        /* \"#utility.yul\":2789:2791   */\n      0x20\n        /* \"#utility.yul\":2778:2787   */\n      dup3\n        /* \"#utility.yul\":2774:2792   */\n      add\n        /* \"#utility.yul\":2766:2792   */\n      swap1\n      pop\n        /* \"#utility.yul\":2802:2867   */\n      tag_255\n        /* \"#utility.yul\":2864:2865   */\n      0x00\n        /* \"#utility.yul\":2853:2862   */\n      dup4\n        /* \"#utility.yul\":2849:2866   */\n      add\n        /* \"#utility.yul\":2840:2846   */\n      dup5\n        /* \"#utility.yul\":2802:2867   */\n      tag_173\n      jump\t// in\n    tag_255:\n        /* \"#utility.yul\":2664:2874   */\n      swap3\n      swap2\n      pop\n      pop\n      jump\t// out\n        /* \"#utility.yul\":2880:2978   */\n    tag_174:\n        /* \"#utility.yul\":2931:2937   */\n      0x00\n        /* \"#utility.yul\":2965:2970   */\n      dup2\n        /* \"#utility.yul\":2959:2971   */\n      mload\n        /* \"#utility.yul\":2949:2971   */\n      swap1\n      pop\n        /* \"#utility.yul\":2880:2978   */\n      swap2\n      swap1\n      pop\n      jump\t// out\n        /* \"#utility.yul\":2984:3152   */\n    tag_175:\n        /* \"#utility.yul\":3067:3078   */\n      0x00\n        /* \"#utility.yul\":3101:3107   */\n      dup3\n        /* \"#utility.yul\":3096:3099   */\n      dup3\n        /* \"#utility.yul\":3089:3108   */\n      mstore\n        /* \"#utility.yul\":3141:3145   */\n      0x20\n        /* \"#utility.yul\":3136:3139   */\n      dup3\n        /* \"#utility.yul\":3132:3146   */\n      add\n        /* \"#utility.yul\":3117:3146   */\n      swap1\n      pop\n        /* \"#utility.yul\":2984:3152   */\n      swap3\n      swap2\n      pop\n      pop\n      jump\t// out\n        /* \"#utility.yul\":3158:3404   */\n    tag_176:\n        /* \"#utility.yul\":3239:3240   */\n      0x00\n        /* \"#utility.yul\":3249:3362   */\n    tag_259:\n        /* \"#utility.yul\":3263:3269   */\n      dup4\n        /* \"#utility.yul\":3260:3261   */\n      dup2\n        /* \"#utility.yul\":3257:3270   */\n      lt\n        /* \"#utility.yul\":3249:3362   */\n      iszero\n      tag_261\n      jumpi\n        /* \"#utility.yul\":3348:3349   */\n      dup1\n        /* \"#utility.yul\":3343:3346   */\n      dup3\n        /* \"#utility.yul\":3339:3350   */\n      add\n        /* \"#utility.yul\":3333:3351   */\n      mload\n        /* \"#utility.yul\":3329:3330   */\n      dup2\n        /* \"#utility.yul\":3324:3327   */\n      dup5\n        /* \"#utility.yul\":3320:3331   */\n      add\n        /* \"#utility.yul\":3313:3352   */\n      mstore\n        /* \"#utility.yul\":3285:3287   */\n      0x20\n        /* \"#utility.yul\":3282:3283   */\n      dup2\n        /* \"#utility.yul\":3278:3288   */\n      add\n        /* \"#utility.yul\":3273:3288   */\n      swap1\n      pop\n        /* \"#utility.yul\":3249:3362   */\n      jump(tag_259)\n    tag_261:\n        /* \"#utility.yul\":3396:3397   */\n      0x00\n        /* \"#utility.yul\":3387:3393   */\n      dup5\n        /* \"#utility.yul\":3382:3385   */\n      dup5\n        /* \"#utility.yul\":3378:3394   */\n      add\n        /* \"#utility.yul\":3371:3398   */\n      mstore\n        /* \"#utility.yul\":3220:3404   */\n      pop\n        /* \"#utility.yul\":3158:3404   */\n      pop\n      pop\n      pop\n      jump\t// out\n        /* \"#utility.yul\":3410:3512   */\n    tag_177:\n        /* \"#utility.yul\":3451:3457   */\n      0x00\n        /* \"#utility.yul\":3502:3504   */\n      0x1f\n        /* \"#utility.yul\":3498:3505   */\n      not\n        /* \"#utility.yul\":3493:3495   */\n      0x1f\n        /* \"#utility.yul\":3486:3491   */\n      dup4\n        /* \"#utility.yul\":3482:3496   */\n      add\n        /* \"#utility.yul\":3478:3506   */\n      and\n        /* \"#utility.yul\":3468:3506   */\n      swap1\n      pop\n        /* \"#utility.yul\":3410:3512   */\n      swap2\n      swap1\n      pop\n      jump\t// out\n        /* \"#utility.yul\":3518:3891   */\n    tag_178:\n        /* \"#utility.yul\":3604:3607   */\n      0x00\n        /* \"#utility.yul\":3632:3670   */\n      tag_264\n        /* \"#utility.yul\":3664:3669   */\n      dup3\n        /* \"#utility.yul\":3632:3670   */\n      tag_174\n      jump\t// in\n    tag_264:\n        /* \"#utility.yul\":3686:3756   */\n      tag_265\n        /* \"#utility.yul\":3749:3755   */\n      dup2\n        /* \"#utility.yul\":3744:3747   */\n      dup6\n        /* \"#utility.yul\":3686:3756   */\n      tag_175\n      jump\t// in\n    tag_265:\n        /* \"#utility.yul\":3679:3756   */\n      swap4\n      pop\n        /* \"#utility.yul\":3765:3830   */\n      tag_266\n        /* \"#utility.yul\":3823:3829   */\n      dup2\n        /* \"#utility.yul\":3818:3821   */\n      dup6\n        /* \"#utility.yul\":3811:3815   */\n      0x20\n        /* \"#utility.yul\":3804:3809   */\n      dup7\n        /* \"#utility.yul\":3800:3816   */\n      add\n        /* \"#utility.yul\":3765:3830   */\n      tag_176\n      jump\t// in\n    tag_266:\n        /* \"#utility.yul\":3855:3884   */\n      tag_267\n        /* \"#utility.yul\":3877:3883   */\n      dup2\n        /* \"#utility.yul\":3855:3884   */\n      tag_177\n      jump\t// in\n    tag_267:\n        /* \"#utility.yul\":3850:3853   */\n      dup5\n        /* \"#utility.yul\":3846:3885   */\n      add\n        /* \"#utility.yul\":3839:3885   */\n      swap2\n      pop\n        /* \"#utility.yul\":3608:3891   */\n      pop\n        /* \"#utility.yul\":3518:3891   */\n      swap3\n      swap2\n      pop\n      pop\n      jump\t// out\n        /* \"#utility.yul\":3897:4525   */\n    tag_30:\n        /* \"#utility.yul\":4086:4090   */\n      0x00\n        /* \"#utility.yul\":4124:4127   */\n      0x80\n        /* \"#utility.yul\":4113:4122   */\n      dup3\n        /* \"#utility.yul\":4109:4128   */\n      add\n        /* \"#utility.yul\":4101:4128   */\n      swap1\n      pop\n        /* \"#utility.yul\":4138:4209   */\n      tag_269\n        /* \"#utility.yul\":4206:4207   */\n      0x00\n        /* \"#utility.yul\":4195:4204   */\n      dup4\n        /* \"#utility.yul\":4191:4208   */\n      add\n        /* \"#utility.yul\":4182:4188   */\n      dup8\n        /* \"#utility.yul\":4138:4209   */\n      tag_162\n      jump\t// in\n    tag_269:\n        /* \"#utility.yul\":4219:4291   */\n      tag_270\n        /* \"#utility.yul\":4287:4289   */\n      0x20\n        /* \"#utility.yul\":4276:4285   */\n      dup4\n        /* \"#utility.yul\":4272:4290   */\n      add\n        /* \"#utility.yul\":4263:4269   */\n      dup7\n        /* \"#utility.yul\":4219:4291   */\n      tag_164\n      jump\t// in\n    tag_270:\n        /* \"#utility.yul\":4301:4367   */\n      tag_271\n        /* \"#utility.yul\":4363:4365   */\n      0x40\n        /* \"#utility.yul\":4352:4361   */\n      dup4\n        /* \"#utility.yul\":4348:4366   */\n      add\n        /* \"#utility.yul\":4339:4345   */\n      dup6\n        /* \"#utility.yul\":4301:4367   */\n      tag_173\n      jump\t// in\n    tag_271:\n        /* \"#utility.yul\":4414:4423   */\n      dup2\n        /* \"#utility.yul\":4408:4412   */\n      dup2\n        /* \"#utility.yul\":4404:4424   */\n      sub\n        /* \"#utility.yul\":4399:4401   */\n      0x60\n        /* \"#utility.yul\":4388:4397   */\n      dup4\n        /* \"#utility.yul\":4384:4402   */\n      add\n        /* \"#utility.yul\":4377:4425   */\n      mstore\n        /* \"#utility.yul\":4442:4518   */\n      tag_272\n        /* \"#utility.yul\":4513:4517   */\n      dup2\n        /* \"#utility.yul\":4504:4510   */\n      dup5\n        /* \"#utility.yul\":4442:4518   */\n      tag_178\n      jump\t// in\n    tag_272:\n        /* \"#utility.yul\":4434:4518   */\n      swap1\n      pop\n        /* \"#utility.yul\":3897:4525   */\n      swap6\n      swap5\n      pop\n      pop\n      pop\n      pop\n      pop\n      jump\t// out\n        /* \"#utility.yul\":4531:4648   */\n    tag_179:\n        /* \"#utility.yul\":4640:4641   */\n      0x00\n        /* \"#utility.yul\":4637:4638   */\n      dup1\n        /* \"#utility.yul\":4630:4642   */\n      revert\n        /* \"#utility.yul\":4654:4771   */\n    tag_180:\n        /* \"#utility.yul\":4763:4764   */\n      0x00\n        /* \"#utility.yul\":4760:4761   */\n      dup1\n        /* \"#utility.yul\":4753:4765   */\n      revert\n        /* \"#utility.yul\":4777:4894   */\n    tag_181:\n        /* \"#utility.yul\":4886:4887   */\n      0x00\n        /* \"#utility.yul\":4883:4884   */\n      dup1\n        /* \"#utility.yul\":4876:4888   */\n      revert\n        /* \"#utility.yul\":4913:5465   */\n    tag_182:\n        /* \"#utility.yul\":4970:4978   */\n      0x00\n        /* \"#utility.yul\":4980:4986   */\n      dup1\n        /* \"#utility.yul\":5030:5033   */\n      dup4\n        /* \"#utility.yul\":5023:5027   */\n      0x1f\n        /* \"#utility.yul\":5015:5021   */\n      dup5\n        /* \"#utility.yul\":5011:5028   */\n      add\n        /* \"#utility.yul\":5007:5034   */\n      slt\n        /* \"#utility.yul\":4997:5119   */\n      tag_277\n      jumpi\n        /* \"#utility.yul\":5038:5117   */\n      tag_278\n      tag_179\n      jump\t// in\n    tag_278:\n        /* \"#utility.yul\":4997:5119   */\n    tag_277:\n        /* \"#utility.yul\":5151:5157   */\n      dup3\n        /* \"#utility.yul\":5138:5158   */\n      calldataload\n        /* \"#utility.yul\":5128:5158   */\n      swap1\n      pop\n        /* \"#utility.yul\":5181:5199   */\n      0xffffffffffffffff\n        /* \"#utility.yul\":5173:5179   */\n      dup2\n        /* \"#utility.yul\":5170:5200   */\n      gt\n        /* \"#utility.yul\":5167:5284   */\n      iszero\n      tag_279\n      jumpi\n        /* \"#utility.yul\":5203:5282   */\n      tag_280\n      tag_180\n      jump\t// in\n    tag_280:\n        /* \"#utility.yul\":5167:5284   */\n    tag_279:\n        /* \"#utility.yul\":5317:5321   */\n      0x20\n        /* \"#utility.yul\":5309:5315   */\n      dup4\n        /* \"#utility.yul\":5305:5322   */\n      add\n        /* \"#utility.yul\":5293:5322   */\n      swap2\n      pop\n        /* \"#utility.yul\":5371:5374   */\n      dup4\n        /* \"#utility.yul\":5363:5367   */\n      0x01\n        /* \"#utility.yul\":5355:5361   */\n      dup3\n        /* \"#utility.yul\":5351:5368   */\n      mul\n        /* \"#utility.yul\":5341:5349   */\n      dup4\n        /* \"#utility.yul\":5337:5369   */\n      add\n        /* \"#utility.yul\":5334:5375   */\n      gt\n        /* \"#utility.yul\":5331:5459   */\n      iszero\n      tag_281\n      jumpi\n        /* \"#utility.yul\":5378:5457   */\n      tag_282\n      tag_181\n      jump\t// in\n    tag_282:\n        /* \"#utility.yul\":5331:5459   */\n    tag_281:\n        /* \"#utility.yul\":4913:5465   */\n      swap3\n      pop\n      swap3\n      swap1\n      pop\n      jump\t// out\n        /* \"#utility.yul\":5471:6288   */\n    tag_38:\n        /* \"#utility.yul\":5559:5565   */\n      0x00\n        /* \"#utility.yul\":5567:5573   */\n      dup1\n        /* \"#utility.yul\":5575:5581   */\n      0x00\n        /* \"#utility.yul\":5583:5589   */\n      dup1\n        /* \"#utility.yul\":5632:5634   */\n      0x60\n        /* \"#utility.yul\":5620:5629   */\n      dup6\n        /* \"#utility.yul\":5611:5618   */\n      dup8\n        /* \"#utility.yul\":5607:5630   */\n      sub\n        /* \"#utility.yul\":5603:5635   */\n      slt\n        /* \"#utility.yul\":5600:5719   */\n      iszero\n      tag_284\n      jumpi\n        /* \"#utility.yul\":5638:5717   */\n      tag_285\n      tag_166\n      jump\t// in\n    tag_285:\n        /* \"#utility.yul\":5600:5719   */\n    tag_284:\n        /* \"#utility.yul\":5758:5759   */\n      0x00\n        /* \"#utility.yul\":5783:5836   */\n      tag_286\n        /* \"#utility.yul\":5828:5835   */\n      dup8\n        /* \"#utility.yul\":5819:5825   */\n      dup3\n        /* \"#utility.yul\":5808:5817   */\n      dup9\n        /* \"#utility.yul\":5804:5826   */\n      add\n        /* \"#utility.yul\":5783:5836   */\n      tag_171\n      jump\t// in\n    tag_286:\n        /* \"#utility.yul\":5773:5836   */\n      swap5\n      pop\n        /* \"#utility.yul\":5729:5846   */\n      pop\n        /* \"#utility.yul\":5885:5887   */\n      0x20\n        /* \"#utility.yul\":5911:5964   */\n      tag_287\n        /* \"#utility.yul\":5956:5963   */\n      dup8\n        /* \"#utility.yul\":5947:5953   */\n      dup3\n        /* \"#utility.yul\":5936:5945   */\n      dup9\n        /* \"#utility.yul\":5932:5954   */\n      add\n        /* \"#utility.yul\":5911:5964   */\n      tag_169\n      jump\t// in\n    tag_287:\n        /* \"#utility.yul\":5901:5964   */\n      swap4\n      pop\n        /* \"#utility.yul\":5856:5974   */\n      pop\n        /* \"#utility.yul\":6041:6043   */\n      0x40\n        /* \"#utility.yul\":6030:6039   */\n      dup6\n        /* \"#utility.yul\":6026:6044   */\n      add\n        /* \"#utility.yul\":6013:6045   */\n      calldataload\n        /* \"#utility.yul\":6072:6090   */\n      0xffffffffffffffff\n        /* \"#utility.yul\":6064:6070   */\n      dup2\n        /* \"#utility.yul\":6061:6091   */\n      gt\n        /* \"#utility.yul\":6058:6175   */\n      iszero\n      tag_288\n      jumpi\n        /* \"#utility.yul\":6094:6173   */\n      tag_289\n      tag_167\n      jump\t// in\n    tag_289:\n        /* \"#utility.yul\":6058:6175   */\n    tag_288:\n        /* \"#utility.yul\":6207:6271   */\n      tag_290\n        /* \"#utility.yul\":6263:6270   */\n      dup8\n        /* \"#utility.yul\":6254:6260   */\n      dup3\n        /* \"#utility.yul\":6243:6252   */\n      dup9\n        /* \"#utility.yul\":6239:6261   */\n      add\n        /* \"#utility.yul\":6207:6271   */\n      tag_182\n      jump\t// in\n    tag_290:\n        /* \"#utility.yul\":6189:6271   */\n      swap3\n      pop\n      swap3\n      pop\n        /* \"#utility.yul\":5984:6281   */\n      pop\n        /* \"#utility.yul\":5471:6288   */\n      swap3\n      swap6\n      swap2\n      swap5\n      pop\n      swap3\n      pop\n      jump\t// out\n        /* \"#utility.yul\":6294:6463   */\n    tag_183:\n        /* \"#utility.yul\":6378:6389   */\n      0x00\n        /* \"#utility.yul\":6412:6418   */\n      dup3\n        /* \"#utility.yul\":6407:6410   */\n      dup3\n        /* \"#utility.yul\":6400:6419   */\n      mstore\n        /* \"#utility.yul\":6452:6456   */\n      0x20\n        /* \"#utility.yul\":6447:6450   */\n      dup3\n        /* \"#utility.yul\":6443:6457   */\n      add\n        /* \"#utility.yul\":6428:6457   */\n      swap1\n      pop\n        /* \"#utility.yul\":6294:6463   */\n      swap3\n      swap2\n      pop\n      pop\n      jump\t// out\n        /* \"#utility.yul\":6469:6650   */\n    tag_184:\n        /* \"#utility.yul\":6609:6642   */\n      0x5472616e73616374696f6e20416c726561647920417070726f7665642e2e2e00\n        /* \"#utility.yul\":6605:6606   */\n      0x00\n        /* \"#utility.yul\":6597:6603   */\n      dup3\n        /* \"#utility.yul\":6593:6607   */\n      add\n        /* \"#utility.yul\":6586:6643   */\n      mstore\n        /* \"#utility.yul\":6469:6650   */\n      pop\n      jump\t// out\n        /* \"#utility.yul\":6656:7022   */\n    tag_185:\n        /* \"#utility.yul\":6798:6801   */\n      0x00\n        /* \"#utility.yul\":6819:6886   */\n      tag_294\n        /* \"#utility.yul\":6883:6885   */\n      0x1f\n        /* \"#utility.yul\":6878:6881   */\n      dup4\n        /* \"#utility.yul\":6819:6886   */\n      tag_183\n      jump\t// in\n    tag_294:\n        /* \"#utility.yul\":6812:6886   */\n      swap2\n      pop\n        /* \"#utility.yul\":6895:6988   */\n      tag_295\n        /* \"#utility.yul\":6984:6987   */\n      dup3\n        /* \"#utility.yul\":6895:6988   */\n      tag_184\n      jump\t// in\n    tag_295:\n        /* \"#utility.yul\":7013:7015   */\n      0x20\n        /* \"#utility.yul\":7008:7011   */\n      dup3\n        /* \"#utility.yul\":7004:7016   */\n      add\n        /* \"#utility.yul\":6997:7016   */\n      swap1\n      pop\n        /* \"#utility.yul\":6656:7022   */\n      swap2\n      swap1\n      pop\n      jump\t// out\n        /* \"#utility.yul\":7028:7447   */\n    tag_47:\n        /* \"#utility.yul\":7194:7198   */\n      0x00\n        /* \"#utility.yul\":7232:7234   */\n      0x20\n        /* \"#utility.yul\":7221:7230   */\n      dup3\n        /* \"#utility.yul\":7217:7235   */\n      add\n        /* \"#utility.yul\":7209:7235   */\n      swap1\n      pop\n        /* \"#utility.yul\":7281:7290   */\n      dup2\n        /* \"#utility.yul\":7275:7279   */\n      dup2\n        /* \"#utility.yul\":7271:7291   */\n      sub\n        /* \"#utility.yul\":7267:7268   */\n      0x00\n        /* \"#utility.yul\":7256:7265   */\n      dup4\n        /* \"#utility.yul\":7252:7269   */\n      add\n        /* \"#utility.yul\":7245:7292   */\n      mstore\n        /* \"#utility.yul\":7309:7440   */\n      tag_297\n        /* \"#utility.yul\":7435:7439   */\n      dup2\n        /* \"#utility.yul\":7309:7440   */\n      tag_185\n      jump\t// in\n    tag_297:\n        /* \"#utility.yul\":7301:7440   */\n      swap1\n      pop\n        /* \"#utility.yul\":7028:7447   */\n      swap2\n      swap1\n      pop\n      jump\t// out\n        /* \"#utility.yul\":7453:7633   */\n    tag_186:\n        /* \"#utility.yul\":7501:7578   */\n      0x4e487b7100000000000000000000000000000000000000000000000000000000\n        /* \"#utility.yul\":7498:7499   */\n      0x00\n        /* \"#utility.yul\":7491:7579   */\n      mstore\n        /* \"#utility.yul\":7598:7602   */\n      0x11\n        /* \"#utility.yul\":7595:7596   */\n      0x04\n        /* \"#utility.yul\":7588:7603   */\n      mstore\n        /* \"#utility.yul\":7622:7626   */\n      0x24\n        /* \"#utility.yul\":7619:7620   */\n      0x00\n        /* \"#utility.yul\":7612:7627   */\n      revert\n        /* \"#utility.yul\":7639:7833   */\n    tag_50:\n        /* \"#utility.yul\":7679:7683   */\n      0x00\n        /* \"#utility.yul\":7699:7719   */\n      tag_300\n        /* \"#utility.yul\":7717:7718   */\n      dup3\n        /* \"#utility.yul\":7699:7719   */\n      tag_163\n      jump\t// in\n    tag_300:\n        /* \"#utility.yul\":7694:7719   */\n      swap2\n      pop\n        /* \"#utility.yul\":7733:7753   */\n      tag_301\n        /* \"#utility.yul\":7751:7752   */\n      dup4\n        /* \"#utility.yul\":7733:7753   */\n      tag_163\n      jump\t// in\n    tag_301:\n        /* \"#utility.yul\":7728:7753   */\n      swap3\n      pop\n        /* \"#utility.yul\":7777:7778   */\n      dup3\n        /* \"#utility.yul\":7774:7775   */\n      dup3\n        /* \"#utility.yul\":7770:7779   */\n      sub\n        /* \"#utility.yul\":7762:7779   */\n      swap1\n      pop\n        /* \"#utility.yul\":7801:7802   */\n      dup2\n        /* \"#utility.yul\":7795:7799   */\n      dup2\n        /* \"#utility.yul\":7792:7803   */\n      gt\n        /* \"#utility.yul\":7789:7826   */\n      iszero\n      tag_302\n      jumpi\n        /* \"#utility.yul\":7806:7824   */\n      tag_303\n      tag_186\n      jump\t// in\n    tag_303:\n        /* \"#utility.yul\":7789:7826   */\n    tag_302:\n        /* \"#utility.yul\":7639:7833   */\n      swap3\n      swap2\n      pop\n      pop\n      jump\t// out\n        /* \"#utility.yul\":7839:8018   */\n    tag_187:\n        /* \"#utility.yul\":7979:8010   */\n      0x5472616e73616374696f6e20446f6573206e6f742045786973742e2e2e000000\n        /* \"#utility.yul\":7975:7976   */\n      0x00\n        /* \"#utility.yul\":7967:7973   */\n      dup3\n        /* \"#utility.yul\":7963:7977   */\n      add\n        /* \"#utility.yul\":7956:8011   */\n      mstore\n        /* \"#utility.yul\":7839:8018   */\n      pop\n      jump\t// out\n        /* \"#utility.yul\":8024:8390   */\n    tag_188:\n        /* \"#utility.yul\":8166:8169   */\n      0x00\n        /* \"#utility.yul\":8187:8254   */\n      tag_306\n        /* \"#utility.yul\":8251:8253   */\n      0x1d\n        /* \"#utility.yul\":8246:8249   */\n      dup4\n        /* \"#utility.yul\":8187:8254   */\n      tag_183\n      jump\t// in\n    tag_306:\n        /* \"#utility.yul\":8180:8254   */\n      swap2\n      pop\n        /* \"#utility.yul\":8263:8356   */\n      tag_307\n        /* \"#utility.yul\":8352:8355   */\n      dup3\n        /* \"#utility.yul\":8263:8356   */\n      tag_187\n      jump\t// in\n    tag_307:\n        /* \"#utility.yul\":8381:8383   */\n      0x20\n        /* \"#utility.yul\":8376:8379   */\n      dup3\n        /* \"#utility.yul\":8372:8384   */\n      add\n        /* \"#utility.yul\":8365:8384   */\n      swap1\n      pop\n        /* \"#utility.yul\":8024:8390   */\n      swap2\n      swap1\n      pop\n      jump\t// out\n        /* \"#utility.yul\":8396:8815   */\n    tag_53:\n        /* \"#utility.yul\":8562:8566   */\n      0x00\n        /* \"#utility.yul\":8600:8602   */\n      0x20\n        /* \"#utility.yul\":8589:8598   */\n      dup3\n        /* \"#utility.yul\":8585:8603   */\n      add\n        /* \"#utility.yul\":8577:8603   */\n      swap1\n      pop\n        /* \"#utility.yul\":8649:8658   */\n      dup2\n        /* \"#utility.yul\":8643:8647   */\n      dup2\n        /* \"#utility.yul\":8639:8659   */\n      sub\n        /* \"#utility.yul\":8635:8636   */\n      0x00\n        /* \"#utility.yul\":8624:8633   */\n      dup4\n        /* \"#utility.yul\":8620:8637   */\n      add\n        /* \"#utility.yul\":8613:8660   */\n      mstore\n        /* \"#utility.yul\":8677:8808   */\n      tag_309\n        /* \"#utility.yul\":8803:8807   */\n      dup2\n        /* \"#utility.yul\":8677:8808   */\n      tag_188\n      jump\t// in\n    tag_309:\n        /* \"#utility.yul\":8669:8808   */\n      swap1\n      pop\n        /* \"#utility.yul\":8396:8815   */\n      swap2\n      swap1\n      pop\n      jump\t// out\n        /* \"#utility.yul\":8821:8988   */\n    tag_189:\n        /* \"#utility.yul\":8961:8980   */\n      0x4e6f7420746865204f776e65722e2e2e2e000000000000000000000000000000\n        /* \"#utility.yul\":8957:8958   */\n      0x00\n        /* \"#utility.yul\":8949:8955   */\n      dup3\n        /* \"#utility.yul\":8945:8959   */\n      add\n        /* \"#utility.yul\":8938:8981   */\n      mstore\n        /* \"#utility.yul\":8821:8988   */\n      pop\n      jump\t// out\n        /* \"#utility.yul\":8994:9360   */\n    tag_190:\n        /* \"#utility.yul\":9136:9139   */\n      0x00\n        /* \"#utility.yul\":9157:9224   */\n      tag_312\n        /* \"#utility.yul\":9221:9223   */\n      0x11\n        /* \"#utility.yul\":9216:9219   */\n      dup4\n        /* \"#utility.yul\":9157:9224   */\n      tag_183\n      jump\t// in\n    tag_312:\n        /* \"#utility.yul\":9150:9224   */\n      swap2\n      pop\n        /* \"#utility.yul\":9233:9326   */\n      tag_313\n        /* \"#utility.yul\":9322:9325   */\n      dup3\n        /* \"#utility.yul\":9233:9326   */\n      tag_189\n      jump\t// in\n    tag_313:\n        /* \"#utility.yul\":9351:9353   */\n      0x20\n        /* \"#utility.yul\":9346:9349   */\n      dup3\n        /* \"#utility.yul\":9342:9354   */\n      add\n        /* \"#utility.yul\":9335:9354   */\n      swap1\n      pop\n        /* \"#utility.yul\":8994:9360   */\n      swap2\n      swap1\n      pop\n      jump\t// out\n        /* \"#utility.yul\":9366:9785   */\n    tag_57:\n        /* \"#utility.yul\":9532:9536   */\n      0x00\n        /* \"#utility.yul\":9570:9572   */\n      0x20\n        /* \"#utility.yul\":9559:9568   */\n      dup3\n        /* \"#utility.yul\":9555:9573   */\n      add\n        /* \"#utility.yul\":9547:9573   */\n      swap1\n      pop\n        /* \"#utility.yul\":9619:9628   */\n      dup2\n        /* \"#utility.yul\":9613:9617   */\n      dup2\n        /* \"#utility.yul\":9609:9629   */\n      sub\n        /* \"#utility.yul\":9605:9606   */\n      0x00\n        /* \"#utility.yul\":9594:9603   */\n      dup4\n        /* \"#utility.yul\":9590:9607   */\n      add\n        /* \"#utility.yul\":9583:9630   */\n      mstore\n        /* \"#utility.yul\":9647:9778   */\n      tag_315\n        /* \"#utility.yul\":9773:9777   */\n      dup2\n        /* \"#utility.yul\":9647:9778   */\n      tag_190\n      jump\t// in\n    tag_315:\n        /* \"#utility.yul\":9639:9778   */\n      swap1\n      pop\n        /* \"#utility.yul\":9366:9785   */\n      swap2\n      swap1\n      pop\n      jump\t// out\n        /* \"#utility.yul\":9791:9971   */\n    tag_61:\n        /* \"#utility.yul\":9839:9916   */\n      0x4e487b7100000000000000000000000000000000000000000000000000000000\n        /* \"#utility.yul\":9836:9837   */\n      0x00\n        /* \"#utility.yul\":9829:9917   */\n      mstore\n        /* \"#utility.yul\":9936:9940   */\n      0x32\n        /* \"#utility.yul\":9933:9934   */\n      0x04\n        /* \"#utility.yul\":9926:9941   */\n      mstore\n        /* \"#utility.yul\":9960:9964   */\n      0x24\n        /* \"#utility.yul\":9957:9958   */\n      0x00\n        /* \"#utility.yul\":9950:9965   */\n      revert\n        /* \"#utility.yul\":9977:10157   */\n    tag_191:\n        /* \"#utility.yul\":10025:10102   */\n      0x4e487b7100000000000000000000000000000000000000000000000000000000\n        /* \"#utility.yul\":10022:10023   */\n      0x00\n        /* \"#utility.yul\":10015:10103   */\n      mstore\n        /* \"#utility.yul\":10122:10126   */\n      0x22\n        /* \"#utility.yul\":10119:10120   */\n      0x04\n        /* \"#utility.yul\":10112:10127   */\n      mstore\n        /* \"#utility.yul\":10146:10150   */\n      0x24\n        /* \"#utility.yul\":10143:10144   */\n      0x00\n        /* \"#utility.yul\":10136:10151   */\n      revert\n        /* \"#utility.yul\":10163:10483   */\n    tag_64:\n        /* \"#utility.yul\":10207:10213   */\n      0x00\n        /* \"#utility.yul\":10244:10245   */\n      0x02\n        /* \"#utility.yul\":10238:10242   */\n      dup3\n        /* \"#utility.yul\":10234:10246   */\n      div\n        /* \"#utility.yul\":10224:10246   */\n      swap1\n      pop\n        /* \"#utility.yul\":10291:10292   */\n      0x01\n        /* \"#utility.yul\":10285:10289   */\n      dup3\n        /* \"#utility.yul\":10281:10293   */\n      and\n        /* \"#utility.yul\":10312:10330   */\n      dup1\n        /* \"#utility.yul\":10302:10383   */\n      tag_319\n      jumpi\n        /* \"#utility.yul\":10368:10372   */\n      0x7f\n        /* \"#utility.yul\":10360:10366   */\n      dup3\n        /* \"#utility.yul\":10356:10373   */\n      and\n        /* \"#utility.yul\":10346:10373   */\n      swap2\n      pop\n        /* \"#utility.yul\":10302:10383   */\n    tag_319:\n        /* \"#utility.yul\":10430:10432   */\n      0x20\n        /* \"#utility.yul\":10422:10428   */\n      dup3\n        /* \"#utility.yul\":10419:10433   */\n      lt\n        /* \"#utility.yul\":10399:10417   */\n      dup2\n        /* \"#utility.yul\":10396:10434   */\n      sub\n        /* \"#utility.yul\":10393:10477   */\n      tag_320\n      jumpi\n        /* \"#utility.yul\":10449:10467   */\n      tag_321\n      tag_191\n      jump\t// in\n    tag_321:\n        /* \"#utility.yul\":10393:10477   */\n    tag_320:\n        /* \"#utility.yul\":10214:10483   */\n      pop\n        /* \"#utility.yul\":10163:10483   */\n      swap2\n      swap1\n      pop\n      jump\t// out\n        /* \"#utility.yul\":10489:10667   */\n    tag_192:\n        /* \"#utility.yul\":10629:10659   */\n      0x5472616e73616374696f6e20416c726561647920457865637574656400000000\n        /* \"#utility.yul\":10625:10626   */\n      0x00\n        /* \"#utility.yul\":10617:10623   */\n      dup3\n        /* \"#utility.yul\":10613:10627   */\n      add\n        /* \"#utility.yul\":10606:10660   */\n      mstore\n        /* \"#utility.yul\":10489:10667   */\n      pop\n      jump\t// out\n        /* \"#utility.yul\":10673:11039   */\n    tag_193:\n        /* \"#utility.yul\":10815:10818   */\n      0x00\n        /* \"#utility.yul\":10836:10903   */\n      tag_324\n        /* \"#utility.yul\":10900:10902   */\n      0x1c\n        /* \"#utility.yul\":10895:10898   */\n      dup4\n        /* \"#utility.yul\":10836:10903   */\n      tag_183\n      jump\t// in\n    tag_324:\n        /* \"#utility.yul\":10829:10903   */\n      swap2\n      pop\n        /* \"#utility.yul\":10912:11005   */\n      tag_325\n        /* \"#utility.yul\":11001:11004   */\n      dup3\n        /* \"#utility.yul\":10912:11005   */\n      tag_192\n      jump\t// in\n    tag_325:\n        /* \"#utility.yul\":11030:11032   */\n      0x20\n        /* \"#utility.yul\":11025:11028   */\n      dup3\n        /* \"#utility.yul\":11021:11033   */\n      add\n        /* \"#utility.yul\":11014:11033   */\n      swap1\n      pop\n        /* \"#utility.yul\":10673:11039   */\n      swap2\n      swap1\n      pop\n      jump\t// out\n        /* \"#utility.yul\":11045:11464   */\n    tag_71:\n        /* \"#utility.yul\":11211:11215   */\n      0x00\n        /* \"#utility.yul\":11249:11251   */\n      0x20\n        /* \"#utility.yul\":11238:11247   */\n      dup3\n        /* \"#utility.yul\":11234:11252   */\n      add\n        /* \"#utility.yul\":11226:11252   */\n      swap1\n      pop\n        /* \"#utility.yul\":11298:11307   */\n      dup2\n        /* \"#utility.yul\":11292:11296   */\n      dup2\n        /* \"#utility.yul\":11288:11308   */\n      sub\n        /* \"#utility.yul\":11284:11285   */\n      0x00\n        /* \"#utility.yul\":11273:11282   */\n      dup4\n        /* \"#utility.yul\":11269:11286   */\n      add\n        /* \"#utility.yul\":11262:11309   */\n      mstore\n        /* \"#utility.yul\":11326:11457   */\n      tag_327\n        /* \"#utility.yul\":11452:11456   */\n      dup2\n        /* \"#utility.yul\":11326:11457   */\n      tag_193\n      jump\t// in\n    tag_327:\n        /* \"#utility.yul\":11318:11457   */\n      swap1\n      pop\n        /* \"#utility.yul\":11045:11464   */\n      swap2\n      swap1\n      pop\n      jump\t// out\n        /* \"#utility.yul\":11470:11802   */\n    tag_74:\n        /* \"#utility.yul\":11591:11595   */\n      0x00\n        /* \"#utility.yul\":11629:11631   */\n      0x40\n        /* \"#utility.yul\":11618:11627   */\n      dup3\n        /* \"#utility.yul\":11614:11632   */\n      add\n        /* \"#utility.yul\":11606:11632   */\n      swap1\n      pop\n        /* \"#utility.yul\":11642:11713   */\n      tag_329\n        /* \"#utility.yul\":11710:11711   */\n      0x00\n        /* \"#utility.yul\":11699:11708   */\n      dup4\n        /* \"#utility.yul\":11695:11712   */\n      add\n        /* \"#utility.yul\":11686:11692   */\n      dup6\n        /* \"#utility.yul\":11642:11713   */\n      tag_164\n      jump\t// in\n    tag_329:\n        /* \"#utility.yul\":11723:11795   */\n      tag_330\n        /* \"#utility.yul\":11791:11793   */\n      0x20\n        /* \"#utility.yul\":11780:11789   */\n      dup4\n        /* \"#utility.yul\":11776:11794   */\n      add\n        /* \"#utility.yul\":11767:11773   */\n      dup5\n        /* \"#utility.yul\":11723:11795   */\n      tag_162\n      jump\t// in\n    tag_330:\n        /* \"#utility.yul\":11470:11802   */\n      swap4\n      swap3\n      pop\n      pop\n      pop\n      jump\t// out\n        /* \"#utility.yul\":11808:11985   */\n    tag_194:\n        /* \"#utility.yul\":11948:11977   */\n      0x5472616e73616374696f6e204e6f7420417070726f7665642e2e2e0000000000\n        /* \"#utility.yul\":11944:11945   */\n      0x00\n        /* \"#utility.yul\":11936:11942   */\n      dup3\n        /* \"#utility.yul\":11932:11946   */\n      add\n        /* \"#utility.yul\":11925:11978   */\n      mstore\n        /* \"#utility.yul\":11808:11985   */\n      pop\n      jump\t// out\n        /* \"#utility.yul\":11991:12357   */\n    tag_195:\n        /* \"#utility.yul\":12133:12136   */\n      0x00\n        /* \"#utility.yul\":12154:12221   */\n      tag_333\n        /* \"#utility.yul\":12218:12220   */\n      0x1b\n        /* \"#utility.yul\":12213:12216   */\n      dup4\n        /* \"#utility.yul\":12154:12221   */\n      tag_183\n      jump\t// in\n    tag_333:\n        /* \"#utility.yul\":12147:12221   */\n      swap2\n      pop\n        /* \"#utility.yul\":12230:12323   */\n      tag_334\n        /* \"#utility.yul\":12319:12322   */\n      dup3\n        /* \"#utility.yul\":12230:12323   */\n      tag_194\n      jump\t// in\n    tag_334:\n        /* \"#utility.yul\":12348:12350   */\n      0x20\n        /* \"#utility.yul\":12343:12346   */\n      dup3\n        /* \"#utility.yul\":12339:12351   */\n      add\n        /* \"#utility.yul\":12332:12351   */\n      swap1\n      pop\n        /* \"#utility.yul\":11991:12357   */\n      swap2\n      swap1\n      pop\n      jump\t// out\n        /* \"#utility.yul\":12363:12782   */\n    tag_85:\n        /* \"#utility.yul\":12529:12533   */\n      0x00\n        /* \"#utility.yul\":12567:12569   */\n      0x20\n        /* \"#utility.yul\":12556:12565   */\n      dup3\n        /* \"#utility.yul\":12552:12570   */\n      add\n        /* \"#utility.yul\":12544:12570   */\n      swap1\n      pop\n        /* \"#utility.yul\":12616:12625   */\n      dup2\n        /* \"#utility.yul\":12610:12614   */\n      dup2\n        /* \"#utility.yul\":12606:12626   */\n      sub\n        /* \"#utility.yul\":12602:12603   */\n      0x00\n        /* \"#utility.yul\":12591:12600   */\n      dup4\n        /* \"#utility.yul\":12587:12604   */\n      add\n        /* \"#utility.yul\":12580:12627   */\n      mstore\n        /* \"#utility.yul\":12644:12775   */\n      tag_336\n        /* \"#utility.yul\":12770:12774   */\n      dup2\n        /* \"#utility.yul\":12644:12775   */\n      tag_195\n      jump\t// in\n    tag_336:\n        /* \"#utility.yul\":12636:12775   */\n      swap1\n      pop\n        /* \"#utility.yul\":12363:12782   */\n      swap2\n      swap1\n      pop\n      jump\t// out\n        /* \"#utility.yul\":12788:12968   */\n    tag_196:\n        /* \"#utility.yul\":12836:12913   */\n      0x4e487b7100000000000000000000000000000000000000000000000000000000\n        /* \"#utility.yul\":12833:12834   */\n      0x00\n        /* \"#utility.yul\":12826:12914   */\n      mstore\n        /* \"#utility.yul\":12933:12937   */\n      0x41\n        /* \"#utility.yul\":12930:12931   */\n      0x04\n        /* \"#utility.yul\":12923:12938   */\n      mstore\n        /* \"#utility.yul\":12957:12961   */\n      0x24\n        /* \"#utility.yul\":12954:12955   */\n      0x00\n        /* \"#utility.yul\":12947:12962   */\n      revert\n        /* \"#utility.yul\":12974:13114   */\n    tag_197:\n        /* \"#utility.yul\":13022:13026   */\n      0x00\n        /* \"#utility.yul\":13045:13048   */\n      dup2\n        /* \"#utility.yul\":13037:13048   */\n      swap1\n      pop\n        /* \"#utility.yul\":13068:13071   */\n      dup2\n        /* \"#utility.yul\":13065:13066   */\n      0x00\n        /* \"#utility.yul\":13058:13072   */\n      mstore\n        /* \"#utility.yul\":13102:13106   */\n      0x20\n        /* \"#utility.yul\":13099:13100   */\n      0x00\n        /* \"#utility.yul\":13089:13107   */\n      keccak256\n        /* \"#utility.yul\":13081:13107   */\n      swap1\n      pop\n        /* \"#utility.yul\":12974:13114   */\n      swap2\n      swap1\n      pop\n      jump\t// out\n        /* \"#utility.yul\":13120:13213   */\n    tag_198:\n        /* \"#utility.yul\":13157:13163   */\n      0x00\n        /* \"#utility.yul\":13204:13206   */\n      0x20\n        /* \"#utility.yul\":13199:13201   */\n      0x1f\n        /* \"#utility.yul\":13192:13197   */\n      dup4\n        /* \"#utility.yul\":13188:13202   */\n      add\n        /* \"#utility.yul\":13184:13207   */\n      div\n        /* \"#utility.yul\":13174:13207   */\n      swap1\n      pop\n        /* \"#utility.yul\":13120:13213   */\n      swap2\n      swap1\n      pop\n      jump\t// out\n        /* \"#utility.yul\":13219:13326   */\n    tag_199:\n        /* \"#utility.yul\":13263:13271   */\n      0x00\n        /* \"#utility.yul\":13313:13318   */\n      dup3\n        /* \"#utility.yul\":13307:13311   */\n      dup3\n        /* \"#utility.yul\":13303:13319   */\n      shl\n        /* \"#utility.yul\":13282:13319   */\n      swap1\n      pop\n        /* \"#utility.yul\":13219:13326   */\n      swap3\n      swap2\n      pop\n      pop\n      jump\t// out\n        /* \"#utility.yul\":13332:13725   */\n    tag_200:\n        /* \"#utility.yul\":13401:13407   */\n      0x00\n        /* \"#utility.yul\":13451:13452   */\n      0x08\n        /* \"#utility.yul\":13439:13449   */\n      dup4\n        /* \"#utility.yul\":13435:13453   */\n      mul\n        /* \"#utility.yul\":13474:13571   */\n      tag_342\n        /* \"#utility.yul\":13504:13570   */\n      0xffffffffffffffffffffffffffffffffffffffffffffffffffffffffffffffff\n        /* \"#utility.yul\":13493:13502   */\n      dup3\n        /* \"#utility.yul\":13474:13571   */\n      tag_199\n      jump\t// in\n    tag_342:\n        /* \"#utility.yul\":13592:13631   */\n      tag_343\n        /* \"#utility.yul\":13622:13630   */\n      dup7\n        /* \"#utility.yul\":13611:13620   */\n      dup4\n        /* \"#utility.yul\":13592:13631   */\n      tag_199\n      jump\t// in\n    tag_343:\n        /* \"#utility.yul\":13580:13631   */\n      swap6\n      pop\n        /* \"#utility.yul\":13664:13668   */\n      dup1\n        /* \"#utility.yul\":13660:13669   */\n      not\n        /* \"#utility.yul\":13653:13658   */\n      dup5\n        /* \"#utility.yul\":13649:13670   */\n      and\n        /* \"#utility.yul\":13640:13670   */\n      swap4\n      pop\n        /* \"#utility.yul\":13713:13717   */\n      dup1\n        /* \"#utility.yul\":13703:13711   */\n      dup7\n        /* \"#utility.yul\":13699:13718   */\n      and\n        /* \"#utility.yul\":13692:13697   */\n      dup5\n        /* \"#utility.yul\":13689:13719   */\n      or\n        /* \"#utility.yul\":13679:13719   */\n      swap3\n      pop\n        /* \"#utility.yul\":13408:13725   */\n      pop\n      pop\n        /* \"#utility.yul\":13332:13725   */\n      swap4\n      swap3\n      pop\n      pop\n      pop\n      jump\t// out\n        /* \"#utility.yul\":13731:13791   */\n    tag_201:\n        /* \"#utility.yul\":13759:13762   */\n      0x00\n        /* \"#utility.yul\":13780:13785   */\n      dup2\n        /* \"#utility.yul\":13773:13785   */\n      swap1\n      pop\n        /* \"#utility.yul\":13731:13791   */\n      swap2\n      swap1\n      pop\n      jump\t// out\n        /* \"#utility.yul\":13797:13939   */\n    tag_202:\n        /* \"#utility.yul\":13847:13856   */\n      0x00\n        /* \"#utility.yul\":13880:13933   */\n      tag_346\n        /* \"#utility.yul\":13898:13932   */\n      tag_347\n        /* \"#utility.yul\":13907:13931   */\n      tag_348\n        /* \"#utility.yul\":13925:13930   */\n      dup5\n        /* \"#utility.yul\":13907:13931   */\n      tag_163\n      jump\t// in\n    tag_348:\n        /* \"#utility.yul\":13898:13932   */\n      tag_201\n      jump\t// in\n    tag_347:\n        /* \"#utility.yul\":13880:13933   */\n      tag_163\n      jump\t// in\n    tag_346:\n        /* \"#utility.yul\":13867:13933   */\n      swap1\n      pop\n        /* \"#utility.yul\":13797:13939   */\n      swap2\n      swap1\n      pop\n      jump\t// out\n        /* \"#utility.yul\":13945:14020   */\n    tag_203:\n        /* \"#utility.yul\":13988:13991   */\n      0x00\n        /* \"#utility.yul\":14009:14014   */\n      dup2\n        /* \"#utility.yul\":14002:14014   */\n      swap1\n      pop\n        /* \"#utility.yul\":13945:14020   */\n      swap2\n      swap1\n      pop\n      jump\t// out\n        /* \"#utility.yul\":14026:14295   */\n    tag_204:\n        /* \"#utility.yul\":14136:14175   */\n      tag_351\n        /* \"#utility.yul\":14167:14174   */\n      dup4\n        /* \"#utility.yul\":14136:14175   */\n      tag_202\n      jump\t// in\n    tag_351:\n        /* \"#utility.yul\":14197:14288   */\n      tag_352\n        /* \"#utility.yul\":14246:14287   */\n      tag_353\n        /* \"#utility.yul\":14270:14286   */\n      dup3\n        /* \"#utility.yul\":14246:14287   */\n      tag_203\n      jump\t// in\n    tag_353:\n        /* \"#utility.yul\":14238:14244   */\n      dup5\n        /* \"#utility.yul\":14231:14235   */\n      dup5\n        /* \"#utility.yul\":14225:14236   */\n      sload\n        /* \"#utility.yul\":14197:14288   */\n      tag_200\n      jump\t// in\n    tag_352:\n        /* \"#utility.yul\":14191:14195   */\n      dup3\n        /* \"#utility.yul\":14184:14289   */\n      sstore\n        /* \"#utility.yul\":14102:14295   */\n      pop\n        /* \"#utility.yul\":14026:14295   */\n      pop\n      pop\n      pop\n      jump\t// out\n        /* \"#utility.yul\":14301:14374   */\n    tag_205:\n        /* \"#utility.yul\":14346:14349   */\n      0x00\n        /* \"#utility.yul\":14301:14374   */\n      swap1\n      jump\t// out\n        /* \"#utility.yul\":14380:14569   */\n    tag_206:\n        /* \"#utility.yul\":14457:14489   */\n      tag_356\n      tag_205\n      jump\t// in\n    tag_356:\n        /* \"#utility.yul\":14498:14563   */\n      tag_357\n        /* \"#utility.yul\":14556:14562   */\n      dup2\n        /* \"#utility.yul\":14548:14554   */\n      dup5\n        /* \"#utility.yul\":14542:14546   */\n      dup5\n        /* \"#utility.yul\":14498:14563   */\n      tag_204\n      jump\t// in\n    tag_357:\n        /* \"#utility.yul\":14433:14569   */\n      pop\n        /* \"#utility.yul\":14380:14569   */\n      pop\n      pop\n      jump\t// out\n        /* \"#utility.yul\":14575:14761   */\n    tag_207:\n        /* \"#utility.yul\":14635:14755   */\n    tag_359:\n        /* \"#utility.yul\":14652:14655   */\n      dup2\n        /* \"#utility.yul\":14645:14650   */\n      dup2\n        /* \"#utility.yul\":14642:14656   */\n      lt\n        /* \"#utility.yul\":14635:14755   */\n      iszero\n      tag_361\n      jumpi\n        /* \"#utility.yul\":14706:14745   */\n      tag_362\n        /* \"#utility.yul\":14743:14744   */\n      0x00\n        /* \"#utility.yul\":14736:14741   */\n      dup3\n        /* \"#utility.yul\":14706:14745   */\n      tag_206\n      jump\t// in\n    tag_362:\n        /* \"#utility.yul\":14679:14680   */\n      0x01\n        /* \"#utility.yul\":14672:14677   */\n      dup2\n        /* \"#utility.yul\":14668:14681   */\n      add\n        /* \"#utility.yul\":14659:14681   */\n      swap1\n      pop\n        /* \"#utility.yul\":14635:14755   */\n      jump(tag_359)\n    tag_361:\n        /* \"#utility.yul\":14575:14761   */\n      pop\n      pop\n      jump\t// out\n        /* \"#utility.yul\":14767:15308   */\n    tag_208:\n        /* \"#utility.yul\":14867:14869   */\n      0x1f\n        /* \"#utility.yul\":14862:14865   */\n      dup3\n        /* \"#utility.yul\":14859:14870   */\n      gt\n        /* \"#utility.yul\":14856:15301   */\n      iszero\n      tag_364\n      jumpi\n        /* \"#utility.yul\":14901:14938   */\n      tag_365\n        /* \"#utility.yul\":14932:14937   */\n      dup2\n        /* \"#utility.yul\":14901:14938   */\n      tag_197\n      jump\t// in\n    tag_365:\n        /* \"#utility.yul\":14984:15013   */\n      tag_366\n        /* \"#utility.yul\":15002:15012   */\n      dup5\n        /* \"#utility.yul\":14984:15013   */\n      tag_198\n      jump\t// in\n    tag_366:\n        /* \"#utility.yul\":14974:14982   */\n      dup2\n        /* \"#utility.yul\":14970:15014   */\n      add\n        /* \"#utility.yul\":15167:15169   */\n      0x20\n        /* \"#utility.yul\":15155:15165   */\n      dup6\n        /* \"#utility.yul\":15152:15170   */\n      lt\n        /* \"#utility.yul\":15149:15198   */\n      iszero\n      tag_367\n      jumpi\n        /* \"#utility.yul\":15188:15196   */\n      dup2\n        /* \"#utility.yul\":15173:15196   */\n      swap1\n      pop\n        /* \"#utility.yul\":15149:15198   */\n    tag_367:\n        /* \"#utility.yul\":15211:15291   */\n      tag_368\n        /* \"#utility.yul\":15267:15289   */\n      tag_369\n        /* \"#utility.yul\":15285:15288   */\n      dup6\n        /* \"#utility.yul\":15267:15289   */\n      tag_198\n      jump\t// in\n    tag_369:\n        /* \"#utility.yul\":15257:15265   */\n      dup4\n        /* \"#utility.yul\":15253:15290   */\n      add\n        /* \"#utility.yul\":15240:15251   */\n      dup3\n        /* \"#utility.yul\":15211:15291   */\n      tag_207\n      jump\t// in\n    tag_368:\n        /* \"#utility.yul\":14871:15301   */\n      pop\n      pop\n        /* \"#utility.yul\":14856:15301   */\n    tag_364:\n        /* \"#utility.yul\":14767:15308   */\n      pop\n      pop\n      pop\n      jump\t// out\n        /* \"#utility.yul\":15314:15431   */\n    tag_209:\n        /* \"#utility.yul\":15368:15376   */\n      0x00\n        /* \"#utility.yul\":15418:15423   */\n      dup3\n        /* \"#utility.yul\":15412:15416   */\n      dup3\n        /* \"#utility.yul\":15408:15424   */\n      shr\n        /* \"#utility.yul\":15387:15424   */\n      swap1\n      pop\n        /* \"#utility.yul\":15314:15431   */\n      swap3\n      swap2\n      pop\n      pop\n      jump\t// out\n        /* \"#utility.yul\":15437:15606   */\n    tag_210:\n        /* \"#utility.yul\":15481:15487   */\n      0x00\n        /* \"#utility.yul\":15514:15565   */\n      tag_372\n        /* \"#utility.yul\":15562:15563   */\n      0x00\n        /* \"#utility.yul\":15558:15564   */\n      not\n        /* \"#utility.yul\":15550:15555   */\n      dup5\n        /* \"#utility.yul\":15547:15548   */\n      0x08\n        /* \"#utility.yul\":15543:15556   */\n      mul\n        /* \"#utility.yul\":15514:15565   */\n      tag_209\n      jump\t// in\n    tag_372:\n        /* \"#utility.yul\":15510:15566   */\n      not\n        /* \"#utility.yul\":15595:15599   */\n      dup1\n        /* \"#utility.yul\":15589:15593   */\n      dup4\n        /* \"#utility.yul\":15585:15600   */\n      and\n        /* \"#utility.yul\":15575:15600   */\n      swap2\n      pop\n        /* \"#utility.yul\":15488:15606   */\n      pop\n        /* \"#utility.yul\":15437:15606   */\n      swap3\n      swap2\n      pop\n      pop\n      jump\t// out\n        /* \"#utility.yul\":15611:15906   */\n    tag_211:\n        /* \"#utility.yul\":15687:15691   */\n      0x00\n        /* \"#utility.yul\":15833:15862   */\n      tag_374\n        /* \"#utility.yul\":15858:15861   */\n      dup4\n        /* \"#utility.yul\":15852:15856   */\n      dup4\n        /* \"#utility.yul\":15833:15862   */\n      tag_210\n      jump\t// in\n    tag_374:\n        /* \"#utility.yul\":15825:15862   */\n      swap2\n      pop\n        /* \"#utility.yul\":15895:15898   */\n      dup3\n        /* \"#utility.yul\":15892:15893   */\n      0x02\n        /* \"#utility.yul\":15888:15899   */\n      mul\n        /* \"#utility.yul\":15882:15886   */\n      dup3\n        /* \"#utility.yul\":15879:15900   */\n      or\n        /* \"#utility.yul\":15871:15900   */\n      swap1\n      pop\n        /* \"#utility.yul\":15611:15906   */\n      swap3\n      swap2\n      pop\n      pop\n      jump\t// out\n        /* \"#utility.yul\":15911:17301   */\n    tag_112:\n        /* \"#utility.yul\":16026:16062   */\n      tag_376\n        /* \"#utility.yul\":16058:16061   */\n      dup3\n        /* \"#utility.yul\":16026:16062   */\n      tag_174\n      jump\t// in\n    tag_376:\n        /* \"#utility.yul\":16127:16145   */\n      0xffffffffffffffff\n        /* \"#utility.yul\":16119:16125   */\n      dup2\n        /* \"#utility.yul\":16116:16146   */\n      gt\n        /* \"#utility.yul\":16113:16169   */\n      iszero\n      tag_377\n      jumpi\n        /* \"#utility.yul\":16149:16167   */\n      tag_378\n      tag_196\n      jump\t// in\n    tag_378:\n        /* \"#utility.yul\":16113:16169   */\n    tag_377:\n        /* \"#utility.yul\":16193:16231   */\n      tag_379\n        /* \"#utility.yul\":16225:16229   */\n      dup3\n        /* \"#utility.yul\":16219:16230   */\n      sload\n        /* \"#utility.yul\":16193:16231   */\n      tag_64\n      jump\t// in\n    tag_379:\n        /* \"#utility.yul\":16278:16344   */\n      tag_380\n        /* \"#utility.yul\":16337:16343   */\n      dup3\n        /* \"#utility.yul\":16329:16335   */\n      dup3\n        /* \"#utility.yul\":16323:16327   */\n      dup6\n        /* \"#utility.yul\":16278:16344   */\n      tag_208\n      jump\t// in\n    tag_380:\n        /* \"#utility.yul\":16371:16372   */\n      0x00\n        /* \"#utility.yul\":16395:16399   */\n      0x20\n        /* \"#utility.yul\":16382:16399   */\n      swap1\n      pop\n        /* \"#utility.yul\":16427:16429   */\n      0x1f\n        /* \"#utility.yul\":16419:16425   */\n      dup4\n        /* \"#utility.yul\":16416:16430   */\n      gt\n        /* \"#utility.yul\":16444:16445   */\n      0x01\n        /* \"#utility.yul\":16439:17056   */\n      dup2\n      eq\n      tag_382\n      jumpi\n        /* \"#utility.yul\":17100:17101   */\n      0x00\n        /* \"#utility.yul\":17117:17123   */\n      dup5\n        /* \"#utility.yul\":17114:17191   */\n      iszero\n      tag_383\n      jumpi\n        /* \"#utility.yul\":17166:17175   */\n      dup3\n        /* \"#utility.yul\":17161:17164   */\n      dup8\n        /* \"#utility.yul\":17157:17176   */\n      add\n        /* \"#utility.yul\":17151:17177   */\n      mload\n        /* \"#utility.yul\":17142:17177   */\n      swap1\n      pop\n        /* \"#utility.yul\":17114:17191   */\n    tag_383:\n        /* \"#utility.yul\":17217:17284   */\n      tag_384\n        /* \"#utility.yul\":17277:17283   */\n      dup6\n        /* \"#utility.yul\":17270:17275   */\n      dup3\n        /* \"#utility.yul\":17217:17284   */\n      tag_211\n      jump\t// in\n    tag_384:\n        /* \"#utility.yul\":17211:17215   */\n      dup7\n        /* \"#utility.yul\":17204:17285   */\n      sstore\n        /* \"#utility.yul\":17073:17295   */\n      pop\n        /* \"#utility.yul\":16409:17295   */\n      jump(tag_381)\n        /* \"#utility.yul\":16439:17056   */\n    tag_382:\n        /* \"#utility.yul\":16491:16495   */\n      0x1f\n        /* \"#utility.yul\":16487:16496   */\n      not\n        /* \"#utility.yul\":16479:16485   */\n      dup5\n        /* \"#utility.yul\":16475:16497   */\n      and\n        /* \"#utility.yul\":16525:16561   */\n      tag_385\n        /* \"#utility.yul\":16556:16560   */\n      dup7\n        /* \"#utility.yul\":16525:16561   */\n      tag_197\n      jump\t// in\n    tag_385:\n        /* \"#utility.yul\":16583:16584   */\n      0x00\n        /* \"#utility.yul\":16597:16805   */\n    tag_386:\n        /* \"#utility.yul\":16611:16618   */\n      dup3\n        /* \"#utility.yul\":16608:16609   */\n      dup2\n        /* \"#utility.yul\":16605:16619   */\n      lt\n        /* \"#utility.yul\":16597:16805   */\n      iszero\n      tag_388\n      jumpi\n        /* \"#utility.yul\":16690:16699   */\n      dup5\n        /* \"#utility.yul\":16685:16688   */\n      dup10\n        /* \"#utility.yul\":16681:16700   */\n      add\n        /* \"#utility.yul\":16675:16701   */\n      mload\n        /* \"#utility.yul\":16667:16673   */\n      dup3\n        /* \"#utility.yul\":16660:16702   */\n      sstore\n        /* \"#utility.yul\":16741:16742   */\n      0x01\n        /* \"#utility.yul\":16733:16739   */\n      dup3\n        /* \"#utility.yul\":16729:16743   */\n      add\n        /* \"#utility.yul\":16719:16743   */\n      swap2\n      pop\n        /* \"#utility.yul\":16788:16790   */\n      0x20\n        /* \"#utility.yul\":16777:16786   */\n      dup6\n        /* \"#utility.yul\":16773:16791   */\n      add\n        /* \"#utility.yul\":16760:16791   */\n      swap5\n      pop\n        /* \"#utility.yul\":16634:16638   */\n      0x20\n        /* \"#utility.yul\":16631:16632   */\n      dup2\n        /* \"#utility.yul\":16627:16639   */\n      add\n        /* \"#utility.yul\":16622:16639   */\n      swap1\n      pop\n        /* \"#utility.yul\":16597:16805   */\n      jump(tag_386)\n    tag_388:\n        /* \"#utility.yul\":16833:16839   */\n      dup7\n        /* \"#utility.yul\":16824:16831   */\n      dup4\n        /* \"#utility.yul\":16821:16840   */\n      lt\n        /* \"#utility.yul\":16818:16997   */\n      iszero\n      tag_389\n      jumpi\n        /* \"#utility.yul\":16891:16900   */\n      dup5\n        /* \"#utility.yul\":16886:16889   */\n      dup10\n        /* \"#utility.yul\":16882:16901   */\n      add\n        /* \"#utility.yul\":16876:16902   */\n      mload\n        /* \"#utility.yul\":16934:16982   */\n      tag_390\n        /* \"#utility.yul\":16976:16980   */\n      0x1f\n        /* \"#utility.yul\":16968:16974   */\n      dup10\n        /* \"#utility.yul\":16964:16981   */\n      and\n        /* \"#utility.yul\":16953:16962   */\n      dup3\n        /* \"#utility.yul\":16934:16982   */\n      tag_210\n      jump\t// in\n    tag_390:\n        /* \"#utility.yul\":16926:16932   */\n      dup4\n        /* \"#utility.yul\":16919:16983   */\n      sstore\n        /* \"#utility.yul\":16841:16997   */\n      pop\n        /* \"#utility.yul\":16818:16997   */\n    tag_389:\n        /* \"#utility.yul\":17043:17044   */\n      0x01\n        /* \"#utility.yul\":17039:17040   */\n      0x02\n        /* \"#utility.yul\":17031:17037   */\n      dup9\n        /* \"#utility.yul\":17027:17041   */\n      mul\n        /* \"#utility.yul\":17023:17045   */\n      add\n        /* \"#utility.yul\":17017:17021   */\n      dup9\n        /* \"#utility.yul\":17010:17046   */\n      sstore\n        /* \"#utility.yul\":16446:17056   */\n      pop\n      pop\n      pop\n        /* \"#utility.yul\":16409:17295   */\n    tag_381:\n      pop\n        /* \"#utility.yul\":16001:17301   */\n      pop\n      pop\n      pop\n        /* \"#utility.yul\":15911:17301   */\n      pop\n      pop\n      jump\t// out\n        /* \"#utility.yul\":17307:17480   */\n    tag_212:\n        /* \"#utility.yul\":17447:17472   */\n      0x4e6f7420456e6f75676820417070726f76616c732e2e2e000000000000000000\n        /* \"#utility.yul\":17443:17444   */\n      0x00\n        /* \"#utility.yul\":17435:17441   */\n      dup3\n        /* \"#utility.yul\":17431:17445   */\n      add\n        /* \"#utility.yul\":17424:17473   */\n      mstore\n        /* \"#utility.yul\":17307:17480   */\n      pop\n      jump\t// out\n        /* \"#utility.yul\":17486:17852   */\n    tag_213:\n        /* \"#utility.yul\":17628:17631   */\n      0x00\n        /* \"#utility.yul\":17649:17716   */\n      tag_393\n        /* \"#utility.yul\":17713:17715   */\n      0x17\n        /* \"#utility.yul\":17708:17711   */\n      dup4\n        /* \"#utility.yul\":17649:17716   */\n      tag_183\n      jump\t// in\n    tag_393:\n        /* \"#utility.yul\":17642:17716   */\n      swap2\n      pop\n        /* \"#utility.yul\":17725:17818   */\n      tag_394\n        /* \"#utility.yul\":17814:17817   */\n      dup3\n        /* \"#utility.yul\":17725:17818   */\n      tag_212\n      jump\t// in\n    tag_394:\n        /* \"#utility.yul\":17843:17845   */\n      0x20\n        /* \"#utility.yul\":17838:17841   */\n      dup3\n        /* \"#utility.yul\":17834:17846   */\n      add\n        /* \"#utility.yul\":17827:17846   */\n      swap1\n      pop\n        /* \"#utility.yul\":17486:17852   */\n      swap2\n      swap1\n      pop\n      jump\t// out\n        /* \"#utility.yul\":17858:18277   */\n    tag_136:\n        /* \"#utility.yul\":18024:18028   */\n      0x00\n        /* \"#utility.yul\":18062:18064   */\n      0x20\n        /* \"#utility.yul\":18051:18060   */\n      dup3\n        /* \"#utility.yul\":18047:18065   */\n      add\n        /* \"#utility.yul\":18039:18065   */\n      swap1\n      pop\n        /* \"#utility.yul\":18111:18120   */\n      dup2\n        /* \"#utility.yul\":18105:18109   */\n      dup2\n        /* \"#utility.yul\":18101:18121   */\n      sub\n        /* \"#utility.yul\":18097:18098   */\n      0x00\n        /* \"#utility.yul\":18086:18095   */\n      dup4\n        /* \"#utility.yul\":18082:18099   */\n      add\n        /* \"#utility.yul\":18075:18122   */\n      mstore\n        /* \"#utility.yul\":18139:18270   */\n      tag_396\n        /* \"#utility.yul\":18265:18269   */\n      dup2\n        /* \"#utility.yul\":18139:18270   */\n      tag_213\n      jump\t// in\n    tag_396:\n        /* \"#utility.yul\":18131:18270   */\n      swap1\n      pop\n        /* \"#utility.yul\":17858:18277   */\n      swap2\n      swap1\n      pop\n      jump\t// out\n        /* \"#utility.yul\":18283:18430   */\n    tag_214:\n        /* \"#utility.yul\":18384:18395   */\n      0x00\n        /* \"#utility.yul\":18421:18424   */\n      dup2\n        /* \"#utility.yul\":18406:18424   */\n      swap1\n      pop\n        /* \"#utility.yul\":18283:18430   */\n      swap3\n      swap2\n      pop\n      pop\n      jump\t// out\n        /* \"#utility.yul\":18458:19328   */\n    tag_215:\n        /* \"#utility.yul\":18559:18562   */\n      0x00\n        /* \"#utility.yul\":18596:18601   */\n      dup2\n        /* \"#utility.yul\":18590:18602   */\n      sload\n        /* \"#utility.yul\":18625:18661   */\n      tag_399\n        /* \"#utility.yul\":18651:18660   */\n      dup2\n        /* \"#utility.yul\":18625:18661   */\n      tag_64\n      jump\t// in\n    tag_399:\n        /* \"#utility.yul\":18677:18765   */\n      tag_400\n        /* \"#utility.yul\":18758:18764   */\n      dup2\n        /* \"#utility.yul\":18753:18756   */\n      dup7\n        /* \"#utility.yul\":18677:18765   */\n      tag_214\n      jump\t// in\n    tag_400:\n        /* \"#utility.yul\":18670:18765   */\n      swap5\n      pop\n        /* \"#utility.yul\":18796:18797   */\n      0x01\n        /* \"#utility.yul\":18785:18794   */\n      dup3\n        /* \"#utility.yul\":18781:18798   */\n      and\n        /* \"#utility.yul\":18812:18813   */\n      0x00\n        /* \"#utility.yul\":18807:18973   */\n      dup2\n      eq\n      tag_402\n      jumpi\n        /* \"#utility.yul\":18987:18988   */\n      0x01\n        /* \"#utility.yul\":18982:19322   */\n      dup2\n      eq\n      tag_403\n      jumpi\n        /* \"#utility.yul\":18774:19322   */\n      jump(tag_401)\n        /* \"#utility.yul\":18807:18973   */\n    tag_402:\n        /* \"#utility.yul\":18891:18895   */\n      0xff\n        /* \"#utility.yul\":18887:18896   */\n      not\n        /* \"#utility.yul\":18876:18885   */\n      dup4\n        /* \"#utility.yul\":18872:18897   */\n      and\n        /* \"#utility.yul\":18867:18870   */\n      dup7\n        /* \"#utility.yul\":18860:18898   */\n      mstore\n        /* \"#utility.yul\":18953:18959   */\n      dup2\n        /* \"#utility.yul\":18946:18960   */\n      iszero\n        /* \"#utility.yul\":18939:18961   */\n      iszero\n        /* \"#utility.yul\":18931:18937   */\n      dup3\n        /* \"#utility.yul\":18927:18962   */\n      mul\n        /* \"#utility.yul\":18922:18925   */\n      dup7\n        /* \"#utility.yul\":18918:18963   */\n      add\n        /* \"#utility.yul\":18911:18963   */\n      swap4\n      pop\n        /* \"#utility.yul\":18807:18973   */\n      jump(tag_401)\n        /* \"#utility.yul\":18982:19322   */\n    tag_403:\n        /* \"#utility.yul\":19049:19086   */\n      tag_404\n        /* \"#utility.yul\":19080:19085   */\n      dup6\n        /* \"#utility.yul\":19049:19086   */\n      tag_197\n      jump\t// in\n    tag_404:\n        /* \"#utility.yul\":19108:19109   */\n      0x00\n        /* \"#utility.yul\":19122:19276   */\n    tag_405:\n        /* \"#utility.yul\":19136:19142   */\n      dup4\n        /* \"#utility.yul\":19133:19134   */\n      dup2\n        /* \"#utility.yul\":19130:19143   */\n      lt\n        /* \"#utility.yul\":19122:19276   */\n      iszero\n      tag_407\n      jumpi\n        /* \"#utility.yul\":19210:19217   */\n      dup2\n        /* \"#utility.yul\":19204:19218   */\n      sload\n        /* \"#utility.yul\":19200:19201   */\n      dup2\n        /* \"#utility.yul\":19195:19198   */\n      dup10\n        /* \"#utility.yul\":19191:19202   */\n      add\n        /* \"#utility.yul\":19184:19219   */\n      mstore\n        /* \"#utility.yul\":19260:19261   */\n      0x01\n        /* \"#utility.yul\":19251:19258   */\n      dup3\n        /* \"#utility.yul\":19247:19262   */\n      add\n        /* \"#utility.yul\":19236:19262   */\n      swap2\n      pop\n        /* \"#utility.yul\":19158:19162   */\n      0x20\n        /* \"#utility.yul\":19155:19156   */\n      dup2\n        /* \"#utility.yul\":19151:19163   */\n      add\n        /* \"#utility.yul\":19146:19163   */\n      swap1\n      pop\n        /* \"#utility.yul\":19122:19276   */\n      jump(tag_405)\n    tag_407:\n        /* \"#utility.yul\":19305:19311   */\n      dup4\n        /* \"#utility.yul\":19300:19303   */\n      dup9\n        /* \"#utility.yul\":19296:19312   */\n      add\n        /* \"#utility.yul\":19289:19312   */\n      swap6\n      pop\n        /* \"#utility.yul\":18989:19322   */\n      pop\n      pop\n        /* \"#utility.yul\":18774:19322   */\n    tag_401:\n      pop\n        /* \"#utility.yul\":18563:19328   */\n      pop\n      pop\n        /* \"#utility.yul\":18458:19328   */\n      swap3\n      swap2\n      pop\n      pop\n      jump\t// out\n        /* \"#utility.yul\":19334:19599   */\n    tag_141:\n        /* \"#utility.yul\":19461:19464   */\n      0x00\n        /* \"#utility.yul\":19483:19573   */\n      tag_409\n        /* \"#utility.yul\":19569:19572   */\n      dup3\n        /* \"#utility.yul\":19560:19566   */\n      dup5\n        /* \"#utility.yul\":19483:19573   */\n      tag_215\n      jump\t// in\n    tag_409:\n        /* \"#utility.yul\":19476:19573   */\n      swap2\n      pop\n        /* \"#utility.yul\":19590:19593   */\n      dup2\n        /* \"#utility.yul\":19583:19593   */\n      swap1\n      pop\n        /* \"#utility.yul\":19334:19599   */\n      swap3\n      swap2\n      pop\n      pop\n      jump\t// out\n        /* \"#utility.yul\":19605:19777   */\n    tag_216:\n        /* \"#utility.yul\":19745:19769   */\n      0x5472616e73616374696f6e20496e636f6d706c65746500000000000000000000\n        /* \"#utility.yul\":19741:19742   */\n      0x00\n        /* \"#utility.yul\":19733:19739   */\n      dup3\n        /* \"#utility.yul\":19729:19743   */\n      add\n        /* \"#utility.yul\":19722:19770   */\n      mstore\n        /* \"#utility.yul\":19605:19777   */\n      pop\n      jump\t// out\n        /* \"#utility.yul\":19783:20149   */\n    tag_217:\n        /* \"#utility.yul\":19925:19928   */\n      0x00\n        /* \"#utility.yul\":19946:20013   */\n      tag_412\n        /* \"#utility.yul\":20010:20012   */\n      0x16\n        /* \"#utility.yul\":20005:20008   */\n      dup4\n        /* \"#utility.yul\":19946:20013   */\n      tag_183\n      jump\t// in\n    tag_412:\n        /* \"#utility.yul\":19939:20013   */\n      swap2\n      pop\n        /* \"#utility.yul\":20022:20115   */\n      tag_413\n        /* \"#utility.yul\":20111:20114   */\n      dup3\n        /* \"#utility.yul\":20022:20115   */\n      tag_216\n      jump\t// in\n    tag_413:\n        /* \"#utility.yul\":20140:20142   */\n      0x20\n        /* \"#utility.yul\":20135:20138   */\n      dup3\n        /* \"#utility.yul\":20131:20143   */\n      add\n        /* \"#utility.yul\":20124:20143   */\n      swap1\n      pop\n        /* \"#utility.yul\":19783:20149   */\n      swap2\n      swap1\n      pop\n      jump\t// out\n        /* \"#utility.yul\":20155:20574   */\n    tag_147:\n        /* \"#utility.yul\":20321:20325   */\n      0x00\n        /* \"#utility.yul\":20359:20361   */\n      0x20\n        /* \"#utility.yul\":20348:20357   */\n      dup3\n        /* \"#utility.yul\":20344:20362   */\n      add\n        /* \"#utility.yul\":20336:20362   */\n      swap1\n      pop\n        /* \"#utility.yul\":20408:20417   */\n      dup2\n        /* \"#utility.yul\":20402:20406   */\n      dup2\n        /* \"#utility.yul\":20398:20418   */\n      sub\n        /* \"#utility.yul\":20394:20395   */\n      0x00\n        /* \"#utility.yul\":20383:20392   */\n      dup4\n        /* \"#utility.yul\":20379:20396   */\n      add\n        /* \"#utility.yul\":20372:20419   */\n      mstore\n        /* \"#utility.yul\":20436:20567   */\n      tag_415\n        /* \"#utility.yul\":20562:20566   */\n      dup2\n        /* \"#utility.yul\":20436:20567   */\n      tag_217\n      jump\t// in\n    tag_415:\n        /* \"#utility.yul\":20428:20567   */\n      swap1\n      pop\n        /* \"#utility.yul\":20155:20574   */\n      swap2\n      swap1\n      pop\n      jump\t// out\n        /* \"#utility.yul\":20580:20771   */\n    tag_157:\n        /* \"#utility.yul\":20620:20623   */\n      0x00\n        /* \"#utility.yul\":20639:20659   */\n      tag_417\n        /* \"#utility.yul\":20657:20658   */\n      dup3\n        /* \"#utility.yul\":20639:20659   */\n      tag_163\n      jump\t// in\n    tag_417:\n        /* \"#utility.yul\":20634:20659   */\n      swap2\n      pop\n        /* \"#utility.yul\":20673:20693   */\n      tag_418\n        /* \"#utility.yul\":20691:20692   */\n      dup4\n        /* \"#utility.yul\":20673:20693   */\n      tag_163\n      jump\t// in\n    tag_418:\n        /* \"#utility.yul\":20668:20693   */\n      swap3\n      pop\n        /* \"#utility.yul\":20716:20717   */\n      dup3\n        /* \"#utility.yul\":20713:20714   */\n      dup3\n        /* \"#utility.yul\":20709:20718   */\n      add\n        /* \"#utility.yul\":20702:20718   */\n      swap1\n      pop\n        /* \"#utility.yul\":20737:20740   */\n      dup1\n        /* \"#utility.yul\":20734:20735   */\n      dup3\n        /* \"#utility.yul\":20731:20741   */\n      gt\n        /* \"#utility.yul\":20728:20764   */\n      iszero\n      tag_419\n      jumpi\n        /* \"#utility.yul\":20744:20762   */\n      tag_420\n      tag_186\n      jump\t// in\n    tag_420:\n        /* \"#utility.yul\":20728:20764   */\n    tag_419:\n        /* \"#utility.yul\":20580:20771   */\n      swap3\n      swap2\n      pop\n      pop\n      jump\t// out\n        /* \"#utility.yul\":20777:21010   */\n    tag_159:\n        /* \"#utility.yul\":20816:20819   */\n      0x00\n        /* \"#utility.yul\":20839:20863   */\n      tag_422\n        /* \"#utility.yul\":20857:20862   */\n      dup3\n        /* \"#utility.yul\":20839:20863   */\n      tag_163\n      jump\t// in\n    tag_422:\n        /* \"#utility.yul\":20830:20863   */\n      swap2\n      pop\n        /* \"#utility.yul\":20885:20951   */\n      0xffffffffffffffffffffffffffffffffffffffffffffffffffffffffffffffff\n        /* \"#utility.yul\":20878:20883   */\n      dup3\n        /* \"#utility.yul\":20875:20952   */\n      sub\n        /* \"#utility.yul\":20872:20975   */\n      tag_423\n      jumpi\n        /* \"#utility.yul\":20955:20973   */\n      tag_424\n      tag_186\n      jump\t// in\n    tag_424:\n        /* \"#utility.yul\":20872:20975   */\n    tag_423:\n        /* \"#utility.yul\":21002:21003   */\n      0x01\n        /* \"#utility.yul\":20995:21000   */\n      dup3\n        /* \"#utility.yul\":20991:21004   */\n      add\n        /* \"#utility.yul\":20984:21004   */\n      swap1\n      pop\n        /* \"#utility.yul\":20777:21010   */\n      swap2\n      swap1\n      pop\n      jump\t// out\n\n    auxdata: 0xa26469706673582212203b07af0bf7b41090feea46a4e543af957f60c02c4db93df67f48b37beaed7ba064736f6c63430008100033\n}\n",
				"bytecode": {
					"linkReferences": {},
					"object": "60806040523480156200001157600080fd5b506040516200219338038062002193833981810160405281019062000037919062000400565b60005b8251811015620001c75760008382815181106200005c576200005b62000466565b5b60200260200101519050600160008273ffffffffffffffffffffffffffffffffffffffff1673ffffffffffffffffffffffffffffffffffffffff16815260200190815260200160002060009054906101000a900460ff1615620000f6576040517f08c379a0000000000000000000000000000000000000000000000000000000008152600401620000ed90620004f6565b60405180910390fd5b6000819080600181540180825580915050600190039060005260206000200160009091909190916101000a81548173ffffffffffffffffffffffffffffffffffffffff021916908373ffffffffffffffffffffffffffffffffffffffff16021790555060018060008373ffffffffffffffffffffffffffffffffffffffff1673ffffffffffffffffffffffffffffffffffffffff16815260200190815260200160002060006101000a81548160ff021916908315150217905550508080620001be9062000547565b9150506200003a565b5080600281905550505062000594565b6000604051905090565b600080fd5b600080fd5b600080fd5b6000601f19601f8301169050919050565b7f4e487b7100000000000000000000000000000000000000000000000000000000600052604160045260246000fd5b6200023b82620001f0565b810181811067ffffffffffffffff821117156200025d576200025c62000201565b5b80604052505050565b600062000272620001d7565b905062000280828262000230565b919050565b600067ffffffffffffffff821115620002a357620002a262000201565b5b602082029050602081019050919050565b600080fd5b600073ffffffffffffffffffffffffffffffffffffffff82169050919050565b6000620002e682620002b9565b9050919050565b620002f881620002d9565b81146200030457600080fd5b50565b6000815190506200031881620002ed565b92915050565b6000620003356200032f8462000285565b62000266565b905080838252602082019050602084028301858111156200035b576200035a620002b4565b5b835b8181101562000388578062000373888262000307565b8452602084019350506020810190506200035d565b5050509392505050565b600082601f830112620003aa57620003a9620001eb565b5b8151620003bc8482602086016200031e565b91505092915050565b6000819050919050565b620003da81620003c5565b8114620003e657600080fd5b50565b600081519050620003fa81620003cf565b92915050565b600080604083850312156200041a5762000419620001e1565b5b600083015167ffffffffffffffff8111156200043b576200043a620001e6565b5b620004498582860162000392565b92505060206200045c85828601620003e9565b9150509250929050565b7f4e487b7100000000000000000000000000000000000000000000000000000000600052603260045260246000fd5b600082825260208201905092915050565b7f416c7265616479204578697374732e2e2e000000000000000000000000000000600082015250565b6000620004de60118362000495565b9150620004eb82620004a6565b602082019050919050565b600060208201905081810360008301526200051181620004cf565b9050919050565b7f4e487b7100000000000000000000000000000000000000000000000000000000600052601160045260246000fd5b60006200055482620003c5565b91507fffffffffffffffffffffffffffffffffffffffffffffffffffffffffffffffff820362000589576200058862000518565b5b600182019050919050565b611bef80620005a46000396000f3fe6080604052600436106100595760003560e01c8063242232d11461009e5780632f54bf6e146100c75780639ace38c214610104578063b1e130fc14610144578063c0c64a491461016d578063ee22610b1461019657610099565b36610099577fe1fffcc4923d04b559f4d29a8bfc6cda04eb5b0d3c460751c2402c5c5cc9109c333460405161008f9291906110fb565b60405180910390a1005b600080fd5b3480156100aa57600080fd5b506100c560048036038101906100c0919061115a565b6101bf565b005b3480156100d357600080fd5b506100ee60048036038101906100e991906111b3565b61056c565b6040516100fb91906111fb565b60405180910390f35b34801561011057600080fd5b5061012b6004803603810190610126919061115a565b61058c565b60405161013b94939291906112a6565b60405180910390f35b34801561015057600080fd5b5061016b6004803603810190610166919061115a565b610681565b005b34801561017957600080fd5b50610194600480360381019061018f9190611357565b610a2d565b005b3480156101a257600080fd5b506101bd60048036038101906101b8919061115a565b610bf1565b005b806003600082815260200190815260200160002060003373ffffffffffffffffffffffffffffffffffffffff1673ffffffffffffffffffffffffffffffffffffffff16815260200190815260200160002060009054906101000a900460ff161561025e576040517f08c379a000000000000000000000000000000000000000000000000000000000815260040161025590611428565b60405180910390fd5b8160016004805490506102719190611477565b8111156102b3576040517f08c379a00000000000000000000000000000000000000000000000000000000081526004016102aa906114f7565b60405180910390fd5b600160003373ffffffffffffffffffffffffffffffffffffffff1673ffffffffffffffffffffffffffffffffffffffff16815260200190815260200160002060009054906101000a900460ff1661033f576040517f08c379a000000000000000000000000000000000000000000000000000000000815260040161033690611563565b60405180910390fd5b8260006004828154811061035657610355611583565b5b90600052602060002090600402016040518060800160405290816000820160009054906101000a900473ffffffffffffffffffffffffffffffffffffffff1673ffffffffffffffffffffffffffffffffffffffff1673ffffffffffffffffffffffffffffffffffffffff168152602001600182015481526020016002820160009054906101000a900460ff161515151581526020016003820180546103fa906115e1565b80601f0160208091040260200160405190810160405280929190818152602001828054610426906115e1565b80156104735780601f1061044857610100808354040283529160200191610473565b820191906000526020600020905b81548152906001019060200180831161045657829003601f168201915b50505050508152505090508060400151156104c3576040517f08c379a00000000000000000000000000000000000000000000000000000000081526004016104ba9061165e565b60405180910390fd5b60016003600087815260200190815260200160002060003373ffffffffffffffffffffffffffffffffffffffff1673ffffffffffffffffffffffffffffffffffffffff16815260200190815260200160002060006101000a81548160ff0219169083151502179055507f47ad3e4b0f4bdbe3ac08708bbc45053d2ff616911b39e65563fd9bd781909645853360405161055d92919061167e565b60405180910390a15050505050565b60016020528060005260406000206000915054906101000a900460ff1681565b6004818154811061059c57600080fd5b90600052602060002090600402016000915090508060000160009054906101000a900473ffffffffffffffffffffffffffffffffffffffff16908060010154908060020160009054906101000a900460ff16908060030180546105fe906115e1565b80601f016020809104026020016040519081016040528092919081815260200182805461062a906115e1565b80156106775780601f1061064c57610100808354040283529160200191610677565b820191906000526020600020905b81548152906001019060200180831161065a57829003601f168201915b5050505050905084565b806003600082815260200190815260200160002060003373ffffffffffffffffffffffffffffffffffffffff1673ffffffffffffffffffffffffffffffffffffffff16815260200190815260200160002060009054906101000a900460ff1661071f576040517f08c379a0000000000000000000000000000000000000000000000000000000008152600401610716906116f3565b60405180910390fd5b8160016004805490506107329190611477565b811115610774576040517f08c379a000000000000000000000000000000000000000000000000000000000815260040161076b906114f7565b60405180910390fd5b600160003373ffffffffffffffffffffffffffffffffffffffff1673ffffffffffffffffffffffffffffffffffffffff16815260200190815260200160002060009054906101000a900460ff16610800576040517f08c379a00000000000000000000000000000000000000000000000000000000081526004016107f790611563565b60405180910390fd5b8260006004828154811061081757610816611583565b5b90600052602060002090600402016040518060800160405290816000820160009054906101000a900473ffffffffffffffffffffffffffffffffffffffff1673ffffffffffffffffffffffffffffffffffffffff1673ffffffffffffffffffffffffffffffffffffffff168152602001600182015481526020016002820160009054906101000a900460ff161515151581526020016003820180546108bb906115e1565b80601f01602080910402602001604051908101604052809291908181526020018280546108e7906115e1565b80156109345780601f1061090957610100808354040283529160200191610934565b820191906000526020600020905b81548152906001019060200180831161091757829003601f168201915b5050505050815250509050806040015115610984576040517f08c379a000000000000000000000000000000000000000000000000000000000815260040161097b9061165e565b60405180910390fd5b60006003600087815260200190815260200160002060003373ffffffffffffffffffffffffffffffffffffffff1673ffffffffffffffffffffffffffffffffffffffff16815260200190815260200160002060006101000a81548160ff0219169083151502179055507fd5d64031e0f55cf42bc3b7d0462f8404a4d63f7ccf84be9510cd6a5300552e428533604051610a1e92919061167e565b60405180910390a15050505050565b600160003373ffffffffffffffffffffffffffffffffffffffff1673ffffffffffffffffffffffffffffffffffffffff16815260200190815260200160002060009054906101000a900460ff16610ab9576040517f08c379a0000000000000000000000000000000000000000000000000000000008152600401610ab090611563565b60405180910390fd5b600460405180608001604052808673ffffffffffffffffffffffffffffffffffffffff16815260200185815260200160001515815260200184848080601f016020809104026020016040519081016040528093929190818152602001838380828437600081840152601f19601f82011690508083019250505050505050815250908060018154018082558091505060019003906000526020600020906004020160009091909190915060008201518160000160006101000a81548173ffffffffffffffffffffffffffffffffffffffff021916908373ffffffffffffffffffffffffffffffffffffffff1602179055506020820151816001015560408201518160020160006101000a81548160ff0219169083151502179055506060820151816003019081610be891906118ee565b50505050505050565b806001600480549050610c049190611477565b811115610c46576040517f08c379a0000000000000000000000000000000000000000000000000000000008152600401610c3d906114f7565b60405180910390fd5b600160003373ffffffffffffffffffffffffffffffffffffffff1673ffffffffffffffffffffffffffffffffffffffff16815260200190815260200160002060009054906101000a900460ff16610cd2576040517f08c379a0000000000000000000000000000000000000000000000000000000008152600401610cc990611563565b60405180910390fd5b81600060048281548110610ce957610ce8611583565b5b90600052602060002090600402016040518060800160405290816000820160009054906101000a900473ffffffffffffffffffffffffffffffffffffffff1673ffffffffffffffffffffffffffffffffffffffff1673ffffffffffffffffffffffffffffffffffffffff168152602001600182015481526020016002820160009054906101000a900460ff16151515158152602001600382018054610d8d906115e1565b80601f0160208091040260200160405190810160405280929190818152602001828054610db9906115e1565b8015610e065780601f10610ddb57610100808354040283529160200191610e06565b820191906000526020600020905b815481529060010190602001808311610de957829003601f168201915b5050505050815250509050806040015115610e56576040517f08c379a0000000000000000000000000000000000000000000000000000000008152600401610e4d9061165e565b60405180910390fd5b600254610e6285610fc7565b1015610ea3576040517f08c379a0000000000000000000000000000000000000000000000000000000008152600401610e9a90611a0c565b60405180910390fd5b600060048581548110610eb957610eb8611583565b5b9060005260206000209060040201905060008160000160009054906101000a900473ffffffffffffffffffffffffffffffffffffffff1673ffffffffffffffffffffffffffffffffffffffff16826001015483600301604051610f1c9190611aba565b60006040518083038185875af1925050503d8060008114610f59576040519150601f19603f3d011682016040523d82523d6000602084013e610f5e565b606091505b5050905080610fa2576040517f08c379a0000000000000000000000000000000000000000000000000000000008152600401610f9990611b1d565b60405180910390fd5b60018260020160006101000a81548160ff021916908315150217905550505050505050565b6000805b60008054905081101561109b5760036000848152602001908152602001600020600080838154811061100057610fff611583565b5b9060005260206000200160009054906101000a900473ffffffffffffffffffffffffffffffffffffffff1673ffffffffffffffffffffffffffffffffffffffff1673ffffffffffffffffffffffffffffffffffffffff16815260200190815260200160002060009054906101000a900460ff1615611088576001826110859190611b3d565b91505b808061109390611b71565b915050610fcb565b50919050565b600073ffffffffffffffffffffffffffffffffffffffff82169050919050565b60006110cc826110a1565b9050919050565b6110dc816110c1565b82525050565b6000819050919050565b6110f5816110e2565b82525050565b600060408201905061111060008301856110d3565b61111d60208301846110ec565b9392505050565b600080fd5b600080fd5b611137816110e2565b811461114257600080fd5b50565b6000813590506111548161112e565b92915050565b6000602082840312156111705761116f611124565b5b600061117e84828501611145565b91505092915050565b611190816110c1565b811461119b57600080fd5b50565b6000813590506111ad81611187565b92915050565b6000602082840312156111c9576111c8611124565b5b60006111d78482850161119e565b91505092915050565b60008115159050919050565b6111f5816111e0565b82525050565b600060208201905061121060008301846111ec565b92915050565b600081519050919050565b600082825260208201905092915050565b60005b83811015611250578082015181840152602081019050611235565b60008484015250505050565b6000601f19601f8301169050919050565b600061127882611216565b6112828185611221565b9350611292818560208601611232565b61129b8161125c565b840191505092915050565b60006080820190506112bb60008301876110d3565b6112c860208301866110ec565b6112d560408301856111ec565b81810360608301526112e7818461126d565b905095945050505050565b600080fd5b600080fd5b600080fd5b60008083601f840112611317576113166112f2565b5b8235905067ffffffffffffffff811115611334576113336112f7565b5b6020830191508360018202830111156113505761134f6112fc565b5b9250929050565b6000806000806060858703121561137157611370611124565b5b600061137f8782880161119e565b945050602061139087828801611145565b935050604085013567ffffffffffffffff8111156113b1576113b0611129565b5b6113bd87828801611301565b925092505092959194509250565b600082825260208201905092915050565b7f5472616e73616374696f6e20416c726561647920417070726f7665642e2e2e00600082015250565b6000611412601f836113cb565b915061141d826113dc565b602082019050919050565b6000602082019050818103600083015261144181611405565b9050919050565b7f4e487b7100000000000000000000000000000000000000000000000000000000600052601160045260246000fd5b6000611482826110e2565b915061148d836110e2565b92508282039050818111156114a5576114a4611448565b5b92915050565b7f5472616e73616374696f6e20446f6573206e6f742045786973742e2e2e000000600082015250565b60006114e1601d836113cb565b91506114ec826114ab565b602082019050919050565b60006020820190508181036000830152611510816114d4565b9050919050565b7f4e6f7420746865204f776e65722e2e2e2e000000000000000000000000000000600082015250565b600061154d6011836113cb565b915061155882611517565b602082019050919050565b6000602082019050818103600083015261157c81611540565b9050919050565b7f4e487b7100000000000000000000000000000000000000000000000000000000600052603260045260246000fd5b7f4e487b7100000000000000000000000000000000000000000000000000000000600052602260045260246000fd5b600060028204905060018216806115f957607f821691505b60208210810361160c5761160b6115b2565b5b50919050565b7f5472616e73616374696f6e20416c726561647920457865637574656400000000600082015250565b6000611648601c836113cb565b915061165382611612565b602082019050919050565b600060208201905081810360008301526116778161163b565b9050919050565b600060408201905061169360008301856110ec565b6116a060208301846110d3565b9392505050565b7f5472616e73616374696f6e204e6f7420417070726f7665642e2e2e0000000000600082015250565b60006116dd601b836113cb565b91506116e8826116a7565b602082019050919050565b6000602082019050818103600083015261170c816116d0565b9050919050565b7f4e487b7100000000000000000000000000000000000000000000000000000000600052604160045260246000fd5b60008190508160005260206000209050919050565b60006020601f8301049050919050565b600082821b905092915050565b6000600883026117a47fffffffffffffffffffffffffffffffffffffffffffffffffffffffffffffffff82611767565b6117ae8683611767565b95508019841693508086168417925050509392505050565b6000819050919050565b60006117eb6117e66117e1846110e2565b6117c6565b6110e2565b9050919050565b6000819050919050565b611805836117d0565b611819611811826117f2565b848454611774565b825550505050565b600090565b61182e611821565b6118398184846117fc565b505050565b5b8181101561185d57611852600082611826565b60018101905061183f565b5050565b601f8211156118a25761187381611742565b61187c84611757565b8101602085101561188b578190505b61189f61189785611757565b83018261183e565b50505b505050565b600082821c905092915050565b60006118c5600019846008026118a7565b1980831691505092915050565b60006118de83836118b4565b9150826002028217905092915050565b6118f782611216565b67ffffffffffffffff8111156119105761190f611713565b5b61191a82546115e1565b611925828285611861565b600060209050601f8311600181146119585760008415611946578287015190505b61195085826118d2565b8655506119b8565b601f19841661196686611742565b60005b8281101561198e57848901518255600182019150602085019450602081019050611969565b868310156119ab57848901516119a7601f8916826118b4565b8355505b6001600288020188555050505b505050505050565b7f4e6f7420456e6f75676820417070726f76616c732e2e2e000000000000000000600082015250565b60006119f66017836113cb565b9150611a01826119c0565b602082019050919050565b60006020820190508181036000830152611a25816119e9565b9050919050565b600081905092915050565b60008154611a44816115e1565b611a4e8186611a2c565b94506001821660008114611a695760018114611a7e57611ab1565b60ff1983168652811515820286019350611ab1565b611a8785611742565b60005b83811015611aa957815481890152600182019150602081019050611a8a565b838801955050505b50505092915050565b6000611ac68284611a37565b915081905092915050565b7f5472616e73616374696f6e20496e636f6d706c65746500000000000000000000600082015250565b6000611b076016836113cb565b9150611b1282611ad1565b602082019050919050565b60006020820190508181036000830152611b3681611afa565b9050919050565b6000611b48826110e2565b9150611b53836110e2565b9250828201905080821115611b6b57611b6a611448565b5b92915050565b6000611b7c826110e2565b91507fffffffffffffffffffffffffffffffffffffffffffffffffffffffffffffffff8203611bae57611bad611448565b5b60018201905091905056fea26469706673582212203b07af0bf7b41090feea46a4e543af957f60c02c4db93df67f48b37beaed7ba064736f6c63430008100033",
					"opcodes": "PUSH1 0x80 PUSH1 0x40 MSTORE CALLVALUE DUP1 ISZERO PUSH3 0x11 JUMPI PUSH1 0x0 DUP1 REVERT JUMPDEST POP PUSH1 0x40 MLOAD PUSH3 0x2193 CODESIZE SUB DUP1 PUSH3 0x2193 DUP4 CODECOPY DUP2 DUP2 ADD PUSH1 0x40 MSTORE DUP2 ADD SWAP1 PUSH3 0x37 SWAP2 SWAP1 PUSH3 0x400 JUMP JUMPDEST PUSH1 0x0 JUMPDEST DUP3 MLOAD DUP2 LT ISZERO PUSH3 0x1C7 JUMPI PUSH1 0x0 DUP4 DUP3 DUP2 MLOAD DUP2 LT PUSH3 0x5C JUMPI PUSH3 0x5B PUSH3 0x466 JUMP JUMPDEST JUMPDEST PUSH1 0x20 MUL PUSH1 0x20 ADD ADD MLOAD SWAP1 POP PUSH1 0x1 PUSH1 0x0 DUP3 PUSH20 0xFFFFFFFFFFFFFFFFFFFFFFFFFFFFFFFFFFFFFFFF AND PUSH20 0xFFFFFFFFFFFFFFFFFFFFFFFFFFFFFFFFFFFFFFFF AND DUP2 MSTORE PUSH1 0x20 ADD SWAP1 DUP2 MSTORE PUSH1 0x20 ADD PUSH1 0x0 KECCAK256 PUSH1 0x0 SWAP1 SLOAD SWAP1 PUSH2 0x100 EXP SWAP1 DIV PUSH1 0xFF AND ISZERO PUSH3 0xF6 JUMPI PUSH1 0x40 MLOAD PUSH32 0x8C379A000000000000000000000000000000000000000000000000000000000 DUP2 MSTORE PUSH1 0x4 ADD PUSH3 0xED SWAP1 PUSH3 0x4F6 JUMP JUMPDEST PUSH1 0x40 MLOAD DUP1 SWAP2 SUB SWAP1 REVERT JUMPDEST PUSH1 0x0 DUP2 SWAP1 DUP1 PUSH1 0x1 DUP2 SLOAD ADD DUP1 DUP3 SSTORE DUP1 SWAP2 POP POP PUSH1 0x1 SWAP1 SUB SWAP1 PUSH1 0x0 MSTORE PUSH1 0x20 PUSH1 0x0 KECCAK256 ADD PUSH1 0x0 SWAP1 SWAP2 SWAP1 SWAP2 SWAP1 SWAP2 PUSH2 0x100 EXP DUP2 SLOAD DUP2 PUSH20 0xFFFFFFFFFFFFFFFFFFFFFFFFFFFFFFFFFFFFFFFF MUL NOT AND SWAP1 DUP4 PUSH20 0xFFFFFFFFFFFFFFFFFFFFFFFFFFFFFFFFFFFFFFFF AND MUL OR SWAP1 SSTORE POP PUSH1 0x1 DUP1 PUSH1 0x0 DUP4 PUSH20 0xFFFFFFFFFFFFFFFFFFFFFFFFFFFFFFFFFFFFFFFF AND PUSH20 0xFFFFFFFFFFFFFFFFFFFFFFFFFFFFFFFFFFFFFFFF AND DUP2 MSTORE PUSH1 0x20 ADD SWAP1 DUP2 MSTORE PUSH1 0x20 ADD PUSH1 0x0 KECCAK256 PUSH1 0x0 PUSH2 0x100 EXP DUP2 SLOAD DUP2 PUSH1 0xFF MUL NOT AND SWAP1 DUP4 ISZERO ISZERO MUL OR SWAP1 SSTORE POP POP DUP1 DUP1 PUSH3 0x1BE SWAP1 PUSH3 0x547 JUMP JUMPDEST SWAP2 POP POP PUSH3 0x3A JUMP JUMPDEST POP DUP1 PUSH1 0x2 DUP2 SWAP1 SSTORE POP POP POP PUSH3 0x594 JUMP JUMPDEST PUSH1 0x0 PUSH1 0x40 MLOAD SWAP1 POP SWAP1 JUMP JUMPDEST PUSH1 0x0 DUP1 REVERT JUMPDEST PUSH1 0x0 DUP1 REVERT JUMPDEST PUSH1 0x0 DUP1 REVERT JUMPDEST PUSH1 0x0 PUSH1 0x1F NOT PUSH1 0x1F DUP4 ADD AND SWAP1 POP SWAP2 SWAP1 POP JUMP JUMPDEST PUSH32 0x4E487B7100000000000000000000000000000000000000000000000000000000 PUSH1 0x0 MSTORE PUSH1 0x41 PUSH1 0x4 MSTORE PUSH1 0x24 PUSH1 0x0 REVERT JUMPDEST PUSH3 0x23B DUP3 PUSH3 0x1F0 JUMP JUMPDEST DUP2 ADD DUP2 DUP2 LT PUSH8 0xFFFFFFFFFFFFFFFF DUP3 GT OR ISZERO PUSH3 0x25D JUMPI PUSH3 0x25C PUSH3 0x201 JUMP JUMPDEST JUMPDEST DUP1 PUSH1 0x40 MSTORE POP POP POP JUMP JUMPDEST PUSH1 0x0 PUSH3 0x272 PUSH3 0x1D7 JUMP JUMPDEST SWAP1 POP PUSH3 0x280 DUP3 DUP3 PUSH3 0x230 JUMP JUMPDEST SWAP2 SWAP1 POP JUMP JUMPDEST PUSH1 0x0 PUSH8 0xFFFFFFFFFFFFFFFF DUP3 GT ISZERO PUSH3 0x2A3 JUMPI PUSH3 0x2A2 PUSH3 0x201 JUMP JUMPDEST JUMPDEST PUSH1 0x20 DUP3 MUL SWAP1 POP PUSH1 0x20 DUP2 ADD SWAP1 POP SWAP2 SWAP1 POP JUMP JUMPDEST PUSH1 0x0 DUP1 REVERT JUMPDEST PUSH1 0x0 PUSH20 0xFFFFFFFFFFFFFFFFFFFFFFFFFFFFFFFFFFFFFFFF DUP3 AND SWAP1 POP SWAP2 SWAP1 POP JUMP JUMPDEST PUSH1 0x0 PUSH3 0x2E6 DUP3 PUSH3 0x2B9 JUMP JUMPDEST SWAP1 POP SWAP2 SWAP1 POP JUMP JUMPDEST PUSH3 0x2F8 DUP2 PUSH3 0x2D9 JUMP JUMPDEST DUP2 EQ PUSH3 0x304 JUMPI PUSH1 0x0 DUP1 REVERT JUMPDEST POP JUMP JUMPDEST PUSH1 0x0 DUP2 MLOAD SWAP1 POP PUSH3 0x318 DUP2 PUSH3 0x2ED JUMP JUMPDEST SWAP3 SWAP2 POP POP JUMP JUMPDEST PUSH1 0x0 PUSH3 0x335 PUSH3 0x32F DUP5 PUSH3 0x285 JUMP JUMPDEST PUSH3 0x266 JUMP JUMPDEST SWAP1 POP DUP1 DUP4 DUP3 MSTORE PUSH1 0x20 DUP3 ADD SWAP1 POP PUSH1 0x20 DUP5 MUL DUP4 ADD DUP6 DUP2 GT ISZERO PUSH3 0x35B JUMPI PUSH3 0x35A PUSH3 0x2B4 JUMP JUMPDEST JUMPDEST DUP4 JUMPDEST DUP2 DUP2 LT ISZERO PUSH3 0x388 JUMPI DUP1 PUSH3 0x373 DUP9 DUP3 PUSH3 0x307 JUMP JUMPDEST DUP5 MSTORE PUSH1 0x20 DUP5 ADD SWAP4 POP POP PUSH1 0x20 DUP2 ADD SWAP1 POP PUSH3 0x35D JUMP JUMPDEST POP POP POP SWAP4 SWAP3 POP POP POP JUMP JUMPDEST PUSH1 0x0 DUP3 PUSH1 0x1F DUP4 ADD SLT PUSH3 0x3AA JUMPI PUSH3 0x3A9 PUSH3 0x1EB JUMP JUMPDEST JUMPDEST DUP2 MLOAD PUSH3 0x3BC DUP5 DUP3 PUSH1 0x20 DUP7 ADD PUSH3 0x31E JUMP JUMPDEST SWAP2 POP POP SWAP3 SWAP2 POP POP JUMP JUMPDEST PUSH1 0x0 DUP2 SWAP1 POP SWAP2 SWAP1 POP JUMP JUMPDEST PUSH3 0x3DA DUP2 PUSH3 0x3C5 JUMP JUMPDEST DUP2 EQ PUSH3 0x3E6 JUMPI PUSH1 0x0 DUP1 REVERT JUMPDEST POP JUMP JUMPDEST PUSH1 0x0 DUP2 MLOAD SWAP1 POP PUSH3 0x3FA DUP2 PUSH3 0x3CF JUMP JUMPDEST SWAP3 SWAP2 POP POP JUMP JUMPDEST PUSH1 0x0 DUP1 PUSH1 0x40 DUP4 DUP6 SUB SLT ISZERO PUSH3 0x41A JUMPI PUSH3 0x419 PUSH3 0x1E1 JUMP JUMPDEST JUMPDEST PUSH1 0x0 DUP4 ADD MLOAD PUSH8 0xFFFFFFFFFFFFFFFF DUP2 GT ISZERO PUSH3 0x43B JUMPI PUSH3 0x43A PUSH3 0x1E6 JUMP JUMPDEST JUMPDEST PUSH3 0x449 DUP6 DUP3 DUP7 ADD PUSH3 0x392 JUMP JUMPDEST SWAP3 POP POP PUSH1 0x20 PUSH3 0x45C DUP6 DUP3 DUP7 ADD PUSH3 0x3E9 JUMP JUMPDEST SWAP2 POP POP SWAP3 POP SWAP3 SWAP1 POP JUMP JUMPDEST PUSH32 0x4E487B7100000000000000000000000000000000000000000000000000000000 PUSH1 0x0 MSTORE PUSH1 0x32 PUSH1 0x4 MSTORE PUSH1 0x24 PUSH1 0x0 REVERT JUMPDEST PUSH1 0x0 DUP3 DUP3 MSTORE PUSH1 0x20 DUP3 ADD SWAP1 POP SWAP3 SWAP2 POP POP JUMP JUMPDEST PUSH32 0x416C7265616479204578697374732E2E2E000000000000000000000000000000 PUSH1 0x0 DUP3 ADD MSTORE POP JUMP JUMPDEST PUSH1 0x0 PUSH3 0x4DE PUSH1 0x11 DUP4 PUSH3 0x495 JUMP JUMPDEST SWAP2 POP PUSH3 0x4EB DUP3 PUSH3 0x4A6 JUMP JUMPDEST PUSH1 0x20 DUP3 ADD SWAP1 POP SWAP2 SWAP1 POP JUMP JUMPDEST PUSH1 0x0 PUSH1 0x20 DUP3 ADD SWAP1 POP DUP2 DUP2 SUB PUSH1 0x0 DUP4 ADD MSTORE PUSH3 0x511 DUP2 PUSH3 0x4CF JUMP JUMPDEST SWAP1 POP SWAP2 SWAP1 POP JUMP JUMPDEST PUSH32 0x4E487B7100000000000000000000000000000000000000000000000000000000 PUSH1 0x0 MSTORE PUSH1 0x11 PUSH1 0x4 MSTORE PUSH1 0x24 PUSH1 0x0 REVERT JUMPDEST PUSH1 0x0 PUSH3 0x554 DUP3 PUSH3 0x3C5 JUMP JUMPDEST SWAP2 POP PUSH32 0xFFFFFFFFFFFFFFFFFFFFFFFFFFFFFFFFFFFFFFFFFFFFFFFFFFFFFFFFFFFFFFFF DUP3 SUB PUSH3 0x589 JUMPI PUSH3 0x588 PUSH3 0x518 JUMP JUMPDEST JUMPDEST PUSH1 0x1 DUP3 ADD SWAP1 POP SWAP2 SWAP1 POP JUMP JUMPDEST PUSH2 0x1BEF DUP1 PUSH3 0x5A4 PUSH1 0x0 CODECOPY PUSH1 0x0 RETURN INVALID PUSH1 0x80 PUSH1 0x40 MSTORE PUSH1 0x4 CALLDATASIZE LT PUSH2 0x59 JUMPI PUSH1 0x0 CALLDATALOAD PUSH1 0xE0 SHR DUP1 PUSH4 0x242232D1 EQ PUSH2 0x9E JUMPI DUP1 PUSH4 0x2F54BF6E EQ PUSH2 0xC7 JUMPI DUP1 PUSH4 0x9ACE38C2 EQ PUSH2 0x104 JUMPI DUP1 PUSH4 0xB1E130FC EQ PUSH2 0x144 JUMPI DUP1 PUSH4 0xC0C64A49 EQ PUSH2 0x16D JUMPI DUP1 PUSH4 0xEE22610B EQ PUSH2 0x196 JUMPI PUSH2 0x99 JUMP JUMPDEST CALLDATASIZE PUSH2 0x99 JUMPI PUSH32 0xE1FFFCC4923D04B559F4D29A8BFC6CDA04EB5B0D3C460751C2402C5C5CC9109C CALLER CALLVALUE PUSH1 0x40 MLOAD PUSH2 0x8F SWAP3 SWAP2 SWAP1 PUSH2 0x10FB JUMP JUMPDEST PUSH1 0x40 MLOAD DUP1 SWAP2 SUB SWAP1 LOG1 STOP JUMPDEST PUSH1 0x0 DUP1 REVERT JUMPDEST CALLVALUE DUP1 ISZERO PUSH2 0xAA JUMPI PUSH1 0x0 DUP1 REVERT JUMPDEST POP PUSH2 0xC5 PUSH1 0x4 DUP1 CALLDATASIZE SUB DUP2 ADD SWAP1 PUSH2 0xC0 SWAP2 SWAP1 PUSH2 0x115A JUMP JUMPDEST PUSH2 0x1BF JUMP JUMPDEST STOP JUMPDEST CALLVALUE DUP1 ISZERO PUSH2 0xD3 JUMPI PUSH1 0x0 DUP1 REVERT JUMPDEST POP PUSH2 0xEE PUSH1 0x4 DUP1 CALLDATASIZE SUB DUP2 ADD SWAP1 PUSH2 0xE9 SWAP2 SWAP1 PUSH2 0x11B3 JUMP JUMPDEST PUSH2 0x56C JUMP JUMPDEST PUSH1 0x40 MLOAD PUSH2 0xFB SWAP2 SWAP1 PUSH2 0x11FB JUMP JUMPDEST PUSH1 0x40 MLOAD DUP1 SWAP2 SUB SWAP1 RETURN JUMPDEST CALLVALUE DUP1 ISZERO PUSH2 0x110 JUMPI PUSH1 0x0 DUP1 REVERT JUMPDEST POP PUSH2 0x12B PUSH1 0x4 DUP1 CALLDATASIZE SUB DUP2 ADD SWAP1 PUSH2 0x126 SWAP2 SWAP1 PUSH2 0x115A JUMP JUMPDEST PUSH2 0x58C JUMP JUMPDEST PUSH1 0x40 MLOAD PUSH2 0x13B SWAP5 SWAP4 SWAP3 SWAP2 SWAP1 PUSH2 0x12A6 JUMP JUMPDEST PUSH1 0x40 MLOAD DUP1 SWAP2 SUB SWAP1 RETURN JUMPDEST CALLVALUE DUP1 ISZERO PUSH2 0x150 JUMPI PUSH1 0x0 DUP1 REVERT JUMPDEST POP PUSH2 0x16B PUSH1 0x4 DUP1 CALLDATASIZE SUB DUP2 ADD SWAP1 PUSH2 0x166 SWAP2 SWAP1 PUSH2 0x115A JUMP JUMPDEST PUSH2 0x681 JUMP JUMPDEST STOP JUMPDEST CALLVALUE DUP1 ISZERO PUSH2 0x179 JUMPI PUSH1 0x0 DUP1 REVERT JUMPDEST POP PUSH2 0x194 PUSH1 0x4 DUP1 CALLDATASIZE SUB DUP2 ADD SWAP1 PUSH2 0x18F SWAP2 SWAP1 PUSH2 0x1357 JUMP JUMPDEST PUSH2 0xA2D JUMP JUMPDEST STOP JUMPDEST CALLVALUE DUP1 ISZERO PUSH2 0x1A2 JUMPI PUSH1 0x0 DUP1 REVERT JUMPDEST POP PUSH2 0x1BD PUSH1 0x4 DUP1 CALLDATASIZE SUB DUP2 ADD SWAP1 PUSH2 0x1B8 SWAP2 SWAP1 PUSH2 0x115A JUMP JUMPDEST PUSH2 0xBF1 JUMP JUMPDEST STOP JUMPDEST DUP1 PUSH1 0x3 PUSH1 0x0 DUP3 DUP2 MSTORE PUSH1 0x20 ADD SWAP1 DUP2 MSTORE PUSH1 0x20 ADD PUSH1 0x0 KECCAK256 PUSH1 0x0 CALLER PUSH20 0xFFFFFFFFFFFFFFFFFFFFFFFFFFFFFFFFFFFFFFFF AND PUSH20 0xFFFFFFFFFFFFFFFFFFFFFFFFFFFFFFFFFFFFFFFF AND DUP2 MSTORE PUSH1 0x20 ADD SWAP1 DUP2 MSTORE PUSH1 0x20 ADD PUSH1 0x0 KECCAK256 PUSH1 0x0 SWAP1 SLOAD SWAP1 PUSH2 0x100 EXP SWAP1 DIV PUSH1 0xFF AND ISZERO PUSH2 0x25E JUMPI PUSH1 0x40 MLOAD PUSH32 0x8C379A000000000000000000000000000000000000000000000000000000000 DUP2 MSTORE PUSH1 0x4 ADD PUSH2 0x255 SWAP1 PUSH2 0x1428 JUMP JUMPDEST PUSH1 0x40 MLOAD DUP1 SWAP2 SUB SWAP1 REVERT JUMPDEST DUP2 PUSH1 0x1 PUSH1 0x4 DUP1 SLOAD SWAP1 POP PUSH2 0x271 SWAP2 SWAP1 PUSH2 0x1477 JUMP JUMPDEST DUP2 GT ISZERO PUSH2 0x2B3 JUMPI PUSH1 0x40 MLOAD PUSH32 0x8C379A000000000000000000000000000000000000000000000000000000000 DUP2 MSTORE PUSH1 0x4 ADD PUSH2 0x2AA SWAP1 PUSH2 0x14F7 JUMP JUMPDEST PUSH1 0x40 MLOAD DUP1 SWAP2 SUB SWAP1 REVERT JUMPDEST PUSH1 0x1 PUSH1 0x0 CALLER PUSH20 0xFFFFFFFFFFFFFFFFFFFFFFFFFFFFFFFFFFFFFFFF AND PUSH20 0xFFFFFFFFFFFFFFFFFFFFFFFFFFFFFFFFFFFFFFFF AND DUP2 MSTORE PUSH1 0x20 ADD SWAP1 DUP2 MSTORE PUSH1 0x20 ADD PUSH1 0x0 KECCAK256 PUSH1 0x0 SWAP1 SLOAD SWAP1 PUSH2 0x100 EXP SWAP1 DIV PUSH1 0xFF AND PUSH2 0x33F JUMPI PUSH1 0x40 MLOAD PUSH32 0x8C379A000000000000000000000000000000000000000000000000000000000 DUP2 MSTORE PUSH1 0x4 ADD PUSH2 0x336 SWAP1 PUSH2 0x1563 JUMP JUMPDEST PUSH1 0x40 MLOAD DUP1 SWAP2 SUB SWAP1 REVERT JUMPDEST DUP3 PUSH1 0x0 PUSH1 0x4 DUP3 DUP2 SLOAD DUP2 LT PUSH2 0x356 JUMPI PUSH2 0x355 PUSH2 0x1583 JUMP JUMPDEST JUMPDEST SWAP1 PUSH1 0x0 MSTORE PUSH1 0x20 PUSH1 0x0 KECCAK256 SWAP1 PUSH1 0x4 MUL ADD PUSH1 0x40 MLOAD DUP1 PUSH1 0x80 ADD PUSH1 0x40 MSTORE SWAP1 DUP2 PUSH1 0x0 DUP3 ADD PUSH1 0x0 SWAP1 SLOAD SWAP1 PUSH2 0x100 EXP SWAP1 DIV PUSH20 0xFFFFFFFFFFFFFFFFFFFFFFFFFFFFFFFFFFFFFFFF AND PUSH20 0xFFFFFFFFFFFFFFFFFFFFFFFFFFFFFFFFFFFFFFFF AND PUSH20 0xFFFFFFFFFFFFFFFFFFFFFFFFFFFFFFFFFFFFFFFF AND DUP2 MSTORE PUSH1 0x20 ADD PUSH1 0x1 DUP3 ADD SLOAD DUP2 MSTORE PUSH1 0x20 ADD PUSH1 0x2 DUP3 ADD PUSH1 0x0 SWAP1 SLOAD SWAP1 PUSH2 0x100 EXP SWAP1 DIV PUSH1 0xFF AND ISZERO ISZERO ISZERO ISZERO DUP2 MSTORE PUSH1 0x20 ADD PUSH1 0x3 DUP3 ADD DUP1 SLOAD PUSH2 0x3FA SWAP1 PUSH2 0x15E1 JUMP JUMPDEST DUP1 PUSH1 0x1F ADD PUSH1 0x20 DUP1 SWAP2 DIV MUL PUSH1 0x20 ADD PUSH1 0x40 MLOAD SWAP1 DUP2 ADD PUSH1 0x40 MSTORE DUP1 SWAP3 SWAP2 SWAP1 DUP2 DUP2 MSTORE PUSH1 0x20 ADD DUP3 DUP1 SLOAD PUSH2 0x426 SWAP1 PUSH2 0x15E1 JUMP JUMPDEST DUP1 ISZERO PUSH2 0x473 JUMPI DUP1 PUSH1 0x1F LT PUSH2 0x448 JUMPI PUSH2 0x100 DUP1 DUP4 SLOAD DIV MUL DUP4 MSTORE SWAP2 PUSH1 0x20 ADD SWAP2 PUSH2 0x473 JUMP JUMPDEST DUP3 ADD SWAP2 SWAP1 PUSH1 0x0 MSTORE PUSH1 0x20 PUSH1 0x0 KECCAK256 SWAP1 JUMPDEST DUP2 SLOAD DUP2 MSTORE SWAP1 PUSH1 0x1 ADD SWAP1 PUSH1 0x20 ADD DUP1 DUP4 GT PUSH2 0x456 JUMPI DUP3 SWAP1 SUB PUSH1 0x1F AND DUP3 ADD SWAP2 JUMPDEST POP POP POP POP POP DUP2 MSTORE POP POP SWAP1 POP DUP1 PUSH1 0x40 ADD MLOAD ISZERO PUSH2 0x4C3 JUMPI PUSH1 0x40 MLOAD PUSH32 0x8C379A000000000000000000000000000000000000000000000000000000000 DUP2 MSTORE PUSH1 0x4 ADD PUSH2 0x4BA SWAP1 PUSH2 0x165E JUMP JUMPDEST PUSH1 0x40 MLOAD DUP1 SWAP2 SUB SWAP1 REVERT JUMPDEST PUSH1 0x1 PUSH1 0x3 PUSH1 0x0 DUP8 DUP2 MSTORE PUSH1 0x20 ADD SWAP1 DUP2 MSTORE PUSH1 0x20 ADD PUSH1 0x0 KECCAK256 PUSH1 0x0 CALLER PUSH20 0xFFFFFFFFFFFFFFFFFFFFFFFFFFFFFFFFFFFFFFFF AND PUSH20 0xFFFFFFFFFFFFFFFFFFFFFFFFFFFFFFFFFFFFFFFF AND DUP2 MSTORE PUSH1 0x20 ADD SWAP1 DUP2 MSTORE PUSH1 0x20 ADD PUSH1 0x0 KECCAK256 PUSH1 0x0 PUSH2 0x100 EXP DUP2 SLOAD DUP2 PUSH1 0xFF MUL NOT AND SWAP1 DUP4 ISZERO ISZERO MUL OR SWAP1 SSTORE POP PUSH32 0x47AD3E4B0F4BDBE3AC08708BBC45053D2FF616911B39E65563FD9BD781909645 DUP6 CALLER PUSH1 0x40 MLOAD PUSH2 0x55D SWAP3 SWAP2 SWAP1 PUSH2 0x167E JUMP JUMPDEST PUSH1 0x40 MLOAD DUP1 SWAP2 SUB SWAP1 LOG1 POP POP POP POP POP JUMP JUMPDEST PUSH1 0x1 PUSH1 0x20 MSTORE DUP1 PUSH1 0x0 MSTORE PUSH1 0x40 PUSH1 0x0 KECCAK256 PUSH1 0x0 SWAP2 POP SLOAD SWAP1 PUSH2 0x100 EXP SWAP1 DIV PUSH1 0xFF AND DUP2 JUMP JUMPDEST PUSH1 0x4 DUP2 DUP2 SLOAD DUP2 LT PUSH2 0x59C JUMPI PUSH1 0x0 DUP1 REVERT JUMPDEST SWAP1 PUSH1 0x0 MSTORE PUSH1 0x20 PUSH1 0x0 KECCAK256 SWAP1 PUSH1 0x4 MUL ADD PUSH1 0x0 SWAP2 POP SWAP1 POP DUP1 PUSH1 0x0 ADD PUSH1 0x0 SWAP1 SLOAD SWAP1 PUSH2 0x100 EXP SWAP1 DIV PUSH20 0xFFFFFFFFFFFFFFFFFFFFFFFFFFFFFFFFFFFFFFFF AND SWAP1 DUP1 PUSH1 0x1 ADD SLOAD SWAP1 DUP1 PUSH1 0x2 ADD PUSH1 0x0 SWAP1 SLOAD SWAP1 PUSH2 0x100 EXP SWAP1 DIV PUSH1 0xFF AND SWAP1 DUP1 PUSH1 0x3 ADD DUP1 SLOAD PUSH2 0x5FE SWAP1 PUSH2 0x15E1 JUMP JUMPDEST DUP1 PUSH1 0x1F ADD PUSH1 0x20 DUP1 SWAP2 DIV MUL PUSH1 0x20 ADD PUSH1 0x40 MLOAD SWAP1 DUP2 ADD PUSH1 0x40 MSTORE DUP1 SWAP3 SWAP2 SWAP1 DUP2 DUP2 MSTORE PUSH1 0x20 ADD DUP3 DUP1 SLOAD PUSH2 0x62A SWAP1 PUSH2 0x15E1 JUMP JUMPDEST DUP1 ISZERO PUSH2 0x677 JUMPI DUP1 PUSH1 0x1F LT PUSH2 0x64C JUMPI PUSH2 0x100 DUP1 DUP4 SLOAD DIV MUL DUP4 MSTORE SWAP2 PUSH1 0x20 ADD SWAP2 PUSH2 0x677 JUMP JUMPDEST DUP3 ADD SWAP2 SWAP1 PUSH1 0x0 MSTORE PUSH1 0x20 PUSH1 0x0 KECCAK256 SWAP1 JUMPDEST DUP2 SLOAD DUP2 MSTORE SWAP1 PUSH1 0x1 ADD SWAP1 PUSH1 0x20 ADD DUP1 DUP4 GT PUSH2 0x65A JUMPI DUP3 SWAP1 SUB PUSH1 0x1F AND DUP3 ADD SWAP2 JUMPDEST POP POP POP POP POP SWAP1 POP DUP5 JUMP JUMPDEST DUP1 PUSH1 0x3 PUSH1 0x0 DUP3 DUP2 MSTORE PUSH1 0x20 ADD SWAP1 DUP2 MSTORE PUSH1 0x20 ADD PUSH1 0x0 KECCAK256 PUSH1 0x0 CALLER PUSH20 0xFFFFFFFFFFFFFFFFFFFFFFFFFFFFFFFFFFFFFFFF AND PUSH20 0xFFFFFFFFFFFFFFFFFFFFFFFFFFFFFFFFFFFFFFFF AND DUP2 MSTORE PUSH1 0x20 ADD SWAP1 DUP2 MSTORE PUSH1 0x20 ADD PUSH1 0x0 KECCAK256 PUSH1 0x0 SWAP1 SLOAD SWAP1 PUSH2 0x100 EXP SWAP1 DIV PUSH1 0xFF AND PUSH2 0x71F JUMPI PUSH1 0x40 MLOAD PUSH32 0x8C379A000000000000000000000000000000000000000000000000000000000 DUP2 MSTORE PUSH1 0x4 ADD PUSH2 0x716 SWAP1 PUSH2 0x16F3 JUMP JUMPDEST PUSH1 0x40 MLOAD DUP1 SWAP2 SUB SWAP1 REVERT JUMPDEST DUP2 PUSH1 0x1 PUSH1 0x4 DUP1 SLOAD SWAP1 POP PUSH2 0x732 SWAP2 SWAP1 PUSH2 0x1477 JUMP JUMPDEST DUP2 GT ISZERO PUSH2 0x774 JUMPI PUSH1 0x40 MLOAD PUSH32 0x8C379A000000000000000000000000000000000000000000000000000000000 DUP2 MSTORE PUSH1 0x4 ADD PUSH2 0x76B SWAP1 PUSH2 0x14F7 JUMP JUMPDEST PUSH1 0x40 MLOAD DUP1 SWAP2 SUB SWAP1 REVERT JUMPDEST PUSH1 0x1 PUSH1 0x0 CALLER PUSH20 0xFFFFFFFFFFFFFFFFFFFFFFFFFFFFFFFFFFFFFFFF AND PUSH20 0xFFFFFFFFFFFFFFFFFFFFFFFFFFFFFFFFFFFFFFFF AND DUP2 MSTORE PUSH1 0x20 ADD SWAP1 DUP2 MSTORE PUSH1 0x20 ADD PUSH1 0x0 KECCAK256 PUSH1 0x0 SWAP1 SLOAD SWAP1 PUSH2 0x100 EXP SWAP1 DIV PUSH1 0xFF AND PUSH2 0x800 JUMPI PUSH1 0x40 MLOAD PUSH32 0x8C379A000000000000000000000000000000000000000000000000000000000 DUP2 MSTORE PUSH1 0x4 ADD PUSH2 0x7F7 SWAP1 PUSH2 0x1563 JUMP JUMPDEST PUSH1 0x40 MLOAD DUP1 SWAP2 SUB SWAP1 REVERT JUMPDEST DUP3 PUSH1 0x0 PUSH1 0x4 DUP3 DUP2 SLOAD DUP2 LT PUSH2 0x817 JUMPI PUSH2 0x816 PUSH2 0x1583 JUMP JUMPDEST JUMPDEST SWAP1 PUSH1 0x0 MSTORE PUSH1 0x20 PUSH1 0x0 KECCAK256 SWAP1 PUSH1 0x4 MUL ADD PUSH1 0x40 MLOAD DUP1 PUSH1 0x80 ADD PUSH1 0x40 MSTORE SWAP1 DUP2 PUSH1 0x0 DUP3 ADD PUSH1 0x0 SWAP1 SLOAD SWAP1 PUSH2 0x100 EXP SWAP1 DIV PUSH20 0xFFFFFFFFFFFFFFFFFFFFFFFFFFFFFFFFFFFFFFFF AND PUSH20 0xFFFFFFFFFFFFFFFFFFFFFFFFFFFFFFFFFFFFFFFF AND PUSH20 0xFFFFFFFFFFFFFFFFFFFFFFFFFFFFFFFFFFFFFFFF AND DUP2 MSTORE PUSH1 0x20 ADD PUSH1 0x1 DUP3 ADD SLOAD DUP2 MSTORE PUSH1 0x20 ADD PUSH1 0x2 DUP3 ADD PUSH1 0x0 SWAP1 SLOAD SWAP1 PUSH2 0x100 EXP SWAP1 DIV PUSH1 0xFF AND ISZERO ISZERO ISZERO ISZERO DUP2 MSTORE PUSH1 0x20 ADD PUSH1 0x3 DUP3 ADD DUP1 SLOAD PUSH2 0x8BB SWAP1 PUSH2 0x15E1 JUMP JUMPDEST DUP1 PUSH1 0x1F ADD PUSH1 0x20 DUP1 SWAP2 DIV MUL PUSH1 0x20 ADD PUSH1 0x40 MLOAD SWAP1 DUP2 ADD PUSH1 0x40 MSTORE DUP1 SWAP3 SWAP2 SWAP1 DUP2 DUP2 MSTORE PUSH1 0x20 ADD DUP3 DUP1 SLOAD PUSH2 0x8E7 SWAP1 PUSH2 0x15E1 JUMP JUMPDEST DUP1 ISZERO PUSH2 0x934 JUMPI DUP1 PUSH1 0x1F LT PUSH2 0x909 JUMPI PUSH2 0x100 DUP1 DUP4 SLOAD DIV MUL DUP4 MSTORE SWAP2 PUSH1 0x20 ADD SWAP2 PUSH2 0x934 JUMP JUMPDEST DUP3 ADD SWAP2 SWAP1 PUSH1 0x0 MSTORE PUSH1 0x20 PUSH1 0x0 KECCAK256 SWAP1 JUMPDEST DUP2 SLOAD DUP2 MSTORE SWAP1 PUSH1 0x1 ADD SWAP1 PUSH1 0x20 ADD DUP1 DUP4 GT PUSH2 0x917 JUMPI DUP3 SWAP1 SUB PUSH1 0x1F AND DUP3 ADD SWAP2 JUMPDEST POP POP POP POP POP DUP2 MSTORE POP POP SWAP1 POP DUP1 PUSH1 0x40 ADD MLOAD ISZERO PUSH2 0x984 JUMPI PUSH1 0x40 MLOAD PUSH32 0x8C379A000000000000000000000000000000000000000000000000000000000 DUP2 MSTORE PUSH1 0x4 ADD PUSH2 0x97B SWAP1 PUSH2 0x165E JUMP JUMPDEST PUSH1 0x40 MLOAD DUP1 SWAP2 SUB SWAP1 REVERT JUMPDEST PUSH1 0x0 PUSH1 0x3 PUSH1 0x0 DUP8 DUP2 MSTORE PUSH1 0x20 ADD SWAP1 DUP2 MSTORE PUSH1 0x20 ADD PUSH1 0x0 KECCAK256 PUSH1 0x0 CALLER PUSH20 0xFFFFFFFFFFFFFFFFFFFFFFFFFFFFFFFFFFFFFFFF AND PUSH20 0xFFFFFFFFFFFFFFFFFFFFFFFFFFFFFFFFFFFFFFFF AND DUP2 MSTORE PUSH1 0x20 ADD SWAP1 DUP2 MSTORE PUSH1 0x20 ADD PUSH1 0x0 KECCAK256 PUSH1 0x0 PUSH2 0x100 EXP DUP2 SLOAD DUP2 PUSH1 0xFF MUL NOT AND SWAP1 DUP4 ISZERO ISZERO MUL OR SWAP1 SSTORE POP PUSH32 0xD5D64031E0F55CF42BC3B7D0462F8404A4D63F7CCF84BE9510CD6A5300552E42 DUP6 CALLER PUSH1 0x40 MLOAD PUSH2 0xA1E SWAP3 SWAP2 SWAP1 PUSH2 0x167E JUMP JUMPDEST PUSH1 0x40 MLOAD DUP1 SWAP2 SUB SWAP1 LOG1 POP POP POP POP POP JUMP JUMPDEST PUSH1 0x1 PUSH1 0x0 CALLER PUSH20 0xFFFFFFFFFFFFFFFFFFFFFFFFFFFFFFFFFFFFFFFF AND PUSH20 0xFFFFFFFFFFFFFFFFFFFFFFFFFFFFFFFFFFFFFFFF AND DUP2 MSTORE PUSH1 0x20 ADD SWAP1 DUP2 MSTORE PUSH1 0x20 ADD PUSH1 0x0 KECCAK256 PUSH1 0x0 SWAP1 SLOAD SWAP1 PUSH2 0x100 EXP SWAP1 DIV PUSH1 0xFF AND PUSH2 0xAB9 JUMPI PUSH1 0x40 MLOAD PUSH32 0x8C379A000000000000000000000000000000000000000000000000000000000 DUP2 MSTORE PUSH1 0x4 ADD PUSH2 0xAB0 SWAP1 PUSH2 0x1563 JUMP JUMPDEST PUSH1 0x40 MLOAD DUP1 SWAP2 SUB SWAP1 REVERT JUMPDEST PUSH1 0x4 PUSH1 0x40 MLOAD DUP1 PUSH1 0x80 ADD PUSH1 0x40 MSTORE DUP1 DUP7 PUSH20 0xFFFFFFFFFFFFFFFFFFFFFFFFFFFFFFFFFFFFFFFF AND DUP2 MSTORE PUSH1 0x20 ADD DUP6 DUP2 MSTORE PUSH1 0x20 ADD PUSH1 0x0 ISZERO ISZERO DUP2 MSTORE PUSH1 0x20 ADD DUP5 DUP5 DUP1 DUP1 PUSH1 0x1F ADD PUSH1 0x20 DUP1 SWAP2 DIV MUL PUSH1 0x20 ADD PUSH1 0x40 MLOAD SWAP1 DUP2 ADD PUSH1 0x40 MSTORE DUP1 SWAP4 SWAP3 SWAP2 SWAP1 DUP2 DUP2 MSTORE PUSH1 0x20 ADD DUP4 DUP4 DUP1 DUP3 DUP5 CALLDATACOPY PUSH1 0x0 DUP2 DUP5 ADD MSTORE PUSH1 0x1F NOT PUSH1 0x1F DUP3 ADD AND SWAP1 POP DUP1 DUP4 ADD SWAP3 POP POP POP POP POP POP POP DUP2 MSTORE POP SWAP1 DUP1 PUSH1 0x1 DUP2 SLOAD ADD DUP1 DUP3 SSTORE DUP1 SWAP2 POP POP PUSH1 0x1 SWAP1 SUB SWAP1 PUSH1 0x0 MSTORE PUSH1 0x20 PUSH1 0x0 KECCAK256 SWAP1 PUSH1 0x4 MUL ADD PUSH1 0x0 SWAP1 SWAP2 SWAP1 SWAP2 SWAP1 SWAP2 POP PUSH1 0x0 DUP3 ADD MLOAD DUP2 PUSH1 0x0 ADD PUSH1 0x0 PUSH2 0x100 EXP DUP2 SLOAD DUP2 PUSH20 0xFFFFFFFFFFFFFFFFFFFFFFFFFFFFFFFFFFFFFFFF MUL NOT AND SWAP1 DUP4 PUSH20 0xFFFFFFFFFFFFFFFFFFFFFFFFFFFFFFFFFFFFFFFF AND MUL OR SWAP1 SSTORE POP PUSH1 0x20 DUP3 ADD MLOAD DUP2 PUSH1 0x1 ADD SSTORE PUSH1 0x40 DUP3 ADD MLOAD DUP2 PUSH1 0x2 ADD PUSH1 0x0 PUSH2 0x100 EXP DUP2 SLOAD DUP2 PUSH1 0xFF MUL NOT AND SWAP1 DUP4 ISZERO ISZERO MUL OR SWAP1 SSTORE POP PUSH1 0x60 DUP3 ADD MLOAD DUP2 PUSH1 0x3 ADD SWAP1 DUP2 PUSH2 0xBE8 SWAP2 SWAP1 PUSH2 0x18EE JUMP JUMPDEST POP POP POP POP POP POP POP JUMP JUMPDEST DUP1 PUSH1 0x1 PUSH1 0x4 DUP1 SLOAD SWAP1 POP PUSH2 0xC04 SWAP2 SWAP1 PUSH2 0x1477 JUMP JUMPDEST DUP2 GT ISZERO PUSH2 0xC46 JUMPI PUSH1 0x40 MLOAD PUSH32 0x8C379A000000000000000000000000000000000000000000000000000000000 DUP2 MSTORE PUSH1 0x4 ADD PUSH2 0xC3D SWAP1 PUSH2 0x14F7 JUMP JUMPDEST PUSH1 0x40 MLOAD DUP1 SWAP2 SUB SWAP1 REVERT JUMPDEST PUSH1 0x1 PUSH1 0x0 CALLER PUSH20 0xFFFFFFFFFFFFFFFFFFFFFFFFFFFFFFFFFFFFFFFF AND PUSH20 0xFFFFFFFFFFFFFFFFFFFFFFFFFFFFFFFFFFFFFFFF AND DUP2 MSTORE PUSH1 0x20 ADD SWAP1 DUP2 MSTORE PUSH1 0x20 ADD PUSH1 0x0 KECCAK256 PUSH1 0x0 SWAP1 SLOAD SWAP1 PUSH2 0x100 EXP SWAP1 DIV PUSH1 0xFF AND PUSH2 0xCD2 JUMPI PUSH1 0x40 MLOAD PUSH32 0x8C379A000000000000000000000000000000000000000000000000000000000 DUP2 MSTORE PUSH1 0x4 ADD PUSH2 0xCC9 SWAP1 PUSH2 0x1563 JUMP JUMPDEST PUSH1 0x40 MLOAD DUP1 SWAP2 SUB SWAP1 REVERT JUMPDEST DUP2 PUSH1 0x0 PUSH1 0x4 DUP3 DUP2 SLOAD DUP2 LT PUSH2 0xCE9 JUMPI PUSH2 0xCE8 PUSH2 0x1583 JUMP JUMPDEST JUMPDEST SWAP1 PUSH1 0x0 MSTORE PUSH1 0x20 PUSH1 0x0 KECCAK256 SWAP1 PUSH1 0x4 MUL ADD PUSH1 0x40 MLOAD DUP1 PUSH1 0x80 ADD PUSH1 0x40 MSTORE SWAP1 DUP2 PUSH1 0x0 DUP3 ADD PUSH1 0x0 SWAP1 SLOAD SWAP1 PUSH2 0x100 EXP SWAP1 DIV PUSH20 0xFFFFFFFFFFFFFFFFFFFFFFFFFFFFFFFFFFFFFFFF AND PUSH20 0xFFFFFFFFFFFFFFFFFFFFFFFFFFFFFFFFFFFFFFFF AND PUSH20 0xFFFFFFFFFFFFFFFFFFFFFFFFFFFFFFFFFFFFFFFF AND DUP2 MSTORE PUSH1 0x20 ADD PUSH1 0x1 DUP3 ADD SLOAD DUP2 MSTORE PUSH1 0x20 ADD PUSH1 0x2 DUP3 ADD PUSH1 0x0 SWAP1 SLOAD SWAP1 PUSH2 0x100 EXP SWAP1 DIV PUSH1 0xFF AND ISZERO ISZERO ISZERO ISZERO DUP2 MSTORE PUSH1 0x20 ADD PUSH1 0x3 DUP3 ADD DUP1 SLOAD PUSH2 0xD8D SWAP1 PUSH2 0x15E1 JUMP JUMPDEST DUP1 PUSH1 0x1F ADD PUSH1 0x20 DUP1 SWAP2 DIV MUL PUSH1 0x20 ADD PUSH1 0x40 MLOAD SWAP1 DUP2 ADD PUSH1 0x40 MSTORE DUP1 SWAP3 SWAP2 SWAP1 DUP2 DUP2 MSTORE PUSH1 0x20 ADD DUP3 DUP1 SLOAD PUSH2 0xDB9 SWAP1 PUSH2 0x15E1 JUMP JUMPDEST DUP1 ISZERO PUSH2 0xE06 JUMPI DUP1 PUSH1 0x1F LT PUSH2 0xDDB JUMPI PUSH2 0x100 DUP1 DUP4 SLOAD DIV MUL DUP4 MSTORE SWAP2 PUSH1 0x20 ADD SWAP2 PUSH2 0xE06 JUMP JUMPDEST DUP3 ADD SWAP2 SWAP1 PUSH1 0x0 MSTORE PUSH1 0x20 PUSH1 0x0 KECCAK256 SWAP1 JUMPDEST DUP2 SLOAD DUP2 MSTORE SWAP1 PUSH1 0x1 ADD SWAP1 PUSH1 0x20 ADD DUP1 DUP4 GT PUSH2 0xDE9 JUMPI DUP3 SWAP1 SUB PUSH1 0x1F AND DUP3 ADD SWAP2 JUMPDEST POP POP POP POP POP DUP2 MSTORE POP POP SWAP1 POP DUP1 PUSH1 0x40 ADD MLOAD ISZERO PUSH2 0xE56 JUMPI PUSH1 0x40 MLOAD PUSH32 0x8C379A000000000000000000000000000000000000000000000000000000000 DUP2 MSTORE PUSH1 0x4 ADD PUSH2 0xE4D SWAP1 PUSH2 0x165E JUMP JUMPDEST PUSH1 0x40 MLOAD DUP1 SWAP2 SUB SWAP1 REVERT JUMPDEST PUSH1 0x2 SLOAD PUSH2 0xE62 DUP6 PUSH2 0xFC7 JUMP JUMPDEST LT ISZERO PUSH2 0xEA3 JUMPI PUSH1 0x40 MLOAD PUSH32 0x8C379A000000000000000000000000000000000000000000000000000000000 DUP2 MSTORE PUSH1 0x4 ADD PUSH2 0xE9A SWAP1 PUSH2 0x1A0C JUMP JUMPDEST PUSH1 0x40 MLOAD DUP1 SWAP2 SUB SWAP1 REVERT JUMPDEST PUSH1 0x0 PUSH1 0x4 DUP6 DUP2 SLOAD DUP2 LT PUSH2 0xEB9 JUMPI PUSH2 0xEB8 PUSH2 0x1583 JUMP JUMPDEST JUMPDEST SWAP1 PUSH1 0x0 MSTORE PUSH1 0x20 PUSH1 0x0 KECCAK256 SWAP1 PUSH1 0x4 MUL ADD SWAP1 POP PUSH1 0x0 DUP2 PUSH1 0x0 ADD PUSH1 0x0 SWAP1 SLOAD SWAP1 PUSH2 0x100 EXP SWAP1 DIV PUSH20 0xFFFFFFFFFFFFFFFFFFFFFFFFFFFFFFFFFFFFFFFF AND PUSH20 0xFFFFFFFFFFFFFFFFFFFFFFFFFFFFFFFFFFFFFFFF AND DUP3 PUSH1 0x1 ADD SLOAD DUP4 PUSH1 0x3 ADD PUSH1 0x40 MLOAD PUSH2 0xF1C SWAP2 SWAP1 PUSH2 0x1ABA JUMP JUMPDEST PUSH1 0x0 PUSH1 0x40 MLOAD DUP1 DUP4 SUB DUP2 DUP6 DUP8 GAS CALL SWAP3 POP POP POP RETURNDATASIZE DUP1 PUSH1 0x0 DUP2 EQ PUSH2 0xF59 JUMPI PUSH1 0x40 MLOAD SWAP2 POP PUSH1 0x1F NOT PUSH1 0x3F RETURNDATASIZE ADD AND DUP3 ADD PUSH1 0x40 MSTORE RETURNDATASIZE DUP3 MSTORE RETURNDATASIZE PUSH1 0x0 PUSH1 0x20 DUP5 ADD RETURNDATACOPY PUSH2 0xF5E JUMP JUMPDEST PUSH1 0x60 SWAP2 POP JUMPDEST POP POP SWAP1 POP DUP1 PUSH2 0xFA2 JUMPI PUSH1 0x40 MLOAD PUSH32 0x8C379A000000000000000000000000000000000000000000000000000000000 DUP2 MSTORE PUSH1 0x4 ADD PUSH2 0xF99 SWAP1 PUSH2 0x1B1D JUMP JUMPDEST PUSH1 0x40 MLOAD DUP1 SWAP2 SUB SWAP1 REVERT JUMPDEST PUSH1 0x1 DUP3 PUSH1 0x2 ADD PUSH1 0x0 PUSH2 0x100 EXP DUP2 SLOAD DUP2 PUSH1 0xFF MUL NOT AND SWAP1 DUP4 ISZERO ISZERO MUL OR SWAP1 SSTORE POP POP POP POP POP POP POP JUMP JUMPDEST PUSH1 0x0 DUP1 JUMPDEST PUSH1 0x0 DUP1 SLOAD SWAP1 POP DUP2 LT ISZERO PUSH2 0x109B JUMPI PUSH1 0x3 PUSH1 0x0 DUP5 DUP2 MSTORE PUSH1 0x20 ADD SWAP1 DUP2 MSTORE PUSH1 0x20 ADD PUSH1 0x0 KECCAK256 PUSH1 0x0 DUP1 DUP4 DUP2 SLOAD DUP2 LT PUSH2 0x1000 JUMPI PUSH2 0xFFF PUSH2 0x1583 JUMP JUMPDEST JUMPDEST SWAP1 PUSH1 0x0 MSTORE PUSH1 0x20 PUSH1 0x0 KECCAK256 ADD PUSH1 0x0 SWAP1 SLOAD SWAP1 PUSH2 0x100 EXP SWAP1 DIV PUSH20 0xFFFFFFFFFFFFFFFFFFFFFFFFFFFFFFFFFFFFFFFF AND PUSH20 0xFFFFFFFFFFFFFFFFFFFFFFFFFFFFFFFFFFFFFFFF AND PUSH20 0xFFFFFFFFFFFFFFFFFFFFFFFFFFFFFFFFFFFFFFFF AND DUP2 MSTORE PUSH1 0x20 ADD SWAP1 DUP2 MSTORE PUSH1 0x20 ADD PUSH1 0x0 KECCAK256 PUSH1 0x0 SWAP1 SLOAD SWAP1 PUSH2 0x100 EXP SWAP1 DIV PUSH1 0xFF AND ISZERO PUSH2 0x1088 JUMPI PUSH1 0x1 DUP3 PUSH2 0x1085 SWAP2 SWAP1 PUSH2 0x1B3D JUMP JUMPDEST SWAP2 POP JUMPDEST DUP1 DUP1 PUSH2 0x1093 SWAP1 PUSH2 0x1B71 JUMP JUMPDEST SWAP2 POP POP PUSH2 0xFCB JUMP JUMPDEST POP SWAP2 SWAP1 POP JUMP JUMPDEST PUSH1 0x0 PUSH20 0xFFFFFFFFFFFFFFFFFFFFFFFFFFFFFFFFFFFFFFFF DUP3 AND SWAP1 POP SWAP2 SWAP1 POP JUMP JUMPDEST PUSH1 0x0 PUSH2 0x10CC DUP3 PUSH2 0x10A1 JUMP JUMPDEST SWAP1 POP SWAP2 SWAP1 POP JUMP JUMPDEST PUSH2 0x10DC DUP2 PUSH2 0x10C1 JUMP JUMPDEST DUP3 MSTORE POP POP JUMP JUMPDEST PUSH1 0x0 DUP2 SWAP1 POP SWAP2 SWAP1 POP JUMP JUMPDEST PUSH2 0x10F5 DUP2 PUSH2 0x10E2 JUMP JUMPDEST DUP3 MSTORE POP POP JUMP JUMPDEST PUSH1 0x0 PUSH1 0x40 DUP3 ADD SWAP1 POP PUSH2 0x1110 PUSH1 0x0 DUP4 ADD DUP6 PUSH2 0x10D3 JUMP JUMPDEST PUSH2 0x111D PUSH1 0x20 DUP4 ADD DUP5 PUSH2 0x10EC JUMP JUMPDEST SWAP4 SWAP3 POP POP POP JUMP JUMPDEST PUSH1 0x0 DUP1 REVERT JUMPDEST PUSH1 0x0 DUP1 REVERT JUMPDEST PUSH2 0x1137 DUP2 PUSH2 0x10E2 JUMP JUMPDEST DUP2 EQ PUSH2 0x1142 JUMPI PUSH1 0x0 DUP1 REVERT JUMPDEST POP JUMP JUMPDEST PUSH1 0x0 DUP2 CALLDATALOAD SWAP1 POP PUSH2 0x1154 DUP2 PUSH2 0x112E JUMP JUMPDEST SWAP3 SWAP2 POP POP JUMP JUMPDEST PUSH1 0x0 PUSH1 0x20 DUP3 DUP5 SUB SLT ISZERO PUSH2 0x1170 JUMPI PUSH2 0x116F PUSH2 0x1124 JUMP JUMPDEST JUMPDEST PUSH1 0x0 PUSH2 0x117E DUP5 DUP3 DUP6 ADD PUSH2 0x1145 JUMP JUMPDEST SWAP2 POP POP SWAP3 SWAP2 POP POP JUMP JUMPDEST PUSH2 0x1190 DUP2 PUSH2 0x10C1 JUMP JUMPDEST DUP2 EQ PUSH2 0x119B JUMPI PUSH1 0x0 DUP1 REVERT JUMPDEST POP JUMP JUMPDEST PUSH1 0x0 DUP2 CALLDATALOAD SWAP1 POP PUSH2 0x11AD DUP2 PUSH2 0x1187 JUMP JUMPDEST SWAP3 SWAP2 POP POP JUMP JUMPDEST PUSH1 0x0 PUSH1 0x20 DUP3 DUP5 SUB SLT ISZERO PUSH2 0x11C9 JUMPI PUSH2 0x11C8 PUSH2 0x1124 JUMP JUMPDEST JUMPDEST PUSH1 0x0 PUSH2 0x11D7 DUP5 DUP3 DUP6 ADD PUSH2 0x119E JUMP JUMPDEST SWAP2 POP POP SWAP3 SWAP2 POP POP JUMP JUMPDEST PUSH1 0x0 DUP2 ISZERO ISZERO SWAP1 POP SWAP2 SWAP1 POP JUMP JUMPDEST PUSH2 0x11F5 DUP2 PUSH2 0x11E0 JUMP JUMPDEST DUP3 MSTORE POP POP JUMP JUMPDEST PUSH1 0x0 PUSH1 0x20 DUP3 ADD SWAP1 POP PUSH2 0x1210 PUSH1 0x0 DUP4 ADD DUP5 PUSH2 0x11EC JUMP JUMPDEST SWAP3 SWAP2 POP POP JUMP JUMPDEST PUSH1 0x0 DUP2 MLOAD SWAP1 POP SWAP2 SWAP1 POP JUMP JUMPDEST PUSH1 0x0 DUP3 DUP3 MSTORE PUSH1 0x20 DUP3 ADD SWAP1 POP SWAP3 SWAP2 POP POP JUMP JUMPDEST PUSH1 0x0 JUMPDEST DUP4 DUP2 LT ISZERO PUSH2 0x1250 JUMPI DUP1 DUP3 ADD MLOAD DUP2 DUP5 ADD MSTORE PUSH1 0x20 DUP2 ADD SWAP1 POP PUSH2 0x1235 JUMP JUMPDEST PUSH1 0x0 DUP5 DUP5 ADD MSTORE POP POP POP POP JUMP JUMPDEST PUSH1 0x0 PUSH1 0x1F NOT PUSH1 0x1F DUP4 ADD AND SWAP1 POP SWAP2 SWAP1 POP JUMP JUMPDEST PUSH1 0x0 PUSH2 0x1278 DUP3 PUSH2 0x1216 JUMP JUMPDEST PUSH2 0x1282 DUP2 DUP6 PUSH2 0x1221 JUMP JUMPDEST SWAP4 POP PUSH2 0x1292 DUP2 DUP6 PUSH1 0x20 DUP7 ADD PUSH2 0x1232 JUMP JUMPDEST PUSH2 0x129B DUP2 PUSH2 0x125C JUMP JUMPDEST DUP5 ADD SWAP2 POP POP SWAP3 SWAP2 POP POP JUMP JUMPDEST PUSH1 0x0 PUSH1 0x80 DUP3 ADD SWAP1 POP PUSH2 0x12BB PUSH1 0x0 DUP4 ADD DUP8 PUSH2 0x10D3 JUMP JUMPDEST PUSH2 0x12C8 PUSH1 0x20 DUP4 ADD DUP7 PUSH2 0x10EC JUMP JUMPDEST PUSH2 0x12D5 PUSH1 0x40 DUP4 ADD DUP6 PUSH2 0x11EC JUMP JUMPDEST DUP2 DUP2 SUB PUSH1 0x60 DUP4 ADD MSTORE PUSH2 0x12E7 DUP2 DUP5 PUSH2 0x126D JUMP JUMPDEST SWAP1 POP SWAP6 SWAP5 POP POP POP POP POP JUMP JUMPDEST PUSH1 0x0 DUP1 REVERT JUMPDEST PUSH1 0x0 DUP1 REVERT JUMPDEST PUSH1 0x0 DUP1 REVERT JUMPDEST PUSH1 0x0 DUP1 DUP4 PUSH1 0x1F DUP5 ADD SLT PUSH2 0x1317 JUMPI PUSH2 0x1316 PUSH2 0x12F2 JUMP JUMPDEST JUMPDEST DUP3 CALLDATALOAD SWAP1 POP PUSH8 0xFFFFFFFFFFFFFFFF DUP2 GT ISZERO PUSH2 0x1334 JUMPI PUSH2 0x1333 PUSH2 0x12F7 JUMP JUMPDEST JUMPDEST PUSH1 0x20 DUP4 ADD SWAP2 POP DUP4 PUSH1 0x1 DUP3 MUL DUP4 ADD GT ISZERO PUSH2 0x1350 JUMPI PUSH2 0x134F PUSH2 0x12FC JUMP JUMPDEST JUMPDEST SWAP3 POP SWAP3 SWAP1 POP JUMP JUMPDEST PUSH1 0x0 DUP1 PUSH1 0x0 DUP1 PUSH1 0x60 DUP6 DUP8 SUB SLT ISZERO PUSH2 0x1371 JUMPI PUSH2 0x1370 PUSH2 0x1124 JUMP JUMPDEST JUMPDEST PUSH1 0x0 PUSH2 0x137F DUP8 DUP3 DUP9 ADD PUSH2 0x119E JUMP JUMPDEST SWAP5 POP POP PUSH1 0x20 PUSH2 0x1390 DUP8 DUP3 DUP9 ADD PUSH2 0x1145 JUMP JUMPDEST SWAP4 POP POP PUSH1 0x40 DUP6 ADD CALLDATALOAD PUSH8 0xFFFFFFFFFFFFFFFF DUP2 GT ISZERO PUSH2 0x13B1 JUMPI PUSH2 0x13B0 PUSH2 0x1129 JUMP JUMPDEST JUMPDEST PUSH2 0x13BD DUP8 DUP3 DUP9 ADD PUSH2 0x1301 JUMP JUMPDEST SWAP3 POP SWAP3 POP POP SWAP3 SWAP6 SWAP2 SWAP5 POP SWAP3 POP JUMP JUMPDEST PUSH1 0x0 DUP3 DUP3 MSTORE PUSH1 0x20 DUP3 ADD SWAP1 POP SWAP3 SWAP2 POP POP JUMP JUMPDEST PUSH32 0x5472616E73616374696F6E20416C726561647920417070726F7665642E2E2E00 PUSH1 0x0 DUP3 ADD MSTORE POP JUMP JUMPDEST PUSH1 0x0 PUSH2 0x1412 PUSH1 0x1F DUP4 PUSH2 0x13CB JUMP JUMPDEST SWAP2 POP PUSH2 0x141D DUP3 PUSH2 0x13DC JUMP JUMPDEST PUSH1 0x20 DUP3 ADD SWAP1 POP SWAP2 SWAP1 POP JUMP JUMPDEST PUSH1 0x0 PUSH1 0x20 DUP3 ADD SWAP1 POP DUP2 DUP2 SUB PUSH1 0x0 DUP4 ADD MSTORE PUSH2 0x1441 DUP2 PUSH2 0x1405 JUMP JUMPDEST SWAP1 POP SWAP2 SWAP1 POP JUMP JUMPDEST PUSH32 0x4E487B7100000000000000000000000000000000000000000000000000000000 PUSH1 0x0 MSTORE PUSH1 0x11 PUSH1 0x4 MSTORE PUSH1 0x24 PUSH1 0x0 REVERT JUMPDEST PUSH1 0x0 PUSH2 0x1482 DUP3 PUSH2 0x10E2 JUMP JUMPDEST SWAP2 POP PUSH2 0x148D DUP4 PUSH2 0x10E2 JUMP JUMPDEST SWAP3 POP DUP3 DUP3 SUB SWAP1 POP DUP2 DUP2 GT ISZERO PUSH2 0x14A5 JUMPI PUSH2 0x14A4 PUSH2 0x1448 JUMP JUMPDEST JUMPDEST SWAP3 SWAP2 POP POP JUMP JUMPDEST PUSH32 0x5472616E73616374696F6E20446F6573206E6F742045786973742E2E2E000000 PUSH1 0x0 DUP3 ADD MSTORE POP JUMP JUMPDEST PUSH1 0x0 PUSH2 0x14E1 PUSH1 0x1D DUP4 PUSH2 0x13CB JUMP JUMPDEST SWAP2 POP PUSH2 0x14EC DUP3 PUSH2 0x14AB JUMP JUMPDEST PUSH1 0x20 DUP3 ADD SWAP1 POP SWAP2 SWAP1 POP JUMP JUMPDEST PUSH1 0x0 PUSH1 0x20 DUP3 ADD SWAP1 POP DUP2 DUP2 SUB PUSH1 0x0 DUP4 ADD MSTORE PUSH2 0x1510 DUP2 PUSH2 0x14D4 JUMP JUMPDEST SWAP1 POP SWAP2 SWAP1 POP JUMP JUMPDEST PUSH32 0x4E6F7420746865204F776E65722E2E2E2E000000000000000000000000000000 PUSH1 0x0 DUP3 ADD MSTORE POP JUMP JUMPDEST PUSH1 0x0 PUSH2 0x154D PUSH1 0x11 DUP4 PUSH2 0x13CB JUMP JUMPDEST SWAP2 POP PUSH2 0x1558 DUP3 PUSH2 0x1517 JUMP JUMPDEST PUSH1 0x20 DUP3 ADD SWAP1 POP SWAP2 SWAP1 POP JUMP JUMPDEST PUSH1 0x0 PUSH1 0x20 DUP3 ADD SWAP1 POP DUP2 DUP2 SUB PUSH1 0x0 DUP4 ADD MSTORE PUSH2 0x157C DUP2 PUSH2 0x1540 JUMP JUMPDEST SWAP1 POP SWAP2 SWAP1 POP JUMP JUMPDEST PUSH32 0x4E487B7100000000000000000000000000000000000000000000000000000000 PUSH1 0x0 MSTORE PUSH1 0x32 PUSH1 0x4 MSTORE PUSH1 0x24 PUSH1 0x0 REVERT JUMPDEST PUSH32 0x4E487B7100000000000000000000000000000000000000000000000000000000 PUSH1 0x0 MSTORE PUSH1 0x22 PUSH1 0x4 MSTORE PUSH1 0x24 PUSH1 0x0 REVERT JUMPDEST PUSH1 0x0 PUSH1 0x2 DUP3 DIV SWAP1 POP PUSH1 0x1 DUP3 AND DUP1 PUSH2 0x15F9 JUMPI PUSH1 0x7F DUP3 AND SWAP2 POP JUMPDEST PUSH1 0x20 DUP3 LT DUP2 SUB PUSH2 0x160C JUMPI PUSH2 0x160B PUSH2 0x15B2 JUMP JUMPDEST JUMPDEST POP SWAP2 SWAP1 POP JUMP JUMPDEST PUSH32 0x5472616E73616374696F6E20416C726561647920457865637574656400000000 PUSH1 0x0 DUP3 ADD MSTORE POP JUMP JUMPDEST PUSH1 0x0 PUSH2 0x1648 PUSH1 0x1C DUP4 PUSH2 0x13CB JUMP JUMPDEST SWAP2 POP PUSH2 0x1653 DUP3 PUSH2 0x1612 JUMP JUMPDEST PUSH1 0x20 DUP3 ADD SWAP1 POP SWAP2 SWAP1 POP JUMP JUMPDEST PUSH1 0x0 PUSH1 0x20 DUP3 ADD SWAP1 POP DUP2 DUP2 SUB PUSH1 0x0 DUP4 ADD MSTORE PUSH2 0x1677 DUP2 PUSH2 0x163B JUMP JUMPDEST SWAP1 POP SWAP2 SWAP1 POP JUMP JUMPDEST PUSH1 0x0 PUSH1 0x40 DUP3 ADD SWAP1 POP PUSH2 0x1693 PUSH1 0x0 DUP4 ADD DUP6 PUSH2 0x10EC JUMP JUMPDEST PUSH2 0x16A0 PUSH1 0x20 DUP4 ADD DUP5 PUSH2 0x10D3 JUMP JUMPDEST SWAP4 SWAP3 POP POP POP JUMP JUMPDEST PUSH32 0x5472616E73616374696F6E204E6F7420417070726F7665642E2E2E0000000000 PUSH1 0x0 DUP3 ADD MSTORE POP JUMP JUMPDEST PUSH1 0x0 PUSH2 0x16DD PUSH1 0x1B DUP4 PUSH2 0x13CB JUMP JUMPDEST SWAP2 POP PUSH2 0x16E8 DUP3 PUSH2 0x16A7 JUMP JUMPDEST PUSH1 0x20 DUP3 ADD SWAP1 POP SWAP2 SWAP1 POP JUMP JUMPDEST PUSH1 0x0 PUSH1 0x20 DUP3 ADD SWAP1 POP DUP2 DUP2 SUB PUSH1 0x0 DUP4 ADD MSTORE PUSH2 0x170C DUP2 PUSH2 0x16D0 JUMP JUMPDEST SWAP1 POP SWAP2 SWAP1 POP JUMP JUMPDEST PUSH32 0x4E487B7100000000000000000000000000000000000000000000000000000000 PUSH1 0x0 MSTORE PUSH1 0x41 PUSH1 0x4 MSTORE PUSH1 0x24 PUSH1 0x0 REVERT JUMPDEST PUSH1 0x0 DUP2 SWAP1 POP DUP2 PUSH1 0x0 MSTORE PUSH1 0x20 PUSH1 0x0 KECCAK256 SWAP1 POP SWAP2 SWAP1 POP JUMP JUMPDEST PUSH1 0x0 PUSH1 0x20 PUSH1 0x1F DUP4 ADD DIV SWAP1 POP SWAP2 SWAP1 POP JUMP JUMPDEST PUSH1 0x0 DUP3 DUP3 SHL SWAP1 POP SWAP3 SWAP2 POP POP JUMP JUMPDEST PUSH1 0x0 PUSH1 0x8 DUP4 MUL PUSH2 0x17A4 PUSH32 0xFFFFFFFFFFFFFFFFFFFFFFFFFFFFFFFFFFFFFFFFFFFFFFFFFFFFFFFFFFFFFFFF DUP3 PUSH2 0x1767 JUMP JUMPDEST PUSH2 0x17AE DUP7 DUP4 PUSH2 0x1767 JUMP JUMPDEST SWAP6 POP DUP1 NOT DUP5 AND SWAP4 POP DUP1 DUP7 AND DUP5 OR SWAP3 POP POP POP SWAP4 SWAP3 POP POP POP JUMP JUMPDEST PUSH1 0x0 DUP2 SWAP1 POP SWAP2 SWAP1 POP JUMP JUMPDEST PUSH1 0x0 PUSH2 0x17EB PUSH2 0x17E6 PUSH2 0x17E1 DUP5 PUSH2 0x10E2 JUMP JUMPDEST PUSH2 0x17C6 JUMP JUMPDEST PUSH2 0x10E2 JUMP JUMPDEST SWAP1 POP SWAP2 SWAP1 POP JUMP JUMPDEST PUSH1 0x0 DUP2 SWAP1 POP SWAP2 SWAP1 POP JUMP JUMPDEST PUSH2 0x1805 DUP4 PUSH2 0x17D0 JUMP JUMPDEST PUSH2 0x1819 PUSH2 0x1811 DUP3 PUSH2 0x17F2 JUMP JUMPDEST DUP5 DUP5 SLOAD PUSH2 0x1774 JUMP JUMPDEST DUP3 SSTORE POP POP POP POP JUMP JUMPDEST PUSH1 0x0 SWAP1 JUMP JUMPDEST PUSH2 0x182E PUSH2 0x1821 JUMP JUMPDEST PUSH2 0x1839 DUP2 DUP5 DUP5 PUSH2 0x17FC JUMP JUMPDEST POP POP POP JUMP JUMPDEST JUMPDEST DUP2 DUP2 LT ISZERO PUSH2 0x185D JUMPI PUSH2 0x1852 PUSH1 0x0 DUP3 PUSH2 0x1826 JUMP JUMPDEST PUSH1 0x1 DUP2 ADD SWAP1 POP PUSH2 0x183F JUMP JUMPDEST POP POP JUMP JUMPDEST PUSH1 0x1F DUP3 GT ISZERO PUSH2 0x18A2 JUMPI PUSH2 0x1873 DUP2 PUSH2 0x1742 JUMP JUMPDEST PUSH2 0x187C DUP5 PUSH2 0x1757 JUMP JUMPDEST DUP2 ADD PUSH1 0x20 DUP6 LT ISZERO PUSH2 0x188B JUMPI DUP2 SWAP1 POP JUMPDEST PUSH2 0x189F PUSH2 0x1897 DUP6 PUSH2 0x1757 JUMP JUMPDEST DUP4 ADD DUP3 PUSH2 0x183E JUMP JUMPDEST POP POP JUMPDEST POP POP POP JUMP JUMPDEST PUSH1 0x0 DUP3 DUP3 SHR SWAP1 POP SWAP3 SWAP2 POP POP JUMP JUMPDEST PUSH1 0x0 PUSH2 0x18C5 PUSH1 0x0 NOT DUP5 PUSH1 0x8 MUL PUSH2 0x18A7 JUMP JUMPDEST NOT DUP1 DUP4 AND SWAP2 POP POP SWAP3 SWAP2 POP POP JUMP JUMPDEST PUSH1 0x0 PUSH2 0x18DE DUP4 DUP4 PUSH2 0x18B4 JUMP JUMPDEST SWAP2 POP DUP3 PUSH1 0x2 MUL DUP3 OR SWAP1 POP SWAP3 SWAP2 POP POP JUMP JUMPDEST PUSH2 0x18F7 DUP3 PUSH2 0x1216 JUMP JUMPDEST PUSH8 0xFFFFFFFFFFFFFFFF DUP2 GT ISZERO PUSH2 0x1910 JUMPI PUSH2 0x190F PUSH2 0x1713 JUMP JUMPDEST JUMPDEST PUSH2 0x191A DUP3 SLOAD PUSH2 0x15E1 JUMP JUMPDEST PUSH2 0x1925 DUP3 DUP3 DUP6 PUSH2 0x1861 JUMP JUMPDEST PUSH1 0x0 PUSH1 0x20 SWAP1 POP PUSH1 0x1F DUP4 GT PUSH1 0x1 DUP2 EQ PUSH2 0x1958 JUMPI PUSH1 0x0 DUP5 ISZERO PUSH2 0x1946 JUMPI DUP3 DUP8 ADD MLOAD SWAP1 POP JUMPDEST PUSH2 0x1950 DUP6 DUP3 PUSH2 0x18D2 JUMP JUMPDEST DUP7 SSTORE POP PUSH2 0x19B8 JUMP JUMPDEST PUSH1 0x1F NOT DUP5 AND PUSH2 0x1966 DUP7 PUSH2 0x1742 JUMP JUMPDEST PUSH1 0x0 JUMPDEST DUP3 DUP2 LT ISZERO PUSH2 0x198E JUMPI DUP5 DUP10 ADD MLOAD DUP3 SSTORE PUSH1 0x1 DUP3 ADD SWAP2 POP PUSH1 0x20 DUP6 ADD SWAP5 POP PUSH1 0x20 DUP2 ADD SWAP1 POP PUSH2 0x1969 JUMP JUMPDEST DUP7 DUP4 LT ISZERO PUSH2 0x19AB JUMPI DUP5 DUP10 ADD MLOAD PUSH2 0x19A7 PUSH1 0x1F DUP10 AND DUP3 PUSH2 0x18B4 JUMP JUMPDEST DUP4 SSTORE POP JUMPDEST PUSH1 0x1 PUSH1 0x2 DUP9 MUL ADD DUP9 SSTORE POP POP POP JUMPDEST POP POP POP POP POP POP JUMP JUMPDEST PUSH32 0x4E6F7420456E6F75676820417070726F76616C732E2E2E000000000000000000 PUSH1 0x0 DUP3 ADD MSTORE POP JUMP JUMPDEST PUSH1 0x0 PUSH2 0x19F6 PUSH1 0x17 DUP4 PUSH2 0x13CB JUMP JUMPDEST SWAP2 POP PUSH2 0x1A01 DUP3 PUSH2 0x19C0 JUMP JUMPDEST PUSH1 0x20 DUP3 ADD SWAP1 POP SWAP2 SWAP1 POP JUMP JUMPDEST PUSH1 0x0 PUSH1 0x20 DUP3 ADD SWAP1 POP DUP2 DUP2 SUB PUSH1 0x0 DUP4 ADD MSTORE PUSH2 0x1A25 DUP2 PUSH2 0x19E9 JUMP JUMPDEST SWAP1 POP SWAP2 SWAP1 POP JUMP JUMPDEST PUSH1 0x0 DUP2 SWAP1 POP SWAP3 SWAP2 POP POP JUMP JUMPDEST PUSH1 0x0 DUP2 SLOAD PUSH2 0x1A44 DUP2 PUSH2 0x15E1 JUMP JUMPDEST PUSH2 0x1A4E DUP2 DUP7 PUSH2 0x1A2C JUMP JUMPDEST SWAP5 POP PUSH1 0x1 DUP3 AND PUSH1 0x0 DUP2 EQ PUSH2 0x1A69 JUMPI PUSH1 0x1 DUP2 EQ PUSH2 0x1A7E JUMPI PUSH2 0x1AB1 JUMP JUMPDEST PUSH1 0xFF NOT DUP4 AND DUP7 MSTORE DUP2 ISZERO ISZERO DUP3 MUL DUP7 ADD SWAP4 POP PUSH2 0x1AB1 JUMP JUMPDEST PUSH2 0x1A87 DUP6 PUSH2 0x1742 JUMP JUMPDEST PUSH1 0x0 JUMPDEST DUP4 DUP2 LT ISZERO PUSH2 0x1AA9 JUMPI DUP2 SLOAD DUP2 DUP10 ADD MSTORE PUSH1 0x1 DUP3 ADD SWAP2 POP PUSH1 0x20 DUP2 ADD SWAP1 POP PUSH2 0x1A8A JUMP JUMPDEST DUP4 DUP9 ADD SWAP6 POP POP POP JUMPDEST POP POP POP SWAP3 SWAP2 POP POP JUMP JUMPDEST PUSH1 0x0 PUSH2 0x1AC6 DUP3 DUP5 PUSH2 0x1A37 JUMP JUMPDEST SWAP2 POP DUP2 SWAP1 POP SWAP3 SWAP2 POP POP JUMP JUMPDEST PUSH32 0x5472616E73616374696F6E20496E636F6D706C65746500000000000000000000 PUSH1 0x0 DUP3 ADD MSTORE POP JUMP JUMPDEST PUSH1 0x0 PUSH2 0x1B07 PUSH1 0x16 DUP4 PUSH2 0x13CB JUMP JUMPDEST SWAP2 POP PUSH2 0x1B12 DUP3 PUSH2 0x1AD1 JUMP JUMPDEST PUSH1 0x20 DUP3 ADD SWAP1 POP SWAP2 SWAP1 POP JUMP JUMPDEST PUSH1 0x0 PUSH1 0x20 DUP3 ADD SWAP1 POP DUP2 DUP2 SUB PUSH1 0x0 DUP4 ADD MSTORE PUSH2 0x1B36 DUP2 PUSH2 0x1AFA JUMP JUMPDEST SWAP1 POP SWAP2 SWAP1 POP JUMP JUMPDEST PUSH1 0x0 PUSH2 0x1B48 DUP3 PUSH2 0x10E2 JUMP JUMPDEST SWAP2 POP PUSH2 0x1B53 DUP4 PUSH2 0x10E2 JUMP JUMPDEST SWAP3 POP DUP3 DUP3 ADD SWAP1 POP DUP1 DUP3 GT ISZERO PUSH2 0x1B6B JUMPI PUSH2 0x1B6A PUSH2 0x1448 JUMP JUMPDEST JUMPDEST SWAP3 SWAP2 POP POP JUMP JUMPDEST PUSH1 0x0 PUSH2 0x1B7C DUP3 PUSH2 0x10E2 JUMP JUMPDEST SWAP2 POP PUSH32 0xFFFFFFFFFFFFFFFFFFFFFFFFFFFFFFFFFFFFFFFFFFFFFFFFFFFFFFFFFFFFFFFF DUP3 SUB PUSH2 0x1BAE JUMPI PUSH2 0x1BAD PUSH2 0x1448 JUMP JUMPDEST JUMPDEST PUSH1 0x1 DUP3 ADD SWAP1 POP SWAP2 SWAP1 POP JUMP INVALID LOG2 PUSH5 0x6970667358 0x22 SLT KECCAK256 EXTCODESIZE SMOD 0xAF SIGNEXTEND 0xF7 0xB4 LT SWAP1 INVALID 0xEA CHAINID LOG4 0xE5 NUMBER 0xAF SWAP6 PUSH32 0x60C02C4DB93DF67F48B37BEAED7BA064736F6C63430008100033000000000000 "
				},
				"gasEstimates": {
					"creation": {
						"codeDepositCost": "1430200",
						"executionCost": "infinite",
						"totalCost": "infinite"
					},
					"external": {
						"approveTransaction(uint256)": "infinite",
						"executeTransaction(uint256)": "infinite",
						"isOwner(address)": "2845",
						"makeTransaction(address,uint256,bytes)": "infinite",
						"revokeApproval(uint256)": "infinite",
						"transactions(uint256)": "infinite"
					},
					"internal": {
						"canExec(uint256)": "infinite"
					}
				},
				"methodIdentifiers": {
					"approveTransaction(uint256)": "242232d1",
					"executeTransaction(uint256)": "ee22610b",
					"isOwner(address)": "2f54bf6e",
					"makeTransaction(address,uint256,bytes)": "c0c64a49",
					"revokeApproval(uint256)": "b1e130fc",
					"transactions(uint256)": "9ace38c2"
				}
			},
			"storageLayout": {
				"storage": [
					{
						"astId": 22,
						"contract": "contracts/MultiSigWallet.sol:MultiSigWallet",
						"label": "owners",
						"offset": 0,
						"slot": "0",
						"type": "t_array(t_address)dyn_storage"
					},
					{
						"astId": 26,
						"contract": "contracts/MultiSigWallet.sol:MultiSigWallet",
						"label": "isOwner",
						"offset": 0,
						"slot": "1",
						"type": "t_mapping(t_address,t_bool)"
					},
					{
						"astId": 28,
						"contract": "contracts/MultiSigWallet.sol:MultiSigWallet",
						"label": "required",
						"offset": 0,
						"slot": "2",
						"type": "t_uint256"
					},
					{
						"astId": 34,
						"contract": "contracts/MultiSigWallet.sol:MultiSigWallet",
						"label": "approval",
						"offset": 0,
						"slot": "3",
						"type": "t_mapping(t_uint256,t_mapping(t_address,t_bool))"
					},
					{
						"astId": 47,
						"contract": "contracts/MultiSigWallet.sol:MultiSigWallet",
						"label": "transactions",
						"offset": 0,
						"slot": "4",
						"type": "t_array(t_struct(Transaction)43_storage)dyn_storage"
					}
				],
				"types": {
					"t_address": {
						"encoding": "inplace",
						"label": "address",
						"numberOfBytes": "20"
					},
					"t_array(t_address)dyn_storage": {
						"base": "t_address",
						"encoding": "dynamic_array",
						"label": "address[]",
						"numberOfBytes": "32"
					},
					"t_array(t_struct(Transaction)43_storage)dyn_storage": {
						"base": "t_struct(Transaction)43_storage",
						"encoding": "dynamic_array",
						"label": "struct MultiSigWallet.Transaction[]",
						"numberOfBytes": "32"
					},
					"t_bool": {
						"encoding": "inplace",
						"label": "bool",
						"numberOfBytes": "1"
					},
					"t_bytes_storage": {
						"encoding": "bytes",
						"label": "bytes",
						"numberOfBytes": "32"
					},
					"t_mapping(t_address,t_bool)": {
						"encoding": "mapping",
						"key": "t_address",
						"label": "mapping(address => bool)",
						"numberOfBytes": "32",
						"value": "t_bool"
					},
					"t_mapping(t_uint256,t_mapping(t_address,t_bool))": {
						"encoding": "mapping",
						"key": "t_uint256",
						"label": "mapping(uint256 => mapping(address => bool))",
						"numberOfBytes": "32",
						"value": "t_mapping(t_address,t_bool)"
					},
					"t_struct(Transaction)43_storage": {
						"encoding": "inplace",
						"label": "struct MultiSigWallet.Transaction",
						"members": [
							{
								"astId": 36,
								"contract": "contracts/MultiSigWallet.sol:MultiSigWallet",
								"label": "to",
								"offset": 0,
								"slot": "0",
								"type": "t_address"
							},
							{
								"astId": 38,
								"contract": "contracts/MultiSigWallet.sol:MultiSigWallet",
								"label": "value",
								"offset": 0,
								"slot": "1",
								"type": "t_uint256"
							},
							{
								"astId": 40,
								"contract": "contracts/MultiSigWallet.sol:MultiSigWallet",
								"label": "executed",
								"offset": 0,
								"slot": "2",
								"type": "t_bool"
							},
							{
								"astId": 42,
								"contract": "contracts/MultiSigWallet.sol:MultiSigWallet",
								"label": "data",
								"offset": 0,
								"slot": "3",
								"type": "t_bytes_storage"
							}
						],
						"numberOfBytes": "128"
					},
					"t_uint256": {
						"encoding": "inplace",
						"label": "uint256",
						"numberOfBytes": "32"
					}
				}
			},
			"userdoc": {
				"kind": "user",
				"methods": {},
				"version": 1
			}
		}
	}
}