{
	"contracts/Ownable.sol": {
		"Ownable": {
			"abi": [
				{
					"inputs": [],
					"stateMutability": "payable",
					"type": "constructor"
				},
				{
					"inputs": [],
					"name": "_owner",
					"outputs": [
						{
							"internalType": "address",
							"name": "",
							"type": "address"
						}
					],
					"stateMutability": "view",
					"type": "function"
				},
				{
					"inputs": [],
					"name": "checkBalance",
					"outputs": [],
					"stateMutability": "view",
					"type": "function"
				}
			],
			"devdoc": {
				"kind": "dev",
				"methods": {},
				"version": 1
			},
			"evm": {
				"assembly": "    /* \"contracts/Ownable.sol\":66:410  contract Ownable {\r... */\n  mstore(0x40, 0x80)\n    /* \"contracts/Ownable.sol\":164:174  msg.sender */\n  caller\n    /* \"contracts/Ownable.sol\":155:161  _owner */\n  0x00\n  dup1\n    /* \"contracts/Ownable.sol\":155:174  _owner = msg.sender */\n  0x0100\n  exp\n  dup2\n  sload\n  dup2\n  0xffffffffffffffffffffffffffffffffffffffff\n  mul\n  not\n  and\n  swap1\n  dup4\n  0xffffffffffffffffffffffffffffffffffffffff\n  and\n  mul\n  or\n  swap1\n  sstore\n  pop\n    /* \"contracts/Ownable.sol\":66:410  contract Ownable {\r... */\n  dataSize(sub_0)\n  dup1\n  dataOffset(sub_0)\n  0x00\n  codecopy\n  0x00\n  return\nstop\n\nsub_0: assembly {\n        /* \"contracts/Ownable.sol\":66:410  contract Ownable {\r... */\n      mstore(0x40, 0x80)\n      callvalue\n      dup1\n      iszero\n      tag_1\n      jumpi\n      0x00\n      dup1\n      revert\n    tag_1:\n      pop\n      jumpi(tag_2, lt(calldatasize, 0x04))\n      shr(0xe0, calldataload(0x00))\n      dup1\n      0xb2bdfa7b\n      eq\n      tag_3\n      jumpi\n      dup1\n      0xc71daccb\n      eq\n      tag_4\n      jumpi\n    tag_2:\n      0x00\n      dup1\n      revert\n        /* \"contracts/Ownable.sol\":92:113  address public _owner */\n    tag_3:\n      tag_5\n      tag_6\n      jump\t// in\n    tag_5:\n      mload(0x40)\n      tag_7\n      swap2\n      swap1\n      tag_8\n      jump\t// in\n    tag_7:\n      mload(0x40)\n      dup1\n      swap2\n      sub\n      swap1\n      return\n        /* \"contracts/Ownable.sol\":344:407  function checkBalance() view public isOwner{\r... */\n    tag_4:\n      tag_9\n      tag_10\n      jump\t// in\n    tag_9:\n      stop\n        /* \"contracts/Ownable.sol\":92:113  address public _owner */\n    tag_6:\n      0x00\n      dup1\n      sload\n      swap1\n      0x0100\n      exp\n      swap1\n      div\n      0xffffffffffffffffffffffffffffffffffffffff\n      and\n      dup2\n      jump\t// out\n        /* \"contracts/Ownable.sol\":344:407  function checkBalance() view public isOwner{\r... */\n    tag_10:\n        /* \"contracts/Ownable.sol\":240:246  _owner */\n      0x00\n      dup1\n      sload\n      swap1\n      0x0100\n      exp\n      swap1\n      div\n      0xffffffffffffffffffffffffffffffffffffffff\n      and\n        /* \"contracts/Ownable.sol\":226:246  msg.sender != _owner */\n      0xffffffffffffffffffffffffffffffffffffffff\n      and\n        /* \"contracts/Ownable.sol\":226:236  msg.sender */\n      caller\n        /* \"contracts/Ownable.sol\":226:246  msg.sender != _owner */\n      0xffffffffffffffffffffffffffffffffffffffff\n      and\n      eq\n        /* \"contracts/Ownable.sol\":223:317  if(msg.sender != _owner){\r... */\n      tag_12\n      jumpi\n        /* \"contracts/Ownable.sol\":262:305  revert(\"Only Owner can call this function\") */\n      mload(0x40)\n      0x08c379a000000000000000000000000000000000000000000000000000000000\n      dup2\n      mstore\n      0x04\n      add\n      tag_13\n      swap1\n      tag_14\n      jump\t// in\n    tag_13:\n      mload(0x40)\n      dup1\n      swap2\n      sub\n      swap1\n      revert\n        /* \"contracts/Ownable.sol\":223:317  if(msg.sender != _owner){\r... */\n    tag_12:\n        /* \"contracts/Ownable.sol\":344:407  function checkBalance() view public isOwner{\r... */\n      jump\t// out\n        /* \"#utility.yul\":7:125   */\n    tag_17:\n        /* \"#utility.yul\":94:118   */\n      tag_19\n        /* \"#utility.yul\":112:117   */\n      dup2\n        /* \"#utility.yul\":94:118   */\n      tag_20\n      jump\t// in\n    tag_19:\n        /* \"#utility.yul\":89:92   */\n      dup3\n        /* \"#utility.yul\":82:119   */\n      mstore\n        /* \"#utility.yul\":7:125   */\n      pop\n      pop\n      jump\t// out\n        /* \"#utility.yul\":131:497   */\n    tag_21:\n        /* \"#utility.yul\":273:276   */\n      0x00\n        /* \"#utility.yul\":294:361   */\n      tag_23\n        /* \"#utility.yul\":358:360   */\n      0x21\n        /* \"#utility.yul\":353:356   */\n      dup4\n        /* \"#utility.yul\":294:361   */\n      tag_24\n      jump\t// in\n    tag_23:\n        /* \"#utility.yul\":287:361   */\n      swap2\n      pop\n        /* \"#utility.yul\":370:463   */\n      tag_25\n        /* \"#utility.yul\":459:462   */\n      dup3\n        /* \"#utility.yul\":370:463   */\n      tag_26\n      jump\t// in\n    tag_25:\n        /* \"#utility.yul\":488:490   */\n      0x40\n        /* \"#utility.yul\":483:486   */\n      dup3\n        /* \"#utility.yul\":479:491   */\n      add\n        /* \"#utility.yul\":472:491   */\n      swap1\n      pop\n        /* \"#utility.yul\":131:497   */\n      swap2\n      swap1\n      pop\n      jump\t// out\n        /* \"#utility.yul\":503:725   */\n    tag_8:\n        /* \"#utility.yul\":596:600   */\n      0x00\n        /* \"#utility.yul\":634:636   */\n      0x20\n        /* \"#utility.yul\":623:632   */\n      dup3\n        /* \"#utility.yul\":619:637   */\n      add\n        /* \"#utility.yul\":611:637   */\n      swap1\n      pop\n        /* \"#utility.yul\":647:718   */\n      tag_28\n        /* \"#utility.yul\":715:716   */\n      0x00\n        /* \"#utility.yul\":704:713   */\n      dup4\n        /* \"#utility.yul\":700:717   */\n      add\n        /* \"#utility.yul\":691:697   */\n      dup5\n        /* \"#utility.yul\":647:718   */\n      tag_17\n      jump\t// in\n    tag_28:\n        /* \"#utility.yul\":503:725   */\n      swap3\n      swap2\n      pop\n      pop\n      jump\t// out\n        /* \"#utility.yul\":731:1150   */\n    tag_14:\n        /* \"#utility.yul\":897:901   */\n      0x00\n        /* \"#utility.yul\":935:937   */\n      0x20\n        /* \"#utility.yul\":924:933   */\n      dup3\n        /* \"#utility.yul\":920:938   */\n      add\n        /* \"#utility.yul\":912:938   */\n      swap1\n      pop\n        /* \"#utility.yul\":984:993   */\n      dup2\n        /* \"#utility.yul\":978:982   */\n      dup2\n        /* \"#utility.yul\":974:994   */\n      sub\n        /* \"#utility.yul\":970:971   */\n      0x00\n        /* \"#utility.yul\":959:968   */\n      dup4\n        /* \"#utility.yul\":955:972   */\n      add\n        /* \"#utility.yul\":948:995   */\n      mstore\n        /* \"#utility.yul\":1012:1143   */\n      tag_30\n        /* \"#utility.yul\":1138:1142   */\n      dup2\n        /* \"#utility.yul\":1012:1143   */\n      tag_21\n      jump\t// in\n    tag_30:\n        /* \"#utility.yul\":1004:1143   */\n      swap1\n      pop\n        /* \"#utility.yul\":731:1150   */\n      swap2\n      swap1\n      pop\n      jump\t// out\n        /* \"#utility.yul\":1156:1325   */\n    tag_24:\n        /* \"#utility.yul\":1240:1251   */\n      0x00\n        /* \"#utility.yul\":1274:1280   */\n      dup3\n        /* \"#utility.yul\":1269:1272   */\n      dup3\n        /* \"#utility.yul\":1262:1281   */\n      mstore\n        /* \"#utility.yul\":1314:1318   */\n      0x20\n        /* \"#utility.yul\":1309:1312   */\n      dup3\n        /* \"#utility.yul\":1305:1319   */\n      add\n        /* \"#utility.yul\":1290:1319   */\n      swap1\n      pop\n        /* \"#utility.yul\":1156:1325   */\n      swap3\n      swap2\n      pop\n      pop\n      jump\t// out\n        /* \"#utility.yul\":1331:1427   */\n    tag_20:\n        /* \"#utility.yul\":1368:1375   */\n      0x00\n        /* \"#utility.yul\":1397:1421   */\n      tag_33\n        /* \"#utility.yul\":1415:1420   */\n      dup3\n        /* \"#utility.yul\":1397:1421   */\n      tag_34\n      jump\t// in\n    tag_33:\n        /* \"#utility.yul\":1386:1421   */\n      swap1\n      pop\n        /* \"#utility.yul\":1331:1427   */\n      swap2\n      swap1\n      pop\n      jump\t// out\n        /* \"#utility.yul\":1433:1559   */\n    tag_34:\n        /* \"#utility.yul\":1470:1477   */\n      0x00\n        /* \"#utility.yul\":1510:1552   */\n      0xffffffffffffffffffffffffffffffffffffffff\n        /* \"#utility.yul\":1503:1508   */\n      dup3\n        /* \"#utility.yul\":1499:1553   */\n      and\n        /* \"#utility.yul\":1488:1553   */\n      swap1\n      pop\n        /* \"#utility.yul\":1433:1559   */\n      swap2\n      swap1\n      pop\n      jump\t// out\n        /* \"#utility.yul\":1565:1785   */\n    tag_26:\n        /* \"#utility.yul\":1705:1739   */\n      0x4f6e6c79204f776e65722063616e2063616c6c20746869732066756e6374696f\n        /* \"#utility.yul\":1701:1702   */\n      0x00\n        /* \"#utility.yul\":1693:1699   */\n      dup3\n        /* \"#utility.yul\":1689:1703   */\n      add\n        /* \"#utility.yul\":1682:1740   */\n      mstore\n        /* \"#utility.yul\":1774:1777   */\n      0x6e00000000000000000000000000000000000000000000000000000000000000\n        /* \"#utility.yul\":1769:1771   */\n      0x20\n        /* \"#utility.yul\":1761:1767   */\n      dup3\n        /* \"#utility.yul\":1757:1772   */\n      add\n        /* \"#utility.yul\":1750:1778   */\n      mstore\n        /* \"#utility.yul\":1565:1785   */\n      pop\n      jump\t// out\n\n    auxdata: 0xa26469706673582212202da17e0ce7760feb8be06a88845d103f9f882239a91b2a7264b2d1f0191b3b5364736f6c63430008070033\n}\n",
				"bytecode": {
					"linkReferences": {},
					"object": "6080604052336000806101000a81548173ffffffffffffffffffffffffffffffffffffffff021916908373ffffffffffffffffffffffffffffffffffffffff16021790555061024c806100536000396000f3fe608060405234801561001057600080fd5b50600436106100365760003560e01c8063b2bdfa7b1461003b578063c71daccb14610059575b600080fd5b610043610063565b6040516100509190610149565b60405180910390f35b610061610087565b005b60008054906101000a900473ffffffffffffffffffffffffffffffffffffffff1681565b60008054906101000a900473ffffffffffffffffffffffffffffffffffffffff1673ffffffffffffffffffffffffffffffffffffffff163373ffffffffffffffffffffffffffffffffffffffff1614610115576040517f08c379a000000000000000000000000000000000000000000000000000000000815260040161010c90610164565b60405180910390fd5b565b61012081610195565b82525050565b6000610133602183610184565b915061013e826101c7565b604082019050919050565b600060208201905061015e6000830184610117565b92915050565b6000602082019050818103600083015261017d81610126565b9050919050565b600082825260208201905092915050565b60006101a0826101a7565b9050919050565b600073ffffffffffffffffffffffffffffffffffffffff82169050919050565b7f4f6e6c79204f776e65722063616e2063616c6c20746869732066756e6374696f60008201527f6e0000000000000000000000000000000000000000000000000000000000000060208201525056fea26469706673582212202da17e0ce7760feb8be06a88845d103f9f882239a91b2a7264b2d1f0191b3b5364736f6c63430008070033",
					"opcodes": "PUSH1 0x80 PUSH1 0x40 MSTORE CALLER PUSH1 0x0 DUP1 PUSH2 0x100 EXP DUP2 SLOAD DUP2 PUSH20 0xFFFFFFFFFFFFFFFFFFFFFFFFFFFFFFFFFFFFFFFF MUL NOT AND SWAP1 DUP4 PUSH20 0xFFFFFFFFFFFFFFFFFFFFFFFFFFFFFFFFFFFFFFFF AND MUL OR SWAP1 SSTORE POP PUSH2 0x24C DUP1 PUSH2 0x53 PUSH1 0x0 CODECOPY PUSH1 0x0 RETURN INVALID PUSH1 0x80 PUSH1 0x40 MSTORE CALLVALUE DUP1 ISZERO PUSH2 0x10 JUMPI PUSH1 0x0 DUP1 REVERT JUMPDEST POP PUSH1 0x4 CALLDATASIZE LT PUSH2 0x36 JUMPI PUSH1 0x0 CALLDATALOAD PUSH1 0xE0 SHR DUP1 PUSH4 0xB2BDFA7B EQ PUSH2 0x3B JUMPI DUP1 PUSH4 0xC71DACCB EQ PUSH2 0x59 JUMPI JUMPDEST PUSH1 0x0 DUP1 REVERT JUMPDEST PUSH2 0x43 PUSH2 0x63 JUMP JUMPDEST PUSH1 0x40 MLOAD PUSH2 0x50 SWAP2 SWAP1 PUSH2 0x149 JUMP JUMPDEST PUSH1 0x40 MLOAD DUP1 SWAP2 SUB SWAP1 RETURN JUMPDEST PUSH2 0x61 PUSH2 0x87 JUMP JUMPDEST STOP JUMPDEST PUSH1 0x0 DUP1 SLOAD SWAP1 PUSH2 0x100 EXP SWAP1 DIV PUSH20 0xFFFFFFFFFFFFFFFFFFFFFFFFFFFFFFFFFFFFFFFF AND DUP2 JUMP JUMPDEST PUSH1 0x0 DUP1 SLOAD SWAP1 PUSH2 0x100 EXP SWAP1 DIV PUSH20 0xFFFFFFFFFFFFFFFFFFFFFFFFFFFFFFFFFFFFFFFF AND PUSH20 0xFFFFFFFFFFFFFFFFFFFFFFFFFFFFFFFFFFFFFFFF AND CALLER PUSH20 0xFFFFFFFFFFFFFFFFFFFFFFFFFFFFFFFFFFFFFFFF AND EQ PUSH2 0x115 JUMPI PUSH1 0x40 MLOAD PUSH32 0x8C379A000000000000000000000000000000000000000000000000000000000 DUP2 MSTORE PUSH1 0x4 ADD PUSH2 0x10C SWAP1 PUSH2 0x164 JUMP JUMPDEST PUSH1 0x40 MLOAD DUP1 SWAP2 SUB SWAP1 REVERT JUMPDEST JUMP JUMPDEST PUSH2 0x120 DUP2 PUSH2 0x195 JUMP JUMPDEST DUP3 MSTORE POP POP JUMP JUMPDEST PUSH1 0x0 PUSH2 0x133 PUSH1 0x21 DUP4 PUSH2 0x184 JUMP JUMPDEST SWAP2 POP PUSH2 0x13E DUP3 PUSH2 0x1C7 JUMP JUMPDEST PUSH1 0x40 DUP3 ADD SWAP1 POP SWAP2 SWAP1 POP JUMP JUMPDEST PUSH1 0x0 PUSH1 0x20 DUP3 ADD SWAP1 POP PUSH2 0x15E PUSH1 0x0 DUP4 ADD DUP5 PUSH2 0x117 JUMP JUMPDEST SWAP3 SWAP2 POP POP JUMP JUMPDEST PUSH1 0x0 PUSH1 0x20 DUP3 ADD SWAP1 POP DUP2 DUP2 SUB PUSH1 0x0 DUP4 ADD MSTORE PUSH2 0x17D DUP2 PUSH2 0x126 JUMP JUMPDEST SWAP1 POP SWAP2 SWAP1 POP JUMP JUMPDEST PUSH1 0x0 DUP3 DUP3 MSTORE PUSH1 0x20 DUP3 ADD SWAP1 POP SWAP3 SWAP2 POP POP JUMP JUMPDEST PUSH1 0x0 PUSH2 0x1A0 DUP3 PUSH2 0x1A7 JUMP JUMPDEST SWAP1 POP SWAP2 SWAP1 POP JUMP JUMPDEST PUSH1 0x0 PUSH20 0xFFFFFFFFFFFFFFFFFFFFFFFFFFFFFFFFFFFFFFFF DUP3 AND SWAP1 POP SWAP2 SWAP1 POP JUMP JUMPDEST PUSH32 0x4F6E6C79204F776E65722063616E2063616C6C20746869732066756E6374696F PUSH1 0x0 DUP3 ADD MSTORE PUSH32 0x6E00000000000000000000000000000000000000000000000000000000000000 PUSH1 0x20 DUP3 ADD MSTORE POP JUMP INVALID LOG2 PUSH5 0x6970667358 0x22 SLT KECCAK256 0x2D LOG1 PUSH31 0xCE7760FEB8BE06A88845D103F9F882239A91B2A7264B2D1F0191B3B536473 PUSH16 0x6C634300080700330000000000000000 "
				},
				"gasEstimates": {
					"creation": {
						"codeDepositCost": "117600",
						"executionCost": "24407",
						"totalCost": "142007"
					},
					"external": {
						"_owner()": "2489",
						"checkBalance()": "2618"
					}
				},
				"methodIdentifiers": {
					"_owner()": "b2bdfa7b",
					"checkBalance()": "c71daccb"
				}
			},
			"storageLayout": {
				"storage": [
					{
						"astId": 3,
						"contract": "contracts/Ownable.sol:Ownable",
						"label": "_owner",
						"offset": 0,
						"slot": "0",
						"type": "t_address"
					}
				],
				"types": {
					"t_address": {
						"encoding": "inplace",
						"label": "address",
						"numberOfBytes": "20"
					}
				}
			},
			"userdoc": {
				"kind": "user",
				"methods": {},
				"version": 1
			}
		}
	}
}