{
	"contracts/3_Ballot.sol": {
		"SendEther": {
			"abi": [
				{
					"inputs": [],
					"stateMutability": "payable",
					"type": "constructor"
				},
				{
					"inputs": [
						{
							"internalType": "address payable",
							"name": "_to",
							"type": "address"
						}
					],
					"name": "sendViaCall",
					"outputs": [],
					"stateMutability": "payable",
					"type": "function"
				},
				{
					"inputs": [
						{
							"internalType": "address payable",
							"name": "_to",
							"type": "address"
						}
					],
					"name": "sendViaSend",
					"outputs": [],
					"stateMutability": "payable",
					"type": "function"
				},
				{
					"inputs": [
						{
							"internalType": "address payable",
							"name": "_to",
							"type": "address"
						}
					],
					"name": "sendViaTransfer",
					"outputs": [],
					"stateMutability": "payable",
					"type": "function"
				},
				{
					"stateMutability": "payable",
					"type": "receive"
				}
			],
			"devdoc": {
				"kind": "dev",
				"methods": {},
				"version": 1
			},
			"evm": {
				"assembly": "    /* \"contracts/3_Ballot.sol\":75:492  contract SendEther{... */\n  mstore(0x40, 0x80)\n  dataSize(sub_0)\n  dup1\n  dataOffset(sub_0)\n  0x00\n  codecopy\n  0x00\n  return\nstop\n\nsub_0: assembly {\n        /* \"contracts/3_Ballot.sol\":75:492  contract SendEther{... */\n      mstore(0x40, 0x80)\n      jumpi(tag_1, lt(calldatasize, 0x04))\n      shr(0xe0, calldataload(0x00))\n      dup1\n      0x636e082b\n      eq\n      tag_3\n      jumpi\n      dup1\n      0x74be4806\n      eq\n      tag_4\n      jumpi\n      dup1\n      0x830c29ae\n      eq\n      tag_5\n      jumpi\n      jump(tag_2)\n    tag_1:\n      jumpi(tag_2, calldatasize)\n      stop\n    tag_2:\n      0x00\n      dup1\n      revert\n        /* \"contracts/3_Ballot.sol\":184:282  function sendViaTransfer(address payable _to) external payable{... */\n    tag_3:\n      tag_8\n      0x04\n      dup1\n      calldatasize\n      sub\n      dup2\n      add\n      swap1\n      tag_9\n      swap2\n      swap1\n      tag_10\n      jump\t// in\n    tag_9:\n      tag_11\n      jump\t// in\n    tag_8:\n      stop\n        /* \"contracts/3_Ballot.sol\":289:379  function sendViaSend(address payable _to) external payable{... */\n    tag_4:\n      tag_12\n      0x04\n      dup1\n      calldatasize\n      sub\n      dup2\n      add\n      swap1\n      tag_13\n      swap2\n      swap1\n      tag_10\n      jump\t// in\n    tag_13:\n      tag_14\n      jump\t// in\n    tag_12:\n      stop\n        /* \"contracts/3_Ballot.sol\":392:486  function sendViaCall(address payable _to) external payable{... */\n    tag_5:\n      tag_15\n      0x04\n      dup1\n      calldatasize\n      sub\n      dup2\n      add\n      swap1\n      tag_16\n      swap2\n      swap1\n      tag_10\n      jump\t// in\n    tag_16:\n      tag_17\n      jump\t// in\n    tag_15:\n      stop\n        /* \"contracts/3_Ballot.sol\":184:282  function sendViaTransfer(address payable _to) external payable{... */\n    tag_11:\n        /* \"contracts/3_Ballot.sol\":257:260  _to */\n      dup1\n        /* \"contracts/3_Ballot.sol\":257:269  _to.transfer */\n      0xffffffffffffffffffffffffffffffffffffffff\n      and\n        /* \"contracts/3_Ballot.sol\":257:274  _to.transfer(123) */\n      0x08fc\n        /* \"contracts/3_Ballot.sol\":270:273  123 */\n      0x7b\n        /* \"contracts/3_Ballot.sol\":257:274  _to.transfer(123) */\n      swap1\n      dup2\n      iszero\n      mul\n      swap1\n      mload(0x40)\n      0x00\n      mload(0x40)\n      dup1\n      dup4\n      sub\n      dup2\n      dup6\n      dup9\n      dup9\n      call\n      swap4\n      pop\n      pop\n      pop\n      pop\n      iszero\n      dup1\n      iszero\n      tag_20\n      jumpi\n      returndatasize\n      0x00\n      dup1\n      returndatacopy\n      revert(0x00, returndatasize)\n    tag_20:\n      pop\n        /* \"contracts/3_Ballot.sol\":184:282  function sendViaTransfer(address payable _to) external payable{... */\n      pop\n      jump\t// out\n        /* \"contracts/3_Ballot.sol\":289:379  function sendViaSend(address payable _to) external payable{... */\n    tag_14:\n        /* \"contracts/3_Ballot.sol\":358:361  _to */\n      dup1\n        /* \"contracts/3_Ballot.sol\":358:366  _to.send */\n      0xffffffffffffffffffffffffffffffffffffffff\n      and\n        /* \"contracts/3_Ballot.sol\":358:371  _to.send(123) */\n      0x08fc\n        /* \"contracts/3_Ballot.sol\":367:370  123 */\n      0x7b\n        /* \"contracts/3_Ballot.sol\":358:371  _to.send(123) */\n      swap1\n      dup2\n      iszero\n      mul\n      swap1\n      mload(0x40)\n      0x00\n      mload(0x40)\n      dup1\n      dup4\n      sub\n      dup2\n      dup6\n      dup9\n      dup9\n      call\n      swap4\n      pop\n      pop\n      pop\n      pop\n      pop\n        /* \"contracts/3_Ballot.sol\":289:379  function sendViaSend(address payable _to) external payable{... */\n      pop\n      jump\t// out\n        /* \"contracts/3_Ballot.sol\":392:486  function sendViaCall(address payable _to) external payable{... */\n    tag_17:\n      pop\n      jump\t// out\n        /* \"#utility.yul\":7:162   */\n    tag_25:\n      0x00\n        /* \"#utility.yul\":99:105   */\n      dup2\n        /* \"#utility.yul\":86:106   */\n      calldataload\n        /* \"#utility.yul\":77:106   */\n      swap1\n      pop\n        /* \"#utility.yul\":115:156   */\n      tag_27\n        /* \"#utility.yul\":150:155   */\n      dup2\n        /* \"#utility.yul\":115:156   */\n      tag_28\n      jump\t// in\n    tag_27:\n        /* \"#utility.yul\":67:162   */\n      swap3\n      swap2\n      pop\n      pop\n      jump\t// out\n        /* \"#utility.yul\":168:446   */\n    tag_10:\n      0x00\n        /* \"#utility.yul\":284:286   */\n      0x20\n        /* \"#utility.yul\":272:281   */\n      dup3\n        /* \"#utility.yul\":263:270   */\n      dup5\n        /* \"#utility.yul\":259:282   */\n      sub\n        /* \"#utility.yul\":255:287   */\n      slt\n        /* \"#utility.yul\":252:254   */\n      iszero\n      tag_30\n      jumpi\n        /* \"#utility.yul\":300:301   */\n      0x00\n        /* \"#utility.yul\":297:298   */\n      dup1\n        /* \"#utility.yul\":290:302   */\n      revert\n        /* \"#utility.yul\":252:254   */\n    tag_30:\n        /* \"#utility.yul\":343:344   */\n      0x00\n        /* \"#utility.yul\":368:429   */\n      tag_31\n        /* \"#utility.yul\":421:428   */\n      dup5\n        /* \"#utility.yul\":412:418   */\n      dup3\n        /* \"#utility.yul\":401:410   */\n      dup6\n        /* \"#utility.yul\":397:419   */\n      add\n        /* \"#utility.yul\":368:429   */\n      tag_25\n      jump\t// in\n    tag_31:\n        /* \"#utility.yul\":358:429   */\n      swap2\n      pop\n        /* \"#utility.yul\":314:439   */\n      pop\n        /* \"#utility.yul\":242:446   */\n      swap3\n      swap2\n      pop\n      pop\n      jump\t// out\n        /* \"#utility.yul\":452:556   */\n    tag_32:\n      0x00\n        /* \"#utility.yul\":526:550   */\n      tag_34\n        /* \"#utility.yul\":544:549   */\n      dup3\n        /* \"#utility.yul\":526:550   */\n      tag_35\n      jump\t// in\n    tag_34:\n        /* \"#utility.yul\":515:550   */\n      swap1\n      pop\n        /* \"#utility.yul\":505:556   */\n      swap2\n      swap1\n      pop\n      jump\t// out\n        /* \"#utility.yul\":562:688   */\n    tag_35:\n      0x00\n        /* \"#utility.yul\":639:681   */\n      0xffffffffffffffffffffffffffffffffffffffff\n        /* \"#utility.yul\":632:637   */\n      dup3\n        /* \"#utility.yul\":628:682   */\n      and\n        /* \"#utility.yul\":617:682   */\n      swap1\n      pop\n        /* \"#utility.yul\":607:688   */\n      swap2\n      swap1\n      pop\n      jump\t// out\n        /* \"#utility.yul\":694:832   */\n    tag_28:\n        /* \"#utility.yul\":775:807   */\n      tag_38\n        /* \"#utility.yul\":801:806   */\n      dup2\n        /* \"#utility.yul\":775:807   */\n      tag_32\n      jump\t// in\n    tag_38:\n        /* \"#utility.yul\":768:773   */\n      dup2\n        /* \"#utility.yul\":765:808   */\n      eq\n        /* \"#utility.yul\":755:757   */\n      tag_39\n      jumpi\n        /* \"#utility.yul\":822:823   */\n      0x00\n        /* \"#utility.yul\":819:820   */\n      dup1\n        /* \"#utility.yul\":812:824   */\n      revert\n        /* \"#utility.yul\":755:757   */\n    tag_39:\n        /* \"#utility.yul\":745:832   */\n      pop\n      jump\t// out\n\n    auxdata: 0xa264697066735822122036fc2fdd646864766497af91d10ae478109cb0ddd72e93f1156f7c9e095101c764736f6c63430008000033\n}\n",
				"bytecode": {
					"linkReferences": {},
					"object": "60806040526101dd806100136000396000f3fe6080604052600436106100385760003560e01c8063636e082b1461004457806374be480614610060578063830c29ae1461007c5761003f565b3661003f57005b600080fd5b61005e60048036038101906100599190610135565b610098565b005b61007a60048036038101906100759190610135565b6100e3565b005b61009660048036038101906100919190610135565b61011d565b005b8073ffffffffffffffffffffffffffffffffffffffff166108fc607b9081150290604051600060405180830381858888f193505050501580156100df573d6000803e3d6000fd5b5050565b8073ffffffffffffffffffffffffffffffffffffffff166108fc607b9081150290604051600060405180830381858888f193505050505050565b50565b60008135905061012f81610190565b92915050565b60006020828403121561014757600080fd5b600061015584828501610120565b91505092915050565b600061016982610170565b9050919050565b600073ffffffffffffffffffffffffffffffffffffffff82169050919050565b6101998161015e565b81146101a457600080fd5b5056fea264697066735822122036fc2fdd646864766497af91d10ae478109cb0ddd72e93f1156f7c9e095101c764736f6c63430008000033",
					"opcodes": "PUSH1 0x80 PUSH1 0x40 MSTORE PUSH2 0x1DD DUP1 PUSH2 0x13 PUSH1 0x0 CODECOPY PUSH1 0x0 RETURN INVALID PUSH1 0x80 PUSH1 0x40 MSTORE PUSH1 0x4 CALLDATASIZE LT PUSH2 0x38 JUMPI PUSH1 0x0 CALLDATALOAD PUSH1 0xE0 SHR DUP1 PUSH4 0x636E082B EQ PUSH2 0x44 JUMPI DUP1 PUSH4 0x74BE4806 EQ PUSH2 0x60 JUMPI DUP1 PUSH4 0x830C29AE EQ PUSH2 0x7C JUMPI PUSH2 0x3F JUMP JUMPDEST CALLDATASIZE PUSH2 0x3F JUMPI STOP JUMPDEST PUSH1 0x0 DUP1 REVERT JUMPDEST PUSH2 0x5E PUSH1 0x4 DUP1 CALLDATASIZE SUB DUP2 ADD SWAP1 PUSH2 0x59 SWAP2 SWAP1 PUSH2 0x135 JUMP JUMPDEST PUSH2 0x98 JUMP JUMPDEST STOP JUMPDEST PUSH2 0x7A PUSH1 0x4 DUP1 CALLDATASIZE SUB DUP2 ADD SWAP1 PUSH2 0x75 SWAP2 SWAP1 PUSH2 0x135 JUMP JUMPDEST PUSH2 0xE3 JUMP JUMPDEST STOP JUMPDEST PUSH2 0x96 PUSH1 0x4 DUP1 CALLDATASIZE SUB DUP2 ADD SWAP1 PUSH2 0x91 SWAP2 SWAP1 PUSH2 0x135 JUMP JUMPDEST PUSH2 0x11D JUMP JUMPDEST STOP JUMPDEST DUP1 PUSH20 0xFFFFFFFFFFFFFFFFFFFFFFFFFFFFFFFFFFFFFFFF AND PUSH2 0x8FC PUSH1 0x7B SWAP1 DUP2 ISZERO MUL SWAP1 PUSH1 0x40 MLOAD PUSH1 0x0 PUSH1 0x40 MLOAD DUP1 DUP4 SUB DUP2 DUP6 DUP9 DUP9 CALL SWAP4 POP POP POP POP ISZERO DUP1 ISZERO PUSH2 0xDF JUMPI RETURNDATASIZE PUSH1 0x0 DUP1 RETURNDATACOPY RETURNDATASIZE PUSH1 0x0 REVERT JUMPDEST POP POP JUMP JUMPDEST DUP1 PUSH20 0xFFFFFFFFFFFFFFFFFFFFFFFFFFFFFFFFFFFFFFFF AND PUSH2 0x8FC PUSH1 0x7B SWAP1 DUP2 ISZERO MUL SWAP1 PUSH1 0x40 MLOAD PUSH1 0x0 PUSH1 0x40 MLOAD DUP1 DUP4 SUB DUP2 DUP6 DUP9 DUP9 CALL SWAP4 POP POP POP POP POP POP JUMP JUMPDEST POP JUMP JUMPDEST PUSH1 0x0 DUP2 CALLDATALOAD SWAP1 POP PUSH2 0x12F DUP2 PUSH2 0x190 JUMP JUMPDEST SWAP3 SWAP2 POP POP JUMP JUMPDEST PUSH1 0x0 PUSH1 0x20 DUP3 DUP5 SUB SLT ISZERO PUSH2 0x147 JUMPI PUSH1 0x0 DUP1 REVERT JUMPDEST PUSH1 0x0 PUSH2 0x155 DUP5 DUP3 DUP6 ADD PUSH2 0x120 JUMP JUMPDEST SWAP2 POP POP SWAP3 SWAP2 POP POP JUMP JUMPDEST PUSH1 0x0 PUSH2 0x169 DUP3 PUSH2 0x170 JUMP JUMPDEST SWAP1 POP SWAP2 SWAP1 POP JUMP JUMPDEST PUSH1 0x0 PUSH20 0xFFFFFFFFFFFFFFFFFFFFFFFFFFFFFFFFFFFFFFFF DUP3 AND SWAP1 POP SWAP2 SWAP1 POP JUMP JUMPDEST PUSH2 0x199 DUP2 PUSH2 0x15E JUMP JUMPDEST DUP2 EQ PUSH2 0x1A4 JUMPI PUSH1 0x0 DUP1 REVERT JUMPDEST POP JUMP INVALID LOG2 PUSH5 0x6970667358 0x22 SLT KECCAK256 CALLDATASIZE 0xFC 0x2F 0xDD PUSH5 0x6864766497 0xAF SWAP2 0xD1 EXP 0xE4 PUSH25 0x109CB0DDD72E93F1156F7C9E095101C764736F6C6343000800 STOP CALLER "
				},
				"gasEstimates": {
					"creation": {
						"codeDepositCost": "95400",
						"executionCost": "117",
						"totalCost": "95517"
					},
					"external": {
						"sendViaCall(address)": "453",
						"sendViaSend(address)": "infinite",
						"sendViaTransfer(address)": "infinite"
					}
				},
				"methodIdentifiers": {
					"sendViaCall(address)": "830c29ae",
					"sendViaSend(address)": "74be4806",
					"sendViaTransfer(address)": "636e082b"
				}
			},
			"storageLayout": {
				"storage": [],
				"types": null
			},
			"userdoc": {
				"kind": "user",
				"methods": {},
				"version": 1
			}
		}
	}
}