{
	"contracts/MultiSigWallet.sol": {
		"MultiSigWallet": {
			"abi": [
				{
					"inputs": [
						{
							"internalType": "address[]",
							"name": "_owners",
							"type": "address[]"
						},
						{
							"internalType": "uint256",
							"name": "_required",
							"type": "uint256"
						}
					],
					"stateMutability": "nonpayable",
					"type": "constructor"
				},
				{
					"anonymous": false,
					"inputs": [
						{
							"indexed": false,
							"internalType": "uint256",
							"name": "",
							"type": "uint256"
						},
						{
							"indexed": false,
							"internalType": "address",
							"name": "",
							"type": "address"
						}
					],
					"name": "Approve",
					"type": "event"
				},
				{
					"anonymous": false,
					"inputs": [
						{
							"indexed": false,
							"internalType": "address",
							"name": "",
							"type": "address"
						},
						{
							"indexed": false,
							"internalType": "uint256",
							"name": "",
							"type": "uint256"
						}
					],
					"name": "Deposit",
					"type": "event"
				},
				{
					"anonymous": false,
					"inputs": [
						{
							"indexed": false,
							"internalType": "uint256",
							"name": "",
							"type": "uint256"
						},
						{
							"indexed": false,
							"internalType": "address",
							"name": "",
							"type": "address"
						}
					],
					"name": "Revoke",
					"type": "event"
				},
				{
					"inputs": [
						{
							"internalType": "uint256",
							"name": "",
							"type": "uint256"
						},
						{
							"internalType": "address",
							"name": "",
							"type": "address"
						}
					],
					"name": "approval",
					"outputs": [
						{
							"internalType": "bool",
							"name": "",
							"type": "bool"
						}
					],
					"stateMutability": "view",
					"type": "function"
				},
				{
					"inputs": [
						{
							"internalType": "uint256",
							"name": "_txId",
							"type": "uint256"
						}
					],
					"name": "approveTransaction",
					"outputs": [],
					"stateMutability": "nonpayable",
					"type": "function"
				},
				{
					"inputs": [
						{
							"internalType": "uint256",
							"name": "_txId",
							"type": "uint256"
						}
					],
					"name": "executeTransaction",
					"outputs": [],
					"stateMutability": "nonpayable",
					"type": "function"
				},
				{
					"inputs": [
						{
							"internalType": "address",
							"name": "",
							"type": "address"
						}
					],
					"name": "isOwner",
					"outputs": [
						{
							"internalType": "bool",
							"name": "",
							"type": "bool"
						}
					],
					"stateMutability": "view",
					"type": "function"
				},
				{
					"inputs": [
						{
							"internalType": "address",
							"name": "_to",
							"type": "address"
						},
						{
							"internalType": "uint256",
							"name": "_value",
							"type": "uint256"
						},
						{
							"internalType": "bytes",
							"name": "_data",
							"type": "bytes"
						}
					],
					"name": "makeTransaction",
					"outputs": [],
					"stateMutability": "nonpayable",
					"type": "function"
				},
				{
					"inputs": [
						{
							"internalType": "uint256",
							"name": "",
							"type": "uint256"
						}
					],
					"name": "owners",
					"outputs": [
						{
							"internalType": "address",
							"name": "",
							"type": "address"
						}
					],
					"stateMutability": "view",
					"type": "function"
				},
				{
					"inputs": [
						{
							"internalType": "uint256",
							"name": "_txId",
							"type": "uint256"
						}
					],
					"name": "revokeApproval",
					"outputs": [],
					"stateMutability": "nonpayable",
					"type": "function"
				},
				{
					"inputs": [
						{
							"internalType": "uint256",
							"name": "",
							"type": "uint256"
						}
					],
					"name": "transactions",
					"outputs": [
						{
							"internalType": "address",
							"name": "to",
							"type": "address"
						},
						{
							"internalType": "uint256",
							"name": "value",
							"type": "uint256"
						},
						{
							"internalType": "bool",
							"name": "executed",
							"type": "bool"
						},
						{
							"internalType": "bytes",
							"name": "data",
							"type": "bytes"
						}
					],
					"stateMutability": "view",
					"type": "function"
				},
				{
					"stateMutability": "payable",
					"type": "receive"
				}
			],
			"devdoc": {
				"kind": "dev",
				"methods": {},
				"version": 1
			},
			"evm": {
				"assembly": "    /* \"contracts/MultiSigWallet.sol\":69:2951  contract MultiSigWallet{... */\n  mstore(0x40, 0x80)\n    /* \"contracts/MultiSigWallet.sol\":540:864  constructor(address[] memory _owners, uint _required) {... */\n  callvalue\n  dup1\n  iszero\n  tag_1\n  jumpi\n  0x00\n  dup1\n  revert\ntag_1:\n  pop\n  mload(0x40)\n  sub(codesize, bytecodeSize)\n  dup1\n  bytecodeSize\n  dup4\n  codecopy\n  dup2\n  dup2\n  add\n  0x40\n  mstore\n  dup2\n  add\n  swap1\n  tag_2\n  swap2\n  swap1\n  tag_3\n  jump\t// in\ntag_2:\n    /* \"contracts/MultiSigWallet.sol\":609:615  uint i */\n  0x00\n    /* \"contracts/MultiSigWallet.sol\":605:826  for(uint i=0; i < _owners.length; i++){... */\ntag_6:\n    /* \"contracts/MultiSigWallet.sol\":623:630  _owners */\n  dup3\n    /* \"contracts/MultiSigWallet.sol\":623:637  _owners.length */\n  mload\n    /* \"contracts/MultiSigWallet.sol\":619:620  i */\n  dup2\n    /* \"contracts/MultiSigWallet.sol\":619:637  i < _owners.length */\n  lt\n    /* \"contracts/MultiSigWallet.sol\":605:826  for(uint i=0; i < _owners.length; i++){... */\n  iszero\n  tag_7\n  jumpi\n    /* \"contracts/MultiSigWallet.sol\":658:671  address owner */\n  0x00\n    /* \"contracts/MultiSigWallet.sol\":674:681  _owners */\n  dup4\n    /* \"contracts/MultiSigWallet.sol\":682:683  i */\n  dup3\n    /* \"contracts/MultiSigWallet.sol\":674:684  _owners[i] */\n  dup2\n  mload\n  dup2\n  lt\n  tag_9\n  jumpi\n  tag_10\n  tag_11\n  jump\t// in\ntag_10:\ntag_9:\n  0x20\n  mul\n  0x20\n  add\n  add\n  mload\n    /* \"contracts/MultiSigWallet.sol\":658:684  address owner = _owners[i] */\n  swap1\n  pop\n    /* \"contracts/MultiSigWallet.sol\":710:717  isOwner */\n  0x01\n    /* \"contracts/MultiSigWallet.sol\":710:724  isOwner[owner] */\n  0x00\n    /* \"contracts/MultiSigWallet.sol\":718:723  owner */\n  dup3\n    /* \"contracts/MultiSigWallet.sol\":710:724  isOwner[owner] */\n  0xffffffffffffffffffffffffffffffffffffffff\n  and\n  0xffffffffffffffffffffffffffffffffffffffff\n  and\n  dup2\n  mstore\n  0x20\n  add\n  swap1\n  dup2\n  mstore\n  0x20\n  add\n  0x00\n  keccak256\n  0x00\n  swap1\n  sload\n  swap1\n  0x0100\n  exp\n  swap1\n  div\n  0xff\n  and\n    /* \"contracts/MultiSigWallet.sol\":709:724  !isOwner[owner] */\n  iszero\n    /* \"contracts/MultiSigWallet.sol\":701:745  require(!isOwner[owner],\"Already Exists...\") */\n  tag_12\n  jumpi\n  mload(0x40)\n  0x08c379a000000000000000000000000000000000000000000000000000000000\n  dup2\n  mstore\n  0x04\n  add\n  tag_13\n  swap1\n  tag_14\n  jump\t// in\ntag_13:\n  mload(0x40)\n  dup1\n  swap2\n  sub\n  swap1\n  revert\ntag_12:\n    /* \"contracts/MultiSigWallet.sol\":760:766  owners */\n  0x00\n    /* \"contracts/MultiSigWallet.sol\":772:777  owner */\n  dup2\n    /* \"contracts/MultiSigWallet.sol\":760:778  owners.push(owner) */\n  swap1\n  dup1\n  0x01\n  dup2\n  sload\n  add\n  dup1\n  dup3\n  sstore\n  dup1\n  swap2\n  pop\n  pop\n  0x01\n  swap1\n  sub\n  swap1\n  0x00\n  mstore\n  keccak256(0x00, 0x20)\n  add\n  0x00\n  swap1\n  swap2\n  swap1\n  swap2\n  swap1\n  swap2\n  0x0100\n  exp\n  dup2\n  sload\n  dup2\n  0xffffffffffffffffffffffffffffffffffffffff\n  mul\n  not\n  and\n  swap1\n  dup4\n  0xffffffffffffffffffffffffffffffffffffffff\n  and\n  mul\n  or\n  swap1\n  sstore\n  pop\n    /* \"contracts/MultiSigWallet.sol\":810:814  true */\n  0x01\n    /* \"contracts/MultiSigWallet.sol\":793:800  isOwner */\n  dup1\n    /* \"contracts/MultiSigWallet.sol\":793:807  isOwner[owner] */\n  0x00\n    /* \"contracts/MultiSigWallet.sol\":801:806  owner */\n  dup4\n    /* \"contracts/MultiSigWallet.sol\":793:807  isOwner[owner] */\n  0xffffffffffffffffffffffffffffffffffffffff\n  and\n  0xffffffffffffffffffffffffffffffffffffffff\n  and\n  dup2\n  mstore\n  0x20\n  add\n  swap1\n  dup2\n  mstore\n  0x20\n  add\n  0x00\n  keccak256\n  0x00\n    /* \"contracts/MultiSigWallet.sol\":793:814  isOwner[owner] = true */\n  0x0100\n  exp\n  dup2\n  sload\n  dup2\n  0xff\n  mul\n  not\n  and\n  swap1\n  dup4\n  iszero\n  iszero\n  mul\n  or\n  swap1\n  sstore\n  pop\n    /* \"contracts/MultiSigWallet.sol\":643:826  {... */\n  pop\n    /* \"contracts/MultiSigWallet.sol\":639:642  i++ */\n  dup1\n  dup1\n  tag_16\n  swap1\n  tag_17\n  jump\t// in\ntag_16:\n  swap2\n  pop\n  pop\n    /* \"contracts/MultiSigWallet.sol\":605:826  for(uint i=0; i < _owners.length; i++){... */\n  jump(tag_6)\ntag_7:\n  pop\n    /* \"contracts/MultiSigWallet.sol\":847:856  _required */\n  dup1\n    /* \"contracts/MultiSigWallet.sol\":836:844  required */\n  0x02\n    /* \"contracts/MultiSigWallet.sol\":836:856  required = _required */\n  dup2\n  swap1\n  sstore\n  pop\n    /* \"contracts/MultiSigWallet.sol\":540:864  constructor(address[] memory _owners, uint _required) {... */\n  pop\n  pop\n    /* \"contracts/MultiSigWallet.sol\":69:2951  contract MultiSigWallet{... */\n  jump(tag_18)\n    /* \"#utility.yul\":7:82   */\ntag_19:\n    /* \"#utility.yul\":40:46   */\n  0x00\n    /* \"#utility.yul\":73:75   */\n  0x40\n    /* \"#utility.yul\":67:76   */\n  mload\n    /* \"#utility.yul\":57:76   */\n  swap1\n  pop\n    /* \"#utility.yul\":7:82   */\n  swap1\n  jump\t// out\n    /* \"#utility.yul\":88:205   */\ntag_20:\n    /* \"#utility.yul\":197:198   */\n  0x00\n    /* \"#utility.yul\":194:195   */\n  dup1\n    /* \"#utility.yul\":187:199   */\n  revert\n    /* \"#utility.yul\":211:328   */\ntag_21:\n    /* \"#utility.yul\":320:321   */\n  0x00\n    /* \"#utility.yul\":317:318   */\n  dup1\n    /* \"#utility.yul\":310:322   */\n  revert\n    /* \"#utility.yul\":334:451   */\ntag_22:\n    /* \"#utility.yul\":443:444   */\n  0x00\n    /* \"#utility.yul\":440:441   */\n  dup1\n    /* \"#utility.yul\":433:445   */\n  revert\n    /* \"#utility.yul\":457:559   */\ntag_23:\n    /* \"#utility.yul\":498:504   */\n  0x00\n    /* \"#utility.yul\":549:551   */\n  0x1f\n    /* \"#utility.yul\":545:552   */\n  not\n    /* \"#utility.yul\":540:542   */\n  0x1f\n    /* \"#utility.yul\":533:538   */\n  dup4\n    /* \"#utility.yul\":529:543   */\n  add\n    /* \"#utility.yul\":525:553   */\n  and\n    /* \"#utility.yul\":515:553   */\n  swap1\n  pop\n    /* \"#utility.yul\":457:559   */\n  swap2\n  swap1\n  pop\n  jump\t// out\n    /* \"#utility.yul\":565:745   */\ntag_24:\n    /* \"#utility.yul\":613:690   */\n  0x4e487b7100000000000000000000000000000000000000000000000000000000\n    /* \"#utility.yul\":610:611   */\n  0x00\n    /* \"#utility.yul\":603:691   */\n  mstore\n    /* \"#utility.yul\":710:714   */\n  0x41\n    /* \"#utility.yul\":707:708   */\n  0x04\n    /* \"#utility.yul\":700:715   */\n  mstore\n    /* \"#utility.yul\":734:738   */\n  0x24\n    /* \"#utility.yul\":731:732   */\n  0x00\n    /* \"#utility.yul\":724:739   */\n  revert\n    /* \"#utility.yul\":751:1032   */\ntag_25:\n    /* \"#utility.yul\":834:861   */\n  tag_50\n    /* \"#utility.yul\":856:860   */\n  dup3\n    /* \"#utility.yul\":834:861   */\n  tag_23\n  jump\t// in\ntag_50:\n    /* \"#utility.yul\":826:832   */\n  dup2\n    /* \"#utility.yul\":822:862   */\n  add\n    /* \"#utility.yul\":964:970   */\n  dup2\n    /* \"#utility.yul\":952:962   */\n  dup2\n    /* \"#utility.yul\":949:971   */\n  lt\n    /* \"#utility.yul\":928:946   */\n  0xffffffffffffffff\n    /* \"#utility.yul\":916:926   */\n  dup3\n    /* \"#utility.yul\":913:947   */\n  gt\n    /* \"#utility.yul\":910:972   */\n  or\n    /* \"#utility.yul\":907:995   */\n  iszero\n  tag_51\n  jumpi\n    /* \"#utility.yul\":975:993   */\n  tag_52\n  tag_24\n  jump\t// in\ntag_52:\n    /* \"#utility.yul\":907:995   */\ntag_51:\n    /* \"#utility.yul\":1015:1025   */\n  dup1\n    /* \"#utility.yul\":1011:1013   */\n  0x40\n    /* \"#utility.yul\":1004:1026   */\n  mstore\n    /* \"#utility.yul\":794:1032   */\n  pop\n    /* \"#utility.yul\":751:1032   */\n  pop\n  pop\n  jump\t// out\n    /* \"#utility.yul\":1038:1167   */\ntag_26:\n    /* \"#utility.yul\":1072:1078   */\n  0x00\n    /* \"#utility.yul\":1099:1119   */\n  tag_54\n  tag_19\n  jump\t// in\ntag_54:\n    /* \"#utility.yul\":1089:1119   */\n  swap1\n  pop\n    /* \"#utility.yul\":1128:1161   */\n  tag_55\n    /* \"#utility.yul\":1156:1160   */\n  dup3\n    /* \"#utility.yul\":1148:1154   */\n  dup3\n    /* \"#utility.yul\":1128:1161   */\n  tag_25\n  jump\t// in\ntag_55:\n    /* \"#utility.yul\":1038:1167   */\n  swap2\n  swap1\n  pop\n  jump\t// out\n    /* \"#utility.yul\":1173:1484   */\ntag_27:\n    /* \"#utility.yul\":1250:1254   */\n  0x00\n    /* \"#utility.yul\":1340:1358   */\n  0xffffffffffffffff\n    /* \"#utility.yul\":1332:1338   */\n  dup3\n    /* \"#utility.yul\":1329:1359   */\n  gt\n    /* \"#utility.yul\":1326:1382   */\n  iszero\n  tag_57\n  jumpi\n    /* \"#utility.yul\":1362:1380   */\n  tag_58\n  tag_24\n  jump\t// in\ntag_58:\n    /* \"#utility.yul\":1326:1382   */\ntag_57:\n    /* \"#utility.yul\":1412:1416   */\n  0x20\n    /* \"#utility.yul\":1404:1410   */\n  dup3\n    /* \"#utility.yul\":1400:1417   */\n  mul\n    /* \"#utility.yul\":1392:1417   */\n  swap1\n  pop\n    /* \"#utility.yul\":1472:1476   */\n  0x20\n    /* \"#utility.yul\":1466:1470   */\n  dup2\n    /* \"#utility.yul\":1462:1477   */\n  add\n    /* \"#utility.yul\":1454:1477   */\n  swap1\n  pop\n    /* \"#utility.yul\":1173:1484   */\n  swap2\n  swap1\n  pop\n  jump\t// out\n    /* \"#utility.yul\":1490:1607   */\ntag_28:\n    /* \"#utility.yul\":1599:1600   */\n  0x00\n    /* \"#utility.yul\":1596:1597   */\n  dup1\n    /* \"#utility.yul\":1589:1601   */\n  revert\n    /* \"#utility.yul\":1613:1739   */\ntag_29:\n    /* \"#utility.yul\":1650:1657   */\n  0x00\n    /* \"#utility.yul\":1690:1732   */\n  0xffffffffffffffffffffffffffffffffffffffff\n    /* \"#utility.yul\":1683:1688   */\n  dup3\n    /* \"#utility.yul\":1679:1733   */\n  and\n    /* \"#utility.yul\":1668:1733   */\n  swap1\n  pop\n    /* \"#utility.yul\":1613:1739   */\n  swap2\n  swap1\n  pop\n  jump\t// out\n    /* \"#utility.yul\":1745:1841   */\ntag_30:\n    /* \"#utility.yul\":1782:1789   */\n  0x00\n    /* \"#utility.yul\":1811:1835   */\n  tag_62\n    /* \"#utility.yul\":1829:1834   */\n  dup3\n    /* \"#utility.yul\":1811:1835   */\n  tag_29\n  jump\t// in\ntag_62:\n    /* \"#utility.yul\":1800:1835   */\n  swap1\n  pop\n    /* \"#utility.yul\":1745:1841   */\n  swap2\n  swap1\n  pop\n  jump\t// out\n    /* \"#utility.yul\":1847:1969   */\ntag_31:\n    /* \"#utility.yul\":1920:1944   */\n  tag_64\n    /* \"#utility.yul\":1938:1943   */\n  dup2\n    /* \"#utility.yul\":1920:1944   */\n  tag_30\n  jump\t// in\ntag_64:\n    /* \"#utility.yul\":1913:1918   */\n  dup2\n    /* \"#utility.yul\":1910:1945   */\n  eq\n    /* \"#utility.yul\":1900:1963   */\n  tag_65\n  jumpi\n    /* \"#utility.yul\":1959:1960   */\n  0x00\n    /* \"#utility.yul\":1956:1957   */\n  dup1\n    /* \"#utility.yul\":1949:1961   */\n  revert\n    /* \"#utility.yul\":1900:1963   */\ntag_65:\n    /* \"#utility.yul\":1847:1969   */\n  pop\n  jump\t// out\n    /* \"#utility.yul\":1975:2118   */\ntag_32:\n    /* \"#utility.yul\":2032:2037   */\n  0x00\n    /* \"#utility.yul\":2063:2069   */\n  dup2\n    /* \"#utility.yul\":2057:2070   */\n  mload\n    /* \"#utility.yul\":2048:2070   */\n  swap1\n  pop\n    /* \"#utility.yul\":2079:2112   */\n  tag_67\n    /* \"#utility.yul\":2106:2111   */\n  dup2\n    /* \"#utility.yul\":2079:2112   */\n  tag_31\n  jump\t// in\ntag_67:\n    /* \"#utility.yul\":1975:2118   */\n  swap3\n  swap2\n  pop\n  pop\n  jump\t// out\n    /* \"#utility.yul\":2141:2873   */\ntag_33:\n    /* \"#utility.yul\":2248:2253   */\n  0x00\n    /* \"#utility.yul\":2273:2354   */\n  tag_69\n    /* \"#utility.yul\":2289:2353   */\n  tag_70\n    /* \"#utility.yul\":2346:2352   */\n  dup5\n    /* \"#utility.yul\":2289:2353   */\n  tag_27\n  jump\t// in\ntag_70:\n    /* \"#utility.yul\":2273:2354   */\n  tag_26\n  jump\t// in\ntag_69:\n    /* \"#utility.yul\":2264:2354   */\n  swap1\n  pop\n    /* \"#utility.yul\":2374:2379   */\n  dup1\n    /* \"#utility.yul\":2403:2409   */\n  dup4\n    /* \"#utility.yul\":2396:2401   */\n  dup3\n    /* \"#utility.yul\":2389:2410   */\n  mstore\n    /* \"#utility.yul\":2437:2441   */\n  0x20\n    /* \"#utility.yul\":2430:2435   */\n  dup3\n    /* \"#utility.yul\":2426:2442   */\n  add\n    /* \"#utility.yul\":2419:2442   */\n  swap1\n  pop\n    /* \"#utility.yul\":2490:2494   */\n  0x20\n    /* \"#utility.yul\":2482:2488   */\n  dup5\n    /* \"#utility.yul\":2478:2495   */\n  mul\n    /* \"#utility.yul\":2470:2476   */\n  dup4\n    /* \"#utility.yul\":2466:2496   */\n  add\n    /* \"#utility.yul\":2519:2522   */\n  dup6\n    /* \"#utility.yul\":2511:2517   */\n  dup2\n    /* \"#utility.yul\":2508:2523   */\n  gt\n    /* \"#utility.yul\":2505:2627   */\n  iszero\n  tag_71\n  jumpi\n    /* \"#utility.yul\":2538:2617   */\n  tag_72\n  tag_28\n  jump\t// in\ntag_72:\n    /* \"#utility.yul\":2505:2627   */\ntag_71:\n    /* \"#utility.yul\":2653:2659   */\n  dup4\n    /* \"#utility.yul\":2636:2867   */\ntag_73:\n    /* \"#utility.yul\":2670:2676   */\n  dup2\n    /* \"#utility.yul\":2665:2668   */\n  dup2\n    /* \"#utility.yul\":2662:2677   */\n  lt\n    /* \"#utility.yul\":2636:2867   */\n  iszero\n  tag_75\n  jumpi\n    /* \"#utility.yul\":2745:2748   */\n  dup1\n    /* \"#utility.yul\":2774:2822   */\n  tag_76\n    /* \"#utility.yul\":2818:2821   */\n  dup9\n    /* \"#utility.yul\":2806:2816   */\n  dup3\n    /* \"#utility.yul\":2774:2822   */\n  tag_32\n  jump\t// in\ntag_76:\n    /* \"#utility.yul\":2769:2772   */\n  dup5\n    /* \"#utility.yul\":2762:2823   */\n  mstore\n    /* \"#utility.yul\":2852:2856   */\n  0x20\n    /* \"#utility.yul\":2847:2850   */\n  dup5\n    /* \"#utility.yul\":2843:2857   */\n  add\n    /* \"#utility.yul\":2836:2857   */\n  swap4\n  pop\n    /* \"#utility.yul\":2712:2867   */\n  pop\n    /* \"#utility.yul\":2696:2700   */\n  0x20\n    /* \"#utility.yul\":2691:2694   */\n  dup2\n    /* \"#utility.yul\":2687:2701   */\n  add\n    /* \"#utility.yul\":2680:2701   */\n  swap1\n  pop\n    /* \"#utility.yul\":2636:2867   */\n  jump(tag_73)\ntag_75:\n    /* \"#utility.yul\":2640:2661   */\n  pop\n    /* \"#utility.yul\":2254:2873   */\n  pop\n  pop\n    /* \"#utility.yul\":2141:2873   */\n  swap4\n  swap3\n  pop\n  pop\n  pop\n  jump\t// out\n    /* \"#utility.yul\":2896:3281   */\ntag_34:\n    /* \"#utility.yul\":2978:2983   */\n  0x00\n    /* \"#utility.yul\":3027:3030   */\n  dup3\n    /* \"#utility.yul\":3020:3024   */\n  0x1f\n    /* \"#utility.yul\":3012:3018   */\n  dup4\n    /* \"#utility.yul\":3008:3025   */\n  add\n    /* \"#utility.yul\":3004:3031   */\n  slt\n    /* \"#utility.yul\":2994:3116   */\n  tag_78\n  jumpi\n    /* \"#utility.yul\":3035:3114   */\n  tag_79\n  tag_22\n  jump\t// in\ntag_79:\n    /* \"#utility.yul\":2994:3116   */\ntag_78:\n    /* \"#utility.yul\":3145:3151   */\n  dup2\n    /* \"#utility.yul\":3139:3152   */\n  mload\n    /* \"#utility.yul\":3170:3275   */\n  tag_80\n    /* \"#utility.yul\":3271:3274   */\n  dup5\n    /* \"#utility.yul\":3263:3269   */\n  dup3\n    /* \"#utility.yul\":3256:3260   */\n  0x20\n    /* \"#utility.yul\":3248:3254   */\n  dup7\n    /* \"#utility.yul\":3244:3261   */\n  add\n    /* \"#utility.yul\":3170:3275   */\n  tag_33\n  jump\t// in\ntag_80:\n    /* \"#utility.yul\":3161:3275   */\n  swap2\n  pop\n    /* \"#utility.yul\":2984:3281   */\n  pop\n    /* \"#utility.yul\":2896:3281   */\n  swap3\n  swap2\n  pop\n  pop\n  jump\t// out\n    /* \"#utility.yul\":3287:3364   */\ntag_35:\n    /* \"#utility.yul\":3324:3331   */\n  0x00\n    /* \"#utility.yul\":3353:3358   */\n  dup2\n    /* \"#utility.yul\":3342:3358   */\n  swap1\n  pop\n    /* \"#utility.yul\":3287:3364   */\n  swap2\n  swap1\n  pop\n  jump\t// out\n    /* \"#utility.yul\":3370:3492   */\ntag_36:\n    /* \"#utility.yul\":3443:3467   */\n  tag_83\n    /* \"#utility.yul\":3461:3466   */\n  dup2\n    /* \"#utility.yul\":3443:3467   */\n  tag_35\n  jump\t// in\ntag_83:\n    /* \"#utility.yul\":3436:3441   */\n  dup2\n    /* \"#utility.yul\":3433:3468   */\n  eq\n    /* \"#utility.yul\":3423:3486   */\n  tag_84\n  jumpi\n    /* \"#utility.yul\":3482:3483   */\n  0x00\n    /* \"#utility.yul\":3479:3480   */\n  dup1\n    /* \"#utility.yul\":3472:3484   */\n  revert\n    /* \"#utility.yul\":3423:3486   */\ntag_84:\n    /* \"#utility.yul\":3370:3492   */\n  pop\n  jump\t// out\n    /* \"#utility.yul\":3498:3641   */\ntag_37:\n    /* \"#utility.yul\":3555:3560   */\n  0x00\n    /* \"#utility.yul\":3586:3592   */\n  dup2\n    /* \"#utility.yul\":3580:3593   */\n  mload\n    /* \"#utility.yul\":3571:3593   */\n  swap1\n  pop\n    /* \"#utility.yul\":3602:3635   */\n  tag_86\n    /* \"#utility.yul\":3629:3634   */\n  dup2\n    /* \"#utility.yul\":3602:3635   */\n  tag_36\n  jump\t// in\ntag_86:\n    /* \"#utility.yul\":3498:3641   */\n  swap3\n  swap2\n  pop\n  pop\n  jump\t// out\n    /* \"#utility.yul\":3647:4357   */\ntag_3:\n    /* \"#utility.yul\":3751:3757   */\n  0x00\n    /* \"#utility.yul\":3759:3765   */\n  dup1\n    /* \"#utility.yul\":3808:3810   */\n  0x40\n    /* \"#utility.yul\":3796:3805   */\n  dup4\n    /* \"#utility.yul\":3787:3794   */\n  dup6\n    /* \"#utility.yul\":3783:3806   */\n  sub\n    /* \"#utility.yul\":3779:3811   */\n  slt\n    /* \"#utility.yul\":3776:3895   */\n  iszero\n  tag_88\n  jumpi\n    /* \"#utility.yul\":3814:3893   */\n  tag_89\n  tag_20\n  jump\t// in\ntag_89:\n    /* \"#utility.yul\":3776:3895   */\ntag_88:\n    /* \"#utility.yul\":3955:3956   */\n  0x00\n    /* \"#utility.yul\":3944:3953   */\n  dup4\n    /* \"#utility.yul\":3940:3957   */\n  add\n    /* \"#utility.yul\":3934:3958   */\n  mload\n    /* \"#utility.yul\":3985:4003   */\n  0xffffffffffffffff\n    /* \"#utility.yul\":3977:3983   */\n  dup2\n    /* \"#utility.yul\":3974:4004   */\n  gt\n    /* \"#utility.yul\":3971:4088   */\n  iszero\n  tag_90\n  jumpi\n    /* \"#utility.yul\":4007:4086   */\n  tag_91\n  tag_21\n  jump\t// in\ntag_91:\n    /* \"#utility.yul\":3971:4088   */\ntag_90:\n    /* \"#utility.yul\":4112:4201   */\n  tag_92\n    /* \"#utility.yul\":4193:4200   */\n  dup6\n    /* \"#utility.yul\":4184:4190   */\n  dup3\n    /* \"#utility.yul\":4173:4182   */\n  dup7\n    /* \"#utility.yul\":4169:4191   */\n  add\n    /* \"#utility.yul\":4112:4201   */\n  tag_34\n  jump\t// in\ntag_92:\n    /* \"#utility.yul\":4102:4201   */\n  swap3\n  pop\n    /* \"#utility.yul\":3905:4211   */\n  pop\n    /* \"#utility.yul\":4250:4252   */\n  0x20\n    /* \"#utility.yul\":4276:4340   */\n  tag_93\n    /* \"#utility.yul\":4332:4339   */\n  dup6\n    /* \"#utility.yul\":4323:4329   */\n  dup3\n    /* \"#utility.yul\":4312:4321   */\n  dup7\n    /* \"#utility.yul\":4308:4330   */\n  add\n    /* \"#utility.yul\":4276:4340   */\n  tag_37\n  jump\t// in\ntag_93:\n    /* \"#utility.yul\":4266:4340   */\n  swap2\n  pop\n    /* \"#utility.yul\":4221:4350   */\n  pop\n    /* \"#utility.yul\":3647:4357   */\n  swap3\n  pop\n  swap3\n  swap1\n  pop\n  jump\t// out\n    /* \"#utility.yul\":4363:4543   */\ntag_11:\n    /* \"#utility.yul\":4411:4488   */\n  0x4e487b7100000000000000000000000000000000000000000000000000000000\n    /* \"#utility.yul\":4408:4409   */\n  0x00\n    /* \"#utility.yul\":4401:4489   */\n  mstore\n    /* \"#utility.yul\":4508:4512   */\n  0x32\n    /* \"#utility.yul\":4505:4506   */\n  0x04\n    /* \"#utility.yul\":4498:4513   */\n  mstore\n    /* \"#utility.yul\":4532:4536   */\n  0x24\n    /* \"#utility.yul\":4529:4530   */\n  0x00\n    /* \"#utility.yul\":4522:4537   */\n  revert\n    /* \"#utility.yul\":4549:4718   */\ntag_38:\n    /* \"#utility.yul\":4633:4644   */\n  0x00\n    /* \"#utility.yul\":4667:4673   */\n  dup3\n    /* \"#utility.yul\":4662:4665   */\n  dup3\n    /* \"#utility.yul\":4655:4674   */\n  mstore\n    /* \"#utility.yul\":4707:4711   */\n  0x20\n    /* \"#utility.yul\":4702:4705   */\n  dup3\n    /* \"#utility.yul\":4698:4712   */\n  add\n    /* \"#utility.yul\":4683:4712   */\n  swap1\n  pop\n    /* \"#utility.yul\":4549:4718   */\n  swap3\n  swap2\n  pop\n  pop\n  jump\t// out\n    /* \"#utility.yul\":4724:4891   */\ntag_39:\n    /* \"#utility.yul\":4864:4883   */\n  0x416c7265616479204578697374732e2e2e000000000000000000000000000000\n    /* \"#utility.yul\":4860:4861   */\n  0x00\n    /* \"#utility.yul\":4852:4858   */\n  dup3\n    /* \"#utility.yul\":4848:4862   */\n  add\n    /* \"#utility.yul\":4841:4884   */\n  mstore\n    /* \"#utility.yul\":4724:4891   */\n  pop\n  jump\t// out\n    /* \"#utility.yul\":4897:5263   */\ntag_40:\n    /* \"#utility.yul\":5039:5042   */\n  0x00\n    /* \"#utility.yul\":5060:5127   */\n  tag_98\n    /* \"#utility.yul\":5124:5126   */\n  0x11\n    /* \"#utility.yul\":5119:5122   */\n  dup4\n    /* \"#utility.yul\":5060:5127   */\n  tag_38\n  jump\t// in\ntag_98:\n    /* \"#utility.yul\":5053:5127   */\n  swap2\n  pop\n    /* \"#utility.yul\":5136:5229   */\n  tag_99\n    /* \"#utility.yul\":5225:5228   */\n  dup3\n    /* \"#utility.yul\":5136:5229   */\n  tag_39\n  jump\t// in\ntag_99:\n    /* \"#utility.yul\":5254:5256   */\n  0x20\n    /* \"#utility.yul\":5249:5252   */\n  dup3\n    /* \"#utility.yul\":5245:5257   */\n  add\n    /* \"#utility.yul\":5238:5257   */\n  swap1\n  pop\n    /* \"#utility.yul\":4897:5263   */\n  swap2\n  swap1\n  pop\n  jump\t// out\n    /* \"#utility.yul\":5269:5688   */\ntag_14:\n    /* \"#utility.yul\":5435:5439   */\n  0x00\n    /* \"#utility.yul\":5473:5475   */\n  0x20\n    /* \"#utility.yul\":5462:5471   */\n  dup3\n    /* \"#utility.yul\":5458:5476   */\n  add\n    /* \"#utility.yul\":5450:5476   */\n  swap1\n  pop\n    /* \"#utility.yul\":5522:5531   */\n  dup2\n    /* \"#utility.yul\":5516:5520   */\n  dup2\n    /* \"#utility.yul\":5512:5532   */\n  sub\n    /* \"#utility.yul\":5508:5509   */\n  0x00\n    /* \"#utility.yul\":5497:5506   */\n  dup4\n    /* \"#utility.yul\":5493:5510   */\n  add\n    /* \"#utility.yul\":5486:5533   */\n  mstore\n    /* \"#utility.yul\":5550:5681   */\n  tag_101\n    /* \"#utility.yul\":5676:5680   */\n  dup2\n    /* \"#utility.yul\":5550:5681   */\n  tag_40\n  jump\t// in\ntag_101:\n    /* \"#utility.yul\":5542:5681   */\n  swap1\n  pop\n    /* \"#utility.yul\":5269:5688   */\n  swap2\n  swap1\n  pop\n  jump\t// out\n    /* \"#utility.yul\":5694:5874   */\ntag_41:\n    /* \"#utility.yul\":5742:5819   */\n  0x4e487b7100000000000000000000000000000000000000000000000000000000\n    /* \"#utility.yul\":5739:5740   */\n  0x00\n    /* \"#utility.yul\":5732:5820   */\n  mstore\n    /* \"#utility.yul\":5839:5843   */\n  0x11\n    /* \"#utility.yul\":5836:5837   */\n  0x04\n    /* \"#utility.yul\":5829:5844   */\n  mstore\n    /* \"#utility.yul\":5863:5867   */\n  0x24\n    /* \"#utility.yul\":5860:5861   */\n  0x00\n    /* \"#utility.yul\":5853:5868   */\n  revert\n    /* \"#utility.yul\":5880:6113   */\ntag_17:\n    /* \"#utility.yul\":5919:5922   */\n  0x00\n    /* \"#utility.yul\":5942:5966   */\n  tag_104\n    /* \"#utility.yul\":5960:5965   */\n  dup3\n    /* \"#utility.yul\":5942:5966   */\n  tag_35\n  jump\t// in\ntag_104:\n    /* \"#utility.yul\":5933:5966   */\n  swap2\n  pop\n    /* \"#utility.yul\":5988:6054   */\n  0xffffffffffffffffffffffffffffffffffffffffffffffffffffffffffffffff\n    /* \"#utility.yul\":5981:5986   */\n  dup3\n    /* \"#utility.yul\":5978:6055   */\n  sub\n    /* \"#utility.yul\":5975:6078   */\n  tag_105\n  jumpi\n    /* \"#utility.yul\":6058:6076   */\n  tag_106\n  tag_41\n  jump\t// in\ntag_106:\n    /* \"#utility.yul\":5975:6078   */\ntag_105:\n    /* \"#utility.yul\":6105:6106   */\n  0x01\n    /* \"#utility.yul\":6098:6103   */\n  dup3\n    /* \"#utility.yul\":6094:6107   */\n  add\n    /* \"#utility.yul\":6087:6107   */\n  swap1\n  pop\n    /* \"#utility.yul\":5880:6113   */\n  swap2\n  swap1\n  pop\n  jump\t// out\n    /* \"contracts/MultiSigWallet.sol\":69:2951  contract MultiSigWallet{... */\ntag_18:\n  dataSize(sub_0)\n  dup1\n  dataOffset(sub_0)\n  0x00\n  codecopy\n  0x00\n  return\nstop\n\nsub_0: assembly {\n        /* \"contracts/MultiSigWallet.sol\":69:2951  contract MultiSigWallet{... */\n      mstore(0x40, 0x80)\n      jumpi(tag_1, lt(calldatasize, 0x04))\n      shr(0xe0, calldataload(0x00))\n      dup1\n      0xb1e130fc\n      gt\n      tag_11\n      jumpi\n      dup1\n      0xb1e130fc\n      eq\n      tag_7\n      jumpi\n      dup1\n      0xb848de35\n      eq\n      tag_8\n      jumpi\n      dup1\n      0xc0c64a49\n      eq\n      tag_9\n      jumpi\n      dup1\n      0xee22610b\n      eq\n      tag_10\n      jumpi\n      jump(tag_2)\n    tag_11:\n      dup1\n      0x025e7c27\n      eq\n      tag_3\n      jumpi\n      dup1\n      0x242232d1\n      eq\n      tag_4\n      jumpi\n      dup1\n      0x2f54bf6e\n      eq\n      tag_5\n      jumpi\n      dup1\n      0x9ace38c2\n      eq\n      tag_6\n      jumpi\n      jump(tag_2)\n    tag_1:\n      jumpi(tag_2, calldatasize)\n        /* \"contracts/MultiSigWallet.sol\":1862:1892  Deposit(msg.sender ,msg.value) */\n      0xe1fffcc4923d04b559f4d29a8bfc6cda04eb5b0d3c460751c2402c5c5cc9109c\n        /* \"contracts/MultiSigWallet.sol\":1870:1880  msg.sender */\n      caller\n        /* \"contracts/MultiSigWallet.sol\":1882:1891  msg.value */\n      callvalue\n        /* \"contracts/MultiSigWallet.sol\":1862:1892  Deposit(msg.sender ,msg.value) */\n      mload(0x40)\n      tag_14\n      swap3\n      swap2\n      swap1\n      tag_15\n      jump\t// in\n    tag_14:\n      mload(0x40)\n      dup1\n      swap2\n      sub\n      swap1\n      log1\n        /* \"contracts/MultiSigWallet.sol\":69:2951  contract MultiSigWallet{... */\n      stop\n    tag_2:\n      0x00\n      dup1\n      revert\n        /* \"contracts/MultiSigWallet.sol\":207:230  address[] public owners */\n    tag_3:\n      callvalue\n      dup1\n      iszero\n      tag_16\n      jumpi\n      0x00\n      dup1\n      revert\n    tag_16:\n      pop\n      tag_17\n      0x04\n      dup1\n      calldatasize\n      sub\n      dup2\n      add\n      swap1\n      tag_18\n      swap2\n      swap1\n      tag_19\n      jump\t// in\n    tag_18:\n      tag_20\n      jump\t// in\n    tag_17:\n      mload(0x40)\n      tag_21\n      swap2\n      swap1\n      tag_22\n      jump\t// in\n    tag_21:\n      mload(0x40)\n      dup1\n      swap2\n      sub\n      swap1\n      return\n        /* \"contracts/MultiSigWallet.sol\":2081:2292  function approveTransaction(uint _txId) external notApproved(_txId) existTrans(_txId) onlyOwner isNotExec(_txId){... */\n    tag_4:\n      callvalue\n      dup1\n      iszero\n      tag_23\n      jumpi\n      0x00\n      dup1\n      revert\n    tag_23:\n      pop\n      tag_24\n      0x04\n      dup1\n      calldatasize\n      sub\n      dup2\n      add\n      swap1\n      tag_25\n      swap2\n      swap1\n      tag_19\n      jump\t// in\n    tag_25:\n      tag_26\n      jump\t// in\n    tag_24:\n      stop\n        /* \"contracts/MultiSigWallet.sol\":237:276  mapping(address => bool) public isOwner */\n    tag_5:\n      callvalue\n      dup1\n      iszero\n      tag_27\n      jumpi\n      0x00\n      dup1\n      revert\n    tag_27:\n      pop\n      tag_28\n      0x04\n      dup1\n      calldatasize\n      sub\n      dup2\n      add\n      swap1\n      tag_29\n      swap2\n      swap1\n      tag_30\n      jump\t// in\n    tag_29:\n      tag_31\n      jump\t// in\n    tag_28:\n      mload(0x40)\n      tag_32\n      swap2\n      swap1\n      tag_33\n      jump\t// in\n    tag_32:\n      mload(0x40)\n      dup1\n      swap2\n      sub\n      swap1\n      return\n        /* \"contracts/MultiSigWallet.sol\":498:531  Transaction[] public transactions */\n    tag_6:\n      callvalue\n      dup1\n      iszero\n      tag_34\n      jumpi\n      0x00\n      dup1\n      revert\n    tag_34:\n      pop\n      tag_35\n      0x04\n      dup1\n      calldatasize\n      sub\n      dup2\n      add\n      swap1\n      tag_36\n      swap2\n      swap1\n      tag_19\n      jump\t// in\n    tag_36:\n      tag_37\n      jump\t// in\n    tag_35:\n      mload(0x40)\n      tag_38\n      swap5\n      swap4\n      swap3\n      swap2\n      swap1\n      tag_39\n      jump\t// in\n    tag_38:\n      mload(0x40)\n      dup1\n      swap2\n      sub\n      swap1\n      return\n        /* \"contracts/MultiSigWallet.sol\":2300:2504  function revokeApproval(uint _txId) external isApproved(_txId) existTrans(_txId) onlyOwner isNotExec(_txId){... */\n    tag_7:\n      callvalue\n      dup1\n      iszero\n      tag_40\n      jumpi\n      0x00\n      dup1\n      revert\n    tag_40:\n      pop\n      tag_41\n      0x04\n      dup1\n      calldatasize\n      sub\n      dup2\n      add\n      swap1\n      tag_42\n      swap2\n      swap1\n      tag_19\n      jump\t// in\n    tag_42:\n      tag_43\n      jump\t// in\n    tag_41:\n      stop\n        /* \"contracts/MultiSigWallet.sol\":311:368  mapping(uint => mapping(address => bool)) public approval */\n    tag_8:\n      callvalue\n      dup1\n      iszero\n      tag_44\n      jumpi\n      0x00\n      dup1\n      revert\n    tag_44:\n      pop\n      tag_45\n      0x04\n      dup1\n      calldatasize\n      sub\n      dup2\n      add\n      swap1\n      tag_46\n      swap2\n      swap1\n      tag_47\n      jump\t// in\n    tag_46:\n      tag_48\n      jump\t// in\n    tag_45:\n      mload(0x40)\n      tag_49\n      swap2\n      swap1\n      tag_33\n      jump\t// in\n    tag_49:\n      mload(0x40)\n      dup1\n      swap2\n      sub\n      swap1\n      return\n        /* \"contracts/MultiSigWallet.sol\":1908:2073  function makeTransaction(address _to, uint _value,bytes calldata _data) external onlyOwner{... */\n    tag_9:\n      callvalue\n      dup1\n      iszero\n      tag_50\n      jumpi\n      0x00\n      dup1\n      revert\n    tag_50:\n      pop\n      tag_51\n      0x04\n      dup1\n      calldatasize\n      sub\n      dup2\n      add\n      swap1\n      tag_52\n      swap2\n      swap1\n      tag_53\n      jump\t// in\n    tag_52:\n      tag_54\n      jump\t// in\n    tag_51:\n      stop\n        /* \"contracts/MultiSigWallet.sol\":2512:2948  function executeTransaction(uint _txId) external existTrans(_txId) onlyOwner isNotExec(_txId) {... */\n    tag_10:\n      callvalue\n      dup1\n      iszero\n      tag_55\n      jumpi\n      0x00\n      dup1\n      revert\n    tag_55:\n      pop\n      tag_56\n      0x04\n      dup1\n      calldatasize\n      sub\n      dup2\n      add\n      swap1\n      tag_57\n      swap2\n      swap1\n      tag_19\n      jump\t// in\n    tag_57:\n      tag_58\n      jump\t// in\n    tag_56:\n      stop\n        /* \"contracts/MultiSigWallet.sol\":207:230  address[] public owners */\n    tag_20:\n      0x00\n      dup2\n      dup2\n      sload\n      dup2\n      lt\n      tag_59\n      jumpi\n      0x00\n      dup1\n      revert\n    tag_59:\n      swap1\n      0x00\n      mstore\n      keccak256(0x00, 0x20)\n      add\n      0x00\n      swap2\n      pop\n      sload\n      swap1\n      0x0100\n      exp\n      swap1\n      div\n      0xffffffffffffffffffffffffffffffffffffffff\n      and\n      dup2\n      jump\t// out\n        /* \"contracts/MultiSigWallet.sol\":2081:2292  function approveTransaction(uint _txId) external notApproved(_txId) existTrans(_txId) onlyOwner isNotExec(_txId){... */\n    tag_26:\n        /* \"contracts/MultiSigWallet.sol\":2142:2147  _txId */\n      dup1\n        /* \"contracts/MultiSigWallet.sol\":925:933  approval */\n      0x03\n        /* \"contracts/MultiSigWallet.sol\":925:940  approval[_txId] */\n      0x00\n        /* \"contracts/MultiSigWallet.sol\":934:939  _txId */\n      dup3\n        /* \"contracts/MultiSigWallet.sol\":925:940  approval[_txId] */\n      dup2\n      mstore\n      0x20\n      add\n      swap1\n      dup2\n      mstore\n      0x20\n      add\n      0x00\n      keccak256\n        /* \"contracts/MultiSigWallet.sol\":925:952  approval[_txId][msg.sender] */\n      0x00\n        /* \"contracts/MultiSigWallet.sol\":941:951  msg.sender */\n      caller\n        /* \"contracts/MultiSigWallet.sol\":925:952  approval[_txId][msg.sender] */\n      0xffffffffffffffffffffffffffffffffffffffff\n      and\n      0xffffffffffffffffffffffffffffffffffffffff\n      and\n      dup2\n      mstore\n      0x20\n      add\n      swap1\n      dup2\n      mstore\n      0x20\n      add\n      0x00\n      keccak256\n      0x00\n      swap1\n      sload\n      swap1\n      0x0100\n      exp\n      swap1\n      div\n      0xff\n      and\n        /* \"contracts/MultiSigWallet.sol\":924:952  !approval[_txId][msg.sender] */\n      iszero\n        /* \"contracts/MultiSigWallet.sol\":916:987  require(!approval[_txId][msg.sender],\"Transaction Already Approved...\") */\n      tag_62\n      jumpi\n      mload(0x40)\n      0x08c379a000000000000000000000000000000000000000000000000000000000\n      dup2\n      mstore\n      0x04\n      add\n      tag_63\n      swap1\n      tag_64\n      jump\t// in\n    tag_63:\n      mload(0x40)\n      dup1\n      swap2\n      sub\n      swap1\n      revert\n    tag_62:\n        /* \"contracts/MultiSigWallet.sol\":2160:2165  _txId */\n      dup2\n        /* \"contracts/MultiSigWallet.sol\":1097:1098  1 */\n      0x01\n        /* \"contracts/MultiSigWallet.sol\":1075:1087  transactions */\n      0x04\n        /* \"contracts/MultiSigWallet.sol\":1075:1094  transactions.length */\n      dup1\n      sload\n      swap1\n      pop\n        /* \"contracts/MultiSigWallet.sol\":1075:1098  transactions.length - 1 */\n      tag_66\n      swap2\n      swap1\n      tag_67\n      jump\t// in\n    tag_66:\n        /* \"contracts/MultiSigWallet.sol\":1066:1071  _txId */\n      dup2\n        /* \"contracts/MultiSigWallet.sol\":1066:1098  _txId <= transactions.length - 1 */\n      gt\n      iszero\n        /* \"contracts/MultiSigWallet.sol\":1058:1131  require(_txId <= transactions.length - 1,\"Transaction Does not Exist...\") */\n      tag_68\n      jumpi\n      mload(0x40)\n      0x08c379a000000000000000000000000000000000000000000000000000000000\n      dup2\n      mstore\n      0x04\n      add\n      tag_69\n      swap1\n      tag_70\n      jump\t// in\n    tag_69:\n      mload(0x40)\n      dup1\n      swap2\n      sub\n      swap1\n      revert\n    tag_68:\n        /* \"contracts/MultiSigWallet.sol\":1196:1203  isOwner */\n      0x01\n        /* \"contracts/MultiSigWallet.sol\":1196:1215  isOwner[msg.sender] */\n      0x00\n        /* \"contracts/MultiSigWallet.sol\":1204:1214  msg.sender */\n      caller\n        /* \"contracts/MultiSigWallet.sol\":1196:1215  isOwner[msg.sender] */\n      0xffffffffffffffffffffffffffffffffffffffff\n      and\n      0xffffffffffffffffffffffffffffffffffffffff\n      and\n      dup2\n      mstore\n      0x20\n      add\n      swap1\n      dup2\n      mstore\n      0x20\n      add\n      0x00\n      keccak256\n      0x00\n      swap1\n      sload\n      swap1\n      0x0100\n      exp\n      swap1\n      div\n      0xff\n      and\n        /* \"contracts/MultiSigWallet.sol\":1188:1237  require(isOwner[msg.sender] ,\"Not the Owner....\") */\n      tag_72\n      jumpi\n      mload(0x40)\n      0x08c379a000000000000000000000000000000000000000000000000000000000\n      dup2\n      mstore\n      0x04\n      add\n      tag_73\n      swap1\n      tag_74\n      jump\t// in\n    tag_73:\n      mload(0x40)\n      dup1\n      swap2\n      sub\n      swap1\n      revert\n    tag_72:\n        /* \"contracts/MultiSigWallet.sol\":2187:2192  _txId */\n      dup3\n        /* \"contracts/MultiSigWallet.sol\":1443:1473  Transaction memory transaction */\n      0x00\n        /* \"contracts/MultiSigWallet.sol\":1476:1488  transactions */\n      0x04\n        /* \"contracts/MultiSigWallet.sol\":1489:1494  _txId */\n      dup3\n        /* \"contracts/MultiSigWallet.sol\":1476:1495  transactions[_txId] */\n      dup2\n      sload\n      dup2\n      lt\n      tag_76\n      jumpi\n      tag_77\n      tag_78\n      jump\t// in\n    tag_77:\n    tag_76:\n      swap1\n      0x00\n      mstore\n      keccak256(0x00, 0x20)\n      swap1\n      0x04\n      mul\n      add\n        /* \"contracts/MultiSigWallet.sol\":1443:1495  Transaction memory transaction = transactions[_txId] */\n      mload(0x40)\n      dup1\n      0x80\n      add\n      0x40\n      mstore\n      swap1\n      dup2\n      0x00\n      dup3\n      add\n      0x00\n      swap1\n      sload\n      swap1\n      0x0100\n      exp\n      swap1\n      div\n      0xffffffffffffffffffffffffffffffffffffffff\n      and\n      0xffffffffffffffffffffffffffffffffffffffff\n      and\n      0xffffffffffffffffffffffffffffffffffffffff\n      and\n      dup2\n      mstore\n      0x20\n      add\n      0x01\n      dup3\n      add\n      sload\n      dup2\n      mstore\n      0x20\n      add\n      0x02\n      dup3\n      add\n      0x00\n      swap1\n      sload\n      swap1\n      0x0100\n      exp\n      swap1\n      div\n      0xff\n      and\n      iszero\n      iszero\n      iszero\n      iszero\n      dup2\n      mstore\n      0x20\n      add\n      0x03\n      dup3\n      add\n      dup1\n      sload\n      tag_80\n      swap1\n      tag_81\n      jump\t// in\n    tag_80:\n      dup1\n      0x1f\n      add\n      0x20\n      dup1\n      swap2\n      div\n      mul\n      0x20\n      add\n      mload(0x40)\n      swap1\n      dup2\n      add\n      0x40\n      mstore\n      dup1\n      swap3\n      swap2\n      swap1\n      dup2\n      dup2\n      mstore\n      0x20\n      add\n      dup3\n      dup1\n      sload\n      tag_82\n      swap1\n      tag_81\n      jump\t// in\n    tag_82:\n      dup1\n      iszero\n      tag_83\n      jumpi\n      dup1\n      0x1f\n      lt\n      tag_84\n      jumpi\n      0x0100\n      dup1\n      dup4\n      sload\n      div\n      mul\n      dup4\n      mstore\n      swap2\n      0x20\n      add\n      swap2\n      jump(tag_83)\n    tag_84:\n      dup3\n      add\n      swap2\n      swap1\n      0x00\n      mstore\n      keccak256(0x00, 0x20)\n      swap1\n    tag_85:\n      dup2\n      sload\n      dup2\n      mstore\n      swap1\n      0x01\n      add\n      swap1\n      0x20\n      add\n      dup1\n      dup4\n      gt\n      tag_85\n      jumpi\n      dup3\n      swap1\n      sub\n      0x1f\n      and\n      dup3\n      add\n      swap2\n    tag_83:\n      pop\n      pop\n      pop\n      pop\n      pop\n      dup2\n      mstore\n      pop\n      pop\n      swap1\n      pop\n        /* \"contracts/MultiSigWallet.sol\":1515:1526  transaction */\n      dup1\n        /* \"contracts/MultiSigWallet.sol\":1515:1535  transaction.executed */\n      0x40\n      add\n      mload\n        /* \"contracts/MultiSigWallet.sol\":1514:1535  !transaction.executed */\n      iszero\n        /* \"contracts/MultiSigWallet.sol\":1506:1568  require(!transaction.executed, \"Transaction Already Executed\") */\n      tag_86\n      jumpi\n      mload(0x40)\n      0x08c379a000000000000000000000000000000000000000000000000000000000\n      dup2\n      mstore\n      0x04\n      add\n      tag_87\n      swap1\n      tag_88\n      jump\t// in\n    tag_87:\n      mload(0x40)\n      dup1\n      swap2\n      sub\n      swap1\n      revert\n    tag_86:\n        /* \"contracts/MultiSigWallet.sol\":2236:2240  true */\n      0x01\n        /* \"contracts/MultiSigWallet.sol\":2206:2214  approval */\n      0x03\n        /* \"contracts/MultiSigWallet.sol\":2206:2221  approval[_txId] */\n      0x00\n        /* \"contracts/MultiSigWallet.sol\":2215:2220  _txId */\n      dup8\n        /* \"contracts/MultiSigWallet.sol\":2206:2221  approval[_txId] */\n      dup2\n      mstore\n      0x20\n      add\n      swap1\n      dup2\n      mstore\n      0x20\n      add\n      0x00\n      keccak256\n        /* \"contracts/MultiSigWallet.sol\":2206:2233  approval[_txId][msg.sender] */\n      0x00\n        /* \"contracts/MultiSigWallet.sol\":2222:2232  msg.sender */\n      caller\n        /* \"contracts/MultiSigWallet.sol\":2206:2233  approval[_txId][msg.sender] */\n      0xffffffffffffffffffffffffffffffffffffffff\n      and\n      0xffffffffffffffffffffffffffffffffffffffff\n      and\n      dup2\n      mstore\n      0x20\n      add\n      swap1\n      dup2\n      mstore\n      0x20\n      add\n      0x00\n      keccak256\n      0x00\n        /* \"contracts/MultiSigWallet.sol\":2206:2240  approval[_txId][msg.sender] = true */\n      0x0100\n      exp\n      dup2\n      sload\n      dup2\n      0xff\n      mul\n      not\n      and\n      swap1\n      dup4\n      iszero\n      iszero\n      mul\n      or\n      swap1\n      sstore\n      pop\n        /* \"contracts/MultiSigWallet.sol\":2256:2282  Approve(_txId, msg.sender) */\n      0x47ad3e4b0f4bdbe3ac08708bbc45053d2ff616911b39e65563fd9bd781909645\n        /* \"contracts/MultiSigWallet.sol\":2264:2269  _txId */\n      dup6\n        /* \"contracts/MultiSigWallet.sol\":2271:2281  msg.sender */\n      caller\n        /* \"contracts/MultiSigWallet.sol\":2256:2282  Approve(_txId, msg.sender) */\n      mload(0x40)\n      tag_90\n      swap3\n      swap2\n      swap1\n      tag_91\n      jump\t// in\n    tag_90:\n      mload(0x40)\n      dup1\n      swap2\n      sub\n      swap1\n      log1\n        /* \"contracts/MultiSigWallet.sol\":1432:1588  {... */\n      pop\n        /* \"contracts/MultiSigWallet.sol\":1248:1249  _ */\n      pop\n        /* \"contracts/MultiSigWallet.sol\":998:999  _ */\n      pop\n        /* \"contracts/MultiSigWallet.sol\":2081:2292  function approveTransaction(uint _txId) external notApproved(_txId) existTrans(_txId) onlyOwner isNotExec(_txId){... */\n      pop\n      pop\n      jump\t// out\n        /* \"contracts/MultiSigWallet.sol\":237:276  mapping(address => bool) public isOwner */\n    tag_31:\n      mstore(0x20, 0x01)\n      dup1\n      0x00\n      mstore\n      keccak256(0x00, 0x40)\n      0x00\n      swap2\n      pop\n      sload\n      swap1\n      0x0100\n      exp\n      swap1\n      div\n      0xff\n      and\n      dup2\n      jump\t// out\n        /* \"contracts/MultiSigWallet.sol\":498:531  Transaction[] public transactions */\n    tag_37:\n      0x04\n      dup2\n      dup2\n      sload\n      dup2\n      lt\n      tag_92\n      jumpi\n      0x00\n      dup1\n      revert\n    tag_92:\n      swap1\n      0x00\n      mstore\n      keccak256(0x00, 0x20)\n      swap1\n      0x04\n      mul\n      add\n      0x00\n      swap2\n      pop\n      swap1\n      pop\n      dup1\n      0x00\n      add\n      0x00\n      swap1\n      sload\n      swap1\n      0x0100\n      exp\n      swap1\n      div\n      0xffffffffffffffffffffffffffffffffffffffff\n      and\n      swap1\n      dup1\n      0x01\n      add\n      sload\n      swap1\n      dup1\n      0x02\n      add\n      0x00\n      swap1\n      sload\n      swap1\n      0x0100\n      exp\n      swap1\n      div\n      0xff\n      and\n      swap1\n      dup1\n      0x03\n      add\n      dup1\n      sload\n      tag_94\n      swap1\n      tag_81\n      jump\t// in\n    tag_94:\n      dup1\n      0x1f\n      add\n      0x20\n      dup1\n      swap2\n      div\n      mul\n      0x20\n      add\n      mload(0x40)\n      swap1\n      dup2\n      add\n      0x40\n      mstore\n      dup1\n      swap3\n      swap2\n      swap1\n      dup2\n      dup2\n      mstore\n      0x20\n      add\n      dup3\n      dup1\n      sload\n      tag_95\n      swap1\n      tag_81\n      jump\t// in\n    tag_95:\n      dup1\n      iszero\n      tag_96\n      jumpi\n      dup1\n      0x1f\n      lt\n      tag_97\n      jumpi\n      0x0100\n      dup1\n      dup4\n      sload\n      div\n      mul\n      dup4\n      mstore\n      swap2\n      0x20\n      add\n      swap2\n      jump(tag_96)\n    tag_97:\n      dup3\n      add\n      swap2\n      swap1\n      0x00\n      mstore\n      keccak256(0x00, 0x20)\n      swap1\n    tag_98:\n      dup2\n      sload\n      dup2\n      mstore\n      swap1\n      0x01\n      add\n      swap1\n      0x20\n      add\n      dup1\n      dup4\n      gt\n      tag_98\n      jumpi\n      dup3\n      swap1\n      sub\n      0x1f\n      and\n      dup3\n      add\n      swap2\n    tag_96:\n      pop\n      pop\n      pop\n      pop\n      pop\n      swap1\n      pop\n      dup5\n      jump\t// out\n        /* \"contracts/MultiSigWallet.sol\":2300:2504  function revokeApproval(uint _txId) external isApproved(_txId) existTrans(_txId) onlyOwner isNotExec(_txId){... */\n    tag_43:\n        /* \"contracts/MultiSigWallet.sol\":2356:2361  _txId */\n      dup1\n        /* \"contracts/MultiSigWallet.sol\":1315:1323  approval */\n      0x03\n        /* \"contracts/MultiSigWallet.sol\":1315:1330  approval[_txId] */\n      0x00\n        /* \"contracts/MultiSigWallet.sol\":1324:1329  _txId */\n      dup3\n        /* \"contracts/MultiSigWallet.sol\":1315:1330  approval[_txId] */\n      dup2\n      mstore\n      0x20\n      add\n      swap1\n      dup2\n      mstore\n      0x20\n      add\n      0x00\n      keccak256\n        /* \"contracts/MultiSigWallet.sol\":1315:1342  approval[_txId][msg.sender] */\n      0x00\n        /* \"contracts/MultiSigWallet.sol\":1331:1341  msg.sender */\n      caller\n        /* \"contracts/MultiSigWallet.sol\":1315:1342  approval[_txId][msg.sender] */\n      0xffffffffffffffffffffffffffffffffffffffff\n      and\n      0xffffffffffffffffffffffffffffffffffffffff\n      and\n      dup2\n      mstore\n      0x20\n      add\n      swap1\n      dup2\n      mstore\n      0x20\n      add\n      0x00\n      keccak256\n      0x00\n      swap1\n      sload\n      swap1\n      0x0100\n      exp\n      swap1\n      div\n      0xff\n      and\n        /* \"contracts/MultiSigWallet.sol\":1307:1374  require(approval[_txId][msg.sender], \"Transaction Not Approved...\") */\n      tag_100\n      jumpi\n      mload(0x40)\n      0x08c379a000000000000000000000000000000000000000000000000000000000\n      dup2\n      mstore\n      0x04\n      add\n      tag_101\n      swap1\n      tag_102\n      jump\t// in\n    tag_101:\n      mload(0x40)\n      dup1\n      swap2\n      sub\n      swap1\n      revert\n    tag_100:\n        /* \"contracts/MultiSigWallet.sol\":2374:2379  _txId */\n      dup2\n        /* \"contracts/MultiSigWallet.sol\":1097:1098  1 */\n      0x01\n        /* \"contracts/MultiSigWallet.sol\":1075:1087  transactions */\n      0x04\n        /* \"contracts/MultiSigWallet.sol\":1075:1094  transactions.length */\n      dup1\n      sload\n      swap1\n      pop\n        /* \"contracts/MultiSigWallet.sol\":1075:1098  transactions.length - 1 */\n      tag_104\n      swap2\n      swap1\n      tag_67\n      jump\t// in\n    tag_104:\n        /* \"contracts/MultiSigWallet.sol\":1066:1071  _txId */\n      dup2\n        /* \"contracts/MultiSigWallet.sol\":1066:1098  _txId <= transactions.length - 1 */\n      gt\n      iszero\n        /* \"contracts/MultiSigWallet.sol\":1058:1131  require(_txId <= transactions.length - 1,\"Transaction Does not Exist...\") */\n      tag_105\n      jumpi\n      mload(0x40)\n      0x08c379a000000000000000000000000000000000000000000000000000000000\n      dup2\n      mstore\n      0x04\n      add\n      tag_106\n      swap1\n      tag_70\n      jump\t// in\n    tag_106:\n      mload(0x40)\n      dup1\n      swap2\n      sub\n      swap1\n      revert\n    tag_105:\n        /* \"contracts/MultiSigWallet.sol\":1196:1203  isOwner */\n      0x01\n        /* \"contracts/MultiSigWallet.sol\":1196:1215  isOwner[msg.sender] */\n      0x00\n        /* \"contracts/MultiSigWallet.sol\":1204:1214  msg.sender */\n      caller\n        /* \"contracts/MultiSigWallet.sol\":1196:1215  isOwner[msg.sender] */\n      0xffffffffffffffffffffffffffffffffffffffff\n      and\n      0xffffffffffffffffffffffffffffffffffffffff\n      and\n      dup2\n      mstore\n      0x20\n      add\n      swap1\n      dup2\n      mstore\n      0x20\n      add\n      0x00\n      keccak256\n      0x00\n      swap1\n      sload\n      swap1\n      0x0100\n      exp\n      swap1\n      div\n      0xff\n      and\n        /* \"contracts/MultiSigWallet.sol\":1188:1237  require(isOwner[msg.sender] ,\"Not the Owner....\") */\n      tag_108\n      jumpi\n      mload(0x40)\n      0x08c379a000000000000000000000000000000000000000000000000000000000\n      dup2\n      mstore\n      0x04\n      add\n      tag_109\n      swap1\n      tag_74\n      jump\t// in\n    tag_109:\n      mload(0x40)\n      dup1\n      swap2\n      sub\n      swap1\n      revert\n    tag_108:\n        /* \"contracts/MultiSigWallet.sol\":2401:2406  _txId */\n      dup3\n        /* \"contracts/MultiSigWallet.sol\":1443:1473  Transaction memory transaction */\n      0x00\n        /* \"contracts/MultiSigWallet.sol\":1476:1488  transactions */\n      0x04\n        /* \"contracts/MultiSigWallet.sol\":1489:1494  _txId */\n      dup3\n        /* \"contracts/MultiSigWallet.sol\":1476:1495  transactions[_txId] */\n      dup2\n      sload\n      dup2\n      lt\n      tag_111\n      jumpi\n      tag_112\n      tag_78\n      jump\t// in\n    tag_112:\n    tag_111:\n      swap1\n      0x00\n      mstore\n      keccak256(0x00, 0x20)\n      swap1\n      0x04\n      mul\n      add\n        /* \"contracts/MultiSigWallet.sol\":1443:1495  Transaction memory transaction = transactions[_txId] */\n      mload(0x40)\n      dup1\n      0x80\n      add\n      0x40\n      mstore\n      swap1\n      dup2\n      0x00\n      dup3\n      add\n      0x00\n      swap1\n      sload\n      swap1\n      0x0100\n      exp\n      swap1\n      div\n      0xffffffffffffffffffffffffffffffffffffffff\n      and\n      0xffffffffffffffffffffffffffffffffffffffff\n      and\n      0xffffffffffffffffffffffffffffffffffffffff\n      and\n      dup2\n      mstore\n      0x20\n      add\n      0x01\n      dup3\n      add\n      sload\n      dup2\n      mstore\n      0x20\n      add\n      0x02\n      dup3\n      add\n      0x00\n      swap1\n      sload\n      swap1\n      0x0100\n      exp\n      swap1\n      div\n      0xff\n      and\n      iszero\n      iszero\n      iszero\n      iszero\n      dup2\n      mstore\n      0x20\n      add\n      0x03\n      dup3\n      add\n      dup1\n      sload\n      tag_114\n      swap1\n      tag_81\n      jump\t// in\n    tag_114:\n      dup1\n      0x1f\n      add\n      0x20\n      dup1\n      swap2\n      div\n      mul\n      0x20\n      add\n      mload(0x40)\n      swap1\n      dup2\n      add\n      0x40\n      mstore\n      dup1\n      swap3\n      swap2\n      swap1\n      dup2\n      dup2\n      mstore\n      0x20\n      add\n      dup3\n      dup1\n      sload\n      tag_115\n      swap1\n      tag_81\n      jump\t// in\n    tag_115:\n      dup1\n      iszero\n      tag_116\n      jumpi\n      dup1\n      0x1f\n      lt\n      tag_117\n      jumpi\n      0x0100\n      dup1\n      dup4\n      sload\n      div\n      mul\n      dup4\n      mstore\n      swap2\n      0x20\n      add\n      swap2\n      jump(tag_116)\n    tag_117:\n      dup3\n      add\n      swap2\n      swap1\n      0x00\n      mstore\n      keccak256(0x00, 0x20)\n      swap1\n    tag_118:\n      dup2\n      sload\n      dup2\n      mstore\n      swap1\n      0x01\n      add\n      swap1\n      0x20\n      add\n      dup1\n      dup4\n      gt\n      tag_118\n      jumpi\n      dup3\n      swap1\n      sub\n      0x1f\n      and\n      dup3\n      add\n      swap2\n    tag_116:\n      pop\n      pop\n      pop\n      pop\n      pop\n      dup2\n      mstore\n      pop\n      pop\n      swap1\n      pop\n        /* \"contracts/MultiSigWallet.sol\":1515:1526  transaction */\n      dup1\n        /* \"contracts/MultiSigWallet.sol\":1515:1535  transaction.executed */\n      0x40\n      add\n      mload\n        /* \"contracts/MultiSigWallet.sol\":1514:1535  !transaction.executed */\n      iszero\n        /* \"contracts/MultiSigWallet.sol\":1506:1568  require(!transaction.executed, \"Transaction Already Executed\") */\n      tag_119\n      jumpi\n      mload(0x40)\n      0x08c379a000000000000000000000000000000000000000000000000000000000\n      dup2\n      mstore\n      0x04\n      add\n      tag_120\n      swap1\n      tag_88\n      jump\t// in\n    tag_120:\n      mload(0x40)\n      dup1\n      swap2\n      sub\n      swap1\n      revert\n    tag_119:\n        /* \"contracts/MultiSigWallet.sol\":2450:2455  false */\n      0x00\n        /* \"contracts/MultiSigWallet.sol\":2420:2428  approval */\n      0x03\n        /* \"contracts/MultiSigWallet.sol\":2420:2435  approval[_txId] */\n      0x00\n        /* \"contracts/MultiSigWallet.sol\":2429:2434  _txId */\n      dup8\n        /* \"contracts/MultiSigWallet.sol\":2420:2435  approval[_txId] */\n      dup2\n      mstore\n      0x20\n      add\n      swap1\n      dup2\n      mstore\n      0x20\n      add\n      0x00\n      keccak256\n        /* \"contracts/MultiSigWallet.sol\":2420:2447  approval[_txId][msg.sender] */\n      0x00\n        /* \"contracts/MultiSigWallet.sol\":2436:2446  msg.sender */\n      caller\n        /* \"contracts/MultiSigWallet.sol\":2420:2447  approval[_txId][msg.sender] */\n      0xffffffffffffffffffffffffffffffffffffffff\n      and\n      0xffffffffffffffffffffffffffffffffffffffff\n      and\n      dup2\n      mstore\n      0x20\n      add\n      swap1\n      dup2\n      mstore\n      0x20\n      add\n      0x00\n      keccak256\n      0x00\n        /* \"contracts/MultiSigWallet.sol\":2420:2455  approval[_txId][msg.sender] = false */\n      0x0100\n      exp\n      dup2\n      sload\n      dup2\n      0xff\n      mul\n      not\n      and\n      swap1\n      dup4\n      iszero\n      iszero\n      mul\n      or\n      swap1\n      sstore\n      pop\n        /* \"contracts/MultiSigWallet.sol\":2471:2496  Revoke(_txId, msg.sender) */\n      0xd5d64031e0f55cf42bc3b7d0462f8404a4d63f7ccf84be9510cd6a5300552e42\n        /* \"contracts/MultiSigWallet.sol\":2478:2483  _txId */\n      dup6\n        /* \"contracts/MultiSigWallet.sol\":2485:2495  msg.sender */\n      caller\n        /* \"contracts/MultiSigWallet.sol\":2471:2496  Revoke(_txId, msg.sender) */\n      mload(0x40)\n      tag_122\n      swap3\n      swap2\n      swap1\n      tag_91\n      jump\t// in\n    tag_122:\n      mload(0x40)\n      dup1\n      swap2\n      sub\n      swap1\n      log1\n        /* \"contracts/MultiSigWallet.sol\":1432:1588  {... */\n      pop\n        /* \"contracts/MultiSigWallet.sol\":1248:1249  _ */\n      pop\n        /* \"contracts/MultiSigWallet.sol\":1385:1386  _ */\n      pop\n        /* \"contracts/MultiSigWallet.sol\":2300:2504  function revokeApproval(uint _txId) external isApproved(_txId) existTrans(_txId) onlyOwner isNotExec(_txId){... */\n      pop\n      pop\n      jump\t// out\n        /* \"contracts/MultiSigWallet.sol\":311:368  mapping(uint => mapping(address => bool)) public approval */\n    tag_48:\n      mstore(0x20, 0x03)\n      dup2\n      0x00\n      mstore\n      mstore(0x20, keccak256(0x00, 0x40))\n      dup1\n      0x00\n      mstore\n      keccak256(0x00, 0x40)\n      0x00\n      swap2\n      pop\n      swap2\n      pop\n      swap1\n      sload\n      swap1\n      0x0100\n      exp\n      swap1\n      div\n      0xff\n      and\n      dup2\n      jump\t// out\n        /* \"contracts/MultiSigWallet.sol\":1908:2073  function makeTransaction(address _to, uint _value,bytes calldata _data) external onlyOwner{... */\n    tag_54:\n        /* \"contracts/MultiSigWallet.sol\":1196:1203  isOwner */\n      0x01\n        /* \"contracts/MultiSigWallet.sol\":1196:1215  isOwner[msg.sender] */\n      0x00\n        /* \"contracts/MultiSigWallet.sol\":1204:1214  msg.sender */\n      caller\n        /* \"contracts/MultiSigWallet.sol\":1196:1215  isOwner[msg.sender] */\n      0xffffffffffffffffffffffffffffffffffffffff\n      and\n      0xffffffffffffffffffffffffffffffffffffffff\n      and\n      dup2\n      mstore\n      0x20\n      add\n      swap1\n      dup2\n      mstore\n      0x20\n      add\n      0x00\n      keccak256\n      0x00\n      swap1\n      sload\n      swap1\n      0x0100\n      exp\n      swap1\n      div\n      0xff\n      and\n        /* \"contracts/MultiSigWallet.sol\":1188:1237  require(isOwner[msg.sender] ,\"Not the Owner....\") */\n      tag_124\n      jumpi\n      mload(0x40)\n      0x08c379a000000000000000000000000000000000000000000000000000000000\n      dup2\n      mstore\n      0x04\n      add\n      tag_125\n      swap1\n      tag_74\n      jump\t// in\n    tag_125:\n      mload(0x40)\n      dup1\n      swap2\n      sub\n      swap1\n      revert\n    tag_124:\n        /* \"contracts/MultiSigWallet.sol\":2009:2021  transactions */\n      0x04\n        /* \"contracts/MultiSigWallet.sol\":2027:2062  Transaction(_to,_value,false,_data) */\n      mload(0x40)\n      dup1\n      0x80\n      add\n      0x40\n      mstore\n      dup1\n        /* \"contracts/MultiSigWallet.sol\":2039:2042  _to */\n      dup7\n        /* \"contracts/MultiSigWallet.sol\":2027:2062  Transaction(_to,_value,false,_data) */\n      0xffffffffffffffffffffffffffffffffffffffff\n      and\n      dup2\n      mstore\n      0x20\n      add\n        /* \"contracts/MultiSigWallet.sol\":2043:2049  _value */\n      dup6\n        /* \"contracts/MultiSigWallet.sol\":2027:2062  Transaction(_to,_value,false,_data) */\n      dup2\n      mstore\n      0x20\n      add\n        /* \"contracts/MultiSigWallet.sol\":2050:2055  false */\n      0x00\n        /* \"contracts/MultiSigWallet.sol\":2027:2062  Transaction(_to,_value,false,_data) */\n      iszero\n      iszero\n      dup2\n      mstore\n      0x20\n      add\n        /* \"contracts/MultiSigWallet.sol\":2056:2061  _data */\n      dup5\n      dup5\n        /* \"contracts/MultiSigWallet.sol\":2027:2062  Transaction(_to,_value,false,_data) */\n      dup1\n      dup1\n      0x1f\n      add\n      0x20\n      dup1\n      swap2\n      div\n      mul\n      0x20\n      add\n      mload(0x40)\n      swap1\n      dup2\n      add\n      0x40\n      mstore\n      dup1\n      swap4\n      swap3\n      swap2\n      swap1\n      dup2\n      dup2\n      mstore\n      0x20\n      add\n      dup4\n      dup4\n      dup1\n      dup3\n      dup5\n      calldatacopy\n      0x00\n      dup2\n      dup5\n      add\n      mstore\n      not(0x1f)\n      0x1f\n      dup3\n      add\n      and\n      swap1\n      pop\n      dup1\n      dup4\n      add\n      swap3\n      pop\n      pop\n      pop\n      pop\n      pop\n      pop\n      pop\n      dup2\n      mstore\n      pop\n        /* \"contracts/MultiSigWallet.sol\":2009:2063  transactions.push(Transaction(_to,_value,false,_data)) */\n      swap1\n      dup1\n      0x01\n      dup2\n      sload\n      add\n      dup1\n      dup3\n      sstore\n      dup1\n      swap2\n      pop\n      pop\n      0x01\n      swap1\n      sub\n      swap1\n      0x00\n      mstore\n      keccak256(0x00, 0x20)\n      swap1\n      0x04\n      mul\n      add\n      0x00\n      swap1\n      swap2\n      swap1\n      swap2\n      swap1\n      swap2\n      pop\n      0x00\n      dup3\n      add\n      mload\n      dup2\n      0x00\n      add\n      exp(0x0100, 0x00)\n      dup2\n      sload\n      dup2\n      0xffffffffffffffffffffffffffffffffffffffff\n      mul\n      not\n      and\n      swap1\n      dup4\n      0xffffffffffffffffffffffffffffffffffffffff\n      and\n      mul\n      or\n      swap1\n      sstore\n      pop\n      0x20\n      dup3\n      add\n      mload\n      dup2\n      0x01\n      add\n      sstore\n      0x40\n      dup3\n      add\n      mload\n      dup2\n      0x02\n      add\n      exp(0x0100, 0x00)\n      dup2\n      sload\n      dup2\n      0xff\n      mul\n      not\n      and\n      swap1\n      dup4\n      iszero\n      iszero\n      mul\n      or\n      swap1\n      sstore\n      pop\n      0x60\n      dup3\n      add\n      mload\n      dup2\n      0x03\n      add\n      swap1\n      dup2\n      tag_128\n      swap2\n      swap1\n      tag_129\n      jump\t// in\n    tag_128:\n      pop\n      pop\n      pop\n        /* \"contracts/MultiSigWallet.sol\":1908:2073  function makeTransaction(address _to, uint _value,bytes calldata _data) external onlyOwner{... */\n      pop\n      pop\n      pop\n      pop\n      jump\t// out\n        /* \"contracts/MultiSigWallet.sol\":2512:2948  function executeTransaction(uint _txId) external existTrans(_txId) onlyOwner isNotExec(_txId) {... */\n    tag_58:\n        /* \"contracts/MultiSigWallet.sol\":2572:2577  _txId */\n      dup1\n        /* \"contracts/MultiSigWallet.sol\":1097:1098  1 */\n      0x01\n        /* \"contracts/MultiSigWallet.sol\":1075:1087  transactions */\n      0x04\n        /* \"contracts/MultiSigWallet.sol\":1075:1094  transactions.length */\n      dup1\n      sload\n      swap1\n      pop\n        /* \"contracts/MultiSigWallet.sol\":1075:1098  transactions.length - 1 */\n      tag_131\n      swap2\n      swap1\n      tag_67\n      jump\t// in\n    tag_131:\n        /* \"contracts/MultiSigWallet.sol\":1066:1071  _txId */\n      dup2\n        /* \"contracts/MultiSigWallet.sol\":1066:1098  _txId <= transactions.length - 1 */\n      gt\n      iszero\n        /* \"contracts/MultiSigWallet.sol\":1058:1131  require(_txId <= transactions.length - 1,\"Transaction Does not Exist...\") */\n      tag_132\n      jumpi\n      mload(0x40)\n      0x08c379a000000000000000000000000000000000000000000000000000000000\n      dup2\n      mstore\n      0x04\n      add\n      tag_133\n      swap1\n      tag_70\n      jump\t// in\n    tag_133:\n      mload(0x40)\n      dup1\n      swap2\n      sub\n      swap1\n      revert\n    tag_132:\n        /* \"contracts/MultiSigWallet.sol\":1196:1203  isOwner */\n      0x01\n        /* \"contracts/MultiSigWallet.sol\":1196:1215  isOwner[msg.sender] */\n      0x00\n        /* \"contracts/MultiSigWallet.sol\":1204:1214  msg.sender */\n      caller\n        /* \"contracts/MultiSigWallet.sol\":1196:1215  isOwner[msg.sender] */\n      0xffffffffffffffffffffffffffffffffffffffff\n      and\n      0xffffffffffffffffffffffffffffffffffffffff\n      and\n      dup2\n      mstore\n      0x20\n      add\n      swap1\n      dup2\n      mstore\n      0x20\n      add\n      0x00\n      keccak256\n      0x00\n      swap1\n      sload\n      swap1\n      0x0100\n      exp\n      swap1\n      div\n      0xff\n      and\n        /* \"contracts/MultiSigWallet.sol\":1188:1237  require(isOwner[msg.sender] ,\"Not the Owner....\") */\n      tag_135\n      jumpi\n      mload(0x40)\n      0x08c379a000000000000000000000000000000000000000000000000000000000\n      dup2\n      mstore\n      0x04\n      add\n      tag_136\n      swap1\n      tag_74\n      jump\t// in\n    tag_136:\n      mload(0x40)\n      dup1\n      swap2\n      sub\n      swap1\n      revert\n    tag_135:\n        /* \"contracts/MultiSigWallet.sol\":2599:2604  _txId */\n      dup2\n        /* \"contracts/MultiSigWallet.sol\":1443:1473  Transaction memory transaction */\n      0x00\n        /* \"contracts/MultiSigWallet.sol\":1476:1488  transactions */\n      0x04\n        /* \"contracts/MultiSigWallet.sol\":1489:1494  _txId */\n      dup3\n        /* \"contracts/MultiSigWallet.sol\":1476:1495  transactions[_txId] */\n      dup2\n      sload\n      dup2\n      lt\n      tag_138\n      jumpi\n      tag_139\n      tag_78\n      jump\t// in\n    tag_139:\n    tag_138:\n      swap1\n      0x00\n      mstore\n      keccak256(0x00, 0x20)\n      swap1\n      0x04\n      mul\n      add\n        /* \"contracts/MultiSigWallet.sol\":1443:1495  Transaction memory transaction = transactions[_txId] */\n      mload(0x40)\n      dup1\n      0x80\n      add\n      0x40\n      mstore\n      swap1\n      dup2\n      0x00\n      dup3\n      add\n      0x00\n      swap1\n      sload\n      swap1\n      0x0100\n      exp\n      swap1\n      div\n      0xffffffffffffffffffffffffffffffffffffffff\n      and\n      0xffffffffffffffffffffffffffffffffffffffff\n      and\n      0xffffffffffffffffffffffffffffffffffffffff\n      and\n      dup2\n      mstore\n      0x20\n      add\n      0x01\n      dup3\n      add\n      sload\n      dup2\n      mstore\n      0x20\n      add\n      0x02\n      dup3\n      add\n      0x00\n      swap1\n      sload\n      swap1\n      0x0100\n      exp\n      swap1\n      div\n      0xff\n      and\n      iszero\n      iszero\n      iszero\n      iszero\n      dup2\n      mstore\n      0x20\n      add\n      0x03\n      dup3\n      add\n      dup1\n      sload\n      tag_141\n      swap1\n      tag_81\n      jump\t// in\n    tag_141:\n      dup1\n      0x1f\n      add\n      0x20\n      dup1\n      swap2\n      div\n      mul\n      0x20\n      add\n      mload(0x40)\n      swap1\n      dup2\n      add\n      0x40\n      mstore\n      dup1\n      swap3\n      swap2\n      swap1\n      dup2\n      dup2\n      mstore\n      0x20\n      add\n      dup3\n      dup1\n      sload\n      tag_142\n      swap1\n      tag_81\n      jump\t// in\n    tag_142:\n      dup1\n      iszero\n      tag_143\n      jumpi\n      dup1\n      0x1f\n      lt\n      tag_144\n      jumpi\n      0x0100\n      dup1\n      dup4\n      sload\n      div\n      mul\n      dup4\n      mstore\n      swap2\n      0x20\n      add\n      swap2\n      jump(tag_143)\n    tag_144:\n      dup3\n      add\n      swap2\n      swap1\n      0x00\n      mstore\n      keccak256(0x00, 0x20)\n      swap1\n    tag_145:\n      dup2\n      sload\n      dup2\n      mstore\n      swap1\n      0x01\n      add\n      swap1\n      0x20\n      add\n      dup1\n      dup4\n      gt\n      tag_145\n      jumpi\n      dup3\n      swap1\n      sub\n      0x1f\n      and\n      dup3\n      add\n      swap2\n    tag_143:\n      pop\n      pop\n      pop\n      pop\n      pop\n      dup2\n      mstore\n      pop\n      pop\n      swap1\n      pop\n        /* \"contracts/MultiSigWallet.sol\":1515:1526  transaction */\n      dup1\n        /* \"contracts/MultiSigWallet.sol\":1515:1535  transaction.executed */\n      0x40\n      add\n      mload\n        /* \"contracts/MultiSigWallet.sol\":1514:1535  !transaction.executed */\n      iszero\n        /* \"contracts/MultiSigWallet.sol\":1506:1568  require(!transaction.executed, \"Transaction Already Executed\") */\n      tag_146\n      jumpi\n      mload(0x40)\n      0x08c379a000000000000000000000000000000000000000000000000000000000\n      dup2\n      mstore\n      0x04\n      add\n      tag_147\n      swap1\n      tag_88\n      jump\t// in\n    tag_147:\n      mload(0x40)\n      dup1\n      swap2\n      sub\n      swap1\n      revert\n    tag_146:\n        /* \"contracts/MultiSigWallet.sol\":2643:2651  required */\n      sload(0x02)\n        /* \"contracts/MultiSigWallet.sol\":2625:2639  canExec(_txId) */\n      tag_149\n        /* \"contracts/MultiSigWallet.sol\":2633:2638  _txId */\n      dup6\n        /* \"contracts/MultiSigWallet.sol\":2625:2632  canExec */\n      tag_150\n        /* \"contracts/MultiSigWallet.sol\":2625:2639  canExec(_txId) */\n      jump\t// in\n    tag_149:\n        /* \"contracts/MultiSigWallet.sol\":2625:2651  canExec(_txId) >= required */\n      lt\n      iszero\n        /* \"contracts/MultiSigWallet.sol\":2617:2679  require(canExec(_txId) >= required, \"Not Enough Approvals...\") */\n      tag_151\n      jumpi\n      mload(0x40)\n      0x08c379a000000000000000000000000000000000000000000000000000000000\n      dup2\n      mstore\n      0x04\n      add\n      tag_152\n      swap1\n      tag_153\n      jump\t// in\n    tag_152:\n      mload(0x40)\n      dup1\n      swap2\n      sub\n      swap1\n      revert\n    tag_151:\n        /* \"contracts/MultiSigWallet.sol\":2690:2721  Transaction storage transaction */\n      0x00\n        /* \"contracts/MultiSigWallet.sol\":2724:2736  transactions */\n      0x04\n        /* \"contracts/MultiSigWallet.sol\":2737:2742  _txId */\n      dup6\n        /* \"contracts/MultiSigWallet.sol\":2724:2743  transactions[_txId] */\n      dup2\n      sload\n      dup2\n      lt\n      tag_154\n      jumpi\n      tag_155\n      tag_78\n      jump\t// in\n    tag_155:\n    tag_154:\n      swap1\n      0x00\n      mstore\n      keccak256(0x00, 0x20)\n      swap1\n      0x04\n      mul\n      add\n        /* \"contracts/MultiSigWallet.sol\":2690:2743  Transaction storage transaction = transactions[_txId] */\n      swap1\n      pop\n        /* \"contracts/MultiSigWallet.sol\":2756:2768  bool success */\n      0x00\n        /* \"contracts/MultiSigWallet.sol\":2774:2785  transaction */\n      dup2\n        /* \"contracts/MultiSigWallet.sol\":2774:2788  transaction.to */\n      0x00\n      add\n      0x00\n      swap1\n      sload\n      swap1\n      0x0100\n      exp\n      swap1\n      div\n      0xffffffffffffffffffffffffffffffffffffffff\n      and\n        /* \"contracts/MultiSigWallet.sol\":2774:2793  transaction.to.call */\n      0xffffffffffffffffffffffffffffffffffffffff\n      and\n        /* \"contracts/MultiSigWallet.sol\":2801:2812  transaction */\n      dup3\n        /* \"contracts/MultiSigWallet.sol\":2801:2818  transaction.value */\n      0x01\n      add\n      sload\n        /* \"contracts/MultiSigWallet.sol\":2820:2831  transaction */\n      dup4\n        /* \"contracts/MultiSigWallet.sol\":2820:2836  transaction.data */\n      0x03\n      add\n        /* \"contracts/MultiSigWallet.sol\":2774:2837  transaction.to.call{value: transaction.value}(transaction.data) */\n      mload(0x40)\n      tag_157\n      swap2\n      swap1\n      tag_158\n      jump\t// in\n    tag_157:\n      0x00\n      mload(0x40)\n      dup1\n      dup4\n      sub\n      dup2\n      dup6\n      dup8\n      gas\n      call\n      swap3\n      pop\n      pop\n      pop\n      returndatasize\n      dup1\n      0x00\n      dup2\n      eq\n      tag_161\n      jumpi\n      mload(0x40)\n      swap2\n      pop\n      and(add(returndatasize, 0x3f), not(0x1f))\n      dup3\n      add\n      0x40\n      mstore\n      returndatasize\n      dup3\n      mstore\n      returndatasize\n      0x00\n      0x20\n      dup5\n      add\n      returndatacopy\n      jump(tag_160)\n    tag_161:\n      0x60\n      swap2\n      pop\n    tag_160:\n      pop\n        /* \"contracts/MultiSigWallet.sol\":2755:2837  (bool success, ) = transaction.to.call{value: transaction.value}(transaction.data) */\n      pop\n      swap1\n      pop\n        /* \"contracts/MultiSigWallet.sol\":2858:2865  success */\n      dup1\n        /* \"contracts/MultiSigWallet.sol\":2850:2892  require(success, \"Transaction Incomplete\") */\n      tag_162\n      jumpi\n      mload(0x40)\n      0x08c379a000000000000000000000000000000000000000000000000000000000\n      dup2\n      mstore\n      0x04\n      add\n      tag_163\n      swap1\n      tag_164\n      jump\t// in\n    tag_163:\n      mload(0x40)\n      dup1\n      swap2\n      sub\n      swap1\n      revert\n    tag_162:\n        /* \"contracts/MultiSigWallet.sol\":2926:2930  true */\n      0x01\n        /* \"contracts/MultiSigWallet.sol\":2903:2914  transaction */\n      dup3\n        /* \"contracts/MultiSigWallet.sol\":2903:2923  transaction.executed */\n      0x02\n      add\n      0x00\n        /* \"contracts/MultiSigWallet.sol\":2903:2930  transaction.executed = true */\n      0x0100\n      exp\n      dup2\n      sload\n      dup2\n      0xff\n      mul\n      not\n      and\n      swap1\n      dup4\n      iszero\n      iszero\n      mul\n      or\n      swap1\n      sstore\n      pop\n        /* \"contracts/MultiSigWallet.sol\":2606:2948  {... */\n      pop\n      pop\n        /* \"contracts/MultiSigWallet.sol\":1432:1588  {... */\n      pop\n        /* \"contracts/MultiSigWallet.sol\":1248:1249  _ */\n      pop\n        /* \"contracts/MultiSigWallet.sol\":2512:2948  function executeTransaction(uint _txId) external existTrans(_txId) onlyOwner isNotExec(_txId) {... */\n      pop\n      pop\n      jump\t// out\n        /* \"contracts/MultiSigWallet.sol\":1596:1812  function canExec(uint _txId) private view returns(uint count){... */\n    tag_150:\n        /* \"contracts/MultiSigWallet.sol\":1646:1656  uint count */\n      0x00\n        /* \"contracts/MultiSigWallet.sol\":1672:1678  uint i */\n      dup1\n        /* \"contracts/MultiSigWallet.sol\":1668:1805  for(uint i; i < owners.length ; i++){... */\n    tag_166:\n        /* \"contracts/MultiSigWallet.sol\":1684:1690  owners */\n      0x00\n        /* \"contracts/MultiSigWallet.sol\":1684:1697  owners.length */\n      dup1\n      sload\n      swap1\n      pop\n        /* \"contracts/MultiSigWallet.sol\":1680:1681  i */\n      dup2\n        /* \"contracts/MultiSigWallet.sol\":1680:1697  i < owners.length */\n      lt\n        /* \"contracts/MultiSigWallet.sol\":1668:1805  for(uint i; i < owners.length ; i++){... */\n      iszero\n      tag_167\n      jumpi\n        /* \"contracts/MultiSigWallet.sol\":1722:1730  approval */\n      0x03\n        /* \"contracts/MultiSigWallet.sol\":1722:1737  approval[_txId] */\n      0x00\n        /* \"contracts/MultiSigWallet.sol\":1731:1736  _txId */\n      dup5\n        /* \"contracts/MultiSigWallet.sol\":1722:1737  approval[_txId] */\n      dup2\n      mstore\n      0x20\n      add\n      swap1\n      dup2\n      mstore\n      0x20\n      add\n      0x00\n      keccak256\n        /* \"contracts/MultiSigWallet.sol\":1722:1748  approval[_txId][owners[i]] */\n      0x00\n        /* \"contracts/MultiSigWallet.sol\":1738:1744  owners */\n      dup1\n        /* \"contracts/MultiSigWallet.sol\":1745:1746  i */\n      dup4\n        /* \"contracts/MultiSigWallet.sol\":1738:1747  owners[i] */\n      dup2\n      sload\n      dup2\n      lt\n      tag_169\n      jumpi\n      tag_170\n      tag_78\n      jump\t// in\n    tag_170:\n    tag_169:\n      swap1\n      0x00\n      mstore\n      keccak256(0x00, 0x20)\n      add\n      0x00\n      swap1\n      sload\n      swap1\n      0x0100\n      exp\n      swap1\n      div\n      0xffffffffffffffffffffffffffffffffffffffff\n      and\n        /* \"contracts/MultiSigWallet.sol\":1722:1748  approval[_txId][owners[i]] */\n      0xffffffffffffffffffffffffffffffffffffffff\n      and\n      0xffffffffffffffffffffffffffffffffffffffff\n      and\n      dup2\n      mstore\n      0x20\n      add\n      swap1\n      dup2\n      mstore\n      0x20\n      add\n      0x00\n      keccak256\n      0x00\n      swap1\n      sload\n      swap1\n      0x0100\n      exp\n      swap1\n      div\n      0xff\n      and\n        /* \"contracts/MultiSigWallet.sol\":1719:1794  if(approval[_txId][owners[i]]){... */\n      iszero\n      tag_172\n      jumpi\n        /* \"contracts/MultiSigWallet.sol\":1777:1778  1 */\n      0x01\n        /* \"contracts/MultiSigWallet.sol\":1768:1778  count += 1 */\n      dup3\n      tag_173\n      swap2\n      swap1\n      tag_174\n      jump\t// in\n    tag_173:\n      swap2\n      pop\n        /* \"contracts/MultiSigWallet.sol\":1719:1794  if(approval[_txId][owners[i]]){... */\n    tag_172:\n        /* \"contracts/MultiSigWallet.sol\":1700:1703  i++ */\n      dup1\n      dup1\n      tag_175\n      swap1\n      tag_176\n      jump\t// in\n    tag_175:\n      swap2\n      pop\n      pop\n        /* \"contracts/MultiSigWallet.sol\":1668:1805  for(uint i; i < owners.length ; i++){... */\n      jump(tag_166)\n    tag_167:\n      pop\n        /* \"contracts/MultiSigWallet.sol\":1596:1812  function canExec(uint _txId) private view returns(uint count){... */\n      swap2\n      swap1\n      pop\n      jump\t// out\n        /* \"#utility.yul\":7:133   */\n    tag_177:\n        /* \"#utility.yul\":44:51   */\n      0x00\n        /* \"#utility.yul\":84:126   */\n      0xffffffffffffffffffffffffffffffffffffffff\n        /* \"#utility.yul\":77:82   */\n      dup3\n        /* \"#utility.yul\":73:127   */\n      and\n        /* \"#utility.yul\":62:127   */\n      swap1\n      pop\n        /* \"#utility.yul\":7:133   */\n      swap2\n      swap1\n      pop\n      jump\t// out\n        /* \"#utility.yul\":139:235   */\n    tag_178:\n        /* \"#utility.yul\":176:183   */\n      0x00\n        /* \"#utility.yul\":205:229   */\n      tag_238\n        /* \"#utility.yul\":223:228   */\n      dup3\n        /* \"#utility.yul\":205:229   */\n      tag_177\n      jump\t// in\n    tag_238:\n        /* \"#utility.yul\":194:229   */\n      swap1\n      pop\n        /* \"#utility.yul\":139:235   */\n      swap2\n      swap1\n      pop\n      jump\t// out\n        /* \"#utility.yul\":241:359   */\n    tag_179:\n        /* \"#utility.yul\":328:352   */\n      tag_240\n        /* \"#utility.yul\":346:351   */\n      dup2\n        /* \"#utility.yul\":328:352   */\n      tag_178\n      jump\t// in\n    tag_240:\n        /* \"#utility.yul\":323:326   */\n      dup3\n        /* \"#utility.yul\":316:353   */\n      mstore\n        /* \"#utility.yul\":241:359   */\n      pop\n      pop\n      jump\t// out\n        /* \"#utility.yul\":365:442   */\n    tag_180:\n        /* \"#utility.yul\":402:409   */\n      0x00\n        /* \"#utility.yul\":431:436   */\n      dup2\n        /* \"#utility.yul\":420:436   */\n      swap1\n      pop\n        /* \"#utility.yul\":365:442   */\n      swap2\n      swap1\n      pop\n      jump\t// out\n        /* \"#utility.yul\":448:566   */\n    tag_181:\n        /* \"#utility.yul\":535:559   */\n      tag_243\n        /* \"#utility.yul\":553:558   */\n      dup2\n        /* \"#utility.yul\":535:559   */\n      tag_180\n      jump\t// in\n    tag_243:\n        /* \"#utility.yul\":530:533   */\n      dup3\n        /* \"#utility.yul\":523:560   */\n      mstore\n        /* \"#utility.yul\":448:566   */\n      pop\n      pop\n      jump\t// out\n        /* \"#utility.yul\":572:904   */\n    tag_15:\n        /* \"#utility.yul\":693:697   */\n      0x00\n        /* \"#utility.yul\":731:733   */\n      0x40\n        /* \"#utility.yul\":720:729   */\n      dup3\n        /* \"#utility.yul\":716:734   */\n      add\n        /* \"#utility.yul\":708:734   */\n      swap1\n      pop\n        /* \"#utility.yul\":744:815   */\n      tag_245\n        /* \"#utility.yul\":812:813   */\n      0x00\n        /* \"#utility.yul\":801:810   */\n      dup4\n        /* \"#utility.yul\":797:814   */\n      add\n        /* \"#utility.yul\":788:794   */\n      dup6\n        /* \"#utility.yul\":744:815   */\n      tag_179\n      jump\t// in\n    tag_245:\n        /* \"#utility.yul\":825:897   */\n      tag_246\n        /* \"#utility.yul\":893:895   */\n      0x20\n        /* \"#utility.yul\":882:891   */\n      dup4\n        /* \"#utility.yul\":878:896   */\n      add\n        /* \"#utility.yul\":869:875   */\n      dup5\n        /* \"#utility.yul\":825:897   */\n      tag_181\n      jump\t// in\n    tag_246:\n        /* \"#utility.yul\":572:904   */\n      swap4\n      swap3\n      pop\n      pop\n      pop\n      jump\t// out\n        /* \"#utility.yul\":991:1108   */\n    tag_183:\n        /* \"#utility.yul\":1100:1101   */\n      0x00\n        /* \"#utility.yul\":1097:1098   */\n      dup1\n        /* \"#utility.yul\":1090:1102   */\n      revert\n        /* \"#utility.yul\":1114:1231   */\n    tag_184:\n        /* \"#utility.yul\":1223:1224   */\n      0x00\n        /* \"#utility.yul\":1220:1221   */\n      dup1\n        /* \"#utility.yul\":1213:1225   */\n      revert\n        /* \"#utility.yul\":1237:1359   */\n    tag_185:\n        /* \"#utility.yul\":1310:1334   */\n      tag_251\n        /* \"#utility.yul\":1328:1333   */\n      dup2\n        /* \"#utility.yul\":1310:1334   */\n      tag_180\n      jump\t// in\n    tag_251:\n        /* \"#utility.yul\":1303:1308   */\n      dup2\n        /* \"#utility.yul\":1300:1335   */\n      eq\n        /* \"#utility.yul\":1290:1353   */\n      tag_252\n      jumpi\n        /* \"#utility.yul\":1349:1350   */\n      0x00\n        /* \"#utility.yul\":1346:1347   */\n      dup1\n        /* \"#utility.yul\":1339:1351   */\n      revert\n        /* \"#utility.yul\":1290:1353   */\n    tag_252:\n        /* \"#utility.yul\":1237:1359   */\n      pop\n      jump\t// out\n        /* \"#utility.yul\":1365:1504   */\n    tag_186:\n        /* \"#utility.yul\":1411:1416   */\n      0x00\n        /* \"#utility.yul\":1449:1455   */\n      dup2\n        /* \"#utility.yul\":1436:1456   */\n      calldataload\n        /* \"#utility.yul\":1427:1456   */\n      swap1\n      pop\n        /* \"#utility.yul\":1465:1498   */\n      tag_254\n        /* \"#utility.yul\":1492:1497   */\n      dup2\n        /* \"#utility.yul\":1465:1498   */\n      tag_185\n      jump\t// in\n    tag_254:\n        /* \"#utility.yul\":1365:1504   */\n      swap3\n      swap2\n      pop\n      pop\n      jump\t// out\n        /* \"#utility.yul\":1510:1839   */\n    tag_19:\n        /* \"#utility.yul\":1569:1575   */\n      0x00\n        /* \"#utility.yul\":1618:1620   */\n      0x20\n        /* \"#utility.yul\":1606:1615   */\n      dup3\n        /* \"#utility.yul\":1597:1604   */\n      dup5\n        /* \"#utility.yul\":1593:1616   */\n      sub\n        /* \"#utility.yul\":1589:1621   */\n      slt\n        /* \"#utility.yul\":1586:1705   */\n      iszero\n      tag_256\n      jumpi\n        /* \"#utility.yul\":1624:1703   */\n      tag_257\n      tag_183\n      jump\t// in\n    tag_257:\n        /* \"#utility.yul\":1586:1705   */\n    tag_256:\n        /* \"#utility.yul\":1744:1745   */\n      0x00\n        /* \"#utility.yul\":1769:1822   */\n      tag_258\n        /* \"#utility.yul\":1814:1821   */\n      dup5\n        /* \"#utility.yul\":1805:1811   */\n      dup3\n        /* \"#utility.yul\":1794:1803   */\n      dup6\n        /* \"#utility.yul\":1790:1812   */\n      add\n        /* \"#utility.yul\":1769:1822   */\n      tag_186\n      jump\t// in\n    tag_258:\n        /* \"#utility.yul\":1759:1822   */\n      swap2\n      pop\n        /* \"#utility.yul\":1715:1832   */\n      pop\n        /* \"#utility.yul\":1510:1839   */\n      swap3\n      swap2\n      pop\n      pop\n      jump\t// out\n        /* \"#utility.yul\":1845:2067   */\n    tag_22:\n        /* \"#utility.yul\":1938:1942   */\n      0x00\n        /* \"#utility.yul\":1976:1978   */\n      0x20\n        /* \"#utility.yul\":1965:1974   */\n      dup3\n        /* \"#utility.yul\":1961:1979   */\n      add\n        /* \"#utility.yul\":1953:1979   */\n      swap1\n      pop\n        /* \"#utility.yul\":1989:2060   */\n      tag_260\n        /* \"#utility.yul\":2057:2058   */\n      0x00\n        /* \"#utility.yul\":2046:2055   */\n      dup4\n        /* \"#utility.yul\":2042:2059   */\n      add\n        /* \"#utility.yul\":2033:2039   */\n      dup5\n        /* \"#utility.yul\":1989:2060   */\n      tag_179\n      jump\t// in\n    tag_260:\n        /* \"#utility.yul\":1845:2067   */\n      swap3\n      swap2\n      pop\n      pop\n      jump\t// out\n        /* \"#utility.yul\":2073:2195   */\n    tag_187:\n        /* \"#utility.yul\":2146:2170   */\n      tag_262\n        /* \"#utility.yul\":2164:2169   */\n      dup2\n        /* \"#utility.yul\":2146:2170   */\n      tag_178\n      jump\t// in\n    tag_262:\n        /* \"#utility.yul\":2139:2144   */\n      dup2\n        /* \"#utility.yul\":2136:2171   */\n      eq\n        /* \"#utility.yul\":2126:2189   */\n      tag_263\n      jumpi\n        /* \"#utility.yul\":2185:2186   */\n      0x00\n        /* \"#utility.yul\":2182:2183   */\n      dup1\n        /* \"#utility.yul\":2175:2187   */\n      revert\n        /* \"#utility.yul\":2126:2189   */\n    tag_263:\n        /* \"#utility.yul\":2073:2195   */\n      pop\n      jump\t// out\n        /* \"#utility.yul\":2201:2340   */\n    tag_188:\n        /* \"#utility.yul\":2247:2252   */\n      0x00\n        /* \"#utility.yul\":2285:2291   */\n      dup2\n        /* \"#utility.yul\":2272:2292   */\n      calldataload\n        /* \"#utility.yul\":2263:2292   */\n      swap1\n      pop\n        /* \"#utility.yul\":2301:2334   */\n      tag_265\n        /* \"#utility.yul\":2328:2333   */\n      dup2\n        /* \"#utility.yul\":2301:2334   */\n      tag_187\n      jump\t// in\n    tag_265:\n        /* \"#utility.yul\":2201:2340   */\n      swap3\n      swap2\n      pop\n      pop\n      jump\t// out\n        /* \"#utility.yul\":2346:2675   */\n    tag_30:\n        /* \"#utility.yul\":2405:2411   */\n      0x00\n        /* \"#utility.yul\":2454:2456   */\n      0x20\n        /* \"#utility.yul\":2442:2451   */\n      dup3\n        /* \"#utility.yul\":2433:2440   */\n      dup5\n        /* \"#utility.yul\":2429:2452   */\n      sub\n        /* \"#utility.yul\":2425:2457   */\n      slt\n        /* \"#utility.yul\":2422:2541   */\n      iszero\n      tag_267\n      jumpi\n        /* \"#utility.yul\":2460:2539   */\n      tag_268\n      tag_183\n      jump\t// in\n    tag_268:\n        /* \"#utility.yul\":2422:2541   */\n    tag_267:\n        /* \"#utility.yul\":2580:2581   */\n      0x00\n        /* \"#utility.yul\":2605:2658   */\n      tag_269\n        /* \"#utility.yul\":2650:2657   */\n      dup5\n        /* \"#utility.yul\":2641:2647   */\n      dup3\n        /* \"#utility.yul\":2630:2639   */\n      dup6\n        /* \"#utility.yul\":2626:2648   */\n      add\n        /* \"#utility.yul\":2605:2658   */\n      tag_188\n      jump\t// in\n    tag_269:\n        /* \"#utility.yul\":2595:2658   */\n      swap2\n      pop\n        /* \"#utility.yul\":2551:2668   */\n      pop\n        /* \"#utility.yul\":2346:2675   */\n      swap3\n      swap2\n      pop\n      pop\n      jump\t// out\n        /* \"#utility.yul\":2681:2771   */\n    tag_189:\n        /* \"#utility.yul\":2715:2722   */\n      0x00\n        /* \"#utility.yul\":2758:2763   */\n      dup2\n        /* \"#utility.yul\":2751:2764   */\n      iszero\n        /* \"#utility.yul\":2744:2765   */\n      iszero\n        /* \"#utility.yul\":2733:2765   */\n      swap1\n      pop\n        /* \"#utility.yul\":2681:2771   */\n      swap2\n      swap1\n      pop\n      jump\t// out\n        /* \"#utility.yul\":2777:2886   */\n    tag_190:\n        /* \"#utility.yul\":2858:2879   */\n      tag_272\n        /* \"#utility.yul\":2873:2878   */\n      dup2\n        /* \"#utility.yul\":2858:2879   */\n      tag_189\n      jump\t// in\n    tag_272:\n        /* \"#utility.yul\":2853:2856   */\n      dup3\n        /* \"#utility.yul\":2846:2880   */\n      mstore\n        /* \"#utility.yul\":2777:2886   */\n      pop\n      pop\n      jump\t// out\n        /* \"#utility.yul\":2892:3102   */\n    tag_33:\n        /* \"#utility.yul\":2979:2983   */\n      0x00\n        /* \"#utility.yul\":3017:3019   */\n      0x20\n        /* \"#utility.yul\":3006:3015   */\n      dup3\n        /* \"#utility.yul\":3002:3020   */\n      add\n        /* \"#utility.yul\":2994:3020   */\n      swap1\n      pop\n        /* \"#utility.yul\":3030:3095   */\n      tag_274\n        /* \"#utility.yul\":3092:3093   */\n      0x00\n        /* \"#utility.yul\":3081:3090   */\n      dup4\n        /* \"#utility.yul\":3077:3094   */\n      add\n        /* \"#utility.yul\":3068:3074   */\n      dup5\n        /* \"#utility.yul\":3030:3095   */\n      tag_190\n      jump\t// in\n    tag_274:\n        /* \"#utility.yul\":2892:3102   */\n      swap3\n      swap2\n      pop\n      pop\n      jump\t// out\n        /* \"#utility.yul\":3108:3206   */\n    tag_191:\n        /* \"#utility.yul\":3159:3165   */\n      0x00\n        /* \"#utility.yul\":3193:3198   */\n      dup2\n        /* \"#utility.yul\":3187:3199   */\n      mload\n        /* \"#utility.yul\":3177:3199   */\n      swap1\n      pop\n        /* \"#utility.yul\":3108:3206   */\n      swap2\n      swap1\n      pop\n      jump\t// out\n        /* \"#utility.yul\":3212:3380   */\n    tag_192:\n        /* \"#utility.yul\":3295:3306   */\n      0x00\n        /* \"#utility.yul\":3329:3335   */\n      dup3\n        /* \"#utility.yul\":3324:3327   */\n      dup3\n        /* \"#utility.yul\":3317:3336   */\n      mstore\n        /* \"#utility.yul\":3369:3373   */\n      0x20\n        /* \"#utility.yul\":3364:3367   */\n      dup3\n        /* \"#utility.yul\":3360:3374   */\n      add\n        /* \"#utility.yul\":3345:3374   */\n      swap1\n      pop\n        /* \"#utility.yul\":3212:3380   */\n      swap3\n      swap2\n      pop\n      pop\n      jump\t// out\n        /* \"#utility.yul\":3386:3632   */\n    tag_193:\n        /* \"#utility.yul\":3467:3468   */\n      0x00\n        /* \"#utility.yul\":3477:3590   */\n    tag_278:\n        /* \"#utility.yul\":3491:3497   */\n      dup4\n        /* \"#utility.yul\":3488:3489   */\n      dup2\n        /* \"#utility.yul\":3485:3498   */\n      lt\n        /* \"#utility.yul\":3477:3590   */\n      iszero\n      tag_280\n      jumpi\n        /* \"#utility.yul\":3576:3577   */\n      dup1\n        /* \"#utility.yul\":3571:3574   */\n      dup3\n        /* \"#utility.yul\":3567:3578   */\n      add\n        /* \"#utility.yul\":3561:3579   */\n      mload\n        /* \"#utility.yul\":3557:3558   */\n      dup2\n        /* \"#utility.yul\":3552:3555   */\n      dup5\n        /* \"#utility.yul\":3548:3559   */\n      add\n        /* \"#utility.yul\":3541:3580   */\n      mstore\n        /* \"#utility.yul\":3513:3515   */\n      0x20\n        /* \"#utility.yul\":3510:3511   */\n      dup2\n        /* \"#utility.yul\":3506:3516   */\n      add\n        /* \"#utility.yul\":3501:3516   */\n      swap1\n      pop\n        /* \"#utility.yul\":3477:3590   */\n      jump(tag_278)\n    tag_280:\n        /* \"#utility.yul\":3624:3625   */\n      0x00\n        /* \"#utility.yul\":3615:3621   */\n      dup5\n        /* \"#utility.yul\":3610:3613   */\n      dup5\n        /* \"#utility.yul\":3606:3622   */\n      add\n        /* \"#utility.yul\":3599:3626   */\n      mstore\n        /* \"#utility.yul\":3448:3632   */\n      pop\n        /* \"#utility.yul\":3386:3632   */\n      pop\n      pop\n      pop\n      jump\t// out\n        /* \"#utility.yul\":3638:3740   */\n    tag_194:\n        /* \"#utility.yul\":3679:3685   */\n      0x00\n        /* \"#utility.yul\":3730:3732   */\n      0x1f\n        /* \"#utility.yul\":3726:3733   */\n      not\n        /* \"#utility.yul\":3721:3723   */\n      0x1f\n        /* \"#utility.yul\":3714:3719   */\n      dup4\n        /* \"#utility.yul\":3710:3724   */\n      add\n        /* \"#utility.yul\":3706:3734   */\n      and\n        /* \"#utility.yul\":3696:3734   */\n      swap1\n      pop\n        /* \"#utility.yul\":3638:3740   */\n      swap2\n      swap1\n      pop\n      jump\t// out\n        /* \"#utility.yul\":3746:4119   */\n    tag_195:\n        /* \"#utility.yul\":3832:3835   */\n      0x00\n        /* \"#utility.yul\":3860:3898   */\n      tag_283\n        /* \"#utility.yul\":3892:3897   */\n      dup3\n        /* \"#utility.yul\":3860:3898   */\n      tag_191\n      jump\t// in\n    tag_283:\n        /* \"#utility.yul\":3914:3984   */\n      tag_284\n        /* \"#utility.yul\":3977:3983   */\n      dup2\n        /* \"#utility.yul\":3972:3975   */\n      dup6\n        /* \"#utility.yul\":3914:3984   */\n      tag_192\n      jump\t// in\n    tag_284:\n        /* \"#utility.yul\":3907:3984   */\n      swap4\n      pop\n        /* \"#utility.yul\":3993:4058   */\n      tag_285\n        /* \"#utility.yul\":4051:4057   */\n      dup2\n        /* \"#utility.yul\":4046:4049   */\n      dup6\n        /* \"#utility.yul\":4039:4043   */\n      0x20\n        /* \"#utility.yul\":4032:4037   */\n      dup7\n        /* \"#utility.yul\":4028:4044   */\n      add\n        /* \"#utility.yul\":3993:4058   */\n      tag_193\n      jump\t// in\n    tag_285:\n        /* \"#utility.yul\":4083:4112   */\n      tag_286\n        /* \"#utility.yul\":4105:4111   */\n      dup2\n        /* \"#utility.yul\":4083:4112   */\n      tag_194\n      jump\t// in\n    tag_286:\n        /* \"#utility.yul\":4078:4081   */\n      dup5\n        /* \"#utility.yul\":4074:4113   */\n      add\n        /* \"#utility.yul\":4067:4113   */\n      swap2\n      pop\n        /* \"#utility.yul\":3836:4119   */\n      pop\n        /* \"#utility.yul\":3746:4119   */\n      swap3\n      swap2\n      pop\n      pop\n      jump\t// out\n        /* \"#utility.yul\":4125:4753   */\n    tag_39:\n        /* \"#utility.yul\":4314:4318   */\n      0x00\n        /* \"#utility.yul\":4352:4355   */\n      0x80\n        /* \"#utility.yul\":4341:4350   */\n      dup3\n        /* \"#utility.yul\":4337:4356   */\n      add\n        /* \"#utility.yul\":4329:4356   */\n      swap1\n      pop\n        /* \"#utility.yul\":4366:4437   */\n      tag_288\n        /* \"#utility.yul\":4434:4435   */\n      0x00\n        /* \"#utility.yul\":4423:4432   */\n      dup4\n        /* \"#utility.yul\":4419:4436   */\n      add\n        /* \"#utility.yul\":4410:4416   */\n      dup8\n        /* \"#utility.yul\":4366:4437   */\n      tag_179\n      jump\t// in\n    tag_288:\n        /* \"#utility.yul\":4447:4519   */\n      tag_289\n        /* \"#utility.yul\":4515:4517   */\n      0x20\n        /* \"#utility.yul\":4504:4513   */\n      dup4\n        /* \"#utility.yul\":4500:4518   */\n      add\n        /* \"#utility.yul\":4491:4497   */\n      dup7\n        /* \"#utility.yul\":4447:4519   */\n      tag_181\n      jump\t// in\n    tag_289:\n        /* \"#utility.yul\":4529:4595   */\n      tag_290\n        /* \"#utility.yul\":4591:4593   */\n      0x40\n        /* \"#utility.yul\":4580:4589   */\n      dup4\n        /* \"#utility.yul\":4576:4594   */\n      add\n        /* \"#utility.yul\":4567:4573   */\n      dup6\n        /* \"#utility.yul\":4529:4595   */\n      tag_190\n      jump\t// in\n    tag_290:\n        /* \"#utility.yul\":4642:4651   */\n      dup2\n        /* \"#utility.yul\":4636:4640   */\n      dup2\n        /* \"#utility.yul\":4632:4652   */\n      sub\n        /* \"#utility.yul\":4627:4629   */\n      0x60\n        /* \"#utility.yul\":4616:4625   */\n      dup4\n        /* \"#utility.yul\":4612:4630   */\n      add\n        /* \"#utility.yul\":4605:4653   */\n      mstore\n        /* \"#utility.yul\":4670:4746   */\n      tag_291\n        /* \"#utility.yul\":4741:4745   */\n      dup2\n        /* \"#utility.yul\":4732:4738   */\n      dup5\n        /* \"#utility.yul\":4670:4746   */\n      tag_195\n      jump\t// in\n    tag_291:\n        /* \"#utility.yul\":4662:4746   */\n      swap1\n      pop\n        /* \"#utility.yul\":4125:4753   */\n      swap6\n      swap5\n      pop\n      pop\n      pop\n      pop\n      pop\n      jump\t// out\n        /* \"#utility.yul\":4759:5233   */\n    tag_47:\n        /* \"#utility.yul\":4827:4833   */\n      0x00\n        /* \"#utility.yul\":4835:4841   */\n      dup1\n        /* \"#utility.yul\":4884:4886   */\n      0x40\n        /* \"#utility.yul\":4872:4881   */\n      dup4\n        /* \"#utility.yul\":4863:4870   */\n      dup6\n        /* \"#utility.yul\":4859:4882   */\n      sub\n        /* \"#utility.yul\":4855:4887   */\n      slt\n        /* \"#utility.yul\":4852:4971   */\n      iszero\n      tag_293\n      jumpi\n        /* \"#utility.yul\":4890:4969   */\n      tag_294\n      tag_183\n      jump\t// in\n    tag_294:\n        /* \"#utility.yul\":4852:4971   */\n    tag_293:\n        /* \"#utility.yul\":5010:5011   */\n      0x00\n        /* \"#utility.yul\":5035:5088   */\n      tag_295\n        /* \"#utility.yul\":5080:5087   */\n      dup6\n        /* \"#utility.yul\":5071:5077   */\n      dup3\n        /* \"#utility.yul\":5060:5069   */\n      dup7\n        /* \"#utility.yul\":5056:5078   */\n      add\n        /* \"#utility.yul\":5035:5088   */\n      tag_186\n      jump\t// in\n    tag_295:\n        /* \"#utility.yul\":5025:5088   */\n      swap3\n      pop\n        /* \"#utility.yul\":4981:5098   */\n      pop\n        /* \"#utility.yul\":5137:5139   */\n      0x20\n        /* \"#utility.yul\":5163:5216   */\n      tag_296\n        /* \"#utility.yul\":5208:5215   */\n      dup6\n        /* \"#utility.yul\":5199:5205   */\n      dup3\n        /* \"#utility.yul\":5188:5197   */\n      dup7\n        /* \"#utility.yul\":5184:5206   */\n      add\n        /* \"#utility.yul\":5163:5216   */\n      tag_188\n      jump\t// in\n    tag_296:\n        /* \"#utility.yul\":5153:5216   */\n      swap2\n      pop\n        /* \"#utility.yul\":5108:5226   */\n      pop\n        /* \"#utility.yul\":4759:5233   */\n      swap3\n      pop\n      swap3\n      swap1\n      pop\n      jump\t// out\n        /* \"#utility.yul\":5239:5356   */\n    tag_196:\n        /* \"#utility.yul\":5348:5349   */\n      0x00\n        /* \"#utility.yul\":5345:5346   */\n      dup1\n        /* \"#utility.yul\":5338:5350   */\n      revert\n        /* \"#utility.yul\":5362:5479   */\n    tag_197:\n        /* \"#utility.yul\":5471:5472   */\n      0x00\n        /* \"#utility.yul\":5468:5469   */\n      dup1\n        /* \"#utility.yul\":5461:5473   */\n      revert\n        /* \"#utility.yul\":5485:5602   */\n    tag_198:\n        /* \"#utility.yul\":5594:5595   */\n      0x00\n        /* \"#utility.yul\":5591:5592   */\n      dup1\n        /* \"#utility.yul\":5584:5596   */\n      revert\n        /* \"#utility.yul\":5621:6173   */\n    tag_199:\n        /* \"#utility.yul\":5678:5686   */\n      0x00\n        /* \"#utility.yul\":5688:5694   */\n      dup1\n        /* \"#utility.yul\":5738:5741   */\n      dup4\n        /* \"#utility.yul\":5731:5735   */\n      0x1f\n        /* \"#utility.yul\":5723:5729   */\n      dup5\n        /* \"#utility.yul\":5719:5736   */\n      add\n        /* \"#utility.yul\":5715:5742   */\n      slt\n        /* \"#utility.yul\":5705:5827   */\n      tag_301\n      jumpi\n        /* \"#utility.yul\":5746:5825   */\n      tag_302\n      tag_196\n      jump\t// in\n    tag_302:\n        /* \"#utility.yul\":5705:5827   */\n    tag_301:\n        /* \"#utility.yul\":5859:5865   */\n      dup3\n        /* \"#utility.yul\":5846:5866   */\n      calldataload\n        /* \"#utility.yul\":5836:5866   */\n      swap1\n      pop\n        /* \"#utility.yul\":5889:5907   */\n      0xffffffffffffffff\n        /* \"#utility.yul\":5881:5887   */\n      dup2\n        /* \"#utility.yul\":5878:5908   */\n      gt\n        /* \"#utility.yul\":5875:5992   */\n      iszero\n      tag_303\n      jumpi\n        /* \"#utility.yul\":5911:5990   */\n      tag_304\n      tag_197\n      jump\t// in\n    tag_304:\n        /* \"#utility.yul\":5875:5992   */\n    tag_303:\n        /* \"#utility.yul\":6025:6029   */\n      0x20\n        /* \"#utility.yul\":6017:6023   */\n      dup4\n        /* \"#utility.yul\":6013:6030   */\n      add\n        /* \"#utility.yul\":6001:6030   */\n      swap2\n      pop\n        /* \"#utility.yul\":6079:6082   */\n      dup4\n        /* \"#utility.yul\":6071:6075   */\n      0x01\n        /* \"#utility.yul\":6063:6069   */\n      dup3\n        /* \"#utility.yul\":6059:6076   */\n      mul\n        /* \"#utility.yul\":6049:6057   */\n      dup4\n        /* \"#utility.yul\":6045:6077   */\n      add\n        /* \"#utility.yul\":6042:6083   */\n      gt\n        /* \"#utility.yul\":6039:6167   */\n      iszero\n      tag_305\n      jumpi\n        /* \"#utility.yul\":6086:6165   */\n      tag_306\n      tag_198\n      jump\t// in\n    tag_306:\n        /* \"#utility.yul\":6039:6167   */\n    tag_305:\n        /* \"#utility.yul\":5621:6173   */\n      swap3\n      pop\n      swap3\n      swap1\n      pop\n      jump\t// out\n        /* \"#utility.yul\":6179:6996   */\n    tag_53:\n        /* \"#utility.yul\":6267:6273   */\n      0x00\n        /* \"#utility.yul\":6275:6281   */\n      dup1\n        /* \"#utility.yul\":6283:6289   */\n      0x00\n        /* \"#utility.yul\":6291:6297   */\n      dup1\n        /* \"#utility.yul\":6340:6342   */\n      0x60\n        /* \"#utility.yul\":6328:6337   */\n      dup6\n        /* \"#utility.yul\":6319:6326   */\n      dup8\n        /* \"#utility.yul\":6315:6338   */\n      sub\n        /* \"#utility.yul\":6311:6343   */\n      slt\n        /* \"#utility.yul\":6308:6427   */\n      iszero\n      tag_308\n      jumpi\n        /* \"#utility.yul\":6346:6425   */\n      tag_309\n      tag_183\n      jump\t// in\n    tag_309:\n        /* \"#utility.yul\":6308:6427   */\n    tag_308:\n        /* \"#utility.yul\":6466:6467   */\n      0x00\n        /* \"#utility.yul\":6491:6544   */\n      tag_310\n        /* \"#utility.yul\":6536:6543   */\n      dup8\n        /* \"#utility.yul\":6527:6533   */\n      dup3\n        /* \"#utility.yul\":6516:6525   */\n      dup9\n        /* \"#utility.yul\":6512:6534   */\n      add\n        /* \"#utility.yul\":6491:6544   */\n      tag_188\n      jump\t// in\n    tag_310:\n        /* \"#utility.yul\":6481:6544   */\n      swap5\n      pop\n        /* \"#utility.yul\":6437:6554   */\n      pop\n        /* \"#utility.yul\":6593:6595   */\n      0x20\n        /* \"#utility.yul\":6619:6672   */\n      tag_311\n        /* \"#utility.yul\":6664:6671   */\n      dup8\n        /* \"#utility.yul\":6655:6661   */\n      dup3\n        /* \"#utility.yul\":6644:6653   */\n      dup9\n        /* \"#utility.yul\":6640:6662   */\n      add\n        /* \"#utility.yul\":6619:6672   */\n      tag_186\n      jump\t// in\n    tag_311:\n        /* \"#utility.yul\":6609:6672   */\n      swap4\n      pop\n        /* \"#utility.yul\":6564:6682   */\n      pop\n        /* \"#utility.yul\":6749:6751   */\n      0x40\n        /* \"#utility.yul\":6738:6747   */\n      dup6\n        /* \"#utility.yul\":6734:6752   */\n      add\n        /* \"#utility.yul\":6721:6753   */\n      calldataload\n        /* \"#utility.yul\":6780:6798   */\n      0xffffffffffffffff\n        /* \"#utility.yul\":6772:6778   */\n      dup2\n        /* \"#utility.yul\":6769:6799   */\n      gt\n        /* \"#utility.yul\":6766:6883   */\n      iszero\n      tag_312\n      jumpi\n        /* \"#utility.yul\":6802:6881   */\n      tag_313\n      tag_184\n      jump\t// in\n    tag_313:\n        /* \"#utility.yul\":6766:6883   */\n    tag_312:\n        /* \"#utility.yul\":6915:6979   */\n      tag_314\n        /* \"#utility.yul\":6971:6978   */\n      dup8\n        /* \"#utility.yul\":6962:6968   */\n      dup3\n        /* \"#utility.yul\":6951:6960   */\n      dup9\n        /* \"#utility.yul\":6947:6969   */\n      add\n        /* \"#utility.yul\":6915:6979   */\n      tag_199\n      jump\t// in\n    tag_314:\n        /* \"#utility.yul\":6897:6979   */\n      swap3\n      pop\n      swap3\n      pop\n        /* \"#utility.yul\":6692:6989   */\n      pop\n        /* \"#utility.yul\":6179:6996   */\n      swap3\n      swap6\n      swap2\n      swap5\n      pop\n      swap3\n      pop\n      jump\t// out\n        /* \"#utility.yul\":7002:7171   */\n    tag_200:\n        /* \"#utility.yul\":7086:7097   */\n      0x00\n        /* \"#utility.yul\":7120:7126   */\n      dup3\n        /* \"#utility.yul\":7115:7118   */\n      dup3\n        /* \"#utility.yul\":7108:7127   */\n      mstore\n        /* \"#utility.yul\":7160:7164   */\n      0x20\n        /* \"#utility.yul\":7155:7158   */\n      dup3\n        /* \"#utility.yul\":7151:7165   */\n      add\n        /* \"#utility.yul\":7136:7165   */\n      swap1\n      pop\n        /* \"#utility.yul\":7002:7171   */\n      swap3\n      swap2\n      pop\n      pop\n      jump\t// out\n        /* \"#utility.yul\":7177:7358   */\n    tag_201:\n        /* \"#utility.yul\":7317:7350   */\n      0x5472616e73616374696f6e20416c726561647920417070726f7665642e2e2e00\n        /* \"#utility.yul\":7313:7314   */\n      0x00\n        /* \"#utility.yul\":7305:7311   */\n      dup3\n        /* \"#utility.yul\":7301:7315   */\n      add\n        /* \"#utility.yul\":7294:7351   */\n      mstore\n        /* \"#utility.yul\":7177:7358   */\n      pop\n      jump\t// out\n        /* \"#utility.yul\":7364:7730   */\n    tag_202:\n        /* \"#utility.yul\":7506:7509   */\n      0x00\n        /* \"#utility.yul\":7527:7594   */\n      tag_318\n        /* \"#utility.yul\":7591:7593   */\n      0x1f\n        /* \"#utility.yul\":7586:7589   */\n      dup4\n        /* \"#utility.yul\":7527:7594   */\n      tag_200\n      jump\t// in\n    tag_318:\n        /* \"#utility.yul\":7520:7594   */\n      swap2\n      pop\n        /* \"#utility.yul\":7603:7696   */\n      tag_319\n        /* \"#utility.yul\":7692:7695   */\n      dup3\n        /* \"#utility.yul\":7603:7696   */\n      tag_201\n      jump\t// in\n    tag_319:\n        /* \"#utility.yul\":7721:7723   */\n      0x20\n        /* \"#utility.yul\":7716:7719   */\n      dup3\n        /* \"#utility.yul\":7712:7724   */\n      add\n        /* \"#utility.yul\":7705:7724   */\n      swap1\n      pop\n        /* \"#utility.yul\":7364:7730   */\n      swap2\n      swap1\n      pop\n      jump\t// out\n        /* \"#utility.yul\":7736:8155   */\n    tag_64:\n        /* \"#utility.yul\":7902:7906   */\n      0x00\n        /* \"#utility.yul\":7940:7942   */\n      0x20\n        /* \"#utility.yul\":7929:7938   */\n      dup3\n        /* \"#utility.yul\":7925:7943   */\n      add\n        /* \"#utility.yul\":7917:7943   */\n      swap1\n      pop\n        /* \"#utility.yul\":7989:7998   */\n      dup2\n        /* \"#utility.yul\":7983:7987   */\n      dup2\n        /* \"#utility.yul\":7979:7999   */\n      sub\n        /* \"#utility.yul\":7975:7976   */\n      0x00\n        /* \"#utility.yul\":7964:7973   */\n      dup4\n        /* \"#utility.yul\":7960:7977   */\n      add\n        /* \"#utility.yul\":7953:8000   */\n      mstore\n        /* \"#utility.yul\":8017:8148   */\n      tag_321\n        /* \"#utility.yul\":8143:8147   */\n      dup2\n        /* \"#utility.yul\":8017:8148   */\n      tag_202\n      jump\t// in\n    tag_321:\n        /* \"#utility.yul\":8009:8148   */\n      swap1\n      pop\n        /* \"#utility.yul\":7736:8155   */\n      swap2\n      swap1\n      pop\n      jump\t// out\n        /* \"#utility.yul\":8161:8341   */\n    tag_203:\n        /* \"#utility.yul\":8209:8286   */\n      0x4e487b7100000000000000000000000000000000000000000000000000000000\n        /* \"#utility.yul\":8206:8207   */\n      0x00\n        /* \"#utility.yul\":8199:8287   */\n      mstore\n        /* \"#utility.yul\":8306:8310   */\n      0x11\n        /* \"#utility.yul\":8303:8304   */\n      0x04\n        /* \"#utility.yul\":8296:8311   */\n      mstore\n        /* \"#utility.yul\":8330:8334   */\n      0x24\n        /* \"#utility.yul\":8327:8328   */\n      0x00\n        /* \"#utility.yul\":8320:8335   */\n      revert\n        /* \"#utility.yul\":8347:8541   */\n    tag_67:\n        /* \"#utility.yul\":8387:8391   */\n      0x00\n        /* \"#utility.yul\":8407:8427   */\n      tag_324\n        /* \"#utility.yul\":8425:8426   */\n      dup3\n        /* \"#utility.yul\":8407:8427   */\n      tag_180\n      jump\t// in\n    tag_324:\n        /* \"#utility.yul\":8402:8427   */\n      swap2\n      pop\n        /* \"#utility.yul\":8441:8461   */\n      tag_325\n        /* \"#utility.yul\":8459:8460   */\n      dup4\n        /* \"#utility.yul\":8441:8461   */\n      tag_180\n      jump\t// in\n    tag_325:\n        /* \"#utility.yul\":8436:8461   */\n      swap3\n      pop\n        /* \"#utility.yul\":8485:8486   */\n      dup3\n        /* \"#utility.yul\":8482:8483   */\n      dup3\n        /* \"#utility.yul\":8478:8487   */\n      sub\n        /* \"#utility.yul\":8470:8487   */\n      swap1\n      pop\n        /* \"#utility.yul\":8509:8510   */\n      dup2\n        /* \"#utility.yul\":8503:8507   */\n      dup2\n        /* \"#utility.yul\":8500:8511   */\n      gt\n        /* \"#utility.yul\":8497:8534   */\n      iszero\n      tag_326\n      jumpi\n        /* \"#utility.yul\":8514:8532   */\n      tag_327\n      tag_203\n      jump\t// in\n    tag_327:\n        /* \"#utility.yul\":8497:8534   */\n    tag_326:\n        /* \"#utility.yul\":8347:8541   */\n      swap3\n      swap2\n      pop\n      pop\n      jump\t// out\n        /* \"#utility.yul\":8547:8726   */\n    tag_204:\n        /* \"#utility.yul\":8687:8718   */\n      0x5472616e73616374696f6e20446f6573206e6f742045786973742e2e2e000000\n        /* \"#utility.yul\":8683:8684   */\n      0x00\n        /* \"#utility.yul\":8675:8681   */\n      dup3\n        /* \"#utility.yul\":8671:8685   */\n      add\n        /* \"#utility.yul\":8664:8719   */\n      mstore\n        /* \"#utility.yul\":8547:8726   */\n      pop\n      jump\t// out\n        /* \"#utility.yul\":8732:9098   */\n    tag_205:\n        /* \"#utility.yul\":8874:8877   */\n      0x00\n        /* \"#utility.yul\":8895:8962   */\n      tag_330\n        /* \"#utility.yul\":8959:8961   */\n      0x1d\n        /* \"#utility.yul\":8954:8957   */\n      dup4\n        /* \"#utility.yul\":8895:8962   */\n      tag_200\n      jump\t// in\n    tag_330:\n        /* \"#utility.yul\":8888:8962   */\n      swap2\n      pop\n        /* \"#utility.yul\":8971:9064   */\n      tag_331\n        /* \"#utility.yul\":9060:9063   */\n      dup3\n        /* \"#utility.yul\":8971:9064   */\n      tag_204\n      jump\t// in\n    tag_331:\n        /* \"#utility.yul\":9089:9091   */\n      0x20\n        /* \"#utility.yul\":9084:9087   */\n      dup3\n        /* \"#utility.yul\":9080:9092   */\n      add\n        /* \"#utility.yul\":9073:9092   */\n      swap1\n      pop\n        /* \"#utility.yul\":8732:9098   */\n      swap2\n      swap1\n      pop\n      jump\t// out\n        /* \"#utility.yul\":9104:9523   */\n    tag_70:\n        /* \"#utility.yul\":9270:9274   */\n      0x00\n        /* \"#utility.yul\":9308:9310   */\n      0x20\n        /* \"#utility.yul\":9297:9306   */\n      dup3\n        /* \"#utility.yul\":9293:9311   */\n      add\n        /* \"#utility.yul\":9285:9311   */\n      swap1\n      pop\n        /* \"#utility.yul\":9357:9366   */\n      dup2\n        /* \"#utility.yul\":9351:9355   */\n      dup2\n        /* \"#utility.yul\":9347:9367   */\n      sub\n        /* \"#utility.yul\":9343:9344   */\n      0x00\n        /* \"#utility.yul\":9332:9341   */\n      dup4\n        /* \"#utility.yul\":9328:9345   */\n      add\n        /* \"#utility.yul\":9321:9368   */\n      mstore\n        /* \"#utility.yul\":9385:9516   */\n      tag_333\n        /* \"#utility.yul\":9511:9515   */\n      dup2\n        /* \"#utility.yul\":9385:9516   */\n      tag_205\n      jump\t// in\n    tag_333:\n        /* \"#utility.yul\":9377:9516   */\n      swap1\n      pop\n        /* \"#utility.yul\":9104:9523   */\n      swap2\n      swap1\n      pop\n      jump\t// out\n        /* \"#utility.yul\":9529:9696   */\n    tag_206:\n        /* \"#utility.yul\":9669:9688   */\n      0x4e6f7420746865204f776e65722e2e2e2e000000000000000000000000000000\n        /* \"#utility.yul\":9665:9666   */\n      0x00\n        /* \"#utility.yul\":9657:9663   */\n      dup3\n        /* \"#utility.yul\":9653:9667   */\n      add\n        /* \"#utility.yul\":9646:9689   */\n      mstore\n        /* \"#utility.yul\":9529:9696   */\n      pop\n      jump\t// out\n        /* \"#utility.yul\":9702:10068   */\n    tag_207:\n        /* \"#utility.yul\":9844:9847   */\n      0x00\n        /* \"#utility.yul\":9865:9932   */\n      tag_336\n        /* \"#utility.yul\":9929:9931   */\n      0x11\n        /* \"#utility.yul\":9924:9927   */\n      dup4\n        /* \"#utility.yul\":9865:9932   */\n      tag_200\n      jump\t// in\n    tag_336:\n        /* \"#utility.yul\":9858:9932   */\n      swap2\n      pop\n        /* \"#utility.yul\":9941:10034   */\n      tag_337\n        /* \"#utility.yul\":10030:10033   */\n      dup3\n        /* \"#utility.yul\":9941:10034   */\n      tag_206\n      jump\t// in\n    tag_337:\n        /* \"#utility.yul\":10059:10061   */\n      0x20\n        /* \"#utility.yul\":10054:10057   */\n      dup3\n        /* \"#utility.yul\":10050:10062   */\n      add\n        /* \"#utility.yul\":10043:10062   */\n      swap1\n      pop\n        /* \"#utility.yul\":9702:10068   */\n      swap2\n      swap1\n      pop\n      jump\t// out\n        /* \"#utility.yul\":10074:10493   */\n    tag_74:\n        /* \"#utility.yul\":10240:10244   */\n      0x00\n        /* \"#utility.yul\":10278:10280   */\n      0x20\n        /* \"#utility.yul\":10267:10276   */\n      dup3\n        /* \"#utility.yul\":10263:10281   */\n      add\n        /* \"#utility.yul\":10255:10281   */\n      swap1\n      pop\n        /* \"#utility.yul\":10327:10336   */\n      dup2\n        /* \"#utility.yul\":10321:10325   */\n      dup2\n        /* \"#utility.yul\":10317:10337   */\n      sub\n        /* \"#utility.yul\":10313:10314   */\n      0x00\n        /* \"#utility.yul\":10302:10311   */\n      dup4\n        /* \"#utility.yul\":10298:10315   */\n      add\n        /* \"#utility.yul\":10291:10338   */\n      mstore\n        /* \"#utility.yul\":10355:10486   */\n      tag_339\n        /* \"#utility.yul\":10481:10485   */\n      dup2\n        /* \"#utility.yul\":10355:10486   */\n      tag_207\n      jump\t// in\n    tag_339:\n        /* \"#utility.yul\":10347:10486   */\n      swap1\n      pop\n        /* \"#utility.yul\":10074:10493   */\n      swap2\n      swap1\n      pop\n      jump\t// out\n        /* \"#utility.yul\":10499:10679   */\n    tag_78:\n        /* \"#utility.yul\":10547:10624   */\n      0x4e487b7100000000000000000000000000000000000000000000000000000000\n        /* \"#utility.yul\":10544:10545   */\n      0x00\n        /* \"#utility.yul\":10537:10625   */\n      mstore\n        /* \"#utility.yul\":10644:10648   */\n      0x32\n        /* \"#utility.yul\":10641:10642   */\n      0x04\n        /* \"#utility.yul\":10634:10649   */\n      mstore\n        /* \"#utility.yul\":10668:10672   */\n      0x24\n        /* \"#utility.yul\":10665:10666   */\n      0x00\n        /* \"#utility.yul\":10658:10673   */\n      revert\n        /* \"#utility.yul\":10685:10865   */\n    tag_208:\n        /* \"#utility.yul\":10733:10810   */\n      0x4e487b7100000000000000000000000000000000000000000000000000000000\n        /* \"#utility.yul\":10730:10731   */\n      0x00\n        /* \"#utility.yul\":10723:10811   */\n      mstore\n        /* \"#utility.yul\":10830:10834   */\n      0x22\n        /* \"#utility.yul\":10827:10828   */\n      0x04\n        /* \"#utility.yul\":10820:10835   */\n      mstore\n        /* \"#utility.yul\":10854:10858   */\n      0x24\n        /* \"#utility.yul\":10851:10852   */\n      0x00\n        /* \"#utility.yul\":10844:10859   */\n      revert\n        /* \"#utility.yul\":10871:11191   */\n    tag_81:\n        /* \"#utility.yul\":10915:10921   */\n      0x00\n        /* \"#utility.yul\":10952:10953   */\n      0x02\n        /* \"#utility.yul\":10946:10950   */\n      dup3\n        /* \"#utility.yul\":10942:10954   */\n      div\n        /* \"#utility.yul\":10932:10954   */\n      swap1\n      pop\n        /* \"#utility.yul\":10999:11000   */\n      0x01\n        /* \"#utility.yul\":10993:10997   */\n      dup3\n        /* \"#utility.yul\":10989:11001   */\n      and\n        /* \"#utility.yul\":11020:11038   */\n      dup1\n        /* \"#utility.yul\":11010:11091   */\n      tag_343\n      jumpi\n        /* \"#utility.yul\":11076:11080   */\n      0x7f\n        /* \"#utility.yul\":11068:11074   */\n      dup3\n        /* \"#utility.yul\":11064:11081   */\n      and\n        /* \"#utility.yul\":11054:11081   */\n      swap2\n      pop\n        /* \"#utility.yul\":11010:11091   */\n    tag_343:\n        /* \"#utility.yul\":11138:11140   */\n      0x20\n        /* \"#utility.yul\":11130:11136   */\n      dup3\n        /* \"#utility.yul\":11127:11141   */\n      lt\n        /* \"#utility.yul\":11107:11125   */\n      dup2\n        /* \"#utility.yul\":11104:11142   */\n      sub\n        /* \"#utility.yul\":11101:11185   */\n      tag_344\n      jumpi\n        /* \"#utility.yul\":11157:11175   */\n      tag_345\n      tag_208\n      jump\t// in\n    tag_345:\n        /* \"#utility.yul\":11101:11185   */\n    tag_344:\n        /* \"#utility.yul\":10922:11191   */\n      pop\n        /* \"#utility.yul\":10871:11191   */\n      swap2\n      swap1\n      pop\n      jump\t// out\n        /* \"#utility.yul\":11197:11375   */\n    tag_209:\n        /* \"#utility.yul\":11337:11367   */\n      0x5472616e73616374696f6e20416c726561647920457865637574656400000000\n        /* \"#utility.yul\":11333:11334   */\n      0x00\n        /* \"#utility.yul\":11325:11331   */\n      dup3\n        /* \"#utility.yul\":11321:11335   */\n      add\n        /* \"#utility.yul\":11314:11368   */\n      mstore\n        /* \"#utility.yul\":11197:11375   */\n      pop\n      jump\t// out\n        /* \"#utility.yul\":11381:11747   */\n    tag_210:\n        /* \"#utility.yul\":11523:11526   */\n      0x00\n        /* \"#utility.yul\":11544:11611   */\n      tag_348\n        /* \"#utility.yul\":11608:11610   */\n      0x1c\n        /* \"#utility.yul\":11603:11606   */\n      dup4\n        /* \"#utility.yul\":11544:11611   */\n      tag_200\n      jump\t// in\n    tag_348:\n        /* \"#utility.yul\":11537:11611   */\n      swap2\n      pop\n        /* \"#utility.yul\":11620:11713   */\n      tag_349\n        /* \"#utility.yul\":11709:11712   */\n      dup3\n        /* \"#utility.yul\":11620:11713   */\n      tag_209\n      jump\t// in\n    tag_349:\n        /* \"#utility.yul\":11738:11740   */\n      0x20\n        /* \"#utility.yul\":11733:11736   */\n      dup3\n        /* \"#utility.yul\":11729:11741   */\n      add\n        /* \"#utility.yul\":11722:11741   */\n      swap1\n      pop\n        /* \"#utility.yul\":11381:11747   */\n      swap2\n      swap1\n      pop\n      jump\t// out\n        /* \"#utility.yul\":11753:12172   */\n    tag_88:\n        /* \"#utility.yul\":11919:11923   */\n      0x00\n        /* \"#utility.yul\":11957:11959   */\n      0x20\n        /* \"#utility.yul\":11946:11955   */\n      dup3\n        /* \"#utility.yul\":11942:11960   */\n      add\n        /* \"#utility.yul\":11934:11960   */\n      swap1\n      pop\n        /* \"#utility.yul\":12006:12015   */\n      dup2\n        /* \"#utility.yul\":12000:12004   */\n      dup2\n        /* \"#utility.yul\":11996:12016   */\n      sub\n        /* \"#utility.yul\":11992:11993   */\n      0x00\n        /* \"#utility.yul\":11981:11990   */\n      dup4\n        /* \"#utility.yul\":11977:11994   */\n      add\n        /* \"#utility.yul\":11970:12017   */\n      mstore\n        /* \"#utility.yul\":12034:12165   */\n      tag_351\n        /* \"#utility.yul\":12160:12164   */\n      dup2\n        /* \"#utility.yul\":12034:12165   */\n      tag_210\n      jump\t// in\n    tag_351:\n        /* \"#utility.yul\":12026:12165   */\n      swap1\n      pop\n        /* \"#utility.yul\":11753:12172   */\n      swap2\n      swap1\n      pop\n      jump\t// out\n        /* \"#utility.yul\":12178:12510   */\n    tag_91:\n        /* \"#utility.yul\":12299:12303   */\n      0x00\n        /* \"#utility.yul\":12337:12339   */\n      0x40\n        /* \"#utility.yul\":12326:12335   */\n      dup3\n        /* \"#utility.yul\":12322:12340   */\n      add\n        /* \"#utility.yul\":12314:12340   */\n      swap1\n      pop\n        /* \"#utility.yul\":12350:12421   */\n      tag_353\n        /* \"#utility.yul\":12418:12419   */\n      0x00\n        /* \"#utility.yul\":12407:12416   */\n      dup4\n        /* \"#utility.yul\":12403:12420   */\n      add\n        /* \"#utility.yul\":12394:12400   */\n      dup6\n        /* \"#utility.yul\":12350:12421   */\n      tag_181\n      jump\t// in\n    tag_353:\n        /* \"#utility.yul\":12431:12503   */\n      tag_354\n        /* \"#utility.yul\":12499:12501   */\n      0x20\n        /* \"#utility.yul\":12488:12497   */\n      dup4\n        /* \"#utility.yul\":12484:12502   */\n      add\n        /* \"#utility.yul\":12475:12481   */\n      dup5\n        /* \"#utility.yul\":12431:12503   */\n      tag_179\n      jump\t// in\n    tag_354:\n        /* \"#utility.yul\":12178:12510   */\n      swap4\n      swap3\n      pop\n      pop\n      pop\n      jump\t// out\n        /* \"#utility.yul\":12516:12693   */\n    tag_211:\n        /* \"#utility.yul\":12656:12685   */\n      0x5472616e73616374696f6e204e6f7420417070726f7665642e2e2e0000000000\n        /* \"#utility.yul\":12652:12653   */\n      0x00\n        /* \"#utility.yul\":12644:12650   */\n      dup3\n        /* \"#utility.yul\":12640:12654   */\n      add\n        /* \"#utility.yul\":12633:12686   */\n      mstore\n        /* \"#utility.yul\":12516:12693   */\n      pop\n      jump\t// out\n        /* \"#utility.yul\":12699:13065   */\n    tag_212:\n        /* \"#utility.yul\":12841:12844   */\n      0x00\n        /* \"#utility.yul\":12862:12929   */\n      tag_357\n        /* \"#utility.yul\":12926:12928   */\n      0x1b\n        /* \"#utility.yul\":12921:12924   */\n      dup4\n        /* \"#utility.yul\":12862:12929   */\n      tag_200\n      jump\t// in\n    tag_357:\n        /* \"#utility.yul\":12855:12929   */\n      swap2\n      pop\n        /* \"#utility.yul\":12938:13031   */\n      tag_358\n        /* \"#utility.yul\":13027:13030   */\n      dup3\n        /* \"#utility.yul\":12938:13031   */\n      tag_211\n      jump\t// in\n    tag_358:\n        /* \"#utility.yul\":13056:13058   */\n      0x20\n        /* \"#utility.yul\":13051:13054   */\n      dup3\n        /* \"#utility.yul\":13047:13059   */\n      add\n        /* \"#utility.yul\":13040:13059   */\n      swap1\n      pop\n        /* \"#utility.yul\":12699:13065   */\n      swap2\n      swap1\n      pop\n      jump\t// out\n        /* \"#utility.yul\":13071:13490   */\n    tag_102:\n        /* \"#utility.yul\":13237:13241   */\n      0x00\n        /* \"#utility.yul\":13275:13277   */\n      0x20\n        /* \"#utility.yul\":13264:13273   */\n      dup3\n        /* \"#utility.yul\":13260:13278   */\n      add\n        /* \"#utility.yul\":13252:13278   */\n      swap1\n      pop\n        /* \"#utility.yul\":13324:13333   */\n      dup2\n        /* \"#utility.yul\":13318:13322   */\n      dup2\n        /* \"#utility.yul\":13314:13334   */\n      sub\n        /* \"#utility.yul\":13310:13311   */\n      0x00\n        /* \"#utility.yul\":13299:13308   */\n      dup4\n        /* \"#utility.yul\":13295:13312   */\n      add\n        /* \"#utility.yul\":13288:13335   */\n      mstore\n        /* \"#utility.yul\":13352:13483   */\n      tag_360\n        /* \"#utility.yul\":13478:13482   */\n      dup2\n        /* \"#utility.yul\":13352:13483   */\n      tag_212\n      jump\t// in\n    tag_360:\n        /* \"#utility.yul\":13344:13483   */\n      swap1\n      pop\n        /* \"#utility.yul\":13071:13490   */\n      swap2\n      swap1\n      pop\n      jump\t// out\n        /* \"#utility.yul\":13496:13676   */\n    tag_213:\n        /* \"#utility.yul\":13544:13621   */\n      0x4e487b7100000000000000000000000000000000000000000000000000000000\n        /* \"#utility.yul\":13541:13542   */\n      0x00\n        /* \"#utility.yul\":13534:13622   */\n      mstore\n        /* \"#utility.yul\":13641:13645   */\n      0x41\n        /* \"#utility.yul\":13638:13639   */\n      0x04\n        /* \"#utility.yul\":13631:13646   */\n      mstore\n        /* \"#utility.yul\":13665:13669   */\n      0x24\n        /* \"#utility.yul\":13662:13663   */\n      0x00\n        /* \"#utility.yul\":13655:13670   */\n      revert\n        /* \"#utility.yul\":13682:13822   */\n    tag_214:\n        /* \"#utility.yul\":13730:13734   */\n      0x00\n        /* \"#utility.yul\":13753:13756   */\n      dup2\n        /* \"#utility.yul\":13745:13756   */\n      swap1\n      pop\n        /* \"#utility.yul\":13776:13779   */\n      dup2\n        /* \"#utility.yul\":13773:13774   */\n      0x00\n        /* \"#utility.yul\":13766:13780   */\n      mstore\n        /* \"#utility.yul\":13810:13814   */\n      0x20\n        /* \"#utility.yul\":13807:13808   */\n      0x00\n        /* \"#utility.yul\":13797:13815   */\n      keccak256\n        /* \"#utility.yul\":13789:13815   */\n      swap1\n      pop\n        /* \"#utility.yul\":13682:13822   */\n      swap2\n      swap1\n      pop\n      jump\t// out\n        /* \"#utility.yul\":13828:13921   */\n    tag_215:\n        /* \"#utility.yul\":13865:13871   */\n      0x00\n        /* \"#utility.yul\":13912:13914   */\n      0x20\n        /* \"#utility.yul\":13907:13909   */\n      0x1f\n        /* \"#utility.yul\":13900:13905   */\n      dup4\n        /* \"#utility.yul\":13896:13910   */\n      add\n        /* \"#utility.yul\":13892:13915   */\n      div\n        /* \"#utility.yul\":13882:13915   */\n      swap1\n      pop\n        /* \"#utility.yul\":13828:13921   */\n      swap2\n      swap1\n      pop\n      jump\t// out\n        /* \"#utility.yul\":13927:14034   */\n    tag_216:\n        /* \"#utility.yul\":13971:13979   */\n      0x00\n        /* \"#utility.yul\":14021:14026   */\n      dup3\n        /* \"#utility.yul\":14015:14019   */\n      dup3\n        /* \"#utility.yul\":14011:14027   */\n      shl\n        /* \"#utility.yul\":13990:14027   */\n      swap1\n      pop\n        /* \"#utility.yul\":13927:14034   */\n      swap3\n      swap2\n      pop\n      pop\n      jump\t// out\n        /* \"#utility.yul\":14040:14433   */\n    tag_217:\n        /* \"#utility.yul\":14109:14115   */\n      0x00\n        /* \"#utility.yul\":14159:14160   */\n      0x08\n        /* \"#utility.yul\":14147:14157   */\n      dup4\n        /* \"#utility.yul\":14143:14161   */\n      mul\n        /* \"#utility.yul\":14182:14279   */\n      tag_366\n        /* \"#utility.yul\":14212:14278   */\n      0xffffffffffffffffffffffffffffffffffffffffffffffffffffffffffffffff\n        /* \"#utility.yul\":14201:14210   */\n      dup3\n        /* \"#utility.yul\":14182:14279   */\n      tag_216\n      jump\t// in\n    tag_366:\n        /* \"#utility.yul\":14300:14339   */\n      tag_367\n        /* \"#utility.yul\":14330:14338   */\n      dup7\n        /* \"#utility.yul\":14319:14328   */\n      dup4\n        /* \"#utility.yul\":14300:14339   */\n      tag_216\n      jump\t// in\n    tag_367:\n        /* \"#utility.yul\":14288:14339   */\n      swap6\n      pop\n        /* \"#utility.yul\":14372:14376   */\n      dup1\n        /* \"#utility.yul\":14368:14377   */\n      not\n        /* \"#utility.yul\":14361:14366   */\n      dup5\n        /* \"#utility.yul\":14357:14378   */\n      and\n        /* \"#utility.yul\":14348:14378   */\n      swap4\n      pop\n        /* \"#utility.yul\":14421:14425   */\n      dup1\n        /* \"#utility.yul\":14411:14419   */\n      dup7\n        /* \"#utility.yul\":14407:14426   */\n      and\n        /* \"#utility.yul\":14400:14405   */\n      dup5\n        /* \"#utility.yul\":14397:14427   */\n      or\n        /* \"#utility.yul\":14387:14427   */\n      swap3\n      pop\n        /* \"#utility.yul\":14116:14433   */\n      pop\n      pop\n        /* \"#utility.yul\":14040:14433   */\n      swap4\n      swap3\n      pop\n      pop\n      pop\n      jump\t// out\n        /* \"#utility.yul\":14439:14499   */\n    tag_218:\n        /* \"#utility.yul\":14467:14470   */\n      0x00\n        /* \"#utility.yul\":14488:14493   */\n      dup2\n        /* \"#utility.yul\":14481:14493   */\n      swap1\n      pop\n        /* \"#utility.yul\":14439:14499   */\n      swap2\n      swap1\n      pop\n      jump\t// out\n        /* \"#utility.yul\":14505:14647   */\n    tag_219:\n        /* \"#utility.yul\":14555:14564   */\n      0x00\n        /* \"#utility.yul\":14588:14641   */\n      tag_370\n        /* \"#utility.yul\":14606:14640   */\n      tag_371\n        /* \"#utility.yul\":14615:14639   */\n      tag_372\n        /* \"#utility.yul\":14633:14638   */\n      dup5\n        /* \"#utility.yul\":14615:14639   */\n      tag_180\n      jump\t// in\n    tag_372:\n        /* \"#utility.yul\":14606:14640   */\n      tag_218\n      jump\t// in\n    tag_371:\n        /* \"#utility.yul\":14588:14641   */\n      tag_180\n      jump\t// in\n    tag_370:\n        /* \"#utility.yul\":14575:14641   */\n      swap1\n      pop\n        /* \"#utility.yul\":14505:14647   */\n      swap2\n      swap1\n      pop\n      jump\t// out\n        /* \"#utility.yul\":14653:14728   */\n    tag_220:\n        /* \"#utility.yul\":14696:14699   */\n      0x00\n        /* \"#utility.yul\":14717:14722   */\n      dup2\n        /* \"#utility.yul\":14710:14722   */\n      swap1\n      pop\n        /* \"#utility.yul\":14653:14728   */\n      swap2\n      swap1\n      pop\n      jump\t// out\n        /* \"#utility.yul\":14734:15003   */\n    tag_221:\n        /* \"#utility.yul\":14844:14883   */\n      tag_375\n        /* \"#utility.yul\":14875:14882   */\n      dup4\n        /* \"#utility.yul\":14844:14883   */\n      tag_219\n      jump\t// in\n    tag_375:\n        /* \"#utility.yul\":14905:14996   */\n      tag_376\n        /* \"#utility.yul\":14954:14995   */\n      tag_377\n        /* \"#utility.yul\":14978:14994   */\n      dup3\n        /* \"#utility.yul\":14954:14995   */\n      tag_220\n      jump\t// in\n    tag_377:\n        /* \"#utility.yul\":14946:14952   */\n      dup5\n        /* \"#utility.yul\":14939:14943   */\n      dup5\n        /* \"#utility.yul\":14933:14944   */\n      sload\n        /* \"#utility.yul\":14905:14996   */\n      tag_217\n      jump\t// in\n    tag_376:\n        /* \"#utility.yul\":14899:14903   */\n      dup3\n        /* \"#utility.yul\":14892:14997   */\n      sstore\n        /* \"#utility.yul\":14810:15003   */\n      pop\n        /* \"#utility.yul\":14734:15003   */\n      pop\n      pop\n      pop\n      jump\t// out\n        /* \"#utility.yul\":15009:15082   */\n    tag_222:\n        /* \"#utility.yul\":15054:15057   */\n      0x00\n        /* \"#utility.yul\":15009:15082   */\n      swap1\n      jump\t// out\n        /* \"#utility.yul\":15088:15277   */\n    tag_223:\n        /* \"#utility.yul\":15165:15197   */\n      tag_380\n      tag_222\n      jump\t// in\n    tag_380:\n        /* \"#utility.yul\":15206:15271   */\n      tag_381\n        /* \"#utility.yul\":15264:15270   */\n      dup2\n        /* \"#utility.yul\":15256:15262   */\n      dup5\n        /* \"#utility.yul\":15250:15254   */\n      dup5\n        /* \"#utility.yul\":15206:15271   */\n      tag_221\n      jump\t// in\n    tag_381:\n        /* \"#utility.yul\":15141:15277   */\n      pop\n        /* \"#utility.yul\":15088:15277   */\n      pop\n      pop\n      jump\t// out\n        /* \"#utility.yul\":15283:15469   */\n    tag_224:\n        /* \"#utility.yul\":15343:15463   */\n    tag_383:\n        /* \"#utility.yul\":15360:15363   */\n      dup2\n        /* \"#utility.yul\":15353:15358   */\n      dup2\n        /* \"#utility.yul\":15350:15364   */\n      lt\n        /* \"#utility.yul\":15343:15463   */\n      iszero\n      tag_385\n      jumpi\n        /* \"#utility.yul\":15414:15453   */\n      tag_386\n        /* \"#utility.yul\":15451:15452   */\n      0x00\n        /* \"#utility.yul\":15444:15449   */\n      dup3\n        /* \"#utility.yul\":15414:15453   */\n      tag_223\n      jump\t// in\n    tag_386:\n        /* \"#utility.yul\":15387:15388   */\n      0x01\n        /* \"#utility.yul\":15380:15385   */\n      dup2\n        /* \"#utility.yul\":15376:15389   */\n      add\n        /* \"#utility.yul\":15367:15389   */\n      swap1\n      pop\n        /* \"#utility.yul\":15343:15463   */\n      jump(tag_383)\n    tag_385:\n        /* \"#utility.yul\":15283:15469   */\n      pop\n      pop\n      jump\t// out\n        /* \"#utility.yul\":15475:16016   */\n    tag_225:\n        /* \"#utility.yul\":15575:15577   */\n      0x1f\n        /* \"#utility.yul\":15570:15573   */\n      dup3\n        /* \"#utility.yul\":15567:15578   */\n      gt\n        /* \"#utility.yul\":15564:16009   */\n      iszero\n      tag_388\n      jumpi\n        /* \"#utility.yul\":15609:15646   */\n      tag_389\n        /* \"#utility.yul\":15640:15645   */\n      dup2\n        /* \"#utility.yul\":15609:15646   */\n      tag_214\n      jump\t// in\n    tag_389:\n        /* \"#utility.yul\":15692:15721   */\n      tag_390\n        /* \"#utility.yul\":15710:15720   */\n      dup5\n        /* \"#utility.yul\":15692:15721   */\n      tag_215\n      jump\t// in\n    tag_390:\n        /* \"#utility.yul\":15682:15690   */\n      dup2\n        /* \"#utility.yul\":15678:15722   */\n      add\n        /* \"#utility.yul\":15875:15877   */\n      0x20\n        /* \"#utility.yul\":15863:15873   */\n      dup6\n        /* \"#utility.yul\":15860:15878   */\n      lt\n        /* \"#utility.yul\":15857:15906   */\n      iszero\n      tag_391\n      jumpi\n        /* \"#utility.yul\":15896:15904   */\n      dup2\n        /* \"#utility.yul\":15881:15904   */\n      swap1\n      pop\n        /* \"#utility.yul\":15857:15906   */\n    tag_391:\n        /* \"#utility.yul\":15919:15999   */\n      tag_392\n        /* \"#utility.yul\":15975:15997   */\n      tag_393\n        /* \"#utility.yul\":15993:15996   */\n      dup6\n        /* \"#utility.yul\":15975:15997   */\n      tag_215\n      jump\t// in\n    tag_393:\n        /* \"#utility.yul\":15965:15973   */\n      dup4\n        /* \"#utility.yul\":15961:15998   */\n      add\n        /* \"#utility.yul\":15948:15959   */\n      dup3\n        /* \"#utility.yul\":15919:15999   */\n      tag_224\n      jump\t// in\n    tag_392:\n        /* \"#utility.yul\":15579:16009   */\n      pop\n      pop\n        /* \"#utility.yul\":15564:16009   */\n    tag_388:\n        /* \"#utility.yul\":15475:16016   */\n      pop\n      pop\n      pop\n      jump\t// out\n        /* \"#utility.yul\":16022:16139   */\n    tag_226:\n        /* \"#utility.yul\":16076:16084   */\n      0x00\n        /* \"#utility.yul\":16126:16131   */\n      dup3\n        /* \"#utility.yul\":16120:16124   */\n      dup3\n        /* \"#utility.yul\":16116:16132   */\n      shr\n        /* \"#utility.yul\":16095:16132   */\n      swap1\n      pop\n        /* \"#utility.yul\":16022:16139   */\n      swap3\n      swap2\n      pop\n      pop\n      jump\t// out\n        /* \"#utility.yul\":16145:16314   */\n    tag_227:\n        /* \"#utility.yul\":16189:16195   */\n      0x00\n        /* \"#utility.yul\":16222:16273   */\n      tag_396\n        /* \"#utility.yul\":16270:16271   */\n      0x00\n        /* \"#utility.yul\":16266:16272   */\n      not\n        /* \"#utility.yul\":16258:16263   */\n      dup5\n        /* \"#utility.yul\":16255:16256   */\n      0x08\n        /* \"#utility.yul\":16251:16264   */\n      mul\n        /* \"#utility.yul\":16222:16273   */\n      tag_226\n      jump\t// in\n    tag_396:\n        /* \"#utility.yul\":16218:16274   */\n      not\n        /* \"#utility.yul\":16303:16307   */\n      dup1\n        /* \"#utility.yul\":16297:16301   */\n      dup4\n        /* \"#utility.yul\":16293:16308   */\n      and\n        /* \"#utility.yul\":16283:16308   */\n      swap2\n      pop\n        /* \"#utility.yul\":16196:16314   */\n      pop\n        /* \"#utility.yul\":16145:16314   */\n      swap3\n      swap2\n      pop\n      pop\n      jump\t// out\n        /* \"#utility.yul\":16319:16614   */\n    tag_228:\n        /* \"#utility.yul\":16395:16399   */\n      0x00\n        /* \"#utility.yul\":16541:16570   */\n      tag_398\n        /* \"#utility.yul\":16566:16569   */\n      dup4\n        /* \"#utility.yul\":16560:16564   */\n      dup4\n        /* \"#utility.yul\":16541:16570   */\n      tag_227\n      jump\t// in\n    tag_398:\n        /* \"#utility.yul\":16533:16570   */\n      swap2\n      pop\n        /* \"#utility.yul\":16603:16606   */\n      dup3\n        /* \"#utility.yul\":16600:16601   */\n      0x02\n        /* \"#utility.yul\":16596:16607   */\n      mul\n        /* \"#utility.yul\":16590:16594   */\n      dup3\n        /* \"#utility.yul\":16587:16608   */\n      or\n        /* \"#utility.yul\":16579:16608   */\n      swap1\n      pop\n        /* \"#utility.yul\":16319:16614   */\n      swap3\n      swap2\n      pop\n      pop\n      jump\t// out\n        /* \"#utility.yul\":16619:18009   */\n    tag_129:\n        /* \"#utility.yul\":16734:16770   */\n      tag_400\n        /* \"#utility.yul\":16766:16769   */\n      dup3\n        /* \"#utility.yul\":16734:16770   */\n      tag_191\n      jump\t// in\n    tag_400:\n        /* \"#utility.yul\":16835:16853   */\n      0xffffffffffffffff\n        /* \"#utility.yul\":16827:16833   */\n      dup2\n        /* \"#utility.yul\":16824:16854   */\n      gt\n        /* \"#utility.yul\":16821:16877   */\n      iszero\n      tag_401\n      jumpi\n        /* \"#utility.yul\":16857:16875   */\n      tag_402\n      tag_213\n      jump\t// in\n    tag_402:\n        /* \"#utility.yul\":16821:16877   */\n    tag_401:\n        /* \"#utility.yul\":16901:16939   */\n      tag_403\n        /* \"#utility.yul\":16933:16937   */\n      dup3\n        /* \"#utility.yul\":16927:16938   */\n      sload\n        /* \"#utility.yul\":16901:16939   */\n      tag_81\n      jump\t// in\n    tag_403:\n        /* \"#utility.yul\":16986:17052   */\n      tag_404\n        /* \"#utility.yul\":17045:17051   */\n      dup3\n        /* \"#utility.yul\":17037:17043   */\n      dup3\n        /* \"#utility.yul\":17031:17035   */\n      dup6\n        /* \"#utility.yul\":16986:17052   */\n      tag_225\n      jump\t// in\n    tag_404:\n        /* \"#utility.yul\":17079:17080   */\n      0x00\n        /* \"#utility.yul\":17103:17107   */\n      0x20\n        /* \"#utility.yul\":17090:17107   */\n      swap1\n      pop\n        /* \"#utility.yul\":17135:17137   */\n      0x1f\n        /* \"#utility.yul\":17127:17133   */\n      dup4\n        /* \"#utility.yul\":17124:17138   */\n      gt\n        /* \"#utility.yul\":17152:17153   */\n      0x01\n        /* \"#utility.yul\":17147:17764   */\n      dup2\n      eq\n      tag_406\n      jumpi\n        /* \"#utility.yul\":17808:17809   */\n      0x00\n        /* \"#utility.yul\":17825:17831   */\n      dup5\n        /* \"#utility.yul\":17822:17899   */\n      iszero\n      tag_407\n      jumpi\n        /* \"#utility.yul\":17874:17883   */\n      dup3\n        /* \"#utility.yul\":17869:17872   */\n      dup8\n        /* \"#utility.yul\":17865:17884   */\n      add\n        /* \"#utility.yul\":17859:17885   */\n      mload\n        /* \"#utility.yul\":17850:17885   */\n      swap1\n      pop\n        /* \"#utility.yul\":17822:17899   */\n    tag_407:\n        /* \"#utility.yul\":17925:17992   */\n      tag_408\n        /* \"#utility.yul\":17985:17991   */\n      dup6\n        /* \"#utility.yul\":17978:17983   */\n      dup3\n        /* \"#utility.yul\":17925:17992   */\n      tag_228\n      jump\t// in\n    tag_408:\n        /* \"#utility.yul\":17919:17923   */\n      dup7\n        /* \"#utility.yul\":17912:17993   */\n      sstore\n        /* \"#utility.yul\":17781:18003   */\n      pop\n        /* \"#utility.yul\":17117:18003   */\n      jump(tag_405)\n        /* \"#utility.yul\":17147:17764   */\n    tag_406:\n        /* \"#utility.yul\":17199:17203   */\n      0x1f\n        /* \"#utility.yul\":17195:17204   */\n      not\n        /* \"#utility.yul\":17187:17193   */\n      dup5\n        /* \"#utility.yul\":17183:17205   */\n      and\n        /* \"#utility.yul\":17233:17269   */\n      tag_409\n        /* \"#utility.yul\":17264:17268   */\n      dup7\n        /* \"#utility.yul\":17233:17269   */\n      tag_214\n      jump\t// in\n    tag_409:\n        /* \"#utility.yul\":17291:17292   */\n      0x00\n        /* \"#utility.yul\":17305:17513   */\n    tag_410:\n        /* \"#utility.yul\":17319:17326   */\n      dup3\n        /* \"#utility.yul\":17316:17317   */\n      dup2\n        /* \"#utility.yul\":17313:17327   */\n      lt\n        /* \"#utility.yul\":17305:17513   */\n      iszero\n      tag_412\n      jumpi\n        /* \"#utility.yul\":17398:17407   */\n      dup5\n        /* \"#utility.yul\":17393:17396   */\n      dup10\n        /* \"#utility.yul\":17389:17408   */\n      add\n        /* \"#utility.yul\":17383:17409   */\n      mload\n        /* \"#utility.yul\":17375:17381   */\n      dup3\n        /* \"#utility.yul\":17368:17410   */\n      sstore\n        /* \"#utility.yul\":17449:17450   */\n      0x01\n        /* \"#utility.yul\":17441:17447   */\n      dup3\n        /* \"#utility.yul\":17437:17451   */\n      add\n        /* \"#utility.yul\":17427:17451   */\n      swap2\n      pop\n        /* \"#utility.yul\":17496:17498   */\n      0x20\n        /* \"#utility.yul\":17485:17494   */\n      dup6\n        /* \"#utility.yul\":17481:17499   */\n      add\n        /* \"#utility.yul\":17468:17499   */\n      swap5\n      pop\n        /* \"#utility.yul\":17342:17346   */\n      0x20\n        /* \"#utility.yul\":17339:17340   */\n      dup2\n        /* \"#utility.yul\":17335:17347   */\n      add\n        /* \"#utility.yul\":17330:17347   */\n      swap1\n      pop\n        /* \"#utility.yul\":17305:17513   */\n      jump(tag_410)\n    tag_412:\n        /* \"#utility.yul\":17541:17547   */\n      dup7\n        /* \"#utility.yul\":17532:17539   */\n      dup4\n        /* \"#utility.yul\":17529:17548   */\n      lt\n        /* \"#utility.yul\":17526:17705   */\n      iszero\n      tag_413\n      jumpi\n        /* \"#utility.yul\":17599:17608   */\n      dup5\n        /* \"#utility.yul\":17594:17597   */\n      dup10\n        /* \"#utility.yul\":17590:17609   */\n      add\n        /* \"#utility.yul\":17584:17610   */\n      mload\n        /* \"#utility.yul\":17642:17690   */\n      tag_414\n        /* \"#utility.yul\":17684:17688   */\n      0x1f\n        /* \"#utility.yul\":17676:17682   */\n      dup10\n        /* \"#utility.yul\":17672:17689   */\n      and\n        /* \"#utility.yul\":17661:17670   */\n      dup3\n        /* \"#utility.yul\":17642:17690   */\n      tag_227\n      jump\t// in\n    tag_414:\n        /* \"#utility.yul\":17634:17640   */\n      dup4\n        /* \"#utility.yul\":17627:17691   */\n      sstore\n        /* \"#utility.yul\":17549:17705   */\n      pop\n        /* \"#utility.yul\":17526:17705   */\n    tag_413:\n        /* \"#utility.yul\":17751:17752   */\n      0x01\n        /* \"#utility.yul\":17747:17748   */\n      0x02\n        /* \"#utility.yul\":17739:17745   */\n      dup9\n        /* \"#utility.yul\":17735:17749   */\n      mul\n        /* \"#utility.yul\":17731:17753   */\n      add\n        /* \"#utility.yul\":17725:17729   */\n      dup9\n        /* \"#utility.yul\":17718:17754   */\n      sstore\n        /* \"#utility.yul\":17154:17764   */\n      pop\n      pop\n      pop\n        /* \"#utility.yul\":17117:18003   */\n    tag_405:\n      pop\n        /* \"#utility.yul\":16709:18009   */\n      pop\n      pop\n      pop\n        /* \"#utility.yul\":16619:18009   */\n      pop\n      pop\n      jump\t// out\n        /* \"#utility.yul\":18015:18188   */\n    tag_229:\n        /* \"#utility.yul\":18155:18180   */\n      0x4e6f7420456e6f75676820417070726f76616c732e2e2e000000000000000000\n        /* \"#utility.yul\":18151:18152   */\n      0x00\n        /* \"#utility.yul\":18143:18149   */\n      dup3\n        /* \"#utility.yul\":18139:18153   */\n      add\n        /* \"#utility.yul\":18132:18181   */\n      mstore\n        /* \"#utility.yul\":18015:18188   */\n      pop\n      jump\t// out\n        /* \"#utility.yul\":18194:18560   */\n    tag_230:\n        /* \"#utility.yul\":18336:18339   */\n      0x00\n        /* \"#utility.yul\":18357:18424   */\n      tag_417\n        /* \"#utility.yul\":18421:18423   */\n      0x17\n        /* \"#utility.yul\":18416:18419   */\n      dup4\n        /* \"#utility.yul\":18357:18424   */\n      tag_200\n      jump\t// in\n    tag_417:\n        /* \"#utility.yul\":18350:18424   */\n      swap2\n      pop\n        /* \"#utility.yul\":18433:18526   */\n      tag_418\n        /* \"#utility.yul\":18522:18525   */\n      dup3\n        /* \"#utility.yul\":18433:18526   */\n      tag_229\n      jump\t// in\n    tag_418:\n        /* \"#utility.yul\":18551:18553   */\n      0x20\n        /* \"#utility.yul\":18546:18549   */\n      dup3\n        /* \"#utility.yul\":18542:18554   */\n      add\n        /* \"#utility.yul\":18535:18554   */\n      swap1\n      pop\n        /* \"#utility.yul\":18194:18560   */\n      swap2\n      swap1\n      pop\n      jump\t// out\n        /* \"#utility.yul\":18566:18985   */\n    tag_153:\n        /* \"#utility.yul\":18732:18736   */\n      0x00\n        /* \"#utility.yul\":18770:18772   */\n      0x20\n        /* \"#utility.yul\":18759:18768   */\n      dup3\n        /* \"#utility.yul\":18755:18773   */\n      add\n        /* \"#utility.yul\":18747:18773   */\n      swap1\n      pop\n        /* \"#utility.yul\":18819:18828   */\n      dup2\n        /* \"#utility.yul\":18813:18817   */\n      dup2\n        /* \"#utility.yul\":18809:18829   */\n      sub\n        /* \"#utility.yul\":18805:18806   */\n      0x00\n        /* \"#utility.yul\":18794:18803   */\n      dup4\n        /* \"#utility.yul\":18790:18807   */\n      add\n        /* \"#utility.yul\":18783:18830   */\n      mstore\n        /* \"#utility.yul\":18847:18978   */\n      tag_420\n        /* \"#utility.yul\":18973:18977   */\n      dup2\n        /* \"#utility.yul\":18847:18978   */\n      tag_230\n      jump\t// in\n    tag_420:\n        /* \"#utility.yul\":18839:18978   */\n      swap1\n      pop\n        /* \"#utility.yul\":18566:18985   */\n      swap2\n      swap1\n      pop\n      jump\t// out\n        /* \"#utility.yul\":18991:19138   */\n    tag_231:\n        /* \"#utility.yul\":19092:19103   */\n      0x00\n        /* \"#utility.yul\":19129:19132   */\n      dup2\n        /* \"#utility.yul\":19114:19132   */\n      swap1\n      pop\n        /* \"#utility.yul\":18991:19138   */\n      swap3\n      swap2\n      pop\n      pop\n      jump\t// out\n        /* \"#utility.yul\":19166:20036   */\n    tag_232:\n        /* \"#utility.yul\":19267:19270   */\n      0x00\n        /* \"#utility.yul\":19304:19309   */\n      dup2\n        /* \"#utility.yul\":19298:19310   */\n      sload\n        /* \"#utility.yul\":19333:19369   */\n      tag_423\n        /* \"#utility.yul\":19359:19368   */\n      dup2\n        /* \"#utility.yul\":19333:19369   */\n      tag_81\n      jump\t// in\n    tag_423:\n        /* \"#utility.yul\":19385:19473   */\n      tag_424\n        /* \"#utility.yul\":19466:19472   */\n      dup2\n        /* \"#utility.yul\":19461:19464   */\n      dup7\n        /* \"#utility.yul\":19385:19473   */\n      tag_231\n      jump\t// in\n    tag_424:\n        /* \"#utility.yul\":19378:19473   */\n      swap5\n      pop\n        /* \"#utility.yul\":19504:19505   */\n      0x01\n        /* \"#utility.yul\":19493:19502   */\n      dup3\n        /* \"#utility.yul\":19489:19506   */\n      and\n        /* \"#utility.yul\":19520:19521   */\n      0x00\n        /* \"#utility.yul\":19515:19681   */\n      dup2\n      eq\n      tag_426\n      jumpi\n        /* \"#utility.yul\":19695:19696   */\n      0x01\n        /* \"#utility.yul\":19690:20030   */\n      dup2\n      eq\n      tag_427\n      jumpi\n        /* \"#utility.yul\":19482:20030   */\n      jump(tag_425)\n        /* \"#utility.yul\":19515:19681   */\n    tag_426:\n        /* \"#utility.yul\":19599:19603   */\n      0xff\n        /* \"#utility.yul\":19595:19604   */\n      not\n        /* \"#utility.yul\":19584:19593   */\n      dup4\n        /* \"#utility.yul\":19580:19605   */\n      and\n        /* \"#utility.yul\":19575:19578   */\n      dup7\n        /* \"#utility.yul\":19568:19606   */\n      mstore\n        /* \"#utility.yul\":19661:19667   */\n      dup2\n        /* \"#utility.yul\":19654:19668   */\n      iszero\n        /* \"#utility.yul\":19647:19669   */\n      iszero\n        /* \"#utility.yul\":19639:19645   */\n      dup3\n        /* \"#utility.yul\":19635:19670   */\n      mul\n        /* \"#utility.yul\":19630:19633   */\n      dup7\n        /* \"#utility.yul\":19626:19671   */\n      add\n        /* \"#utility.yul\":19619:19671   */\n      swap4\n      pop\n        /* \"#utility.yul\":19515:19681   */\n      jump(tag_425)\n        /* \"#utility.yul\":19690:20030   */\n    tag_427:\n        /* \"#utility.yul\":19757:19794   */\n      tag_428\n        /* \"#utility.yul\":19788:19793   */\n      dup6\n        /* \"#utility.yul\":19757:19794   */\n      tag_214\n      jump\t// in\n    tag_428:\n        /* \"#utility.yul\":19816:19817   */\n      0x00\n        /* \"#utility.yul\":19830:19984   */\n    tag_429:\n        /* \"#utility.yul\":19844:19850   */\n      dup4\n        /* \"#utility.yul\":19841:19842   */\n      dup2\n        /* \"#utility.yul\":19838:19851   */\n      lt\n        /* \"#utility.yul\":19830:19984   */\n      iszero\n      tag_431\n      jumpi\n        /* \"#utility.yul\":19918:19925   */\n      dup2\n        /* \"#utility.yul\":19912:19926   */\n      sload\n        /* \"#utility.yul\":19908:19909   */\n      dup2\n        /* \"#utility.yul\":19903:19906   */\n      dup10\n        /* \"#utility.yul\":19899:19910   */\n      add\n        /* \"#utility.yul\":19892:19927   */\n      mstore\n        /* \"#utility.yul\":19968:19969   */\n      0x01\n        /* \"#utility.yul\":19959:19966   */\n      dup3\n        /* \"#utility.yul\":19955:19970   */\n      add\n        /* \"#utility.yul\":19944:19970   */\n      swap2\n      pop\n        /* \"#utility.yul\":19866:19870   */\n      0x20\n        /* \"#utility.yul\":19863:19864   */\n      dup2\n        /* \"#utility.yul\":19859:19871   */\n      add\n        /* \"#utility.yul\":19854:19871   */\n      swap1\n      pop\n        /* \"#utility.yul\":19830:19984   */\n      jump(tag_429)\n    tag_431:\n        /* \"#utility.yul\":20013:20019   */\n      dup4\n        /* \"#utility.yul\":20008:20011   */\n      dup9\n        /* \"#utility.yul\":20004:20020   */\n      add\n        /* \"#utility.yul\":19997:20020   */\n      swap6\n      pop\n        /* \"#utility.yul\":19697:20030   */\n      pop\n      pop\n        /* \"#utility.yul\":19482:20030   */\n    tag_425:\n      pop\n        /* \"#utility.yul\":19271:20036   */\n      pop\n      pop\n        /* \"#utility.yul\":19166:20036   */\n      swap3\n      swap2\n      pop\n      pop\n      jump\t// out\n        /* \"#utility.yul\":20042:20307   */\n    tag_158:\n        /* \"#utility.yul\":20169:20172   */\n      0x00\n        /* \"#utility.yul\":20191:20281   */\n      tag_433\n        /* \"#utility.yul\":20277:20280   */\n      dup3\n        /* \"#utility.yul\":20268:20274   */\n      dup5\n        /* \"#utility.yul\":20191:20281   */\n      tag_232\n      jump\t// in\n    tag_433:\n        /* \"#utility.yul\":20184:20281   */\n      swap2\n      pop\n        /* \"#utility.yul\":20298:20301   */\n      dup2\n        /* \"#utility.yul\":20291:20301   */\n      swap1\n      pop\n        /* \"#utility.yul\":20042:20307   */\n      swap3\n      swap2\n      pop\n      pop\n      jump\t// out\n        /* \"#utility.yul\":20313:20485   */\n    tag_233:\n        /* \"#utility.yul\":20453:20477   */\n      0x5472616e73616374696f6e20496e636f6d706c65746500000000000000000000\n        /* \"#utility.yul\":20449:20450   */\n      0x00\n        /* \"#utility.yul\":20441:20447   */\n      dup3\n        /* \"#utility.yul\":20437:20451   */\n      add\n        /* \"#utility.yul\":20430:20478   */\n      mstore\n        /* \"#utility.yul\":20313:20485   */\n      pop\n      jump\t// out\n        /* \"#utility.yul\":20491:20857   */\n    tag_234:\n        /* \"#utility.yul\":20633:20636   */\n      0x00\n        /* \"#utility.yul\":20654:20721   */\n      tag_436\n        /* \"#utility.yul\":20718:20720   */\n      0x16\n        /* \"#utility.yul\":20713:20716   */\n      dup4\n        /* \"#utility.yul\":20654:20721   */\n      tag_200\n      jump\t// in\n    tag_436:\n        /* \"#utility.yul\":20647:20721   */\n      swap2\n      pop\n        /* \"#utility.yul\":20730:20823   */\n      tag_437\n        /* \"#utility.yul\":20819:20822   */\n      dup3\n        /* \"#utility.yul\":20730:20823   */\n      tag_233\n      jump\t// in\n    tag_437:\n        /* \"#utility.yul\":20848:20850   */\n      0x20\n        /* \"#utility.yul\":20843:20846   */\n      dup3\n        /* \"#utility.yul\":20839:20851   */\n      add\n        /* \"#utility.yul\":20832:20851   */\n      swap1\n      pop\n        /* \"#utility.yul\":20491:20857   */\n      swap2\n      swap1\n      pop\n      jump\t// out\n        /* \"#utility.yul\":20863:21282   */\n    tag_164:\n        /* \"#utility.yul\":21029:21033   */\n      0x00\n        /* \"#utility.yul\":21067:21069   */\n      0x20\n        /* \"#utility.yul\":21056:21065   */\n      dup3\n        /* \"#utility.yul\":21052:21070   */\n      add\n        /* \"#utility.yul\":21044:21070   */\n      swap1\n      pop\n        /* \"#utility.yul\":21116:21125   */\n      dup2\n        /* \"#utility.yul\":21110:21114   */\n      dup2\n        /* \"#utility.yul\":21106:21126   */\n      sub\n        /* \"#utility.yul\":21102:21103   */\n      0x00\n        /* \"#utility.yul\":21091:21100   */\n      dup4\n        /* \"#utility.yul\":21087:21104   */\n      add\n        /* \"#utility.yul\":21080:21127   */\n      mstore\n        /* \"#utility.yul\":21144:21275   */\n      tag_439\n        /* \"#utility.yul\":21270:21274   */\n      dup2\n        /* \"#utility.yul\":21144:21275   */\n      tag_234\n      jump\t// in\n    tag_439:\n        /* \"#utility.yul\":21136:21275   */\n      swap1\n      pop\n        /* \"#utility.yul\":20863:21282   */\n      swap2\n      swap1\n      pop\n      jump\t// out\n        /* \"#utility.yul\":21288:21479   */\n    tag_174:\n        /* \"#utility.yul\":21328:21331   */\n      0x00\n        /* \"#utility.yul\":21347:21367   */\n      tag_441\n        /* \"#utility.yul\":21365:21366   */\n      dup3\n        /* \"#utility.yul\":21347:21367   */\n      tag_180\n      jump\t// in\n    tag_441:\n        /* \"#utility.yul\":21342:21367   */\n      swap2\n      pop\n        /* \"#utility.yul\":21381:21401   */\n      tag_442\n        /* \"#utility.yul\":21399:21400   */\n      dup4\n        /* \"#utility.yul\":21381:21401   */\n      tag_180\n      jump\t// in\n    tag_442:\n        /* \"#utility.yul\":21376:21401   */\n      swap3\n      pop\n        /* \"#utility.yul\":21424:21425   */\n      dup3\n        /* \"#utility.yul\":21421:21422   */\n      dup3\n        /* \"#utility.yul\":21417:21426   */\n      add\n        /* \"#utility.yul\":21410:21426   */\n      swap1\n      pop\n        /* \"#utility.yul\":21445:21448   */\n      dup1\n        /* \"#utility.yul\":21442:21443   */\n      dup3\n        /* \"#utility.yul\":21439:21449   */\n      gt\n        /* \"#utility.yul\":21436:21472   */\n      iszero\n      tag_443\n      jumpi\n        /* \"#utility.yul\":21452:21470   */\n      tag_444\n      tag_203\n      jump\t// in\n    tag_444:\n        /* \"#utility.yul\":21436:21472   */\n    tag_443:\n        /* \"#utility.yul\":21288:21479   */\n      swap3\n      swap2\n      pop\n      pop\n      jump\t// out\n        /* \"#utility.yul\":21485:21718   */\n    tag_176:\n        /* \"#utility.yul\":21524:21527   */\n      0x00\n        /* \"#utility.yul\":21547:21571   */\n      tag_446\n        /* \"#utility.yul\":21565:21570   */\n      dup3\n        /* \"#utility.yul\":21547:21571   */\n      tag_180\n      jump\t// in\n    tag_446:\n        /* \"#utility.yul\":21538:21571   */\n      swap2\n      pop\n        /* \"#utility.yul\":21593:21659   */\n      0xffffffffffffffffffffffffffffffffffffffffffffffffffffffffffffffff\n        /* \"#utility.yul\":21586:21591   */\n      dup3\n        /* \"#utility.yul\":21583:21660   */\n      sub\n        /* \"#utility.yul\":21580:21683   */\n      tag_447\n      jumpi\n        /* \"#utility.yul\":21663:21681   */\n      tag_448\n      tag_203\n      jump\t// in\n    tag_448:\n        /* \"#utility.yul\":21580:21683   */\n    tag_447:\n        /* \"#utility.yul\":21710:21711   */\n      0x01\n        /* \"#utility.yul\":21703:21708   */\n      dup3\n        /* \"#utility.yul\":21699:21712   */\n      add\n        /* \"#utility.yul\":21692:21712   */\n      swap1\n      pop\n        /* \"#utility.yul\":21485:21718   */\n      swap2\n      swap1\n      pop\n      jump\t// out\n\n    auxdata: 0xa264697066735822122061c87148bced4e58ecdb77b841b89b91f2af38a664c6c9ee3b1deec6091c890564736f6c63430008100033\n}\n",
				"bytecode": {
					"linkReferences": {},
					"object": "60806040523480156200001157600080fd5b50604051620022fc380380620022fc833981810160405281019062000037919062000400565b60005b8251811015620001c75760008382815181106200005c576200005b62000466565b5b60200260200101519050600160008273ffffffffffffffffffffffffffffffffffffffff1673ffffffffffffffffffffffffffffffffffffffff16815260200190815260200160002060009054906101000a900460ff1615620000f6576040517f08c379a0000000000000000000000000000000000000000000000000000000008152600401620000ed90620004f6565b60405180910390fd5b6000819080600181540180825580915050600190039060005260206000200160009091909190916101000a81548173ffffffffffffffffffffffffffffffffffffffff021916908373ffffffffffffffffffffffffffffffffffffffff16021790555060018060008373ffffffffffffffffffffffffffffffffffffffff1673ffffffffffffffffffffffffffffffffffffffff16815260200190815260200160002060006101000a81548160ff021916908315150217905550508080620001be9062000547565b9150506200003a565b5080600281905550505062000594565b6000604051905090565b600080fd5b600080fd5b600080fd5b6000601f19601f8301169050919050565b7f4e487b7100000000000000000000000000000000000000000000000000000000600052604160045260246000fd5b6200023b82620001f0565b810181811067ffffffffffffffff821117156200025d576200025c62000201565b5b80604052505050565b600062000272620001d7565b905062000280828262000230565b919050565b600067ffffffffffffffff821115620002a357620002a262000201565b5b602082029050602081019050919050565b600080fd5b600073ffffffffffffffffffffffffffffffffffffffff82169050919050565b6000620002e682620002b9565b9050919050565b620002f881620002d9565b81146200030457600080fd5b50565b6000815190506200031881620002ed565b92915050565b6000620003356200032f8462000285565b62000266565b905080838252602082019050602084028301858111156200035b576200035a620002b4565b5b835b8181101562000388578062000373888262000307565b8452602084019350506020810190506200035d565b5050509392505050565b600082601f830112620003aa57620003a9620001eb565b5b8151620003bc8482602086016200031e565b91505092915050565b6000819050919050565b620003da81620003c5565b8114620003e657600080fd5b50565b600081519050620003fa81620003cf565b92915050565b600080604083850312156200041a5762000419620001e1565b5b600083015167ffffffffffffffff8111156200043b576200043a620001e6565b5b620004498582860162000392565b92505060206200045c85828601620003e9565b9150509250929050565b7f4e487b7100000000000000000000000000000000000000000000000000000000600052603260045260246000fd5b600082825260208201905092915050565b7f416c7265616479204578697374732e2e2e000000000000000000000000000000600082015250565b6000620004de60118362000495565b9150620004eb82620004a6565b602082019050919050565b600060208201905081810360008301526200051181620004cf565b9050919050565b7f4e487b7100000000000000000000000000000000000000000000000000000000600052601160045260246000fd5b60006200055482620003c5565b91507fffffffffffffffffffffffffffffffffffffffffffffffffffffffffffffffff820362000589576200058862000518565b5b600182019050919050565b611d5880620005a46000396000f3fe60806040526004361061007f5760003560e01c8063b1e130fc1161004e578063b1e130fc146101a7578063b848de35146101d0578063c0c64a491461020d578063ee22610b14610236576100bf565b8063025e7c27146100c4578063242232d1146101015780632f54bf6e1461012a5780639ace38c214610167576100bf565b366100bf577fe1fffcc4923d04b559f4d29a8bfc6cda04eb5b0d3c460751c2402c5c5cc9109c33346040516100b5929190611209565b60405180910390a1005b600080fd5b3480156100d057600080fd5b506100eb60048036038101906100e69190611268565b61025f565b6040516100f89190611295565b60405180910390f35b34801561010d57600080fd5b5061012860048036038101906101239190611268565b61029e565b005b34801561013657600080fd5b50610151600480360381019061014c91906112dc565b61064b565b60405161015e9190611324565b60405180910390f35b34801561017357600080fd5b5061018e60048036038101906101899190611268565b61066b565b60405161019e94939291906113cf565b60405180910390f35b3480156101b357600080fd5b506101ce60048036038101906101c99190611268565b610760565b005b3480156101dc57600080fd5b506101f760048036038101906101f2919061141b565b610b0c565b6040516102049190611324565b60405180910390f35b34801561021957600080fd5b50610234600480360381019061022f91906114c0565b610b3b565b005b34801561024257600080fd5b5061025d60048036038101906102589190611268565b610cff565b005b6000818154811061026f57600080fd5b906000526020600020016000915054906101000a900473ffffffffffffffffffffffffffffffffffffffff1681565b806003600082815260200190815260200160002060003373ffffffffffffffffffffffffffffffffffffffff1673ffffffffffffffffffffffffffffffffffffffff16815260200190815260200160002060009054906101000a900460ff161561033d576040517f08c379a000000000000000000000000000000000000000000000000000000000815260040161033490611591565b60405180910390fd5b81600160048054905061035091906115e0565b811115610392576040517f08c379a000000000000000000000000000000000000000000000000000000000815260040161038990611660565b60405180910390fd5b600160003373ffffffffffffffffffffffffffffffffffffffff1673ffffffffffffffffffffffffffffffffffffffff16815260200190815260200160002060009054906101000a900460ff1661041e576040517f08c379a0000000000000000000000000000000000000000000000000000000008152600401610415906116cc565b60405180910390fd5b82600060048281548110610435576104346116ec565b5b90600052602060002090600402016040518060800160405290816000820160009054906101000a900473ffffffffffffffffffffffffffffffffffffffff1673ffffffffffffffffffffffffffffffffffffffff1673ffffffffffffffffffffffffffffffffffffffff168152602001600182015481526020016002820160009054906101000a900460ff161515151581526020016003820180546104d99061174a565b80601f01602080910402602001604051908101604052809291908181526020018280546105059061174a565b80156105525780601f1061052757610100808354040283529160200191610552565b820191906000526020600020905b81548152906001019060200180831161053557829003601f168201915b50505050508152505090508060400151156105a2576040517f08c379a0000000000000000000000000000000000000000000000000000000008152600401610599906117c7565b60405180910390fd5b60016003600087815260200190815260200160002060003373ffffffffffffffffffffffffffffffffffffffff1673ffffffffffffffffffffffffffffffffffffffff16815260200190815260200160002060006101000a81548160ff0219169083151502179055507f47ad3e4b0f4bdbe3ac08708bbc45053d2ff616911b39e65563fd9bd781909645853360405161063c9291906117e7565b60405180910390a15050505050565b60016020528060005260406000206000915054906101000a900460ff1681565b6004818154811061067b57600080fd5b90600052602060002090600402016000915090508060000160009054906101000a900473ffffffffffffffffffffffffffffffffffffffff16908060010154908060020160009054906101000a900460ff16908060030180546106dd9061174a565b80601f01602080910402602001604051908101604052809291908181526020018280546107099061174a565b80156107565780601f1061072b57610100808354040283529160200191610756565b820191906000526020600020905b81548152906001019060200180831161073957829003601f168201915b5050505050905084565b806003600082815260200190815260200160002060003373ffffffffffffffffffffffffffffffffffffffff1673ffffffffffffffffffffffffffffffffffffffff16815260200190815260200160002060009054906101000a900460ff166107fe576040517f08c379a00000000000000000000000000000000000000000000000000000000081526004016107f59061185c565b60405180910390fd5b81600160048054905061081191906115e0565b811115610853576040517f08c379a000000000000000000000000000000000000000000000000000000000815260040161084a90611660565b60405180910390fd5b600160003373ffffffffffffffffffffffffffffffffffffffff1673ffffffffffffffffffffffffffffffffffffffff16815260200190815260200160002060009054906101000a900460ff166108df576040517f08c379a00000000000000000000000000000000000000000000000000000000081526004016108d6906116cc565b60405180910390fd5b826000600482815481106108f6576108f56116ec565b5b90600052602060002090600402016040518060800160405290816000820160009054906101000a900473ffffffffffffffffffffffffffffffffffffffff1673ffffffffffffffffffffffffffffffffffffffff1673ffffffffffffffffffffffffffffffffffffffff168152602001600182015481526020016002820160009054906101000a900460ff1615151515815260200160038201805461099a9061174a565b80601f01602080910402602001604051908101604052809291908181526020018280546109c69061174a565b8015610a135780601f106109e857610100808354040283529160200191610a13565b820191906000526020600020905b8154815290600101906020018083116109f657829003601f168201915b5050505050815250509050806040015115610a63576040517f08c379a0000000000000000000000000000000000000000000000000000000008152600401610a5a906117c7565b60405180910390fd5b60006003600087815260200190815260200160002060003373ffffffffffffffffffffffffffffffffffffffff1673ffffffffffffffffffffffffffffffffffffffff16815260200190815260200160002060006101000a81548160ff0219169083151502179055507fd5d64031e0f55cf42bc3b7d0462f8404a4d63f7ccf84be9510cd6a5300552e428533604051610afd9291906117e7565b60405180910390a15050505050565b60036020528160005260406000206020528060005260406000206000915091509054906101000a900460ff1681565b600160003373ffffffffffffffffffffffffffffffffffffffff1673ffffffffffffffffffffffffffffffffffffffff16815260200190815260200160002060009054906101000a900460ff16610bc7576040517f08c379a0000000000000000000000000000000000000000000000000000000008152600401610bbe906116cc565b60405180910390fd5b600460405180608001604052808673ffffffffffffffffffffffffffffffffffffffff16815260200185815260200160001515815260200184848080601f016020809104026020016040519081016040528093929190818152602001838380828437600081840152601f19601f82011690508083019250505050505050815250908060018154018082558091505060019003906000526020600020906004020160009091909190915060008201518160000160006101000a81548173ffffffffffffffffffffffffffffffffffffffff021916908373ffffffffffffffffffffffffffffffffffffffff1602179055506020820151816001015560408201518160020160006101000a81548160ff0219169083151502179055506060820151816003019081610cf69190611a57565b50505050505050565b806001600480549050610d1291906115e0565b811115610d54576040517f08c379a0000000000000000000000000000000000000000000000000000000008152600401610d4b90611660565b60405180910390fd5b600160003373ffffffffffffffffffffffffffffffffffffffff1673ffffffffffffffffffffffffffffffffffffffff16815260200190815260200160002060009054906101000a900460ff16610de0576040517f08c379a0000000000000000000000000000000000000000000000000000000008152600401610dd7906116cc565b60405180910390fd5b81600060048281548110610df757610df66116ec565b5b90600052602060002090600402016040518060800160405290816000820160009054906101000a900473ffffffffffffffffffffffffffffffffffffffff1673ffffffffffffffffffffffffffffffffffffffff1673ffffffffffffffffffffffffffffffffffffffff168152602001600182015481526020016002820160009054906101000a900460ff16151515158152602001600382018054610e9b9061174a565b80601f0160208091040260200160405190810160405280929190818152602001828054610ec79061174a565b8015610f145780601f10610ee957610100808354040283529160200191610f14565b820191906000526020600020905b815481529060010190602001808311610ef757829003601f168201915b5050505050815250509050806040015115610f64576040517f08c379a0000000000000000000000000000000000000000000000000000000008152600401610f5b906117c7565b60405180910390fd5b600254610f70856110d5565b1015610fb1576040517f08c379a0000000000000000000000000000000000000000000000000000000008152600401610fa890611b75565b60405180910390fd5b600060048581548110610fc757610fc66116ec565b5b9060005260206000209060040201905060008160000160009054906101000a900473ffffffffffffffffffffffffffffffffffffffff1673ffffffffffffffffffffffffffffffffffffffff1682600101548360030160405161102a9190611c23565b60006040518083038185875af1925050503d8060008114611067576040519150601f19603f3d011682016040523d82523d6000602084013e61106c565b606091505b50509050806110b0576040517f08c379a00000000000000000000000000000000000000000000000000000000081526004016110a790611c86565b60405180910390fd5b60018260020160006101000a81548160ff021916908315150217905550505050505050565b6000805b6000805490508110156111a95760036000848152602001908152602001600020600080838154811061110e5761110d6116ec565b5b9060005260206000200160009054906101000a900473ffffffffffffffffffffffffffffffffffffffff1673ffffffffffffffffffffffffffffffffffffffff1673ffffffffffffffffffffffffffffffffffffffff16815260200190815260200160002060009054906101000a900460ff1615611196576001826111939190611ca6565b91505b80806111a190611cda565b9150506110d9565b50919050565b600073ffffffffffffffffffffffffffffffffffffffff82169050919050565b60006111da826111af565b9050919050565b6111ea816111cf565b82525050565b6000819050919050565b611203816111f0565b82525050565b600060408201905061121e60008301856111e1565b61122b60208301846111fa565b9392505050565b600080fd5b600080fd5b611245816111f0565b811461125057600080fd5b50565b6000813590506112628161123c565b92915050565b60006020828403121561127e5761127d611232565b5b600061128c84828501611253565b91505092915050565b60006020820190506112aa60008301846111e1565b92915050565b6112b9816111cf565b81146112c457600080fd5b50565b6000813590506112d6816112b0565b92915050565b6000602082840312156112f2576112f1611232565b5b6000611300848285016112c7565b91505092915050565b60008115159050919050565b61131e81611309565b82525050565b60006020820190506113396000830184611315565b92915050565b600081519050919050565b600082825260208201905092915050565b60005b8381101561137957808201518184015260208101905061135e565b60008484015250505050565b6000601f19601f8301169050919050565b60006113a18261133f565b6113ab818561134a565b93506113bb81856020860161135b565b6113c481611385565b840191505092915050565b60006080820190506113e460008301876111e1565b6113f160208301866111fa565b6113fe6040830185611315565b81810360608301526114108184611396565b905095945050505050565b6000806040838503121561143257611431611232565b5b600061144085828601611253565b9250506020611451858286016112c7565b9150509250929050565b600080fd5b600080fd5b600080fd5b60008083601f8401126114805761147f61145b565b5b8235905067ffffffffffffffff81111561149d5761149c611460565b5b6020830191508360018202830111156114b9576114b8611465565b5b9250929050565b600080600080606085870312156114da576114d9611232565b5b60006114e8878288016112c7565b94505060206114f987828801611253565b935050604085013567ffffffffffffffff81111561151a57611519611237565b5b6115268782880161146a565b925092505092959194509250565b600082825260208201905092915050565b7f5472616e73616374696f6e20416c726561647920417070726f7665642e2e2e00600082015250565b600061157b601f83611534565b915061158682611545565b602082019050919050565b600060208201905081810360008301526115aa8161156e565b9050919050565b7f4e487b7100000000000000000000000000000000000000000000000000000000600052601160045260246000fd5b60006115eb826111f0565b91506115f6836111f0565b925082820390508181111561160e5761160d6115b1565b5b92915050565b7f5472616e73616374696f6e20446f6573206e6f742045786973742e2e2e000000600082015250565b600061164a601d83611534565b915061165582611614565b602082019050919050565b600060208201905081810360008301526116798161163d565b9050919050565b7f4e6f7420746865204f776e65722e2e2e2e000000000000000000000000000000600082015250565b60006116b6601183611534565b91506116c182611680565b602082019050919050565b600060208201905081810360008301526116e5816116a9565b9050919050565b7f4e487b7100000000000000000000000000000000000000000000000000000000600052603260045260246000fd5b7f4e487b7100000000000000000000000000000000000000000000000000000000600052602260045260246000fd5b6000600282049050600182168061176257607f821691505b6020821081036117755761177461171b565b5b50919050565b7f5472616e73616374696f6e20416c726561647920457865637574656400000000600082015250565b60006117b1601c83611534565b91506117bc8261177b565b602082019050919050565b600060208201905081810360008301526117e0816117a4565b9050919050565b60006040820190506117fc60008301856111fa565b61180960208301846111e1565b9392505050565b7f5472616e73616374696f6e204e6f7420417070726f7665642e2e2e0000000000600082015250565b6000611846601b83611534565b915061185182611810565b602082019050919050565b6000602082019050818103600083015261187581611839565b9050919050565b7f4e487b7100000000000000000000000000000000000000000000000000000000600052604160045260246000fd5b60008190508160005260206000209050919050565b60006020601f8301049050919050565b600082821b905092915050565b60006008830261190d7fffffffffffffffffffffffffffffffffffffffffffffffffffffffffffffffff826118d0565b61191786836118d0565b95508019841693508086168417925050509392505050565b6000819050919050565b600061195461194f61194a846111f0565b61192f565b6111f0565b9050919050565b6000819050919050565b61196e83611939565b61198261197a8261195b565b8484546118dd565b825550505050565b600090565b61199761198a565b6119a2818484611965565b505050565b5b818110156119c6576119bb60008261198f565b6001810190506119a8565b5050565b601f821115611a0b576119dc816118ab565b6119e5846118c0565b810160208510156119f4578190505b611a08611a00856118c0565b8301826119a7565b50505b505050565b600082821c905092915050565b6000611a2e60001984600802611a10565b1980831691505092915050565b6000611a478383611a1d565b9150826002028217905092915050565b611a608261133f565b67ffffffffffffffff811115611a7957611a7861187c565b5b611a83825461174a565b611a8e8282856119ca565b600060209050601f831160018114611ac15760008415611aaf578287015190505b611ab98582611a3b565b865550611b21565b601f198416611acf866118ab565b60005b82811015611af757848901518255600182019150602085019450602081019050611ad2565b86831015611b145784890151611b10601f891682611a1d565b8355505b6001600288020188555050505b505050505050565b7f4e6f7420456e6f75676820417070726f76616c732e2e2e000000000000000000600082015250565b6000611b5f601783611534565b9150611b6a82611b29565b602082019050919050565b60006020820190508181036000830152611b8e81611b52565b9050919050565b600081905092915050565b60008154611bad8161174a565b611bb78186611b95565b94506001821660008114611bd25760018114611be757611c1a565b60ff1983168652811515820286019350611c1a565b611bf0856118ab565b60005b83811015611c1257815481890152600182019150602081019050611bf3565b838801955050505b50505092915050565b6000611c2f8284611ba0565b915081905092915050565b7f5472616e73616374696f6e20496e636f6d706c65746500000000000000000000600082015250565b6000611c70601683611534565b9150611c7b82611c3a565b602082019050919050565b60006020820190508181036000830152611c9f81611c63565b9050919050565b6000611cb1826111f0565b9150611cbc836111f0565b9250828201905080821115611cd457611cd36115b1565b5b92915050565b6000611ce5826111f0565b91507fffffffffffffffffffffffffffffffffffffffffffffffffffffffffffffffff8203611d1757611d166115b1565b5b60018201905091905056fea264697066735822122061c87148bced4e58ecdb77b841b89b91f2af38a664c6c9ee3b1deec6091c890564736f6c63430008100033",
					"opcodes": "PUSH1 0x80 PUSH1 0x40 MSTORE CALLVALUE DUP1 ISZERO PUSH3 0x11 JUMPI PUSH1 0x0 DUP1 REVERT JUMPDEST POP PUSH1 0x40 MLOAD PUSH3 0x22FC CODESIZE SUB DUP1 PUSH3 0x22FC DUP4 CODECOPY DUP2 DUP2 ADD PUSH1 0x40 MSTORE DUP2 ADD SWAP1 PUSH3 0x37 SWAP2 SWAP1 PUSH3 0x400 JUMP JUMPDEST PUSH1 0x0 JUMPDEST DUP3 MLOAD DUP2 LT ISZERO PUSH3 0x1C7 JUMPI PUSH1 0x0 DUP4 DUP3 DUP2 MLOAD DUP2 LT PUSH3 0x5C JUMPI PUSH3 0x5B PUSH3 0x466 JUMP JUMPDEST JUMPDEST PUSH1 0x20 MUL PUSH1 0x20 ADD ADD MLOAD SWAP1 POP PUSH1 0x1 PUSH1 0x0 DUP3 PUSH20 0xFFFFFFFFFFFFFFFFFFFFFFFFFFFFFFFFFFFFFFFF AND PUSH20 0xFFFFFFFFFFFFFFFFFFFFFFFFFFFFFFFFFFFFFFFF AND DUP2 MSTORE PUSH1 0x20 ADD SWAP1 DUP2 MSTORE PUSH1 0x20 ADD PUSH1 0x0 KECCAK256 PUSH1 0x0 SWAP1 SLOAD SWAP1 PUSH2 0x100 EXP SWAP1 DIV PUSH1 0xFF AND ISZERO PUSH3 0xF6 JUMPI PUSH1 0x40 MLOAD PUSH32 0x8C379A000000000000000000000000000000000000000000000000000000000 DUP2 MSTORE PUSH1 0x4 ADD PUSH3 0xED SWAP1 PUSH3 0x4F6 JUMP JUMPDEST PUSH1 0x40 MLOAD DUP1 SWAP2 SUB SWAP1 REVERT JUMPDEST PUSH1 0x0 DUP2 SWAP1 DUP1 PUSH1 0x1 DUP2 SLOAD ADD DUP1 DUP3 SSTORE DUP1 SWAP2 POP POP PUSH1 0x1 SWAP1 SUB SWAP1 PUSH1 0x0 MSTORE PUSH1 0x20 PUSH1 0x0 KECCAK256 ADD PUSH1 0x0 SWAP1 SWAP2 SWAP1 SWAP2 SWAP1 SWAP2 PUSH2 0x100 EXP DUP2 SLOAD DUP2 PUSH20 0xFFFFFFFFFFFFFFFFFFFFFFFFFFFFFFFFFFFFFFFF MUL NOT AND SWAP1 DUP4 PUSH20 0xFFFFFFFFFFFFFFFFFFFFFFFFFFFFFFFFFFFFFFFF AND MUL OR SWAP1 SSTORE POP PUSH1 0x1 DUP1 PUSH1 0x0 DUP4 PUSH20 0xFFFFFFFFFFFFFFFFFFFFFFFFFFFFFFFFFFFFFFFF AND PUSH20 0xFFFFFFFFFFFFFFFFFFFFFFFFFFFFFFFFFFFFFFFF AND DUP2 MSTORE PUSH1 0x20 ADD SWAP1 DUP2 MSTORE PUSH1 0x20 ADD PUSH1 0x0 KECCAK256 PUSH1 0x0 PUSH2 0x100 EXP DUP2 SLOAD DUP2 PUSH1 0xFF MUL NOT AND SWAP1 DUP4 ISZERO ISZERO MUL OR SWAP1 SSTORE POP POP DUP1 DUP1 PUSH3 0x1BE SWAP1 PUSH3 0x547 JUMP JUMPDEST SWAP2 POP POP PUSH3 0x3A JUMP JUMPDEST POP DUP1 PUSH1 0x2 DUP2 SWAP1 SSTORE POP POP POP PUSH3 0x594 JUMP JUMPDEST PUSH1 0x0 PUSH1 0x40 MLOAD SWAP1 POP SWAP1 JUMP JUMPDEST PUSH1 0x0 DUP1 REVERT JUMPDEST PUSH1 0x0 DUP1 REVERT JUMPDEST PUSH1 0x0 DUP1 REVERT JUMPDEST PUSH1 0x0 PUSH1 0x1F NOT PUSH1 0x1F DUP4 ADD AND SWAP1 POP SWAP2 SWAP1 POP JUMP JUMPDEST PUSH32 0x4E487B7100000000000000000000000000000000000000000000000000000000 PUSH1 0x0 MSTORE PUSH1 0x41 PUSH1 0x4 MSTORE PUSH1 0x24 PUSH1 0x0 REVERT JUMPDEST PUSH3 0x23B DUP3 PUSH3 0x1F0 JUMP JUMPDEST DUP2 ADD DUP2 DUP2 LT PUSH8 0xFFFFFFFFFFFFFFFF DUP3 GT OR ISZERO PUSH3 0x25D JUMPI PUSH3 0x25C PUSH3 0x201 JUMP JUMPDEST JUMPDEST DUP1 PUSH1 0x40 MSTORE POP POP POP JUMP JUMPDEST PUSH1 0x0 PUSH3 0x272 PUSH3 0x1D7 JUMP JUMPDEST SWAP1 POP PUSH3 0x280 DUP3 DUP3 PUSH3 0x230 JUMP JUMPDEST SWAP2 SWAP1 POP JUMP JUMPDEST PUSH1 0x0 PUSH8 0xFFFFFFFFFFFFFFFF DUP3 GT ISZERO PUSH3 0x2A3 JUMPI PUSH3 0x2A2 PUSH3 0x201 JUMP JUMPDEST JUMPDEST PUSH1 0x20 DUP3 MUL SWAP1 POP PUSH1 0x20 DUP2 ADD SWAP1 POP SWAP2 SWAP1 POP JUMP JUMPDEST PUSH1 0x0 DUP1 REVERT JUMPDEST PUSH1 0x0 PUSH20 0xFFFFFFFFFFFFFFFFFFFFFFFFFFFFFFFFFFFFFFFF DUP3 AND SWAP1 POP SWAP2 SWAP1 POP JUMP JUMPDEST PUSH1 0x0 PUSH3 0x2E6 DUP3 PUSH3 0x2B9 JUMP JUMPDEST SWAP1 POP SWAP2 SWAP1 POP JUMP JUMPDEST PUSH3 0x2F8 DUP2 PUSH3 0x2D9 JUMP JUMPDEST DUP2 EQ PUSH3 0x304 JUMPI PUSH1 0x0 DUP1 REVERT JUMPDEST POP JUMP JUMPDEST PUSH1 0x0 DUP2 MLOAD SWAP1 POP PUSH3 0x318 DUP2 PUSH3 0x2ED JUMP JUMPDEST SWAP3 SWAP2 POP POP JUMP JUMPDEST PUSH1 0x0 PUSH3 0x335 PUSH3 0x32F DUP5 PUSH3 0x285 JUMP JUMPDEST PUSH3 0x266 JUMP JUMPDEST SWAP1 POP DUP1 DUP4 DUP3 MSTORE PUSH1 0x20 DUP3 ADD SWAP1 POP PUSH1 0x20 DUP5 MUL DUP4 ADD DUP6 DUP2 GT ISZERO PUSH3 0x35B JUMPI PUSH3 0x35A PUSH3 0x2B4 JUMP JUMPDEST JUMPDEST DUP4 JUMPDEST DUP2 DUP2 LT ISZERO PUSH3 0x388 JUMPI DUP1 PUSH3 0x373 DUP9 DUP3 PUSH3 0x307 JUMP JUMPDEST DUP5 MSTORE PUSH1 0x20 DUP5 ADD SWAP4 POP POP PUSH1 0x20 DUP2 ADD SWAP1 POP PUSH3 0x35D JUMP JUMPDEST POP POP POP SWAP4 SWAP3 POP POP POP JUMP JUMPDEST PUSH1 0x0 DUP3 PUSH1 0x1F DUP4 ADD SLT PUSH3 0x3AA JUMPI PUSH3 0x3A9 PUSH3 0x1EB JUMP JUMPDEST JUMPDEST DUP2 MLOAD PUSH3 0x3BC DUP5 DUP3 PUSH1 0x20 DUP7 ADD PUSH3 0x31E JUMP JUMPDEST SWAP2 POP POP SWAP3 SWAP2 POP POP JUMP JUMPDEST PUSH1 0x0 DUP2 SWAP1 POP SWAP2 SWAP1 POP JUMP JUMPDEST PUSH3 0x3DA DUP2 PUSH3 0x3C5 JUMP JUMPDEST DUP2 EQ PUSH3 0x3E6 JUMPI PUSH1 0x0 DUP1 REVERT JUMPDEST POP JUMP JUMPDEST PUSH1 0x0 DUP2 MLOAD SWAP1 POP PUSH3 0x3FA DUP2 PUSH3 0x3CF JUMP JUMPDEST SWAP3 SWAP2 POP POP JUMP JUMPDEST PUSH1 0x0 DUP1 PUSH1 0x40 DUP4 DUP6 SUB SLT ISZERO PUSH3 0x41A JUMPI PUSH3 0x419 PUSH3 0x1E1 JUMP JUMPDEST JUMPDEST PUSH1 0x0 DUP4 ADD MLOAD PUSH8 0xFFFFFFFFFFFFFFFF DUP2 GT ISZERO PUSH3 0x43B JUMPI PUSH3 0x43A PUSH3 0x1E6 JUMP JUMPDEST JUMPDEST PUSH3 0x449 DUP6 DUP3 DUP7 ADD PUSH3 0x392 JUMP JUMPDEST SWAP3 POP POP PUSH1 0x20 PUSH3 0x45C DUP6 DUP3 DUP7 ADD PUSH3 0x3E9 JUMP JUMPDEST SWAP2 POP POP SWAP3 POP SWAP3 SWAP1 POP JUMP JUMPDEST PUSH32 0x4E487B7100000000000000000000000000000000000000000000000000000000 PUSH1 0x0 MSTORE PUSH1 0x32 PUSH1 0x4 MSTORE PUSH1 0x24 PUSH1 0x0 REVERT JUMPDEST PUSH1 0x0 DUP3 DUP3 MSTORE PUSH1 0x20 DUP3 ADD SWAP1 POP SWAP3 SWAP2 POP POP JUMP JUMPDEST PUSH32 0x416C7265616479204578697374732E2E2E000000000000000000000000000000 PUSH1 0x0 DUP3 ADD MSTORE POP JUMP JUMPDEST PUSH1 0x0 PUSH3 0x4DE PUSH1 0x11 DUP4 PUSH3 0x495 JUMP JUMPDEST SWAP2 POP PUSH3 0x4EB DUP3 PUSH3 0x4A6 JUMP JUMPDEST PUSH1 0x20 DUP3 ADD SWAP1 POP SWAP2 SWAP1 POP JUMP JUMPDEST PUSH1 0x0 PUSH1 0x20 DUP3 ADD SWAP1 POP DUP2 DUP2 SUB PUSH1 0x0 DUP4 ADD MSTORE PUSH3 0x511 DUP2 PUSH3 0x4CF JUMP JUMPDEST SWAP1 POP SWAP2 SWAP1 POP JUMP JUMPDEST PUSH32 0x4E487B7100000000000000000000000000000000000000000000000000000000 PUSH1 0x0 MSTORE PUSH1 0x11 PUSH1 0x4 MSTORE PUSH1 0x24 PUSH1 0x0 REVERT JUMPDEST PUSH1 0x0 PUSH3 0x554 DUP3 PUSH3 0x3C5 JUMP JUMPDEST SWAP2 POP PUSH32 0xFFFFFFFFFFFFFFFFFFFFFFFFFFFFFFFFFFFFFFFFFFFFFFFFFFFFFFFFFFFFFFFF DUP3 SUB PUSH3 0x589 JUMPI PUSH3 0x588 PUSH3 0x518 JUMP JUMPDEST JUMPDEST PUSH1 0x1 DUP3 ADD SWAP1 POP SWAP2 SWAP1 POP JUMP JUMPDEST PUSH2 0x1D58 DUP1 PUSH3 0x5A4 PUSH1 0x0 CODECOPY PUSH1 0x0 RETURN INVALID PUSH1 0x80 PUSH1 0x40 MSTORE PUSH1 0x4 CALLDATASIZE LT PUSH2 0x7F JUMPI PUSH1 0x0 CALLDATALOAD PUSH1 0xE0 SHR DUP1 PUSH4 0xB1E130FC GT PUSH2 0x4E JUMPI DUP1 PUSH4 0xB1E130FC EQ PUSH2 0x1A7 JUMPI DUP1 PUSH4 0xB848DE35 EQ PUSH2 0x1D0 JUMPI DUP1 PUSH4 0xC0C64A49 EQ PUSH2 0x20D JUMPI DUP1 PUSH4 0xEE22610B EQ PUSH2 0x236 JUMPI PUSH2 0xBF JUMP JUMPDEST DUP1 PUSH4 0x25E7C27 EQ PUSH2 0xC4 JUMPI DUP1 PUSH4 0x242232D1 EQ PUSH2 0x101 JUMPI DUP1 PUSH4 0x2F54BF6E EQ PUSH2 0x12A JUMPI DUP1 PUSH4 0x9ACE38C2 EQ PUSH2 0x167 JUMPI PUSH2 0xBF JUMP JUMPDEST CALLDATASIZE PUSH2 0xBF JUMPI PUSH32 0xE1FFFCC4923D04B559F4D29A8BFC6CDA04EB5B0D3C460751C2402C5C5CC9109C CALLER CALLVALUE PUSH1 0x40 MLOAD PUSH2 0xB5 SWAP3 SWAP2 SWAP1 PUSH2 0x1209 JUMP JUMPDEST PUSH1 0x40 MLOAD DUP1 SWAP2 SUB SWAP1 LOG1 STOP JUMPDEST PUSH1 0x0 DUP1 REVERT JUMPDEST CALLVALUE DUP1 ISZERO PUSH2 0xD0 JUMPI PUSH1 0x0 DUP1 REVERT JUMPDEST POP PUSH2 0xEB PUSH1 0x4 DUP1 CALLDATASIZE SUB DUP2 ADD SWAP1 PUSH2 0xE6 SWAP2 SWAP1 PUSH2 0x1268 JUMP JUMPDEST PUSH2 0x25F JUMP JUMPDEST PUSH1 0x40 MLOAD PUSH2 0xF8 SWAP2 SWAP1 PUSH2 0x1295 JUMP JUMPDEST PUSH1 0x40 MLOAD DUP1 SWAP2 SUB SWAP1 RETURN JUMPDEST CALLVALUE DUP1 ISZERO PUSH2 0x10D JUMPI PUSH1 0x0 DUP1 REVERT JUMPDEST POP PUSH2 0x128 PUSH1 0x4 DUP1 CALLDATASIZE SUB DUP2 ADD SWAP1 PUSH2 0x123 SWAP2 SWAP1 PUSH2 0x1268 JUMP JUMPDEST PUSH2 0x29E JUMP JUMPDEST STOP JUMPDEST CALLVALUE DUP1 ISZERO PUSH2 0x136 JUMPI PUSH1 0x0 DUP1 REVERT JUMPDEST POP PUSH2 0x151 PUSH1 0x4 DUP1 CALLDATASIZE SUB DUP2 ADD SWAP1 PUSH2 0x14C SWAP2 SWAP1 PUSH2 0x12DC JUMP JUMPDEST PUSH2 0x64B JUMP JUMPDEST PUSH1 0x40 MLOAD PUSH2 0x15E SWAP2 SWAP1 PUSH2 0x1324 JUMP JUMPDEST PUSH1 0x40 MLOAD DUP1 SWAP2 SUB SWAP1 RETURN JUMPDEST CALLVALUE DUP1 ISZERO PUSH2 0x173 JUMPI PUSH1 0x0 DUP1 REVERT JUMPDEST POP PUSH2 0x18E PUSH1 0x4 DUP1 CALLDATASIZE SUB DUP2 ADD SWAP1 PUSH2 0x189 SWAP2 SWAP1 PUSH2 0x1268 JUMP JUMPDEST PUSH2 0x66B JUMP JUMPDEST PUSH1 0x40 MLOAD PUSH2 0x19E SWAP5 SWAP4 SWAP3 SWAP2 SWAP1 PUSH2 0x13CF JUMP JUMPDEST PUSH1 0x40 MLOAD DUP1 SWAP2 SUB SWAP1 RETURN JUMPDEST CALLVALUE DUP1 ISZERO PUSH2 0x1B3 JUMPI PUSH1 0x0 DUP1 REVERT JUMPDEST POP PUSH2 0x1CE PUSH1 0x4 DUP1 CALLDATASIZE SUB DUP2 ADD SWAP1 PUSH2 0x1C9 SWAP2 SWAP1 PUSH2 0x1268 JUMP JUMPDEST PUSH2 0x760 JUMP JUMPDEST STOP JUMPDEST CALLVALUE DUP1 ISZERO PUSH2 0x1DC JUMPI PUSH1 0x0 DUP1 REVERT JUMPDEST POP PUSH2 0x1F7 PUSH1 0x4 DUP1 CALLDATASIZE SUB DUP2 ADD SWAP1 PUSH2 0x1F2 SWAP2 SWAP1 PUSH2 0x141B JUMP JUMPDEST PUSH2 0xB0C JUMP JUMPDEST PUSH1 0x40 MLOAD PUSH2 0x204 SWAP2 SWAP1 PUSH2 0x1324 JUMP JUMPDEST PUSH1 0x40 MLOAD DUP1 SWAP2 SUB SWAP1 RETURN JUMPDEST CALLVALUE DUP1 ISZERO PUSH2 0x219 JUMPI PUSH1 0x0 DUP1 REVERT JUMPDEST POP PUSH2 0x234 PUSH1 0x4 DUP1 CALLDATASIZE SUB DUP2 ADD SWAP1 PUSH2 0x22F SWAP2 SWAP1 PUSH2 0x14C0 JUMP JUMPDEST PUSH2 0xB3B JUMP JUMPDEST STOP JUMPDEST CALLVALUE DUP1 ISZERO PUSH2 0x242 JUMPI PUSH1 0x0 DUP1 REVERT JUMPDEST POP PUSH2 0x25D PUSH1 0x4 DUP1 CALLDATASIZE SUB DUP2 ADD SWAP1 PUSH2 0x258 SWAP2 SWAP1 PUSH2 0x1268 JUMP JUMPDEST PUSH2 0xCFF JUMP JUMPDEST STOP JUMPDEST PUSH1 0x0 DUP2 DUP2 SLOAD DUP2 LT PUSH2 0x26F JUMPI PUSH1 0x0 DUP1 REVERT JUMPDEST SWAP1 PUSH1 0x0 MSTORE PUSH1 0x20 PUSH1 0x0 KECCAK256 ADD PUSH1 0x0 SWAP2 POP SLOAD SWAP1 PUSH2 0x100 EXP SWAP1 DIV PUSH20 0xFFFFFFFFFFFFFFFFFFFFFFFFFFFFFFFFFFFFFFFF AND DUP2 JUMP JUMPDEST DUP1 PUSH1 0x3 PUSH1 0x0 DUP3 DUP2 MSTORE PUSH1 0x20 ADD SWAP1 DUP2 MSTORE PUSH1 0x20 ADD PUSH1 0x0 KECCAK256 PUSH1 0x0 CALLER PUSH20 0xFFFFFFFFFFFFFFFFFFFFFFFFFFFFFFFFFFFFFFFF AND PUSH20 0xFFFFFFFFFFFFFFFFFFFFFFFFFFFFFFFFFFFFFFFF AND DUP2 MSTORE PUSH1 0x20 ADD SWAP1 DUP2 MSTORE PUSH1 0x20 ADD PUSH1 0x0 KECCAK256 PUSH1 0x0 SWAP1 SLOAD SWAP1 PUSH2 0x100 EXP SWAP1 DIV PUSH1 0xFF AND ISZERO PUSH2 0x33D JUMPI PUSH1 0x40 MLOAD PUSH32 0x8C379A000000000000000000000000000000000000000000000000000000000 DUP2 MSTORE PUSH1 0x4 ADD PUSH2 0x334 SWAP1 PUSH2 0x1591 JUMP JUMPDEST PUSH1 0x40 MLOAD DUP1 SWAP2 SUB SWAP1 REVERT JUMPDEST DUP2 PUSH1 0x1 PUSH1 0x4 DUP1 SLOAD SWAP1 POP PUSH2 0x350 SWAP2 SWAP1 PUSH2 0x15E0 JUMP JUMPDEST DUP2 GT ISZERO PUSH2 0x392 JUMPI PUSH1 0x40 MLOAD PUSH32 0x8C379A000000000000000000000000000000000000000000000000000000000 DUP2 MSTORE PUSH1 0x4 ADD PUSH2 0x389 SWAP1 PUSH2 0x1660 JUMP JUMPDEST PUSH1 0x40 MLOAD DUP1 SWAP2 SUB SWAP1 REVERT JUMPDEST PUSH1 0x1 PUSH1 0x0 CALLER PUSH20 0xFFFFFFFFFFFFFFFFFFFFFFFFFFFFFFFFFFFFFFFF AND PUSH20 0xFFFFFFFFFFFFFFFFFFFFFFFFFFFFFFFFFFFFFFFF AND DUP2 MSTORE PUSH1 0x20 ADD SWAP1 DUP2 MSTORE PUSH1 0x20 ADD PUSH1 0x0 KECCAK256 PUSH1 0x0 SWAP1 SLOAD SWAP1 PUSH2 0x100 EXP SWAP1 DIV PUSH1 0xFF AND PUSH2 0x41E JUMPI PUSH1 0x40 MLOAD PUSH32 0x8C379A000000000000000000000000000000000000000000000000000000000 DUP2 MSTORE PUSH1 0x4 ADD PUSH2 0x415 SWAP1 PUSH2 0x16CC JUMP JUMPDEST PUSH1 0x40 MLOAD DUP1 SWAP2 SUB SWAP1 REVERT JUMPDEST DUP3 PUSH1 0x0 PUSH1 0x4 DUP3 DUP2 SLOAD DUP2 LT PUSH2 0x435 JUMPI PUSH2 0x434 PUSH2 0x16EC JUMP JUMPDEST JUMPDEST SWAP1 PUSH1 0x0 MSTORE PUSH1 0x20 PUSH1 0x0 KECCAK256 SWAP1 PUSH1 0x4 MUL ADD PUSH1 0x40 MLOAD DUP1 PUSH1 0x80 ADD PUSH1 0x40 MSTORE SWAP1 DUP2 PUSH1 0x0 DUP3 ADD PUSH1 0x0 SWAP1 SLOAD SWAP1 PUSH2 0x100 EXP SWAP1 DIV PUSH20 0xFFFFFFFFFFFFFFFFFFFFFFFFFFFFFFFFFFFFFFFF AND PUSH20 0xFFFFFFFFFFFFFFFFFFFFFFFFFFFFFFFFFFFFFFFF AND PUSH20 0xFFFFFFFFFFFFFFFFFFFFFFFFFFFFFFFFFFFFFFFF AND DUP2 MSTORE PUSH1 0x20 ADD PUSH1 0x1 DUP3 ADD SLOAD DUP2 MSTORE PUSH1 0x20 ADD PUSH1 0x2 DUP3 ADD PUSH1 0x0 SWAP1 SLOAD SWAP1 PUSH2 0x100 EXP SWAP1 DIV PUSH1 0xFF AND ISZERO ISZERO ISZERO ISZERO DUP2 MSTORE PUSH1 0x20 ADD PUSH1 0x3 DUP3 ADD DUP1 SLOAD PUSH2 0x4D9 SWAP1 PUSH2 0x174A JUMP JUMPDEST DUP1 PUSH1 0x1F ADD PUSH1 0x20 DUP1 SWAP2 DIV MUL PUSH1 0x20 ADD PUSH1 0x40 MLOAD SWAP1 DUP2 ADD PUSH1 0x40 MSTORE DUP1 SWAP3 SWAP2 SWAP1 DUP2 DUP2 MSTORE PUSH1 0x20 ADD DUP3 DUP1 SLOAD PUSH2 0x505 SWAP1 PUSH2 0x174A JUMP JUMPDEST DUP1 ISZERO PUSH2 0x552 JUMPI DUP1 PUSH1 0x1F LT PUSH2 0x527 JUMPI PUSH2 0x100 DUP1 DUP4 SLOAD DIV MUL DUP4 MSTORE SWAP2 PUSH1 0x20 ADD SWAP2 PUSH2 0x552 JUMP JUMPDEST DUP3 ADD SWAP2 SWAP1 PUSH1 0x0 MSTORE PUSH1 0x20 PUSH1 0x0 KECCAK256 SWAP1 JUMPDEST DUP2 SLOAD DUP2 MSTORE SWAP1 PUSH1 0x1 ADD SWAP1 PUSH1 0x20 ADD DUP1 DUP4 GT PUSH2 0x535 JUMPI DUP3 SWAP1 SUB PUSH1 0x1F AND DUP3 ADD SWAP2 JUMPDEST POP POP POP POP POP DUP2 MSTORE POP POP SWAP1 POP DUP1 PUSH1 0x40 ADD MLOAD ISZERO PUSH2 0x5A2 JUMPI PUSH1 0x40 MLOAD PUSH32 0x8C379A000000000000000000000000000000000000000000000000000000000 DUP2 MSTORE PUSH1 0x4 ADD PUSH2 0x599 SWAP1 PUSH2 0x17C7 JUMP JUMPDEST PUSH1 0x40 MLOAD DUP1 SWAP2 SUB SWAP1 REVERT JUMPDEST PUSH1 0x1 PUSH1 0x3 PUSH1 0x0 DUP8 DUP2 MSTORE PUSH1 0x20 ADD SWAP1 DUP2 MSTORE PUSH1 0x20 ADD PUSH1 0x0 KECCAK256 PUSH1 0x0 CALLER PUSH20 0xFFFFFFFFFFFFFFFFFFFFFFFFFFFFFFFFFFFFFFFF AND PUSH20 0xFFFFFFFFFFFFFFFFFFFFFFFFFFFFFFFFFFFFFFFF AND DUP2 MSTORE PUSH1 0x20 ADD SWAP1 DUP2 MSTORE PUSH1 0x20 ADD PUSH1 0x0 KECCAK256 PUSH1 0x0 PUSH2 0x100 EXP DUP2 SLOAD DUP2 PUSH1 0xFF MUL NOT AND SWAP1 DUP4 ISZERO ISZERO MUL OR SWAP1 SSTORE POP PUSH32 0x47AD3E4B0F4BDBE3AC08708BBC45053D2FF616911B39E65563FD9BD781909645 DUP6 CALLER PUSH1 0x40 MLOAD PUSH2 0x63C SWAP3 SWAP2 SWAP1 PUSH2 0x17E7 JUMP JUMPDEST PUSH1 0x40 MLOAD DUP1 SWAP2 SUB SWAP1 LOG1 POP POP POP POP POP JUMP JUMPDEST PUSH1 0x1 PUSH1 0x20 MSTORE DUP1 PUSH1 0x0 MSTORE PUSH1 0x40 PUSH1 0x0 KECCAK256 PUSH1 0x0 SWAP2 POP SLOAD SWAP1 PUSH2 0x100 EXP SWAP1 DIV PUSH1 0xFF AND DUP2 JUMP JUMPDEST PUSH1 0x4 DUP2 DUP2 SLOAD DUP2 LT PUSH2 0x67B JUMPI PUSH1 0x0 DUP1 REVERT JUMPDEST SWAP1 PUSH1 0x0 MSTORE PUSH1 0x20 PUSH1 0x0 KECCAK256 SWAP1 PUSH1 0x4 MUL ADD PUSH1 0x0 SWAP2 POP SWAP1 POP DUP1 PUSH1 0x0 ADD PUSH1 0x0 SWAP1 SLOAD SWAP1 PUSH2 0x100 EXP SWAP1 DIV PUSH20 0xFFFFFFFFFFFFFFFFFFFFFFFFFFFFFFFFFFFFFFFF AND SWAP1 DUP1 PUSH1 0x1 ADD SLOAD SWAP1 DUP1 PUSH1 0x2 ADD PUSH1 0x0 SWAP1 SLOAD SWAP1 PUSH2 0x100 EXP SWAP1 DIV PUSH1 0xFF AND SWAP1 DUP1 PUSH1 0x3 ADD DUP1 SLOAD PUSH2 0x6DD SWAP1 PUSH2 0x174A JUMP JUMPDEST DUP1 PUSH1 0x1F ADD PUSH1 0x20 DUP1 SWAP2 DIV MUL PUSH1 0x20 ADD PUSH1 0x40 MLOAD SWAP1 DUP2 ADD PUSH1 0x40 MSTORE DUP1 SWAP3 SWAP2 SWAP1 DUP2 DUP2 MSTORE PUSH1 0x20 ADD DUP3 DUP1 SLOAD PUSH2 0x709 SWAP1 PUSH2 0x174A JUMP JUMPDEST DUP1 ISZERO PUSH2 0x756 JUMPI DUP1 PUSH1 0x1F LT PUSH2 0x72B JUMPI PUSH2 0x100 DUP1 DUP4 SLOAD DIV MUL DUP4 MSTORE SWAP2 PUSH1 0x20 ADD SWAP2 PUSH2 0x756 JUMP JUMPDEST DUP3 ADD SWAP2 SWAP1 PUSH1 0x0 MSTORE PUSH1 0x20 PUSH1 0x0 KECCAK256 SWAP1 JUMPDEST DUP2 SLOAD DUP2 MSTORE SWAP1 PUSH1 0x1 ADD SWAP1 PUSH1 0x20 ADD DUP1 DUP4 GT PUSH2 0x739 JUMPI DUP3 SWAP1 SUB PUSH1 0x1F AND DUP3 ADD SWAP2 JUMPDEST POP POP POP POP POP SWAP1 POP DUP5 JUMP JUMPDEST DUP1 PUSH1 0x3 PUSH1 0x0 DUP3 DUP2 MSTORE PUSH1 0x20 ADD SWAP1 DUP2 MSTORE PUSH1 0x20 ADD PUSH1 0x0 KECCAK256 PUSH1 0x0 CALLER PUSH20 0xFFFFFFFFFFFFFFFFFFFFFFFFFFFFFFFFFFFFFFFF AND PUSH20 0xFFFFFFFFFFFFFFFFFFFFFFFFFFFFFFFFFFFFFFFF AND DUP2 MSTORE PUSH1 0x20 ADD SWAP1 DUP2 MSTORE PUSH1 0x20 ADD PUSH1 0x0 KECCAK256 PUSH1 0x0 SWAP1 SLOAD SWAP1 PUSH2 0x100 EXP SWAP1 DIV PUSH1 0xFF AND PUSH2 0x7FE JUMPI PUSH1 0x40 MLOAD PUSH32 0x8C379A000000000000000000000000000000000000000000000000000000000 DUP2 MSTORE PUSH1 0x4 ADD PUSH2 0x7F5 SWAP1 PUSH2 0x185C JUMP JUMPDEST PUSH1 0x40 MLOAD DUP1 SWAP2 SUB SWAP1 REVERT JUMPDEST DUP2 PUSH1 0x1 PUSH1 0x4 DUP1 SLOAD SWAP1 POP PUSH2 0x811 SWAP2 SWAP1 PUSH2 0x15E0 JUMP JUMPDEST DUP2 GT ISZERO PUSH2 0x853 JUMPI PUSH1 0x40 MLOAD PUSH32 0x8C379A000000000000000000000000000000000000000000000000000000000 DUP2 MSTORE PUSH1 0x4 ADD PUSH2 0x84A SWAP1 PUSH2 0x1660 JUMP JUMPDEST PUSH1 0x40 MLOAD DUP1 SWAP2 SUB SWAP1 REVERT JUMPDEST PUSH1 0x1 PUSH1 0x0 CALLER PUSH20 0xFFFFFFFFFFFFFFFFFFFFFFFFFFFFFFFFFFFFFFFF AND PUSH20 0xFFFFFFFFFFFFFFFFFFFFFFFFFFFFFFFFFFFFFFFF AND DUP2 MSTORE PUSH1 0x20 ADD SWAP1 DUP2 MSTORE PUSH1 0x20 ADD PUSH1 0x0 KECCAK256 PUSH1 0x0 SWAP1 SLOAD SWAP1 PUSH2 0x100 EXP SWAP1 DIV PUSH1 0xFF AND PUSH2 0x8DF JUMPI PUSH1 0x40 MLOAD PUSH32 0x8C379A000000000000000000000000000000000000000000000000000000000 DUP2 MSTORE PUSH1 0x4 ADD PUSH2 0x8D6 SWAP1 PUSH2 0x16CC JUMP JUMPDEST PUSH1 0x40 MLOAD DUP1 SWAP2 SUB SWAP1 REVERT JUMPDEST DUP3 PUSH1 0x0 PUSH1 0x4 DUP3 DUP2 SLOAD DUP2 LT PUSH2 0x8F6 JUMPI PUSH2 0x8F5 PUSH2 0x16EC JUMP JUMPDEST JUMPDEST SWAP1 PUSH1 0x0 MSTORE PUSH1 0x20 PUSH1 0x0 KECCAK256 SWAP1 PUSH1 0x4 MUL ADD PUSH1 0x40 MLOAD DUP1 PUSH1 0x80 ADD PUSH1 0x40 MSTORE SWAP1 DUP2 PUSH1 0x0 DUP3 ADD PUSH1 0x0 SWAP1 SLOAD SWAP1 PUSH2 0x100 EXP SWAP1 DIV PUSH20 0xFFFFFFFFFFFFFFFFFFFFFFFFFFFFFFFFFFFFFFFF AND PUSH20 0xFFFFFFFFFFFFFFFFFFFFFFFFFFFFFFFFFFFFFFFF AND PUSH20 0xFFFFFFFFFFFFFFFFFFFFFFFFFFFFFFFFFFFFFFFF AND DUP2 MSTORE PUSH1 0x20 ADD PUSH1 0x1 DUP3 ADD SLOAD DUP2 MSTORE PUSH1 0x20 ADD PUSH1 0x2 DUP3 ADD PUSH1 0x0 SWAP1 SLOAD SWAP1 PUSH2 0x100 EXP SWAP1 DIV PUSH1 0xFF AND ISZERO ISZERO ISZERO ISZERO DUP2 MSTORE PUSH1 0x20 ADD PUSH1 0x3 DUP3 ADD DUP1 SLOAD PUSH2 0x99A SWAP1 PUSH2 0x174A JUMP JUMPDEST DUP1 PUSH1 0x1F ADD PUSH1 0x20 DUP1 SWAP2 DIV MUL PUSH1 0x20 ADD PUSH1 0x40 MLOAD SWAP1 DUP2 ADD PUSH1 0x40 MSTORE DUP1 SWAP3 SWAP2 SWAP1 DUP2 DUP2 MSTORE PUSH1 0x20 ADD DUP3 DUP1 SLOAD PUSH2 0x9C6 SWAP1 PUSH2 0x174A JUMP JUMPDEST DUP1 ISZERO PUSH2 0xA13 JUMPI DUP1 PUSH1 0x1F LT PUSH2 0x9E8 JUMPI PUSH2 0x100 DUP1 DUP4 SLOAD DIV MUL DUP4 MSTORE SWAP2 PUSH1 0x20 ADD SWAP2 PUSH2 0xA13 JUMP JUMPDEST DUP3 ADD SWAP2 SWAP1 PUSH1 0x0 MSTORE PUSH1 0x20 PUSH1 0x0 KECCAK256 SWAP1 JUMPDEST DUP2 SLOAD DUP2 MSTORE SWAP1 PUSH1 0x1 ADD SWAP1 PUSH1 0x20 ADD DUP1 DUP4 GT PUSH2 0x9F6 JUMPI DUP3 SWAP1 SUB PUSH1 0x1F AND DUP3 ADD SWAP2 JUMPDEST POP POP POP POP POP DUP2 MSTORE POP POP SWAP1 POP DUP1 PUSH1 0x40 ADD MLOAD ISZERO PUSH2 0xA63 JUMPI PUSH1 0x40 MLOAD PUSH32 0x8C379A000000000000000000000000000000000000000000000000000000000 DUP2 MSTORE PUSH1 0x4 ADD PUSH2 0xA5A SWAP1 PUSH2 0x17C7 JUMP JUMPDEST PUSH1 0x40 MLOAD DUP1 SWAP2 SUB SWAP1 REVERT JUMPDEST PUSH1 0x0 PUSH1 0x3 PUSH1 0x0 DUP8 DUP2 MSTORE PUSH1 0x20 ADD SWAP1 DUP2 MSTORE PUSH1 0x20 ADD PUSH1 0x0 KECCAK256 PUSH1 0x0 CALLER PUSH20 0xFFFFFFFFFFFFFFFFFFFFFFFFFFFFFFFFFFFFFFFF AND PUSH20 0xFFFFFFFFFFFFFFFFFFFFFFFFFFFFFFFFFFFFFFFF AND DUP2 MSTORE PUSH1 0x20 ADD SWAP1 DUP2 MSTORE PUSH1 0x20 ADD PUSH1 0x0 KECCAK256 PUSH1 0x0 PUSH2 0x100 EXP DUP2 SLOAD DUP2 PUSH1 0xFF MUL NOT AND SWAP1 DUP4 ISZERO ISZERO MUL OR SWAP1 SSTORE POP PUSH32 0xD5D64031E0F55CF42BC3B7D0462F8404A4D63F7CCF84BE9510CD6A5300552E42 DUP6 CALLER PUSH1 0x40 MLOAD PUSH2 0xAFD SWAP3 SWAP2 SWAP1 PUSH2 0x17E7 JUMP JUMPDEST PUSH1 0x40 MLOAD DUP1 SWAP2 SUB SWAP1 LOG1 POP POP POP POP POP JUMP JUMPDEST PUSH1 0x3 PUSH1 0x20 MSTORE DUP2 PUSH1 0x0 MSTORE PUSH1 0x40 PUSH1 0x0 KECCAK256 PUSH1 0x20 MSTORE DUP1 PUSH1 0x0 MSTORE PUSH1 0x40 PUSH1 0x0 KECCAK256 PUSH1 0x0 SWAP2 POP SWAP2 POP SWAP1 SLOAD SWAP1 PUSH2 0x100 EXP SWAP1 DIV PUSH1 0xFF AND DUP2 JUMP JUMPDEST PUSH1 0x1 PUSH1 0x0 CALLER PUSH20 0xFFFFFFFFFFFFFFFFFFFFFFFFFFFFFFFFFFFFFFFF AND PUSH20 0xFFFFFFFFFFFFFFFFFFFFFFFFFFFFFFFFFFFFFFFF AND DUP2 MSTORE PUSH1 0x20 ADD SWAP1 DUP2 MSTORE PUSH1 0x20 ADD PUSH1 0x0 KECCAK256 PUSH1 0x0 SWAP1 SLOAD SWAP1 PUSH2 0x100 EXP SWAP1 DIV PUSH1 0xFF AND PUSH2 0xBC7 JUMPI PUSH1 0x40 MLOAD PUSH32 0x8C379A000000000000000000000000000000000000000000000000000000000 DUP2 MSTORE PUSH1 0x4 ADD PUSH2 0xBBE SWAP1 PUSH2 0x16CC JUMP JUMPDEST PUSH1 0x40 MLOAD DUP1 SWAP2 SUB SWAP1 REVERT JUMPDEST PUSH1 0x4 PUSH1 0x40 MLOAD DUP1 PUSH1 0x80 ADD PUSH1 0x40 MSTORE DUP1 DUP7 PUSH20 0xFFFFFFFFFFFFFFFFFFFFFFFFFFFFFFFFFFFFFFFF AND DUP2 MSTORE PUSH1 0x20 ADD DUP6 DUP2 MSTORE PUSH1 0x20 ADD PUSH1 0x0 ISZERO ISZERO DUP2 MSTORE PUSH1 0x20 ADD DUP5 DUP5 DUP1 DUP1 PUSH1 0x1F ADD PUSH1 0x20 DUP1 SWAP2 DIV MUL PUSH1 0x20 ADD PUSH1 0x40 MLOAD SWAP1 DUP2 ADD PUSH1 0x40 MSTORE DUP1 SWAP4 SWAP3 SWAP2 SWAP1 DUP2 DUP2 MSTORE PUSH1 0x20 ADD DUP4 DUP4 DUP1 DUP3 DUP5 CALLDATACOPY PUSH1 0x0 DUP2 DUP5 ADD MSTORE PUSH1 0x1F NOT PUSH1 0x1F DUP3 ADD AND SWAP1 POP DUP1 DUP4 ADD SWAP3 POP POP POP POP POP POP POP DUP2 MSTORE POP SWAP1 DUP1 PUSH1 0x1 DUP2 SLOAD ADD DUP1 DUP3 SSTORE DUP1 SWAP2 POP POP PUSH1 0x1 SWAP1 SUB SWAP1 PUSH1 0x0 MSTORE PUSH1 0x20 PUSH1 0x0 KECCAK256 SWAP1 PUSH1 0x4 MUL ADD PUSH1 0x0 SWAP1 SWAP2 SWAP1 SWAP2 SWAP1 SWAP2 POP PUSH1 0x0 DUP3 ADD MLOAD DUP2 PUSH1 0x0 ADD PUSH1 0x0 PUSH2 0x100 EXP DUP2 SLOAD DUP2 PUSH20 0xFFFFFFFFFFFFFFFFFFFFFFFFFFFFFFFFFFFFFFFF MUL NOT AND SWAP1 DUP4 PUSH20 0xFFFFFFFFFFFFFFFFFFFFFFFFFFFFFFFFFFFFFFFF AND MUL OR SWAP1 SSTORE POP PUSH1 0x20 DUP3 ADD MLOAD DUP2 PUSH1 0x1 ADD SSTORE PUSH1 0x40 DUP3 ADD MLOAD DUP2 PUSH1 0x2 ADD PUSH1 0x0 PUSH2 0x100 EXP DUP2 SLOAD DUP2 PUSH1 0xFF MUL NOT AND SWAP1 DUP4 ISZERO ISZERO MUL OR SWAP1 SSTORE POP PUSH1 0x60 DUP3 ADD MLOAD DUP2 PUSH1 0x3 ADD SWAP1 DUP2 PUSH2 0xCF6 SWAP2 SWAP1 PUSH2 0x1A57 JUMP JUMPDEST POP POP POP POP POP POP POP JUMP JUMPDEST DUP1 PUSH1 0x1 PUSH1 0x4 DUP1 SLOAD SWAP1 POP PUSH2 0xD12 SWAP2 SWAP1 PUSH2 0x15E0 JUMP JUMPDEST DUP2 GT ISZERO PUSH2 0xD54 JUMPI PUSH1 0x40 MLOAD PUSH32 0x8C379A000000000000000000000000000000000000000000000000000000000 DUP2 MSTORE PUSH1 0x4 ADD PUSH2 0xD4B SWAP1 PUSH2 0x1660 JUMP JUMPDEST PUSH1 0x40 MLOAD DUP1 SWAP2 SUB SWAP1 REVERT JUMPDEST PUSH1 0x1 PUSH1 0x0 CALLER PUSH20 0xFFFFFFFFFFFFFFFFFFFFFFFFFFFFFFFFFFFFFFFF AND PUSH20 0xFFFFFFFFFFFFFFFFFFFFFFFFFFFFFFFFFFFFFFFF AND DUP2 MSTORE PUSH1 0x20 ADD SWAP1 DUP2 MSTORE PUSH1 0x20 ADD PUSH1 0x0 KECCAK256 PUSH1 0x0 SWAP1 SLOAD SWAP1 PUSH2 0x100 EXP SWAP1 DIV PUSH1 0xFF AND PUSH2 0xDE0 JUMPI PUSH1 0x40 MLOAD PUSH32 0x8C379A000000000000000000000000000000000000000000000000000000000 DUP2 MSTORE PUSH1 0x4 ADD PUSH2 0xDD7 SWAP1 PUSH2 0x16CC JUMP JUMPDEST PUSH1 0x40 MLOAD DUP1 SWAP2 SUB SWAP1 REVERT JUMPDEST DUP2 PUSH1 0x0 PUSH1 0x4 DUP3 DUP2 SLOAD DUP2 LT PUSH2 0xDF7 JUMPI PUSH2 0xDF6 PUSH2 0x16EC JUMP JUMPDEST JUMPDEST SWAP1 PUSH1 0x0 MSTORE PUSH1 0x20 PUSH1 0x0 KECCAK256 SWAP1 PUSH1 0x4 MUL ADD PUSH1 0x40 MLOAD DUP1 PUSH1 0x80 ADD PUSH1 0x40 MSTORE SWAP1 DUP2 PUSH1 0x0 DUP3 ADD PUSH1 0x0 SWAP1 SLOAD SWAP1 PUSH2 0x100 EXP SWAP1 DIV PUSH20 0xFFFFFFFFFFFFFFFFFFFFFFFFFFFFFFFFFFFFFFFF AND PUSH20 0xFFFFFFFFFFFFFFFFFFFFFFFFFFFFFFFFFFFFFFFF AND PUSH20 0xFFFFFFFFFFFFFFFFFFFFFFFFFFFFFFFFFFFFFFFF AND DUP2 MSTORE PUSH1 0x20 ADD PUSH1 0x1 DUP3 ADD SLOAD DUP2 MSTORE PUSH1 0x20 ADD PUSH1 0x2 DUP3 ADD PUSH1 0x0 SWAP1 SLOAD SWAP1 PUSH2 0x100 EXP SWAP1 DIV PUSH1 0xFF AND ISZERO ISZERO ISZERO ISZERO DUP2 MSTORE PUSH1 0x20 ADD PUSH1 0x3 DUP3 ADD DUP1 SLOAD PUSH2 0xE9B SWAP1 PUSH2 0x174A JUMP JUMPDEST DUP1 PUSH1 0x1F ADD PUSH1 0x20 DUP1 SWAP2 DIV MUL PUSH1 0x20 ADD PUSH1 0x40 MLOAD SWAP1 DUP2 ADD PUSH1 0x40 MSTORE DUP1 SWAP3 SWAP2 SWAP1 DUP2 DUP2 MSTORE PUSH1 0x20 ADD DUP3 DUP1 SLOAD PUSH2 0xEC7 SWAP1 PUSH2 0x174A JUMP JUMPDEST DUP1 ISZERO PUSH2 0xF14 JUMPI DUP1 PUSH1 0x1F LT PUSH2 0xEE9 JUMPI PUSH2 0x100 DUP1 DUP4 SLOAD DIV MUL DUP4 MSTORE SWAP2 PUSH1 0x20 ADD SWAP2 PUSH2 0xF14 JUMP JUMPDEST DUP3 ADD SWAP2 SWAP1 PUSH1 0x0 MSTORE PUSH1 0x20 PUSH1 0x0 KECCAK256 SWAP1 JUMPDEST DUP2 SLOAD DUP2 MSTORE SWAP1 PUSH1 0x1 ADD SWAP1 PUSH1 0x20 ADD DUP1 DUP4 GT PUSH2 0xEF7 JUMPI DUP3 SWAP1 SUB PUSH1 0x1F AND DUP3 ADD SWAP2 JUMPDEST POP POP POP POP POP DUP2 MSTORE POP POP SWAP1 POP DUP1 PUSH1 0x40 ADD MLOAD ISZERO PUSH2 0xF64 JUMPI PUSH1 0x40 MLOAD PUSH32 0x8C379A000000000000000000000000000000000000000000000000000000000 DUP2 MSTORE PUSH1 0x4 ADD PUSH2 0xF5B SWAP1 PUSH2 0x17C7 JUMP JUMPDEST PUSH1 0x40 MLOAD DUP1 SWAP2 SUB SWAP1 REVERT JUMPDEST PUSH1 0x2 SLOAD PUSH2 0xF70 DUP6 PUSH2 0x10D5 JUMP JUMPDEST LT ISZERO PUSH2 0xFB1 JUMPI PUSH1 0x40 MLOAD PUSH32 0x8C379A000000000000000000000000000000000000000000000000000000000 DUP2 MSTORE PUSH1 0x4 ADD PUSH2 0xFA8 SWAP1 PUSH2 0x1B75 JUMP JUMPDEST PUSH1 0x40 MLOAD DUP1 SWAP2 SUB SWAP1 REVERT JUMPDEST PUSH1 0x0 PUSH1 0x4 DUP6 DUP2 SLOAD DUP2 LT PUSH2 0xFC7 JUMPI PUSH2 0xFC6 PUSH2 0x16EC JUMP JUMPDEST JUMPDEST SWAP1 PUSH1 0x0 MSTORE PUSH1 0x20 PUSH1 0x0 KECCAK256 SWAP1 PUSH1 0x4 MUL ADD SWAP1 POP PUSH1 0x0 DUP2 PUSH1 0x0 ADD PUSH1 0x0 SWAP1 SLOAD SWAP1 PUSH2 0x100 EXP SWAP1 DIV PUSH20 0xFFFFFFFFFFFFFFFFFFFFFFFFFFFFFFFFFFFFFFFF AND PUSH20 0xFFFFFFFFFFFFFFFFFFFFFFFFFFFFFFFFFFFFFFFF AND DUP3 PUSH1 0x1 ADD SLOAD DUP4 PUSH1 0x3 ADD PUSH1 0x40 MLOAD PUSH2 0x102A SWAP2 SWAP1 PUSH2 0x1C23 JUMP JUMPDEST PUSH1 0x0 PUSH1 0x40 MLOAD DUP1 DUP4 SUB DUP2 DUP6 DUP8 GAS CALL SWAP3 POP POP POP RETURNDATASIZE DUP1 PUSH1 0x0 DUP2 EQ PUSH2 0x1067 JUMPI PUSH1 0x40 MLOAD SWAP2 POP PUSH1 0x1F NOT PUSH1 0x3F RETURNDATASIZE ADD AND DUP3 ADD PUSH1 0x40 MSTORE RETURNDATASIZE DUP3 MSTORE RETURNDATASIZE PUSH1 0x0 PUSH1 0x20 DUP5 ADD RETURNDATACOPY PUSH2 0x106C JUMP JUMPDEST PUSH1 0x60 SWAP2 POP JUMPDEST POP POP SWAP1 POP DUP1 PUSH2 0x10B0 JUMPI PUSH1 0x40 MLOAD PUSH32 0x8C379A000000000000000000000000000000000000000000000000000000000 DUP2 MSTORE PUSH1 0x4 ADD PUSH2 0x10A7 SWAP1 PUSH2 0x1C86 JUMP JUMPDEST PUSH1 0x40 MLOAD DUP1 SWAP2 SUB SWAP1 REVERT JUMPDEST PUSH1 0x1 DUP3 PUSH1 0x2 ADD PUSH1 0x0 PUSH2 0x100 EXP DUP2 SLOAD DUP2 PUSH1 0xFF MUL NOT AND SWAP1 DUP4 ISZERO ISZERO MUL OR SWAP1 SSTORE POP POP POP POP POP POP POP JUMP JUMPDEST PUSH1 0x0 DUP1 JUMPDEST PUSH1 0x0 DUP1 SLOAD SWAP1 POP DUP2 LT ISZERO PUSH2 0x11A9 JUMPI PUSH1 0x3 PUSH1 0x0 DUP5 DUP2 MSTORE PUSH1 0x20 ADD SWAP1 DUP2 MSTORE PUSH1 0x20 ADD PUSH1 0x0 KECCAK256 PUSH1 0x0 DUP1 DUP4 DUP2 SLOAD DUP2 LT PUSH2 0x110E JUMPI PUSH2 0x110D PUSH2 0x16EC JUMP JUMPDEST JUMPDEST SWAP1 PUSH1 0x0 MSTORE PUSH1 0x20 PUSH1 0x0 KECCAK256 ADD PUSH1 0x0 SWAP1 SLOAD SWAP1 PUSH2 0x100 EXP SWAP1 DIV PUSH20 0xFFFFFFFFFFFFFFFFFFFFFFFFFFFFFFFFFFFFFFFF AND PUSH20 0xFFFFFFFFFFFFFFFFFFFFFFFFFFFFFFFFFFFFFFFF AND PUSH20 0xFFFFFFFFFFFFFFFFFFFFFFFFFFFFFFFFFFFFFFFF AND DUP2 MSTORE PUSH1 0x20 ADD SWAP1 DUP2 MSTORE PUSH1 0x20 ADD PUSH1 0x0 KECCAK256 PUSH1 0x0 SWAP1 SLOAD SWAP1 PUSH2 0x100 EXP SWAP1 DIV PUSH1 0xFF AND ISZERO PUSH2 0x1196 JUMPI PUSH1 0x1 DUP3 PUSH2 0x1193 SWAP2 SWAP1 PUSH2 0x1CA6 JUMP JUMPDEST SWAP2 POP JUMPDEST DUP1 DUP1 PUSH2 0x11A1 SWAP1 PUSH2 0x1CDA JUMP JUMPDEST SWAP2 POP POP PUSH2 0x10D9 JUMP JUMPDEST POP SWAP2 SWAP1 POP JUMP JUMPDEST PUSH1 0x0 PUSH20 0xFFFFFFFFFFFFFFFFFFFFFFFFFFFFFFFFFFFFFFFF DUP3 AND SWAP1 POP SWAP2 SWAP1 POP JUMP JUMPDEST PUSH1 0x0 PUSH2 0x11DA DUP3 PUSH2 0x11AF JUMP JUMPDEST SWAP1 POP SWAP2 SWAP1 POP JUMP JUMPDEST PUSH2 0x11EA DUP2 PUSH2 0x11CF JUMP JUMPDEST DUP3 MSTORE POP POP JUMP JUMPDEST PUSH1 0x0 DUP2 SWAP1 POP SWAP2 SWAP1 POP JUMP JUMPDEST PUSH2 0x1203 DUP2 PUSH2 0x11F0 JUMP JUMPDEST DUP3 MSTORE POP POP JUMP JUMPDEST PUSH1 0x0 PUSH1 0x40 DUP3 ADD SWAP1 POP PUSH2 0x121E PUSH1 0x0 DUP4 ADD DUP6 PUSH2 0x11E1 JUMP JUMPDEST PUSH2 0x122B PUSH1 0x20 DUP4 ADD DUP5 PUSH2 0x11FA JUMP JUMPDEST SWAP4 SWAP3 POP POP POP JUMP JUMPDEST PUSH1 0x0 DUP1 REVERT JUMPDEST PUSH1 0x0 DUP1 REVERT JUMPDEST PUSH2 0x1245 DUP2 PUSH2 0x11F0 JUMP JUMPDEST DUP2 EQ PUSH2 0x1250 JUMPI PUSH1 0x0 DUP1 REVERT JUMPDEST POP JUMP JUMPDEST PUSH1 0x0 DUP2 CALLDATALOAD SWAP1 POP PUSH2 0x1262 DUP2 PUSH2 0x123C JUMP JUMPDEST SWAP3 SWAP2 POP POP JUMP JUMPDEST PUSH1 0x0 PUSH1 0x20 DUP3 DUP5 SUB SLT ISZERO PUSH2 0x127E JUMPI PUSH2 0x127D PUSH2 0x1232 JUMP JUMPDEST JUMPDEST PUSH1 0x0 PUSH2 0x128C DUP5 DUP3 DUP6 ADD PUSH2 0x1253 JUMP JUMPDEST SWAP2 POP POP SWAP3 SWAP2 POP POP JUMP JUMPDEST PUSH1 0x0 PUSH1 0x20 DUP3 ADD SWAP1 POP PUSH2 0x12AA PUSH1 0x0 DUP4 ADD DUP5 PUSH2 0x11E1 JUMP JUMPDEST SWAP3 SWAP2 POP POP JUMP JUMPDEST PUSH2 0x12B9 DUP2 PUSH2 0x11CF JUMP JUMPDEST DUP2 EQ PUSH2 0x12C4 JUMPI PUSH1 0x0 DUP1 REVERT JUMPDEST POP JUMP JUMPDEST PUSH1 0x0 DUP2 CALLDATALOAD SWAP1 POP PUSH2 0x12D6 DUP2 PUSH2 0x12B0 JUMP JUMPDEST SWAP3 SWAP2 POP POP JUMP JUMPDEST PUSH1 0x0 PUSH1 0x20 DUP3 DUP5 SUB SLT ISZERO PUSH2 0x12F2 JUMPI PUSH2 0x12F1 PUSH2 0x1232 JUMP JUMPDEST JUMPDEST PUSH1 0x0 PUSH2 0x1300 DUP5 DUP3 DUP6 ADD PUSH2 0x12C7 JUMP JUMPDEST SWAP2 POP POP SWAP3 SWAP2 POP POP JUMP JUMPDEST PUSH1 0x0 DUP2 ISZERO ISZERO SWAP1 POP SWAP2 SWAP1 POP JUMP JUMPDEST PUSH2 0x131E DUP2 PUSH2 0x1309 JUMP JUMPDEST DUP3 MSTORE POP POP JUMP JUMPDEST PUSH1 0x0 PUSH1 0x20 DUP3 ADD SWAP1 POP PUSH2 0x1339 PUSH1 0x0 DUP4 ADD DUP5 PUSH2 0x1315 JUMP JUMPDEST SWAP3 SWAP2 POP POP JUMP JUMPDEST PUSH1 0x0 DUP2 MLOAD SWAP1 POP SWAP2 SWAP1 POP JUMP JUMPDEST PUSH1 0x0 DUP3 DUP3 MSTORE PUSH1 0x20 DUP3 ADD SWAP1 POP SWAP3 SWAP2 POP POP JUMP JUMPDEST PUSH1 0x0 JUMPDEST DUP4 DUP2 LT ISZERO PUSH2 0x1379 JUMPI DUP1 DUP3 ADD MLOAD DUP2 DUP5 ADD MSTORE PUSH1 0x20 DUP2 ADD SWAP1 POP PUSH2 0x135E JUMP JUMPDEST PUSH1 0x0 DUP5 DUP5 ADD MSTORE POP POP POP POP JUMP JUMPDEST PUSH1 0x0 PUSH1 0x1F NOT PUSH1 0x1F DUP4 ADD AND SWAP1 POP SWAP2 SWAP1 POP JUMP JUMPDEST PUSH1 0x0 PUSH2 0x13A1 DUP3 PUSH2 0x133F JUMP JUMPDEST PUSH2 0x13AB DUP2 DUP6 PUSH2 0x134A JUMP JUMPDEST SWAP4 POP PUSH2 0x13BB DUP2 DUP6 PUSH1 0x20 DUP7 ADD PUSH2 0x135B JUMP JUMPDEST PUSH2 0x13C4 DUP2 PUSH2 0x1385 JUMP JUMPDEST DUP5 ADD SWAP2 POP POP SWAP3 SWAP2 POP POP JUMP JUMPDEST PUSH1 0x0 PUSH1 0x80 DUP3 ADD SWAP1 POP PUSH2 0x13E4 PUSH1 0x0 DUP4 ADD DUP8 PUSH2 0x11E1 JUMP JUMPDEST PUSH2 0x13F1 PUSH1 0x20 DUP4 ADD DUP7 PUSH2 0x11FA JUMP JUMPDEST PUSH2 0x13FE PUSH1 0x40 DUP4 ADD DUP6 PUSH2 0x1315 JUMP JUMPDEST DUP2 DUP2 SUB PUSH1 0x60 DUP4 ADD MSTORE PUSH2 0x1410 DUP2 DUP5 PUSH2 0x1396 JUMP JUMPDEST SWAP1 POP SWAP6 SWAP5 POP POP POP POP POP JUMP JUMPDEST PUSH1 0x0 DUP1 PUSH1 0x40 DUP4 DUP6 SUB SLT ISZERO PUSH2 0x1432 JUMPI PUSH2 0x1431 PUSH2 0x1232 JUMP JUMPDEST JUMPDEST PUSH1 0x0 PUSH2 0x1440 DUP6 DUP3 DUP7 ADD PUSH2 0x1253 JUMP JUMPDEST SWAP3 POP POP PUSH1 0x20 PUSH2 0x1451 DUP6 DUP3 DUP7 ADD PUSH2 0x12C7 JUMP JUMPDEST SWAP2 POP POP SWAP3 POP SWAP3 SWAP1 POP JUMP JUMPDEST PUSH1 0x0 DUP1 REVERT JUMPDEST PUSH1 0x0 DUP1 REVERT JUMPDEST PUSH1 0x0 DUP1 REVERT JUMPDEST PUSH1 0x0 DUP1 DUP4 PUSH1 0x1F DUP5 ADD SLT PUSH2 0x1480 JUMPI PUSH2 0x147F PUSH2 0x145B JUMP JUMPDEST JUMPDEST DUP3 CALLDATALOAD SWAP1 POP PUSH8 0xFFFFFFFFFFFFFFFF DUP2 GT ISZERO PUSH2 0x149D JUMPI PUSH2 0x149C PUSH2 0x1460 JUMP JUMPDEST JUMPDEST PUSH1 0x20 DUP4 ADD SWAP2 POP DUP4 PUSH1 0x1 DUP3 MUL DUP4 ADD GT ISZERO PUSH2 0x14B9 JUMPI PUSH2 0x14B8 PUSH2 0x1465 JUMP JUMPDEST JUMPDEST SWAP3 POP SWAP3 SWAP1 POP JUMP JUMPDEST PUSH1 0x0 DUP1 PUSH1 0x0 DUP1 PUSH1 0x60 DUP6 DUP8 SUB SLT ISZERO PUSH2 0x14DA JUMPI PUSH2 0x14D9 PUSH2 0x1232 JUMP JUMPDEST JUMPDEST PUSH1 0x0 PUSH2 0x14E8 DUP8 DUP3 DUP9 ADD PUSH2 0x12C7 JUMP JUMPDEST SWAP5 POP POP PUSH1 0x20 PUSH2 0x14F9 DUP8 DUP3 DUP9 ADD PUSH2 0x1253 JUMP JUMPDEST SWAP4 POP POP PUSH1 0x40 DUP6 ADD CALLDATALOAD PUSH8 0xFFFFFFFFFFFFFFFF DUP2 GT ISZERO PUSH2 0x151A JUMPI PUSH2 0x1519 PUSH2 0x1237 JUMP JUMPDEST JUMPDEST PUSH2 0x1526 DUP8 DUP3 DUP9 ADD PUSH2 0x146A JUMP JUMPDEST SWAP3 POP SWAP3 POP POP SWAP3 SWAP6 SWAP2 SWAP5 POP SWAP3 POP JUMP JUMPDEST PUSH1 0x0 DUP3 DUP3 MSTORE PUSH1 0x20 DUP3 ADD SWAP1 POP SWAP3 SWAP2 POP POP JUMP JUMPDEST PUSH32 0x5472616E73616374696F6E20416C726561647920417070726F7665642E2E2E00 PUSH1 0x0 DUP3 ADD MSTORE POP JUMP JUMPDEST PUSH1 0x0 PUSH2 0x157B PUSH1 0x1F DUP4 PUSH2 0x1534 JUMP JUMPDEST SWAP2 POP PUSH2 0x1586 DUP3 PUSH2 0x1545 JUMP JUMPDEST PUSH1 0x20 DUP3 ADD SWAP1 POP SWAP2 SWAP1 POP JUMP JUMPDEST PUSH1 0x0 PUSH1 0x20 DUP3 ADD SWAP1 POP DUP2 DUP2 SUB PUSH1 0x0 DUP4 ADD MSTORE PUSH2 0x15AA DUP2 PUSH2 0x156E JUMP JUMPDEST SWAP1 POP SWAP2 SWAP1 POP JUMP JUMPDEST PUSH32 0x4E487B7100000000000000000000000000000000000000000000000000000000 PUSH1 0x0 MSTORE PUSH1 0x11 PUSH1 0x4 MSTORE PUSH1 0x24 PUSH1 0x0 REVERT JUMPDEST PUSH1 0x0 PUSH2 0x15EB DUP3 PUSH2 0x11F0 JUMP JUMPDEST SWAP2 POP PUSH2 0x15F6 DUP4 PUSH2 0x11F0 JUMP JUMPDEST SWAP3 POP DUP3 DUP3 SUB SWAP1 POP DUP2 DUP2 GT ISZERO PUSH2 0x160E JUMPI PUSH2 0x160D PUSH2 0x15B1 JUMP JUMPDEST JUMPDEST SWAP3 SWAP2 POP POP JUMP JUMPDEST PUSH32 0x5472616E73616374696F6E20446F6573206E6F742045786973742E2E2E000000 PUSH1 0x0 DUP3 ADD MSTORE POP JUMP JUMPDEST PUSH1 0x0 PUSH2 0x164A PUSH1 0x1D DUP4 PUSH2 0x1534 JUMP JUMPDEST SWAP2 POP PUSH2 0x1655 DUP3 PUSH2 0x1614 JUMP JUMPDEST PUSH1 0x20 DUP3 ADD SWAP1 POP SWAP2 SWAP1 POP JUMP JUMPDEST PUSH1 0x0 PUSH1 0x20 DUP3 ADD SWAP1 POP DUP2 DUP2 SUB PUSH1 0x0 DUP4 ADD MSTORE PUSH2 0x1679 DUP2 PUSH2 0x163D JUMP JUMPDEST SWAP1 POP SWAP2 SWAP1 POP JUMP JUMPDEST PUSH32 0x4E6F7420746865204F776E65722E2E2E2E000000000000000000000000000000 PUSH1 0x0 DUP3 ADD MSTORE POP JUMP JUMPDEST PUSH1 0x0 PUSH2 0x16B6 PUSH1 0x11 DUP4 PUSH2 0x1534 JUMP JUMPDEST SWAP2 POP PUSH2 0x16C1 DUP3 PUSH2 0x1680 JUMP JUMPDEST PUSH1 0x20 DUP3 ADD SWAP1 POP SWAP2 SWAP1 POP JUMP JUMPDEST PUSH1 0x0 PUSH1 0x20 DUP3 ADD SWAP1 POP DUP2 DUP2 SUB PUSH1 0x0 DUP4 ADD MSTORE PUSH2 0x16E5 DUP2 PUSH2 0x16A9 JUMP JUMPDEST SWAP1 POP SWAP2 SWAP1 POP JUMP JUMPDEST PUSH32 0x4E487B7100000000000000000000000000000000000000000000000000000000 PUSH1 0x0 MSTORE PUSH1 0x32 PUSH1 0x4 MSTORE PUSH1 0x24 PUSH1 0x0 REVERT JUMPDEST PUSH32 0x4E487B7100000000000000000000000000000000000000000000000000000000 PUSH1 0x0 MSTORE PUSH1 0x22 PUSH1 0x4 MSTORE PUSH1 0x24 PUSH1 0x0 REVERT JUMPDEST PUSH1 0x0 PUSH1 0x2 DUP3 DIV SWAP1 POP PUSH1 0x1 DUP3 AND DUP1 PUSH2 0x1762 JUMPI PUSH1 0x7F DUP3 AND SWAP2 POP JUMPDEST PUSH1 0x20 DUP3 LT DUP2 SUB PUSH2 0x1775 JUMPI PUSH2 0x1774 PUSH2 0x171B JUMP JUMPDEST JUMPDEST POP SWAP2 SWAP1 POP JUMP JUMPDEST PUSH32 0x5472616E73616374696F6E20416C726561647920457865637574656400000000 PUSH1 0x0 DUP3 ADD MSTORE POP JUMP JUMPDEST PUSH1 0x0 PUSH2 0x17B1 PUSH1 0x1C DUP4 PUSH2 0x1534 JUMP JUMPDEST SWAP2 POP PUSH2 0x17BC DUP3 PUSH2 0x177B JUMP JUMPDEST PUSH1 0x20 DUP3 ADD SWAP1 POP SWAP2 SWAP1 POP JUMP JUMPDEST PUSH1 0x0 PUSH1 0x20 DUP3 ADD SWAP1 POP DUP2 DUP2 SUB PUSH1 0x0 DUP4 ADD MSTORE PUSH2 0x17E0 DUP2 PUSH2 0x17A4 JUMP JUMPDEST SWAP1 POP SWAP2 SWAP1 POP JUMP JUMPDEST PUSH1 0x0 PUSH1 0x40 DUP3 ADD SWAP1 POP PUSH2 0x17FC PUSH1 0x0 DUP4 ADD DUP6 PUSH2 0x11FA JUMP JUMPDEST PUSH2 0x1809 PUSH1 0x20 DUP4 ADD DUP5 PUSH2 0x11E1 JUMP JUMPDEST SWAP4 SWAP3 POP POP POP JUMP JUMPDEST PUSH32 0x5472616E73616374696F6E204E6F7420417070726F7665642E2E2E0000000000 PUSH1 0x0 DUP3 ADD MSTORE POP JUMP JUMPDEST PUSH1 0x0 PUSH2 0x1846 PUSH1 0x1B DUP4 PUSH2 0x1534 JUMP JUMPDEST SWAP2 POP PUSH2 0x1851 DUP3 PUSH2 0x1810 JUMP JUMPDEST PUSH1 0x20 DUP3 ADD SWAP1 POP SWAP2 SWAP1 POP JUMP JUMPDEST PUSH1 0x0 PUSH1 0x20 DUP3 ADD SWAP1 POP DUP2 DUP2 SUB PUSH1 0x0 DUP4 ADD MSTORE PUSH2 0x1875 DUP2 PUSH2 0x1839 JUMP JUMPDEST SWAP1 POP SWAP2 SWAP1 POP JUMP JUMPDEST PUSH32 0x4E487B7100000000000000000000000000000000000000000000000000000000 PUSH1 0x0 MSTORE PUSH1 0x41 PUSH1 0x4 MSTORE PUSH1 0x24 PUSH1 0x0 REVERT JUMPDEST PUSH1 0x0 DUP2 SWAP1 POP DUP2 PUSH1 0x0 MSTORE PUSH1 0x20 PUSH1 0x0 KECCAK256 SWAP1 POP SWAP2 SWAP1 POP JUMP JUMPDEST PUSH1 0x0 PUSH1 0x20 PUSH1 0x1F DUP4 ADD DIV SWAP1 POP SWAP2 SWAP1 POP JUMP JUMPDEST PUSH1 0x0 DUP3 DUP3 SHL SWAP1 POP SWAP3 SWAP2 POP POP JUMP JUMPDEST PUSH1 0x0 PUSH1 0x8 DUP4 MUL PUSH2 0x190D PUSH32 0xFFFFFFFFFFFFFFFFFFFFFFFFFFFFFFFFFFFFFFFFFFFFFFFFFFFFFFFFFFFFFFFF DUP3 PUSH2 0x18D0 JUMP JUMPDEST PUSH2 0x1917 DUP7 DUP4 PUSH2 0x18D0 JUMP JUMPDEST SWAP6 POP DUP1 NOT DUP5 AND SWAP4 POP DUP1 DUP7 AND DUP5 OR SWAP3 POP POP POP SWAP4 SWAP3 POP POP POP JUMP JUMPDEST PUSH1 0x0 DUP2 SWAP1 POP SWAP2 SWAP1 POP JUMP JUMPDEST PUSH1 0x0 PUSH2 0x1954 PUSH2 0x194F PUSH2 0x194A DUP5 PUSH2 0x11F0 JUMP JUMPDEST PUSH2 0x192F JUMP JUMPDEST PUSH2 0x11F0 JUMP JUMPDEST SWAP1 POP SWAP2 SWAP1 POP JUMP JUMPDEST PUSH1 0x0 DUP2 SWAP1 POP SWAP2 SWAP1 POP JUMP JUMPDEST PUSH2 0x196E DUP4 PUSH2 0x1939 JUMP JUMPDEST PUSH2 0x1982 PUSH2 0x197A DUP3 PUSH2 0x195B JUMP JUMPDEST DUP5 DUP5 SLOAD PUSH2 0x18DD JUMP JUMPDEST DUP3 SSTORE POP POP POP POP JUMP JUMPDEST PUSH1 0x0 SWAP1 JUMP JUMPDEST PUSH2 0x1997 PUSH2 0x198A JUMP JUMPDEST PUSH2 0x19A2 DUP2 DUP5 DUP5 PUSH2 0x1965 JUMP JUMPDEST POP POP POP JUMP JUMPDEST JUMPDEST DUP2 DUP2 LT ISZERO PUSH2 0x19C6 JUMPI PUSH2 0x19BB PUSH1 0x0 DUP3 PUSH2 0x198F JUMP JUMPDEST PUSH1 0x1 DUP2 ADD SWAP1 POP PUSH2 0x19A8 JUMP JUMPDEST POP POP JUMP JUMPDEST PUSH1 0x1F DUP3 GT ISZERO PUSH2 0x1A0B JUMPI PUSH2 0x19DC DUP2 PUSH2 0x18AB JUMP JUMPDEST PUSH2 0x19E5 DUP5 PUSH2 0x18C0 JUMP JUMPDEST DUP2 ADD PUSH1 0x20 DUP6 LT ISZERO PUSH2 0x19F4 JUMPI DUP2 SWAP1 POP JUMPDEST PUSH2 0x1A08 PUSH2 0x1A00 DUP6 PUSH2 0x18C0 JUMP JUMPDEST DUP4 ADD DUP3 PUSH2 0x19A7 JUMP JUMPDEST POP POP JUMPDEST POP POP POP JUMP JUMPDEST PUSH1 0x0 DUP3 DUP3 SHR SWAP1 POP SWAP3 SWAP2 POP POP JUMP JUMPDEST PUSH1 0x0 PUSH2 0x1A2E PUSH1 0x0 NOT DUP5 PUSH1 0x8 MUL PUSH2 0x1A10 JUMP JUMPDEST NOT DUP1 DUP4 AND SWAP2 POP POP SWAP3 SWAP2 POP POP JUMP JUMPDEST PUSH1 0x0 PUSH2 0x1A47 DUP4 DUP4 PUSH2 0x1A1D JUMP JUMPDEST SWAP2 POP DUP3 PUSH1 0x2 MUL DUP3 OR SWAP1 POP SWAP3 SWAP2 POP POP JUMP JUMPDEST PUSH2 0x1A60 DUP3 PUSH2 0x133F JUMP JUMPDEST PUSH8 0xFFFFFFFFFFFFFFFF DUP2 GT ISZERO PUSH2 0x1A79 JUMPI PUSH2 0x1A78 PUSH2 0x187C JUMP JUMPDEST JUMPDEST PUSH2 0x1A83 DUP3 SLOAD PUSH2 0x174A JUMP JUMPDEST PUSH2 0x1A8E DUP3 DUP3 DUP6 PUSH2 0x19CA JUMP JUMPDEST PUSH1 0x0 PUSH1 0x20 SWAP1 POP PUSH1 0x1F DUP4 GT PUSH1 0x1 DUP2 EQ PUSH2 0x1AC1 JUMPI PUSH1 0x0 DUP5 ISZERO PUSH2 0x1AAF JUMPI DUP3 DUP8 ADD MLOAD SWAP1 POP JUMPDEST PUSH2 0x1AB9 DUP6 DUP3 PUSH2 0x1A3B JUMP JUMPDEST DUP7 SSTORE POP PUSH2 0x1B21 JUMP JUMPDEST PUSH1 0x1F NOT DUP5 AND PUSH2 0x1ACF DUP7 PUSH2 0x18AB JUMP JUMPDEST PUSH1 0x0 JUMPDEST DUP3 DUP2 LT ISZERO PUSH2 0x1AF7 JUMPI DUP5 DUP10 ADD MLOAD DUP3 SSTORE PUSH1 0x1 DUP3 ADD SWAP2 POP PUSH1 0x20 DUP6 ADD SWAP5 POP PUSH1 0x20 DUP2 ADD SWAP1 POP PUSH2 0x1AD2 JUMP JUMPDEST DUP7 DUP4 LT ISZERO PUSH2 0x1B14 JUMPI DUP5 DUP10 ADD MLOAD PUSH2 0x1B10 PUSH1 0x1F DUP10 AND DUP3 PUSH2 0x1A1D JUMP JUMPDEST DUP4 SSTORE POP JUMPDEST PUSH1 0x1 PUSH1 0x2 DUP9 MUL ADD DUP9 SSTORE POP POP POP JUMPDEST POP POP POP POP POP POP JUMP JUMPDEST PUSH32 0x4E6F7420456E6F75676820417070726F76616C732E2E2E000000000000000000 PUSH1 0x0 DUP3 ADD MSTORE POP JUMP JUMPDEST PUSH1 0x0 PUSH2 0x1B5F PUSH1 0x17 DUP4 PUSH2 0x1534 JUMP JUMPDEST SWAP2 POP PUSH2 0x1B6A DUP3 PUSH2 0x1B29 JUMP JUMPDEST PUSH1 0x20 DUP3 ADD SWAP1 POP SWAP2 SWAP1 POP JUMP JUMPDEST PUSH1 0x0 PUSH1 0x20 DUP3 ADD SWAP1 POP DUP2 DUP2 SUB PUSH1 0x0 DUP4 ADD MSTORE PUSH2 0x1B8E DUP2 PUSH2 0x1B52 JUMP JUMPDEST SWAP1 POP SWAP2 SWAP1 POP JUMP JUMPDEST PUSH1 0x0 DUP2 SWAP1 POP SWAP3 SWAP2 POP POP JUMP JUMPDEST PUSH1 0x0 DUP2 SLOAD PUSH2 0x1BAD DUP2 PUSH2 0x174A JUMP JUMPDEST PUSH2 0x1BB7 DUP2 DUP7 PUSH2 0x1B95 JUMP JUMPDEST SWAP5 POP PUSH1 0x1 DUP3 AND PUSH1 0x0 DUP2 EQ PUSH2 0x1BD2 JUMPI PUSH1 0x1 DUP2 EQ PUSH2 0x1BE7 JUMPI PUSH2 0x1C1A JUMP JUMPDEST PUSH1 0xFF NOT DUP4 AND DUP7 MSTORE DUP2 ISZERO ISZERO DUP3 MUL DUP7 ADD SWAP4 POP PUSH2 0x1C1A JUMP JUMPDEST PUSH2 0x1BF0 DUP6 PUSH2 0x18AB JUMP JUMPDEST PUSH1 0x0 JUMPDEST DUP4 DUP2 LT ISZERO PUSH2 0x1C12 JUMPI DUP2 SLOAD DUP2 DUP10 ADD MSTORE PUSH1 0x1 DUP3 ADD SWAP2 POP PUSH1 0x20 DUP2 ADD SWAP1 POP PUSH2 0x1BF3 JUMP JUMPDEST DUP4 DUP9 ADD SWAP6 POP POP POP JUMPDEST POP POP POP SWAP3 SWAP2 POP POP JUMP JUMPDEST PUSH1 0x0 PUSH2 0x1C2F DUP3 DUP5 PUSH2 0x1BA0 JUMP JUMPDEST SWAP2 POP DUP2 SWAP1 POP SWAP3 SWAP2 POP POP JUMP JUMPDEST PUSH32 0x5472616E73616374696F6E20496E636F6D706C65746500000000000000000000 PUSH1 0x0 DUP3 ADD MSTORE POP JUMP JUMPDEST PUSH1 0x0 PUSH2 0x1C70 PUSH1 0x16 DUP4 PUSH2 0x1534 JUMP JUMPDEST SWAP2 POP PUSH2 0x1C7B DUP3 PUSH2 0x1C3A JUMP JUMPDEST PUSH1 0x20 DUP3 ADD SWAP1 POP SWAP2 SWAP1 POP JUMP JUMPDEST PUSH1 0x0 PUSH1 0x20 DUP3 ADD SWAP1 POP DUP2 DUP2 SUB PUSH1 0x0 DUP4 ADD MSTORE PUSH2 0x1C9F DUP2 PUSH2 0x1C63 JUMP JUMPDEST SWAP1 POP SWAP2 SWAP1 POP JUMP JUMPDEST PUSH1 0x0 PUSH2 0x1CB1 DUP3 PUSH2 0x11F0 JUMP JUMPDEST SWAP2 POP PUSH2 0x1CBC DUP4 PUSH2 0x11F0 JUMP JUMPDEST SWAP3 POP DUP3 DUP3 ADD SWAP1 POP DUP1 DUP3 GT ISZERO PUSH2 0x1CD4 JUMPI PUSH2 0x1CD3 PUSH2 0x15B1 JUMP JUMPDEST JUMPDEST SWAP3 SWAP2 POP POP JUMP JUMPDEST PUSH1 0x0 PUSH2 0x1CE5 DUP3 PUSH2 0x11F0 JUMP JUMPDEST SWAP2 POP PUSH32 0xFFFFFFFFFFFFFFFFFFFFFFFFFFFFFFFFFFFFFFFFFFFFFFFFFFFFFFFFFFFFFFFF DUP3 SUB PUSH2 0x1D17 JUMPI PUSH2 0x1D16 PUSH2 0x15B1 JUMP JUMPDEST JUMPDEST PUSH1 0x1 DUP3 ADD SWAP1 POP SWAP2 SWAP1 POP JUMP INVALID LOG2 PUSH5 0x6970667358 0x22 SLT KECCAK256 PUSH2 0xC871 BASEFEE 0xBC 0xED 0x4E PC 0xEC 0xDB PUSH24 0xB841B89B91F2AF38A664C6C9EE3B1DEEC6091C890564736F PUSH13 0x63430008100033000000000000 "
				},
				"gasEstimates": {
					"creation": {
						"codeDepositCost": "1502400",
						"executionCost": "infinite",
						"totalCost": "infinite"
					},
					"external": {
						"approval(uint256,address)": "3109",
						"approveTransaction(uint256)": "infinite",
						"executeTransaction(uint256)": "infinite",
						"isOwner(address)": "2890",
						"makeTransaction(address,uint256,bytes)": "infinite",
						"owners(uint256)": "4957",
						"revokeApproval(uint256)": "infinite",
						"transactions(uint256)": "infinite"
					},
					"internal": {
						"canExec(uint256)": "infinite"
					}
				},
				"methodIdentifiers": {
					"approval(uint256,address)": "b848de35",
					"approveTransaction(uint256)": "242232d1",
					"executeTransaction(uint256)": "ee22610b",
					"isOwner(address)": "2f54bf6e",
					"makeTransaction(address,uint256,bytes)": "c0c64a49",
					"owners(uint256)": "025e7c27",
					"revokeApproval(uint256)": "b1e130fc",
					"transactions(uint256)": "9ace38c2"
				}
			},
			"storageLayout": {
				"storage": [
					{
						"astId": 22,
						"contract": "contracts/MultiSigWallet.sol:MultiSigWallet",
						"label": "owners",
						"offset": 0,
						"slot": "0",
						"type": "t_array(t_address)dyn_storage"
					},
					{
						"astId": 26,
						"contract": "contracts/MultiSigWallet.sol:MultiSigWallet",
						"label": "isOwner",
						"offset": 0,
						"slot": "1",
						"type": "t_mapping(t_address,t_bool)"
					},
					{
						"astId": 28,
						"contract": "contracts/MultiSigWallet.sol:MultiSigWallet",
						"label": "required",
						"offset": 0,
						"slot": "2",
						"type": "t_uint256"
					},
					{
						"astId": 34,
						"contract": "contracts/MultiSigWallet.sol:MultiSigWallet",
						"label": "approval",
						"offset": 0,
						"slot": "3",
						"type": "t_mapping(t_uint256,t_mapping(t_address,t_bool))"
					},
					{
						"astId": 47,
						"contract": "contracts/MultiSigWallet.sol:MultiSigWallet",
						"label": "transactions",
						"offset": 0,
						"slot": "4",
						"type": "t_array(t_struct(Transaction)43_storage)dyn_storage"
					}
				],
				"types": {
					"t_address": {
						"encoding": "inplace",
						"label": "address",
						"numberOfBytes": "20"
					},
					"t_array(t_address)dyn_storage": {
						"base": "t_address",
						"encoding": "dynamic_array",
						"label": "address[]",
						"numberOfBytes": "32"
					},
					"t_array(t_struct(Transaction)43_storage)dyn_storage": {
						"base": "t_struct(Transaction)43_storage",
						"encoding": "dynamic_array",
						"label": "struct MultiSigWallet.Transaction[]",
						"numberOfBytes": "32"
					},
					"t_bool": {
						"encoding": "inplace",
						"label": "bool",
						"numberOfBytes": "1"
					},
					"t_bytes_storage": {
						"encoding": "bytes",
						"label": "bytes",
						"numberOfBytes": "32"
					},
					"t_mapping(t_address,t_bool)": {
						"encoding": "mapping",
						"key": "t_address",
						"label": "mapping(address => bool)",
						"numberOfBytes": "32",
						"value": "t_bool"
					},
					"t_mapping(t_uint256,t_mapping(t_address,t_bool))": {
						"encoding": "mapping",
						"key": "t_uint256",
						"label": "mapping(uint256 => mapping(address => bool))",
						"numberOfBytes": "32",
						"value": "t_mapping(t_address,t_bool)"
					},
					"t_struct(Transaction)43_storage": {
						"encoding": "inplace",
						"label": "struct MultiSigWallet.Transaction",
						"members": [
							{
								"astId": 36,
								"contract": "contracts/MultiSigWallet.sol:MultiSigWallet",
								"label": "to",
								"offset": 0,
								"slot": "0",
								"type": "t_address"
							},
							{
								"astId": 38,
								"contract": "contracts/MultiSigWallet.sol:MultiSigWallet",
								"label": "value",
								"offset": 0,
								"slot": "1",
								"type": "t_uint256"
							},
							{
								"astId": 40,
								"contract": "contracts/MultiSigWallet.sol:MultiSigWallet",
								"label": "executed",
								"offset": 0,
								"slot": "2",
								"type": "t_bool"
							},
							{
								"astId": 42,
								"contract": "contracts/MultiSigWallet.sol:MultiSigWallet",
								"label": "data",
								"offset": 0,
								"slot": "3",
								"type": "t_bytes_storage"
							}
						],
						"numberOfBytes": "128"
					},
					"t_uint256": {
						"encoding": "inplace",
						"label": "uint256",
						"numberOfBytes": "32"
					}
				}
			},
			"userdoc": {
				"kind": "user",
				"methods": {},
				"version": 1
			}
		}
	}
}