{
	"contracts/IterableMapping.sol": {
		"IterableMapping": {
			"abi": [
				{
					"inputs": [
						{
							"internalType": "address",
							"name": "",
							"type": "address"
						}
					],
					"name": "balances",
					"outputs": [
						{
							"internalType": "uint256",
							"name": "",
							"type": "uint256"
						}
					],
					"stateMutability": "view",
					"type": "function"
				},
				{
					"inputs": [],
					"name": "getSize",
					"outputs": [
						{
							"internalType": "uint256",
							"name": "",
							"type": "uint256"
						}
					],
					"stateMutability": "view",
					"type": "function"
				},
				{
					"inputs": [
						{
							"internalType": "address",
							"name": "_key",
							"type": "address"
						},
						{
							"internalType": "uint256",
							"name": "_val",
							"type": "uint256"
						}
					],
					"name": "set",
					"outputs": [],
					"stateMutability": "nonpayable",
					"type": "function"
				}
			],
			"devdoc": {
				"kind": "dev",
				"methods": {},
				"version": 1
			},
			"evm": {
				"assembly": "    /* \"contracts/IterableMapping.sol\":66:501  contract IterableMapping{\r... */\n  mstore(0x40, 0x80)\n  callvalue\n  dup1\n  iszero\n  tag_1\n  jumpi\n  0x00\n  dup1\n  revert\ntag_1:\n  pop\n  dataSize(sub_0)\n  dup1\n  dataOffset(sub_0)\n  0x00\n  codecopy\n  0x00\n  return\nstop\n\nsub_0: assembly {\n        /* \"contracts/IterableMapping.sol\":66:501  contract IterableMapping{\r... */\n      mstore(0x40, 0x80)\n      callvalue\n      dup1\n      iszero\n      tag_1\n      jumpi\n      0x00\n      dup1\n      revert\n    tag_1:\n      pop\n      jumpi(tag_2, lt(calldatasize, 0x04))\n      shr(0xe0, calldataload(0x00))\n      dup1\n      0x27e235e3\n      eq\n      tag_3\n      jumpi\n      dup1\n      0x3825d828\n      eq\n      tag_4\n      jumpi\n      dup1\n      0xde8fa431\n      eq\n      tag_5\n      jumpi\n    tag_2:\n      0x00\n      dup1\n      revert\n        /* \"contracts/IterableMapping.sol\":99:139  mapping(address => uint) public balances */\n    tag_3:\n      tag_6\n      0x04\n      dup1\n      calldatasize\n      sub\n      dup2\n      add\n      swap1\n      tag_7\n      swap2\n      swap1\n      tag_8\n      jump\t// in\n    tag_7:\n      tag_9\n      jump\t// in\n    tag_6:\n      mload(0x40)\n      tag_10\n      swap2\n      swap1\n      tag_11\n      jump\t// in\n    tag_10:\n      mload(0x40)\n      dup1\n      swap2\n      sub\n      swap1\n      return\n        /* \"contracts/IterableMapping.sol\":217:407  function set(address _key, uint _val) public {\r... */\n    tag_4:\n      tag_12\n      0x04\n      dup1\n      calldatasize\n      sub\n      dup2\n      add\n      swap1\n      tag_13\n      swap2\n      swap1\n      tag_14\n      jump\t// in\n    tag_13:\n      tag_15\n      jump\t// in\n    tag_12:\n      stop\n        /* \"contracts/IterableMapping.sol\":415:498  function getSize() external view returns(uint){\r... */\n    tag_5:\n      tag_16\n      tag_17\n      jump\t// in\n    tag_16:\n      mload(0x40)\n      tag_18\n      swap2\n      swap1\n      tag_11\n      jump\t// in\n    tag_18:\n      mload(0x40)\n      dup1\n      swap2\n      sub\n      swap1\n      return\n        /* \"contracts/IterableMapping.sol\":99:139  mapping(address => uint) public balances */\n    tag_9:\n      mstore(0x20, 0x00)\n      dup1\n      0x00\n      mstore\n      keccak256(0x00, 0x40)\n      0x00\n      swap2\n      pop\n      swap1\n      pop\n      sload\n      dup2\n      jump\t// out\n        /* \"contracts/IterableMapping.sol\":217:407  function set(address _key, uint _val) public {\r... */\n    tag_15:\n        /* \"contracts/IterableMapping.sol\":278:283  exist */\n      0x01\n        /* \"contracts/IterableMapping.sol\":278:289  exist[_key] */\n      0x00\n        /* \"contracts/IterableMapping.sol\":284:288  _key */\n      dup4\n        /* \"contracts/IterableMapping.sol\":278:289  exist[_key] */\n      0xffffffffffffffffffffffffffffffffffffffff\n      and\n      0xffffffffffffffffffffffffffffffffffffffff\n      and\n      dup2\n      mstore\n      0x20\n      add\n      swap1\n      dup2\n      mstore\n      0x20\n      add\n      0x00\n      keccak256\n      0x00\n      swap1\n      sload\n      swap1\n      0x0100\n      exp\n      swap1\n      div\n      0xff\n      and\n        /* \"contracts/IterableMapping.sol\":273:365  if (!exist[_key]){\r... */\n      tag_20\n      jumpi\n        /* \"contracts/IterableMapping.sol\":319:323  true */\n      0x01\n        /* \"contracts/IterableMapping.sol\":305:310  exist */\n      dup1\n        /* \"contracts/IterableMapping.sol\":305:316  exist[_key] */\n      0x00\n        /* \"contracts/IterableMapping.sol\":311:315  _key */\n      dup5\n        /* \"contracts/IterableMapping.sol\":305:316  exist[_key] */\n      0xffffffffffffffffffffffffffffffffffffffff\n      and\n      0xffffffffffffffffffffffffffffffffffffffff\n      and\n      dup2\n      mstore\n      0x20\n      add\n      swap1\n      dup2\n      mstore\n      0x20\n      add\n      0x00\n      keccak256\n      0x00\n        /* \"contracts/IterableMapping.sol\":305:323  exist[_key] = true */\n      0x0100\n      exp\n      dup2\n      sload\n      dup2\n      0xff\n      mul\n      not\n      and\n      swap1\n      dup4\n      iszero\n      iszero\n      mul\n      or\n      swap1\n      sstore\n      pop\n        /* \"contracts/IterableMapping.sol\":338:342  keys */\n      0x02\n        /* \"contracts/IterableMapping.sol\":348:352  _key */\n      dup3\n        /* \"contracts/IterableMapping.sol\":338:353  keys.push(_key) */\n      swap1\n      dup1\n      0x01\n      dup2\n      sload\n      add\n      dup1\n      dup3\n      sstore\n      dup1\n      swap2\n      pop\n      pop\n      0x01\n      swap1\n      sub\n      swap1\n      0x00\n      mstore\n      keccak256(0x00, 0x20)\n      add\n      0x00\n      swap1\n      swap2\n      swap1\n      swap2\n      swap1\n      swap2\n      0x0100\n      exp\n      dup2\n      sload\n      dup2\n      0xffffffffffffffffffffffffffffffffffffffff\n      mul\n      not\n      and\n      swap1\n      dup4\n      0xffffffffffffffffffffffffffffffffffffffff\n      and\n      mul\n      or\n      swap1\n      sstore\n      pop\n        /* \"contracts/IterableMapping.sol\":273:365  if (!exist[_key]){\r... */\n    tag_20:\n        /* \"contracts/IterableMapping.sol\":395:399  _val */\n      dup1\n        /* \"contracts/IterableMapping.sol\":377:385  balances */\n      0x00\n        /* \"contracts/IterableMapping.sol\":377:391  balances[_key] */\n      dup1\n        /* \"contracts/IterableMapping.sol\":386:390  _key */\n      dup5\n        /* \"contracts/IterableMapping.sol\":377:391  balances[_key] */\n      0xffffffffffffffffffffffffffffffffffffffff\n      and\n      0xffffffffffffffffffffffffffffffffffffffff\n      and\n      dup2\n      mstore\n      0x20\n      add\n      swap1\n      dup2\n      mstore\n      0x20\n      add\n      0x00\n      keccak256\n      0x00\n        /* \"contracts/IterableMapping.sol\":377:399  balances[_key] += _val */\n      dup3\n      dup3\n      sload\n      tag_22\n      swap2\n      swap1\n      tag_23\n      jump\t// in\n    tag_22:\n      swap3\n      pop\n      pop\n      dup2\n      swap1\n      sstore\n      pop\n        /* \"contracts/IterableMapping.sol\":217:407  function set(address _key, uint _val) public {\r... */\n      pop\n      pop\n      jump\t// out\n        /* \"contracts/IterableMapping.sol\":415:498  function getSize() external view returns(uint){\r... */\n    tag_17:\n        /* \"contracts/IterableMapping.sol\":456:460  uint */\n      0x00\n        /* \"contracts/IterableMapping.sol\":479:483  keys */\n      0x02\n        /* \"contracts/IterableMapping.sol\":479:490  keys.length */\n      dup1\n      sload\n      swap1\n      pop\n        /* \"contracts/IterableMapping.sol\":472:490  return keys.length */\n      swap1\n      pop\n        /* \"contracts/IterableMapping.sol\":415:498  function getSize() external view returns(uint){\r... */\n      swap1\n      jump\t// out\n        /* \"#utility.yul\":7:146   */\n    tag_26:\n        /* \"#utility.yul\":53:58   */\n      0x00\n        /* \"#utility.yul\":91:97   */\n      dup2\n        /* \"#utility.yul\":78:98   */\n      calldataload\n        /* \"#utility.yul\":69:98   */\n      swap1\n      pop\n        /* \"#utility.yul\":107:140   */\n      tag_28\n        /* \"#utility.yul\":134:139   */\n      dup2\n        /* \"#utility.yul\":107:140   */\n      tag_29\n      jump\t// in\n    tag_28:\n        /* \"#utility.yul\":7:146   */\n      swap3\n      swap2\n      pop\n      pop\n      jump\t// out\n        /* \"#utility.yul\":152:291   */\n    tag_30:\n        /* \"#utility.yul\":198:203   */\n      0x00\n        /* \"#utility.yul\":236:242   */\n      dup2\n        /* \"#utility.yul\":223:243   */\n      calldataload\n        /* \"#utility.yul\":214:243   */\n      swap1\n      pop\n        /* \"#utility.yul\":252:285   */\n      tag_32\n        /* \"#utility.yul\":279:284   */\n      dup2\n        /* \"#utility.yul\":252:285   */\n      tag_33\n      jump\t// in\n    tag_32:\n        /* \"#utility.yul\":152:291   */\n      swap3\n      swap2\n      pop\n      pop\n      jump\t// out\n        /* \"#utility.yul\":297:626   */\n    tag_8:\n        /* \"#utility.yul\":356:362   */\n      0x00\n        /* \"#utility.yul\":405:407   */\n      0x20\n        /* \"#utility.yul\":393:402   */\n      dup3\n        /* \"#utility.yul\":384:391   */\n      dup5\n        /* \"#utility.yul\":380:403   */\n      sub\n        /* \"#utility.yul\":376:408   */\n      slt\n        /* \"#utility.yul\":373:492   */\n      iszero\n      tag_35\n      jumpi\n        /* \"#utility.yul\":411:490   */\n      tag_36\n      tag_37\n      jump\t// in\n    tag_36:\n        /* \"#utility.yul\":373:492   */\n    tag_35:\n        /* \"#utility.yul\":531:532   */\n      0x00\n        /* \"#utility.yul\":556:609   */\n      tag_38\n        /* \"#utility.yul\":601:608   */\n      dup5\n        /* \"#utility.yul\":592:598   */\n      dup3\n        /* \"#utility.yul\":581:590   */\n      dup6\n        /* \"#utility.yul\":577:599   */\n      add\n        /* \"#utility.yul\":556:609   */\n      tag_26\n      jump\t// in\n    tag_38:\n        /* \"#utility.yul\":546:609   */\n      swap2\n      pop\n        /* \"#utility.yul\":502:619   */\n      pop\n        /* \"#utility.yul\":297:626   */\n      swap3\n      swap2\n      pop\n      pop\n      jump\t// out\n        /* \"#utility.yul\":632:1106   */\n    tag_14:\n        /* \"#utility.yul\":700:706   */\n      0x00\n        /* \"#utility.yul\":708:714   */\n      dup1\n        /* \"#utility.yul\":757:759   */\n      0x40\n        /* \"#utility.yul\":745:754   */\n      dup4\n        /* \"#utility.yul\":736:743   */\n      dup6\n        /* \"#utility.yul\":732:755   */\n      sub\n        /* \"#utility.yul\":728:760   */\n      slt\n        /* \"#utility.yul\":725:844   */\n      iszero\n      tag_40\n      jumpi\n        /* \"#utility.yul\":763:842   */\n      tag_41\n      tag_37\n      jump\t// in\n    tag_41:\n        /* \"#utility.yul\":725:844   */\n    tag_40:\n        /* \"#utility.yul\":883:884   */\n      0x00\n        /* \"#utility.yul\":908:961   */\n      tag_42\n        /* \"#utility.yul\":953:960   */\n      dup6\n        /* \"#utility.yul\":944:950   */\n      dup3\n        /* \"#utility.yul\":933:942   */\n      dup7\n        /* \"#utility.yul\":929:951   */\n      add\n        /* \"#utility.yul\":908:961   */\n      tag_26\n      jump\t// in\n    tag_42:\n        /* \"#utility.yul\":898:961   */\n      swap3\n      pop\n        /* \"#utility.yul\":854:971   */\n      pop\n        /* \"#utility.yul\":1010:1012   */\n      0x20\n        /* \"#utility.yul\":1036:1089   */\n      tag_43\n        /* \"#utility.yul\":1081:1088   */\n      dup6\n        /* \"#utility.yul\":1072:1078   */\n      dup3\n        /* \"#utility.yul\":1061:1070   */\n      dup7\n        /* \"#utility.yul\":1057:1079   */\n      add\n        /* \"#utility.yul\":1036:1089   */\n      tag_30\n      jump\t// in\n    tag_43:\n        /* \"#utility.yul\":1026:1089   */\n      swap2\n      pop\n        /* \"#utility.yul\":981:1099   */\n      pop\n        /* \"#utility.yul\":632:1106   */\n      swap3\n      pop\n      swap3\n      swap1\n      pop\n      jump\t// out\n        /* \"#utility.yul\":1112:1230   */\n    tag_44:\n        /* \"#utility.yul\":1199:1223   */\n      tag_46\n        /* \"#utility.yul\":1217:1222   */\n      dup2\n        /* \"#utility.yul\":1199:1223   */\n      tag_47\n      jump\t// in\n    tag_46:\n        /* \"#utility.yul\":1194:1197   */\n      dup3\n        /* \"#utility.yul\":1187:1224   */\n      mstore\n        /* \"#utility.yul\":1112:1230   */\n      pop\n      pop\n      jump\t// out\n        /* \"#utility.yul\":1236:1458   */\n    tag_11:\n        /* \"#utility.yul\":1329:1333   */\n      0x00\n        /* \"#utility.yul\":1367:1369   */\n      0x20\n        /* \"#utility.yul\":1356:1365   */\n      dup3\n        /* \"#utility.yul\":1352:1370   */\n      add\n        /* \"#utility.yul\":1344:1370   */\n      swap1\n      pop\n        /* \"#utility.yul\":1380:1451   */\n      tag_49\n        /* \"#utility.yul\":1448:1449   */\n      0x00\n        /* \"#utility.yul\":1437:1446   */\n      dup4\n        /* \"#utility.yul\":1433:1450   */\n      add\n        /* \"#utility.yul\":1424:1430   */\n      dup5\n        /* \"#utility.yul\":1380:1451   */\n      tag_44\n      jump\t// in\n    tag_49:\n        /* \"#utility.yul\":1236:1458   */\n      swap3\n      swap2\n      pop\n      pop\n      jump\t// out\n        /* \"#utility.yul\":1545:1850   */\n    tag_23:\n        /* \"#utility.yul\":1585:1588   */\n      0x00\n        /* \"#utility.yul\":1604:1624   */\n      tag_53\n        /* \"#utility.yul\":1622:1623   */\n      dup3\n        /* \"#utility.yul\":1604:1624   */\n      tag_47\n      jump\t// in\n    tag_53:\n        /* \"#utility.yul\":1599:1624   */\n      swap2\n      pop\n        /* \"#utility.yul\":1638:1658   */\n      tag_54\n        /* \"#utility.yul\":1656:1657   */\n      dup4\n        /* \"#utility.yul\":1638:1658   */\n      tag_47\n      jump\t// in\n    tag_54:\n        /* \"#utility.yul\":1633:1658   */\n      swap3\n      pop\n        /* \"#utility.yul\":1792:1793   */\n      dup3\n        /* \"#utility.yul\":1724:1790   */\n      0xffffffffffffffffffffffffffffffffffffffffffffffffffffffffffffffff\n        /* \"#utility.yul\":1720:1794   */\n      sub\n        /* \"#utility.yul\":1717:1718   */\n      dup3\n        /* \"#utility.yul\":1714:1795   */\n      gt\n        /* \"#utility.yul\":1711:1818   */\n      iszero\n      tag_55\n      jumpi\n        /* \"#utility.yul\":1798:1816   */\n      tag_56\n      tag_57\n      jump\t// in\n    tag_56:\n        /* \"#utility.yul\":1711:1818   */\n    tag_55:\n        /* \"#utility.yul\":1842:1843   */\n      dup3\n        /* \"#utility.yul\":1839:1840   */\n      dup3\n        /* \"#utility.yul\":1835:1844   */\n      add\n        /* \"#utility.yul\":1828:1844   */\n      swap1\n      pop\n        /* \"#utility.yul\":1545:1850   */\n      swap3\n      swap2\n      pop\n      pop\n      jump\t// out\n        /* \"#utility.yul\":1856:1952   */\n    tag_58:\n        /* \"#utility.yul\":1893:1900   */\n      0x00\n        /* \"#utility.yul\":1922:1946   */\n      tag_60\n        /* \"#utility.yul\":1940:1945   */\n      dup3\n        /* \"#utility.yul\":1922:1946   */\n      tag_61\n      jump\t// in\n    tag_60:\n        /* \"#utility.yul\":1911:1946   */\n      swap1\n      pop\n        /* \"#utility.yul\":1856:1952   */\n      swap2\n      swap1\n      pop\n      jump\t// out\n        /* \"#utility.yul\":1958:2084   */\n    tag_61:\n        /* \"#utility.yul\":1995:2002   */\n      0x00\n        /* \"#utility.yul\":2035:2077   */\n      0xffffffffffffffffffffffffffffffffffffffff\n        /* \"#utility.yul\":2028:2033   */\n      dup3\n        /* \"#utility.yul\":2024:2078   */\n      and\n        /* \"#utility.yul\":2013:2078   */\n      swap1\n      pop\n        /* \"#utility.yul\":1958:2084   */\n      swap2\n      swap1\n      pop\n      jump\t// out\n        /* \"#utility.yul\":2090:2167   */\n    tag_47:\n        /* \"#utility.yul\":2127:2134   */\n      0x00\n        /* \"#utility.yul\":2156:2161   */\n      dup2\n        /* \"#utility.yul\":2145:2161   */\n      swap1\n      pop\n        /* \"#utility.yul\":2090:2167   */\n      swap2\n      swap1\n      pop\n      jump\t// out\n        /* \"#utility.yul\":2173:2353   */\n    tag_57:\n        /* \"#utility.yul\":2221:2298   */\n      0x4e487b7100000000000000000000000000000000000000000000000000000000\n        /* \"#utility.yul\":2218:2219   */\n      0x00\n        /* \"#utility.yul\":2211:2299   */\n      mstore\n        /* \"#utility.yul\":2318:2322   */\n      0x11\n        /* \"#utility.yul\":2315:2316   */\n      0x04\n        /* \"#utility.yul\":2308:2323   */\n      mstore\n        /* \"#utility.yul\":2342:2346   */\n      0x24\n        /* \"#utility.yul\":2339:2340   */\n      0x00\n        /* \"#utility.yul\":2332:2347   */\n      revert\n        /* \"#utility.yul\":2482:2599   */\n    tag_37:\n        /* \"#utility.yul\":2591:2592   */\n      0x00\n        /* \"#utility.yul\":2588:2589   */\n      dup1\n        /* \"#utility.yul\":2581:2593   */\n      revert\n        /* \"#utility.yul\":2605:2727   */\n    tag_29:\n        /* \"#utility.yul\":2678:2702   */\n      tag_69\n        /* \"#utility.yul\":2696:2701   */\n      dup2\n        /* \"#utility.yul\":2678:2702   */\n      tag_58\n      jump\t// in\n    tag_69:\n        /* \"#utility.yul\":2671:2676   */\n      dup2\n        /* \"#utility.yul\":2668:2703   */\n      eq\n        /* \"#utility.yul\":2658:2721   */\n      tag_70\n      jumpi\n        /* \"#utility.yul\":2717:2718   */\n      0x00\n        /* \"#utility.yul\":2714:2715   */\n      dup1\n        /* \"#utility.yul\":2707:2719   */\n      revert\n        /* \"#utility.yul\":2658:2721   */\n    tag_70:\n        /* \"#utility.yul\":2605:2727   */\n      pop\n      jump\t// out\n        /* \"#utility.yul\":2733:2855   */\n    tag_33:\n        /* \"#utility.yul\":2806:2830   */\n      tag_72\n        /* \"#utility.yul\":2824:2829   */\n      dup2\n        /* \"#utility.yul\":2806:2830   */\n      tag_47\n      jump\t// in\n    tag_72:\n        /* \"#utility.yul\":2799:2804   */\n      dup2\n        /* \"#utility.yul\":2796:2831   */\n      eq\n        /* \"#utility.yul\":2786:2849   */\n      tag_73\n      jumpi\n        /* \"#utility.yul\":2845:2846   */\n      0x00\n        /* \"#utility.yul\":2842:2843   */\n      dup1\n        /* \"#utility.yul\":2835:2847   */\n      revert\n        /* \"#utility.yul\":2786:2849   */\n    tag_73:\n        /* \"#utility.yul\":2733:2855   */\n      pop\n      jump\t// out\n\n    auxdata: 0xa26469706673582212205e992978f86dac65eecccb8e95487f45eeba07713ea8ae158823cf34cfc69df564736f6c63430008070033\n}\n",
				"bytecode": {
					"linkReferences": {},
					"object": "608060405234801561001057600080fd5b50610425806100206000396000f3fe608060405234801561001057600080fd5b50600436106100415760003560e01c806327e235e3146100465780633825d82814610076578063de8fa43114610092575b600080fd5b610060600480360381019061005b9190610264565b6100b0565b60405161006d91906102e0565b60405180910390f35b610090600480360381019061008b9190610291565b6100c8565b005b61009a61022d565b6040516100a791906102e0565b60405180910390f35b60006020528060005260406000206000915090505481565b600160008373ffffffffffffffffffffffffffffffffffffffff1673ffffffffffffffffffffffffffffffffffffffff16815260200190815260200160002060009054906101000a900460ff166101d45760018060008473ffffffffffffffffffffffffffffffffffffffff1673ffffffffffffffffffffffffffffffffffffffff16815260200190815260200160002060006101000a81548160ff0219169083151502179055506002829080600181540180825580915050600190039060005260206000200160009091909190916101000a81548173ffffffffffffffffffffffffffffffffffffffff021916908373ffffffffffffffffffffffffffffffffffffffff1602179055505b806000808473ffffffffffffffffffffffffffffffffffffffff1673ffffffffffffffffffffffffffffffffffffffff168152602001908152602001600020600082825461022291906102fb565b925050819055505050565b6000600280549050905090565b600081359050610249816103c1565b92915050565b60008135905061025e816103d8565b92915050565b60006020828403121561027a576102796103bc565b5b60006102888482850161023a565b91505092915050565b600080604083850312156102a8576102a76103bc565b5b60006102b68582860161023a565b92505060206102c78582860161024f565b9150509250929050565b6102da81610383565b82525050565b60006020820190506102f560008301846102d1565b92915050565b600061030682610383565b915061031183610383565b9250827fffffffffffffffffffffffffffffffffffffffffffffffffffffffffffffffff038211156103465761034561038d565b5b828201905092915050565b600061035c82610363565b9050919050565b600073ffffffffffffffffffffffffffffffffffffffff82169050919050565b6000819050919050565b7f4e487b7100000000000000000000000000000000000000000000000000000000600052601160045260246000fd5b600080fd5b6103ca81610351565b81146103d557600080fd5b50565b6103e181610383565b81146103ec57600080fd5b5056fea26469706673582212205e992978f86dac65eecccb8e95487f45eeba07713ea8ae158823cf34cfc69df564736f6c63430008070033",
					"opcodes": "PUSH1 0x80 PUSH1 0x40 MSTORE CALLVALUE DUP1 ISZERO PUSH2 0x10 JUMPI PUSH1 0x0 DUP1 REVERT JUMPDEST POP PUSH2 0x425 DUP1 PUSH2 0x20 PUSH1 0x0 CODECOPY PUSH1 0x0 RETURN INVALID PUSH1 0x80 PUSH1 0x40 MSTORE CALLVALUE DUP1 ISZERO PUSH2 0x10 JUMPI PUSH1 0x0 DUP1 REVERT JUMPDEST POP PUSH1 0x4 CALLDATASIZE LT PUSH2 0x41 JUMPI PUSH1 0x0 CALLDATALOAD PUSH1 0xE0 SHR DUP1 PUSH4 0x27E235E3 EQ PUSH2 0x46 JUMPI DUP1 PUSH4 0x3825D828 EQ PUSH2 0x76 JUMPI DUP1 PUSH4 0xDE8FA431 EQ PUSH2 0x92 JUMPI JUMPDEST PUSH1 0x0 DUP1 REVERT JUMPDEST PUSH2 0x60 PUSH1 0x4 DUP1 CALLDATASIZE SUB DUP2 ADD SWAP1 PUSH2 0x5B SWAP2 SWAP1 PUSH2 0x264 JUMP JUMPDEST PUSH2 0xB0 JUMP JUMPDEST PUSH1 0x40 MLOAD PUSH2 0x6D SWAP2 SWAP1 PUSH2 0x2E0 JUMP JUMPDEST PUSH1 0x40 MLOAD DUP1 SWAP2 SUB SWAP1 RETURN JUMPDEST PUSH2 0x90 PUSH1 0x4 DUP1 CALLDATASIZE SUB DUP2 ADD SWAP1 PUSH2 0x8B SWAP2 SWAP1 PUSH2 0x291 JUMP JUMPDEST PUSH2 0xC8 JUMP JUMPDEST STOP JUMPDEST PUSH2 0x9A PUSH2 0x22D JUMP JUMPDEST PUSH1 0x40 MLOAD PUSH2 0xA7 SWAP2 SWAP1 PUSH2 0x2E0 JUMP JUMPDEST PUSH1 0x40 MLOAD DUP1 SWAP2 SUB SWAP1 RETURN JUMPDEST PUSH1 0x0 PUSH1 0x20 MSTORE DUP1 PUSH1 0x0 MSTORE PUSH1 0x40 PUSH1 0x0 KECCAK256 PUSH1 0x0 SWAP2 POP SWAP1 POP SLOAD DUP2 JUMP JUMPDEST PUSH1 0x1 PUSH1 0x0 DUP4 PUSH20 0xFFFFFFFFFFFFFFFFFFFFFFFFFFFFFFFFFFFFFFFF AND PUSH20 0xFFFFFFFFFFFFFFFFFFFFFFFFFFFFFFFFFFFFFFFF AND DUP2 MSTORE PUSH1 0x20 ADD SWAP1 DUP2 MSTORE PUSH1 0x20 ADD PUSH1 0x0 KECCAK256 PUSH1 0x0 SWAP1 SLOAD SWAP1 PUSH2 0x100 EXP SWAP1 DIV PUSH1 0xFF AND PUSH2 0x1D4 JUMPI PUSH1 0x1 DUP1 PUSH1 0x0 DUP5 PUSH20 0xFFFFFFFFFFFFFFFFFFFFFFFFFFFFFFFFFFFFFFFF AND PUSH20 0xFFFFFFFFFFFFFFFFFFFFFFFFFFFFFFFFFFFFFFFF AND DUP2 MSTORE PUSH1 0x20 ADD SWAP1 DUP2 MSTORE PUSH1 0x20 ADD PUSH1 0x0 KECCAK256 PUSH1 0x0 PUSH2 0x100 EXP DUP2 SLOAD DUP2 PUSH1 0xFF MUL NOT AND SWAP1 DUP4 ISZERO ISZERO MUL OR SWAP1 SSTORE POP PUSH1 0x2 DUP3 SWAP1 DUP1 PUSH1 0x1 DUP2 SLOAD ADD DUP1 DUP3 SSTORE DUP1 SWAP2 POP POP PUSH1 0x1 SWAP1 SUB SWAP1 PUSH1 0x0 MSTORE PUSH1 0x20 PUSH1 0x0 KECCAK256 ADD PUSH1 0x0 SWAP1 SWAP2 SWAP1 SWAP2 SWAP1 SWAP2 PUSH2 0x100 EXP DUP2 SLOAD DUP2 PUSH20 0xFFFFFFFFFFFFFFFFFFFFFFFFFFFFFFFFFFFFFFFF MUL NOT AND SWAP1 DUP4 PUSH20 0xFFFFFFFFFFFFFFFFFFFFFFFFFFFFFFFFFFFFFFFF AND MUL OR SWAP1 SSTORE POP JUMPDEST DUP1 PUSH1 0x0 DUP1 DUP5 PUSH20 0xFFFFFFFFFFFFFFFFFFFFFFFFFFFFFFFFFFFFFFFF AND PUSH20 0xFFFFFFFFFFFFFFFFFFFFFFFFFFFFFFFFFFFFFFFF AND DUP2 MSTORE PUSH1 0x20 ADD SWAP1 DUP2 MSTORE PUSH1 0x20 ADD PUSH1 0x0 KECCAK256 PUSH1 0x0 DUP3 DUP3 SLOAD PUSH2 0x222 SWAP2 SWAP1 PUSH2 0x2FB JUMP JUMPDEST SWAP3 POP POP DUP2 SWAP1 SSTORE POP POP POP JUMP JUMPDEST PUSH1 0x0 PUSH1 0x2 DUP1 SLOAD SWAP1 POP SWAP1 POP SWAP1 JUMP JUMPDEST PUSH1 0x0 DUP2 CALLDATALOAD SWAP1 POP PUSH2 0x249 DUP2 PUSH2 0x3C1 JUMP JUMPDEST SWAP3 SWAP2 POP POP JUMP JUMPDEST PUSH1 0x0 DUP2 CALLDATALOAD SWAP1 POP PUSH2 0x25E DUP2 PUSH2 0x3D8 JUMP JUMPDEST SWAP3 SWAP2 POP POP JUMP JUMPDEST PUSH1 0x0 PUSH1 0x20 DUP3 DUP5 SUB SLT ISZERO PUSH2 0x27A JUMPI PUSH2 0x279 PUSH2 0x3BC JUMP JUMPDEST JUMPDEST PUSH1 0x0 PUSH2 0x288 DUP5 DUP3 DUP6 ADD PUSH2 0x23A JUMP JUMPDEST SWAP2 POP POP SWAP3 SWAP2 POP POP JUMP JUMPDEST PUSH1 0x0 DUP1 PUSH1 0x40 DUP4 DUP6 SUB SLT ISZERO PUSH2 0x2A8 JUMPI PUSH2 0x2A7 PUSH2 0x3BC JUMP JUMPDEST JUMPDEST PUSH1 0x0 PUSH2 0x2B6 DUP6 DUP3 DUP7 ADD PUSH2 0x23A JUMP JUMPDEST SWAP3 POP POP PUSH1 0x20 PUSH2 0x2C7 DUP6 DUP3 DUP7 ADD PUSH2 0x24F JUMP JUMPDEST SWAP2 POP POP SWAP3 POP SWAP3 SWAP1 POP JUMP JUMPDEST PUSH2 0x2DA DUP2 PUSH2 0x383 JUMP JUMPDEST DUP3 MSTORE POP POP JUMP JUMPDEST PUSH1 0x0 PUSH1 0x20 DUP3 ADD SWAP1 POP PUSH2 0x2F5 PUSH1 0x0 DUP4 ADD DUP5 PUSH2 0x2D1 JUMP JUMPDEST SWAP3 SWAP2 POP POP JUMP JUMPDEST PUSH1 0x0 PUSH2 0x306 DUP3 PUSH2 0x383 JUMP JUMPDEST SWAP2 POP PUSH2 0x311 DUP4 PUSH2 0x383 JUMP JUMPDEST SWAP3 POP DUP3 PUSH32 0xFFFFFFFFFFFFFFFFFFFFFFFFFFFFFFFFFFFFFFFFFFFFFFFFFFFFFFFFFFFFFFFF SUB DUP3 GT ISZERO PUSH2 0x346 JUMPI PUSH2 0x345 PUSH2 0x38D JUMP JUMPDEST JUMPDEST DUP3 DUP3 ADD SWAP1 POP SWAP3 SWAP2 POP POP JUMP JUMPDEST PUSH1 0x0 PUSH2 0x35C DUP3 PUSH2 0x363 JUMP JUMPDEST SWAP1 POP SWAP2 SWAP1 POP JUMP JUMPDEST PUSH1 0x0 PUSH20 0xFFFFFFFFFFFFFFFFFFFFFFFFFFFFFFFFFFFFFFFF DUP3 AND SWAP1 POP SWAP2 SWAP1 POP JUMP JUMPDEST PUSH1 0x0 DUP2 SWAP1 POP SWAP2 SWAP1 POP JUMP JUMPDEST PUSH32 0x4E487B7100000000000000000000000000000000000000000000000000000000 PUSH1 0x0 MSTORE PUSH1 0x11 PUSH1 0x4 MSTORE PUSH1 0x24 PUSH1 0x0 REVERT JUMPDEST PUSH1 0x0 DUP1 REVERT JUMPDEST PUSH2 0x3CA DUP2 PUSH2 0x351 JUMP JUMPDEST DUP2 EQ PUSH2 0x3D5 JUMPI PUSH1 0x0 DUP1 REVERT JUMPDEST POP JUMP JUMPDEST PUSH2 0x3E1 DUP2 PUSH2 0x383 JUMP JUMPDEST DUP2 EQ PUSH2 0x3EC JUMPI PUSH1 0x0 DUP1 REVERT JUMPDEST POP JUMP INVALID LOG2 PUSH5 0x6970667358 0x22 SLT KECCAK256 0x5E SWAP10 0x29 PUSH25 0xF86DAC65EECCCB8E95487F45EEBA07713EA8AE158823CF34CF 0xC6 SWAP14 CREATE2 PUSH5 0x736F6C6343 STOP ADDMOD SMOD STOP CALLER "
				},
				"gasEstimates": {
					"creation": {
						"codeDepositCost": "212200",
						"executionCost": "257",
						"totalCost": "212457"
					},
					"external": {
						"balances(address)": "2792",
						"getSize()": "2467",
						"set(address,uint256)": "infinite"
					}
				},
				"methodIdentifiers": {
					"balances(address)": "27e235e3",
					"getSize()": "de8fa431",
					"set(address,uint256)": "3825d828"
				}
			},
			"storageLayout": {
				"storage": [
					{
						"astId": 5,
						"contract": "contracts/IterableMapping.sol:IterableMapping",
						"label": "balances",
						"offset": 0,
						"slot": "0",
						"type": "t_mapping(t_address,t_uint256)"
					},
					{
						"astId": 9,
						"contract": "contracts/IterableMapping.sol:IterableMapping",
						"label": "exist",
						"offset": 0,
						"slot": "1",
						"type": "t_mapping(t_address,t_bool)"
					},
					{
						"astId": 12,
						"contract": "contracts/IterableMapping.sol:IterableMapping",
						"label": "keys",
						"offset": 0,
						"slot": "2",
						"type": "t_array(t_address)dyn_storage"
					}
				],
				"types": {
					"t_address": {
						"encoding": "inplace",
						"label": "address",
						"numberOfBytes": "20"
					},
					"t_array(t_address)dyn_storage": {
						"base": "t_address",
						"encoding": "dynamic_array",
						"label": "address[]",
						"numberOfBytes": "32"
					},
					"t_bool": {
						"encoding": "inplace",
						"label": "bool",
						"numberOfBytes": "1"
					},
					"t_mapping(t_address,t_bool)": {
						"encoding": "mapping",
						"key": "t_address",
						"label": "mapping(address => bool)",
						"numberOfBytes": "32",
						"value": "t_bool"
					},
					"t_mapping(t_address,t_uint256)": {
						"encoding": "mapping",
						"key": "t_address",
						"label": "mapping(address => uint256)",
						"numberOfBytes": "32",
						"value": "t_uint256"
					},
					"t_uint256": {
						"encoding": "inplace",
						"label": "uint256",
						"numberOfBytes": "32"
					}
				}
			},
			"userdoc": {
				"kind": "user",
				"methods": {},
				"version": 1
			}
		}
	}
}