{
	"contracts/EthersWallet.sol": {
		"EthersWallet": {
			"abi": [
				{
					"inputs": [],
					"stateMutability": "nonpayable",
					"type": "constructor"
				},
				{
					"inputs": [
						{
							"internalType": "address",
							"name": "_address",
							"type": "address"
						},
						{
							"internalType": "uint256",
							"name": "_value",
							"type": "uint256"
						}
					],
					"name": "withdraw",
					"outputs": [],
					"stateMutability": "nonpayable",
					"type": "function"
				},
				{
					"stateMutability": "payable",
					"type": "receive"
				}
			],
			"devdoc": {
				"kind": "dev",
				"methods": {},
				"version": 1
			},
			"evm": {
				"assembly": "    /* \"contracts/EthersWallet.sol\":66:553  contract EthersWallet {\r... */\n  mstore(0x40, 0x80)\n    /* \"contracts/EthersWallet.sol\":282:333  constructor() {\r... */\n  callvalue\n  dup1\n  iszero\n  tag_1\n  jumpi\n  0x00\n  dup1\n  revert\ntag_1:\n  pop\n    /* \"contracts/EthersWallet.sol\":315:325  msg.sender */\n  caller\n    /* \"contracts/EthersWallet.sol\":307:312  owner */\n  0x00\n  dup1\n    /* \"contracts/EthersWallet.sol\":307:325  owner = msg.sender */\n  0x0100\n  exp\n  dup2\n  sload\n  dup2\n  0xffffffffffffffffffffffffffffffffffffffff\n  mul\n  not\n  and\n  swap1\n  dup4\n  0xffffffffffffffffffffffffffffffffffffffff\n  and\n  mul\n  or\n  swap1\n  sstore\n  pop\n    /* \"contracts/EthersWallet.sol\":66:553  contract EthersWallet {\r... */\n  dataSize(sub_0)\n  dup1\n  dataOffset(sub_0)\n  0x00\n  codecopy\n  0x00\n  return\nstop\n\nsub_0: assembly {\n        /* \"contracts/EthersWallet.sol\":66:553  contract EthersWallet {\r... */\n      mstore(0x40, 0x80)\n      jumpi(tag_1, lt(calldatasize, 0x04))\n      shr(0xe0, calldataload(0x00))\n      dup1\n      0xf3fef3a3\n      eq\n      tag_3\n      jumpi\n      jump(tag_2)\n    tag_1:\n      jumpi(tag_2, calldatasize)\n        /* \"contracts/EthersWallet.sol\":403:412  msg.value */\n      callvalue\n        /* \"contracts/EthersWallet.sol\":379:387  balances */\n      0x01\n        /* \"contracts/EthersWallet.sol\":379:399  balances[msg.sender] */\n      0x00\n        /* \"contracts/EthersWallet.sol\":388:398  msg.sender */\n      caller\n        /* \"contracts/EthersWallet.sol\":379:399  balances[msg.sender] */\n      0xffffffffffffffffffffffffffffffffffffffff\n      and\n      0xffffffffffffffffffffffffffffffffffffffff\n      and\n      dup2\n      mstore\n      0x20\n      add\n      swap1\n      dup2\n      mstore\n      0x20\n      add\n      0x00\n      keccak256\n      0x00\n        /* \"contracts/EthersWallet.sol\":379:412  balances[msg.sender] += msg.value */\n      dup3\n      dup3\n      sload\n      tag_6\n      swap2\n      swap1\n      tag_7\n      jump\t// in\n    tag_6:\n      swap3\n      pop\n      pop\n      dup2\n      swap1\n      sstore\n      pop\n        /* \"contracts/EthersWallet.sol\":66:553  contract EthersWallet {\r... */\n      stop\n    tag_2:\n      0x00\n      dup1\n      revert\n        /* \"contracts/EthersWallet.sol\":429:550  function withdraw(address _address, uint _value) external isOwner {\r... */\n    tag_3:\n      callvalue\n      dup1\n      iszero\n      tag_8\n      jumpi\n      0x00\n      dup1\n      revert\n    tag_8:\n      pop\n      tag_9\n      0x04\n      dup1\n      calldatasize\n      sub\n      dup2\n      add\n      swap1\n      tag_10\n      swap2\n      swap1\n      tag_11\n      jump\t// in\n    tag_10:\n      tag_12\n      jump\t// in\n    tag_9:\n      stop\n    tag_12:\n        /* \"contracts/EthersWallet.sol\":227:232  owner */\n      0x00\n      dup1\n      sload\n      swap1\n      0x0100\n      exp\n      swap1\n      div\n      0xffffffffffffffffffffffffffffffffffffffff\n      and\n        /* \"contracts/EthersWallet.sol\":213:232  msg.sender == owner */\n      0xffffffffffffffffffffffffffffffffffffffff\n      and\n        /* \"contracts/EthersWallet.sol\":213:223  msg.sender */\n      caller\n        /* \"contracts/EthersWallet.sol\":213:232  msg.sender == owner */\n      0xffffffffffffffffffffffffffffffffffffffff\n      and\n      eq\n        /* \"contracts/EthersWallet.sol\":205:250  require(msg.sender == owner, \"Not the Owner\") */\n      tag_14\n      jumpi\n      mload(0x40)\n      0x08c379a000000000000000000000000000000000000000000000000000000000\n      dup2\n      mstore\n      0x04\n      add\n      tag_15\n      swap1\n      tag_16\n      jump\t// in\n    tag_15:\n      mload(0x40)\n      dup1\n      swap2\n      sub\n      swap1\n      revert\n    tag_14:\n        /* \"contracts/EthersWallet.sol\":508:516  _address */\n      dup2\n        /* \"contracts/EthersWallet.sol\":508:521  _address.call */\n      0xffffffffffffffffffffffffffffffffffffffff\n      and\n        /* \"contracts/EthersWallet.sol\":529:535  _value */\n      dup2\n        /* \"contracts/EthersWallet.sol\":508:540  _address.call{value: _value}(\"\") */\n      mload(0x40)\n      tag_18\n      swap1\n      tag_19\n      jump\t// in\n    tag_18:\n      0x00\n      mload(0x40)\n      dup1\n      dup4\n      sub\n      dup2\n      dup6\n      dup8\n      gas\n      call\n      swap3\n      pop\n      pop\n      pop\n      returndatasize\n      dup1\n      0x00\n      dup2\n      eq\n      tag_22\n      jumpi\n      mload(0x40)\n      swap2\n      pop\n      and(add(returndatasize, 0x3f), not(0x1f))\n      dup3\n      add\n      0x40\n      mstore\n      returndatasize\n      dup3\n      mstore\n      returndatasize\n      0x00\n      0x20\n      dup5\n      add\n      returndatacopy\n      jump(tag_21)\n    tag_22:\n      0x60\n      swap2\n      pop\n    tag_21:\n      pop\n      pop\n      pop\n        /* \"contracts/EthersWallet.sol\":429:550  function withdraw(address _address, uint _value) external isOwner {\r... */\n      pop\n      pop\n      jump\t// out\n        /* \"#utility.yul\":7:146   */\n    tag_24:\n        /* \"#utility.yul\":53:58   */\n      0x00\n        /* \"#utility.yul\":91:97   */\n      dup2\n        /* \"#utility.yul\":78:98   */\n      calldataload\n        /* \"#utility.yul\":69:98   */\n      swap1\n      pop\n        /* \"#utility.yul\":107:140   */\n      tag_26\n        /* \"#utility.yul\":134:139   */\n      dup2\n        /* \"#utility.yul\":107:140   */\n      tag_27\n      jump\t// in\n    tag_26:\n        /* \"#utility.yul\":7:146   */\n      swap3\n      swap2\n      pop\n      pop\n      jump\t// out\n        /* \"#utility.yul\":152:291   */\n    tag_28:\n        /* \"#utility.yul\":198:203   */\n      0x00\n        /* \"#utility.yul\":236:242   */\n      dup2\n        /* \"#utility.yul\":223:243   */\n      calldataload\n        /* \"#utility.yul\":214:243   */\n      swap1\n      pop\n        /* \"#utility.yul\":252:285   */\n      tag_30\n        /* \"#utility.yul\":279:284   */\n      dup2\n        /* \"#utility.yul\":252:285   */\n      tag_31\n      jump\t// in\n    tag_30:\n        /* \"#utility.yul\":152:291   */\n      swap3\n      swap2\n      pop\n      pop\n      jump\t// out\n        /* \"#utility.yul\":297:771   */\n    tag_11:\n        /* \"#utility.yul\":365:371   */\n      0x00\n        /* \"#utility.yul\":373:379   */\n      dup1\n        /* \"#utility.yul\":422:424   */\n      0x40\n        /* \"#utility.yul\":410:419   */\n      dup4\n        /* \"#utility.yul\":401:408   */\n      dup6\n        /* \"#utility.yul\":397:420   */\n      sub\n        /* \"#utility.yul\":393:425   */\n      slt\n        /* \"#utility.yul\":390:509   */\n      iszero\n      tag_33\n      jumpi\n        /* \"#utility.yul\":428:507   */\n      tag_34\n      tag_35\n      jump\t// in\n    tag_34:\n        /* \"#utility.yul\":390:509   */\n    tag_33:\n        /* \"#utility.yul\":548:549   */\n      0x00\n        /* \"#utility.yul\":573:626   */\n      tag_36\n        /* \"#utility.yul\":618:625   */\n      dup6\n        /* \"#utility.yul\":609:615   */\n      dup3\n        /* \"#utility.yul\":598:607   */\n      dup7\n        /* \"#utility.yul\":594:616   */\n      add\n        /* \"#utility.yul\":573:626   */\n      tag_24\n      jump\t// in\n    tag_36:\n        /* \"#utility.yul\":563:626   */\n      swap3\n      pop\n        /* \"#utility.yul\":519:636   */\n      pop\n        /* \"#utility.yul\":675:677   */\n      0x20\n        /* \"#utility.yul\":701:754   */\n      tag_37\n        /* \"#utility.yul\":746:753   */\n      dup6\n        /* \"#utility.yul\":737:743   */\n      dup3\n        /* \"#utility.yul\":726:735   */\n      dup7\n        /* \"#utility.yul\":722:744   */\n      add\n        /* \"#utility.yul\":701:754   */\n      tag_28\n      jump\t// in\n    tag_37:\n        /* \"#utility.yul\":691:754   */\n      swap2\n      pop\n        /* \"#utility.yul\":646:764   */\n      pop\n        /* \"#utility.yul\":297:771   */\n      swap3\n      pop\n      swap3\n      swap1\n      pop\n      jump\t// out\n        /* \"#utility.yul\":777:1143   */\n    tag_38:\n        /* \"#utility.yul\":919:922   */\n      0x00\n        /* \"#utility.yul\":940:1007   */\n      tag_40\n        /* \"#utility.yul\":1004:1006   */\n      0x0d\n        /* \"#utility.yul\":999:1002   */\n      dup4\n        /* \"#utility.yul\":940:1007   */\n      tag_41\n      jump\t// in\n    tag_40:\n        /* \"#utility.yul\":933:1007   */\n      swap2\n      pop\n        /* \"#utility.yul\":1016:1109   */\n      tag_42\n        /* \"#utility.yul\":1105:1108   */\n      dup3\n        /* \"#utility.yul\":1016:1109   */\n      tag_43\n      jump\t// in\n    tag_42:\n        /* \"#utility.yul\":1134:1136   */\n      0x20\n        /* \"#utility.yul\":1129:1132   */\n      dup3\n        /* \"#utility.yul\":1125:1137   */\n      add\n        /* \"#utility.yul\":1118:1137   */\n      swap1\n      pop\n        /* \"#utility.yul\":777:1143   */\n      swap2\n      swap1\n      pop\n      jump\t// out\n        /* \"#utility.yul\":1149:1547   */\n    tag_44:\n        /* \"#utility.yul\":1308:1311   */\n      0x00\n        /* \"#utility.yul\":1329:1412   */\n      tag_46\n        /* \"#utility.yul\":1410:1411   */\n      0x00\n        /* \"#utility.yul\":1405:1408   */\n      dup4\n        /* \"#utility.yul\":1329:1412   */\n      tag_47\n      jump\t// in\n    tag_46:\n        /* \"#utility.yul\":1322:1412   */\n      swap2\n      pop\n        /* \"#utility.yul\":1421:1514   */\n      tag_48\n        /* \"#utility.yul\":1510:1513   */\n      dup3\n        /* \"#utility.yul\":1421:1514   */\n      tag_49\n      jump\t// in\n    tag_48:\n        /* \"#utility.yul\":1539:1540   */\n      0x00\n        /* \"#utility.yul\":1534:1537   */\n      dup3\n        /* \"#utility.yul\":1530:1541   */\n      add\n        /* \"#utility.yul\":1523:1541   */\n      swap1\n      pop\n        /* \"#utility.yul\":1149:1547   */\n      swap2\n      swap1\n      pop\n      jump\t// out\n        /* \"#utility.yul\":1553:1932   */\n    tag_19:\n        /* \"#utility.yul\":1737:1740   */\n      0x00\n        /* \"#utility.yul\":1759:1906   */\n      tag_51\n        /* \"#utility.yul\":1902:1905   */\n      dup3\n        /* \"#utility.yul\":1759:1906   */\n      tag_44\n      jump\t// in\n    tag_51:\n        /* \"#utility.yul\":1752:1906   */\n      swap2\n      pop\n        /* \"#utility.yul\":1923:1926   */\n      dup2\n        /* \"#utility.yul\":1916:1926   */\n      swap1\n      pop\n        /* \"#utility.yul\":1553:1932   */\n      swap2\n      swap1\n      pop\n      jump\t// out\n        /* \"#utility.yul\":1938:2357   */\n    tag_16:\n        /* \"#utility.yul\":2104:2108   */\n      0x00\n        /* \"#utility.yul\":2142:2144   */\n      0x20\n        /* \"#utility.yul\":2131:2140   */\n      dup3\n        /* \"#utility.yul\":2127:2145   */\n      add\n        /* \"#utility.yul\":2119:2145   */\n      swap1\n      pop\n        /* \"#utility.yul\":2191:2200   */\n      dup2\n        /* \"#utility.yul\":2185:2189   */\n      dup2\n        /* \"#utility.yul\":2181:2201   */\n      sub\n        /* \"#utility.yul\":2177:2178   */\n      0x00\n        /* \"#utility.yul\":2166:2175   */\n      dup4\n        /* \"#utility.yul\":2162:2179   */\n      add\n        /* \"#utility.yul\":2155:2202   */\n      mstore\n        /* \"#utility.yul\":2219:2350   */\n      tag_53\n        /* \"#utility.yul\":2345:2349   */\n      dup2\n        /* \"#utility.yul\":2219:2350   */\n      tag_38\n      jump\t// in\n    tag_53:\n        /* \"#utility.yul\":2211:2350   */\n      swap1\n      pop\n        /* \"#utility.yul\":1938:2357   */\n      swap2\n      swap1\n      pop\n      jump\t// out\n        /* \"#utility.yul\":2444:2591   */\n    tag_47:\n        /* \"#utility.yul\":2545:2556   */\n      0x00\n        /* \"#utility.yul\":2582:2585   */\n      dup2\n        /* \"#utility.yul\":2567:2585   */\n      swap1\n      pop\n        /* \"#utility.yul\":2444:2591   */\n      swap3\n      swap2\n      pop\n      pop\n      jump\t// out\n        /* \"#utility.yul\":2597:2766   */\n    tag_41:\n        /* \"#utility.yul\":2681:2692   */\n      0x00\n        /* \"#utility.yul\":2715:2721   */\n      dup3\n        /* \"#utility.yul\":2710:2713   */\n      dup3\n        /* \"#utility.yul\":2703:2722   */\n      mstore\n        /* \"#utility.yul\":2755:2759   */\n      0x20\n        /* \"#utility.yul\":2750:2753   */\n      dup3\n        /* \"#utility.yul\":2746:2760   */\n      add\n        /* \"#utility.yul\":2731:2760   */\n      swap1\n      pop\n        /* \"#utility.yul\":2597:2766   */\n      swap3\n      swap2\n      pop\n      pop\n      jump\t// out\n        /* \"#utility.yul\":2772:3077   */\n    tag_7:\n        /* \"#utility.yul\":2812:2815   */\n      0x00\n        /* \"#utility.yul\":2831:2851   */\n      tag_59\n        /* \"#utility.yul\":2849:2850   */\n      dup3\n        /* \"#utility.yul\":2831:2851   */\n      tag_60\n      jump\t// in\n    tag_59:\n        /* \"#utility.yul\":2826:2851   */\n      swap2\n      pop\n        /* \"#utility.yul\":2865:2885   */\n      tag_61\n        /* \"#utility.yul\":2883:2884   */\n      dup4\n        /* \"#utility.yul\":2865:2885   */\n      tag_60\n      jump\t// in\n    tag_61:\n        /* \"#utility.yul\":2860:2885   */\n      swap3\n      pop\n        /* \"#utility.yul\":3019:3020   */\n      dup3\n        /* \"#utility.yul\":2951:3017   */\n      0xffffffffffffffffffffffffffffffffffffffffffffffffffffffffffffffff\n        /* \"#utility.yul\":2947:3021   */\n      sub\n        /* \"#utility.yul\":2944:2945   */\n      dup3\n        /* \"#utility.yul\":2941:3022   */\n      gt\n        /* \"#utility.yul\":2938:3045   */\n      iszero\n      tag_62\n      jumpi\n        /* \"#utility.yul\":3025:3043   */\n      tag_63\n      tag_64\n      jump\t// in\n    tag_63:\n        /* \"#utility.yul\":2938:3045   */\n    tag_62:\n        /* \"#utility.yul\":3069:3070   */\n      dup3\n        /* \"#utility.yul\":3066:3067   */\n      dup3\n        /* \"#utility.yul\":3062:3071   */\n      add\n        /* \"#utility.yul\":3055:3071   */\n      swap1\n      pop\n        /* \"#utility.yul\":2772:3077   */\n      swap3\n      swap2\n      pop\n      pop\n      jump\t// out\n        /* \"#utility.yul\":3083:3179   */\n    tag_65:\n        /* \"#utility.yul\":3120:3127   */\n      0x00\n        /* \"#utility.yul\":3149:3173   */\n      tag_67\n        /* \"#utility.yul\":3167:3172   */\n      dup3\n        /* \"#utility.yul\":3149:3173   */\n      tag_68\n      jump\t// in\n    tag_67:\n        /* \"#utility.yul\":3138:3173   */\n      swap1\n      pop\n        /* \"#utility.yul\":3083:3179   */\n      swap2\n      swap1\n      pop\n      jump\t// out\n        /* \"#utility.yul\":3185:3311   */\n    tag_68:\n        /* \"#utility.yul\":3222:3229   */\n      0x00\n        /* \"#utility.yul\":3262:3304   */\n      0xffffffffffffffffffffffffffffffffffffffff\n        /* \"#utility.yul\":3255:3260   */\n      dup3\n        /* \"#utility.yul\":3251:3305   */\n      and\n        /* \"#utility.yul\":3240:3305   */\n      swap1\n      pop\n        /* \"#utility.yul\":3185:3311   */\n      swap2\n      swap1\n      pop\n      jump\t// out\n        /* \"#utility.yul\":3317:3394   */\n    tag_60:\n        /* \"#utility.yul\":3354:3361   */\n      0x00\n        /* \"#utility.yul\":3383:3388   */\n      dup2\n        /* \"#utility.yul\":3372:3388   */\n      swap1\n      pop\n        /* \"#utility.yul\":3317:3394   */\n      swap2\n      swap1\n      pop\n      jump\t// out\n        /* \"#utility.yul\":3400:3580   */\n    tag_64:\n        /* \"#utility.yul\":3448:3525   */\n      0x4e487b7100000000000000000000000000000000000000000000000000000000\n        /* \"#utility.yul\":3445:3446   */\n      0x00\n        /* \"#utility.yul\":3438:3526   */\n      mstore\n        /* \"#utility.yul\":3545:3549   */\n      0x11\n        /* \"#utility.yul\":3542:3543   */\n      0x04\n        /* \"#utility.yul\":3535:3550   */\n      mstore\n        /* \"#utility.yul\":3569:3573   */\n      0x24\n        /* \"#utility.yul\":3566:3567   */\n      0x00\n        /* \"#utility.yul\":3559:3574   */\n      revert\n        /* \"#utility.yul\":3709:3826   */\n    tag_35:\n        /* \"#utility.yul\":3818:3819   */\n      0x00\n        /* \"#utility.yul\":3815:3816   */\n      dup1\n        /* \"#utility.yul\":3808:3820   */\n      revert\n        /* \"#utility.yul\":3832:3995   */\n    tag_43:\n        /* \"#utility.yul\":3972:3987   */\n      0x4e6f7420746865204f776e657200000000000000000000000000000000000000\n        /* \"#utility.yul\":3968:3969   */\n      0x00\n        /* \"#utility.yul\":3960:3966   */\n      dup3\n        /* \"#utility.yul\":3956:3970   */\n      add\n        /* \"#utility.yul\":3949:3988   */\n      mstore\n        /* \"#utility.yul\":3832:3995   */\n      pop\n      jump\t// out\n        /* \"#utility.yul\":4001:4115   */\n    tag_49:\n      pop\n      jump\t// out\n        /* \"#utility.yul\":4121:4243   */\n    tag_27:\n        /* \"#utility.yul\":4194:4218   */\n      tag_78\n        /* \"#utility.yul\":4212:4217   */\n      dup2\n        /* \"#utility.yul\":4194:4218   */\n      tag_65\n      jump\t// in\n    tag_78:\n        /* \"#utility.yul\":4187:4192   */\n      dup2\n        /* \"#utility.yul\":4184:4219   */\n      eq\n        /* \"#utility.yul\":4174:4237   */\n      tag_79\n      jumpi\n        /* \"#utility.yul\":4233:4234   */\n      0x00\n        /* \"#utility.yul\":4230:4231   */\n      dup1\n        /* \"#utility.yul\":4223:4235   */\n      revert\n        /* \"#utility.yul\":4174:4237   */\n    tag_79:\n        /* \"#utility.yul\":4121:4243   */\n      pop\n      jump\t// out\n        /* \"#utility.yul\":4249:4371   */\n    tag_31:\n        /* \"#utility.yul\":4322:4346   */\n      tag_81\n        /* \"#utility.yul\":4340:4345   */\n      dup2\n        /* \"#utility.yul\":4322:4346   */\n      tag_60\n      jump\t// in\n    tag_81:\n        /* \"#utility.yul\":4315:4320   */\n      dup2\n        /* \"#utility.yul\":4312:4347   */\n      eq\n        /* \"#utility.yul\":4302:4365   */\n      tag_82\n      jumpi\n        /* \"#utility.yul\":4361:4362   */\n      0x00\n        /* \"#utility.yul\":4358:4359   */\n      dup1\n        /* \"#utility.yul\":4351:4363   */\n      revert\n        /* \"#utility.yul\":4302:4365   */\n    tag_82:\n        /* \"#utility.yul\":4249:4371   */\n      pop\n      jump\t// out\n\n    auxdata: 0xa264697066735822122098350fe8b73f5971fe6aa2e439836bd0b37a84259afa374738f41f7846f4f14a64736f6c63430008070033\n}\n",
				"bytecode": {
					"linkReferences": {},
					"object": "608060405234801561001057600080fd5b50336000806101000a81548173ffffffffffffffffffffffffffffffffffffffff021916908373ffffffffffffffffffffffffffffffffffffffff1602179055506103ff806100606000396000f3fe6080604052600436106100225760003560e01c8063f3fef3a3146100845761007f565b3661007f5734600160003373ffffffffffffffffffffffffffffffffffffffff1673ffffffffffffffffffffffffffffffffffffffff168152602001908152602001600020600082825461007691906102a9565b92505081905550005b600080fd5b34801561009057600080fd5b506100ab60048036038101906100a691906101d2565b6100ad565b005b60008054906101000a900473ffffffffffffffffffffffffffffffffffffffff1673ffffffffffffffffffffffffffffffffffffffff163373ffffffffffffffffffffffffffffffffffffffff161461013b576040517f08c379a00000000000000000000000000000000000000000000000000000000081526004016101329061026d565b60405180910390fd5b8173ffffffffffffffffffffffffffffffffffffffff168160405161015f90610258565b60006040518083038185875af1925050503d806000811461019c576040519150601f19603f3d011682016040523d82523d6000602084013e6101a1565b606091505b5050505050565b6000813590506101b78161039b565b92915050565b6000813590506101cc816103b2565b92915050565b600080604083850312156101e9576101e861036a565b5b60006101f7858286016101a8565b9250506020610208858286016101bd565b9150509250929050565b600061021f600d83610298565b915061022a8261036f565b602082019050919050565b600061024260008361028d565b915061024d82610398565b600082019050919050565b600061026382610235565b9150819050919050565b6000602082019050818103600083015261028681610212565b9050919050565b600081905092915050565b600082825260208201905092915050565b60006102b482610331565b91506102bf83610331565b9250827fffffffffffffffffffffffffffffffffffffffffffffffffffffffffffffffff038211156102f4576102f361033b565b5b828201905092915050565b600061030a82610311565b9050919050565b600073ffffffffffffffffffffffffffffffffffffffff82169050919050565b6000819050919050565b7f4e487b7100000000000000000000000000000000000000000000000000000000600052601160045260246000fd5b600080fd5b7f4e6f7420746865204f776e657200000000000000000000000000000000000000600082015250565b50565b6103a4816102ff565b81146103af57600080fd5b50565b6103bb81610331565b81146103c657600080fd5b5056fea264697066735822122098350fe8b73f5971fe6aa2e439836bd0b37a84259afa374738f41f7846f4f14a64736f6c63430008070033",
					"opcodes": "PUSH1 0x80 PUSH1 0x40 MSTORE CALLVALUE DUP1 ISZERO PUSH2 0x10 JUMPI PUSH1 0x0 DUP1 REVERT JUMPDEST POP CALLER PUSH1 0x0 DUP1 PUSH2 0x100 EXP DUP2 SLOAD DUP2 PUSH20 0xFFFFFFFFFFFFFFFFFFFFFFFFFFFFFFFFFFFFFFFF MUL NOT AND SWAP1 DUP4 PUSH20 0xFFFFFFFFFFFFFFFFFFFFFFFFFFFFFFFFFFFFFFFF AND MUL OR SWAP1 SSTORE POP PUSH2 0x3FF DUP1 PUSH2 0x60 PUSH1 0x0 CODECOPY PUSH1 0x0 RETURN INVALID PUSH1 0x80 PUSH1 0x40 MSTORE PUSH1 0x4 CALLDATASIZE LT PUSH2 0x22 JUMPI PUSH1 0x0 CALLDATALOAD PUSH1 0xE0 SHR DUP1 PUSH4 0xF3FEF3A3 EQ PUSH2 0x84 JUMPI PUSH2 0x7F JUMP JUMPDEST CALLDATASIZE PUSH2 0x7F JUMPI CALLVALUE PUSH1 0x1 PUSH1 0x0 CALLER PUSH20 0xFFFFFFFFFFFFFFFFFFFFFFFFFFFFFFFFFFFFFFFF AND PUSH20 0xFFFFFFFFFFFFFFFFFFFFFFFFFFFFFFFFFFFFFFFF AND DUP2 MSTORE PUSH1 0x20 ADD SWAP1 DUP2 MSTORE PUSH1 0x20 ADD PUSH1 0x0 KECCAK256 PUSH1 0x0 DUP3 DUP3 SLOAD PUSH2 0x76 SWAP2 SWAP1 PUSH2 0x2A9 JUMP JUMPDEST SWAP3 POP POP DUP2 SWAP1 SSTORE POP STOP JUMPDEST PUSH1 0x0 DUP1 REVERT JUMPDEST CALLVALUE DUP1 ISZERO PUSH2 0x90 JUMPI PUSH1 0x0 DUP1 REVERT JUMPDEST POP PUSH2 0xAB PUSH1 0x4 DUP1 CALLDATASIZE SUB DUP2 ADD SWAP1 PUSH2 0xA6 SWAP2 SWAP1 PUSH2 0x1D2 JUMP JUMPDEST PUSH2 0xAD JUMP JUMPDEST STOP JUMPDEST PUSH1 0x0 DUP1 SLOAD SWAP1 PUSH2 0x100 EXP SWAP1 DIV PUSH20 0xFFFFFFFFFFFFFFFFFFFFFFFFFFFFFFFFFFFFFFFF AND PUSH20 0xFFFFFFFFFFFFFFFFFFFFFFFFFFFFFFFFFFFFFFFF AND CALLER PUSH20 0xFFFFFFFFFFFFFFFFFFFFFFFFFFFFFFFFFFFFFFFF AND EQ PUSH2 0x13B JUMPI PUSH1 0x40 MLOAD PUSH32 0x8C379A000000000000000000000000000000000000000000000000000000000 DUP2 MSTORE PUSH1 0x4 ADD PUSH2 0x132 SWAP1 PUSH2 0x26D JUMP JUMPDEST PUSH1 0x40 MLOAD DUP1 SWAP2 SUB SWAP1 REVERT JUMPDEST DUP2 PUSH20 0xFFFFFFFFFFFFFFFFFFFFFFFFFFFFFFFFFFFFFFFF AND DUP2 PUSH1 0x40 MLOAD PUSH2 0x15F SWAP1 PUSH2 0x258 JUMP JUMPDEST PUSH1 0x0 PUSH1 0x40 MLOAD DUP1 DUP4 SUB DUP2 DUP6 DUP8 GAS CALL SWAP3 POP POP POP RETURNDATASIZE DUP1 PUSH1 0x0 DUP2 EQ PUSH2 0x19C JUMPI PUSH1 0x40 MLOAD SWAP2 POP PUSH1 0x1F NOT PUSH1 0x3F RETURNDATASIZE ADD AND DUP3 ADD PUSH1 0x40 MSTORE RETURNDATASIZE DUP3 MSTORE RETURNDATASIZE PUSH1 0x0 PUSH1 0x20 DUP5 ADD RETURNDATACOPY PUSH2 0x1A1 JUMP JUMPDEST PUSH1 0x60 SWAP2 POP JUMPDEST POP POP POP POP POP JUMP JUMPDEST PUSH1 0x0 DUP2 CALLDATALOAD SWAP1 POP PUSH2 0x1B7 DUP2 PUSH2 0x39B JUMP JUMPDEST SWAP3 SWAP2 POP POP JUMP JUMPDEST PUSH1 0x0 DUP2 CALLDATALOAD SWAP1 POP PUSH2 0x1CC DUP2 PUSH2 0x3B2 JUMP JUMPDEST SWAP3 SWAP2 POP POP JUMP JUMPDEST PUSH1 0x0 DUP1 PUSH1 0x40 DUP4 DUP6 SUB SLT ISZERO PUSH2 0x1E9 JUMPI PUSH2 0x1E8 PUSH2 0x36A JUMP JUMPDEST JUMPDEST PUSH1 0x0 PUSH2 0x1F7 DUP6 DUP3 DUP7 ADD PUSH2 0x1A8 JUMP JUMPDEST SWAP3 POP POP PUSH1 0x20 PUSH2 0x208 DUP6 DUP3 DUP7 ADD PUSH2 0x1BD JUMP JUMPDEST SWAP2 POP POP SWAP3 POP SWAP3 SWAP1 POP JUMP JUMPDEST PUSH1 0x0 PUSH2 0x21F PUSH1 0xD DUP4 PUSH2 0x298 JUMP JUMPDEST SWAP2 POP PUSH2 0x22A DUP3 PUSH2 0x36F JUMP JUMPDEST PUSH1 0x20 DUP3 ADD SWAP1 POP SWAP2 SWAP1 POP JUMP JUMPDEST PUSH1 0x0 PUSH2 0x242 PUSH1 0x0 DUP4 PUSH2 0x28D JUMP JUMPDEST SWAP2 POP PUSH2 0x24D DUP3 PUSH2 0x398 JUMP JUMPDEST PUSH1 0x0 DUP3 ADD SWAP1 POP SWAP2 SWAP1 POP JUMP JUMPDEST PUSH1 0x0 PUSH2 0x263 DUP3 PUSH2 0x235 JUMP JUMPDEST SWAP2 POP DUP2 SWAP1 POP SWAP2 SWAP1 POP JUMP JUMPDEST PUSH1 0x0 PUSH1 0x20 DUP3 ADD SWAP1 POP DUP2 DUP2 SUB PUSH1 0x0 DUP4 ADD MSTORE PUSH2 0x286 DUP2 PUSH2 0x212 JUMP JUMPDEST SWAP1 POP SWAP2 SWAP1 POP JUMP JUMPDEST PUSH1 0x0 DUP2 SWAP1 POP SWAP3 SWAP2 POP POP JUMP JUMPDEST PUSH1 0x0 DUP3 DUP3 MSTORE PUSH1 0x20 DUP3 ADD SWAP1 POP SWAP3 SWAP2 POP POP JUMP JUMPDEST PUSH1 0x0 PUSH2 0x2B4 DUP3 PUSH2 0x331 JUMP JUMPDEST SWAP2 POP PUSH2 0x2BF DUP4 PUSH2 0x331 JUMP JUMPDEST SWAP3 POP DUP3 PUSH32 0xFFFFFFFFFFFFFFFFFFFFFFFFFFFFFFFFFFFFFFFFFFFFFFFFFFFFFFFFFFFFFFFF SUB DUP3 GT ISZERO PUSH2 0x2F4 JUMPI PUSH2 0x2F3 PUSH2 0x33B JUMP JUMPDEST JUMPDEST DUP3 DUP3 ADD SWAP1 POP SWAP3 SWAP2 POP POP JUMP JUMPDEST PUSH1 0x0 PUSH2 0x30A DUP3 PUSH2 0x311 JUMP JUMPDEST SWAP1 POP SWAP2 SWAP1 POP JUMP JUMPDEST PUSH1 0x0 PUSH20 0xFFFFFFFFFFFFFFFFFFFFFFFFFFFFFFFFFFFFFFFF DUP3 AND SWAP1 POP SWAP2 SWAP1 POP JUMP JUMPDEST PUSH1 0x0 DUP2 SWAP1 POP SWAP2 SWAP1 POP JUMP JUMPDEST PUSH32 0x4E487B7100000000000000000000000000000000000000000000000000000000 PUSH1 0x0 MSTORE PUSH1 0x11 PUSH1 0x4 MSTORE PUSH1 0x24 PUSH1 0x0 REVERT JUMPDEST PUSH1 0x0 DUP1 REVERT JUMPDEST PUSH32 0x4E6F7420746865204F776E657200000000000000000000000000000000000000 PUSH1 0x0 DUP3 ADD MSTORE POP JUMP JUMPDEST POP JUMP JUMPDEST PUSH2 0x3A4 DUP2 PUSH2 0x2FF JUMP JUMPDEST DUP2 EQ PUSH2 0x3AF JUMPI PUSH1 0x0 DUP1 REVERT JUMPDEST POP JUMP JUMPDEST PUSH2 0x3BB DUP2 PUSH2 0x331 JUMP JUMPDEST DUP2 EQ PUSH2 0x3C6 JUMPI PUSH1 0x0 DUP1 REVERT JUMPDEST POP JUMP INVALID LOG2 PUSH5 0x6970667358 0x22 SLT KECCAK256 SWAP9 CALLDATALOAD 0xF 0xE8 0xB7 EXTCODEHASH MSIZE PUSH18 0xFE6AA2E439836BD0B37A84259AFA374738F4 0x1F PUSH25 0x46F4F14A64736F6C6343000807003300000000000000000000 "
				},
				"gasEstimates": {
					"creation": {
						"codeDepositCost": "204600",
						"executionCost": "24511",
						"totalCost": "229111"
					},
					"external": {
						"withdraw(address,uint256)": "infinite"
					}
				},
				"methodIdentifiers": {
					"withdraw(address,uint256)": "f3fef3a3"
				}
			},
			"storageLayout": {
				"storage": [
					{
						"astId": 3,
						"contract": "contracts/EthersWallet.sol:EthersWallet",
						"label": "owner",
						"offset": 0,
						"slot": "0",
						"type": "t_address"
					},
					{
						"astId": 7,
						"contract": "contracts/EthersWallet.sol:EthersWallet",
						"label": "balances",
						"offset": 0,
						"slot": "1",
						"type": "t_mapping(t_address,t_uint256)"
					}
				],
				"types": {
					"t_address": {
						"encoding": "inplace",
						"label": "address",
						"numberOfBytes": "20"
					},
					"t_mapping(t_address,t_uint256)": {
						"encoding": "mapping",
						"key": "t_address",
						"label": "mapping(address => uint256)",
						"numberOfBytes": "32",
						"value": "t_uint256"
					},
					"t_uint256": {
						"encoding": "inplace",
						"label": "uint256",
						"numberOfBytes": "32"
					}
				}
			},
			"userdoc": {
				"kind": "user",
				"methods": {},
				"version": 1
			}
		}
	}
}