{
	"contracts/3_Ballot.sol": {
		"counterContract": {
			"abi": [
				{
					"inputs": [],
					"stateMutability": "nonpayable",
					"type": "constructor"
				},
				{
					"inputs": [],
					"name": "counter",
					"outputs": [
						{
							"internalType": "uint256",
							"name": "",
							"type": "uint256"
						}
					],
					"stateMutability": "view",
					"type": "function"
				},
				{
					"inputs": [],
					"name": "decCounter",
					"outputs": [],
					"stateMutability": "nonpayable",
					"type": "function"
				},
				{
					"inputs": [],
					"name": "incCounter",
					"outputs": [],
					"stateMutability": "nonpayable",
					"type": "function"
				}
			],
			"devdoc": {
				"kind": "dev",
				"methods": {},
				"version": 1
			},
			"evm": {
				"assembly": "    /* \"contracts/3_Ballot.sol\":71:367  contract counterContract {... */\n  mstore(0x40, 0x80)\n    /* \"contracts/3_Ballot.sol\":131:175  constructor() {... */\n  callvalue\n  dup1\n  iszero\n  tag_1\n  jumpi\n  0x00\n  dup1\n  revert\ntag_1:\n  pop\n    /* \"contracts/3_Ballot.sol\":166:167  0 */\n  0x00\n    /* \"contracts/3_Ballot.sol\":156:163  counter */\n  dup1\n    /* \"contracts/3_Ballot.sol\":156:167  counter = 0 */\n  dup2\n  swap1\n  sstore\n  pop\n    /* \"contracts/3_Ballot.sol\":71:367  contract counterContract {... */\n  dataSize(sub_0)\n  dup1\n  dataOffset(sub_0)\n  0x00\n  codecopy\n  0x00\n  return\nstop\n\nsub_0: assembly {\n        /* \"contracts/3_Ballot.sol\":71:367  contract counterContract {... */\n      mstore(0x40, 0x80)\n      callvalue\n      dup1\n      iszero\n      tag_1\n      jumpi\n      0x00\n      dup1\n      revert\n    tag_1:\n      pop\n      jumpi(tag_2, lt(calldatasize, 0x04))\n      shr(0xe0, calldataload(0x00))\n      dup1\n      0x206fd5af\n      eq\n      tag_3\n      jumpi\n      dup1\n      0x22aacad5\n      eq\n      tag_4\n      jumpi\n      dup1\n      0x61bc221a\n      eq\n      tag_5\n      jumpi\n    tag_2:\n      0x00\n      dup1\n      revert\n        /* \"contracts/3_Ballot.sol\":247:363  function decCounter() public {... */\n    tag_3:\n      tag_6\n      tag_7\n      jump\t// in\n    tag_6:\n      stop\n        /* \"contracts/3_Ballot.sol\":182:240  function incCounter() public {... */\n    tag_4:\n      tag_8\n      tag_9\n      jump\t// in\n    tag_8:\n      stop\n        /* \"contracts/3_Ballot.sol\":104:123  uint public counter */\n    tag_5:\n      tag_10\n      tag_11\n      jump\t// in\n    tag_10:\n      mload(0x40)\n      tag_12\n      swap2\n      swap1\n      tag_13\n      jump\t// in\n    tag_12:\n      mload(0x40)\n      dup1\n      swap2\n      sub\n      swap1\n      return\n        /* \"contracts/3_Ballot.sol\":247:363  function decCounter() public {... */\n    tag_7:\n        /* \"contracts/3_Ballot.sol\":306:307  0 */\n      0x00\n        /* \"contracts/3_Ballot.sol\":296:303  counter */\n      dup1\n      sload\n        /* \"contracts/3_Ballot.sol\":296:307  counter!= 0 */\n      eq\n      iszero\n        /* \"contracts/3_Ballot.sol\":288:335  require(counter!= 0,\"Cannot decrement further\") */\n      tag_15\n      jumpi\n      mload(0x40)\n      0x08c379a000000000000000000000000000000000000000000000000000000000\n      dup2\n      mstore\n      0x04\n      add\n      tag_16\n      swap1\n      tag_17\n      jump\t// in\n    tag_16:\n      mload(0x40)\n      dup1\n      swap2\n      sub\n      swap1\n      revert\n    tag_15:\n        /* \"contracts/3_Ballot.sol\":346:353  counter */\n      0x00\n      dup1\n        /* \"contracts/3_Ballot.sol\":346:355  counter-- */\n      dup2\n      sload\n      dup1\n      swap3\n      swap2\n      swap1\n      tag_18\n      swap1\n      tag_19\n      jump\t// in\n    tag_18:\n      swap2\n      swap1\n      pop\n      sstore\n      pop\n        /* \"contracts/3_Ballot.sol\":247:363  function decCounter() public {... */\n      jump\t// out\n        /* \"contracts/3_Ballot.sol\":182:240  function incCounter() public {... */\n    tag_9:\n        /* \"contracts/3_Ballot.sol\":223:230  counter */\n      0x00\n      dup1\n        /* \"contracts/3_Ballot.sol\":223:232  counter++ */\n      dup2\n      sload\n      dup1\n      swap3\n      swap2\n      swap1\n      tag_21\n      swap1\n      tag_22\n      jump\t// in\n    tag_21:\n      swap2\n      swap1\n      pop\n      sstore\n      pop\n        /* \"contracts/3_Ballot.sol\":182:240  function incCounter() public {... */\n      jump\t// out\n        /* \"contracts/3_Ballot.sol\":104:123  uint public counter */\n    tag_11:\n      sload(0x00)\n      dup2\n      jump\t// out\n        /* \"#utility.yul\":7:373   */\n    tag_24:\n        /* \"#utility.yul\":149:152   */\n      0x00\n        /* \"#utility.yul\":170:237   */\n      tag_26\n        /* \"#utility.yul\":234:236   */\n      0x18\n        /* \"#utility.yul\":229:232   */\n      dup4\n        /* \"#utility.yul\":170:237   */\n      tag_27\n      jump\t// in\n    tag_26:\n        /* \"#utility.yul\":163:237   */\n      swap2\n      pop\n        /* \"#utility.yul\":246:339   */\n      tag_28\n        /* \"#utility.yul\":335:338   */\n      dup3\n        /* \"#utility.yul\":246:339   */\n      tag_29\n      jump\t// in\n    tag_28:\n        /* \"#utility.yul\":364:366   */\n      0x20\n        /* \"#utility.yul\":359:362   */\n      dup3\n        /* \"#utility.yul\":355:367   */\n      add\n        /* \"#utility.yul\":348:367   */\n      swap1\n      pop\n        /* \"#utility.yul\":7:373   */\n      swap2\n      swap1\n      pop\n      jump\t// out\n        /* \"#utility.yul\":379:497   */\n    tag_30:\n        /* \"#utility.yul\":466:490   */\n      tag_32\n        /* \"#utility.yul\":484:489   */\n      dup2\n        /* \"#utility.yul\":466:490   */\n      tag_33\n      jump\t// in\n    tag_32:\n        /* \"#utility.yul\":461:464   */\n      dup3\n        /* \"#utility.yul\":454:491   */\n      mstore\n        /* \"#utility.yul\":379:497   */\n      pop\n      pop\n      jump\t// out\n        /* \"#utility.yul\":503:922   */\n    tag_17:\n        /* \"#utility.yul\":669:673   */\n      0x00\n        /* \"#utility.yul\":707:709   */\n      0x20\n        /* \"#utility.yul\":696:705   */\n      dup3\n        /* \"#utility.yul\":692:710   */\n      add\n        /* \"#utility.yul\":684:710   */\n      swap1\n      pop\n        /* \"#utility.yul\":756:765   */\n      dup2\n        /* \"#utility.yul\":750:754   */\n      dup2\n        /* \"#utility.yul\":746:766   */\n      sub\n        /* \"#utility.yul\":742:743   */\n      0x00\n        /* \"#utility.yul\":731:740   */\n      dup4\n        /* \"#utility.yul\":727:744   */\n      add\n        /* \"#utility.yul\":720:767   */\n      mstore\n        /* \"#utility.yul\":784:915   */\n      tag_35\n        /* \"#utility.yul\":910:914   */\n      dup2\n        /* \"#utility.yul\":784:915   */\n      tag_24\n      jump\t// in\n    tag_35:\n        /* \"#utility.yul\":776:915   */\n      swap1\n      pop\n        /* \"#utility.yul\":503:922   */\n      swap2\n      swap1\n      pop\n      jump\t// out\n        /* \"#utility.yul\":928:1150   */\n    tag_13:\n        /* \"#utility.yul\":1021:1025   */\n      0x00\n        /* \"#utility.yul\":1059:1061   */\n      0x20\n        /* \"#utility.yul\":1048:1057   */\n      dup3\n        /* \"#utility.yul\":1044:1062   */\n      add\n        /* \"#utility.yul\":1036:1062   */\n      swap1\n      pop\n        /* \"#utility.yul\":1072:1143   */\n      tag_37\n        /* \"#utility.yul\":1140:1141   */\n      0x00\n        /* \"#utility.yul\":1129:1138   */\n      dup4\n        /* \"#utility.yul\":1125:1142   */\n      add\n        /* \"#utility.yul\":1116:1122   */\n      dup5\n        /* \"#utility.yul\":1072:1143   */\n      tag_30\n      jump\t// in\n    tag_37:\n        /* \"#utility.yul\":928:1150   */\n      swap3\n      swap2\n      pop\n      pop\n      jump\t// out\n        /* \"#utility.yul\":1156:1325   */\n    tag_27:\n        /* \"#utility.yul\":1240:1251   */\n      0x00\n        /* \"#utility.yul\":1274:1280   */\n      dup3\n        /* \"#utility.yul\":1269:1272   */\n      dup3\n        /* \"#utility.yul\":1262:1281   */\n      mstore\n        /* \"#utility.yul\":1314:1318   */\n      0x20\n        /* \"#utility.yul\":1309:1312   */\n      dup3\n        /* \"#utility.yul\":1305:1319   */\n      add\n        /* \"#utility.yul\":1290:1319   */\n      swap1\n      pop\n        /* \"#utility.yul\":1156:1325   */\n      swap3\n      swap2\n      pop\n      pop\n      jump\t// out\n        /* \"#utility.yul\":1331:1408   */\n    tag_33:\n        /* \"#utility.yul\":1368:1375   */\n      0x00\n        /* \"#utility.yul\":1397:1402   */\n      dup2\n        /* \"#utility.yul\":1386:1402   */\n      swap1\n      pop\n        /* \"#utility.yul\":1331:1408   */\n      swap2\n      swap1\n      pop\n      jump\t// out\n        /* \"#utility.yul\":1414:1585   */\n    tag_19:\n        /* \"#utility.yul\":1453:1456   */\n      0x00\n        /* \"#utility.yul\":1476:1500   */\n      tag_41\n        /* \"#utility.yul\":1494:1499   */\n      dup3\n        /* \"#utility.yul\":1476:1500   */\n      tag_33\n      jump\t// in\n    tag_41:\n        /* \"#utility.yul\":1467:1500   */\n      swap2\n      pop\n        /* \"#utility.yul\":1522:1526   */\n      0x00\n        /* \"#utility.yul\":1515:1520   */\n      dup3\n        /* \"#utility.yul\":1512:1527   */\n      eq\n        /* \"#utility.yul\":1509:1550   */\n      iszero\n      tag_42\n      jumpi\n        /* \"#utility.yul\":1530:1548   */\n      tag_43\n      tag_44\n      jump\t// in\n    tag_43:\n        /* \"#utility.yul\":1509:1550   */\n    tag_42:\n        /* \"#utility.yul\":1577:1578   */\n      0x01\n        /* \"#utility.yul\":1570:1575   */\n      dup3\n        /* \"#utility.yul\":1566:1579   */\n      sub\n        /* \"#utility.yul\":1559:1579   */\n      swap1\n      pop\n        /* \"#utility.yul\":1414:1585   */\n      swap2\n      swap1\n      pop\n      jump\t// out\n        /* \"#utility.yul\":1591:1824   */\n    tag_22:\n        /* \"#utility.yul\":1630:1633   */\n      0x00\n        /* \"#utility.yul\":1653:1677   */\n      tag_46\n        /* \"#utility.yul\":1671:1676   */\n      dup3\n        /* \"#utility.yul\":1653:1677   */\n      tag_33\n      jump\t// in\n    tag_46:\n        /* \"#utility.yul\":1644:1677   */\n      swap2\n      pop\n        /* \"#utility.yul\":1699:1765   */\n      0xffffffffffffffffffffffffffffffffffffffffffffffffffffffffffffffff\n        /* \"#utility.yul\":1692:1697   */\n      dup3\n        /* \"#utility.yul\":1689:1766   */\n      eq\n        /* \"#utility.yul\":1686:1789   */\n      iszero\n      tag_47\n      jumpi\n        /* \"#utility.yul\":1769:1787   */\n      tag_48\n      tag_44\n      jump\t// in\n    tag_48:\n        /* \"#utility.yul\":1686:1789   */\n    tag_47:\n        /* \"#utility.yul\":1816:1817   */\n      0x01\n        /* \"#utility.yul\":1809:1814   */\n      dup3\n        /* \"#utility.yul\":1805:1818   */\n      add\n        /* \"#utility.yul\":1798:1818   */\n      swap1\n      pop\n        /* \"#utility.yul\":1591:1824   */\n      swap2\n      swap1\n      pop\n      jump\t// out\n        /* \"#utility.yul\":1830:2010   */\n    tag_44:\n        /* \"#utility.yul\":1878:1955   */\n      0x4e487b7100000000000000000000000000000000000000000000000000000000\n        /* \"#utility.yul\":1875:1876   */\n      0x00\n        /* \"#utility.yul\":1868:1956   */\n      mstore\n        /* \"#utility.yul\":1975:1979   */\n      0x11\n        /* \"#utility.yul\":1972:1973   */\n      0x04\n        /* \"#utility.yul\":1965:1980   */\n      mstore\n        /* \"#utility.yul\":1999:2003   */\n      0x24\n        /* \"#utility.yul\":1996:1997   */\n      0x00\n        /* \"#utility.yul\":1989:2004   */\n      revert\n        /* \"#utility.yul\":2016:2190   */\n    tag_29:\n        /* \"#utility.yul\":2156:2182   */\n      0x43616e6e6f742064656372656d656e7420667572746865720000000000000000\n        /* \"#utility.yul\":2152:2153   */\n      0x00\n        /* \"#utility.yul\":2144:2150   */\n      dup3\n        /* \"#utility.yul\":2140:2154   */\n      add\n        /* \"#utility.yul\":2133:2183   */\n      mstore\n        /* \"#utility.yul\":2016:2190   */\n      pop\n      jump\t// out\n\n    auxdata: 0xa26469706673582212201e8d7d3433198341a01816938b5910605552032f6222c328d72724819558137964736f6c63430008070033\n}\n",
				"bytecode": {
					"linkReferences": {},
					"object": "608060405234801561001057600080fd5b506000808190555061027e806100276000396000f3fe608060405234801561001057600080fd5b50600436106100415760003560e01c8063206fd5af1461004657806322aacad51461005057806361bc221a1461005a575b600080fd5b61004e610078565b005b6100586100d6565b005b6100626100ef565b60405161006f9190610147565b60405180910390f35b6000805414156100bd576040517f08c379a00000000000000000000000000000000000000000000000000000000081526004016100b490610127565b60405180910390fd5b6000808154809291906100cf9061017d565b9190505550565b6000808154809291906100e8906101a7565b9190505550565b60005481565b6000610102601883610162565b915061010d8261021f565b602082019050919050565b61012181610173565b82525050565b60006020820190508181036000830152610140816100f5565b9050919050565b600060208201905061015c6000830184610118565b92915050565b600082825260208201905092915050565b6000819050919050565b600061018882610173565b9150600082141561019c5761019b6101f0565b5b600182039050919050565b60006101b282610173565b91507fffffffffffffffffffffffffffffffffffffffffffffffffffffffffffffffff8214156101e5576101e46101f0565b5b600182019050919050565b7f4e487b7100000000000000000000000000000000000000000000000000000000600052601160045260246000fd5b7f43616e6e6f742064656372656d656e742066757274686572000000000000000060008201525056fea26469706673582212201e8d7d3433198341a01816938b5910605552032f6222c328d72724819558137964736f6c63430008070033",
					"opcodes": "PUSH1 0x80 PUSH1 0x40 MSTORE CALLVALUE DUP1 ISZERO PUSH2 0x10 JUMPI PUSH1 0x0 DUP1 REVERT JUMPDEST POP PUSH1 0x0 DUP1 DUP2 SWAP1 SSTORE POP PUSH2 0x27E DUP1 PUSH2 0x27 PUSH1 0x0 CODECOPY PUSH1 0x0 RETURN INVALID PUSH1 0x80 PUSH1 0x40 MSTORE CALLVALUE DUP1 ISZERO PUSH2 0x10 JUMPI PUSH1 0x0 DUP1 REVERT JUMPDEST POP PUSH1 0x4 CALLDATASIZE LT PUSH2 0x41 JUMPI PUSH1 0x0 CALLDATALOAD PUSH1 0xE0 SHR DUP1 PUSH4 0x206FD5AF EQ PUSH2 0x46 JUMPI DUP1 PUSH4 0x22AACAD5 EQ PUSH2 0x50 JUMPI DUP1 PUSH4 0x61BC221A EQ PUSH2 0x5A JUMPI JUMPDEST PUSH1 0x0 DUP1 REVERT JUMPDEST PUSH2 0x4E PUSH2 0x78 JUMP JUMPDEST STOP JUMPDEST PUSH2 0x58 PUSH2 0xD6 JUMP JUMPDEST STOP JUMPDEST PUSH2 0x62 PUSH2 0xEF JUMP JUMPDEST PUSH1 0x40 MLOAD PUSH2 0x6F SWAP2 SWAP1 PUSH2 0x147 JUMP JUMPDEST PUSH1 0x40 MLOAD DUP1 SWAP2 SUB SWAP1 RETURN JUMPDEST PUSH1 0x0 DUP1 SLOAD EQ ISZERO PUSH2 0xBD JUMPI PUSH1 0x40 MLOAD PUSH32 0x8C379A000000000000000000000000000000000000000000000000000000000 DUP2 MSTORE PUSH1 0x4 ADD PUSH2 0xB4 SWAP1 PUSH2 0x127 JUMP JUMPDEST PUSH1 0x40 MLOAD DUP1 SWAP2 SUB SWAP1 REVERT JUMPDEST PUSH1 0x0 DUP1 DUP2 SLOAD DUP1 SWAP3 SWAP2 SWAP1 PUSH2 0xCF SWAP1 PUSH2 0x17D JUMP JUMPDEST SWAP2 SWAP1 POP SSTORE POP JUMP JUMPDEST PUSH1 0x0 DUP1 DUP2 SLOAD DUP1 SWAP3 SWAP2 SWAP1 PUSH2 0xE8 SWAP1 PUSH2 0x1A7 JUMP JUMPDEST SWAP2 SWAP1 POP SSTORE POP JUMP JUMPDEST PUSH1 0x0 SLOAD DUP2 JUMP JUMPDEST PUSH1 0x0 PUSH2 0x102 PUSH1 0x18 DUP4 PUSH2 0x162 JUMP JUMPDEST SWAP2 POP PUSH2 0x10D DUP3 PUSH2 0x21F JUMP JUMPDEST PUSH1 0x20 DUP3 ADD SWAP1 POP SWAP2 SWAP1 POP JUMP JUMPDEST PUSH2 0x121 DUP2 PUSH2 0x173 JUMP JUMPDEST DUP3 MSTORE POP POP JUMP JUMPDEST PUSH1 0x0 PUSH1 0x20 DUP3 ADD SWAP1 POP DUP2 DUP2 SUB PUSH1 0x0 DUP4 ADD MSTORE PUSH2 0x140 DUP2 PUSH2 0xF5 JUMP JUMPDEST SWAP1 POP SWAP2 SWAP1 POP JUMP JUMPDEST PUSH1 0x0 PUSH1 0x20 DUP3 ADD SWAP1 POP PUSH2 0x15C PUSH1 0x0 DUP4 ADD DUP5 PUSH2 0x118 JUMP JUMPDEST SWAP3 SWAP2 POP POP JUMP JUMPDEST PUSH1 0x0 DUP3 DUP3 MSTORE PUSH1 0x20 DUP3 ADD SWAP1 POP SWAP3 SWAP2 POP POP JUMP JUMPDEST PUSH1 0x0 DUP2 SWAP1 POP SWAP2 SWAP1 POP JUMP JUMPDEST PUSH1 0x0 PUSH2 0x188 DUP3 PUSH2 0x173 JUMP JUMPDEST SWAP2 POP PUSH1 0x0 DUP3 EQ ISZERO PUSH2 0x19C JUMPI PUSH2 0x19B PUSH2 0x1F0 JUMP JUMPDEST JUMPDEST PUSH1 0x1 DUP3 SUB SWAP1 POP SWAP2 SWAP1 POP JUMP JUMPDEST PUSH1 0x0 PUSH2 0x1B2 DUP3 PUSH2 0x173 JUMP JUMPDEST SWAP2 POP PUSH32 0xFFFFFFFFFFFFFFFFFFFFFFFFFFFFFFFFFFFFFFFFFFFFFFFFFFFFFFFFFFFFFFFF DUP3 EQ ISZERO PUSH2 0x1E5 JUMPI PUSH2 0x1E4 PUSH2 0x1F0 JUMP JUMPDEST JUMPDEST PUSH1 0x1 DUP3 ADD SWAP1 POP SWAP2 SWAP1 POP JUMP JUMPDEST PUSH32 0x4E487B7100000000000000000000000000000000000000000000000000000000 PUSH1 0x0 MSTORE PUSH1 0x11 PUSH1 0x4 MSTORE PUSH1 0x24 PUSH1 0x0 REVERT JUMPDEST PUSH32 0x43616E6E6F742064656372656D656E7420667572746865720000000000000000 PUSH1 0x0 DUP3 ADD MSTORE POP JUMP INVALID LOG2 PUSH5 0x6970667358 0x22 SLT KECCAK256 0x1E DUP14 PUSH30 0x3433198341A01816938B5910605552032F6222C328D72724819558137964 PUSH20 0x6F6C634300080700330000000000000000000000 "
				},
				"gasEstimates": {
					"creation": {
						"codeDepositCost": "127600",
						"executionCost": "5185",
						"totalCost": "132785"
					},
					"external": {
						"counter()": "2451",
						"decCounter()": "26608",
						"incCounter()": "24504"
					}
				},
				"methodIdentifiers": {
					"counter()": "61bc221a",
					"decCounter()": "206fd5af",
					"incCounter()": "22aacad5"
				}
			},
			"storageLayout": {
				"storage": [
					{
						"astId": 3,
						"contract": "contracts/3_Ballot.sol:counterContract",
						"label": "counter",
						"offset": 0,
						"slot": "0",
						"type": "t_uint256"
					}
				],
				"types": {
					"t_uint256": {
						"encoding": "inplace",
						"label": "uint256",
						"numberOfBytes": "32"
					}
				}
			},
			"userdoc": {
				"kind": "user",
				"methods": {},
				"version": 1
			}
		}
	}
}