{
	"contracts/AccessControl.sol": {
		"AccessControl": {
			"abi": [
				{
					"inputs": [],
					"stateMutability": "nonpayable",
					"type": "constructor"
				},
				{
					"inputs": [],
					"name": "ADMIN",
					"outputs": [
						{
							"internalType": "bytes32",
							"name": "",
							"type": "bytes32"
						}
					],
					"stateMutability": "view",
					"type": "function"
				},
				{
					"inputs": [],
					"name": "USER",
					"outputs": [
						{
							"internalType": "bytes32",
							"name": "",
							"type": "bytes32"
						}
					],
					"stateMutability": "view",
					"type": "function"
				},
				{
					"inputs": [
						{
							"internalType": "bytes32",
							"name": "",
							"type": "bytes32"
						},
						{
							"internalType": "address",
							"name": "",
							"type": "address"
						}
					],
					"name": "roles",
					"outputs": [
						{
							"internalType": "bool",
							"name": "",
							"type": "bool"
						}
					],
					"stateMutability": "view",
					"type": "function"
				}
			],
			"devdoc": {
				"kind": "dev",
				"methods": {},
				"version": 1
			},
			"evm": {
				"assembly": "    /* \"contracts/AccessControl.sol\":66:389  contract AccessControl {\r... */\n  mstore(0x40, 0x80)\n    /* \"contracts/AccessControl.sol\":314:378  constructor() {\r... */\n  callvalue\n  dup1\n  iszero\n  tag_1\n  jumpi\n  0x00\n  dup1\n  revert\ntag_1:\n  pop\n    /* \"contracts/AccessControl.sol\":366:370  true */\n  0x01\n    /* \"contracts/AccessControl.sol\":339:344  roles */\n  0x00\n    /* \"contracts/AccessControl.sol\":339:351  roles[ADMIN] */\n  dup1\n    /* \"contracts/AccessControl.sol\":206:231  abi.encodePacked(\"ADMIN\") */\n  add(0x20, mload(0x40))\n  tag_4\n  swap1\n  tag_5\n  jump\t// in\ntag_4:\n  mload(0x40)\n  0x20\n  dup2\n  dup4\n  sub\n  sub\n  dup2\n  mstore\n  swap1\n  0x40\n  mstore\n    /* \"contracts/AccessControl.sol\":196:232  keccak256(abi.encodePacked(\"ADMIN\")) */\n  dup1\n  mload\n  swap1\n  0x20\n  add\n  keccak256\n    /* \"contracts/AccessControl.sol\":339:351  roles[ADMIN] */\n  dup2\n  mstore\n  0x20\n  add\n  swap1\n  dup2\n  mstore\n  0x20\n  add\n  0x00\n  keccak256\n    /* \"contracts/AccessControl.sol\":339:363  roles[ADMIN][msg.sender] */\n  0x00\n    /* \"contracts/AccessControl.sol\":352:362  msg.sender */\n  caller\n    /* \"contracts/AccessControl.sol\":339:363  roles[ADMIN][msg.sender] */\n  0xffffffffffffffffffffffffffffffffffffffff\n  and\n  0xffffffffffffffffffffffffffffffffffffffff\n  and\n  dup2\n  mstore\n  0x20\n  add\n  swap1\n  dup2\n  mstore\n  0x20\n  add\n  0x00\n  keccak256\n  0x00\n    /* \"contracts/AccessControl.sol\":339:370  roles[ADMIN][msg.sender] = true */\n  0x0100\n  exp\n  dup2\n  sload\n  dup2\n  0xff\n  mul\n  not\n  and\n  swap1\n  dup4\n  iszero\n  iszero\n  mul\n  or\n  swap1\n  sstore\n  pop\n    /* \"contracts/AccessControl.sol\":66:389  contract AccessControl {\r... */\n  jump(tag_6)\n    /* \"#utility.yul\":7:407   */\ntag_8:\n    /* \"#utility.yul\":167:170   */\n  0x00\n    /* \"#utility.yul\":188:272   */\n  tag_10\n    /* \"#utility.yul\":270:271   */\n  0x05\n    /* \"#utility.yul\":265:268   */\n  dup4\n    /* \"#utility.yul\":188:272   */\n  tag_11\n  jump\t// in\ntag_10:\n    /* \"#utility.yul\":181:272   */\n  swap2\n  pop\n    /* \"#utility.yul\":281:374   */\n  tag_12\n    /* \"#utility.yul\":370:373   */\n  dup3\n    /* \"#utility.yul\":281:374   */\n  tag_13\n  jump\t// in\ntag_12:\n    /* \"#utility.yul\":399:400   */\n  0x05\n    /* \"#utility.yul\":394:397   */\n  dup3\n    /* \"#utility.yul\":390:401   */\n  add\n    /* \"#utility.yul\":383:401   */\n  swap1\n  pop\n    /* \"#utility.yul\":7:407   */\n  swap2\n  swap1\n  pop\n  jump\t// out\n    /* \"#utility.yul\":413:794   */\ntag_5:\n    /* \"#utility.yul\":598:601   */\n  0x00\n    /* \"#utility.yul\":620:768   */\n  tag_15\n    /* \"#utility.yul\":764:767   */\n  dup3\n    /* \"#utility.yul\":620:768   */\n  tag_8\n  jump\t// in\ntag_15:\n    /* \"#utility.yul\":613:768   */\n  swap2\n  pop\n    /* \"#utility.yul\":785:788   */\n  dup2\n    /* \"#utility.yul\":778:788   */\n  swap1\n  pop\n    /* \"#utility.yul\":413:794   */\n  swap2\n  swap1\n  pop\n  jump\t// out\n    /* \"#utility.yul\":800:948   */\ntag_11:\n    /* \"#utility.yul\":902:913   */\n  0x00\n    /* \"#utility.yul\":939:942   */\n  dup2\n    /* \"#utility.yul\":924:942   */\n  swap1\n  pop\n    /* \"#utility.yul\":800:948   */\n  swap3\n  swap2\n  pop\n  pop\n  jump\t// out\n    /* \"#utility.yul\":954:1109   */\ntag_13:\n    /* \"#utility.yul\":1094:1101   */\n  0x41444d494e000000000000000000000000000000000000000000000000000000\n    /* \"#utility.yul\":1090:1091   */\n  0x00\n    /* \"#utility.yul\":1082:1088   */\n  dup3\n    /* \"#utility.yul\":1078:1092   */\n  add\n    /* \"#utility.yul\":1071:1102   */\n  mstore\n    /* \"#utility.yul\":954:1109   */\n  pop\n  jump\t// out\n    /* \"contracts/AccessControl.sol\":66:389  contract AccessControl {\r... */\ntag_6:\n  dataSize(sub_0)\n  dup1\n  dataOffset(sub_0)\n  0x00\n  codecopy\n  0x00\n  return\nstop\n\nsub_0: assembly {\n        /* \"contracts/AccessControl.sol\":66:389  contract AccessControl {\r... */\n      mstore(0x40, 0x80)\n      callvalue\n      dup1\n      iszero\n      tag_1\n      jumpi\n      0x00\n      dup1\n      revert\n    tag_1:\n      pop\n      jumpi(tag_2, lt(calldatasize, 0x04))\n      shr(0xe0, calldataload(0x00))\n      dup1\n      0x2a0acc6a\n      eq\n      tag_3\n      jumpi\n      dup1\n      0x81e167cf\n      eq\n      tag_4\n      jumpi\n      dup1\n      0xf8fc08b9\n      eq\n      tag_5\n      jumpi\n    tag_2:\n      0x00\n      dup1\n      revert\n        /* \"contracts/AccessControl.sol\":164:232  bytes32 public constant ADMIN = keccak256(abi.encodePacked(\"ADMIN\")) */\n    tag_3:\n      tag_6\n      tag_7\n      jump\t// in\n    tag_6:\n      mload(0x40)\n      tag_8\n      swap2\n      swap1\n      tag_9\n      jump\t// in\n    tag_8:\n      mload(0x40)\n      dup1\n      swap2\n      sub\n      swap1\n      return\n        /* \"contracts/AccessControl.sol\":239:305  bytes32 public constant USER = keccak256(abi.encodePacked(\"USER\")) */\n    tag_4:\n      tag_10\n      tag_11\n      jump\t// in\n    tag_10:\n      mload(0x40)\n      tag_12\n      swap2\n      swap1\n      tag_9\n      jump\t// in\n    tag_12:\n      mload(0x40)\n      dup1\n      swap2\n      sub\n      swap1\n      return\n        /* \"contracts/AccessControl.sol\":98:155  mapping(bytes32 => mapping(address => bool)) public roles */\n    tag_5:\n      tag_13\n      0x04\n      dup1\n      calldatasize\n      sub\n      dup2\n      add\n      swap1\n      tag_14\n      swap2\n      swap1\n      tag_15\n      jump\t// in\n    tag_14:\n      tag_16\n      jump\t// in\n    tag_13:\n      mload(0x40)\n      tag_17\n      swap2\n      swap1\n      tag_18\n      jump\t// in\n    tag_17:\n      mload(0x40)\n      dup1\n      swap2\n      sub\n      swap1\n      return\n        /* \"contracts/AccessControl.sol\":164:232  bytes32 public constant ADMIN = keccak256(abi.encodePacked(\"ADMIN\")) */\n    tag_7:\n        /* \"contracts/AccessControl.sol\":206:231  abi.encodePacked(\"ADMIN\") */\n      add(0x20, mload(0x40))\n      tag_19\n      swap1\n      tag_20\n      jump\t// in\n    tag_19:\n      mload(0x40)\n      0x20\n      dup2\n      dup4\n      sub\n      sub\n      dup2\n      mstore\n      swap1\n      0x40\n      mstore\n        /* \"contracts/AccessControl.sol\":196:232  keccak256(abi.encodePacked(\"ADMIN\")) */\n      dup1\n      mload\n      swap1\n      0x20\n      add\n      keccak256\n        /* \"contracts/AccessControl.sol\":164:232  bytes32 public constant ADMIN = keccak256(abi.encodePacked(\"ADMIN\")) */\n      dup2\n      jump\t// out\n        /* \"contracts/AccessControl.sol\":239:305  bytes32 public constant USER = keccak256(abi.encodePacked(\"USER\")) */\n    tag_11:\n        /* \"contracts/AccessControl.sol\":280:304  abi.encodePacked(\"USER\") */\n      add(0x20, mload(0x40))\n      tag_21\n      swap1\n      tag_22\n      jump\t// in\n    tag_21:\n      mload(0x40)\n      0x20\n      dup2\n      dup4\n      sub\n      sub\n      dup2\n      mstore\n      swap1\n      0x40\n      mstore\n        /* \"contracts/AccessControl.sol\":270:305  keccak256(abi.encodePacked(\"USER\")) */\n      dup1\n      mload\n      swap1\n      0x20\n      add\n      keccak256\n        /* \"contracts/AccessControl.sol\":239:305  bytes32 public constant USER = keccak256(abi.encodePacked(\"USER\")) */\n      dup2\n      jump\t// out\n        /* \"contracts/AccessControl.sol\":98:155  mapping(bytes32 => mapping(address => bool)) public roles */\n    tag_16:\n      mstore(0x20, 0x00)\n      dup2\n      0x00\n      mstore\n      mstore(0x20, keccak256(0x00, 0x40))\n      dup1\n      0x00\n      mstore\n      keccak256(0x00, 0x40)\n      0x00\n      swap2\n      pop\n      swap2\n      pop\n      swap1\n      sload\n      swap1\n      0x0100\n      exp\n      swap1\n      div\n      0xff\n      and\n      dup2\n      jump\t// out\n        /* \"#utility.yul\":7:146   */\n    tag_24:\n        /* \"#utility.yul\":53:58   */\n      0x00\n        /* \"#utility.yul\":91:97   */\n      dup2\n        /* \"#utility.yul\":78:98   */\n      calldataload\n        /* \"#utility.yul\":69:98   */\n      swap1\n      pop\n        /* \"#utility.yul\":107:140   */\n      tag_26\n        /* \"#utility.yul\":134:139   */\n      dup2\n        /* \"#utility.yul\":107:140   */\n      tag_27\n      jump\t// in\n    tag_26:\n        /* \"#utility.yul\":7:146   */\n      swap3\n      swap2\n      pop\n      pop\n      jump\t// out\n        /* \"#utility.yul\":152:291   */\n    tag_28:\n        /* \"#utility.yul\":198:203   */\n      0x00\n        /* \"#utility.yul\":236:242   */\n      dup2\n        /* \"#utility.yul\":223:243   */\n      calldataload\n        /* \"#utility.yul\":214:243   */\n      swap1\n      pop\n        /* \"#utility.yul\":252:285   */\n      tag_30\n        /* \"#utility.yul\":279:284   */\n      dup2\n        /* \"#utility.yul\":252:285   */\n      tag_31\n      jump\t// in\n    tag_30:\n        /* \"#utility.yul\":152:291   */\n      swap3\n      swap2\n      pop\n      pop\n      jump\t// out\n        /* \"#utility.yul\":297:771   */\n    tag_15:\n        /* \"#utility.yul\":365:371   */\n      0x00\n        /* \"#utility.yul\":373:379   */\n      dup1\n        /* \"#utility.yul\":422:424   */\n      0x40\n        /* \"#utility.yul\":410:419   */\n      dup4\n        /* \"#utility.yul\":401:408   */\n      dup6\n        /* \"#utility.yul\":397:420   */\n      sub\n        /* \"#utility.yul\":393:425   */\n      slt\n        /* \"#utility.yul\":390:509   */\n      iszero\n      tag_33\n      jumpi\n        /* \"#utility.yul\":428:507   */\n      tag_34\n      tag_35\n      jump\t// in\n    tag_34:\n        /* \"#utility.yul\":390:509   */\n    tag_33:\n        /* \"#utility.yul\":548:549   */\n      0x00\n        /* \"#utility.yul\":573:626   */\n      tag_36\n        /* \"#utility.yul\":618:625   */\n      dup6\n        /* \"#utility.yul\":609:615   */\n      dup3\n        /* \"#utility.yul\":598:607   */\n      dup7\n        /* \"#utility.yul\":594:616   */\n      add\n        /* \"#utility.yul\":573:626   */\n      tag_28\n      jump\t// in\n    tag_36:\n        /* \"#utility.yul\":563:626   */\n      swap3\n      pop\n        /* \"#utility.yul\":519:636   */\n      pop\n        /* \"#utility.yul\":675:677   */\n      0x20\n        /* \"#utility.yul\":701:754   */\n      tag_37\n        /* \"#utility.yul\":746:753   */\n      dup6\n        /* \"#utility.yul\":737:743   */\n      dup3\n        /* \"#utility.yul\":726:735   */\n      dup7\n        /* \"#utility.yul\":722:744   */\n      add\n        /* \"#utility.yul\":701:754   */\n      tag_24\n      jump\t// in\n    tag_37:\n        /* \"#utility.yul\":691:754   */\n      swap2\n      pop\n        /* \"#utility.yul\":646:764   */\n      pop\n        /* \"#utility.yul\":297:771   */\n      swap3\n      pop\n      swap3\n      swap1\n      pop\n      jump\t// out\n        /* \"#utility.yul\":777:886   */\n    tag_38:\n        /* \"#utility.yul\":858:879   */\n      tag_40\n        /* \"#utility.yul\":873:878   */\n      dup2\n        /* \"#utility.yul\":858:879   */\n      tag_41\n      jump\t// in\n    tag_40:\n        /* \"#utility.yul\":853:856   */\n      dup3\n        /* \"#utility.yul\":846:880   */\n      mstore\n        /* \"#utility.yul\":777:886   */\n      pop\n      pop\n      jump\t// out\n        /* \"#utility.yul\":892:1010   */\n    tag_42:\n        /* \"#utility.yul\":979:1003   */\n      tag_44\n        /* \"#utility.yul\":997:1002   */\n      dup2\n        /* \"#utility.yul\":979:1003   */\n      tag_45\n      jump\t// in\n    tag_44:\n        /* \"#utility.yul\":974:977   */\n      dup3\n        /* \"#utility.yul\":967:1004   */\n      mstore\n        /* \"#utility.yul\":892:1010   */\n      pop\n      pop\n      jump\t// out\n        /* \"#utility.yul\":1016:1416   */\n    tag_46:\n        /* \"#utility.yul\":1176:1179   */\n      0x00\n        /* \"#utility.yul\":1197:1281   */\n      tag_48\n        /* \"#utility.yul\":1279:1280   */\n      0x04\n        /* \"#utility.yul\":1274:1277   */\n      dup4\n        /* \"#utility.yul\":1197:1281   */\n      tag_49\n      jump\t// in\n    tag_48:\n        /* \"#utility.yul\":1190:1281   */\n      swap2\n      pop\n        /* \"#utility.yul\":1290:1383   */\n      tag_50\n        /* \"#utility.yul\":1379:1382   */\n      dup3\n        /* \"#utility.yul\":1290:1383   */\n      tag_51\n      jump\t// in\n    tag_50:\n        /* \"#utility.yul\":1408:1409   */\n      0x04\n        /* \"#utility.yul\":1403:1406   */\n      dup3\n        /* \"#utility.yul\":1399:1410   */\n      add\n        /* \"#utility.yul\":1392:1410   */\n      swap1\n      pop\n        /* \"#utility.yul\":1016:1416   */\n      swap2\n      swap1\n      pop\n      jump\t// out\n        /* \"#utility.yul\":1422:1822   */\n    tag_52:\n        /* \"#utility.yul\":1582:1585   */\n      0x00\n        /* \"#utility.yul\":1603:1687   */\n      tag_54\n        /* \"#utility.yul\":1685:1686   */\n      0x05\n        /* \"#utility.yul\":1680:1683   */\n      dup4\n        /* \"#utility.yul\":1603:1687   */\n      tag_49\n      jump\t// in\n    tag_54:\n        /* \"#utility.yul\":1596:1687   */\n      swap2\n      pop\n        /* \"#utility.yul\":1696:1789   */\n      tag_55\n        /* \"#utility.yul\":1785:1788   */\n      dup3\n        /* \"#utility.yul\":1696:1789   */\n      tag_56\n      jump\t// in\n    tag_55:\n        /* \"#utility.yul\":1814:1815   */\n      0x05\n        /* \"#utility.yul\":1809:1812   */\n      dup3\n        /* \"#utility.yul\":1805:1816   */\n      add\n        /* \"#utility.yul\":1798:1816   */\n      swap1\n      pop\n        /* \"#utility.yul\":1422:1822   */\n      swap2\n      swap1\n      pop\n      jump\t// out\n        /* \"#utility.yul\":1828:2209   */\n    tag_22:\n        /* \"#utility.yul\":2013:2016   */\n      0x00\n        /* \"#utility.yul\":2035:2183   */\n      tag_58\n        /* \"#utility.yul\":2179:2182   */\n      dup3\n        /* \"#utility.yul\":2035:2183   */\n      tag_46\n      jump\t// in\n    tag_58:\n        /* \"#utility.yul\":2028:2183   */\n      swap2\n      pop\n        /* \"#utility.yul\":2200:2203   */\n      dup2\n        /* \"#utility.yul\":2193:2203   */\n      swap1\n      pop\n        /* \"#utility.yul\":1828:2209   */\n      swap2\n      swap1\n      pop\n      jump\t// out\n        /* \"#utility.yul\":2215:2596   */\n    tag_20:\n        /* \"#utility.yul\":2400:2403   */\n      0x00\n        /* \"#utility.yul\":2422:2570   */\n      tag_60\n        /* \"#utility.yul\":2566:2569   */\n      dup3\n        /* \"#utility.yul\":2422:2570   */\n      tag_52\n      jump\t// in\n    tag_60:\n        /* \"#utility.yul\":2415:2570   */\n      swap2\n      pop\n        /* \"#utility.yul\":2587:2590   */\n      dup2\n        /* \"#utility.yul\":2580:2590   */\n      swap1\n      pop\n        /* \"#utility.yul\":2215:2596   */\n      swap2\n      swap1\n      pop\n      jump\t// out\n        /* \"#utility.yul\":2602:2812   */\n    tag_18:\n        /* \"#utility.yul\":2689:2693   */\n      0x00\n        /* \"#utility.yul\":2727:2729   */\n      0x20\n        /* \"#utility.yul\":2716:2725   */\n      dup3\n        /* \"#utility.yul\":2712:2730   */\n      add\n        /* \"#utility.yul\":2704:2730   */\n      swap1\n      pop\n        /* \"#utility.yul\":2740:2805   */\n      tag_62\n        /* \"#utility.yul\":2802:2803   */\n      0x00\n        /* \"#utility.yul\":2791:2800   */\n      dup4\n        /* \"#utility.yul\":2787:2804   */\n      add\n        /* \"#utility.yul\":2778:2784   */\n      dup5\n        /* \"#utility.yul\":2740:2805   */\n      tag_38\n      jump\t// in\n    tag_62:\n        /* \"#utility.yul\":2602:2812   */\n      swap3\n      swap2\n      pop\n      pop\n      jump\t// out\n        /* \"#utility.yul\":2818:3040   */\n    tag_9:\n        /* \"#utility.yul\":2911:2915   */\n      0x00\n        /* \"#utility.yul\":2949:2951   */\n      0x20\n        /* \"#utility.yul\":2938:2947   */\n      dup3\n        /* \"#utility.yul\":2934:2952   */\n      add\n        /* \"#utility.yul\":2926:2952   */\n      swap1\n      pop\n        /* \"#utility.yul\":2962:3033   */\n      tag_64\n        /* \"#utility.yul\":3030:3031   */\n      0x00\n        /* \"#utility.yul\":3019:3028   */\n      dup4\n        /* \"#utility.yul\":3015:3032   */\n      add\n        /* \"#utility.yul\":3006:3012   */\n      dup5\n        /* \"#utility.yul\":2962:3033   */\n      tag_42\n      jump\t// in\n    tag_64:\n        /* \"#utility.yul\":2818:3040   */\n      swap3\n      swap2\n      pop\n      pop\n      jump\t// out\n        /* \"#utility.yul\":3127:3275   */\n    tag_49:\n        /* \"#utility.yul\":3229:3240   */\n      0x00\n        /* \"#utility.yul\":3266:3269   */\n      dup2\n        /* \"#utility.yul\":3251:3269   */\n      swap1\n      pop\n        /* \"#utility.yul\":3127:3275   */\n      swap3\n      swap2\n      pop\n      pop\n      jump\t// out\n        /* \"#utility.yul\":3281:3377   */\n    tag_68:\n        /* \"#utility.yul\":3318:3325   */\n      0x00\n        /* \"#utility.yul\":3347:3371   */\n      tag_70\n        /* \"#utility.yul\":3365:3370   */\n      dup3\n        /* \"#utility.yul\":3347:3371   */\n      tag_71\n      jump\t// in\n    tag_70:\n        /* \"#utility.yul\":3336:3371   */\n      swap1\n      pop\n        /* \"#utility.yul\":3281:3377   */\n      swap2\n      swap1\n      pop\n      jump\t// out\n        /* \"#utility.yul\":3383:3473   */\n    tag_41:\n        /* \"#utility.yul\":3417:3424   */\n      0x00\n        /* \"#utility.yul\":3460:3465   */\n      dup2\n        /* \"#utility.yul\":3453:3466   */\n      iszero\n        /* \"#utility.yul\":3446:3467   */\n      iszero\n        /* \"#utility.yul\":3435:3467   */\n      swap1\n      pop\n        /* \"#utility.yul\":3383:3473   */\n      swap2\n      swap1\n      pop\n      jump\t// out\n        /* \"#utility.yul\":3479:3556   */\n    tag_45:\n        /* \"#utility.yul\":3516:3523   */\n      0x00\n        /* \"#utility.yul\":3545:3550   */\n      dup2\n        /* \"#utility.yul\":3534:3550   */\n      swap1\n      pop\n        /* \"#utility.yul\":3479:3556   */\n      swap2\n      swap1\n      pop\n      jump\t// out\n        /* \"#utility.yul\":3562:3688   */\n    tag_71:\n        /* \"#utility.yul\":3599:3606   */\n      0x00\n        /* \"#utility.yul\":3639:3681   */\n      0xffffffffffffffffffffffffffffffffffffffff\n        /* \"#utility.yul\":3632:3637   */\n      dup3\n        /* \"#utility.yul\":3628:3682   */\n      and\n        /* \"#utility.yul\":3617:3682   */\n      swap1\n      pop\n        /* \"#utility.yul\":3562:3688   */\n      swap2\n      swap1\n      pop\n      jump\t// out\n        /* \"#utility.yul\":3817:3934   */\n    tag_35:\n        /* \"#utility.yul\":3926:3927   */\n      0x00\n        /* \"#utility.yul\":3923:3924   */\n      dup1\n        /* \"#utility.yul\":3916:3928   */\n      revert\n        /* \"#utility.yul\":3940:4094   */\n    tag_51:\n        /* \"#utility.yul\":4080:4086   */\n      0x5553455200000000000000000000000000000000000000000000000000000000\n        /* \"#utility.yul\":4076:4077   */\n      0x00\n        /* \"#utility.yul\":4068:4074   */\n      dup3\n        /* \"#utility.yul\":4064:4078   */\n      add\n        /* \"#utility.yul\":4057:4087   */\n      mstore\n        /* \"#utility.yul\":3940:4094   */\n      pop\n      jump\t// out\n        /* \"#utility.yul\":4100:4255   */\n    tag_56:\n        /* \"#utility.yul\":4240:4247   */\n      0x41444d494e000000000000000000000000000000000000000000000000000000\n        /* \"#utility.yul\":4236:4237   */\n      0x00\n        /* \"#utility.yul\":4228:4234   */\n      dup3\n        /* \"#utility.yul\":4224:4238   */\n      add\n        /* \"#utility.yul\":4217:4248   */\n      mstore\n        /* \"#utility.yul\":4100:4255   */\n      pop\n      jump\t// out\n        /* \"#utility.yul\":4261:4383   */\n    tag_27:\n        /* \"#utility.yul\":4334:4358   */\n      tag_81\n        /* \"#utility.yul\":4352:4357   */\n      dup2\n        /* \"#utility.yul\":4334:4358   */\n      tag_68\n      jump\t// in\n    tag_81:\n        /* \"#utility.yul\":4327:4332   */\n      dup2\n        /* \"#utility.yul\":4324:4359   */\n      eq\n        /* \"#utility.yul\":4314:4377   */\n      tag_82\n      jumpi\n        /* \"#utility.yul\":4373:4374   */\n      0x00\n        /* \"#utility.yul\":4370:4371   */\n      dup1\n        /* \"#utility.yul\":4363:4375   */\n      revert\n        /* \"#utility.yul\":4314:4377   */\n    tag_82:\n        /* \"#utility.yul\":4261:4383   */\n      pop\n      jump\t// out\n        /* \"#utility.yul\":4389:4511   */\n    tag_31:\n        /* \"#utility.yul\":4462:4486   */\n      tag_84\n        /* \"#utility.yul\":4480:4485   */\n      dup2\n        /* \"#utility.yul\":4462:4486   */\n      tag_45\n      jump\t// in\n    tag_84:\n        /* \"#utility.yul\":4455:4460   */\n      dup2\n        /* \"#utility.yul\":4452:4487   */\n      eq\n        /* \"#utility.yul\":4442:4505   */\n      tag_85\n      jumpi\n        /* \"#utility.yul\":4501:4502   */\n      0x00\n        /* \"#utility.yul\":4498:4499   */\n      dup1\n        /* \"#utility.yul\":4491:4503   */\n      revert\n        /* \"#utility.yul\":4442:4505   */\n    tag_85:\n        /* \"#utility.yul\":4389:4511   */\n      pop\n      jump\t// out\n\n    auxdata: 0xa2646970667358221220602ec372f60e110ddb233939868b77fdd0c8b5dafb66bef9f68b9c42a086880d64736f6c63430008070033\n}\n",
				"bytecode": {
					"linkReferences": {},
					"object": "608060405234801561001057600080fd5b506001600080604051602001610025906100c5565b60405160208183030381529060405280519060200120815260200190815260200160002060003373ffffffffffffffffffffffffffffffffffffffff1673ffffffffffffffffffffffffffffffffffffffff16815260200190815260200160002060006101000a81548160ff02191690831515021790555061010e565b60006100af6005836100da565b91506100ba826100e5565b600582019050919050565b60006100d0826100a2565b9150819050919050565b600081905092915050565b7f41444d494e000000000000000000000000000000000000000000000000000000600082015250565b61036d8061011d6000396000f3fe608060405234801561001057600080fd5b50600436106100415760003560e01c80632a0acc6a1461004657806381e167cf14610064578063f8fc08b914610082575b600080fd5b61004e6100b2565b60405161005b9190610244565b60405180910390f35b61006c6100da565b6040516100799190610244565b60405180910390f35b61009c6004803603810190610097919061015b565b610102565b6040516100a99190610229565b60405180910390f35b6040516020016100c190610214565b6040516020818303038152906040528051906020012081565b6040516020016100e9906101ff565b6040516020818303038152906040528051906020012081565b60006020528160005260406000206020528060005260406000206000915091509054906101000a900460ff1681565b60008135905061014081610309565b92915050565b60008135905061015581610320565b92915050565b60008060408385031215610172576101716102b2565b5b600061018085828601610146565b925050602061019185828601610131565b9150509250929050565b6101a48161027c565b82525050565b6101b381610288565b82525050565b60006101c660048361025f565b91506101d1826102b7565b600482019050919050565b60006101e960058361025f565b91506101f4826102e0565b600582019050919050565b600061020a826101b9565b9150819050919050565b600061021f826101dc565b9150819050919050565b600060208201905061023e600083018461019b565b92915050565b600060208201905061025960008301846101aa565b92915050565b600081905092915050565b600061027582610292565b9050919050565b60008115159050919050565b6000819050919050565b600073ffffffffffffffffffffffffffffffffffffffff82169050919050565b600080fd5b7f5553455200000000000000000000000000000000000000000000000000000000600082015250565b7f41444d494e000000000000000000000000000000000000000000000000000000600082015250565b6103128161026a565b811461031d57600080fd5b50565b61032981610288565b811461033457600080fd5b5056fea2646970667358221220602ec372f60e110ddb233939868b77fdd0c8b5dafb66bef9f68b9c42a086880d64736f6c63430008070033",
					"opcodes": "PUSH1 0x80 PUSH1 0x40 MSTORE CALLVALUE DUP1 ISZERO PUSH2 0x10 JUMPI PUSH1 0x0 DUP1 REVERT JUMPDEST POP PUSH1 0x1 PUSH1 0x0 DUP1 PUSH1 0x40 MLOAD PUSH1 0x20 ADD PUSH2 0x25 SWAP1 PUSH2 0xC5 JUMP JUMPDEST PUSH1 0x40 MLOAD PUSH1 0x20 DUP2 DUP4 SUB SUB DUP2 MSTORE SWAP1 PUSH1 0x40 MSTORE DUP1 MLOAD SWAP1 PUSH1 0x20 ADD KECCAK256 DUP2 MSTORE PUSH1 0x20 ADD SWAP1 DUP2 MSTORE PUSH1 0x20 ADD PUSH1 0x0 KECCAK256 PUSH1 0x0 CALLER PUSH20 0xFFFFFFFFFFFFFFFFFFFFFFFFFFFFFFFFFFFFFFFF AND PUSH20 0xFFFFFFFFFFFFFFFFFFFFFFFFFFFFFFFFFFFFFFFF AND DUP2 MSTORE PUSH1 0x20 ADD SWAP1 DUP2 MSTORE PUSH1 0x20 ADD PUSH1 0x0 KECCAK256 PUSH1 0x0 PUSH2 0x100 EXP DUP2 SLOAD DUP2 PUSH1 0xFF MUL NOT AND SWAP1 DUP4 ISZERO ISZERO MUL OR SWAP1 SSTORE POP PUSH2 0x10E JUMP JUMPDEST PUSH1 0x0 PUSH2 0xAF PUSH1 0x5 DUP4 PUSH2 0xDA JUMP JUMPDEST SWAP2 POP PUSH2 0xBA DUP3 PUSH2 0xE5 JUMP JUMPDEST PUSH1 0x5 DUP3 ADD SWAP1 POP SWAP2 SWAP1 POP JUMP JUMPDEST PUSH1 0x0 PUSH2 0xD0 DUP3 PUSH2 0xA2 JUMP JUMPDEST SWAP2 POP DUP2 SWAP1 POP SWAP2 SWAP1 POP JUMP JUMPDEST PUSH1 0x0 DUP2 SWAP1 POP SWAP3 SWAP2 POP POP JUMP JUMPDEST PUSH32 0x41444D494E000000000000000000000000000000000000000000000000000000 PUSH1 0x0 DUP3 ADD MSTORE POP JUMP JUMPDEST PUSH2 0x36D DUP1 PUSH2 0x11D PUSH1 0x0 CODECOPY PUSH1 0x0 RETURN INVALID PUSH1 0x80 PUSH1 0x40 MSTORE CALLVALUE DUP1 ISZERO PUSH2 0x10 JUMPI PUSH1 0x0 DUP1 REVERT JUMPDEST POP PUSH1 0x4 CALLDATASIZE LT PUSH2 0x41 JUMPI PUSH1 0x0 CALLDATALOAD PUSH1 0xE0 SHR DUP1 PUSH4 0x2A0ACC6A EQ PUSH2 0x46 JUMPI DUP1 PUSH4 0x81E167CF EQ PUSH2 0x64 JUMPI DUP1 PUSH4 0xF8FC08B9 EQ PUSH2 0x82 JUMPI JUMPDEST PUSH1 0x0 DUP1 REVERT JUMPDEST PUSH2 0x4E PUSH2 0xB2 JUMP JUMPDEST PUSH1 0x40 MLOAD PUSH2 0x5B SWAP2 SWAP1 PUSH2 0x244 JUMP JUMPDEST PUSH1 0x40 MLOAD DUP1 SWAP2 SUB SWAP1 RETURN JUMPDEST PUSH2 0x6C PUSH2 0xDA JUMP JUMPDEST PUSH1 0x40 MLOAD PUSH2 0x79 SWAP2 SWAP1 PUSH2 0x244 JUMP JUMPDEST PUSH1 0x40 MLOAD DUP1 SWAP2 SUB SWAP1 RETURN JUMPDEST PUSH2 0x9C PUSH1 0x4 DUP1 CALLDATASIZE SUB DUP2 ADD SWAP1 PUSH2 0x97 SWAP2 SWAP1 PUSH2 0x15B JUMP JUMPDEST PUSH2 0x102 JUMP JUMPDEST PUSH1 0x40 MLOAD PUSH2 0xA9 SWAP2 SWAP1 PUSH2 0x229 JUMP JUMPDEST PUSH1 0x40 MLOAD DUP1 SWAP2 SUB SWAP1 RETURN JUMPDEST PUSH1 0x40 MLOAD PUSH1 0x20 ADD PUSH2 0xC1 SWAP1 PUSH2 0x214 JUMP JUMPDEST PUSH1 0x40 MLOAD PUSH1 0x20 DUP2 DUP4 SUB SUB DUP2 MSTORE SWAP1 PUSH1 0x40 MSTORE DUP1 MLOAD SWAP1 PUSH1 0x20 ADD KECCAK256 DUP2 JUMP JUMPDEST PUSH1 0x40 MLOAD PUSH1 0x20 ADD PUSH2 0xE9 SWAP1 PUSH2 0x1FF JUMP JUMPDEST PUSH1 0x40 MLOAD PUSH1 0x20 DUP2 DUP4 SUB SUB DUP2 MSTORE SWAP1 PUSH1 0x40 MSTORE DUP1 MLOAD SWAP1 PUSH1 0x20 ADD KECCAK256 DUP2 JUMP JUMPDEST PUSH1 0x0 PUSH1 0x20 MSTORE DUP2 PUSH1 0x0 MSTORE PUSH1 0x40 PUSH1 0x0 KECCAK256 PUSH1 0x20 MSTORE DUP1 PUSH1 0x0 MSTORE PUSH1 0x40 PUSH1 0x0 KECCAK256 PUSH1 0x0 SWAP2 POP SWAP2 POP SWAP1 SLOAD SWAP1 PUSH2 0x100 EXP SWAP1 DIV PUSH1 0xFF AND DUP2 JUMP JUMPDEST PUSH1 0x0 DUP2 CALLDATALOAD SWAP1 POP PUSH2 0x140 DUP2 PUSH2 0x309 JUMP JUMPDEST SWAP3 SWAP2 POP POP JUMP JUMPDEST PUSH1 0x0 DUP2 CALLDATALOAD SWAP1 POP PUSH2 0x155 DUP2 PUSH2 0x320 JUMP JUMPDEST SWAP3 SWAP2 POP POP JUMP JUMPDEST PUSH1 0x0 DUP1 PUSH1 0x40 DUP4 DUP6 SUB SLT ISZERO PUSH2 0x172 JUMPI PUSH2 0x171 PUSH2 0x2B2 JUMP JUMPDEST JUMPDEST PUSH1 0x0 PUSH2 0x180 DUP6 DUP3 DUP7 ADD PUSH2 0x146 JUMP JUMPDEST SWAP3 POP POP PUSH1 0x20 PUSH2 0x191 DUP6 DUP3 DUP7 ADD PUSH2 0x131 JUMP JUMPDEST SWAP2 POP POP SWAP3 POP SWAP3 SWAP1 POP JUMP JUMPDEST PUSH2 0x1A4 DUP2 PUSH2 0x27C JUMP JUMPDEST DUP3 MSTORE POP POP JUMP JUMPDEST PUSH2 0x1B3 DUP2 PUSH2 0x288 JUMP JUMPDEST DUP3 MSTORE POP POP JUMP JUMPDEST PUSH1 0x0 PUSH2 0x1C6 PUSH1 0x4 DUP4 PUSH2 0x25F JUMP JUMPDEST SWAP2 POP PUSH2 0x1D1 DUP3 PUSH2 0x2B7 JUMP JUMPDEST PUSH1 0x4 DUP3 ADD SWAP1 POP SWAP2 SWAP1 POP JUMP JUMPDEST PUSH1 0x0 PUSH2 0x1E9 PUSH1 0x5 DUP4 PUSH2 0x25F JUMP JUMPDEST SWAP2 POP PUSH2 0x1F4 DUP3 PUSH2 0x2E0 JUMP JUMPDEST PUSH1 0x5 DUP3 ADD SWAP1 POP SWAP2 SWAP1 POP JUMP JUMPDEST PUSH1 0x0 PUSH2 0x20A DUP3 PUSH2 0x1B9 JUMP JUMPDEST SWAP2 POP DUP2 SWAP1 POP SWAP2 SWAP1 POP JUMP JUMPDEST PUSH1 0x0 PUSH2 0x21F DUP3 PUSH2 0x1DC JUMP JUMPDEST SWAP2 POP DUP2 SWAP1 POP SWAP2 SWAP1 POP JUMP JUMPDEST PUSH1 0x0 PUSH1 0x20 DUP3 ADD SWAP1 POP PUSH2 0x23E PUSH1 0x0 DUP4 ADD DUP5 PUSH2 0x19B JUMP JUMPDEST SWAP3 SWAP2 POP POP JUMP JUMPDEST PUSH1 0x0 PUSH1 0x20 DUP3 ADD SWAP1 POP PUSH2 0x259 PUSH1 0x0 DUP4 ADD DUP5 PUSH2 0x1AA JUMP JUMPDEST SWAP3 SWAP2 POP POP JUMP JUMPDEST PUSH1 0x0 DUP2 SWAP1 POP SWAP3 SWAP2 POP POP JUMP JUMPDEST PUSH1 0x0 PUSH2 0x275 DUP3 PUSH2 0x292 JUMP JUMPDEST SWAP1 POP SWAP2 SWAP1 POP JUMP JUMPDEST PUSH1 0x0 DUP2 ISZERO ISZERO SWAP1 POP SWAP2 SWAP1 POP JUMP JUMPDEST PUSH1 0x0 DUP2 SWAP1 POP SWAP2 SWAP1 POP JUMP JUMPDEST PUSH1 0x0 PUSH20 0xFFFFFFFFFFFFFFFFFFFFFFFFFFFFFFFFFFFFFFFF DUP3 AND SWAP1 POP SWAP2 SWAP1 POP JUMP JUMPDEST PUSH1 0x0 DUP1 REVERT JUMPDEST PUSH32 0x5553455200000000000000000000000000000000000000000000000000000000 PUSH1 0x0 DUP3 ADD MSTORE POP JUMP JUMPDEST PUSH32 0x41444D494E000000000000000000000000000000000000000000000000000000 PUSH1 0x0 DUP3 ADD MSTORE POP JUMP JUMPDEST PUSH2 0x312 DUP2 PUSH2 0x26A JUMP JUMPDEST DUP2 EQ PUSH2 0x31D JUMPI PUSH1 0x0 DUP1 REVERT JUMPDEST POP JUMP JUMPDEST PUSH2 0x329 DUP2 PUSH2 0x288 JUMP JUMPDEST DUP2 EQ PUSH2 0x334 JUMPI PUSH1 0x0 DUP1 REVERT JUMPDEST POP JUMP INVALID LOG2 PUSH5 0x6970667358 0x22 SLT KECCAK256 PUSH1 0x2E 0xC3 PUSH19 0xF60E110DDB233939868B77FDD0C8B5DAFB66BE 0xF9 0xF6 DUP12 SWAP13 TIMESTAMP LOG0 DUP7 DUP9 0xD PUSH5 0x736F6C6343 STOP ADDMOD SMOD STOP CALLER "
				},
				"gasEstimates": {
					"creation": {
						"codeDepositCost": "175400",
						"executionCost": "24965",
						"totalCost": "200365"
					},
					"external": {
						"ADMIN()": "612",
						"USER()": "634",
						"roles(bytes32,address)": "3109"
					}
				},
				"methodIdentifiers": {
					"ADMIN()": "2a0acc6a",
					"USER()": "81e167cf",
					"roles(bytes32,address)": "f8fc08b9"
				}
			},
			"storageLayout": {
				"storage": [
					{
						"astId": 7,
						"contract": "contracts/AccessControl.sol:AccessControl",
						"label": "roles",
						"offset": 0,
						"slot": "0",
						"type": "t_mapping(t_bytes32,t_mapping(t_address,t_bool))"
					}
				],
				"types": {
					"t_address": {
						"encoding": "inplace",
						"label": "address",
						"numberOfBytes": "20"
					},
					"t_bool": {
						"encoding": "inplace",
						"label": "bool",
						"numberOfBytes": "1"
					},
					"t_bytes32": {
						"encoding": "inplace",
						"label": "bytes32",
						"numberOfBytes": "32"
					},
					"t_mapping(t_address,t_bool)": {
						"encoding": "mapping",
						"key": "t_address",
						"label": "mapping(address => bool)",
						"numberOfBytes": "32",
						"value": "t_bool"
					},
					"t_mapping(t_bytes32,t_mapping(t_address,t_bool))": {
						"encoding": "mapping",
						"key": "t_bytes32",
						"label": "mapping(bytes32 => mapping(address => bool))",
						"numberOfBytes": "32",
						"value": "t_mapping(t_address,t_bool)"
					}
				}
			},
			"userdoc": {
				"kind": "user",
				"methods": {},
				"version": 1
			}
		}
	}
}