{
	"contracts/EthersWallet.sol": {
		"EthersWallet": {
			"abi": [
				{
					"inputs": [],
					"stateMutability": "nonpayable",
					"type": "constructor"
				},
				{
					"anonymous": false,
					"inputs": [
						{
							"indexed": false,
							"internalType": "bool",
							"name": "",
							"type": "bool"
						},
						{
							"indexed": false,
							"internalType": "bytes",
							"name": "",
							"type": "bytes"
						}
					],
					"name": "Transfered",
					"type": "event"
				},
				{
					"anonymous": false,
					"inputs": [
						{
							"indexed": false,
							"internalType": "address",
							"name": "",
							"type": "address"
						},
						{
							"indexed": false,
							"internalType": "address",
							"name": "",
							"type": "address"
						},
						{
							"indexed": false,
							"internalType": "uint256",
							"name": "",
							"type": "uint256"
						}
					],
					"name": "Transferring",
					"type": "event"
				},
				{
					"inputs": [
						{
							"internalType": "address",
							"name": "_to",
							"type": "address"
						},
						{
							"internalType": "address",
							"name": "_from",
							"type": "address"
						},
						{
							"internalType": "uint256",
							"name": "_value",
							"type": "uint256"
						}
					],
					"name": "changeBalance",
					"outputs": [],
					"stateMutability": "payable",
					"type": "function"
				},
				{
					"inputs": [],
					"name": "userBalance",
					"outputs": [
						{
							"internalType": "uint256",
							"name": "",
							"type": "uint256"
						}
					],
					"stateMutability": "view",
					"type": "function"
				},
				{
					"inputs": [
						{
							"internalType": "address",
							"name": "_to",
							"type": "address"
						},
						{
							"internalType": "address",
							"name": "_from",
							"type": "address"
						},
						{
							"internalType": "uint256",
							"name": "_value",
							"type": "uint256"
						}
					],
					"name": "withdraw",
					"outputs": [],
					"stateMutability": "nonpayable",
					"type": "function"
				},
				{
					"stateMutability": "payable",
					"type": "receive"
				}
			],
			"devdoc": {
				"kind": "dev",
				"methods": {},
				"version": 1
			},
			"evm": {
				"assembly": "    /* \"contracts/EthersWallet.sol\":66:1290  contract EthersWallet {\r... */\n  mstore(0x40, 0x80)\n    /* \"contracts/EthersWallet.sol\":367:418  constructor() {\r... */\n  callvalue\n  dup1\n  iszero\n  tag_1\n  jumpi\n  0x00\n  dup1\n  revert\ntag_1:\n  pop\n    /* \"contracts/EthersWallet.sol\":400:410  msg.sender */\n  caller\n    /* \"contracts/EthersWallet.sol\":392:397  owner */\n  0x00\n  dup1\n    /* \"contracts/EthersWallet.sol\":392:410  owner = msg.sender */\n  0x0100\n  exp\n  dup2\n  sload\n  dup2\n  0xffffffffffffffffffffffffffffffffffffffff\n  mul\n  not\n  and\n  swap1\n  dup4\n  0xffffffffffffffffffffffffffffffffffffffff\n  and\n  mul\n  or\n  swap1\n  sstore\n  pop\n    /* \"contracts/EthersWallet.sol\":66:1290  contract EthersWallet {\r... */\n  dataSize(sub_0)\n  dup1\n  dataOffset(sub_0)\n  0x00\n  codecopy\n  0x00\n  return\nstop\n\nsub_0: assembly {\n        /* \"contracts/EthersWallet.sol\":66:1290  contract EthersWallet {\r... */\n      mstore(0x40, 0x80)\n      jumpi(tag_1, lt(calldatasize, 0x04))\n      shr(0xe0, calldataload(0x00))\n      dup1\n      0x16c0aefd\n      eq\n      tag_3\n      jumpi\n      dup1\n      0xbf152765\n      eq\n      tag_4\n      jumpi\n      dup1\n      0xd9caed12\n      eq\n      tag_5\n      jumpi\n      jump(tag_2)\n    tag_1:\n      jumpi(tag_2, calldatasize)\n        /* \"contracts/EthersWallet.sol\":585:594  msg.value */\n      callvalue\n        /* \"contracts/EthersWallet.sol\":561:569  balances */\n      0x01\n        /* \"contracts/EthersWallet.sol\":561:581  balances[msg.sender] */\n      0x00\n        /* \"contracts/EthersWallet.sol\":570:580  msg.sender */\n      caller\n        /* \"contracts/EthersWallet.sol\":561:581  balances[msg.sender] */\n      0xffffffffffffffffffffffffffffffffffffffff\n      and\n      0xffffffffffffffffffffffffffffffffffffffff\n      and\n      dup2\n      mstore\n      0x20\n      add\n      swap1\n      dup2\n      mstore\n      0x20\n      add\n      0x00\n      keccak256\n      0x00\n        /* \"contracts/EthersWallet.sol\":561:594  balances[msg.sender] += msg.value */\n      dup3\n      dup3\n      sload\n      tag_8\n      swap2\n      swap1\n      tag_9\n      jump\t// in\n    tag_8:\n      swap3\n      pop\n      pop\n      dup2\n      swap1\n      sstore\n      pop\n        /* \"contracts/EthersWallet.sol\":66:1290  contract EthersWallet {\r... */\n      stop\n    tag_2:\n      0x00\n      dup1\n      revert\n        /* \"contracts/EthersWallet.sol\":612:824  function changeBalance(address _to,address _from, uint256 _value) external payable{\r... */\n    tag_3:\n      tag_10\n      0x04\n      dup1\n      calldatasize\n      sub\n      dup2\n      add\n      swap1\n      tag_11\n      swap2\n      swap1\n      tag_12\n      jump\t// in\n    tag_11:\n      tag_13\n      jump\t// in\n    tag_10:\n      stop\n        /* \"contracts/EthersWallet.sol\":1191:1287  function userBalance() external view returns(uint){\r... */\n    tag_4:\n      callvalue\n      dup1\n      iszero\n      tag_14\n      jumpi\n      0x00\n      dup1\n      revert\n    tag_14:\n      pop\n      tag_15\n      tag_16\n      jump\t// in\n    tag_15:\n      mload(0x40)\n      tag_17\n      swap2\n      swap1\n      tag_18\n      jump\t// in\n    tag_17:\n      mload(0x40)\n      dup1\n      swap2\n      sub\n      swap1\n      return\n        /* \"contracts/EthersWallet.sol\":832:1183  function withdraw(address _to,address _from, uint _value) external isOwner {\r... */\n    tag_5:\n      callvalue\n      dup1\n      iszero\n      tag_19\n      jumpi\n      0x00\n      dup1\n      revert\n    tag_19:\n      pop\n      tag_20\n      0x04\n      dup1\n      calldatasize\n      sub\n      dup2\n      add\n      swap1\n      tag_21\n      swap2\n      swap1\n      tag_12\n      jump\t// in\n    tag_21:\n      tag_22\n      jump\t// in\n    tag_20:\n      stop\n        /* \"contracts/EthersWallet.sol\":612:824  function changeBalance(address _to,address _from, uint256 _value) external payable{\r... */\n    tag_13:\n        /* \"contracts/EthersWallet.sol\":724:730  _value */\n      dup1\n        /* \"contracts/EthersWallet.sol\":707:715  balances */\n      0x01\n        /* \"contracts/EthersWallet.sol\":707:720  balances[_to] */\n      0x00\n        /* \"contracts/EthersWallet.sol\":716:719  _to */\n      dup6\n        /* \"contracts/EthersWallet.sol\":707:720  balances[_to] */\n      0xffffffffffffffffffffffffffffffffffffffff\n      and\n      0xffffffffffffffffffffffffffffffffffffffff\n      and\n      dup2\n      mstore\n      0x20\n      add\n      swap1\n      dup2\n      mstore\n      0x20\n      add\n      0x00\n      keccak256\n      0x00\n        /* \"contracts/EthersWallet.sol\":707:730  balances[_to] += _value */\n      dup3\n      dup3\n      sload\n      tag_24\n      swap2\n      swap1\n      tag_9\n      jump\t// in\n    tag_24:\n      swap3\n      pop\n      pop\n      dup2\n      swap1\n      sstore\n      pop\n        /* \"contracts/EthersWallet.sol\":760:766  _value */\n      dup1\n        /* \"contracts/EthersWallet.sol\":741:749  balances */\n      0x01\n        /* \"contracts/EthersWallet.sol\":741:756  balances[_from] */\n      0x00\n        /* \"contracts/EthersWallet.sol\":750:755  _from */\n      dup5\n        /* \"contracts/EthersWallet.sol\":741:756  balances[_from] */\n      0xffffffffffffffffffffffffffffffffffffffff\n      and\n      0xffffffffffffffffffffffffffffffffffffffff\n      and\n      dup2\n      mstore\n      0x20\n      add\n      swap1\n      dup2\n      mstore\n      0x20\n      add\n      0x00\n      keccak256\n      0x00\n        /* \"contracts/EthersWallet.sol\":741:766  balances[_from] -= _value */\n      dup3\n      dup3\n      sload\n      tag_25\n      swap2\n      swap1\n      tag_26\n      jump\t// in\n    tag_25:\n      swap3\n      pop\n      pop\n      dup2\n      swap1\n      sstore\n      pop\n        /* \"contracts/EthersWallet.sol\":784:814  Transferring(_to,_from,_value) */\n      0xd53683c2ddbfbeaa0862bf4bb2ad12d32e889a7539dde25b42322b1139dd5c43\n        /* \"contracts/EthersWallet.sol\":797:800  _to */\n      dup4\n        /* \"contracts/EthersWallet.sol\":801:806  _from */\n      dup4\n        /* \"contracts/EthersWallet.sol\":807:813  _value */\n      dup4\n        /* \"contracts/EthersWallet.sol\":784:814  Transferring(_to,_from,_value) */\n      mload(0x40)\n      tag_27\n      swap4\n      swap3\n      swap2\n      swap1\n      tag_28\n      jump\t// in\n    tag_27:\n      mload(0x40)\n      dup1\n      swap2\n      sub\n      swap1\n      log1\n        /* \"contracts/EthersWallet.sol\":612:824  function changeBalance(address _to,address _from, uint256 _value) external payable{\r... */\n      pop\n      pop\n      pop\n      jump\t// out\n        /* \"contracts/EthersWallet.sol\":1191:1287  function userBalance() external view returns(uint){\r... */\n    tag_16:\n        /* \"contracts/EthersWallet.sol\":1236:1240  uint */\n      0x00\n        /* \"contracts/EthersWallet.sol\":1259:1267  balances */\n      0x01\n        /* \"contracts/EthersWallet.sol\":1259:1279  balances[msg.sender] */\n      0x00\n        /* \"contracts/EthersWallet.sol\":1268:1278  msg.sender */\n      caller\n        /* \"contracts/EthersWallet.sol\":1259:1279  balances[msg.sender] */\n      0xffffffffffffffffffffffffffffffffffffffff\n      and\n      0xffffffffffffffffffffffffffffffffffffffff\n      and\n      dup2\n      mstore\n      0x20\n      add\n      swap1\n      dup2\n      mstore\n      0x20\n      add\n      0x00\n      keccak256\n      sload\n        /* \"contracts/EthersWallet.sol\":1252:1279  return balances[msg.sender] */\n      swap1\n      pop\n        /* \"contracts/EthersWallet.sol\":1191:1287  function userBalance() external view returns(uint){\r... */\n      swap1\n      jump\t// out\n        /* \"contracts/EthersWallet.sol\":832:1183  function withdraw(address _to,address _from, uint _value) external isOwner {\r... */\n    tag_22:\n        /* \"contracts/EthersWallet.sol\":312:317  owner */\n      0x00\n      dup1\n      sload\n      swap1\n      0x0100\n      exp\n      swap1\n      div\n      0xffffffffffffffffffffffffffffffffffffffff\n      and\n        /* \"contracts/EthersWallet.sol\":298:317  msg.sender == owner */\n      0xffffffffffffffffffffffffffffffffffffffff\n      and\n        /* \"contracts/EthersWallet.sol\":298:308  msg.sender */\n      caller\n        /* \"contracts/EthersWallet.sol\":298:317  msg.sender == owner */\n      0xffffffffffffffffffffffffffffffffffffffff\n      and\n      eq\n        /* \"contracts/EthersWallet.sol\":290:335  require(msg.sender == owner, \"Not the Owner\") */\n      tag_31\n      jumpi\n      mload(0x40)\n      0x08c379a000000000000000000000000000000000000000000000000000000000\n      dup2\n      mstore\n      0x04\n      add\n      tag_32\n      swap1\n      tag_33\n      jump\t// in\n    tag_32:\n      mload(0x40)\n      dup1\n      swap2\n      sub\n      swap1\n      revert\n    tag_31:\n        /* \"contracts/EthersWallet.sol\":920:932  bool success */\n      0x00\n        /* \"contracts/EthersWallet.sol\":934:951  bytes memory data */\n      dup1\n        /* \"contracts/EthersWallet.sol\":955:958  _to */\n      dup5\n        /* \"contracts/EthersWallet.sol\":955:963  _to.call */\n      0xffffffffffffffffffffffffffffffffffffffff\n      and\n        /* \"contracts/EthersWallet.sol\":971:977  _value */\n      dup4\n        /* \"contracts/EthersWallet.sol\":1038:1041  _to */\n      dup7\n        /* \"contracts/EthersWallet.sol\":1043:1048  _from */\n      dup7\n        /* \"contracts/EthersWallet.sol\":1049:1055  _value */\n      dup7\n        /* \"contracts/EthersWallet.sol\":979:1056  abi.encodePacked(\"changeBalance(address,address,uint256)\", _to, _from,_value) */\n      add(0x20, mload(0x40))\n      tag_35\n      swap4\n      swap3\n      swap2\n      swap1\n      tag_36\n      jump\t// in\n    tag_35:\n      mload(0x40)\n      0x20\n      dup2\n      dup4\n      sub\n      sub\n      dup2\n      mstore\n      swap1\n      0x40\n      mstore\n        /* \"contracts/EthersWallet.sol\":955:1057  _to.call{value: _value}(abi.encodePacked(\"changeBalance(address,address,uint256)\", _to, _from,_value)) */\n      mload(0x40)\n      tag_37\n      swap2\n      swap1\n      tag_38\n      jump\t// in\n    tag_37:\n      0x00\n      mload(0x40)\n      dup1\n      dup4\n      sub\n      dup2\n      dup6\n      dup8\n      gas\n      call\n      swap3\n      pop\n      pop\n      pop\n      returndatasize\n      dup1\n      0x00\n      dup2\n      eq\n      tag_41\n      jumpi\n      mload(0x40)\n      swap2\n      pop\n      and(add(returndatasize, 0x3f), not(0x1f))\n      dup3\n      add\n      0x40\n      mstore\n      returndatasize\n      dup3\n      mstore\n      returndatasize\n      0x00\n      0x20\n      dup5\n      add\n      returndatacopy\n      jump(tag_40)\n    tag_41:\n      0x60\n      swap2\n      pop\n    tag_40:\n      pop\n        /* \"contracts/EthersWallet.sol\":919:1057  (bool success, bytes memory data) = _to.call{value: _value}(abi.encodePacked(\"changeBalance(address,address,uint256)\", _to, _from,_value)) */\n      swap2\n      pop\n      swap2\n      pop\n        /* \"contracts/EthersWallet.sol\":1073:1097  Transfered(success,data) */\n      0x211793e58f00b3e734d024ba6cd956e5c3371570ce2f36886f32d842cc67e236\n        /* \"contracts/EthersWallet.sol\":1084:1091  success */\n      dup3\n        /* \"contracts/EthersWallet.sol\":1092:1096  data */\n      dup3\n        /* \"contracts/EthersWallet.sol\":1073:1097  Transfered(success,data) */\n      mload(0x40)\n      tag_42\n      swap3\n      swap2\n      swap1\n      tag_43\n      jump\t// in\n    tag_42:\n      mload(0x40)\n      dup1\n      swap2\n      sub\n      swap1\n      log1\n        /* \"contracts/EthersWallet.sol\":907:1183  {\r... */\n      pop\n      pop\n        /* \"contracts/EthersWallet.sol\":832:1183  function withdraw(address _to,address _from, uint _value) external isOwner {\r... */\n      pop\n      pop\n      pop\n      jump\t// out\n        /* \"#utility.yul\":7:146   */\n    tag_45:\n        /* \"#utility.yul\":53:58   */\n      0x00\n        /* \"#utility.yul\":91:97   */\n      dup2\n        /* \"#utility.yul\":78:98   */\n      calldataload\n        /* \"#utility.yul\":69:98   */\n      swap1\n      pop\n        /* \"#utility.yul\":107:140   */\n      tag_47\n        /* \"#utility.yul\":134:139   */\n      dup2\n        /* \"#utility.yul\":107:140   */\n      tag_48\n      jump\t// in\n    tag_47:\n        /* \"#utility.yul\":7:146   */\n      swap3\n      swap2\n      pop\n      pop\n      jump\t// out\n        /* \"#utility.yul\":152:291   */\n    tag_49:\n        /* \"#utility.yul\":198:203   */\n      0x00\n        /* \"#utility.yul\":236:242   */\n      dup2\n        /* \"#utility.yul\":223:243   */\n      calldataload\n        /* \"#utility.yul\":214:243   */\n      swap1\n      pop\n        /* \"#utility.yul\":252:285   */\n      tag_51\n        /* \"#utility.yul\":279:284   */\n      dup2\n        /* \"#utility.yul\":252:285   */\n      tag_52\n      jump\t// in\n    tag_51:\n        /* \"#utility.yul\":152:291   */\n      swap3\n      swap2\n      pop\n      pop\n      jump\t// out\n        /* \"#utility.yul\":297:916   */\n    tag_12:\n        /* \"#utility.yul\":374:380   */\n      0x00\n        /* \"#utility.yul\":382:388   */\n      dup1\n        /* \"#utility.yul\":390:396   */\n      0x00\n        /* \"#utility.yul\":439:441   */\n      0x60\n        /* \"#utility.yul\":427:436   */\n      dup5\n        /* \"#utility.yul\":418:425   */\n      dup7\n        /* \"#utility.yul\":414:437   */\n      sub\n        /* \"#utility.yul\":410:442   */\n      slt\n        /* \"#utility.yul\":407:526   */\n      iszero\n      tag_54\n      jumpi\n        /* \"#utility.yul\":445:524   */\n      tag_55\n      tag_56\n      jump\t// in\n    tag_55:\n        /* \"#utility.yul\":407:526   */\n    tag_54:\n        /* \"#utility.yul\":565:566   */\n      0x00\n        /* \"#utility.yul\":590:643   */\n      tag_57\n        /* \"#utility.yul\":635:642   */\n      dup7\n        /* \"#utility.yul\":626:632   */\n      dup3\n        /* \"#utility.yul\":615:624   */\n      dup8\n        /* \"#utility.yul\":611:633   */\n      add\n        /* \"#utility.yul\":590:643   */\n      tag_45\n      jump\t// in\n    tag_57:\n        /* \"#utility.yul\":580:643   */\n      swap4\n      pop\n        /* \"#utility.yul\":536:653   */\n      pop\n        /* \"#utility.yul\":692:694   */\n      0x20\n        /* \"#utility.yul\":718:771   */\n      tag_58\n        /* \"#utility.yul\":763:770   */\n      dup7\n        /* \"#utility.yul\":754:760   */\n      dup3\n        /* \"#utility.yul\":743:752   */\n      dup8\n        /* \"#utility.yul\":739:761   */\n      add\n        /* \"#utility.yul\":718:771   */\n      tag_45\n      jump\t// in\n    tag_58:\n        /* \"#utility.yul\":708:771   */\n      swap3\n      pop\n        /* \"#utility.yul\":663:781   */\n      pop\n        /* \"#utility.yul\":820:822   */\n      0x40\n        /* \"#utility.yul\":846:899   */\n      tag_59\n        /* \"#utility.yul\":891:898   */\n      dup7\n        /* \"#utility.yul\":882:888   */\n      dup3\n        /* \"#utility.yul\":871:880   */\n      dup8\n        /* \"#utility.yul\":867:889   */\n      add\n        /* \"#utility.yul\":846:899   */\n      tag_49\n      jump\t// in\n    tag_59:\n        /* \"#utility.yul\":836:899   */\n      swap2\n      pop\n        /* \"#utility.yul\":791:909   */\n      pop\n        /* \"#utility.yul\":297:916   */\n      swap3\n      pop\n      swap3\n      pop\n      swap3\n      jump\t// out\n        /* \"#utility.yul\":922:1040   */\n    tag_60:\n        /* \"#utility.yul\":1009:1033   */\n      tag_62\n        /* \"#utility.yul\":1027:1032   */\n      dup2\n        /* \"#utility.yul\":1009:1033   */\n      tag_63\n      jump\t// in\n    tag_62:\n        /* \"#utility.yul\":1004:1007   */\n      dup3\n        /* \"#utility.yul\":997:1034   */\n      mstore\n        /* \"#utility.yul\":922:1040   */\n      pop\n      pop\n      jump\t// out\n        /* \"#utility.yul\":1046:1203   */\n    tag_64:\n        /* \"#utility.yul\":1151:1196   */\n      tag_66\n        /* \"#utility.yul\":1171:1195   */\n      tag_67\n        /* \"#utility.yul\":1189:1194   */\n      dup3\n        /* \"#utility.yul\":1171:1195   */\n      tag_63\n      jump\t// in\n    tag_67:\n        /* \"#utility.yul\":1151:1196   */\n      tag_68\n      jump\t// in\n    tag_66:\n        /* \"#utility.yul\":1146:1149   */\n      dup3\n        /* \"#utility.yul\":1139:1197   */\n      mstore\n        /* \"#utility.yul\":1046:1203   */\n      pop\n      pop\n      jump\t// out\n        /* \"#utility.yul\":1209:1318   */\n    tag_69:\n        /* \"#utility.yul\":1290:1311   */\n      tag_71\n        /* \"#utility.yul\":1305:1310   */\n      dup2\n        /* \"#utility.yul\":1290:1311   */\n      tag_72\n      jump\t// in\n    tag_71:\n        /* \"#utility.yul\":1285:1288   */\n      dup3\n        /* \"#utility.yul\":1278:1312   */\n      mstore\n        /* \"#utility.yul\":1209:1318   */\n      pop\n      pop\n      jump\t// out\n        /* \"#utility.yul\":1324:1684   */\n    tag_73:\n        /* \"#utility.yul\":1410:1413   */\n      0x00\n        /* \"#utility.yul\":1438:1476   */\n      tag_75\n        /* \"#utility.yul\":1470:1475   */\n      dup3\n        /* \"#utility.yul\":1438:1476   */\n      tag_76\n      jump\t// in\n    tag_75:\n        /* \"#utility.yul\":1492:1562   */\n      tag_77\n        /* \"#utility.yul\":1555:1561   */\n      dup2\n        /* \"#utility.yul\":1550:1553   */\n      dup6\n        /* \"#utility.yul\":1492:1562   */\n      tag_78\n      jump\t// in\n    tag_77:\n        /* \"#utility.yul\":1485:1562   */\n      swap4\n      pop\n        /* \"#utility.yul\":1571:1623   */\n      tag_79\n        /* \"#utility.yul\":1616:1622   */\n      dup2\n        /* \"#utility.yul\":1611:1614   */\n      dup6\n        /* \"#utility.yul\":1604:1608   */\n      0x20\n        /* \"#utility.yul\":1597:1602   */\n      dup7\n        /* \"#utility.yul\":1593:1609   */\n      add\n        /* \"#utility.yul\":1571:1623   */\n      tag_80\n      jump\t// in\n    tag_79:\n        /* \"#utility.yul\":1648:1677   */\n      tag_81\n        /* \"#utility.yul\":1670:1676   */\n      dup2\n        /* \"#utility.yul\":1648:1677   */\n      tag_82\n      jump\t// in\n    tag_81:\n        /* \"#utility.yul\":1643:1646   */\n      dup5\n        /* \"#utility.yul\":1639:1678   */\n      add\n        /* \"#utility.yul\":1632:1678   */\n      swap2\n      pop\n        /* \"#utility.yul\":1414:1684   */\n      pop\n        /* \"#utility.yul\":1324:1684   */\n      swap3\n      swap2\n      pop\n      pop\n      jump\t// out\n        /* \"#utility.yul\":1690:2063   */\n    tag_83:\n        /* \"#utility.yul\":1794:1797   */\n      0x00\n        /* \"#utility.yul\":1822:1860   */\n      tag_85\n        /* \"#utility.yul\":1854:1859   */\n      dup3\n        /* \"#utility.yul\":1822:1860   */\n      tag_76\n      jump\t// in\n    tag_85:\n        /* \"#utility.yul\":1876:1964   */\n      tag_86\n        /* \"#utility.yul\":1957:1963   */\n      dup2\n        /* \"#utility.yul\":1952:1955   */\n      dup6\n        /* \"#utility.yul\":1876:1964   */\n      tag_87\n      jump\t// in\n    tag_86:\n        /* \"#utility.yul\":1869:1964   */\n      swap4\n      pop\n        /* \"#utility.yul\":1973:2025   */\n      tag_88\n        /* \"#utility.yul\":2018:2024   */\n      dup2\n        /* \"#utility.yul\":2013:2016   */\n      dup6\n        /* \"#utility.yul\":2006:2010   */\n      0x20\n        /* \"#utility.yul\":1999:2004   */\n      dup7\n        /* \"#utility.yul\":1995:2011   */\n      add\n        /* \"#utility.yul\":1973:2025   */\n      tag_80\n      jump\t// in\n    tag_88:\n        /* \"#utility.yul\":2050:2056   */\n      dup1\n        /* \"#utility.yul\":2045:2048   */\n      dup5\n        /* \"#utility.yul\":2041:2057   */\n      add\n        /* \"#utility.yul\":2034:2057   */\n      swap2\n      pop\n        /* \"#utility.yul\":1798:2063   */\n      pop\n        /* \"#utility.yul\":1690:2063   */\n      swap3\n      swap2\n      pop\n      pop\n      jump\t// out\n        /* \"#utility.yul\":2069:2471   */\n    tag_89:\n        /* \"#utility.yul\":2229:2232   */\n      0x00\n        /* \"#utility.yul\":2250:2335   */\n      tag_91\n        /* \"#utility.yul\":2332:2334   */\n      0x26\n        /* \"#utility.yul\":2327:2330   */\n      dup4\n        /* \"#utility.yul\":2250:2335   */\n      tag_92\n      jump\t// in\n    tag_91:\n        /* \"#utility.yul\":2243:2335   */\n      swap2\n      pop\n        /* \"#utility.yul\":2344:2437   */\n      tag_93\n        /* \"#utility.yul\":2433:2436   */\n      dup3\n        /* \"#utility.yul\":2344:2437   */\n      tag_94\n      jump\t// in\n    tag_93:\n        /* \"#utility.yul\":2462:2464   */\n      0x26\n        /* \"#utility.yul\":2457:2460   */\n      dup3\n        /* \"#utility.yul\":2453:2465   */\n      add\n        /* \"#utility.yul\":2446:2465   */\n      swap1\n      pop\n        /* \"#utility.yul\":2069:2471   */\n      swap2\n      swap1\n      pop\n      jump\t// out\n        /* \"#utility.yul\":2477:2843   */\n    tag_95:\n        /* \"#utility.yul\":2619:2622   */\n      0x00\n        /* \"#utility.yul\":2640:2707   */\n      tag_97\n        /* \"#utility.yul\":2704:2706   */\n      0x0d\n        /* \"#utility.yul\":2699:2702   */\n      dup4\n        /* \"#utility.yul\":2640:2707   */\n      tag_98\n      jump\t// in\n    tag_97:\n        /* \"#utility.yul\":2633:2707   */\n      swap2\n      pop\n        /* \"#utility.yul\":2716:2809   */\n      tag_99\n        /* \"#utility.yul\":2805:2808   */\n      dup3\n        /* \"#utility.yul\":2716:2809   */\n      tag_100\n      jump\t// in\n    tag_99:\n        /* \"#utility.yul\":2834:2836   */\n      0x20\n        /* \"#utility.yul\":2829:2832   */\n      dup3\n        /* \"#utility.yul\":2825:2837   */\n      add\n        /* \"#utility.yul\":2818:2837   */\n      swap1\n      pop\n        /* \"#utility.yul\":2477:2843   */\n      swap2\n      swap1\n      pop\n      jump\t// out\n        /* \"#utility.yul\":2849:2967   */\n    tag_101:\n        /* \"#utility.yul\":2936:2960   */\n      tag_103\n        /* \"#utility.yul\":2954:2959   */\n      dup2\n        /* \"#utility.yul\":2936:2960   */\n      tag_104\n      jump\t// in\n    tag_103:\n        /* \"#utility.yul\":2931:2934   */\n      dup3\n        /* \"#utility.yul\":2924:2961   */\n      mstore\n        /* \"#utility.yul\":2849:2967   */\n      pop\n      pop\n      jump\t// out\n        /* \"#utility.yul\":2973:3130   */\n    tag_105:\n        /* \"#utility.yul\":3078:3123   */\n      tag_107\n        /* \"#utility.yul\":3098:3122   */\n      tag_108\n        /* \"#utility.yul\":3116:3121   */\n      dup3\n        /* \"#utility.yul\":3098:3122   */\n      tag_104\n      jump\t// in\n    tag_108:\n        /* \"#utility.yul\":3078:3123   */\n      tag_109\n      jump\t// in\n    tag_107:\n        /* \"#utility.yul\":3073:3076   */\n      dup3\n        /* \"#utility.yul\":3066:3124   */\n      mstore\n        /* \"#utility.yul\":2973:3130   */\n      pop\n      pop\n      jump\t// out\n        /* \"#utility.yul\":3136:3407   */\n    tag_38:\n        /* \"#utility.yul\":3266:3269   */\n      0x00\n        /* \"#utility.yul\":3288:3381   */\n      tag_111\n        /* \"#utility.yul\":3377:3380   */\n      dup3\n        /* \"#utility.yul\":3368:3374   */\n      dup5\n        /* \"#utility.yul\":3288:3381   */\n      tag_83\n      jump\t// in\n    tag_111:\n        /* \"#utility.yul\":3281:3381   */\n      swap2\n      pop\n        /* \"#utility.yul\":3398:3401   */\n      dup2\n        /* \"#utility.yul\":3391:3401   */\n      swap1\n      pop\n        /* \"#utility.yul\":3136:3407   */\n      swap3\n      swap2\n      pop\n      pop\n      jump\t// out\n        /* \"#utility.yul\":3413:4217   */\n    tag_36:\n        /* \"#utility.yul\":3682:3685   */\n      0x00\n        /* \"#utility.yul\":3704:3852   */\n      tag_113\n        /* \"#utility.yul\":3848:3851   */\n      dup3\n        /* \"#utility.yul\":3704:3852   */\n      tag_89\n      jump\t// in\n    tag_113:\n        /* \"#utility.yul\":3697:3852   */\n      swap2\n      pop\n        /* \"#utility.yul\":3862:3937   */\n      tag_114\n        /* \"#utility.yul\":3933:3936   */\n      dup3\n        /* \"#utility.yul\":3924:3930   */\n      dup7\n        /* \"#utility.yul\":3862:3937   */\n      tag_64\n      jump\t// in\n    tag_114:\n        /* \"#utility.yul\":3962:3964   */\n      0x14\n        /* \"#utility.yul\":3957:3960   */\n      dup3\n        /* \"#utility.yul\":3953:3965   */\n      add\n        /* \"#utility.yul\":3946:3965   */\n      swap2\n      pop\n        /* \"#utility.yul\":3975:4050   */\n      tag_115\n        /* \"#utility.yul\":4046:4049   */\n      dup3\n        /* \"#utility.yul\":4037:4043   */\n      dup6\n        /* \"#utility.yul\":3975:4050   */\n      tag_64\n      jump\t// in\n    tag_115:\n        /* \"#utility.yul\":4075:4077   */\n      0x14\n        /* \"#utility.yul\":4070:4073   */\n      dup3\n        /* \"#utility.yul\":4066:4078   */\n      add\n        /* \"#utility.yul\":4059:4078   */\n      swap2\n      pop\n        /* \"#utility.yul\":4088:4163   */\n      tag_116\n        /* \"#utility.yul\":4159:4162   */\n      dup3\n        /* \"#utility.yul\":4150:4156   */\n      dup5\n        /* \"#utility.yul\":4088:4163   */\n      tag_105\n      jump\t// in\n    tag_116:\n        /* \"#utility.yul\":4188:4190   */\n      0x20\n        /* \"#utility.yul\":4183:4186   */\n      dup3\n        /* \"#utility.yul\":4179:4191   */\n      add\n        /* \"#utility.yul\":4172:4191   */\n      swap2\n      pop\n        /* \"#utility.yul\":4208:4211   */\n      dup2\n        /* \"#utility.yul\":4201:4211   */\n      swap1\n      pop\n        /* \"#utility.yul\":3413:4217   */\n      swap5\n      swap4\n      pop\n      pop\n      pop\n      pop\n      jump\t// out\n        /* \"#utility.yul\":4223:4665   */\n    tag_28:\n        /* \"#utility.yul\":4372:4376   */\n      0x00\n        /* \"#utility.yul\":4410:4412   */\n      0x60\n        /* \"#utility.yul\":4399:4408   */\n      dup3\n        /* \"#utility.yul\":4395:4413   */\n      add\n        /* \"#utility.yul\":4387:4413   */\n      swap1\n      pop\n        /* \"#utility.yul\":4423:4494   */\n      tag_118\n        /* \"#utility.yul\":4491:4492   */\n      0x00\n        /* \"#utility.yul\":4480:4489   */\n      dup4\n        /* \"#utility.yul\":4476:4493   */\n      add\n        /* \"#utility.yul\":4467:4473   */\n      dup7\n        /* \"#utility.yul\":4423:4494   */\n      tag_60\n      jump\t// in\n    tag_118:\n        /* \"#utility.yul\":4504:4576   */\n      tag_119\n        /* \"#utility.yul\":4572:4574   */\n      0x20\n        /* \"#utility.yul\":4561:4570   */\n      dup4\n        /* \"#utility.yul\":4557:4575   */\n      add\n        /* \"#utility.yul\":4548:4554   */\n      dup6\n        /* \"#utility.yul\":4504:4576   */\n      tag_60\n      jump\t// in\n    tag_119:\n        /* \"#utility.yul\":4586:4658   */\n      tag_120\n        /* \"#utility.yul\":4654:4656   */\n      0x40\n        /* \"#utility.yul\":4643:4652   */\n      dup4\n        /* \"#utility.yul\":4639:4657   */\n      add\n        /* \"#utility.yul\":4630:4636   */\n      dup5\n        /* \"#utility.yul\":4586:4658   */\n      tag_101\n      jump\t// in\n    tag_120:\n        /* \"#utility.yul\":4223:4665   */\n      swap5\n      swap4\n      pop\n      pop\n      pop\n      pop\n      jump\t// out\n        /* \"#utility.yul\":4671:5078   */\n    tag_43:\n        /* \"#utility.yul\":4804:4808   */\n      0x00\n        /* \"#utility.yul\":4842:4844   */\n      0x40\n        /* \"#utility.yul\":4831:4840   */\n      dup3\n        /* \"#utility.yul\":4827:4845   */\n      add\n        /* \"#utility.yul\":4819:4845   */\n      swap1\n      pop\n        /* \"#utility.yul\":4855:4920   */\n      tag_122\n        /* \"#utility.yul\":4917:4918   */\n      0x00\n        /* \"#utility.yul\":4906:4915   */\n      dup4\n        /* \"#utility.yul\":4902:4919   */\n      add\n        /* \"#utility.yul\":4893:4899   */\n      dup6\n        /* \"#utility.yul\":4855:4920   */\n      tag_69\n      jump\t// in\n    tag_122:\n        /* \"#utility.yul\":4967:4976   */\n      dup2\n        /* \"#utility.yul\":4961:4965   */\n      dup2\n        /* \"#utility.yul\":4957:4977   */\n      sub\n        /* \"#utility.yul\":4952:4954   */\n      0x20\n        /* \"#utility.yul\":4941:4950   */\n      dup4\n        /* \"#utility.yul\":4937:4955   */\n      add\n        /* \"#utility.yul\":4930:4978   */\n      mstore\n        /* \"#utility.yul\":4995:5071   */\n      tag_123\n        /* \"#utility.yul\":5066:5070   */\n      dup2\n        /* \"#utility.yul\":5057:5063   */\n      dup5\n        /* \"#utility.yul\":4995:5071   */\n      tag_73\n      jump\t// in\n    tag_123:\n        /* \"#utility.yul\":4987:5071   */\n      swap1\n      pop\n        /* \"#utility.yul\":4671:5078   */\n      swap4\n      swap3\n      pop\n      pop\n      pop\n      jump\t// out\n        /* \"#utility.yul\":5084:5503   */\n    tag_33:\n        /* \"#utility.yul\":5250:5254   */\n      0x00\n        /* \"#utility.yul\":5288:5290   */\n      0x20\n        /* \"#utility.yul\":5277:5286   */\n      dup3\n        /* \"#utility.yul\":5273:5291   */\n      add\n        /* \"#utility.yul\":5265:5291   */\n      swap1\n      pop\n        /* \"#utility.yul\":5337:5346   */\n      dup2\n        /* \"#utility.yul\":5331:5335   */\n      dup2\n        /* \"#utility.yul\":5327:5347   */\n      sub\n        /* \"#utility.yul\":5323:5324   */\n      0x00\n        /* \"#utility.yul\":5312:5321   */\n      dup4\n        /* \"#utility.yul\":5308:5325   */\n      add\n        /* \"#utility.yul\":5301:5348   */\n      mstore\n        /* \"#utility.yul\":5365:5496   */\n      tag_125\n        /* \"#utility.yul\":5491:5495   */\n      dup2\n        /* \"#utility.yul\":5365:5496   */\n      tag_95\n      jump\t// in\n    tag_125:\n        /* \"#utility.yul\":5357:5496   */\n      swap1\n      pop\n        /* \"#utility.yul\":5084:5503   */\n      swap2\n      swap1\n      pop\n      jump\t// out\n        /* \"#utility.yul\":5509:5731   */\n    tag_18:\n        /* \"#utility.yul\":5602:5606   */\n      0x00\n        /* \"#utility.yul\":5640:5642   */\n      0x20\n        /* \"#utility.yul\":5629:5638   */\n      dup3\n        /* \"#utility.yul\":5625:5643   */\n      add\n        /* \"#utility.yul\":5617:5643   */\n      swap1\n      pop\n        /* \"#utility.yul\":5653:5724   */\n      tag_127\n        /* \"#utility.yul\":5721:5722   */\n      0x00\n        /* \"#utility.yul\":5710:5719   */\n      dup4\n        /* \"#utility.yul\":5706:5723   */\n      add\n        /* \"#utility.yul\":5697:5703   */\n      dup5\n        /* \"#utility.yul\":5653:5724   */\n      tag_101\n      jump\t// in\n    tag_127:\n        /* \"#utility.yul\":5509:5731   */\n      swap3\n      swap2\n      pop\n      pop\n      jump\t// out\n        /* \"#utility.yul\":5818:5916   */\n    tag_76:\n        /* \"#utility.yul\":5869:5875   */\n      0x00\n        /* \"#utility.yul\":5903:5908   */\n      dup2\n        /* \"#utility.yul\":5897:5909   */\n      mload\n        /* \"#utility.yul\":5887:5909   */\n      swap1\n      pop\n        /* \"#utility.yul\":5818:5916   */\n      swap2\n      swap1\n      pop\n      jump\t// out\n        /* \"#utility.yul\":5922:6090   */\n    tag_78:\n        /* \"#utility.yul\":6005:6016   */\n      0x00\n        /* \"#utility.yul\":6039:6045   */\n      dup3\n        /* \"#utility.yul\":6034:6037   */\n      dup3\n        /* \"#utility.yul\":6027:6046   */\n      mstore\n        /* \"#utility.yul\":6079:6083   */\n      0x20\n        /* \"#utility.yul\":6074:6077   */\n      dup3\n        /* \"#utility.yul\":6070:6084   */\n      add\n        /* \"#utility.yul\":6055:6084   */\n      swap1\n      pop\n        /* \"#utility.yul\":5922:6090   */\n      swap3\n      swap2\n      pop\n      pop\n      jump\t// out\n        /* \"#utility.yul\":6096:6243   */\n    tag_87:\n        /* \"#utility.yul\":6197:6208   */\n      0x00\n        /* \"#utility.yul\":6234:6237   */\n      dup2\n        /* \"#utility.yul\":6219:6237   */\n      swap1\n      pop\n        /* \"#utility.yul\":6096:6243   */\n      swap3\n      swap2\n      pop\n      pop\n      jump\t// out\n        /* \"#utility.yul\":6249:6418   */\n    tag_98:\n        /* \"#utility.yul\":6333:6344   */\n      0x00\n        /* \"#utility.yul\":6367:6373   */\n      dup3\n        /* \"#utility.yul\":6362:6365   */\n      dup3\n        /* \"#utility.yul\":6355:6374   */\n      mstore\n        /* \"#utility.yul\":6407:6411   */\n      0x20\n        /* \"#utility.yul\":6402:6405   */\n      dup3\n        /* \"#utility.yul\":6398:6412   */\n      add\n        /* \"#utility.yul\":6383:6412   */\n      swap1\n      pop\n        /* \"#utility.yul\":6249:6418   */\n      swap3\n      swap2\n      pop\n      pop\n      jump\t// out\n        /* \"#utility.yul\":6424:6572   */\n    tag_92:\n        /* \"#utility.yul\":6526:6537   */\n      0x00\n        /* \"#utility.yul\":6563:6566   */\n      dup2\n        /* \"#utility.yul\":6548:6566   */\n      swap1\n      pop\n        /* \"#utility.yul\":6424:6572   */\n      swap3\n      swap2\n      pop\n      pop\n      jump\t// out\n        /* \"#utility.yul\":6578:6883   */\n    tag_9:\n        /* \"#utility.yul\":6618:6621   */\n      0x00\n        /* \"#utility.yul\":6637:6657   */\n      tag_136\n        /* \"#utility.yul\":6655:6656   */\n      dup3\n        /* \"#utility.yul\":6637:6657   */\n      tag_104\n      jump\t// in\n    tag_136:\n        /* \"#utility.yul\":6632:6657   */\n      swap2\n      pop\n        /* \"#utility.yul\":6671:6691   */\n      tag_137\n        /* \"#utility.yul\":6689:6690   */\n      dup4\n        /* \"#utility.yul\":6671:6691   */\n      tag_104\n      jump\t// in\n    tag_137:\n        /* \"#utility.yul\":6666:6691   */\n      swap3\n      pop\n        /* \"#utility.yul\":6825:6826   */\n      dup3\n        /* \"#utility.yul\":6757:6823   */\n      0xffffffffffffffffffffffffffffffffffffffffffffffffffffffffffffffff\n        /* \"#utility.yul\":6753:6827   */\n      sub\n        /* \"#utility.yul\":6750:6751   */\n      dup3\n        /* \"#utility.yul\":6747:6828   */\n      gt\n        /* \"#utility.yul\":6744:6851   */\n      iszero\n      tag_138\n      jumpi\n        /* \"#utility.yul\":6831:6849   */\n      tag_139\n      tag_140\n      jump\t// in\n    tag_139:\n        /* \"#utility.yul\":6744:6851   */\n    tag_138:\n        /* \"#utility.yul\":6875:6876   */\n      dup3\n        /* \"#utility.yul\":6872:6873   */\n      dup3\n        /* \"#utility.yul\":6868:6877   */\n      add\n        /* \"#utility.yul\":6861:6877   */\n      swap1\n      pop\n        /* \"#utility.yul\":6578:6883   */\n      swap3\n      swap2\n      pop\n      pop\n      jump\t// out\n        /* \"#utility.yul\":6889:7080   */\n    tag_26:\n        /* \"#utility.yul\":6929:6933   */\n      0x00\n        /* \"#utility.yul\":6949:6969   */\n      tag_142\n        /* \"#utility.yul\":6967:6968   */\n      dup3\n        /* \"#utility.yul\":6949:6969   */\n      tag_104\n      jump\t// in\n    tag_142:\n        /* \"#utility.yul\":6944:6969   */\n      swap2\n      pop\n        /* \"#utility.yul\":6983:7003   */\n      tag_143\n        /* \"#utility.yul\":7001:7002   */\n      dup4\n        /* \"#utility.yul\":6983:7003   */\n      tag_104\n      jump\t// in\n    tag_143:\n        /* \"#utility.yul\":6978:7003   */\n      swap3\n      pop\n        /* \"#utility.yul\":7022:7023   */\n      dup3\n        /* \"#utility.yul\":7019:7020   */\n      dup3\n        /* \"#utility.yul\":7016:7024   */\n      lt\n        /* \"#utility.yul\":7013:7047   */\n      iszero\n      tag_144\n      jumpi\n        /* \"#utility.yul\":7027:7045   */\n      tag_145\n      tag_140\n      jump\t// in\n    tag_145:\n        /* \"#utility.yul\":7013:7047   */\n    tag_144:\n        /* \"#utility.yul\":7072:7073   */\n      dup3\n        /* \"#utility.yul\":7069:7070   */\n      dup3\n        /* \"#utility.yul\":7065:7074   */\n      sub\n        /* \"#utility.yul\":7057:7074   */\n      swap1\n      pop\n        /* \"#utility.yul\":6889:7080   */\n      swap3\n      swap2\n      pop\n      pop\n      jump\t// out\n        /* \"#utility.yul\":7086:7182   */\n    tag_63:\n        /* \"#utility.yul\":7123:7130   */\n      0x00\n        /* \"#utility.yul\":7152:7176   */\n      tag_147\n        /* \"#utility.yul\":7170:7175   */\n      dup3\n        /* \"#utility.yul\":7152:7176   */\n      tag_148\n      jump\t// in\n    tag_147:\n        /* \"#utility.yul\":7141:7176   */\n      swap1\n      pop\n        /* \"#utility.yul\":7086:7182   */\n      swap2\n      swap1\n      pop\n      jump\t// out\n        /* \"#utility.yul\":7188:7278   */\n    tag_72:\n        /* \"#utility.yul\":7222:7229   */\n      0x00\n        /* \"#utility.yul\":7265:7270   */\n      dup2\n        /* \"#utility.yul\":7258:7271   */\n      iszero\n        /* \"#utility.yul\":7251:7272   */\n      iszero\n        /* \"#utility.yul\":7240:7272   */\n      swap1\n      pop\n        /* \"#utility.yul\":7188:7278   */\n      swap2\n      swap1\n      pop\n      jump\t// out\n        /* \"#utility.yul\":7284:7410   */\n    tag_148:\n        /* \"#utility.yul\":7321:7328   */\n      0x00\n        /* \"#utility.yul\":7361:7403   */\n      0xffffffffffffffffffffffffffffffffffffffff\n        /* \"#utility.yul\":7354:7359   */\n      dup3\n        /* \"#utility.yul\":7350:7404   */\n      and\n        /* \"#utility.yul\":7339:7404   */\n      swap1\n      pop\n        /* \"#utility.yul\":7284:7410   */\n      swap2\n      swap1\n      pop\n      jump\t// out\n        /* \"#utility.yul\":7416:7493   */\n    tag_104:\n        /* \"#utility.yul\":7453:7460   */\n      0x00\n        /* \"#utility.yul\":7482:7487   */\n      dup2\n        /* \"#utility.yul\":7471:7487   */\n      swap1\n      pop\n        /* \"#utility.yul\":7416:7493   */\n      swap2\n      swap1\n      pop\n      jump\t// out\n        /* \"#utility.yul\":7499:7806   */\n    tag_80:\n        /* \"#utility.yul\":7567:7568   */\n      0x00\n        /* \"#utility.yul\":7577:7690   */\n    tag_153:\n        /* \"#utility.yul\":7591:7597   */\n      dup4\n        /* \"#utility.yul\":7588:7589   */\n      dup2\n        /* \"#utility.yul\":7585:7598   */\n      lt\n        /* \"#utility.yul\":7577:7690   */\n      iszero\n      tag_155\n      jumpi\n        /* \"#utility.yul\":7676:7677   */\n      dup1\n        /* \"#utility.yul\":7671:7674   */\n      dup3\n        /* \"#utility.yul\":7667:7678   */\n      add\n        /* \"#utility.yul\":7661:7679   */\n      mload\n        /* \"#utility.yul\":7657:7658   */\n      dup2\n        /* \"#utility.yul\":7652:7655   */\n      dup5\n        /* \"#utility.yul\":7648:7659   */\n      add\n        /* \"#utility.yul\":7641:7680   */\n      mstore\n        /* \"#utility.yul\":7613:7615   */\n      0x20\n        /* \"#utility.yul\":7610:7611   */\n      dup2\n        /* \"#utility.yul\":7606:7616   */\n      add\n        /* \"#utility.yul\":7601:7616   */\n      swap1\n      pop\n        /* \"#utility.yul\":7577:7690   */\n      jump(tag_153)\n    tag_155:\n        /* \"#utility.yul\":7708:7714   */\n      dup4\n        /* \"#utility.yul\":7705:7706   */\n      dup2\n        /* \"#utility.yul\":7702:7715   */\n      gt\n        /* \"#utility.yul\":7699:7800   */\n      iszero\n      tag_156\n      jumpi\n        /* \"#utility.yul\":7788:7789   */\n      0x00\n        /* \"#utility.yul\":7779:7785   */\n      dup5\n        /* \"#utility.yul\":7774:7777   */\n      dup5\n        /* \"#utility.yul\":7770:7786   */\n      add\n        /* \"#utility.yul\":7763:7790   */\n      mstore\n        /* \"#utility.yul\":7699:7800   */\n    tag_156:\n        /* \"#utility.yul\":7548:7806   */\n      pop\n        /* \"#utility.yul\":7499:7806   */\n      pop\n      pop\n      pop\n      jump\t// out\n        /* \"#utility.yul\":7812:7912   */\n    tag_68:\n        /* \"#utility.yul\":7851:7858   */\n      0x00\n        /* \"#utility.yul\":7880:7906   */\n      tag_158\n        /* \"#utility.yul\":7900:7905   */\n      dup3\n        /* \"#utility.yul\":7880:7906   */\n      tag_159\n      jump\t// in\n    tag_158:\n        /* \"#utility.yul\":7869:7906   */\n      swap1\n      pop\n        /* \"#utility.yul\":7812:7912   */\n      swap2\n      swap1\n      pop\n      jump\t// out\n        /* \"#utility.yul\":7918:8012   */\n    tag_159:\n        /* \"#utility.yul\":7957:7964   */\n      0x00\n        /* \"#utility.yul\":7986:8006   */\n      tag_161\n        /* \"#utility.yul\":8000:8005   */\n      dup3\n        /* \"#utility.yul\":7986:8006   */\n      tag_162\n      jump\t// in\n    tag_161:\n        /* \"#utility.yul\":7975:8006   */\n      swap1\n      pop\n        /* \"#utility.yul\":7918:8012   */\n      swap2\n      swap1\n      pop\n      jump\t// out\n        /* \"#utility.yul\":8018:8097   */\n    tag_109:\n        /* \"#utility.yul\":8057:8064   */\n      0x00\n        /* \"#utility.yul\":8086:8091   */\n      dup2\n        /* \"#utility.yul\":8075:8091   */\n      swap1\n      pop\n        /* \"#utility.yul\":8018:8097   */\n      swap2\n      swap1\n      pop\n      jump\t// out\n        /* \"#utility.yul\":8103:8283   */\n    tag_140:\n        /* \"#utility.yul\":8151:8228   */\n      0x4e487b7100000000000000000000000000000000000000000000000000000000\n        /* \"#utility.yul\":8148:8149   */\n      0x00\n        /* \"#utility.yul\":8141:8229   */\n      mstore\n        /* \"#utility.yul\":8248:8252   */\n      0x11\n        /* \"#utility.yul\":8245:8246   */\n      0x04\n        /* \"#utility.yul\":8238:8253   */\n      mstore\n        /* \"#utility.yul\":8272:8276   */\n      0x24\n        /* \"#utility.yul\":8269:8270   */\n      0x00\n        /* \"#utility.yul\":8262:8277   */\n      revert\n        /* \"#utility.yul\":8412:8529   */\n    tag_56:\n        /* \"#utility.yul\":8521:8522   */\n      0x00\n        /* \"#utility.yul\":8518:8519   */\n      dup1\n        /* \"#utility.yul\":8511:8523   */\n      revert\n        /* \"#utility.yul\":8535:8637   */\n    tag_82:\n        /* \"#utility.yul\":8576:8582   */\n      0x00\n        /* \"#utility.yul\":8627:8629   */\n      0x1f\n        /* \"#utility.yul\":8623:8630   */\n      not\n        /* \"#utility.yul\":8618:8620   */\n      0x1f\n        /* \"#utility.yul\":8611:8616   */\n      dup4\n        /* \"#utility.yul\":8607:8621   */\n      add\n        /* \"#utility.yul\":8603:8631   */\n      and\n        /* \"#utility.yul\":8593:8631   */\n      swap1\n      pop\n        /* \"#utility.yul\":8535:8637   */\n      swap2\n      swap1\n      pop\n      jump\t// out\n        /* \"#utility.yul\":8643:8737   */\n    tag_162:\n        /* \"#utility.yul\":8676:8684   */\n      0x00\n        /* \"#utility.yul\":8724:8729   */\n      dup2\n        /* \"#utility.yul\":8720:8722   */\n      0x60\n        /* \"#utility.yul\":8716:8730   */\n      shl\n        /* \"#utility.yul\":8695:8730   */\n      swap1\n      pop\n        /* \"#utility.yul\":8643:8737   */\n      swap2\n      swap1\n      pop\n      jump\t// out\n        /* \"#utility.yul\":8743:8968   */\n    tag_94:\n        /* \"#utility.yul\":8883:8917   */\n      0x6368616e676542616c616e636528616464726573732c616464726573732c7569\n        /* \"#utility.yul\":8879:8880   */\n      0x00\n        /* \"#utility.yul\":8871:8877   */\n      dup3\n        /* \"#utility.yul\":8867:8881   */\n      add\n        /* \"#utility.yul\":8860:8918   */\n      mstore\n        /* \"#utility.yul\":8952:8960   */\n      0x6e74323536290000000000000000000000000000000000000000000000000000\n        /* \"#utility.yul\":8947:8949   */\n      0x20\n        /* \"#utility.yul\":8939:8945   */\n      dup3\n        /* \"#utility.yul\":8935:8950   */\n      add\n        /* \"#utility.yul\":8928:8961   */\n      mstore\n        /* \"#utility.yul\":8743:8968   */\n      pop\n      jump\t// out\n        /* \"#utility.yul\":8974:9137   */\n    tag_100:\n        /* \"#utility.yul\":9114:9129   */\n      0x4e6f7420746865204f776e657200000000000000000000000000000000000000\n        /* \"#utility.yul\":9110:9111   */\n      0x00\n        /* \"#utility.yul\":9102:9108   */\n      dup3\n        /* \"#utility.yul\":9098:9112   */\n      add\n        /* \"#utility.yul\":9091:9130   */\n      mstore\n        /* \"#utility.yul\":8974:9137   */\n      pop\n      jump\t// out\n        /* \"#utility.yul\":9143:9265   */\n    tag_48:\n        /* \"#utility.yul\":9216:9240   */\n      tag_173\n        /* \"#utility.yul\":9234:9239   */\n      dup2\n        /* \"#utility.yul\":9216:9240   */\n      tag_63\n      jump\t// in\n    tag_173:\n        /* \"#utility.yul\":9209:9214   */\n      dup2\n        /* \"#utility.yul\":9206:9241   */\n      eq\n        /* \"#utility.yul\":9196:9259   */\n      tag_174\n      jumpi\n        /* \"#utility.yul\":9255:9256   */\n      0x00\n        /* \"#utility.yul\":9252:9253   */\n      dup1\n        /* \"#utility.yul\":9245:9257   */\n      revert\n        /* \"#utility.yul\":9196:9259   */\n    tag_174:\n        /* \"#utility.yul\":9143:9265   */\n      pop\n      jump\t// out\n        /* \"#utility.yul\":9271:9393   */\n    tag_52:\n        /* \"#utility.yul\":9344:9368   */\n      tag_176\n        /* \"#utility.yul\":9362:9367   */\n      dup2\n        /* \"#utility.yul\":9344:9368   */\n      tag_104\n      jump\t// in\n    tag_176:\n        /* \"#utility.yul\":9337:9342   */\n      dup2\n        /* \"#utility.yul\":9334:9369   */\n      eq\n        /* \"#utility.yul\":9324:9387   */\n      tag_177\n      jumpi\n        /* \"#utility.yul\":9383:9384   */\n      0x00\n        /* \"#utility.yul\":9380:9381   */\n      dup1\n        /* \"#utility.yul\":9373:9385   */\n      revert\n        /* \"#utility.yul\":9324:9387   */\n    tag_177:\n        /* \"#utility.yul\":9271:9393   */\n      pop\n      jump\t// out\n\n    auxdata: 0xa2646970667358221220d8052df299d9b3bc3f48afd56fadc7bf4b842e56f81f89f16b0f9d52ef5a8f6864736f6c63430008070033\n}\n",
				"bytecode": {
					"linkReferences": {},
					"object": "608060405234801561001057600080fd5b50336000806101000a81548173ffffffffffffffffffffffffffffffffffffffff021916908373ffffffffffffffffffffffffffffffffffffffff1602179055506108cb806100606000396000f3fe6080604052600436106100385760003560e01c806316c0aefd1461009a578063bf152765146100b6578063d9caed12146100e157610095565b366100955734600160003373ffffffffffffffffffffffffffffffffffffffff1673ffffffffffffffffffffffffffffffffffffffff168152602001908152602001600020600082825461008c919061066a565b92505081905550005b600080fd5b6100b460048036038101906100af91906103c8565b61010a565b005b3480156100c257600080fd5b506100cb6101f6565b6040516100d8919061060c565b60405180910390f35b3480156100ed57600080fd5b50610108600480360381019061010391906103c8565b61023d565b005b80600160008573ffffffffffffffffffffffffffffffffffffffff1673ffffffffffffffffffffffffffffffffffffffff1681526020019081526020016000206000828254610159919061066a565b9250508190555080600160008473ffffffffffffffffffffffffffffffffffffffff1673ffffffffffffffffffffffffffffffffffffffff16815260200190815260200160002060008282546101af91906106c0565b925050819055507fd53683c2ddbfbeaa0862bf4bb2ad12d32e889a7539dde25b42322b1139dd5c438383836040516101e993929190610585565b60405180910390a1505050565b6000600160003373ffffffffffffffffffffffffffffffffffffffff1673ffffffffffffffffffffffffffffffffffffffff16815260200190815260200160002054905090565b60008054906101000a900473ffffffffffffffffffffffffffffffffffffffff1673ffffffffffffffffffffffffffffffffffffffff163373ffffffffffffffffffffffffffffffffffffffff16146102cb576040517f08c379a00000000000000000000000000000000000000000000000000000000081526004016102c2906105ec565b60405180910390fd5b6000808473ffffffffffffffffffffffffffffffffffffffff16838686866040516020016102fb9392919061053d565b6040516020818303038152906040526040516103179190610526565b60006040518083038185875af1925050503d8060008114610354576040519150601f19603f3d011682016040523d82523d6000602084013e610359565b606091505b50915091507f211793e58f00b3e734d024ba6cd956e5c3371570ce2f36886f32d842cc67e236828260405161038f9291906105bc565b60405180910390a15050505050565b6000813590506103ad81610867565b92915050565b6000813590506103c28161087e565b92915050565b6000806000606084860312156103e1576103e06107cc565b5b60006103ef8682870161039e565b93505060206104008682870161039e565b9250506040610411868287016103b3565b9150509250925092565b610424816106f4565b82525050565b61043b610436826106f4565b61076f565b82525050565b61044a81610706565b82525050565b600061045b82610627565b6104658185610632565b935061047581856020860161073c565b61047e816107d1565b840191505092915050565b600061049482610627565b61049e8185610643565b93506104ae81856020860161073c565b80840191505092915050565b60006104c760268361065f565b91506104d2826107ef565b602682019050919050565b60006104ea600d8361064e565b91506104f58261083e565b602082019050919050565b61050981610732565b82525050565b61052061051b82610732565b610793565b82525050565b60006105328284610489565b915081905092915050565b6000610548826104ba565b9150610554828661042a565b601482019150610564828561042a565b601482019150610574828461050f565b602082019150819050949350505050565b600060608201905061059a600083018661041b565b6105a7602083018561041b565b6105b46040830184610500565b949350505050565b60006040820190506105d16000830185610441565b81810360208301526105e38184610450565b90509392505050565b60006020820190508181036000830152610605816104dd565b9050919050565b60006020820190506106216000830184610500565b92915050565b600081519050919050565b600082825260208201905092915050565b600081905092915050565b600082825260208201905092915050565b600081905092915050565b600061067582610732565b915061068083610732565b9250827fffffffffffffffffffffffffffffffffffffffffffffffffffffffffffffffff038211156106b5576106b461079d565b5b828201905092915050565b60006106cb82610732565b91506106d683610732565b9250828210156106e9576106e861079d565b5b828203905092915050565b60006106ff82610712565b9050919050565b60008115159050919050565b600073ffffffffffffffffffffffffffffffffffffffff82169050919050565b6000819050919050565b60005b8381101561075a57808201518184015260208101905061073f565b83811115610769576000848401525b50505050565b600061077a82610781565b9050919050565b600061078c826107e2565b9050919050565b6000819050919050565b7f4e487b7100000000000000000000000000000000000000000000000000000000600052601160045260246000fd5b600080fd5b6000601f19601f8301169050919050565b60008160601b9050919050565b7f6368616e676542616c616e636528616464726573732c616464726573732c756960008201527f6e74323536290000000000000000000000000000000000000000000000000000602082015250565b7f4e6f7420746865204f776e657200000000000000000000000000000000000000600082015250565b610870816106f4565b811461087b57600080fd5b50565b61088781610732565b811461089257600080fd5b5056fea2646970667358221220d8052df299d9b3bc3f48afd56fadc7bf4b842e56f81f89f16b0f9d52ef5a8f6864736f6c63430008070033",
					"opcodes": "PUSH1 0x80 PUSH1 0x40 MSTORE CALLVALUE DUP1 ISZERO PUSH2 0x10 JUMPI PUSH1 0x0 DUP1 REVERT JUMPDEST POP CALLER PUSH1 0x0 DUP1 PUSH2 0x100 EXP DUP2 SLOAD DUP2 PUSH20 0xFFFFFFFFFFFFFFFFFFFFFFFFFFFFFFFFFFFFFFFF MUL NOT AND SWAP1 DUP4 PUSH20 0xFFFFFFFFFFFFFFFFFFFFFFFFFFFFFFFFFFFFFFFF AND MUL OR SWAP1 SSTORE POP PUSH2 0x8CB DUP1 PUSH2 0x60 PUSH1 0x0 CODECOPY PUSH1 0x0 RETURN INVALID PUSH1 0x80 PUSH1 0x40 MSTORE PUSH1 0x4 CALLDATASIZE LT PUSH2 0x38 JUMPI PUSH1 0x0 CALLDATALOAD PUSH1 0xE0 SHR DUP1 PUSH4 0x16C0AEFD EQ PUSH2 0x9A JUMPI DUP1 PUSH4 0xBF152765 EQ PUSH2 0xB6 JUMPI DUP1 PUSH4 0xD9CAED12 EQ PUSH2 0xE1 JUMPI PUSH2 0x95 JUMP JUMPDEST CALLDATASIZE PUSH2 0x95 JUMPI CALLVALUE PUSH1 0x1 PUSH1 0x0 CALLER PUSH20 0xFFFFFFFFFFFFFFFFFFFFFFFFFFFFFFFFFFFFFFFF AND PUSH20 0xFFFFFFFFFFFFFFFFFFFFFFFFFFFFFFFFFFFFFFFF AND DUP2 MSTORE PUSH1 0x20 ADD SWAP1 DUP2 MSTORE PUSH1 0x20 ADD PUSH1 0x0 KECCAK256 PUSH1 0x0 DUP3 DUP3 SLOAD PUSH2 0x8C SWAP2 SWAP1 PUSH2 0x66A JUMP JUMPDEST SWAP3 POP POP DUP2 SWAP1 SSTORE POP STOP JUMPDEST PUSH1 0x0 DUP1 REVERT JUMPDEST PUSH2 0xB4 PUSH1 0x4 DUP1 CALLDATASIZE SUB DUP2 ADD SWAP1 PUSH2 0xAF SWAP2 SWAP1 PUSH2 0x3C8 JUMP JUMPDEST PUSH2 0x10A JUMP JUMPDEST STOP JUMPDEST CALLVALUE DUP1 ISZERO PUSH2 0xC2 JUMPI PUSH1 0x0 DUP1 REVERT JUMPDEST POP PUSH2 0xCB PUSH2 0x1F6 JUMP JUMPDEST PUSH1 0x40 MLOAD PUSH2 0xD8 SWAP2 SWAP1 PUSH2 0x60C JUMP JUMPDEST PUSH1 0x40 MLOAD DUP1 SWAP2 SUB SWAP1 RETURN JUMPDEST CALLVALUE DUP1 ISZERO PUSH2 0xED JUMPI PUSH1 0x0 DUP1 REVERT JUMPDEST POP PUSH2 0x108 PUSH1 0x4 DUP1 CALLDATASIZE SUB DUP2 ADD SWAP1 PUSH2 0x103 SWAP2 SWAP1 PUSH2 0x3C8 JUMP JUMPDEST PUSH2 0x23D JUMP JUMPDEST STOP JUMPDEST DUP1 PUSH1 0x1 PUSH1 0x0 DUP6 PUSH20 0xFFFFFFFFFFFFFFFFFFFFFFFFFFFFFFFFFFFFFFFF AND PUSH20 0xFFFFFFFFFFFFFFFFFFFFFFFFFFFFFFFFFFFFFFFF AND DUP2 MSTORE PUSH1 0x20 ADD SWAP1 DUP2 MSTORE PUSH1 0x20 ADD PUSH1 0x0 KECCAK256 PUSH1 0x0 DUP3 DUP3 SLOAD PUSH2 0x159 SWAP2 SWAP1 PUSH2 0x66A JUMP JUMPDEST SWAP3 POP POP DUP2 SWAP1 SSTORE POP DUP1 PUSH1 0x1 PUSH1 0x0 DUP5 PUSH20 0xFFFFFFFFFFFFFFFFFFFFFFFFFFFFFFFFFFFFFFFF AND PUSH20 0xFFFFFFFFFFFFFFFFFFFFFFFFFFFFFFFFFFFFFFFF AND DUP2 MSTORE PUSH1 0x20 ADD SWAP1 DUP2 MSTORE PUSH1 0x20 ADD PUSH1 0x0 KECCAK256 PUSH1 0x0 DUP3 DUP3 SLOAD PUSH2 0x1AF SWAP2 SWAP1 PUSH2 0x6C0 JUMP JUMPDEST SWAP3 POP POP DUP2 SWAP1 SSTORE POP PUSH32 0xD53683C2DDBFBEAA0862BF4BB2AD12D32E889A7539DDE25B42322B1139DD5C43 DUP4 DUP4 DUP4 PUSH1 0x40 MLOAD PUSH2 0x1E9 SWAP4 SWAP3 SWAP2 SWAP1 PUSH2 0x585 JUMP JUMPDEST PUSH1 0x40 MLOAD DUP1 SWAP2 SUB SWAP1 LOG1 POP POP POP JUMP JUMPDEST PUSH1 0x0 PUSH1 0x1 PUSH1 0x0 CALLER PUSH20 0xFFFFFFFFFFFFFFFFFFFFFFFFFFFFFFFFFFFFFFFF AND PUSH20 0xFFFFFFFFFFFFFFFFFFFFFFFFFFFFFFFFFFFFFFFF AND DUP2 MSTORE PUSH1 0x20 ADD SWAP1 DUP2 MSTORE PUSH1 0x20 ADD PUSH1 0x0 KECCAK256 SLOAD SWAP1 POP SWAP1 JUMP JUMPDEST PUSH1 0x0 DUP1 SLOAD SWAP1 PUSH2 0x100 EXP SWAP1 DIV PUSH20 0xFFFFFFFFFFFFFFFFFFFFFFFFFFFFFFFFFFFFFFFF AND PUSH20 0xFFFFFFFFFFFFFFFFFFFFFFFFFFFFFFFFFFFFFFFF AND CALLER PUSH20 0xFFFFFFFFFFFFFFFFFFFFFFFFFFFFFFFFFFFFFFFF AND EQ PUSH2 0x2CB JUMPI PUSH1 0x40 MLOAD PUSH32 0x8C379A000000000000000000000000000000000000000000000000000000000 DUP2 MSTORE PUSH1 0x4 ADD PUSH2 0x2C2 SWAP1 PUSH2 0x5EC JUMP JUMPDEST PUSH1 0x40 MLOAD DUP1 SWAP2 SUB SWAP1 REVERT JUMPDEST PUSH1 0x0 DUP1 DUP5 PUSH20 0xFFFFFFFFFFFFFFFFFFFFFFFFFFFFFFFFFFFFFFFF AND DUP4 DUP7 DUP7 DUP7 PUSH1 0x40 MLOAD PUSH1 0x20 ADD PUSH2 0x2FB SWAP4 SWAP3 SWAP2 SWAP1 PUSH2 0x53D JUMP JUMPDEST PUSH1 0x40 MLOAD PUSH1 0x20 DUP2 DUP4 SUB SUB DUP2 MSTORE SWAP1 PUSH1 0x40 MSTORE PUSH1 0x40 MLOAD PUSH2 0x317 SWAP2 SWAP1 PUSH2 0x526 JUMP JUMPDEST PUSH1 0x0 PUSH1 0x40 MLOAD DUP1 DUP4 SUB DUP2 DUP6 DUP8 GAS CALL SWAP3 POP POP POP RETURNDATASIZE DUP1 PUSH1 0x0 DUP2 EQ PUSH2 0x354 JUMPI PUSH1 0x40 MLOAD SWAP2 POP PUSH1 0x1F NOT PUSH1 0x3F RETURNDATASIZE ADD AND DUP3 ADD PUSH1 0x40 MSTORE RETURNDATASIZE DUP3 MSTORE RETURNDATASIZE PUSH1 0x0 PUSH1 0x20 DUP5 ADD RETURNDATACOPY PUSH2 0x359 JUMP JUMPDEST PUSH1 0x60 SWAP2 POP JUMPDEST POP SWAP2 POP SWAP2 POP PUSH32 0x211793E58F00B3E734D024BA6CD956E5C3371570CE2F36886F32D842CC67E236 DUP3 DUP3 PUSH1 0x40 MLOAD PUSH2 0x38F SWAP3 SWAP2 SWAP1 PUSH2 0x5BC JUMP JUMPDEST PUSH1 0x40 MLOAD DUP1 SWAP2 SUB SWAP1 LOG1 POP POP POP POP POP JUMP JUMPDEST PUSH1 0x0 DUP2 CALLDATALOAD SWAP1 POP PUSH2 0x3AD DUP2 PUSH2 0x867 JUMP JUMPDEST SWAP3 SWAP2 POP POP JUMP JUMPDEST PUSH1 0x0 DUP2 CALLDATALOAD SWAP1 POP PUSH2 0x3C2 DUP2 PUSH2 0x87E JUMP JUMPDEST SWAP3 SWAP2 POP POP JUMP JUMPDEST PUSH1 0x0 DUP1 PUSH1 0x0 PUSH1 0x60 DUP5 DUP7 SUB SLT ISZERO PUSH2 0x3E1 JUMPI PUSH2 0x3E0 PUSH2 0x7CC JUMP JUMPDEST JUMPDEST PUSH1 0x0 PUSH2 0x3EF DUP7 DUP3 DUP8 ADD PUSH2 0x39E JUMP JUMPDEST SWAP4 POP POP PUSH1 0x20 PUSH2 0x400 DUP7 DUP3 DUP8 ADD PUSH2 0x39E JUMP JUMPDEST SWAP3 POP POP PUSH1 0x40 PUSH2 0x411 DUP7 DUP3 DUP8 ADD PUSH2 0x3B3 JUMP JUMPDEST SWAP2 POP POP SWAP3 POP SWAP3 POP SWAP3 JUMP JUMPDEST PUSH2 0x424 DUP2 PUSH2 0x6F4 JUMP JUMPDEST DUP3 MSTORE POP POP JUMP JUMPDEST PUSH2 0x43B PUSH2 0x436 DUP3 PUSH2 0x6F4 JUMP JUMPDEST PUSH2 0x76F JUMP JUMPDEST DUP3 MSTORE POP POP JUMP JUMPDEST PUSH2 0x44A DUP2 PUSH2 0x706 JUMP JUMPDEST DUP3 MSTORE POP POP JUMP JUMPDEST PUSH1 0x0 PUSH2 0x45B DUP3 PUSH2 0x627 JUMP JUMPDEST PUSH2 0x465 DUP2 DUP6 PUSH2 0x632 JUMP JUMPDEST SWAP4 POP PUSH2 0x475 DUP2 DUP6 PUSH1 0x20 DUP7 ADD PUSH2 0x73C JUMP JUMPDEST PUSH2 0x47E DUP2 PUSH2 0x7D1 JUMP JUMPDEST DUP5 ADD SWAP2 POP POP SWAP3 SWAP2 POP POP JUMP JUMPDEST PUSH1 0x0 PUSH2 0x494 DUP3 PUSH2 0x627 JUMP JUMPDEST PUSH2 0x49E DUP2 DUP6 PUSH2 0x643 JUMP JUMPDEST SWAP4 POP PUSH2 0x4AE DUP2 DUP6 PUSH1 0x20 DUP7 ADD PUSH2 0x73C JUMP JUMPDEST DUP1 DUP5 ADD SWAP2 POP POP SWAP3 SWAP2 POP POP JUMP JUMPDEST PUSH1 0x0 PUSH2 0x4C7 PUSH1 0x26 DUP4 PUSH2 0x65F JUMP JUMPDEST SWAP2 POP PUSH2 0x4D2 DUP3 PUSH2 0x7EF JUMP JUMPDEST PUSH1 0x26 DUP3 ADD SWAP1 POP SWAP2 SWAP1 POP JUMP JUMPDEST PUSH1 0x0 PUSH2 0x4EA PUSH1 0xD DUP4 PUSH2 0x64E JUMP JUMPDEST SWAP2 POP PUSH2 0x4F5 DUP3 PUSH2 0x83E JUMP JUMPDEST PUSH1 0x20 DUP3 ADD SWAP1 POP SWAP2 SWAP1 POP JUMP JUMPDEST PUSH2 0x509 DUP2 PUSH2 0x732 JUMP JUMPDEST DUP3 MSTORE POP POP JUMP JUMPDEST PUSH2 0x520 PUSH2 0x51B DUP3 PUSH2 0x732 JUMP JUMPDEST PUSH2 0x793 JUMP JUMPDEST DUP3 MSTORE POP POP JUMP JUMPDEST PUSH1 0x0 PUSH2 0x532 DUP3 DUP5 PUSH2 0x489 JUMP JUMPDEST SWAP2 POP DUP2 SWAP1 POP SWAP3 SWAP2 POP POP JUMP JUMPDEST PUSH1 0x0 PUSH2 0x548 DUP3 PUSH2 0x4BA JUMP JUMPDEST SWAP2 POP PUSH2 0x554 DUP3 DUP7 PUSH2 0x42A JUMP JUMPDEST PUSH1 0x14 DUP3 ADD SWAP2 POP PUSH2 0x564 DUP3 DUP6 PUSH2 0x42A JUMP JUMPDEST PUSH1 0x14 DUP3 ADD SWAP2 POP PUSH2 0x574 DUP3 DUP5 PUSH2 0x50F JUMP JUMPDEST PUSH1 0x20 DUP3 ADD SWAP2 POP DUP2 SWAP1 POP SWAP5 SWAP4 POP POP POP POP JUMP JUMPDEST PUSH1 0x0 PUSH1 0x60 DUP3 ADD SWAP1 POP PUSH2 0x59A PUSH1 0x0 DUP4 ADD DUP7 PUSH2 0x41B JUMP JUMPDEST PUSH2 0x5A7 PUSH1 0x20 DUP4 ADD DUP6 PUSH2 0x41B JUMP JUMPDEST PUSH2 0x5B4 PUSH1 0x40 DUP4 ADD DUP5 PUSH2 0x500 JUMP JUMPDEST SWAP5 SWAP4 POP POP POP POP JUMP JUMPDEST PUSH1 0x0 PUSH1 0x40 DUP3 ADD SWAP1 POP PUSH2 0x5D1 PUSH1 0x0 DUP4 ADD DUP6 PUSH2 0x441 JUMP JUMPDEST DUP2 DUP2 SUB PUSH1 0x20 DUP4 ADD MSTORE PUSH2 0x5E3 DUP2 DUP5 PUSH2 0x450 JUMP JUMPDEST SWAP1 POP SWAP4 SWAP3 POP POP POP JUMP JUMPDEST PUSH1 0x0 PUSH1 0x20 DUP3 ADD SWAP1 POP DUP2 DUP2 SUB PUSH1 0x0 DUP4 ADD MSTORE PUSH2 0x605 DUP2 PUSH2 0x4DD JUMP JUMPDEST SWAP1 POP SWAP2 SWAP1 POP JUMP JUMPDEST PUSH1 0x0 PUSH1 0x20 DUP3 ADD SWAP1 POP PUSH2 0x621 PUSH1 0x0 DUP4 ADD DUP5 PUSH2 0x500 JUMP JUMPDEST SWAP3 SWAP2 POP POP JUMP JUMPDEST PUSH1 0x0 DUP2 MLOAD SWAP1 POP SWAP2 SWAP1 POP JUMP JUMPDEST PUSH1 0x0 DUP3 DUP3 MSTORE PUSH1 0x20 DUP3 ADD SWAP1 POP SWAP3 SWAP2 POP POP JUMP JUMPDEST PUSH1 0x0 DUP2 SWAP1 POP SWAP3 SWAP2 POP POP JUMP JUMPDEST PUSH1 0x0 DUP3 DUP3 MSTORE PUSH1 0x20 DUP3 ADD SWAP1 POP SWAP3 SWAP2 POP POP JUMP JUMPDEST PUSH1 0x0 DUP2 SWAP1 POP SWAP3 SWAP2 POP POP JUMP JUMPDEST PUSH1 0x0 PUSH2 0x675 DUP3 PUSH2 0x732 JUMP JUMPDEST SWAP2 POP PUSH2 0x680 DUP4 PUSH2 0x732 JUMP JUMPDEST SWAP3 POP DUP3 PUSH32 0xFFFFFFFFFFFFFFFFFFFFFFFFFFFFFFFFFFFFFFFFFFFFFFFFFFFFFFFFFFFFFFFF SUB DUP3 GT ISZERO PUSH2 0x6B5 JUMPI PUSH2 0x6B4 PUSH2 0x79D JUMP JUMPDEST JUMPDEST DUP3 DUP3 ADD SWAP1 POP SWAP3 SWAP2 POP POP JUMP JUMPDEST PUSH1 0x0 PUSH2 0x6CB DUP3 PUSH2 0x732 JUMP JUMPDEST SWAP2 POP PUSH2 0x6D6 DUP4 PUSH2 0x732 JUMP JUMPDEST SWAP3 POP DUP3 DUP3 LT ISZERO PUSH2 0x6E9 JUMPI PUSH2 0x6E8 PUSH2 0x79D JUMP JUMPDEST JUMPDEST DUP3 DUP3 SUB SWAP1 POP SWAP3 SWAP2 POP POP JUMP JUMPDEST PUSH1 0x0 PUSH2 0x6FF DUP3 PUSH2 0x712 JUMP JUMPDEST SWAP1 POP SWAP2 SWAP1 POP JUMP JUMPDEST PUSH1 0x0 DUP2 ISZERO ISZERO SWAP1 POP SWAP2 SWAP1 POP JUMP JUMPDEST PUSH1 0x0 PUSH20 0xFFFFFFFFFFFFFFFFFFFFFFFFFFFFFFFFFFFFFFFF DUP3 AND SWAP1 POP SWAP2 SWAP1 POP JUMP JUMPDEST PUSH1 0x0 DUP2 SWAP1 POP SWAP2 SWAP1 POP JUMP JUMPDEST PUSH1 0x0 JUMPDEST DUP4 DUP2 LT ISZERO PUSH2 0x75A JUMPI DUP1 DUP3 ADD MLOAD DUP2 DUP5 ADD MSTORE PUSH1 0x20 DUP2 ADD SWAP1 POP PUSH2 0x73F JUMP JUMPDEST DUP4 DUP2 GT ISZERO PUSH2 0x769 JUMPI PUSH1 0x0 DUP5 DUP5 ADD MSTORE JUMPDEST POP POP POP POP JUMP JUMPDEST PUSH1 0x0 PUSH2 0x77A DUP3 PUSH2 0x781 JUMP JUMPDEST SWAP1 POP SWAP2 SWAP1 POP JUMP JUMPDEST PUSH1 0x0 PUSH2 0x78C DUP3 PUSH2 0x7E2 JUMP JUMPDEST SWAP1 POP SWAP2 SWAP1 POP JUMP JUMPDEST PUSH1 0x0 DUP2 SWAP1 POP SWAP2 SWAP1 POP JUMP JUMPDEST PUSH32 0x4E487B7100000000000000000000000000000000000000000000000000000000 PUSH1 0x0 MSTORE PUSH1 0x11 PUSH1 0x4 MSTORE PUSH1 0x24 PUSH1 0x0 REVERT JUMPDEST PUSH1 0x0 DUP1 REVERT JUMPDEST PUSH1 0x0 PUSH1 0x1F NOT PUSH1 0x1F DUP4 ADD AND SWAP1 POP SWAP2 SWAP1 POP JUMP JUMPDEST PUSH1 0x0 DUP2 PUSH1 0x60 SHL SWAP1 POP SWAP2 SWAP1 POP JUMP JUMPDEST PUSH32 0x6368616E676542616C616E636528616464726573732C616464726573732C7569 PUSH1 0x0 DUP3 ADD MSTORE PUSH32 0x6E74323536290000000000000000000000000000000000000000000000000000 PUSH1 0x20 DUP3 ADD MSTORE POP JUMP JUMPDEST PUSH32 0x4E6F7420746865204F776E657200000000000000000000000000000000000000 PUSH1 0x0 DUP3 ADD MSTORE POP JUMP JUMPDEST PUSH2 0x870 DUP2 PUSH2 0x6F4 JUMP JUMPDEST DUP2 EQ PUSH2 0x87B JUMPI PUSH1 0x0 DUP1 REVERT JUMPDEST POP JUMP JUMPDEST PUSH2 0x887 DUP2 PUSH2 0x732 JUMP JUMPDEST DUP2 EQ PUSH2 0x892 JUMPI PUSH1 0x0 DUP1 REVERT JUMPDEST POP JUMP INVALID LOG2 PUSH5 0x6970667358 0x22 SLT KECCAK256 0xD8 SDIV 0x2D CALLCODE SWAP10 0xD9 0xB3 0xBC EXTCODEHASH BASEFEE 0xAF 0xD5 PUSH16 0xADC7BF4B842E56F81F89F16B0F9D52EF GAS DUP16 PUSH9 0x64736F6C6343000807 STOP CALLER "
				},
				"gasEstimates": {
					"creation": {
						"codeDepositCost": "450200",
						"executionCost": "24752",
						"totalCost": "474952"
					},
					"external": {
						"changeBalance(address,address,uint256)": "infinite",
						"userBalance()": "2526",
						"withdraw(address,address,uint256)": "infinite"
					}
				},
				"methodIdentifiers": {
					"changeBalance(address,address,uint256)": "16c0aefd",
					"userBalance()": "bf152765",
					"withdraw(address,address,uint256)": "d9caed12"
				}
			},
			"storageLayout": {
				"storage": [
					{
						"astId": 17,
						"contract": "contracts/EthersWallet.sol:EthersWallet",
						"label": "owner",
						"offset": 0,
						"slot": "0",
						"type": "t_address"
					},
					{
						"astId": 21,
						"contract": "contracts/EthersWallet.sol:EthersWallet",
						"label": "balances",
						"offset": 0,
						"slot": "1",
						"type": "t_mapping(t_address,t_uint256)"
					}
				],
				"types": {
					"t_address": {
						"encoding": "inplace",
						"label": "address",
						"numberOfBytes": "20"
					},
					"t_mapping(t_address,t_uint256)": {
						"encoding": "mapping",
						"key": "t_address",
						"label": "mapping(address => uint256)",
						"numberOfBytes": "32",
						"value": "t_uint256"
					},
					"t_uint256": {
						"encoding": "inplace",
						"label": "uint256",
						"numberOfBytes": "32"
					}
				}
			},
			"userdoc": {
				"kind": "user",
				"methods": {},
				"version": 1
			}
		}
	}
}