{
	"contracts/EthersWallet.sol": {
		"EthersWallet": {
			"abi": [
				{
					"inputs": [],
					"stateMutability": "nonpayable",
					"type": "constructor"
				},
				{
					"anonymous": false,
					"inputs": [
						{
							"indexed": false,
							"internalType": "bool",
							"name": "",
							"type": "bool"
						},
						{
							"indexed": false,
							"internalType": "bytes",
							"name": "",
							"type": "bytes"
						}
					],
					"name": "Transfered",
					"type": "event"
				},
				{
					"anonymous": false,
					"inputs": [
						{
							"indexed": false,
							"internalType": "address",
							"name": "",
							"type": "address"
						},
						{
							"indexed": false,
							"internalType": "address",
							"name": "",
							"type": "address"
						},
						{
							"indexed": false,
							"internalType": "uint256",
							"name": "",
							"type": "uint256"
						}
					],
					"name": "Transferring",
					"type": "event"
				},
				{
					"inputs": [
						{
							"internalType": "address",
							"name": "_to",
							"type": "address"
						},
						{
							"internalType": "address",
							"name": "_from",
							"type": "address"
						}
					],
					"name": "changeBalance",
					"outputs": [],
					"stateMutability": "payable",
					"type": "function"
				},
				{
					"inputs": [],
					"name": "userBalance",
					"outputs": [
						{
							"internalType": "uint256",
							"name": "",
							"type": "uint256"
						}
					],
					"stateMutability": "view",
					"type": "function"
				},
				{
					"inputs": [
						{
							"internalType": "address",
							"name": "_to",
							"type": "address"
						},
						{
							"internalType": "address",
							"name": "_from",
							"type": "address"
						},
						{
							"internalType": "uint256",
							"name": "_value",
							"type": "uint256"
						}
					],
					"name": "withdraw",
					"outputs": [],
					"stateMutability": "nonpayable",
					"type": "function"
				},
				{
					"stateMutability": "payable",
					"type": "receive"
				}
			],
			"devdoc": {
				"kind": "dev",
				"methods": {},
				"version": 1
			},
			"evm": {
				"assembly": "    /* \"contracts/EthersWallet.sol\":66:1275  contract EthersWallet {\r... */\n  mstore(0x40, 0x80)\n    /* \"contracts/EthersWallet.sol\":367:418  constructor() {\r... */\n  callvalue\n  dup1\n  iszero\n  tag_1\n  jumpi\n  0x00\n  dup1\n  revert\ntag_1:\n  pop\n    /* \"contracts/EthersWallet.sol\":400:410  msg.sender */\n  caller\n    /* \"contracts/EthersWallet.sol\":392:397  owner */\n  0x00\n  dup1\n    /* \"contracts/EthersWallet.sol\":392:410  owner = msg.sender */\n  0x0100\n  exp\n  dup2\n  sload\n  dup2\n  0xffffffffffffffffffffffffffffffffffffffff\n  mul\n  not\n  and\n  swap1\n  dup4\n  0xffffffffffffffffffffffffffffffffffffffff\n  and\n  mul\n  or\n  swap1\n  sstore\n  pop\n    /* \"contracts/EthersWallet.sol\":66:1275  contract EthersWallet {\r... */\n  dataSize(sub_0)\n  dup1\n  dataOffset(sub_0)\n  0x00\n  codecopy\n  0x00\n  return\nstop\n\nsub_0: assembly {\n        /* \"contracts/EthersWallet.sol\":66:1275  contract EthersWallet {\r... */\n      mstore(0x40, 0x80)\n      jumpi(tag_1, lt(calldatasize, 0x04))\n      shr(0xe0, calldataload(0x00))\n      dup1\n      0xbe434a2c\n      eq\n      tag_3\n      jumpi\n      dup1\n      0xbf152765\n      eq\n      tag_4\n      jumpi\n      dup1\n      0xd9caed12\n      eq\n      tag_5\n      jumpi\n      jump(tag_2)\n    tag_1:\n      jumpi(tag_2, calldatasize)\n        /* \"contracts/EthersWallet.sol\":585:594  msg.value */\n      callvalue\n        /* \"contracts/EthersWallet.sol\":561:569  balances */\n      0x01\n        /* \"contracts/EthersWallet.sol\":561:581  balances[msg.sender] */\n      0x00\n        /* \"contracts/EthersWallet.sol\":570:580  msg.sender */\n      caller\n        /* \"contracts/EthersWallet.sol\":561:581  balances[msg.sender] */\n      0xffffffffffffffffffffffffffffffffffffffff\n      and\n      0xffffffffffffffffffffffffffffffffffffffff\n      and\n      dup2\n      mstore\n      0x20\n      add\n      swap1\n      dup2\n      mstore\n      0x20\n      add\n      0x00\n      keccak256\n      0x00\n        /* \"contracts/EthersWallet.sol\":561:594  balances[msg.sender] += msg.value */\n      dup3\n      dup3\n      sload\n      tag_8\n      swap2\n      swap1\n      tag_9\n      jump\t// in\n    tag_8:\n      swap3\n      pop\n      pop\n      dup2\n      swap1\n      sstore\n      pop\n        /* \"contracts/EthersWallet.sol\":66:1275  contract EthersWallet {\r... */\n      stop\n    tag_2:\n      0x00\n      dup1\n      revert\n        /* \"contracts/EthersWallet.sol\":612:817  function changeBalance(address _to,address _from) external payable{\r... */\n    tag_3:\n      tag_10\n      0x04\n      dup1\n      calldatasize\n      sub\n      dup2\n      add\n      swap1\n      tag_11\n      swap2\n      swap1\n      tag_12\n      jump\t// in\n    tag_11:\n      tag_13\n      jump\t// in\n    tag_10:\n      stop\n        /* \"contracts/EthersWallet.sol\":1176:1272  function userBalance() external view returns(uint){\r... */\n    tag_4:\n      callvalue\n      dup1\n      iszero\n      tag_14\n      jumpi\n      0x00\n      dup1\n      revert\n    tag_14:\n      pop\n      tag_15\n      tag_16\n      jump\t// in\n    tag_15:\n      mload(0x40)\n      tag_17\n      swap2\n      swap1\n      tag_18\n      jump\t// in\n    tag_17:\n      mload(0x40)\n      dup1\n      swap2\n      sub\n      swap1\n      return\n        /* \"contracts/EthersWallet.sol\":825:1168  function withdraw(address _to,address _from, uint _value) external isOwner {\r... */\n    tag_5:\n      callvalue\n      dup1\n      iszero\n      tag_19\n      jumpi\n      0x00\n      dup1\n      revert\n    tag_19:\n      pop\n      tag_20\n      0x04\n      dup1\n      calldatasize\n      sub\n      dup2\n      add\n      swap1\n      tag_21\n      swap2\n      swap1\n      tag_22\n      jump\t// in\n    tag_21:\n      tag_23\n      jump\t// in\n    tag_20:\n      stop\n        /* \"contracts/EthersWallet.sol\":612:817  function changeBalance(address _to,address _from) external payable{\r... */\n    tag_13:\n        /* \"contracts/EthersWallet.sol\":708:717  msg.value */\n      callvalue\n        /* \"contracts/EthersWallet.sol\":691:699  balances */\n      0x01\n        /* \"contracts/EthersWallet.sol\":691:704  balances[_to] */\n      0x00\n        /* \"contracts/EthersWallet.sol\":700:703  _to */\n      dup5\n        /* \"contracts/EthersWallet.sol\":691:704  balances[_to] */\n      0xffffffffffffffffffffffffffffffffffffffff\n      and\n      0xffffffffffffffffffffffffffffffffffffffff\n      and\n      dup2\n      mstore\n      0x20\n      add\n      swap1\n      dup2\n      mstore\n      0x20\n      add\n      0x00\n      keccak256\n      0x00\n        /* \"contracts/EthersWallet.sol\":691:717  balances[_to] += msg.value */\n      dup3\n      dup3\n      sload\n      tag_25\n      swap2\n      swap1\n      tag_9\n      jump\t// in\n    tag_25:\n      swap3\n      pop\n      pop\n      dup2\n      swap1\n      sstore\n      pop\n        /* \"contracts/EthersWallet.sol\":747:756  msg.value */\n      callvalue\n        /* \"contracts/EthersWallet.sol\":728:736  balances */\n      0x01\n        /* \"contracts/EthersWallet.sol\":728:743  balances[_from] */\n      0x00\n        /* \"contracts/EthersWallet.sol\":737:742  _from */\n      dup4\n        /* \"contracts/EthersWallet.sol\":728:743  balances[_from] */\n      0xffffffffffffffffffffffffffffffffffffffff\n      and\n      0xffffffffffffffffffffffffffffffffffffffff\n      and\n      dup2\n      mstore\n      0x20\n      add\n      swap1\n      dup2\n      mstore\n      0x20\n      add\n      0x00\n      keccak256\n      0x00\n        /* \"contracts/EthersWallet.sol\":728:756  balances[_from] -= msg.value */\n      dup3\n      dup3\n      sload\n      tag_26\n      swap2\n      swap1\n      tag_27\n      jump\t// in\n    tag_26:\n      swap3\n      pop\n      pop\n      dup2\n      swap1\n      sstore\n      pop\n        /* \"contracts/EthersWallet.sol\":774:807  Transferring(_to,_from,msg.value) */\n      0xd53683c2ddbfbeaa0862bf4bb2ad12d32e889a7539dde25b42322b1139dd5c43\n        /* \"contracts/EthersWallet.sol\":787:790  _to */\n      dup3\n        /* \"contracts/EthersWallet.sol\":791:796  _from */\n      dup3\n        /* \"contracts/EthersWallet.sol\":797:806  msg.value */\n      callvalue\n        /* \"contracts/EthersWallet.sol\":774:807  Transferring(_to,_from,msg.value) */\n      mload(0x40)\n      tag_28\n      swap4\n      swap3\n      swap2\n      swap1\n      tag_29\n      jump\t// in\n    tag_28:\n      mload(0x40)\n      dup1\n      swap2\n      sub\n      swap1\n      log1\n        /* \"contracts/EthersWallet.sol\":612:817  function changeBalance(address _to,address _from) external payable{\r... */\n      pop\n      pop\n      jump\t// out\n        /* \"contracts/EthersWallet.sol\":1176:1272  function userBalance() external view returns(uint){\r... */\n    tag_16:\n        /* \"contracts/EthersWallet.sol\":1221:1225  uint */\n      0x00\n        /* \"contracts/EthersWallet.sol\":1244:1252  balances */\n      0x01\n        /* \"contracts/EthersWallet.sol\":1244:1264  balances[msg.sender] */\n      0x00\n        /* \"contracts/EthersWallet.sol\":1253:1263  msg.sender */\n      caller\n        /* \"contracts/EthersWallet.sol\":1244:1264  balances[msg.sender] */\n      0xffffffffffffffffffffffffffffffffffffffff\n      and\n      0xffffffffffffffffffffffffffffffffffffffff\n      and\n      dup2\n      mstore\n      0x20\n      add\n      swap1\n      dup2\n      mstore\n      0x20\n      add\n      0x00\n      keccak256\n      sload\n        /* \"contracts/EthersWallet.sol\":1237:1264  return balances[msg.sender] */\n      swap1\n      pop\n        /* \"contracts/EthersWallet.sol\":1176:1272  function userBalance() external view returns(uint){\r... */\n      swap1\n      jump\t// out\n        /* \"contracts/EthersWallet.sol\":825:1168  function withdraw(address _to,address _from, uint _value) external isOwner {\r... */\n    tag_23:\n        /* \"contracts/EthersWallet.sol\":312:317  owner */\n      0x00\n      dup1\n      sload\n      swap1\n      0x0100\n      exp\n      swap1\n      div\n      0xffffffffffffffffffffffffffffffffffffffff\n      and\n        /* \"contracts/EthersWallet.sol\":298:317  msg.sender == owner */\n      0xffffffffffffffffffffffffffffffffffffffff\n      and\n        /* \"contracts/EthersWallet.sol\":298:308  msg.sender */\n      caller\n        /* \"contracts/EthersWallet.sol\":298:317  msg.sender == owner */\n      0xffffffffffffffffffffffffffffffffffffffff\n      and\n      eq\n        /* \"contracts/EthersWallet.sol\":290:335  require(msg.sender == owner, \"Not the Owner\") */\n      tag_32\n      jumpi\n      mload(0x40)\n      0x08c379a000000000000000000000000000000000000000000000000000000000\n      dup2\n      mstore\n      0x04\n      add\n      tag_33\n      swap1\n      tag_34\n      jump\t// in\n    tag_33:\n      mload(0x40)\n      dup1\n      swap2\n      sub\n      swap1\n      revert\n    tag_32:\n        /* \"contracts/EthersWallet.sol\":913:925  bool success */\n      0x00\n        /* \"contracts/EthersWallet.sol\":927:944  bytes memory data */\n      dup1\n        /* \"contracts/EthersWallet.sol\":948:951  _to */\n      dup5\n        /* \"contracts/EthersWallet.sol\":948:956  _to.call */\n      0xffffffffffffffffffffffffffffffffffffffff\n      and\n        /* \"contracts/EthersWallet.sol\":964:970  _value */\n      dup4\n        /* \"contracts/EthersWallet.sol\":1030:1033  _to */\n      dup7\n        /* \"contracts/EthersWallet.sol\":1035:1040  _from */\n      dup7\n        /* \"contracts/EthersWallet.sol\":972:1041  abi.encodeWithSignature(\"changeBalance(address,address)\", _to, _from) */\n      add(0x24, mload(0x40))\n      tag_36\n      swap3\n      swap2\n      swap1\n      tag_37\n      jump\t// in\n    tag_36:\n      mload(0x40)\n      0x20\n      dup2\n      dup4\n      sub\n      sub\n      dup2\n      mstore\n      swap1\n      0x40\n      mstore\n      and(not(0xffffffffffffffffffffffffffffffffffffffffffffffffffffffff), 0xbe434a2c00000000000000000000000000000000000000000000000000000000)\n      0x20\n      dup3\n      add\n      dup1\n      mload\n      0xffffffffffffffffffffffffffffffffffffffffffffffffffffffff\n      dup4\n      dup2\n      dup4\n      and\n      or\n      dup4\n      mstore\n      pop\n      pop\n      pop\n      pop\n        /* \"contracts/EthersWallet.sol\":948:1042  _to.call{value: _value}(abi.encodeWithSignature(\"changeBalance(address,address)\", _to, _from)) */\n      mload(0x40)\n      tag_38\n      swap2\n      swap1\n      tag_39\n      jump\t// in\n    tag_38:\n      0x00\n      mload(0x40)\n      dup1\n      dup4\n      sub\n      dup2\n      dup6\n      dup8\n      gas\n      call\n      swap3\n      pop\n      pop\n      pop\n      returndatasize\n      dup1\n      0x00\n      dup2\n      eq\n      tag_42\n      jumpi\n      mload(0x40)\n      swap2\n      pop\n      and(add(returndatasize, 0x3f), not(0x1f))\n      dup3\n      add\n      0x40\n      mstore\n      returndatasize\n      dup3\n      mstore\n      returndatasize\n      0x00\n      0x20\n      dup5\n      add\n      returndatacopy\n      jump(tag_41)\n    tag_42:\n      0x60\n      swap2\n      pop\n    tag_41:\n      pop\n        /* \"contracts/EthersWallet.sol\":912:1042  (bool success, bytes memory data) = _to.call{value: _value}(abi.encodeWithSignature(\"changeBalance(address,address)\", _to, _from)) */\n      swap2\n      pop\n      swap2\n      pop\n        /* \"contracts/EthersWallet.sol\":1058:1082  Transfered(success,data) */\n      0x211793e58f00b3e734d024ba6cd956e5c3371570ce2f36886f32d842cc67e236\n        /* \"contracts/EthersWallet.sol\":1069:1076  success */\n      dup3\n        /* \"contracts/EthersWallet.sol\":1077:1081  data */\n      dup3\n        /* \"contracts/EthersWallet.sol\":1058:1082  Transfered(success,data) */\n      mload(0x40)\n      tag_43\n      swap3\n      swap2\n      swap1\n      tag_44\n      jump\t// in\n    tag_43:\n      mload(0x40)\n      dup1\n      swap2\n      sub\n      swap1\n      log1\n        /* \"contracts/EthersWallet.sol\":900:1168  {\r... */\n      pop\n      pop\n        /* \"contracts/EthersWallet.sol\":825:1168  function withdraw(address _to,address _from, uint _value) external isOwner {\r... */\n      pop\n      pop\n      pop\n      jump\t// out\n        /* \"#utility.yul\":7:146   */\n    tag_46:\n        /* \"#utility.yul\":53:58   */\n      0x00\n        /* \"#utility.yul\":91:97   */\n      dup2\n        /* \"#utility.yul\":78:98   */\n      calldataload\n        /* \"#utility.yul\":69:98   */\n      swap1\n      pop\n        /* \"#utility.yul\":107:140   */\n      tag_48\n        /* \"#utility.yul\":134:139   */\n      dup2\n        /* \"#utility.yul\":107:140   */\n      tag_49\n      jump\t// in\n    tag_48:\n        /* \"#utility.yul\":7:146   */\n      swap3\n      swap2\n      pop\n      pop\n      jump\t// out\n        /* \"#utility.yul\":152:291   */\n    tag_50:\n        /* \"#utility.yul\":198:203   */\n      0x00\n        /* \"#utility.yul\":236:242   */\n      dup2\n        /* \"#utility.yul\":223:243   */\n      calldataload\n        /* \"#utility.yul\":214:243   */\n      swap1\n      pop\n        /* \"#utility.yul\":252:285   */\n      tag_52\n        /* \"#utility.yul\":279:284   */\n      dup2\n        /* \"#utility.yul\":252:285   */\n      tag_53\n      jump\t// in\n    tag_52:\n        /* \"#utility.yul\":152:291   */\n      swap3\n      swap2\n      pop\n      pop\n      jump\t// out\n        /* \"#utility.yul\":297:771   */\n    tag_12:\n        /* \"#utility.yul\":365:371   */\n      0x00\n        /* \"#utility.yul\":373:379   */\n      dup1\n        /* \"#utility.yul\":422:424   */\n      0x40\n        /* \"#utility.yul\":410:419   */\n      dup4\n        /* \"#utility.yul\":401:408   */\n      dup6\n        /* \"#utility.yul\":397:420   */\n      sub\n        /* \"#utility.yul\":393:425   */\n      slt\n        /* \"#utility.yul\":390:509   */\n      iszero\n      tag_55\n      jumpi\n        /* \"#utility.yul\":428:507   */\n      tag_56\n      tag_57\n      jump\t// in\n    tag_56:\n        /* \"#utility.yul\":390:509   */\n    tag_55:\n        /* \"#utility.yul\":548:549   */\n      0x00\n        /* \"#utility.yul\":573:626   */\n      tag_58\n        /* \"#utility.yul\":618:625   */\n      dup6\n        /* \"#utility.yul\":609:615   */\n      dup3\n        /* \"#utility.yul\":598:607   */\n      dup7\n        /* \"#utility.yul\":594:616   */\n      add\n        /* \"#utility.yul\":573:626   */\n      tag_46\n      jump\t// in\n    tag_58:\n        /* \"#utility.yul\":563:626   */\n      swap3\n      pop\n        /* \"#utility.yul\":519:636   */\n      pop\n        /* \"#utility.yul\":675:677   */\n      0x20\n        /* \"#utility.yul\":701:754   */\n      tag_59\n        /* \"#utility.yul\":746:753   */\n      dup6\n        /* \"#utility.yul\":737:743   */\n      dup3\n        /* \"#utility.yul\":726:735   */\n      dup7\n        /* \"#utility.yul\":722:744   */\n      add\n        /* \"#utility.yul\":701:754   */\n      tag_46\n      jump\t// in\n    tag_59:\n        /* \"#utility.yul\":691:754   */\n      swap2\n      pop\n        /* \"#utility.yul\":646:764   */\n      pop\n        /* \"#utility.yul\":297:771   */\n      swap3\n      pop\n      swap3\n      swap1\n      pop\n      jump\t// out\n        /* \"#utility.yul\":777:1396   */\n    tag_22:\n        /* \"#utility.yul\":854:860   */\n      0x00\n        /* \"#utility.yul\":862:868   */\n      dup1\n        /* \"#utility.yul\":870:876   */\n      0x00\n        /* \"#utility.yul\":919:921   */\n      0x60\n        /* \"#utility.yul\":907:916   */\n      dup5\n        /* \"#utility.yul\":898:905   */\n      dup7\n        /* \"#utility.yul\":894:917   */\n      sub\n        /* \"#utility.yul\":890:922   */\n      slt\n        /* \"#utility.yul\":887:1006   */\n      iszero\n      tag_61\n      jumpi\n        /* \"#utility.yul\":925:1004   */\n      tag_62\n      tag_57\n      jump\t// in\n    tag_62:\n        /* \"#utility.yul\":887:1006   */\n    tag_61:\n        /* \"#utility.yul\":1045:1046   */\n      0x00\n        /* \"#utility.yul\":1070:1123   */\n      tag_63\n        /* \"#utility.yul\":1115:1122   */\n      dup7\n        /* \"#utility.yul\":1106:1112   */\n      dup3\n        /* \"#utility.yul\":1095:1104   */\n      dup8\n        /* \"#utility.yul\":1091:1113   */\n      add\n        /* \"#utility.yul\":1070:1123   */\n      tag_46\n      jump\t// in\n    tag_63:\n        /* \"#utility.yul\":1060:1123   */\n      swap4\n      pop\n        /* \"#utility.yul\":1016:1133   */\n      pop\n        /* \"#utility.yul\":1172:1174   */\n      0x20\n        /* \"#utility.yul\":1198:1251   */\n      tag_64\n        /* \"#utility.yul\":1243:1250   */\n      dup7\n        /* \"#utility.yul\":1234:1240   */\n      dup3\n        /* \"#utility.yul\":1223:1232   */\n      dup8\n        /* \"#utility.yul\":1219:1241   */\n      add\n        /* \"#utility.yul\":1198:1251   */\n      tag_46\n      jump\t// in\n    tag_64:\n        /* \"#utility.yul\":1188:1251   */\n      swap3\n      pop\n        /* \"#utility.yul\":1143:1261   */\n      pop\n        /* \"#utility.yul\":1300:1302   */\n      0x40\n        /* \"#utility.yul\":1326:1379   */\n      tag_65\n        /* \"#utility.yul\":1371:1378   */\n      dup7\n        /* \"#utility.yul\":1362:1368   */\n      dup3\n        /* \"#utility.yul\":1351:1360   */\n      dup8\n        /* \"#utility.yul\":1347:1369   */\n      add\n        /* \"#utility.yul\":1326:1379   */\n      tag_50\n      jump\t// in\n    tag_65:\n        /* \"#utility.yul\":1316:1379   */\n      swap2\n      pop\n        /* \"#utility.yul\":1271:1389   */\n      pop\n        /* \"#utility.yul\":777:1396   */\n      swap3\n      pop\n      swap3\n      pop\n      swap3\n      jump\t// out\n        /* \"#utility.yul\":1402:1520   */\n    tag_66:\n        /* \"#utility.yul\":1489:1513   */\n      tag_68\n        /* \"#utility.yul\":1507:1512   */\n      dup2\n        /* \"#utility.yul\":1489:1513   */\n      tag_69\n      jump\t// in\n    tag_68:\n        /* \"#utility.yul\":1484:1487   */\n      dup3\n        /* \"#utility.yul\":1477:1514   */\n      mstore\n        /* \"#utility.yul\":1402:1520   */\n      pop\n      pop\n      jump\t// out\n        /* \"#utility.yul\":1526:1635   */\n    tag_70:\n        /* \"#utility.yul\":1607:1628   */\n      tag_72\n        /* \"#utility.yul\":1622:1627   */\n      dup2\n        /* \"#utility.yul\":1607:1628   */\n      tag_73\n      jump\t// in\n    tag_72:\n        /* \"#utility.yul\":1602:1605   */\n      dup3\n        /* \"#utility.yul\":1595:1629   */\n      mstore\n        /* \"#utility.yul\":1526:1635   */\n      pop\n      pop\n      jump\t// out\n        /* \"#utility.yul\":1641:2001   */\n    tag_74:\n        /* \"#utility.yul\":1727:1730   */\n      0x00\n        /* \"#utility.yul\":1755:1793   */\n      tag_76\n        /* \"#utility.yul\":1787:1792   */\n      dup3\n        /* \"#utility.yul\":1755:1793   */\n      tag_77\n      jump\t// in\n    tag_76:\n        /* \"#utility.yul\":1809:1879   */\n      tag_78\n        /* \"#utility.yul\":1872:1878   */\n      dup2\n        /* \"#utility.yul\":1867:1870   */\n      dup6\n        /* \"#utility.yul\":1809:1879   */\n      tag_79\n      jump\t// in\n    tag_78:\n        /* \"#utility.yul\":1802:1879   */\n      swap4\n      pop\n        /* \"#utility.yul\":1888:1940   */\n      tag_80\n        /* \"#utility.yul\":1933:1939   */\n      dup2\n        /* \"#utility.yul\":1928:1931   */\n      dup6\n        /* \"#utility.yul\":1921:1925   */\n      0x20\n        /* \"#utility.yul\":1914:1919   */\n      dup7\n        /* \"#utility.yul\":1910:1926   */\n      add\n        /* \"#utility.yul\":1888:1940   */\n      tag_81\n      jump\t// in\n    tag_80:\n        /* \"#utility.yul\":1965:1994   */\n      tag_82\n        /* \"#utility.yul\":1987:1993   */\n      dup2\n        /* \"#utility.yul\":1965:1994   */\n      tag_83\n      jump\t// in\n    tag_82:\n        /* \"#utility.yul\":1960:1963   */\n      dup5\n        /* \"#utility.yul\":1956:1995   */\n      add\n        /* \"#utility.yul\":1949:1995   */\n      swap2\n      pop\n        /* \"#utility.yul\":1731:2001   */\n      pop\n        /* \"#utility.yul\":1641:2001   */\n      swap3\n      swap2\n      pop\n      pop\n      jump\t// out\n        /* \"#utility.yul\":2007:2380   */\n    tag_84:\n        /* \"#utility.yul\":2111:2114   */\n      0x00\n        /* \"#utility.yul\":2139:2177   */\n      tag_86\n        /* \"#utility.yul\":2171:2176   */\n      dup3\n        /* \"#utility.yul\":2139:2177   */\n      tag_77\n      jump\t// in\n    tag_86:\n        /* \"#utility.yul\":2193:2281   */\n      tag_87\n        /* \"#utility.yul\":2274:2280   */\n      dup2\n        /* \"#utility.yul\":2269:2272   */\n      dup6\n        /* \"#utility.yul\":2193:2281   */\n      tag_88\n      jump\t// in\n    tag_87:\n        /* \"#utility.yul\":2186:2281   */\n      swap4\n      pop\n        /* \"#utility.yul\":2290:2342   */\n      tag_89\n        /* \"#utility.yul\":2335:2341   */\n      dup2\n        /* \"#utility.yul\":2330:2333   */\n      dup6\n        /* \"#utility.yul\":2323:2327   */\n      0x20\n        /* \"#utility.yul\":2316:2321   */\n      dup7\n        /* \"#utility.yul\":2312:2328   */\n      add\n        /* \"#utility.yul\":2290:2342   */\n      tag_81\n      jump\t// in\n    tag_89:\n        /* \"#utility.yul\":2367:2373   */\n      dup1\n        /* \"#utility.yul\":2362:2365   */\n      dup5\n        /* \"#utility.yul\":2358:2374   */\n      add\n        /* \"#utility.yul\":2351:2374   */\n      swap2\n      pop\n        /* \"#utility.yul\":2115:2380   */\n      pop\n        /* \"#utility.yul\":2007:2380   */\n      swap3\n      swap2\n      pop\n      pop\n      jump\t// out\n        /* \"#utility.yul\":2386:2752   */\n    tag_90:\n        /* \"#utility.yul\":2528:2531   */\n      0x00\n        /* \"#utility.yul\":2549:2616   */\n      tag_92\n        /* \"#utility.yul\":2613:2615   */\n      0x0d\n        /* \"#utility.yul\":2608:2611   */\n      dup4\n        /* \"#utility.yul\":2549:2616   */\n      tag_93\n      jump\t// in\n    tag_92:\n        /* \"#utility.yul\":2542:2616   */\n      swap2\n      pop\n        /* \"#utility.yul\":2625:2718   */\n      tag_94\n        /* \"#utility.yul\":2714:2717   */\n      dup3\n        /* \"#utility.yul\":2625:2718   */\n      tag_95\n      jump\t// in\n    tag_94:\n        /* \"#utility.yul\":2743:2745   */\n      0x20\n        /* \"#utility.yul\":2738:2741   */\n      dup3\n        /* \"#utility.yul\":2734:2746   */\n      add\n        /* \"#utility.yul\":2727:2746   */\n      swap1\n      pop\n        /* \"#utility.yul\":2386:2752   */\n      swap2\n      swap1\n      pop\n      jump\t// out\n        /* \"#utility.yul\":2758:2876   */\n    tag_96:\n        /* \"#utility.yul\":2845:2869   */\n      tag_98\n        /* \"#utility.yul\":2863:2868   */\n      dup2\n        /* \"#utility.yul\":2845:2869   */\n      tag_99\n      jump\t// in\n    tag_98:\n        /* \"#utility.yul\":2840:2843   */\n      dup3\n        /* \"#utility.yul\":2833:2870   */\n      mstore\n        /* \"#utility.yul\":2758:2876   */\n      pop\n      pop\n      jump\t// out\n        /* \"#utility.yul\":2882:3153   */\n    tag_39:\n        /* \"#utility.yul\":3012:3015   */\n      0x00\n        /* \"#utility.yul\":3034:3127   */\n      tag_101\n        /* \"#utility.yul\":3123:3126   */\n      dup3\n        /* \"#utility.yul\":3114:3120   */\n      dup5\n        /* \"#utility.yul\":3034:3127   */\n      tag_84\n      jump\t// in\n    tag_101:\n        /* \"#utility.yul\":3027:3127   */\n      swap2\n      pop\n        /* \"#utility.yul\":3144:3147   */\n      dup2\n        /* \"#utility.yul\":3137:3147   */\n      swap1\n      pop\n        /* \"#utility.yul\":2882:3153   */\n      swap3\n      swap2\n      pop\n      pop\n      jump\t// out\n        /* \"#utility.yul\":3159:3491   */\n    tag_37:\n        /* \"#utility.yul\":3280:3284   */\n      0x00\n        /* \"#utility.yul\":3318:3320   */\n      0x40\n        /* \"#utility.yul\":3307:3316   */\n      dup3\n        /* \"#utility.yul\":3303:3321   */\n      add\n        /* \"#utility.yul\":3295:3321   */\n      swap1\n      pop\n        /* \"#utility.yul\":3331:3402   */\n      tag_103\n        /* \"#utility.yul\":3399:3400   */\n      0x00\n        /* \"#utility.yul\":3388:3397   */\n      dup4\n        /* \"#utility.yul\":3384:3401   */\n      add\n        /* \"#utility.yul\":3375:3381   */\n      dup6\n        /* \"#utility.yul\":3331:3402   */\n      tag_66\n      jump\t// in\n    tag_103:\n        /* \"#utility.yul\":3412:3484   */\n      tag_104\n        /* \"#utility.yul\":3480:3482   */\n      0x20\n        /* \"#utility.yul\":3469:3478   */\n      dup4\n        /* \"#utility.yul\":3465:3483   */\n      add\n        /* \"#utility.yul\":3456:3462   */\n      dup5\n        /* \"#utility.yul\":3412:3484   */\n      tag_66\n      jump\t// in\n    tag_104:\n        /* \"#utility.yul\":3159:3491   */\n      swap4\n      swap3\n      pop\n      pop\n      pop\n      jump\t// out\n        /* \"#utility.yul\":3497:3939   */\n    tag_29:\n        /* \"#utility.yul\":3646:3650   */\n      0x00\n        /* \"#utility.yul\":3684:3686   */\n      0x60\n        /* \"#utility.yul\":3673:3682   */\n      dup3\n        /* \"#utility.yul\":3669:3687   */\n      add\n        /* \"#utility.yul\":3661:3687   */\n      swap1\n      pop\n        /* \"#utility.yul\":3697:3768   */\n      tag_106\n        /* \"#utility.yul\":3765:3766   */\n      0x00\n        /* \"#utility.yul\":3754:3763   */\n      dup4\n        /* \"#utility.yul\":3750:3767   */\n      add\n        /* \"#utility.yul\":3741:3747   */\n      dup7\n        /* \"#utility.yul\":3697:3768   */\n      tag_66\n      jump\t// in\n    tag_106:\n        /* \"#utility.yul\":3778:3850   */\n      tag_107\n        /* \"#utility.yul\":3846:3848   */\n      0x20\n        /* \"#utility.yul\":3835:3844   */\n      dup4\n        /* \"#utility.yul\":3831:3849   */\n      add\n        /* \"#utility.yul\":3822:3828   */\n      dup6\n        /* \"#utility.yul\":3778:3850   */\n      tag_66\n      jump\t// in\n    tag_107:\n        /* \"#utility.yul\":3860:3932   */\n      tag_108\n        /* \"#utility.yul\":3928:3930   */\n      0x40\n        /* \"#utility.yul\":3917:3926   */\n      dup4\n        /* \"#utility.yul\":3913:3931   */\n      add\n        /* \"#utility.yul\":3904:3910   */\n      dup5\n        /* \"#utility.yul\":3860:3932   */\n      tag_96\n      jump\t// in\n    tag_108:\n        /* \"#utility.yul\":3497:3939   */\n      swap5\n      swap4\n      pop\n      pop\n      pop\n      pop\n      jump\t// out\n        /* \"#utility.yul\":3945:4352   */\n    tag_44:\n        /* \"#utility.yul\":4078:4082   */\n      0x00\n        /* \"#utility.yul\":4116:4118   */\n      0x40\n        /* \"#utility.yul\":4105:4114   */\n      dup3\n        /* \"#utility.yul\":4101:4119   */\n      add\n        /* \"#utility.yul\":4093:4119   */\n      swap1\n      pop\n        /* \"#utility.yul\":4129:4194   */\n      tag_110\n        /* \"#utility.yul\":4191:4192   */\n      0x00\n        /* \"#utility.yul\":4180:4189   */\n      dup4\n        /* \"#utility.yul\":4176:4193   */\n      add\n        /* \"#utility.yul\":4167:4173   */\n      dup6\n        /* \"#utility.yul\":4129:4194   */\n      tag_70\n      jump\t// in\n    tag_110:\n        /* \"#utility.yul\":4241:4250   */\n      dup2\n        /* \"#utility.yul\":4235:4239   */\n      dup2\n        /* \"#utility.yul\":4231:4251   */\n      sub\n        /* \"#utility.yul\":4226:4228   */\n      0x20\n        /* \"#utility.yul\":4215:4224   */\n      dup4\n        /* \"#utility.yul\":4211:4229   */\n      add\n        /* \"#utility.yul\":4204:4252   */\n      mstore\n        /* \"#utility.yul\":4269:4345   */\n      tag_111\n        /* \"#utility.yul\":4340:4344   */\n      dup2\n        /* \"#utility.yul\":4331:4337   */\n      dup5\n        /* \"#utility.yul\":4269:4345   */\n      tag_74\n      jump\t// in\n    tag_111:\n        /* \"#utility.yul\":4261:4345   */\n      swap1\n      pop\n        /* \"#utility.yul\":3945:4352   */\n      swap4\n      swap3\n      pop\n      pop\n      pop\n      jump\t// out\n        /* \"#utility.yul\":4358:4777   */\n    tag_34:\n        /* \"#utility.yul\":4524:4528   */\n      0x00\n        /* \"#utility.yul\":4562:4564   */\n      0x20\n        /* \"#utility.yul\":4551:4560   */\n      dup3\n        /* \"#utility.yul\":4547:4565   */\n      add\n        /* \"#utility.yul\":4539:4565   */\n      swap1\n      pop\n        /* \"#utility.yul\":4611:4620   */\n      dup2\n        /* \"#utility.yul\":4605:4609   */\n      dup2\n        /* \"#utility.yul\":4601:4621   */\n      sub\n        /* \"#utility.yul\":4597:4598   */\n      0x00\n        /* \"#utility.yul\":4586:4595   */\n      dup4\n        /* \"#utility.yul\":4582:4599   */\n      add\n        /* \"#utility.yul\":4575:4622   */\n      mstore\n        /* \"#utility.yul\":4639:4770   */\n      tag_113\n        /* \"#utility.yul\":4765:4769   */\n      dup2\n        /* \"#utility.yul\":4639:4770   */\n      tag_90\n      jump\t// in\n    tag_113:\n        /* \"#utility.yul\":4631:4770   */\n      swap1\n      pop\n        /* \"#utility.yul\":4358:4777   */\n      swap2\n      swap1\n      pop\n      jump\t// out\n        /* \"#utility.yul\":4783:5005   */\n    tag_18:\n        /* \"#utility.yul\":4876:4880   */\n      0x00\n        /* \"#utility.yul\":4914:4916   */\n      0x20\n        /* \"#utility.yul\":4903:4912   */\n      dup3\n        /* \"#utility.yul\":4899:4917   */\n      add\n        /* \"#utility.yul\":4891:4917   */\n      swap1\n      pop\n        /* \"#utility.yul\":4927:4998   */\n      tag_115\n        /* \"#utility.yul\":4995:4996   */\n      0x00\n        /* \"#utility.yul\":4984:4993   */\n      dup4\n        /* \"#utility.yul\":4980:4997   */\n      add\n        /* \"#utility.yul\":4971:4977   */\n      dup5\n        /* \"#utility.yul\":4927:4998   */\n      tag_96\n      jump\t// in\n    tag_115:\n        /* \"#utility.yul\":4783:5005   */\n      swap3\n      swap2\n      pop\n      pop\n      jump\t// out\n        /* \"#utility.yul\":5092:5190   */\n    tag_77:\n        /* \"#utility.yul\":5143:5149   */\n      0x00\n        /* \"#utility.yul\":5177:5182   */\n      dup2\n        /* \"#utility.yul\":5171:5183   */\n      mload\n        /* \"#utility.yul\":5161:5183   */\n      swap1\n      pop\n        /* \"#utility.yul\":5092:5190   */\n      swap2\n      swap1\n      pop\n      jump\t// out\n        /* \"#utility.yul\":5196:5364   */\n    tag_79:\n        /* \"#utility.yul\":5279:5290   */\n      0x00\n        /* \"#utility.yul\":5313:5319   */\n      dup3\n        /* \"#utility.yul\":5308:5311   */\n      dup3\n        /* \"#utility.yul\":5301:5320   */\n      mstore\n        /* \"#utility.yul\":5353:5357   */\n      0x20\n        /* \"#utility.yul\":5348:5351   */\n      dup3\n        /* \"#utility.yul\":5344:5358   */\n      add\n        /* \"#utility.yul\":5329:5358   */\n      swap1\n      pop\n        /* \"#utility.yul\":5196:5364   */\n      swap3\n      swap2\n      pop\n      pop\n      jump\t// out\n        /* \"#utility.yul\":5370:5517   */\n    tag_88:\n        /* \"#utility.yul\":5471:5482   */\n      0x00\n        /* \"#utility.yul\":5508:5511   */\n      dup2\n        /* \"#utility.yul\":5493:5511   */\n      swap1\n      pop\n        /* \"#utility.yul\":5370:5517   */\n      swap3\n      swap2\n      pop\n      pop\n      jump\t// out\n        /* \"#utility.yul\":5523:5692   */\n    tag_93:\n        /* \"#utility.yul\":5607:5618   */\n      0x00\n        /* \"#utility.yul\":5641:5647   */\n      dup3\n        /* \"#utility.yul\":5636:5639   */\n      dup3\n        /* \"#utility.yul\":5629:5648   */\n      mstore\n        /* \"#utility.yul\":5681:5685   */\n      0x20\n        /* \"#utility.yul\":5676:5679   */\n      dup3\n        /* \"#utility.yul\":5672:5686   */\n      add\n        /* \"#utility.yul\":5657:5686   */\n      swap1\n      pop\n        /* \"#utility.yul\":5523:5692   */\n      swap3\n      swap2\n      pop\n      pop\n      jump\t// out\n        /* \"#utility.yul\":5698:6003   */\n    tag_9:\n        /* \"#utility.yul\":5738:5741   */\n      0x00\n        /* \"#utility.yul\":5757:5777   */\n      tag_123\n        /* \"#utility.yul\":5775:5776   */\n      dup3\n        /* \"#utility.yul\":5757:5777   */\n      tag_99\n      jump\t// in\n    tag_123:\n        /* \"#utility.yul\":5752:5777   */\n      swap2\n      pop\n        /* \"#utility.yul\":5791:5811   */\n      tag_124\n        /* \"#utility.yul\":5809:5810   */\n      dup4\n        /* \"#utility.yul\":5791:5811   */\n      tag_99\n      jump\t// in\n    tag_124:\n        /* \"#utility.yul\":5786:5811   */\n      swap3\n      pop\n        /* \"#utility.yul\":5945:5946   */\n      dup3\n        /* \"#utility.yul\":5877:5943   */\n      0xffffffffffffffffffffffffffffffffffffffffffffffffffffffffffffffff\n        /* \"#utility.yul\":5873:5947   */\n      sub\n        /* \"#utility.yul\":5870:5871   */\n      dup3\n        /* \"#utility.yul\":5867:5948   */\n      gt\n        /* \"#utility.yul\":5864:5971   */\n      iszero\n      tag_125\n      jumpi\n        /* \"#utility.yul\":5951:5969   */\n      tag_126\n      tag_127\n      jump\t// in\n    tag_126:\n        /* \"#utility.yul\":5864:5971   */\n    tag_125:\n        /* \"#utility.yul\":5995:5996   */\n      dup3\n        /* \"#utility.yul\":5992:5993   */\n      dup3\n        /* \"#utility.yul\":5988:5997   */\n      add\n        /* \"#utility.yul\":5981:5997   */\n      swap1\n      pop\n        /* \"#utility.yul\":5698:6003   */\n      swap3\n      swap2\n      pop\n      pop\n      jump\t// out\n        /* \"#utility.yul\":6009:6200   */\n    tag_27:\n        /* \"#utility.yul\":6049:6053   */\n      0x00\n        /* \"#utility.yul\":6069:6089   */\n      tag_129\n        /* \"#utility.yul\":6087:6088   */\n      dup3\n        /* \"#utility.yul\":6069:6089   */\n      tag_99\n      jump\t// in\n    tag_129:\n        /* \"#utility.yul\":6064:6089   */\n      swap2\n      pop\n        /* \"#utility.yul\":6103:6123   */\n      tag_130\n        /* \"#utility.yul\":6121:6122   */\n      dup4\n        /* \"#utility.yul\":6103:6123   */\n      tag_99\n      jump\t// in\n    tag_130:\n        /* \"#utility.yul\":6098:6123   */\n      swap3\n      pop\n        /* \"#utility.yul\":6142:6143   */\n      dup3\n        /* \"#utility.yul\":6139:6140   */\n      dup3\n        /* \"#utility.yul\":6136:6144   */\n      lt\n        /* \"#utility.yul\":6133:6167   */\n      iszero\n      tag_131\n      jumpi\n        /* \"#utility.yul\":6147:6165   */\n      tag_132\n      tag_127\n      jump\t// in\n    tag_132:\n        /* \"#utility.yul\":6133:6167   */\n    tag_131:\n        /* \"#utility.yul\":6192:6193   */\n      dup3\n        /* \"#utility.yul\":6189:6190   */\n      dup3\n        /* \"#utility.yul\":6185:6194   */\n      sub\n        /* \"#utility.yul\":6177:6194   */\n      swap1\n      pop\n        /* \"#utility.yul\":6009:6200   */\n      swap3\n      swap2\n      pop\n      pop\n      jump\t// out\n        /* \"#utility.yul\":6206:6302   */\n    tag_69:\n        /* \"#utility.yul\":6243:6250   */\n      0x00\n        /* \"#utility.yul\":6272:6296   */\n      tag_134\n        /* \"#utility.yul\":6290:6295   */\n      dup3\n        /* \"#utility.yul\":6272:6296   */\n      tag_135\n      jump\t// in\n    tag_134:\n        /* \"#utility.yul\":6261:6296   */\n      swap1\n      pop\n        /* \"#utility.yul\":6206:6302   */\n      swap2\n      swap1\n      pop\n      jump\t// out\n        /* \"#utility.yul\":6308:6398   */\n    tag_73:\n        /* \"#utility.yul\":6342:6349   */\n      0x00\n        /* \"#utility.yul\":6385:6390   */\n      dup2\n        /* \"#utility.yul\":6378:6391   */\n      iszero\n        /* \"#utility.yul\":6371:6392   */\n      iszero\n        /* \"#utility.yul\":6360:6392   */\n      swap1\n      pop\n        /* \"#utility.yul\":6308:6398   */\n      swap2\n      swap1\n      pop\n      jump\t// out\n        /* \"#utility.yul\":6404:6530   */\n    tag_135:\n        /* \"#utility.yul\":6441:6448   */\n      0x00\n        /* \"#utility.yul\":6481:6523   */\n      0xffffffffffffffffffffffffffffffffffffffff\n        /* \"#utility.yul\":6474:6479   */\n      dup3\n        /* \"#utility.yul\":6470:6524   */\n      and\n        /* \"#utility.yul\":6459:6524   */\n      swap1\n      pop\n        /* \"#utility.yul\":6404:6530   */\n      swap2\n      swap1\n      pop\n      jump\t// out\n        /* \"#utility.yul\":6536:6613   */\n    tag_99:\n        /* \"#utility.yul\":6573:6580   */\n      0x00\n        /* \"#utility.yul\":6602:6607   */\n      dup2\n        /* \"#utility.yul\":6591:6607   */\n      swap1\n      pop\n        /* \"#utility.yul\":6536:6613   */\n      swap2\n      swap1\n      pop\n      jump\t// out\n        /* \"#utility.yul\":6619:6926   */\n    tag_81:\n        /* \"#utility.yul\":6687:6688   */\n      0x00\n        /* \"#utility.yul\":6697:6810   */\n    tag_140:\n        /* \"#utility.yul\":6711:6717   */\n      dup4\n        /* \"#utility.yul\":6708:6709   */\n      dup2\n        /* \"#utility.yul\":6705:6718   */\n      lt\n        /* \"#utility.yul\":6697:6810   */\n      iszero\n      tag_142\n      jumpi\n        /* \"#utility.yul\":6796:6797   */\n      dup1\n        /* \"#utility.yul\":6791:6794   */\n      dup3\n        /* \"#utility.yul\":6787:6798   */\n      add\n        /* \"#utility.yul\":6781:6799   */\n      mload\n        /* \"#utility.yul\":6777:6778   */\n      dup2\n        /* \"#utility.yul\":6772:6775   */\n      dup5\n        /* \"#utility.yul\":6768:6779   */\n      add\n        /* \"#utility.yul\":6761:6800   */\n      mstore\n        /* \"#utility.yul\":6733:6735   */\n      0x20\n        /* \"#utility.yul\":6730:6731   */\n      dup2\n        /* \"#utility.yul\":6726:6736   */\n      add\n        /* \"#utility.yul\":6721:6736   */\n      swap1\n      pop\n        /* \"#utility.yul\":6697:6810   */\n      jump(tag_140)\n    tag_142:\n        /* \"#utility.yul\":6828:6834   */\n      dup4\n        /* \"#utility.yul\":6825:6826   */\n      dup2\n        /* \"#utility.yul\":6822:6835   */\n      gt\n        /* \"#utility.yul\":6819:6920   */\n      iszero\n      tag_143\n      jumpi\n        /* \"#utility.yul\":6908:6909   */\n      0x00\n        /* \"#utility.yul\":6899:6905   */\n      dup5\n        /* \"#utility.yul\":6894:6897   */\n      dup5\n        /* \"#utility.yul\":6890:6906   */\n      add\n        /* \"#utility.yul\":6883:6910   */\n      mstore\n        /* \"#utility.yul\":6819:6920   */\n    tag_143:\n        /* \"#utility.yul\":6668:6926   */\n      pop\n        /* \"#utility.yul\":6619:6926   */\n      pop\n      pop\n      pop\n      jump\t// out\n        /* \"#utility.yul\":6932:7112   */\n    tag_127:\n        /* \"#utility.yul\":6980:7057   */\n      0x4e487b7100000000000000000000000000000000000000000000000000000000\n        /* \"#utility.yul\":6977:6978   */\n      0x00\n        /* \"#utility.yul\":6970:7058   */\n      mstore\n        /* \"#utility.yul\":7077:7081   */\n      0x11\n        /* \"#utility.yul\":7074:7075   */\n      0x04\n        /* \"#utility.yul\":7067:7082   */\n      mstore\n        /* \"#utility.yul\":7101:7105   */\n      0x24\n        /* \"#utility.yul\":7098:7099   */\n      0x00\n        /* \"#utility.yul\":7091:7106   */\n      revert\n        /* \"#utility.yul\":7241:7358   */\n    tag_57:\n        /* \"#utility.yul\":7350:7351   */\n      0x00\n        /* \"#utility.yul\":7347:7348   */\n      dup1\n        /* \"#utility.yul\":7340:7352   */\n      revert\n        /* \"#utility.yul\":7364:7466   */\n    tag_83:\n        /* \"#utility.yul\":7405:7411   */\n      0x00\n        /* \"#utility.yul\":7456:7458   */\n      0x1f\n        /* \"#utility.yul\":7452:7459   */\n      not\n        /* \"#utility.yul\":7447:7449   */\n      0x1f\n        /* \"#utility.yul\":7440:7445   */\n      dup4\n        /* \"#utility.yul\":7436:7450   */\n      add\n        /* \"#utility.yul\":7432:7460   */\n      and\n        /* \"#utility.yul\":7422:7460   */\n      swap1\n      pop\n        /* \"#utility.yul\":7364:7466   */\n      swap2\n      swap1\n      pop\n      jump\t// out\n        /* \"#utility.yul\":7472:7635   */\n    tag_95:\n        /* \"#utility.yul\":7612:7627   */\n      0x4e6f7420746865204f776e657200000000000000000000000000000000000000\n        /* \"#utility.yul\":7608:7609   */\n      0x00\n        /* \"#utility.yul\":7600:7606   */\n      dup3\n        /* \"#utility.yul\":7596:7610   */\n      add\n        /* \"#utility.yul\":7589:7628   */\n      mstore\n        /* \"#utility.yul\":7472:7635   */\n      pop\n      jump\t// out\n        /* \"#utility.yul\":7641:7763   */\n    tag_49:\n        /* \"#utility.yul\":7714:7738   */\n      tag_151\n        /* \"#utility.yul\":7732:7737   */\n      dup2\n        /* \"#utility.yul\":7714:7738   */\n      tag_69\n      jump\t// in\n    tag_151:\n        /* \"#utility.yul\":7707:7712   */\n      dup2\n        /* \"#utility.yul\":7704:7739   */\n      eq\n        /* \"#utility.yul\":7694:7757   */\n      tag_152\n      jumpi\n        /* \"#utility.yul\":7753:7754   */\n      0x00\n        /* \"#utility.yul\":7750:7751   */\n      dup1\n        /* \"#utility.yul\":7743:7755   */\n      revert\n        /* \"#utility.yul\":7694:7757   */\n    tag_152:\n        /* \"#utility.yul\":7641:7763   */\n      pop\n      jump\t// out\n        /* \"#utility.yul\":7769:7891   */\n    tag_53:\n        /* \"#utility.yul\":7842:7866   */\n      tag_154\n        /* \"#utility.yul\":7860:7865   */\n      dup2\n        /* \"#utility.yul\":7842:7866   */\n      tag_99\n      jump\t// in\n    tag_154:\n        /* \"#utility.yul\":7835:7840   */\n      dup2\n        /* \"#utility.yul\":7832:7867   */\n      eq\n        /* \"#utility.yul\":7822:7885   */\n      tag_155\n      jumpi\n        /* \"#utility.yul\":7881:7882   */\n      0x00\n        /* \"#utility.yul\":7878:7879   */\n      dup1\n        /* \"#utility.yul\":7871:7883   */\n      revert\n        /* \"#utility.yul\":7822:7885   */\n    tag_155:\n        /* \"#utility.yul\":7769:7891   */\n      pop\n      jump\t// out\n\n    auxdata: 0xa26469706673582212207a7e7a965f0e5f49246963c3a1726ce26f5559972bef23292fcf81256586d3a164736f6c63430008070033\n}\n",
				"bytecode": {
					"linkReferences": {},
					"object": "608060405234801561001057600080fd5b50336000806101000a81548173ffffffffffffffffffffffffffffffffffffffff021916908373ffffffffffffffffffffffffffffffffffffffff160217905550610871806100606000396000f3fe6080604052600436106100385760003560e01c8063be434a2c1461009a578063bf152765146100b6578063d9caed12146100e157610095565b366100955734600160003373ffffffffffffffffffffffffffffffffffffffff1673ffffffffffffffffffffffffffffffffffffffff168152602001908152602001600020600082825461008c919061069a565b92505081905550005b600080fd5b6100b460048036038101906100af9190610433565b61010a565b005b3480156100c257600080fd5b506100cb6101f5565b6040516100d89190610647565b60405180910390f35b3480156100ed57600080fd5b5061010860048036038101906101039190610473565b61023c565b005b34600160008473ffffffffffffffffffffffffffffffffffffffff1673ffffffffffffffffffffffffffffffffffffffff1681526020019081526020016000206000828254610159919061069a565b9250508190555034600160008373ffffffffffffffffffffffffffffffffffffffff1673ffffffffffffffffffffffffffffffffffffffff16815260200190815260200160002060008282546101af91906106f0565b925050819055507fd53683c2ddbfbeaa0862bf4bb2ad12d32e889a7539dde25b42322b1139dd5c438282346040516101e9939291906105c0565b60405180910390a15050565b6000600160003373ffffffffffffffffffffffffffffffffffffffff1673ffffffffffffffffffffffffffffffffffffffff16815260200190815260200160002054905090565b60008054906101000a900473ffffffffffffffffffffffffffffffffffffffff1673ffffffffffffffffffffffffffffffffffffffff163373ffffffffffffffffffffffffffffffffffffffff16146102ca576040517f08c379a00000000000000000000000000000000000000000000000000000000081526004016102c190610627565b60405180910390fd5b6000808473ffffffffffffffffffffffffffffffffffffffff168386866040516024016102f8929190610597565b6040516020818303038152906040527fbe434a2c000000000000000000000000000000000000000000000000000000007bffffffffffffffffffffffffffffffffffffffffffffffffffffffff19166020820180517bffffffffffffffffffffffffffffffffffffffffffffffffffffffff83818316178352505050506040516103829190610580565b60006040518083038185875af1925050503d80600081146103bf576040519150601f19603f3d011682016040523d82523d6000602084013e6103c4565b606091505b50915091507f211793e58f00b3e734d024ba6cd956e5c3371570ce2f36886f32d842cc67e23682826040516103fa9291906105f7565b60405180910390a15050505050565b6000813590506104188161080d565b92915050565b60008135905061042d81610824565b92915050565b6000806040838503121561044a576104496107ce565b5b600061045885828601610409565b925050602061046985828601610409565b9150509250929050565b60008060006060848603121561048c5761048b6107ce565b5b600061049a86828701610409565b93505060206104ab86828701610409565b92505060406104bc8682870161041e565b9150509250925092565b6104cf81610724565b82525050565b6104de81610736565b82525050565b60006104ef82610662565b6104f9818561066d565b935061050981856020860161076c565b610512816107d3565b840191505092915050565b600061052882610662565b610532818561067e565b935061054281856020860161076c565b80840191505092915050565b600061055b600d83610689565b9150610566826107e4565b602082019050919050565b61057a81610762565b82525050565b600061058c828461051d565b915081905092915050565b60006040820190506105ac60008301856104c6565b6105b960208301846104c6565b9392505050565b60006060820190506105d560008301866104c6565b6105e260208301856104c6565b6105ef6040830184610571565b949350505050565b600060408201905061060c60008301856104d5565b818103602083015261061e81846104e4565b90509392505050565b600060208201905081810360008301526106408161054e565b9050919050565b600060208201905061065c6000830184610571565b92915050565b600081519050919050565b600082825260208201905092915050565b600081905092915050565b600082825260208201905092915050565b60006106a582610762565b91506106b083610762565b9250827fffffffffffffffffffffffffffffffffffffffffffffffffffffffffffffffff038211156106e5576106e461079f565b5b828201905092915050565b60006106fb82610762565b915061070683610762565b9250828210156107195761071861079f565b5b828203905092915050565b600061072f82610742565b9050919050565b60008115159050919050565b600073ffffffffffffffffffffffffffffffffffffffff82169050919050565b6000819050919050565b60005b8381101561078a57808201518184015260208101905061076f565b83811115610799576000848401525b50505050565b7f4e487b7100000000000000000000000000000000000000000000000000000000600052601160045260246000fd5b600080fd5b6000601f19601f8301169050919050565b7f4e6f7420746865204f776e657200000000000000000000000000000000000000600082015250565b61081681610724565b811461082157600080fd5b50565b61082d81610762565b811461083857600080fd5b5056fea26469706673582212207a7e7a965f0e5f49246963c3a1726ce26f5559972bef23292fcf81256586d3a164736f6c63430008070033",
					"opcodes": "PUSH1 0x80 PUSH1 0x40 MSTORE CALLVALUE DUP1 ISZERO PUSH2 0x10 JUMPI PUSH1 0x0 DUP1 REVERT JUMPDEST POP CALLER PUSH1 0x0 DUP1 PUSH2 0x100 EXP DUP2 SLOAD DUP2 PUSH20 0xFFFFFFFFFFFFFFFFFFFFFFFFFFFFFFFFFFFFFFFF MUL NOT AND SWAP1 DUP4 PUSH20 0xFFFFFFFFFFFFFFFFFFFFFFFFFFFFFFFFFFFFFFFF AND MUL OR SWAP1 SSTORE POP PUSH2 0x871 DUP1 PUSH2 0x60 PUSH1 0x0 CODECOPY PUSH1 0x0 RETURN INVALID PUSH1 0x80 PUSH1 0x40 MSTORE PUSH1 0x4 CALLDATASIZE LT PUSH2 0x38 JUMPI PUSH1 0x0 CALLDATALOAD PUSH1 0xE0 SHR DUP1 PUSH4 0xBE434A2C EQ PUSH2 0x9A JUMPI DUP1 PUSH4 0xBF152765 EQ PUSH2 0xB6 JUMPI DUP1 PUSH4 0xD9CAED12 EQ PUSH2 0xE1 JUMPI PUSH2 0x95 JUMP JUMPDEST CALLDATASIZE PUSH2 0x95 JUMPI CALLVALUE PUSH1 0x1 PUSH1 0x0 CALLER PUSH20 0xFFFFFFFFFFFFFFFFFFFFFFFFFFFFFFFFFFFFFFFF AND PUSH20 0xFFFFFFFFFFFFFFFFFFFFFFFFFFFFFFFFFFFFFFFF AND DUP2 MSTORE PUSH1 0x20 ADD SWAP1 DUP2 MSTORE PUSH1 0x20 ADD PUSH1 0x0 KECCAK256 PUSH1 0x0 DUP3 DUP3 SLOAD PUSH2 0x8C SWAP2 SWAP1 PUSH2 0x69A JUMP JUMPDEST SWAP3 POP POP DUP2 SWAP1 SSTORE POP STOP JUMPDEST PUSH1 0x0 DUP1 REVERT JUMPDEST PUSH2 0xB4 PUSH1 0x4 DUP1 CALLDATASIZE SUB DUP2 ADD SWAP1 PUSH2 0xAF SWAP2 SWAP1 PUSH2 0x433 JUMP JUMPDEST PUSH2 0x10A JUMP JUMPDEST STOP JUMPDEST CALLVALUE DUP1 ISZERO PUSH2 0xC2 JUMPI PUSH1 0x0 DUP1 REVERT JUMPDEST POP PUSH2 0xCB PUSH2 0x1F5 JUMP JUMPDEST PUSH1 0x40 MLOAD PUSH2 0xD8 SWAP2 SWAP1 PUSH2 0x647 JUMP JUMPDEST PUSH1 0x40 MLOAD DUP1 SWAP2 SUB SWAP1 RETURN JUMPDEST CALLVALUE DUP1 ISZERO PUSH2 0xED JUMPI PUSH1 0x0 DUP1 REVERT JUMPDEST POP PUSH2 0x108 PUSH1 0x4 DUP1 CALLDATASIZE SUB DUP2 ADD SWAP1 PUSH2 0x103 SWAP2 SWAP1 PUSH2 0x473 JUMP JUMPDEST PUSH2 0x23C JUMP JUMPDEST STOP JUMPDEST CALLVALUE PUSH1 0x1 PUSH1 0x0 DUP5 PUSH20 0xFFFFFFFFFFFFFFFFFFFFFFFFFFFFFFFFFFFFFFFF AND PUSH20 0xFFFFFFFFFFFFFFFFFFFFFFFFFFFFFFFFFFFFFFFF AND DUP2 MSTORE PUSH1 0x20 ADD SWAP1 DUP2 MSTORE PUSH1 0x20 ADD PUSH1 0x0 KECCAK256 PUSH1 0x0 DUP3 DUP3 SLOAD PUSH2 0x159 SWAP2 SWAP1 PUSH2 0x69A JUMP JUMPDEST SWAP3 POP POP DUP2 SWAP1 SSTORE POP CALLVALUE PUSH1 0x1 PUSH1 0x0 DUP4 PUSH20 0xFFFFFFFFFFFFFFFFFFFFFFFFFFFFFFFFFFFFFFFF AND PUSH20 0xFFFFFFFFFFFFFFFFFFFFFFFFFFFFFFFFFFFFFFFF AND DUP2 MSTORE PUSH1 0x20 ADD SWAP1 DUP2 MSTORE PUSH1 0x20 ADD PUSH1 0x0 KECCAK256 PUSH1 0x0 DUP3 DUP3 SLOAD PUSH2 0x1AF SWAP2 SWAP1 PUSH2 0x6F0 JUMP JUMPDEST SWAP3 POP POP DUP2 SWAP1 SSTORE POP PUSH32 0xD53683C2DDBFBEAA0862BF4BB2AD12D32E889A7539DDE25B42322B1139DD5C43 DUP3 DUP3 CALLVALUE PUSH1 0x40 MLOAD PUSH2 0x1E9 SWAP4 SWAP3 SWAP2 SWAP1 PUSH2 0x5C0 JUMP JUMPDEST PUSH1 0x40 MLOAD DUP1 SWAP2 SUB SWAP1 LOG1 POP POP JUMP JUMPDEST PUSH1 0x0 PUSH1 0x1 PUSH1 0x0 CALLER PUSH20 0xFFFFFFFFFFFFFFFFFFFFFFFFFFFFFFFFFFFFFFFF AND PUSH20 0xFFFFFFFFFFFFFFFFFFFFFFFFFFFFFFFFFFFFFFFF AND DUP2 MSTORE PUSH1 0x20 ADD SWAP1 DUP2 MSTORE PUSH1 0x20 ADD PUSH1 0x0 KECCAK256 SLOAD SWAP1 POP SWAP1 JUMP JUMPDEST PUSH1 0x0 DUP1 SLOAD SWAP1 PUSH2 0x100 EXP SWAP1 DIV PUSH20 0xFFFFFFFFFFFFFFFFFFFFFFFFFFFFFFFFFFFFFFFF AND PUSH20 0xFFFFFFFFFFFFFFFFFFFFFFFFFFFFFFFFFFFFFFFF AND CALLER PUSH20 0xFFFFFFFFFFFFFFFFFFFFFFFFFFFFFFFFFFFFFFFF AND EQ PUSH2 0x2CA JUMPI PUSH1 0x40 MLOAD PUSH32 0x8C379A000000000000000000000000000000000000000000000000000000000 DUP2 MSTORE PUSH1 0x4 ADD PUSH2 0x2C1 SWAP1 PUSH2 0x627 JUMP JUMPDEST PUSH1 0x40 MLOAD DUP1 SWAP2 SUB SWAP1 REVERT JUMPDEST PUSH1 0x0 DUP1 DUP5 PUSH20 0xFFFFFFFFFFFFFFFFFFFFFFFFFFFFFFFFFFFFFFFF AND DUP4 DUP7 DUP7 PUSH1 0x40 MLOAD PUSH1 0x24 ADD PUSH2 0x2F8 SWAP3 SWAP2 SWAP1 PUSH2 0x597 JUMP JUMPDEST PUSH1 0x40 MLOAD PUSH1 0x20 DUP2 DUP4 SUB SUB DUP2 MSTORE SWAP1 PUSH1 0x40 MSTORE PUSH32 0xBE434A2C00000000000000000000000000000000000000000000000000000000 PUSH28 0xFFFFFFFFFFFFFFFFFFFFFFFFFFFFFFFFFFFFFFFFFFFFFFFFFFFFFFFF NOT AND PUSH1 0x20 DUP3 ADD DUP1 MLOAD PUSH28 0xFFFFFFFFFFFFFFFFFFFFFFFFFFFFFFFFFFFFFFFFFFFFFFFFFFFFFFFF DUP4 DUP2 DUP4 AND OR DUP4 MSTORE POP POP POP POP PUSH1 0x40 MLOAD PUSH2 0x382 SWAP2 SWAP1 PUSH2 0x580 JUMP JUMPDEST PUSH1 0x0 PUSH1 0x40 MLOAD DUP1 DUP4 SUB DUP2 DUP6 DUP8 GAS CALL SWAP3 POP POP POP RETURNDATASIZE DUP1 PUSH1 0x0 DUP2 EQ PUSH2 0x3BF JUMPI PUSH1 0x40 MLOAD SWAP2 POP PUSH1 0x1F NOT PUSH1 0x3F RETURNDATASIZE ADD AND DUP3 ADD PUSH1 0x40 MSTORE RETURNDATASIZE DUP3 MSTORE RETURNDATASIZE PUSH1 0x0 PUSH1 0x20 DUP5 ADD RETURNDATACOPY PUSH2 0x3C4 JUMP JUMPDEST PUSH1 0x60 SWAP2 POP JUMPDEST POP SWAP2 POP SWAP2 POP PUSH32 0x211793E58F00B3E734D024BA6CD956E5C3371570CE2F36886F32D842CC67E236 DUP3 DUP3 PUSH1 0x40 MLOAD PUSH2 0x3FA SWAP3 SWAP2 SWAP1 PUSH2 0x5F7 JUMP JUMPDEST PUSH1 0x40 MLOAD DUP1 SWAP2 SUB SWAP1 LOG1 POP POP POP POP POP JUMP JUMPDEST PUSH1 0x0 DUP2 CALLDATALOAD SWAP1 POP PUSH2 0x418 DUP2 PUSH2 0x80D JUMP JUMPDEST SWAP3 SWAP2 POP POP JUMP JUMPDEST PUSH1 0x0 DUP2 CALLDATALOAD SWAP1 POP PUSH2 0x42D DUP2 PUSH2 0x824 JUMP JUMPDEST SWAP3 SWAP2 POP POP JUMP JUMPDEST PUSH1 0x0 DUP1 PUSH1 0x40 DUP4 DUP6 SUB SLT ISZERO PUSH2 0x44A JUMPI PUSH2 0x449 PUSH2 0x7CE JUMP JUMPDEST JUMPDEST PUSH1 0x0 PUSH2 0x458 DUP6 DUP3 DUP7 ADD PUSH2 0x409 JUMP JUMPDEST SWAP3 POP POP PUSH1 0x20 PUSH2 0x469 DUP6 DUP3 DUP7 ADD PUSH2 0x409 JUMP JUMPDEST SWAP2 POP POP SWAP3 POP SWAP3 SWAP1 POP JUMP JUMPDEST PUSH1 0x0 DUP1 PUSH1 0x0 PUSH1 0x60 DUP5 DUP7 SUB SLT ISZERO PUSH2 0x48C JUMPI PUSH2 0x48B PUSH2 0x7CE JUMP JUMPDEST JUMPDEST PUSH1 0x0 PUSH2 0x49A DUP7 DUP3 DUP8 ADD PUSH2 0x409 JUMP JUMPDEST SWAP4 POP POP PUSH1 0x20 PUSH2 0x4AB DUP7 DUP3 DUP8 ADD PUSH2 0x409 JUMP JUMPDEST SWAP3 POP POP PUSH1 0x40 PUSH2 0x4BC DUP7 DUP3 DUP8 ADD PUSH2 0x41E JUMP JUMPDEST SWAP2 POP POP SWAP3 POP SWAP3 POP SWAP3 JUMP JUMPDEST PUSH2 0x4CF DUP2 PUSH2 0x724 JUMP JUMPDEST DUP3 MSTORE POP POP JUMP JUMPDEST PUSH2 0x4DE DUP2 PUSH2 0x736 JUMP JUMPDEST DUP3 MSTORE POP POP JUMP JUMPDEST PUSH1 0x0 PUSH2 0x4EF DUP3 PUSH2 0x662 JUMP JUMPDEST PUSH2 0x4F9 DUP2 DUP6 PUSH2 0x66D JUMP JUMPDEST SWAP4 POP PUSH2 0x509 DUP2 DUP6 PUSH1 0x20 DUP7 ADD PUSH2 0x76C JUMP JUMPDEST PUSH2 0x512 DUP2 PUSH2 0x7D3 JUMP JUMPDEST DUP5 ADD SWAP2 POP POP SWAP3 SWAP2 POP POP JUMP JUMPDEST PUSH1 0x0 PUSH2 0x528 DUP3 PUSH2 0x662 JUMP JUMPDEST PUSH2 0x532 DUP2 DUP6 PUSH2 0x67E JUMP JUMPDEST SWAP4 POP PUSH2 0x542 DUP2 DUP6 PUSH1 0x20 DUP7 ADD PUSH2 0x76C JUMP JUMPDEST DUP1 DUP5 ADD SWAP2 POP POP SWAP3 SWAP2 POP POP JUMP JUMPDEST PUSH1 0x0 PUSH2 0x55B PUSH1 0xD DUP4 PUSH2 0x689 JUMP JUMPDEST SWAP2 POP PUSH2 0x566 DUP3 PUSH2 0x7E4 JUMP JUMPDEST PUSH1 0x20 DUP3 ADD SWAP1 POP SWAP2 SWAP1 POP JUMP JUMPDEST PUSH2 0x57A DUP2 PUSH2 0x762 JUMP JUMPDEST DUP3 MSTORE POP POP JUMP JUMPDEST PUSH1 0x0 PUSH2 0x58C DUP3 DUP5 PUSH2 0x51D JUMP JUMPDEST SWAP2 POP DUP2 SWAP1 POP SWAP3 SWAP2 POP POP JUMP JUMPDEST PUSH1 0x0 PUSH1 0x40 DUP3 ADD SWAP1 POP PUSH2 0x5AC PUSH1 0x0 DUP4 ADD DUP6 PUSH2 0x4C6 JUMP JUMPDEST PUSH2 0x5B9 PUSH1 0x20 DUP4 ADD DUP5 PUSH2 0x4C6 JUMP JUMPDEST SWAP4 SWAP3 POP POP POP JUMP JUMPDEST PUSH1 0x0 PUSH1 0x60 DUP3 ADD SWAP1 POP PUSH2 0x5D5 PUSH1 0x0 DUP4 ADD DUP7 PUSH2 0x4C6 JUMP JUMPDEST PUSH2 0x5E2 PUSH1 0x20 DUP4 ADD DUP6 PUSH2 0x4C6 JUMP JUMPDEST PUSH2 0x5EF PUSH1 0x40 DUP4 ADD DUP5 PUSH2 0x571 JUMP JUMPDEST SWAP5 SWAP4 POP POP POP POP JUMP JUMPDEST PUSH1 0x0 PUSH1 0x40 DUP3 ADD SWAP1 POP PUSH2 0x60C PUSH1 0x0 DUP4 ADD DUP6 PUSH2 0x4D5 JUMP JUMPDEST DUP2 DUP2 SUB PUSH1 0x20 DUP4 ADD MSTORE PUSH2 0x61E DUP2 DUP5 PUSH2 0x4E4 JUMP JUMPDEST SWAP1 POP SWAP4 SWAP3 POP POP POP JUMP JUMPDEST PUSH1 0x0 PUSH1 0x20 DUP3 ADD SWAP1 POP DUP2 DUP2 SUB PUSH1 0x0 DUP4 ADD MSTORE PUSH2 0x640 DUP2 PUSH2 0x54E JUMP JUMPDEST SWAP1 POP SWAP2 SWAP1 POP JUMP JUMPDEST PUSH1 0x0 PUSH1 0x20 DUP3 ADD SWAP1 POP PUSH2 0x65C PUSH1 0x0 DUP4 ADD DUP5 PUSH2 0x571 JUMP JUMPDEST SWAP3 SWAP2 POP POP JUMP JUMPDEST PUSH1 0x0 DUP2 MLOAD SWAP1 POP SWAP2 SWAP1 POP JUMP JUMPDEST PUSH1 0x0 DUP3 DUP3 MSTORE PUSH1 0x20 DUP3 ADD SWAP1 POP SWAP3 SWAP2 POP POP JUMP JUMPDEST PUSH1 0x0 DUP2 SWAP1 POP SWAP3 SWAP2 POP POP JUMP JUMPDEST PUSH1 0x0 DUP3 DUP3 MSTORE PUSH1 0x20 DUP3 ADD SWAP1 POP SWAP3 SWAP2 POP POP JUMP JUMPDEST PUSH1 0x0 PUSH2 0x6A5 DUP3 PUSH2 0x762 JUMP JUMPDEST SWAP2 POP PUSH2 0x6B0 DUP4 PUSH2 0x762 JUMP JUMPDEST SWAP3 POP DUP3 PUSH32 0xFFFFFFFFFFFFFFFFFFFFFFFFFFFFFFFFFFFFFFFFFFFFFFFFFFFFFFFFFFFFFFFF SUB DUP3 GT ISZERO PUSH2 0x6E5 JUMPI PUSH2 0x6E4 PUSH2 0x79F JUMP JUMPDEST JUMPDEST DUP3 DUP3 ADD SWAP1 POP SWAP3 SWAP2 POP POP JUMP JUMPDEST PUSH1 0x0 PUSH2 0x6FB DUP3 PUSH2 0x762 JUMP JUMPDEST SWAP2 POP PUSH2 0x706 DUP4 PUSH2 0x762 JUMP JUMPDEST SWAP3 POP DUP3 DUP3 LT ISZERO PUSH2 0x719 JUMPI PUSH2 0x718 PUSH2 0x79F JUMP JUMPDEST JUMPDEST DUP3 DUP3 SUB SWAP1 POP SWAP3 SWAP2 POP POP JUMP JUMPDEST PUSH1 0x0 PUSH2 0x72F DUP3 PUSH2 0x742 JUMP JUMPDEST SWAP1 POP SWAP2 SWAP1 POP JUMP JUMPDEST PUSH1 0x0 DUP2 ISZERO ISZERO SWAP1 POP SWAP2 SWAP1 POP JUMP JUMPDEST PUSH1 0x0 PUSH20 0xFFFFFFFFFFFFFFFFFFFFFFFFFFFFFFFFFFFFFFFF DUP3 AND SWAP1 POP SWAP2 SWAP1 POP JUMP JUMPDEST PUSH1 0x0 DUP2 SWAP1 POP SWAP2 SWAP1 POP JUMP JUMPDEST PUSH1 0x0 JUMPDEST DUP4 DUP2 LT ISZERO PUSH2 0x78A JUMPI DUP1 DUP3 ADD MLOAD DUP2 DUP5 ADD MSTORE PUSH1 0x20 DUP2 ADD SWAP1 POP PUSH2 0x76F JUMP JUMPDEST DUP4 DUP2 GT ISZERO PUSH2 0x799 JUMPI PUSH1 0x0 DUP5 DUP5 ADD MSTORE JUMPDEST POP POP POP POP JUMP JUMPDEST PUSH32 0x4E487B7100000000000000000000000000000000000000000000000000000000 PUSH1 0x0 MSTORE PUSH1 0x11 PUSH1 0x4 MSTORE PUSH1 0x24 PUSH1 0x0 REVERT JUMPDEST PUSH1 0x0 DUP1 REVERT JUMPDEST PUSH1 0x0 PUSH1 0x1F NOT PUSH1 0x1F DUP4 ADD AND SWAP1 POP SWAP2 SWAP1 POP JUMP JUMPDEST PUSH32 0x4E6F7420746865204F776E657200000000000000000000000000000000000000 PUSH1 0x0 DUP3 ADD MSTORE POP JUMP JUMPDEST PUSH2 0x816 DUP2 PUSH2 0x724 JUMP JUMPDEST DUP2 EQ PUSH2 0x821 JUMPI PUSH1 0x0 DUP1 REVERT JUMPDEST POP JUMP JUMPDEST PUSH2 0x82D DUP2 PUSH2 0x762 JUMP JUMPDEST DUP2 EQ PUSH2 0x838 JUMPI PUSH1 0x0 DUP1 REVERT JUMPDEST POP JUMP INVALID LOG2 PUSH5 0x6970667358 0x22 SLT KECCAK256 PUSH27 0x7E7A965F0E5F49246963C3A1726CE26F5559972BEF23292FCF8125 PUSH6 0x86D3A164736F PUSH13 0x63430008070033000000000000 "
				},
				"gasEstimates": {
					"creation": {
						"codeDepositCost": "432200",
						"executionCost": "24734",
						"totalCost": "456934"
					},
					"external": {
						"changeBalance(address,address)": "infinite",
						"userBalance()": "2526",
						"withdraw(address,address,uint256)": "infinite"
					}
				},
				"methodIdentifiers": {
					"changeBalance(address,address)": "be434a2c",
					"userBalance()": "bf152765",
					"withdraw(address,address,uint256)": "d9caed12"
				}
			},
			"storageLayout": {
				"storage": [
					{
						"astId": 17,
						"contract": "contracts/EthersWallet.sol:EthersWallet",
						"label": "owner",
						"offset": 0,
						"slot": "0",
						"type": "t_address"
					},
					{
						"astId": 21,
						"contract": "contracts/EthersWallet.sol:EthersWallet",
						"label": "balances",
						"offset": 0,
						"slot": "1",
						"type": "t_mapping(t_address,t_uint256)"
					}
				],
				"types": {
					"t_address": {
						"encoding": "inplace",
						"label": "address",
						"numberOfBytes": "20"
					},
					"t_mapping(t_address,t_uint256)": {
						"encoding": "mapping",
						"key": "t_address",
						"label": "mapping(address => uint256)",
						"numberOfBytes": "32",
						"value": "t_uint256"
					},
					"t_uint256": {
						"encoding": "inplace",
						"label": "uint256",
						"numberOfBytes": "32"
					}
				}
			},
			"userdoc": {
				"kind": "user",
				"methods": {},
				"version": 1
			}
		}
	}
}