{
	"contracts/3_Ballot.sol": {
		"SendEther": {
			"abi": [
				{
					"inputs": [],
					"stateMutability": "payable",
					"type": "constructor"
				},
				{
					"inputs": [],
					"name": "receive",
					"outputs": [],
					"stateMutability": "payable",
					"type": "function"
				},
				{
					"inputs": [
						{
							"internalType": "address payable",
							"name": "_to",
							"type": "address"
						}
					],
					"name": "sendViaCall",
					"outputs": [],
					"stateMutability": "payable",
					"type": "function"
				},
				{
					"inputs": [
						{
							"internalType": "address payable",
							"name": "_to",
							"type": "address"
						}
					],
					"name": "sendViaSend",
					"outputs": [],
					"stateMutability": "payable",
					"type": "function"
				},
				{
					"inputs": [
						{
							"internalType": "address payable",
							"name": "_to",
							"type": "address"
						}
					],
					"name": "sendViaTransfer",
					"outputs": [],
					"stateMutability": "payable",
					"type": "function"
				}
			],
			"devdoc": {
				"kind": "dev",
				"methods": {},
				"version": 1
			},
			"evm": {
				"assembly": "    /* \"contracts/3_Ballot.sol\":75:498  contract SendEther{... */\n  mstore(0x40, 0x80)\n  dataSize(sub_0)\n  dup1\n  dataOffset(sub_0)\n  0x00\n  codecopy\n  0x00\n  return\nstop\n\nsub_0: assembly {\n        /* \"contracts/3_Ballot.sol\":75:498  contract SendEther{... */\n      mstore(0x40, 0x80)\n      jumpi(tag_1, lt(calldatasize, 0x04))\n      shr(0xe0, calldataload(0x00))\n      dup1\n      0x636e082b\n      eq\n      tag_2\n      jumpi\n      dup1\n      0x74be4806\n      eq\n      tag_3\n      jumpi\n      dup1\n      0x830c29ae\n      eq\n      tag_4\n      jumpi\n      dup1\n      0xa3e76c0f\n      eq\n      tag_5\n      jumpi\n    tag_1:\n      0x00\n      dup1\n      revert\n        /* \"contracts/3_Ballot.sol\":190:288  function sendViaTransfer(address payable _to) external payable{... */\n    tag_2:\n      tag_6\n      0x04\n      dup1\n      calldatasize\n      sub\n      dup2\n      add\n      swap1\n      tag_7\n      swap2\n      swap1\n      tag_8\n      jump\t// in\n    tag_7:\n      tag_9\n      jump\t// in\n    tag_6:\n      stop\n        /* \"contracts/3_Ballot.sol\":295:385  function sendViaSend(address payable _to) external payable{... */\n    tag_3:\n      tag_10\n      0x04\n      dup1\n      calldatasize\n      sub\n      dup2\n      add\n      swap1\n      tag_11\n      swap2\n      swap1\n      tag_8\n      jump\t// in\n    tag_11:\n      tag_12\n      jump\t// in\n    tag_10:\n      stop\n        /* \"contracts/3_Ballot.sol\":398:492  function sendViaCall(address payable _to) external payable{... */\n    tag_4:\n      tag_13\n      0x04\n      dup1\n      calldatasize\n      sub\n      dup2\n      add\n      swap1\n      tag_14\n      swap2\n      swap1\n      tag_8\n      jump\t// in\n    tag_14:\n      tag_15\n      jump\t// in\n    tag_13:\n      stop\n        /* \"contracts/3_Ballot.sol\":138:183  function ... */\n    tag_5:\n      tag_16\n      tag_17\n      jump\t// in\n    tag_16:\n      stop\n        /* \"contracts/3_Ballot.sol\":190:288  function sendViaTransfer(address payable _to) external payable{... */\n    tag_9:\n        /* \"contracts/3_Ballot.sol\":263:266  _to */\n      dup1\n        /* \"contracts/3_Ballot.sol\":263:275  _to.transfer */\n      0xffffffffffffffffffffffffffffffffffffffff\n      and\n        /* \"contracts/3_Ballot.sol\":263:280  _to.transfer(123) */\n      0x08fc\n        /* \"contracts/3_Ballot.sol\":276:279  123 */\n      0x7b\n        /* \"contracts/3_Ballot.sol\":263:280  _to.transfer(123) */\n      swap1\n      dup2\n      iszero\n      mul\n      swap1\n      mload(0x40)\n      0x00\n      mload(0x40)\n      dup1\n      dup4\n      sub\n      dup2\n      dup6\n      dup9\n      dup9\n      call\n      swap4\n      pop\n      pop\n      pop\n      pop\n      iszero\n      dup1\n      iszero\n      tag_20\n      jumpi\n      returndatasize\n      0x00\n      dup1\n      returndatacopy\n      revert(0x00, returndatasize)\n    tag_20:\n      pop\n        /* \"contracts/3_Ballot.sol\":190:288  function sendViaTransfer(address payable _to) external payable{... */\n      pop\n      jump\t// out\n        /* \"contracts/3_Ballot.sol\":295:385  function sendViaSend(address payable _to) external payable{... */\n    tag_12:\n        /* \"contracts/3_Ballot.sol\":364:367  _to */\n      dup1\n        /* \"contracts/3_Ballot.sol\":364:372  _to.send */\n      0xffffffffffffffffffffffffffffffffffffffff\n      and\n        /* \"contracts/3_Ballot.sol\":364:377  _to.send(123) */\n      0x08fc\n        /* \"contracts/3_Ballot.sol\":373:376  123 */\n      0x7b\n        /* \"contracts/3_Ballot.sol\":364:377  _to.send(123) */\n      swap1\n      dup2\n      iszero\n      mul\n      swap1\n      mload(0x40)\n      0x00\n      mload(0x40)\n      dup1\n      dup4\n      sub\n      dup2\n      dup6\n      dup9\n      dup9\n      call\n      swap4\n      pop\n      pop\n      pop\n      pop\n      pop\n        /* \"contracts/3_Ballot.sol\":295:385  function sendViaSend(address payable _to) external payable{... */\n      pop\n      jump\t// out\n        /* \"contracts/3_Ballot.sol\":398:492  function sendViaCall(address payable _to) external payable{... */\n    tag_15:\n      pop\n      jump\t// out\n        /* \"contracts/3_Ballot.sol\":138:183  function ... */\n    tag_17:\n      jump\t// out\n        /* \"#utility.yul\":7:162   */\n    tag_26:\n      0x00\n        /* \"#utility.yul\":99:105   */\n      dup2\n        /* \"#utility.yul\":86:106   */\n      calldataload\n        /* \"#utility.yul\":77:106   */\n      swap1\n      pop\n        /* \"#utility.yul\":115:156   */\n      tag_28\n        /* \"#utility.yul\":150:155   */\n      dup2\n        /* \"#utility.yul\":115:156   */\n      tag_29\n      jump\t// in\n    tag_28:\n        /* \"#utility.yul\":67:162   */\n      swap3\n      swap2\n      pop\n      pop\n      jump\t// out\n        /* \"#utility.yul\":168:446   */\n    tag_8:\n      0x00\n        /* \"#utility.yul\":284:286   */\n      0x20\n        /* \"#utility.yul\":272:281   */\n      dup3\n        /* \"#utility.yul\":263:270   */\n      dup5\n        /* \"#utility.yul\":259:282   */\n      sub\n        /* \"#utility.yul\":255:287   */\n      slt\n        /* \"#utility.yul\":252:254   */\n      iszero\n      tag_31\n      jumpi\n        /* \"#utility.yul\":300:301   */\n      0x00\n        /* \"#utility.yul\":297:298   */\n      dup1\n        /* \"#utility.yul\":290:302   */\n      revert\n        /* \"#utility.yul\":252:254   */\n    tag_31:\n        /* \"#utility.yul\":343:344   */\n      0x00\n        /* \"#utility.yul\":368:429   */\n      tag_32\n        /* \"#utility.yul\":421:428   */\n      dup5\n        /* \"#utility.yul\":412:418   */\n      dup3\n        /* \"#utility.yul\":401:410   */\n      dup6\n        /* \"#utility.yul\":397:419   */\n      add\n        /* \"#utility.yul\":368:429   */\n      tag_26\n      jump\t// in\n    tag_32:\n        /* \"#utility.yul\":358:429   */\n      swap2\n      pop\n        /* \"#utility.yul\":314:439   */\n      pop\n        /* \"#utility.yul\":242:446   */\n      swap3\n      swap2\n      pop\n      pop\n      jump\t// out\n        /* \"#utility.yul\":452:556   */\n    tag_33:\n      0x00\n        /* \"#utility.yul\":526:550   */\n      tag_35\n        /* \"#utility.yul\":544:549   */\n      dup3\n        /* \"#utility.yul\":526:550   */\n      tag_36\n      jump\t// in\n    tag_35:\n        /* \"#utility.yul\":515:550   */\n      swap1\n      pop\n        /* \"#utility.yul\":505:556   */\n      swap2\n      swap1\n      pop\n      jump\t// out\n        /* \"#utility.yul\":562:688   */\n    tag_36:\n      0x00\n        /* \"#utility.yul\":639:681   */\n      0xffffffffffffffffffffffffffffffffffffffff\n        /* \"#utility.yul\":632:637   */\n      dup3\n        /* \"#utility.yul\":628:682   */\n      and\n        /* \"#utility.yul\":617:682   */\n      swap1\n      pop\n        /* \"#utility.yul\":607:688   */\n      swap2\n      swap1\n      pop\n      jump\t// out\n        /* \"#utility.yul\":694:832   */\n    tag_29:\n        /* \"#utility.yul\":775:807   */\n      tag_39\n        /* \"#utility.yul\":801:806   */\n      dup2\n        /* \"#utility.yul\":775:807   */\n      tag_33\n      jump\t// in\n    tag_39:\n        /* \"#utility.yul\":768:773   */\n      dup2\n        /* \"#utility.yul\":765:808   */\n      eq\n        /* \"#utility.yul\":755:757   */\n      tag_40\n      jumpi\n        /* \"#utility.yul\":822:823   */\n      0x00\n        /* \"#utility.yul\":819:820   */\n      dup1\n        /* \"#utility.yul\":812:824   */\n      revert\n        /* \"#utility.yul\":755:757   */\n    tag_40:\n        /* \"#utility.yul\":745:832   */\n      pop\n      jump\t// out\n\n    auxdata: 0xa2646970667358221220372b32093374302ef007d96741f369260bf849197227fce01cbdda36ff02196e64736f6c63430008000033\n}\n",
				"bytecode": {
					"linkReferences": {},
					"object": "60806040526101e9806100136000396000f3fe60806040526004361061003f5760003560e01c8063636e082b1461004457806374be480614610060578063830c29ae1461007c578063a3e76c0f14610098575b600080fd5b61005e60048036038101906100599190610141565b6100a2565b005b61007a60048036038101906100759190610141565b6100ed565b005b61009660048036038101906100919190610141565b610127565b005b6100a061012a565b005b8073ffffffffffffffffffffffffffffffffffffffff166108fc607b9081150290604051600060405180830381858888f193505050501580156100e9573d6000803e3d6000fd5b5050565b8073ffffffffffffffffffffffffffffffffffffffff166108fc607b9081150290604051600060405180830381858888f193505050505050565b50565b565b60008135905061013b8161019c565b92915050565b60006020828403121561015357600080fd5b60006101618482850161012c565b91505092915050565b60006101758261017c565b9050919050565b600073ffffffffffffffffffffffffffffffffffffffff82169050919050565b6101a58161016a565b81146101b057600080fd5b5056fea2646970667358221220372b32093374302ef007d96741f369260bf849197227fce01cbdda36ff02196e64736f6c63430008000033",
					"opcodes": "PUSH1 0x80 PUSH1 0x40 MSTORE PUSH2 0x1E9 DUP1 PUSH2 0x13 PUSH1 0x0 CODECOPY PUSH1 0x0 RETURN INVALID PUSH1 0x80 PUSH1 0x40 MSTORE PUSH1 0x4 CALLDATASIZE LT PUSH2 0x3F JUMPI PUSH1 0x0 CALLDATALOAD PUSH1 0xE0 SHR DUP1 PUSH4 0x636E082B EQ PUSH2 0x44 JUMPI DUP1 PUSH4 0x74BE4806 EQ PUSH2 0x60 JUMPI DUP1 PUSH4 0x830C29AE EQ PUSH2 0x7C JUMPI DUP1 PUSH4 0xA3E76C0F EQ PUSH2 0x98 JUMPI JUMPDEST PUSH1 0x0 DUP1 REVERT JUMPDEST PUSH2 0x5E PUSH1 0x4 DUP1 CALLDATASIZE SUB DUP2 ADD SWAP1 PUSH2 0x59 SWAP2 SWAP1 PUSH2 0x141 JUMP JUMPDEST PUSH2 0xA2 JUMP JUMPDEST STOP JUMPDEST PUSH2 0x7A PUSH1 0x4 DUP1 CALLDATASIZE SUB DUP2 ADD SWAP1 PUSH2 0x75 SWAP2 SWAP1 PUSH2 0x141 JUMP JUMPDEST PUSH2 0xED JUMP JUMPDEST STOP JUMPDEST PUSH2 0x96 PUSH1 0x4 DUP1 CALLDATASIZE SUB DUP2 ADD SWAP1 PUSH2 0x91 SWAP2 SWAP1 PUSH2 0x141 JUMP JUMPDEST PUSH2 0x127 JUMP JUMPDEST STOP JUMPDEST PUSH2 0xA0 PUSH2 0x12A JUMP JUMPDEST STOP JUMPDEST DUP1 PUSH20 0xFFFFFFFFFFFFFFFFFFFFFFFFFFFFFFFFFFFFFFFF AND PUSH2 0x8FC PUSH1 0x7B SWAP1 DUP2 ISZERO MUL SWAP1 PUSH1 0x40 MLOAD PUSH1 0x0 PUSH1 0x40 MLOAD DUP1 DUP4 SUB DUP2 DUP6 DUP9 DUP9 CALL SWAP4 POP POP POP POP ISZERO DUP1 ISZERO PUSH2 0xE9 JUMPI RETURNDATASIZE PUSH1 0x0 DUP1 RETURNDATACOPY RETURNDATASIZE PUSH1 0x0 REVERT JUMPDEST POP POP JUMP JUMPDEST DUP1 PUSH20 0xFFFFFFFFFFFFFFFFFFFFFFFFFFFFFFFFFFFFFFFF AND PUSH2 0x8FC PUSH1 0x7B SWAP1 DUP2 ISZERO MUL SWAP1 PUSH1 0x40 MLOAD PUSH1 0x0 PUSH1 0x40 MLOAD DUP1 DUP4 SUB DUP2 DUP6 DUP9 DUP9 CALL SWAP4 POP POP POP POP POP POP JUMP JUMPDEST POP JUMP JUMPDEST JUMP JUMPDEST PUSH1 0x0 DUP2 CALLDATALOAD SWAP1 POP PUSH2 0x13B DUP2 PUSH2 0x19C JUMP JUMPDEST SWAP3 SWAP2 POP POP JUMP JUMPDEST PUSH1 0x0 PUSH1 0x20 DUP3 DUP5 SUB SLT ISZERO PUSH2 0x153 JUMPI PUSH1 0x0 DUP1 REVERT JUMPDEST PUSH1 0x0 PUSH2 0x161 DUP5 DUP3 DUP6 ADD PUSH2 0x12C JUMP JUMPDEST SWAP2 POP POP SWAP3 SWAP2 POP POP JUMP JUMPDEST PUSH1 0x0 PUSH2 0x175 DUP3 PUSH2 0x17C JUMP JUMPDEST SWAP1 POP SWAP2 SWAP1 POP JUMP JUMPDEST PUSH1 0x0 PUSH20 0xFFFFFFFFFFFFFFFFFFFFFFFFFFFFFFFFFFFFFFFF DUP3 AND SWAP1 POP SWAP2 SWAP1 POP JUMP JUMPDEST PUSH2 0x1A5 DUP2 PUSH2 0x16A JUMP JUMPDEST DUP2 EQ PUSH2 0x1B0 JUMPI PUSH1 0x0 DUP1 REVERT JUMPDEST POP JUMP INVALID LOG2 PUSH5 0x6970667358 0x22 SLT KECCAK256 CALLDATACOPY 0x2B ORIGIN MULMOD CALLER PUSH21 0x302EF007D96741F369260BF849197227FCE01CBDDA CALLDATASIZE SELFDESTRUCT MUL NOT PUSH15 0x64736F6C6343000800003300000000 "
				},
				"gasEstimates": {
					"creation": {
						"codeDepositCost": "97800",
						"executionCost": "123",
						"totalCost": "97923"
					},
					"external": {
						"receive()": "164",
						"sendViaCall(address)": "453",
						"sendViaSend(address)": "infinite",
						"sendViaTransfer(address)": "infinite"
					}
				},
				"methodIdentifiers": {
					"receive()": "a3e76c0f",
					"sendViaCall(address)": "830c29ae",
					"sendViaSend(address)": "74be4806",
					"sendViaTransfer(address)": "636e082b"
				}
			},
			"storageLayout": {
				"storage": [],
				"types": null
			},
			"userdoc": {
				"kind": "user",
				"methods": {},
				"version": 1
			}
		}
	}
}