{
	"contracts/EthersWallet.sol": {
		"EthersWallet": {
			"abi": [
				{
					"inputs": [],
					"stateMutability": "nonpayable",
					"type": "constructor"
				},
				{
					"anonymous": false,
					"inputs": [
						{
							"indexed": false,
							"internalType": "bool",
							"name": "",
							"type": "bool"
						},
						{
							"indexed": false,
							"internalType": "bytes",
							"name": "",
							"type": "bytes"
						}
					],
					"name": "Transfered",
					"type": "event"
				},
				{
					"anonymous": false,
					"inputs": [
						{
							"indexed": false,
							"internalType": "address",
							"name": "",
							"type": "address"
						},
						{
							"indexed": false,
							"internalType": "address",
							"name": "",
							"type": "address"
						},
						{
							"indexed": false,
							"internalType": "uint256",
							"name": "",
							"type": "uint256"
						}
					],
					"name": "Transferring",
					"type": "event"
				},
				{
					"inputs": [
						{
							"internalType": "address",
							"name": "_to",
							"type": "address"
						},
						{
							"internalType": "address",
							"name": "_from",
							"type": "address"
						}
					],
					"name": "changeBalance",
					"outputs": [],
					"stateMutability": "payable",
					"type": "function"
				},
				{
					"inputs": [],
					"name": "userBalance",
					"outputs": [
						{
							"internalType": "uint256",
							"name": "",
							"type": "uint256"
						}
					],
					"stateMutability": "view",
					"type": "function"
				},
				{
					"inputs": [
						{
							"internalType": "address",
							"name": "_to",
							"type": "address"
						},
						{
							"internalType": "address",
							"name": "_from",
							"type": "address"
						},
						{
							"internalType": "uint256",
							"name": "_value",
							"type": "uint256"
						}
					],
					"name": "withdraw",
					"outputs": [],
					"stateMutability": "nonpayable",
					"type": "function"
				},
				{
					"stateMutability": "payable",
					"type": "receive"
				}
			],
			"devdoc": {
				"kind": "dev",
				"methods": {},
				"version": 1
			},
			"evm": {
				"assembly": "    /* \"contracts/EthersWallet.sol\":66:1217  contract EthersWallet {\r... */\n  mstore(0x40, 0x80)\n    /* \"contracts/EthersWallet.sol\":367:418  constructor() {\r... */\n  callvalue\n  dup1\n  iszero\n  tag_1\n  jumpi\n  0x00\n  dup1\n  revert\ntag_1:\n  pop\n    /* \"contracts/EthersWallet.sol\":400:410  msg.sender */\n  caller\n    /* \"contracts/EthersWallet.sol\":392:397  owner */\n  0x00\n  dup1\n    /* \"contracts/EthersWallet.sol\":392:410  owner = msg.sender */\n  0x0100\n  exp\n  dup2\n  sload\n  dup2\n  0xffffffffffffffffffffffffffffffffffffffff\n  mul\n  not\n  and\n  swap1\n  dup4\n  0xffffffffffffffffffffffffffffffffffffffff\n  and\n  mul\n  or\n  swap1\n  sstore\n  pop\n    /* \"contracts/EthersWallet.sol\":66:1217  contract EthersWallet {\r... */\n  dataSize(sub_0)\n  dup1\n  dataOffset(sub_0)\n  0x00\n  codecopy\n  0x00\n  return\nstop\n\nsub_0: assembly {\n        /* \"contracts/EthersWallet.sol\":66:1217  contract EthersWallet {\r... */\n      mstore(0x40, 0x80)\n      jumpi(tag_1, lt(calldatasize, 0x04))\n      shr(0xe0, calldataload(0x00))\n      dup1\n      0xbe434a2c\n      eq\n      tag_3\n      jumpi\n      dup1\n      0xbf152765\n      eq\n      tag_4\n      jumpi\n      dup1\n      0xd9caed12\n      eq\n      tag_5\n      jumpi\n      jump(tag_2)\n    tag_1:\n      jumpi(tag_2, calldatasize)\n        /* \"contracts/EthersWallet.sol\":585:594  msg.value */\n      callvalue\n        /* \"contracts/EthersWallet.sol\":561:569  balances */\n      0x01\n        /* \"contracts/EthersWallet.sol\":561:581  balances[msg.sender] */\n      0x00\n        /* \"contracts/EthersWallet.sol\":570:580  msg.sender */\n      caller\n        /* \"contracts/EthersWallet.sol\":561:581  balances[msg.sender] */\n      0xffffffffffffffffffffffffffffffffffffffff\n      and\n      0xffffffffffffffffffffffffffffffffffffffff\n      and\n      dup2\n      mstore\n      0x20\n      add\n      swap1\n      dup2\n      mstore\n      0x20\n      add\n      0x00\n      keccak256\n      0x00\n        /* \"contracts/EthersWallet.sol\":561:594  balances[msg.sender] += msg.value */\n      dup3\n      dup3\n      sload\n      tag_8\n      swap2\n      swap1\n      tag_9\n      jump\t// in\n    tag_8:\n      swap3\n      pop\n      pop\n      dup2\n      swap1\n      sstore\n      pop\n        /* \"contracts/EthersWallet.sol\":66:1217  contract EthersWallet {\r... */\n      stop\n    tag_2:\n      0x00\n      dup1\n      revert\n        /* \"contracts/EthersWallet.sol\":612:817  function changeBalance(address _to,address _from) external payable{\r... */\n    tag_3:\n      tag_10\n      0x04\n      dup1\n      calldatasize\n      sub\n      dup2\n      add\n      swap1\n      tag_11\n      swap2\n      swap1\n      tag_12\n      jump\t// in\n    tag_11:\n      tag_13\n      jump\t// in\n    tag_10:\n      stop\n        /* \"contracts/EthersWallet.sol\":1118:1214  function userBalance() external view returns(uint){\r... */\n    tag_4:\n      callvalue\n      dup1\n      iszero\n      tag_14\n      jumpi\n      0x00\n      dup1\n      revert\n    tag_14:\n      pop\n      tag_15\n      tag_16\n      jump\t// in\n    tag_15:\n      mload(0x40)\n      tag_17\n      swap2\n      swap1\n      tag_18\n      jump\t// in\n    tag_17:\n      mload(0x40)\n      dup1\n      swap2\n      sub\n      swap1\n      return\n        /* \"contracts/EthersWallet.sol\":825:1110  function withdraw(address _to,address _from, uint _value) external isOwner {\r... */\n    tag_5:\n      callvalue\n      dup1\n      iszero\n      tag_19\n      jumpi\n      0x00\n      dup1\n      revert\n    tag_19:\n      pop\n      tag_20\n      0x04\n      dup1\n      calldatasize\n      sub\n      dup2\n      add\n      swap1\n      tag_21\n      swap2\n      swap1\n      tag_22\n      jump\t// in\n    tag_21:\n      tag_23\n      jump\t// in\n    tag_20:\n      stop\n        /* \"contracts/EthersWallet.sol\":612:817  function changeBalance(address _to,address _from) external payable{\r... */\n    tag_13:\n        /* \"contracts/EthersWallet.sol\":708:717  msg.value */\n      callvalue\n        /* \"contracts/EthersWallet.sol\":691:699  balances */\n      0x01\n        /* \"contracts/EthersWallet.sol\":691:704  balances[_to] */\n      0x00\n        /* \"contracts/EthersWallet.sol\":700:703  _to */\n      dup5\n        /* \"contracts/EthersWallet.sol\":691:704  balances[_to] */\n      0xffffffffffffffffffffffffffffffffffffffff\n      and\n      0xffffffffffffffffffffffffffffffffffffffff\n      and\n      dup2\n      mstore\n      0x20\n      add\n      swap1\n      dup2\n      mstore\n      0x20\n      add\n      0x00\n      keccak256\n      0x00\n        /* \"contracts/EthersWallet.sol\":691:717  balances[_to] += msg.value */\n      dup3\n      dup3\n      sload\n      tag_25\n      swap2\n      swap1\n      tag_9\n      jump\t// in\n    tag_25:\n      swap3\n      pop\n      pop\n      dup2\n      swap1\n      sstore\n      pop\n        /* \"contracts/EthersWallet.sol\":747:756  msg.value */\n      callvalue\n        /* \"contracts/EthersWallet.sol\":728:736  balances */\n      0x01\n        /* \"contracts/EthersWallet.sol\":728:743  balances[_from] */\n      0x00\n        /* \"contracts/EthersWallet.sol\":737:742  _from */\n      dup4\n        /* \"contracts/EthersWallet.sol\":728:743  balances[_from] */\n      0xffffffffffffffffffffffffffffffffffffffff\n      and\n      0xffffffffffffffffffffffffffffffffffffffff\n      and\n      dup2\n      mstore\n      0x20\n      add\n      swap1\n      dup2\n      mstore\n      0x20\n      add\n      0x00\n      keccak256\n      0x00\n        /* \"contracts/EthersWallet.sol\":728:756  balances[_from] -= msg.value */\n      dup3\n      dup3\n      sload\n      tag_26\n      swap2\n      swap1\n      tag_27\n      jump\t// in\n    tag_26:\n      swap3\n      pop\n      pop\n      dup2\n      swap1\n      sstore\n      pop\n        /* \"contracts/EthersWallet.sol\":774:807  Transferring(_to,_from,msg.value) */\n      0xd53683c2ddbfbeaa0862bf4bb2ad12d32e889a7539dde25b42322b1139dd5c43\n        /* \"contracts/EthersWallet.sol\":787:790  _to */\n      dup3\n        /* \"contracts/EthersWallet.sol\":791:796  _from */\n      dup3\n        /* \"contracts/EthersWallet.sol\":797:806  msg.value */\n      callvalue\n        /* \"contracts/EthersWallet.sol\":774:807  Transferring(_to,_from,msg.value) */\n      mload(0x40)\n      tag_28\n      swap4\n      swap3\n      swap2\n      swap1\n      tag_29\n      jump\t// in\n    tag_28:\n      mload(0x40)\n      dup1\n      swap2\n      sub\n      swap1\n      log1\n        /* \"contracts/EthersWallet.sol\":612:817  function changeBalance(address _to,address _from) external payable{\r... */\n      pop\n      pop\n      jump\t// out\n        /* \"contracts/EthersWallet.sol\":1118:1214  function userBalance() external view returns(uint){\r... */\n    tag_16:\n        /* \"contracts/EthersWallet.sol\":1163:1167  uint */\n      0x00\n        /* \"contracts/EthersWallet.sol\":1186:1194  balances */\n      0x01\n        /* \"contracts/EthersWallet.sol\":1186:1206  balances[msg.sender] */\n      0x00\n        /* \"contracts/EthersWallet.sol\":1195:1205  msg.sender */\n      caller\n        /* \"contracts/EthersWallet.sol\":1186:1206  balances[msg.sender] */\n      0xffffffffffffffffffffffffffffffffffffffff\n      and\n      0xffffffffffffffffffffffffffffffffffffffff\n      and\n      dup2\n      mstore\n      0x20\n      add\n      swap1\n      dup2\n      mstore\n      0x20\n      add\n      0x00\n      keccak256\n      sload\n        /* \"contracts/EthersWallet.sol\":1179:1206  return balances[msg.sender] */\n      swap1\n      pop\n        /* \"contracts/EthersWallet.sol\":1118:1214  function userBalance() external view returns(uint){\r... */\n      swap1\n      jump\t// out\n        /* \"contracts/EthersWallet.sol\":825:1110  function withdraw(address _to,address _from, uint _value) external isOwner {\r... */\n    tag_23:\n        /* \"contracts/EthersWallet.sol\":312:317  owner */\n      0x00\n      dup1\n      sload\n      swap1\n      0x0100\n      exp\n      swap1\n      div\n      0xffffffffffffffffffffffffffffffffffffffff\n      and\n        /* \"contracts/EthersWallet.sol\":298:317  msg.sender == owner */\n      0xffffffffffffffffffffffffffffffffffffffff\n      and\n        /* \"contracts/EthersWallet.sol\":298:308  msg.sender */\n      caller\n        /* \"contracts/EthersWallet.sol\":298:317  msg.sender == owner */\n      0xffffffffffffffffffffffffffffffffffffffff\n      and\n      eq\n        /* \"contracts/EthersWallet.sol\":290:335  require(msg.sender == owner, \"Not the Owner\") */\n      tag_32\n      jumpi\n      mload(0x40)\n      0x08c379a000000000000000000000000000000000000000000000000000000000\n      dup2\n      mstore\n      0x04\n      add\n      tag_33\n      swap1\n      tag_34\n      jump\t// in\n    tag_33:\n      mload(0x40)\n      dup1\n      swap2\n      sub\n      swap1\n      revert\n    tag_32:\n        /* \"contracts/EthersWallet.sol\":913:925  bool success */\n      0x00\n        /* \"contracts/EthersWallet.sol\":927:944  bytes memory data */\n      dup1\n        /* \"contracts/EthersWallet.sol\":948:951  _to */\n      dup5\n        /* \"contracts/EthersWallet.sol\":948:956  _to.call */\n      0xffffffffffffffffffffffffffffffffffffffff\n      and\n        /* \"contracts/EthersWallet.sol\":964:970  _value */\n      dup4\n        /* \"contracts/EthersWallet.sol\":948:975  _to.call{value: _value}(\"\") */\n      mload(0x40)\n      tag_36\n      swap1\n      tag_37\n      jump\t// in\n    tag_36:\n      0x00\n      mload(0x40)\n      dup1\n      dup4\n      sub\n      dup2\n      dup6\n      dup8\n      gas\n      call\n      swap3\n      pop\n      pop\n      pop\n      returndatasize\n      dup1\n      0x00\n      dup2\n      eq\n      tag_40\n      jumpi\n      mload(0x40)\n      swap2\n      pop\n      and(add(returndatasize, 0x3f), not(0x1f))\n      dup3\n      add\n      0x40\n      mstore\n      returndatasize\n      dup3\n      mstore\n      returndatasize\n      0x00\n      0x20\n      dup5\n      add\n      returndatacopy\n      jump(tag_39)\n    tag_40:\n      0x60\n      swap2\n      pop\n    tag_39:\n      pop\n        /* \"contracts/EthersWallet.sol\":912:975  (bool success, bytes memory data) = _to.call{value: _value}(\"\") */\n      swap2\n      pop\n      swap2\n      pop\n        /* \"contracts/EthersWallet.sol\":1000:1024  Transfered(success,data) */\n      0x211793e58f00b3e734d024ba6cd956e5c3371570ce2f36886f32d842cc67e236\n        /* \"contracts/EthersWallet.sol\":1011:1018  success */\n      dup3\n        /* \"contracts/EthersWallet.sol\":1019:1023  data */\n      dup3\n        /* \"contracts/EthersWallet.sol\":1000:1024  Transfered(success,data) */\n      mload(0x40)\n      tag_41\n      swap3\n      swap2\n      swap1\n      tag_42\n      jump\t// in\n    tag_41:\n      mload(0x40)\n      dup1\n      swap2\n      sub\n      swap1\n      log1\n        /* \"contracts/EthersWallet.sol\":900:1110  {\r... */\n      pop\n      pop\n        /* \"contracts/EthersWallet.sol\":825:1110  function withdraw(address _to,address _from, uint _value) external isOwner {\r... */\n      pop\n      pop\n      pop\n      jump\t// out\n        /* \"#utility.yul\":7:146   */\n    tag_44:\n        /* \"#utility.yul\":53:58   */\n      0x00\n        /* \"#utility.yul\":91:97   */\n      dup2\n        /* \"#utility.yul\":78:98   */\n      calldataload\n        /* \"#utility.yul\":69:98   */\n      swap1\n      pop\n        /* \"#utility.yul\":107:140   */\n      tag_46\n        /* \"#utility.yul\":134:139   */\n      dup2\n        /* \"#utility.yul\":107:140   */\n      tag_47\n      jump\t// in\n    tag_46:\n        /* \"#utility.yul\":7:146   */\n      swap3\n      swap2\n      pop\n      pop\n      jump\t// out\n        /* \"#utility.yul\":152:291   */\n    tag_48:\n        /* \"#utility.yul\":198:203   */\n      0x00\n        /* \"#utility.yul\":236:242   */\n      dup2\n        /* \"#utility.yul\":223:243   */\n      calldataload\n        /* \"#utility.yul\":214:243   */\n      swap1\n      pop\n        /* \"#utility.yul\":252:285   */\n      tag_50\n        /* \"#utility.yul\":279:284   */\n      dup2\n        /* \"#utility.yul\":252:285   */\n      tag_51\n      jump\t// in\n    tag_50:\n        /* \"#utility.yul\":152:291   */\n      swap3\n      swap2\n      pop\n      pop\n      jump\t// out\n        /* \"#utility.yul\":297:771   */\n    tag_12:\n        /* \"#utility.yul\":365:371   */\n      0x00\n        /* \"#utility.yul\":373:379   */\n      dup1\n        /* \"#utility.yul\":422:424   */\n      0x40\n        /* \"#utility.yul\":410:419   */\n      dup4\n        /* \"#utility.yul\":401:408   */\n      dup6\n        /* \"#utility.yul\":397:420   */\n      sub\n        /* \"#utility.yul\":393:425   */\n      slt\n        /* \"#utility.yul\":390:509   */\n      iszero\n      tag_53\n      jumpi\n        /* \"#utility.yul\":428:507   */\n      tag_54\n      tag_55\n      jump\t// in\n    tag_54:\n        /* \"#utility.yul\":390:509   */\n    tag_53:\n        /* \"#utility.yul\":548:549   */\n      0x00\n        /* \"#utility.yul\":573:626   */\n      tag_56\n        /* \"#utility.yul\":618:625   */\n      dup6\n        /* \"#utility.yul\":609:615   */\n      dup3\n        /* \"#utility.yul\":598:607   */\n      dup7\n        /* \"#utility.yul\":594:616   */\n      add\n        /* \"#utility.yul\":573:626   */\n      tag_44\n      jump\t// in\n    tag_56:\n        /* \"#utility.yul\":563:626   */\n      swap3\n      pop\n        /* \"#utility.yul\":519:636   */\n      pop\n        /* \"#utility.yul\":675:677   */\n      0x20\n        /* \"#utility.yul\":701:754   */\n      tag_57\n        /* \"#utility.yul\":746:753   */\n      dup6\n        /* \"#utility.yul\":737:743   */\n      dup3\n        /* \"#utility.yul\":726:735   */\n      dup7\n        /* \"#utility.yul\":722:744   */\n      add\n        /* \"#utility.yul\":701:754   */\n      tag_44\n      jump\t// in\n    tag_57:\n        /* \"#utility.yul\":691:754   */\n      swap2\n      pop\n        /* \"#utility.yul\":646:764   */\n      pop\n        /* \"#utility.yul\":297:771   */\n      swap3\n      pop\n      swap3\n      swap1\n      pop\n      jump\t// out\n        /* \"#utility.yul\":777:1396   */\n    tag_22:\n        /* \"#utility.yul\":854:860   */\n      0x00\n        /* \"#utility.yul\":862:868   */\n      dup1\n        /* \"#utility.yul\":870:876   */\n      0x00\n        /* \"#utility.yul\":919:921   */\n      0x60\n        /* \"#utility.yul\":907:916   */\n      dup5\n        /* \"#utility.yul\":898:905   */\n      dup7\n        /* \"#utility.yul\":894:917   */\n      sub\n        /* \"#utility.yul\":890:922   */\n      slt\n        /* \"#utility.yul\":887:1006   */\n      iszero\n      tag_59\n      jumpi\n        /* \"#utility.yul\":925:1004   */\n      tag_60\n      tag_55\n      jump\t// in\n    tag_60:\n        /* \"#utility.yul\":887:1006   */\n    tag_59:\n        /* \"#utility.yul\":1045:1046   */\n      0x00\n        /* \"#utility.yul\":1070:1123   */\n      tag_61\n        /* \"#utility.yul\":1115:1122   */\n      dup7\n        /* \"#utility.yul\":1106:1112   */\n      dup3\n        /* \"#utility.yul\":1095:1104   */\n      dup8\n        /* \"#utility.yul\":1091:1113   */\n      add\n        /* \"#utility.yul\":1070:1123   */\n      tag_44\n      jump\t// in\n    tag_61:\n        /* \"#utility.yul\":1060:1123   */\n      swap4\n      pop\n        /* \"#utility.yul\":1016:1133   */\n      pop\n        /* \"#utility.yul\":1172:1174   */\n      0x20\n        /* \"#utility.yul\":1198:1251   */\n      tag_62\n        /* \"#utility.yul\":1243:1250   */\n      dup7\n        /* \"#utility.yul\":1234:1240   */\n      dup3\n        /* \"#utility.yul\":1223:1232   */\n      dup8\n        /* \"#utility.yul\":1219:1241   */\n      add\n        /* \"#utility.yul\":1198:1251   */\n      tag_44\n      jump\t// in\n    tag_62:\n        /* \"#utility.yul\":1188:1251   */\n      swap3\n      pop\n        /* \"#utility.yul\":1143:1261   */\n      pop\n        /* \"#utility.yul\":1300:1302   */\n      0x40\n        /* \"#utility.yul\":1326:1379   */\n      tag_63\n        /* \"#utility.yul\":1371:1378   */\n      dup7\n        /* \"#utility.yul\":1362:1368   */\n      dup3\n        /* \"#utility.yul\":1351:1360   */\n      dup8\n        /* \"#utility.yul\":1347:1369   */\n      add\n        /* \"#utility.yul\":1326:1379   */\n      tag_48\n      jump\t// in\n    tag_63:\n        /* \"#utility.yul\":1316:1379   */\n      swap2\n      pop\n        /* \"#utility.yul\":1271:1389   */\n      pop\n        /* \"#utility.yul\":777:1396   */\n      swap3\n      pop\n      swap3\n      pop\n      swap3\n      jump\t// out\n        /* \"#utility.yul\":1402:1520   */\n    tag_64:\n        /* \"#utility.yul\":1489:1513   */\n      tag_66\n        /* \"#utility.yul\":1507:1512   */\n      dup2\n        /* \"#utility.yul\":1489:1513   */\n      tag_67\n      jump\t// in\n    tag_66:\n        /* \"#utility.yul\":1484:1487   */\n      dup3\n        /* \"#utility.yul\":1477:1514   */\n      mstore\n        /* \"#utility.yul\":1402:1520   */\n      pop\n      pop\n      jump\t// out\n        /* \"#utility.yul\":1526:1635   */\n    tag_68:\n        /* \"#utility.yul\":1607:1628   */\n      tag_70\n        /* \"#utility.yul\":1622:1627   */\n      dup2\n        /* \"#utility.yul\":1607:1628   */\n      tag_71\n      jump\t// in\n    tag_70:\n        /* \"#utility.yul\":1602:1605   */\n      dup3\n        /* \"#utility.yul\":1595:1629   */\n      mstore\n        /* \"#utility.yul\":1526:1635   */\n      pop\n      pop\n      jump\t// out\n        /* \"#utility.yul\":1641:2001   */\n    tag_72:\n        /* \"#utility.yul\":1727:1730   */\n      0x00\n        /* \"#utility.yul\":1755:1793   */\n      tag_74\n        /* \"#utility.yul\":1787:1792   */\n      dup3\n        /* \"#utility.yul\":1755:1793   */\n      tag_75\n      jump\t// in\n    tag_74:\n        /* \"#utility.yul\":1809:1879   */\n      tag_76\n        /* \"#utility.yul\":1872:1878   */\n      dup2\n        /* \"#utility.yul\":1867:1870   */\n      dup6\n        /* \"#utility.yul\":1809:1879   */\n      tag_77\n      jump\t// in\n    tag_76:\n        /* \"#utility.yul\":1802:1879   */\n      swap4\n      pop\n        /* \"#utility.yul\":1888:1940   */\n      tag_78\n        /* \"#utility.yul\":1933:1939   */\n      dup2\n        /* \"#utility.yul\":1928:1931   */\n      dup6\n        /* \"#utility.yul\":1921:1925   */\n      0x20\n        /* \"#utility.yul\":1914:1919   */\n      dup7\n        /* \"#utility.yul\":1910:1926   */\n      add\n        /* \"#utility.yul\":1888:1940   */\n      tag_79\n      jump\t// in\n    tag_78:\n        /* \"#utility.yul\":1965:1994   */\n      tag_80\n        /* \"#utility.yul\":1987:1993   */\n      dup2\n        /* \"#utility.yul\":1965:1994   */\n      tag_81\n      jump\t// in\n    tag_80:\n        /* \"#utility.yul\":1960:1963   */\n      dup5\n        /* \"#utility.yul\":1956:1995   */\n      add\n        /* \"#utility.yul\":1949:1995   */\n      swap2\n      pop\n        /* \"#utility.yul\":1731:2001   */\n      pop\n        /* \"#utility.yul\":1641:2001   */\n      swap3\n      swap2\n      pop\n      pop\n      jump\t// out\n        /* \"#utility.yul\":2007:2373   */\n    tag_82:\n        /* \"#utility.yul\":2149:2152   */\n      0x00\n        /* \"#utility.yul\":2170:2237   */\n      tag_84\n        /* \"#utility.yul\":2234:2236   */\n      0x0d\n        /* \"#utility.yul\":2229:2232   */\n      dup4\n        /* \"#utility.yul\":2170:2237   */\n      tag_85\n      jump\t// in\n    tag_84:\n        /* \"#utility.yul\":2163:2237   */\n      swap2\n      pop\n        /* \"#utility.yul\":2246:2339   */\n      tag_86\n        /* \"#utility.yul\":2335:2338   */\n      dup3\n        /* \"#utility.yul\":2246:2339   */\n      tag_87\n      jump\t// in\n    tag_86:\n        /* \"#utility.yul\":2364:2366   */\n      0x20\n        /* \"#utility.yul\":2359:2362   */\n      dup3\n        /* \"#utility.yul\":2355:2367   */\n      add\n        /* \"#utility.yul\":2348:2367   */\n      swap1\n      pop\n        /* \"#utility.yul\":2007:2373   */\n      swap2\n      swap1\n      pop\n      jump\t// out\n        /* \"#utility.yul\":2379:2777   */\n    tag_88:\n        /* \"#utility.yul\":2538:2541   */\n      0x00\n        /* \"#utility.yul\":2559:2642   */\n      tag_90\n        /* \"#utility.yul\":2640:2641   */\n      0x00\n        /* \"#utility.yul\":2635:2638   */\n      dup4\n        /* \"#utility.yul\":2559:2642   */\n      tag_91\n      jump\t// in\n    tag_90:\n        /* \"#utility.yul\":2552:2642   */\n      swap2\n      pop\n        /* \"#utility.yul\":2651:2744   */\n      tag_92\n        /* \"#utility.yul\":2740:2743   */\n      dup3\n        /* \"#utility.yul\":2651:2744   */\n      tag_93\n      jump\t// in\n    tag_92:\n        /* \"#utility.yul\":2769:2770   */\n      0x00\n        /* \"#utility.yul\":2764:2767   */\n      dup3\n        /* \"#utility.yul\":2760:2771   */\n      add\n        /* \"#utility.yul\":2753:2771   */\n      swap1\n      pop\n        /* \"#utility.yul\":2379:2777   */\n      swap2\n      swap1\n      pop\n      jump\t// out\n        /* \"#utility.yul\":2783:2901   */\n    tag_94:\n        /* \"#utility.yul\":2870:2894   */\n      tag_96\n        /* \"#utility.yul\":2888:2893   */\n      dup2\n        /* \"#utility.yul\":2870:2894   */\n      tag_97\n      jump\t// in\n    tag_96:\n        /* \"#utility.yul\":2865:2868   */\n      dup3\n        /* \"#utility.yul\":2858:2895   */\n      mstore\n        /* \"#utility.yul\":2783:2901   */\n      pop\n      pop\n      jump\t// out\n        /* \"#utility.yul\":2907:3286   */\n    tag_37:\n        /* \"#utility.yul\":3091:3094   */\n      0x00\n        /* \"#utility.yul\":3113:3260   */\n      tag_99\n        /* \"#utility.yul\":3256:3259   */\n      dup3\n        /* \"#utility.yul\":3113:3260   */\n      tag_88\n      jump\t// in\n    tag_99:\n        /* \"#utility.yul\":3106:3260   */\n      swap2\n      pop\n        /* \"#utility.yul\":3277:3280   */\n      dup2\n        /* \"#utility.yul\":3270:3280   */\n      swap1\n      pop\n        /* \"#utility.yul\":2907:3286   */\n      swap2\n      swap1\n      pop\n      jump\t// out\n        /* \"#utility.yul\":3292:3734   */\n    tag_29:\n        /* \"#utility.yul\":3441:3445   */\n      0x00\n        /* \"#utility.yul\":3479:3481   */\n      0x60\n        /* \"#utility.yul\":3468:3477   */\n      dup3\n        /* \"#utility.yul\":3464:3482   */\n      add\n        /* \"#utility.yul\":3456:3482   */\n      swap1\n      pop\n        /* \"#utility.yul\":3492:3563   */\n      tag_101\n        /* \"#utility.yul\":3560:3561   */\n      0x00\n        /* \"#utility.yul\":3549:3558   */\n      dup4\n        /* \"#utility.yul\":3545:3562   */\n      add\n        /* \"#utility.yul\":3536:3542   */\n      dup7\n        /* \"#utility.yul\":3492:3563   */\n      tag_64\n      jump\t// in\n    tag_101:\n        /* \"#utility.yul\":3573:3645   */\n      tag_102\n        /* \"#utility.yul\":3641:3643   */\n      0x20\n        /* \"#utility.yul\":3630:3639   */\n      dup4\n        /* \"#utility.yul\":3626:3644   */\n      add\n        /* \"#utility.yul\":3617:3623   */\n      dup6\n        /* \"#utility.yul\":3573:3645   */\n      tag_64\n      jump\t// in\n    tag_102:\n        /* \"#utility.yul\":3655:3727   */\n      tag_103\n        /* \"#utility.yul\":3723:3725   */\n      0x40\n        /* \"#utility.yul\":3712:3721   */\n      dup4\n        /* \"#utility.yul\":3708:3726   */\n      add\n        /* \"#utility.yul\":3699:3705   */\n      dup5\n        /* \"#utility.yul\":3655:3727   */\n      tag_94\n      jump\t// in\n    tag_103:\n        /* \"#utility.yul\":3292:3734   */\n      swap5\n      swap4\n      pop\n      pop\n      pop\n      pop\n      jump\t// out\n        /* \"#utility.yul\":3740:4147   */\n    tag_42:\n        /* \"#utility.yul\":3873:3877   */\n      0x00\n        /* \"#utility.yul\":3911:3913   */\n      0x40\n        /* \"#utility.yul\":3900:3909   */\n      dup3\n        /* \"#utility.yul\":3896:3914   */\n      add\n        /* \"#utility.yul\":3888:3914   */\n      swap1\n      pop\n        /* \"#utility.yul\":3924:3989   */\n      tag_105\n        /* \"#utility.yul\":3986:3987   */\n      0x00\n        /* \"#utility.yul\":3975:3984   */\n      dup4\n        /* \"#utility.yul\":3971:3988   */\n      add\n        /* \"#utility.yul\":3962:3968   */\n      dup6\n        /* \"#utility.yul\":3924:3989   */\n      tag_68\n      jump\t// in\n    tag_105:\n        /* \"#utility.yul\":4036:4045   */\n      dup2\n        /* \"#utility.yul\":4030:4034   */\n      dup2\n        /* \"#utility.yul\":4026:4046   */\n      sub\n        /* \"#utility.yul\":4021:4023   */\n      0x20\n        /* \"#utility.yul\":4010:4019   */\n      dup4\n        /* \"#utility.yul\":4006:4024   */\n      add\n        /* \"#utility.yul\":3999:4047   */\n      mstore\n        /* \"#utility.yul\":4064:4140   */\n      tag_106\n        /* \"#utility.yul\":4135:4139   */\n      dup2\n        /* \"#utility.yul\":4126:4132   */\n      dup5\n        /* \"#utility.yul\":4064:4140   */\n      tag_72\n      jump\t// in\n    tag_106:\n        /* \"#utility.yul\":4056:4140   */\n      swap1\n      pop\n        /* \"#utility.yul\":3740:4147   */\n      swap4\n      swap3\n      pop\n      pop\n      pop\n      jump\t// out\n        /* \"#utility.yul\":4153:4572   */\n    tag_34:\n        /* \"#utility.yul\":4319:4323   */\n      0x00\n        /* \"#utility.yul\":4357:4359   */\n      0x20\n        /* \"#utility.yul\":4346:4355   */\n      dup3\n        /* \"#utility.yul\":4342:4360   */\n      add\n        /* \"#utility.yul\":4334:4360   */\n      swap1\n      pop\n        /* \"#utility.yul\":4406:4415   */\n      dup2\n        /* \"#utility.yul\":4400:4404   */\n      dup2\n        /* \"#utility.yul\":4396:4416   */\n      sub\n        /* \"#utility.yul\":4392:4393   */\n      0x00\n        /* \"#utility.yul\":4381:4390   */\n      dup4\n        /* \"#utility.yul\":4377:4394   */\n      add\n        /* \"#utility.yul\":4370:4417   */\n      mstore\n        /* \"#utility.yul\":4434:4565   */\n      tag_108\n        /* \"#utility.yul\":4560:4564   */\n      dup2\n        /* \"#utility.yul\":4434:4565   */\n      tag_82\n      jump\t// in\n    tag_108:\n        /* \"#utility.yul\":4426:4565   */\n      swap1\n      pop\n        /* \"#utility.yul\":4153:4572   */\n      swap2\n      swap1\n      pop\n      jump\t// out\n        /* \"#utility.yul\":4578:4800   */\n    tag_18:\n        /* \"#utility.yul\":4671:4675   */\n      0x00\n        /* \"#utility.yul\":4709:4711   */\n      0x20\n        /* \"#utility.yul\":4698:4707   */\n      dup3\n        /* \"#utility.yul\":4694:4712   */\n      add\n        /* \"#utility.yul\":4686:4712   */\n      swap1\n      pop\n        /* \"#utility.yul\":4722:4793   */\n      tag_110\n        /* \"#utility.yul\":4790:4791   */\n      0x00\n        /* \"#utility.yul\":4779:4788   */\n      dup4\n        /* \"#utility.yul\":4775:4792   */\n      add\n        /* \"#utility.yul\":4766:4772   */\n      dup5\n        /* \"#utility.yul\":4722:4793   */\n      tag_94\n      jump\t// in\n    tag_110:\n        /* \"#utility.yul\":4578:4800   */\n      swap3\n      swap2\n      pop\n      pop\n      jump\t// out\n        /* \"#utility.yul\":4887:4985   */\n    tag_75:\n        /* \"#utility.yul\":4938:4944   */\n      0x00\n        /* \"#utility.yul\":4972:4977   */\n      dup2\n        /* \"#utility.yul\":4966:4978   */\n      mload\n        /* \"#utility.yul\":4956:4978   */\n      swap1\n      pop\n        /* \"#utility.yul\":4887:4985   */\n      swap2\n      swap1\n      pop\n      jump\t// out\n        /* \"#utility.yul\":4991:5159   */\n    tag_77:\n        /* \"#utility.yul\":5074:5085   */\n      0x00\n        /* \"#utility.yul\":5108:5114   */\n      dup3\n        /* \"#utility.yul\":5103:5106   */\n      dup3\n        /* \"#utility.yul\":5096:5115   */\n      mstore\n        /* \"#utility.yul\":5148:5152   */\n      0x20\n        /* \"#utility.yul\":5143:5146   */\n      dup3\n        /* \"#utility.yul\":5139:5153   */\n      add\n        /* \"#utility.yul\":5124:5153   */\n      swap1\n      pop\n        /* \"#utility.yul\":4991:5159   */\n      swap3\n      swap2\n      pop\n      pop\n      jump\t// out\n        /* \"#utility.yul\":5165:5312   */\n    tag_91:\n        /* \"#utility.yul\":5266:5277   */\n      0x00\n        /* \"#utility.yul\":5303:5306   */\n      dup2\n        /* \"#utility.yul\":5288:5306   */\n      swap1\n      pop\n        /* \"#utility.yul\":5165:5312   */\n      swap3\n      swap2\n      pop\n      pop\n      jump\t// out\n        /* \"#utility.yul\":5318:5487   */\n    tag_85:\n        /* \"#utility.yul\":5402:5413   */\n      0x00\n        /* \"#utility.yul\":5436:5442   */\n      dup3\n        /* \"#utility.yul\":5431:5434   */\n      dup3\n        /* \"#utility.yul\":5424:5443   */\n      mstore\n        /* \"#utility.yul\":5476:5480   */\n      0x20\n        /* \"#utility.yul\":5471:5474   */\n      dup3\n        /* \"#utility.yul\":5467:5481   */\n      add\n        /* \"#utility.yul\":5452:5481   */\n      swap1\n      pop\n        /* \"#utility.yul\":5318:5487   */\n      swap3\n      swap2\n      pop\n      pop\n      jump\t// out\n        /* \"#utility.yul\":5493:5798   */\n    tag_9:\n        /* \"#utility.yul\":5533:5536   */\n      0x00\n        /* \"#utility.yul\":5552:5572   */\n      tag_118\n        /* \"#utility.yul\":5570:5571   */\n      dup3\n        /* \"#utility.yul\":5552:5572   */\n      tag_97\n      jump\t// in\n    tag_118:\n        /* \"#utility.yul\":5547:5572   */\n      swap2\n      pop\n        /* \"#utility.yul\":5586:5606   */\n      tag_119\n        /* \"#utility.yul\":5604:5605   */\n      dup4\n        /* \"#utility.yul\":5586:5606   */\n      tag_97\n      jump\t// in\n    tag_119:\n        /* \"#utility.yul\":5581:5606   */\n      swap3\n      pop\n        /* \"#utility.yul\":5740:5741   */\n      dup3\n        /* \"#utility.yul\":5672:5738   */\n      0xffffffffffffffffffffffffffffffffffffffffffffffffffffffffffffffff\n        /* \"#utility.yul\":5668:5742   */\n      sub\n        /* \"#utility.yul\":5665:5666   */\n      dup3\n        /* \"#utility.yul\":5662:5743   */\n      gt\n        /* \"#utility.yul\":5659:5766   */\n      iszero\n      tag_120\n      jumpi\n        /* \"#utility.yul\":5746:5764   */\n      tag_121\n      tag_122\n      jump\t// in\n    tag_121:\n        /* \"#utility.yul\":5659:5766   */\n    tag_120:\n        /* \"#utility.yul\":5790:5791   */\n      dup3\n        /* \"#utility.yul\":5787:5788   */\n      dup3\n        /* \"#utility.yul\":5783:5792   */\n      add\n        /* \"#utility.yul\":5776:5792   */\n      swap1\n      pop\n        /* \"#utility.yul\":5493:5798   */\n      swap3\n      swap2\n      pop\n      pop\n      jump\t// out\n        /* \"#utility.yul\":5804:5995   */\n    tag_27:\n        /* \"#utility.yul\":5844:5848   */\n      0x00\n        /* \"#utility.yul\":5864:5884   */\n      tag_124\n        /* \"#utility.yul\":5882:5883   */\n      dup3\n        /* \"#utility.yul\":5864:5884   */\n      tag_97\n      jump\t// in\n    tag_124:\n        /* \"#utility.yul\":5859:5884   */\n      swap2\n      pop\n        /* \"#utility.yul\":5898:5918   */\n      tag_125\n        /* \"#utility.yul\":5916:5917   */\n      dup4\n        /* \"#utility.yul\":5898:5918   */\n      tag_97\n      jump\t// in\n    tag_125:\n        /* \"#utility.yul\":5893:5918   */\n      swap3\n      pop\n        /* \"#utility.yul\":5937:5938   */\n      dup3\n        /* \"#utility.yul\":5934:5935   */\n      dup3\n        /* \"#utility.yul\":5931:5939   */\n      lt\n        /* \"#utility.yul\":5928:5962   */\n      iszero\n      tag_126\n      jumpi\n        /* \"#utility.yul\":5942:5960   */\n      tag_127\n      tag_122\n      jump\t// in\n    tag_127:\n        /* \"#utility.yul\":5928:5962   */\n    tag_126:\n        /* \"#utility.yul\":5987:5988   */\n      dup3\n        /* \"#utility.yul\":5984:5985   */\n      dup3\n        /* \"#utility.yul\":5980:5989   */\n      sub\n        /* \"#utility.yul\":5972:5989   */\n      swap1\n      pop\n        /* \"#utility.yul\":5804:5995   */\n      swap3\n      swap2\n      pop\n      pop\n      jump\t// out\n        /* \"#utility.yul\":6001:6097   */\n    tag_67:\n        /* \"#utility.yul\":6038:6045   */\n      0x00\n        /* \"#utility.yul\":6067:6091   */\n      tag_129\n        /* \"#utility.yul\":6085:6090   */\n      dup3\n        /* \"#utility.yul\":6067:6091   */\n      tag_130\n      jump\t// in\n    tag_129:\n        /* \"#utility.yul\":6056:6091   */\n      swap1\n      pop\n        /* \"#utility.yul\":6001:6097   */\n      swap2\n      swap1\n      pop\n      jump\t// out\n        /* \"#utility.yul\":6103:6193   */\n    tag_71:\n        /* \"#utility.yul\":6137:6144   */\n      0x00\n        /* \"#utility.yul\":6180:6185   */\n      dup2\n        /* \"#utility.yul\":6173:6186   */\n      iszero\n        /* \"#utility.yul\":6166:6187   */\n      iszero\n        /* \"#utility.yul\":6155:6187   */\n      swap1\n      pop\n        /* \"#utility.yul\":6103:6193   */\n      swap2\n      swap1\n      pop\n      jump\t// out\n        /* \"#utility.yul\":6199:6325   */\n    tag_130:\n        /* \"#utility.yul\":6236:6243   */\n      0x00\n        /* \"#utility.yul\":6276:6318   */\n      0xffffffffffffffffffffffffffffffffffffffff\n        /* \"#utility.yul\":6269:6274   */\n      dup3\n        /* \"#utility.yul\":6265:6319   */\n      and\n        /* \"#utility.yul\":6254:6319   */\n      swap1\n      pop\n        /* \"#utility.yul\":6199:6325   */\n      swap2\n      swap1\n      pop\n      jump\t// out\n        /* \"#utility.yul\":6331:6408   */\n    tag_97:\n        /* \"#utility.yul\":6368:6375   */\n      0x00\n        /* \"#utility.yul\":6397:6402   */\n      dup2\n        /* \"#utility.yul\":6386:6402   */\n      swap1\n      pop\n        /* \"#utility.yul\":6331:6408   */\n      swap2\n      swap1\n      pop\n      jump\t// out\n        /* \"#utility.yul\":6414:6721   */\n    tag_79:\n        /* \"#utility.yul\":6482:6483   */\n      0x00\n        /* \"#utility.yul\":6492:6605   */\n    tag_135:\n        /* \"#utility.yul\":6506:6512   */\n      dup4\n        /* \"#utility.yul\":6503:6504   */\n      dup2\n        /* \"#utility.yul\":6500:6513   */\n      lt\n        /* \"#utility.yul\":6492:6605   */\n      iszero\n      tag_137\n      jumpi\n        /* \"#utility.yul\":6591:6592   */\n      dup1\n        /* \"#utility.yul\":6586:6589   */\n      dup3\n        /* \"#utility.yul\":6582:6593   */\n      add\n        /* \"#utility.yul\":6576:6594   */\n      mload\n        /* \"#utility.yul\":6572:6573   */\n      dup2\n        /* \"#utility.yul\":6567:6570   */\n      dup5\n        /* \"#utility.yul\":6563:6574   */\n      add\n        /* \"#utility.yul\":6556:6595   */\n      mstore\n        /* \"#utility.yul\":6528:6530   */\n      0x20\n        /* \"#utility.yul\":6525:6526   */\n      dup2\n        /* \"#utility.yul\":6521:6531   */\n      add\n        /* \"#utility.yul\":6516:6531   */\n      swap1\n      pop\n        /* \"#utility.yul\":6492:6605   */\n      jump(tag_135)\n    tag_137:\n        /* \"#utility.yul\":6623:6629   */\n      dup4\n        /* \"#utility.yul\":6620:6621   */\n      dup2\n        /* \"#utility.yul\":6617:6630   */\n      gt\n        /* \"#utility.yul\":6614:6715   */\n      iszero\n      tag_138\n      jumpi\n        /* \"#utility.yul\":6703:6704   */\n      0x00\n        /* \"#utility.yul\":6694:6700   */\n      dup5\n        /* \"#utility.yul\":6689:6692   */\n      dup5\n        /* \"#utility.yul\":6685:6701   */\n      add\n        /* \"#utility.yul\":6678:6705   */\n      mstore\n        /* \"#utility.yul\":6614:6715   */\n    tag_138:\n        /* \"#utility.yul\":6463:6721   */\n      pop\n        /* \"#utility.yul\":6414:6721   */\n      pop\n      pop\n      pop\n      jump\t// out\n        /* \"#utility.yul\":6727:6907   */\n    tag_122:\n        /* \"#utility.yul\":6775:6852   */\n      0x4e487b7100000000000000000000000000000000000000000000000000000000\n        /* \"#utility.yul\":6772:6773   */\n      0x00\n        /* \"#utility.yul\":6765:6853   */\n      mstore\n        /* \"#utility.yul\":6872:6876   */\n      0x11\n        /* \"#utility.yul\":6869:6870   */\n      0x04\n        /* \"#utility.yul\":6862:6877   */\n      mstore\n        /* \"#utility.yul\":6896:6900   */\n      0x24\n        /* \"#utility.yul\":6893:6894   */\n      0x00\n        /* \"#utility.yul\":6886:6901   */\n      revert\n        /* \"#utility.yul\":7036:7153   */\n    tag_55:\n        /* \"#utility.yul\":7145:7146   */\n      0x00\n        /* \"#utility.yul\":7142:7143   */\n      dup1\n        /* \"#utility.yul\":7135:7147   */\n      revert\n        /* \"#utility.yul\":7159:7261   */\n    tag_81:\n        /* \"#utility.yul\":7200:7206   */\n      0x00\n        /* \"#utility.yul\":7251:7253   */\n      0x1f\n        /* \"#utility.yul\":7247:7254   */\n      not\n        /* \"#utility.yul\":7242:7244   */\n      0x1f\n        /* \"#utility.yul\":7235:7240   */\n      dup4\n        /* \"#utility.yul\":7231:7245   */\n      add\n        /* \"#utility.yul\":7227:7255   */\n      and\n        /* \"#utility.yul\":7217:7255   */\n      swap1\n      pop\n        /* \"#utility.yul\":7159:7261   */\n      swap2\n      swap1\n      pop\n      jump\t// out\n        /* \"#utility.yul\":7267:7430   */\n    tag_87:\n        /* \"#utility.yul\":7407:7422   */\n      0x4e6f7420746865204f776e657200000000000000000000000000000000000000\n        /* \"#utility.yul\":7403:7404   */\n      0x00\n        /* \"#utility.yul\":7395:7401   */\n      dup3\n        /* \"#utility.yul\":7391:7405   */\n      add\n        /* \"#utility.yul\":7384:7423   */\n      mstore\n        /* \"#utility.yul\":7267:7430   */\n      pop\n      jump\t// out\n        /* \"#utility.yul\":7436:7550   */\n    tag_93:\n      pop\n      jump\t// out\n        /* \"#utility.yul\":7556:7678   */\n    tag_47:\n        /* \"#utility.yul\":7629:7653   */\n      tag_147\n        /* \"#utility.yul\":7647:7652   */\n      dup2\n        /* \"#utility.yul\":7629:7653   */\n      tag_67\n      jump\t// in\n    tag_147:\n        /* \"#utility.yul\":7622:7627   */\n      dup2\n        /* \"#utility.yul\":7619:7654   */\n      eq\n        /* \"#utility.yul\":7609:7672   */\n      tag_148\n      jumpi\n        /* \"#utility.yul\":7668:7669   */\n      0x00\n        /* \"#utility.yul\":7665:7666   */\n      dup1\n        /* \"#utility.yul\":7658:7670   */\n      revert\n        /* \"#utility.yul\":7609:7672   */\n    tag_148:\n        /* \"#utility.yul\":7556:7678   */\n      pop\n      jump\t// out\n        /* \"#utility.yul\":7684:7806   */\n    tag_51:\n        /* \"#utility.yul\":7757:7781   */\n      tag_150\n        /* \"#utility.yul\":7775:7780   */\n      dup2\n        /* \"#utility.yul\":7757:7781   */\n      tag_97\n      jump\t// in\n    tag_150:\n        /* \"#utility.yul\":7750:7755   */\n      dup2\n        /* \"#utility.yul\":7747:7782   */\n      eq\n        /* \"#utility.yul\":7737:7800   */\n      tag_151\n      jumpi\n        /* \"#utility.yul\":7796:7797   */\n      0x00\n        /* \"#utility.yul\":7793:7794   */\n      dup1\n        /* \"#utility.yul\":7786:7798   */\n      revert\n        /* \"#utility.yul\":7737:7800   */\n    tag_151:\n        /* \"#utility.yul\":7684:7806   */\n      pop\n      jump\t// out\n\n    auxdata: 0xa264697066735822122005eb74da2babf9090a85a82bb88038626cd2cee8deea3359e267c463a3ee5c3d64736f6c63430008070033\n}\n",
				"bytecode": {
					"linkReferences": {},
					"object": "608060405234801561001057600080fd5b50336000806101000a81548173ffffffffffffffffffffffffffffffffffffffff021916908373ffffffffffffffffffffffffffffffffffffffff1602179055506107aa806100606000396000f3fe6080604052600436106100385760003560e01c8063be434a2c1461009a578063bf152765146100b6578063d9caed12146100e157610095565b366100955734600160003373ffffffffffffffffffffffffffffffffffffffff1673ffffffffffffffffffffffffffffffffffffffff168152602001908152602001600020600082825461008c91906105d0565b92505081905550005b600080fd5b6100b460048036038101906100af91906103a2565b61010a565b005b3480156100c257600080fd5b506100cb6101f5565b6040516100d8919061057d565b60405180910390f35b3480156100ed57600080fd5b50610108600480360381019061010391906103e2565b61023c565b005b34600160008473ffffffffffffffffffffffffffffffffffffffff1673ffffffffffffffffffffffffffffffffffffffff168152602001908152602001600020600082825461015991906105d0565b9250508190555034600160008373ffffffffffffffffffffffffffffffffffffffff1673ffffffffffffffffffffffffffffffffffffffff16815260200190815260200160002060008282546101af9190610626565b925050819055507fd53683c2ddbfbeaa0862bf4bb2ad12d32e889a7539dde25b42322b1139dd5c438282346040516101e9939291906104f6565b60405180910390a15050565b6000600160003373ffffffffffffffffffffffffffffffffffffffff1673ffffffffffffffffffffffffffffffffffffffff16815260200190815260200160002054905090565b60008054906101000a900473ffffffffffffffffffffffffffffffffffffffff1673ffffffffffffffffffffffffffffffffffffffff163373ffffffffffffffffffffffffffffffffffffffff16146102ca576040517f08c379a00000000000000000000000000000000000000000000000000000000081526004016102c19061055d565b60405180910390fd5b6000808473ffffffffffffffffffffffffffffffffffffffff16836040516102f1906104e1565b60006040518083038185875af1925050503d806000811461032e576040519150601f19603f3d011682016040523d82523d6000602084013e610333565b606091505b50915091507f211793e58f00b3e734d024ba6cd956e5c3371570ce2f36886f32d842cc67e236828260405161036992919061052d565b60405180910390a15050505050565b60008135905061038781610746565b92915050565b60008135905061039c8161075d565b92915050565b600080604083850312156103b9576103b8610704565b5b60006103c785828601610378565b92505060206103d885828601610378565b9150509250929050565b6000806000606084860312156103fb576103fa610704565b5b600061040986828701610378565b935050602061041a86828701610378565b925050604061042b8682870161038d565b9150509250925092565b61043e8161065a565b82525050565b61044d8161066c565b82525050565b600061045e82610598565b61046881856105a3565b93506104788185602086016106a2565b61048181610709565b840191505092915050565b6000610499600d836105bf565b91506104a48261071a565b602082019050919050565b60006104bc6000836105b4565b91506104c782610743565b600082019050919050565b6104db81610698565b82525050565b60006104ec826104af565b9150819050919050565b600060608201905061050b6000830186610435565b6105186020830185610435565b61052560408301846104d2565b949350505050565b60006040820190506105426000830185610444565b81810360208301526105548184610453565b90509392505050565b600060208201905081810360008301526105768161048c565b9050919050565b600060208201905061059260008301846104d2565b92915050565b600081519050919050565b600082825260208201905092915050565b600081905092915050565b600082825260208201905092915050565b60006105db82610698565b91506105e683610698565b9250827fffffffffffffffffffffffffffffffffffffffffffffffffffffffffffffffff0382111561061b5761061a6106d5565b5b828201905092915050565b600061063182610698565b915061063c83610698565b92508282101561064f5761064e6106d5565b5b828203905092915050565b600061066582610678565b9050919050565b60008115159050919050565b600073ffffffffffffffffffffffffffffffffffffffff82169050919050565b6000819050919050565b60005b838110156106c05780820151818401526020810190506106a5565b838111156106cf576000848401525b50505050565b7f4e487b7100000000000000000000000000000000000000000000000000000000600052601160045260246000fd5b600080fd5b6000601f19601f8301169050919050565b7f4e6f7420746865204f776e657200000000000000000000000000000000000000600082015250565b50565b61074f8161065a565b811461075a57600080fd5b50565b61076681610698565b811461077157600080fd5b5056fea264697066735822122005eb74da2babf9090a85a82bb88038626cd2cee8deea3359e267c463a3ee5c3d64736f6c63430008070033",
					"opcodes": "PUSH1 0x80 PUSH1 0x40 MSTORE CALLVALUE DUP1 ISZERO PUSH2 0x10 JUMPI PUSH1 0x0 DUP1 REVERT JUMPDEST POP CALLER PUSH1 0x0 DUP1 PUSH2 0x100 EXP DUP2 SLOAD DUP2 PUSH20 0xFFFFFFFFFFFFFFFFFFFFFFFFFFFFFFFFFFFFFFFF MUL NOT AND SWAP1 DUP4 PUSH20 0xFFFFFFFFFFFFFFFFFFFFFFFFFFFFFFFFFFFFFFFF AND MUL OR SWAP1 SSTORE POP PUSH2 0x7AA DUP1 PUSH2 0x60 PUSH1 0x0 CODECOPY PUSH1 0x0 RETURN INVALID PUSH1 0x80 PUSH1 0x40 MSTORE PUSH1 0x4 CALLDATASIZE LT PUSH2 0x38 JUMPI PUSH1 0x0 CALLDATALOAD PUSH1 0xE0 SHR DUP1 PUSH4 0xBE434A2C EQ PUSH2 0x9A JUMPI DUP1 PUSH4 0xBF152765 EQ PUSH2 0xB6 JUMPI DUP1 PUSH4 0xD9CAED12 EQ PUSH2 0xE1 JUMPI PUSH2 0x95 JUMP JUMPDEST CALLDATASIZE PUSH2 0x95 JUMPI CALLVALUE PUSH1 0x1 PUSH1 0x0 CALLER PUSH20 0xFFFFFFFFFFFFFFFFFFFFFFFFFFFFFFFFFFFFFFFF AND PUSH20 0xFFFFFFFFFFFFFFFFFFFFFFFFFFFFFFFFFFFFFFFF AND DUP2 MSTORE PUSH1 0x20 ADD SWAP1 DUP2 MSTORE PUSH1 0x20 ADD PUSH1 0x0 KECCAK256 PUSH1 0x0 DUP3 DUP3 SLOAD PUSH2 0x8C SWAP2 SWAP1 PUSH2 0x5D0 JUMP JUMPDEST SWAP3 POP POP DUP2 SWAP1 SSTORE POP STOP JUMPDEST PUSH1 0x0 DUP1 REVERT JUMPDEST PUSH2 0xB4 PUSH1 0x4 DUP1 CALLDATASIZE SUB DUP2 ADD SWAP1 PUSH2 0xAF SWAP2 SWAP1 PUSH2 0x3A2 JUMP JUMPDEST PUSH2 0x10A JUMP JUMPDEST STOP JUMPDEST CALLVALUE DUP1 ISZERO PUSH2 0xC2 JUMPI PUSH1 0x0 DUP1 REVERT JUMPDEST POP PUSH2 0xCB PUSH2 0x1F5 JUMP JUMPDEST PUSH1 0x40 MLOAD PUSH2 0xD8 SWAP2 SWAP1 PUSH2 0x57D JUMP JUMPDEST PUSH1 0x40 MLOAD DUP1 SWAP2 SUB SWAP1 RETURN JUMPDEST CALLVALUE DUP1 ISZERO PUSH2 0xED JUMPI PUSH1 0x0 DUP1 REVERT JUMPDEST POP PUSH2 0x108 PUSH1 0x4 DUP1 CALLDATASIZE SUB DUP2 ADD SWAP1 PUSH2 0x103 SWAP2 SWAP1 PUSH2 0x3E2 JUMP JUMPDEST PUSH2 0x23C JUMP JUMPDEST STOP JUMPDEST CALLVALUE PUSH1 0x1 PUSH1 0x0 DUP5 PUSH20 0xFFFFFFFFFFFFFFFFFFFFFFFFFFFFFFFFFFFFFFFF AND PUSH20 0xFFFFFFFFFFFFFFFFFFFFFFFFFFFFFFFFFFFFFFFF AND DUP2 MSTORE PUSH1 0x20 ADD SWAP1 DUP2 MSTORE PUSH1 0x20 ADD PUSH1 0x0 KECCAK256 PUSH1 0x0 DUP3 DUP3 SLOAD PUSH2 0x159 SWAP2 SWAP1 PUSH2 0x5D0 JUMP JUMPDEST SWAP3 POP POP DUP2 SWAP1 SSTORE POP CALLVALUE PUSH1 0x1 PUSH1 0x0 DUP4 PUSH20 0xFFFFFFFFFFFFFFFFFFFFFFFFFFFFFFFFFFFFFFFF AND PUSH20 0xFFFFFFFFFFFFFFFFFFFFFFFFFFFFFFFFFFFFFFFF AND DUP2 MSTORE PUSH1 0x20 ADD SWAP1 DUP2 MSTORE PUSH1 0x20 ADD PUSH1 0x0 KECCAK256 PUSH1 0x0 DUP3 DUP3 SLOAD PUSH2 0x1AF SWAP2 SWAP1 PUSH2 0x626 JUMP JUMPDEST SWAP3 POP POP DUP2 SWAP1 SSTORE POP PUSH32 0xD53683C2DDBFBEAA0862BF4BB2AD12D32E889A7539DDE25B42322B1139DD5C43 DUP3 DUP3 CALLVALUE PUSH1 0x40 MLOAD PUSH2 0x1E9 SWAP4 SWAP3 SWAP2 SWAP1 PUSH2 0x4F6 JUMP JUMPDEST PUSH1 0x40 MLOAD DUP1 SWAP2 SUB SWAP1 LOG1 POP POP JUMP JUMPDEST PUSH1 0x0 PUSH1 0x1 PUSH1 0x0 CALLER PUSH20 0xFFFFFFFFFFFFFFFFFFFFFFFFFFFFFFFFFFFFFFFF AND PUSH20 0xFFFFFFFFFFFFFFFFFFFFFFFFFFFFFFFFFFFFFFFF AND DUP2 MSTORE PUSH1 0x20 ADD SWAP1 DUP2 MSTORE PUSH1 0x20 ADD PUSH1 0x0 KECCAK256 SLOAD SWAP1 POP SWAP1 JUMP JUMPDEST PUSH1 0x0 DUP1 SLOAD SWAP1 PUSH2 0x100 EXP SWAP1 DIV PUSH20 0xFFFFFFFFFFFFFFFFFFFFFFFFFFFFFFFFFFFFFFFF AND PUSH20 0xFFFFFFFFFFFFFFFFFFFFFFFFFFFFFFFFFFFFFFFF AND CALLER PUSH20 0xFFFFFFFFFFFFFFFFFFFFFFFFFFFFFFFFFFFFFFFF AND EQ PUSH2 0x2CA JUMPI PUSH1 0x40 MLOAD PUSH32 0x8C379A000000000000000000000000000000000000000000000000000000000 DUP2 MSTORE PUSH1 0x4 ADD PUSH2 0x2C1 SWAP1 PUSH2 0x55D JUMP JUMPDEST PUSH1 0x40 MLOAD DUP1 SWAP2 SUB SWAP1 REVERT JUMPDEST PUSH1 0x0 DUP1 DUP5 PUSH20 0xFFFFFFFFFFFFFFFFFFFFFFFFFFFFFFFFFFFFFFFF AND DUP4 PUSH1 0x40 MLOAD PUSH2 0x2F1 SWAP1 PUSH2 0x4E1 JUMP JUMPDEST PUSH1 0x0 PUSH1 0x40 MLOAD DUP1 DUP4 SUB DUP2 DUP6 DUP8 GAS CALL SWAP3 POP POP POP RETURNDATASIZE DUP1 PUSH1 0x0 DUP2 EQ PUSH2 0x32E JUMPI PUSH1 0x40 MLOAD SWAP2 POP PUSH1 0x1F NOT PUSH1 0x3F RETURNDATASIZE ADD AND DUP3 ADD PUSH1 0x40 MSTORE RETURNDATASIZE DUP3 MSTORE RETURNDATASIZE PUSH1 0x0 PUSH1 0x20 DUP5 ADD RETURNDATACOPY PUSH2 0x333 JUMP JUMPDEST PUSH1 0x60 SWAP2 POP JUMPDEST POP SWAP2 POP SWAP2 POP PUSH32 0x211793E58F00B3E734D024BA6CD956E5C3371570CE2F36886F32D842CC67E236 DUP3 DUP3 PUSH1 0x40 MLOAD PUSH2 0x369 SWAP3 SWAP2 SWAP1 PUSH2 0x52D JUMP JUMPDEST PUSH1 0x40 MLOAD DUP1 SWAP2 SUB SWAP1 LOG1 POP POP POP POP POP JUMP JUMPDEST PUSH1 0x0 DUP2 CALLDATALOAD SWAP1 POP PUSH2 0x387 DUP2 PUSH2 0x746 JUMP JUMPDEST SWAP3 SWAP2 POP POP JUMP JUMPDEST PUSH1 0x0 DUP2 CALLDATALOAD SWAP1 POP PUSH2 0x39C DUP2 PUSH2 0x75D JUMP JUMPDEST SWAP3 SWAP2 POP POP JUMP JUMPDEST PUSH1 0x0 DUP1 PUSH1 0x40 DUP4 DUP6 SUB SLT ISZERO PUSH2 0x3B9 JUMPI PUSH2 0x3B8 PUSH2 0x704 JUMP JUMPDEST JUMPDEST PUSH1 0x0 PUSH2 0x3C7 DUP6 DUP3 DUP7 ADD PUSH2 0x378 JUMP JUMPDEST SWAP3 POP POP PUSH1 0x20 PUSH2 0x3D8 DUP6 DUP3 DUP7 ADD PUSH2 0x378 JUMP JUMPDEST SWAP2 POP POP SWAP3 POP SWAP3 SWAP1 POP JUMP JUMPDEST PUSH1 0x0 DUP1 PUSH1 0x0 PUSH1 0x60 DUP5 DUP7 SUB SLT ISZERO PUSH2 0x3FB JUMPI PUSH2 0x3FA PUSH2 0x704 JUMP JUMPDEST JUMPDEST PUSH1 0x0 PUSH2 0x409 DUP7 DUP3 DUP8 ADD PUSH2 0x378 JUMP JUMPDEST SWAP4 POP POP PUSH1 0x20 PUSH2 0x41A DUP7 DUP3 DUP8 ADD PUSH2 0x378 JUMP JUMPDEST SWAP3 POP POP PUSH1 0x40 PUSH2 0x42B DUP7 DUP3 DUP8 ADD PUSH2 0x38D JUMP JUMPDEST SWAP2 POP POP SWAP3 POP SWAP3 POP SWAP3 JUMP JUMPDEST PUSH2 0x43E DUP2 PUSH2 0x65A JUMP JUMPDEST DUP3 MSTORE POP POP JUMP JUMPDEST PUSH2 0x44D DUP2 PUSH2 0x66C JUMP JUMPDEST DUP3 MSTORE POP POP JUMP JUMPDEST PUSH1 0x0 PUSH2 0x45E DUP3 PUSH2 0x598 JUMP JUMPDEST PUSH2 0x468 DUP2 DUP6 PUSH2 0x5A3 JUMP JUMPDEST SWAP4 POP PUSH2 0x478 DUP2 DUP6 PUSH1 0x20 DUP7 ADD PUSH2 0x6A2 JUMP JUMPDEST PUSH2 0x481 DUP2 PUSH2 0x709 JUMP JUMPDEST DUP5 ADD SWAP2 POP POP SWAP3 SWAP2 POP POP JUMP JUMPDEST PUSH1 0x0 PUSH2 0x499 PUSH1 0xD DUP4 PUSH2 0x5BF JUMP JUMPDEST SWAP2 POP PUSH2 0x4A4 DUP3 PUSH2 0x71A JUMP JUMPDEST PUSH1 0x20 DUP3 ADD SWAP1 POP SWAP2 SWAP1 POP JUMP JUMPDEST PUSH1 0x0 PUSH2 0x4BC PUSH1 0x0 DUP4 PUSH2 0x5B4 JUMP JUMPDEST SWAP2 POP PUSH2 0x4C7 DUP3 PUSH2 0x743 JUMP JUMPDEST PUSH1 0x0 DUP3 ADD SWAP1 POP SWAP2 SWAP1 POP JUMP JUMPDEST PUSH2 0x4DB DUP2 PUSH2 0x698 JUMP JUMPDEST DUP3 MSTORE POP POP JUMP JUMPDEST PUSH1 0x0 PUSH2 0x4EC DUP3 PUSH2 0x4AF JUMP JUMPDEST SWAP2 POP DUP2 SWAP1 POP SWAP2 SWAP1 POP JUMP JUMPDEST PUSH1 0x0 PUSH1 0x60 DUP3 ADD SWAP1 POP PUSH2 0x50B PUSH1 0x0 DUP4 ADD DUP7 PUSH2 0x435 JUMP JUMPDEST PUSH2 0x518 PUSH1 0x20 DUP4 ADD DUP6 PUSH2 0x435 JUMP JUMPDEST PUSH2 0x525 PUSH1 0x40 DUP4 ADD DUP5 PUSH2 0x4D2 JUMP JUMPDEST SWAP5 SWAP4 POP POP POP POP JUMP JUMPDEST PUSH1 0x0 PUSH1 0x40 DUP3 ADD SWAP1 POP PUSH2 0x542 PUSH1 0x0 DUP4 ADD DUP6 PUSH2 0x444 JUMP JUMPDEST DUP2 DUP2 SUB PUSH1 0x20 DUP4 ADD MSTORE PUSH2 0x554 DUP2 DUP5 PUSH2 0x453 JUMP JUMPDEST SWAP1 POP SWAP4 SWAP3 POP POP POP JUMP JUMPDEST PUSH1 0x0 PUSH1 0x20 DUP3 ADD SWAP1 POP DUP2 DUP2 SUB PUSH1 0x0 DUP4 ADD MSTORE PUSH2 0x576 DUP2 PUSH2 0x48C JUMP JUMPDEST SWAP1 POP SWAP2 SWAP1 POP JUMP JUMPDEST PUSH1 0x0 PUSH1 0x20 DUP3 ADD SWAP1 POP PUSH2 0x592 PUSH1 0x0 DUP4 ADD DUP5 PUSH2 0x4D2 JUMP JUMPDEST SWAP3 SWAP2 POP POP JUMP JUMPDEST PUSH1 0x0 DUP2 MLOAD SWAP1 POP SWAP2 SWAP1 POP JUMP JUMPDEST PUSH1 0x0 DUP3 DUP3 MSTORE PUSH1 0x20 DUP3 ADD SWAP1 POP SWAP3 SWAP2 POP POP JUMP JUMPDEST PUSH1 0x0 DUP2 SWAP1 POP SWAP3 SWAP2 POP POP JUMP JUMPDEST PUSH1 0x0 DUP3 DUP3 MSTORE PUSH1 0x20 DUP3 ADD SWAP1 POP SWAP3 SWAP2 POP POP JUMP JUMPDEST PUSH1 0x0 PUSH2 0x5DB DUP3 PUSH2 0x698 JUMP JUMPDEST SWAP2 POP PUSH2 0x5E6 DUP4 PUSH2 0x698 JUMP JUMPDEST SWAP3 POP DUP3 PUSH32 0xFFFFFFFFFFFFFFFFFFFFFFFFFFFFFFFFFFFFFFFFFFFFFFFFFFFFFFFFFFFFFFFF SUB DUP3 GT ISZERO PUSH2 0x61B JUMPI PUSH2 0x61A PUSH2 0x6D5 JUMP JUMPDEST JUMPDEST DUP3 DUP3 ADD SWAP1 POP SWAP3 SWAP2 POP POP JUMP JUMPDEST PUSH1 0x0 PUSH2 0x631 DUP3 PUSH2 0x698 JUMP JUMPDEST SWAP2 POP PUSH2 0x63C DUP4 PUSH2 0x698 JUMP JUMPDEST SWAP3 POP DUP3 DUP3 LT ISZERO PUSH2 0x64F JUMPI PUSH2 0x64E PUSH2 0x6D5 JUMP JUMPDEST JUMPDEST DUP3 DUP3 SUB SWAP1 POP SWAP3 SWAP2 POP POP JUMP JUMPDEST PUSH1 0x0 PUSH2 0x665 DUP3 PUSH2 0x678 JUMP JUMPDEST SWAP1 POP SWAP2 SWAP1 POP JUMP JUMPDEST PUSH1 0x0 DUP2 ISZERO ISZERO SWAP1 POP SWAP2 SWAP1 POP JUMP JUMPDEST PUSH1 0x0 PUSH20 0xFFFFFFFFFFFFFFFFFFFFFFFFFFFFFFFFFFFFFFFF DUP3 AND SWAP1 POP SWAP2 SWAP1 POP JUMP JUMPDEST PUSH1 0x0 DUP2 SWAP1 POP SWAP2 SWAP1 POP JUMP JUMPDEST PUSH1 0x0 JUMPDEST DUP4 DUP2 LT ISZERO PUSH2 0x6C0 JUMPI DUP1 DUP3 ADD MLOAD DUP2 DUP5 ADD MSTORE PUSH1 0x20 DUP2 ADD SWAP1 POP PUSH2 0x6A5 JUMP JUMPDEST DUP4 DUP2 GT ISZERO PUSH2 0x6CF JUMPI PUSH1 0x0 DUP5 DUP5 ADD MSTORE JUMPDEST POP POP POP POP JUMP JUMPDEST PUSH32 0x4E487B7100000000000000000000000000000000000000000000000000000000 PUSH1 0x0 MSTORE PUSH1 0x11 PUSH1 0x4 MSTORE PUSH1 0x24 PUSH1 0x0 REVERT JUMPDEST PUSH1 0x0 DUP1 REVERT JUMPDEST PUSH1 0x0 PUSH1 0x1F NOT PUSH1 0x1F DUP4 ADD AND SWAP1 POP SWAP2 SWAP1 POP JUMP JUMPDEST PUSH32 0x4E6F7420746865204F776E657200000000000000000000000000000000000000 PUSH1 0x0 DUP3 ADD MSTORE POP JUMP JUMPDEST POP JUMP JUMPDEST PUSH2 0x74F DUP2 PUSH2 0x65A JUMP JUMPDEST DUP2 EQ PUSH2 0x75A JUMPI PUSH1 0x0 DUP1 REVERT JUMPDEST POP JUMP JUMPDEST PUSH2 0x766 DUP2 PUSH2 0x698 JUMP JUMPDEST DUP2 EQ PUSH2 0x771 JUMPI PUSH1 0x0 DUP1 REVERT JUMPDEST POP JUMP INVALID LOG2 PUSH5 0x6970667358 0x22 SLT KECCAK256 SDIV 0xEB PUSH21 0xDA2BABF9090A85A82BB88038626CD2CEE8DEEA3359 0xE2 PUSH8 0xC463A3EE5C3D6473 PUSH16 0x6C634300080700330000000000000000 "
				},
				"gasEstimates": {
					"creation": {
						"codeDepositCost": "392400",
						"executionCost": "24696",
						"totalCost": "417096"
					},
					"external": {
						"changeBalance(address,address)": "infinite",
						"userBalance()": "2526",
						"withdraw(address,address,uint256)": "infinite"
					}
				},
				"methodIdentifiers": {
					"changeBalance(address,address)": "be434a2c",
					"userBalance()": "bf152765",
					"withdraw(address,address,uint256)": "d9caed12"
				}
			},
			"storageLayout": {
				"storage": [
					{
						"astId": 17,
						"contract": "contracts/EthersWallet.sol:EthersWallet",
						"label": "owner",
						"offset": 0,
						"slot": "0",
						"type": "t_address"
					},
					{
						"astId": 21,
						"contract": "contracts/EthersWallet.sol:EthersWallet",
						"label": "balances",
						"offset": 0,
						"slot": "1",
						"type": "t_mapping(t_address,t_uint256)"
					}
				],
				"types": {
					"t_address": {
						"encoding": "inplace",
						"label": "address",
						"numberOfBytes": "20"
					},
					"t_mapping(t_address,t_uint256)": {
						"encoding": "mapping",
						"key": "t_address",
						"label": "mapping(address => uint256)",
						"numberOfBytes": "32",
						"value": "t_uint256"
					},
					"t_uint256": {
						"encoding": "inplace",
						"label": "uint256",
						"numberOfBytes": "32"
					}
				}
			},
			"userdoc": {
				"kind": "user",
				"methods": {},
				"version": 1
			}
		}
	}
}