{
	"contracts/ToDo.sol": {
		"TodoList": {
			"abi": [
				{
					"inputs": [
						{
							"internalType": "string",
							"name": "_text",
							"type": "string"
						}
					],
					"name": "create",
					"outputs": [],
					"stateMutability": "nonpayable",
					"type": "function"
				},
				{
					"inputs": [
						{
							"internalType": "uint256",
							"name": "",
							"type": "uint256"
						}
					],
					"name": "todos",
					"outputs": [
						{
							"internalType": "string",
							"name": "text",
							"type": "string"
						},
						{
							"internalType": "bool",
							"name": "completed",
							"type": "bool"
						}
					],
					"stateMutability": "view",
					"type": "function"
				},
				{
					"inputs": [
						{
							"internalType": "string",
							"name": "_text",
							"type": "string"
						},
						{
							"internalType": "bool",
							"name": "_status",
							"type": "bool"
						},
						{
							"internalType": "uint256",
							"name": "_index",
							"type": "uint256"
						}
					],
					"name": "update",
					"outputs": [],
					"stateMutability": "nonpayable",
					"type": "function"
				}
			],
			"devdoc": {
				"kind": "dev",
				"methods": {},
				"version": 1
			},
			"evm": {
				"assembly": "    /* \"contracts/ToDo.sol\":68:553  contract TodoList {\r... */\n  mstore(0x40, 0x80)\n  callvalue\n  dup1\n  iszero\n  tag_1\n  jumpi\n  0x00\n  dup1\n  revert\ntag_1:\n  pop\n  dataSize(sub_0)\n  dup1\n  dataOffset(sub_0)\n  0x00\n  codecopy\n  0x00\n  return\nstop\n\nsub_0: assembly {\n        /* \"contracts/ToDo.sol\":68:553  contract TodoList {\r... */\n      mstore(0x40, 0x80)\n      callvalue\n      dup1\n      iszero\n      tag_1\n      jumpi\n      0x00\n      dup1\n      revert\n    tag_1:\n      pop\n      jumpi(tag_2, lt(calldatasize, 0x04))\n      shr(0xe0, calldataload(0x00))\n      dup1\n      0x1a1e4b51\n      eq\n      tag_3\n      jumpi\n      dup1\n      0xb6a46b3b\n      eq\n      tag_4\n      jumpi\n      dup1\n      0xbc8bc2b4\n      eq\n      tag_5\n      jumpi\n    tag_2:\n      0x00\n      dup1\n      revert\n        /* \"contracts/ToDo.sol\":331:546  function update(string calldata _text, bool _status, uint _index) external{\r... */\n    tag_3:\n      tag_6\n      0x04\n      dup1\n      calldatasize\n      sub\n      dup2\n      add\n      swap1\n      tag_7\n      swap2\n      swap1\n      tag_8\n      jump\t// in\n    tag_7:\n      tag_9\n      jump\t// in\n    tag_6:\n      stop\n        /* \"contracts/ToDo.sol\":193:324  function create(string calldata _text) external {\r... */\n    tag_4:\n      tag_10\n      0x04\n      dup1\n      calldatasize\n      sub\n      dup2\n      add\n      swap1\n      tag_11\n      swap2\n      swap1\n      tag_12\n      jump\t// in\n    tag_11:\n      tag_13\n      jump\t// in\n    tag_10:\n      stop\n        /* \"contracts/ToDo.sol\":166:185  ToDo[] public todos */\n    tag_5:\n      tag_14\n      0x04\n      dup1\n      calldatasize\n      sub\n      dup2\n      add\n      swap1\n      tag_15\n      swap2\n      swap1\n      tag_16\n      jump\t// in\n    tag_15:\n      tag_17\n      jump\t// in\n    tag_14:\n      mload(0x40)\n      tag_18\n      swap3\n      swap2\n      swap1\n      tag_19\n      jump\t// in\n    tag_18:\n      mload(0x40)\n      dup1\n      swap2\n      sub\n      swap1\n      return\n        /* \"contracts/ToDo.sol\":331:546  function update(string calldata _text, bool _status, uint _index) external{\r... */\n    tag_9:\n        /* \"contracts/ToDo.sol\":417:434  ToDo storage todo */\n      0x00\n        /* \"contracts/ToDo.sol\":437:442  todos */\n      dup1\n        /* \"contracts/ToDo.sol\":443:449  _index */\n      dup3\n        /* \"contracts/ToDo.sol\":437:450  todos[_index] */\n      dup2\n      sload\n      dup2\n      lt\n      tag_21\n      jumpi\n      tag_22\n      tag_23\n      jump\t// in\n    tag_22:\n    tag_21:\n      swap1\n      0x00\n      mstore\n      keccak256(0x00, 0x20)\n      swap1\n      0x02\n      mul\n      add\n        /* \"contracts/ToDo.sol\":417:450  ToDo storage todo = todos[_index] */\n      swap1\n      pop\n        /* \"contracts/ToDo.sol\":474:479  _text */\n      dup5\n      dup5\n        /* \"contracts/ToDo.sol\":462:466  todo */\n      dup3\n        /* \"contracts/ToDo.sol\":462:471  todo.text */\n      0x00\n      add\n        /* \"contracts/ToDo.sol\":462:479  todo.text = _text */\n      swap2\n      swap1\n      tag_25\n      swap3\n      swap2\n      swap1\n      tag_26\n      jump\t// in\n    tag_25:\n      pop\n        /* \"contracts/ToDo.sol\":506:513  _status */\n      dup3\n        /* \"contracts/ToDo.sol\":489:493  todo */\n      dup2\n        /* \"contracts/ToDo.sol\":489:503  todo.completed */\n      0x01\n      add\n      0x00\n        /* \"contracts/ToDo.sol\":489:513  todo.completed = _status */\n      0x0100\n      exp\n      dup2\n      sload\n      dup2\n      0xff\n      mul\n      not\n      and\n      swap1\n      dup4\n      iszero\n      iszero\n      mul\n      or\n      swap1\n      sstore\n      pop\n        /* \"contracts/ToDo.sol\":523:528  todos */\n      0x00\n        /* \"contracts/ToDo.sol\":534:538  todo */\n      dup2\n        /* \"contracts/ToDo.sol\":523:539  todos.push(todo) */\n      swap1\n      dup1\n      0x01\n      dup2\n      sload\n      add\n      dup1\n      dup3\n      sstore\n      dup1\n      swap2\n      pop\n      pop\n      0x01\n      swap1\n      sub\n      swap1\n      0x00\n      mstore\n      keccak256(0x00, 0x20)\n      swap1\n      0x02\n      mul\n      add\n      0x00\n      swap1\n      swap2\n      swap1\n      swap2\n      swap1\n      swap2\n      pop\n      0x00\n      dup3\n      add\n      dup2\n      0x00\n      add\n      swap1\n      dup1\n      sload\n      tag_28\n      swap1\n      tag_29\n      jump\t// in\n    tag_28:\n      tag_30\n      swap3\n      swap2\n      swap1\n      tag_31\n      jump\t// in\n    tag_30:\n      pop\n      0x01\n      dup3\n      add\n      0x00\n      swap1\n      sload\n      swap1\n      0x0100\n      exp\n      swap1\n      div\n      0xff\n      and\n      dup2\n      0x01\n      add\n      exp(0x0100, 0x00)\n      dup2\n      sload\n      dup2\n      0xff\n      mul\n      not\n      and\n      swap1\n      dup4\n      iszero\n      iszero\n      mul\n      or\n      swap1\n      sstore\n      pop\n      pop\n      pop\n        /* \"contracts/ToDo.sol\":405:546  {\r... */\n      pop\n        /* \"contracts/ToDo.sol\":331:546  function update(string calldata _text, bool _status, uint _index) external{\r... */\n      pop\n      pop\n      pop\n      pop\n      jump\t// out\n        /* \"contracts/ToDo.sol\":193:324  function create(string calldata _text) external {\r... */\n    tag_13:\n        /* \"contracts/ToDo.sol\":253:269  ToDo memory todo */\n      0x00\n        /* \"contracts/ToDo.sol\":272:289  ToDo(_text,false) */\n      mload(0x40)\n      dup1\n      0x40\n      add\n      0x40\n      mstore\n      dup1\n        /* \"contracts/ToDo.sol\":277:282  _text */\n      dup5\n      dup5\n        /* \"contracts/ToDo.sol\":272:289  ToDo(_text,false) */\n      dup1\n      dup1\n      0x1f\n      add\n      0x20\n      dup1\n      swap2\n      div\n      mul\n      0x20\n      add\n      mload(0x40)\n      swap1\n      dup2\n      add\n      0x40\n      mstore\n      dup1\n      swap4\n      swap3\n      swap2\n      swap1\n      dup2\n      dup2\n      mstore\n      0x20\n      add\n      dup4\n      dup4\n      dup1\n      dup3\n      dup5\n      calldatacopy\n      0x00\n      dup2\n      dup5\n      add\n      mstore\n      not(0x1f)\n      0x1f\n      dup3\n      add\n      and\n      swap1\n      pop\n      dup1\n      dup4\n      add\n      swap3\n      pop\n      pop\n      pop\n      pop\n      pop\n      pop\n      pop\n      dup2\n      mstore\n      0x20\n      add\n        /* \"contracts/ToDo.sol\":283:288  false */\n      0x00\n        /* \"contracts/ToDo.sol\":272:289  ToDo(_text,false) */\n      iszero\n      iszero\n      dup2\n      mstore\n      pop\n        /* \"contracts/ToDo.sol\":253:289  ToDo memory todo = ToDo(_text,false) */\n      swap1\n      pop\n        /* \"contracts/ToDo.sol\":299:304  todos */\n      0x00\n        /* \"contracts/ToDo.sol\":310:314  todo */\n      dup2\n        /* \"contracts/ToDo.sol\":299:315  todos.push(todo) */\n      swap1\n      dup1\n      0x01\n      dup2\n      sload\n      add\n      dup1\n      dup3\n      sstore\n      dup1\n      swap2\n      pop\n      pop\n      0x01\n      swap1\n      sub\n      swap1\n      0x00\n      mstore\n      keccak256(0x00, 0x20)\n      swap1\n      0x02\n      mul\n      add\n      0x00\n      swap1\n      swap2\n      swap1\n      swap2\n      swap1\n      swap2\n      pop\n      0x00\n      dup3\n      add\n      mload\n      dup2\n      0x00\n      add\n      swap1\n      dup1\n      mload\n      swap1\n      0x20\n      add\n      swap1\n      tag_34\n      swap3\n      swap2\n      swap1\n      tag_35\n      jump\t// in\n    tag_34:\n      pop\n      0x20\n      dup3\n      add\n      mload\n      dup2\n      0x01\n      add\n      exp(0x0100, 0x00)\n      dup2\n      sload\n      dup2\n      0xff\n      mul\n      not\n      and\n      swap1\n      dup4\n      iszero\n      iszero\n      mul\n      or\n      swap1\n      sstore\n      pop\n      pop\n      pop\n        /* \"contracts/ToDo.sol\":241:324  {\r... */\n      pop\n        /* \"contracts/ToDo.sol\":193:324  function create(string calldata _text) external {\r... */\n      pop\n      pop\n      jump\t// out\n        /* \"contracts/ToDo.sol\":166:185  ToDo[] public todos */\n    tag_17:\n      0x00\n      dup2\n      dup2\n      sload\n      dup2\n      lt\n      tag_36\n      jumpi\n      0x00\n      dup1\n      revert\n    tag_36:\n      swap1\n      0x00\n      mstore\n      keccak256(0x00, 0x20)\n      swap1\n      0x02\n      mul\n      add\n      0x00\n      swap2\n      pop\n      swap1\n      pop\n      dup1\n      0x00\n      add\n      dup1\n      sload\n      tag_38\n      swap1\n      tag_29\n      jump\t// in\n    tag_38:\n      dup1\n      0x1f\n      add\n      0x20\n      dup1\n      swap2\n      div\n      mul\n      0x20\n      add\n      mload(0x40)\n      swap1\n      dup2\n      add\n      0x40\n      mstore\n      dup1\n      swap3\n      swap2\n      swap1\n      dup2\n      dup2\n      mstore\n      0x20\n      add\n      dup3\n      dup1\n      sload\n      tag_39\n      swap1\n      tag_29\n      jump\t// in\n    tag_39:\n      dup1\n      iszero\n      tag_40\n      jumpi\n      dup1\n      0x1f\n      lt\n      tag_41\n      jumpi\n      0x0100\n      dup1\n      dup4\n      sload\n      div\n      mul\n      dup4\n      mstore\n      swap2\n      0x20\n      add\n      swap2\n      jump(tag_40)\n    tag_41:\n      dup3\n      add\n      swap2\n      swap1\n      0x00\n      mstore\n      keccak256(0x00, 0x20)\n      swap1\n    tag_42:\n      dup2\n      sload\n      dup2\n      mstore\n      swap1\n      0x01\n      add\n      swap1\n      0x20\n      add\n      dup1\n      dup4\n      gt\n      tag_42\n      jumpi\n      dup3\n      swap1\n      sub\n      0x1f\n      and\n      dup3\n      add\n      swap2\n    tag_40:\n      pop\n      pop\n      pop\n      pop\n      pop\n      swap1\n      dup1\n      0x01\n      add\n      0x00\n      swap1\n      sload\n      swap1\n      0x0100\n      exp\n      swap1\n      div\n      0xff\n      and\n      swap1\n      pop\n      dup3\n      jump\t// out\n    tag_26:\n      dup3\n      dup1\n      sload\n      tag_43\n      swap1\n      tag_29\n      jump\t// in\n    tag_43:\n      swap1\n      0x00\n      mstore\n      keccak256(0x00, 0x20)\n      swap1\n      0x1f\n      add\n      0x20\n      swap1\n      div\n      dup2\n      add\n      swap3\n      dup3\n      tag_45\n      jumpi\n      0x00\n      dup6\n      sstore\n      jump(tag_44)\n    tag_45:\n      dup3\n      0x1f\n      lt\n      tag_46\n      jumpi\n      dup1\n      calldataload\n      not(0xff)\n      and\n      dup4\n      dup1\n      add\n      or\n      dup6\n      sstore\n      jump(tag_44)\n    tag_46:\n      dup3\n      dup1\n      add\n      0x01\n      add\n      dup6\n      sstore\n      dup3\n      iszero\n      tag_44\n      jumpi\n      swap2\n      dup3\n      add\n    tag_47:\n      dup3\n      dup2\n      gt\n      iszero\n      tag_48\n      jumpi\n      dup3\n      calldataload\n      dup3\n      sstore\n      swap2\n      0x20\n      add\n      swap2\n      swap1\n      0x01\n      add\n      swap1\n      jump(tag_47)\n    tag_48:\n    tag_44:\n      pop\n      swap1\n      pop\n      tag_49\n      swap2\n      swap1\n      tag_50\n      jump\t// in\n    tag_49:\n      pop\n      swap1\n      jump\t// out\n    tag_31:\n      dup3\n      dup1\n      sload\n      tag_51\n      swap1\n      tag_29\n      jump\t// in\n    tag_51:\n      swap1\n      0x00\n      mstore\n      keccak256(0x00, 0x20)\n      swap1\n      0x1f\n      add\n      0x20\n      swap1\n      div\n      dup2\n      add\n      swap3\n      dup3\n      tag_53\n      jumpi\n      0x00\n      dup6\n      sstore\n      jump(tag_52)\n    tag_53:\n      dup3\n      0x1f\n      lt\n      tag_54\n      jumpi\n      dup1\n      sload\n      dup6\n      sstore\n      jump(tag_52)\n    tag_54:\n      dup3\n      dup1\n      add\n      0x01\n      add\n      dup6\n      sstore\n      dup3\n      iszero\n      tag_52\n      jumpi\n      0x00\n      mstore\n      keccak256(0x00, 0x20)\n      swap2\n      0x1f\n      add\n      0x20\n      swap1\n      div\n      dup3\n      add\n    tag_55:\n      dup3\n      dup2\n      gt\n      iszero\n      tag_56\n      jumpi\n      dup3\n      sload\n      dup3\n      sstore\n      swap2\n      0x01\n      add\n      swap2\n      swap1\n      0x01\n      add\n      swap1\n      jump(tag_55)\n    tag_56:\n    tag_52:\n      pop\n      swap1\n      pop\n      tag_57\n      swap2\n      swap1\n      tag_50\n      jump\t// in\n    tag_57:\n      pop\n      swap1\n      jump\t// out\n    tag_35:\n      dup3\n      dup1\n      sload\n      tag_58\n      swap1\n      tag_29\n      jump\t// in\n    tag_58:\n      swap1\n      0x00\n      mstore\n      keccak256(0x00, 0x20)\n      swap1\n      0x1f\n      add\n      0x20\n      swap1\n      div\n      dup2\n      add\n      swap3\n      dup3\n      tag_60\n      jumpi\n      0x00\n      dup6\n      sstore\n      jump(tag_59)\n    tag_60:\n      dup3\n      0x1f\n      lt\n      tag_61\n      jumpi\n      dup1\n      mload\n      not(0xff)\n      and\n      dup4\n      dup1\n      add\n      or\n      dup6\n      sstore\n      jump(tag_59)\n    tag_61:\n      dup3\n      dup1\n      add\n      0x01\n      add\n      dup6\n      sstore\n      dup3\n      iszero\n      tag_59\n      jumpi\n      swap2\n      dup3\n      add\n    tag_62:\n      dup3\n      dup2\n      gt\n      iszero\n      tag_63\n      jumpi\n      dup3\n      mload\n      dup3\n      sstore\n      swap2\n      0x20\n      add\n      swap2\n      swap1\n      0x01\n      add\n      swap1\n      jump(tag_62)\n    tag_63:\n    tag_59:\n      pop\n      swap1\n      pop\n      tag_64\n      swap2\n      swap1\n      tag_50\n      jump\t// in\n    tag_64:\n      pop\n      swap1\n      jump\t// out\n    tag_50:\n    tag_65:\n      dup1\n      dup3\n      gt\n      iszero\n      tag_66\n      jumpi\n      0x00\n      dup2\n      0x00\n      swap1\n      sstore\n      pop\n      0x01\n      add\n      jump(tag_65)\n    tag_66:\n      pop\n      swap1\n      jump\t// out\n        /* \"#utility.yul\":7:140   */\n    tag_68:\n        /* \"#utility.yul\":50:55   */\n      0x00\n        /* \"#utility.yul\":88:94   */\n      dup2\n        /* \"#utility.yul\":75:95   */\n      calldataload\n        /* \"#utility.yul\":66:95   */\n      swap1\n      pop\n        /* \"#utility.yul\":104:134   */\n      tag_70\n        /* \"#utility.yul\":128:133   */\n      dup2\n        /* \"#utility.yul\":104:134   */\n      tag_71\n      jump\t// in\n    tag_70:\n        /* \"#utility.yul\":7:140   */\n      swap3\n      swap2\n      pop\n      pop\n      jump\t// out\n        /* \"#utility.yul\":160:713   */\n    tag_72:\n        /* \"#utility.yul\":218:226   */\n      0x00\n        /* \"#utility.yul\":228:234   */\n      dup1\n        /* \"#utility.yul\":278:281   */\n      dup4\n        /* \"#utility.yul\":271:275   */\n      0x1f\n        /* \"#utility.yul\":263:269   */\n      dup5\n        /* \"#utility.yul\":259:276   */\n      add\n        /* \"#utility.yul\":255:282   */\n      slt\n        /* \"#utility.yul\":245:367   */\n      tag_74\n      jumpi\n        /* \"#utility.yul\":286:365   */\n      tag_75\n      tag_76\n      jump\t// in\n    tag_75:\n        /* \"#utility.yul\":245:367   */\n    tag_74:\n        /* \"#utility.yul\":399:405   */\n      dup3\n        /* \"#utility.yul\":386:406   */\n      calldataload\n        /* \"#utility.yul\":376:406   */\n      swap1\n      pop\n        /* \"#utility.yul\":429:447   */\n      0xffffffffffffffff\n        /* \"#utility.yul\":421:427   */\n      dup2\n        /* \"#utility.yul\":418:448   */\n      gt\n        /* \"#utility.yul\":415:532   */\n      iszero\n      tag_77\n      jumpi\n        /* \"#utility.yul\":451:530   */\n      tag_78\n      tag_79\n      jump\t// in\n    tag_78:\n        /* \"#utility.yul\":415:532   */\n    tag_77:\n        /* \"#utility.yul\":565:569   */\n      0x20\n        /* \"#utility.yul\":557:563   */\n      dup4\n        /* \"#utility.yul\":553:570   */\n      add\n        /* \"#utility.yul\":541:570   */\n      swap2\n      pop\n        /* \"#utility.yul\":619:622   */\n      dup4\n        /* \"#utility.yul\":611:615   */\n      0x01\n        /* \"#utility.yul\":603:609   */\n      dup3\n        /* \"#utility.yul\":599:616   */\n      mul\n        /* \"#utility.yul\":589:597   */\n      dup4\n        /* \"#utility.yul\":585:617   */\n      add\n        /* \"#utility.yul\":582:623   */\n      gt\n        /* \"#utility.yul\":579:707   */\n      iszero\n      tag_80\n      jumpi\n        /* \"#utility.yul\":626:705   */\n      tag_81\n      tag_82\n      jump\t// in\n    tag_81:\n        /* \"#utility.yul\":579:707   */\n    tag_80:\n        /* \"#utility.yul\":160:713   */\n      swap3\n      pop\n      swap3\n      swap1\n      pop\n      jump\t// out\n        /* \"#utility.yul\":719:858   */\n    tag_83:\n        /* \"#utility.yul\":765:770   */\n      0x00\n        /* \"#utility.yul\":803:809   */\n      dup2\n        /* \"#utility.yul\":790:810   */\n      calldataload\n        /* \"#utility.yul\":781:810   */\n      swap1\n      pop\n        /* \"#utility.yul\":819:852   */\n      tag_85\n        /* \"#utility.yul\":846:851   */\n      dup2\n        /* \"#utility.yul\":819:852   */\n      tag_86\n      jump\t// in\n    tag_85:\n        /* \"#utility.yul\":719:858   */\n      swap3\n      swap2\n      pop\n      pop\n      jump\t// out\n        /* \"#utility.yul\":864:1393   */\n    tag_12:\n        /* \"#utility.yul\":935:941   */\n      0x00\n        /* \"#utility.yul\":943:949   */\n      dup1\n        /* \"#utility.yul\":992:994   */\n      0x20\n        /* \"#utility.yul\":980:989   */\n      dup4\n        /* \"#utility.yul\":971:978   */\n      dup6\n        /* \"#utility.yul\":967:990   */\n      sub\n        /* \"#utility.yul\":963:995   */\n      slt\n        /* \"#utility.yul\":960:1079   */\n      iszero\n      tag_88\n      jumpi\n        /* \"#utility.yul\":998:1077   */\n      tag_89\n      tag_90\n      jump\t// in\n    tag_89:\n        /* \"#utility.yul\":960:1079   */\n    tag_88:\n        /* \"#utility.yul\":1146:1147   */\n      0x00\n        /* \"#utility.yul\":1135:1144   */\n      dup4\n        /* \"#utility.yul\":1131:1148   */\n      add\n        /* \"#utility.yul\":1118:1149   */\n      calldataload\n        /* \"#utility.yul\":1176:1194   */\n      0xffffffffffffffff\n        /* \"#utility.yul\":1168:1174   */\n      dup2\n        /* \"#utility.yul\":1165:1195   */\n      gt\n        /* \"#utility.yul\":1162:1279   */\n      iszero\n      tag_91\n      jumpi\n        /* \"#utility.yul\":1198:1277   */\n      tag_92\n      tag_93\n      jump\t// in\n    tag_92:\n        /* \"#utility.yul\":1162:1279   */\n    tag_91:\n        /* \"#utility.yul\":1311:1376   */\n      tag_94\n        /* \"#utility.yul\":1368:1375   */\n      dup6\n        /* \"#utility.yul\":1359:1365   */\n      dup3\n        /* \"#utility.yul\":1348:1357   */\n      dup7\n        /* \"#utility.yul\":1344:1366   */\n      add\n        /* \"#utility.yul\":1311:1376   */\n      tag_72\n      jump\t// in\n    tag_94:\n        /* \"#utility.yul\":1293:1376   */\n      swap3\n      pop\n      swap3\n      pop\n        /* \"#utility.yul\":1089:1386   */\n      pop\n        /* \"#utility.yul\":864:1393   */\n      swap3\n      pop\n      swap3\n      swap1\n      pop\n      jump\t// out\n        /* \"#utility.yul\":1399:2212   */\n    tag_8:\n        /* \"#utility.yul\":1485:1491   */\n      0x00\n        /* \"#utility.yul\":1493:1499   */\n      dup1\n        /* \"#utility.yul\":1501:1507   */\n      0x00\n        /* \"#utility.yul\":1509:1515   */\n      dup1\n        /* \"#utility.yul\":1558:1560   */\n      0x60\n        /* \"#utility.yul\":1546:1555   */\n      dup6\n        /* \"#utility.yul\":1537:1544   */\n      dup8\n        /* \"#utility.yul\":1533:1556   */\n      sub\n        /* \"#utility.yul\":1529:1561   */\n      slt\n        /* \"#utility.yul\":1526:1645   */\n      iszero\n      tag_96\n      jumpi\n        /* \"#utility.yul\":1564:1643   */\n      tag_97\n      tag_90\n      jump\t// in\n    tag_97:\n        /* \"#utility.yul\":1526:1645   */\n    tag_96:\n        /* \"#utility.yul\":1712:1713   */\n      0x00\n        /* \"#utility.yul\":1701:1710   */\n      dup6\n        /* \"#utility.yul\":1697:1714   */\n      add\n        /* \"#utility.yul\":1684:1715   */\n      calldataload\n        /* \"#utility.yul\":1742:1760   */\n      0xffffffffffffffff\n        /* \"#utility.yul\":1734:1740   */\n      dup2\n        /* \"#utility.yul\":1731:1761   */\n      gt\n        /* \"#utility.yul\":1728:1845   */\n      iszero\n      tag_98\n      jumpi\n        /* \"#utility.yul\":1764:1843   */\n      tag_99\n      tag_93\n      jump\t// in\n    tag_99:\n        /* \"#utility.yul\":1728:1845   */\n    tag_98:\n        /* \"#utility.yul\":1877:1942   */\n      tag_100\n        /* \"#utility.yul\":1934:1941   */\n      dup8\n        /* \"#utility.yul\":1925:1931   */\n      dup3\n        /* \"#utility.yul\":1914:1923   */\n      dup9\n        /* \"#utility.yul\":1910:1932   */\n      add\n        /* \"#utility.yul\":1877:1942   */\n      tag_72\n      jump\t// in\n    tag_100:\n        /* \"#utility.yul\":1859:1942   */\n      swap5\n      pop\n      swap5\n      pop\n        /* \"#utility.yul\":1655:1952   */\n      pop\n        /* \"#utility.yul\":1991:1993   */\n      0x20\n        /* \"#utility.yul\":2017:2067   */\n      tag_101\n        /* \"#utility.yul\":2059:2066   */\n      dup8\n        /* \"#utility.yul\":2050:2056   */\n      dup3\n        /* \"#utility.yul\":2039:2048   */\n      dup9\n        /* \"#utility.yul\":2035:2057   */\n      add\n        /* \"#utility.yul\":2017:2067   */\n      tag_68\n      jump\t// in\n    tag_101:\n        /* \"#utility.yul\":2007:2067   */\n      swap3\n      pop\n        /* \"#utility.yul\":1962:2077   */\n      pop\n        /* \"#utility.yul\":2116:2118   */\n      0x40\n        /* \"#utility.yul\":2142:2195   */\n      tag_102\n        /* \"#utility.yul\":2187:2194   */\n      dup8\n        /* \"#utility.yul\":2178:2184   */\n      dup3\n        /* \"#utility.yul\":2167:2176   */\n      dup9\n        /* \"#utility.yul\":2163:2185   */\n      add\n        /* \"#utility.yul\":2142:2195   */\n      tag_83\n      jump\t// in\n    tag_102:\n        /* \"#utility.yul\":2132:2195   */\n      swap2\n      pop\n        /* \"#utility.yul\":2087:2205   */\n      pop\n        /* \"#utility.yul\":1399:2212   */\n      swap3\n      swap6\n      swap2\n      swap5\n      pop\n      swap3\n      pop\n      jump\t// out\n        /* \"#utility.yul\":2218:2547   */\n    tag_16:\n        /* \"#utility.yul\":2277:2283   */\n      0x00\n        /* \"#utility.yul\":2326:2328   */\n      0x20\n        /* \"#utility.yul\":2314:2323   */\n      dup3\n        /* \"#utility.yul\":2305:2312   */\n      dup5\n        /* \"#utility.yul\":2301:2324   */\n      sub\n        /* \"#utility.yul\":2297:2329   */\n      slt\n        /* \"#utility.yul\":2294:2413   */\n      iszero\n      tag_104\n      jumpi\n        /* \"#utility.yul\":2332:2411   */\n      tag_105\n      tag_90\n      jump\t// in\n    tag_105:\n        /* \"#utility.yul\":2294:2413   */\n    tag_104:\n        /* \"#utility.yul\":2452:2453   */\n      0x00\n        /* \"#utility.yul\":2477:2530   */\n      tag_106\n        /* \"#utility.yul\":2522:2529   */\n      dup5\n        /* \"#utility.yul\":2513:2519   */\n      dup3\n        /* \"#utility.yul\":2502:2511   */\n      dup6\n        /* \"#utility.yul\":2498:2520   */\n      add\n        /* \"#utility.yul\":2477:2530   */\n      tag_83\n      jump\t// in\n    tag_106:\n        /* \"#utility.yul\":2467:2530   */\n      swap2\n      pop\n        /* \"#utility.yul\":2423:2540   */\n      pop\n        /* \"#utility.yul\":2218:2547   */\n      swap3\n      swap2\n      pop\n      pop\n      jump\t// out\n        /* \"#utility.yul\":2553:2662   */\n    tag_107:\n        /* \"#utility.yul\":2634:2655   */\n      tag_109\n        /* \"#utility.yul\":2649:2654   */\n      dup2\n        /* \"#utility.yul\":2634:2655   */\n      tag_110\n      jump\t// in\n    tag_109:\n        /* \"#utility.yul\":2629:2632   */\n      dup3\n        /* \"#utility.yul\":2622:2656   */\n      mstore\n        /* \"#utility.yul\":2553:2662   */\n      pop\n      pop\n      jump\t// out\n        /* \"#utility.yul\":2668:3032   */\n    tag_111:\n        /* \"#utility.yul\":2756:2759   */\n      0x00\n        /* \"#utility.yul\":2784:2823   */\n      tag_113\n        /* \"#utility.yul\":2817:2822   */\n      dup3\n        /* \"#utility.yul\":2784:2823   */\n      tag_114\n      jump\t// in\n    tag_113:\n        /* \"#utility.yul\":2839:2910   */\n      tag_115\n        /* \"#utility.yul\":2903:2909   */\n      dup2\n        /* \"#utility.yul\":2898:2901   */\n      dup6\n        /* \"#utility.yul\":2839:2910   */\n      tag_116\n      jump\t// in\n    tag_115:\n        /* \"#utility.yul\":2832:2910   */\n      swap4\n      pop\n        /* \"#utility.yul\":2919:2971   */\n      tag_117\n        /* \"#utility.yul\":2964:2970   */\n      dup2\n        /* \"#utility.yul\":2959:2962   */\n      dup6\n        /* \"#utility.yul\":2952:2956   */\n      0x20\n        /* \"#utility.yul\":2945:2950   */\n      dup7\n        /* \"#utility.yul\":2941:2957   */\n      add\n        /* \"#utility.yul\":2919:2971   */\n      tag_118\n      jump\t// in\n    tag_117:\n        /* \"#utility.yul\":2996:3025   */\n      tag_119\n        /* \"#utility.yul\":3018:3024   */\n      dup2\n        /* \"#utility.yul\":2996:3025   */\n      tag_120\n      jump\t// in\n    tag_119:\n        /* \"#utility.yul\":2991:2994   */\n      dup5\n        /* \"#utility.yul\":2987:3026   */\n      add\n        /* \"#utility.yul\":2980:3026   */\n      swap2\n      pop\n        /* \"#utility.yul\":2760:3032   */\n      pop\n        /* \"#utility.yul\":2668:3032   */\n      swap3\n      swap2\n      pop\n      pop\n      jump\t// out\n        /* \"#utility.yul\":3038:3449   */\n    tag_19:\n        /* \"#utility.yul\":3173:3177   */\n      0x00\n        /* \"#utility.yul\":3211:3213   */\n      0x40\n        /* \"#utility.yul\":3200:3209   */\n      dup3\n        /* \"#utility.yul\":3196:3214   */\n      add\n        /* \"#utility.yul\":3188:3214   */\n      swap1\n      pop\n        /* \"#utility.yul\":3260:3269   */\n      dup2\n        /* \"#utility.yul\":3254:3258   */\n      dup2\n        /* \"#utility.yul\":3250:3270   */\n      sub\n        /* \"#utility.yul\":3246:3247   */\n      0x00\n        /* \"#utility.yul\":3235:3244   */\n      dup4\n        /* \"#utility.yul\":3231:3248   */\n      add\n        /* \"#utility.yul\":3224:3271   */\n      mstore\n        /* \"#utility.yul\":3288:3366   */\n      tag_122\n        /* \"#utility.yul\":3361:3365   */\n      dup2\n        /* \"#utility.yul\":3352:3358   */\n      dup6\n        /* \"#utility.yul\":3288:3366   */\n      tag_111\n      jump\t// in\n    tag_122:\n        /* \"#utility.yul\":3280:3366   */\n      swap1\n      pop\n        /* \"#utility.yul\":3376:3442   */\n      tag_123\n        /* \"#utility.yul\":3438:3440   */\n      0x20\n        /* \"#utility.yul\":3427:3436   */\n      dup4\n        /* \"#utility.yul\":3423:3441   */\n      add\n        /* \"#utility.yul\":3414:3420   */\n      dup5\n        /* \"#utility.yul\":3376:3442   */\n      tag_107\n      jump\t// in\n    tag_123:\n        /* \"#utility.yul\":3038:3449   */\n      swap4\n      swap3\n      pop\n      pop\n      pop\n      jump\t// out\n        /* \"#utility.yul\":3536:3635   */\n    tag_114:\n        /* \"#utility.yul\":3588:3594   */\n      0x00\n        /* \"#utility.yul\":3622:3627   */\n      dup2\n        /* \"#utility.yul\":3616:3628   */\n      mload\n        /* \"#utility.yul\":3606:3628   */\n      swap1\n      pop\n        /* \"#utility.yul\":3536:3635   */\n      swap2\n      swap1\n      pop\n      jump\t// out\n        /* \"#utility.yul\":3641:3810   */\n    tag_116:\n        /* \"#utility.yul\":3725:3736   */\n      0x00\n        /* \"#utility.yul\":3759:3765   */\n      dup3\n        /* \"#utility.yul\":3754:3757   */\n      dup3\n        /* \"#utility.yul\":3747:3766   */\n      mstore\n        /* \"#utility.yul\":3799:3803   */\n      0x20\n        /* \"#utility.yul\":3794:3797   */\n      dup3\n        /* \"#utility.yul\":3790:3804   */\n      add\n        /* \"#utility.yul\":3775:3804   */\n      swap1\n      pop\n        /* \"#utility.yul\":3641:3810   */\n      swap3\n      swap2\n      pop\n      pop\n      jump\t// out\n        /* \"#utility.yul\":3816:3906   */\n    tag_110:\n        /* \"#utility.yul\":3850:3857   */\n      0x00\n        /* \"#utility.yul\":3893:3898   */\n      dup2\n        /* \"#utility.yul\":3886:3899   */\n      iszero\n        /* \"#utility.yul\":3879:3900   */\n      iszero\n        /* \"#utility.yul\":3868:3900   */\n      swap1\n      pop\n        /* \"#utility.yul\":3816:3906   */\n      swap2\n      swap1\n      pop\n      jump\t// out\n        /* \"#utility.yul\":3912:3989   */\n    tag_129:\n        /* \"#utility.yul\":3949:3956   */\n      0x00\n        /* \"#utility.yul\":3978:3983   */\n      dup2\n        /* \"#utility.yul\":3967:3983   */\n      swap1\n      pop\n        /* \"#utility.yul\":3912:3989   */\n      swap2\n      swap1\n      pop\n      jump\t// out\n        /* \"#utility.yul\":3995:4302   */\n    tag_118:\n        /* \"#utility.yul\":4063:4064   */\n      0x00\n        /* \"#utility.yul\":4073:4186   */\n    tag_132:\n        /* \"#utility.yul\":4087:4093   */\n      dup4\n        /* \"#utility.yul\":4084:4085   */\n      dup2\n        /* \"#utility.yul\":4081:4094   */\n      lt\n        /* \"#utility.yul\":4073:4186   */\n      iszero\n      tag_134\n      jumpi\n        /* \"#utility.yul\":4172:4173   */\n      dup1\n        /* \"#utility.yul\":4167:4170   */\n      dup3\n        /* \"#utility.yul\":4163:4174   */\n      add\n        /* \"#utility.yul\":4157:4175   */\n      mload\n        /* \"#utility.yul\":4153:4154   */\n      dup2\n        /* \"#utility.yul\":4148:4151   */\n      dup5\n        /* \"#utility.yul\":4144:4155   */\n      add\n        /* \"#utility.yul\":4137:4176   */\n      mstore\n        /* \"#utility.yul\":4109:4111   */\n      0x20\n        /* \"#utility.yul\":4106:4107   */\n      dup2\n        /* \"#utility.yul\":4102:4112   */\n      add\n        /* \"#utility.yul\":4097:4112   */\n      swap1\n      pop\n        /* \"#utility.yul\":4073:4186   */\n      jump(tag_132)\n    tag_134:\n        /* \"#utility.yul\":4204:4210   */\n      dup4\n        /* \"#utility.yul\":4201:4202   */\n      dup2\n        /* \"#utility.yul\":4198:4211   */\n      gt\n        /* \"#utility.yul\":4195:4296   */\n      iszero\n      tag_135\n      jumpi\n        /* \"#utility.yul\":4284:4285   */\n      0x00\n        /* \"#utility.yul\":4275:4281   */\n      dup5\n        /* \"#utility.yul\":4270:4273   */\n      dup5\n        /* \"#utility.yul\":4266:4282   */\n      add\n        /* \"#utility.yul\":4259:4286   */\n      mstore\n        /* \"#utility.yul\":4195:4296   */\n    tag_135:\n        /* \"#utility.yul\":4044:4302   */\n      pop\n        /* \"#utility.yul\":3995:4302   */\n      pop\n      pop\n      pop\n      jump\t// out\n        /* \"#utility.yul\":4308:4628   */\n    tag_29:\n        /* \"#utility.yul\":4352:4358   */\n      0x00\n        /* \"#utility.yul\":4389:4390   */\n      0x02\n        /* \"#utility.yul\":4383:4387   */\n      dup3\n        /* \"#utility.yul\":4379:4391   */\n      div\n        /* \"#utility.yul\":4369:4391   */\n      swap1\n      pop\n        /* \"#utility.yul\":4436:4437   */\n      0x01\n        /* \"#utility.yul\":4430:4434   */\n      dup3\n        /* \"#utility.yul\":4426:4438   */\n      and\n        /* \"#utility.yul\":4457:4475   */\n      dup1\n        /* \"#utility.yul\":4447:4528   */\n      tag_137\n      jumpi\n        /* \"#utility.yul\":4513:4517   */\n      0x7f\n        /* \"#utility.yul\":4505:4511   */\n      dup3\n        /* \"#utility.yul\":4501:4518   */\n      and\n        /* \"#utility.yul\":4491:4518   */\n      swap2\n      pop\n        /* \"#utility.yul\":4447:4528   */\n    tag_137:\n        /* \"#utility.yul\":4575:4577   */\n      0x20\n        /* \"#utility.yul\":4567:4573   */\n      dup3\n        /* \"#utility.yul\":4564:4578   */\n      lt\n        /* \"#utility.yul\":4544:4562   */\n      dup2\n        /* \"#utility.yul\":4541:4579   */\n      eq\n        /* \"#utility.yul\":4538:4622   */\n      iszero\n      tag_138\n      jumpi\n        /* \"#utility.yul\":4594:4612   */\n      tag_139\n      tag_140\n      jump\t// in\n    tag_139:\n        /* \"#utility.yul\":4538:4622   */\n    tag_138:\n        /* \"#utility.yul\":4359:4628   */\n      pop\n        /* \"#utility.yul\":4308:4628   */\n      swap2\n      swap1\n      pop\n      jump\t// out\n        /* \"#utility.yul\":4634:4814   */\n    tag_140:\n        /* \"#utility.yul\":4682:4759   */\n      0x4e487b7100000000000000000000000000000000000000000000000000000000\n        /* \"#utility.yul\":4679:4680   */\n      0x00\n        /* \"#utility.yul\":4672:4760   */\n      mstore\n        /* \"#utility.yul\":4779:4783   */\n      0x22\n        /* \"#utility.yul\":4776:4777   */\n      0x04\n        /* \"#utility.yul\":4769:4784   */\n      mstore\n        /* \"#utility.yul\":4803:4807   */\n      0x24\n        /* \"#utility.yul\":4800:4801   */\n      0x00\n        /* \"#utility.yul\":4793:4808   */\n      revert\n        /* \"#utility.yul\":4820:5000   */\n    tag_23:\n        /* \"#utility.yul\":4868:4945   */\n      0x4e487b7100000000000000000000000000000000000000000000000000000000\n        /* \"#utility.yul\":4865:4866   */\n      0x00\n        /* \"#utility.yul\":4858:4946   */\n      mstore\n        /* \"#utility.yul\":4965:4969   */\n      0x32\n        /* \"#utility.yul\":4962:4963   */\n      0x04\n        /* \"#utility.yul\":4955:4970   */\n      mstore\n        /* \"#utility.yul\":4989:4993   */\n      0x24\n        /* \"#utility.yul\":4986:4987   */\n      0x00\n        /* \"#utility.yul\":4979:4994   */\n      revert\n        /* \"#utility.yul\":5006:5123   */\n    tag_79:\n        /* \"#utility.yul\":5115:5116   */\n      0x00\n        /* \"#utility.yul\":5112:5113   */\n      dup1\n        /* \"#utility.yul\":5105:5117   */\n      revert\n        /* \"#utility.yul\":5129:5246   */\n    tag_76:\n        /* \"#utility.yul\":5238:5239   */\n      0x00\n        /* \"#utility.yul\":5235:5236   */\n      dup1\n        /* \"#utility.yul\":5228:5240   */\n      revert\n        /* \"#utility.yul\":5252:5369   */\n    tag_82:\n        /* \"#utility.yul\":5361:5362   */\n      0x00\n        /* \"#utility.yul\":5358:5359   */\n      dup1\n        /* \"#utility.yul\":5351:5363   */\n      revert\n        /* \"#utility.yul\":5375:5492   */\n    tag_93:\n        /* \"#utility.yul\":5484:5485   */\n      0x00\n        /* \"#utility.yul\":5481:5482   */\n      dup1\n        /* \"#utility.yul\":5474:5486   */\n      revert\n        /* \"#utility.yul\":5498:5615   */\n    tag_90:\n        /* \"#utility.yul\":5607:5608   */\n      0x00\n        /* \"#utility.yul\":5604:5605   */\n      dup1\n        /* \"#utility.yul\":5597:5609   */\n      revert\n        /* \"#utility.yul\":5621:5723   */\n    tag_120:\n        /* \"#utility.yul\":5662:5668   */\n      0x00\n        /* \"#utility.yul\":5713:5715   */\n      0x1f\n        /* \"#utility.yul\":5709:5716   */\n      not\n        /* \"#utility.yul\":5704:5706   */\n      0x1f\n        /* \"#utility.yul\":5697:5702   */\n      dup4\n        /* \"#utility.yul\":5693:5707   */\n      add\n        /* \"#utility.yul\":5689:5717   */\n      and\n        /* \"#utility.yul\":5679:5717   */\n      swap1\n      pop\n        /* \"#utility.yul\":5621:5723   */\n      swap2\n      swap1\n      pop\n      jump\t// out\n        /* \"#utility.yul\":5729:5845   */\n    tag_71:\n        /* \"#utility.yul\":5799:5820   */\n      tag_150\n        /* \"#utility.yul\":5814:5819   */\n      dup2\n        /* \"#utility.yul\":5799:5820   */\n      tag_110\n      jump\t// in\n    tag_150:\n        /* \"#utility.yul\":5792:5797   */\n      dup2\n        /* \"#utility.yul\":5789:5821   */\n      eq\n        /* \"#utility.yul\":5779:5839   */\n      tag_151\n      jumpi\n        /* \"#utility.yul\":5835:5836   */\n      0x00\n        /* \"#utility.yul\":5832:5833   */\n      dup1\n        /* \"#utility.yul\":5825:5837   */\n      revert\n        /* \"#utility.yul\":5779:5839   */\n    tag_151:\n        /* \"#utility.yul\":5729:5845   */\n      pop\n      jump\t// out\n        /* \"#utility.yul\":5851:5973   */\n    tag_86:\n        /* \"#utility.yul\":5924:5948   */\n      tag_153\n        /* \"#utility.yul\":5942:5947   */\n      dup2\n        /* \"#utility.yul\":5924:5948   */\n      tag_129\n      jump\t// in\n    tag_153:\n        /* \"#utility.yul\":5917:5922   */\n      dup2\n        /* \"#utility.yul\":5914:5949   */\n      eq\n        /* \"#utility.yul\":5904:5967   */\n      tag_154\n      jumpi\n        /* \"#utility.yul\":5963:5964   */\n      0x00\n        /* \"#utility.yul\":5960:5961   */\n      dup1\n        /* \"#utility.yul\":5953:5965   */\n      revert\n        /* \"#utility.yul\":5904:5967   */\n    tag_154:\n        /* \"#utility.yul\":5851:5973   */\n      pop\n      jump\t// out\n\n    auxdata: 0xa26469706673582212208b097be2722d8979dcf324f608e1aa4f61b4b343f6bd43549206c33d55df0f9864736f6c63430008070033\n}\n",
				"bytecode": {
					"linkReferences": {},
					"object": "608060405234801561001057600080fd5b5061083e806100206000396000f3fe608060405234801561001057600080fd5b50600436106100415760003560e01c80631a1e4b5114610046578063b6a46b3b14610062578063bc8bc2b41461007e575b600080fd5b610060600480360381019061005b91906105a2565b6100af565b005b61007c60048036038101906100779190610555565b610186565b005b61009860048036038101906100939190610616565b610256565b6040516100a692919061068b565b60405180910390f35b60008082815481106100c4576100c3610781565b5b9060005260206000209060020201905084848260000191906100e792919061031f565b50828160010160006101000a81548160ff0219169083151502179055506000819080600181540180825580915050600190039060005260206000209060020201600090919091909150600082018160000190805461014490610720565b61014f9291906103a5565b506001820160009054906101000a900460ff168160010160006101000a81548160ff02191690831515021790555050505050505050565b6000604051806040016040528084848080601f016020809104026020016040519081016040528093929190818152602001838380828437600081840152601f19601f8201169050808301925050505050505081526020016000151581525090506000819080600181540180825580915050600190039060005260206000209060020201600090919091909150600082015181600001908051906020019061022e929190610432565b5060208201518160010160006101000a81548160ff0219169083151502179055505050505050565b6000818154811061026657600080fd5b906000526020600020906002020160009150905080600001805461028990610720565b80601f01602080910402602001604051908101604052809291908181526020018280546102b590610720565b80156103025780601f106102d757610100808354040283529160200191610302565b820191906000526020600020905b8154815290600101906020018083116102e557829003601f168201915b5050505050908060010160009054906101000a900460ff16905082565b82805461032b90610720565b90600052602060002090601f01602090048101928261034d5760008555610394565b82601f1061036657803560ff1916838001178555610394565b82800160010185558215610394579182015b82811115610393578235825591602001919060010190610378565b5b5090506103a191906104b8565b5090565b8280546103b190610720565b90600052602060002090601f0160209004810192826103d35760008555610421565b82601f106103e45780548555610421565b8280016001018555821561042157600052602060002091601f016020900482015b82811115610420578254825591600101919060010190610405565b5b50905061042e91906104b8565b5090565b82805461043e90610720565b90600052602060002090601f01602090048101928261046057600085556104a7565b82601f1061047957805160ff19168380011785556104a7565b828001600101855582156104a7579182015b828111156104a657825182559160200191906001019061048b565b5b5090506104b491906104b8565b5090565b5b808211156104d15760008160009055506001016104b9565b5090565b6000813590506104e4816107da565b92915050565b60008083601f840112610500576104ff6107b5565b5b8235905067ffffffffffffffff81111561051d5761051c6107b0565b5b602083019150836001820283011115610539576105386107ba565b5b9250929050565b60008135905061054f816107f1565b92915050565b6000806020838503121561056c5761056b6107c4565b5b600083013567ffffffffffffffff81111561058a576105896107bf565b5b610596858286016104ea565b92509250509250929050565b600080600080606085870312156105bc576105bb6107c4565b5b600085013567ffffffffffffffff8111156105da576105d96107bf565b5b6105e6878288016104ea565b945094505060206105f9878288016104d5565b925050604061060a87828801610540565b91505092959194509250565b60006020828403121561062c5761062b6107c4565b5b600061063a84828501610540565b91505092915050565b61064c816106d7565b82525050565b600061065d826106bb565b61066781856106c6565b93506106778185602086016106ed565b610680816107c9565b840191505092915050565b600060408201905081810360008301526106a58185610652565b90506106b46020830184610643565b9392505050565b600081519050919050565b600082825260208201905092915050565b60008115159050919050565b6000819050919050565b60005b8381101561070b5780820151818401526020810190506106f0565b8381111561071a576000848401525b50505050565b6000600282049050600182168061073857607f821691505b6020821081141561074c5761074b610752565b5b50919050565b7f4e487b7100000000000000000000000000000000000000000000000000000000600052602260045260246000fd5b7f4e487b7100000000000000000000000000000000000000000000000000000000600052603260045260246000fd5b600080fd5b600080fd5b600080fd5b600080fd5b600080fd5b6000601f19601f8301169050919050565b6107e3816106d7565b81146107ee57600080fd5b50565b6107fa816106e3565b811461080557600080fd5b5056fea26469706673582212208b097be2722d8979dcf324f608e1aa4f61b4b343f6bd43549206c33d55df0f9864736f6c63430008070033",
					"opcodes": "PUSH1 0x80 PUSH1 0x40 MSTORE CALLVALUE DUP1 ISZERO PUSH2 0x10 JUMPI PUSH1 0x0 DUP1 REVERT JUMPDEST POP PUSH2 0x83E DUP1 PUSH2 0x20 PUSH1 0x0 CODECOPY PUSH1 0x0 RETURN INVALID PUSH1 0x80 PUSH1 0x40 MSTORE CALLVALUE DUP1 ISZERO PUSH2 0x10 JUMPI PUSH1 0x0 DUP1 REVERT JUMPDEST POP PUSH1 0x4 CALLDATASIZE LT PUSH2 0x41 JUMPI PUSH1 0x0 CALLDATALOAD PUSH1 0xE0 SHR DUP1 PUSH4 0x1A1E4B51 EQ PUSH2 0x46 JUMPI DUP1 PUSH4 0xB6A46B3B EQ PUSH2 0x62 JUMPI DUP1 PUSH4 0xBC8BC2B4 EQ PUSH2 0x7E JUMPI JUMPDEST PUSH1 0x0 DUP1 REVERT JUMPDEST PUSH2 0x60 PUSH1 0x4 DUP1 CALLDATASIZE SUB DUP2 ADD SWAP1 PUSH2 0x5B SWAP2 SWAP1 PUSH2 0x5A2 JUMP JUMPDEST PUSH2 0xAF JUMP JUMPDEST STOP JUMPDEST PUSH2 0x7C PUSH1 0x4 DUP1 CALLDATASIZE SUB DUP2 ADD SWAP1 PUSH2 0x77 SWAP2 SWAP1 PUSH2 0x555 JUMP JUMPDEST PUSH2 0x186 JUMP JUMPDEST STOP JUMPDEST PUSH2 0x98 PUSH1 0x4 DUP1 CALLDATASIZE SUB DUP2 ADD SWAP1 PUSH2 0x93 SWAP2 SWAP1 PUSH2 0x616 JUMP JUMPDEST PUSH2 0x256 JUMP JUMPDEST PUSH1 0x40 MLOAD PUSH2 0xA6 SWAP3 SWAP2 SWAP1 PUSH2 0x68B JUMP JUMPDEST PUSH1 0x40 MLOAD DUP1 SWAP2 SUB SWAP1 RETURN JUMPDEST PUSH1 0x0 DUP1 DUP3 DUP2 SLOAD DUP2 LT PUSH2 0xC4 JUMPI PUSH2 0xC3 PUSH2 0x781 JUMP JUMPDEST JUMPDEST SWAP1 PUSH1 0x0 MSTORE PUSH1 0x20 PUSH1 0x0 KECCAK256 SWAP1 PUSH1 0x2 MUL ADD SWAP1 POP DUP5 DUP5 DUP3 PUSH1 0x0 ADD SWAP2 SWAP1 PUSH2 0xE7 SWAP3 SWAP2 SWAP1 PUSH2 0x31F JUMP JUMPDEST POP DUP3 DUP2 PUSH1 0x1 ADD PUSH1 0x0 PUSH2 0x100 EXP DUP2 SLOAD DUP2 PUSH1 0xFF MUL NOT AND SWAP1 DUP4 ISZERO ISZERO MUL OR SWAP1 SSTORE POP PUSH1 0x0 DUP2 SWAP1 DUP1 PUSH1 0x1 DUP2 SLOAD ADD DUP1 DUP3 SSTORE DUP1 SWAP2 POP POP PUSH1 0x1 SWAP1 SUB SWAP1 PUSH1 0x0 MSTORE PUSH1 0x20 PUSH1 0x0 KECCAK256 SWAP1 PUSH1 0x2 MUL ADD PUSH1 0x0 SWAP1 SWAP2 SWAP1 SWAP2 SWAP1 SWAP2 POP PUSH1 0x0 DUP3 ADD DUP2 PUSH1 0x0 ADD SWAP1 DUP1 SLOAD PUSH2 0x144 SWAP1 PUSH2 0x720 JUMP JUMPDEST PUSH2 0x14F SWAP3 SWAP2 SWAP1 PUSH2 0x3A5 JUMP JUMPDEST POP PUSH1 0x1 DUP3 ADD PUSH1 0x0 SWAP1 SLOAD SWAP1 PUSH2 0x100 EXP SWAP1 DIV PUSH1 0xFF AND DUP2 PUSH1 0x1 ADD PUSH1 0x0 PUSH2 0x100 EXP DUP2 SLOAD DUP2 PUSH1 0xFF MUL NOT AND SWAP1 DUP4 ISZERO ISZERO MUL OR SWAP1 SSTORE POP POP POP POP POP POP POP POP JUMP JUMPDEST PUSH1 0x0 PUSH1 0x40 MLOAD DUP1 PUSH1 0x40 ADD PUSH1 0x40 MSTORE DUP1 DUP5 DUP5 DUP1 DUP1 PUSH1 0x1F ADD PUSH1 0x20 DUP1 SWAP2 DIV MUL PUSH1 0x20 ADD PUSH1 0x40 MLOAD SWAP1 DUP2 ADD PUSH1 0x40 MSTORE DUP1 SWAP4 SWAP3 SWAP2 SWAP1 DUP2 DUP2 MSTORE PUSH1 0x20 ADD DUP4 DUP4 DUP1 DUP3 DUP5 CALLDATACOPY PUSH1 0x0 DUP2 DUP5 ADD MSTORE PUSH1 0x1F NOT PUSH1 0x1F DUP3 ADD AND SWAP1 POP DUP1 DUP4 ADD SWAP3 POP POP POP POP POP POP POP DUP2 MSTORE PUSH1 0x20 ADD PUSH1 0x0 ISZERO ISZERO DUP2 MSTORE POP SWAP1 POP PUSH1 0x0 DUP2 SWAP1 DUP1 PUSH1 0x1 DUP2 SLOAD ADD DUP1 DUP3 SSTORE DUP1 SWAP2 POP POP PUSH1 0x1 SWAP1 SUB SWAP1 PUSH1 0x0 MSTORE PUSH1 0x20 PUSH1 0x0 KECCAK256 SWAP1 PUSH1 0x2 MUL ADD PUSH1 0x0 SWAP1 SWAP2 SWAP1 SWAP2 SWAP1 SWAP2 POP PUSH1 0x0 DUP3 ADD MLOAD DUP2 PUSH1 0x0 ADD SWAP1 DUP1 MLOAD SWAP1 PUSH1 0x20 ADD SWAP1 PUSH2 0x22E SWAP3 SWAP2 SWAP1 PUSH2 0x432 JUMP JUMPDEST POP PUSH1 0x20 DUP3 ADD MLOAD DUP2 PUSH1 0x1 ADD PUSH1 0x0 PUSH2 0x100 EXP DUP2 SLOAD DUP2 PUSH1 0xFF MUL NOT AND SWAP1 DUP4 ISZERO ISZERO MUL OR SWAP1 SSTORE POP POP POP POP POP POP JUMP JUMPDEST PUSH1 0x0 DUP2 DUP2 SLOAD DUP2 LT PUSH2 0x266 JUMPI PUSH1 0x0 DUP1 REVERT JUMPDEST SWAP1 PUSH1 0x0 MSTORE PUSH1 0x20 PUSH1 0x0 KECCAK256 SWAP1 PUSH1 0x2 MUL ADD PUSH1 0x0 SWAP2 POP SWAP1 POP DUP1 PUSH1 0x0 ADD DUP1 SLOAD PUSH2 0x289 SWAP1 PUSH2 0x720 JUMP JUMPDEST DUP1 PUSH1 0x1F ADD PUSH1 0x20 DUP1 SWAP2 DIV MUL PUSH1 0x20 ADD PUSH1 0x40 MLOAD SWAP1 DUP2 ADD PUSH1 0x40 MSTORE DUP1 SWAP3 SWAP2 SWAP1 DUP2 DUP2 MSTORE PUSH1 0x20 ADD DUP3 DUP1 SLOAD PUSH2 0x2B5 SWAP1 PUSH2 0x720 JUMP JUMPDEST DUP1 ISZERO PUSH2 0x302 JUMPI DUP1 PUSH1 0x1F LT PUSH2 0x2D7 JUMPI PUSH2 0x100 DUP1 DUP4 SLOAD DIV MUL DUP4 MSTORE SWAP2 PUSH1 0x20 ADD SWAP2 PUSH2 0x302 JUMP JUMPDEST DUP3 ADD SWAP2 SWAP1 PUSH1 0x0 MSTORE PUSH1 0x20 PUSH1 0x0 KECCAK256 SWAP1 JUMPDEST DUP2 SLOAD DUP2 MSTORE SWAP1 PUSH1 0x1 ADD SWAP1 PUSH1 0x20 ADD DUP1 DUP4 GT PUSH2 0x2E5 JUMPI DUP3 SWAP1 SUB PUSH1 0x1F AND DUP3 ADD SWAP2 JUMPDEST POP POP POP POP POP SWAP1 DUP1 PUSH1 0x1 ADD PUSH1 0x0 SWAP1 SLOAD SWAP1 PUSH2 0x100 EXP SWAP1 DIV PUSH1 0xFF AND SWAP1 POP DUP3 JUMP JUMPDEST DUP3 DUP1 SLOAD PUSH2 0x32B SWAP1 PUSH2 0x720 JUMP JUMPDEST SWAP1 PUSH1 0x0 MSTORE PUSH1 0x20 PUSH1 0x0 KECCAK256 SWAP1 PUSH1 0x1F ADD PUSH1 0x20 SWAP1 DIV DUP2 ADD SWAP3 DUP3 PUSH2 0x34D JUMPI PUSH1 0x0 DUP6 SSTORE PUSH2 0x394 JUMP JUMPDEST DUP3 PUSH1 0x1F LT PUSH2 0x366 JUMPI DUP1 CALLDATALOAD PUSH1 0xFF NOT AND DUP4 DUP1 ADD OR DUP6 SSTORE PUSH2 0x394 JUMP JUMPDEST DUP3 DUP1 ADD PUSH1 0x1 ADD DUP6 SSTORE DUP3 ISZERO PUSH2 0x394 JUMPI SWAP2 DUP3 ADD JUMPDEST DUP3 DUP2 GT ISZERO PUSH2 0x393 JUMPI DUP3 CALLDATALOAD DUP3 SSTORE SWAP2 PUSH1 0x20 ADD SWAP2 SWAP1 PUSH1 0x1 ADD SWAP1 PUSH2 0x378 JUMP JUMPDEST JUMPDEST POP SWAP1 POP PUSH2 0x3A1 SWAP2 SWAP1 PUSH2 0x4B8 JUMP JUMPDEST POP SWAP1 JUMP JUMPDEST DUP3 DUP1 SLOAD PUSH2 0x3B1 SWAP1 PUSH2 0x720 JUMP JUMPDEST SWAP1 PUSH1 0x0 MSTORE PUSH1 0x20 PUSH1 0x0 KECCAK256 SWAP1 PUSH1 0x1F ADD PUSH1 0x20 SWAP1 DIV DUP2 ADD SWAP3 DUP3 PUSH2 0x3D3 JUMPI PUSH1 0x0 DUP6 SSTORE PUSH2 0x421 JUMP JUMPDEST DUP3 PUSH1 0x1F LT PUSH2 0x3E4 JUMPI DUP1 SLOAD DUP6 SSTORE PUSH2 0x421 JUMP JUMPDEST DUP3 DUP1 ADD PUSH1 0x1 ADD DUP6 SSTORE DUP3 ISZERO PUSH2 0x421 JUMPI PUSH1 0x0 MSTORE PUSH1 0x20 PUSH1 0x0 KECCAK256 SWAP2 PUSH1 0x1F ADD PUSH1 0x20 SWAP1 DIV DUP3 ADD JUMPDEST DUP3 DUP2 GT ISZERO PUSH2 0x420 JUMPI DUP3 SLOAD DUP3 SSTORE SWAP2 PUSH1 0x1 ADD SWAP2 SWAP1 PUSH1 0x1 ADD SWAP1 PUSH2 0x405 JUMP JUMPDEST JUMPDEST POP SWAP1 POP PUSH2 0x42E SWAP2 SWAP1 PUSH2 0x4B8 JUMP JUMPDEST POP SWAP1 JUMP JUMPDEST DUP3 DUP1 SLOAD PUSH2 0x43E SWAP1 PUSH2 0x720 JUMP JUMPDEST SWAP1 PUSH1 0x0 MSTORE PUSH1 0x20 PUSH1 0x0 KECCAK256 SWAP1 PUSH1 0x1F ADD PUSH1 0x20 SWAP1 DIV DUP2 ADD SWAP3 DUP3 PUSH2 0x460 JUMPI PUSH1 0x0 DUP6 SSTORE PUSH2 0x4A7 JUMP JUMPDEST DUP3 PUSH1 0x1F LT PUSH2 0x479 JUMPI DUP1 MLOAD PUSH1 0xFF NOT AND DUP4 DUP1 ADD OR DUP6 SSTORE PUSH2 0x4A7 JUMP JUMPDEST DUP3 DUP1 ADD PUSH1 0x1 ADD DUP6 SSTORE DUP3 ISZERO PUSH2 0x4A7 JUMPI SWAP2 DUP3 ADD JUMPDEST DUP3 DUP2 GT ISZERO PUSH2 0x4A6 JUMPI DUP3 MLOAD DUP3 SSTORE SWAP2 PUSH1 0x20 ADD SWAP2 SWAP1 PUSH1 0x1 ADD SWAP1 PUSH2 0x48B JUMP JUMPDEST JUMPDEST POP SWAP1 POP PUSH2 0x4B4 SWAP2 SWAP1 PUSH2 0x4B8 JUMP JUMPDEST POP SWAP1 JUMP JUMPDEST JUMPDEST DUP1 DUP3 GT ISZERO PUSH2 0x4D1 JUMPI PUSH1 0x0 DUP2 PUSH1 0x0 SWAP1 SSTORE POP PUSH1 0x1 ADD PUSH2 0x4B9 JUMP JUMPDEST POP SWAP1 JUMP JUMPDEST PUSH1 0x0 DUP2 CALLDATALOAD SWAP1 POP PUSH2 0x4E4 DUP2 PUSH2 0x7DA JUMP JUMPDEST SWAP3 SWAP2 POP POP JUMP JUMPDEST PUSH1 0x0 DUP1 DUP4 PUSH1 0x1F DUP5 ADD SLT PUSH2 0x500 JUMPI PUSH2 0x4FF PUSH2 0x7B5 JUMP JUMPDEST JUMPDEST DUP3 CALLDATALOAD SWAP1 POP PUSH8 0xFFFFFFFFFFFFFFFF DUP2 GT ISZERO PUSH2 0x51D JUMPI PUSH2 0x51C PUSH2 0x7B0 JUMP JUMPDEST JUMPDEST PUSH1 0x20 DUP4 ADD SWAP2 POP DUP4 PUSH1 0x1 DUP3 MUL DUP4 ADD GT ISZERO PUSH2 0x539 JUMPI PUSH2 0x538 PUSH2 0x7BA JUMP JUMPDEST JUMPDEST SWAP3 POP SWAP3 SWAP1 POP JUMP JUMPDEST PUSH1 0x0 DUP2 CALLDATALOAD SWAP1 POP PUSH2 0x54F DUP2 PUSH2 0x7F1 JUMP JUMPDEST SWAP3 SWAP2 POP POP JUMP JUMPDEST PUSH1 0x0 DUP1 PUSH1 0x20 DUP4 DUP6 SUB SLT ISZERO PUSH2 0x56C JUMPI PUSH2 0x56B PUSH2 0x7C4 JUMP JUMPDEST JUMPDEST PUSH1 0x0 DUP4 ADD CALLDATALOAD PUSH8 0xFFFFFFFFFFFFFFFF DUP2 GT ISZERO PUSH2 0x58A JUMPI PUSH2 0x589 PUSH2 0x7BF JUMP JUMPDEST JUMPDEST PUSH2 0x596 DUP6 DUP3 DUP7 ADD PUSH2 0x4EA JUMP JUMPDEST SWAP3 POP SWAP3 POP POP SWAP3 POP SWAP3 SWAP1 POP JUMP JUMPDEST PUSH1 0x0 DUP1 PUSH1 0x0 DUP1 PUSH1 0x60 DUP6 DUP8 SUB SLT ISZERO PUSH2 0x5BC JUMPI PUSH2 0x5BB PUSH2 0x7C4 JUMP JUMPDEST JUMPDEST PUSH1 0x0 DUP6 ADD CALLDATALOAD PUSH8 0xFFFFFFFFFFFFFFFF DUP2 GT ISZERO PUSH2 0x5DA JUMPI PUSH2 0x5D9 PUSH2 0x7BF JUMP JUMPDEST JUMPDEST PUSH2 0x5E6 DUP8 DUP3 DUP9 ADD PUSH2 0x4EA JUMP JUMPDEST SWAP5 POP SWAP5 POP POP PUSH1 0x20 PUSH2 0x5F9 DUP8 DUP3 DUP9 ADD PUSH2 0x4D5 JUMP JUMPDEST SWAP3 POP POP PUSH1 0x40 PUSH2 0x60A DUP8 DUP3 DUP9 ADD PUSH2 0x540 JUMP JUMPDEST SWAP2 POP POP SWAP3 SWAP6 SWAP2 SWAP5 POP SWAP3 POP JUMP JUMPDEST PUSH1 0x0 PUSH1 0x20 DUP3 DUP5 SUB SLT ISZERO PUSH2 0x62C JUMPI PUSH2 0x62B PUSH2 0x7C4 JUMP JUMPDEST JUMPDEST PUSH1 0x0 PUSH2 0x63A DUP5 DUP3 DUP6 ADD PUSH2 0x540 JUMP JUMPDEST SWAP2 POP POP SWAP3 SWAP2 POP POP JUMP JUMPDEST PUSH2 0x64C DUP2 PUSH2 0x6D7 JUMP JUMPDEST DUP3 MSTORE POP POP JUMP JUMPDEST PUSH1 0x0 PUSH2 0x65D DUP3 PUSH2 0x6BB JUMP JUMPDEST PUSH2 0x667 DUP2 DUP6 PUSH2 0x6C6 JUMP JUMPDEST SWAP4 POP PUSH2 0x677 DUP2 DUP6 PUSH1 0x20 DUP7 ADD PUSH2 0x6ED JUMP JUMPDEST PUSH2 0x680 DUP2 PUSH2 0x7C9 JUMP JUMPDEST DUP5 ADD SWAP2 POP POP SWAP3 SWAP2 POP POP JUMP JUMPDEST PUSH1 0x0 PUSH1 0x40 DUP3 ADD SWAP1 POP DUP2 DUP2 SUB PUSH1 0x0 DUP4 ADD MSTORE PUSH2 0x6A5 DUP2 DUP6 PUSH2 0x652 JUMP JUMPDEST SWAP1 POP PUSH2 0x6B4 PUSH1 0x20 DUP4 ADD DUP5 PUSH2 0x643 JUMP JUMPDEST SWAP4 SWAP3 POP POP POP JUMP JUMPDEST PUSH1 0x0 DUP2 MLOAD SWAP1 POP SWAP2 SWAP1 POP JUMP JUMPDEST PUSH1 0x0 DUP3 DUP3 MSTORE PUSH1 0x20 DUP3 ADD SWAP1 POP SWAP3 SWAP2 POP POP JUMP JUMPDEST PUSH1 0x0 DUP2 ISZERO ISZERO SWAP1 POP SWAP2 SWAP1 POP JUMP JUMPDEST PUSH1 0x0 DUP2 SWAP1 POP SWAP2 SWAP1 POP JUMP JUMPDEST PUSH1 0x0 JUMPDEST DUP4 DUP2 LT ISZERO PUSH2 0x70B JUMPI DUP1 DUP3 ADD MLOAD DUP2 DUP5 ADD MSTORE PUSH1 0x20 DUP2 ADD SWAP1 POP PUSH2 0x6F0 JUMP JUMPDEST DUP4 DUP2 GT ISZERO PUSH2 0x71A JUMPI PUSH1 0x0 DUP5 DUP5 ADD MSTORE JUMPDEST POP POP POP POP JUMP JUMPDEST PUSH1 0x0 PUSH1 0x2 DUP3 DIV SWAP1 POP PUSH1 0x1 DUP3 AND DUP1 PUSH2 0x738 JUMPI PUSH1 0x7F DUP3 AND SWAP2 POP JUMPDEST PUSH1 0x20 DUP3 LT DUP2 EQ ISZERO PUSH2 0x74C JUMPI PUSH2 0x74B PUSH2 0x752 JUMP JUMPDEST JUMPDEST POP SWAP2 SWAP1 POP JUMP JUMPDEST PUSH32 0x4E487B7100000000000000000000000000000000000000000000000000000000 PUSH1 0x0 MSTORE PUSH1 0x22 PUSH1 0x4 MSTORE PUSH1 0x24 PUSH1 0x0 REVERT JUMPDEST PUSH32 0x4E487B7100000000000000000000000000000000000000000000000000000000 PUSH1 0x0 MSTORE PUSH1 0x32 PUSH1 0x4 MSTORE PUSH1 0x24 PUSH1 0x0 REVERT JUMPDEST PUSH1 0x0 DUP1 REVERT JUMPDEST PUSH1 0x0 DUP1 REVERT JUMPDEST PUSH1 0x0 DUP1 REVERT JUMPDEST PUSH1 0x0 DUP1 REVERT JUMPDEST PUSH1 0x0 DUP1 REVERT JUMPDEST PUSH1 0x0 PUSH1 0x1F NOT PUSH1 0x1F DUP4 ADD AND SWAP1 POP SWAP2 SWAP1 POP JUMP JUMPDEST PUSH2 0x7E3 DUP2 PUSH2 0x6D7 JUMP JUMPDEST DUP2 EQ PUSH2 0x7EE JUMPI PUSH1 0x0 DUP1 REVERT JUMPDEST POP JUMP JUMPDEST PUSH2 0x7FA DUP2 PUSH2 0x6E3 JUMP JUMPDEST DUP2 EQ PUSH2 0x805 JUMPI PUSH1 0x0 DUP1 REVERT JUMPDEST POP JUMP INVALID LOG2 PUSH5 0x6970667358 0x22 SLT KECCAK256 DUP12 MULMOD PUSH28 0xE2722D8979DCF324F608E1AA4F61B4B343F6BD43549206C33D55DF0F SWAP9 PUSH5 0x736F6C6343 STOP ADDMOD SMOD STOP CALLER "
				},
				"gasEstimates": {
					"creation": {
						"codeDepositCost": "422000",
						"executionCost": "455",
						"totalCost": "422455"
					},
					"external": {
						"create(string)": "infinite",
						"todos(uint256)": "infinite",
						"update(string,bool,uint256)": "infinite"
					}
				},
				"methodIdentifiers": {
					"create(string)": "b6a46b3b",
					"todos(uint256)": "bc8bc2b4",
					"update(string,bool,uint256)": "1a1e4b51"
				}
			},
			"storageLayout": {
				"storage": [
					{
						"astId": 10,
						"contract": "contracts/ToDo.sol:TodoList",
						"label": "todos",
						"offset": 0,
						"slot": "0",
						"type": "t_array(t_struct(ToDo)6_storage)dyn_storage"
					}
				],
				"types": {
					"t_array(t_struct(ToDo)6_storage)dyn_storage": {
						"base": "t_struct(ToDo)6_storage",
						"encoding": "dynamic_array",
						"label": "struct TodoList.ToDo[]",
						"numberOfBytes": "32"
					},
					"t_bool": {
						"encoding": "inplace",
						"label": "bool",
						"numberOfBytes": "1"
					},
					"t_string_storage": {
						"encoding": "bytes",
						"label": "string",
						"numberOfBytes": "32"
					},
					"t_struct(ToDo)6_storage": {
						"encoding": "inplace",
						"label": "struct TodoList.ToDo",
						"members": [
							{
								"astId": 3,
								"contract": "contracts/ToDo.sol:TodoList",
								"label": "text",
								"offset": 0,
								"slot": "0",
								"type": "t_string_storage"
							},
							{
								"astId": 5,
								"contract": "contracts/ToDo.sol:TodoList",
								"label": "completed",
								"offset": 0,
								"slot": "1",
								"type": "t_bool"
							}
						],
						"numberOfBytes": "64"
					}
				}
			},
			"userdoc": {
				"kind": "user",
				"methods": {},
				"version": 1
			}
		}
	}
}