{
	"contracts/MultiSigWallet.sol": {
		"MultiSigWallet": {
			"abi": [
				{
					"inputs": [
						{
							"internalType": "address[]",
							"name": "_owners",
							"type": "address[]"
						},
						{
							"internalType": "uint256",
							"name": "_required",
							"type": "uint256"
						}
					],
					"stateMutability": "nonpayable",
					"type": "constructor"
				},
				{
					"anonymous": false,
					"inputs": [
						{
							"indexed": false,
							"internalType": "uint256",
							"name": "",
							"type": "uint256"
						},
						{
							"indexed": false,
							"internalType": "address",
							"name": "",
							"type": "address"
						}
					],
					"name": "Approve",
					"type": "event"
				},
				{
					"anonymous": false,
					"inputs": [
						{
							"indexed": false,
							"internalType": "address",
							"name": "",
							"type": "address"
						},
						{
							"indexed": false,
							"internalType": "uint256",
							"name": "",
							"type": "uint256"
						}
					],
					"name": "Deposit",
					"type": "event"
				},
				{
					"anonymous": false,
					"inputs": [
						{
							"indexed": false,
							"internalType": "uint256",
							"name": "",
							"type": "uint256"
						},
						{
							"indexed": false,
							"internalType": "address",
							"name": "",
							"type": "address"
						}
					],
					"name": "Revoke",
					"type": "event"
				},
				{
					"inputs": [
						{
							"internalType": "uint256",
							"name": "_txId",
							"type": "uint256"
						}
					],
					"name": "approveTransaction",
					"outputs": [],
					"stateMutability": "nonpayable",
					"type": "function"
				},
				{
					"inputs": [
						{
							"internalType": "uint256",
							"name": "_txId",
							"type": "uint256"
						}
					],
					"name": "executeTransaction",
					"outputs": [],
					"stateMutability": "nonpayable",
					"type": "function"
				},
				{
					"inputs": [
						{
							"internalType": "address",
							"name": "_to",
							"type": "address"
						},
						{
							"internalType": "uint256",
							"name": "_value",
							"type": "uint256"
						},
						{
							"internalType": "bytes",
							"name": "_data",
							"type": "bytes"
						}
					],
					"name": "makeTransaction",
					"outputs": [],
					"stateMutability": "nonpayable",
					"type": "function"
				},
				{
					"inputs": [
						{
							"internalType": "uint256",
							"name": "_txId",
							"type": "uint256"
						}
					],
					"name": "revokeApproval",
					"outputs": [],
					"stateMutability": "nonpayable",
					"type": "function"
				},
				{
					"stateMutability": "payable",
					"type": "receive"
				}
			],
			"devdoc": {
				"kind": "dev",
				"methods": {},
				"version": 1
			},
			"evm": {
				"assembly": "    /* \"contracts/MultiSigWallet.sol\":69:2948  contract MultiSigWallet{... */\n  mstore(0x40, 0x80)\n    /* \"contracts/MultiSigWallet.sol\":537:861  constructor(address[] memory _owners, uint _required) {... */\n  callvalue\n  dup1\n  iszero\n  tag_1\n  jumpi\n  0x00\n  dup1\n  revert\ntag_1:\n  pop\n  mload(0x40)\n  sub(codesize, bytecodeSize)\n  dup1\n  bytecodeSize\n  dup4\n  codecopy\n  dup2\n  dup2\n  add\n  0x40\n  mstore\n  dup2\n  add\n  swap1\n  tag_2\n  swap2\n  swap1\n  tag_3\n  jump\t// in\ntag_2:\n    /* \"contracts/MultiSigWallet.sol\":606:612  uint i */\n  0x00\n    /* \"contracts/MultiSigWallet.sol\":602:823  for(uint i=0; i < _owners.length; i++){... */\ntag_6:\n    /* \"contracts/MultiSigWallet.sol\":620:627  _owners */\n  dup3\n    /* \"contracts/MultiSigWallet.sol\":620:634  _owners.length */\n  mload\n    /* \"contracts/MultiSigWallet.sol\":616:617  i */\n  dup2\n    /* \"contracts/MultiSigWallet.sol\":616:634  i < _owners.length */\n  lt\n    /* \"contracts/MultiSigWallet.sol\":602:823  for(uint i=0; i < _owners.length; i++){... */\n  iszero\n  tag_7\n  jumpi\n    /* \"contracts/MultiSigWallet.sol\":655:668  address owner */\n  0x00\n    /* \"contracts/MultiSigWallet.sol\":671:678  _owners */\n  dup4\n    /* \"contracts/MultiSigWallet.sol\":679:680  i */\n  dup3\n    /* \"contracts/MultiSigWallet.sol\":671:681  _owners[i] */\n  dup2\n  mload\n  dup2\n  lt\n  tag_9\n  jumpi\n  tag_10\n  tag_11\n  jump\t// in\ntag_10:\ntag_9:\n  0x20\n  mul\n  0x20\n  add\n  add\n  mload\n    /* \"contracts/MultiSigWallet.sol\":655:681  address owner = _owners[i] */\n  swap1\n  pop\n    /* \"contracts/MultiSigWallet.sol\":707:714  isOwner */\n  0x01\n    /* \"contracts/MultiSigWallet.sol\":707:721  isOwner[owner] */\n  0x00\n    /* \"contracts/MultiSigWallet.sol\":715:720  owner */\n  dup3\n    /* \"contracts/MultiSigWallet.sol\":707:721  isOwner[owner] */\n  0xffffffffffffffffffffffffffffffffffffffff\n  and\n  0xffffffffffffffffffffffffffffffffffffffff\n  and\n  dup2\n  mstore\n  0x20\n  add\n  swap1\n  dup2\n  mstore\n  0x20\n  add\n  0x00\n  keccak256\n  0x00\n  swap1\n  sload\n  swap1\n  0x0100\n  exp\n  swap1\n  div\n  0xff\n  and\n    /* \"contracts/MultiSigWallet.sol\":706:721  !isOwner[owner] */\n  iszero\n    /* \"contracts/MultiSigWallet.sol\":698:742  require(!isOwner[owner],\"Already Exists...\") */\n  tag_12\n  jumpi\n  mload(0x40)\n  0x08c379a000000000000000000000000000000000000000000000000000000000\n  dup2\n  mstore\n  0x04\n  add\n  tag_13\n  swap1\n  tag_14\n  jump\t// in\ntag_13:\n  mload(0x40)\n  dup1\n  swap2\n  sub\n  swap1\n  revert\ntag_12:\n    /* \"contracts/MultiSigWallet.sol\":757:763  owners */\n  0x00\n    /* \"contracts/MultiSigWallet.sol\":769:774  owner */\n  dup2\n    /* \"contracts/MultiSigWallet.sol\":757:775  owners.push(owner) */\n  swap1\n  dup1\n  0x01\n  dup2\n  sload\n  add\n  dup1\n  dup3\n  sstore\n  dup1\n  swap2\n  pop\n  pop\n  0x01\n  swap1\n  sub\n  swap1\n  0x00\n  mstore\n  keccak256(0x00, 0x20)\n  add\n  0x00\n  swap1\n  swap2\n  swap1\n  swap2\n  swap1\n  swap2\n  0x0100\n  exp\n  dup2\n  sload\n  dup2\n  0xffffffffffffffffffffffffffffffffffffffff\n  mul\n  not\n  and\n  swap1\n  dup4\n  0xffffffffffffffffffffffffffffffffffffffff\n  and\n  mul\n  or\n  swap1\n  sstore\n  pop\n    /* \"contracts/MultiSigWallet.sol\":807:811  true */\n  0x01\n    /* \"contracts/MultiSigWallet.sol\":790:797  isOwner */\n  dup1\n    /* \"contracts/MultiSigWallet.sol\":790:804  isOwner[owner] */\n  0x00\n    /* \"contracts/MultiSigWallet.sol\":798:803  owner */\n  dup4\n    /* \"contracts/MultiSigWallet.sol\":790:804  isOwner[owner] */\n  0xffffffffffffffffffffffffffffffffffffffff\n  and\n  0xffffffffffffffffffffffffffffffffffffffff\n  and\n  dup2\n  mstore\n  0x20\n  add\n  swap1\n  dup2\n  mstore\n  0x20\n  add\n  0x00\n  keccak256\n  0x00\n    /* \"contracts/MultiSigWallet.sol\":790:811  isOwner[owner] = true */\n  0x0100\n  exp\n  dup2\n  sload\n  dup2\n  0xff\n  mul\n  not\n  and\n  swap1\n  dup4\n  iszero\n  iszero\n  mul\n  or\n  swap1\n  sstore\n  pop\n    /* \"contracts/MultiSigWallet.sol\":640:823  {... */\n  pop\n    /* \"contracts/MultiSigWallet.sol\":636:639  i++ */\n  dup1\n  dup1\n  tag_16\n  swap1\n  tag_17\n  jump\t// in\ntag_16:\n  swap2\n  pop\n  pop\n    /* \"contracts/MultiSigWallet.sol\":602:823  for(uint i=0; i < _owners.length; i++){... */\n  jump(tag_6)\ntag_7:\n  pop\n    /* \"contracts/MultiSigWallet.sol\":844:853  _required */\n  dup1\n    /* \"contracts/MultiSigWallet.sol\":833:841  required */\n  0x02\n    /* \"contracts/MultiSigWallet.sol\":833:853  required = _required */\n  dup2\n  swap1\n  sstore\n  pop\n    /* \"contracts/MultiSigWallet.sol\":537:861  constructor(address[] memory _owners, uint _required) {... */\n  pop\n  pop\n    /* \"contracts/MultiSigWallet.sol\":69:2948  contract MultiSigWallet{... */\n  jump(tag_18)\n    /* \"#utility.yul\":7:82   */\ntag_19:\n    /* \"#utility.yul\":40:46   */\n  0x00\n    /* \"#utility.yul\":73:75   */\n  0x40\n    /* \"#utility.yul\":67:76   */\n  mload\n    /* \"#utility.yul\":57:76   */\n  swap1\n  pop\n    /* \"#utility.yul\":7:82   */\n  swap1\n  jump\t// out\n    /* \"#utility.yul\":88:205   */\ntag_20:\n    /* \"#utility.yul\":197:198   */\n  0x00\n    /* \"#utility.yul\":194:195   */\n  dup1\n    /* \"#utility.yul\":187:199   */\n  revert\n    /* \"#utility.yul\":211:328   */\ntag_21:\n    /* \"#utility.yul\":320:321   */\n  0x00\n    /* \"#utility.yul\":317:318   */\n  dup1\n    /* \"#utility.yul\":310:322   */\n  revert\n    /* \"#utility.yul\":334:451   */\ntag_22:\n    /* \"#utility.yul\":443:444   */\n  0x00\n    /* \"#utility.yul\":440:441   */\n  dup1\n    /* \"#utility.yul\":433:445   */\n  revert\n    /* \"#utility.yul\":457:559   */\ntag_23:\n    /* \"#utility.yul\":498:504   */\n  0x00\n    /* \"#utility.yul\":549:551   */\n  0x1f\n    /* \"#utility.yul\":545:552   */\n  not\n    /* \"#utility.yul\":540:542   */\n  0x1f\n    /* \"#utility.yul\":533:538   */\n  dup4\n    /* \"#utility.yul\":529:543   */\n  add\n    /* \"#utility.yul\":525:553   */\n  and\n    /* \"#utility.yul\":515:553   */\n  swap1\n  pop\n    /* \"#utility.yul\":457:559   */\n  swap2\n  swap1\n  pop\n  jump\t// out\n    /* \"#utility.yul\":565:745   */\ntag_24:\n    /* \"#utility.yul\":613:690   */\n  0x4e487b7100000000000000000000000000000000000000000000000000000000\n    /* \"#utility.yul\":610:611   */\n  0x00\n    /* \"#utility.yul\":603:691   */\n  mstore\n    /* \"#utility.yul\":710:714   */\n  0x41\n    /* \"#utility.yul\":707:708   */\n  0x04\n    /* \"#utility.yul\":700:715   */\n  mstore\n    /* \"#utility.yul\":734:738   */\n  0x24\n    /* \"#utility.yul\":731:732   */\n  0x00\n    /* \"#utility.yul\":724:739   */\n  revert\n    /* \"#utility.yul\":751:1032   */\ntag_25:\n    /* \"#utility.yul\":834:861   */\n  tag_50\n    /* \"#utility.yul\":856:860   */\n  dup3\n    /* \"#utility.yul\":834:861   */\n  tag_23\n  jump\t// in\ntag_50:\n    /* \"#utility.yul\":826:832   */\n  dup2\n    /* \"#utility.yul\":822:862   */\n  add\n    /* \"#utility.yul\":964:970   */\n  dup2\n    /* \"#utility.yul\":952:962   */\n  dup2\n    /* \"#utility.yul\":949:971   */\n  lt\n    /* \"#utility.yul\":928:946   */\n  0xffffffffffffffff\n    /* \"#utility.yul\":916:926   */\n  dup3\n    /* \"#utility.yul\":913:947   */\n  gt\n    /* \"#utility.yul\":910:972   */\n  or\n    /* \"#utility.yul\":907:995   */\n  iszero\n  tag_51\n  jumpi\n    /* \"#utility.yul\":975:993   */\n  tag_52\n  tag_24\n  jump\t// in\ntag_52:\n    /* \"#utility.yul\":907:995   */\ntag_51:\n    /* \"#utility.yul\":1015:1025   */\n  dup1\n    /* \"#utility.yul\":1011:1013   */\n  0x40\n    /* \"#utility.yul\":1004:1026   */\n  mstore\n    /* \"#utility.yul\":794:1032   */\n  pop\n    /* \"#utility.yul\":751:1032   */\n  pop\n  pop\n  jump\t// out\n    /* \"#utility.yul\":1038:1167   */\ntag_26:\n    /* \"#utility.yul\":1072:1078   */\n  0x00\n    /* \"#utility.yul\":1099:1119   */\n  tag_54\n  tag_19\n  jump\t// in\ntag_54:\n    /* \"#utility.yul\":1089:1119   */\n  swap1\n  pop\n    /* \"#utility.yul\":1128:1161   */\n  tag_55\n    /* \"#utility.yul\":1156:1160   */\n  dup3\n    /* \"#utility.yul\":1148:1154   */\n  dup3\n    /* \"#utility.yul\":1128:1161   */\n  tag_25\n  jump\t// in\ntag_55:\n    /* \"#utility.yul\":1038:1167   */\n  swap2\n  swap1\n  pop\n  jump\t// out\n    /* \"#utility.yul\":1173:1484   */\ntag_27:\n    /* \"#utility.yul\":1250:1254   */\n  0x00\n    /* \"#utility.yul\":1340:1358   */\n  0xffffffffffffffff\n    /* \"#utility.yul\":1332:1338   */\n  dup3\n    /* \"#utility.yul\":1329:1359   */\n  gt\n    /* \"#utility.yul\":1326:1382   */\n  iszero\n  tag_57\n  jumpi\n    /* \"#utility.yul\":1362:1380   */\n  tag_58\n  tag_24\n  jump\t// in\ntag_58:\n    /* \"#utility.yul\":1326:1382   */\ntag_57:\n    /* \"#utility.yul\":1412:1416   */\n  0x20\n    /* \"#utility.yul\":1404:1410   */\n  dup3\n    /* \"#utility.yul\":1400:1417   */\n  mul\n    /* \"#utility.yul\":1392:1417   */\n  swap1\n  pop\n    /* \"#utility.yul\":1472:1476   */\n  0x20\n    /* \"#utility.yul\":1466:1470   */\n  dup2\n    /* \"#utility.yul\":1462:1477   */\n  add\n    /* \"#utility.yul\":1454:1477   */\n  swap1\n  pop\n    /* \"#utility.yul\":1173:1484   */\n  swap2\n  swap1\n  pop\n  jump\t// out\n    /* \"#utility.yul\":1490:1607   */\ntag_28:\n    /* \"#utility.yul\":1599:1600   */\n  0x00\n    /* \"#utility.yul\":1596:1597   */\n  dup1\n    /* \"#utility.yul\":1589:1601   */\n  revert\n    /* \"#utility.yul\":1613:1739   */\ntag_29:\n    /* \"#utility.yul\":1650:1657   */\n  0x00\n    /* \"#utility.yul\":1690:1732   */\n  0xffffffffffffffffffffffffffffffffffffffff\n    /* \"#utility.yul\":1683:1688   */\n  dup3\n    /* \"#utility.yul\":1679:1733   */\n  and\n    /* \"#utility.yul\":1668:1733   */\n  swap1\n  pop\n    /* \"#utility.yul\":1613:1739   */\n  swap2\n  swap1\n  pop\n  jump\t// out\n    /* \"#utility.yul\":1745:1841   */\ntag_30:\n    /* \"#utility.yul\":1782:1789   */\n  0x00\n    /* \"#utility.yul\":1811:1835   */\n  tag_62\n    /* \"#utility.yul\":1829:1834   */\n  dup3\n    /* \"#utility.yul\":1811:1835   */\n  tag_29\n  jump\t// in\ntag_62:\n    /* \"#utility.yul\":1800:1835   */\n  swap1\n  pop\n    /* \"#utility.yul\":1745:1841   */\n  swap2\n  swap1\n  pop\n  jump\t// out\n    /* \"#utility.yul\":1847:1969   */\ntag_31:\n    /* \"#utility.yul\":1920:1944   */\n  tag_64\n    /* \"#utility.yul\":1938:1943   */\n  dup2\n    /* \"#utility.yul\":1920:1944   */\n  tag_30\n  jump\t// in\ntag_64:\n    /* \"#utility.yul\":1913:1918   */\n  dup2\n    /* \"#utility.yul\":1910:1945   */\n  eq\n    /* \"#utility.yul\":1900:1963   */\n  tag_65\n  jumpi\n    /* \"#utility.yul\":1959:1960   */\n  0x00\n    /* \"#utility.yul\":1956:1957   */\n  dup1\n    /* \"#utility.yul\":1949:1961   */\n  revert\n    /* \"#utility.yul\":1900:1963   */\ntag_65:\n    /* \"#utility.yul\":1847:1969   */\n  pop\n  jump\t// out\n    /* \"#utility.yul\":1975:2118   */\ntag_32:\n    /* \"#utility.yul\":2032:2037   */\n  0x00\n    /* \"#utility.yul\":2063:2069   */\n  dup2\n    /* \"#utility.yul\":2057:2070   */\n  mload\n    /* \"#utility.yul\":2048:2070   */\n  swap1\n  pop\n    /* \"#utility.yul\":2079:2112   */\n  tag_67\n    /* \"#utility.yul\":2106:2111   */\n  dup2\n    /* \"#utility.yul\":2079:2112   */\n  tag_31\n  jump\t// in\ntag_67:\n    /* \"#utility.yul\":1975:2118   */\n  swap3\n  swap2\n  pop\n  pop\n  jump\t// out\n    /* \"#utility.yul\":2141:2873   */\ntag_33:\n    /* \"#utility.yul\":2248:2253   */\n  0x00\n    /* \"#utility.yul\":2273:2354   */\n  tag_69\n    /* \"#utility.yul\":2289:2353   */\n  tag_70\n    /* \"#utility.yul\":2346:2352   */\n  dup5\n    /* \"#utility.yul\":2289:2353   */\n  tag_27\n  jump\t// in\ntag_70:\n    /* \"#utility.yul\":2273:2354   */\n  tag_26\n  jump\t// in\ntag_69:\n    /* \"#utility.yul\":2264:2354   */\n  swap1\n  pop\n    /* \"#utility.yul\":2374:2379   */\n  dup1\n    /* \"#utility.yul\":2403:2409   */\n  dup4\n    /* \"#utility.yul\":2396:2401   */\n  dup3\n    /* \"#utility.yul\":2389:2410   */\n  mstore\n    /* \"#utility.yul\":2437:2441   */\n  0x20\n    /* \"#utility.yul\":2430:2435   */\n  dup3\n    /* \"#utility.yul\":2426:2442   */\n  add\n    /* \"#utility.yul\":2419:2442   */\n  swap1\n  pop\n    /* \"#utility.yul\":2490:2494   */\n  0x20\n    /* \"#utility.yul\":2482:2488   */\n  dup5\n    /* \"#utility.yul\":2478:2495   */\n  mul\n    /* \"#utility.yul\":2470:2476   */\n  dup4\n    /* \"#utility.yul\":2466:2496   */\n  add\n    /* \"#utility.yul\":2519:2522   */\n  dup6\n    /* \"#utility.yul\":2511:2517   */\n  dup2\n    /* \"#utility.yul\":2508:2523   */\n  gt\n    /* \"#utility.yul\":2505:2627   */\n  iszero\n  tag_71\n  jumpi\n    /* \"#utility.yul\":2538:2617   */\n  tag_72\n  tag_28\n  jump\t// in\ntag_72:\n    /* \"#utility.yul\":2505:2627   */\ntag_71:\n    /* \"#utility.yul\":2653:2659   */\n  dup4\n    /* \"#utility.yul\":2636:2867   */\ntag_73:\n    /* \"#utility.yul\":2670:2676   */\n  dup2\n    /* \"#utility.yul\":2665:2668   */\n  dup2\n    /* \"#utility.yul\":2662:2677   */\n  lt\n    /* \"#utility.yul\":2636:2867   */\n  iszero\n  tag_75\n  jumpi\n    /* \"#utility.yul\":2745:2748   */\n  dup1\n    /* \"#utility.yul\":2774:2822   */\n  tag_76\n    /* \"#utility.yul\":2818:2821   */\n  dup9\n    /* \"#utility.yul\":2806:2816   */\n  dup3\n    /* \"#utility.yul\":2774:2822   */\n  tag_32\n  jump\t// in\ntag_76:\n    /* \"#utility.yul\":2769:2772   */\n  dup5\n    /* \"#utility.yul\":2762:2823   */\n  mstore\n    /* \"#utility.yul\":2852:2856   */\n  0x20\n    /* \"#utility.yul\":2847:2850   */\n  dup5\n    /* \"#utility.yul\":2843:2857   */\n  add\n    /* \"#utility.yul\":2836:2857   */\n  swap4\n  pop\n    /* \"#utility.yul\":2712:2867   */\n  pop\n    /* \"#utility.yul\":2696:2700   */\n  0x20\n    /* \"#utility.yul\":2691:2694   */\n  dup2\n    /* \"#utility.yul\":2687:2701   */\n  add\n    /* \"#utility.yul\":2680:2701   */\n  swap1\n  pop\n    /* \"#utility.yul\":2636:2867   */\n  jump(tag_73)\ntag_75:\n    /* \"#utility.yul\":2640:2661   */\n  pop\n    /* \"#utility.yul\":2254:2873   */\n  pop\n  pop\n    /* \"#utility.yul\":2141:2873   */\n  swap4\n  swap3\n  pop\n  pop\n  pop\n  jump\t// out\n    /* \"#utility.yul\":2896:3281   */\ntag_34:\n    /* \"#utility.yul\":2978:2983   */\n  0x00\n    /* \"#utility.yul\":3027:3030   */\n  dup3\n    /* \"#utility.yul\":3020:3024   */\n  0x1f\n    /* \"#utility.yul\":3012:3018   */\n  dup4\n    /* \"#utility.yul\":3008:3025   */\n  add\n    /* \"#utility.yul\":3004:3031   */\n  slt\n    /* \"#utility.yul\":2994:3116   */\n  tag_78\n  jumpi\n    /* \"#utility.yul\":3035:3114   */\n  tag_79\n  tag_22\n  jump\t// in\ntag_79:\n    /* \"#utility.yul\":2994:3116   */\ntag_78:\n    /* \"#utility.yul\":3145:3151   */\n  dup2\n    /* \"#utility.yul\":3139:3152   */\n  mload\n    /* \"#utility.yul\":3170:3275   */\n  tag_80\n    /* \"#utility.yul\":3271:3274   */\n  dup5\n    /* \"#utility.yul\":3263:3269   */\n  dup3\n    /* \"#utility.yul\":3256:3260   */\n  0x20\n    /* \"#utility.yul\":3248:3254   */\n  dup7\n    /* \"#utility.yul\":3244:3261   */\n  add\n    /* \"#utility.yul\":3170:3275   */\n  tag_33\n  jump\t// in\ntag_80:\n    /* \"#utility.yul\":3161:3275   */\n  swap2\n  pop\n    /* \"#utility.yul\":2984:3281   */\n  pop\n    /* \"#utility.yul\":2896:3281   */\n  swap3\n  swap2\n  pop\n  pop\n  jump\t// out\n    /* \"#utility.yul\":3287:3364   */\ntag_35:\n    /* \"#utility.yul\":3324:3331   */\n  0x00\n    /* \"#utility.yul\":3353:3358   */\n  dup2\n    /* \"#utility.yul\":3342:3358   */\n  swap1\n  pop\n    /* \"#utility.yul\":3287:3364   */\n  swap2\n  swap1\n  pop\n  jump\t// out\n    /* \"#utility.yul\":3370:3492   */\ntag_36:\n    /* \"#utility.yul\":3443:3467   */\n  tag_83\n    /* \"#utility.yul\":3461:3466   */\n  dup2\n    /* \"#utility.yul\":3443:3467   */\n  tag_35\n  jump\t// in\ntag_83:\n    /* \"#utility.yul\":3436:3441   */\n  dup2\n    /* \"#utility.yul\":3433:3468   */\n  eq\n    /* \"#utility.yul\":3423:3486   */\n  tag_84\n  jumpi\n    /* \"#utility.yul\":3482:3483   */\n  0x00\n    /* \"#utility.yul\":3479:3480   */\n  dup1\n    /* \"#utility.yul\":3472:3484   */\n  revert\n    /* \"#utility.yul\":3423:3486   */\ntag_84:\n    /* \"#utility.yul\":3370:3492   */\n  pop\n  jump\t// out\n    /* \"#utility.yul\":3498:3641   */\ntag_37:\n    /* \"#utility.yul\":3555:3560   */\n  0x00\n    /* \"#utility.yul\":3586:3592   */\n  dup2\n    /* \"#utility.yul\":3580:3593   */\n  mload\n    /* \"#utility.yul\":3571:3593   */\n  swap1\n  pop\n    /* \"#utility.yul\":3602:3635   */\n  tag_86\n    /* \"#utility.yul\":3629:3634   */\n  dup2\n    /* \"#utility.yul\":3602:3635   */\n  tag_36\n  jump\t// in\ntag_86:\n    /* \"#utility.yul\":3498:3641   */\n  swap3\n  swap2\n  pop\n  pop\n  jump\t// out\n    /* \"#utility.yul\":3647:4357   */\ntag_3:\n    /* \"#utility.yul\":3751:3757   */\n  0x00\n    /* \"#utility.yul\":3759:3765   */\n  dup1\n    /* \"#utility.yul\":3808:3810   */\n  0x40\n    /* \"#utility.yul\":3796:3805   */\n  dup4\n    /* \"#utility.yul\":3787:3794   */\n  dup6\n    /* \"#utility.yul\":3783:3806   */\n  sub\n    /* \"#utility.yul\":3779:3811   */\n  slt\n    /* \"#utility.yul\":3776:3895   */\n  iszero\n  tag_88\n  jumpi\n    /* \"#utility.yul\":3814:3893   */\n  tag_89\n  tag_20\n  jump\t// in\ntag_89:\n    /* \"#utility.yul\":3776:3895   */\ntag_88:\n    /* \"#utility.yul\":3955:3956   */\n  0x00\n    /* \"#utility.yul\":3944:3953   */\n  dup4\n    /* \"#utility.yul\":3940:3957   */\n  add\n    /* \"#utility.yul\":3934:3958   */\n  mload\n    /* \"#utility.yul\":3985:4003   */\n  0xffffffffffffffff\n    /* \"#utility.yul\":3977:3983   */\n  dup2\n    /* \"#utility.yul\":3974:4004   */\n  gt\n    /* \"#utility.yul\":3971:4088   */\n  iszero\n  tag_90\n  jumpi\n    /* \"#utility.yul\":4007:4086   */\n  tag_91\n  tag_21\n  jump\t// in\ntag_91:\n    /* \"#utility.yul\":3971:4088   */\ntag_90:\n    /* \"#utility.yul\":4112:4201   */\n  tag_92\n    /* \"#utility.yul\":4193:4200   */\n  dup6\n    /* \"#utility.yul\":4184:4190   */\n  dup3\n    /* \"#utility.yul\":4173:4182   */\n  dup7\n    /* \"#utility.yul\":4169:4191   */\n  add\n    /* \"#utility.yul\":4112:4201   */\n  tag_34\n  jump\t// in\ntag_92:\n    /* \"#utility.yul\":4102:4201   */\n  swap3\n  pop\n    /* \"#utility.yul\":3905:4211   */\n  pop\n    /* \"#utility.yul\":4250:4252   */\n  0x20\n    /* \"#utility.yul\":4276:4340   */\n  tag_93\n    /* \"#utility.yul\":4332:4339   */\n  dup6\n    /* \"#utility.yul\":4323:4329   */\n  dup3\n    /* \"#utility.yul\":4312:4321   */\n  dup7\n    /* \"#utility.yul\":4308:4330   */\n  add\n    /* \"#utility.yul\":4276:4340   */\n  tag_37\n  jump\t// in\ntag_93:\n    /* \"#utility.yul\":4266:4340   */\n  swap2\n  pop\n    /* \"#utility.yul\":4221:4350   */\n  pop\n    /* \"#utility.yul\":3647:4357   */\n  swap3\n  pop\n  swap3\n  swap1\n  pop\n  jump\t// out\n    /* \"#utility.yul\":4363:4543   */\ntag_11:\n    /* \"#utility.yul\":4411:4488   */\n  0x4e487b7100000000000000000000000000000000000000000000000000000000\n    /* \"#utility.yul\":4408:4409   */\n  0x00\n    /* \"#utility.yul\":4401:4489   */\n  mstore\n    /* \"#utility.yul\":4508:4512   */\n  0x32\n    /* \"#utility.yul\":4505:4506   */\n  0x04\n    /* \"#utility.yul\":4498:4513   */\n  mstore\n    /* \"#utility.yul\":4532:4536   */\n  0x24\n    /* \"#utility.yul\":4529:4530   */\n  0x00\n    /* \"#utility.yul\":4522:4537   */\n  revert\n    /* \"#utility.yul\":4549:4718   */\ntag_38:\n    /* \"#utility.yul\":4633:4644   */\n  0x00\n    /* \"#utility.yul\":4667:4673   */\n  dup3\n    /* \"#utility.yul\":4662:4665   */\n  dup3\n    /* \"#utility.yul\":4655:4674   */\n  mstore\n    /* \"#utility.yul\":4707:4711   */\n  0x20\n    /* \"#utility.yul\":4702:4705   */\n  dup3\n    /* \"#utility.yul\":4698:4712   */\n  add\n    /* \"#utility.yul\":4683:4712   */\n  swap1\n  pop\n    /* \"#utility.yul\":4549:4718   */\n  swap3\n  swap2\n  pop\n  pop\n  jump\t// out\n    /* \"#utility.yul\":4724:4891   */\ntag_39:\n    /* \"#utility.yul\":4864:4883   */\n  0x416c7265616479204578697374732e2e2e000000000000000000000000000000\n    /* \"#utility.yul\":4860:4861   */\n  0x00\n    /* \"#utility.yul\":4852:4858   */\n  dup3\n    /* \"#utility.yul\":4848:4862   */\n  add\n    /* \"#utility.yul\":4841:4884   */\n  mstore\n    /* \"#utility.yul\":4724:4891   */\n  pop\n  jump\t// out\n    /* \"#utility.yul\":4897:5263   */\ntag_40:\n    /* \"#utility.yul\":5039:5042   */\n  0x00\n    /* \"#utility.yul\":5060:5127   */\n  tag_98\n    /* \"#utility.yul\":5124:5126   */\n  0x11\n    /* \"#utility.yul\":5119:5122   */\n  dup4\n    /* \"#utility.yul\":5060:5127   */\n  tag_38\n  jump\t// in\ntag_98:\n    /* \"#utility.yul\":5053:5127   */\n  swap2\n  pop\n    /* \"#utility.yul\":5136:5229   */\n  tag_99\n    /* \"#utility.yul\":5225:5228   */\n  dup3\n    /* \"#utility.yul\":5136:5229   */\n  tag_39\n  jump\t// in\ntag_99:\n    /* \"#utility.yul\":5254:5256   */\n  0x20\n    /* \"#utility.yul\":5249:5252   */\n  dup3\n    /* \"#utility.yul\":5245:5257   */\n  add\n    /* \"#utility.yul\":5238:5257   */\n  swap1\n  pop\n    /* \"#utility.yul\":4897:5263   */\n  swap2\n  swap1\n  pop\n  jump\t// out\n    /* \"#utility.yul\":5269:5688   */\ntag_14:\n    /* \"#utility.yul\":5435:5439   */\n  0x00\n    /* \"#utility.yul\":5473:5475   */\n  0x20\n    /* \"#utility.yul\":5462:5471   */\n  dup3\n    /* \"#utility.yul\":5458:5476   */\n  add\n    /* \"#utility.yul\":5450:5476   */\n  swap1\n  pop\n    /* \"#utility.yul\":5522:5531   */\n  dup2\n    /* \"#utility.yul\":5516:5520   */\n  dup2\n    /* \"#utility.yul\":5512:5532   */\n  sub\n    /* \"#utility.yul\":5508:5509   */\n  0x00\n    /* \"#utility.yul\":5497:5506   */\n  dup4\n    /* \"#utility.yul\":5493:5510   */\n  add\n    /* \"#utility.yul\":5486:5533   */\n  mstore\n    /* \"#utility.yul\":5550:5681   */\n  tag_101\n    /* \"#utility.yul\":5676:5680   */\n  dup2\n    /* \"#utility.yul\":5550:5681   */\n  tag_40\n  jump\t// in\ntag_101:\n    /* \"#utility.yul\":5542:5681   */\n  swap1\n  pop\n    /* \"#utility.yul\":5269:5688   */\n  swap2\n  swap1\n  pop\n  jump\t// out\n    /* \"#utility.yul\":5694:5874   */\ntag_41:\n    /* \"#utility.yul\":5742:5819   */\n  0x4e487b7100000000000000000000000000000000000000000000000000000000\n    /* \"#utility.yul\":5739:5740   */\n  0x00\n    /* \"#utility.yul\":5732:5820   */\n  mstore\n    /* \"#utility.yul\":5839:5843   */\n  0x11\n    /* \"#utility.yul\":5836:5837   */\n  0x04\n    /* \"#utility.yul\":5829:5844   */\n  mstore\n    /* \"#utility.yul\":5863:5867   */\n  0x24\n    /* \"#utility.yul\":5860:5861   */\n  0x00\n    /* \"#utility.yul\":5853:5868   */\n  revert\n    /* \"#utility.yul\":5880:6113   */\ntag_17:\n    /* \"#utility.yul\":5919:5922   */\n  0x00\n    /* \"#utility.yul\":5942:5966   */\n  tag_104\n    /* \"#utility.yul\":5960:5965   */\n  dup3\n    /* \"#utility.yul\":5942:5966   */\n  tag_35\n  jump\t// in\ntag_104:\n    /* \"#utility.yul\":5933:5966   */\n  swap2\n  pop\n    /* \"#utility.yul\":5988:6054   */\n  0xffffffffffffffffffffffffffffffffffffffffffffffffffffffffffffffff\n    /* \"#utility.yul\":5981:5986   */\n  dup3\n    /* \"#utility.yul\":5978:6055   */\n  sub\n    /* \"#utility.yul\":5975:6078   */\n  tag_105\n  jumpi\n    /* \"#utility.yul\":6058:6076   */\n  tag_106\n  tag_41\n  jump\t// in\ntag_106:\n    /* \"#utility.yul\":5975:6078   */\ntag_105:\n    /* \"#utility.yul\":6105:6106   */\n  0x01\n    /* \"#utility.yul\":6098:6103   */\n  dup3\n    /* \"#utility.yul\":6094:6107   */\n  add\n    /* \"#utility.yul\":6087:6107   */\n  swap1\n  pop\n    /* \"#utility.yul\":5880:6113   */\n  swap2\n  swap1\n  pop\n  jump\t// out\n    /* \"contracts/MultiSigWallet.sol\":69:2948  contract MultiSigWallet{... */\ntag_18:\n  dataSize(sub_0)\n  dup1\n  dataOffset(sub_0)\n  0x00\n  codecopy\n  0x00\n  return\nstop\n\nsub_0: assembly {\n        /* \"contracts/MultiSigWallet.sol\":69:2948  contract MultiSigWallet{... */\n      mstore(0x40, 0x80)\n      jumpi(tag_1, lt(calldatasize, 0x04))\n      shr(0xe0, calldataload(0x00))\n      dup1\n      0x242232d1\n      eq\n      tag_3\n      jumpi\n      dup1\n      0xb1e130fc\n      eq\n      tag_4\n      jumpi\n      dup1\n      0xc0c64a49\n      eq\n      tag_5\n      jumpi\n      dup1\n      0xee22610b\n      eq\n      tag_6\n      jumpi\n      jump(tag_2)\n    tag_1:\n      jumpi(tag_2, calldatasize)\n        /* \"contracts/MultiSigWallet.sol\":1859:1889  Deposit(msg.sender ,msg.value) */\n      0xe1fffcc4923d04b559f4d29a8bfc6cda04eb5b0d3c460751c2402c5c5cc9109c\n        /* \"contracts/MultiSigWallet.sol\":1867:1877  msg.sender */\n      caller\n        /* \"contracts/MultiSigWallet.sol\":1879:1888  msg.value */\n      callvalue\n        /* \"contracts/MultiSigWallet.sol\":1859:1889  Deposit(msg.sender ,msg.value) */\n      mload(0x40)\n      tag_9\n      swap3\n      swap2\n      swap1\n      tag_10\n      jump\t// in\n    tag_9:\n      mload(0x40)\n      dup1\n      swap2\n      sub\n      swap1\n      log1\n        /* \"contracts/MultiSigWallet.sol\":69:2948  contract MultiSigWallet{... */\n      stop\n    tag_2:\n      0x00\n      dup1\n      revert\n        /* \"contracts/MultiSigWallet.sol\":2078:2289  function approveTransaction(uint _txId) external notApproved(_txId) existTrans(_txId) onlyOwner isNotExec(_txId){... */\n    tag_3:\n      callvalue\n      dup1\n      iszero\n      tag_11\n      jumpi\n      0x00\n      dup1\n      revert\n    tag_11:\n      pop\n      tag_12\n      0x04\n      dup1\n      calldatasize\n      sub\n      dup2\n      add\n      swap1\n      tag_13\n      swap2\n      swap1\n      tag_14\n      jump\t// in\n    tag_13:\n      tag_15\n      jump\t// in\n    tag_12:\n      stop\n        /* \"contracts/MultiSigWallet.sol\":2297:2501  function revokeApproval(uint _txId) external isApproved(_txId) existTrans(_txId) onlyOwner isNotExec(_txId){... */\n    tag_4:\n      callvalue\n      dup1\n      iszero\n      tag_16\n      jumpi\n      0x00\n      dup1\n      revert\n    tag_16:\n      pop\n      tag_17\n      0x04\n      dup1\n      calldatasize\n      sub\n      dup2\n      add\n      swap1\n      tag_18\n      swap2\n      swap1\n      tag_14\n      jump\t// in\n    tag_18:\n      tag_19\n      jump\t// in\n    tag_17:\n      stop\n        /* \"contracts/MultiSigWallet.sol\":1905:2070  function makeTransaction(address _to, uint _value,bytes calldata _data) external onlyOwner{... */\n    tag_5:\n      callvalue\n      dup1\n      iszero\n      tag_20\n      jumpi\n      0x00\n      dup1\n      revert\n    tag_20:\n      pop\n      tag_21\n      0x04\n      dup1\n      calldatasize\n      sub\n      dup2\n      add\n      swap1\n      tag_22\n      swap2\n      swap1\n      tag_23\n      jump\t// in\n    tag_22:\n      tag_24\n      jump\t// in\n    tag_21:\n      stop\n        /* \"contracts/MultiSigWallet.sol\":2509:2945  function executeTransaction(uint _txId) external existTrans(_txId) onlyOwner isNotExec(_txId) {... */\n    tag_6:\n      callvalue\n      dup1\n      iszero\n      tag_25\n      jumpi\n      0x00\n      dup1\n      revert\n    tag_25:\n      pop\n      tag_26\n      0x04\n      dup1\n      calldatasize\n      sub\n      dup2\n      add\n      swap1\n      tag_27\n      swap2\n      swap1\n      tag_14\n      jump\t// in\n    tag_27:\n      tag_28\n      jump\t// in\n    tag_26:\n      stop\n        /* \"contracts/MultiSigWallet.sol\":2078:2289  function approveTransaction(uint _txId) external notApproved(_txId) existTrans(_txId) onlyOwner isNotExec(_txId){... */\n    tag_15:\n        /* \"contracts/MultiSigWallet.sol\":2139:2144  _txId */\n      dup1\n        /* \"contracts/MultiSigWallet.sol\":922:930  approval */\n      0x03\n        /* \"contracts/MultiSigWallet.sol\":922:937  approval[_txId] */\n      0x00\n        /* \"contracts/MultiSigWallet.sol\":931:936  _txId */\n      dup3\n        /* \"contracts/MultiSigWallet.sol\":922:937  approval[_txId] */\n      dup2\n      mstore\n      0x20\n      add\n      swap1\n      dup2\n      mstore\n      0x20\n      add\n      0x00\n      keccak256\n        /* \"contracts/MultiSigWallet.sol\":922:949  approval[_txId][msg.sender] */\n      0x00\n        /* \"contracts/MultiSigWallet.sol\":938:948  msg.sender */\n      caller\n        /* \"contracts/MultiSigWallet.sol\":922:949  approval[_txId][msg.sender] */\n      0xffffffffffffffffffffffffffffffffffffffff\n      and\n      0xffffffffffffffffffffffffffffffffffffffff\n      and\n      dup2\n      mstore\n      0x20\n      add\n      swap1\n      dup2\n      mstore\n      0x20\n      add\n      0x00\n      keccak256\n      0x00\n      swap1\n      sload\n      swap1\n      0x0100\n      exp\n      swap1\n      div\n      0xff\n      and\n        /* \"contracts/MultiSigWallet.sol\":921:949  !approval[_txId][msg.sender] */\n      iszero\n        /* \"contracts/MultiSigWallet.sol\":913:984  require(!approval[_txId][msg.sender],\"Transaction Already Approved...\") */\n      tag_30\n      jumpi\n      mload(0x40)\n      0x08c379a000000000000000000000000000000000000000000000000000000000\n      dup2\n      mstore\n      0x04\n      add\n      tag_31\n      swap1\n      tag_32\n      jump\t// in\n    tag_31:\n      mload(0x40)\n      dup1\n      swap2\n      sub\n      swap1\n      revert\n    tag_30:\n        /* \"contracts/MultiSigWallet.sol\":2157:2162  _txId */\n      dup2\n        /* \"contracts/MultiSigWallet.sol\":1094:1095  1 */\n      0x01\n        /* \"contracts/MultiSigWallet.sol\":1072:1084  transactions */\n      0x04\n        /* \"contracts/MultiSigWallet.sol\":1072:1091  transactions.length */\n      dup1\n      sload\n      swap1\n      pop\n        /* \"contracts/MultiSigWallet.sol\":1072:1095  transactions.length - 1 */\n      tag_34\n      swap2\n      swap1\n      tag_35\n      jump\t// in\n    tag_34:\n        /* \"contracts/MultiSigWallet.sol\":1063:1068  _txId */\n      dup2\n        /* \"contracts/MultiSigWallet.sol\":1063:1095  _txId <= transactions.length - 1 */\n      gt\n      iszero\n        /* \"contracts/MultiSigWallet.sol\":1055:1128  require(_txId <= transactions.length - 1,\"Transaction Does not Exist...\") */\n      tag_36\n      jumpi\n      mload(0x40)\n      0x08c379a000000000000000000000000000000000000000000000000000000000\n      dup2\n      mstore\n      0x04\n      add\n      tag_37\n      swap1\n      tag_38\n      jump\t// in\n    tag_37:\n      mload(0x40)\n      dup1\n      swap2\n      sub\n      swap1\n      revert\n    tag_36:\n        /* \"contracts/MultiSigWallet.sol\":1193:1200  isOwner */\n      0x01\n        /* \"contracts/MultiSigWallet.sol\":1193:1212  isOwner[msg.sender] */\n      0x00\n        /* \"contracts/MultiSigWallet.sol\":1201:1211  msg.sender */\n      caller\n        /* \"contracts/MultiSigWallet.sol\":1193:1212  isOwner[msg.sender] */\n      0xffffffffffffffffffffffffffffffffffffffff\n      and\n      0xffffffffffffffffffffffffffffffffffffffff\n      and\n      dup2\n      mstore\n      0x20\n      add\n      swap1\n      dup2\n      mstore\n      0x20\n      add\n      0x00\n      keccak256\n      0x00\n      swap1\n      sload\n      swap1\n      0x0100\n      exp\n      swap1\n      div\n      0xff\n      and\n        /* \"contracts/MultiSigWallet.sol\":1185:1234  require(isOwner[msg.sender] ,\"Not the Owner....\") */\n      tag_40\n      jumpi\n      mload(0x40)\n      0x08c379a000000000000000000000000000000000000000000000000000000000\n      dup2\n      mstore\n      0x04\n      add\n      tag_41\n      swap1\n      tag_42\n      jump\t// in\n    tag_41:\n      mload(0x40)\n      dup1\n      swap2\n      sub\n      swap1\n      revert\n    tag_40:\n        /* \"contracts/MultiSigWallet.sol\":2184:2189  _txId */\n      dup3\n        /* \"contracts/MultiSigWallet.sol\":1440:1470  Transaction memory transaction */\n      0x00\n        /* \"contracts/MultiSigWallet.sol\":1473:1485  transactions */\n      0x04\n        /* \"contracts/MultiSigWallet.sol\":1486:1491  _txId */\n      dup3\n        /* \"contracts/MultiSigWallet.sol\":1473:1492  transactions[_txId] */\n      dup2\n      sload\n      dup2\n      lt\n      tag_44\n      jumpi\n      tag_45\n      tag_46\n      jump\t// in\n    tag_45:\n    tag_44:\n      swap1\n      0x00\n      mstore\n      keccak256(0x00, 0x20)\n      swap1\n      0x04\n      mul\n      add\n        /* \"contracts/MultiSigWallet.sol\":1440:1492  Transaction memory transaction = transactions[_txId] */\n      mload(0x40)\n      dup1\n      0x80\n      add\n      0x40\n      mstore\n      swap1\n      dup2\n      0x00\n      dup3\n      add\n      0x00\n      swap1\n      sload\n      swap1\n      0x0100\n      exp\n      swap1\n      div\n      0xffffffffffffffffffffffffffffffffffffffff\n      and\n      0xffffffffffffffffffffffffffffffffffffffff\n      and\n      0xffffffffffffffffffffffffffffffffffffffff\n      and\n      dup2\n      mstore\n      0x20\n      add\n      0x01\n      dup3\n      add\n      sload\n      dup2\n      mstore\n      0x20\n      add\n      0x02\n      dup3\n      add\n      0x00\n      swap1\n      sload\n      swap1\n      0x0100\n      exp\n      swap1\n      div\n      0xff\n      and\n      iszero\n      iszero\n      iszero\n      iszero\n      dup2\n      mstore\n      0x20\n      add\n      0x03\n      dup3\n      add\n      dup1\n      sload\n      tag_48\n      swap1\n      tag_49\n      jump\t// in\n    tag_48:\n      dup1\n      0x1f\n      add\n      0x20\n      dup1\n      swap2\n      div\n      mul\n      0x20\n      add\n      mload(0x40)\n      swap1\n      dup2\n      add\n      0x40\n      mstore\n      dup1\n      swap3\n      swap2\n      swap1\n      dup2\n      dup2\n      mstore\n      0x20\n      add\n      dup3\n      dup1\n      sload\n      tag_50\n      swap1\n      tag_49\n      jump\t// in\n    tag_50:\n      dup1\n      iszero\n      tag_51\n      jumpi\n      dup1\n      0x1f\n      lt\n      tag_52\n      jumpi\n      0x0100\n      dup1\n      dup4\n      sload\n      div\n      mul\n      dup4\n      mstore\n      swap2\n      0x20\n      add\n      swap2\n      jump(tag_51)\n    tag_52:\n      dup3\n      add\n      swap2\n      swap1\n      0x00\n      mstore\n      keccak256(0x00, 0x20)\n      swap1\n    tag_53:\n      dup2\n      sload\n      dup2\n      mstore\n      swap1\n      0x01\n      add\n      swap1\n      0x20\n      add\n      dup1\n      dup4\n      gt\n      tag_53\n      jumpi\n      dup3\n      swap1\n      sub\n      0x1f\n      and\n      dup3\n      add\n      swap2\n    tag_51:\n      pop\n      pop\n      pop\n      pop\n      pop\n      dup2\n      mstore\n      pop\n      pop\n      swap1\n      pop\n        /* \"contracts/MultiSigWallet.sol\":1512:1523  transaction */\n      dup1\n        /* \"contracts/MultiSigWallet.sol\":1512:1532  transaction.executed */\n      0x40\n      add\n      mload\n        /* \"contracts/MultiSigWallet.sol\":1511:1532  !transaction.executed */\n      iszero\n        /* \"contracts/MultiSigWallet.sol\":1503:1565  require(!transaction.executed, \"Transaction Already Executed\") */\n      tag_54\n      jumpi\n      mload(0x40)\n      0x08c379a000000000000000000000000000000000000000000000000000000000\n      dup2\n      mstore\n      0x04\n      add\n      tag_55\n      swap1\n      tag_56\n      jump\t// in\n    tag_55:\n      mload(0x40)\n      dup1\n      swap2\n      sub\n      swap1\n      revert\n    tag_54:\n        /* \"contracts/MultiSigWallet.sol\":2233:2237  true */\n      0x01\n        /* \"contracts/MultiSigWallet.sol\":2203:2211  approval */\n      0x03\n        /* \"contracts/MultiSigWallet.sol\":2203:2218  approval[_txId] */\n      0x00\n        /* \"contracts/MultiSigWallet.sol\":2212:2217  _txId */\n      dup8\n        /* \"contracts/MultiSigWallet.sol\":2203:2218  approval[_txId] */\n      dup2\n      mstore\n      0x20\n      add\n      swap1\n      dup2\n      mstore\n      0x20\n      add\n      0x00\n      keccak256\n        /* \"contracts/MultiSigWallet.sol\":2203:2230  approval[_txId][msg.sender] */\n      0x00\n        /* \"contracts/MultiSigWallet.sol\":2219:2229  msg.sender */\n      caller\n        /* \"contracts/MultiSigWallet.sol\":2203:2230  approval[_txId][msg.sender] */\n      0xffffffffffffffffffffffffffffffffffffffff\n      and\n      0xffffffffffffffffffffffffffffffffffffffff\n      and\n      dup2\n      mstore\n      0x20\n      add\n      swap1\n      dup2\n      mstore\n      0x20\n      add\n      0x00\n      keccak256\n      0x00\n        /* \"contracts/MultiSigWallet.sol\":2203:2237  approval[_txId][msg.sender] = true */\n      0x0100\n      exp\n      dup2\n      sload\n      dup2\n      0xff\n      mul\n      not\n      and\n      swap1\n      dup4\n      iszero\n      iszero\n      mul\n      or\n      swap1\n      sstore\n      pop\n        /* \"contracts/MultiSigWallet.sol\":2253:2279  Approve(_txId, msg.sender) */\n      0x47ad3e4b0f4bdbe3ac08708bbc45053d2ff616911b39e65563fd9bd781909645\n        /* \"contracts/MultiSigWallet.sol\":2261:2266  _txId */\n      dup6\n        /* \"contracts/MultiSigWallet.sol\":2268:2278  msg.sender */\n      caller\n        /* \"contracts/MultiSigWallet.sol\":2253:2279  Approve(_txId, msg.sender) */\n      mload(0x40)\n      tag_58\n      swap3\n      swap2\n      swap1\n      tag_59\n      jump\t// in\n    tag_58:\n      mload(0x40)\n      dup1\n      swap2\n      sub\n      swap1\n      log1\n        /* \"contracts/MultiSigWallet.sol\":1429:1585  {... */\n      pop\n        /* \"contracts/MultiSigWallet.sol\":1245:1246  _ */\n      pop\n        /* \"contracts/MultiSigWallet.sol\":995:996  _ */\n      pop\n        /* \"contracts/MultiSigWallet.sol\":2078:2289  function approveTransaction(uint _txId) external notApproved(_txId) existTrans(_txId) onlyOwner isNotExec(_txId){... */\n      pop\n      pop\n      jump\t// out\n        /* \"contracts/MultiSigWallet.sol\":2297:2501  function revokeApproval(uint _txId) external isApproved(_txId) existTrans(_txId) onlyOwner isNotExec(_txId){... */\n    tag_19:\n        /* \"contracts/MultiSigWallet.sol\":2353:2358  _txId */\n      dup1\n        /* \"contracts/MultiSigWallet.sol\":1312:1320  approval */\n      0x03\n        /* \"contracts/MultiSigWallet.sol\":1312:1327  approval[_txId] */\n      0x00\n        /* \"contracts/MultiSigWallet.sol\":1321:1326  _txId */\n      dup3\n        /* \"contracts/MultiSigWallet.sol\":1312:1327  approval[_txId] */\n      dup2\n      mstore\n      0x20\n      add\n      swap1\n      dup2\n      mstore\n      0x20\n      add\n      0x00\n      keccak256\n        /* \"contracts/MultiSigWallet.sol\":1312:1339  approval[_txId][msg.sender] */\n      0x00\n        /* \"contracts/MultiSigWallet.sol\":1328:1338  msg.sender */\n      caller\n        /* \"contracts/MultiSigWallet.sol\":1312:1339  approval[_txId][msg.sender] */\n      0xffffffffffffffffffffffffffffffffffffffff\n      and\n      0xffffffffffffffffffffffffffffffffffffffff\n      and\n      dup2\n      mstore\n      0x20\n      add\n      swap1\n      dup2\n      mstore\n      0x20\n      add\n      0x00\n      keccak256\n      0x00\n      swap1\n      sload\n      swap1\n      0x0100\n      exp\n      swap1\n      div\n      0xff\n      and\n        /* \"contracts/MultiSigWallet.sol\":1304:1371  require(approval[_txId][msg.sender], \"Transaction Not Approved...\") */\n      tag_61\n      jumpi\n      mload(0x40)\n      0x08c379a000000000000000000000000000000000000000000000000000000000\n      dup2\n      mstore\n      0x04\n      add\n      tag_62\n      swap1\n      tag_63\n      jump\t// in\n    tag_62:\n      mload(0x40)\n      dup1\n      swap2\n      sub\n      swap1\n      revert\n    tag_61:\n        /* \"contracts/MultiSigWallet.sol\":2371:2376  _txId */\n      dup2\n        /* \"contracts/MultiSigWallet.sol\":1094:1095  1 */\n      0x01\n        /* \"contracts/MultiSigWallet.sol\":1072:1084  transactions */\n      0x04\n        /* \"contracts/MultiSigWallet.sol\":1072:1091  transactions.length */\n      dup1\n      sload\n      swap1\n      pop\n        /* \"contracts/MultiSigWallet.sol\":1072:1095  transactions.length - 1 */\n      tag_65\n      swap2\n      swap1\n      tag_35\n      jump\t// in\n    tag_65:\n        /* \"contracts/MultiSigWallet.sol\":1063:1068  _txId */\n      dup2\n        /* \"contracts/MultiSigWallet.sol\":1063:1095  _txId <= transactions.length - 1 */\n      gt\n      iszero\n        /* \"contracts/MultiSigWallet.sol\":1055:1128  require(_txId <= transactions.length - 1,\"Transaction Does not Exist...\") */\n      tag_66\n      jumpi\n      mload(0x40)\n      0x08c379a000000000000000000000000000000000000000000000000000000000\n      dup2\n      mstore\n      0x04\n      add\n      tag_67\n      swap1\n      tag_38\n      jump\t// in\n    tag_67:\n      mload(0x40)\n      dup1\n      swap2\n      sub\n      swap1\n      revert\n    tag_66:\n        /* \"contracts/MultiSigWallet.sol\":1193:1200  isOwner */\n      0x01\n        /* \"contracts/MultiSigWallet.sol\":1193:1212  isOwner[msg.sender] */\n      0x00\n        /* \"contracts/MultiSigWallet.sol\":1201:1211  msg.sender */\n      caller\n        /* \"contracts/MultiSigWallet.sol\":1193:1212  isOwner[msg.sender] */\n      0xffffffffffffffffffffffffffffffffffffffff\n      and\n      0xffffffffffffffffffffffffffffffffffffffff\n      and\n      dup2\n      mstore\n      0x20\n      add\n      swap1\n      dup2\n      mstore\n      0x20\n      add\n      0x00\n      keccak256\n      0x00\n      swap1\n      sload\n      swap1\n      0x0100\n      exp\n      swap1\n      div\n      0xff\n      and\n        /* \"contracts/MultiSigWallet.sol\":1185:1234  require(isOwner[msg.sender] ,\"Not the Owner....\") */\n      tag_69\n      jumpi\n      mload(0x40)\n      0x08c379a000000000000000000000000000000000000000000000000000000000\n      dup2\n      mstore\n      0x04\n      add\n      tag_70\n      swap1\n      tag_42\n      jump\t// in\n    tag_70:\n      mload(0x40)\n      dup1\n      swap2\n      sub\n      swap1\n      revert\n    tag_69:\n        /* \"contracts/MultiSigWallet.sol\":2398:2403  _txId */\n      dup3\n        /* \"contracts/MultiSigWallet.sol\":1440:1470  Transaction memory transaction */\n      0x00\n        /* \"contracts/MultiSigWallet.sol\":1473:1485  transactions */\n      0x04\n        /* \"contracts/MultiSigWallet.sol\":1486:1491  _txId */\n      dup3\n        /* \"contracts/MultiSigWallet.sol\":1473:1492  transactions[_txId] */\n      dup2\n      sload\n      dup2\n      lt\n      tag_72\n      jumpi\n      tag_73\n      tag_46\n      jump\t// in\n    tag_73:\n    tag_72:\n      swap1\n      0x00\n      mstore\n      keccak256(0x00, 0x20)\n      swap1\n      0x04\n      mul\n      add\n        /* \"contracts/MultiSigWallet.sol\":1440:1492  Transaction memory transaction = transactions[_txId] */\n      mload(0x40)\n      dup1\n      0x80\n      add\n      0x40\n      mstore\n      swap1\n      dup2\n      0x00\n      dup3\n      add\n      0x00\n      swap1\n      sload\n      swap1\n      0x0100\n      exp\n      swap1\n      div\n      0xffffffffffffffffffffffffffffffffffffffff\n      and\n      0xffffffffffffffffffffffffffffffffffffffff\n      and\n      0xffffffffffffffffffffffffffffffffffffffff\n      and\n      dup2\n      mstore\n      0x20\n      add\n      0x01\n      dup3\n      add\n      sload\n      dup2\n      mstore\n      0x20\n      add\n      0x02\n      dup3\n      add\n      0x00\n      swap1\n      sload\n      swap1\n      0x0100\n      exp\n      swap1\n      div\n      0xff\n      and\n      iszero\n      iszero\n      iszero\n      iszero\n      dup2\n      mstore\n      0x20\n      add\n      0x03\n      dup3\n      add\n      dup1\n      sload\n      tag_75\n      swap1\n      tag_49\n      jump\t// in\n    tag_75:\n      dup1\n      0x1f\n      add\n      0x20\n      dup1\n      swap2\n      div\n      mul\n      0x20\n      add\n      mload(0x40)\n      swap1\n      dup2\n      add\n      0x40\n      mstore\n      dup1\n      swap3\n      swap2\n      swap1\n      dup2\n      dup2\n      mstore\n      0x20\n      add\n      dup3\n      dup1\n      sload\n      tag_76\n      swap1\n      tag_49\n      jump\t// in\n    tag_76:\n      dup1\n      iszero\n      tag_77\n      jumpi\n      dup1\n      0x1f\n      lt\n      tag_78\n      jumpi\n      0x0100\n      dup1\n      dup4\n      sload\n      div\n      mul\n      dup4\n      mstore\n      swap2\n      0x20\n      add\n      swap2\n      jump(tag_77)\n    tag_78:\n      dup3\n      add\n      swap2\n      swap1\n      0x00\n      mstore\n      keccak256(0x00, 0x20)\n      swap1\n    tag_79:\n      dup2\n      sload\n      dup2\n      mstore\n      swap1\n      0x01\n      add\n      swap1\n      0x20\n      add\n      dup1\n      dup4\n      gt\n      tag_79\n      jumpi\n      dup3\n      swap1\n      sub\n      0x1f\n      and\n      dup3\n      add\n      swap2\n    tag_77:\n      pop\n      pop\n      pop\n      pop\n      pop\n      dup2\n      mstore\n      pop\n      pop\n      swap1\n      pop\n        /* \"contracts/MultiSigWallet.sol\":1512:1523  transaction */\n      dup1\n        /* \"contracts/MultiSigWallet.sol\":1512:1532  transaction.executed */\n      0x40\n      add\n      mload\n        /* \"contracts/MultiSigWallet.sol\":1511:1532  !transaction.executed */\n      iszero\n        /* \"contracts/MultiSigWallet.sol\":1503:1565  require(!transaction.executed, \"Transaction Already Executed\") */\n      tag_80\n      jumpi\n      mload(0x40)\n      0x08c379a000000000000000000000000000000000000000000000000000000000\n      dup2\n      mstore\n      0x04\n      add\n      tag_81\n      swap1\n      tag_56\n      jump\t// in\n    tag_81:\n      mload(0x40)\n      dup1\n      swap2\n      sub\n      swap1\n      revert\n    tag_80:\n        /* \"contracts/MultiSigWallet.sol\":2447:2452  false */\n      0x00\n        /* \"contracts/MultiSigWallet.sol\":2417:2425  approval */\n      0x03\n        /* \"contracts/MultiSigWallet.sol\":2417:2432  approval[_txId] */\n      0x00\n        /* \"contracts/MultiSigWallet.sol\":2426:2431  _txId */\n      dup8\n        /* \"contracts/MultiSigWallet.sol\":2417:2432  approval[_txId] */\n      dup2\n      mstore\n      0x20\n      add\n      swap1\n      dup2\n      mstore\n      0x20\n      add\n      0x00\n      keccak256\n        /* \"contracts/MultiSigWallet.sol\":2417:2444  approval[_txId][msg.sender] */\n      0x00\n        /* \"contracts/MultiSigWallet.sol\":2433:2443  msg.sender */\n      caller\n        /* \"contracts/MultiSigWallet.sol\":2417:2444  approval[_txId][msg.sender] */\n      0xffffffffffffffffffffffffffffffffffffffff\n      and\n      0xffffffffffffffffffffffffffffffffffffffff\n      and\n      dup2\n      mstore\n      0x20\n      add\n      swap1\n      dup2\n      mstore\n      0x20\n      add\n      0x00\n      keccak256\n      0x00\n        /* \"contracts/MultiSigWallet.sol\":2417:2452  approval[_txId][msg.sender] = false */\n      0x0100\n      exp\n      dup2\n      sload\n      dup2\n      0xff\n      mul\n      not\n      and\n      swap1\n      dup4\n      iszero\n      iszero\n      mul\n      or\n      swap1\n      sstore\n      pop\n        /* \"contracts/MultiSigWallet.sol\":2468:2493  Revoke(_txId, msg.sender) */\n      0xd5d64031e0f55cf42bc3b7d0462f8404a4d63f7ccf84be9510cd6a5300552e42\n        /* \"contracts/MultiSigWallet.sol\":2475:2480  _txId */\n      dup6\n        /* \"contracts/MultiSigWallet.sol\":2482:2492  msg.sender */\n      caller\n        /* \"contracts/MultiSigWallet.sol\":2468:2493  Revoke(_txId, msg.sender) */\n      mload(0x40)\n      tag_83\n      swap3\n      swap2\n      swap1\n      tag_59\n      jump\t// in\n    tag_83:\n      mload(0x40)\n      dup1\n      swap2\n      sub\n      swap1\n      log1\n        /* \"contracts/MultiSigWallet.sol\":1429:1585  {... */\n      pop\n        /* \"contracts/MultiSigWallet.sol\":1245:1246  _ */\n      pop\n        /* \"contracts/MultiSigWallet.sol\":1382:1383  _ */\n      pop\n        /* \"contracts/MultiSigWallet.sol\":2297:2501  function revokeApproval(uint _txId) external isApproved(_txId) existTrans(_txId) onlyOwner isNotExec(_txId){... */\n      pop\n      pop\n      jump\t// out\n        /* \"contracts/MultiSigWallet.sol\":1905:2070  function makeTransaction(address _to, uint _value,bytes calldata _data) external onlyOwner{... */\n    tag_24:\n        /* \"contracts/MultiSigWallet.sol\":1193:1200  isOwner */\n      0x01\n        /* \"contracts/MultiSigWallet.sol\":1193:1212  isOwner[msg.sender] */\n      0x00\n        /* \"contracts/MultiSigWallet.sol\":1201:1211  msg.sender */\n      caller\n        /* \"contracts/MultiSigWallet.sol\":1193:1212  isOwner[msg.sender] */\n      0xffffffffffffffffffffffffffffffffffffffff\n      and\n      0xffffffffffffffffffffffffffffffffffffffff\n      and\n      dup2\n      mstore\n      0x20\n      add\n      swap1\n      dup2\n      mstore\n      0x20\n      add\n      0x00\n      keccak256\n      0x00\n      swap1\n      sload\n      swap1\n      0x0100\n      exp\n      swap1\n      div\n      0xff\n      and\n        /* \"contracts/MultiSigWallet.sol\":1185:1234  require(isOwner[msg.sender] ,\"Not the Owner....\") */\n      tag_85\n      jumpi\n      mload(0x40)\n      0x08c379a000000000000000000000000000000000000000000000000000000000\n      dup2\n      mstore\n      0x04\n      add\n      tag_86\n      swap1\n      tag_42\n      jump\t// in\n    tag_86:\n      mload(0x40)\n      dup1\n      swap2\n      sub\n      swap1\n      revert\n    tag_85:\n        /* \"contracts/MultiSigWallet.sol\":2006:2018  transactions */\n      0x04\n        /* \"contracts/MultiSigWallet.sol\":2024:2059  Transaction(_to,_value,false,_data) */\n      mload(0x40)\n      dup1\n      0x80\n      add\n      0x40\n      mstore\n      dup1\n        /* \"contracts/MultiSigWallet.sol\":2036:2039  _to */\n      dup7\n        /* \"contracts/MultiSigWallet.sol\":2024:2059  Transaction(_to,_value,false,_data) */\n      0xffffffffffffffffffffffffffffffffffffffff\n      and\n      dup2\n      mstore\n      0x20\n      add\n        /* \"contracts/MultiSigWallet.sol\":2040:2046  _value */\n      dup6\n        /* \"contracts/MultiSigWallet.sol\":2024:2059  Transaction(_to,_value,false,_data) */\n      dup2\n      mstore\n      0x20\n      add\n        /* \"contracts/MultiSigWallet.sol\":2047:2052  false */\n      0x00\n        /* \"contracts/MultiSigWallet.sol\":2024:2059  Transaction(_to,_value,false,_data) */\n      iszero\n      iszero\n      dup2\n      mstore\n      0x20\n      add\n        /* \"contracts/MultiSigWallet.sol\":2053:2058  _data */\n      dup5\n      dup5\n        /* \"contracts/MultiSigWallet.sol\":2024:2059  Transaction(_to,_value,false,_data) */\n      dup1\n      dup1\n      0x1f\n      add\n      0x20\n      dup1\n      swap2\n      div\n      mul\n      0x20\n      add\n      mload(0x40)\n      swap1\n      dup2\n      add\n      0x40\n      mstore\n      dup1\n      swap4\n      swap3\n      swap2\n      swap1\n      dup2\n      dup2\n      mstore\n      0x20\n      add\n      dup4\n      dup4\n      dup1\n      dup3\n      dup5\n      calldatacopy\n      0x00\n      dup2\n      dup5\n      add\n      mstore\n      not(0x1f)\n      0x1f\n      dup3\n      add\n      and\n      swap1\n      pop\n      dup1\n      dup4\n      add\n      swap3\n      pop\n      pop\n      pop\n      pop\n      pop\n      pop\n      pop\n      dup2\n      mstore\n      pop\n        /* \"contracts/MultiSigWallet.sol\":2006:2060  transactions.push(Transaction(_to,_value,false,_data)) */\n      swap1\n      dup1\n      0x01\n      dup2\n      sload\n      add\n      dup1\n      dup3\n      sstore\n      dup1\n      swap2\n      pop\n      pop\n      0x01\n      swap1\n      sub\n      swap1\n      0x00\n      mstore\n      keccak256(0x00, 0x20)\n      swap1\n      0x04\n      mul\n      add\n      0x00\n      swap1\n      swap2\n      swap1\n      swap2\n      swap1\n      swap2\n      pop\n      0x00\n      dup3\n      add\n      mload\n      dup2\n      0x00\n      add\n      exp(0x0100, 0x00)\n      dup2\n      sload\n      dup2\n      0xffffffffffffffffffffffffffffffffffffffff\n      mul\n      not\n      and\n      swap1\n      dup4\n      0xffffffffffffffffffffffffffffffffffffffff\n      and\n      mul\n      or\n      swap1\n      sstore\n      pop\n      0x20\n      dup3\n      add\n      mload\n      dup2\n      0x01\n      add\n      sstore\n      0x40\n      dup3\n      add\n      mload\n      dup2\n      0x02\n      add\n      exp(0x0100, 0x00)\n      dup2\n      sload\n      dup2\n      0xff\n      mul\n      not\n      and\n      swap1\n      dup4\n      iszero\n      iszero\n      mul\n      or\n      swap1\n      sstore\n      pop\n      0x60\n      dup3\n      add\n      mload\n      dup2\n      0x03\n      add\n      swap1\n      dup2\n      tag_89\n      swap2\n      swap1\n      tag_90\n      jump\t// in\n    tag_89:\n      pop\n      pop\n      pop\n        /* \"contracts/MultiSigWallet.sol\":1905:2070  function makeTransaction(address _to, uint _value,bytes calldata _data) external onlyOwner{... */\n      pop\n      pop\n      pop\n      pop\n      jump\t// out\n        /* \"contracts/MultiSigWallet.sol\":2509:2945  function executeTransaction(uint _txId) external existTrans(_txId) onlyOwner isNotExec(_txId) {... */\n    tag_28:\n        /* \"contracts/MultiSigWallet.sol\":2569:2574  _txId */\n      dup1\n        /* \"contracts/MultiSigWallet.sol\":1094:1095  1 */\n      0x01\n        /* \"contracts/MultiSigWallet.sol\":1072:1084  transactions */\n      0x04\n        /* \"contracts/MultiSigWallet.sol\":1072:1091  transactions.length */\n      dup1\n      sload\n      swap1\n      pop\n        /* \"contracts/MultiSigWallet.sol\":1072:1095  transactions.length - 1 */\n      tag_92\n      swap2\n      swap1\n      tag_35\n      jump\t// in\n    tag_92:\n        /* \"contracts/MultiSigWallet.sol\":1063:1068  _txId */\n      dup2\n        /* \"contracts/MultiSigWallet.sol\":1063:1095  _txId <= transactions.length - 1 */\n      gt\n      iszero\n        /* \"contracts/MultiSigWallet.sol\":1055:1128  require(_txId <= transactions.length - 1,\"Transaction Does not Exist...\") */\n      tag_93\n      jumpi\n      mload(0x40)\n      0x08c379a000000000000000000000000000000000000000000000000000000000\n      dup2\n      mstore\n      0x04\n      add\n      tag_94\n      swap1\n      tag_38\n      jump\t// in\n    tag_94:\n      mload(0x40)\n      dup1\n      swap2\n      sub\n      swap1\n      revert\n    tag_93:\n        /* \"contracts/MultiSigWallet.sol\":1193:1200  isOwner */\n      0x01\n        /* \"contracts/MultiSigWallet.sol\":1193:1212  isOwner[msg.sender] */\n      0x00\n        /* \"contracts/MultiSigWallet.sol\":1201:1211  msg.sender */\n      caller\n        /* \"contracts/MultiSigWallet.sol\":1193:1212  isOwner[msg.sender] */\n      0xffffffffffffffffffffffffffffffffffffffff\n      and\n      0xffffffffffffffffffffffffffffffffffffffff\n      and\n      dup2\n      mstore\n      0x20\n      add\n      swap1\n      dup2\n      mstore\n      0x20\n      add\n      0x00\n      keccak256\n      0x00\n      swap1\n      sload\n      swap1\n      0x0100\n      exp\n      swap1\n      div\n      0xff\n      and\n        /* \"contracts/MultiSigWallet.sol\":1185:1234  require(isOwner[msg.sender] ,\"Not the Owner....\") */\n      tag_96\n      jumpi\n      mload(0x40)\n      0x08c379a000000000000000000000000000000000000000000000000000000000\n      dup2\n      mstore\n      0x04\n      add\n      tag_97\n      swap1\n      tag_42\n      jump\t// in\n    tag_97:\n      mload(0x40)\n      dup1\n      swap2\n      sub\n      swap1\n      revert\n    tag_96:\n        /* \"contracts/MultiSigWallet.sol\":2596:2601  _txId */\n      dup2\n        /* \"contracts/MultiSigWallet.sol\":1440:1470  Transaction memory transaction */\n      0x00\n        /* \"contracts/MultiSigWallet.sol\":1473:1485  transactions */\n      0x04\n        /* \"contracts/MultiSigWallet.sol\":1486:1491  _txId */\n      dup3\n        /* \"contracts/MultiSigWallet.sol\":1473:1492  transactions[_txId] */\n      dup2\n      sload\n      dup2\n      lt\n      tag_99\n      jumpi\n      tag_100\n      tag_46\n      jump\t// in\n    tag_100:\n    tag_99:\n      swap1\n      0x00\n      mstore\n      keccak256(0x00, 0x20)\n      swap1\n      0x04\n      mul\n      add\n        /* \"contracts/MultiSigWallet.sol\":1440:1492  Transaction memory transaction = transactions[_txId] */\n      mload(0x40)\n      dup1\n      0x80\n      add\n      0x40\n      mstore\n      swap1\n      dup2\n      0x00\n      dup3\n      add\n      0x00\n      swap1\n      sload\n      swap1\n      0x0100\n      exp\n      swap1\n      div\n      0xffffffffffffffffffffffffffffffffffffffff\n      and\n      0xffffffffffffffffffffffffffffffffffffffff\n      and\n      0xffffffffffffffffffffffffffffffffffffffff\n      and\n      dup2\n      mstore\n      0x20\n      add\n      0x01\n      dup3\n      add\n      sload\n      dup2\n      mstore\n      0x20\n      add\n      0x02\n      dup3\n      add\n      0x00\n      swap1\n      sload\n      swap1\n      0x0100\n      exp\n      swap1\n      div\n      0xff\n      and\n      iszero\n      iszero\n      iszero\n      iszero\n      dup2\n      mstore\n      0x20\n      add\n      0x03\n      dup3\n      add\n      dup1\n      sload\n      tag_102\n      swap1\n      tag_49\n      jump\t// in\n    tag_102:\n      dup1\n      0x1f\n      add\n      0x20\n      dup1\n      swap2\n      div\n      mul\n      0x20\n      add\n      mload(0x40)\n      swap1\n      dup2\n      add\n      0x40\n      mstore\n      dup1\n      swap3\n      swap2\n      swap1\n      dup2\n      dup2\n      mstore\n      0x20\n      add\n      dup3\n      dup1\n      sload\n      tag_103\n      swap1\n      tag_49\n      jump\t// in\n    tag_103:\n      dup1\n      iszero\n      tag_104\n      jumpi\n      dup1\n      0x1f\n      lt\n      tag_105\n      jumpi\n      0x0100\n      dup1\n      dup4\n      sload\n      div\n      mul\n      dup4\n      mstore\n      swap2\n      0x20\n      add\n      swap2\n      jump(tag_104)\n    tag_105:\n      dup3\n      add\n      swap2\n      swap1\n      0x00\n      mstore\n      keccak256(0x00, 0x20)\n      swap1\n    tag_106:\n      dup2\n      sload\n      dup2\n      mstore\n      swap1\n      0x01\n      add\n      swap1\n      0x20\n      add\n      dup1\n      dup4\n      gt\n      tag_106\n      jumpi\n      dup3\n      swap1\n      sub\n      0x1f\n      and\n      dup3\n      add\n      swap2\n    tag_104:\n      pop\n      pop\n      pop\n      pop\n      pop\n      dup2\n      mstore\n      pop\n      pop\n      swap1\n      pop\n        /* \"contracts/MultiSigWallet.sol\":1512:1523  transaction */\n      dup1\n        /* \"contracts/MultiSigWallet.sol\":1512:1532  transaction.executed */\n      0x40\n      add\n      mload\n        /* \"contracts/MultiSigWallet.sol\":1511:1532  !transaction.executed */\n      iszero\n        /* \"contracts/MultiSigWallet.sol\":1503:1565  require(!transaction.executed, \"Transaction Already Executed\") */\n      tag_107\n      jumpi\n      mload(0x40)\n      0x08c379a000000000000000000000000000000000000000000000000000000000\n      dup2\n      mstore\n      0x04\n      add\n      tag_108\n      swap1\n      tag_56\n      jump\t// in\n    tag_108:\n      mload(0x40)\n      dup1\n      swap2\n      sub\n      swap1\n      revert\n    tag_107:\n        /* \"contracts/MultiSigWallet.sol\":2640:2648  required */\n      sload(0x02)\n        /* \"contracts/MultiSigWallet.sol\":2622:2636  canExec(_txId) */\n      tag_110\n        /* \"contracts/MultiSigWallet.sol\":2630:2635  _txId */\n      dup6\n        /* \"contracts/MultiSigWallet.sol\":2622:2629  canExec */\n      tag_111\n        /* \"contracts/MultiSigWallet.sol\":2622:2636  canExec(_txId) */\n      jump\t// in\n    tag_110:\n        /* \"contracts/MultiSigWallet.sol\":2622:2648  canExec(_txId) >= required */\n      lt\n      iszero\n        /* \"contracts/MultiSigWallet.sol\":2614:2676  require(canExec(_txId) >= required, \"Not Enough Approvals...\") */\n      tag_112\n      jumpi\n      mload(0x40)\n      0x08c379a000000000000000000000000000000000000000000000000000000000\n      dup2\n      mstore\n      0x04\n      add\n      tag_113\n      swap1\n      tag_114\n      jump\t// in\n    tag_113:\n      mload(0x40)\n      dup1\n      swap2\n      sub\n      swap1\n      revert\n    tag_112:\n        /* \"contracts/MultiSigWallet.sol\":2687:2718  Transaction storage transaction */\n      0x00\n        /* \"contracts/MultiSigWallet.sol\":2721:2733  transactions */\n      0x04\n        /* \"contracts/MultiSigWallet.sol\":2734:2739  _txId */\n      dup6\n        /* \"contracts/MultiSigWallet.sol\":2721:2740  transactions[_txId] */\n      dup2\n      sload\n      dup2\n      lt\n      tag_115\n      jumpi\n      tag_116\n      tag_46\n      jump\t// in\n    tag_116:\n    tag_115:\n      swap1\n      0x00\n      mstore\n      keccak256(0x00, 0x20)\n      swap1\n      0x04\n      mul\n      add\n        /* \"contracts/MultiSigWallet.sol\":2687:2740  Transaction storage transaction = transactions[_txId] */\n      swap1\n      pop\n        /* \"contracts/MultiSigWallet.sol\":2753:2765  bool success */\n      0x00\n        /* \"contracts/MultiSigWallet.sol\":2771:2782  transaction */\n      dup2\n        /* \"contracts/MultiSigWallet.sol\":2771:2785  transaction.to */\n      0x00\n      add\n      0x00\n      swap1\n      sload\n      swap1\n      0x0100\n      exp\n      swap1\n      div\n      0xffffffffffffffffffffffffffffffffffffffff\n      and\n        /* \"contracts/MultiSigWallet.sol\":2771:2790  transaction.to.call */\n      0xffffffffffffffffffffffffffffffffffffffff\n      and\n        /* \"contracts/MultiSigWallet.sol\":2798:2809  transaction */\n      dup3\n        /* \"contracts/MultiSigWallet.sol\":2798:2815  transaction.value */\n      0x01\n      add\n      sload\n        /* \"contracts/MultiSigWallet.sol\":2817:2828  transaction */\n      dup4\n        /* \"contracts/MultiSigWallet.sol\":2817:2833  transaction.data */\n      0x03\n      add\n        /* \"contracts/MultiSigWallet.sol\":2771:2834  transaction.to.call{value: transaction.value}(transaction.data) */\n      mload(0x40)\n      tag_118\n      swap2\n      swap1\n      tag_119\n      jump\t// in\n    tag_118:\n      0x00\n      mload(0x40)\n      dup1\n      dup4\n      sub\n      dup2\n      dup6\n      dup8\n      gas\n      call\n      swap3\n      pop\n      pop\n      pop\n      returndatasize\n      dup1\n      0x00\n      dup2\n      eq\n      tag_122\n      jumpi\n      mload(0x40)\n      swap2\n      pop\n      and(add(returndatasize, 0x3f), not(0x1f))\n      dup3\n      add\n      0x40\n      mstore\n      returndatasize\n      dup3\n      mstore\n      returndatasize\n      0x00\n      0x20\n      dup5\n      add\n      returndatacopy\n      jump(tag_121)\n    tag_122:\n      0x60\n      swap2\n      pop\n    tag_121:\n      pop\n        /* \"contracts/MultiSigWallet.sol\":2752:2834  (bool success, ) = transaction.to.call{value: transaction.value}(transaction.data) */\n      pop\n      swap1\n      pop\n        /* \"contracts/MultiSigWallet.sol\":2855:2862  success */\n      dup1\n        /* \"contracts/MultiSigWallet.sol\":2847:2889  require(success, \"Transaction Incomplete\") */\n      tag_123\n      jumpi\n      mload(0x40)\n      0x08c379a000000000000000000000000000000000000000000000000000000000\n      dup2\n      mstore\n      0x04\n      add\n      tag_124\n      swap1\n      tag_125\n      jump\t// in\n    tag_124:\n      mload(0x40)\n      dup1\n      swap2\n      sub\n      swap1\n      revert\n    tag_123:\n        /* \"contracts/MultiSigWallet.sol\":2923:2927  true */\n      0x01\n        /* \"contracts/MultiSigWallet.sol\":2900:2911  transaction */\n      dup3\n        /* \"contracts/MultiSigWallet.sol\":2900:2920  transaction.executed */\n      0x02\n      add\n      0x00\n        /* \"contracts/MultiSigWallet.sol\":2900:2927  transaction.executed = true */\n      0x0100\n      exp\n      dup2\n      sload\n      dup2\n      0xff\n      mul\n      not\n      and\n      swap1\n      dup4\n      iszero\n      iszero\n      mul\n      or\n      swap1\n      sstore\n      pop\n        /* \"contracts/MultiSigWallet.sol\":2603:2945  {... */\n      pop\n      pop\n        /* \"contracts/MultiSigWallet.sol\":1429:1585  {... */\n      pop\n        /* \"contracts/MultiSigWallet.sol\":1245:1246  _ */\n      pop\n        /* \"contracts/MultiSigWallet.sol\":2509:2945  function executeTransaction(uint _txId) external existTrans(_txId) onlyOwner isNotExec(_txId) {... */\n      pop\n      pop\n      jump\t// out\n        /* \"contracts/MultiSigWallet.sol\":1593:1809  function canExec(uint _txId) private view returns(uint count){... */\n    tag_111:\n        /* \"contracts/MultiSigWallet.sol\":1643:1653  uint count */\n      0x00\n        /* \"contracts/MultiSigWallet.sol\":1669:1675  uint i */\n      dup1\n        /* \"contracts/MultiSigWallet.sol\":1665:1802  for(uint i; i < owners.length ; i++){... */\n    tag_127:\n        /* \"contracts/MultiSigWallet.sol\":1681:1687  owners */\n      0x00\n        /* \"contracts/MultiSigWallet.sol\":1681:1694  owners.length */\n      dup1\n      sload\n      swap1\n      pop\n        /* \"contracts/MultiSigWallet.sol\":1677:1678  i */\n      dup2\n        /* \"contracts/MultiSigWallet.sol\":1677:1694  i < owners.length */\n      lt\n        /* \"contracts/MultiSigWallet.sol\":1665:1802  for(uint i; i < owners.length ; i++){... */\n      iszero\n      tag_128\n      jumpi\n        /* \"contracts/MultiSigWallet.sol\":1719:1727  approval */\n      0x03\n        /* \"contracts/MultiSigWallet.sol\":1719:1734  approval[_txId] */\n      0x00\n        /* \"contracts/MultiSigWallet.sol\":1728:1733  _txId */\n      dup5\n        /* \"contracts/MultiSigWallet.sol\":1719:1734  approval[_txId] */\n      dup2\n      mstore\n      0x20\n      add\n      swap1\n      dup2\n      mstore\n      0x20\n      add\n      0x00\n      keccak256\n        /* \"contracts/MultiSigWallet.sol\":1719:1745  approval[_txId][owners[i]] */\n      0x00\n        /* \"contracts/MultiSigWallet.sol\":1735:1741  owners */\n      dup1\n        /* \"contracts/MultiSigWallet.sol\":1742:1743  i */\n      dup4\n        /* \"contracts/MultiSigWallet.sol\":1735:1744  owners[i] */\n      dup2\n      sload\n      dup2\n      lt\n      tag_130\n      jumpi\n      tag_131\n      tag_46\n      jump\t// in\n    tag_131:\n    tag_130:\n      swap1\n      0x00\n      mstore\n      keccak256(0x00, 0x20)\n      add\n      0x00\n      swap1\n      sload\n      swap1\n      0x0100\n      exp\n      swap1\n      div\n      0xffffffffffffffffffffffffffffffffffffffff\n      and\n        /* \"contracts/MultiSigWallet.sol\":1719:1745  approval[_txId][owners[i]] */\n      0xffffffffffffffffffffffffffffffffffffffff\n      and\n      0xffffffffffffffffffffffffffffffffffffffff\n      and\n      dup2\n      mstore\n      0x20\n      add\n      swap1\n      dup2\n      mstore\n      0x20\n      add\n      0x00\n      keccak256\n      0x00\n      swap1\n      sload\n      swap1\n      0x0100\n      exp\n      swap1\n      div\n      0xff\n      and\n        /* \"contracts/MultiSigWallet.sol\":1716:1791  if(approval[_txId][owners[i]]){... */\n      iszero\n      tag_133\n      jumpi\n        /* \"contracts/MultiSigWallet.sol\":1774:1775  1 */\n      0x01\n        /* \"contracts/MultiSigWallet.sol\":1765:1775  count += 1 */\n      dup3\n      tag_134\n      swap2\n      swap1\n      tag_135\n      jump\t// in\n    tag_134:\n      swap2\n      pop\n        /* \"contracts/MultiSigWallet.sol\":1716:1791  if(approval[_txId][owners[i]]){... */\n    tag_133:\n        /* \"contracts/MultiSigWallet.sol\":1697:1700  i++ */\n      dup1\n      dup1\n      tag_136\n      swap1\n      tag_137\n      jump\t// in\n    tag_136:\n      swap2\n      pop\n      pop\n        /* \"contracts/MultiSigWallet.sol\":1665:1802  for(uint i; i < owners.length ; i++){... */\n      jump(tag_127)\n    tag_128:\n      pop\n        /* \"contracts/MultiSigWallet.sol\":1593:1809  function canExec(uint _txId) private view returns(uint count){... */\n      swap2\n      swap1\n      pop\n      jump\t// out\n        /* \"#utility.yul\":7:133   */\n    tag_138:\n        /* \"#utility.yul\":44:51   */\n      0x00\n        /* \"#utility.yul\":84:126   */\n      0xffffffffffffffffffffffffffffffffffffffff\n        /* \"#utility.yul\":77:82   */\n      dup3\n        /* \"#utility.yul\":73:127   */\n      and\n        /* \"#utility.yul\":62:127   */\n      swap1\n      pop\n        /* \"#utility.yul\":7:133   */\n      swap2\n      swap1\n      pop\n      jump\t// out\n        /* \"#utility.yul\":139:235   */\n    tag_139:\n        /* \"#utility.yul\":176:183   */\n      0x00\n        /* \"#utility.yul\":205:229   */\n      tag_193\n        /* \"#utility.yul\":223:228   */\n      dup3\n        /* \"#utility.yul\":205:229   */\n      tag_138\n      jump\t// in\n    tag_193:\n        /* \"#utility.yul\":194:229   */\n      swap1\n      pop\n        /* \"#utility.yul\":139:235   */\n      swap2\n      swap1\n      pop\n      jump\t// out\n        /* \"#utility.yul\":241:359   */\n    tag_140:\n        /* \"#utility.yul\":328:352   */\n      tag_195\n        /* \"#utility.yul\":346:351   */\n      dup2\n        /* \"#utility.yul\":328:352   */\n      tag_139\n      jump\t// in\n    tag_195:\n        /* \"#utility.yul\":323:326   */\n      dup3\n        /* \"#utility.yul\":316:353   */\n      mstore\n        /* \"#utility.yul\":241:359   */\n      pop\n      pop\n      jump\t// out\n        /* \"#utility.yul\":365:442   */\n    tag_141:\n        /* \"#utility.yul\":402:409   */\n      0x00\n        /* \"#utility.yul\":431:436   */\n      dup2\n        /* \"#utility.yul\":420:436   */\n      swap1\n      pop\n        /* \"#utility.yul\":365:442   */\n      swap2\n      swap1\n      pop\n      jump\t// out\n        /* \"#utility.yul\":448:566   */\n    tag_142:\n        /* \"#utility.yul\":535:559   */\n      tag_198\n        /* \"#utility.yul\":553:558   */\n      dup2\n        /* \"#utility.yul\":535:559   */\n      tag_141\n      jump\t// in\n    tag_198:\n        /* \"#utility.yul\":530:533   */\n      dup3\n        /* \"#utility.yul\":523:560   */\n      mstore\n        /* \"#utility.yul\":448:566   */\n      pop\n      pop\n      jump\t// out\n        /* \"#utility.yul\":572:904   */\n    tag_10:\n        /* \"#utility.yul\":693:697   */\n      0x00\n        /* \"#utility.yul\":731:733   */\n      0x40\n        /* \"#utility.yul\":720:729   */\n      dup3\n        /* \"#utility.yul\":716:734   */\n      add\n        /* \"#utility.yul\":708:734   */\n      swap1\n      pop\n        /* \"#utility.yul\":744:815   */\n      tag_200\n        /* \"#utility.yul\":812:813   */\n      0x00\n        /* \"#utility.yul\":801:810   */\n      dup4\n        /* \"#utility.yul\":797:814   */\n      add\n        /* \"#utility.yul\":788:794   */\n      dup6\n        /* \"#utility.yul\":744:815   */\n      tag_140\n      jump\t// in\n    tag_200:\n        /* \"#utility.yul\":825:897   */\n      tag_201\n        /* \"#utility.yul\":893:895   */\n      0x20\n        /* \"#utility.yul\":882:891   */\n      dup4\n        /* \"#utility.yul\":878:896   */\n      add\n        /* \"#utility.yul\":869:875   */\n      dup5\n        /* \"#utility.yul\":825:897   */\n      tag_142\n      jump\t// in\n    tag_201:\n        /* \"#utility.yul\":572:904   */\n      swap4\n      swap3\n      pop\n      pop\n      pop\n      jump\t// out\n        /* \"#utility.yul\":991:1108   */\n    tag_144:\n        /* \"#utility.yul\":1100:1101   */\n      0x00\n        /* \"#utility.yul\":1097:1098   */\n      dup1\n        /* \"#utility.yul\":1090:1102   */\n      revert\n        /* \"#utility.yul\":1114:1231   */\n    tag_145:\n        /* \"#utility.yul\":1223:1224   */\n      0x00\n        /* \"#utility.yul\":1220:1221   */\n      dup1\n        /* \"#utility.yul\":1213:1225   */\n      revert\n        /* \"#utility.yul\":1237:1359   */\n    tag_146:\n        /* \"#utility.yul\":1310:1334   */\n      tag_206\n        /* \"#utility.yul\":1328:1333   */\n      dup2\n        /* \"#utility.yul\":1310:1334   */\n      tag_141\n      jump\t// in\n    tag_206:\n        /* \"#utility.yul\":1303:1308   */\n      dup2\n        /* \"#utility.yul\":1300:1335   */\n      eq\n        /* \"#utility.yul\":1290:1353   */\n      tag_207\n      jumpi\n        /* \"#utility.yul\":1349:1350   */\n      0x00\n        /* \"#utility.yul\":1346:1347   */\n      dup1\n        /* \"#utility.yul\":1339:1351   */\n      revert\n        /* \"#utility.yul\":1290:1353   */\n    tag_207:\n        /* \"#utility.yul\":1237:1359   */\n      pop\n      jump\t// out\n        /* \"#utility.yul\":1365:1504   */\n    tag_147:\n        /* \"#utility.yul\":1411:1416   */\n      0x00\n        /* \"#utility.yul\":1449:1455   */\n      dup2\n        /* \"#utility.yul\":1436:1456   */\n      calldataload\n        /* \"#utility.yul\":1427:1456   */\n      swap1\n      pop\n        /* \"#utility.yul\":1465:1498   */\n      tag_209\n        /* \"#utility.yul\":1492:1497   */\n      dup2\n        /* \"#utility.yul\":1465:1498   */\n      tag_146\n      jump\t// in\n    tag_209:\n        /* \"#utility.yul\":1365:1504   */\n      swap3\n      swap2\n      pop\n      pop\n      jump\t// out\n        /* \"#utility.yul\":1510:1839   */\n    tag_14:\n        /* \"#utility.yul\":1569:1575   */\n      0x00\n        /* \"#utility.yul\":1618:1620   */\n      0x20\n        /* \"#utility.yul\":1606:1615   */\n      dup3\n        /* \"#utility.yul\":1597:1604   */\n      dup5\n        /* \"#utility.yul\":1593:1616   */\n      sub\n        /* \"#utility.yul\":1589:1621   */\n      slt\n        /* \"#utility.yul\":1586:1705   */\n      iszero\n      tag_211\n      jumpi\n        /* \"#utility.yul\":1624:1703   */\n      tag_212\n      tag_144\n      jump\t// in\n    tag_212:\n        /* \"#utility.yul\":1586:1705   */\n    tag_211:\n        /* \"#utility.yul\":1744:1745   */\n      0x00\n        /* \"#utility.yul\":1769:1822   */\n      tag_213\n        /* \"#utility.yul\":1814:1821   */\n      dup5\n        /* \"#utility.yul\":1805:1811   */\n      dup3\n        /* \"#utility.yul\":1794:1803   */\n      dup6\n        /* \"#utility.yul\":1790:1812   */\n      add\n        /* \"#utility.yul\":1769:1822   */\n      tag_147\n      jump\t// in\n    tag_213:\n        /* \"#utility.yul\":1759:1822   */\n      swap2\n      pop\n        /* \"#utility.yul\":1715:1832   */\n      pop\n        /* \"#utility.yul\":1510:1839   */\n      swap3\n      swap2\n      pop\n      pop\n      jump\t// out\n        /* \"#utility.yul\":1845:1967   */\n    tag_148:\n        /* \"#utility.yul\":1918:1942   */\n      tag_215\n        /* \"#utility.yul\":1936:1941   */\n      dup2\n        /* \"#utility.yul\":1918:1942   */\n      tag_139\n      jump\t// in\n    tag_215:\n        /* \"#utility.yul\":1911:1916   */\n      dup2\n        /* \"#utility.yul\":1908:1943   */\n      eq\n        /* \"#utility.yul\":1898:1961   */\n      tag_216\n      jumpi\n        /* \"#utility.yul\":1957:1958   */\n      0x00\n        /* \"#utility.yul\":1954:1955   */\n      dup1\n        /* \"#utility.yul\":1947:1959   */\n      revert\n        /* \"#utility.yul\":1898:1961   */\n    tag_216:\n        /* \"#utility.yul\":1845:1967   */\n      pop\n      jump\t// out\n        /* \"#utility.yul\":1973:2112   */\n    tag_149:\n        /* \"#utility.yul\":2019:2024   */\n      0x00\n        /* \"#utility.yul\":2057:2063   */\n      dup2\n        /* \"#utility.yul\":2044:2064   */\n      calldataload\n        /* \"#utility.yul\":2035:2064   */\n      swap1\n      pop\n        /* \"#utility.yul\":2073:2106   */\n      tag_218\n        /* \"#utility.yul\":2100:2105   */\n      dup2\n        /* \"#utility.yul\":2073:2106   */\n      tag_148\n      jump\t// in\n    tag_218:\n        /* \"#utility.yul\":1973:2112   */\n      swap3\n      swap2\n      pop\n      pop\n      jump\t// out\n        /* \"#utility.yul\":2118:2235   */\n    tag_150:\n        /* \"#utility.yul\":2227:2228   */\n      0x00\n        /* \"#utility.yul\":2224:2225   */\n      dup1\n        /* \"#utility.yul\":2217:2229   */\n      revert\n        /* \"#utility.yul\":2241:2358   */\n    tag_151:\n        /* \"#utility.yul\":2350:2351   */\n      0x00\n        /* \"#utility.yul\":2347:2348   */\n      dup1\n        /* \"#utility.yul\":2340:2352   */\n      revert\n        /* \"#utility.yul\":2364:2481   */\n    tag_152:\n        /* \"#utility.yul\":2473:2474   */\n      0x00\n        /* \"#utility.yul\":2470:2471   */\n      dup1\n        /* \"#utility.yul\":2463:2475   */\n      revert\n        /* \"#utility.yul\":2500:3052   */\n    tag_153:\n        /* \"#utility.yul\":2557:2565   */\n      0x00\n        /* \"#utility.yul\":2567:2573   */\n      dup1\n        /* \"#utility.yul\":2617:2620   */\n      dup4\n        /* \"#utility.yul\":2610:2614   */\n      0x1f\n        /* \"#utility.yul\":2602:2608   */\n      dup5\n        /* \"#utility.yul\":2598:2615   */\n      add\n        /* \"#utility.yul\":2594:2621   */\n      slt\n        /* \"#utility.yul\":2584:2706   */\n      tag_223\n      jumpi\n        /* \"#utility.yul\":2625:2704   */\n      tag_224\n      tag_150\n      jump\t// in\n    tag_224:\n        /* \"#utility.yul\":2584:2706   */\n    tag_223:\n        /* \"#utility.yul\":2738:2744   */\n      dup3\n        /* \"#utility.yul\":2725:2745   */\n      calldataload\n        /* \"#utility.yul\":2715:2745   */\n      swap1\n      pop\n        /* \"#utility.yul\":2768:2786   */\n      0xffffffffffffffff\n        /* \"#utility.yul\":2760:2766   */\n      dup2\n        /* \"#utility.yul\":2757:2787   */\n      gt\n        /* \"#utility.yul\":2754:2871   */\n      iszero\n      tag_225\n      jumpi\n        /* \"#utility.yul\":2790:2869   */\n      tag_226\n      tag_151\n      jump\t// in\n    tag_226:\n        /* \"#utility.yul\":2754:2871   */\n    tag_225:\n        /* \"#utility.yul\":2904:2908   */\n      0x20\n        /* \"#utility.yul\":2896:2902   */\n      dup4\n        /* \"#utility.yul\":2892:2909   */\n      add\n        /* \"#utility.yul\":2880:2909   */\n      swap2\n      pop\n        /* \"#utility.yul\":2958:2961   */\n      dup4\n        /* \"#utility.yul\":2950:2954   */\n      0x01\n        /* \"#utility.yul\":2942:2948   */\n      dup3\n        /* \"#utility.yul\":2938:2955   */\n      mul\n        /* \"#utility.yul\":2928:2936   */\n      dup4\n        /* \"#utility.yul\":2924:2956   */\n      add\n        /* \"#utility.yul\":2921:2962   */\n      gt\n        /* \"#utility.yul\":2918:3046   */\n      iszero\n      tag_227\n      jumpi\n        /* \"#utility.yul\":2965:3044   */\n      tag_228\n      tag_152\n      jump\t// in\n    tag_228:\n        /* \"#utility.yul\":2918:3046   */\n    tag_227:\n        /* \"#utility.yul\":2500:3052   */\n      swap3\n      pop\n      swap3\n      swap1\n      pop\n      jump\t// out\n        /* \"#utility.yul\":3058:3875   */\n    tag_23:\n        /* \"#utility.yul\":3146:3152   */\n      0x00\n        /* \"#utility.yul\":3154:3160   */\n      dup1\n        /* \"#utility.yul\":3162:3168   */\n      0x00\n        /* \"#utility.yul\":3170:3176   */\n      dup1\n        /* \"#utility.yul\":3219:3221   */\n      0x60\n        /* \"#utility.yul\":3207:3216   */\n      dup6\n        /* \"#utility.yul\":3198:3205   */\n      dup8\n        /* \"#utility.yul\":3194:3217   */\n      sub\n        /* \"#utility.yul\":3190:3222   */\n      slt\n        /* \"#utility.yul\":3187:3306   */\n      iszero\n      tag_230\n      jumpi\n        /* \"#utility.yul\":3225:3304   */\n      tag_231\n      tag_144\n      jump\t// in\n    tag_231:\n        /* \"#utility.yul\":3187:3306   */\n    tag_230:\n        /* \"#utility.yul\":3345:3346   */\n      0x00\n        /* \"#utility.yul\":3370:3423   */\n      tag_232\n        /* \"#utility.yul\":3415:3422   */\n      dup8\n        /* \"#utility.yul\":3406:3412   */\n      dup3\n        /* \"#utility.yul\":3395:3404   */\n      dup9\n        /* \"#utility.yul\":3391:3413   */\n      add\n        /* \"#utility.yul\":3370:3423   */\n      tag_149\n      jump\t// in\n    tag_232:\n        /* \"#utility.yul\":3360:3423   */\n      swap5\n      pop\n        /* \"#utility.yul\":3316:3433   */\n      pop\n        /* \"#utility.yul\":3472:3474   */\n      0x20\n        /* \"#utility.yul\":3498:3551   */\n      tag_233\n        /* \"#utility.yul\":3543:3550   */\n      dup8\n        /* \"#utility.yul\":3534:3540   */\n      dup3\n        /* \"#utility.yul\":3523:3532   */\n      dup9\n        /* \"#utility.yul\":3519:3541   */\n      add\n        /* \"#utility.yul\":3498:3551   */\n      tag_147\n      jump\t// in\n    tag_233:\n        /* \"#utility.yul\":3488:3551   */\n      swap4\n      pop\n        /* \"#utility.yul\":3443:3561   */\n      pop\n        /* \"#utility.yul\":3628:3630   */\n      0x40\n        /* \"#utility.yul\":3617:3626   */\n      dup6\n        /* \"#utility.yul\":3613:3631   */\n      add\n        /* \"#utility.yul\":3600:3632   */\n      calldataload\n        /* \"#utility.yul\":3659:3677   */\n      0xffffffffffffffff\n        /* \"#utility.yul\":3651:3657   */\n      dup2\n        /* \"#utility.yul\":3648:3678   */\n      gt\n        /* \"#utility.yul\":3645:3762   */\n      iszero\n      tag_234\n      jumpi\n        /* \"#utility.yul\":3681:3760   */\n      tag_235\n      tag_145\n      jump\t// in\n    tag_235:\n        /* \"#utility.yul\":3645:3762   */\n    tag_234:\n        /* \"#utility.yul\":3794:3858   */\n      tag_236\n        /* \"#utility.yul\":3850:3857   */\n      dup8\n        /* \"#utility.yul\":3841:3847   */\n      dup3\n        /* \"#utility.yul\":3830:3839   */\n      dup9\n        /* \"#utility.yul\":3826:3848   */\n      add\n        /* \"#utility.yul\":3794:3858   */\n      tag_153\n      jump\t// in\n    tag_236:\n        /* \"#utility.yul\":3776:3858   */\n      swap3\n      pop\n      swap3\n      pop\n        /* \"#utility.yul\":3571:3868   */\n      pop\n        /* \"#utility.yul\":3058:3875   */\n      swap3\n      swap6\n      swap2\n      swap5\n      pop\n      swap3\n      pop\n      jump\t// out\n        /* \"#utility.yul\":3881:4050   */\n    tag_154:\n        /* \"#utility.yul\":3965:3976   */\n      0x00\n        /* \"#utility.yul\":3999:4005   */\n      dup3\n        /* \"#utility.yul\":3994:3997   */\n      dup3\n        /* \"#utility.yul\":3987:4006   */\n      mstore\n        /* \"#utility.yul\":4039:4043   */\n      0x20\n        /* \"#utility.yul\":4034:4037   */\n      dup3\n        /* \"#utility.yul\":4030:4044   */\n      add\n        /* \"#utility.yul\":4015:4044   */\n      swap1\n      pop\n        /* \"#utility.yul\":3881:4050   */\n      swap3\n      swap2\n      pop\n      pop\n      jump\t// out\n        /* \"#utility.yul\":4056:4237   */\n    tag_155:\n        /* \"#utility.yul\":4196:4229   */\n      0x5472616e73616374696f6e20416c726561647920417070726f7665642e2e2e00\n        /* \"#utility.yul\":4192:4193   */\n      0x00\n        /* \"#utility.yul\":4184:4190   */\n      dup3\n        /* \"#utility.yul\":4180:4194   */\n      add\n        /* \"#utility.yul\":4173:4230   */\n      mstore\n        /* \"#utility.yul\":4056:4237   */\n      pop\n      jump\t// out\n        /* \"#utility.yul\":4243:4609   */\n    tag_156:\n        /* \"#utility.yul\":4385:4388   */\n      0x00\n        /* \"#utility.yul\":4406:4473   */\n      tag_240\n        /* \"#utility.yul\":4470:4472   */\n      0x1f\n        /* \"#utility.yul\":4465:4468   */\n      dup4\n        /* \"#utility.yul\":4406:4473   */\n      tag_154\n      jump\t// in\n    tag_240:\n        /* \"#utility.yul\":4399:4473   */\n      swap2\n      pop\n        /* \"#utility.yul\":4482:4575   */\n      tag_241\n        /* \"#utility.yul\":4571:4574   */\n      dup3\n        /* \"#utility.yul\":4482:4575   */\n      tag_155\n      jump\t// in\n    tag_241:\n        /* \"#utility.yul\":4600:4602   */\n      0x20\n        /* \"#utility.yul\":4595:4598   */\n      dup3\n        /* \"#utility.yul\":4591:4603   */\n      add\n        /* \"#utility.yul\":4584:4603   */\n      swap1\n      pop\n        /* \"#utility.yul\":4243:4609   */\n      swap2\n      swap1\n      pop\n      jump\t// out\n        /* \"#utility.yul\":4615:5034   */\n    tag_32:\n        /* \"#utility.yul\":4781:4785   */\n      0x00\n        /* \"#utility.yul\":4819:4821   */\n      0x20\n        /* \"#utility.yul\":4808:4817   */\n      dup3\n        /* \"#utility.yul\":4804:4822   */\n      add\n        /* \"#utility.yul\":4796:4822   */\n      swap1\n      pop\n        /* \"#utility.yul\":4868:4877   */\n      dup2\n        /* \"#utility.yul\":4862:4866   */\n      dup2\n        /* \"#utility.yul\":4858:4878   */\n      sub\n        /* \"#utility.yul\":4854:4855   */\n      0x00\n        /* \"#utility.yul\":4843:4852   */\n      dup4\n        /* \"#utility.yul\":4839:4856   */\n      add\n        /* \"#utility.yul\":4832:4879   */\n      mstore\n        /* \"#utility.yul\":4896:5027   */\n      tag_243\n        /* \"#utility.yul\":5022:5026   */\n      dup2\n        /* \"#utility.yul\":4896:5027   */\n      tag_156\n      jump\t// in\n    tag_243:\n        /* \"#utility.yul\":4888:5027   */\n      swap1\n      pop\n        /* \"#utility.yul\":4615:5034   */\n      swap2\n      swap1\n      pop\n      jump\t// out\n        /* \"#utility.yul\":5040:5220   */\n    tag_157:\n        /* \"#utility.yul\":5088:5165   */\n      0x4e487b7100000000000000000000000000000000000000000000000000000000\n        /* \"#utility.yul\":5085:5086   */\n      0x00\n        /* \"#utility.yul\":5078:5166   */\n      mstore\n        /* \"#utility.yul\":5185:5189   */\n      0x11\n        /* \"#utility.yul\":5182:5183   */\n      0x04\n        /* \"#utility.yul\":5175:5190   */\n      mstore\n        /* \"#utility.yul\":5209:5213   */\n      0x24\n        /* \"#utility.yul\":5206:5207   */\n      0x00\n        /* \"#utility.yul\":5199:5214   */\n      revert\n        /* \"#utility.yul\":5226:5420   */\n    tag_35:\n        /* \"#utility.yul\":5266:5270   */\n      0x00\n        /* \"#utility.yul\":5286:5306   */\n      tag_246\n        /* \"#utility.yul\":5304:5305   */\n      dup3\n        /* \"#utility.yul\":5286:5306   */\n      tag_141\n      jump\t// in\n    tag_246:\n        /* \"#utility.yul\":5281:5306   */\n      swap2\n      pop\n        /* \"#utility.yul\":5320:5340   */\n      tag_247\n        /* \"#utility.yul\":5338:5339   */\n      dup4\n        /* \"#utility.yul\":5320:5340   */\n      tag_141\n      jump\t// in\n    tag_247:\n        /* \"#utility.yul\":5315:5340   */\n      swap3\n      pop\n        /* \"#utility.yul\":5364:5365   */\n      dup3\n        /* \"#utility.yul\":5361:5362   */\n      dup3\n        /* \"#utility.yul\":5357:5366   */\n      sub\n        /* \"#utility.yul\":5349:5366   */\n      swap1\n      pop\n        /* \"#utility.yul\":5388:5389   */\n      dup2\n        /* \"#utility.yul\":5382:5386   */\n      dup2\n        /* \"#utility.yul\":5379:5390   */\n      gt\n        /* \"#utility.yul\":5376:5413   */\n      iszero\n      tag_248\n      jumpi\n        /* \"#utility.yul\":5393:5411   */\n      tag_249\n      tag_157\n      jump\t// in\n    tag_249:\n        /* \"#utility.yul\":5376:5413   */\n    tag_248:\n        /* \"#utility.yul\":5226:5420   */\n      swap3\n      swap2\n      pop\n      pop\n      jump\t// out\n        /* \"#utility.yul\":5426:5605   */\n    tag_158:\n        /* \"#utility.yul\":5566:5597   */\n      0x5472616e73616374696f6e20446f6573206e6f742045786973742e2e2e000000\n        /* \"#utility.yul\":5562:5563   */\n      0x00\n        /* \"#utility.yul\":5554:5560   */\n      dup3\n        /* \"#utility.yul\":5550:5564   */\n      add\n        /* \"#utility.yul\":5543:5598   */\n      mstore\n        /* \"#utility.yul\":5426:5605   */\n      pop\n      jump\t// out\n        /* \"#utility.yul\":5611:5977   */\n    tag_159:\n        /* \"#utility.yul\":5753:5756   */\n      0x00\n        /* \"#utility.yul\":5774:5841   */\n      tag_252\n        /* \"#utility.yul\":5838:5840   */\n      0x1d\n        /* \"#utility.yul\":5833:5836   */\n      dup4\n        /* \"#utility.yul\":5774:5841   */\n      tag_154\n      jump\t// in\n    tag_252:\n        /* \"#utility.yul\":5767:5841   */\n      swap2\n      pop\n        /* \"#utility.yul\":5850:5943   */\n      tag_253\n        /* \"#utility.yul\":5939:5942   */\n      dup3\n        /* \"#utility.yul\":5850:5943   */\n      tag_158\n      jump\t// in\n    tag_253:\n        /* \"#utility.yul\":5968:5970   */\n      0x20\n        /* \"#utility.yul\":5963:5966   */\n      dup3\n        /* \"#utility.yul\":5959:5971   */\n      add\n        /* \"#utility.yul\":5952:5971   */\n      swap1\n      pop\n        /* \"#utility.yul\":5611:5977   */\n      swap2\n      swap1\n      pop\n      jump\t// out\n        /* \"#utility.yul\":5983:6402   */\n    tag_38:\n        /* \"#utility.yul\":6149:6153   */\n      0x00\n        /* \"#utility.yul\":6187:6189   */\n      0x20\n        /* \"#utility.yul\":6176:6185   */\n      dup3\n        /* \"#utility.yul\":6172:6190   */\n      add\n        /* \"#utility.yul\":6164:6190   */\n      swap1\n      pop\n        /* \"#utility.yul\":6236:6245   */\n      dup2\n        /* \"#utility.yul\":6230:6234   */\n      dup2\n        /* \"#utility.yul\":6226:6246   */\n      sub\n        /* \"#utility.yul\":6222:6223   */\n      0x00\n        /* \"#utility.yul\":6211:6220   */\n      dup4\n        /* \"#utility.yul\":6207:6224   */\n      add\n        /* \"#utility.yul\":6200:6247   */\n      mstore\n        /* \"#utility.yul\":6264:6395   */\n      tag_255\n        /* \"#utility.yul\":6390:6394   */\n      dup2\n        /* \"#utility.yul\":6264:6395   */\n      tag_159\n      jump\t// in\n    tag_255:\n        /* \"#utility.yul\":6256:6395   */\n      swap1\n      pop\n        /* \"#utility.yul\":5983:6402   */\n      swap2\n      swap1\n      pop\n      jump\t// out\n        /* \"#utility.yul\":6408:6575   */\n    tag_160:\n        /* \"#utility.yul\":6548:6567   */\n      0x4e6f7420746865204f776e65722e2e2e2e000000000000000000000000000000\n        /* \"#utility.yul\":6544:6545   */\n      0x00\n        /* \"#utility.yul\":6536:6542   */\n      dup3\n        /* \"#utility.yul\":6532:6546   */\n      add\n        /* \"#utility.yul\":6525:6568   */\n      mstore\n        /* \"#utility.yul\":6408:6575   */\n      pop\n      jump\t// out\n        /* \"#utility.yul\":6581:6947   */\n    tag_161:\n        /* \"#utility.yul\":6723:6726   */\n      0x00\n        /* \"#utility.yul\":6744:6811   */\n      tag_258\n        /* \"#utility.yul\":6808:6810   */\n      0x11\n        /* \"#utility.yul\":6803:6806   */\n      dup4\n        /* \"#utility.yul\":6744:6811   */\n      tag_154\n      jump\t// in\n    tag_258:\n        /* \"#utility.yul\":6737:6811   */\n      swap2\n      pop\n        /* \"#utility.yul\":6820:6913   */\n      tag_259\n        /* \"#utility.yul\":6909:6912   */\n      dup3\n        /* \"#utility.yul\":6820:6913   */\n      tag_160\n      jump\t// in\n    tag_259:\n        /* \"#utility.yul\":6938:6940   */\n      0x20\n        /* \"#utility.yul\":6933:6936   */\n      dup3\n        /* \"#utility.yul\":6929:6941   */\n      add\n        /* \"#utility.yul\":6922:6941   */\n      swap1\n      pop\n        /* \"#utility.yul\":6581:6947   */\n      swap2\n      swap1\n      pop\n      jump\t// out\n        /* \"#utility.yul\":6953:7372   */\n    tag_42:\n        /* \"#utility.yul\":7119:7123   */\n      0x00\n        /* \"#utility.yul\":7157:7159   */\n      0x20\n        /* \"#utility.yul\":7146:7155   */\n      dup3\n        /* \"#utility.yul\":7142:7160   */\n      add\n        /* \"#utility.yul\":7134:7160   */\n      swap1\n      pop\n        /* \"#utility.yul\":7206:7215   */\n      dup2\n        /* \"#utility.yul\":7200:7204   */\n      dup2\n        /* \"#utility.yul\":7196:7216   */\n      sub\n        /* \"#utility.yul\":7192:7193   */\n      0x00\n        /* \"#utility.yul\":7181:7190   */\n      dup4\n        /* \"#utility.yul\":7177:7194   */\n      add\n        /* \"#utility.yul\":7170:7217   */\n      mstore\n        /* \"#utility.yul\":7234:7365   */\n      tag_261\n        /* \"#utility.yul\":7360:7364   */\n      dup2\n        /* \"#utility.yul\":7234:7365   */\n      tag_161\n      jump\t// in\n    tag_261:\n        /* \"#utility.yul\":7226:7365   */\n      swap1\n      pop\n        /* \"#utility.yul\":6953:7372   */\n      swap2\n      swap1\n      pop\n      jump\t// out\n        /* \"#utility.yul\":7378:7558   */\n    tag_46:\n        /* \"#utility.yul\":7426:7503   */\n      0x4e487b7100000000000000000000000000000000000000000000000000000000\n        /* \"#utility.yul\":7423:7424   */\n      0x00\n        /* \"#utility.yul\":7416:7504   */\n      mstore\n        /* \"#utility.yul\":7523:7527   */\n      0x32\n        /* \"#utility.yul\":7520:7521   */\n      0x04\n        /* \"#utility.yul\":7513:7528   */\n      mstore\n        /* \"#utility.yul\":7547:7551   */\n      0x24\n        /* \"#utility.yul\":7544:7545   */\n      0x00\n        /* \"#utility.yul\":7537:7552   */\n      revert\n        /* \"#utility.yul\":7564:7744   */\n    tag_162:\n        /* \"#utility.yul\":7612:7689   */\n      0x4e487b7100000000000000000000000000000000000000000000000000000000\n        /* \"#utility.yul\":7609:7610   */\n      0x00\n        /* \"#utility.yul\":7602:7690   */\n      mstore\n        /* \"#utility.yul\":7709:7713   */\n      0x22\n        /* \"#utility.yul\":7706:7707   */\n      0x04\n        /* \"#utility.yul\":7699:7714   */\n      mstore\n        /* \"#utility.yul\":7733:7737   */\n      0x24\n        /* \"#utility.yul\":7730:7731   */\n      0x00\n        /* \"#utility.yul\":7723:7738   */\n      revert\n        /* \"#utility.yul\":7750:8070   */\n    tag_49:\n        /* \"#utility.yul\":7794:7800   */\n      0x00\n        /* \"#utility.yul\":7831:7832   */\n      0x02\n        /* \"#utility.yul\":7825:7829   */\n      dup3\n        /* \"#utility.yul\":7821:7833   */\n      div\n        /* \"#utility.yul\":7811:7833   */\n      swap1\n      pop\n        /* \"#utility.yul\":7878:7879   */\n      0x01\n        /* \"#utility.yul\":7872:7876   */\n      dup3\n        /* \"#utility.yul\":7868:7880   */\n      and\n        /* \"#utility.yul\":7899:7917   */\n      dup1\n        /* \"#utility.yul\":7889:7970   */\n      tag_265\n      jumpi\n        /* \"#utility.yul\":7955:7959   */\n      0x7f\n        /* \"#utility.yul\":7947:7953   */\n      dup3\n        /* \"#utility.yul\":7943:7960   */\n      and\n        /* \"#utility.yul\":7933:7960   */\n      swap2\n      pop\n        /* \"#utility.yul\":7889:7970   */\n    tag_265:\n        /* \"#utility.yul\":8017:8019   */\n      0x20\n        /* \"#utility.yul\":8009:8015   */\n      dup3\n        /* \"#utility.yul\":8006:8020   */\n      lt\n        /* \"#utility.yul\":7986:8004   */\n      dup2\n        /* \"#utility.yul\":7983:8021   */\n      sub\n        /* \"#utility.yul\":7980:8064   */\n      tag_266\n      jumpi\n        /* \"#utility.yul\":8036:8054   */\n      tag_267\n      tag_162\n      jump\t// in\n    tag_267:\n        /* \"#utility.yul\":7980:8064   */\n    tag_266:\n        /* \"#utility.yul\":7801:8070   */\n      pop\n        /* \"#utility.yul\":7750:8070   */\n      swap2\n      swap1\n      pop\n      jump\t// out\n        /* \"#utility.yul\":8076:8254   */\n    tag_163:\n        /* \"#utility.yul\":8216:8246   */\n      0x5472616e73616374696f6e20416c726561647920457865637574656400000000\n        /* \"#utility.yul\":8212:8213   */\n      0x00\n        /* \"#utility.yul\":8204:8210   */\n      dup3\n        /* \"#utility.yul\":8200:8214   */\n      add\n        /* \"#utility.yul\":8193:8247   */\n      mstore\n        /* \"#utility.yul\":8076:8254   */\n      pop\n      jump\t// out\n        /* \"#utility.yul\":8260:8626   */\n    tag_164:\n        /* \"#utility.yul\":8402:8405   */\n      0x00\n        /* \"#utility.yul\":8423:8490   */\n      tag_270\n        /* \"#utility.yul\":8487:8489   */\n      0x1c\n        /* \"#utility.yul\":8482:8485   */\n      dup4\n        /* \"#utility.yul\":8423:8490   */\n      tag_154\n      jump\t// in\n    tag_270:\n        /* \"#utility.yul\":8416:8490   */\n      swap2\n      pop\n        /* \"#utility.yul\":8499:8592   */\n      tag_271\n        /* \"#utility.yul\":8588:8591   */\n      dup3\n        /* \"#utility.yul\":8499:8592   */\n      tag_163\n      jump\t// in\n    tag_271:\n        /* \"#utility.yul\":8617:8619   */\n      0x20\n        /* \"#utility.yul\":8612:8615   */\n      dup3\n        /* \"#utility.yul\":8608:8620   */\n      add\n        /* \"#utility.yul\":8601:8620   */\n      swap1\n      pop\n        /* \"#utility.yul\":8260:8626   */\n      swap2\n      swap1\n      pop\n      jump\t// out\n        /* \"#utility.yul\":8632:9051   */\n    tag_56:\n        /* \"#utility.yul\":8798:8802   */\n      0x00\n        /* \"#utility.yul\":8836:8838   */\n      0x20\n        /* \"#utility.yul\":8825:8834   */\n      dup3\n        /* \"#utility.yul\":8821:8839   */\n      add\n        /* \"#utility.yul\":8813:8839   */\n      swap1\n      pop\n        /* \"#utility.yul\":8885:8894   */\n      dup2\n        /* \"#utility.yul\":8879:8883   */\n      dup2\n        /* \"#utility.yul\":8875:8895   */\n      sub\n        /* \"#utility.yul\":8871:8872   */\n      0x00\n        /* \"#utility.yul\":8860:8869   */\n      dup4\n        /* \"#utility.yul\":8856:8873   */\n      add\n        /* \"#utility.yul\":8849:8896   */\n      mstore\n        /* \"#utility.yul\":8913:9044   */\n      tag_273\n        /* \"#utility.yul\":9039:9043   */\n      dup2\n        /* \"#utility.yul\":8913:9044   */\n      tag_164\n      jump\t// in\n    tag_273:\n        /* \"#utility.yul\":8905:9044   */\n      swap1\n      pop\n        /* \"#utility.yul\":8632:9051   */\n      swap2\n      swap1\n      pop\n      jump\t// out\n        /* \"#utility.yul\":9057:9389   */\n    tag_59:\n        /* \"#utility.yul\":9178:9182   */\n      0x00\n        /* \"#utility.yul\":9216:9218   */\n      0x40\n        /* \"#utility.yul\":9205:9214   */\n      dup3\n        /* \"#utility.yul\":9201:9219   */\n      add\n        /* \"#utility.yul\":9193:9219   */\n      swap1\n      pop\n        /* \"#utility.yul\":9229:9300   */\n      tag_275\n        /* \"#utility.yul\":9297:9298   */\n      0x00\n        /* \"#utility.yul\":9286:9295   */\n      dup4\n        /* \"#utility.yul\":9282:9299   */\n      add\n        /* \"#utility.yul\":9273:9279   */\n      dup6\n        /* \"#utility.yul\":9229:9300   */\n      tag_142\n      jump\t// in\n    tag_275:\n        /* \"#utility.yul\":9310:9382   */\n      tag_276\n        /* \"#utility.yul\":9378:9380   */\n      0x20\n        /* \"#utility.yul\":9367:9376   */\n      dup4\n        /* \"#utility.yul\":9363:9381   */\n      add\n        /* \"#utility.yul\":9354:9360   */\n      dup5\n        /* \"#utility.yul\":9310:9382   */\n      tag_140\n      jump\t// in\n    tag_276:\n        /* \"#utility.yul\":9057:9389   */\n      swap4\n      swap3\n      pop\n      pop\n      pop\n      jump\t// out\n        /* \"#utility.yul\":9395:9572   */\n    tag_165:\n        /* \"#utility.yul\":9535:9564   */\n      0x5472616e73616374696f6e204e6f7420417070726f7665642e2e2e0000000000\n        /* \"#utility.yul\":9531:9532   */\n      0x00\n        /* \"#utility.yul\":9523:9529   */\n      dup3\n        /* \"#utility.yul\":9519:9533   */\n      add\n        /* \"#utility.yul\":9512:9565   */\n      mstore\n        /* \"#utility.yul\":9395:9572   */\n      pop\n      jump\t// out\n        /* \"#utility.yul\":9578:9944   */\n    tag_166:\n        /* \"#utility.yul\":9720:9723   */\n      0x00\n        /* \"#utility.yul\":9741:9808   */\n      tag_279\n        /* \"#utility.yul\":9805:9807   */\n      0x1b\n        /* \"#utility.yul\":9800:9803   */\n      dup4\n        /* \"#utility.yul\":9741:9808   */\n      tag_154\n      jump\t// in\n    tag_279:\n        /* \"#utility.yul\":9734:9808   */\n      swap2\n      pop\n        /* \"#utility.yul\":9817:9910   */\n      tag_280\n        /* \"#utility.yul\":9906:9909   */\n      dup3\n        /* \"#utility.yul\":9817:9910   */\n      tag_165\n      jump\t// in\n    tag_280:\n        /* \"#utility.yul\":9935:9937   */\n      0x20\n        /* \"#utility.yul\":9930:9933   */\n      dup3\n        /* \"#utility.yul\":9926:9938   */\n      add\n        /* \"#utility.yul\":9919:9938   */\n      swap1\n      pop\n        /* \"#utility.yul\":9578:9944   */\n      swap2\n      swap1\n      pop\n      jump\t// out\n        /* \"#utility.yul\":9950:10369   */\n    tag_63:\n        /* \"#utility.yul\":10116:10120   */\n      0x00\n        /* \"#utility.yul\":10154:10156   */\n      0x20\n        /* \"#utility.yul\":10143:10152   */\n      dup3\n        /* \"#utility.yul\":10139:10157   */\n      add\n        /* \"#utility.yul\":10131:10157   */\n      swap1\n      pop\n        /* \"#utility.yul\":10203:10212   */\n      dup2\n        /* \"#utility.yul\":10197:10201   */\n      dup2\n        /* \"#utility.yul\":10193:10213   */\n      sub\n        /* \"#utility.yul\":10189:10190   */\n      0x00\n        /* \"#utility.yul\":10178:10187   */\n      dup4\n        /* \"#utility.yul\":10174:10191   */\n      add\n        /* \"#utility.yul\":10167:10214   */\n      mstore\n        /* \"#utility.yul\":10231:10362   */\n      tag_282\n        /* \"#utility.yul\":10357:10361   */\n      dup2\n        /* \"#utility.yul\":10231:10362   */\n      tag_166\n      jump\t// in\n    tag_282:\n        /* \"#utility.yul\":10223:10362   */\n      swap1\n      pop\n        /* \"#utility.yul\":9950:10369   */\n      swap2\n      swap1\n      pop\n      jump\t// out\n        /* \"#utility.yul\":10375:10473   */\n    tag_167:\n        /* \"#utility.yul\":10426:10432   */\n      0x00\n        /* \"#utility.yul\":10460:10465   */\n      dup2\n        /* \"#utility.yul\":10454:10466   */\n      mload\n        /* \"#utility.yul\":10444:10466   */\n      swap1\n      pop\n        /* \"#utility.yul\":10375:10473   */\n      swap2\n      swap1\n      pop\n      jump\t// out\n        /* \"#utility.yul\":10479:10659   */\n    tag_168:\n        /* \"#utility.yul\":10527:10604   */\n      0x4e487b7100000000000000000000000000000000000000000000000000000000\n        /* \"#utility.yul\":10524:10525   */\n      0x00\n        /* \"#utility.yul\":10517:10605   */\n      mstore\n        /* \"#utility.yul\":10624:10628   */\n      0x41\n        /* \"#utility.yul\":10621:10622   */\n      0x04\n        /* \"#utility.yul\":10614:10629   */\n      mstore\n        /* \"#utility.yul\":10648:10652   */\n      0x24\n        /* \"#utility.yul\":10645:10646   */\n      0x00\n        /* \"#utility.yul\":10638:10653   */\n      revert\n        /* \"#utility.yul\":10665:10805   */\n    tag_169:\n        /* \"#utility.yul\":10713:10717   */\n      0x00\n        /* \"#utility.yul\":10736:10739   */\n      dup2\n        /* \"#utility.yul\":10728:10739   */\n      swap1\n      pop\n        /* \"#utility.yul\":10759:10762   */\n      dup2\n        /* \"#utility.yul\":10756:10757   */\n      0x00\n        /* \"#utility.yul\":10749:10763   */\n      mstore\n        /* \"#utility.yul\":10793:10797   */\n      0x20\n        /* \"#utility.yul\":10790:10791   */\n      0x00\n        /* \"#utility.yul\":10780:10798   */\n      keccak256\n        /* \"#utility.yul\":10772:10798   */\n      swap1\n      pop\n        /* \"#utility.yul\":10665:10805   */\n      swap2\n      swap1\n      pop\n      jump\t// out\n        /* \"#utility.yul\":10811:10904   */\n    tag_170:\n        /* \"#utility.yul\":10848:10854   */\n      0x00\n        /* \"#utility.yul\":10895:10897   */\n      0x20\n        /* \"#utility.yul\":10890:10892   */\n      0x1f\n        /* \"#utility.yul\":10883:10888   */\n      dup4\n        /* \"#utility.yul\":10879:10893   */\n      add\n        /* \"#utility.yul\":10875:10898   */\n      div\n        /* \"#utility.yul\":10865:10898   */\n      swap1\n      pop\n        /* \"#utility.yul\":10811:10904   */\n      swap2\n      swap1\n      pop\n      jump\t// out\n        /* \"#utility.yul\":10910:11017   */\n    tag_171:\n        /* \"#utility.yul\":10954:10962   */\n      0x00\n        /* \"#utility.yul\":11004:11009   */\n      dup3\n        /* \"#utility.yul\":10998:11002   */\n      dup3\n        /* \"#utility.yul\":10994:11010   */\n      shl\n        /* \"#utility.yul\":10973:11010   */\n      swap1\n      pop\n        /* \"#utility.yul\":10910:11017   */\n      swap3\n      swap2\n      pop\n      pop\n      jump\t// out\n        /* \"#utility.yul\":11023:11416   */\n    tag_172:\n        /* \"#utility.yul\":11092:11098   */\n      0x00\n        /* \"#utility.yul\":11142:11143   */\n      0x08\n        /* \"#utility.yul\":11130:11140   */\n      dup4\n        /* \"#utility.yul\":11126:11144   */\n      mul\n        /* \"#utility.yul\":11165:11262   */\n      tag_289\n        /* \"#utility.yul\":11195:11261   */\n      0xffffffffffffffffffffffffffffffffffffffffffffffffffffffffffffffff\n        /* \"#utility.yul\":11184:11193   */\n      dup3\n        /* \"#utility.yul\":11165:11262   */\n      tag_171\n      jump\t// in\n    tag_289:\n        /* \"#utility.yul\":11283:11322   */\n      tag_290\n        /* \"#utility.yul\":11313:11321   */\n      dup7\n        /* \"#utility.yul\":11302:11311   */\n      dup4\n        /* \"#utility.yul\":11283:11322   */\n      tag_171\n      jump\t// in\n    tag_290:\n        /* \"#utility.yul\":11271:11322   */\n      swap6\n      pop\n        /* \"#utility.yul\":11355:11359   */\n      dup1\n        /* \"#utility.yul\":11351:11360   */\n      not\n        /* \"#utility.yul\":11344:11349   */\n      dup5\n        /* \"#utility.yul\":11340:11361   */\n      and\n        /* \"#utility.yul\":11331:11361   */\n      swap4\n      pop\n        /* \"#utility.yul\":11404:11408   */\n      dup1\n        /* \"#utility.yul\":11394:11402   */\n      dup7\n        /* \"#utility.yul\":11390:11409   */\n      and\n        /* \"#utility.yul\":11383:11388   */\n      dup5\n        /* \"#utility.yul\":11380:11410   */\n      or\n        /* \"#utility.yul\":11370:11410   */\n      swap3\n      pop\n        /* \"#utility.yul\":11099:11416   */\n      pop\n      pop\n        /* \"#utility.yul\":11023:11416   */\n      swap4\n      swap3\n      pop\n      pop\n      pop\n      jump\t// out\n        /* \"#utility.yul\":11422:11482   */\n    tag_173:\n        /* \"#utility.yul\":11450:11453   */\n      0x00\n        /* \"#utility.yul\":11471:11476   */\n      dup2\n        /* \"#utility.yul\":11464:11476   */\n      swap1\n      pop\n        /* \"#utility.yul\":11422:11482   */\n      swap2\n      swap1\n      pop\n      jump\t// out\n        /* \"#utility.yul\":11488:11630   */\n    tag_174:\n        /* \"#utility.yul\":11538:11547   */\n      0x00\n        /* \"#utility.yul\":11571:11624   */\n      tag_293\n        /* \"#utility.yul\":11589:11623   */\n      tag_294\n        /* \"#utility.yul\":11598:11622   */\n      tag_295\n        /* \"#utility.yul\":11616:11621   */\n      dup5\n        /* \"#utility.yul\":11598:11622   */\n      tag_141\n      jump\t// in\n    tag_295:\n        /* \"#utility.yul\":11589:11623   */\n      tag_173\n      jump\t// in\n    tag_294:\n        /* \"#utility.yul\":11571:11624   */\n      tag_141\n      jump\t// in\n    tag_293:\n        /* \"#utility.yul\":11558:11624   */\n      swap1\n      pop\n        /* \"#utility.yul\":11488:11630   */\n      swap2\n      swap1\n      pop\n      jump\t// out\n        /* \"#utility.yul\":11636:11711   */\n    tag_175:\n        /* \"#utility.yul\":11679:11682   */\n      0x00\n        /* \"#utility.yul\":11700:11705   */\n      dup2\n        /* \"#utility.yul\":11693:11705   */\n      swap1\n      pop\n        /* \"#utility.yul\":11636:11711   */\n      swap2\n      swap1\n      pop\n      jump\t// out\n        /* \"#utility.yul\":11717:11986   */\n    tag_176:\n        /* \"#utility.yul\":11827:11866   */\n      tag_298\n        /* \"#utility.yul\":11858:11865   */\n      dup4\n        /* \"#utility.yul\":11827:11866   */\n      tag_174\n      jump\t// in\n    tag_298:\n        /* \"#utility.yul\":11888:11979   */\n      tag_299\n        /* \"#utility.yul\":11937:11978   */\n      tag_300\n        /* \"#utility.yul\":11961:11977   */\n      dup3\n        /* \"#utility.yul\":11937:11978   */\n      tag_175\n      jump\t// in\n    tag_300:\n        /* \"#utility.yul\":11929:11935   */\n      dup5\n        /* \"#utility.yul\":11922:11926   */\n      dup5\n        /* \"#utility.yul\":11916:11927   */\n      sload\n        /* \"#utility.yul\":11888:11979   */\n      tag_172\n      jump\t// in\n    tag_299:\n        /* \"#utility.yul\":11882:11886   */\n      dup3\n        /* \"#utility.yul\":11875:11980   */\n      sstore\n        /* \"#utility.yul\":11793:11986   */\n      pop\n        /* \"#utility.yul\":11717:11986   */\n      pop\n      pop\n      pop\n      jump\t// out\n        /* \"#utility.yul\":11992:12065   */\n    tag_177:\n        /* \"#utility.yul\":12037:12040   */\n      0x00\n        /* \"#utility.yul\":11992:12065   */\n      swap1\n      jump\t// out\n        /* \"#utility.yul\":12071:12260   */\n    tag_178:\n        /* \"#utility.yul\":12148:12180   */\n      tag_303\n      tag_177\n      jump\t// in\n    tag_303:\n        /* \"#utility.yul\":12189:12254   */\n      tag_304\n        /* \"#utility.yul\":12247:12253   */\n      dup2\n        /* \"#utility.yul\":12239:12245   */\n      dup5\n        /* \"#utility.yul\":12233:12237   */\n      dup5\n        /* \"#utility.yul\":12189:12254   */\n      tag_176\n      jump\t// in\n    tag_304:\n        /* \"#utility.yul\":12124:12260   */\n      pop\n        /* \"#utility.yul\":12071:12260   */\n      pop\n      pop\n      jump\t// out\n        /* \"#utility.yul\":12266:12452   */\n    tag_179:\n        /* \"#utility.yul\":12326:12446   */\n    tag_306:\n        /* \"#utility.yul\":12343:12346   */\n      dup2\n        /* \"#utility.yul\":12336:12341   */\n      dup2\n        /* \"#utility.yul\":12333:12347   */\n      lt\n        /* \"#utility.yul\":12326:12446   */\n      iszero\n      tag_308\n      jumpi\n        /* \"#utility.yul\":12397:12436   */\n      tag_309\n        /* \"#utility.yul\":12434:12435   */\n      0x00\n        /* \"#utility.yul\":12427:12432   */\n      dup3\n        /* \"#utility.yul\":12397:12436   */\n      tag_178\n      jump\t// in\n    tag_309:\n        /* \"#utility.yul\":12370:12371   */\n      0x01\n        /* \"#utility.yul\":12363:12368   */\n      dup2\n        /* \"#utility.yul\":12359:12372   */\n      add\n        /* \"#utility.yul\":12350:12372   */\n      swap1\n      pop\n        /* \"#utility.yul\":12326:12446   */\n      jump(tag_306)\n    tag_308:\n        /* \"#utility.yul\":12266:12452   */\n      pop\n      pop\n      jump\t// out\n        /* \"#utility.yul\":12458:12999   */\n    tag_180:\n        /* \"#utility.yul\":12558:12560   */\n      0x1f\n        /* \"#utility.yul\":12553:12556   */\n      dup3\n        /* \"#utility.yul\":12550:12561   */\n      gt\n        /* \"#utility.yul\":12547:12992   */\n      iszero\n      tag_311\n      jumpi\n        /* \"#utility.yul\":12592:12629   */\n      tag_312\n        /* \"#utility.yul\":12623:12628   */\n      dup2\n        /* \"#utility.yul\":12592:12629   */\n      tag_169\n      jump\t// in\n    tag_312:\n        /* \"#utility.yul\":12675:12704   */\n      tag_313\n        /* \"#utility.yul\":12693:12703   */\n      dup5\n        /* \"#utility.yul\":12675:12704   */\n      tag_170\n      jump\t// in\n    tag_313:\n        /* \"#utility.yul\":12665:12673   */\n      dup2\n        /* \"#utility.yul\":12661:12705   */\n      add\n        /* \"#utility.yul\":12858:12860   */\n      0x20\n        /* \"#utility.yul\":12846:12856   */\n      dup6\n        /* \"#utility.yul\":12843:12861   */\n      lt\n        /* \"#utility.yul\":12840:12889   */\n      iszero\n      tag_314\n      jumpi\n        /* \"#utility.yul\":12879:12887   */\n      dup2\n        /* \"#utility.yul\":12864:12887   */\n      swap1\n      pop\n        /* \"#utility.yul\":12840:12889   */\n    tag_314:\n        /* \"#utility.yul\":12902:12982   */\n      tag_315\n        /* \"#utility.yul\":12958:12980   */\n      tag_316\n        /* \"#utility.yul\":12976:12979   */\n      dup6\n        /* \"#utility.yul\":12958:12980   */\n      tag_170\n      jump\t// in\n    tag_316:\n        /* \"#utility.yul\":12948:12956   */\n      dup4\n        /* \"#utility.yul\":12944:12981   */\n      add\n        /* \"#utility.yul\":12931:12942   */\n      dup3\n        /* \"#utility.yul\":12902:12982   */\n      tag_179\n      jump\t// in\n    tag_315:\n        /* \"#utility.yul\":12562:12992   */\n      pop\n      pop\n        /* \"#utility.yul\":12547:12992   */\n    tag_311:\n        /* \"#utility.yul\":12458:12999   */\n      pop\n      pop\n      pop\n      jump\t// out\n        /* \"#utility.yul\":13005:13122   */\n    tag_181:\n        /* \"#utility.yul\":13059:13067   */\n      0x00\n        /* \"#utility.yul\":13109:13114   */\n      dup3\n        /* \"#utility.yul\":13103:13107   */\n      dup3\n        /* \"#utility.yul\":13099:13115   */\n      shr\n        /* \"#utility.yul\":13078:13115   */\n      swap1\n      pop\n        /* \"#utility.yul\":13005:13122   */\n      swap3\n      swap2\n      pop\n      pop\n      jump\t// out\n        /* \"#utility.yul\":13128:13297   */\n    tag_182:\n        /* \"#utility.yul\":13172:13178   */\n      0x00\n        /* \"#utility.yul\":13205:13256   */\n      tag_319\n        /* \"#utility.yul\":13253:13254   */\n      0x00\n        /* \"#utility.yul\":13249:13255   */\n      not\n        /* \"#utility.yul\":13241:13246   */\n      dup5\n        /* \"#utility.yul\":13238:13239   */\n      0x08\n        /* \"#utility.yul\":13234:13247   */\n      mul\n        /* \"#utility.yul\":13205:13256   */\n      tag_181\n      jump\t// in\n    tag_319:\n        /* \"#utility.yul\":13201:13257   */\n      not\n        /* \"#utility.yul\":13286:13290   */\n      dup1\n        /* \"#utility.yul\":13280:13284   */\n      dup4\n        /* \"#utility.yul\":13276:13291   */\n      and\n        /* \"#utility.yul\":13266:13291   */\n      swap2\n      pop\n        /* \"#utility.yul\":13179:13297   */\n      pop\n        /* \"#utility.yul\":13128:13297   */\n      swap3\n      swap2\n      pop\n      pop\n      jump\t// out\n        /* \"#utility.yul\":13302:13597   */\n    tag_183:\n        /* \"#utility.yul\":13378:13382   */\n      0x00\n        /* \"#utility.yul\":13524:13553   */\n      tag_321\n        /* \"#utility.yul\":13549:13552   */\n      dup4\n        /* \"#utility.yul\":13543:13547   */\n      dup4\n        /* \"#utility.yul\":13524:13553   */\n      tag_182\n      jump\t// in\n    tag_321:\n        /* \"#utility.yul\":13516:13553   */\n      swap2\n      pop\n        /* \"#utility.yul\":13586:13589   */\n      dup3\n        /* \"#utility.yul\":13583:13584   */\n      0x02\n        /* \"#utility.yul\":13579:13590   */\n      mul\n        /* \"#utility.yul\":13573:13577   */\n      dup3\n        /* \"#utility.yul\":13570:13591   */\n      or\n        /* \"#utility.yul\":13562:13591   */\n      swap1\n      pop\n        /* \"#utility.yul\":13302:13597   */\n      swap3\n      swap2\n      pop\n      pop\n      jump\t// out\n        /* \"#utility.yul\":13602:14992   */\n    tag_90:\n        /* \"#utility.yul\":13717:13753   */\n      tag_323\n        /* \"#utility.yul\":13749:13752   */\n      dup3\n        /* \"#utility.yul\":13717:13753   */\n      tag_167\n      jump\t// in\n    tag_323:\n        /* \"#utility.yul\":13818:13836   */\n      0xffffffffffffffff\n        /* \"#utility.yul\":13810:13816   */\n      dup2\n        /* \"#utility.yul\":13807:13837   */\n      gt\n        /* \"#utility.yul\":13804:13860   */\n      iszero\n      tag_324\n      jumpi\n        /* \"#utility.yul\":13840:13858   */\n      tag_325\n      tag_168\n      jump\t// in\n    tag_325:\n        /* \"#utility.yul\":13804:13860   */\n    tag_324:\n        /* \"#utility.yul\":13884:13922   */\n      tag_326\n        /* \"#utility.yul\":13916:13920   */\n      dup3\n        /* \"#utility.yul\":13910:13921   */\n      sload\n        /* \"#utility.yul\":13884:13922   */\n      tag_49\n      jump\t// in\n    tag_326:\n        /* \"#utility.yul\":13969:14035   */\n      tag_327\n        /* \"#utility.yul\":14028:14034   */\n      dup3\n        /* \"#utility.yul\":14020:14026   */\n      dup3\n        /* \"#utility.yul\":14014:14018   */\n      dup6\n        /* \"#utility.yul\":13969:14035   */\n      tag_180\n      jump\t// in\n    tag_327:\n        /* \"#utility.yul\":14062:14063   */\n      0x00\n        /* \"#utility.yul\":14086:14090   */\n      0x20\n        /* \"#utility.yul\":14073:14090   */\n      swap1\n      pop\n        /* \"#utility.yul\":14118:14120   */\n      0x1f\n        /* \"#utility.yul\":14110:14116   */\n      dup4\n        /* \"#utility.yul\":14107:14121   */\n      gt\n        /* \"#utility.yul\":14135:14136   */\n      0x01\n        /* \"#utility.yul\":14130:14747   */\n      dup2\n      eq\n      tag_329\n      jumpi\n        /* \"#utility.yul\":14791:14792   */\n      0x00\n        /* \"#utility.yul\":14808:14814   */\n      dup5\n        /* \"#utility.yul\":14805:14882   */\n      iszero\n      tag_330\n      jumpi\n        /* \"#utility.yul\":14857:14866   */\n      dup3\n        /* \"#utility.yul\":14852:14855   */\n      dup8\n        /* \"#utility.yul\":14848:14867   */\n      add\n        /* \"#utility.yul\":14842:14868   */\n      mload\n        /* \"#utility.yul\":14833:14868   */\n      swap1\n      pop\n        /* \"#utility.yul\":14805:14882   */\n    tag_330:\n        /* \"#utility.yul\":14908:14975   */\n      tag_331\n        /* \"#utility.yul\":14968:14974   */\n      dup6\n        /* \"#utility.yul\":14961:14966   */\n      dup3\n        /* \"#utility.yul\":14908:14975   */\n      tag_183\n      jump\t// in\n    tag_331:\n        /* \"#utility.yul\":14902:14906   */\n      dup7\n        /* \"#utility.yul\":14895:14976   */\n      sstore\n        /* \"#utility.yul\":14764:14986   */\n      pop\n        /* \"#utility.yul\":14100:14986   */\n      jump(tag_328)\n        /* \"#utility.yul\":14130:14747   */\n    tag_329:\n        /* \"#utility.yul\":14182:14186   */\n      0x1f\n        /* \"#utility.yul\":14178:14187   */\n      not\n        /* \"#utility.yul\":14170:14176   */\n      dup5\n        /* \"#utility.yul\":14166:14188   */\n      and\n        /* \"#utility.yul\":14216:14252   */\n      tag_332\n        /* \"#utility.yul\":14247:14251   */\n      dup7\n        /* \"#utility.yul\":14216:14252   */\n      tag_169\n      jump\t// in\n    tag_332:\n        /* \"#utility.yul\":14274:14275   */\n      0x00\n        /* \"#utility.yul\":14288:14496   */\n    tag_333:\n        /* \"#utility.yul\":14302:14309   */\n      dup3\n        /* \"#utility.yul\":14299:14300   */\n      dup2\n        /* \"#utility.yul\":14296:14310   */\n      lt\n        /* \"#utility.yul\":14288:14496   */\n      iszero\n      tag_335\n      jumpi\n        /* \"#utility.yul\":14381:14390   */\n      dup5\n        /* \"#utility.yul\":14376:14379   */\n      dup10\n        /* \"#utility.yul\":14372:14391   */\n      add\n        /* \"#utility.yul\":14366:14392   */\n      mload\n        /* \"#utility.yul\":14358:14364   */\n      dup3\n        /* \"#utility.yul\":14351:14393   */\n      sstore\n        /* \"#utility.yul\":14432:14433   */\n      0x01\n        /* \"#utility.yul\":14424:14430   */\n      dup3\n        /* \"#utility.yul\":14420:14434   */\n      add\n        /* \"#utility.yul\":14410:14434   */\n      swap2\n      pop\n        /* \"#utility.yul\":14479:14481   */\n      0x20\n        /* \"#utility.yul\":14468:14477   */\n      dup6\n        /* \"#utility.yul\":14464:14482   */\n      add\n        /* \"#utility.yul\":14451:14482   */\n      swap5\n      pop\n        /* \"#utility.yul\":14325:14329   */\n      0x20\n        /* \"#utility.yul\":14322:14323   */\n      dup2\n        /* \"#utility.yul\":14318:14330   */\n      add\n        /* \"#utility.yul\":14313:14330   */\n      swap1\n      pop\n        /* \"#utility.yul\":14288:14496   */\n      jump(tag_333)\n    tag_335:\n        /* \"#utility.yul\":14524:14530   */\n      dup7\n        /* \"#utility.yul\":14515:14522   */\n      dup4\n        /* \"#utility.yul\":14512:14531   */\n      lt\n        /* \"#utility.yul\":14509:14688   */\n      iszero\n      tag_336\n      jumpi\n        /* \"#utility.yul\":14582:14591   */\n      dup5\n        /* \"#utility.yul\":14577:14580   */\n      dup10\n        /* \"#utility.yul\":14573:14592   */\n      add\n        /* \"#utility.yul\":14567:14593   */\n      mload\n        /* \"#utility.yul\":14625:14673   */\n      tag_337\n        /* \"#utility.yul\":14667:14671   */\n      0x1f\n        /* \"#utility.yul\":14659:14665   */\n      dup10\n        /* \"#utility.yul\":14655:14672   */\n      and\n        /* \"#utility.yul\":14644:14653   */\n      dup3\n        /* \"#utility.yul\":14625:14673   */\n      tag_182\n      jump\t// in\n    tag_337:\n        /* \"#utility.yul\":14617:14623   */\n      dup4\n        /* \"#utility.yul\":14610:14674   */\n      sstore\n        /* \"#utility.yul\":14532:14688   */\n      pop\n        /* \"#utility.yul\":14509:14688   */\n    tag_336:\n        /* \"#utility.yul\":14734:14735   */\n      0x01\n        /* \"#utility.yul\":14730:14731   */\n      0x02\n        /* \"#utility.yul\":14722:14728   */\n      dup9\n        /* \"#utility.yul\":14718:14732   */\n      mul\n        /* \"#utility.yul\":14714:14736   */\n      add\n        /* \"#utility.yul\":14708:14712   */\n      dup9\n        /* \"#utility.yul\":14701:14737   */\n      sstore\n        /* \"#utility.yul\":14137:14747   */\n      pop\n      pop\n      pop\n        /* \"#utility.yul\":14100:14986   */\n    tag_328:\n      pop\n        /* \"#utility.yul\":13692:14992   */\n      pop\n      pop\n      pop\n        /* \"#utility.yul\":13602:14992   */\n      pop\n      pop\n      jump\t// out\n        /* \"#utility.yul\":14998:15171   */\n    tag_184:\n        /* \"#utility.yul\":15138:15163   */\n      0x4e6f7420456e6f75676820417070726f76616c732e2e2e000000000000000000\n        /* \"#utility.yul\":15134:15135   */\n      0x00\n        /* \"#utility.yul\":15126:15132   */\n      dup3\n        /* \"#utility.yul\":15122:15136   */\n      add\n        /* \"#utility.yul\":15115:15164   */\n      mstore\n        /* \"#utility.yul\":14998:15171   */\n      pop\n      jump\t// out\n        /* \"#utility.yul\":15177:15543   */\n    tag_185:\n        /* \"#utility.yul\":15319:15322   */\n      0x00\n        /* \"#utility.yul\":15340:15407   */\n      tag_340\n        /* \"#utility.yul\":15404:15406   */\n      0x17\n        /* \"#utility.yul\":15399:15402   */\n      dup4\n        /* \"#utility.yul\":15340:15407   */\n      tag_154\n      jump\t// in\n    tag_340:\n        /* \"#utility.yul\":15333:15407   */\n      swap2\n      pop\n        /* \"#utility.yul\":15416:15509   */\n      tag_341\n        /* \"#utility.yul\":15505:15508   */\n      dup3\n        /* \"#utility.yul\":15416:15509   */\n      tag_184\n      jump\t// in\n    tag_341:\n        /* \"#utility.yul\":15534:15536   */\n      0x20\n        /* \"#utility.yul\":15529:15532   */\n      dup3\n        /* \"#utility.yul\":15525:15537   */\n      add\n        /* \"#utility.yul\":15518:15537   */\n      swap1\n      pop\n        /* \"#utility.yul\":15177:15543   */\n      swap2\n      swap1\n      pop\n      jump\t// out\n        /* \"#utility.yul\":15549:15968   */\n    tag_114:\n        /* \"#utility.yul\":15715:15719   */\n      0x00\n        /* \"#utility.yul\":15753:15755   */\n      0x20\n        /* \"#utility.yul\":15742:15751   */\n      dup3\n        /* \"#utility.yul\":15738:15756   */\n      add\n        /* \"#utility.yul\":15730:15756   */\n      swap1\n      pop\n        /* \"#utility.yul\":15802:15811   */\n      dup2\n        /* \"#utility.yul\":15796:15800   */\n      dup2\n        /* \"#utility.yul\":15792:15812   */\n      sub\n        /* \"#utility.yul\":15788:15789   */\n      0x00\n        /* \"#utility.yul\":15777:15786   */\n      dup4\n        /* \"#utility.yul\":15773:15790   */\n      add\n        /* \"#utility.yul\":15766:15813   */\n      mstore\n        /* \"#utility.yul\":15830:15961   */\n      tag_343\n        /* \"#utility.yul\":15956:15960   */\n      dup2\n        /* \"#utility.yul\":15830:15961   */\n      tag_185\n      jump\t// in\n    tag_343:\n        /* \"#utility.yul\":15822:15961   */\n      swap1\n      pop\n        /* \"#utility.yul\":15549:15968   */\n      swap2\n      swap1\n      pop\n      jump\t// out\n        /* \"#utility.yul\":15974:16121   */\n    tag_186:\n        /* \"#utility.yul\":16075:16086   */\n      0x00\n        /* \"#utility.yul\":16112:16115   */\n      dup2\n        /* \"#utility.yul\":16097:16115   */\n      swap1\n      pop\n        /* \"#utility.yul\":15974:16121   */\n      swap3\n      swap2\n      pop\n      pop\n      jump\t// out\n        /* \"#utility.yul\":16149:17019   */\n    tag_187:\n        /* \"#utility.yul\":16250:16253   */\n      0x00\n        /* \"#utility.yul\":16287:16292   */\n      dup2\n        /* \"#utility.yul\":16281:16293   */\n      sload\n        /* \"#utility.yul\":16316:16352   */\n      tag_346\n        /* \"#utility.yul\":16342:16351   */\n      dup2\n        /* \"#utility.yul\":16316:16352   */\n      tag_49\n      jump\t// in\n    tag_346:\n        /* \"#utility.yul\":16368:16456   */\n      tag_347\n        /* \"#utility.yul\":16449:16455   */\n      dup2\n        /* \"#utility.yul\":16444:16447   */\n      dup7\n        /* \"#utility.yul\":16368:16456   */\n      tag_186\n      jump\t// in\n    tag_347:\n        /* \"#utility.yul\":16361:16456   */\n      swap5\n      pop\n        /* \"#utility.yul\":16487:16488   */\n      0x01\n        /* \"#utility.yul\":16476:16485   */\n      dup3\n        /* \"#utility.yul\":16472:16489   */\n      and\n        /* \"#utility.yul\":16503:16504   */\n      0x00\n        /* \"#utility.yul\":16498:16664   */\n      dup2\n      eq\n      tag_349\n      jumpi\n        /* \"#utility.yul\":16678:16679   */\n      0x01\n        /* \"#utility.yul\":16673:17013   */\n      dup2\n      eq\n      tag_350\n      jumpi\n        /* \"#utility.yul\":16465:17013   */\n      jump(tag_348)\n        /* \"#utility.yul\":16498:16664   */\n    tag_349:\n        /* \"#utility.yul\":16582:16586   */\n      0xff\n        /* \"#utility.yul\":16578:16587   */\n      not\n        /* \"#utility.yul\":16567:16576   */\n      dup4\n        /* \"#utility.yul\":16563:16588   */\n      and\n        /* \"#utility.yul\":16558:16561   */\n      dup7\n        /* \"#utility.yul\":16551:16589   */\n      mstore\n        /* \"#utility.yul\":16644:16650   */\n      dup2\n        /* \"#utility.yul\":16637:16651   */\n      iszero\n        /* \"#utility.yul\":16630:16652   */\n      iszero\n        /* \"#utility.yul\":16622:16628   */\n      dup3\n        /* \"#utility.yul\":16618:16653   */\n      mul\n        /* \"#utility.yul\":16613:16616   */\n      dup7\n        /* \"#utility.yul\":16609:16654   */\n      add\n        /* \"#utility.yul\":16602:16654   */\n      swap4\n      pop\n        /* \"#utility.yul\":16498:16664   */\n      jump(tag_348)\n        /* \"#utility.yul\":16673:17013   */\n    tag_350:\n        /* \"#utility.yul\":16740:16777   */\n      tag_351\n        /* \"#utility.yul\":16771:16776   */\n      dup6\n        /* \"#utility.yul\":16740:16777   */\n      tag_169\n      jump\t// in\n    tag_351:\n        /* \"#utility.yul\":16799:16800   */\n      0x00\n        /* \"#utility.yul\":16813:16967   */\n    tag_352:\n        /* \"#utility.yul\":16827:16833   */\n      dup4\n        /* \"#utility.yul\":16824:16825   */\n      dup2\n        /* \"#utility.yul\":16821:16834   */\n      lt\n        /* \"#utility.yul\":16813:16967   */\n      iszero\n      tag_354\n      jumpi\n        /* \"#utility.yul\":16901:16908   */\n      dup2\n        /* \"#utility.yul\":16895:16909   */\n      sload\n        /* \"#utility.yul\":16891:16892   */\n      dup2\n        /* \"#utility.yul\":16886:16889   */\n      dup10\n        /* \"#utility.yul\":16882:16893   */\n      add\n        /* \"#utility.yul\":16875:16910   */\n      mstore\n        /* \"#utility.yul\":16951:16952   */\n      0x01\n        /* \"#utility.yul\":16942:16949   */\n      dup3\n        /* \"#utility.yul\":16938:16953   */\n      add\n        /* \"#utility.yul\":16927:16953   */\n      swap2\n      pop\n        /* \"#utility.yul\":16849:16853   */\n      0x20\n        /* \"#utility.yul\":16846:16847   */\n      dup2\n        /* \"#utility.yul\":16842:16854   */\n      add\n        /* \"#utility.yul\":16837:16854   */\n      swap1\n      pop\n        /* \"#utility.yul\":16813:16967   */\n      jump(tag_352)\n    tag_354:\n        /* \"#utility.yul\":16996:17002   */\n      dup4\n        /* \"#utility.yul\":16991:16994   */\n      dup9\n        /* \"#utility.yul\":16987:17003   */\n      add\n        /* \"#utility.yul\":16980:17003   */\n      swap6\n      pop\n        /* \"#utility.yul\":16680:17013   */\n      pop\n      pop\n        /* \"#utility.yul\":16465:17013   */\n    tag_348:\n      pop\n        /* \"#utility.yul\":16254:17019   */\n      pop\n      pop\n        /* \"#utility.yul\":16149:17019   */\n      swap3\n      swap2\n      pop\n      pop\n      jump\t// out\n        /* \"#utility.yul\":17025:17290   */\n    tag_119:\n        /* \"#utility.yul\":17152:17155   */\n      0x00\n        /* \"#utility.yul\":17174:17264   */\n      tag_356\n        /* \"#utility.yul\":17260:17263   */\n      dup3\n        /* \"#utility.yul\":17251:17257   */\n      dup5\n        /* \"#utility.yul\":17174:17264   */\n      tag_187\n      jump\t// in\n    tag_356:\n        /* \"#utility.yul\":17167:17264   */\n      swap2\n      pop\n        /* \"#utility.yul\":17281:17284   */\n      dup2\n        /* \"#utility.yul\":17274:17284   */\n      swap1\n      pop\n        /* \"#utility.yul\":17025:17290   */\n      swap3\n      swap2\n      pop\n      pop\n      jump\t// out\n        /* \"#utility.yul\":17296:17468   */\n    tag_188:\n        /* \"#utility.yul\":17436:17460   */\n      0x5472616e73616374696f6e20496e636f6d706c65746500000000000000000000\n        /* \"#utility.yul\":17432:17433   */\n      0x00\n        /* \"#utility.yul\":17424:17430   */\n      dup3\n        /* \"#utility.yul\":17420:17434   */\n      add\n        /* \"#utility.yul\":17413:17461   */\n      mstore\n        /* \"#utility.yul\":17296:17468   */\n      pop\n      jump\t// out\n        /* \"#utility.yul\":17474:17840   */\n    tag_189:\n        /* \"#utility.yul\":17616:17619   */\n      0x00\n        /* \"#utility.yul\":17637:17704   */\n      tag_359\n        /* \"#utility.yul\":17701:17703   */\n      0x16\n        /* \"#utility.yul\":17696:17699   */\n      dup4\n        /* \"#utility.yul\":17637:17704   */\n      tag_154\n      jump\t// in\n    tag_359:\n        /* \"#utility.yul\":17630:17704   */\n      swap2\n      pop\n        /* \"#utility.yul\":17713:17806   */\n      tag_360\n        /* \"#utility.yul\":17802:17805   */\n      dup3\n        /* \"#utility.yul\":17713:17806   */\n      tag_188\n      jump\t// in\n    tag_360:\n        /* \"#utility.yul\":17831:17833   */\n      0x20\n        /* \"#utility.yul\":17826:17829   */\n      dup3\n        /* \"#utility.yul\":17822:17834   */\n      add\n        /* \"#utility.yul\":17815:17834   */\n      swap1\n      pop\n        /* \"#utility.yul\":17474:17840   */\n      swap2\n      swap1\n      pop\n      jump\t// out\n        /* \"#utility.yul\":17846:18265   */\n    tag_125:\n        /* \"#utility.yul\":18012:18016   */\n      0x00\n        /* \"#utility.yul\":18050:18052   */\n      0x20\n        /* \"#utility.yul\":18039:18048   */\n      dup3\n        /* \"#utility.yul\":18035:18053   */\n      add\n        /* \"#utility.yul\":18027:18053   */\n      swap1\n      pop\n        /* \"#utility.yul\":18099:18108   */\n      dup2\n        /* \"#utility.yul\":18093:18097   */\n      dup2\n        /* \"#utility.yul\":18089:18109   */\n      sub\n        /* \"#utility.yul\":18085:18086   */\n      0x00\n        /* \"#utility.yul\":18074:18083   */\n      dup4\n        /* \"#utility.yul\":18070:18087   */\n      add\n        /* \"#utility.yul\":18063:18110   */\n      mstore\n        /* \"#utility.yul\":18127:18258   */\n      tag_362\n        /* \"#utility.yul\":18253:18257   */\n      dup2\n        /* \"#utility.yul\":18127:18258   */\n      tag_189\n      jump\t// in\n    tag_362:\n        /* \"#utility.yul\":18119:18258   */\n      swap1\n      pop\n        /* \"#utility.yul\":17846:18265   */\n      swap2\n      swap1\n      pop\n      jump\t// out\n        /* \"#utility.yul\":18271:18462   */\n    tag_135:\n        /* \"#utility.yul\":18311:18314   */\n      0x00\n        /* \"#utility.yul\":18330:18350   */\n      tag_364\n        /* \"#utility.yul\":18348:18349   */\n      dup3\n        /* \"#utility.yul\":18330:18350   */\n      tag_141\n      jump\t// in\n    tag_364:\n        /* \"#utility.yul\":18325:18350   */\n      swap2\n      pop\n        /* \"#utility.yul\":18364:18384   */\n      tag_365\n        /* \"#utility.yul\":18382:18383   */\n      dup4\n        /* \"#utility.yul\":18364:18384   */\n      tag_141\n      jump\t// in\n    tag_365:\n        /* \"#utility.yul\":18359:18384   */\n      swap3\n      pop\n        /* \"#utility.yul\":18407:18408   */\n      dup3\n        /* \"#utility.yul\":18404:18405   */\n      dup3\n        /* \"#utility.yul\":18400:18409   */\n      add\n        /* \"#utility.yul\":18393:18409   */\n      swap1\n      pop\n        /* \"#utility.yul\":18428:18431   */\n      dup1\n        /* \"#utility.yul\":18425:18426   */\n      dup3\n        /* \"#utility.yul\":18422:18432   */\n      gt\n        /* \"#utility.yul\":18419:18455   */\n      iszero\n      tag_366\n      jumpi\n        /* \"#utility.yul\":18435:18453   */\n      tag_367\n      tag_157\n      jump\t// in\n    tag_367:\n        /* \"#utility.yul\":18419:18455   */\n    tag_366:\n        /* \"#utility.yul\":18271:18462   */\n      swap3\n      swap2\n      pop\n      pop\n      jump\t// out\n        /* \"#utility.yul\":18468:18701   */\n    tag_137:\n        /* \"#utility.yul\":18507:18510   */\n      0x00\n        /* \"#utility.yul\":18530:18554   */\n      tag_369\n        /* \"#utility.yul\":18548:18553   */\n      dup3\n        /* \"#utility.yul\":18530:18554   */\n      tag_141\n      jump\t// in\n    tag_369:\n        /* \"#utility.yul\":18521:18554   */\n      swap2\n      pop\n        /* \"#utility.yul\":18576:18642   */\n      0xffffffffffffffffffffffffffffffffffffffffffffffffffffffffffffffff\n        /* \"#utility.yul\":18569:18574   */\n      dup3\n        /* \"#utility.yul\":18566:18643   */\n      sub\n        /* \"#utility.yul\":18563:18666   */\n      tag_370\n      jumpi\n        /* \"#utility.yul\":18646:18664   */\n      tag_371\n      tag_157\n      jump\t// in\n    tag_371:\n        /* \"#utility.yul\":18563:18666   */\n    tag_370:\n        /* \"#utility.yul\":18693:18694   */\n      0x01\n        /* \"#utility.yul\":18686:18691   */\n      dup3\n        /* \"#utility.yul\":18682:18695   */\n      add\n        /* \"#utility.yul\":18675:18695   */\n      swap1\n      pop\n        /* \"#utility.yul\":18468:18701   */\n      swap2\n      swap1\n      pop\n      jump\t// out\n\n    auxdata: 0xa2646970667358221220659b893ef9c7292cb4422f6ec6963356c3639957628d153aff5da112025f9eb064736f6c63430008100033\n}\n",
				"bytecode": {
					"linkReferences": {},
					"object": "60806040523480156200001157600080fd5b5060405162001eb738038062001eb7833981810160405281019062000037919062000400565b60005b8251811015620001c75760008382815181106200005c576200005b62000466565b5b60200260200101519050600160008273ffffffffffffffffffffffffffffffffffffffff1673ffffffffffffffffffffffffffffffffffffffff16815260200190815260200160002060009054906101000a900460ff1615620000f6576040517f08c379a0000000000000000000000000000000000000000000000000000000008152600401620000ed90620004f6565b60405180910390fd5b6000819080600181540180825580915050600190039060005260206000200160009091909190916101000a81548173ffffffffffffffffffffffffffffffffffffffff021916908373ffffffffffffffffffffffffffffffffffffffff16021790555060018060008373ffffffffffffffffffffffffffffffffffffffff1673ffffffffffffffffffffffffffffffffffffffff16815260200190815260200160002060006101000a81548160ff021916908315150217905550508080620001be9062000547565b9150506200003a565b5080600281905550505062000594565b6000604051905090565b600080fd5b600080fd5b600080fd5b6000601f19601f8301169050919050565b7f4e487b7100000000000000000000000000000000000000000000000000000000600052604160045260246000fd5b6200023b82620001f0565b810181811067ffffffffffffffff821117156200025d576200025c62000201565b5b80604052505050565b600062000272620001d7565b905062000280828262000230565b919050565b600067ffffffffffffffff821115620002a357620002a262000201565b5b602082029050602081019050919050565b600080fd5b600073ffffffffffffffffffffffffffffffffffffffff82169050919050565b6000620002e682620002b9565b9050919050565b620002f881620002d9565b81146200030457600080fd5b50565b6000815190506200031881620002ed565b92915050565b6000620003356200032f8462000285565b62000266565b905080838252602082019050602084028301858111156200035b576200035a620002b4565b5b835b8181101562000388578062000373888262000307565b8452602084019350506020810190506200035d565b5050509392505050565b600082601f830112620003aa57620003a9620001eb565b5b8151620003bc8482602086016200031e565b91505092915050565b6000819050919050565b620003da81620003c5565b8114620003e657600080fd5b50565b600081519050620003fa81620003cf565b92915050565b600080604083850312156200041a5762000419620001e1565b5b600083015167ffffffffffffffff8111156200043b576200043a620001e6565b5b620004498582860162000392565b92505060206200045c85828601620003e9565b9150509250929050565b7f4e487b7100000000000000000000000000000000000000000000000000000000600052603260045260246000fd5b600082825260208201905092915050565b7f416c7265616479204578697374732e2e2e000000000000000000000000000000600082015250565b6000620004de60118362000495565b9150620004eb82620004a6565b602082019050919050565b600060208201905081810360008301526200051181620004cf565b9050919050565b7f4e487b7100000000000000000000000000000000000000000000000000000000600052601160045260246000fd5b60006200055482620003c5565b91507fffffffffffffffffffffffffffffffffffffffffffffffffffffffffffffffff820362000589576200058862000518565b5b600182019050919050565b61191380620005a46000396000f3fe6080604052600436106100435760003560e01c8063242232d114610088578063b1e130fc146100b1578063c0c64a49146100da578063ee22610b1461010357610083565b36610083577fe1fffcc4923d04b559f4d29a8bfc6cda04eb5b0d3c460751c2402c5c5cc9109c3334604051610079929190610f53565b60405180910390a1005b600080fd5b34801561009457600080fd5b506100af60048036038101906100aa9190610fb2565b61012c565b005b3480156100bd57600080fd5b506100d860048036038101906100d39190610fb2565b6104d9565b005b3480156100e657600080fd5b5061010160048036038101906100fc9190611070565b610885565b005b34801561010f57600080fd5b5061012a60048036038101906101259190610fb2565b610a49565b005b806003600082815260200190815260200160002060003373ffffffffffffffffffffffffffffffffffffffff1673ffffffffffffffffffffffffffffffffffffffff16815260200190815260200160002060009054906101000a900460ff16156101cb576040517f08c379a00000000000000000000000000000000000000000000000000000000081526004016101c290611141565b60405180910390fd5b8160016004805490506101de9190611190565b811115610220576040517f08c379a000000000000000000000000000000000000000000000000000000000815260040161021790611210565b60405180910390fd5b600160003373ffffffffffffffffffffffffffffffffffffffff1673ffffffffffffffffffffffffffffffffffffffff16815260200190815260200160002060009054906101000a900460ff166102ac576040517f08c379a00000000000000000000000000000000000000000000000000000000081526004016102a39061127c565b60405180910390fd5b826000600482815481106102c3576102c261129c565b5b90600052602060002090600402016040518060800160405290816000820160009054906101000a900473ffffffffffffffffffffffffffffffffffffffff1673ffffffffffffffffffffffffffffffffffffffff1673ffffffffffffffffffffffffffffffffffffffff168152602001600182015481526020016002820160009054906101000a900460ff16151515158152602001600382018054610367906112fa565b80601f0160208091040260200160405190810160405280929190818152602001828054610393906112fa565b80156103e05780601f106103b5576101008083540402835291602001916103e0565b820191906000526020600020905b8154815290600101906020018083116103c357829003601f168201915b5050505050815250509050806040015115610430576040517f08c379a000000000000000000000000000000000000000000000000000000000815260040161042790611377565b60405180910390fd5b60016003600087815260200190815260200160002060003373ffffffffffffffffffffffffffffffffffffffff1673ffffffffffffffffffffffffffffffffffffffff16815260200190815260200160002060006101000a81548160ff0219169083151502179055507f47ad3e4b0f4bdbe3ac08708bbc45053d2ff616911b39e65563fd9bd78190964585336040516104ca929190611397565b60405180910390a15050505050565b806003600082815260200190815260200160002060003373ffffffffffffffffffffffffffffffffffffffff1673ffffffffffffffffffffffffffffffffffffffff16815260200190815260200160002060009054906101000a900460ff16610577576040517f08c379a000000000000000000000000000000000000000000000000000000000815260040161056e9061140c565b60405180910390fd5b81600160048054905061058a9190611190565b8111156105cc576040517f08c379a00000000000000000000000000000000000000000000000000000000081526004016105c390611210565b60405180910390fd5b600160003373ffffffffffffffffffffffffffffffffffffffff1673ffffffffffffffffffffffffffffffffffffffff16815260200190815260200160002060009054906101000a900460ff16610658576040517f08c379a000000000000000000000000000000000000000000000000000000000815260040161064f9061127c565b60405180910390fd5b8260006004828154811061066f5761066e61129c565b5b90600052602060002090600402016040518060800160405290816000820160009054906101000a900473ffffffffffffffffffffffffffffffffffffffff1673ffffffffffffffffffffffffffffffffffffffff1673ffffffffffffffffffffffffffffffffffffffff168152602001600182015481526020016002820160009054906101000a900460ff16151515158152602001600382018054610713906112fa565b80601f016020809104026020016040519081016040528092919081815260200182805461073f906112fa565b801561078c5780601f106107615761010080835404028352916020019161078c565b820191906000526020600020905b81548152906001019060200180831161076f57829003601f168201915b50505050508152505090508060400151156107dc576040517f08c379a00000000000000000000000000000000000000000000000000000000081526004016107d390611377565b60405180910390fd5b60006003600087815260200190815260200160002060003373ffffffffffffffffffffffffffffffffffffffff1673ffffffffffffffffffffffffffffffffffffffff16815260200190815260200160002060006101000a81548160ff0219169083151502179055507fd5d64031e0f55cf42bc3b7d0462f8404a4d63f7ccf84be9510cd6a5300552e428533604051610876929190611397565b60405180910390a15050505050565b600160003373ffffffffffffffffffffffffffffffffffffffff1673ffffffffffffffffffffffffffffffffffffffff16815260200190815260200160002060009054906101000a900460ff16610911576040517f08c379a00000000000000000000000000000000000000000000000000000000081526004016109089061127c565b60405180910390fd5b600460405180608001604052808673ffffffffffffffffffffffffffffffffffffffff16815260200185815260200160001515815260200184848080601f016020809104026020016040519081016040528093929190818152602001838380828437600081840152601f19601f82011690508083019250505050505050815250908060018154018082558091505060019003906000526020600020906004020160009091909190915060008201518160000160006101000a81548173ffffffffffffffffffffffffffffffffffffffff021916908373ffffffffffffffffffffffffffffffffffffffff1602179055506020820151816001015560408201518160020160006101000a81548160ff0219169083151502179055506060820151816003019081610a409190611612565b50505050505050565b806001600480549050610a5c9190611190565b811115610a9e576040517f08c379a0000000000000000000000000000000000000000000000000000000008152600401610a9590611210565b60405180910390fd5b600160003373ffffffffffffffffffffffffffffffffffffffff1673ffffffffffffffffffffffffffffffffffffffff16815260200190815260200160002060009054906101000a900460ff16610b2a576040517f08c379a0000000000000000000000000000000000000000000000000000000008152600401610b219061127c565b60405180910390fd5b81600060048281548110610b4157610b4061129c565b5b90600052602060002090600402016040518060800160405290816000820160009054906101000a900473ffffffffffffffffffffffffffffffffffffffff1673ffffffffffffffffffffffffffffffffffffffff1673ffffffffffffffffffffffffffffffffffffffff168152602001600182015481526020016002820160009054906101000a900460ff16151515158152602001600382018054610be5906112fa565b80601f0160208091040260200160405190810160405280929190818152602001828054610c11906112fa565b8015610c5e5780601f10610c3357610100808354040283529160200191610c5e565b820191906000526020600020905b815481529060010190602001808311610c4157829003601f168201915b5050505050815250509050806040015115610cae576040517f08c379a0000000000000000000000000000000000000000000000000000000008152600401610ca590611377565b60405180910390fd5b600254610cba85610e1f565b1015610cfb576040517f08c379a0000000000000000000000000000000000000000000000000000000008152600401610cf290611730565b60405180910390fd5b600060048581548110610d1157610d1061129c565b5b9060005260206000209060040201905060008160000160009054906101000a900473ffffffffffffffffffffffffffffffffffffffff1673ffffffffffffffffffffffffffffffffffffffff16826001015483600301604051610d7491906117de565b60006040518083038185875af1925050503d8060008114610db1576040519150601f19603f3d011682016040523d82523d6000602084013e610db6565b606091505b5050905080610dfa576040517f08c379a0000000000000000000000000000000000000000000000000000000008152600401610df190611841565b60405180910390fd5b60018260020160006101000a81548160ff021916908315150217905550505050505050565b6000805b600080549050811015610ef357600360008481526020019081526020016000206000808381548110610e5857610e5761129c565b5b9060005260206000200160009054906101000a900473ffffffffffffffffffffffffffffffffffffffff1673ffffffffffffffffffffffffffffffffffffffff1673ffffffffffffffffffffffffffffffffffffffff16815260200190815260200160002060009054906101000a900460ff1615610ee057600182610edd9190611861565b91505b8080610eeb90611895565b915050610e23565b50919050565b600073ffffffffffffffffffffffffffffffffffffffff82169050919050565b6000610f2482610ef9565b9050919050565b610f3481610f19565b82525050565b6000819050919050565b610f4d81610f3a565b82525050565b6000604082019050610f686000830185610f2b565b610f756020830184610f44565b9392505050565b600080fd5b600080fd5b610f8f81610f3a565b8114610f9a57600080fd5b50565b600081359050610fac81610f86565b92915050565b600060208284031215610fc857610fc7610f7c565b5b6000610fd684828501610f9d565b91505092915050565b610fe881610f19565b8114610ff357600080fd5b50565b60008135905061100581610fdf565b92915050565b600080fd5b600080fd5b600080fd5b60008083601f8401126110305761102f61100b565b5b8235905067ffffffffffffffff81111561104d5761104c611010565b5b60208301915083600182028301111561106957611068611015565b5b9250929050565b6000806000806060858703121561108a57611089610f7c565b5b600061109887828801610ff6565b94505060206110a987828801610f9d565b935050604085013567ffffffffffffffff8111156110ca576110c9610f81565b5b6110d68782880161101a565b925092505092959194509250565b600082825260208201905092915050565b7f5472616e73616374696f6e20416c726561647920417070726f7665642e2e2e00600082015250565b600061112b601f836110e4565b9150611136826110f5565b602082019050919050565b6000602082019050818103600083015261115a8161111e565b9050919050565b7f4e487b7100000000000000000000000000000000000000000000000000000000600052601160045260246000fd5b600061119b82610f3a565b91506111a683610f3a565b92508282039050818111156111be576111bd611161565b5b92915050565b7f5472616e73616374696f6e20446f6573206e6f742045786973742e2e2e000000600082015250565b60006111fa601d836110e4565b9150611205826111c4565b602082019050919050565b60006020820190508181036000830152611229816111ed565b9050919050565b7f4e6f7420746865204f776e65722e2e2e2e000000000000000000000000000000600082015250565b60006112666011836110e4565b915061127182611230565b602082019050919050565b6000602082019050818103600083015261129581611259565b9050919050565b7f4e487b7100000000000000000000000000000000000000000000000000000000600052603260045260246000fd5b7f4e487b7100000000000000000000000000000000000000000000000000000000600052602260045260246000fd5b6000600282049050600182168061131257607f821691505b602082108103611325576113246112cb565b5b50919050565b7f5472616e73616374696f6e20416c726561647920457865637574656400000000600082015250565b6000611361601c836110e4565b915061136c8261132b565b602082019050919050565b6000602082019050818103600083015261139081611354565b9050919050565b60006040820190506113ac6000830185610f44565b6113b96020830184610f2b565b9392505050565b7f5472616e73616374696f6e204e6f7420417070726f7665642e2e2e0000000000600082015250565b60006113f6601b836110e4565b9150611401826113c0565b602082019050919050565b60006020820190508181036000830152611425816113e9565b9050919050565b600081519050919050565b7f4e487b7100000000000000000000000000000000000000000000000000000000600052604160045260246000fd5b60008190508160005260206000209050919050565b60006020601f8301049050919050565b600082821b905092915050565b6000600883026114c87fffffffffffffffffffffffffffffffffffffffffffffffffffffffffffffffff8261148b565b6114d2868361148b565b95508019841693508086168417925050509392505050565b6000819050919050565b600061150f61150a61150584610f3a565b6114ea565b610f3a565b9050919050565b6000819050919050565b611529836114f4565b61153d61153582611516565b848454611498565b825550505050565b600090565b611552611545565b61155d818484611520565b505050565b5b818110156115815761157660008261154a565b600181019050611563565b5050565b601f8211156115c65761159781611466565b6115a08461147b565b810160208510156115af578190505b6115c36115bb8561147b565b830182611562565b50505b505050565b600082821c905092915050565b60006115e9600019846008026115cb565b1980831691505092915050565b600061160283836115d8565b9150826002028217905092915050565b61161b8261142c565b67ffffffffffffffff81111561163457611633611437565b5b61163e82546112fa565b611649828285611585565b600060209050601f83116001811461167c576000841561166a578287015190505b61167485826115f6565b8655506116dc565b601f19841661168a86611466565b60005b828110156116b25784890151825560018201915060208501945060208101905061168d565b868310156116cf57848901516116cb601f8916826115d8565b8355505b6001600288020188555050505b505050505050565b7f4e6f7420456e6f75676820417070726f76616c732e2e2e000000000000000000600082015250565b600061171a6017836110e4565b9150611725826116e4565b602082019050919050565b600060208201905081810360008301526117498161170d565b9050919050565b600081905092915050565b60008154611768816112fa565b6117728186611750565b9450600182166000811461178d57600181146117a2576117d5565b60ff19831686528115158202860193506117d5565b6117ab85611466565b60005b838110156117cd578154818901526001820191506020810190506117ae565b838801955050505b50505092915050565b60006117ea828461175b565b915081905092915050565b7f5472616e73616374696f6e20496e636f6d706c65746500000000000000000000600082015250565b600061182b6016836110e4565b9150611836826117f5565b602082019050919050565b6000602082019050818103600083015261185a8161181e565b9050919050565b600061186c82610f3a565b915061187783610f3a565b925082820190508082111561188f5761188e611161565b5b92915050565b60006118a082610f3a565b91507fffffffffffffffffffffffffffffffffffffffffffffffffffffffffffffffff82036118d2576118d1611161565b5b60018201905091905056fea2646970667358221220659b893ef9c7292cb4422f6ec6963356c3639957628d153aff5da112025f9eb064736f6c63430008100033",
					"opcodes": "PUSH1 0x80 PUSH1 0x40 MSTORE CALLVALUE DUP1 ISZERO PUSH3 0x11 JUMPI PUSH1 0x0 DUP1 REVERT JUMPDEST POP PUSH1 0x40 MLOAD PUSH3 0x1EB7 CODESIZE SUB DUP1 PUSH3 0x1EB7 DUP4 CODECOPY DUP2 DUP2 ADD PUSH1 0x40 MSTORE DUP2 ADD SWAP1 PUSH3 0x37 SWAP2 SWAP1 PUSH3 0x400 JUMP JUMPDEST PUSH1 0x0 JUMPDEST DUP3 MLOAD DUP2 LT ISZERO PUSH3 0x1C7 JUMPI PUSH1 0x0 DUP4 DUP3 DUP2 MLOAD DUP2 LT PUSH3 0x5C JUMPI PUSH3 0x5B PUSH3 0x466 JUMP JUMPDEST JUMPDEST PUSH1 0x20 MUL PUSH1 0x20 ADD ADD MLOAD SWAP1 POP PUSH1 0x1 PUSH1 0x0 DUP3 PUSH20 0xFFFFFFFFFFFFFFFFFFFFFFFFFFFFFFFFFFFFFFFF AND PUSH20 0xFFFFFFFFFFFFFFFFFFFFFFFFFFFFFFFFFFFFFFFF AND DUP2 MSTORE PUSH1 0x20 ADD SWAP1 DUP2 MSTORE PUSH1 0x20 ADD PUSH1 0x0 KECCAK256 PUSH1 0x0 SWAP1 SLOAD SWAP1 PUSH2 0x100 EXP SWAP1 DIV PUSH1 0xFF AND ISZERO PUSH3 0xF6 JUMPI PUSH1 0x40 MLOAD PUSH32 0x8C379A000000000000000000000000000000000000000000000000000000000 DUP2 MSTORE PUSH1 0x4 ADD PUSH3 0xED SWAP1 PUSH3 0x4F6 JUMP JUMPDEST PUSH1 0x40 MLOAD DUP1 SWAP2 SUB SWAP1 REVERT JUMPDEST PUSH1 0x0 DUP2 SWAP1 DUP1 PUSH1 0x1 DUP2 SLOAD ADD DUP1 DUP3 SSTORE DUP1 SWAP2 POP POP PUSH1 0x1 SWAP1 SUB SWAP1 PUSH1 0x0 MSTORE PUSH1 0x20 PUSH1 0x0 KECCAK256 ADD PUSH1 0x0 SWAP1 SWAP2 SWAP1 SWAP2 SWAP1 SWAP2 PUSH2 0x100 EXP DUP2 SLOAD DUP2 PUSH20 0xFFFFFFFFFFFFFFFFFFFFFFFFFFFFFFFFFFFFFFFF MUL NOT AND SWAP1 DUP4 PUSH20 0xFFFFFFFFFFFFFFFFFFFFFFFFFFFFFFFFFFFFFFFF AND MUL OR SWAP1 SSTORE POP PUSH1 0x1 DUP1 PUSH1 0x0 DUP4 PUSH20 0xFFFFFFFFFFFFFFFFFFFFFFFFFFFFFFFFFFFFFFFF AND PUSH20 0xFFFFFFFFFFFFFFFFFFFFFFFFFFFFFFFFFFFFFFFF AND DUP2 MSTORE PUSH1 0x20 ADD SWAP1 DUP2 MSTORE PUSH1 0x20 ADD PUSH1 0x0 KECCAK256 PUSH1 0x0 PUSH2 0x100 EXP DUP2 SLOAD DUP2 PUSH1 0xFF MUL NOT AND SWAP1 DUP4 ISZERO ISZERO MUL OR SWAP1 SSTORE POP POP DUP1 DUP1 PUSH3 0x1BE SWAP1 PUSH3 0x547 JUMP JUMPDEST SWAP2 POP POP PUSH3 0x3A JUMP JUMPDEST POP DUP1 PUSH1 0x2 DUP2 SWAP1 SSTORE POP POP POP PUSH3 0x594 JUMP JUMPDEST PUSH1 0x0 PUSH1 0x40 MLOAD SWAP1 POP SWAP1 JUMP JUMPDEST PUSH1 0x0 DUP1 REVERT JUMPDEST PUSH1 0x0 DUP1 REVERT JUMPDEST PUSH1 0x0 DUP1 REVERT JUMPDEST PUSH1 0x0 PUSH1 0x1F NOT PUSH1 0x1F DUP4 ADD AND SWAP1 POP SWAP2 SWAP1 POP JUMP JUMPDEST PUSH32 0x4E487B7100000000000000000000000000000000000000000000000000000000 PUSH1 0x0 MSTORE PUSH1 0x41 PUSH1 0x4 MSTORE PUSH1 0x24 PUSH1 0x0 REVERT JUMPDEST PUSH3 0x23B DUP3 PUSH3 0x1F0 JUMP JUMPDEST DUP2 ADD DUP2 DUP2 LT PUSH8 0xFFFFFFFFFFFFFFFF DUP3 GT OR ISZERO PUSH3 0x25D JUMPI PUSH3 0x25C PUSH3 0x201 JUMP JUMPDEST JUMPDEST DUP1 PUSH1 0x40 MSTORE POP POP POP JUMP JUMPDEST PUSH1 0x0 PUSH3 0x272 PUSH3 0x1D7 JUMP JUMPDEST SWAP1 POP PUSH3 0x280 DUP3 DUP3 PUSH3 0x230 JUMP JUMPDEST SWAP2 SWAP1 POP JUMP JUMPDEST PUSH1 0x0 PUSH8 0xFFFFFFFFFFFFFFFF DUP3 GT ISZERO PUSH3 0x2A3 JUMPI PUSH3 0x2A2 PUSH3 0x201 JUMP JUMPDEST JUMPDEST PUSH1 0x20 DUP3 MUL SWAP1 POP PUSH1 0x20 DUP2 ADD SWAP1 POP SWAP2 SWAP1 POP JUMP JUMPDEST PUSH1 0x0 DUP1 REVERT JUMPDEST PUSH1 0x0 PUSH20 0xFFFFFFFFFFFFFFFFFFFFFFFFFFFFFFFFFFFFFFFF DUP3 AND SWAP1 POP SWAP2 SWAP1 POP JUMP JUMPDEST PUSH1 0x0 PUSH3 0x2E6 DUP3 PUSH3 0x2B9 JUMP JUMPDEST SWAP1 POP SWAP2 SWAP1 POP JUMP JUMPDEST PUSH3 0x2F8 DUP2 PUSH3 0x2D9 JUMP JUMPDEST DUP2 EQ PUSH3 0x304 JUMPI PUSH1 0x0 DUP1 REVERT JUMPDEST POP JUMP JUMPDEST PUSH1 0x0 DUP2 MLOAD SWAP1 POP PUSH3 0x318 DUP2 PUSH3 0x2ED JUMP JUMPDEST SWAP3 SWAP2 POP POP JUMP JUMPDEST PUSH1 0x0 PUSH3 0x335 PUSH3 0x32F DUP5 PUSH3 0x285 JUMP JUMPDEST PUSH3 0x266 JUMP JUMPDEST SWAP1 POP DUP1 DUP4 DUP3 MSTORE PUSH1 0x20 DUP3 ADD SWAP1 POP PUSH1 0x20 DUP5 MUL DUP4 ADD DUP6 DUP2 GT ISZERO PUSH3 0x35B JUMPI PUSH3 0x35A PUSH3 0x2B4 JUMP JUMPDEST JUMPDEST DUP4 JUMPDEST DUP2 DUP2 LT ISZERO PUSH3 0x388 JUMPI DUP1 PUSH3 0x373 DUP9 DUP3 PUSH3 0x307 JUMP JUMPDEST DUP5 MSTORE PUSH1 0x20 DUP5 ADD SWAP4 POP POP PUSH1 0x20 DUP2 ADD SWAP1 POP PUSH3 0x35D JUMP JUMPDEST POP POP POP SWAP4 SWAP3 POP POP POP JUMP JUMPDEST PUSH1 0x0 DUP3 PUSH1 0x1F DUP4 ADD SLT PUSH3 0x3AA JUMPI PUSH3 0x3A9 PUSH3 0x1EB JUMP JUMPDEST JUMPDEST DUP2 MLOAD PUSH3 0x3BC DUP5 DUP3 PUSH1 0x20 DUP7 ADD PUSH3 0x31E JUMP JUMPDEST SWAP2 POP POP SWAP3 SWAP2 POP POP JUMP JUMPDEST PUSH1 0x0 DUP2 SWAP1 POP SWAP2 SWAP1 POP JUMP JUMPDEST PUSH3 0x3DA DUP2 PUSH3 0x3C5 JUMP JUMPDEST DUP2 EQ PUSH3 0x3E6 JUMPI PUSH1 0x0 DUP1 REVERT JUMPDEST POP JUMP JUMPDEST PUSH1 0x0 DUP2 MLOAD SWAP1 POP PUSH3 0x3FA DUP2 PUSH3 0x3CF JUMP JUMPDEST SWAP3 SWAP2 POP POP JUMP JUMPDEST PUSH1 0x0 DUP1 PUSH1 0x40 DUP4 DUP6 SUB SLT ISZERO PUSH3 0x41A JUMPI PUSH3 0x419 PUSH3 0x1E1 JUMP JUMPDEST JUMPDEST PUSH1 0x0 DUP4 ADD MLOAD PUSH8 0xFFFFFFFFFFFFFFFF DUP2 GT ISZERO PUSH3 0x43B JUMPI PUSH3 0x43A PUSH3 0x1E6 JUMP JUMPDEST JUMPDEST PUSH3 0x449 DUP6 DUP3 DUP7 ADD PUSH3 0x392 JUMP JUMPDEST SWAP3 POP POP PUSH1 0x20 PUSH3 0x45C DUP6 DUP3 DUP7 ADD PUSH3 0x3E9 JUMP JUMPDEST SWAP2 POP POP SWAP3 POP SWAP3 SWAP1 POP JUMP JUMPDEST PUSH32 0x4E487B7100000000000000000000000000000000000000000000000000000000 PUSH1 0x0 MSTORE PUSH1 0x32 PUSH1 0x4 MSTORE PUSH1 0x24 PUSH1 0x0 REVERT JUMPDEST PUSH1 0x0 DUP3 DUP3 MSTORE PUSH1 0x20 DUP3 ADD SWAP1 POP SWAP3 SWAP2 POP POP JUMP JUMPDEST PUSH32 0x416C7265616479204578697374732E2E2E000000000000000000000000000000 PUSH1 0x0 DUP3 ADD MSTORE POP JUMP JUMPDEST PUSH1 0x0 PUSH3 0x4DE PUSH1 0x11 DUP4 PUSH3 0x495 JUMP JUMPDEST SWAP2 POP PUSH3 0x4EB DUP3 PUSH3 0x4A6 JUMP JUMPDEST PUSH1 0x20 DUP3 ADD SWAP1 POP SWAP2 SWAP1 POP JUMP JUMPDEST PUSH1 0x0 PUSH1 0x20 DUP3 ADD SWAP1 POP DUP2 DUP2 SUB PUSH1 0x0 DUP4 ADD MSTORE PUSH3 0x511 DUP2 PUSH3 0x4CF JUMP JUMPDEST SWAP1 POP SWAP2 SWAP1 POP JUMP JUMPDEST PUSH32 0x4E487B7100000000000000000000000000000000000000000000000000000000 PUSH1 0x0 MSTORE PUSH1 0x11 PUSH1 0x4 MSTORE PUSH1 0x24 PUSH1 0x0 REVERT JUMPDEST PUSH1 0x0 PUSH3 0x554 DUP3 PUSH3 0x3C5 JUMP JUMPDEST SWAP2 POP PUSH32 0xFFFFFFFFFFFFFFFFFFFFFFFFFFFFFFFFFFFFFFFFFFFFFFFFFFFFFFFFFFFFFFFF DUP3 SUB PUSH3 0x589 JUMPI PUSH3 0x588 PUSH3 0x518 JUMP JUMPDEST JUMPDEST PUSH1 0x1 DUP3 ADD SWAP1 POP SWAP2 SWAP1 POP JUMP JUMPDEST PUSH2 0x1913 DUP1 PUSH3 0x5A4 PUSH1 0x0 CODECOPY PUSH1 0x0 RETURN INVALID PUSH1 0x80 PUSH1 0x40 MSTORE PUSH1 0x4 CALLDATASIZE LT PUSH2 0x43 JUMPI PUSH1 0x0 CALLDATALOAD PUSH1 0xE0 SHR DUP1 PUSH4 0x242232D1 EQ PUSH2 0x88 JUMPI DUP1 PUSH4 0xB1E130FC EQ PUSH2 0xB1 JUMPI DUP1 PUSH4 0xC0C64A49 EQ PUSH2 0xDA JUMPI DUP1 PUSH4 0xEE22610B EQ PUSH2 0x103 JUMPI PUSH2 0x83 JUMP JUMPDEST CALLDATASIZE PUSH2 0x83 JUMPI PUSH32 0xE1FFFCC4923D04B559F4D29A8BFC6CDA04EB5B0D3C460751C2402C5C5CC9109C CALLER CALLVALUE PUSH1 0x40 MLOAD PUSH2 0x79 SWAP3 SWAP2 SWAP1 PUSH2 0xF53 JUMP JUMPDEST PUSH1 0x40 MLOAD DUP1 SWAP2 SUB SWAP1 LOG1 STOP JUMPDEST PUSH1 0x0 DUP1 REVERT JUMPDEST CALLVALUE DUP1 ISZERO PUSH2 0x94 JUMPI PUSH1 0x0 DUP1 REVERT JUMPDEST POP PUSH2 0xAF PUSH1 0x4 DUP1 CALLDATASIZE SUB DUP2 ADD SWAP1 PUSH2 0xAA SWAP2 SWAP1 PUSH2 0xFB2 JUMP JUMPDEST PUSH2 0x12C JUMP JUMPDEST STOP JUMPDEST CALLVALUE DUP1 ISZERO PUSH2 0xBD JUMPI PUSH1 0x0 DUP1 REVERT JUMPDEST POP PUSH2 0xD8 PUSH1 0x4 DUP1 CALLDATASIZE SUB DUP2 ADD SWAP1 PUSH2 0xD3 SWAP2 SWAP1 PUSH2 0xFB2 JUMP JUMPDEST PUSH2 0x4D9 JUMP JUMPDEST STOP JUMPDEST CALLVALUE DUP1 ISZERO PUSH2 0xE6 JUMPI PUSH1 0x0 DUP1 REVERT JUMPDEST POP PUSH2 0x101 PUSH1 0x4 DUP1 CALLDATASIZE SUB DUP2 ADD SWAP1 PUSH2 0xFC SWAP2 SWAP1 PUSH2 0x1070 JUMP JUMPDEST PUSH2 0x885 JUMP JUMPDEST STOP JUMPDEST CALLVALUE DUP1 ISZERO PUSH2 0x10F JUMPI PUSH1 0x0 DUP1 REVERT JUMPDEST POP PUSH2 0x12A PUSH1 0x4 DUP1 CALLDATASIZE SUB DUP2 ADD SWAP1 PUSH2 0x125 SWAP2 SWAP1 PUSH2 0xFB2 JUMP JUMPDEST PUSH2 0xA49 JUMP JUMPDEST STOP JUMPDEST DUP1 PUSH1 0x3 PUSH1 0x0 DUP3 DUP2 MSTORE PUSH1 0x20 ADD SWAP1 DUP2 MSTORE PUSH1 0x20 ADD PUSH1 0x0 KECCAK256 PUSH1 0x0 CALLER PUSH20 0xFFFFFFFFFFFFFFFFFFFFFFFFFFFFFFFFFFFFFFFF AND PUSH20 0xFFFFFFFFFFFFFFFFFFFFFFFFFFFFFFFFFFFFFFFF AND DUP2 MSTORE PUSH1 0x20 ADD SWAP1 DUP2 MSTORE PUSH1 0x20 ADD PUSH1 0x0 KECCAK256 PUSH1 0x0 SWAP1 SLOAD SWAP1 PUSH2 0x100 EXP SWAP1 DIV PUSH1 0xFF AND ISZERO PUSH2 0x1CB JUMPI PUSH1 0x40 MLOAD PUSH32 0x8C379A000000000000000000000000000000000000000000000000000000000 DUP2 MSTORE PUSH1 0x4 ADD PUSH2 0x1C2 SWAP1 PUSH2 0x1141 JUMP JUMPDEST PUSH1 0x40 MLOAD DUP1 SWAP2 SUB SWAP1 REVERT JUMPDEST DUP2 PUSH1 0x1 PUSH1 0x4 DUP1 SLOAD SWAP1 POP PUSH2 0x1DE SWAP2 SWAP1 PUSH2 0x1190 JUMP JUMPDEST DUP2 GT ISZERO PUSH2 0x220 JUMPI PUSH1 0x40 MLOAD PUSH32 0x8C379A000000000000000000000000000000000000000000000000000000000 DUP2 MSTORE PUSH1 0x4 ADD PUSH2 0x217 SWAP1 PUSH2 0x1210 JUMP JUMPDEST PUSH1 0x40 MLOAD DUP1 SWAP2 SUB SWAP1 REVERT JUMPDEST PUSH1 0x1 PUSH1 0x0 CALLER PUSH20 0xFFFFFFFFFFFFFFFFFFFFFFFFFFFFFFFFFFFFFFFF AND PUSH20 0xFFFFFFFFFFFFFFFFFFFFFFFFFFFFFFFFFFFFFFFF AND DUP2 MSTORE PUSH1 0x20 ADD SWAP1 DUP2 MSTORE PUSH1 0x20 ADD PUSH1 0x0 KECCAK256 PUSH1 0x0 SWAP1 SLOAD SWAP1 PUSH2 0x100 EXP SWAP1 DIV PUSH1 0xFF AND PUSH2 0x2AC JUMPI PUSH1 0x40 MLOAD PUSH32 0x8C379A000000000000000000000000000000000000000000000000000000000 DUP2 MSTORE PUSH1 0x4 ADD PUSH2 0x2A3 SWAP1 PUSH2 0x127C JUMP JUMPDEST PUSH1 0x40 MLOAD DUP1 SWAP2 SUB SWAP1 REVERT JUMPDEST DUP3 PUSH1 0x0 PUSH1 0x4 DUP3 DUP2 SLOAD DUP2 LT PUSH2 0x2C3 JUMPI PUSH2 0x2C2 PUSH2 0x129C JUMP JUMPDEST JUMPDEST SWAP1 PUSH1 0x0 MSTORE PUSH1 0x20 PUSH1 0x0 KECCAK256 SWAP1 PUSH1 0x4 MUL ADD PUSH1 0x40 MLOAD DUP1 PUSH1 0x80 ADD PUSH1 0x40 MSTORE SWAP1 DUP2 PUSH1 0x0 DUP3 ADD PUSH1 0x0 SWAP1 SLOAD SWAP1 PUSH2 0x100 EXP SWAP1 DIV PUSH20 0xFFFFFFFFFFFFFFFFFFFFFFFFFFFFFFFFFFFFFFFF AND PUSH20 0xFFFFFFFFFFFFFFFFFFFFFFFFFFFFFFFFFFFFFFFF AND PUSH20 0xFFFFFFFFFFFFFFFFFFFFFFFFFFFFFFFFFFFFFFFF AND DUP2 MSTORE PUSH1 0x20 ADD PUSH1 0x1 DUP3 ADD SLOAD DUP2 MSTORE PUSH1 0x20 ADD PUSH1 0x2 DUP3 ADD PUSH1 0x0 SWAP1 SLOAD SWAP1 PUSH2 0x100 EXP SWAP1 DIV PUSH1 0xFF AND ISZERO ISZERO ISZERO ISZERO DUP2 MSTORE PUSH1 0x20 ADD PUSH1 0x3 DUP3 ADD DUP1 SLOAD PUSH2 0x367 SWAP1 PUSH2 0x12FA JUMP JUMPDEST DUP1 PUSH1 0x1F ADD PUSH1 0x20 DUP1 SWAP2 DIV MUL PUSH1 0x20 ADD PUSH1 0x40 MLOAD SWAP1 DUP2 ADD PUSH1 0x40 MSTORE DUP1 SWAP3 SWAP2 SWAP1 DUP2 DUP2 MSTORE PUSH1 0x20 ADD DUP3 DUP1 SLOAD PUSH2 0x393 SWAP1 PUSH2 0x12FA JUMP JUMPDEST DUP1 ISZERO PUSH2 0x3E0 JUMPI DUP1 PUSH1 0x1F LT PUSH2 0x3B5 JUMPI PUSH2 0x100 DUP1 DUP4 SLOAD DIV MUL DUP4 MSTORE SWAP2 PUSH1 0x20 ADD SWAP2 PUSH2 0x3E0 JUMP JUMPDEST DUP3 ADD SWAP2 SWAP1 PUSH1 0x0 MSTORE PUSH1 0x20 PUSH1 0x0 KECCAK256 SWAP1 JUMPDEST DUP2 SLOAD DUP2 MSTORE SWAP1 PUSH1 0x1 ADD SWAP1 PUSH1 0x20 ADD DUP1 DUP4 GT PUSH2 0x3C3 JUMPI DUP3 SWAP1 SUB PUSH1 0x1F AND DUP3 ADD SWAP2 JUMPDEST POP POP POP POP POP DUP2 MSTORE POP POP SWAP1 POP DUP1 PUSH1 0x40 ADD MLOAD ISZERO PUSH2 0x430 JUMPI PUSH1 0x40 MLOAD PUSH32 0x8C379A000000000000000000000000000000000000000000000000000000000 DUP2 MSTORE PUSH1 0x4 ADD PUSH2 0x427 SWAP1 PUSH2 0x1377 JUMP JUMPDEST PUSH1 0x40 MLOAD DUP1 SWAP2 SUB SWAP1 REVERT JUMPDEST PUSH1 0x1 PUSH1 0x3 PUSH1 0x0 DUP8 DUP2 MSTORE PUSH1 0x20 ADD SWAP1 DUP2 MSTORE PUSH1 0x20 ADD PUSH1 0x0 KECCAK256 PUSH1 0x0 CALLER PUSH20 0xFFFFFFFFFFFFFFFFFFFFFFFFFFFFFFFFFFFFFFFF AND PUSH20 0xFFFFFFFFFFFFFFFFFFFFFFFFFFFFFFFFFFFFFFFF AND DUP2 MSTORE PUSH1 0x20 ADD SWAP1 DUP2 MSTORE PUSH1 0x20 ADD PUSH1 0x0 KECCAK256 PUSH1 0x0 PUSH2 0x100 EXP DUP2 SLOAD DUP2 PUSH1 0xFF MUL NOT AND SWAP1 DUP4 ISZERO ISZERO MUL OR SWAP1 SSTORE POP PUSH32 0x47AD3E4B0F4BDBE3AC08708BBC45053D2FF616911B39E65563FD9BD781909645 DUP6 CALLER PUSH1 0x40 MLOAD PUSH2 0x4CA SWAP3 SWAP2 SWAP1 PUSH2 0x1397 JUMP JUMPDEST PUSH1 0x40 MLOAD DUP1 SWAP2 SUB SWAP1 LOG1 POP POP POP POP POP JUMP JUMPDEST DUP1 PUSH1 0x3 PUSH1 0x0 DUP3 DUP2 MSTORE PUSH1 0x20 ADD SWAP1 DUP2 MSTORE PUSH1 0x20 ADD PUSH1 0x0 KECCAK256 PUSH1 0x0 CALLER PUSH20 0xFFFFFFFFFFFFFFFFFFFFFFFFFFFFFFFFFFFFFFFF AND PUSH20 0xFFFFFFFFFFFFFFFFFFFFFFFFFFFFFFFFFFFFFFFF AND DUP2 MSTORE PUSH1 0x20 ADD SWAP1 DUP2 MSTORE PUSH1 0x20 ADD PUSH1 0x0 KECCAK256 PUSH1 0x0 SWAP1 SLOAD SWAP1 PUSH2 0x100 EXP SWAP1 DIV PUSH1 0xFF AND PUSH2 0x577 JUMPI PUSH1 0x40 MLOAD PUSH32 0x8C379A000000000000000000000000000000000000000000000000000000000 DUP2 MSTORE PUSH1 0x4 ADD PUSH2 0x56E SWAP1 PUSH2 0x140C JUMP JUMPDEST PUSH1 0x40 MLOAD DUP1 SWAP2 SUB SWAP1 REVERT JUMPDEST DUP2 PUSH1 0x1 PUSH1 0x4 DUP1 SLOAD SWAP1 POP PUSH2 0x58A SWAP2 SWAP1 PUSH2 0x1190 JUMP JUMPDEST DUP2 GT ISZERO PUSH2 0x5CC JUMPI PUSH1 0x40 MLOAD PUSH32 0x8C379A000000000000000000000000000000000000000000000000000000000 DUP2 MSTORE PUSH1 0x4 ADD PUSH2 0x5C3 SWAP1 PUSH2 0x1210 JUMP JUMPDEST PUSH1 0x40 MLOAD DUP1 SWAP2 SUB SWAP1 REVERT JUMPDEST PUSH1 0x1 PUSH1 0x0 CALLER PUSH20 0xFFFFFFFFFFFFFFFFFFFFFFFFFFFFFFFFFFFFFFFF AND PUSH20 0xFFFFFFFFFFFFFFFFFFFFFFFFFFFFFFFFFFFFFFFF AND DUP2 MSTORE PUSH1 0x20 ADD SWAP1 DUP2 MSTORE PUSH1 0x20 ADD PUSH1 0x0 KECCAK256 PUSH1 0x0 SWAP1 SLOAD SWAP1 PUSH2 0x100 EXP SWAP1 DIV PUSH1 0xFF AND PUSH2 0x658 JUMPI PUSH1 0x40 MLOAD PUSH32 0x8C379A000000000000000000000000000000000000000000000000000000000 DUP2 MSTORE PUSH1 0x4 ADD PUSH2 0x64F SWAP1 PUSH2 0x127C JUMP JUMPDEST PUSH1 0x40 MLOAD DUP1 SWAP2 SUB SWAP1 REVERT JUMPDEST DUP3 PUSH1 0x0 PUSH1 0x4 DUP3 DUP2 SLOAD DUP2 LT PUSH2 0x66F JUMPI PUSH2 0x66E PUSH2 0x129C JUMP JUMPDEST JUMPDEST SWAP1 PUSH1 0x0 MSTORE PUSH1 0x20 PUSH1 0x0 KECCAK256 SWAP1 PUSH1 0x4 MUL ADD PUSH1 0x40 MLOAD DUP1 PUSH1 0x80 ADD PUSH1 0x40 MSTORE SWAP1 DUP2 PUSH1 0x0 DUP3 ADD PUSH1 0x0 SWAP1 SLOAD SWAP1 PUSH2 0x100 EXP SWAP1 DIV PUSH20 0xFFFFFFFFFFFFFFFFFFFFFFFFFFFFFFFFFFFFFFFF AND PUSH20 0xFFFFFFFFFFFFFFFFFFFFFFFFFFFFFFFFFFFFFFFF AND PUSH20 0xFFFFFFFFFFFFFFFFFFFFFFFFFFFFFFFFFFFFFFFF AND DUP2 MSTORE PUSH1 0x20 ADD PUSH1 0x1 DUP3 ADD SLOAD DUP2 MSTORE PUSH1 0x20 ADD PUSH1 0x2 DUP3 ADD PUSH1 0x0 SWAP1 SLOAD SWAP1 PUSH2 0x100 EXP SWAP1 DIV PUSH1 0xFF AND ISZERO ISZERO ISZERO ISZERO DUP2 MSTORE PUSH1 0x20 ADD PUSH1 0x3 DUP3 ADD DUP1 SLOAD PUSH2 0x713 SWAP1 PUSH2 0x12FA JUMP JUMPDEST DUP1 PUSH1 0x1F ADD PUSH1 0x20 DUP1 SWAP2 DIV MUL PUSH1 0x20 ADD PUSH1 0x40 MLOAD SWAP1 DUP2 ADD PUSH1 0x40 MSTORE DUP1 SWAP3 SWAP2 SWAP1 DUP2 DUP2 MSTORE PUSH1 0x20 ADD DUP3 DUP1 SLOAD PUSH2 0x73F SWAP1 PUSH2 0x12FA JUMP JUMPDEST DUP1 ISZERO PUSH2 0x78C JUMPI DUP1 PUSH1 0x1F LT PUSH2 0x761 JUMPI PUSH2 0x100 DUP1 DUP4 SLOAD DIV MUL DUP4 MSTORE SWAP2 PUSH1 0x20 ADD SWAP2 PUSH2 0x78C JUMP JUMPDEST DUP3 ADD SWAP2 SWAP1 PUSH1 0x0 MSTORE PUSH1 0x20 PUSH1 0x0 KECCAK256 SWAP1 JUMPDEST DUP2 SLOAD DUP2 MSTORE SWAP1 PUSH1 0x1 ADD SWAP1 PUSH1 0x20 ADD DUP1 DUP4 GT PUSH2 0x76F JUMPI DUP3 SWAP1 SUB PUSH1 0x1F AND DUP3 ADD SWAP2 JUMPDEST POP POP POP POP POP DUP2 MSTORE POP POP SWAP1 POP DUP1 PUSH1 0x40 ADD MLOAD ISZERO PUSH2 0x7DC JUMPI PUSH1 0x40 MLOAD PUSH32 0x8C379A000000000000000000000000000000000000000000000000000000000 DUP2 MSTORE PUSH1 0x4 ADD PUSH2 0x7D3 SWAP1 PUSH2 0x1377 JUMP JUMPDEST PUSH1 0x40 MLOAD DUP1 SWAP2 SUB SWAP1 REVERT JUMPDEST PUSH1 0x0 PUSH1 0x3 PUSH1 0x0 DUP8 DUP2 MSTORE PUSH1 0x20 ADD SWAP1 DUP2 MSTORE PUSH1 0x20 ADD PUSH1 0x0 KECCAK256 PUSH1 0x0 CALLER PUSH20 0xFFFFFFFFFFFFFFFFFFFFFFFFFFFFFFFFFFFFFFFF AND PUSH20 0xFFFFFFFFFFFFFFFFFFFFFFFFFFFFFFFFFFFFFFFF AND DUP2 MSTORE PUSH1 0x20 ADD SWAP1 DUP2 MSTORE PUSH1 0x20 ADD PUSH1 0x0 KECCAK256 PUSH1 0x0 PUSH2 0x100 EXP DUP2 SLOAD DUP2 PUSH1 0xFF MUL NOT AND SWAP1 DUP4 ISZERO ISZERO MUL OR SWAP1 SSTORE POP PUSH32 0xD5D64031E0F55CF42BC3B7D0462F8404A4D63F7CCF84BE9510CD6A5300552E42 DUP6 CALLER PUSH1 0x40 MLOAD PUSH2 0x876 SWAP3 SWAP2 SWAP1 PUSH2 0x1397 JUMP JUMPDEST PUSH1 0x40 MLOAD DUP1 SWAP2 SUB SWAP1 LOG1 POP POP POP POP POP JUMP JUMPDEST PUSH1 0x1 PUSH1 0x0 CALLER PUSH20 0xFFFFFFFFFFFFFFFFFFFFFFFFFFFFFFFFFFFFFFFF AND PUSH20 0xFFFFFFFFFFFFFFFFFFFFFFFFFFFFFFFFFFFFFFFF AND DUP2 MSTORE PUSH1 0x20 ADD SWAP1 DUP2 MSTORE PUSH1 0x20 ADD PUSH1 0x0 KECCAK256 PUSH1 0x0 SWAP1 SLOAD SWAP1 PUSH2 0x100 EXP SWAP1 DIV PUSH1 0xFF AND PUSH2 0x911 JUMPI PUSH1 0x40 MLOAD PUSH32 0x8C379A000000000000000000000000000000000000000000000000000000000 DUP2 MSTORE PUSH1 0x4 ADD PUSH2 0x908 SWAP1 PUSH2 0x127C JUMP JUMPDEST PUSH1 0x40 MLOAD DUP1 SWAP2 SUB SWAP1 REVERT JUMPDEST PUSH1 0x4 PUSH1 0x40 MLOAD DUP1 PUSH1 0x80 ADD PUSH1 0x40 MSTORE DUP1 DUP7 PUSH20 0xFFFFFFFFFFFFFFFFFFFFFFFFFFFFFFFFFFFFFFFF AND DUP2 MSTORE PUSH1 0x20 ADD DUP6 DUP2 MSTORE PUSH1 0x20 ADD PUSH1 0x0 ISZERO ISZERO DUP2 MSTORE PUSH1 0x20 ADD DUP5 DUP5 DUP1 DUP1 PUSH1 0x1F ADD PUSH1 0x20 DUP1 SWAP2 DIV MUL PUSH1 0x20 ADD PUSH1 0x40 MLOAD SWAP1 DUP2 ADD PUSH1 0x40 MSTORE DUP1 SWAP4 SWAP3 SWAP2 SWAP1 DUP2 DUP2 MSTORE PUSH1 0x20 ADD DUP4 DUP4 DUP1 DUP3 DUP5 CALLDATACOPY PUSH1 0x0 DUP2 DUP5 ADD MSTORE PUSH1 0x1F NOT PUSH1 0x1F DUP3 ADD AND SWAP1 POP DUP1 DUP4 ADD SWAP3 POP POP POP POP POP POP POP DUP2 MSTORE POP SWAP1 DUP1 PUSH1 0x1 DUP2 SLOAD ADD DUP1 DUP3 SSTORE DUP1 SWAP2 POP POP PUSH1 0x1 SWAP1 SUB SWAP1 PUSH1 0x0 MSTORE PUSH1 0x20 PUSH1 0x0 KECCAK256 SWAP1 PUSH1 0x4 MUL ADD PUSH1 0x0 SWAP1 SWAP2 SWAP1 SWAP2 SWAP1 SWAP2 POP PUSH1 0x0 DUP3 ADD MLOAD DUP2 PUSH1 0x0 ADD PUSH1 0x0 PUSH2 0x100 EXP DUP2 SLOAD DUP2 PUSH20 0xFFFFFFFFFFFFFFFFFFFFFFFFFFFFFFFFFFFFFFFF MUL NOT AND SWAP1 DUP4 PUSH20 0xFFFFFFFFFFFFFFFFFFFFFFFFFFFFFFFFFFFFFFFF AND MUL OR SWAP1 SSTORE POP PUSH1 0x20 DUP3 ADD MLOAD DUP2 PUSH1 0x1 ADD SSTORE PUSH1 0x40 DUP3 ADD MLOAD DUP2 PUSH1 0x2 ADD PUSH1 0x0 PUSH2 0x100 EXP DUP2 SLOAD DUP2 PUSH1 0xFF MUL NOT AND SWAP1 DUP4 ISZERO ISZERO MUL OR SWAP1 SSTORE POP PUSH1 0x60 DUP3 ADD MLOAD DUP2 PUSH1 0x3 ADD SWAP1 DUP2 PUSH2 0xA40 SWAP2 SWAP1 PUSH2 0x1612 JUMP JUMPDEST POP POP POP POP POP POP POP JUMP JUMPDEST DUP1 PUSH1 0x1 PUSH1 0x4 DUP1 SLOAD SWAP1 POP PUSH2 0xA5C SWAP2 SWAP1 PUSH2 0x1190 JUMP JUMPDEST DUP2 GT ISZERO PUSH2 0xA9E JUMPI PUSH1 0x40 MLOAD PUSH32 0x8C379A000000000000000000000000000000000000000000000000000000000 DUP2 MSTORE PUSH1 0x4 ADD PUSH2 0xA95 SWAP1 PUSH2 0x1210 JUMP JUMPDEST PUSH1 0x40 MLOAD DUP1 SWAP2 SUB SWAP1 REVERT JUMPDEST PUSH1 0x1 PUSH1 0x0 CALLER PUSH20 0xFFFFFFFFFFFFFFFFFFFFFFFFFFFFFFFFFFFFFFFF AND PUSH20 0xFFFFFFFFFFFFFFFFFFFFFFFFFFFFFFFFFFFFFFFF AND DUP2 MSTORE PUSH1 0x20 ADD SWAP1 DUP2 MSTORE PUSH1 0x20 ADD PUSH1 0x0 KECCAK256 PUSH1 0x0 SWAP1 SLOAD SWAP1 PUSH2 0x100 EXP SWAP1 DIV PUSH1 0xFF AND PUSH2 0xB2A JUMPI PUSH1 0x40 MLOAD PUSH32 0x8C379A000000000000000000000000000000000000000000000000000000000 DUP2 MSTORE PUSH1 0x4 ADD PUSH2 0xB21 SWAP1 PUSH2 0x127C JUMP JUMPDEST PUSH1 0x40 MLOAD DUP1 SWAP2 SUB SWAP1 REVERT JUMPDEST DUP2 PUSH1 0x0 PUSH1 0x4 DUP3 DUP2 SLOAD DUP2 LT PUSH2 0xB41 JUMPI PUSH2 0xB40 PUSH2 0x129C JUMP JUMPDEST JUMPDEST SWAP1 PUSH1 0x0 MSTORE PUSH1 0x20 PUSH1 0x0 KECCAK256 SWAP1 PUSH1 0x4 MUL ADD PUSH1 0x40 MLOAD DUP1 PUSH1 0x80 ADD PUSH1 0x40 MSTORE SWAP1 DUP2 PUSH1 0x0 DUP3 ADD PUSH1 0x0 SWAP1 SLOAD SWAP1 PUSH2 0x100 EXP SWAP1 DIV PUSH20 0xFFFFFFFFFFFFFFFFFFFFFFFFFFFFFFFFFFFFFFFF AND PUSH20 0xFFFFFFFFFFFFFFFFFFFFFFFFFFFFFFFFFFFFFFFF AND PUSH20 0xFFFFFFFFFFFFFFFFFFFFFFFFFFFFFFFFFFFFFFFF AND DUP2 MSTORE PUSH1 0x20 ADD PUSH1 0x1 DUP3 ADD SLOAD DUP2 MSTORE PUSH1 0x20 ADD PUSH1 0x2 DUP3 ADD PUSH1 0x0 SWAP1 SLOAD SWAP1 PUSH2 0x100 EXP SWAP1 DIV PUSH1 0xFF AND ISZERO ISZERO ISZERO ISZERO DUP2 MSTORE PUSH1 0x20 ADD PUSH1 0x3 DUP3 ADD DUP1 SLOAD PUSH2 0xBE5 SWAP1 PUSH2 0x12FA JUMP JUMPDEST DUP1 PUSH1 0x1F ADD PUSH1 0x20 DUP1 SWAP2 DIV MUL PUSH1 0x20 ADD PUSH1 0x40 MLOAD SWAP1 DUP2 ADD PUSH1 0x40 MSTORE DUP1 SWAP3 SWAP2 SWAP1 DUP2 DUP2 MSTORE PUSH1 0x20 ADD DUP3 DUP1 SLOAD PUSH2 0xC11 SWAP1 PUSH2 0x12FA JUMP JUMPDEST DUP1 ISZERO PUSH2 0xC5E JUMPI DUP1 PUSH1 0x1F LT PUSH2 0xC33 JUMPI PUSH2 0x100 DUP1 DUP4 SLOAD DIV MUL DUP4 MSTORE SWAP2 PUSH1 0x20 ADD SWAP2 PUSH2 0xC5E JUMP JUMPDEST DUP3 ADD SWAP2 SWAP1 PUSH1 0x0 MSTORE PUSH1 0x20 PUSH1 0x0 KECCAK256 SWAP1 JUMPDEST DUP2 SLOAD DUP2 MSTORE SWAP1 PUSH1 0x1 ADD SWAP1 PUSH1 0x20 ADD DUP1 DUP4 GT PUSH2 0xC41 JUMPI DUP3 SWAP1 SUB PUSH1 0x1F AND DUP3 ADD SWAP2 JUMPDEST POP POP POP POP POP DUP2 MSTORE POP POP SWAP1 POP DUP1 PUSH1 0x40 ADD MLOAD ISZERO PUSH2 0xCAE JUMPI PUSH1 0x40 MLOAD PUSH32 0x8C379A000000000000000000000000000000000000000000000000000000000 DUP2 MSTORE PUSH1 0x4 ADD PUSH2 0xCA5 SWAP1 PUSH2 0x1377 JUMP JUMPDEST PUSH1 0x40 MLOAD DUP1 SWAP2 SUB SWAP1 REVERT JUMPDEST PUSH1 0x2 SLOAD PUSH2 0xCBA DUP6 PUSH2 0xE1F JUMP JUMPDEST LT ISZERO PUSH2 0xCFB JUMPI PUSH1 0x40 MLOAD PUSH32 0x8C379A000000000000000000000000000000000000000000000000000000000 DUP2 MSTORE PUSH1 0x4 ADD PUSH2 0xCF2 SWAP1 PUSH2 0x1730 JUMP JUMPDEST PUSH1 0x40 MLOAD DUP1 SWAP2 SUB SWAP1 REVERT JUMPDEST PUSH1 0x0 PUSH1 0x4 DUP6 DUP2 SLOAD DUP2 LT PUSH2 0xD11 JUMPI PUSH2 0xD10 PUSH2 0x129C JUMP JUMPDEST JUMPDEST SWAP1 PUSH1 0x0 MSTORE PUSH1 0x20 PUSH1 0x0 KECCAK256 SWAP1 PUSH1 0x4 MUL ADD SWAP1 POP PUSH1 0x0 DUP2 PUSH1 0x0 ADD PUSH1 0x0 SWAP1 SLOAD SWAP1 PUSH2 0x100 EXP SWAP1 DIV PUSH20 0xFFFFFFFFFFFFFFFFFFFFFFFFFFFFFFFFFFFFFFFF AND PUSH20 0xFFFFFFFFFFFFFFFFFFFFFFFFFFFFFFFFFFFFFFFF AND DUP3 PUSH1 0x1 ADD SLOAD DUP4 PUSH1 0x3 ADD PUSH1 0x40 MLOAD PUSH2 0xD74 SWAP2 SWAP1 PUSH2 0x17DE JUMP JUMPDEST PUSH1 0x0 PUSH1 0x40 MLOAD DUP1 DUP4 SUB DUP2 DUP6 DUP8 GAS CALL SWAP3 POP POP POP RETURNDATASIZE DUP1 PUSH1 0x0 DUP2 EQ PUSH2 0xDB1 JUMPI PUSH1 0x40 MLOAD SWAP2 POP PUSH1 0x1F NOT PUSH1 0x3F RETURNDATASIZE ADD AND DUP3 ADD PUSH1 0x40 MSTORE RETURNDATASIZE DUP3 MSTORE RETURNDATASIZE PUSH1 0x0 PUSH1 0x20 DUP5 ADD RETURNDATACOPY PUSH2 0xDB6 JUMP JUMPDEST PUSH1 0x60 SWAP2 POP JUMPDEST POP POP SWAP1 POP DUP1 PUSH2 0xDFA JUMPI PUSH1 0x40 MLOAD PUSH32 0x8C379A000000000000000000000000000000000000000000000000000000000 DUP2 MSTORE PUSH1 0x4 ADD PUSH2 0xDF1 SWAP1 PUSH2 0x1841 JUMP JUMPDEST PUSH1 0x40 MLOAD DUP1 SWAP2 SUB SWAP1 REVERT JUMPDEST PUSH1 0x1 DUP3 PUSH1 0x2 ADD PUSH1 0x0 PUSH2 0x100 EXP DUP2 SLOAD DUP2 PUSH1 0xFF MUL NOT AND SWAP1 DUP4 ISZERO ISZERO MUL OR SWAP1 SSTORE POP POP POP POP POP POP POP JUMP JUMPDEST PUSH1 0x0 DUP1 JUMPDEST PUSH1 0x0 DUP1 SLOAD SWAP1 POP DUP2 LT ISZERO PUSH2 0xEF3 JUMPI PUSH1 0x3 PUSH1 0x0 DUP5 DUP2 MSTORE PUSH1 0x20 ADD SWAP1 DUP2 MSTORE PUSH1 0x20 ADD PUSH1 0x0 KECCAK256 PUSH1 0x0 DUP1 DUP4 DUP2 SLOAD DUP2 LT PUSH2 0xE58 JUMPI PUSH2 0xE57 PUSH2 0x129C JUMP JUMPDEST JUMPDEST SWAP1 PUSH1 0x0 MSTORE PUSH1 0x20 PUSH1 0x0 KECCAK256 ADD PUSH1 0x0 SWAP1 SLOAD SWAP1 PUSH2 0x100 EXP SWAP1 DIV PUSH20 0xFFFFFFFFFFFFFFFFFFFFFFFFFFFFFFFFFFFFFFFF AND PUSH20 0xFFFFFFFFFFFFFFFFFFFFFFFFFFFFFFFFFFFFFFFF AND PUSH20 0xFFFFFFFFFFFFFFFFFFFFFFFFFFFFFFFFFFFFFFFF AND DUP2 MSTORE PUSH1 0x20 ADD SWAP1 DUP2 MSTORE PUSH1 0x20 ADD PUSH1 0x0 KECCAK256 PUSH1 0x0 SWAP1 SLOAD SWAP1 PUSH2 0x100 EXP SWAP1 DIV PUSH1 0xFF AND ISZERO PUSH2 0xEE0 JUMPI PUSH1 0x1 DUP3 PUSH2 0xEDD SWAP2 SWAP1 PUSH2 0x1861 JUMP JUMPDEST SWAP2 POP JUMPDEST DUP1 DUP1 PUSH2 0xEEB SWAP1 PUSH2 0x1895 JUMP JUMPDEST SWAP2 POP POP PUSH2 0xE23 JUMP JUMPDEST POP SWAP2 SWAP1 POP JUMP JUMPDEST PUSH1 0x0 PUSH20 0xFFFFFFFFFFFFFFFFFFFFFFFFFFFFFFFFFFFFFFFF DUP3 AND SWAP1 POP SWAP2 SWAP1 POP JUMP JUMPDEST PUSH1 0x0 PUSH2 0xF24 DUP3 PUSH2 0xEF9 JUMP JUMPDEST SWAP1 POP SWAP2 SWAP1 POP JUMP JUMPDEST PUSH2 0xF34 DUP2 PUSH2 0xF19 JUMP JUMPDEST DUP3 MSTORE POP POP JUMP JUMPDEST PUSH1 0x0 DUP2 SWAP1 POP SWAP2 SWAP1 POP JUMP JUMPDEST PUSH2 0xF4D DUP2 PUSH2 0xF3A JUMP JUMPDEST DUP3 MSTORE POP POP JUMP JUMPDEST PUSH1 0x0 PUSH1 0x40 DUP3 ADD SWAP1 POP PUSH2 0xF68 PUSH1 0x0 DUP4 ADD DUP6 PUSH2 0xF2B JUMP JUMPDEST PUSH2 0xF75 PUSH1 0x20 DUP4 ADD DUP5 PUSH2 0xF44 JUMP JUMPDEST SWAP4 SWAP3 POP POP POP JUMP JUMPDEST PUSH1 0x0 DUP1 REVERT JUMPDEST PUSH1 0x0 DUP1 REVERT JUMPDEST PUSH2 0xF8F DUP2 PUSH2 0xF3A JUMP JUMPDEST DUP2 EQ PUSH2 0xF9A JUMPI PUSH1 0x0 DUP1 REVERT JUMPDEST POP JUMP JUMPDEST PUSH1 0x0 DUP2 CALLDATALOAD SWAP1 POP PUSH2 0xFAC DUP2 PUSH2 0xF86 JUMP JUMPDEST SWAP3 SWAP2 POP POP JUMP JUMPDEST PUSH1 0x0 PUSH1 0x20 DUP3 DUP5 SUB SLT ISZERO PUSH2 0xFC8 JUMPI PUSH2 0xFC7 PUSH2 0xF7C JUMP JUMPDEST JUMPDEST PUSH1 0x0 PUSH2 0xFD6 DUP5 DUP3 DUP6 ADD PUSH2 0xF9D JUMP JUMPDEST SWAP2 POP POP SWAP3 SWAP2 POP POP JUMP JUMPDEST PUSH2 0xFE8 DUP2 PUSH2 0xF19 JUMP JUMPDEST DUP2 EQ PUSH2 0xFF3 JUMPI PUSH1 0x0 DUP1 REVERT JUMPDEST POP JUMP JUMPDEST PUSH1 0x0 DUP2 CALLDATALOAD SWAP1 POP PUSH2 0x1005 DUP2 PUSH2 0xFDF JUMP JUMPDEST SWAP3 SWAP2 POP POP JUMP JUMPDEST PUSH1 0x0 DUP1 REVERT JUMPDEST PUSH1 0x0 DUP1 REVERT JUMPDEST PUSH1 0x0 DUP1 REVERT JUMPDEST PUSH1 0x0 DUP1 DUP4 PUSH1 0x1F DUP5 ADD SLT PUSH2 0x1030 JUMPI PUSH2 0x102F PUSH2 0x100B JUMP JUMPDEST JUMPDEST DUP3 CALLDATALOAD SWAP1 POP PUSH8 0xFFFFFFFFFFFFFFFF DUP2 GT ISZERO PUSH2 0x104D JUMPI PUSH2 0x104C PUSH2 0x1010 JUMP JUMPDEST JUMPDEST PUSH1 0x20 DUP4 ADD SWAP2 POP DUP4 PUSH1 0x1 DUP3 MUL DUP4 ADD GT ISZERO PUSH2 0x1069 JUMPI PUSH2 0x1068 PUSH2 0x1015 JUMP JUMPDEST JUMPDEST SWAP3 POP SWAP3 SWAP1 POP JUMP JUMPDEST PUSH1 0x0 DUP1 PUSH1 0x0 DUP1 PUSH1 0x60 DUP6 DUP8 SUB SLT ISZERO PUSH2 0x108A JUMPI PUSH2 0x1089 PUSH2 0xF7C JUMP JUMPDEST JUMPDEST PUSH1 0x0 PUSH2 0x1098 DUP8 DUP3 DUP9 ADD PUSH2 0xFF6 JUMP JUMPDEST SWAP5 POP POP PUSH1 0x20 PUSH2 0x10A9 DUP8 DUP3 DUP9 ADD PUSH2 0xF9D JUMP JUMPDEST SWAP4 POP POP PUSH1 0x40 DUP6 ADD CALLDATALOAD PUSH8 0xFFFFFFFFFFFFFFFF DUP2 GT ISZERO PUSH2 0x10CA JUMPI PUSH2 0x10C9 PUSH2 0xF81 JUMP JUMPDEST JUMPDEST PUSH2 0x10D6 DUP8 DUP3 DUP9 ADD PUSH2 0x101A JUMP JUMPDEST SWAP3 POP SWAP3 POP POP SWAP3 SWAP6 SWAP2 SWAP5 POP SWAP3 POP JUMP JUMPDEST PUSH1 0x0 DUP3 DUP3 MSTORE PUSH1 0x20 DUP3 ADD SWAP1 POP SWAP3 SWAP2 POP POP JUMP JUMPDEST PUSH32 0x5472616E73616374696F6E20416C726561647920417070726F7665642E2E2E00 PUSH1 0x0 DUP3 ADD MSTORE POP JUMP JUMPDEST PUSH1 0x0 PUSH2 0x112B PUSH1 0x1F DUP4 PUSH2 0x10E4 JUMP JUMPDEST SWAP2 POP PUSH2 0x1136 DUP3 PUSH2 0x10F5 JUMP JUMPDEST PUSH1 0x20 DUP3 ADD SWAP1 POP SWAP2 SWAP1 POP JUMP JUMPDEST PUSH1 0x0 PUSH1 0x20 DUP3 ADD SWAP1 POP DUP2 DUP2 SUB PUSH1 0x0 DUP4 ADD MSTORE PUSH2 0x115A DUP2 PUSH2 0x111E JUMP JUMPDEST SWAP1 POP SWAP2 SWAP1 POP JUMP JUMPDEST PUSH32 0x4E487B7100000000000000000000000000000000000000000000000000000000 PUSH1 0x0 MSTORE PUSH1 0x11 PUSH1 0x4 MSTORE PUSH1 0x24 PUSH1 0x0 REVERT JUMPDEST PUSH1 0x0 PUSH2 0x119B DUP3 PUSH2 0xF3A JUMP JUMPDEST SWAP2 POP PUSH2 0x11A6 DUP4 PUSH2 0xF3A JUMP JUMPDEST SWAP3 POP DUP3 DUP3 SUB SWAP1 POP DUP2 DUP2 GT ISZERO PUSH2 0x11BE JUMPI PUSH2 0x11BD PUSH2 0x1161 JUMP JUMPDEST JUMPDEST SWAP3 SWAP2 POP POP JUMP JUMPDEST PUSH32 0x5472616E73616374696F6E20446F6573206E6F742045786973742E2E2E000000 PUSH1 0x0 DUP3 ADD MSTORE POP JUMP JUMPDEST PUSH1 0x0 PUSH2 0x11FA PUSH1 0x1D DUP4 PUSH2 0x10E4 JUMP JUMPDEST SWAP2 POP PUSH2 0x1205 DUP3 PUSH2 0x11C4 JUMP JUMPDEST PUSH1 0x20 DUP3 ADD SWAP1 POP SWAP2 SWAP1 POP JUMP JUMPDEST PUSH1 0x0 PUSH1 0x20 DUP3 ADD SWAP1 POP DUP2 DUP2 SUB PUSH1 0x0 DUP4 ADD MSTORE PUSH2 0x1229 DUP2 PUSH2 0x11ED JUMP JUMPDEST SWAP1 POP SWAP2 SWAP1 POP JUMP JUMPDEST PUSH32 0x4E6F7420746865204F776E65722E2E2E2E000000000000000000000000000000 PUSH1 0x0 DUP3 ADD MSTORE POP JUMP JUMPDEST PUSH1 0x0 PUSH2 0x1266 PUSH1 0x11 DUP4 PUSH2 0x10E4 JUMP JUMPDEST SWAP2 POP PUSH2 0x1271 DUP3 PUSH2 0x1230 JUMP JUMPDEST PUSH1 0x20 DUP3 ADD SWAP1 POP SWAP2 SWAP1 POP JUMP JUMPDEST PUSH1 0x0 PUSH1 0x20 DUP3 ADD SWAP1 POP DUP2 DUP2 SUB PUSH1 0x0 DUP4 ADD MSTORE PUSH2 0x1295 DUP2 PUSH2 0x1259 JUMP JUMPDEST SWAP1 POP SWAP2 SWAP1 POP JUMP JUMPDEST PUSH32 0x4E487B7100000000000000000000000000000000000000000000000000000000 PUSH1 0x0 MSTORE PUSH1 0x32 PUSH1 0x4 MSTORE PUSH1 0x24 PUSH1 0x0 REVERT JUMPDEST PUSH32 0x4E487B7100000000000000000000000000000000000000000000000000000000 PUSH1 0x0 MSTORE PUSH1 0x22 PUSH1 0x4 MSTORE PUSH1 0x24 PUSH1 0x0 REVERT JUMPDEST PUSH1 0x0 PUSH1 0x2 DUP3 DIV SWAP1 POP PUSH1 0x1 DUP3 AND DUP1 PUSH2 0x1312 JUMPI PUSH1 0x7F DUP3 AND SWAP2 POP JUMPDEST PUSH1 0x20 DUP3 LT DUP2 SUB PUSH2 0x1325 JUMPI PUSH2 0x1324 PUSH2 0x12CB JUMP JUMPDEST JUMPDEST POP SWAP2 SWAP1 POP JUMP JUMPDEST PUSH32 0x5472616E73616374696F6E20416C726561647920457865637574656400000000 PUSH1 0x0 DUP3 ADD MSTORE POP JUMP JUMPDEST PUSH1 0x0 PUSH2 0x1361 PUSH1 0x1C DUP4 PUSH2 0x10E4 JUMP JUMPDEST SWAP2 POP PUSH2 0x136C DUP3 PUSH2 0x132B JUMP JUMPDEST PUSH1 0x20 DUP3 ADD SWAP1 POP SWAP2 SWAP1 POP JUMP JUMPDEST PUSH1 0x0 PUSH1 0x20 DUP3 ADD SWAP1 POP DUP2 DUP2 SUB PUSH1 0x0 DUP4 ADD MSTORE PUSH2 0x1390 DUP2 PUSH2 0x1354 JUMP JUMPDEST SWAP1 POP SWAP2 SWAP1 POP JUMP JUMPDEST PUSH1 0x0 PUSH1 0x40 DUP3 ADD SWAP1 POP PUSH2 0x13AC PUSH1 0x0 DUP4 ADD DUP6 PUSH2 0xF44 JUMP JUMPDEST PUSH2 0x13B9 PUSH1 0x20 DUP4 ADD DUP5 PUSH2 0xF2B JUMP JUMPDEST SWAP4 SWAP3 POP POP POP JUMP JUMPDEST PUSH32 0x5472616E73616374696F6E204E6F7420417070726F7665642E2E2E0000000000 PUSH1 0x0 DUP3 ADD MSTORE POP JUMP JUMPDEST PUSH1 0x0 PUSH2 0x13F6 PUSH1 0x1B DUP4 PUSH2 0x10E4 JUMP JUMPDEST SWAP2 POP PUSH2 0x1401 DUP3 PUSH2 0x13C0 JUMP JUMPDEST PUSH1 0x20 DUP3 ADD SWAP1 POP SWAP2 SWAP1 POP JUMP JUMPDEST PUSH1 0x0 PUSH1 0x20 DUP3 ADD SWAP1 POP DUP2 DUP2 SUB PUSH1 0x0 DUP4 ADD MSTORE PUSH2 0x1425 DUP2 PUSH2 0x13E9 JUMP JUMPDEST SWAP1 POP SWAP2 SWAP1 POP JUMP JUMPDEST PUSH1 0x0 DUP2 MLOAD SWAP1 POP SWAP2 SWAP1 POP JUMP JUMPDEST PUSH32 0x4E487B7100000000000000000000000000000000000000000000000000000000 PUSH1 0x0 MSTORE PUSH1 0x41 PUSH1 0x4 MSTORE PUSH1 0x24 PUSH1 0x0 REVERT JUMPDEST PUSH1 0x0 DUP2 SWAP1 POP DUP2 PUSH1 0x0 MSTORE PUSH1 0x20 PUSH1 0x0 KECCAK256 SWAP1 POP SWAP2 SWAP1 POP JUMP JUMPDEST PUSH1 0x0 PUSH1 0x20 PUSH1 0x1F DUP4 ADD DIV SWAP1 POP SWAP2 SWAP1 POP JUMP JUMPDEST PUSH1 0x0 DUP3 DUP3 SHL SWAP1 POP SWAP3 SWAP2 POP POP JUMP JUMPDEST PUSH1 0x0 PUSH1 0x8 DUP4 MUL PUSH2 0x14C8 PUSH32 0xFFFFFFFFFFFFFFFFFFFFFFFFFFFFFFFFFFFFFFFFFFFFFFFFFFFFFFFFFFFFFFFF DUP3 PUSH2 0x148B JUMP JUMPDEST PUSH2 0x14D2 DUP7 DUP4 PUSH2 0x148B JUMP JUMPDEST SWAP6 POP DUP1 NOT DUP5 AND SWAP4 POP DUP1 DUP7 AND DUP5 OR SWAP3 POP POP POP SWAP4 SWAP3 POP POP POP JUMP JUMPDEST PUSH1 0x0 DUP2 SWAP1 POP SWAP2 SWAP1 POP JUMP JUMPDEST PUSH1 0x0 PUSH2 0x150F PUSH2 0x150A PUSH2 0x1505 DUP5 PUSH2 0xF3A JUMP JUMPDEST PUSH2 0x14EA JUMP JUMPDEST PUSH2 0xF3A JUMP JUMPDEST SWAP1 POP SWAP2 SWAP1 POP JUMP JUMPDEST PUSH1 0x0 DUP2 SWAP1 POP SWAP2 SWAP1 POP JUMP JUMPDEST PUSH2 0x1529 DUP4 PUSH2 0x14F4 JUMP JUMPDEST PUSH2 0x153D PUSH2 0x1535 DUP3 PUSH2 0x1516 JUMP JUMPDEST DUP5 DUP5 SLOAD PUSH2 0x1498 JUMP JUMPDEST DUP3 SSTORE POP POP POP POP JUMP JUMPDEST PUSH1 0x0 SWAP1 JUMP JUMPDEST PUSH2 0x1552 PUSH2 0x1545 JUMP JUMPDEST PUSH2 0x155D DUP2 DUP5 DUP5 PUSH2 0x1520 JUMP JUMPDEST POP POP POP JUMP JUMPDEST JUMPDEST DUP2 DUP2 LT ISZERO PUSH2 0x1581 JUMPI PUSH2 0x1576 PUSH1 0x0 DUP3 PUSH2 0x154A JUMP JUMPDEST PUSH1 0x1 DUP2 ADD SWAP1 POP PUSH2 0x1563 JUMP JUMPDEST POP POP JUMP JUMPDEST PUSH1 0x1F DUP3 GT ISZERO PUSH2 0x15C6 JUMPI PUSH2 0x1597 DUP2 PUSH2 0x1466 JUMP JUMPDEST PUSH2 0x15A0 DUP5 PUSH2 0x147B JUMP JUMPDEST DUP2 ADD PUSH1 0x20 DUP6 LT ISZERO PUSH2 0x15AF JUMPI DUP2 SWAP1 POP JUMPDEST PUSH2 0x15C3 PUSH2 0x15BB DUP6 PUSH2 0x147B JUMP JUMPDEST DUP4 ADD DUP3 PUSH2 0x1562 JUMP JUMPDEST POP POP JUMPDEST POP POP POP JUMP JUMPDEST PUSH1 0x0 DUP3 DUP3 SHR SWAP1 POP SWAP3 SWAP2 POP POP JUMP JUMPDEST PUSH1 0x0 PUSH2 0x15E9 PUSH1 0x0 NOT DUP5 PUSH1 0x8 MUL PUSH2 0x15CB JUMP JUMPDEST NOT DUP1 DUP4 AND SWAP2 POP POP SWAP3 SWAP2 POP POP JUMP JUMPDEST PUSH1 0x0 PUSH2 0x1602 DUP4 DUP4 PUSH2 0x15D8 JUMP JUMPDEST SWAP2 POP DUP3 PUSH1 0x2 MUL DUP3 OR SWAP1 POP SWAP3 SWAP2 POP POP JUMP JUMPDEST PUSH2 0x161B DUP3 PUSH2 0x142C JUMP JUMPDEST PUSH8 0xFFFFFFFFFFFFFFFF DUP2 GT ISZERO PUSH2 0x1634 JUMPI PUSH2 0x1633 PUSH2 0x1437 JUMP JUMPDEST JUMPDEST PUSH2 0x163E DUP3 SLOAD PUSH2 0x12FA JUMP JUMPDEST PUSH2 0x1649 DUP3 DUP3 DUP6 PUSH2 0x1585 JUMP JUMPDEST PUSH1 0x0 PUSH1 0x20 SWAP1 POP PUSH1 0x1F DUP4 GT PUSH1 0x1 DUP2 EQ PUSH2 0x167C JUMPI PUSH1 0x0 DUP5 ISZERO PUSH2 0x166A JUMPI DUP3 DUP8 ADD MLOAD SWAP1 POP JUMPDEST PUSH2 0x1674 DUP6 DUP3 PUSH2 0x15F6 JUMP JUMPDEST DUP7 SSTORE POP PUSH2 0x16DC JUMP JUMPDEST PUSH1 0x1F NOT DUP5 AND PUSH2 0x168A DUP7 PUSH2 0x1466 JUMP JUMPDEST PUSH1 0x0 JUMPDEST DUP3 DUP2 LT ISZERO PUSH2 0x16B2 JUMPI DUP5 DUP10 ADD MLOAD DUP3 SSTORE PUSH1 0x1 DUP3 ADD SWAP2 POP PUSH1 0x20 DUP6 ADD SWAP5 POP PUSH1 0x20 DUP2 ADD SWAP1 POP PUSH2 0x168D JUMP JUMPDEST DUP7 DUP4 LT ISZERO PUSH2 0x16CF JUMPI DUP5 DUP10 ADD MLOAD PUSH2 0x16CB PUSH1 0x1F DUP10 AND DUP3 PUSH2 0x15D8 JUMP JUMPDEST DUP4 SSTORE POP JUMPDEST PUSH1 0x1 PUSH1 0x2 DUP9 MUL ADD DUP9 SSTORE POP POP POP JUMPDEST POP POP POP POP POP POP JUMP JUMPDEST PUSH32 0x4E6F7420456E6F75676820417070726F76616C732E2E2E000000000000000000 PUSH1 0x0 DUP3 ADD MSTORE POP JUMP JUMPDEST PUSH1 0x0 PUSH2 0x171A PUSH1 0x17 DUP4 PUSH2 0x10E4 JUMP JUMPDEST SWAP2 POP PUSH2 0x1725 DUP3 PUSH2 0x16E4 JUMP JUMPDEST PUSH1 0x20 DUP3 ADD SWAP1 POP SWAP2 SWAP1 POP JUMP JUMPDEST PUSH1 0x0 PUSH1 0x20 DUP3 ADD SWAP1 POP DUP2 DUP2 SUB PUSH1 0x0 DUP4 ADD MSTORE PUSH2 0x1749 DUP2 PUSH2 0x170D JUMP JUMPDEST SWAP1 POP SWAP2 SWAP1 POP JUMP JUMPDEST PUSH1 0x0 DUP2 SWAP1 POP SWAP3 SWAP2 POP POP JUMP JUMPDEST PUSH1 0x0 DUP2 SLOAD PUSH2 0x1768 DUP2 PUSH2 0x12FA JUMP JUMPDEST PUSH2 0x1772 DUP2 DUP7 PUSH2 0x1750 JUMP JUMPDEST SWAP5 POP PUSH1 0x1 DUP3 AND PUSH1 0x0 DUP2 EQ PUSH2 0x178D JUMPI PUSH1 0x1 DUP2 EQ PUSH2 0x17A2 JUMPI PUSH2 0x17D5 JUMP JUMPDEST PUSH1 0xFF NOT DUP4 AND DUP7 MSTORE DUP2 ISZERO ISZERO DUP3 MUL DUP7 ADD SWAP4 POP PUSH2 0x17D5 JUMP JUMPDEST PUSH2 0x17AB DUP6 PUSH2 0x1466 JUMP JUMPDEST PUSH1 0x0 JUMPDEST DUP4 DUP2 LT ISZERO PUSH2 0x17CD JUMPI DUP2 SLOAD DUP2 DUP10 ADD MSTORE PUSH1 0x1 DUP3 ADD SWAP2 POP PUSH1 0x20 DUP2 ADD SWAP1 POP PUSH2 0x17AE JUMP JUMPDEST DUP4 DUP9 ADD SWAP6 POP POP POP JUMPDEST POP POP POP SWAP3 SWAP2 POP POP JUMP JUMPDEST PUSH1 0x0 PUSH2 0x17EA DUP3 DUP5 PUSH2 0x175B JUMP JUMPDEST SWAP2 POP DUP2 SWAP1 POP SWAP3 SWAP2 POP POP JUMP JUMPDEST PUSH32 0x5472616E73616374696F6E20496E636F6D706C65746500000000000000000000 PUSH1 0x0 DUP3 ADD MSTORE POP JUMP JUMPDEST PUSH1 0x0 PUSH2 0x182B PUSH1 0x16 DUP4 PUSH2 0x10E4 JUMP JUMPDEST SWAP2 POP PUSH2 0x1836 DUP3 PUSH2 0x17F5 JUMP JUMPDEST PUSH1 0x20 DUP3 ADD SWAP1 POP SWAP2 SWAP1 POP JUMP JUMPDEST PUSH1 0x0 PUSH1 0x20 DUP3 ADD SWAP1 POP DUP2 DUP2 SUB PUSH1 0x0 DUP4 ADD MSTORE PUSH2 0x185A DUP2 PUSH2 0x181E JUMP JUMPDEST SWAP1 POP SWAP2 SWAP1 POP JUMP JUMPDEST PUSH1 0x0 PUSH2 0x186C DUP3 PUSH2 0xF3A JUMP JUMPDEST SWAP2 POP PUSH2 0x1877 DUP4 PUSH2 0xF3A JUMP JUMPDEST SWAP3 POP DUP3 DUP3 ADD SWAP1 POP DUP1 DUP3 GT ISZERO PUSH2 0x188F JUMPI PUSH2 0x188E PUSH2 0x1161 JUMP JUMPDEST JUMPDEST SWAP3 SWAP2 POP POP JUMP JUMPDEST PUSH1 0x0 PUSH2 0x18A0 DUP3 PUSH2 0xF3A JUMP JUMPDEST SWAP2 POP PUSH32 0xFFFFFFFFFFFFFFFFFFFFFFFFFFFFFFFFFFFFFFFFFFFFFFFFFFFFFFFFFFFFFFFF DUP3 SUB PUSH2 0x18D2 JUMPI PUSH2 0x18D1 PUSH2 0x1161 JUMP JUMPDEST JUMPDEST PUSH1 0x1 DUP3 ADD SWAP1 POP SWAP2 SWAP1 POP JUMP INVALID LOG2 PUSH5 0x6970667358 0x22 SLT KECCAK256 PUSH6 0x9B893EF9C729 0x2C 0xB4 TIMESTAMP 0x2F PUSH15 0xC6963356C3639957628D153AFF5DA1 SLT MUL 0x5F SWAP15 0xB0 PUSH5 0x736F6C6343 STOP ADDMOD LT STOP CALLER "
				},
				"gasEstimates": {
					"creation": {
						"codeDepositCost": "1283800",
						"executionCost": "infinite",
						"totalCost": "infinite"
					},
					"external": {
						"approveTransaction(uint256)": "infinite",
						"executeTransaction(uint256)": "infinite",
						"makeTransaction(address,uint256,bytes)": "infinite",
						"revokeApproval(uint256)": "infinite"
					},
					"internal": {
						"canExec(uint256)": "infinite"
					}
				},
				"methodIdentifiers": {
					"approveTransaction(uint256)": "242232d1",
					"executeTransaction(uint256)": "ee22610b",
					"makeTransaction(address,uint256,bytes)": "c0c64a49",
					"revokeApproval(uint256)": "b1e130fc"
				}
			},
			"storageLayout": {
				"storage": [
					{
						"astId": 22,
						"contract": "contracts/MultiSigWallet.sol:MultiSigWallet",
						"label": "owners",
						"offset": 0,
						"slot": "0",
						"type": "t_array(t_address)dyn_storage"
					},
					{
						"astId": 26,
						"contract": "contracts/MultiSigWallet.sol:MultiSigWallet",
						"label": "isOwner",
						"offset": 0,
						"slot": "1",
						"type": "t_mapping(t_address,t_bool)"
					},
					{
						"astId": 28,
						"contract": "contracts/MultiSigWallet.sol:MultiSigWallet",
						"label": "required",
						"offset": 0,
						"slot": "2",
						"type": "t_uint256"
					},
					{
						"astId": 34,
						"contract": "contracts/MultiSigWallet.sol:MultiSigWallet",
						"label": "approval",
						"offset": 0,
						"slot": "3",
						"type": "t_mapping(t_uint256,t_mapping(t_address,t_bool))"
					},
					{
						"astId": 47,
						"contract": "contracts/MultiSigWallet.sol:MultiSigWallet",
						"label": "transactions",
						"offset": 0,
						"slot": "4",
						"type": "t_array(t_struct(Transaction)43_storage)dyn_storage"
					}
				],
				"types": {
					"t_address": {
						"encoding": "inplace",
						"label": "address",
						"numberOfBytes": "20"
					},
					"t_array(t_address)dyn_storage": {
						"base": "t_address",
						"encoding": "dynamic_array",
						"label": "address[]",
						"numberOfBytes": "32"
					},
					"t_array(t_struct(Transaction)43_storage)dyn_storage": {
						"base": "t_struct(Transaction)43_storage",
						"encoding": "dynamic_array",
						"label": "struct MultiSigWallet.Transaction[]",
						"numberOfBytes": "32"
					},
					"t_bool": {
						"encoding": "inplace",
						"label": "bool",
						"numberOfBytes": "1"
					},
					"t_bytes_storage": {
						"encoding": "bytes",
						"label": "bytes",
						"numberOfBytes": "32"
					},
					"t_mapping(t_address,t_bool)": {
						"encoding": "mapping",
						"key": "t_address",
						"label": "mapping(address => bool)",
						"numberOfBytes": "32",
						"value": "t_bool"
					},
					"t_mapping(t_uint256,t_mapping(t_address,t_bool))": {
						"encoding": "mapping",
						"key": "t_uint256",
						"label": "mapping(uint256 => mapping(address => bool))",
						"numberOfBytes": "32",
						"value": "t_mapping(t_address,t_bool)"
					},
					"t_struct(Transaction)43_storage": {
						"encoding": "inplace",
						"label": "struct MultiSigWallet.Transaction",
						"members": [
							{
								"astId": 36,
								"contract": "contracts/MultiSigWallet.sol:MultiSigWallet",
								"label": "to",
								"offset": 0,
								"slot": "0",
								"type": "t_address"
							},
							{
								"astId": 38,
								"contract": "contracts/MultiSigWallet.sol:MultiSigWallet",
								"label": "value",
								"offset": 0,
								"slot": "1",
								"type": "t_uint256"
							},
							{
								"astId": 40,
								"contract": "contracts/MultiSigWallet.sol:MultiSigWallet",
								"label": "executed",
								"offset": 0,
								"slot": "2",
								"type": "t_bool"
							},
							{
								"astId": 42,
								"contract": "contracts/MultiSigWallet.sol:MultiSigWallet",
								"label": "data",
								"offset": 0,
								"slot": "3",
								"type": "t_bytes_storage"
							}
						],
						"numberOfBytes": "128"
					},
					"t_uint256": {
						"encoding": "inplace",
						"label": "uint256",
						"numberOfBytes": "32"
					}
				}
			},
			"userdoc": {
				"kind": "user",
				"methods": {},
				"version": 1
			}
		}
	}
}