{
	"contracts/EthersWallet.sol": {
		"EthersWallet": {
			"abi": [
				{
					"inputs": [],
					"stateMutability": "nonpayable",
					"type": "constructor"
				},
				{
					"anonymous": false,
					"inputs": [
						{
							"indexed": false,
							"internalType": "bool",
							"name": "",
							"type": "bool"
						},
						{
							"indexed": false,
							"internalType": "bytes",
							"name": "",
							"type": "bytes"
						}
					],
					"name": "Transfered",
					"type": "event"
				},
				{
					"anonymous": false,
					"inputs": [
						{
							"indexed": false,
							"internalType": "address",
							"name": "",
							"type": "address"
						},
						{
							"indexed": false,
							"internalType": "address",
							"name": "",
							"type": "address"
						},
						{
							"indexed": false,
							"internalType": "uint256",
							"name": "",
							"type": "uint256"
						}
					],
					"name": "Transferring",
					"type": "event"
				},
				{
					"inputs": [],
					"name": "userBalance",
					"outputs": [
						{
							"internalType": "uint256",
							"name": "",
							"type": "uint256"
						}
					],
					"stateMutability": "view",
					"type": "function"
				},
				{
					"inputs": [
						{
							"internalType": "address",
							"name": "_to",
							"type": "address"
						},
						{
							"internalType": "address",
							"name": "_from",
							"type": "address"
						},
						{
							"internalType": "uint256",
							"name": "_value",
							"type": "uint256"
						}
					],
					"name": "withdraw",
					"outputs": [],
					"stateMutability": "nonpayable",
					"type": "function"
				},
				{
					"stateMutability": "payable",
					"type": "receive"
				}
			],
			"devdoc": {
				"kind": "dev",
				"methods": {},
				"version": 1
			},
			"evm": {
				"assembly": "    /* \"contracts/EthersWallet.sol\":66:1240  contract EthersWallet {... */\n  mstore(0x40, 0x80)\n    /* \"contracts/EthersWallet.sol\":509:560  constructor() {... */\n  callvalue\n  dup1\n  iszero\n  tag_1\n  jumpi\n  0x00\n  dup1\n  revert\ntag_1:\n  pop\n    /* \"contracts/EthersWallet.sol\":542:552  msg.sender */\n  caller\n    /* \"contracts/EthersWallet.sol\":534:539  owner */\n  0x00\n  dup1\n    /* \"contracts/EthersWallet.sol\":534:552  owner = msg.sender */\n  0x0100\n  exp\n  dup2\n  sload\n  dup2\n  0xffffffffffffffffffffffffffffffffffffffff\n  mul\n  not\n  and\n  swap1\n  dup4\n  0xffffffffffffffffffffffffffffffffffffffff\n  and\n  mul\n  or\n  swap1\n  sstore\n  pop\n    /* \"contracts/EthersWallet.sol\":66:1240  contract EthersWallet {... */\n  dataSize(sub_0)\n  dup1\n  dataOffset(sub_0)\n  0x00\n  codecopy\n  0x00\n  return\nstop\n\nsub_0: assembly {\n        /* \"contracts/EthersWallet.sol\":66:1240  contract EthersWallet {... */\n      mstore(0x40, 0x80)\n      jumpi(tag_1, lt(calldatasize, 0x04))\n      shr(0xe0, calldataload(0x00))\n      dup1\n      0xbf152765\n      eq\n      tag_3\n      jumpi\n      dup1\n      0xd9caed12\n      eq\n      tag_4\n      jumpi\n      jump(tag_2)\n    tag_1:\n      jumpi(tag_2, calldatasize)\n        /* \"contracts/EthersWallet.sol\":631:640  msg.value */\n      callvalue\n        /* \"contracts/EthersWallet.sol\":607:615  balances */\n      0x01\n        /* \"contracts/EthersWallet.sol\":607:627  balances[msg.sender] */\n      0x00\n        /* \"contracts/EthersWallet.sol\":616:626  msg.sender */\n      caller\n        /* \"contracts/EthersWallet.sol\":607:627  balances[msg.sender] */\n      0xffffffffffffffffffffffffffffffffffffffff\n      and\n      0xffffffffffffffffffffffffffffffffffffffff\n      and\n      dup2\n      mstore\n      0x20\n      add\n      swap1\n      dup2\n      mstore\n      0x20\n      add\n      0x00\n      keccak256\n      0x00\n        /* \"contracts/EthersWallet.sol\":607:640  balances[msg.sender] += msg.value */\n      dup3\n      dup3\n      sload\n      tag_7\n      swap2\n      swap1\n      tag_8\n      jump\t// in\n    tag_7:\n      swap3\n      pop\n      pop\n      dup2\n      swap1\n      sstore\n      stop\n        /* \"contracts/EthersWallet.sol\":66:1240  contract EthersWallet {... */\n    tag_2:\n      0x00\n      dup1\n      revert\n        /* \"contracts/EthersWallet.sol\":1141:1237  function userBalance() external view returns(uint){... */\n    tag_3:\n      callvalue\n      dup1\n      iszero\n      tag_9\n      jumpi\n      0x00\n      dup1\n      revert\n    tag_9:\n      pop\n      tag_10\n      tag_11\n      jump\t// in\n    tag_10:\n      mload(0x40)\n      tag_12\n      swap2\n      swap1\n      tag_13\n      jump\t// in\n    tag_12:\n      mload(0x40)\n      dup1\n      swap2\n      sub\n      swap1\n      return\n        /* \"contracts/EthersWallet.sol\":892:1133  function withdraw(address _to,address _from, uint _value) external isOwner {... */\n    tag_4:\n      callvalue\n      dup1\n      iszero\n      tag_14\n      jumpi\n      0x00\n      dup1\n      revert\n    tag_14:\n      pop\n      tag_15\n      0x04\n      dup1\n      calldatasize\n      sub\n      dup2\n      add\n      swap1\n      tag_16\n      swap2\n      swap1\n      tag_17\n      jump\t// in\n    tag_16:\n      tag_18\n      jump\t// in\n    tag_15:\n      stop\n        /* \"contracts/EthersWallet.sol\":1141:1237  function userBalance() external view returns(uint){... */\n    tag_11:\n        /* \"contracts/EthersWallet.sol\":1186:1190  uint */\n      0x00\n        /* \"contracts/EthersWallet.sol\":1209:1217  balances */\n      0x01\n        /* \"contracts/EthersWallet.sol\":1209:1229  balances[msg.sender] */\n      0x00\n        /* \"contracts/EthersWallet.sol\":1218:1228  msg.sender */\n      caller\n        /* \"contracts/EthersWallet.sol\":1209:1229  balances[msg.sender] */\n      0xffffffffffffffffffffffffffffffffffffffff\n      and\n      0xffffffffffffffffffffffffffffffffffffffff\n      and\n      dup2\n      mstore\n      0x20\n      add\n      swap1\n      dup2\n      mstore\n      0x20\n      add\n      0x00\n      keccak256\n      sload\n        /* \"contracts/EthersWallet.sol\":1202:1229  return balances[msg.sender] */\n      swap1\n      pop\n        /* \"contracts/EthersWallet.sol\":1141:1237  function userBalance() external view returns(uint){... */\n      swap1\n      jump\t// out\n        /* \"contracts/EthersWallet.sol\":892:1133  function withdraw(address _to,address _from, uint _value) external isOwner {... */\n    tag_18:\n        /* \"contracts/EthersWallet.sol\":312:317  owner */\n      0x00\n      dup1\n      sload\n      swap1\n      0x0100\n      exp\n      swap1\n      div\n      0xffffffffffffffffffffffffffffffffffffffff\n      and\n        /* \"contracts/EthersWallet.sol\":298:317  msg.sender == owner */\n      0xffffffffffffffffffffffffffffffffffffffff\n      and\n        /* \"contracts/EthersWallet.sol\":298:308  msg.sender */\n      caller\n        /* \"contracts/EthersWallet.sol\":298:317  msg.sender == owner */\n      0xffffffffffffffffffffffffffffffffffffffff\n      and\n      eq\n        /* \"contracts/EthersWallet.sol\":290:335  require(msg.sender == owner, \"Not the Owner\") */\n      tag_21\n      jumpi\n      mload(0x40)\n      0x08c379a000000000000000000000000000000000000000000000000000000000\n      dup2\n      mstore\n      0x04\n      add\n      tag_22\n      swap1\n      tag_23\n      jump\t// in\n    tag_22:\n      mload(0x40)\n      dup1\n      swap2\n      sub\n      swap1\n      revert\n    tag_21:\n        /* \"contracts/EthersWallet.sol\":980:992  bool success */\n      0x00\n        /* \"contracts/EthersWallet.sol\":994:1011  bytes memory data */\n      dup1\n        /* \"contracts/EthersWallet.sol\":1015:1018  _to */\n      dup5\n        /* \"contracts/EthersWallet.sol\":1015:1023  _to.call */\n      0xffffffffffffffffffffffffffffffffffffffff\n      and\n        /* \"contracts/EthersWallet.sol\":1031:1037  _value */\n      dup4\n        /* \"contracts/EthersWallet.sol\":1015:1042  _to.call{value: _value}(\"\") */\n      mload(0x40)\n      tag_25\n      swap1\n      tag_26\n      jump\t// in\n    tag_25:\n      0x00\n      mload(0x40)\n      dup1\n      dup4\n      sub\n      dup2\n      dup6\n      dup8\n      gas\n      call\n      swap3\n      pop\n      pop\n      pop\n      returndatasize\n      dup1\n      0x00\n      dup2\n      eq\n      tag_29\n      jumpi\n      mload(0x40)\n      swap2\n      pop\n      and(add(returndatasize, 0x3f), not(0x1f))\n      dup3\n      add\n      0x40\n      mstore\n      returndatasize\n      dup3\n      mstore\n      returndatasize\n      0x00\n      0x20\n      dup5\n      add\n      returndatacopy\n      jump(tag_28)\n    tag_29:\n      0x60\n      swap2\n      pop\n    tag_28:\n      pop\n        /* \"contracts/EthersWallet.sol\":979:1042  (bool success, bytes memory data) = _to.call{value: _value}(\"\") */\n      swap2\n      pop\n      swap2\n      pop\n        /* \"contracts/EthersWallet.sol\":1052:1083  changeBalance(_to,_from,_value) */\n      tag_30\n        /* \"contracts/EthersWallet.sol\":1066:1069  _to */\n      dup6\n        /* \"contracts/EthersWallet.sol\":1070:1075  _from */\n      dup6\n        /* \"contracts/EthersWallet.sol\":1076:1082  _value */\n      dup6\n        /* \"contracts/EthersWallet.sol\":1052:1065  changeBalance */\n      tag_31\n        /* \"contracts/EthersWallet.sol\":1052:1083  changeBalance(_to,_from,_value) */\n      jump\t// in\n    tag_30:\n        /* \"contracts/EthersWallet.sol\":1099:1123  Transfered(success,data) */\n      0x211793e58f00b3e734d024ba6cd956e5c3371570ce2f36886f32d842cc67e236\n        /* \"contracts/EthersWallet.sol\":1110:1117  success */\n      dup3\n        /* \"contracts/EthersWallet.sol\":1118:1122  data */\n      dup3\n        /* \"contracts/EthersWallet.sol\":1099:1123  Transfered(success,data) */\n      mload(0x40)\n      tag_32\n      swap3\n      swap2\n      swap1\n      tag_33\n      jump\t// in\n    tag_32:\n      mload(0x40)\n      dup1\n      swap2\n      sub\n      swap1\n      log1\n        /* \"contracts/EthersWallet.sol\":967:1133  {... */\n      pop\n      pop\n        /* \"contracts/EthersWallet.sol\":892:1133  function withdraw(address _to,address _from, uint _value) external isOwner {... */\n      pop\n      pop\n      pop\n      jump\t// out\n        /* \"contracts/EthersWallet.sol\":658:884  function changeBalance(address _to,address _from,uint _value) internal suffBal(_value,_from) {... */\n    tag_31:\n        /* \"contracts/EthersWallet.sol\":737:743  _value */\n      dup1\n        /* \"contracts/EthersWallet.sol\":744:749  _from */\n      dup3\n        /* \"contracts/EthersWallet.sol\":441:449  balances */\n      0x01\n        /* \"contracts/EthersWallet.sol\":441:456  balances[_from] */\n      0x00\n        /* \"contracts/EthersWallet.sol\":450:455  _from */\n      dup3\n        /* \"contracts/EthersWallet.sol\":441:456  balances[_from] */\n      0xffffffffffffffffffffffffffffffffffffffff\n      and\n      0xffffffffffffffffffffffffffffffffffffffff\n      and\n      dup2\n      mstore\n      0x20\n      add\n      swap1\n      dup2\n      mstore\n      0x20\n      add\n      0x00\n      keccak256\n      sload\n        /* \"contracts/EthersWallet.sol\":431:437  _value */\n      dup3\n        /* \"contracts/EthersWallet.sol\":431:456  _value <= balances[_from] */\n      gt\n      iszero\n        /* \"contracts/EthersWallet.sol\":423:481  require(_value <= balances[_from], \"Insufficient Balance\") */\n      tag_35\n      jumpi\n      mload(0x40)\n      0x08c379a000000000000000000000000000000000000000000000000000000000\n      dup2\n      mstore\n      0x04\n      add\n      tag_36\n      swap1\n      tag_37\n      jump\t// in\n    tag_36:\n      mload(0x40)\n      dup1\n      swap2\n      sub\n      swap1\n      revert\n    tag_35:\n        /* \"contracts/EthersWallet.sol\":781:787  _value */\n      dup3\n        /* \"contracts/EthersWallet.sol\":764:772  balances */\n      0x01\n        /* \"contracts/EthersWallet.sol\":764:777  balances[_to] */\n      0x00\n        /* \"contracts/EthersWallet.sol\":773:776  _to */\n      dup8\n        /* \"contracts/EthersWallet.sol\":764:777  balances[_to] */\n      0xffffffffffffffffffffffffffffffffffffffff\n      and\n      0xffffffffffffffffffffffffffffffffffffffff\n      and\n      dup2\n      mstore\n      0x20\n      add\n      swap1\n      dup2\n      mstore\n      0x20\n      add\n      0x00\n      keccak256\n      0x00\n        /* \"contracts/EthersWallet.sol\":764:787  balances[_to] += _value */\n      dup3\n      dup3\n      sload\n      tag_39\n      swap2\n      swap1\n      tag_8\n      jump\t// in\n    tag_39:\n      swap3\n      pop\n      pop\n      dup2\n      swap1\n      sstore\n      pop\n        /* \"contracts/EthersWallet.sol\":817:823  _value */\n      dup3\n        /* \"contracts/EthersWallet.sol\":798:806  balances */\n      0x01\n        /* \"contracts/EthersWallet.sol\":798:813  balances[_from] */\n      0x00\n        /* \"contracts/EthersWallet.sol\":807:812  _from */\n      dup7\n        /* \"contracts/EthersWallet.sol\":798:813  balances[_from] */\n      0xffffffffffffffffffffffffffffffffffffffff\n      and\n      0xffffffffffffffffffffffffffffffffffffffff\n      and\n      dup2\n      mstore\n      0x20\n      add\n      swap1\n      dup2\n      mstore\n      0x20\n      add\n      0x00\n      keccak256\n      0x00\n        /* \"contracts/EthersWallet.sol\":798:823  balances[_from] -= _value */\n      dup3\n      dup3\n      sload\n      tag_40\n      swap2\n      swap1\n      tag_41\n      jump\t// in\n    tag_40:\n      swap3\n      pop\n      pop\n      dup2\n      swap1\n      sstore\n      pop\n        /* \"contracts/EthersWallet.sol\":841:874  Transferring(_to,_from,msg.value) */\n      0xd53683c2ddbfbeaa0862bf4bb2ad12d32e889a7539dde25b42322b1139dd5c43\n        /* \"contracts/EthersWallet.sol\":854:857  _to */\n      dup6\n        /* \"contracts/EthersWallet.sol\":858:863  _from */\n      dup6\n        /* \"contracts/EthersWallet.sol\":864:873  msg.value */\n      callvalue\n        /* \"contracts/EthersWallet.sol\":841:874  Transferring(_to,_from,msg.value) */\n      mload(0x40)\n      tag_42\n      swap4\n      swap3\n      swap2\n      swap1\n      tag_43\n      jump\t// in\n    tag_42:\n      mload(0x40)\n      dup1\n      swap2\n      sub\n      swap1\n      log1\n        /* \"contracts/EthersWallet.sol\":658:884  function changeBalance(address _to,address _from,uint _value) internal suffBal(_value,_from) {... */\n      pop\n      pop\n      pop\n      pop\n      pop\n      jump\t// out\n        /* \"#utility.yul\":7:84   */\n    tag_44:\n        /* \"#utility.yul\":44:51   */\n      0x00\n        /* \"#utility.yul\":73:78   */\n      dup2\n        /* \"#utility.yul\":62:78   */\n      swap1\n      pop\n        /* \"#utility.yul\":7:84   */\n      swap2\n      swap1\n      pop\n      jump\t// out\n        /* \"#utility.yul\":90:270   */\n    tag_45:\n        /* \"#utility.yul\":138:215   */\n      0x4e487b7100000000000000000000000000000000000000000000000000000000\n        /* \"#utility.yul\":135:136   */\n      0x00\n        /* \"#utility.yul\":128:216   */\n      mstore\n        /* \"#utility.yul\":235:239   */\n      0x11\n        /* \"#utility.yul\":232:233   */\n      0x04\n        /* \"#utility.yul\":225:240   */\n      mstore\n        /* \"#utility.yul\":259:263   */\n      0x24\n        /* \"#utility.yul\":256:257   */\n      0x00\n        /* \"#utility.yul\":249:264   */\n      revert\n        /* \"#utility.yul\":276:467   */\n    tag_8:\n        /* \"#utility.yul\":316:319   */\n      0x00\n        /* \"#utility.yul\":335:355   */\n      tag_76\n        /* \"#utility.yul\":353:354   */\n      dup3\n        /* \"#utility.yul\":335:355   */\n      tag_44\n      jump\t// in\n    tag_76:\n        /* \"#utility.yul\":330:355   */\n      swap2\n      pop\n        /* \"#utility.yul\":369:389   */\n      tag_77\n        /* \"#utility.yul\":387:388   */\n      dup4\n        /* \"#utility.yul\":369:389   */\n      tag_44\n      jump\t// in\n    tag_77:\n        /* \"#utility.yul\":364:389   */\n      swap3\n      pop\n        /* \"#utility.yul\":412:413   */\n      dup3\n        /* \"#utility.yul\":409:410   */\n      dup3\n        /* \"#utility.yul\":405:414   */\n      add\n        /* \"#utility.yul\":398:414   */\n      swap1\n      pop\n        /* \"#utility.yul\":433:436   */\n      dup1\n        /* \"#utility.yul\":430:431   */\n      dup3\n        /* \"#utility.yul\":427:437   */\n      gt\n        /* \"#utility.yul\":424:460   */\n      iszero\n      tag_78\n      jumpi\n        /* \"#utility.yul\":440:458   */\n      tag_79\n      tag_45\n      jump\t// in\n    tag_79:\n        /* \"#utility.yul\":424:460   */\n    tag_78:\n        /* \"#utility.yul\":276:467   */\n      swap3\n      swap2\n      pop\n      pop\n      jump\t// out\n        /* \"#utility.yul\":473:591   */\n    tag_46:\n        /* \"#utility.yul\":560:584   */\n      tag_81\n        /* \"#utility.yul\":578:583   */\n      dup2\n        /* \"#utility.yul\":560:584   */\n      tag_44\n      jump\t// in\n    tag_81:\n        /* \"#utility.yul\":555:558   */\n      dup3\n        /* \"#utility.yul\":548:585   */\n      mstore\n        /* \"#utility.yul\":473:591   */\n      pop\n      pop\n      jump\t// out\n        /* \"#utility.yul\":597:819   */\n    tag_13:\n        /* \"#utility.yul\":690:694   */\n      0x00\n        /* \"#utility.yul\":728:730   */\n      0x20\n        /* \"#utility.yul\":717:726   */\n      dup3\n        /* \"#utility.yul\":713:731   */\n      add\n        /* \"#utility.yul\":705:731   */\n      swap1\n      pop\n        /* \"#utility.yul\":741:812   */\n      tag_83\n        /* \"#utility.yul\":809:810   */\n      0x00\n        /* \"#utility.yul\":798:807   */\n      dup4\n        /* \"#utility.yul\":794:811   */\n      add\n        /* \"#utility.yul\":785:791   */\n      dup5\n        /* \"#utility.yul\":741:812   */\n      tag_46\n      jump\t// in\n    tag_83:\n        /* \"#utility.yul\":597:819   */\n      swap3\n      swap2\n      pop\n      pop\n      jump\t// out\n        /* \"#utility.yul\":906:1023   */\n    tag_48:\n        /* \"#utility.yul\":1015:1016   */\n      0x00\n        /* \"#utility.yul\":1012:1013   */\n      dup1\n        /* \"#utility.yul\":1005:1017   */\n      revert\n        /* \"#utility.yul\":1152:1278   */\n    tag_50:\n        /* \"#utility.yul\":1189:1196   */\n      0x00\n        /* \"#utility.yul\":1229:1271   */\n      0xffffffffffffffffffffffffffffffffffffffff\n        /* \"#utility.yul\":1222:1227   */\n      dup3\n        /* \"#utility.yul\":1218:1272   */\n      and\n        /* \"#utility.yul\":1207:1272   */\n      swap1\n      pop\n        /* \"#utility.yul\":1152:1278   */\n      swap2\n      swap1\n      pop\n      jump\t// out\n        /* \"#utility.yul\":1284:1380   */\n    tag_51:\n        /* \"#utility.yul\":1321:1328   */\n      0x00\n        /* \"#utility.yul\":1350:1374   */\n      tag_89\n        /* \"#utility.yul\":1368:1373   */\n      dup3\n        /* \"#utility.yul\":1350:1374   */\n      tag_50\n      jump\t// in\n    tag_89:\n        /* \"#utility.yul\":1339:1374   */\n      swap1\n      pop\n        /* \"#utility.yul\":1284:1380   */\n      swap2\n      swap1\n      pop\n      jump\t// out\n        /* \"#utility.yul\":1386:1508   */\n    tag_52:\n        /* \"#utility.yul\":1459:1483   */\n      tag_91\n        /* \"#utility.yul\":1477:1482   */\n      dup2\n        /* \"#utility.yul\":1459:1483   */\n      tag_51\n      jump\t// in\n    tag_91:\n        /* \"#utility.yul\":1452:1457   */\n      dup2\n        /* \"#utility.yul\":1449:1484   */\n      eq\n        /* \"#utility.yul\":1439:1502   */\n      tag_92\n      jumpi\n        /* \"#utility.yul\":1498:1499   */\n      0x00\n        /* \"#utility.yul\":1495:1496   */\n      dup1\n        /* \"#utility.yul\":1488:1500   */\n      revert\n        /* \"#utility.yul\":1439:1502   */\n    tag_92:\n        /* \"#utility.yul\":1386:1508   */\n      pop\n      jump\t// out\n        /* \"#utility.yul\":1514:1653   */\n    tag_53:\n        /* \"#utility.yul\":1560:1565   */\n      0x00\n        /* \"#utility.yul\":1598:1604   */\n      dup2\n        /* \"#utility.yul\":1585:1605   */\n      calldataload\n        /* \"#utility.yul\":1576:1605   */\n      swap1\n      pop\n        /* \"#utility.yul\":1614:1647   */\n      tag_94\n        /* \"#utility.yul\":1641:1646   */\n      dup2\n        /* \"#utility.yul\":1614:1647   */\n      tag_52\n      jump\t// in\n    tag_94:\n        /* \"#utility.yul\":1514:1653   */\n      swap3\n      swap2\n      pop\n      pop\n      jump\t// out\n        /* \"#utility.yul\":1659:1781   */\n    tag_54:\n        /* \"#utility.yul\":1732:1756   */\n      tag_96\n        /* \"#utility.yul\":1750:1755   */\n      dup2\n        /* \"#utility.yul\":1732:1756   */\n      tag_44\n      jump\t// in\n    tag_96:\n        /* \"#utility.yul\":1725:1730   */\n      dup2\n        /* \"#utility.yul\":1722:1757   */\n      eq\n        /* \"#utility.yul\":1712:1775   */\n      tag_97\n      jumpi\n        /* \"#utility.yul\":1771:1772   */\n      0x00\n        /* \"#utility.yul\":1768:1769   */\n      dup1\n        /* \"#utility.yul\":1761:1773   */\n      revert\n        /* \"#utility.yul\":1712:1775   */\n    tag_97:\n        /* \"#utility.yul\":1659:1781   */\n      pop\n      jump\t// out\n        /* \"#utility.yul\":1787:1926   */\n    tag_55:\n        /* \"#utility.yul\":1833:1838   */\n      0x00\n        /* \"#utility.yul\":1871:1877   */\n      dup2\n        /* \"#utility.yul\":1858:1878   */\n      calldataload\n        /* \"#utility.yul\":1849:1878   */\n      swap1\n      pop\n        /* \"#utility.yul\":1887:1920   */\n      tag_99\n        /* \"#utility.yul\":1914:1919   */\n      dup2\n        /* \"#utility.yul\":1887:1920   */\n      tag_54\n      jump\t// in\n    tag_99:\n        /* \"#utility.yul\":1787:1926   */\n      swap3\n      swap2\n      pop\n      pop\n      jump\t// out\n        /* \"#utility.yul\":1932:2551   */\n    tag_17:\n        /* \"#utility.yul\":2009:2015   */\n      0x00\n        /* \"#utility.yul\":2017:2023   */\n      dup1\n        /* \"#utility.yul\":2025:2031   */\n      0x00\n        /* \"#utility.yul\":2074:2076   */\n      0x60\n        /* \"#utility.yul\":2062:2071   */\n      dup5\n        /* \"#utility.yul\":2053:2060   */\n      dup7\n        /* \"#utility.yul\":2049:2072   */\n      sub\n        /* \"#utility.yul\":2045:2077   */\n      slt\n        /* \"#utility.yul\":2042:2161   */\n      iszero\n      tag_101\n      jumpi\n        /* \"#utility.yul\":2080:2159   */\n      tag_102\n      tag_48\n      jump\t// in\n    tag_102:\n        /* \"#utility.yul\":2042:2161   */\n    tag_101:\n        /* \"#utility.yul\":2200:2201   */\n      0x00\n        /* \"#utility.yul\":2225:2278   */\n      tag_103\n        /* \"#utility.yul\":2270:2277   */\n      dup7\n        /* \"#utility.yul\":2261:2267   */\n      dup3\n        /* \"#utility.yul\":2250:2259   */\n      dup8\n        /* \"#utility.yul\":2246:2268   */\n      add\n        /* \"#utility.yul\":2225:2278   */\n      tag_53\n      jump\t// in\n    tag_103:\n        /* \"#utility.yul\":2215:2278   */\n      swap4\n      pop\n        /* \"#utility.yul\":2171:2288   */\n      pop\n        /* \"#utility.yul\":2327:2329   */\n      0x20\n        /* \"#utility.yul\":2353:2406   */\n      tag_104\n        /* \"#utility.yul\":2398:2405   */\n      dup7\n        /* \"#utility.yul\":2389:2395   */\n      dup3\n        /* \"#utility.yul\":2378:2387   */\n      dup8\n        /* \"#utility.yul\":2374:2396   */\n      add\n        /* \"#utility.yul\":2353:2406   */\n      tag_53\n      jump\t// in\n    tag_104:\n        /* \"#utility.yul\":2343:2406   */\n      swap3\n      pop\n        /* \"#utility.yul\":2298:2416   */\n      pop\n        /* \"#utility.yul\":2455:2457   */\n      0x40\n        /* \"#utility.yul\":2481:2534   */\n      tag_105\n        /* \"#utility.yul\":2526:2533   */\n      dup7\n        /* \"#utility.yul\":2517:2523   */\n      dup3\n        /* \"#utility.yul\":2506:2515   */\n      dup8\n        /* \"#utility.yul\":2502:2524   */\n      add\n        /* \"#utility.yul\":2481:2534   */\n      tag_55\n      jump\t// in\n    tag_105:\n        /* \"#utility.yul\":2471:2534   */\n      swap2\n      pop\n        /* \"#utility.yul\":2426:2544   */\n      pop\n        /* \"#utility.yul\":1932:2551   */\n      swap3\n      pop\n      swap3\n      pop\n      swap3\n      jump\t// out\n        /* \"#utility.yul\":2557:2726   */\n    tag_56:\n        /* \"#utility.yul\":2641:2652   */\n      0x00\n        /* \"#utility.yul\":2675:2681   */\n      dup3\n        /* \"#utility.yul\":2670:2673   */\n      dup3\n        /* \"#utility.yul\":2663:2682   */\n      mstore\n        /* \"#utility.yul\":2715:2719   */\n      0x20\n        /* \"#utility.yul\":2710:2713   */\n      dup3\n        /* \"#utility.yul\":2706:2720   */\n      add\n        /* \"#utility.yul\":2691:2720   */\n      swap1\n      pop\n        /* \"#utility.yul\":2557:2726   */\n      swap3\n      swap2\n      pop\n      pop\n      jump\t// out\n        /* \"#utility.yul\":2732:2895   */\n    tag_57:\n        /* \"#utility.yul\":2872:2887   */\n      0x4e6f7420746865204f776e657200000000000000000000000000000000000000\n        /* \"#utility.yul\":2868:2869   */\n      0x00\n        /* \"#utility.yul\":2860:2866   */\n      dup3\n        /* \"#utility.yul\":2856:2870   */\n      add\n        /* \"#utility.yul\":2849:2888   */\n      mstore\n        /* \"#utility.yul\":2732:2895   */\n      pop\n      jump\t// out\n        /* \"#utility.yul\":2901:3267   */\n    tag_58:\n        /* \"#utility.yul\":3043:3046   */\n      0x00\n        /* \"#utility.yul\":3064:3131   */\n      tag_109\n        /* \"#utility.yul\":3128:3130   */\n      0x0d\n        /* \"#utility.yul\":3123:3126   */\n      dup4\n        /* \"#utility.yul\":3064:3131   */\n      tag_56\n      jump\t// in\n    tag_109:\n        /* \"#utility.yul\":3057:3131   */\n      swap2\n      pop\n        /* \"#utility.yul\":3140:3233   */\n      tag_110\n        /* \"#utility.yul\":3229:3232   */\n      dup3\n        /* \"#utility.yul\":3140:3233   */\n      tag_57\n      jump\t// in\n    tag_110:\n        /* \"#utility.yul\":3258:3260   */\n      0x20\n        /* \"#utility.yul\":3253:3256   */\n      dup3\n        /* \"#utility.yul\":3249:3261   */\n      add\n        /* \"#utility.yul\":3242:3261   */\n      swap1\n      pop\n        /* \"#utility.yul\":2901:3267   */\n      swap2\n      swap1\n      pop\n      jump\t// out\n        /* \"#utility.yul\":3273:3692   */\n    tag_23:\n        /* \"#utility.yul\":3439:3443   */\n      0x00\n        /* \"#utility.yul\":3477:3479   */\n      0x20\n        /* \"#utility.yul\":3466:3475   */\n      dup3\n        /* \"#utility.yul\":3462:3480   */\n      add\n        /* \"#utility.yul\":3454:3480   */\n      swap1\n      pop\n        /* \"#utility.yul\":3526:3535   */\n      dup2\n        /* \"#utility.yul\":3520:3524   */\n      dup2\n        /* \"#utility.yul\":3516:3536   */\n      sub\n        /* \"#utility.yul\":3512:3513   */\n      0x00\n        /* \"#utility.yul\":3501:3510   */\n      dup4\n        /* \"#utility.yul\":3497:3514   */\n      add\n        /* \"#utility.yul\":3490:3537   */\n      mstore\n        /* \"#utility.yul\":3554:3685   */\n      tag_112\n        /* \"#utility.yul\":3680:3684   */\n      dup2\n        /* \"#utility.yul\":3554:3685   */\n      tag_58\n      jump\t// in\n    tag_112:\n        /* \"#utility.yul\":3546:3685   */\n      swap1\n      pop\n        /* \"#utility.yul\":3273:3692   */\n      swap2\n      swap1\n      pop\n      jump\t// out\n        /* \"#utility.yul\":3698:3845   */\n    tag_59:\n        /* \"#utility.yul\":3799:3810   */\n      0x00\n        /* \"#utility.yul\":3836:3839   */\n      dup2\n        /* \"#utility.yul\":3821:3839   */\n      swap1\n      pop\n        /* \"#utility.yul\":3698:3845   */\n      swap3\n      swap2\n      pop\n      pop\n      jump\t// out\n        /* \"#utility.yul\":3851:3965   */\n    tag_60:\n      pop\n      jump\t// out\n        /* \"#utility.yul\":3971:4369   */\n    tag_61:\n        /* \"#utility.yul\":4130:4133   */\n      0x00\n        /* \"#utility.yul\":4151:4234   */\n      tag_116\n        /* \"#utility.yul\":4232:4233   */\n      0x00\n        /* \"#utility.yul\":4227:4230   */\n      dup4\n        /* \"#utility.yul\":4151:4234   */\n      tag_59\n      jump\t// in\n    tag_116:\n        /* \"#utility.yul\":4144:4234   */\n      swap2\n      pop\n        /* \"#utility.yul\":4243:4336   */\n      tag_117\n        /* \"#utility.yul\":4332:4335   */\n      dup3\n        /* \"#utility.yul\":4243:4336   */\n      tag_60\n      jump\t// in\n    tag_117:\n        /* \"#utility.yul\":4361:4362   */\n      0x00\n        /* \"#utility.yul\":4356:4359   */\n      dup3\n        /* \"#utility.yul\":4352:4363   */\n      add\n        /* \"#utility.yul\":4345:4363   */\n      swap1\n      pop\n        /* \"#utility.yul\":3971:4369   */\n      swap2\n      swap1\n      pop\n      jump\t// out\n        /* \"#utility.yul\":4375:4754   */\n    tag_26:\n        /* \"#utility.yul\":4559:4562   */\n      0x00\n        /* \"#utility.yul\":4581:4728   */\n      tag_119\n        /* \"#utility.yul\":4724:4727   */\n      dup3\n        /* \"#utility.yul\":4581:4728   */\n      tag_61\n      jump\t// in\n    tag_119:\n        /* \"#utility.yul\":4574:4728   */\n      swap2\n      pop\n        /* \"#utility.yul\":4745:4748   */\n      dup2\n        /* \"#utility.yul\":4738:4748   */\n      swap1\n      pop\n        /* \"#utility.yul\":4375:4754   */\n      swap2\n      swap1\n      pop\n      jump\t// out\n        /* \"#utility.yul\":4760:4850   */\n    tag_62:\n        /* \"#utility.yul\":4794:4801   */\n      0x00\n        /* \"#utility.yul\":4837:4842   */\n      dup2\n        /* \"#utility.yul\":4830:4843   */\n      iszero\n        /* \"#utility.yul\":4823:4844   */\n      iszero\n        /* \"#utility.yul\":4812:4844   */\n      swap1\n      pop\n        /* \"#utility.yul\":4760:4850   */\n      swap2\n      swap1\n      pop\n      jump\t// out\n        /* \"#utility.yul\":4856:4965   */\n    tag_63:\n        /* \"#utility.yul\":4937:4958   */\n      tag_122\n        /* \"#utility.yul\":4952:4957   */\n      dup2\n        /* \"#utility.yul\":4937:4958   */\n      tag_62\n      jump\t// in\n    tag_122:\n        /* \"#utility.yul\":4932:4935   */\n      dup3\n        /* \"#utility.yul\":4925:4959   */\n      mstore\n        /* \"#utility.yul\":4856:4965   */\n      pop\n      pop\n      jump\t// out\n        /* \"#utility.yul\":4971:5069   */\n    tag_64:\n        /* \"#utility.yul\":5022:5028   */\n      0x00\n        /* \"#utility.yul\":5056:5061   */\n      dup2\n        /* \"#utility.yul\":5050:5062   */\n      mload\n        /* \"#utility.yul\":5040:5062   */\n      swap1\n      pop\n        /* \"#utility.yul\":4971:5069   */\n      swap2\n      swap1\n      pop\n      jump\t// out\n        /* \"#utility.yul\":5075:5243   */\n    tag_65:\n        /* \"#utility.yul\":5158:5169   */\n      0x00\n        /* \"#utility.yul\":5192:5198   */\n      dup3\n        /* \"#utility.yul\":5187:5190   */\n      dup3\n        /* \"#utility.yul\":5180:5199   */\n      mstore\n        /* \"#utility.yul\":5232:5236   */\n      0x20\n        /* \"#utility.yul\":5227:5230   */\n      dup3\n        /* \"#utility.yul\":5223:5237   */\n      add\n        /* \"#utility.yul\":5208:5237   */\n      swap1\n      pop\n        /* \"#utility.yul\":5075:5243   */\n      swap3\n      swap2\n      pop\n      pop\n      jump\t// out\n        /* \"#utility.yul\":5249:5495   */\n    tag_66:\n        /* \"#utility.yul\":5330:5331   */\n      0x00\n        /* \"#utility.yul\":5340:5453   */\n    tag_126:\n        /* \"#utility.yul\":5354:5360   */\n      dup4\n        /* \"#utility.yul\":5351:5352   */\n      dup2\n        /* \"#utility.yul\":5348:5361   */\n      lt\n        /* \"#utility.yul\":5340:5453   */\n      iszero\n      tag_128\n      jumpi\n        /* \"#utility.yul\":5439:5440   */\n      dup1\n        /* \"#utility.yul\":5434:5437   */\n      dup3\n        /* \"#utility.yul\":5430:5441   */\n      add\n        /* \"#utility.yul\":5424:5442   */\n      mload\n        /* \"#utility.yul\":5420:5421   */\n      dup2\n        /* \"#utility.yul\":5415:5418   */\n      dup5\n        /* \"#utility.yul\":5411:5422   */\n      add\n        /* \"#utility.yul\":5404:5443   */\n      mstore\n        /* \"#utility.yul\":5376:5378   */\n      0x20\n        /* \"#utility.yul\":5373:5374   */\n      dup2\n        /* \"#utility.yul\":5369:5379   */\n      add\n        /* \"#utility.yul\":5364:5379   */\n      swap1\n      pop\n        /* \"#utility.yul\":5340:5453   */\n      jump(tag_126)\n    tag_128:\n        /* \"#utility.yul\":5487:5488   */\n      0x00\n        /* \"#utility.yul\":5478:5484   */\n      dup5\n        /* \"#utility.yul\":5473:5476   */\n      dup5\n        /* \"#utility.yul\":5469:5485   */\n      add\n        /* \"#utility.yul\":5462:5489   */\n      mstore\n        /* \"#utility.yul\":5311:5495   */\n      pop\n        /* \"#utility.yul\":5249:5495   */\n      pop\n      pop\n      pop\n      jump\t// out\n        /* \"#utility.yul\":5501:5603   */\n    tag_67:\n        /* \"#utility.yul\":5542:5548   */\n      0x00\n        /* \"#utility.yul\":5593:5595   */\n      0x1f\n        /* \"#utility.yul\":5589:5596   */\n      not\n        /* \"#utility.yul\":5584:5586   */\n      0x1f\n        /* \"#utility.yul\":5577:5582   */\n      dup4\n        /* \"#utility.yul\":5573:5587   */\n      add\n        /* \"#utility.yul\":5569:5597   */\n      and\n        /* \"#utility.yul\":5559:5597   */\n      swap1\n      pop\n        /* \"#utility.yul\":5501:5603   */\n      swap2\n      swap1\n      pop\n      jump\t// out\n        /* \"#utility.yul\":5609:5982   */\n    tag_68:\n        /* \"#utility.yul\":5695:5698   */\n      0x00\n        /* \"#utility.yul\":5723:5761   */\n      tag_131\n        /* \"#utility.yul\":5755:5760   */\n      dup3\n        /* \"#utility.yul\":5723:5761   */\n      tag_64\n      jump\t// in\n    tag_131:\n        /* \"#utility.yul\":5777:5847   */\n      tag_132\n        /* \"#utility.yul\":5840:5846   */\n      dup2\n        /* \"#utility.yul\":5835:5838   */\n      dup6\n        /* \"#utility.yul\":5777:5847   */\n      tag_65\n      jump\t// in\n    tag_132:\n        /* \"#utility.yul\":5770:5847   */\n      swap4\n      pop\n        /* \"#utility.yul\":5856:5921   */\n      tag_133\n        /* \"#utility.yul\":5914:5920   */\n      dup2\n        /* \"#utility.yul\":5909:5912   */\n      dup6\n        /* \"#utility.yul\":5902:5906   */\n      0x20\n        /* \"#utility.yul\":5895:5900   */\n      dup7\n        /* \"#utility.yul\":5891:5907   */\n      add\n        /* \"#utility.yul\":5856:5921   */\n      tag_66\n      jump\t// in\n    tag_133:\n        /* \"#utility.yul\":5946:5975   */\n      tag_134\n        /* \"#utility.yul\":5968:5974   */\n      dup2\n        /* \"#utility.yul\":5946:5975   */\n      tag_67\n      jump\t// in\n    tag_134:\n        /* \"#utility.yul\":5941:5944   */\n      dup5\n        /* \"#utility.yul\":5937:5976   */\n      add\n        /* \"#utility.yul\":5930:5976   */\n      swap2\n      pop\n        /* \"#utility.yul\":5699:5982   */\n      pop\n        /* \"#utility.yul\":5609:5982   */\n      swap3\n      swap2\n      pop\n      pop\n      jump\t// out\n        /* \"#utility.yul\":5988:6395   */\n    tag_33:\n        /* \"#utility.yul\":6121:6125   */\n      0x00\n        /* \"#utility.yul\":6159:6161   */\n      0x40\n        /* \"#utility.yul\":6148:6157   */\n      dup3\n        /* \"#utility.yul\":6144:6162   */\n      add\n        /* \"#utility.yul\":6136:6162   */\n      swap1\n      pop\n        /* \"#utility.yul\":6172:6237   */\n      tag_136\n        /* \"#utility.yul\":6234:6235   */\n      0x00\n        /* \"#utility.yul\":6223:6232   */\n      dup4\n        /* \"#utility.yul\":6219:6236   */\n      add\n        /* \"#utility.yul\":6210:6216   */\n      dup6\n        /* \"#utility.yul\":6172:6237   */\n      tag_63\n      jump\t// in\n    tag_136:\n        /* \"#utility.yul\":6284:6293   */\n      dup2\n        /* \"#utility.yul\":6278:6282   */\n      dup2\n        /* \"#utility.yul\":6274:6294   */\n      sub\n        /* \"#utility.yul\":6269:6271   */\n      0x20\n        /* \"#utility.yul\":6258:6267   */\n      dup4\n        /* \"#utility.yul\":6254:6272   */\n      add\n        /* \"#utility.yul\":6247:6295   */\n      mstore\n        /* \"#utility.yul\":6312:6388   */\n      tag_137\n        /* \"#utility.yul\":6383:6387   */\n      dup2\n        /* \"#utility.yul\":6374:6380   */\n      dup5\n        /* \"#utility.yul\":6312:6388   */\n      tag_68\n      jump\t// in\n    tag_137:\n        /* \"#utility.yul\":6304:6388   */\n      swap1\n      pop\n        /* \"#utility.yul\":5988:6395   */\n      swap4\n      swap3\n      pop\n      pop\n      pop\n      jump\t// out\n        /* \"#utility.yul\":6401:6571   */\n    tag_69:\n        /* \"#utility.yul\":6541:6563   */\n      0x496e73756666696369656e742042616c616e6365000000000000000000000000\n        /* \"#utility.yul\":6537:6538   */\n      0x00\n        /* \"#utility.yul\":6529:6535   */\n      dup3\n        /* \"#utility.yul\":6525:6539   */\n      add\n        /* \"#utility.yul\":6518:6564   */\n      mstore\n        /* \"#utility.yul\":6401:6571   */\n      pop\n      jump\t// out\n        /* \"#utility.yul\":6577:6943   */\n    tag_70:\n        /* \"#utility.yul\":6719:6722   */\n      0x00\n        /* \"#utility.yul\":6740:6807   */\n      tag_140\n        /* \"#utility.yul\":6804:6806   */\n      0x14\n        /* \"#utility.yul\":6799:6802   */\n      dup4\n        /* \"#utility.yul\":6740:6807   */\n      tag_56\n      jump\t// in\n    tag_140:\n        /* \"#utility.yul\":6733:6807   */\n      swap2\n      pop\n        /* \"#utility.yul\":6816:6909   */\n      tag_141\n        /* \"#utility.yul\":6905:6908   */\n      dup3\n        /* \"#utility.yul\":6816:6909   */\n      tag_69\n      jump\t// in\n    tag_141:\n        /* \"#utility.yul\":6934:6936   */\n      0x20\n        /* \"#utility.yul\":6929:6932   */\n      dup3\n        /* \"#utility.yul\":6925:6937   */\n      add\n        /* \"#utility.yul\":6918:6937   */\n      swap1\n      pop\n        /* \"#utility.yul\":6577:6943   */\n      swap2\n      swap1\n      pop\n      jump\t// out\n        /* \"#utility.yul\":6949:7368   */\n    tag_37:\n        /* \"#utility.yul\":7115:7119   */\n      0x00\n        /* \"#utility.yul\":7153:7155   */\n      0x20\n        /* \"#utility.yul\":7142:7151   */\n      dup3\n        /* \"#utility.yul\":7138:7156   */\n      add\n        /* \"#utility.yul\":7130:7156   */\n      swap1\n      pop\n        /* \"#utility.yul\":7202:7211   */\n      dup2\n        /* \"#utility.yul\":7196:7200   */\n      dup2\n        /* \"#utility.yul\":7192:7212   */\n      sub\n        /* \"#utility.yul\":7188:7189   */\n      0x00\n        /* \"#utility.yul\":7177:7186   */\n      dup4\n        /* \"#utility.yul\":7173:7190   */\n      add\n        /* \"#utility.yul\":7166:7213   */\n      mstore\n        /* \"#utility.yul\":7230:7361   */\n      tag_143\n        /* \"#utility.yul\":7356:7360   */\n      dup2\n        /* \"#utility.yul\":7230:7361   */\n      tag_70\n      jump\t// in\n    tag_143:\n        /* \"#utility.yul\":7222:7361   */\n      swap1\n      pop\n        /* \"#utility.yul\":6949:7368   */\n      swap2\n      swap1\n      pop\n      jump\t// out\n        /* \"#utility.yul\":7374:7568   */\n    tag_41:\n        /* \"#utility.yul\":7414:7418   */\n      0x00\n        /* \"#utility.yul\":7434:7454   */\n      tag_145\n        /* \"#utility.yul\":7452:7453   */\n      dup3\n        /* \"#utility.yul\":7434:7454   */\n      tag_44\n      jump\t// in\n    tag_145:\n        /* \"#utility.yul\":7429:7454   */\n      swap2\n      pop\n        /* \"#utility.yul\":7468:7488   */\n      tag_146\n        /* \"#utility.yul\":7486:7487   */\n      dup4\n        /* \"#utility.yul\":7468:7488   */\n      tag_44\n      jump\t// in\n    tag_146:\n        /* \"#utility.yul\":7463:7488   */\n      swap3\n      pop\n        /* \"#utility.yul\":7512:7513   */\n      dup3\n        /* \"#utility.yul\":7509:7510   */\n      dup3\n        /* \"#utility.yul\":7505:7514   */\n      sub\n        /* \"#utility.yul\":7497:7514   */\n      swap1\n      pop\n        /* \"#utility.yul\":7536:7537   */\n      dup2\n        /* \"#utility.yul\":7530:7534   */\n      dup2\n        /* \"#utility.yul\":7527:7538   */\n      gt\n        /* \"#utility.yul\":7524:7561   */\n      iszero\n      tag_147\n      jumpi\n        /* \"#utility.yul\":7541:7559   */\n      tag_148\n      tag_45\n      jump\t// in\n    tag_148:\n        /* \"#utility.yul\":7524:7561   */\n    tag_147:\n        /* \"#utility.yul\":7374:7568   */\n      swap3\n      swap2\n      pop\n      pop\n      jump\t// out\n        /* \"#utility.yul\":7574:7692   */\n    tag_71:\n        /* \"#utility.yul\":7661:7685   */\n      tag_150\n        /* \"#utility.yul\":7679:7684   */\n      dup2\n        /* \"#utility.yul\":7661:7685   */\n      tag_51\n      jump\t// in\n    tag_150:\n        /* \"#utility.yul\":7656:7659   */\n      dup3\n        /* \"#utility.yul\":7649:7686   */\n      mstore\n        /* \"#utility.yul\":7574:7692   */\n      pop\n      pop\n      jump\t// out\n        /* \"#utility.yul\":7698:8140   */\n    tag_43:\n        /* \"#utility.yul\":7847:7851   */\n      0x00\n        /* \"#utility.yul\":7885:7887   */\n      0x60\n        /* \"#utility.yul\":7874:7883   */\n      dup3\n        /* \"#utility.yul\":7870:7888   */\n      add\n        /* \"#utility.yul\":7862:7888   */\n      swap1\n      pop\n        /* \"#utility.yul\":7898:7969   */\n      tag_152\n        /* \"#utility.yul\":7966:7967   */\n      0x00\n        /* \"#utility.yul\":7955:7964   */\n      dup4\n        /* \"#utility.yul\":7951:7968   */\n      add\n        /* \"#utility.yul\":7942:7948   */\n      dup7\n        /* \"#utility.yul\":7898:7969   */\n      tag_71\n      jump\t// in\n    tag_152:\n        /* \"#utility.yul\":7979:8051   */\n      tag_153\n        /* \"#utility.yul\":8047:8049   */\n      0x20\n        /* \"#utility.yul\":8036:8045   */\n      dup4\n        /* \"#utility.yul\":8032:8050   */\n      add\n        /* \"#utility.yul\":8023:8029   */\n      dup6\n        /* \"#utility.yul\":7979:8051   */\n      tag_71\n      jump\t// in\n    tag_153:\n        /* \"#utility.yul\":8061:8133   */\n      tag_154\n        /* \"#utility.yul\":8129:8131   */\n      0x40\n        /* \"#utility.yul\":8118:8127   */\n      dup4\n        /* \"#utility.yul\":8114:8132   */\n      add\n        /* \"#utility.yul\":8105:8111   */\n      dup5\n        /* \"#utility.yul\":8061:8133   */\n      tag_46\n      jump\t// in\n    tag_154:\n        /* \"#utility.yul\":7698:8140   */\n      swap5\n      swap4\n      pop\n      pop\n      pop\n      pop\n      jump\t// out\n\n    auxdata: 0xa2646970667358221220e75d441ea9c77bf2754eafb7e1405b8481ba04720cb847e06d4d32067c8e646264736f6c63430008100033\n}\n",
				"bytecode": {
					"linkReferences": {},
					"object": "608060405234801561001057600080fd5b50336000806101000a81548173ffffffffffffffffffffffffffffffffffffffff021916908373ffffffffffffffffffffffffffffffffffffffff160217905550610815806100606000396000f3fe60806040526004361061002d5760003560e01c8063bf1527651461008e578063d9caed12146100b957610089565b366100895734600160003373ffffffffffffffffffffffffffffffffffffffff1673ffffffffffffffffffffffffffffffffffffffff1681526020019081526020016000206000828254610081919061041b565b925050819055005b600080fd5b34801561009a57600080fd5b506100a36100e2565b6040516100b0919061045e565b60405180910390f35b3480156100c557600080fd5b506100e060048036038101906100db9190610508565b610129565b005b6000600160003373ffffffffffffffffffffffffffffffffffffffff1673ffffffffffffffffffffffffffffffffffffffff16815260200190815260200160002054905090565b60008054906101000a900473ffffffffffffffffffffffffffffffffffffffff1673ffffffffffffffffffffffffffffffffffffffff163373ffffffffffffffffffffffffffffffffffffffff16146101b7576040517f08c379a00000000000000000000000000000000000000000000000000000000081526004016101ae906105b8565b60405180910390fd5b6000808473ffffffffffffffffffffffffffffffffffffffff16836040516101de90610609565b60006040518083038185875af1925050503d806000811461021b576040519150601f19603f3d011682016040523d82523d6000602084013e610220565b606091505b5091509150610230858585610270565b7f211793e58f00b3e734d024ba6cd956e5c3371570ce2f36886f32d842cc67e23682826040516102619291906106c9565b60405180910390a15050505050565b8082600160008273ffffffffffffffffffffffffffffffffffffffff1673ffffffffffffffffffffffffffffffffffffffff168152602001908152602001600020548211156102f4576040517f08c379a00000000000000000000000000000000000000000000000000000000081526004016102eb90610745565b60405180910390fd5b82600160008773ffffffffffffffffffffffffffffffffffffffff1673ffffffffffffffffffffffffffffffffffffffff1681526020019081526020016000206000828254610343919061041b565b9250508190555082600160008673ffffffffffffffffffffffffffffffffffffffff1673ffffffffffffffffffffffffffffffffffffffff16815260200190815260200160002060008282546103999190610765565b925050819055507fd53683c2ddbfbeaa0862bf4bb2ad12d32e889a7539dde25b42322b1139dd5c438585346040516103d3939291906107a8565b60405180910390a15050505050565b6000819050919050565b7f4e487b7100000000000000000000000000000000000000000000000000000000600052601160045260246000fd5b6000610426826103e2565b9150610431836103e2565b9250828201905080821115610449576104486103ec565b5b92915050565b610458816103e2565b82525050565b6000602082019050610473600083018461044f565b92915050565b600080fd5b600073ffffffffffffffffffffffffffffffffffffffff82169050919050565b60006104a98261047e565b9050919050565b6104b98161049e565b81146104c457600080fd5b50565b6000813590506104d6816104b0565b92915050565b6104e5816103e2565b81146104f057600080fd5b50565b600081359050610502816104dc565b92915050565b60008060006060848603121561052157610520610479565b5b600061052f868287016104c7565b9350506020610540868287016104c7565b9250506040610551868287016104f3565b9150509250925092565b600082825260208201905092915050565b7f4e6f7420746865204f776e657200000000000000000000000000000000000000600082015250565b60006105a2600d8361055b565b91506105ad8261056c565b602082019050919050565b600060208201905081810360008301526105d181610595565b9050919050565b600081905092915050565b50565b60006105f36000836105d8565b91506105fe826105e3565b600082019050919050565b6000610614826105e6565b9150819050919050565b60008115159050919050565b6106338161061e565b82525050565b600081519050919050565b600082825260208201905092915050565b60005b83811015610673578082015181840152602081019050610658565b60008484015250505050565b6000601f19601f8301169050919050565b600061069b82610639565b6106a58185610644565b93506106b5818560208601610655565b6106be8161067f565b840191505092915050565b60006040820190506106de600083018561062a565b81810360208301526106f08184610690565b90509392505050565b7f496e73756666696369656e742042616c616e6365000000000000000000000000600082015250565b600061072f60148361055b565b915061073a826106f9565b602082019050919050565b6000602082019050818103600083015261075e81610722565b9050919050565b6000610770826103e2565b915061077b836103e2565b9250828203905081811115610793576107926103ec565b5b92915050565b6107a28161049e565b82525050565b60006060820190506107bd6000830186610799565b6107ca6020830185610799565b6107d7604083018461044f565b94935050505056fea2646970667358221220e75d441ea9c77bf2754eafb7e1405b8481ba04720cb847e06d4d32067c8e646264736f6c63430008100033",
					"opcodes": "PUSH1 0x80 PUSH1 0x40 MSTORE CALLVALUE DUP1 ISZERO PUSH2 0x10 JUMPI PUSH1 0x0 DUP1 REVERT JUMPDEST POP CALLER PUSH1 0x0 DUP1 PUSH2 0x100 EXP DUP2 SLOAD DUP2 PUSH20 0xFFFFFFFFFFFFFFFFFFFFFFFFFFFFFFFFFFFFFFFF MUL NOT AND SWAP1 DUP4 PUSH20 0xFFFFFFFFFFFFFFFFFFFFFFFFFFFFFFFFFFFFFFFF AND MUL OR SWAP1 SSTORE POP PUSH2 0x815 DUP1 PUSH2 0x60 PUSH1 0x0 CODECOPY PUSH1 0x0 RETURN INVALID PUSH1 0x80 PUSH1 0x40 MSTORE PUSH1 0x4 CALLDATASIZE LT PUSH2 0x2D JUMPI PUSH1 0x0 CALLDATALOAD PUSH1 0xE0 SHR DUP1 PUSH4 0xBF152765 EQ PUSH2 0x8E JUMPI DUP1 PUSH4 0xD9CAED12 EQ PUSH2 0xB9 JUMPI PUSH2 0x89 JUMP JUMPDEST CALLDATASIZE PUSH2 0x89 JUMPI CALLVALUE PUSH1 0x1 PUSH1 0x0 CALLER PUSH20 0xFFFFFFFFFFFFFFFFFFFFFFFFFFFFFFFFFFFFFFFF AND PUSH20 0xFFFFFFFFFFFFFFFFFFFFFFFFFFFFFFFFFFFFFFFF AND DUP2 MSTORE PUSH1 0x20 ADD SWAP1 DUP2 MSTORE PUSH1 0x20 ADD PUSH1 0x0 KECCAK256 PUSH1 0x0 DUP3 DUP3 SLOAD PUSH2 0x81 SWAP2 SWAP1 PUSH2 0x41B JUMP JUMPDEST SWAP3 POP POP DUP2 SWAP1 SSTORE STOP JUMPDEST PUSH1 0x0 DUP1 REVERT JUMPDEST CALLVALUE DUP1 ISZERO PUSH2 0x9A JUMPI PUSH1 0x0 DUP1 REVERT JUMPDEST POP PUSH2 0xA3 PUSH2 0xE2 JUMP JUMPDEST PUSH1 0x40 MLOAD PUSH2 0xB0 SWAP2 SWAP1 PUSH2 0x45E JUMP JUMPDEST PUSH1 0x40 MLOAD DUP1 SWAP2 SUB SWAP1 RETURN JUMPDEST CALLVALUE DUP1 ISZERO PUSH2 0xC5 JUMPI PUSH1 0x0 DUP1 REVERT JUMPDEST POP PUSH2 0xE0 PUSH1 0x4 DUP1 CALLDATASIZE SUB DUP2 ADD SWAP1 PUSH2 0xDB SWAP2 SWAP1 PUSH2 0x508 JUMP JUMPDEST PUSH2 0x129 JUMP JUMPDEST STOP JUMPDEST PUSH1 0x0 PUSH1 0x1 PUSH1 0x0 CALLER PUSH20 0xFFFFFFFFFFFFFFFFFFFFFFFFFFFFFFFFFFFFFFFF AND PUSH20 0xFFFFFFFFFFFFFFFFFFFFFFFFFFFFFFFFFFFFFFFF AND DUP2 MSTORE PUSH1 0x20 ADD SWAP1 DUP2 MSTORE PUSH1 0x20 ADD PUSH1 0x0 KECCAK256 SLOAD SWAP1 POP SWAP1 JUMP JUMPDEST PUSH1 0x0 DUP1 SLOAD SWAP1 PUSH2 0x100 EXP SWAP1 DIV PUSH20 0xFFFFFFFFFFFFFFFFFFFFFFFFFFFFFFFFFFFFFFFF AND PUSH20 0xFFFFFFFFFFFFFFFFFFFFFFFFFFFFFFFFFFFFFFFF AND CALLER PUSH20 0xFFFFFFFFFFFFFFFFFFFFFFFFFFFFFFFFFFFFFFFF AND EQ PUSH2 0x1B7 JUMPI PUSH1 0x40 MLOAD PUSH32 0x8C379A000000000000000000000000000000000000000000000000000000000 DUP2 MSTORE PUSH1 0x4 ADD PUSH2 0x1AE SWAP1 PUSH2 0x5B8 JUMP JUMPDEST PUSH1 0x40 MLOAD DUP1 SWAP2 SUB SWAP1 REVERT JUMPDEST PUSH1 0x0 DUP1 DUP5 PUSH20 0xFFFFFFFFFFFFFFFFFFFFFFFFFFFFFFFFFFFFFFFF AND DUP4 PUSH1 0x40 MLOAD PUSH2 0x1DE SWAP1 PUSH2 0x609 JUMP JUMPDEST PUSH1 0x0 PUSH1 0x40 MLOAD DUP1 DUP4 SUB DUP2 DUP6 DUP8 GAS CALL SWAP3 POP POP POP RETURNDATASIZE DUP1 PUSH1 0x0 DUP2 EQ PUSH2 0x21B JUMPI PUSH1 0x40 MLOAD SWAP2 POP PUSH1 0x1F NOT PUSH1 0x3F RETURNDATASIZE ADD AND DUP3 ADD PUSH1 0x40 MSTORE RETURNDATASIZE DUP3 MSTORE RETURNDATASIZE PUSH1 0x0 PUSH1 0x20 DUP5 ADD RETURNDATACOPY PUSH2 0x220 JUMP JUMPDEST PUSH1 0x60 SWAP2 POP JUMPDEST POP SWAP2 POP SWAP2 POP PUSH2 0x230 DUP6 DUP6 DUP6 PUSH2 0x270 JUMP JUMPDEST PUSH32 0x211793E58F00B3E734D024BA6CD956E5C3371570CE2F36886F32D842CC67E236 DUP3 DUP3 PUSH1 0x40 MLOAD PUSH2 0x261 SWAP3 SWAP2 SWAP1 PUSH2 0x6C9 JUMP JUMPDEST PUSH1 0x40 MLOAD DUP1 SWAP2 SUB SWAP1 LOG1 POP POP POP POP POP JUMP JUMPDEST DUP1 DUP3 PUSH1 0x1 PUSH1 0x0 DUP3 PUSH20 0xFFFFFFFFFFFFFFFFFFFFFFFFFFFFFFFFFFFFFFFF AND PUSH20 0xFFFFFFFFFFFFFFFFFFFFFFFFFFFFFFFFFFFFFFFF AND DUP2 MSTORE PUSH1 0x20 ADD SWAP1 DUP2 MSTORE PUSH1 0x20 ADD PUSH1 0x0 KECCAK256 SLOAD DUP3 GT ISZERO PUSH2 0x2F4 JUMPI PUSH1 0x40 MLOAD PUSH32 0x8C379A000000000000000000000000000000000000000000000000000000000 DUP2 MSTORE PUSH1 0x4 ADD PUSH2 0x2EB SWAP1 PUSH2 0x745 JUMP JUMPDEST PUSH1 0x40 MLOAD DUP1 SWAP2 SUB SWAP1 REVERT JUMPDEST DUP3 PUSH1 0x1 PUSH1 0x0 DUP8 PUSH20 0xFFFFFFFFFFFFFFFFFFFFFFFFFFFFFFFFFFFFFFFF AND PUSH20 0xFFFFFFFFFFFFFFFFFFFFFFFFFFFFFFFFFFFFFFFF AND DUP2 MSTORE PUSH1 0x20 ADD SWAP1 DUP2 MSTORE PUSH1 0x20 ADD PUSH1 0x0 KECCAK256 PUSH1 0x0 DUP3 DUP3 SLOAD PUSH2 0x343 SWAP2 SWAP1 PUSH2 0x41B JUMP JUMPDEST SWAP3 POP POP DUP2 SWAP1 SSTORE POP DUP3 PUSH1 0x1 PUSH1 0x0 DUP7 PUSH20 0xFFFFFFFFFFFFFFFFFFFFFFFFFFFFFFFFFFFFFFFF AND PUSH20 0xFFFFFFFFFFFFFFFFFFFFFFFFFFFFFFFFFFFFFFFF AND DUP2 MSTORE PUSH1 0x20 ADD SWAP1 DUP2 MSTORE PUSH1 0x20 ADD PUSH1 0x0 KECCAK256 PUSH1 0x0 DUP3 DUP3 SLOAD PUSH2 0x399 SWAP2 SWAP1 PUSH2 0x765 JUMP JUMPDEST SWAP3 POP POP DUP2 SWAP1 SSTORE POP PUSH32 0xD53683C2DDBFBEAA0862BF4BB2AD12D32E889A7539DDE25B42322B1139DD5C43 DUP6 DUP6 CALLVALUE PUSH1 0x40 MLOAD PUSH2 0x3D3 SWAP4 SWAP3 SWAP2 SWAP1 PUSH2 0x7A8 JUMP JUMPDEST PUSH1 0x40 MLOAD DUP1 SWAP2 SUB SWAP1 LOG1 POP POP POP POP POP JUMP JUMPDEST PUSH1 0x0 DUP2 SWAP1 POP SWAP2 SWAP1 POP JUMP JUMPDEST PUSH32 0x4E487B7100000000000000000000000000000000000000000000000000000000 PUSH1 0x0 MSTORE PUSH1 0x11 PUSH1 0x4 MSTORE PUSH1 0x24 PUSH1 0x0 REVERT JUMPDEST PUSH1 0x0 PUSH2 0x426 DUP3 PUSH2 0x3E2 JUMP JUMPDEST SWAP2 POP PUSH2 0x431 DUP4 PUSH2 0x3E2 JUMP JUMPDEST SWAP3 POP DUP3 DUP3 ADD SWAP1 POP DUP1 DUP3 GT ISZERO PUSH2 0x449 JUMPI PUSH2 0x448 PUSH2 0x3EC JUMP JUMPDEST JUMPDEST SWAP3 SWAP2 POP POP JUMP JUMPDEST PUSH2 0x458 DUP2 PUSH2 0x3E2 JUMP JUMPDEST DUP3 MSTORE POP POP JUMP JUMPDEST PUSH1 0x0 PUSH1 0x20 DUP3 ADD SWAP1 POP PUSH2 0x473 PUSH1 0x0 DUP4 ADD DUP5 PUSH2 0x44F JUMP JUMPDEST SWAP3 SWAP2 POP POP JUMP JUMPDEST PUSH1 0x0 DUP1 REVERT JUMPDEST PUSH1 0x0 PUSH20 0xFFFFFFFFFFFFFFFFFFFFFFFFFFFFFFFFFFFFFFFF DUP3 AND SWAP1 POP SWAP2 SWAP1 POP JUMP JUMPDEST PUSH1 0x0 PUSH2 0x4A9 DUP3 PUSH2 0x47E JUMP JUMPDEST SWAP1 POP SWAP2 SWAP1 POP JUMP JUMPDEST PUSH2 0x4B9 DUP2 PUSH2 0x49E JUMP JUMPDEST DUP2 EQ PUSH2 0x4C4 JUMPI PUSH1 0x0 DUP1 REVERT JUMPDEST POP JUMP JUMPDEST PUSH1 0x0 DUP2 CALLDATALOAD SWAP1 POP PUSH2 0x4D6 DUP2 PUSH2 0x4B0 JUMP JUMPDEST SWAP3 SWAP2 POP POP JUMP JUMPDEST PUSH2 0x4E5 DUP2 PUSH2 0x3E2 JUMP JUMPDEST DUP2 EQ PUSH2 0x4F0 JUMPI PUSH1 0x0 DUP1 REVERT JUMPDEST POP JUMP JUMPDEST PUSH1 0x0 DUP2 CALLDATALOAD SWAP1 POP PUSH2 0x502 DUP2 PUSH2 0x4DC JUMP JUMPDEST SWAP3 SWAP2 POP POP JUMP JUMPDEST PUSH1 0x0 DUP1 PUSH1 0x0 PUSH1 0x60 DUP5 DUP7 SUB SLT ISZERO PUSH2 0x521 JUMPI PUSH2 0x520 PUSH2 0x479 JUMP JUMPDEST JUMPDEST PUSH1 0x0 PUSH2 0x52F DUP7 DUP3 DUP8 ADD PUSH2 0x4C7 JUMP JUMPDEST SWAP4 POP POP PUSH1 0x20 PUSH2 0x540 DUP7 DUP3 DUP8 ADD PUSH2 0x4C7 JUMP JUMPDEST SWAP3 POP POP PUSH1 0x40 PUSH2 0x551 DUP7 DUP3 DUP8 ADD PUSH2 0x4F3 JUMP JUMPDEST SWAP2 POP POP SWAP3 POP SWAP3 POP SWAP3 JUMP JUMPDEST PUSH1 0x0 DUP3 DUP3 MSTORE PUSH1 0x20 DUP3 ADD SWAP1 POP SWAP3 SWAP2 POP POP JUMP JUMPDEST PUSH32 0x4E6F7420746865204F776E657200000000000000000000000000000000000000 PUSH1 0x0 DUP3 ADD MSTORE POP JUMP JUMPDEST PUSH1 0x0 PUSH2 0x5A2 PUSH1 0xD DUP4 PUSH2 0x55B JUMP JUMPDEST SWAP2 POP PUSH2 0x5AD DUP3 PUSH2 0x56C JUMP JUMPDEST PUSH1 0x20 DUP3 ADD SWAP1 POP SWAP2 SWAP1 POP JUMP JUMPDEST PUSH1 0x0 PUSH1 0x20 DUP3 ADD SWAP1 POP DUP2 DUP2 SUB PUSH1 0x0 DUP4 ADD MSTORE PUSH2 0x5D1 DUP2 PUSH2 0x595 JUMP JUMPDEST SWAP1 POP SWAP2 SWAP1 POP JUMP JUMPDEST PUSH1 0x0 DUP2 SWAP1 POP SWAP3 SWAP2 POP POP JUMP JUMPDEST POP JUMP JUMPDEST PUSH1 0x0 PUSH2 0x5F3 PUSH1 0x0 DUP4 PUSH2 0x5D8 JUMP JUMPDEST SWAP2 POP PUSH2 0x5FE DUP3 PUSH2 0x5E3 JUMP JUMPDEST PUSH1 0x0 DUP3 ADD SWAP1 POP SWAP2 SWAP1 POP JUMP JUMPDEST PUSH1 0x0 PUSH2 0x614 DUP3 PUSH2 0x5E6 JUMP JUMPDEST SWAP2 POP DUP2 SWAP1 POP SWAP2 SWAP1 POP JUMP JUMPDEST PUSH1 0x0 DUP2 ISZERO ISZERO SWAP1 POP SWAP2 SWAP1 POP JUMP JUMPDEST PUSH2 0x633 DUP2 PUSH2 0x61E JUMP JUMPDEST DUP3 MSTORE POP POP JUMP JUMPDEST PUSH1 0x0 DUP2 MLOAD SWAP1 POP SWAP2 SWAP1 POP JUMP JUMPDEST PUSH1 0x0 DUP3 DUP3 MSTORE PUSH1 0x20 DUP3 ADD SWAP1 POP SWAP3 SWAP2 POP POP JUMP JUMPDEST PUSH1 0x0 JUMPDEST DUP4 DUP2 LT ISZERO PUSH2 0x673 JUMPI DUP1 DUP3 ADD MLOAD DUP2 DUP5 ADD MSTORE PUSH1 0x20 DUP2 ADD SWAP1 POP PUSH2 0x658 JUMP JUMPDEST PUSH1 0x0 DUP5 DUP5 ADD MSTORE POP POP POP POP JUMP JUMPDEST PUSH1 0x0 PUSH1 0x1F NOT PUSH1 0x1F DUP4 ADD AND SWAP1 POP SWAP2 SWAP1 POP JUMP JUMPDEST PUSH1 0x0 PUSH2 0x69B DUP3 PUSH2 0x639 JUMP JUMPDEST PUSH2 0x6A5 DUP2 DUP6 PUSH2 0x644 JUMP JUMPDEST SWAP4 POP PUSH2 0x6B5 DUP2 DUP6 PUSH1 0x20 DUP7 ADD PUSH2 0x655 JUMP JUMPDEST PUSH2 0x6BE DUP2 PUSH2 0x67F JUMP JUMPDEST DUP5 ADD SWAP2 POP POP SWAP3 SWAP2 POP POP JUMP JUMPDEST PUSH1 0x0 PUSH1 0x40 DUP3 ADD SWAP1 POP PUSH2 0x6DE PUSH1 0x0 DUP4 ADD DUP6 PUSH2 0x62A JUMP JUMPDEST DUP2 DUP2 SUB PUSH1 0x20 DUP4 ADD MSTORE PUSH2 0x6F0 DUP2 DUP5 PUSH2 0x690 JUMP JUMPDEST SWAP1 POP SWAP4 SWAP3 POP POP POP JUMP JUMPDEST PUSH32 0x496E73756666696369656E742042616C616E6365000000000000000000000000 PUSH1 0x0 DUP3 ADD MSTORE POP JUMP JUMPDEST PUSH1 0x0 PUSH2 0x72F PUSH1 0x14 DUP4 PUSH2 0x55B JUMP JUMPDEST SWAP2 POP PUSH2 0x73A DUP3 PUSH2 0x6F9 JUMP JUMPDEST PUSH1 0x20 DUP3 ADD SWAP1 POP SWAP2 SWAP1 POP JUMP JUMPDEST PUSH1 0x0 PUSH1 0x20 DUP3 ADD SWAP1 POP DUP2 DUP2 SUB PUSH1 0x0 DUP4 ADD MSTORE PUSH2 0x75E DUP2 PUSH2 0x722 JUMP JUMPDEST SWAP1 POP SWAP2 SWAP1 POP JUMP JUMPDEST PUSH1 0x0 PUSH2 0x770 DUP3 PUSH2 0x3E2 JUMP JUMPDEST SWAP2 POP PUSH2 0x77B DUP4 PUSH2 0x3E2 JUMP JUMPDEST SWAP3 POP DUP3 DUP3 SUB SWAP1 POP DUP2 DUP2 GT ISZERO PUSH2 0x793 JUMPI PUSH2 0x792 PUSH2 0x3EC JUMP JUMPDEST JUMPDEST SWAP3 SWAP2 POP POP JUMP JUMPDEST PUSH2 0x7A2 DUP2 PUSH2 0x49E JUMP JUMPDEST DUP3 MSTORE POP POP JUMP JUMPDEST PUSH1 0x0 PUSH1 0x60 DUP3 ADD SWAP1 POP PUSH2 0x7BD PUSH1 0x0 DUP4 ADD DUP7 PUSH2 0x799 JUMP JUMPDEST PUSH2 0x7CA PUSH1 0x20 DUP4 ADD DUP6 PUSH2 0x799 JUMP JUMPDEST PUSH2 0x7D7 PUSH1 0x40 DUP4 ADD DUP5 PUSH2 0x44F JUMP JUMPDEST SWAP5 SWAP4 POP POP POP POP JUMP INVALID LOG2 PUSH5 0x6970667358 0x22 SLT KECCAK256 0xE7 0x5D DIFFICULTY 0x1E 0xA9 0xC7 PUSH28 0xF2754EAFB7E1405B8481BA04720CB847E06D4D32067C8E646264736F PUSH13 0x63430008100033000000000000 "
				},
				"gasEstimates": {
					"creation": {
						"codeDepositCost": "413800",
						"executionCost": "24715",
						"totalCost": "438515"
					},
					"external": {
						"userBalance()": "2504",
						"withdraw(address,address,uint256)": "infinite"
					},
					"internal": {
						"changeBalance(address,address,uint256)": "infinite"
					}
				},
				"methodIdentifiers": {
					"userBalance()": "bf152765",
					"withdraw(address,address,uint256)": "d9caed12"
				}
			},
			"storageLayout": {
				"storage": [
					{
						"astId": 17,
						"contract": "contracts/EthersWallet.sol:EthersWallet",
						"label": "owner",
						"offset": 0,
						"slot": "0",
						"type": "t_address"
					},
					{
						"astId": 21,
						"contract": "contracts/EthersWallet.sol:EthersWallet",
						"label": "balances",
						"offset": 0,
						"slot": "1",
						"type": "t_mapping(t_address,t_uint256)"
					}
				],
				"types": {
					"t_address": {
						"encoding": "inplace",
						"label": "address",
						"numberOfBytes": "20"
					},
					"t_mapping(t_address,t_uint256)": {
						"encoding": "mapping",
						"key": "t_address",
						"label": "mapping(address => uint256)",
						"numberOfBytes": "32",
						"value": "t_uint256"
					},
					"t_uint256": {
						"encoding": "inplace",
						"label": "uint256",
						"numberOfBytes": "32"
					}
				}
			},
			"userdoc": {
				"kind": "user",
				"methods": {},
				"version": 1
			}
		}
	}
}