{
	"contracts/EthersWallet.sol": {
		"EthersWallet": {
			"abi": [
				{
					"inputs": [],
					"stateMutability": "nonpayable",
					"type": "constructor"
				},
				{
					"stateMutability": "payable",
					"type": "fallback"
				},
				{
					"inputs": [
						{
							"internalType": "address",
							"name": "_address",
							"type": "address"
						},
						{
							"internalType": "uint256",
							"name": "_value",
							"type": "uint256"
						}
					],
					"name": "withdraw",
					"outputs": [],
					"stateMutability": "nonpayable",
					"type": "function"
				},
				{
					"stateMutability": "payable",
					"type": "receive"
				}
			],
			"devdoc": {
				"kind": "dev",
				"methods": {},
				"version": 1
			},
			"evm": {
				"assembly": "    /* \"contracts/EthersWallet.sol\":66:631  contract EthersWallet {\r... */\n  mstore(0x40, 0x80)\n    /* \"contracts/EthersWallet.sol\":282:333  constructor() {\r... */\n  callvalue\n  dup1\n  iszero\n  tag_1\n  jumpi\n  0x00\n  dup1\n  revert\ntag_1:\n  pop\n    /* \"contracts/EthersWallet.sol\":315:325  msg.sender */\n  caller\n    /* \"contracts/EthersWallet.sol\":307:312  owner */\n  0x00\n  dup1\n    /* \"contracts/EthersWallet.sol\":307:325  owner = msg.sender */\n  0x0100\n  exp\n  dup2\n  sload\n  dup2\n  0xffffffffffffffffffffffffffffffffffffffff\n  mul\n  not\n  and\n  swap1\n  dup4\n  0xffffffffffffffffffffffffffffffffffffffff\n  and\n  mul\n  or\n  swap1\n  sstore\n  pop\n    /* \"contracts/EthersWallet.sol\":66:631  contract EthersWallet {\r... */\n  dataSize(sub_0)\n  dup1\n  dataOffset(sub_0)\n  0x00\n  codecopy\n  0x00\n  return\nstop\n\nsub_0: assembly {\n        /* \"contracts/EthersWallet.sol\":66:631  contract EthersWallet {\r... */\n      mstore(0x40, 0x80)\n      jumpi(tag_1, lt(calldatasize, 0x04))\n      shr(0xe0, calldataload(0x00))\n      dup1\n      0xf3fef3a3\n      eq\n      tag_3\n      jumpi\n      jump(tag_2)\n    tag_1:\n      jumpi(tag_2, calldatasize)\n      stop\n    tag_2:\n        /* \"contracts/EthersWallet.sol\":395:404  msg.value */\n      callvalue\n        /* \"contracts/EthersWallet.sol\":371:379  balances */\n      0x01\n        /* \"contracts/EthersWallet.sol\":371:391  balances[msg.sender] */\n      0x00\n        /* \"contracts/EthersWallet.sol\":380:390  msg.sender */\n      caller\n        /* \"contracts/EthersWallet.sol\":371:391  balances[msg.sender] */\n      0xffffffffffffffffffffffffffffffffffffffff\n      and\n      0xffffffffffffffffffffffffffffffffffffffff\n      and\n      dup2\n      mstore\n      0x20\n      add\n      swap1\n      dup2\n      mstore\n      0x20\n      add\n      0x00\n      keccak256\n      0x00\n        /* \"contracts/EthersWallet.sol\":371:404  balances[msg.sender] += msg.value */\n      dup3\n      dup3\n      sload\n      tag_8\n      swap2\n      swap1\n      tag_9\n      jump\t// in\n    tag_8:\n      swap3\n      pop\n      pop\n      dup2\n      swap1\n      sstore\n      pop\n        /* \"contracts/EthersWallet.sol\":66:631  contract EthersWallet {\r... */\n      stop\n        /* \"contracts/EthersWallet.sol\":482:628  function withdraw(address _address, uint _value) external isOwner {\r... */\n    tag_3:\n      callvalue\n      dup1\n      iszero\n      tag_10\n      jumpi\n      0x00\n      dup1\n      revert\n    tag_10:\n      pop\n      tag_11\n      0x04\n      dup1\n      calldatasize\n      sub\n      dup2\n      add\n      swap1\n      tag_12\n      swap2\n      swap1\n      tag_13\n      jump\t// in\n    tag_12:\n      tag_14\n      jump\t// in\n    tag_11:\n      stop\n    tag_14:\n        /* \"contracts/EthersWallet.sol\":227:232  owner */\n      0x00\n      dup1\n      sload\n      swap1\n      0x0100\n      exp\n      swap1\n      div\n      0xffffffffffffffffffffffffffffffffffffffff\n      and\n        /* \"contracts/EthersWallet.sol\":213:232  msg.sender == owner */\n      0xffffffffffffffffffffffffffffffffffffffff\n      and\n        /* \"contracts/EthersWallet.sol\":213:223  msg.sender */\n      caller\n        /* \"contracts/EthersWallet.sol\":213:232  msg.sender == owner */\n      0xffffffffffffffffffffffffffffffffffffffff\n      and\n      eq\n        /* \"contracts/EthersWallet.sol\":205:250  require(msg.sender == owner, \"Not the Owner\") */\n      tag_16\n      jumpi\n      mload(0x40)\n      0x08c379a000000000000000000000000000000000000000000000000000000000\n      dup2\n      mstore\n      0x04\n      add\n      tag_17\n      swap1\n      tag_18\n      jump\t// in\n    tag_17:\n      mload(0x40)\n      dup1\n      swap2\n      sub\n      swap1\n      revert\n    tag_16:\n        /* \"contracts/EthersWallet.sol\":561:569  _address */\n      dup2\n        /* \"contracts/EthersWallet.sol\":561:574  _address.call */\n      0xffffffffffffffffffffffffffffffffffffffff\n      and\n        /* \"contracts/EthersWallet.sol\":582:588  _value */\n      dup2\n        /* \"contracts/EthersWallet.sol\":590:617  abi.encodeWithSignature(\"\") */\n      add(0x24, mload(0x40))\n      mload(0x40)\n      0x20\n      dup2\n      dup4\n      sub\n      sub\n      dup2\n      mstore\n      swap1\n      0x40\n      mstore\n      and(not(0xffffffffffffffffffffffffffffffffffffffffffffffffffffffff), 0xc5d2460100000000000000000000000000000000000000000000000000000000)\n      0x20\n      dup3\n      add\n      dup1\n      mload\n      0xffffffffffffffffffffffffffffffffffffffffffffffffffffffff\n      dup4\n      dup2\n      dup4\n      and\n      or\n      dup4\n      mstore\n      pop\n      pop\n      pop\n      pop\n        /* \"contracts/EthersWallet.sol\":561:618  _address.call{value: _value}(abi.encodeWithSignature(\"\")) */\n      mload(0x40)\n      tag_20\n      swap2\n      swap1\n      tag_21\n      jump\t// in\n    tag_20:\n      0x00\n      mload(0x40)\n      dup1\n      dup4\n      sub\n      dup2\n      dup6\n      dup8\n      gas\n      call\n      swap3\n      pop\n      pop\n      pop\n      returndatasize\n      dup1\n      0x00\n      dup2\n      eq\n      tag_24\n      jumpi\n      mload(0x40)\n      swap2\n      pop\n      and(add(returndatasize, 0x3f), not(0x1f))\n      dup3\n      add\n      0x40\n      mstore\n      returndatasize\n      dup3\n      mstore\n      returndatasize\n      0x00\n      0x20\n      dup5\n      add\n      returndatacopy\n      jump(tag_23)\n    tag_24:\n      0x60\n      swap2\n      pop\n    tag_23:\n      pop\n      pop\n      pop\n        /* \"contracts/EthersWallet.sol\":482:628  function withdraw(address _address, uint _value) external isOwner {\r... */\n      pop\n      pop\n      jump\t// out\n        /* \"#utility.yul\":7:146   */\n    tag_26:\n        /* \"#utility.yul\":53:58   */\n      0x00\n        /* \"#utility.yul\":91:97   */\n      dup2\n        /* \"#utility.yul\":78:98   */\n      calldataload\n        /* \"#utility.yul\":69:98   */\n      swap1\n      pop\n        /* \"#utility.yul\":107:140   */\n      tag_28\n        /* \"#utility.yul\":134:139   */\n      dup2\n        /* \"#utility.yul\":107:140   */\n      tag_29\n      jump\t// in\n    tag_28:\n        /* \"#utility.yul\":7:146   */\n      swap3\n      swap2\n      pop\n      pop\n      jump\t// out\n        /* \"#utility.yul\":152:291   */\n    tag_30:\n        /* \"#utility.yul\":198:203   */\n      0x00\n        /* \"#utility.yul\":236:242   */\n      dup2\n        /* \"#utility.yul\":223:243   */\n      calldataload\n        /* \"#utility.yul\":214:243   */\n      swap1\n      pop\n        /* \"#utility.yul\":252:285   */\n      tag_32\n        /* \"#utility.yul\":279:284   */\n      dup2\n        /* \"#utility.yul\":252:285   */\n      tag_33\n      jump\t// in\n    tag_32:\n        /* \"#utility.yul\":152:291   */\n      swap3\n      swap2\n      pop\n      pop\n      jump\t// out\n        /* \"#utility.yul\":297:771   */\n    tag_13:\n        /* \"#utility.yul\":365:371   */\n      0x00\n        /* \"#utility.yul\":373:379   */\n      dup1\n        /* \"#utility.yul\":422:424   */\n      0x40\n        /* \"#utility.yul\":410:419   */\n      dup4\n        /* \"#utility.yul\":401:408   */\n      dup6\n        /* \"#utility.yul\":397:420   */\n      sub\n        /* \"#utility.yul\":393:425   */\n      slt\n        /* \"#utility.yul\":390:509   */\n      iszero\n      tag_35\n      jumpi\n        /* \"#utility.yul\":428:507   */\n      tag_36\n      tag_37\n      jump\t// in\n    tag_36:\n        /* \"#utility.yul\":390:509   */\n    tag_35:\n        /* \"#utility.yul\":548:549   */\n      0x00\n        /* \"#utility.yul\":573:626   */\n      tag_38\n        /* \"#utility.yul\":618:625   */\n      dup6\n        /* \"#utility.yul\":609:615   */\n      dup3\n        /* \"#utility.yul\":598:607   */\n      dup7\n        /* \"#utility.yul\":594:616   */\n      add\n        /* \"#utility.yul\":573:626   */\n      tag_26\n      jump\t// in\n    tag_38:\n        /* \"#utility.yul\":563:626   */\n      swap3\n      pop\n        /* \"#utility.yul\":519:636   */\n      pop\n        /* \"#utility.yul\":675:677   */\n      0x20\n        /* \"#utility.yul\":701:754   */\n      tag_39\n        /* \"#utility.yul\":746:753   */\n      dup6\n        /* \"#utility.yul\":737:743   */\n      dup3\n        /* \"#utility.yul\":726:735   */\n      dup7\n        /* \"#utility.yul\":722:744   */\n      add\n        /* \"#utility.yul\":701:754   */\n      tag_30\n      jump\t// in\n    tag_39:\n        /* \"#utility.yul\":691:754   */\n      swap2\n      pop\n        /* \"#utility.yul\":646:764   */\n      pop\n        /* \"#utility.yul\":297:771   */\n      swap3\n      pop\n      swap3\n      swap1\n      pop\n      jump\t// out\n        /* \"#utility.yul\":777:1150   */\n    tag_40:\n        /* \"#utility.yul\":881:884   */\n      0x00\n        /* \"#utility.yul\":909:947   */\n      tag_42\n        /* \"#utility.yul\":941:946   */\n      dup3\n        /* \"#utility.yul\":909:947   */\n      tag_43\n      jump\t// in\n    tag_42:\n        /* \"#utility.yul\":963:1051   */\n      tag_44\n        /* \"#utility.yul\":1044:1050   */\n      dup2\n        /* \"#utility.yul\":1039:1042   */\n      dup6\n        /* \"#utility.yul\":963:1051   */\n      tag_45\n      jump\t// in\n    tag_44:\n        /* \"#utility.yul\":956:1051   */\n      swap4\n      pop\n        /* \"#utility.yul\":1060:1112   */\n      tag_46\n        /* \"#utility.yul\":1105:1111   */\n      dup2\n        /* \"#utility.yul\":1100:1103   */\n      dup6\n        /* \"#utility.yul\":1093:1097   */\n      0x20\n        /* \"#utility.yul\":1086:1091   */\n      dup7\n        /* \"#utility.yul\":1082:1098   */\n      add\n        /* \"#utility.yul\":1060:1112   */\n      tag_47\n      jump\t// in\n    tag_46:\n        /* \"#utility.yul\":1137:1143   */\n      dup1\n        /* \"#utility.yul\":1132:1135   */\n      dup5\n        /* \"#utility.yul\":1128:1144   */\n      add\n        /* \"#utility.yul\":1121:1144   */\n      swap2\n      pop\n        /* \"#utility.yul\":885:1150   */\n      pop\n        /* \"#utility.yul\":777:1150   */\n      swap3\n      swap2\n      pop\n      pop\n      jump\t// out\n        /* \"#utility.yul\":1156:1522   */\n    tag_48:\n        /* \"#utility.yul\":1298:1301   */\n      0x00\n        /* \"#utility.yul\":1319:1386   */\n      tag_50\n        /* \"#utility.yul\":1383:1385   */\n      0x0d\n        /* \"#utility.yul\":1378:1381   */\n      dup4\n        /* \"#utility.yul\":1319:1386   */\n      tag_51\n      jump\t// in\n    tag_50:\n        /* \"#utility.yul\":1312:1386   */\n      swap2\n      pop\n        /* \"#utility.yul\":1395:1488   */\n      tag_52\n        /* \"#utility.yul\":1484:1487   */\n      dup3\n        /* \"#utility.yul\":1395:1488   */\n      tag_53\n      jump\t// in\n    tag_52:\n        /* \"#utility.yul\":1513:1515   */\n      0x20\n        /* \"#utility.yul\":1508:1511   */\n      dup3\n        /* \"#utility.yul\":1504:1516   */\n      add\n        /* \"#utility.yul\":1497:1516   */\n      swap1\n      pop\n        /* \"#utility.yul\":1156:1522   */\n      swap2\n      swap1\n      pop\n      jump\t// out\n        /* \"#utility.yul\":1528:1799   */\n    tag_21:\n        /* \"#utility.yul\":1658:1661   */\n      0x00\n        /* \"#utility.yul\":1680:1773   */\n      tag_55\n        /* \"#utility.yul\":1769:1772   */\n      dup3\n        /* \"#utility.yul\":1760:1766   */\n      dup5\n        /* \"#utility.yul\":1680:1773   */\n      tag_40\n      jump\t// in\n    tag_55:\n        /* \"#utility.yul\":1673:1773   */\n      swap2\n      pop\n        /* \"#utility.yul\":1790:1793   */\n      dup2\n        /* \"#utility.yul\":1783:1793   */\n      swap1\n      pop\n        /* \"#utility.yul\":1528:1799   */\n      swap3\n      swap2\n      pop\n      pop\n      jump\t// out\n        /* \"#utility.yul\":1805:2224   */\n    tag_18:\n        /* \"#utility.yul\":1971:1975   */\n      0x00\n        /* \"#utility.yul\":2009:2011   */\n      0x20\n        /* \"#utility.yul\":1998:2007   */\n      dup3\n        /* \"#utility.yul\":1994:2012   */\n      add\n        /* \"#utility.yul\":1986:2012   */\n      swap1\n      pop\n        /* \"#utility.yul\":2058:2067   */\n      dup2\n        /* \"#utility.yul\":2052:2056   */\n      dup2\n        /* \"#utility.yul\":2048:2068   */\n      sub\n        /* \"#utility.yul\":2044:2045   */\n      0x00\n        /* \"#utility.yul\":2033:2042   */\n      dup4\n        /* \"#utility.yul\":2029:2046   */\n      add\n        /* \"#utility.yul\":2022:2069   */\n      mstore\n        /* \"#utility.yul\":2086:2217   */\n      tag_57\n        /* \"#utility.yul\":2212:2216   */\n      dup2\n        /* \"#utility.yul\":2086:2217   */\n      tag_48\n      jump\t// in\n    tag_57:\n        /* \"#utility.yul\":2078:2217   */\n      swap1\n      pop\n        /* \"#utility.yul\":1805:2224   */\n      swap2\n      swap1\n      pop\n      jump\t// out\n        /* \"#utility.yul\":2311:2409   */\n    tag_43:\n        /* \"#utility.yul\":2362:2368   */\n      0x00\n        /* \"#utility.yul\":2396:2401   */\n      dup2\n        /* \"#utility.yul\":2390:2402   */\n      mload\n        /* \"#utility.yul\":2380:2402   */\n      swap1\n      pop\n        /* \"#utility.yul\":2311:2409   */\n      swap2\n      swap1\n      pop\n      jump\t// out\n        /* \"#utility.yul\":2415:2562   */\n    tag_45:\n        /* \"#utility.yul\":2516:2527   */\n      0x00\n        /* \"#utility.yul\":2553:2556   */\n      dup2\n        /* \"#utility.yul\":2538:2556   */\n      swap1\n      pop\n        /* \"#utility.yul\":2415:2562   */\n      swap3\n      swap2\n      pop\n      pop\n      jump\t// out\n        /* \"#utility.yul\":2568:2737   */\n    tag_51:\n        /* \"#utility.yul\":2652:2663   */\n      0x00\n        /* \"#utility.yul\":2686:2692   */\n      dup3\n        /* \"#utility.yul\":2681:2684   */\n      dup3\n        /* \"#utility.yul\":2674:2693   */\n      mstore\n        /* \"#utility.yul\":2726:2730   */\n      0x20\n        /* \"#utility.yul\":2721:2724   */\n      dup3\n        /* \"#utility.yul\":2717:2731   */\n      add\n        /* \"#utility.yul\":2702:2731   */\n      swap1\n      pop\n        /* \"#utility.yul\":2568:2737   */\n      swap3\n      swap2\n      pop\n      pop\n      jump\t// out\n        /* \"#utility.yul\":2743:3048   */\n    tag_9:\n        /* \"#utility.yul\":2783:2786   */\n      0x00\n        /* \"#utility.yul\":2802:2822   */\n      tag_64\n        /* \"#utility.yul\":2820:2821   */\n      dup3\n        /* \"#utility.yul\":2802:2822   */\n      tag_65\n      jump\t// in\n    tag_64:\n        /* \"#utility.yul\":2797:2822   */\n      swap2\n      pop\n        /* \"#utility.yul\":2836:2856   */\n      tag_66\n        /* \"#utility.yul\":2854:2855   */\n      dup4\n        /* \"#utility.yul\":2836:2856   */\n      tag_65\n      jump\t// in\n    tag_66:\n        /* \"#utility.yul\":2831:2856   */\n      swap3\n      pop\n        /* \"#utility.yul\":2990:2991   */\n      dup3\n        /* \"#utility.yul\":2922:2988   */\n      0xffffffffffffffffffffffffffffffffffffffffffffffffffffffffffffffff\n        /* \"#utility.yul\":2918:2992   */\n      sub\n        /* \"#utility.yul\":2915:2916   */\n      dup3\n        /* \"#utility.yul\":2912:2993   */\n      gt\n        /* \"#utility.yul\":2909:3016   */\n      iszero\n      tag_67\n      jumpi\n        /* \"#utility.yul\":2996:3014   */\n      tag_68\n      tag_69\n      jump\t// in\n    tag_68:\n        /* \"#utility.yul\":2909:3016   */\n    tag_67:\n        /* \"#utility.yul\":3040:3041   */\n      dup3\n        /* \"#utility.yul\":3037:3038   */\n      dup3\n        /* \"#utility.yul\":3033:3042   */\n      add\n        /* \"#utility.yul\":3026:3042   */\n      swap1\n      pop\n        /* \"#utility.yul\":2743:3048   */\n      swap3\n      swap2\n      pop\n      pop\n      jump\t// out\n        /* \"#utility.yul\":3054:3150   */\n    tag_70:\n        /* \"#utility.yul\":3091:3098   */\n      0x00\n        /* \"#utility.yul\":3120:3144   */\n      tag_72\n        /* \"#utility.yul\":3138:3143   */\n      dup3\n        /* \"#utility.yul\":3120:3144   */\n      tag_73\n      jump\t// in\n    tag_72:\n        /* \"#utility.yul\":3109:3144   */\n      swap1\n      pop\n        /* \"#utility.yul\":3054:3150   */\n      swap2\n      swap1\n      pop\n      jump\t// out\n        /* \"#utility.yul\":3156:3282   */\n    tag_73:\n        /* \"#utility.yul\":3193:3200   */\n      0x00\n        /* \"#utility.yul\":3233:3275   */\n      0xffffffffffffffffffffffffffffffffffffffff\n        /* \"#utility.yul\":3226:3231   */\n      dup3\n        /* \"#utility.yul\":3222:3276   */\n      and\n        /* \"#utility.yul\":3211:3276   */\n      swap1\n      pop\n        /* \"#utility.yul\":3156:3282   */\n      swap2\n      swap1\n      pop\n      jump\t// out\n        /* \"#utility.yul\":3288:3365   */\n    tag_65:\n        /* \"#utility.yul\":3325:3332   */\n      0x00\n        /* \"#utility.yul\":3354:3359   */\n      dup2\n        /* \"#utility.yul\":3343:3359   */\n      swap1\n      pop\n        /* \"#utility.yul\":3288:3365   */\n      swap2\n      swap1\n      pop\n      jump\t// out\n        /* \"#utility.yul\":3371:3678   */\n    tag_47:\n        /* \"#utility.yul\":3439:3440   */\n      0x00\n        /* \"#utility.yul\":3449:3562   */\n    tag_77:\n        /* \"#utility.yul\":3463:3469   */\n      dup4\n        /* \"#utility.yul\":3460:3461   */\n      dup2\n        /* \"#utility.yul\":3457:3470   */\n      lt\n        /* \"#utility.yul\":3449:3562   */\n      iszero\n      tag_79\n      jumpi\n        /* \"#utility.yul\":3548:3549   */\n      dup1\n        /* \"#utility.yul\":3543:3546   */\n      dup3\n        /* \"#utility.yul\":3539:3550   */\n      add\n        /* \"#utility.yul\":3533:3551   */\n      mload\n        /* \"#utility.yul\":3529:3530   */\n      dup2\n        /* \"#utility.yul\":3524:3527   */\n      dup5\n        /* \"#utility.yul\":3520:3531   */\n      add\n        /* \"#utility.yul\":3513:3552   */\n      mstore\n        /* \"#utility.yul\":3485:3487   */\n      0x20\n        /* \"#utility.yul\":3482:3483   */\n      dup2\n        /* \"#utility.yul\":3478:3488   */\n      add\n        /* \"#utility.yul\":3473:3488   */\n      swap1\n      pop\n        /* \"#utility.yul\":3449:3562   */\n      jump(tag_77)\n    tag_79:\n        /* \"#utility.yul\":3580:3586   */\n      dup4\n        /* \"#utility.yul\":3577:3578   */\n      dup2\n        /* \"#utility.yul\":3574:3587   */\n      gt\n        /* \"#utility.yul\":3571:3672   */\n      iszero\n      tag_80\n      jumpi\n        /* \"#utility.yul\":3660:3661   */\n      0x00\n        /* \"#utility.yul\":3651:3657   */\n      dup5\n        /* \"#utility.yul\":3646:3649   */\n      dup5\n        /* \"#utility.yul\":3642:3658   */\n      add\n        /* \"#utility.yul\":3635:3662   */\n      mstore\n        /* \"#utility.yul\":3571:3672   */\n    tag_80:\n        /* \"#utility.yul\":3420:3678   */\n      pop\n        /* \"#utility.yul\":3371:3678   */\n      pop\n      pop\n      pop\n      jump\t// out\n        /* \"#utility.yul\":3684:3864   */\n    tag_69:\n        /* \"#utility.yul\":3732:3809   */\n      0x4e487b7100000000000000000000000000000000000000000000000000000000\n        /* \"#utility.yul\":3729:3730   */\n      0x00\n        /* \"#utility.yul\":3722:3810   */\n      mstore\n        /* \"#utility.yul\":3829:3833   */\n      0x11\n        /* \"#utility.yul\":3826:3827   */\n      0x04\n        /* \"#utility.yul\":3819:3834   */\n      mstore\n        /* \"#utility.yul\":3853:3857   */\n      0x24\n        /* \"#utility.yul\":3850:3851   */\n      0x00\n        /* \"#utility.yul\":3843:3858   */\n      revert\n        /* \"#utility.yul\":3993:4110   */\n    tag_37:\n        /* \"#utility.yul\":4102:4103   */\n      0x00\n        /* \"#utility.yul\":4099:4100   */\n      dup1\n        /* \"#utility.yul\":4092:4104   */\n      revert\n        /* \"#utility.yul\":4116:4279   */\n    tag_53:\n        /* \"#utility.yul\":4256:4271   */\n      0x4e6f7420746865204f776e657200000000000000000000000000000000000000\n        /* \"#utility.yul\":4252:4253   */\n      0x00\n        /* \"#utility.yul\":4244:4250   */\n      dup3\n        /* \"#utility.yul\":4240:4254   */\n      add\n        /* \"#utility.yul\":4233:4272   */\n      mstore\n        /* \"#utility.yul\":4116:4279   */\n      pop\n      jump\t// out\n        /* \"#utility.yul\":4285:4407   */\n    tag_29:\n        /* \"#utility.yul\":4358:4382   */\n      tag_87\n        /* \"#utility.yul\":4376:4381   */\n      dup2\n        /* \"#utility.yul\":4358:4382   */\n      tag_70\n      jump\t// in\n    tag_87:\n        /* \"#utility.yul\":4351:4356   */\n      dup2\n        /* \"#utility.yul\":4348:4383   */\n      eq\n        /* \"#utility.yul\":4338:4401   */\n      tag_88\n      jumpi\n        /* \"#utility.yul\":4397:4398   */\n      0x00\n        /* \"#utility.yul\":4394:4395   */\n      dup1\n        /* \"#utility.yul\":4387:4399   */\n      revert\n        /* \"#utility.yul\":4338:4401   */\n    tag_88:\n        /* \"#utility.yul\":4285:4407   */\n      pop\n      jump\t// out\n        /* \"#utility.yul\":4413:4535   */\n    tag_33:\n        /* \"#utility.yul\":4486:4510   */\n      tag_90\n        /* \"#utility.yul\":4504:4509   */\n      dup2\n        /* \"#utility.yul\":4486:4510   */\n      tag_65\n      jump\t// in\n    tag_90:\n        /* \"#utility.yul\":4479:4484   */\n      dup2\n        /* \"#utility.yul\":4476:4511   */\n      eq\n        /* \"#utility.yul\":4466:4529   */\n      tag_91\n      jumpi\n        /* \"#utility.yul\":4525:4526   */\n      0x00\n        /* \"#utility.yul\":4522:4523   */\n      dup1\n        /* \"#utility.yul\":4515:4527   */\n      revert\n        /* \"#utility.yul\":4466:4529   */\n    tag_91:\n        /* \"#utility.yul\":4413:4535   */\n      pop\n      jump\t// out\n\n    auxdata: 0xa26469706673582212204e85eff51c9c36a5899a4e0908dc68f5b9e1cc8bb778ca2d55d126280493754f64736f6c63430008070033\n}\n",
				"bytecode": {
					"linkReferences": {},
					"object": "608060405234801561001057600080fd5b50336000806101000a81548173ffffffffffffffffffffffffffffffffffffffff021916908373ffffffffffffffffffffffffffffffffffffffff1602179055506104cb806100606000396000f3fe6080604052600436106100225760003560e01c8063f3fef3a31461008157610029565b3661002957005b34600160003373ffffffffffffffffffffffffffffffffffffffff1673ffffffffffffffffffffffffffffffffffffffff16815260200190815260200160002060008282546100789190610345565b92505081905550005b34801561008d57600080fd5b506100a860048036038101906100a39190610253565b6100aa565b005b60008054906101000a900473ffffffffffffffffffffffffffffffffffffffff1673ffffffffffffffffffffffffffffffffffffffff163373ffffffffffffffffffffffffffffffffffffffff1614610138576040517f08c379a000000000000000000000000000000000000000000000000000000000815260040161012f906102fe565b60405180910390fd5b8173ffffffffffffffffffffffffffffffffffffffff16816040516024016040516020818303038152906040527fc5d24601000000000000000000000000000000000000000000000000000000007bffffffffffffffffffffffffffffffffffffffffffffffffffffffff19166020820180517bffffffffffffffffffffffffffffffffffffffffffffffffffffffff83818316178352505050506040516101e091906102e7565b60006040518083038185875af1925050503d806000811461021d576040519150601f19603f3d011682016040523d82523d6000602084013e610222565b606091505b5050505050565b60008135905061023881610467565b92915050565b60008135905061024d8161047e565b92915050565b6000806040838503121561026a57610269610439565b5b600061027885828601610229565b92505060206102898582860161023e565b9150509250929050565b600061029e8261031e565b6102a88185610329565b93506102b88185602086016103d7565b80840191505092915050565b60006102d1600d83610334565b91506102dc8261043e565b602082019050919050565b60006102f38284610293565b915081905092915050565b60006020820190508181036000830152610317816102c4565b9050919050565b600081519050919050565b600081905092915050565b600082825260208201905092915050565b6000610350826103cd565b915061035b836103cd565b9250827fffffffffffffffffffffffffffffffffffffffffffffffffffffffffffffffff038211156103905761038f61040a565b5b828201905092915050565b60006103a6826103ad565b9050919050565b600073ffffffffffffffffffffffffffffffffffffffff82169050919050565b6000819050919050565b60005b838110156103f55780820151818401526020810190506103da565b83811115610404576000848401525b50505050565b7f4e487b7100000000000000000000000000000000000000000000000000000000600052601160045260246000fd5b600080fd5b7f4e6f7420746865204f776e657200000000000000000000000000000000000000600082015250565b6104708161039b565b811461047b57600080fd5b50565b610487816103cd565b811461049257600080fd5b5056fea26469706673582212204e85eff51c9c36a5899a4e0908dc68f5b9e1cc8bb778ca2d55d126280493754f64736f6c63430008070033",
					"opcodes": "PUSH1 0x80 PUSH1 0x40 MSTORE CALLVALUE DUP1 ISZERO PUSH2 0x10 JUMPI PUSH1 0x0 DUP1 REVERT JUMPDEST POP CALLER PUSH1 0x0 DUP1 PUSH2 0x100 EXP DUP2 SLOAD DUP2 PUSH20 0xFFFFFFFFFFFFFFFFFFFFFFFFFFFFFFFFFFFFFFFF MUL NOT AND SWAP1 DUP4 PUSH20 0xFFFFFFFFFFFFFFFFFFFFFFFFFFFFFFFFFFFFFFFF AND MUL OR SWAP1 SSTORE POP PUSH2 0x4CB DUP1 PUSH2 0x60 PUSH1 0x0 CODECOPY PUSH1 0x0 RETURN INVALID PUSH1 0x80 PUSH1 0x40 MSTORE PUSH1 0x4 CALLDATASIZE LT PUSH2 0x22 JUMPI PUSH1 0x0 CALLDATALOAD PUSH1 0xE0 SHR DUP1 PUSH4 0xF3FEF3A3 EQ PUSH2 0x81 JUMPI PUSH2 0x29 JUMP JUMPDEST CALLDATASIZE PUSH2 0x29 JUMPI STOP JUMPDEST CALLVALUE PUSH1 0x1 PUSH1 0x0 CALLER PUSH20 0xFFFFFFFFFFFFFFFFFFFFFFFFFFFFFFFFFFFFFFFF AND PUSH20 0xFFFFFFFFFFFFFFFFFFFFFFFFFFFFFFFFFFFFFFFF AND DUP2 MSTORE PUSH1 0x20 ADD SWAP1 DUP2 MSTORE PUSH1 0x20 ADD PUSH1 0x0 KECCAK256 PUSH1 0x0 DUP3 DUP3 SLOAD PUSH2 0x78 SWAP2 SWAP1 PUSH2 0x345 JUMP JUMPDEST SWAP3 POP POP DUP2 SWAP1 SSTORE POP STOP JUMPDEST CALLVALUE DUP1 ISZERO PUSH2 0x8D JUMPI PUSH1 0x0 DUP1 REVERT JUMPDEST POP PUSH2 0xA8 PUSH1 0x4 DUP1 CALLDATASIZE SUB DUP2 ADD SWAP1 PUSH2 0xA3 SWAP2 SWAP1 PUSH2 0x253 JUMP JUMPDEST PUSH2 0xAA JUMP JUMPDEST STOP JUMPDEST PUSH1 0x0 DUP1 SLOAD SWAP1 PUSH2 0x100 EXP SWAP1 DIV PUSH20 0xFFFFFFFFFFFFFFFFFFFFFFFFFFFFFFFFFFFFFFFF AND PUSH20 0xFFFFFFFFFFFFFFFFFFFFFFFFFFFFFFFFFFFFFFFF AND CALLER PUSH20 0xFFFFFFFFFFFFFFFFFFFFFFFFFFFFFFFFFFFFFFFF AND EQ PUSH2 0x138 JUMPI PUSH1 0x40 MLOAD PUSH32 0x8C379A000000000000000000000000000000000000000000000000000000000 DUP2 MSTORE PUSH1 0x4 ADD PUSH2 0x12F SWAP1 PUSH2 0x2FE JUMP JUMPDEST PUSH1 0x40 MLOAD DUP1 SWAP2 SUB SWAP1 REVERT JUMPDEST DUP2 PUSH20 0xFFFFFFFFFFFFFFFFFFFFFFFFFFFFFFFFFFFFFFFF AND DUP2 PUSH1 0x40 MLOAD PUSH1 0x24 ADD PUSH1 0x40 MLOAD PUSH1 0x20 DUP2 DUP4 SUB SUB DUP2 MSTORE SWAP1 PUSH1 0x40 MSTORE PUSH32 0xC5D2460100000000000000000000000000000000000000000000000000000000 PUSH28 0xFFFFFFFFFFFFFFFFFFFFFFFFFFFFFFFFFFFFFFFFFFFFFFFFFFFFFFFF NOT AND PUSH1 0x20 DUP3 ADD DUP1 MLOAD PUSH28 0xFFFFFFFFFFFFFFFFFFFFFFFFFFFFFFFFFFFFFFFFFFFFFFFFFFFFFFFF DUP4 DUP2 DUP4 AND OR DUP4 MSTORE POP POP POP POP PUSH1 0x40 MLOAD PUSH2 0x1E0 SWAP2 SWAP1 PUSH2 0x2E7 JUMP JUMPDEST PUSH1 0x0 PUSH1 0x40 MLOAD DUP1 DUP4 SUB DUP2 DUP6 DUP8 GAS CALL SWAP3 POP POP POP RETURNDATASIZE DUP1 PUSH1 0x0 DUP2 EQ PUSH2 0x21D JUMPI PUSH1 0x40 MLOAD SWAP2 POP PUSH1 0x1F NOT PUSH1 0x3F RETURNDATASIZE ADD AND DUP3 ADD PUSH1 0x40 MSTORE RETURNDATASIZE DUP3 MSTORE RETURNDATASIZE PUSH1 0x0 PUSH1 0x20 DUP5 ADD RETURNDATACOPY PUSH2 0x222 JUMP JUMPDEST PUSH1 0x60 SWAP2 POP JUMPDEST POP POP POP POP POP JUMP JUMPDEST PUSH1 0x0 DUP2 CALLDATALOAD SWAP1 POP PUSH2 0x238 DUP2 PUSH2 0x467 JUMP JUMPDEST SWAP3 SWAP2 POP POP JUMP JUMPDEST PUSH1 0x0 DUP2 CALLDATALOAD SWAP1 POP PUSH2 0x24D DUP2 PUSH2 0x47E JUMP JUMPDEST SWAP3 SWAP2 POP POP JUMP JUMPDEST PUSH1 0x0 DUP1 PUSH1 0x40 DUP4 DUP6 SUB SLT ISZERO PUSH2 0x26A JUMPI PUSH2 0x269 PUSH2 0x439 JUMP JUMPDEST JUMPDEST PUSH1 0x0 PUSH2 0x278 DUP6 DUP3 DUP7 ADD PUSH2 0x229 JUMP JUMPDEST SWAP3 POP POP PUSH1 0x20 PUSH2 0x289 DUP6 DUP3 DUP7 ADD PUSH2 0x23E JUMP JUMPDEST SWAP2 POP POP SWAP3 POP SWAP3 SWAP1 POP JUMP JUMPDEST PUSH1 0x0 PUSH2 0x29E DUP3 PUSH2 0x31E JUMP JUMPDEST PUSH2 0x2A8 DUP2 DUP6 PUSH2 0x329 JUMP JUMPDEST SWAP4 POP PUSH2 0x2B8 DUP2 DUP6 PUSH1 0x20 DUP7 ADD PUSH2 0x3D7 JUMP JUMPDEST DUP1 DUP5 ADD SWAP2 POP POP SWAP3 SWAP2 POP POP JUMP JUMPDEST PUSH1 0x0 PUSH2 0x2D1 PUSH1 0xD DUP4 PUSH2 0x334 JUMP JUMPDEST SWAP2 POP PUSH2 0x2DC DUP3 PUSH2 0x43E JUMP JUMPDEST PUSH1 0x20 DUP3 ADD SWAP1 POP SWAP2 SWAP1 POP JUMP JUMPDEST PUSH1 0x0 PUSH2 0x2F3 DUP3 DUP5 PUSH2 0x293 JUMP JUMPDEST SWAP2 POP DUP2 SWAP1 POP SWAP3 SWAP2 POP POP JUMP JUMPDEST PUSH1 0x0 PUSH1 0x20 DUP3 ADD SWAP1 POP DUP2 DUP2 SUB PUSH1 0x0 DUP4 ADD MSTORE PUSH2 0x317 DUP2 PUSH2 0x2C4 JUMP JUMPDEST SWAP1 POP SWAP2 SWAP1 POP JUMP JUMPDEST PUSH1 0x0 DUP2 MLOAD SWAP1 POP SWAP2 SWAP1 POP JUMP JUMPDEST PUSH1 0x0 DUP2 SWAP1 POP SWAP3 SWAP2 POP POP JUMP JUMPDEST PUSH1 0x0 DUP3 DUP3 MSTORE PUSH1 0x20 DUP3 ADD SWAP1 POP SWAP3 SWAP2 POP POP JUMP JUMPDEST PUSH1 0x0 PUSH2 0x350 DUP3 PUSH2 0x3CD JUMP JUMPDEST SWAP2 POP PUSH2 0x35B DUP4 PUSH2 0x3CD JUMP JUMPDEST SWAP3 POP DUP3 PUSH32 0xFFFFFFFFFFFFFFFFFFFFFFFFFFFFFFFFFFFFFFFFFFFFFFFFFFFFFFFFFFFFFFFF SUB DUP3 GT ISZERO PUSH2 0x390 JUMPI PUSH2 0x38F PUSH2 0x40A JUMP JUMPDEST JUMPDEST DUP3 DUP3 ADD SWAP1 POP SWAP3 SWAP2 POP POP JUMP JUMPDEST PUSH1 0x0 PUSH2 0x3A6 DUP3 PUSH2 0x3AD JUMP JUMPDEST SWAP1 POP SWAP2 SWAP1 POP JUMP JUMPDEST PUSH1 0x0 PUSH20 0xFFFFFFFFFFFFFFFFFFFFFFFFFFFFFFFFFFFFFFFF DUP3 AND SWAP1 POP SWAP2 SWAP1 POP JUMP JUMPDEST PUSH1 0x0 DUP2 SWAP1 POP SWAP2 SWAP1 POP JUMP JUMPDEST PUSH1 0x0 JUMPDEST DUP4 DUP2 LT ISZERO PUSH2 0x3F5 JUMPI DUP1 DUP3 ADD MLOAD DUP2 DUP5 ADD MSTORE PUSH1 0x20 DUP2 ADD SWAP1 POP PUSH2 0x3DA JUMP JUMPDEST DUP4 DUP2 GT ISZERO PUSH2 0x404 JUMPI PUSH1 0x0 DUP5 DUP5 ADD MSTORE JUMPDEST POP POP POP POP JUMP JUMPDEST PUSH32 0x4E487B7100000000000000000000000000000000000000000000000000000000 PUSH1 0x0 MSTORE PUSH1 0x11 PUSH1 0x4 MSTORE PUSH1 0x24 PUSH1 0x0 REVERT JUMPDEST PUSH1 0x0 DUP1 REVERT JUMPDEST PUSH32 0x4E6F7420746865204F776E657200000000000000000000000000000000000000 PUSH1 0x0 DUP3 ADD MSTORE POP JUMP JUMPDEST PUSH2 0x470 DUP2 PUSH2 0x39B JUMP JUMPDEST DUP2 EQ PUSH2 0x47B JUMPI PUSH1 0x0 DUP1 REVERT JUMPDEST POP JUMP JUMPDEST PUSH2 0x487 DUP2 PUSH2 0x3CD JUMP JUMPDEST DUP2 EQ PUSH2 0x492 JUMPI PUSH1 0x0 DUP1 REVERT JUMPDEST POP JUMP INVALID LOG2 PUSH5 0x6970667358 0x22 SLT KECCAK256 0x4E DUP6 0xEF CREATE2 SHR SWAP13 CALLDATASIZE 0xA5 DUP10 SWAP11 0x4E MULMOD ADDMOD 0xDC PUSH9 0xF5B9E1CC8BB778CA2D SSTORE 0xD1 0x26 0x28 DIV SWAP4 PUSH22 0x4F64736F6C6343000807003300000000000000000000 "
				},
				"gasEstimates": {
					"creation": {
						"codeDepositCost": "245400",
						"executionCost": "24553",
						"totalCost": "269953"
					},
					"external": {
						"": "infinite",
						"withdraw(address,uint256)": "infinite"
					}
				},
				"methodIdentifiers": {
					"withdraw(address,uint256)": "f3fef3a3"
				}
			},
			"storageLayout": {
				"storage": [
					{
						"astId": 3,
						"contract": "contracts/EthersWallet.sol:EthersWallet",
						"label": "owner",
						"offset": 0,
						"slot": "0",
						"type": "t_address"
					},
					{
						"astId": 7,
						"contract": "contracts/EthersWallet.sol:EthersWallet",
						"label": "balances",
						"offset": 0,
						"slot": "1",
						"type": "t_mapping(t_address,t_uint256)"
					}
				],
				"types": {
					"t_address": {
						"encoding": "inplace",
						"label": "address",
						"numberOfBytes": "20"
					},
					"t_mapping(t_address,t_uint256)": {
						"encoding": "mapping",
						"key": "t_address",
						"label": "mapping(address => uint256)",
						"numberOfBytes": "32",
						"value": "t_uint256"
					},
					"t_uint256": {
						"encoding": "inplace",
						"label": "uint256",
						"numberOfBytes": "32"
					}
				}
			},
			"userdoc": {
				"kind": "user",
				"methods": {},
				"version": 1
			}
		}
	}
}