{
	"contracts/ToDo.sol": {
		"TodoList": {
			"abi": [
				{
					"inputs": [
						{
							"internalType": "string",
							"name": "_text",
							"type": "string"
						}
					],
					"name": "create",
					"outputs": [],
					"stateMutability": "nonpayable",
					"type": "function"
				},
				{
					"inputs": [
						{
							"internalType": "string",
							"name": "_text",
							"type": "string"
						},
						{
							"internalType": "bool",
							"name": "_status",
							"type": "bool"
						},
						{
							"internalType": "uint256",
							"name": "_index",
							"type": "uint256"
						}
					],
					"name": "update",
					"outputs": [],
					"stateMutability": "nonpayable",
					"type": "function"
				}
			],
			"devdoc": {
				"kind": "dev",
				"methods": {},
				"version": 1
			},
			"evm": {
				"assembly": "    /* \"contracts/ToDo.sol\":68:425  contract TodoList {\r... */\n  mstore(0x40, 0x80)\n  callvalue\n  dup1\n  iszero\n  tag_1\n  jumpi\n  0x00\n  dup1\n  revert\ntag_1:\n  pop\n  dataSize(sub_0)\n  dup1\n  dataOffset(sub_0)\n  0x00\n  codecopy\n  0x00\n  return\nstop\n\nsub_0: assembly {\n        /* \"contracts/ToDo.sol\":68:425  contract TodoList {\r... */\n      mstore(0x40, 0x80)\n      callvalue\n      dup1\n      iszero\n      tag_1\n      jumpi\n      0x00\n      dup1\n      revert\n    tag_1:\n      pop\n      jumpi(tag_2, lt(calldatasize, 0x04))\n      shr(0xe0, calldataload(0x00))\n      dup1\n      0x1a1e4b51\n      eq\n      tag_3\n      jumpi\n      dup1\n      0xb6a46b3b\n      eq\n      tag_4\n      jumpi\n    tag_2:\n      0x00\n      dup1\n      revert\n        /* \"contracts/ToDo.sol\":333:418  function update(string calldata _text, bool _status, uint _index) external{\r... */\n    tag_3:\n      tag_5\n      0x04\n      dup1\n      calldatasize\n      sub\n      dup2\n      add\n      swap1\n      tag_6\n      swap2\n      swap1\n      tag_7\n      jump\t// in\n    tag_6:\n      tag_8\n      jump\t// in\n    tag_5:\n      stop\n        /* \"contracts/ToDo.sol\":195:326  function create(string calldata _text) external {\r... */\n    tag_4:\n      tag_9\n      0x04\n      dup1\n      calldatasize\n      sub\n      dup2\n      add\n      swap1\n      tag_10\n      swap2\n      swap1\n      tag_11\n      jump\t// in\n    tag_10:\n      tag_12\n      jump\t// in\n    tag_9:\n      stop\n        /* \"contracts/ToDo.sol\":333:418  function update(string calldata _text, bool _status, uint _index) external{\r... */\n    tag_8:\n      pop\n      pop\n      pop\n      pop\n      jump\t// out\n        /* \"contracts/ToDo.sol\":195:326  function create(string calldata _text) external {\r... */\n    tag_12:\n        /* \"contracts/ToDo.sol\":255:271  ToDo memory todo */\n      0x00\n        /* \"contracts/ToDo.sol\":274:291  ToDo(_text,false) */\n      mload(0x40)\n      dup1\n      0x40\n      add\n      0x40\n      mstore\n      dup1\n        /* \"contracts/ToDo.sol\":279:284  _text */\n      dup5\n      dup5\n        /* \"contracts/ToDo.sol\":274:291  ToDo(_text,false) */\n      dup1\n      dup1\n      0x1f\n      add\n      0x20\n      dup1\n      swap2\n      div\n      mul\n      0x20\n      add\n      mload(0x40)\n      swap1\n      dup2\n      add\n      0x40\n      mstore\n      dup1\n      swap4\n      swap3\n      swap2\n      swap1\n      dup2\n      dup2\n      mstore\n      0x20\n      add\n      dup4\n      dup4\n      dup1\n      dup3\n      dup5\n      calldatacopy\n      0x00\n      dup2\n      dup5\n      add\n      mstore\n      not(0x1f)\n      0x1f\n      dup3\n      add\n      and\n      swap1\n      pop\n      dup1\n      dup4\n      add\n      swap3\n      pop\n      pop\n      pop\n      pop\n      pop\n      pop\n      pop\n      dup2\n      mstore\n      0x20\n      add\n        /* \"contracts/ToDo.sol\":285:290  false */\n      0x00\n        /* \"contracts/ToDo.sol\":274:291  ToDo(_text,false) */\n      iszero\n      iszero\n      dup2\n      mstore\n      pop\n        /* \"contracts/ToDo.sol\":255:291  ToDo memory todo = ToDo(_text,false) */\n      swap1\n      pop\n        /* \"contracts/ToDo.sol\":301:306  todos */\n      0x00\n        /* \"contracts/ToDo.sol\":312:316  todo */\n      dup2\n        /* \"contracts/ToDo.sol\":301:317  todos.push(todo) */\n      swap1\n      dup1\n      0x01\n      dup2\n      sload\n      add\n      dup1\n      dup3\n      sstore\n      dup1\n      swap2\n      pop\n      pop\n      0x01\n      swap1\n      sub\n      swap1\n      0x00\n      mstore\n      keccak256(0x00, 0x20)\n      swap1\n      0x02\n      mul\n      add\n      0x00\n      swap1\n      swap2\n      swap1\n      swap2\n      swap1\n      swap2\n      pop\n      0x00\n      dup3\n      add\n      mload\n      dup2\n      0x00\n      add\n      swap1\n      dup1\n      mload\n      swap1\n      0x20\n      add\n      swap1\n      tag_16\n      swap3\n      swap2\n      swap1\n      tag_17\n      jump\t// in\n    tag_16:\n      pop\n      0x20\n      dup3\n      add\n      mload\n      dup2\n      0x01\n      add\n      exp(0x0100, 0x00)\n      dup2\n      sload\n      dup2\n      0xff\n      mul\n      not\n      and\n      swap1\n      dup4\n      iszero\n      iszero\n      mul\n      or\n      swap1\n      sstore\n      pop\n      pop\n      pop\n        /* \"contracts/ToDo.sol\":243:326  {\r... */\n      pop\n        /* \"contracts/ToDo.sol\":195:326  function create(string calldata _text) external {\r... */\n      pop\n      pop\n      jump\t// out\n    tag_17:\n      dup3\n      dup1\n      sload\n      tag_18\n      swap1\n      tag_19\n      jump\t// in\n    tag_18:\n      swap1\n      0x00\n      mstore\n      keccak256(0x00, 0x20)\n      swap1\n      0x1f\n      add\n      0x20\n      swap1\n      div\n      dup2\n      add\n      swap3\n      dup3\n      tag_21\n      jumpi\n      0x00\n      dup6\n      sstore\n      jump(tag_20)\n    tag_21:\n      dup3\n      0x1f\n      lt\n      tag_22\n      jumpi\n      dup1\n      mload\n      not(0xff)\n      and\n      dup4\n      dup1\n      add\n      or\n      dup6\n      sstore\n      jump(tag_20)\n    tag_22:\n      dup3\n      dup1\n      add\n      0x01\n      add\n      dup6\n      sstore\n      dup3\n      iszero\n      tag_20\n      jumpi\n      swap2\n      dup3\n      add\n    tag_23:\n      dup3\n      dup2\n      gt\n      iszero\n      tag_24\n      jumpi\n      dup3\n      mload\n      dup3\n      sstore\n      swap2\n      0x20\n      add\n      swap2\n      swap1\n      0x01\n      add\n      swap1\n      jump(tag_23)\n    tag_24:\n    tag_20:\n      pop\n      swap1\n      pop\n      tag_25\n      swap2\n      swap1\n      tag_26\n      jump\t// in\n    tag_25:\n      pop\n      swap1\n      jump\t// out\n    tag_26:\n    tag_27:\n      dup1\n      dup3\n      gt\n      iszero\n      tag_28\n      jumpi\n      0x00\n      dup2\n      0x00\n      swap1\n      sstore\n      pop\n      0x01\n      add\n      jump(tag_27)\n    tag_28:\n      pop\n      swap1\n      jump\t// out\n        /* \"#utility.yul\":7:140   */\n    tag_30:\n        /* \"#utility.yul\":50:55   */\n      0x00\n        /* \"#utility.yul\":88:94   */\n      dup2\n        /* \"#utility.yul\":75:95   */\n      calldataload\n        /* \"#utility.yul\":66:95   */\n      swap1\n      pop\n        /* \"#utility.yul\":104:134   */\n      tag_32\n        /* \"#utility.yul\":128:133   */\n      dup2\n        /* \"#utility.yul\":104:134   */\n      tag_33\n      jump\t// in\n    tag_32:\n        /* \"#utility.yul\":7:140   */\n      swap3\n      swap2\n      pop\n      pop\n      jump\t// out\n        /* \"#utility.yul\":160:713   */\n    tag_34:\n        /* \"#utility.yul\":218:226   */\n      0x00\n        /* \"#utility.yul\":228:234   */\n      dup1\n        /* \"#utility.yul\":278:281   */\n      dup4\n        /* \"#utility.yul\":271:275   */\n      0x1f\n        /* \"#utility.yul\":263:269   */\n      dup5\n        /* \"#utility.yul\":259:276   */\n      add\n        /* \"#utility.yul\":255:282   */\n      slt\n        /* \"#utility.yul\":245:367   */\n      tag_36\n      jumpi\n        /* \"#utility.yul\":286:365   */\n      tag_37\n      tag_38\n      jump\t// in\n    tag_37:\n        /* \"#utility.yul\":245:367   */\n    tag_36:\n        /* \"#utility.yul\":399:405   */\n      dup3\n        /* \"#utility.yul\":386:406   */\n      calldataload\n        /* \"#utility.yul\":376:406   */\n      swap1\n      pop\n        /* \"#utility.yul\":429:447   */\n      0xffffffffffffffff\n        /* \"#utility.yul\":421:427   */\n      dup2\n        /* \"#utility.yul\":418:448   */\n      gt\n        /* \"#utility.yul\":415:532   */\n      iszero\n      tag_39\n      jumpi\n        /* \"#utility.yul\":451:530   */\n      tag_40\n      tag_41\n      jump\t// in\n    tag_40:\n        /* \"#utility.yul\":415:532   */\n    tag_39:\n        /* \"#utility.yul\":565:569   */\n      0x20\n        /* \"#utility.yul\":557:563   */\n      dup4\n        /* \"#utility.yul\":553:570   */\n      add\n        /* \"#utility.yul\":541:570   */\n      swap2\n      pop\n        /* \"#utility.yul\":619:622   */\n      dup4\n        /* \"#utility.yul\":611:615   */\n      0x01\n        /* \"#utility.yul\":603:609   */\n      dup3\n        /* \"#utility.yul\":599:616   */\n      mul\n        /* \"#utility.yul\":589:597   */\n      dup4\n        /* \"#utility.yul\":585:617   */\n      add\n        /* \"#utility.yul\":582:623   */\n      gt\n        /* \"#utility.yul\":579:707   */\n      iszero\n      tag_42\n      jumpi\n        /* \"#utility.yul\":626:705   */\n      tag_43\n      tag_44\n      jump\t// in\n    tag_43:\n        /* \"#utility.yul\":579:707   */\n    tag_42:\n        /* \"#utility.yul\":160:713   */\n      swap3\n      pop\n      swap3\n      swap1\n      pop\n      jump\t// out\n        /* \"#utility.yul\":719:858   */\n    tag_45:\n        /* \"#utility.yul\":765:770   */\n      0x00\n        /* \"#utility.yul\":803:809   */\n      dup2\n        /* \"#utility.yul\":790:810   */\n      calldataload\n        /* \"#utility.yul\":781:810   */\n      swap1\n      pop\n        /* \"#utility.yul\":819:852   */\n      tag_47\n        /* \"#utility.yul\":846:851   */\n      dup2\n        /* \"#utility.yul\":819:852   */\n      tag_48\n      jump\t// in\n    tag_47:\n        /* \"#utility.yul\":719:858   */\n      swap3\n      swap2\n      pop\n      pop\n      jump\t// out\n        /* \"#utility.yul\":864:1393   */\n    tag_11:\n        /* \"#utility.yul\":935:941   */\n      0x00\n        /* \"#utility.yul\":943:949   */\n      dup1\n        /* \"#utility.yul\":992:994   */\n      0x20\n        /* \"#utility.yul\":980:989   */\n      dup4\n        /* \"#utility.yul\":971:978   */\n      dup6\n        /* \"#utility.yul\":967:990   */\n      sub\n        /* \"#utility.yul\":963:995   */\n      slt\n        /* \"#utility.yul\":960:1079   */\n      iszero\n      tag_50\n      jumpi\n        /* \"#utility.yul\":998:1077   */\n      tag_51\n      tag_52\n      jump\t// in\n    tag_51:\n        /* \"#utility.yul\":960:1079   */\n    tag_50:\n        /* \"#utility.yul\":1146:1147   */\n      0x00\n        /* \"#utility.yul\":1135:1144   */\n      dup4\n        /* \"#utility.yul\":1131:1148   */\n      add\n        /* \"#utility.yul\":1118:1149   */\n      calldataload\n        /* \"#utility.yul\":1176:1194   */\n      0xffffffffffffffff\n        /* \"#utility.yul\":1168:1174   */\n      dup2\n        /* \"#utility.yul\":1165:1195   */\n      gt\n        /* \"#utility.yul\":1162:1279   */\n      iszero\n      tag_53\n      jumpi\n        /* \"#utility.yul\":1198:1277   */\n      tag_54\n      tag_55\n      jump\t// in\n    tag_54:\n        /* \"#utility.yul\":1162:1279   */\n    tag_53:\n        /* \"#utility.yul\":1311:1376   */\n      tag_56\n        /* \"#utility.yul\":1368:1375   */\n      dup6\n        /* \"#utility.yul\":1359:1365   */\n      dup3\n        /* \"#utility.yul\":1348:1357   */\n      dup7\n        /* \"#utility.yul\":1344:1366   */\n      add\n        /* \"#utility.yul\":1311:1376   */\n      tag_34\n      jump\t// in\n    tag_56:\n        /* \"#utility.yul\":1293:1376   */\n      swap3\n      pop\n      swap3\n      pop\n        /* \"#utility.yul\":1089:1386   */\n      pop\n        /* \"#utility.yul\":864:1393   */\n      swap3\n      pop\n      swap3\n      swap1\n      pop\n      jump\t// out\n        /* \"#utility.yul\":1399:2212   */\n    tag_7:\n        /* \"#utility.yul\":1485:1491   */\n      0x00\n        /* \"#utility.yul\":1493:1499   */\n      dup1\n        /* \"#utility.yul\":1501:1507   */\n      0x00\n        /* \"#utility.yul\":1509:1515   */\n      dup1\n        /* \"#utility.yul\":1558:1560   */\n      0x60\n        /* \"#utility.yul\":1546:1555   */\n      dup6\n        /* \"#utility.yul\":1537:1544   */\n      dup8\n        /* \"#utility.yul\":1533:1556   */\n      sub\n        /* \"#utility.yul\":1529:1561   */\n      slt\n        /* \"#utility.yul\":1526:1645   */\n      iszero\n      tag_58\n      jumpi\n        /* \"#utility.yul\":1564:1643   */\n      tag_59\n      tag_52\n      jump\t// in\n    tag_59:\n        /* \"#utility.yul\":1526:1645   */\n    tag_58:\n        /* \"#utility.yul\":1712:1713   */\n      0x00\n        /* \"#utility.yul\":1701:1710   */\n      dup6\n        /* \"#utility.yul\":1697:1714   */\n      add\n        /* \"#utility.yul\":1684:1715   */\n      calldataload\n        /* \"#utility.yul\":1742:1760   */\n      0xffffffffffffffff\n        /* \"#utility.yul\":1734:1740   */\n      dup2\n        /* \"#utility.yul\":1731:1761   */\n      gt\n        /* \"#utility.yul\":1728:1845   */\n      iszero\n      tag_60\n      jumpi\n        /* \"#utility.yul\":1764:1843   */\n      tag_61\n      tag_55\n      jump\t// in\n    tag_61:\n        /* \"#utility.yul\":1728:1845   */\n    tag_60:\n        /* \"#utility.yul\":1877:1942   */\n      tag_62\n        /* \"#utility.yul\":1934:1941   */\n      dup8\n        /* \"#utility.yul\":1925:1931   */\n      dup3\n        /* \"#utility.yul\":1914:1923   */\n      dup9\n        /* \"#utility.yul\":1910:1932   */\n      add\n        /* \"#utility.yul\":1877:1942   */\n      tag_34\n      jump\t// in\n    tag_62:\n        /* \"#utility.yul\":1859:1942   */\n      swap5\n      pop\n      swap5\n      pop\n        /* \"#utility.yul\":1655:1952   */\n      pop\n        /* \"#utility.yul\":1991:1993   */\n      0x20\n        /* \"#utility.yul\":2017:2067   */\n      tag_63\n        /* \"#utility.yul\":2059:2066   */\n      dup8\n        /* \"#utility.yul\":2050:2056   */\n      dup3\n        /* \"#utility.yul\":2039:2048   */\n      dup9\n        /* \"#utility.yul\":2035:2057   */\n      add\n        /* \"#utility.yul\":2017:2067   */\n      tag_30\n      jump\t// in\n    tag_63:\n        /* \"#utility.yul\":2007:2067   */\n      swap3\n      pop\n        /* \"#utility.yul\":1962:2077   */\n      pop\n        /* \"#utility.yul\":2116:2118   */\n      0x40\n        /* \"#utility.yul\":2142:2195   */\n      tag_64\n        /* \"#utility.yul\":2187:2194   */\n      dup8\n        /* \"#utility.yul\":2178:2184   */\n      dup3\n        /* \"#utility.yul\":2167:2176   */\n      dup9\n        /* \"#utility.yul\":2163:2185   */\n      add\n        /* \"#utility.yul\":2142:2195   */\n      tag_45\n      jump\t// in\n    tag_64:\n        /* \"#utility.yul\":2132:2195   */\n      swap2\n      pop\n        /* \"#utility.yul\":2087:2205   */\n      pop\n        /* \"#utility.yul\":1399:2212   */\n      swap3\n      swap6\n      swap2\n      swap5\n      pop\n      swap3\n      pop\n      jump\t// out\n        /* \"#utility.yul\":2299:2389   */\n    tag_67:\n        /* \"#utility.yul\":2333:2340   */\n      0x00\n        /* \"#utility.yul\":2376:2381   */\n      dup2\n        /* \"#utility.yul\":2369:2382   */\n      iszero\n        /* \"#utility.yul\":2362:2383   */\n      iszero\n        /* \"#utility.yul\":2351:2383   */\n      swap1\n      pop\n        /* \"#utility.yul\":2299:2389   */\n      swap2\n      swap1\n      pop\n      jump\t// out\n        /* \"#utility.yul\":2395:2472   */\n    tag_69:\n        /* \"#utility.yul\":2432:2439   */\n      0x00\n        /* \"#utility.yul\":2461:2466   */\n      dup2\n        /* \"#utility.yul\":2450:2466   */\n      swap1\n      pop\n        /* \"#utility.yul\":2395:2472   */\n      swap2\n      swap1\n      pop\n      jump\t// out\n        /* \"#utility.yul\":2478:2798   */\n    tag_19:\n        /* \"#utility.yul\":2522:2528   */\n      0x00\n        /* \"#utility.yul\":2559:2560   */\n      0x02\n        /* \"#utility.yul\":2553:2557   */\n      dup3\n        /* \"#utility.yul\":2549:2561   */\n      div\n        /* \"#utility.yul\":2539:2561   */\n      swap1\n      pop\n        /* \"#utility.yul\":2606:2607   */\n      0x01\n        /* \"#utility.yul\":2600:2604   */\n      dup3\n        /* \"#utility.yul\":2596:2608   */\n      and\n        /* \"#utility.yul\":2627:2645   */\n      dup1\n        /* \"#utility.yul\":2617:2698   */\n      tag_72\n      jumpi\n        /* \"#utility.yul\":2683:2687   */\n      0x7f\n        /* \"#utility.yul\":2675:2681   */\n      dup3\n        /* \"#utility.yul\":2671:2688   */\n      and\n        /* \"#utility.yul\":2661:2688   */\n      swap2\n      pop\n        /* \"#utility.yul\":2617:2698   */\n    tag_72:\n        /* \"#utility.yul\":2745:2747   */\n      0x20\n        /* \"#utility.yul\":2737:2743   */\n      dup3\n        /* \"#utility.yul\":2734:2748   */\n      lt\n        /* \"#utility.yul\":2714:2732   */\n      dup2\n        /* \"#utility.yul\":2711:2749   */\n      eq\n        /* \"#utility.yul\":2708:2792   */\n      iszero\n      tag_73\n      jumpi\n        /* \"#utility.yul\":2764:2782   */\n      tag_74\n      tag_75\n      jump\t// in\n    tag_74:\n        /* \"#utility.yul\":2708:2792   */\n    tag_73:\n        /* \"#utility.yul\":2529:2798   */\n      pop\n        /* \"#utility.yul\":2478:2798   */\n      swap2\n      swap1\n      pop\n      jump\t// out\n        /* \"#utility.yul\":2804:2984   */\n    tag_75:\n        /* \"#utility.yul\":2852:2929   */\n      0x4e487b7100000000000000000000000000000000000000000000000000000000\n        /* \"#utility.yul\":2849:2850   */\n      0x00\n        /* \"#utility.yul\":2842:2930   */\n      mstore\n        /* \"#utility.yul\":2949:2953   */\n      0x22\n        /* \"#utility.yul\":2946:2947   */\n      0x04\n        /* \"#utility.yul\":2939:2954   */\n      mstore\n        /* \"#utility.yul\":2973:2977   */\n      0x24\n        /* \"#utility.yul\":2970:2971   */\n      0x00\n        /* \"#utility.yul\":2963:2978   */\n      revert\n        /* \"#utility.yul\":2990:3107   */\n    tag_41:\n        /* \"#utility.yul\":3099:3100   */\n      0x00\n        /* \"#utility.yul\":3096:3097   */\n      dup1\n        /* \"#utility.yul\":3089:3101   */\n      revert\n        /* \"#utility.yul\":3113:3230   */\n    tag_38:\n        /* \"#utility.yul\":3222:3223   */\n      0x00\n        /* \"#utility.yul\":3219:3220   */\n      dup1\n        /* \"#utility.yul\":3212:3224   */\n      revert\n        /* \"#utility.yul\":3236:3353   */\n    tag_44:\n        /* \"#utility.yul\":3345:3346   */\n      0x00\n        /* \"#utility.yul\":3342:3343   */\n      dup1\n        /* \"#utility.yul\":3335:3347   */\n      revert\n        /* \"#utility.yul\":3359:3476   */\n    tag_55:\n        /* \"#utility.yul\":3468:3469   */\n      0x00\n        /* \"#utility.yul\":3465:3466   */\n      dup1\n        /* \"#utility.yul\":3458:3470   */\n      revert\n        /* \"#utility.yul\":3482:3599   */\n    tag_52:\n        /* \"#utility.yul\":3591:3592   */\n      0x00\n        /* \"#utility.yul\":3588:3589   */\n      dup1\n        /* \"#utility.yul\":3581:3593   */\n      revert\n        /* \"#utility.yul\":3605:3721   */\n    tag_33:\n        /* \"#utility.yul\":3675:3696   */\n      tag_83\n        /* \"#utility.yul\":3690:3695   */\n      dup2\n        /* \"#utility.yul\":3675:3696   */\n      tag_67\n      jump\t// in\n    tag_83:\n        /* \"#utility.yul\":3668:3673   */\n      dup2\n        /* \"#utility.yul\":3665:3697   */\n      eq\n        /* \"#utility.yul\":3655:3715   */\n      tag_84\n      jumpi\n        /* \"#utility.yul\":3711:3712   */\n      0x00\n        /* \"#utility.yul\":3708:3709   */\n      dup1\n        /* \"#utility.yul\":3701:3713   */\n      revert\n        /* \"#utility.yul\":3655:3715   */\n    tag_84:\n        /* \"#utility.yul\":3605:3721   */\n      pop\n      jump\t// out\n        /* \"#utility.yul\":3727:3849   */\n    tag_48:\n        /* \"#utility.yul\":3800:3824   */\n      tag_86\n        /* \"#utility.yul\":3818:3823   */\n      dup2\n        /* \"#utility.yul\":3800:3824   */\n      tag_69\n      jump\t// in\n    tag_86:\n        /* \"#utility.yul\":3793:3798   */\n      dup2\n        /* \"#utility.yul\":3790:3825   */\n      eq\n        /* \"#utility.yul\":3780:3843   */\n      tag_87\n      jumpi\n        /* \"#utility.yul\":3839:3840   */\n      0x00\n        /* \"#utility.yul\":3836:3837   */\n      dup1\n        /* \"#utility.yul\":3829:3841   */\n      revert\n        /* \"#utility.yul\":3780:3843   */\n    tag_87:\n        /* \"#utility.yul\":3727:3849   */\n      pop\n      jump\t// out\n\n    auxdata: 0xa26469706673582212202118b700db4aa55cf49eb87419bcd51c84221e04ebdbc0ea9804e0bc3f3e645a64736f6c63430008070033\n}\n",
				"bytecode": {
					"linkReferences": {},
					"object": "608060405234801561001057600080fd5b50610421806100206000396000f3fe608060405234801561001057600080fd5b50600436106100365760003560e01c80631a1e4b511461003b578063b6a46b3b14610057575b600080fd5b610055600480360381019061005091906102b9565b610073565b005b610071600480360381019061006c919061026c565b610079565b005b50505050565b6000604051806040016040528084848080601f016020809104026020016040519081016040528093929190818152602001838380828437600081840152601f19601f82011690508083019250505050505050815260200160001515815250905060008190806001815401808255809150506001900390600052602060002090600202016000909190919091506000820151816000019080519060200190610121929190610149565b5060208201518160010160006101000a81548160ff0219169083151502179055505050505050565b82805461015590610343565b90600052602060002090601f01602090048101928261017757600085556101be565b82601f1061019057805160ff19168380011785556101be565b828001600101855582156101be579182015b828111156101bd5782518255916020019190600101906101a2565b5b5090506101cb91906101cf565b5090565b5b808211156101e85760008160009055506001016101d0565b5090565b6000813590506101fb816103bd565b92915050565b60008083601f840112610217576102166103a9565b5b8235905067ffffffffffffffff811115610234576102336103a4565b5b6020830191508360018202830111156102505761024f6103ae565b5b9250929050565b600081359050610266816103d4565b92915050565b60008060208385031215610283576102826103b8565b5b600083013567ffffffffffffffff8111156102a1576102a06103b3565b5b6102ad85828601610201565b92509250509250929050565b600080600080606085870312156102d3576102d26103b8565b5b600085013567ffffffffffffffff8111156102f1576102f06103b3565b5b6102fd87828801610201565b94509450506020610310878288016101ec565b925050604061032187828801610257565b91505092959194509250565b60008115159050919050565b6000819050919050565b6000600282049050600182168061035b57607f821691505b6020821081141561036f5761036e610375565b5b50919050565b7f4e487b7100000000000000000000000000000000000000000000000000000000600052602260045260246000fd5b600080fd5b600080fd5b600080fd5b600080fd5b600080fd5b6103c68161032d565b81146103d157600080fd5b50565b6103dd81610339565b81146103e857600080fd5b5056fea26469706673582212202118b700db4aa55cf49eb87419bcd51c84221e04ebdbc0ea9804e0bc3f3e645a64736f6c63430008070033",
					"opcodes": "PUSH1 0x80 PUSH1 0x40 MSTORE CALLVALUE DUP1 ISZERO PUSH2 0x10 JUMPI PUSH1 0x0 DUP1 REVERT JUMPDEST POP PUSH2 0x421 DUP1 PUSH2 0x20 PUSH1 0x0 CODECOPY PUSH1 0x0 RETURN INVALID PUSH1 0x80 PUSH1 0x40 MSTORE CALLVALUE DUP1 ISZERO PUSH2 0x10 JUMPI PUSH1 0x0 DUP1 REVERT JUMPDEST POP PUSH1 0x4 CALLDATASIZE LT PUSH2 0x36 JUMPI PUSH1 0x0 CALLDATALOAD PUSH1 0xE0 SHR DUP1 PUSH4 0x1A1E4B51 EQ PUSH2 0x3B JUMPI DUP1 PUSH4 0xB6A46B3B EQ PUSH2 0x57 JUMPI JUMPDEST PUSH1 0x0 DUP1 REVERT JUMPDEST PUSH2 0x55 PUSH1 0x4 DUP1 CALLDATASIZE SUB DUP2 ADD SWAP1 PUSH2 0x50 SWAP2 SWAP1 PUSH2 0x2B9 JUMP JUMPDEST PUSH2 0x73 JUMP JUMPDEST STOP JUMPDEST PUSH2 0x71 PUSH1 0x4 DUP1 CALLDATASIZE SUB DUP2 ADD SWAP1 PUSH2 0x6C SWAP2 SWAP1 PUSH2 0x26C JUMP JUMPDEST PUSH2 0x79 JUMP JUMPDEST STOP JUMPDEST POP POP POP POP JUMP JUMPDEST PUSH1 0x0 PUSH1 0x40 MLOAD DUP1 PUSH1 0x40 ADD PUSH1 0x40 MSTORE DUP1 DUP5 DUP5 DUP1 DUP1 PUSH1 0x1F ADD PUSH1 0x20 DUP1 SWAP2 DIV MUL PUSH1 0x20 ADD PUSH1 0x40 MLOAD SWAP1 DUP2 ADD PUSH1 0x40 MSTORE DUP1 SWAP4 SWAP3 SWAP2 SWAP1 DUP2 DUP2 MSTORE PUSH1 0x20 ADD DUP4 DUP4 DUP1 DUP3 DUP5 CALLDATACOPY PUSH1 0x0 DUP2 DUP5 ADD MSTORE PUSH1 0x1F NOT PUSH1 0x1F DUP3 ADD AND SWAP1 POP DUP1 DUP4 ADD SWAP3 POP POP POP POP POP POP POP DUP2 MSTORE PUSH1 0x20 ADD PUSH1 0x0 ISZERO ISZERO DUP2 MSTORE POP SWAP1 POP PUSH1 0x0 DUP2 SWAP1 DUP1 PUSH1 0x1 DUP2 SLOAD ADD DUP1 DUP3 SSTORE DUP1 SWAP2 POP POP PUSH1 0x1 SWAP1 SUB SWAP1 PUSH1 0x0 MSTORE PUSH1 0x20 PUSH1 0x0 KECCAK256 SWAP1 PUSH1 0x2 MUL ADD PUSH1 0x0 SWAP1 SWAP2 SWAP1 SWAP2 SWAP1 SWAP2 POP PUSH1 0x0 DUP3 ADD MLOAD DUP2 PUSH1 0x0 ADD SWAP1 DUP1 MLOAD SWAP1 PUSH1 0x20 ADD SWAP1 PUSH2 0x121 SWAP3 SWAP2 SWAP1 PUSH2 0x149 JUMP JUMPDEST POP PUSH1 0x20 DUP3 ADD MLOAD DUP2 PUSH1 0x1 ADD PUSH1 0x0 PUSH2 0x100 EXP DUP2 SLOAD DUP2 PUSH1 0xFF MUL NOT AND SWAP1 DUP4 ISZERO ISZERO MUL OR SWAP1 SSTORE POP POP POP POP POP POP JUMP JUMPDEST DUP3 DUP1 SLOAD PUSH2 0x155 SWAP1 PUSH2 0x343 JUMP JUMPDEST SWAP1 PUSH1 0x0 MSTORE PUSH1 0x20 PUSH1 0x0 KECCAK256 SWAP1 PUSH1 0x1F ADD PUSH1 0x20 SWAP1 DIV DUP2 ADD SWAP3 DUP3 PUSH2 0x177 JUMPI PUSH1 0x0 DUP6 SSTORE PUSH2 0x1BE JUMP JUMPDEST DUP3 PUSH1 0x1F LT PUSH2 0x190 JUMPI DUP1 MLOAD PUSH1 0xFF NOT AND DUP4 DUP1 ADD OR DUP6 SSTORE PUSH2 0x1BE JUMP JUMPDEST DUP3 DUP1 ADD PUSH1 0x1 ADD DUP6 SSTORE DUP3 ISZERO PUSH2 0x1BE JUMPI SWAP2 DUP3 ADD JUMPDEST DUP3 DUP2 GT ISZERO PUSH2 0x1BD JUMPI DUP3 MLOAD DUP3 SSTORE SWAP2 PUSH1 0x20 ADD SWAP2 SWAP1 PUSH1 0x1 ADD SWAP1 PUSH2 0x1A2 JUMP JUMPDEST JUMPDEST POP SWAP1 POP PUSH2 0x1CB SWAP2 SWAP1 PUSH2 0x1CF JUMP JUMPDEST POP SWAP1 JUMP JUMPDEST JUMPDEST DUP1 DUP3 GT ISZERO PUSH2 0x1E8 JUMPI PUSH1 0x0 DUP2 PUSH1 0x0 SWAP1 SSTORE POP PUSH1 0x1 ADD PUSH2 0x1D0 JUMP JUMPDEST POP SWAP1 JUMP JUMPDEST PUSH1 0x0 DUP2 CALLDATALOAD SWAP1 POP PUSH2 0x1FB DUP2 PUSH2 0x3BD JUMP JUMPDEST SWAP3 SWAP2 POP POP JUMP JUMPDEST PUSH1 0x0 DUP1 DUP4 PUSH1 0x1F DUP5 ADD SLT PUSH2 0x217 JUMPI PUSH2 0x216 PUSH2 0x3A9 JUMP JUMPDEST JUMPDEST DUP3 CALLDATALOAD SWAP1 POP PUSH8 0xFFFFFFFFFFFFFFFF DUP2 GT ISZERO PUSH2 0x234 JUMPI PUSH2 0x233 PUSH2 0x3A4 JUMP JUMPDEST JUMPDEST PUSH1 0x20 DUP4 ADD SWAP2 POP DUP4 PUSH1 0x1 DUP3 MUL DUP4 ADD GT ISZERO PUSH2 0x250 JUMPI PUSH2 0x24F PUSH2 0x3AE JUMP JUMPDEST JUMPDEST SWAP3 POP SWAP3 SWAP1 POP JUMP JUMPDEST PUSH1 0x0 DUP2 CALLDATALOAD SWAP1 POP PUSH2 0x266 DUP2 PUSH2 0x3D4 JUMP JUMPDEST SWAP3 SWAP2 POP POP JUMP JUMPDEST PUSH1 0x0 DUP1 PUSH1 0x20 DUP4 DUP6 SUB SLT ISZERO PUSH2 0x283 JUMPI PUSH2 0x282 PUSH2 0x3B8 JUMP JUMPDEST JUMPDEST PUSH1 0x0 DUP4 ADD CALLDATALOAD PUSH8 0xFFFFFFFFFFFFFFFF DUP2 GT ISZERO PUSH2 0x2A1 JUMPI PUSH2 0x2A0 PUSH2 0x3B3 JUMP JUMPDEST JUMPDEST PUSH2 0x2AD DUP6 DUP3 DUP7 ADD PUSH2 0x201 JUMP JUMPDEST SWAP3 POP SWAP3 POP POP SWAP3 POP SWAP3 SWAP1 POP JUMP JUMPDEST PUSH1 0x0 DUP1 PUSH1 0x0 DUP1 PUSH1 0x60 DUP6 DUP8 SUB SLT ISZERO PUSH2 0x2D3 JUMPI PUSH2 0x2D2 PUSH2 0x3B8 JUMP JUMPDEST JUMPDEST PUSH1 0x0 DUP6 ADD CALLDATALOAD PUSH8 0xFFFFFFFFFFFFFFFF DUP2 GT ISZERO PUSH2 0x2F1 JUMPI PUSH2 0x2F0 PUSH2 0x3B3 JUMP JUMPDEST JUMPDEST PUSH2 0x2FD DUP8 DUP3 DUP9 ADD PUSH2 0x201 JUMP JUMPDEST SWAP5 POP SWAP5 POP POP PUSH1 0x20 PUSH2 0x310 DUP8 DUP3 DUP9 ADD PUSH2 0x1EC JUMP JUMPDEST SWAP3 POP POP PUSH1 0x40 PUSH2 0x321 DUP8 DUP3 DUP9 ADD PUSH2 0x257 JUMP JUMPDEST SWAP2 POP POP SWAP3 SWAP6 SWAP2 SWAP5 POP SWAP3 POP JUMP JUMPDEST PUSH1 0x0 DUP2 ISZERO ISZERO SWAP1 POP SWAP2 SWAP1 POP JUMP JUMPDEST PUSH1 0x0 DUP2 SWAP1 POP SWAP2 SWAP1 POP JUMP JUMPDEST PUSH1 0x0 PUSH1 0x2 DUP3 DIV SWAP1 POP PUSH1 0x1 DUP3 AND DUP1 PUSH2 0x35B JUMPI PUSH1 0x7F DUP3 AND SWAP2 POP JUMPDEST PUSH1 0x20 DUP3 LT DUP2 EQ ISZERO PUSH2 0x36F JUMPI PUSH2 0x36E PUSH2 0x375 JUMP JUMPDEST JUMPDEST POP SWAP2 SWAP1 POP JUMP JUMPDEST PUSH32 0x4E487B7100000000000000000000000000000000000000000000000000000000 PUSH1 0x0 MSTORE PUSH1 0x22 PUSH1 0x4 MSTORE PUSH1 0x24 PUSH1 0x0 REVERT JUMPDEST PUSH1 0x0 DUP1 REVERT JUMPDEST PUSH1 0x0 DUP1 REVERT JUMPDEST PUSH1 0x0 DUP1 REVERT JUMPDEST PUSH1 0x0 DUP1 REVERT JUMPDEST PUSH1 0x0 DUP1 REVERT JUMPDEST PUSH2 0x3C6 DUP2 PUSH2 0x32D JUMP JUMPDEST DUP2 EQ PUSH2 0x3D1 JUMPI PUSH1 0x0 DUP1 REVERT JUMPDEST POP JUMP JUMPDEST PUSH2 0x3DD DUP2 PUSH2 0x339 JUMP JUMPDEST DUP2 EQ PUSH2 0x3E8 JUMPI PUSH1 0x0 DUP1 REVERT JUMPDEST POP JUMP INVALID LOG2 PUSH5 0x6970667358 0x22 SLT KECCAK256 0x21 XOR 0xB7 STOP 0xDB 0x4A 0xA5 0x5C DELEGATECALL SWAP15 0xB8 PUSH21 0x19BCD51C84221E04EBDBC0EA9804E0BC3F3E645A64 PUSH20 0x6F6C634300080700330000000000000000000000 "
				},
				"gasEstimates": {
					"creation": {
						"codeDepositCost": "211400",
						"executionCost": "257",
						"totalCost": "211657"
					},
					"external": {
						"create(string)": "infinite",
						"update(string,bool,uint256)": "804"
					}
				},
				"methodIdentifiers": {
					"create(string)": "b6a46b3b",
					"update(string,bool,uint256)": "1a1e4b51"
				}
			},
			"storageLayout": {
				"storage": [
					{
						"astId": 10,
						"contract": "contracts/ToDo.sol:TodoList",
						"label": "todos",
						"offset": 0,
						"slot": "0",
						"type": "t_array(t_struct(ToDo)6_storage)dyn_storage"
					}
				],
				"types": {
					"t_array(t_struct(ToDo)6_storage)dyn_storage": {
						"base": "t_struct(ToDo)6_storage",
						"encoding": "dynamic_array",
						"label": "struct TodoList.ToDo[]",
						"numberOfBytes": "32"
					},
					"t_bool": {
						"encoding": "inplace",
						"label": "bool",
						"numberOfBytes": "1"
					},
					"t_string_storage": {
						"encoding": "bytes",
						"label": "string",
						"numberOfBytes": "32"
					},
					"t_struct(ToDo)6_storage": {
						"encoding": "inplace",
						"label": "struct TodoList.ToDo",
						"members": [
							{
								"astId": 3,
								"contract": "contracts/ToDo.sol:TodoList",
								"label": "text",
								"offset": 0,
								"slot": "0",
								"type": "t_string_storage"
							},
							{
								"astId": 5,
								"contract": "contracts/ToDo.sol:TodoList",
								"label": "completed",
								"offset": 0,
								"slot": "1",
								"type": "t_bool"
							}
						],
						"numberOfBytes": "64"
					}
				}
			},
			"userdoc": {
				"kind": "user",
				"methods": {},
				"version": 1
			}
		}
	}
}