{
	"contracts/ToDo.sol": {
		"TodoList": {
			"abi": [
				{
					"inputs": [
						{
							"internalType": "string",
							"name": "_text",
							"type": "string"
						}
					],
					"name": "create",
					"outputs": [],
					"stateMutability": "nonpayable",
					"type": "function"
				},
				{
					"inputs": [
						{
							"internalType": "uint256",
							"name": "",
							"type": "uint256"
						}
					],
					"name": "todos",
					"outputs": [
						{
							"internalType": "string",
							"name": "text",
							"type": "string"
						},
						{
							"internalType": "bool",
							"name": "completed",
							"type": "bool"
						}
					],
					"stateMutability": "view",
					"type": "function"
				},
				{
					"inputs": [
						{
							"internalType": "string",
							"name": "_text",
							"type": "string"
						},
						{
							"internalType": "bool",
							"name": "_status",
							"type": "bool"
						},
						{
							"internalType": "uint256",
							"name": "_index",
							"type": "uint256"
						}
					],
					"name": "update",
					"outputs": [],
					"stateMutability": "nonpayable",
					"type": "function"
				}
			],
			"devdoc": {
				"kind": "dev",
				"methods": {},
				"version": 1
			},
			"evm": {
				"assembly": "    /* \"contracts/ToDo.sol\":68:527  contract TodoList {... */\n  mstore(0x40, 0x80)\n  callvalue\n  dup1\n  iszero\n  tag_1\n  jumpi\n  0x00\n  dup1\n  revert\ntag_1:\n  pop\n  dataSize(sub_0)\n  dup1\n  dataOffset(sub_0)\n  0x00\n  codecopy\n  0x00\n  return\nstop\n\nsub_0: assembly {\n        /* \"contracts/ToDo.sol\":68:527  contract TodoList {... */\n      mstore(0x40, 0x80)\n      callvalue\n      dup1\n      iszero\n      tag_1\n      jumpi\n      0x00\n      dup1\n      revert\n    tag_1:\n      pop\n      jumpi(tag_2, lt(calldatasize, 0x04))\n      shr(0xe0, calldataload(0x00))\n      dup1\n      0x1a1e4b51\n      eq\n      tag_3\n      jumpi\n      dup1\n      0xb6a46b3b\n      eq\n      tag_4\n      jumpi\n      dup1\n      0xbc8bc2b4\n      eq\n      tag_5\n      jumpi\n    tag_2:\n      0x00\n      dup1\n      revert\n        /* \"contracts/ToDo.sol\":331:520  function update(string calldata _text, bool _status, uint _index) external{... */\n    tag_3:\n      tag_6\n      0x04\n      dup1\n      calldatasize\n      sub\n      dup2\n      add\n      swap1\n      tag_7\n      swap2\n      swap1\n      tag_8\n      jump\t// in\n    tag_7:\n      tag_9\n      jump\t// in\n    tag_6:\n      stop\n        /* \"contracts/ToDo.sol\":193:324  function create(string calldata _text) external {... */\n    tag_4:\n      tag_10\n      0x04\n      dup1\n      calldatasize\n      sub\n      dup2\n      add\n      swap1\n      tag_11\n      swap2\n      swap1\n      tag_12\n      jump\t// in\n    tag_11:\n      tag_13\n      jump\t// in\n    tag_10:\n      stop\n        /* \"contracts/ToDo.sol\":166:185  ToDo[] public todos */\n    tag_5:\n      tag_14\n      0x04\n      dup1\n      calldatasize\n      sub\n      dup2\n      add\n      swap1\n      tag_15\n      swap2\n      swap1\n      tag_16\n      jump\t// in\n    tag_15:\n      tag_17\n      jump\t// in\n    tag_14:\n      mload(0x40)\n      tag_18\n      swap3\n      swap2\n      swap1\n      tag_19\n      jump\t// in\n    tag_18:\n      mload(0x40)\n      dup1\n      swap2\n      sub\n      swap1\n      return\n        /* \"contracts/ToDo.sol\":331:520  function update(string calldata _text, bool _status, uint _index) external{... */\n    tag_9:\n        /* \"contracts/ToDo.sol\":417:434  ToDo storage todo */\n      0x00\n        /* \"contracts/ToDo.sol\":437:442  todos */\n      dup1\n        /* \"contracts/ToDo.sol\":443:449  _index */\n      dup3\n        /* \"contracts/ToDo.sol\":437:450  todos[_index] */\n      dup2\n      sload\n      dup2\n      lt\n      tag_21\n      jumpi\n      tag_22\n      tag_23\n      jump\t// in\n    tag_22:\n    tag_21:\n      swap1\n      0x00\n      mstore\n      keccak256(0x00, 0x20)\n      swap1\n      0x02\n      mul\n      add\n        /* \"contracts/ToDo.sol\":417:450  ToDo storage todo = todos[_index] */\n      swap1\n      pop\n        /* \"contracts/ToDo.sol\":474:479  _text */\n      dup5\n      dup5\n        /* \"contracts/ToDo.sol\":462:466  todo */\n      dup3\n        /* \"contracts/ToDo.sol\":462:471  todo.text */\n      0x00\n      add\n        /* \"contracts/ToDo.sol\":462:479  todo.text = _text */\n      swap2\n      dup3\n      tag_25\n      swap3\n      swap2\n      swap1\n      tag_26\n      jump\t// in\n    tag_25:\n      pop\n        /* \"contracts/ToDo.sol\":506:513  _status */\n      dup3\n        /* \"contracts/ToDo.sol\":489:493  todo */\n      dup2\n        /* \"contracts/ToDo.sol\":489:503  todo.completed */\n      0x01\n      add\n      0x00\n        /* \"contracts/ToDo.sol\":489:513  todo.completed = _status */\n      0x0100\n      exp\n      dup2\n      sload\n      dup2\n      0xff\n      mul\n      not\n      and\n      swap1\n      dup4\n      iszero\n      iszero\n      mul\n      or\n      swap1\n      sstore\n      pop\n        /* \"contracts/ToDo.sol\":405:520  {... */\n      pop\n        /* \"contracts/ToDo.sol\":331:520  function update(string calldata _text, bool _status, uint _index) external{... */\n      pop\n      pop\n      pop\n      pop\n      jump\t// out\n        /* \"contracts/ToDo.sol\":193:324  function create(string calldata _text) external {... */\n    tag_13:\n        /* \"contracts/ToDo.sol\":253:269  ToDo memory todo */\n      0x00\n        /* \"contracts/ToDo.sol\":272:289  ToDo(_text,false) */\n      mload(0x40)\n      dup1\n      0x40\n      add\n      0x40\n      mstore\n      dup1\n        /* \"contracts/ToDo.sol\":277:282  _text */\n      dup5\n      dup5\n        /* \"contracts/ToDo.sol\":272:289  ToDo(_text,false) */\n      dup1\n      dup1\n      0x1f\n      add\n      0x20\n      dup1\n      swap2\n      div\n      mul\n      0x20\n      add\n      mload(0x40)\n      swap1\n      dup2\n      add\n      0x40\n      mstore\n      dup1\n      swap4\n      swap3\n      swap2\n      swap1\n      dup2\n      dup2\n      mstore\n      0x20\n      add\n      dup4\n      dup4\n      dup1\n      dup3\n      dup5\n      calldatacopy\n      0x00\n      dup2\n      dup5\n      add\n      mstore\n      not(0x1f)\n      0x1f\n      dup3\n      add\n      and\n      swap1\n      pop\n      dup1\n      dup4\n      add\n      swap3\n      pop\n      pop\n      pop\n      pop\n      pop\n      pop\n      pop\n      dup2\n      mstore\n      0x20\n      add\n        /* \"contracts/ToDo.sol\":283:288  false */\n      0x00\n        /* \"contracts/ToDo.sol\":272:289  ToDo(_text,false) */\n      iszero\n      iszero\n      dup2\n      mstore\n      pop\n        /* \"contracts/ToDo.sol\":253:289  ToDo memory todo = ToDo(_text,false) */\n      swap1\n      pop\n        /* \"contracts/ToDo.sol\":299:304  todos */\n      0x00\n        /* \"contracts/ToDo.sol\":310:314  todo */\n      dup2\n        /* \"contracts/ToDo.sol\":299:315  todos.push(todo) */\n      swap1\n      dup1\n      0x01\n      dup2\n      sload\n      add\n      dup1\n      dup3\n      sstore\n      dup1\n      swap2\n      pop\n      pop\n      0x01\n      swap1\n      sub\n      swap1\n      0x00\n      mstore\n      keccak256(0x00, 0x20)\n      swap1\n      0x02\n      mul\n      add\n      0x00\n      swap1\n      swap2\n      swap1\n      swap2\n      swap1\n      swap2\n      pop\n      0x00\n      dup3\n      add\n      mload\n      dup2\n      0x00\n      add\n      swap1\n      dup2\n      tag_29\n      swap2\n      swap1\n      tag_30\n      jump\t// in\n    tag_29:\n      pop\n      0x20\n      dup3\n      add\n      mload\n      dup2\n      0x01\n      add\n      exp(0x0100, 0x00)\n      dup2\n      sload\n      dup2\n      0xff\n      mul\n      not\n      and\n      swap1\n      dup4\n      iszero\n      iszero\n      mul\n      or\n      swap1\n      sstore\n      pop\n      pop\n      pop\n        /* \"contracts/ToDo.sol\":241:324  {... */\n      pop\n        /* \"contracts/ToDo.sol\":193:324  function create(string calldata _text) external {... */\n      pop\n      pop\n      jump\t// out\n        /* \"contracts/ToDo.sol\":166:185  ToDo[] public todos */\n    tag_17:\n      0x00\n      dup2\n      dup2\n      sload\n      dup2\n      lt\n      tag_31\n      jumpi\n      0x00\n      dup1\n      revert\n    tag_31:\n      swap1\n      0x00\n      mstore\n      keccak256(0x00, 0x20)\n      swap1\n      0x02\n      mul\n      add\n      0x00\n      swap2\n      pop\n      swap1\n      pop\n      dup1\n      0x00\n      add\n      dup1\n      sload\n      tag_33\n      swap1\n      tag_34\n      jump\t// in\n    tag_33:\n      dup1\n      0x1f\n      add\n      0x20\n      dup1\n      swap2\n      div\n      mul\n      0x20\n      add\n      mload(0x40)\n      swap1\n      dup2\n      add\n      0x40\n      mstore\n      dup1\n      swap3\n      swap2\n      swap1\n      dup2\n      dup2\n      mstore\n      0x20\n      add\n      dup3\n      dup1\n      sload\n      tag_35\n      swap1\n      tag_34\n      jump\t// in\n    tag_35:\n      dup1\n      iszero\n      tag_36\n      jumpi\n      dup1\n      0x1f\n      lt\n      tag_37\n      jumpi\n      0x0100\n      dup1\n      dup4\n      sload\n      div\n      mul\n      dup4\n      mstore\n      swap2\n      0x20\n      add\n      swap2\n      jump(tag_36)\n    tag_37:\n      dup3\n      add\n      swap2\n      swap1\n      0x00\n      mstore\n      keccak256(0x00, 0x20)\n      swap1\n    tag_38:\n      dup2\n      sload\n      dup2\n      mstore\n      swap1\n      0x01\n      add\n      swap1\n      0x20\n      add\n      dup1\n      dup4\n      gt\n      tag_38\n      jumpi\n      dup3\n      swap1\n      sub\n      0x1f\n      and\n      dup3\n      add\n      swap2\n    tag_36:\n      pop\n      pop\n      pop\n      pop\n      pop\n      swap1\n      dup1\n      0x01\n      add\n      0x00\n      swap1\n      sload\n      swap1\n      0x0100\n      exp\n      swap1\n      div\n      0xff\n      and\n      swap1\n      pop\n      dup3\n      jump\t// out\n        /* \"#utility.yul\":88:205   */\n    tag_40:\n        /* \"#utility.yul\":197:198   */\n      0x00\n        /* \"#utility.yul\":194:195   */\n      dup1\n        /* \"#utility.yul\":187:199   */\n      revert\n        /* \"#utility.yul\":211:328   */\n    tag_41:\n        /* \"#utility.yul\":320:321   */\n      0x00\n        /* \"#utility.yul\":317:318   */\n      dup1\n        /* \"#utility.yul\":310:322   */\n      revert\n        /* \"#utility.yul\":334:451   */\n    tag_42:\n        /* \"#utility.yul\":443:444   */\n      0x00\n        /* \"#utility.yul\":440:441   */\n      dup1\n        /* \"#utility.yul\":433:445   */\n      revert\n        /* \"#utility.yul\":457:574   */\n    tag_43:\n        /* \"#utility.yul\":566:567   */\n      0x00\n        /* \"#utility.yul\":563:564   */\n      dup1\n        /* \"#utility.yul\":556:568   */\n      revert\n        /* \"#utility.yul\":580:697   */\n    tag_44:\n        /* \"#utility.yul\":689:690   */\n      0x00\n        /* \"#utility.yul\":686:687   */\n      dup1\n        /* \"#utility.yul\":679:691   */\n      revert\n        /* \"#utility.yul\":717:1270   */\n    tag_45:\n        /* \"#utility.yul\":775:783   */\n      0x00\n        /* \"#utility.yul\":785:791   */\n      dup1\n        /* \"#utility.yul\":835:838   */\n      dup4\n        /* \"#utility.yul\":828:832   */\n      0x1f\n        /* \"#utility.yul\":820:826   */\n      dup5\n        /* \"#utility.yul\":816:833   */\n      add\n        /* \"#utility.yul\":812:839   */\n      slt\n        /* \"#utility.yul\":802:924   */\n      tag_84\n      jumpi\n        /* \"#utility.yul\":843:922   */\n      tag_85\n      tag_42\n      jump\t// in\n    tag_85:\n        /* \"#utility.yul\":802:924   */\n    tag_84:\n        /* \"#utility.yul\":956:962   */\n      dup3\n        /* \"#utility.yul\":943:963   */\n      calldataload\n        /* \"#utility.yul\":933:963   */\n      swap1\n      pop\n        /* \"#utility.yul\":986:1004   */\n      0xffffffffffffffff\n        /* \"#utility.yul\":978:984   */\n      dup2\n        /* \"#utility.yul\":975:1005   */\n      gt\n        /* \"#utility.yul\":972:1089   */\n      iszero\n      tag_86\n      jumpi\n        /* \"#utility.yul\":1008:1087   */\n      tag_87\n      tag_43\n      jump\t// in\n    tag_87:\n        /* \"#utility.yul\":972:1089   */\n    tag_86:\n        /* \"#utility.yul\":1122:1126   */\n      0x20\n        /* \"#utility.yul\":1114:1120   */\n      dup4\n        /* \"#utility.yul\":1110:1127   */\n      add\n        /* \"#utility.yul\":1098:1127   */\n      swap2\n      pop\n        /* \"#utility.yul\":1176:1179   */\n      dup4\n        /* \"#utility.yul\":1168:1172   */\n      0x01\n        /* \"#utility.yul\":1160:1166   */\n      dup3\n        /* \"#utility.yul\":1156:1173   */\n      mul\n        /* \"#utility.yul\":1146:1154   */\n      dup4\n        /* \"#utility.yul\":1142:1174   */\n      add\n        /* \"#utility.yul\":1139:1180   */\n      gt\n        /* \"#utility.yul\":1136:1264   */\n      iszero\n      tag_88\n      jumpi\n        /* \"#utility.yul\":1183:1262   */\n      tag_89\n      tag_44\n      jump\t// in\n    tag_89:\n        /* \"#utility.yul\":1136:1264   */\n    tag_88:\n        /* \"#utility.yul\":717:1270   */\n      swap3\n      pop\n      swap3\n      swap1\n      pop\n      jump\t// out\n        /* \"#utility.yul\":1276:1366   */\n    tag_46:\n        /* \"#utility.yul\":1310:1317   */\n      0x00\n        /* \"#utility.yul\":1353:1358   */\n      dup2\n        /* \"#utility.yul\":1346:1359   */\n      iszero\n        /* \"#utility.yul\":1339:1360   */\n      iszero\n        /* \"#utility.yul\":1328:1360   */\n      swap1\n      pop\n        /* \"#utility.yul\":1276:1366   */\n      swap2\n      swap1\n      pop\n      jump\t// out\n        /* \"#utility.yul\":1372:1488   */\n    tag_47:\n        /* \"#utility.yul\":1442:1463   */\n      tag_92\n        /* \"#utility.yul\":1457:1462   */\n      dup2\n        /* \"#utility.yul\":1442:1463   */\n      tag_46\n      jump\t// in\n    tag_92:\n        /* \"#utility.yul\":1435:1440   */\n      dup2\n        /* \"#utility.yul\":1432:1464   */\n      eq\n        /* \"#utility.yul\":1422:1482   */\n      tag_93\n      jumpi\n        /* \"#utility.yul\":1478:1479   */\n      0x00\n        /* \"#utility.yul\":1475:1476   */\n      dup1\n        /* \"#utility.yul\":1468:1480   */\n      revert\n        /* \"#utility.yul\":1422:1482   */\n    tag_93:\n        /* \"#utility.yul\":1372:1488   */\n      pop\n      jump\t// out\n        /* \"#utility.yul\":1494:1627   */\n    tag_48:\n        /* \"#utility.yul\":1537:1542   */\n      0x00\n        /* \"#utility.yul\":1575:1581   */\n      dup2\n        /* \"#utility.yul\":1562:1582   */\n      calldataload\n        /* \"#utility.yul\":1553:1582   */\n      swap1\n      pop\n        /* \"#utility.yul\":1591:1621   */\n      tag_95\n        /* \"#utility.yul\":1615:1620   */\n      dup2\n        /* \"#utility.yul\":1591:1621   */\n      tag_47\n      jump\t// in\n    tag_95:\n        /* \"#utility.yul\":1494:1627   */\n      swap3\n      swap2\n      pop\n      pop\n      jump\t// out\n        /* \"#utility.yul\":1633:1710   */\n    tag_49:\n        /* \"#utility.yul\":1670:1677   */\n      0x00\n        /* \"#utility.yul\":1699:1704   */\n      dup2\n        /* \"#utility.yul\":1688:1704   */\n      swap1\n      pop\n        /* \"#utility.yul\":1633:1710   */\n      swap2\n      swap1\n      pop\n      jump\t// out\n        /* \"#utility.yul\":1716:1838   */\n    tag_50:\n        /* \"#utility.yul\":1789:1813   */\n      tag_98\n        /* \"#utility.yul\":1807:1812   */\n      dup2\n        /* \"#utility.yul\":1789:1813   */\n      tag_49\n      jump\t// in\n    tag_98:\n        /* \"#utility.yul\":1782:1787   */\n      dup2\n        /* \"#utility.yul\":1779:1814   */\n      eq\n        /* \"#utility.yul\":1769:1832   */\n      tag_99\n      jumpi\n        /* \"#utility.yul\":1828:1829   */\n      0x00\n        /* \"#utility.yul\":1825:1826   */\n      dup1\n        /* \"#utility.yul\":1818:1830   */\n      revert\n        /* \"#utility.yul\":1769:1832   */\n    tag_99:\n        /* \"#utility.yul\":1716:1838   */\n      pop\n      jump\t// out\n        /* \"#utility.yul\":1844:1983   */\n    tag_51:\n        /* \"#utility.yul\":1890:1895   */\n      0x00\n        /* \"#utility.yul\":1928:1934   */\n      dup2\n        /* \"#utility.yul\":1915:1935   */\n      calldataload\n        /* \"#utility.yul\":1906:1935   */\n      swap1\n      pop\n        /* \"#utility.yul\":1944:1977   */\n      tag_101\n        /* \"#utility.yul\":1971:1976   */\n      dup2\n        /* \"#utility.yul\":1944:1977   */\n      tag_50\n      jump\t// in\n    tag_101:\n        /* \"#utility.yul\":1844:1983   */\n      swap3\n      swap2\n      pop\n      pop\n      jump\t// out\n        /* \"#utility.yul\":1989:2802   */\n    tag_8:\n        /* \"#utility.yul\":2075:2081   */\n      0x00\n        /* \"#utility.yul\":2083:2089   */\n      dup1\n        /* \"#utility.yul\":2091:2097   */\n      0x00\n        /* \"#utility.yul\":2099:2105   */\n      dup1\n        /* \"#utility.yul\":2148:2150   */\n      0x60\n        /* \"#utility.yul\":2136:2145   */\n      dup6\n        /* \"#utility.yul\":2127:2134   */\n      dup8\n        /* \"#utility.yul\":2123:2146   */\n      sub\n        /* \"#utility.yul\":2119:2151   */\n      slt\n        /* \"#utility.yul\":2116:2235   */\n      iszero\n      tag_103\n      jumpi\n        /* \"#utility.yul\":2154:2233   */\n      tag_104\n      tag_40\n      jump\t// in\n    tag_104:\n        /* \"#utility.yul\":2116:2235   */\n    tag_103:\n        /* \"#utility.yul\":2302:2303   */\n      0x00\n        /* \"#utility.yul\":2291:2300   */\n      dup6\n        /* \"#utility.yul\":2287:2304   */\n      add\n        /* \"#utility.yul\":2274:2305   */\n      calldataload\n        /* \"#utility.yul\":2332:2350   */\n      0xffffffffffffffff\n        /* \"#utility.yul\":2324:2330   */\n      dup2\n        /* \"#utility.yul\":2321:2351   */\n      gt\n        /* \"#utility.yul\":2318:2435   */\n      iszero\n      tag_105\n      jumpi\n        /* \"#utility.yul\":2354:2433   */\n      tag_106\n      tag_41\n      jump\t// in\n    tag_106:\n        /* \"#utility.yul\":2318:2435   */\n    tag_105:\n        /* \"#utility.yul\":2467:2532   */\n      tag_107\n        /* \"#utility.yul\":2524:2531   */\n      dup8\n        /* \"#utility.yul\":2515:2521   */\n      dup3\n        /* \"#utility.yul\":2504:2513   */\n      dup9\n        /* \"#utility.yul\":2500:2522   */\n      add\n        /* \"#utility.yul\":2467:2532   */\n      tag_45\n      jump\t// in\n    tag_107:\n        /* \"#utility.yul\":2449:2532   */\n      swap5\n      pop\n      swap5\n      pop\n        /* \"#utility.yul\":2245:2542   */\n      pop\n        /* \"#utility.yul\":2581:2583   */\n      0x20\n        /* \"#utility.yul\":2607:2657   */\n      tag_108\n        /* \"#utility.yul\":2649:2656   */\n      dup8\n        /* \"#utility.yul\":2640:2646   */\n      dup3\n        /* \"#utility.yul\":2629:2638   */\n      dup9\n        /* \"#utility.yul\":2625:2647   */\n      add\n        /* \"#utility.yul\":2607:2657   */\n      tag_48\n      jump\t// in\n    tag_108:\n        /* \"#utility.yul\":2597:2657   */\n      swap3\n      pop\n        /* \"#utility.yul\":2552:2667   */\n      pop\n        /* \"#utility.yul\":2706:2708   */\n      0x40\n        /* \"#utility.yul\":2732:2785   */\n      tag_109\n        /* \"#utility.yul\":2777:2784   */\n      dup8\n        /* \"#utility.yul\":2768:2774   */\n      dup3\n        /* \"#utility.yul\":2757:2766   */\n      dup9\n        /* \"#utility.yul\":2753:2775   */\n      add\n        /* \"#utility.yul\":2732:2785   */\n      tag_51\n      jump\t// in\n    tag_109:\n        /* \"#utility.yul\":2722:2785   */\n      swap2\n      pop\n        /* \"#utility.yul\":2677:2795   */\n      pop\n        /* \"#utility.yul\":1989:2802   */\n      swap3\n      swap6\n      swap2\n      swap5\n      pop\n      swap3\n      pop\n      jump\t// out\n        /* \"#utility.yul\":2808:3337   */\n    tag_12:\n        /* \"#utility.yul\":2879:2885   */\n      0x00\n        /* \"#utility.yul\":2887:2893   */\n      dup1\n        /* \"#utility.yul\":2936:2938   */\n      0x20\n        /* \"#utility.yul\":2924:2933   */\n      dup4\n        /* \"#utility.yul\":2915:2922   */\n      dup6\n        /* \"#utility.yul\":2911:2934   */\n      sub\n        /* \"#utility.yul\":2907:2939   */\n      slt\n        /* \"#utility.yul\":2904:3023   */\n      iszero\n      tag_111\n      jumpi\n        /* \"#utility.yul\":2942:3021   */\n      tag_112\n      tag_40\n      jump\t// in\n    tag_112:\n        /* \"#utility.yul\":2904:3023   */\n    tag_111:\n        /* \"#utility.yul\":3090:3091   */\n      0x00\n        /* \"#utility.yul\":3079:3088   */\n      dup4\n        /* \"#utility.yul\":3075:3092   */\n      add\n        /* \"#utility.yul\":3062:3093   */\n      calldataload\n        /* \"#utility.yul\":3120:3138   */\n      0xffffffffffffffff\n        /* \"#utility.yul\":3112:3118   */\n      dup2\n        /* \"#utility.yul\":3109:3139   */\n      gt\n        /* \"#utility.yul\":3106:3223   */\n      iszero\n      tag_113\n      jumpi\n        /* \"#utility.yul\":3142:3221   */\n      tag_114\n      tag_41\n      jump\t// in\n    tag_114:\n        /* \"#utility.yul\":3106:3223   */\n    tag_113:\n        /* \"#utility.yul\":3255:3320   */\n      tag_115\n        /* \"#utility.yul\":3312:3319   */\n      dup6\n        /* \"#utility.yul\":3303:3309   */\n      dup3\n        /* \"#utility.yul\":3292:3301   */\n      dup7\n        /* \"#utility.yul\":3288:3310   */\n      add\n        /* \"#utility.yul\":3255:3320   */\n      tag_45\n      jump\t// in\n    tag_115:\n        /* \"#utility.yul\":3237:3320   */\n      swap3\n      pop\n      swap3\n      pop\n        /* \"#utility.yul\":3033:3330   */\n      pop\n        /* \"#utility.yul\":2808:3337   */\n      swap3\n      pop\n      swap3\n      swap1\n      pop\n      jump\t// out\n        /* \"#utility.yul\":3343:3672   */\n    tag_16:\n        /* \"#utility.yul\":3402:3408   */\n      0x00\n        /* \"#utility.yul\":3451:3453   */\n      0x20\n        /* \"#utility.yul\":3439:3448   */\n      dup3\n        /* \"#utility.yul\":3430:3437   */\n      dup5\n        /* \"#utility.yul\":3426:3449   */\n      sub\n        /* \"#utility.yul\":3422:3454   */\n      slt\n        /* \"#utility.yul\":3419:3538   */\n      iszero\n      tag_117\n      jumpi\n        /* \"#utility.yul\":3457:3536   */\n      tag_118\n      tag_40\n      jump\t// in\n    tag_118:\n        /* \"#utility.yul\":3419:3538   */\n    tag_117:\n        /* \"#utility.yul\":3577:3578   */\n      0x00\n        /* \"#utility.yul\":3602:3655   */\n      tag_119\n        /* \"#utility.yul\":3647:3654   */\n      dup5\n        /* \"#utility.yul\":3638:3644   */\n      dup3\n        /* \"#utility.yul\":3627:3636   */\n      dup6\n        /* \"#utility.yul\":3623:3645   */\n      add\n        /* \"#utility.yul\":3602:3655   */\n      tag_51\n      jump\t// in\n    tag_119:\n        /* \"#utility.yul\":3592:3655   */\n      swap2\n      pop\n        /* \"#utility.yul\":3548:3665   */\n      pop\n        /* \"#utility.yul\":3343:3672   */\n      swap3\n      swap2\n      pop\n      pop\n      jump\t// out\n        /* \"#utility.yul\":3678:3777   */\n    tag_52:\n        /* \"#utility.yul\":3730:3736   */\n      0x00\n        /* \"#utility.yul\":3764:3769   */\n      dup2\n        /* \"#utility.yul\":3758:3770   */\n      mload\n        /* \"#utility.yul\":3748:3770   */\n      swap1\n      pop\n        /* \"#utility.yul\":3678:3777   */\n      swap2\n      swap1\n      pop\n      jump\t// out\n        /* \"#utility.yul\":3783:3952   */\n    tag_53:\n        /* \"#utility.yul\":3867:3878   */\n      0x00\n        /* \"#utility.yul\":3901:3907   */\n      dup3\n        /* \"#utility.yul\":3896:3899   */\n      dup3\n        /* \"#utility.yul\":3889:3908   */\n      mstore\n        /* \"#utility.yul\":3941:3945   */\n      0x20\n        /* \"#utility.yul\":3936:3939   */\n      dup3\n        /* \"#utility.yul\":3932:3946   */\n      add\n        /* \"#utility.yul\":3917:3946   */\n      swap1\n      pop\n        /* \"#utility.yul\":3783:3952   */\n      swap3\n      swap2\n      pop\n      pop\n      jump\t// out\n        /* \"#utility.yul\":3958:4204   */\n    tag_54:\n        /* \"#utility.yul\":4039:4040   */\n      0x00\n        /* \"#utility.yul\":4049:4162   */\n    tag_123:\n        /* \"#utility.yul\":4063:4069   */\n      dup4\n        /* \"#utility.yul\":4060:4061   */\n      dup2\n        /* \"#utility.yul\":4057:4070   */\n      lt\n        /* \"#utility.yul\":4049:4162   */\n      iszero\n      tag_125\n      jumpi\n        /* \"#utility.yul\":4148:4149   */\n      dup1\n        /* \"#utility.yul\":4143:4146   */\n      dup3\n        /* \"#utility.yul\":4139:4150   */\n      add\n        /* \"#utility.yul\":4133:4151   */\n      mload\n        /* \"#utility.yul\":4129:4130   */\n      dup2\n        /* \"#utility.yul\":4124:4127   */\n      dup5\n        /* \"#utility.yul\":4120:4131   */\n      add\n        /* \"#utility.yul\":4113:4152   */\n      mstore\n        /* \"#utility.yul\":4085:4087   */\n      0x20\n        /* \"#utility.yul\":4082:4083   */\n      dup2\n        /* \"#utility.yul\":4078:4088   */\n      add\n        /* \"#utility.yul\":4073:4088   */\n      swap1\n      pop\n        /* \"#utility.yul\":4049:4162   */\n      jump(tag_123)\n    tag_125:\n        /* \"#utility.yul\":4196:4197   */\n      0x00\n        /* \"#utility.yul\":4187:4193   */\n      dup5\n        /* \"#utility.yul\":4182:4185   */\n      dup5\n        /* \"#utility.yul\":4178:4194   */\n      add\n        /* \"#utility.yul\":4171:4198   */\n      mstore\n        /* \"#utility.yul\":4020:4204   */\n      pop\n        /* \"#utility.yul\":3958:4204   */\n      pop\n      pop\n      pop\n      jump\t// out\n        /* \"#utility.yul\":4210:4312   */\n    tag_55:\n        /* \"#utility.yul\":4251:4257   */\n      0x00\n        /* \"#utility.yul\":4302:4304   */\n      0x1f\n        /* \"#utility.yul\":4298:4305   */\n      not\n        /* \"#utility.yul\":4293:4295   */\n      0x1f\n        /* \"#utility.yul\":4286:4291   */\n      dup4\n        /* \"#utility.yul\":4282:4296   */\n      add\n        /* \"#utility.yul\":4278:4306   */\n      and\n        /* \"#utility.yul\":4268:4306   */\n      swap1\n      pop\n        /* \"#utility.yul\":4210:4312   */\n      swap2\n      swap1\n      pop\n      jump\t// out\n        /* \"#utility.yul\":4318:4695   */\n    tag_56:\n        /* \"#utility.yul\":4406:4409   */\n      0x00\n        /* \"#utility.yul\":4434:4473   */\n      tag_128\n        /* \"#utility.yul\":4467:4472   */\n      dup3\n        /* \"#utility.yul\":4434:4473   */\n      tag_52\n      jump\t// in\n    tag_128:\n        /* \"#utility.yul\":4489:4560   */\n      tag_129\n        /* \"#utility.yul\":4553:4559   */\n      dup2\n        /* \"#utility.yul\":4548:4551   */\n      dup6\n        /* \"#utility.yul\":4489:4560   */\n      tag_53\n      jump\t// in\n    tag_129:\n        /* \"#utility.yul\":4482:4560   */\n      swap4\n      pop\n        /* \"#utility.yul\":4569:4634   */\n      tag_130\n        /* \"#utility.yul\":4627:4633   */\n      dup2\n        /* \"#utility.yul\":4622:4625   */\n      dup6\n        /* \"#utility.yul\":4615:4619   */\n      0x20\n        /* \"#utility.yul\":4608:4613   */\n      dup7\n        /* \"#utility.yul\":4604:4620   */\n      add\n        /* \"#utility.yul\":4569:4634   */\n      tag_54\n      jump\t// in\n    tag_130:\n        /* \"#utility.yul\":4659:4688   */\n      tag_131\n        /* \"#utility.yul\":4681:4687   */\n      dup2\n        /* \"#utility.yul\":4659:4688   */\n      tag_55\n      jump\t// in\n    tag_131:\n        /* \"#utility.yul\":4654:4657   */\n      dup5\n        /* \"#utility.yul\":4650:4689   */\n      add\n        /* \"#utility.yul\":4643:4689   */\n      swap2\n      pop\n        /* \"#utility.yul\":4410:4695   */\n      pop\n        /* \"#utility.yul\":4318:4695   */\n      swap3\n      swap2\n      pop\n      pop\n      jump\t// out\n        /* \"#utility.yul\":4701:4810   */\n    tag_57:\n        /* \"#utility.yul\":4782:4803   */\n      tag_133\n        /* \"#utility.yul\":4797:4802   */\n      dup2\n        /* \"#utility.yul\":4782:4803   */\n      tag_46\n      jump\t// in\n    tag_133:\n        /* \"#utility.yul\":4777:4780   */\n      dup3\n        /* \"#utility.yul\":4770:4804   */\n      mstore\n        /* \"#utility.yul\":4701:4810   */\n      pop\n      pop\n      jump\t// out\n        /* \"#utility.yul\":4816:5227   */\n    tag_19:\n        /* \"#utility.yul\":4951:4955   */\n      0x00\n        /* \"#utility.yul\":4989:4991   */\n      0x40\n        /* \"#utility.yul\":4978:4987   */\n      dup3\n        /* \"#utility.yul\":4974:4992   */\n      add\n        /* \"#utility.yul\":4966:4992   */\n      swap1\n      pop\n        /* \"#utility.yul\":5038:5047   */\n      dup2\n        /* \"#utility.yul\":5032:5036   */\n      dup2\n        /* \"#utility.yul\":5028:5048   */\n      sub\n        /* \"#utility.yul\":5024:5025   */\n      0x00\n        /* \"#utility.yul\":5013:5022   */\n      dup4\n        /* \"#utility.yul\":5009:5026   */\n      add\n        /* \"#utility.yul\":5002:5049   */\n      mstore\n        /* \"#utility.yul\":5066:5144   */\n      tag_135\n        /* \"#utility.yul\":5139:5143   */\n      dup2\n        /* \"#utility.yul\":5130:5136   */\n      dup6\n        /* \"#utility.yul\":5066:5144   */\n      tag_56\n      jump\t// in\n    tag_135:\n        /* \"#utility.yul\":5058:5144   */\n      swap1\n      pop\n        /* \"#utility.yul\":5154:5220   */\n      tag_136\n        /* \"#utility.yul\":5216:5218   */\n      0x20\n        /* \"#utility.yul\":5205:5214   */\n      dup4\n        /* \"#utility.yul\":5201:5219   */\n      add\n        /* \"#utility.yul\":5192:5198   */\n      dup5\n        /* \"#utility.yul\":5154:5220   */\n      tag_57\n      jump\t// in\n    tag_136:\n        /* \"#utility.yul\":4816:5227   */\n      swap4\n      swap3\n      pop\n      pop\n      pop\n      jump\t// out\n        /* \"#utility.yul\":5233:5413   */\n    tag_23:\n        /* \"#utility.yul\":5281:5358   */\n      0x4e487b7100000000000000000000000000000000000000000000000000000000\n        /* \"#utility.yul\":5278:5279   */\n      0x00\n        /* \"#utility.yul\":5271:5359   */\n      mstore\n        /* \"#utility.yul\":5378:5382   */\n      0x32\n        /* \"#utility.yul\":5375:5376   */\n      0x04\n        /* \"#utility.yul\":5368:5383   */\n      mstore\n        /* \"#utility.yul\":5402:5406   */\n      0x24\n        /* \"#utility.yul\":5399:5400   */\n      0x00\n        /* \"#utility.yul\":5392:5407   */\n      revert\n        /* \"#utility.yul\":5419:5516   */\n    tag_58:\n        /* \"#utility.yul\":5478:5484   */\n      0x00\n        /* \"#utility.yul\":5506:5509   */\n      dup3\n        /* \"#utility.yul\":5496:5509   */\n      swap1\n      pop\n        /* \"#utility.yul\":5419:5516   */\n      swap3\n      swap2\n      pop\n      pop\n      jump\t// out\n        /* \"#utility.yul\":5522:5702   */\n    tag_59:\n        /* \"#utility.yul\":5570:5647   */\n      0x4e487b7100000000000000000000000000000000000000000000000000000000\n        /* \"#utility.yul\":5567:5568   */\n      0x00\n        /* \"#utility.yul\":5560:5648   */\n      mstore\n        /* \"#utility.yul\":5667:5671   */\n      0x41\n        /* \"#utility.yul\":5664:5665   */\n      0x04\n        /* \"#utility.yul\":5657:5672   */\n      mstore\n        /* \"#utility.yul\":5691:5695   */\n      0x24\n        /* \"#utility.yul\":5688:5689   */\n      0x00\n        /* \"#utility.yul\":5681:5696   */\n      revert\n        /* \"#utility.yul\":5708:5888   */\n    tag_60:\n        /* \"#utility.yul\":5756:5833   */\n      0x4e487b7100000000000000000000000000000000000000000000000000000000\n        /* \"#utility.yul\":5753:5754   */\n      0x00\n        /* \"#utility.yul\":5746:5834   */\n      mstore\n        /* \"#utility.yul\":5853:5857   */\n      0x22\n        /* \"#utility.yul\":5850:5851   */\n      0x04\n        /* \"#utility.yul\":5843:5858   */\n      mstore\n        /* \"#utility.yul\":5877:5881   */\n      0x24\n        /* \"#utility.yul\":5874:5875   */\n      0x00\n        /* \"#utility.yul\":5867:5882   */\n      revert\n        /* \"#utility.yul\":5894:6214   */\n    tag_34:\n        /* \"#utility.yul\":5938:5944   */\n      0x00\n        /* \"#utility.yul\":5975:5976   */\n      0x02\n        /* \"#utility.yul\":5969:5973   */\n      dup3\n        /* \"#utility.yul\":5965:5977   */\n      div\n        /* \"#utility.yul\":5955:5977   */\n      swap1\n      pop\n        /* \"#utility.yul\":6022:6023   */\n      0x01\n        /* \"#utility.yul\":6016:6020   */\n      dup3\n        /* \"#utility.yul\":6012:6024   */\n      and\n        /* \"#utility.yul\":6043:6061   */\n      dup1\n        /* \"#utility.yul\":6033:6114   */\n      tag_142\n      jumpi\n        /* \"#utility.yul\":6099:6103   */\n      0x7f\n        /* \"#utility.yul\":6091:6097   */\n      dup3\n        /* \"#utility.yul\":6087:6104   */\n      and\n        /* \"#utility.yul\":6077:6104   */\n      swap2\n      pop\n        /* \"#utility.yul\":6033:6114   */\n    tag_142:\n        /* \"#utility.yul\":6161:6163   */\n      0x20\n        /* \"#utility.yul\":6153:6159   */\n      dup3\n        /* \"#utility.yul\":6150:6164   */\n      lt\n        /* \"#utility.yul\":6130:6148   */\n      dup2\n        /* \"#utility.yul\":6127:6165   */\n      sub\n        /* \"#utility.yul\":6124:6208   */\n      tag_143\n      jumpi\n        /* \"#utility.yul\":6180:6198   */\n      tag_144\n      tag_60\n      jump\t// in\n    tag_144:\n        /* \"#utility.yul\":6124:6208   */\n    tag_143:\n        /* \"#utility.yul\":5945:6214   */\n      pop\n        /* \"#utility.yul\":5894:6214   */\n      swap2\n      swap1\n      pop\n      jump\t// out\n        /* \"#utility.yul\":6220:6361   */\n    tag_61:\n        /* \"#utility.yul\":6269:6273   */\n      0x00\n        /* \"#utility.yul\":6292:6295   */\n      dup2\n        /* \"#utility.yul\":6284:6295   */\n      swap1\n      pop\n        /* \"#utility.yul\":6315:6318   */\n      dup2\n        /* \"#utility.yul\":6312:6313   */\n      0x00\n        /* \"#utility.yul\":6305:6319   */\n      mstore\n        /* \"#utility.yul\":6349:6353   */\n      0x20\n        /* \"#utility.yul\":6346:6347   */\n      0x00\n        /* \"#utility.yul\":6336:6354   */\n      keccak256\n        /* \"#utility.yul\":6328:6354   */\n      swap1\n      pop\n        /* \"#utility.yul\":6220:6361   */\n      swap2\n      swap1\n      pop\n      jump\t// out\n        /* \"#utility.yul\":6367:6460   */\n    tag_62:\n        /* \"#utility.yul\":6404:6410   */\n      0x00\n        /* \"#utility.yul\":6451:6453   */\n      0x20\n        /* \"#utility.yul\":6446:6448   */\n      0x1f\n        /* \"#utility.yul\":6439:6444   */\n      dup4\n        /* \"#utility.yul\":6435:6449   */\n      add\n        /* \"#utility.yul\":6431:6454   */\n      div\n        /* \"#utility.yul\":6421:6454   */\n      swap1\n      pop\n        /* \"#utility.yul\":6367:6460   */\n      swap2\n      swap1\n      pop\n      jump\t// out\n        /* \"#utility.yul\":6466:6573   */\n    tag_63:\n        /* \"#utility.yul\":6510:6518   */\n      0x00\n        /* \"#utility.yul\":6560:6565   */\n      dup3\n        /* \"#utility.yul\":6554:6558   */\n      dup3\n        /* \"#utility.yul\":6550:6566   */\n      shl\n        /* \"#utility.yul\":6529:6566   */\n      swap1\n      pop\n        /* \"#utility.yul\":6466:6573   */\n      swap3\n      swap2\n      pop\n      pop\n      jump\t// out\n        /* \"#utility.yul\":6579:6972   */\n    tag_64:\n        /* \"#utility.yul\":6648:6654   */\n      0x00\n        /* \"#utility.yul\":6698:6699   */\n      0x08\n        /* \"#utility.yul\":6686:6696   */\n      dup4\n        /* \"#utility.yul\":6682:6700   */\n      mul\n        /* \"#utility.yul\":6721:6818   */\n      tag_149\n        /* \"#utility.yul\":6751:6817   */\n      0xffffffffffffffffffffffffffffffffffffffffffffffffffffffffffffffff\n        /* \"#utility.yul\":6740:6749   */\n      dup3\n        /* \"#utility.yul\":6721:6818   */\n      tag_63\n      jump\t// in\n    tag_149:\n        /* \"#utility.yul\":6839:6878   */\n      tag_150\n        /* \"#utility.yul\":6869:6877   */\n      dup7\n        /* \"#utility.yul\":6858:6867   */\n      dup4\n        /* \"#utility.yul\":6839:6878   */\n      tag_63\n      jump\t// in\n    tag_150:\n        /* \"#utility.yul\":6827:6878   */\n      swap6\n      pop\n        /* \"#utility.yul\":6911:6915   */\n      dup1\n        /* \"#utility.yul\":6907:6916   */\n      not\n        /* \"#utility.yul\":6900:6905   */\n      dup5\n        /* \"#utility.yul\":6896:6917   */\n      and\n        /* \"#utility.yul\":6887:6917   */\n      swap4\n      pop\n        /* \"#utility.yul\":6960:6964   */\n      dup1\n        /* \"#utility.yul\":6950:6958   */\n      dup7\n        /* \"#utility.yul\":6946:6965   */\n      and\n        /* \"#utility.yul\":6939:6944   */\n      dup5\n        /* \"#utility.yul\":6936:6966   */\n      or\n        /* \"#utility.yul\":6926:6966   */\n      swap3\n      pop\n        /* \"#utility.yul\":6655:6972   */\n      pop\n      pop\n        /* \"#utility.yul\":6579:6972   */\n      swap4\n      swap3\n      pop\n      pop\n      pop\n      jump\t// out\n        /* \"#utility.yul\":6978:7038   */\n    tag_65:\n        /* \"#utility.yul\":7006:7009   */\n      0x00\n        /* \"#utility.yul\":7027:7032   */\n      dup2\n        /* \"#utility.yul\":7020:7032   */\n      swap1\n      pop\n        /* \"#utility.yul\":6978:7038   */\n      swap2\n      swap1\n      pop\n      jump\t// out\n        /* \"#utility.yul\":7044:7186   */\n    tag_66:\n        /* \"#utility.yul\":7094:7103   */\n      0x00\n        /* \"#utility.yul\":7127:7180   */\n      tag_153\n        /* \"#utility.yul\":7145:7179   */\n      tag_154\n        /* \"#utility.yul\":7154:7178   */\n      tag_155\n        /* \"#utility.yul\":7172:7177   */\n      dup5\n        /* \"#utility.yul\":7154:7178   */\n      tag_49\n      jump\t// in\n    tag_155:\n        /* \"#utility.yul\":7145:7179   */\n      tag_65\n      jump\t// in\n    tag_154:\n        /* \"#utility.yul\":7127:7180   */\n      tag_49\n      jump\t// in\n    tag_153:\n        /* \"#utility.yul\":7114:7180   */\n      swap1\n      pop\n        /* \"#utility.yul\":7044:7186   */\n      swap2\n      swap1\n      pop\n      jump\t// out\n        /* \"#utility.yul\":7192:7267   */\n    tag_67:\n        /* \"#utility.yul\":7235:7238   */\n      0x00\n        /* \"#utility.yul\":7256:7261   */\n      dup2\n        /* \"#utility.yul\":7249:7261   */\n      swap1\n      pop\n        /* \"#utility.yul\":7192:7267   */\n      swap2\n      swap1\n      pop\n      jump\t// out\n        /* \"#utility.yul\":7273:7542   */\n    tag_68:\n        /* \"#utility.yul\":7383:7422   */\n      tag_158\n        /* \"#utility.yul\":7414:7421   */\n      dup4\n        /* \"#utility.yul\":7383:7422   */\n      tag_66\n      jump\t// in\n    tag_158:\n        /* \"#utility.yul\":7444:7535   */\n      tag_159\n        /* \"#utility.yul\":7493:7534   */\n      tag_160\n        /* \"#utility.yul\":7517:7533   */\n      dup3\n        /* \"#utility.yul\":7493:7534   */\n      tag_67\n      jump\t// in\n    tag_160:\n        /* \"#utility.yul\":7485:7491   */\n      dup5\n        /* \"#utility.yul\":7478:7482   */\n      dup5\n        /* \"#utility.yul\":7472:7483   */\n      sload\n        /* \"#utility.yul\":7444:7535   */\n      tag_64\n      jump\t// in\n    tag_159:\n        /* \"#utility.yul\":7438:7442   */\n      dup3\n        /* \"#utility.yul\":7431:7536   */\n      sstore\n        /* \"#utility.yul\":7349:7542   */\n      pop\n        /* \"#utility.yul\":7273:7542   */\n      pop\n      pop\n      pop\n      jump\t// out\n        /* \"#utility.yul\":7548:7621   */\n    tag_69:\n        /* \"#utility.yul\":7593:7596   */\n      0x00\n        /* \"#utility.yul\":7548:7621   */\n      swap1\n      jump\t// out\n        /* \"#utility.yul\":7627:7816   */\n    tag_70:\n        /* \"#utility.yul\":7704:7736   */\n      tag_163\n      tag_69\n      jump\t// in\n    tag_163:\n        /* \"#utility.yul\":7745:7810   */\n      tag_164\n        /* \"#utility.yul\":7803:7809   */\n      dup2\n        /* \"#utility.yul\":7795:7801   */\n      dup5\n        /* \"#utility.yul\":7789:7793   */\n      dup5\n        /* \"#utility.yul\":7745:7810   */\n      tag_68\n      jump\t// in\n    tag_164:\n        /* \"#utility.yul\":7680:7816   */\n      pop\n        /* \"#utility.yul\":7627:7816   */\n      pop\n      pop\n      jump\t// out\n        /* \"#utility.yul\":7822:8008   */\n    tag_71:\n        /* \"#utility.yul\":7882:8002   */\n    tag_166:\n        /* \"#utility.yul\":7899:7902   */\n      dup2\n        /* \"#utility.yul\":7892:7897   */\n      dup2\n        /* \"#utility.yul\":7889:7903   */\n      lt\n        /* \"#utility.yul\":7882:8002   */\n      iszero\n      tag_168\n      jumpi\n        /* \"#utility.yul\":7953:7992   */\n      tag_169\n        /* \"#utility.yul\":7990:7991   */\n      0x00\n        /* \"#utility.yul\":7983:7988   */\n      dup3\n        /* \"#utility.yul\":7953:7992   */\n      tag_70\n      jump\t// in\n    tag_169:\n        /* \"#utility.yul\":7926:7927   */\n      0x01\n        /* \"#utility.yul\":7919:7924   */\n      dup2\n        /* \"#utility.yul\":7915:7928   */\n      add\n        /* \"#utility.yul\":7906:7928   */\n      swap1\n      pop\n        /* \"#utility.yul\":7882:8002   */\n      jump(tag_166)\n    tag_168:\n        /* \"#utility.yul\":7822:8008   */\n      pop\n      pop\n      jump\t// out\n        /* \"#utility.yul\":8014:8557   */\n    tag_72:\n        /* \"#utility.yul\":8115:8117   */\n      0x1f\n        /* \"#utility.yul\":8110:8113   */\n      dup3\n        /* \"#utility.yul\":8107:8118   */\n      gt\n        /* \"#utility.yul\":8104:8550   */\n      iszero\n      tag_171\n      jumpi\n        /* \"#utility.yul\":8149:8187   */\n      tag_172\n        /* \"#utility.yul\":8181:8186   */\n      dup2\n        /* \"#utility.yul\":8149:8187   */\n      tag_61\n      jump\t// in\n    tag_172:\n        /* \"#utility.yul\":8233:8262   */\n      tag_173\n        /* \"#utility.yul\":8251:8261   */\n      dup5\n        /* \"#utility.yul\":8233:8262   */\n      tag_62\n      jump\t// in\n    tag_173:\n        /* \"#utility.yul\":8223:8231   */\n      dup2\n        /* \"#utility.yul\":8219:8263   */\n      add\n        /* \"#utility.yul\":8416:8418   */\n      0x20\n        /* \"#utility.yul\":8404:8414   */\n      dup6\n        /* \"#utility.yul\":8401:8419   */\n      lt\n        /* \"#utility.yul\":8398:8447   */\n      iszero\n      tag_174\n      jumpi\n        /* \"#utility.yul\":8437:8445   */\n      dup2\n        /* \"#utility.yul\":8422:8445   */\n      swap1\n      pop\n        /* \"#utility.yul\":8398:8447   */\n    tag_174:\n        /* \"#utility.yul\":8460:8540   */\n      tag_175\n        /* \"#utility.yul\":8516:8538   */\n      tag_176\n        /* \"#utility.yul\":8534:8537   */\n      dup6\n        /* \"#utility.yul\":8516:8538   */\n      tag_62\n      jump\t// in\n    tag_176:\n        /* \"#utility.yul\":8506:8514   */\n      dup4\n        /* \"#utility.yul\":8502:8539   */\n      add\n        /* \"#utility.yul\":8489:8500   */\n      dup3\n        /* \"#utility.yul\":8460:8540   */\n      tag_71\n      jump\t// in\n    tag_175:\n        /* \"#utility.yul\":8119:8550   */\n      pop\n      pop\n        /* \"#utility.yul\":8104:8550   */\n    tag_171:\n        /* \"#utility.yul\":8014:8557   */\n      pop\n      pop\n      pop\n      jump\t// out\n        /* \"#utility.yul\":8563:8680   */\n    tag_73:\n        /* \"#utility.yul\":8617:8625   */\n      0x00\n        /* \"#utility.yul\":8667:8672   */\n      dup3\n        /* \"#utility.yul\":8661:8665   */\n      dup3\n        /* \"#utility.yul\":8657:8673   */\n      shr\n        /* \"#utility.yul\":8636:8673   */\n      swap1\n      pop\n        /* \"#utility.yul\":8563:8680   */\n      swap3\n      swap2\n      pop\n      pop\n      jump\t// out\n        /* \"#utility.yul\":8686:8855   */\n    tag_74:\n        /* \"#utility.yul\":8730:8736   */\n      0x00\n        /* \"#utility.yul\":8763:8814   */\n      tag_179\n        /* \"#utility.yul\":8811:8812   */\n      0x00\n        /* \"#utility.yul\":8807:8813   */\n      not\n        /* \"#utility.yul\":8799:8804   */\n      dup5\n        /* \"#utility.yul\":8796:8797   */\n      0x08\n        /* \"#utility.yul\":8792:8805   */\n      mul\n        /* \"#utility.yul\":8763:8814   */\n      tag_73\n      jump\t// in\n    tag_179:\n        /* \"#utility.yul\":8759:8815   */\n      not\n        /* \"#utility.yul\":8844:8848   */\n      dup1\n        /* \"#utility.yul\":8838:8842   */\n      dup4\n        /* \"#utility.yul\":8834:8849   */\n      and\n        /* \"#utility.yul\":8824:8849   */\n      swap2\n      pop\n        /* \"#utility.yul\":8737:8855   */\n      pop\n        /* \"#utility.yul\":8686:8855   */\n      swap3\n      swap2\n      pop\n      pop\n      jump\t// out\n        /* \"#utility.yul\":8860:9155   */\n    tag_75:\n        /* \"#utility.yul\":8936:8940   */\n      0x00\n        /* \"#utility.yul\":9082:9111   */\n      tag_181\n        /* \"#utility.yul\":9107:9110   */\n      dup4\n        /* \"#utility.yul\":9101:9105   */\n      dup4\n        /* \"#utility.yul\":9082:9111   */\n      tag_74\n      jump\t// in\n    tag_181:\n        /* \"#utility.yul\":9074:9111   */\n      swap2\n      pop\n        /* \"#utility.yul\":9144:9147   */\n      dup3\n        /* \"#utility.yul\":9141:9142   */\n      0x02\n        /* \"#utility.yul\":9137:9148   */\n      mul\n        /* \"#utility.yul\":9131:9135   */\n      dup3\n        /* \"#utility.yul\":9128:9149   */\n      or\n        /* \"#utility.yul\":9120:9149   */\n      swap1\n      pop\n        /* \"#utility.yul\":8860:9155   */\n      swap3\n      swap2\n      pop\n      pop\n      jump\t// out\n        /* \"#utility.yul\":9160:10563   */\n    tag_26:\n        /* \"#utility.yul\":9284:9328   */\n      tag_183\n        /* \"#utility.yul\":9324:9327   */\n      dup4\n        /* \"#utility.yul\":9319:9322   */\n      dup4\n        /* \"#utility.yul\":9284:9328   */\n      tag_58\n      jump\t// in\n    tag_183:\n        /* \"#utility.yul\":9393:9411   */\n      0xffffffffffffffff\n        /* \"#utility.yul\":9385:9391   */\n      dup2\n        /* \"#utility.yul\":9382:9412   */\n      gt\n        /* \"#utility.yul\":9379:9435   */\n      iszero\n      tag_184\n      jumpi\n        /* \"#utility.yul\":9415:9433   */\n      tag_185\n      tag_59\n      jump\t// in\n    tag_185:\n        /* \"#utility.yul\":9379:9435   */\n    tag_184:\n        /* \"#utility.yul\":9459:9497   */\n      tag_186\n        /* \"#utility.yul\":9491:9495   */\n      dup3\n        /* \"#utility.yul\":9485:9496   */\n      sload\n        /* \"#utility.yul\":9459:9497   */\n      tag_34\n      jump\t// in\n    tag_186:\n        /* \"#utility.yul\":9544:9611   */\n      tag_187\n        /* \"#utility.yul\":9604:9610   */\n      dup3\n        /* \"#utility.yul\":9596:9602   */\n      dup3\n        /* \"#utility.yul\":9590:9594   */\n      dup6\n        /* \"#utility.yul\":9544:9611   */\n      tag_72\n      jump\t// in\n    tag_187:\n        /* \"#utility.yul\":9638:9639   */\n      0x00\n        /* \"#utility.yul\":9667:9669   */\n      0x1f\n        /* \"#utility.yul\":9659:9665   */\n      dup4\n        /* \"#utility.yul\":9656:9670   */\n      gt\n        /* \"#utility.yul\":9684:9685   */\n      0x01\n        /* \"#utility.yul\":9679:10311   */\n      dup2\n      eq\n      tag_189\n      jumpi\n        /* \"#utility.yul\":10355:10356   */\n      0x00\n        /* \"#utility.yul\":10372:10378   */\n      dup5\n        /* \"#utility.yul\":10369:10453   */\n      iszero\n      tag_190\n      jumpi\n        /* \"#utility.yul\":10428:10437   */\n      dup3\n        /* \"#utility.yul\":10423:10426   */\n      dup8\n        /* \"#utility.yul\":10419:10438   */\n      add\n        /* \"#utility.yul\":10406:10439   */\n      calldataload\n        /* \"#utility.yul\":10397:10439   */\n      swap1\n      pop\n        /* \"#utility.yul\":10369:10453   */\n    tag_190:\n        /* \"#utility.yul\":10479:10546   */\n      tag_191\n        /* \"#utility.yul\":10539:10545   */\n      dup6\n        /* \"#utility.yul\":10532:10537   */\n      dup3\n        /* \"#utility.yul\":10479:10546   */\n      tag_75\n      jump\t// in\n    tag_191:\n        /* \"#utility.yul\":10473:10477   */\n      dup7\n        /* \"#utility.yul\":10466:10547   */\n      sstore\n        /* \"#utility.yul\":10328:10557   */\n      pop\n        /* \"#utility.yul\":9649:10557   */\n      jump(tag_188)\n        /* \"#utility.yul\":9679:10311   */\n    tag_189:\n        /* \"#utility.yul\":9731:9735   */\n      0x1f\n        /* \"#utility.yul\":9727:9736   */\n      not\n        /* \"#utility.yul\":9719:9725   */\n      dup5\n        /* \"#utility.yul\":9715:9737   */\n      and\n        /* \"#utility.yul\":9765:9802   */\n      tag_192\n        /* \"#utility.yul\":9797:9801   */\n      dup7\n        /* \"#utility.yul\":9765:9802   */\n      tag_61\n      jump\t// in\n    tag_192:\n        /* \"#utility.yul\":9824:9825   */\n      0x00\n        /* \"#utility.yul\":9838:10053   */\n    tag_193:\n        /* \"#utility.yul\":9852:9859   */\n      dup3\n        /* \"#utility.yul\":9849:9850   */\n      dup2\n        /* \"#utility.yul\":9846:9860   */\n      lt\n        /* \"#utility.yul\":9838:10053   */\n      iszero\n      tag_195\n      jumpi\n        /* \"#utility.yul\":9938:9947   */\n      dup5\n        /* \"#utility.yul\":9933:9936   */\n      dup10\n        /* \"#utility.yul\":9929:9948   */\n      add\n        /* \"#utility.yul\":9916:9949   */\n      calldataload\n        /* \"#utility.yul\":9908:9914   */\n      dup3\n        /* \"#utility.yul\":9901:9950   */\n      sstore\n        /* \"#utility.yul\":9989:9990   */\n      0x01\n        /* \"#utility.yul\":9981:9987   */\n      dup3\n        /* \"#utility.yul\":9977:9991   */\n      add\n        /* \"#utility.yul\":9967:9991   */\n      swap2\n      pop\n        /* \"#utility.yul\":10036:10038   */\n      0x20\n        /* \"#utility.yul\":10025:10034   */\n      dup6\n        /* \"#utility.yul\":10021:10039   */\n      add\n        /* \"#utility.yul\":10008:10039   */\n      swap5\n      pop\n        /* \"#utility.yul\":9875:9879   */\n      0x20\n        /* \"#utility.yul\":9872:9873   */\n      dup2\n        /* \"#utility.yul\":9868:9880   */\n      add\n        /* \"#utility.yul\":9863:9880   */\n      swap1\n      pop\n        /* \"#utility.yul\":9838:10053   */\n      jump(tag_193)\n    tag_195:\n        /* \"#utility.yul\":10081:10087   */\n      dup7\n        /* \"#utility.yul\":10072:10079   */\n      dup4\n        /* \"#utility.yul\":10069:10088   */\n      lt\n        /* \"#utility.yul\":10066:10252   */\n      iszero\n      tag_196\n      jumpi\n        /* \"#utility.yul\":10146:10155   */\n      dup5\n        /* \"#utility.yul\":10141:10144   */\n      dup10\n        /* \"#utility.yul\":10137:10156   */\n      add\n        /* \"#utility.yul\":10124:10157   */\n      calldataload\n        /* \"#utility.yul\":10189:10237   */\n      tag_197\n        /* \"#utility.yul\":10231:10235   */\n      0x1f\n        /* \"#utility.yul\":10223:10229   */\n      dup10\n        /* \"#utility.yul\":10219:10236   */\n      and\n        /* \"#utility.yul\":10208:10217   */\n      dup3\n        /* \"#utility.yul\":10189:10237   */\n      tag_74\n      jump\t// in\n    tag_197:\n        /* \"#utility.yul\":10181:10187   */\n      dup4\n        /* \"#utility.yul\":10174:10238   */\n      sstore\n        /* \"#utility.yul\":10089:10252   */\n      pop\n        /* \"#utility.yul\":10066:10252   */\n    tag_196:\n        /* \"#utility.yul\":10298:10299   */\n      0x01\n        /* \"#utility.yul\":10294:10295   */\n      0x02\n        /* \"#utility.yul\":10286:10292   */\n      dup9\n        /* \"#utility.yul\":10282:10296   */\n      mul\n        /* \"#utility.yul\":10278:10300   */\n      add\n        /* \"#utility.yul\":10272:10276   */\n      dup9\n        /* \"#utility.yul\":10265:10301   */\n      sstore\n        /* \"#utility.yul\":9686:10311   */\n      pop\n      pop\n      pop\n        /* \"#utility.yul\":9649:10557   */\n    tag_188:\n      pop\n        /* \"#utility.yul\":9259:10563   */\n      pop\n      pop\n      pop\n        /* \"#utility.yul\":9160:10563   */\n      pop\n      pop\n      pop\n      jump\t// out\n        /* \"#utility.yul\":10569:11964   */\n    tag_30:\n        /* \"#utility.yul\":10686:10723   */\n      tag_199\n        /* \"#utility.yul\":10719:10722   */\n      dup3\n        /* \"#utility.yul\":10686:10723   */\n      tag_52\n      jump\t// in\n    tag_199:\n        /* \"#utility.yul\":10788:10806   */\n      0xffffffffffffffff\n        /* \"#utility.yul\":10780:10786   */\n      dup2\n        /* \"#utility.yul\":10777:10807   */\n      gt\n        /* \"#utility.yul\":10774:10830   */\n      iszero\n      tag_200\n      jumpi\n        /* \"#utility.yul\":10810:10828   */\n      tag_201\n      tag_59\n      jump\t// in\n    tag_201:\n        /* \"#utility.yul\":10774:10830   */\n    tag_200:\n        /* \"#utility.yul\":10854:10892   */\n      tag_202\n        /* \"#utility.yul\":10886:10890   */\n      dup3\n        /* \"#utility.yul\":10880:10891   */\n      sload\n        /* \"#utility.yul\":10854:10892   */\n      tag_34\n      jump\t// in\n    tag_202:\n        /* \"#utility.yul\":10939:11006   */\n      tag_203\n        /* \"#utility.yul\":10999:11005   */\n      dup3\n        /* \"#utility.yul\":10991:10997   */\n      dup3\n        /* \"#utility.yul\":10985:10989   */\n      dup6\n        /* \"#utility.yul\":10939:11006   */\n      tag_72\n      jump\t// in\n    tag_203:\n        /* \"#utility.yul\":11033:11034   */\n      0x00\n        /* \"#utility.yul\":11057:11061   */\n      0x20\n        /* \"#utility.yul\":11044:11061   */\n      swap1\n      pop\n        /* \"#utility.yul\":11089:11091   */\n      0x1f\n        /* \"#utility.yul\":11081:11087   */\n      dup4\n        /* \"#utility.yul\":11078:11092   */\n      gt\n        /* \"#utility.yul\":11106:11107   */\n      0x01\n        /* \"#utility.yul\":11101:11719   */\n      dup2\n      eq\n      tag_205\n      jumpi\n        /* \"#utility.yul\":11763:11764   */\n      0x00\n        /* \"#utility.yul\":11780:11786   */\n      dup5\n        /* \"#utility.yul\":11777:11854   */\n      iszero\n      tag_206\n      jumpi\n        /* \"#utility.yul\":11829:11838   */\n      dup3\n        /* \"#utility.yul\":11824:11827   */\n      dup8\n        /* \"#utility.yul\":11820:11839   */\n      add\n        /* \"#utility.yul\":11814:11840   */\n      mload\n        /* \"#utility.yul\":11805:11840   */\n      swap1\n      pop\n        /* \"#utility.yul\":11777:11854   */\n    tag_206:\n        /* \"#utility.yul\":11880:11947   */\n      tag_207\n        /* \"#utility.yul\":11940:11946   */\n      dup6\n        /* \"#utility.yul\":11933:11938   */\n      dup3\n        /* \"#utility.yul\":11880:11947   */\n      tag_75\n      jump\t// in\n    tag_207:\n        /* \"#utility.yul\":11874:11878   */\n      dup7\n        /* \"#utility.yul\":11867:11948   */\n      sstore\n        /* \"#utility.yul\":11736:11958   */\n      pop\n        /* \"#utility.yul\":11071:11958   */\n      jump(tag_204)\n        /* \"#utility.yul\":11101:11719   */\n    tag_205:\n        /* \"#utility.yul\":11153:11157   */\n      0x1f\n        /* \"#utility.yul\":11149:11158   */\n      not\n        /* \"#utility.yul\":11141:11147   */\n      dup5\n        /* \"#utility.yul\":11137:11159   */\n      and\n        /* \"#utility.yul\":11187:11224   */\n      tag_208\n        /* \"#utility.yul\":11219:11223   */\n      dup7\n        /* \"#utility.yul\":11187:11224   */\n      tag_61\n      jump\t// in\n    tag_208:\n        /* \"#utility.yul\":11246:11247   */\n      0x00\n        /* \"#utility.yul\":11260:11468   */\n    tag_209:\n        /* \"#utility.yul\":11274:11281   */\n      dup3\n        /* \"#utility.yul\":11271:11272   */\n      dup2\n        /* \"#utility.yul\":11268:11282   */\n      lt\n        /* \"#utility.yul\":11260:11468   */\n      iszero\n      tag_211\n      jumpi\n        /* \"#utility.yul\":11353:11362   */\n      dup5\n        /* \"#utility.yul\":11348:11351   */\n      dup10\n        /* \"#utility.yul\":11344:11363   */\n      add\n        /* \"#utility.yul\":11338:11364   */\n      mload\n        /* \"#utility.yul\":11330:11336   */\n      dup3\n        /* \"#utility.yul\":11323:11365   */\n      sstore\n        /* \"#utility.yul\":11404:11405   */\n      0x01\n        /* \"#utility.yul\":11396:11402   */\n      dup3\n        /* \"#utility.yul\":11392:11406   */\n      add\n        /* \"#utility.yul\":11382:11406   */\n      swap2\n      pop\n        /* \"#utility.yul\":11451:11453   */\n      0x20\n        /* \"#utility.yul\":11440:11449   */\n      dup6\n        /* \"#utility.yul\":11436:11454   */\n      add\n        /* \"#utility.yul\":11423:11454   */\n      swap5\n      pop\n        /* \"#utility.yul\":11297:11301   */\n      0x20\n        /* \"#utility.yul\":11294:11295   */\n      dup2\n        /* \"#utility.yul\":11290:11302   */\n      add\n        /* \"#utility.yul\":11285:11302   */\n      swap1\n      pop\n        /* \"#utility.yul\":11260:11468   */\n      jump(tag_209)\n    tag_211:\n        /* \"#utility.yul\":11496:11502   */\n      dup7\n        /* \"#utility.yul\":11487:11494   */\n      dup4\n        /* \"#utility.yul\":11484:11503   */\n      lt\n        /* \"#utility.yul\":11481:11660   */\n      iszero\n      tag_212\n      jumpi\n        /* \"#utility.yul\":11554:11563   */\n      dup5\n        /* \"#utility.yul\":11549:11552   */\n      dup10\n        /* \"#utility.yul\":11545:11564   */\n      add\n        /* \"#utility.yul\":11539:11565   */\n      mload\n        /* \"#utility.yul\":11597:11645   */\n      tag_213\n        /* \"#utility.yul\":11639:11643   */\n      0x1f\n        /* \"#utility.yul\":11631:11637   */\n      dup10\n        /* \"#utility.yul\":11627:11644   */\n      and\n        /* \"#utility.yul\":11616:11625   */\n      dup3\n        /* \"#utility.yul\":11597:11645   */\n      tag_74\n      jump\t// in\n    tag_213:\n        /* \"#utility.yul\":11589:11595   */\n      dup4\n        /* \"#utility.yul\":11582:11646   */\n      sstore\n        /* \"#utility.yul\":11504:11660   */\n      pop\n        /* \"#utility.yul\":11481:11660   */\n    tag_212:\n        /* \"#utility.yul\":11706:11707   */\n      0x01\n        /* \"#utility.yul\":11702:11703   */\n      0x02\n        /* \"#utility.yul\":11694:11700   */\n      dup9\n        /* \"#utility.yul\":11690:11704   */\n      mul\n        /* \"#utility.yul\":11686:11708   */\n      add\n        /* \"#utility.yul\":11680:11684   */\n      dup9\n        /* \"#utility.yul\":11673:11709   */\n      sstore\n        /* \"#utility.yul\":11108:11719   */\n      pop\n      pop\n      pop\n        /* \"#utility.yul\":11071:11958   */\n    tag_204:\n      pop\n        /* \"#utility.yul\":10661:11964   */\n      pop\n      pop\n      pop\n        /* \"#utility.yul\":10569:11964   */\n      pop\n      pop\n      jump\t// out\n\n    auxdata: 0xa2646970667358221220fe3d05d8185d53eaaf7bd1d5fe4820a290732222bb6d786aacc6001223b3869e64736f6c63430008100033\n}\n",
				"bytecode": {
					"linkReferences": {},
					"object": "608060405234801561001057600080fd5b50610984806100206000396000f3fe608060405234801561001057600080fd5b50600436106100415760003560e01c80631a1e4b5114610046578063b6a46b3b14610062578063bc8bc2b41461007e575b600080fd5b610060600480360381019061005b919061037a565b6100af565b005b61007c600480360381019061007791906103ee565b61010b565b005b6100986004803603810190610093919061043b565b6101d4565b6040516100a6929190610507565b60405180910390f35b60008082815481106100c4576100c3610537565b5b9060005260206000209060020201905084848260000191826100e79291906107ac565b50828160010160006101000a81548160ff0219169083151502179055505050505050565b6000604051806040016040528084848080601f016020809104026020016040519081016040528093929190818152602001838380828437600081840152601f19601f820116905080830192505050505050508152602001600015158152509050600081908060018154018082558091505060019003906000526020600020906002020160009091909190915060008201518160000190816101ac919061087c565b5060208201518160010160006101000a81548160ff0219169083151502179055505050505050565b600081815481106101e457600080fd5b9060005260206000209060020201600091509050806000018054610207906105cf565b80601f0160208091040260200160405190810160405280929190818152602001828054610233906105cf565b80156102805780601f1061025557610100808354040283529160200191610280565b820191906000526020600020905b81548152906001019060200180831161026357829003601f168201915b5050505050908060010160009054906101000a900460ff16905082565b600080fd5b600080fd5b600080fd5b600080fd5b600080fd5b60008083601f8401126102cc576102cb6102a7565b5b8235905067ffffffffffffffff8111156102e9576102e86102ac565b5b602083019150836001820283011115610305576103046102b1565b5b9250929050565b60008115159050919050565b6103218161030c565b811461032c57600080fd5b50565b60008135905061033e81610318565b92915050565b6000819050919050565b61035781610344565b811461036257600080fd5b50565b6000813590506103748161034e565b92915050565b600080600080606085870312156103945761039361029d565b5b600085013567ffffffffffffffff8111156103b2576103b16102a2565b5b6103be878288016102b6565b945094505060206103d18782880161032f565b92505060406103e287828801610365565b91505092959194509250565b600080602083850312156104055761040461029d565b5b600083013567ffffffffffffffff811115610423576104226102a2565b5b61042f858286016102b6565b92509250509250929050565b6000602082840312156104515761045061029d565b5b600061045f84828501610365565b91505092915050565b600081519050919050565b600082825260208201905092915050565b60005b838110156104a2578082015181840152602081019050610487565b60008484015250505050565b6000601f19601f8301169050919050565b60006104ca82610468565b6104d48185610473565b93506104e4818560208601610484565b6104ed816104ae565b840191505092915050565b6105018161030c565b82525050565b6000604082019050818103600083015261052181856104bf565b905061053060208301846104f8565b9392505050565b7f4e487b7100000000000000000000000000000000000000000000000000000000600052603260045260246000fd5b600082905092915050565b7f4e487b7100000000000000000000000000000000000000000000000000000000600052604160045260246000fd5b7f4e487b7100000000000000000000000000000000000000000000000000000000600052602260045260246000fd5b600060028204905060018216806105e757607f821691505b6020821081036105fa576105f96105a0565b5b50919050565b60008190508160005260206000209050919050565b60006020601f8301049050919050565b600082821b905092915050565b6000600883026106627fffffffffffffffffffffffffffffffffffffffffffffffffffffffffffffffff82610625565b61066c8683610625565b95508019841693508086168417925050509392505050565b6000819050919050565b60006106a96106a461069f84610344565b610684565b610344565b9050919050565b6000819050919050565b6106c38361068e565b6106d76106cf826106b0565b848454610632565b825550505050565b600090565b6106ec6106df565b6106f78184846106ba565b505050565b5b8181101561071b576107106000826106e4565b6001810190506106fd565b5050565b601f8211156107605761073181610600565b61073a84610615565b81016020851015610749578190505b61075d61075585610615565b8301826106fc565b50505b505050565b600082821c905092915050565b600061078360001984600802610765565b1980831691505092915050565b600061079c8383610772565b9150826002028217905092915050565b6107b68383610566565b67ffffffffffffffff8111156107cf576107ce610571565b5b6107d982546105cf565b6107e482828561071f565b6000601f8311600181146108135760008415610801578287013590505b61080b8582610790565b865550610873565b601f19841661082186610600565b60005b8281101561084957848901358255600182019150602085019450602081019050610824565b868310156108665784890135610862601f891682610772565b8355505b6001600288020188555050505b50505050505050565b61088582610468565b67ffffffffffffffff81111561089e5761089d610571565b5b6108a882546105cf565b6108b382828561071f565b600060209050601f8311600181146108e657600084156108d4578287015190505b6108de8582610790565b865550610946565b601f1984166108f486610600565b60005b8281101561091c578489015182556001820191506020850194506020810190506108f7565b868310156109395784890151610935601f891682610772565b8355505b6001600288020188555050505b50505050505056fea2646970667358221220fe3d05d8185d53eaaf7bd1d5fe4820a290732222bb6d786aacc6001223b3869e64736f6c63430008100033",
					"opcodes": "PUSH1 0x80 PUSH1 0x40 MSTORE CALLVALUE DUP1 ISZERO PUSH2 0x10 JUMPI PUSH1 0x0 DUP1 REVERT JUMPDEST POP PUSH2 0x984 DUP1 PUSH2 0x20 PUSH1 0x0 CODECOPY PUSH1 0x0 RETURN INVALID PUSH1 0x80 PUSH1 0x40 MSTORE CALLVALUE DUP1 ISZERO PUSH2 0x10 JUMPI PUSH1 0x0 DUP1 REVERT JUMPDEST POP PUSH1 0x4 CALLDATASIZE LT PUSH2 0x41 JUMPI PUSH1 0x0 CALLDATALOAD PUSH1 0xE0 SHR DUP1 PUSH4 0x1A1E4B51 EQ PUSH2 0x46 JUMPI DUP1 PUSH4 0xB6A46B3B EQ PUSH2 0x62 JUMPI DUP1 PUSH4 0xBC8BC2B4 EQ PUSH2 0x7E JUMPI JUMPDEST PUSH1 0x0 DUP1 REVERT JUMPDEST PUSH2 0x60 PUSH1 0x4 DUP1 CALLDATASIZE SUB DUP2 ADD SWAP1 PUSH2 0x5B SWAP2 SWAP1 PUSH2 0x37A JUMP JUMPDEST PUSH2 0xAF JUMP JUMPDEST STOP JUMPDEST PUSH2 0x7C PUSH1 0x4 DUP1 CALLDATASIZE SUB DUP2 ADD SWAP1 PUSH2 0x77 SWAP2 SWAP1 PUSH2 0x3EE JUMP JUMPDEST PUSH2 0x10B JUMP JUMPDEST STOP JUMPDEST PUSH2 0x98 PUSH1 0x4 DUP1 CALLDATASIZE SUB DUP2 ADD SWAP1 PUSH2 0x93 SWAP2 SWAP1 PUSH2 0x43B JUMP JUMPDEST PUSH2 0x1D4 JUMP JUMPDEST PUSH1 0x40 MLOAD PUSH2 0xA6 SWAP3 SWAP2 SWAP1 PUSH2 0x507 JUMP JUMPDEST PUSH1 0x40 MLOAD DUP1 SWAP2 SUB SWAP1 RETURN JUMPDEST PUSH1 0x0 DUP1 DUP3 DUP2 SLOAD DUP2 LT PUSH2 0xC4 JUMPI PUSH2 0xC3 PUSH2 0x537 JUMP JUMPDEST JUMPDEST SWAP1 PUSH1 0x0 MSTORE PUSH1 0x20 PUSH1 0x0 KECCAK256 SWAP1 PUSH1 0x2 MUL ADD SWAP1 POP DUP5 DUP5 DUP3 PUSH1 0x0 ADD SWAP2 DUP3 PUSH2 0xE7 SWAP3 SWAP2 SWAP1 PUSH2 0x7AC JUMP JUMPDEST POP DUP3 DUP2 PUSH1 0x1 ADD PUSH1 0x0 PUSH2 0x100 EXP DUP2 SLOAD DUP2 PUSH1 0xFF MUL NOT AND SWAP1 DUP4 ISZERO ISZERO MUL OR SWAP1 SSTORE POP POP POP POP POP POP JUMP JUMPDEST PUSH1 0x0 PUSH1 0x40 MLOAD DUP1 PUSH1 0x40 ADD PUSH1 0x40 MSTORE DUP1 DUP5 DUP5 DUP1 DUP1 PUSH1 0x1F ADD PUSH1 0x20 DUP1 SWAP2 DIV MUL PUSH1 0x20 ADD PUSH1 0x40 MLOAD SWAP1 DUP2 ADD PUSH1 0x40 MSTORE DUP1 SWAP4 SWAP3 SWAP2 SWAP1 DUP2 DUP2 MSTORE PUSH1 0x20 ADD DUP4 DUP4 DUP1 DUP3 DUP5 CALLDATACOPY PUSH1 0x0 DUP2 DUP5 ADD MSTORE PUSH1 0x1F NOT PUSH1 0x1F DUP3 ADD AND SWAP1 POP DUP1 DUP4 ADD SWAP3 POP POP POP POP POP POP POP DUP2 MSTORE PUSH1 0x20 ADD PUSH1 0x0 ISZERO ISZERO DUP2 MSTORE POP SWAP1 POP PUSH1 0x0 DUP2 SWAP1 DUP1 PUSH1 0x1 DUP2 SLOAD ADD DUP1 DUP3 SSTORE DUP1 SWAP2 POP POP PUSH1 0x1 SWAP1 SUB SWAP1 PUSH1 0x0 MSTORE PUSH1 0x20 PUSH1 0x0 KECCAK256 SWAP1 PUSH1 0x2 MUL ADD PUSH1 0x0 SWAP1 SWAP2 SWAP1 SWAP2 SWAP1 SWAP2 POP PUSH1 0x0 DUP3 ADD MLOAD DUP2 PUSH1 0x0 ADD SWAP1 DUP2 PUSH2 0x1AC SWAP2 SWAP1 PUSH2 0x87C JUMP JUMPDEST POP PUSH1 0x20 DUP3 ADD MLOAD DUP2 PUSH1 0x1 ADD PUSH1 0x0 PUSH2 0x100 EXP DUP2 SLOAD DUP2 PUSH1 0xFF MUL NOT AND SWAP1 DUP4 ISZERO ISZERO MUL OR SWAP1 SSTORE POP POP POP POP POP POP JUMP JUMPDEST PUSH1 0x0 DUP2 DUP2 SLOAD DUP2 LT PUSH2 0x1E4 JUMPI PUSH1 0x0 DUP1 REVERT JUMPDEST SWAP1 PUSH1 0x0 MSTORE PUSH1 0x20 PUSH1 0x0 KECCAK256 SWAP1 PUSH1 0x2 MUL ADD PUSH1 0x0 SWAP2 POP SWAP1 POP DUP1 PUSH1 0x0 ADD DUP1 SLOAD PUSH2 0x207 SWAP1 PUSH2 0x5CF JUMP JUMPDEST DUP1 PUSH1 0x1F ADD PUSH1 0x20 DUP1 SWAP2 DIV MUL PUSH1 0x20 ADD PUSH1 0x40 MLOAD SWAP1 DUP2 ADD PUSH1 0x40 MSTORE DUP1 SWAP3 SWAP2 SWAP1 DUP2 DUP2 MSTORE PUSH1 0x20 ADD DUP3 DUP1 SLOAD PUSH2 0x233 SWAP1 PUSH2 0x5CF JUMP JUMPDEST DUP1 ISZERO PUSH2 0x280 JUMPI DUP1 PUSH1 0x1F LT PUSH2 0x255 JUMPI PUSH2 0x100 DUP1 DUP4 SLOAD DIV MUL DUP4 MSTORE SWAP2 PUSH1 0x20 ADD SWAP2 PUSH2 0x280 JUMP JUMPDEST DUP3 ADD SWAP2 SWAP1 PUSH1 0x0 MSTORE PUSH1 0x20 PUSH1 0x0 KECCAK256 SWAP1 JUMPDEST DUP2 SLOAD DUP2 MSTORE SWAP1 PUSH1 0x1 ADD SWAP1 PUSH1 0x20 ADD DUP1 DUP4 GT PUSH2 0x263 JUMPI DUP3 SWAP1 SUB PUSH1 0x1F AND DUP3 ADD SWAP2 JUMPDEST POP POP POP POP POP SWAP1 DUP1 PUSH1 0x1 ADD PUSH1 0x0 SWAP1 SLOAD SWAP1 PUSH2 0x100 EXP SWAP1 DIV PUSH1 0xFF AND SWAP1 POP DUP3 JUMP JUMPDEST PUSH1 0x0 DUP1 REVERT JUMPDEST PUSH1 0x0 DUP1 REVERT JUMPDEST PUSH1 0x0 DUP1 REVERT JUMPDEST PUSH1 0x0 DUP1 REVERT JUMPDEST PUSH1 0x0 DUP1 REVERT JUMPDEST PUSH1 0x0 DUP1 DUP4 PUSH1 0x1F DUP5 ADD SLT PUSH2 0x2CC JUMPI PUSH2 0x2CB PUSH2 0x2A7 JUMP JUMPDEST JUMPDEST DUP3 CALLDATALOAD SWAP1 POP PUSH8 0xFFFFFFFFFFFFFFFF DUP2 GT ISZERO PUSH2 0x2E9 JUMPI PUSH2 0x2E8 PUSH2 0x2AC JUMP JUMPDEST JUMPDEST PUSH1 0x20 DUP4 ADD SWAP2 POP DUP4 PUSH1 0x1 DUP3 MUL DUP4 ADD GT ISZERO PUSH2 0x305 JUMPI PUSH2 0x304 PUSH2 0x2B1 JUMP JUMPDEST JUMPDEST SWAP3 POP SWAP3 SWAP1 POP JUMP JUMPDEST PUSH1 0x0 DUP2 ISZERO ISZERO SWAP1 POP SWAP2 SWAP1 POP JUMP JUMPDEST PUSH2 0x321 DUP2 PUSH2 0x30C JUMP JUMPDEST DUP2 EQ PUSH2 0x32C JUMPI PUSH1 0x0 DUP1 REVERT JUMPDEST POP JUMP JUMPDEST PUSH1 0x0 DUP2 CALLDATALOAD SWAP1 POP PUSH2 0x33E DUP2 PUSH2 0x318 JUMP JUMPDEST SWAP3 SWAP2 POP POP JUMP JUMPDEST PUSH1 0x0 DUP2 SWAP1 POP SWAP2 SWAP1 POP JUMP JUMPDEST PUSH2 0x357 DUP2 PUSH2 0x344 JUMP JUMPDEST DUP2 EQ PUSH2 0x362 JUMPI PUSH1 0x0 DUP1 REVERT JUMPDEST POP JUMP JUMPDEST PUSH1 0x0 DUP2 CALLDATALOAD SWAP1 POP PUSH2 0x374 DUP2 PUSH2 0x34E JUMP JUMPDEST SWAP3 SWAP2 POP POP JUMP JUMPDEST PUSH1 0x0 DUP1 PUSH1 0x0 DUP1 PUSH1 0x60 DUP6 DUP8 SUB SLT ISZERO PUSH2 0x394 JUMPI PUSH2 0x393 PUSH2 0x29D JUMP JUMPDEST JUMPDEST PUSH1 0x0 DUP6 ADD CALLDATALOAD PUSH8 0xFFFFFFFFFFFFFFFF DUP2 GT ISZERO PUSH2 0x3B2 JUMPI PUSH2 0x3B1 PUSH2 0x2A2 JUMP JUMPDEST JUMPDEST PUSH2 0x3BE DUP8 DUP3 DUP9 ADD PUSH2 0x2B6 JUMP JUMPDEST SWAP5 POP SWAP5 POP POP PUSH1 0x20 PUSH2 0x3D1 DUP8 DUP3 DUP9 ADD PUSH2 0x32F JUMP JUMPDEST SWAP3 POP POP PUSH1 0x40 PUSH2 0x3E2 DUP8 DUP3 DUP9 ADD PUSH2 0x365 JUMP JUMPDEST SWAP2 POP POP SWAP3 SWAP6 SWAP2 SWAP5 POP SWAP3 POP JUMP JUMPDEST PUSH1 0x0 DUP1 PUSH1 0x20 DUP4 DUP6 SUB SLT ISZERO PUSH2 0x405 JUMPI PUSH2 0x404 PUSH2 0x29D JUMP JUMPDEST JUMPDEST PUSH1 0x0 DUP4 ADD CALLDATALOAD PUSH8 0xFFFFFFFFFFFFFFFF DUP2 GT ISZERO PUSH2 0x423 JUMPI PUSH2 0x422 PUSH2 0x2A2 JUMP JUMPDEST JUMPDEST PUSH2 0x42F DUP6 DUP3 DUP7 ADD PUSH2 0x2B6 JUMP JUMPDEST SWAP3 POP SWAP3 POP POP SWAP3 POP SWAP3 SWAP1 POP JUMP JUMPDEST PUSH1 0x0 PUSH1 0x20 DUP3 DUP5 SUB SLT ISZERO PUSH2 0x451 JUMPI PUSH2 0x450 PUSH2 0x29D JUMP JUMPDEST JUMPDEST PUSH1 0x0 PUSH2 0x45F DUP5 DUP3 DUP6 ADD PUSH2 0x365 JUMP JUMPDEST SWAP2 POP POP SWAP3 SWAP2 POP POP JUMP JUMPDEST PUSH1 0x0 DUP2 MLOAD SWAP1 POP SWAP2 SWAP1 POP JUMP JUMPDEST PUSH1 0x0 DUP3 DUP3 MSTORE PUSH1 0x20 DUP3 ADD SWAP1 POP SWAP3 SWAP2 POP POP JUMP JUMPDEST PUSH1 0x0 JUMPDEST DUP4 DUP2 LT ISZERO PUSH2 0x4A2 JUMPI DUP1 DUP3 ADD MLOAD DUP2 DUP5 ADD MSTORE PUSH1 0x20 DUP2 ADD SWAP1 POP PUSH2 0x487 JUMP JUMPDEST PUSH1 0x0 DUP5 DUP5 ADD MSTORE POP POP POP POP JUMP JUMPDEST PUSH1 0x0 PUSH1 0x1F NOT PUSH1 0x1F DUP4 ADD AND SWAP1 POP SWAP2 SWAP1 POP JUMP JUMPDEST PUSH1 0x0 PUSH2 0x4CA DUP3 PUSH2 0x468 JUMP JUMPDEST PUSH2 0x4D4 DUP2 DUP6 PUSH2 0x473 JUMP JUMPDEST SWAP4 POP PUSH2 0x4E4 DUP2 DUP6 PUSH1 0x20 DUP7 ADD PUSH2 0x484 JUMP JUMPDEST PUSH2 0x4ED DUP2 PUSH2 0x4AE JUMP JUMPDEST DUP5 ADD SWAP2 POP POP SWAP3 SWAP2 POP POP JUMP JUMPDEST PUSH2 0x501 DUP2 PUSH2 0x30C JUMP JUMPDEST DUP3 MSTORE POP POP JUMP JUMPDEST PUSH1 0x0 PUSH1 0x40 DUP3 ADD SWAP1 POP DUP2 DUP2 SUB PUSH1 0x0 DUP4 ADD MSTORE PUSH2 0x521 DUP2 DUP6 PUSH2 0x4BF JUMP JUMPDEST SWAP1 POP PUSH2 0x530 PUSH1 0x20 DUP4 ADD DUP5 PUSH2 0x4F8 JUMP JUMPDEST SWAP4 SWAP3 POP POP POP JUMP JUMPDEST PUSH32 0x4E487B7100000000000000000000000000000000000000000000000000000000 PUSH1 0x0 MSTORE PUSH1 0x32 PUSH1 0x4 MSTORE PUSH1 0x24 PUSH1 0x0 REVERT JUMPDEST PUSH1 0x0 DUP3 SWAP1 POP SWAP3 SWAP2 POP POP JUMP JUMPDEST PUSH32 0x4E487B7100000000000000000000000000000000000000000000000000000000 PUSH1 0x0 MSTORE PUSH1 0x41 PUSH1 0x4 MSTORE PUSH1 0x24 PUSH1 0x0 REVERT JUMPDEST PUSH32 0x4E487B7100000000000000000000000000000000000000000000000000000000 PUSH1 0x0 MSTORE PUSH1 0x22 PUSH1 0x4 MSTORE PUSH1 0x24 PUSH1 0x0 REVERT JUMPDEST PUSH1 0x0 PUSH1 0x2 DUP3 DIV SWAP1 POP PUSH1 0x1 DUP3 AND DUP1 PUSH2 0x5E7 JUMPI PUSH1 0x7F DUP3 AND SWAP2 POP JUMPDEST PUSH1 0x20 DUP3 LT DUP2 SUB PUSH2 0x5FA JUMPI PUSH2 0x5F9 PUSH2 0x5A0 JUMP JUMPDEST JUMPDEST POP SWAP2 SWAP1 POP JUMP JUMPDEST PUSH1 0x0 DUP2 SWAP1 POP DUP2 PUSH1 0x0 MSTORE PUSH1 0x20 PUSH1 0x0 KECCAK256 SWAP1 POP SWAP2 SWAP1 POP JUMP JUMPDEST PUSH1 0x0 PUSH1 0x20 PUSH1 0x1F DUP4 ADD DIV SWAP1 POP SWAP2 SWAP1 POP JUMP JUMPDEST PUSH1 0x0 DUP3 DUP3 SHL SWAP1 POP SWAP3 SWAP2 POP POP JUMP JUMPDEST PUSH1 0x0 PUSH1 0x8 DUP4 MUL PUSH2 0x662 PUSH32 0xFFFFFFFFFFFFFFFFFFFFFFFFFFFFFFFFFFFFFFFFFFFFFFFFFFFFFFFFFFFFFFFF DUP3 PUSH2 0x625 JUMP JUMPDEST PUSH2 0x66C DUP7 DUP4 PUSH2 0x625 JUMP JUMPDEST SWAP6 POP DUP1 NOT DUP5 AND SWAP4 POP DUP1 DUP7 AND DUP5 OR SWAP3 POP POP POP SWAP4 SWAP3 POP POP POP JUMP JUMPDEST PUSH1 0x0 DUP2 SWAP1 POP SWAP2 SWAP1 POP JUMP JUMPDEST PUSH1 0x0 PUSH2 0x6A9 PUSH2 0x6A4 PUSH2 0x69F DUP5 PUSH2 0x344 JUMP JUMPDEST PUSH2 0x684 JUMP JUMPDEST PUSH2 0x344 JUMP JUMPDEST SWAP1 POP SWAP2 SWAP1 POP JUMP JUMPDEST PUSH1 0x0 DUP2 SWAP1 POP SWAP2 SWAP1 POP JUMP JUMPDEST PUSH2 0x6C3 DUP4 PUSH2 0x68E JUMP JUMPDEST PUSH2 0x6D7 PUSH2 0x6CF DUP3 PUSH2 0x6B0 JUMP JUMPDEST DUP5 DUP5 SLOAD PUSH2 0x632 JUMP JUMPDEST DUP3 SSTORE POP POP POP POP JUMP JUMPDEST PUSH1 0x0 SWAP1 JUMP JUMPDEST PUSH2 0x6EC PUSH2 0x6DF JUMP JUMPDEST PUSH2 0x6F7 DUP2 DUP5 DUP5 PUSH2 0x6BA JUMP JUMPDEST POP POP POP JUMP JUMPDEST JUMPDEST DUP2 DUP2 LT ISZERO PUSH2 0x71B JUMPI PUSH2 0x710 PUSH1 0x0 DUP3 PUSH2 0x6E4 JUMP JUMPDEST PUSH1 0x1 DUP2 ADD SWAP1 POP PUSH2 0x6FD JUMP JUMPDEST POP POP JUMP JUMPDEST PUSH1 0x1F DUP3 GT ISZERO PUSH2 0x760 JUMPI PUSH2 0x731 DUP2 PUSH2 0x600 JUMP JUMPDEST PUSH2 0x73A DUP5 PUSH2 0x615 JUMP JUMPDEST DUP2 ADD PUSH1 0x20 DUP6 LT ISZERO PUSH2 0x749 JUMPI DUP2 SWAP1 POP JUMPDEST PUSH2 0x75D PUSH2 0x755 DUP6 PUSH2 0x615 JUMP JUMPDEST DUP4 ADD DUP3 PUSH2 0x6FC JUMP JUMPDEST POP POP JUMPDEST POP POP POP JUMP JUMPDEST PUSH1 0x0 DUP3 DUP3 SHR SWAP1 POP SWAP3 SWAP2 POP POP JUMP JUMPDEST PUSH1 0x0 PUSH2 0x783 PUSH1 0x0 NOT DUP5 PUSH1 0x8 MUL PUSH2 0x765 JUMP JUMPDEST NOT DUP1 DUP4 AND SWAP2 POP POP SWAP3 SWAP2 POP POP JUMP JUMPDEST PUSH1 0x0 PUSH2 0x79C DUP4 DUP4 PUSH2 0x772 JUMP JUMPDEST SWAP2 POP DUP3 PUSH1 0x2 MUL DUP3 OR SWAP1 POP SWAP3 SWAP2 POP POP JUMP JUMPDEST PUSH2 0x7B6 DUP4 DUP4 PUSH2 0x566 JUMP JUMPDEST PUSH8 0xFFFFFFFFFFFFFFFF DUP2 GT ISZERO PUSH2 0x7CF JUMPI PUSH2 0x7CE PUSH2 0x571 JUMP JUMPDEST JUMPDEST PUSH2 0x7D9 DUP3 SLOAD PUSH2 0x5CF JUMP JUMPDEST PUSH2 0x7E4 DUP3 DUP3 DUP6 PUSH2 0x71F JUMP JUMPDEST PUSH1 0x0 PUSH1 0x1F DUP4 GT PUSH1 0x1 DUP2 EQ PUSH2 0x813 JUMPI PUSH1 0x0 DUP5 ISZERO PUSH2 0x801 JUMPI DUP3 DUP8 ADD CALLDATALOAD SWAP1 POP JUMPDEST PUSH2 0x80B DUP6 DUP3 PUSH2 0x790 JUMP JUMPDEST DUP7 SSTORE POP PUSH2 0x873 JUMP JUMPDEST PUSH1 0x1F NOT DUP5 AND PUSH2 0x821 DUP7 PUSH2 0x600 JUMP JUMPDEST PUSH1 0x0 JUMPDEST DUP3 DUP2 LT ISZERO PUSH2 0x849 JUMPI DUP5 DUP10 ADD CALLDATALOAD DUP3 SSTORE PUSH1 0x1 DUP3 ADD SWAP2 POP PUSH1 0x20 DUP6 ADD SWAP5 POP PUSH1 0x20 DUP2 ADD SWAP1 POP PUSH2 0x824 JUMP JUMPDEST DUP7 DUP4 LT ISZERO PUSH2 0x866 JUMPI DUP5 DUP10 ADD CALLDATALOAD PUSH2 0x862 PUSH1 0x1F DUP10 AND DUP3 PUSH2 0x772 JUMP JUMPDEST DUP4 SSTORE POP JUMPDEST PUSH1 0x1 PUSH1 0x2 DUP9 MUL ADD DUP9 SSTORE POP POP POP JUMPDEST POP POP POP POP POP POP POP JUMP JUMPDEST PUSH2 0x885 DUP3 PUSH2 0x468 JUMP JUMPDEST PUSH8 0xFFFFFFFFFFFFFFFF DUP2 GT ISZERO PUSH2 0x89E JUMPI PUSH2 0x89D PUSH2 0x571 JUMP JUMPDEST JUMPDEST PUSH2 0x8A8 DUP3 SLOAD PUSH2 0x5CF JUMP JUMPDEST PUSH2 0x8B3 DUP3 DUP3 DUP6 PUSH2 0x71F JUMP JUMPDEST PUSH1 0x0 PUSH1 0x20 SWAP1 POP PUSH1 0x1F DUP4 GT PUSH1 0x1 DUP2 EQ PUSH2 0x8E6 JUMPI PUSH1 0x0 DUP5 ISZERO PUSH2 0x8D4 JUMPI DUP3 DUP8 ADD MLOAD SWAP1 POP JUMPDEST PUSH2 0x8DE DUP6 DUP3 PUSH2 0x790 JUMP JUMPDEST DUP7 SSTORE POP PUSH2 0x946 JUMP JUMPDEST PUSH1 0x1F NOT DUP5 AND PUSH2 0x8F4 DUP7 PUSH2 0x600 JUMP JUMPDEST PUSH1 0x0 JUMPDEST DUP3 DUP2 LT ISZERO PUSH2 0x91C JUMPI DUP5 DUP10 ADD MLOAD DUP3 SSTORE PUSH1 0x1 DUP3 ADD SWAP2 POP PUSH1 0x20 DUP6 ADD SWAP5 POP PUSH1 0x20 DUP2 ADD SWAP1 POP PUSH2 0x8F7 JUMP JUMPDEST DUP7 DUP4 LT ISZERO PUSH2 0x939 JUMPI DUP5 DUP10 ADD MLOAD PUSH2 0x935 PUSH1 0x1F DUP10 AND DUP3 PUSH2 0x772 JUMP JUMPDEST DUP4 SSTORE POP JUMPDEST PUSH1 0x1 PUSH1 0x2 DUP9 MUL ADD DUP9 SSTORE POP POP POP JUMPDEST POP POP POP POP POP POP JUMP INVALID LOG2 PUSH5 0x6970667358 0x22 SLT KECCAK256 INVALID RETURNDATASIZE SDIV 0xD8 XOR 0x5D MSTORE8 0xEA 0xAF PUSH28 0xD1D5FE4820A290732222BB6D786AACC6001223B3869E64736F6C6343 STOP ADDMOD LT STOP CALLER "
				},
				"gasEstimates": {
					"creation": {
						"codeDepositCost": "487200",
						"executionCost": "524",
						"totalCost": "487724"
					},
					"external": {
						"create(string)": "infinite",
						"todos(uint256)": "infinite",
						"update(string,bool,uint256)": "infinite"
					}
				},
				"methodIdentifiers": {
					"create(string)": "b6a46b3b",
					"todos(uint256)": "bc8bc2b4",
					"update(string,bool,uint256)": "1a1e4b51"
				}
			},
			"storageLayout": {
				"storage": [
					{
						"astId": 10,
						"contract": "contracts/ToDo.sol:TodoList",
						"label": "todos",
						"offset": 0,
						"slot": "0",
						"type": "t_array(t_struct(ToDo)6_storage)dyn_storage"
					}
				],
				"types": {
					"t_array(t_struct(ToDo)6_storage)dyn_storage": {
						"base": "t_struct(ToDo)6_storage",
						"encoding": "dynamic_array",
						"label": "struct TodoList.ToDo[]",
						"numberOfBytes": "32"
					},
					"t_bool": {
						"encoding": "inplace",
						"label": "bool",
						"numberOfBytes": "1"
					},
					"t_string_storage": {
						"encoding": "bytes",
						"label": "string",
						"numberOfBytes": "32"
					},
					"t_struct(ToDo)6_storage": {
						"encoding": "inplace",
						"label": "struct TodoList.ToDo",
						"members": [
							{
								"astId": 3,
								"contract": "contracts/ToDo.sol:TodoList",
								"label": "text",
								"offset": 0,
								"slot": "0",
								"type": "t_string_storage"
							},
							{
								"astId": 5,
								"contract": "contracts/ToDo.sol:TodoList",
								"label": "completed",
								"offset": 0,
								"slot": "1",
								"type": "t_bool"
							}
						],
						"numberOfBytes": "64"
					}
				}
			},
			"userdoc": {
				"kind": "user",
				"methods": {},
				"version": 1
			}
		}
	}
}