{
	"contracts/EthersWallet.sol": {
		"EthersWallet": {
			"abi": [
				{
					"inputs": [],
					"stateMutability": "nonpayable",
					"type": "constructor"
				},
				{
					"inputs": [
						{
							"internalType": "address",
							"name": "_address",
							"type": "address"
						}
					],
					"name": "withdraw",
					"outputs": [],
					"stateMutability": "nonpayable",
					"type": "function"
				},
				{
					"stateMutability": "payable",
					"type": "receive"
				}
			],
			"devdoc": {
				"kind": "dev",
				"methods": {},
				"version": 1
			},
			"evm": {
				"assembly": "    /* \"contracts/EthersWallet.sol\":66:495  contract EthersWallet {\r... */\n  mstore(0x40, 0x80)\n    /* \"contracts/EthersWallet.sol\":282:333  constructor() {\r... */\n  callvalue\n  dup1\n  iszero\n  tag_1\n  jumpi\n  0x00\n  dup1\n  revert\ntag_1:\n  pop\n    /* \"contracts/EthersWallet.sol\":315:325  msg.sender */\n  caller\n    /* \"contracts/EthersWallet.sol\":307:312  owner */\n  0x00\n  dup1\n    /* \"contracts/EthersWallet.sol\":307:325  owner = msg.sender */\n  0x0100\n  exp\n  dup2\n  sload\n  dup2\n  0xffffffffffffffffffffffffffffffffffffffff\n  mul\n  not\n  and\n  swap1\n  dup4\n  0xffffffffffffffffffffffffffffffffffffffff\n  and\n  mul\n  or\n  swap1\n  sstore\n  pop\n    /* \"contracts/EthersWallet.sol\":66:495  contract EthersWallet {\r... */\n  dataSize(sub_0)\n  dup1\n  dataOffset(sub_0)\n  0x00\n  codecopy\n  0x00\n  return\nstop\n\nsub_0: assembly {\n        /* \"contracts/EthersWallet.sol\":66:495  contract EthersWallet {\r... */\n      mstore(0x40, 0x80)\n      jumpi(tag_1, lt(calldatasize, 0x04))\n      shr(0xe0, calldataload(0x00))\n      dup1\n      0x51cff8d9\n      eq\n      tag_3\n      jumpi\n      jump(tag_2)\n    tag_1:\n      jumpi(tag_2, calldatasize)\n        /* \"contracts/EthersWallet.sol\":403:412  msg.value */\n      callvalue\n        /* \"contracts/EthersWallet.sol\":379:387  balances */\n      0x01\n        /* \"contracts/EthersWallet.sol\":379:399  balances[msg.sender] */\n      0x00\n        /* \"contracts/EthersWallet.sol\":388:398  msg.sender */\n      caller\n        /* \"contracts/EthersWallet.sol\":379:399  balances[msg.sender] */\n      0xffffffffffffffffffffffffffffffffffffffff\n      and\n      0xffffffffffffffffffffffffffffffffffffffff\n      and\n      dup2\n      mstore\n      0x20\n      add\n      swap1\n      dup2\n      mstore\n      0x20\n      add\n      0x00\n      keccak256\n      0x00\n        /* \"contracts/EthersWallet.sol\":379:412  balances[msg.sender] += msg.value */\n      dup3\n      dup3\n      sload\n      tag_6\n      swap2\n      swap1\n      tag_7\n      jump\t// in\n    tag_6:\n      swap3\n      pop\n      pop\n      dup2\n      swap1\n      sstore\n      pop\n        /* \"contracts/EthersWallet.sol\":66:495  contract EthersWallet {\r... */\n      stop\n    tag_2:\n      0x00\n      dup1\n      revert\n        /* \"contracts/EthersWallet.sol\":429:492  function withdraw(address _address) external isOwner {\r... */\n    tag_3:\n      callvalue\n      dup1\n      iszero\n      tag_8\n      jumpi\n      0x00\n      dup1\n      revert\n    tag_8:\n      pop\n      tag_9\n      0x04\n      dup1\n      calldatasize\n      sub\n      dup2\n      add\n      swap1\n      tag_10\n      swap2\n      swap1\n      tag_11\n      jump\t// in\n    tag_10:\n      tag_12\n      jump\t// in\n    tag_9:\n      stop\n    tag_12:\n        /* \"contracts/EthersWallet.sol\":227:232  owner */\n      0x00\n      dup1\n      sload\n      swap1\n      0x0100\n      exp\n      swap1\n      div\n      0xffffffffffffffffffffffffffffffffffffffff\n      and\n        /* \"contracts/EthersWallet.sol\":213:232  msg.sender == owner */\n      0xffffffffffffffffffffffffffffffffffffffff\n      and\n        /* \"contracts/EthersWallet.sol\":213:223  msg.sender */\n      caller\n        /* \"contracts/EthersWallet.sol\":213:232  msg.sender == owner */\n      0xffffffffffffffffffffffffffffffffffffffff\n      and\n      eq\n        /* \"contracts/EthersWallet.sol\":205:250  require(msg.sender == owner, \"Not the Owner\") */\n      tag_14\n      jumpi\n      mload(0x40)\n      0x08c379a000000000000000000000000000000000000000000000000000000000\n      dup2\n      mstore\n      0x04\n      add\n      tag_15\n      swap1\n      tag_16\n      jump\t// in\n    tag_15:\n      mload(0x40)\n      dup1\n      swap2\n      sub\n      swap1\n      revert\n    tag_14:\n        /* \"contracts/EthersWallet.sol\":429:492  function withdraw(address _address) external isOwner {\r... */\n      pop\n      jump\t// out\n        /* \"#utility.yul\":7:146   */\n    tag_19:\n        /* \"#utility.yul\":53:58   */\n      0x00\n        /* \"#utility.yul\":91:97   */\n      dup2\n        /* \"#utility.yul\":78:98   */\n      calldataload\n        /* \"#utility.yul\":69:98   */\n      swap1\n      pop\n        /* \"#utility.yul\":107:140   */\n      tag_21\n        /* \"#utility.yul\":134:139   */\n      dup2\n        /* \"#utility.yul\":107:140   */\n      tag_22\n      jump\t// in\n    tag_21:\n        /* \"#utility.yul\":7:146   */\n      swap3\n      swap2\n      pop\n      pop\n      jump\t// out\n        /* \"#utility.yul\":152:481   */\n    tag_11:\n        /* \"#utility.yul\":211:217   */\n      0x00\n        /* \"#utility.yul\":260:262   */\n      0x20\n        /* \"#utility.yul\":248:257   */\n      dup3\n        /* \"#utility.yul\":239:246   */\n      dup5\n        /* \"#utility.yul\":235:258   */\n      sub\n        /* \"#utility.yul\":231:263   */\n      slt\n        /* \"#utility.yul\":228:347   */\n      iszero\n      tag_24\n      jumpi\n        /* \"#utility.yul\":266:345   */\n      tag_25\n      tag_26\n      jump\t// in\n    tag_25:\n        /* \"#utility.yul\":228:347   */\n    tag_24:\n        /* \"#utility.yul\":386:387   */\n      0x00\n        /* \"#utility.yul\":411:464   */\n      tag_27\n        /* \"#utility.yul\":456:463   */\n      dup5\n        /* \"#utility.yul\":447:453   */\n      dup3\n        /* \"#utility.yul\":436:445   */\n      dup6\n        /* \"#utility.yul\":432:454   */\n      add\n        /* \"#utility.yul\":411:464   */\n      tag_19\n      jump\t// in\n    tag_27:\n        /* \"#utility.yul\":401:464   */\n      swap2\n      pop\n        /* \"#utility.yul\":357:474   */\n      pop\n        /* \"#utility.yul\":152:481   */\n      swap3\n      swap2\n      pop\n      pop\n      jump\t// out\n        /* \"#utility.yul\":487:853   */\n    tag_28:\n        /* \"#utility.yul\":629:632   */\n      0x00\n        /* \"#utility.yul\":650:717   */\n      tag_30\n        /* \"#utility.yul\":714:716   */\n      0x0d\n        /* \"#utility.yul\":709:712   */\n      dup4\n        /* \"#utility.yul\":650:717   */\n      tag_31\n      jump\t// in\n    tag_30:\n        /* \"#utility.yul\":643:717   */\n      swap2\n      pop\n        /* \"#utility.yul\":726:819   */\n      tag_32\n        /* \"#utility.yul\":815:818   */\n      dup3\n        /* \"#utility.yul\":726:819   */\n      tag_33\n      jump\t// in\n    tag_32:\n        /* \"#utility.yul\":844:846   */\n      0x20\n        /* \"#utility.yul\":839:842   */\n      dup3\n        /* \"#utility.yul\":835:847   */\n      add\n        /* \"#utility.yul\":828:847   */\n      swap1\n      pop\n        /* \"#utility.yul\":487:853   */\n      swap2\n      swap1\n      pop\n      jump\t// out\n        /* \"#utility.yul\":859:1278   */\n    tag_16:\n        /* \"#utility.yul\":1025:1029   */\n      0x00\n        /* \"#utility.yul\":1063:1065   */\n      0x20\n        /* \"#utility.yul\":1052:1061   */\n      dup3\n        /* \"#utility.yul\":1048:1066   */\n      add\n        /* \"#utility.yul\":1040:1066   */\n      swap1\n      pop\n        /* \"#utility.yul\":1112:1121   */\n      dup2\n        /* \"#utility.yul\":1106:1110   */\n      dup2\n        /* \"#utility.yul\":1102:1122   */\n      sub\n        /* \"#utility.yul\":1098:1099   */\n      0x00\n        /* \"#utility.yul\":1087:1096   */\n      dup4\n        /* \"#utility.yul\":1083:1100   */\n      add\n        /* \"#utility.yul\":1076:1123   */\n      mstore\n        /* \"#utility.yul\":1140:1271   */\n      tag_35\n        /* \"#utility.yul\":1266:1270   */\n      dup2\n        /* \"#utility.yul\":1140:1271   */\n      tag_28\n      jump\t// in\n    tag_35:\n        /* \"#utility.yul\":1132:1271   */\n      swap1\n      pop\n        /* \"#utility.yul\":859:1278   */\n      swap2\n      swap1\n      pop\n      jump\t// out\n        /* \"#utility.yul\":1365:1534   */\n    tag_31:\n        /* \"#utility.yul\":1449:1460   */\n      0x00\n        /* \"#utility.yul\":1483:1489   */\n      dup3\n        /* \"#utility.yul\":1478:1481   */\n      dup3\n        /* \"#utility.yul\":1471:1490   */\n      mstore\n        /* \"#utility.yul\":1523:1527   */\n      0x20\n        /* \"#utility.yul\":1518:1521   */\n      dup3\n        /* \"#utility.yul\":1514:1528   */\n      add\n        /* \"#utility.yul\":1499:1528   */\n      swap1\n      pop\n        /* \"#utility.yul\":1365:1534   */\n      swap3\n      swap2\n      pop\n      pop\n      jump\t// out\n        /* \"#utility.yul\":1540:1845   */\n    tag_7:\n        /* \"#utility.yul\":1580:1583   */\n      0x00\n        /* \"#utility.yul\":1599:1619   */\n      tag_40\n        /* \"#utility.yul\":1617:1618   */\n      dup3\n        /* \"#utility.yul\":1599:1619   */\n      tag_41\n      jump\t// in\n    tag_40:\n        /* \"#utility.yul\":1594:1619   */\n      swap2\n      pop\n        /* \"#utility.yul\":1633:1653   */\n      tag_42\n        /* \"#utility.yul\":1651:1652   */\n      dup4\n        /* \"#utility.yul\":1633:1653   */\n      tag_41\n      jump\t// in\n    tag_42:\n        /* \"#utility.yul\":1628:1653   */\n      swap3\n      pop\n        /* \"#utility.yul\":1787:1788   */\n      dup3\n        /* \"#utility.yul\":1719:1785   */\n      0xffffffffffffffffffffffffffffffffffffffffffffffffffffffffffffffff\n        /* \"#utility.yul\":1715:1789   */\n      sub\n        /* \"#utility.yul\":1712:1713   */\n      dup3\n        /* \"#utility.yul\":1709:1790   */\n      gt\n        /* \"#utility.yul\":1706:1813   */\n      iszero\n      tag_43\n      jumpi\n        /* \"#utility.yul\":1793:1811   */\n      tag_44\n      tag_45\n      jump\t// in\n    tag_44:\n        /* \"#utility.yul\":1706:1813   */\n    tag_43:\n        /* \"#utility.yul\":1837:1838   */\n      dup3\n        /* \"#utility.yul\":1834:1835   */\n      dup3\n        /* \"#utility.yul\":1830:1839   */\n      add\n        /* \"#utility.yul\":1823:1839   */\n      swap1\n      pop\n        /* \"#utility.yul\":1540:1845   */\n      swap3\n      swap2\n      pop\n      pop\n      jump\t// out\n        /* \"#utility.yul\":1851:1947   */\n    tag_46:\n        /* \"#utility.yul\":1888:1895   */\n      0x00\n        /* \"#utility.yul\":1917:1941   */\n      tag_48\n        /* \"#utility.yul\":1935:1940   */\n      dup3\n        /* \"#utility.yul\":1917:1941   */\n      tag_49\n      jump\t// in\n    tag_48:\n        /* \"#utility.yul\":1906:1941   */\n      swap1\n      pop\n        /* \"#utility.yul\":1851:1947   */\n      swap2\n      swap1\n      pop\n      jump\t// out\n        /* \"#utility.yul\":1953:2079   */\n    tag_49:\n        /* \"#utility.yul\":1990:1997   */\n      0x00\n        /* \"#utility.yul\":2030:2072   */\n      0xffffffffffffffffffffffffffffffffffffffff\n        /* \"#utility.yul\":2023:2028   */\n      dup3\n        /* \"#utility.yul\":2019:2073   */\n      and\n        /* \"#utility.yul\":2008:2073   */\n      swap1\n      pop\n        /* \"#utility.yul\":1953:2079   */\n      swap2\n      swap1\n      pop\n      jump\t// out\n        /* \"#utility.yul\":2085:2162   */\n    tag_41:\n        /* \"#utility.yul\":2122:2129   */\n      0x00\n        /* \"#utility.yul\":2151:2156   */\n      dup2\n        /* \"#utility.yul\":2140:2156   */\n      swap1\n      pop\n        /* \"#utility.yul\":2085:2162   */\n      swap2\n      swap1\n      pop\n      jump\t// out\n        /* \"#utility.yul\":2168:2348   */\n    tag_45:\n        /* \"#utility.yul\":2216:2293   */\n      0x4e487b7100000000000000000000000000000000000000000000000000000000\n        /* \"#utility.yul\":2213:2214   */\n      0x00\n        /* \"#utility.yul\":2206:2294   */\n      mstore\n        /* \"#utility.yul\":2313:2317   */\n      0x11\n        /* \"#utility.yul\":2310:2311   */\n      0x04\n        /* \"#utility.yul\":2303:2318   */\n      mstore\n        /* \"#utility.yul\":2337:2341   */\n      0x24\n        /* \"#utility.yul\":2334:2335   */\n      0x00\n        /* \"#utility.yul\":2327:2342   */\n      revert\n        /* \"#utility.yul\":2477:2594   */\n    tag_26:\n        /* \"#utility.yul\":2586:2587   */\n      0x00\n        /* \"#utility.yul\":2583:2584   */\n      dup1\n        /* \"#utility.yul\":2576:2588   */\n      revert\n        /* \"#utility.yul\":2600:2763   */\n    tag_33:\n        /* \"#utility.yul\":2740:2755   */\n      0x4e6f7420746865204f776e657200000000000000000000000000000000000000\n        /* \"#utility.yul\":2736:2737   */\n      0x00\n        /* \"#utility.yul\":2728:2734   */\n      dup3\n        /* \"#utility.yul\":2724:2738   */\n      add\n        /* \"#utility.yul\":2717:2756   */\n      mstore\n        /* \"#utility.yul\":2600:2763   */\n      pop\n      jump\t// out\n        /* \"#utility.yul\":2769:2891   */\n    tag_22:\n        /* \"#utility.yul\":2842:2866   */\n      tag_58\n        /* \"#utility.yul\":2860:2865   */\n      dup2\n        /* \"#utility.yul\":2842:2866   */\n      tag_46\n      jump\t// in\n    tag_58:\n        /* \"#utility.yul\":2835:2840   */\n      dup2\n        /* \"#utility.yul\":2832:2867   */\n      eq\n        /* \"#utility.yul\":2822:2885   */\n      tag_59\n      jumpi\n        /* \"#utility.yul\":2881:2882   */\n      0x00\n        /* \"#utility.yul\":2878:2879   */\n      dup1\n        /* \"#utility.yul\":2871:2883   */\n      revert\n        /* \"#utility.yul\":2822:2885   */\n    tag_59:\n        /* \"#utility.yul\":2769:2891   */\n      pop\n      jump\t// out\n\n    auxdata: 0xa26469706673582212205da2d65fc2e7af82fb0ee1e22b28db9b82df883f4a13cd49e1bbef9d48ecc27f64736f6c63430008070033\n}\n",
				"bytecode": {
					"linkReferences": {},
					"object": "608060405234801561001057600080fd5b50336000806101000a81548173ffffffffffffffffffffffffffffffffffffffff021916908373ffffffffffffffffffffffffffffffffffffffff160217905550610310806100606000396000f3fe6080604052600436106100225760003560e01c806351cff8d9146100845761007f565b3661007f5734600160003373ffffffffffffffffffffffffffffffffffffffff1673ffffffffffffffffffffffffffffffffffffffff168152602001908152602001600020600082825461007691906101d4565b92505081905550005b600080fd5b34801561009057600080fd5b506100ab60048036038101906100a69190610153565b6100ad565b005b60008054906101000a900473ffffffffffffffffffffffffffffffffffffffff1673ffffffffffffffffffffffffffffffffffffffff163373ffffffffffffffffffffffffffffffffffffffff161461013b576040517f08c379a0000000000000000000000000000000000000000000000000000000008152600401610132906101a3565b60405180910390fd5b50565b60008135905061014d816102c3565b92915050565b60006020828403121561016957610168610295565b5b60006101778482850161013e565b91505092915050565b600061018d600d836101c3565b91506101988261029a565b602082019050919050565b600060208201905081810360008301526101bc81610180565b9050919050565b600082825260208201905092915050565b60006101df8261025c565b91506101ea8361025c565b9250827fffffffffffffffffffffffffffffffffffffffffffffffffffffffffffffffff0382111561021f5761021e610266565b5b828201905092915050565b60006102358261023c565b9050919050565b600073ffffffffffffffffffffffffffffffffffffffff82169050919050565b6000819050919050565b7f4e487b7100000000000000000000000000000000000000000000000000000000600052601160045260246000fd5b600080fd5b7f4e6f7420746865204f776e657200000000000000000000000000000000000000600082015250565b6102cc8161022a565b81146102d757600080fd5b5056fea26469706673582212205da2d65fc2e7af82fb0ee1e22b28db9b82df883f4a13cd49e1bbef9d48ecc27f64736f6c63430008070033",
					"opcodes": "PUSH1 0x80 PUSH1 0x40 MSTORE CALLVALUE DUP1 ISZERO PUSH2 0x10 JUMPI PUSH1 0x0 DUP1 REVERT JUMPDEST POP CALLER PUSH1 0x0 DUP1 PUSH2 0x100 EXP DUP2 SLOAD DUP2 PUSH20 0xFFFFFFFFFFFFFFFFFFFFFFFFFFFFFFFFFFFFFFFF MUL NOT AND SWAP1 DUP4 PUSH20 0xFFFFFFFFFFFFFFFFFFFFFFFFFFFFFFFFFFFFFFFF AND MUL OR SWAP1 SSTORE POP PUSH2 0x310 DUP1 PUSH2 0x60 PUSH1 0x0 CODECOPY PUSH1 0x0 RETURN INVALID PUSH1 0x80 PUSH1 0x40 MSTORE PUSH1 0x4 CALLDATASIZE LT PUSH2 0x22 JUMPI PUSH1 0x0 CALLDATALOAD PUSH1 0xE0 SHR DUP1 PUSH4 0x51CFF8D9 EQ PUSH2 0x84 JUMPI PUSH2 0x7F JUMP JUMPDEST CALLDATASIZE PUSH2 0x7F JUMPI CALLVALUE PUSH1 0x1 PUSH1 0x0 CALLER PUSH20 0xFFFFFFFFFFFFFFFFFFFFFFFFFFFFFFFFFFFFFFFF AND PUSH20 0xFFFFFFFFFFFFFFFFFFFFFFFFFFFFFFFFFFFFFFFF AND DUP2 MSTORE PUSH1 0x20 ADD SWAP1 DUP2 MSTORE PUSH1 0x20 ADD PUSH1 0x0 KECCAK256 PUSH1 0x0 DUP3 DUP3 SLOAD PUSH2 0x76 SWAP2 SWAP1 PUSH2 0x1D4 JUMP JUMPDEST SWAP3 POP POP DUP2 SWAP1 SSTORE POP STOP JUMPDEST PUSH1 0x0 DUP1 REVERT JUMPDEST CALLVALUE DUP1 ISZERO PUSH2 0x90 JUMPI PUSH1 0x0 DUP1 REVERT JUMPDEST POP PUSH2 0xAB PUSH1 0x4 DUP1 CALLDATASIZE SUB DUP2 ADD SWAP1 PUSH2 0xA6 SWAP2 SWAP1 PUSH2 0x153 JUMP JUMPDEST PUSH2 0xAD JUMP JUMPDEST STOP JUMPDEST PUSH1 0x0 DUP1 SLOAD SWAP1 PUSH2 0x100 EXP SWAP1 DIV PUSH20 0xFFFFFFFFFFFFFFFFFFFFFFFFFFFFFFFFFFFFFFFF AND PUSH20 0xFFFFFFFFFFFFFFFFFFFFFFFFFFFFFFFFFFFFFFFF AND CALLER PUSH20 0xFFFFFFFFFFFFFFFFFFFFFFFFFFFFFFFFFFFFFFFF AND EQ PUSH2 0x13B JUMPI PUSH1 0x40 MLOAD PUSH32 0x8C379A000000000000000000000000000000000000000000000000000000000 DUP2 MSTORE PUSH1 0x4 ADD PUSH2 0x132 SWAP1 PUSH2 0x1A3 JUMP JUMPDEST PUSH1 0x40 MLOAD DUP1 SWAP2 SUB SWAP1 REVERT JUMPDEST POP JUMP JUMPDEST PUSH1 0x0 DUP2 CALLDATALOAD SWAP1 POP PUSH2 0x14D DUP2 PUSH2 0x2C3 JUMP JUMPDEST SWAP3 SWAP2 POP POP JUMP JUMPDEST PUSH1 0x0 PUSH1 0x20 DUP3 DUP5 SUB SLT ISZERO PUSH2 0x169 JUMPI PUSH2 0x168 PUSH2 0x295 JUMP JUMPDEST JUMPDEST PUSH1 0x0 PUSH2 0x177 DUP5 DUP3 DUP6 ADD PUSH2 0x13E JUMP JUMPDEST SWAP2 POP POP SWAP3 SWAP2 POP POP JUMP JUMPDEST PUSH1 0x0 PUSH2 0x18D PUSH1 0xD DUP4 PUSH2 0x1C3 JUMP JUMPDEST SWAP2 POP PUSH2 0x198 DUP3 PUSH2 0x29A JUMP JUMPDEST PUSH1 0x20 DUP3 ADD SWAP1 POP SWAP2 SWAP1 POP JUMP JUMPDEST PUSH1 0x0 PUSH1 0x20 DUP3 ADD SWAP1 POP DUP2 DUP2 SUB PUSH1 0x0 DUP4 ADD MSTORE PUSH2 0x1BC DUP2 PUSH2 0x180 JUMP JUMPDEST SWAP1 POP SWAP2 SWAP1 POP JUMP JUMPDEST PUSH1 0x0 DUP3 DUP3 MSTORE PUSH1 0x20 DUP3 ADD SWAP1 POP SWAP3 SWAP2 POP POP JUMP JUMPDEST PUSH1 0x0 PUSH2 0x1DF DUP3 PUSH2 0x25C JUMP JUMPDEST SWAP2 POP PUSH2 0x1EA DUP4 PUSH2 0x25C JUMP JUMPDEST SWAP3 POP DUP3 PUSH32 0xFFFFFFFFFFFFFFFFFFFFFFFFFFFFFFFFFFFFFFFFFFFFFFFFFFFFFFFFFFFFFFFF SUB DUP3 GT ISZERO PUSH2 0x21F JUMPI PUSH2 0x21E PUSH2 0x266 JUMP JUMPDEST JUMPDEST DUP3 DUP3 ADD SWAP1 POP SWAP3 SWAP2 POP POP JUMP JUMPDEST PUSH1 0x0 PUSH2 0x235 DUP3 PUSH2 0x23C JUMP JUMPDEST SWAP1 POP SWAP2 SWAP1 POP JUMP JUMPDEST PUSH1 0x0 PUSH20 0xFFFFFFFFFFFFFFFFFFFFFFFFFFFFFFFFFFFFFFFF DUP3 AND SWAP1 POP SWAP2 SWAP1 POP JUMP JUMPDEST PUSH1 0x0 DUP2 SWAP1 POP SWAP2 SWAP1 POP JUMP JUMPDEST PUSH32 0x4E487B7100000000000000000000000000000000000000000000000000000000 PUSH1 0x0 MSTORE PUSH1 0x11 PUSH1 0x4 MSTORE PUSH1 0x24 PUSH1 0x0 REVERT JUMPDEST PUSH1 0x0 DUP1 REVERT JUMPDEST PUSH32 0x4E6F7420746865204F776E657200000000000000000000000000000000000000 PUSH1 0x0 DUP3 ADD MSTORE POP JUMP JUMPDEST PUSH2 0x2CC DUP2 PUSH2 0x22A JUMP JUMPDEST DUP2 EQ PUSH2 0x2D7 JUMPI PUSH1 0x0 DUP1 REVERT JUMPDEST POP JUMP INVALID LOG2 PUSH5 0x6970667358 0x22 SLT KECCAK256 0x5D LOG2 0xD6 0x5F 0xC2 0xE7 0xAF DUP3 0xFB 0xE 0xE1 0xE2 0x2B 0x28 0xDB SWAP12 DUP3 0xDF DUP9 EXTCODEHASH 0x4A SGT 0xCD 0x49 0xE1 0xBB 0xEF SWAP14 BASEFEE 0xEC 0xC2 PUSH32 0x64736F6C63430008070033000000000000000000000000000000000000000000 "
				},
				"gasEstimates": {
					"creation": {
						"codeDepositCost": "156800",
						"executionCost": "24468",
						"totalCost": "181268"
					},
					"external": {
						"withdraw(address)": "2887"
					}
				},
				"methodIdentifiers": {
					"withdraw(address)": "51cff8d9"
				}
			},
			"storageLayout": {
				"storage": [
					{
						"astId": 3,
						"contract": "contracts/EthersWallet.sol:EthersWallet",
						"label": "owner",
						"offset": 0,
						"slot": "0",
						"type": "t_address"
					},
					{
						"astId": 7,
						"contract": "contracts/EthersWallet.sol:EthersWallet",
						"label": "balances",
						"offset": 0,
						"slot": "1",
						"type": "t_mapping(t_address,t_uint256)"
					}
				],
				"types": {
					"t_address": {
						"encoding": "inplace",
						"label": "address",
						"numberOfBytes": "20"
					},
					"t_mapping(t_address,t_uint256)": {
						"encoding": "mapping",
						"key": "t_address",
						"label": "mapping(address => uint256)",
						"numberOfBytes": "32",
						"value": "t_uint256"
					},
					"t_uint256": {
						"encoding": "inplace",
						"label": "uint256",
						"numberOfBytes": "32"
					}
				}
			},
			"userdoc": {
				"kind": "user",
				"methods": {},
				"version": 1
			}
		}
	}
}